{
  "_format": "hh-sol-artifact-1",
  "contractName": "PausableToken",
  "sourceName": "contracts/minter_contracts/ERC20Pausable.sol",
  "abi": [
    {
      "inputs": [
        {
          "internalType": "string",
          "name": "name",
          "type": "string"
        },
        {
          "internalType": "string",
          "name": "symbol",
          "type": "string"
        },
        {
          "internalType": "uint256",
          "name": "initialSupply",
          "type": "uint256"
        }
      ],
      "stateMutability": "nonpayable",
      "type": "constructor"
    },
    {
      "anonymous": false,
      "inputs": [
        {
          "indexed": true,
          "internalType": "address",
          "name": "owner",
          "type": "address"
        },
        {
          "indexed": true,
          "internalType": "address",
          "name": "spender",
          "type": "address"
        },
        {
          "indexed": false,
          "internalType": "uint256",
          "name": "value",
          "type": "uint256"
        }
      ],
      "name": "Approval",
      "type": "event"
    },
    {
      "anonymous": false,
      "inputs": [
        {
          "indexed": false,
          "internalType": "address",
          "name": "account",
          "type": "address"
        }
      ],
      "name": "Paused",
      "type": "event"
    },
    {
      "anonymous": false,
      "inputs": [
        {
          "indexed": true,
          "internalType": "address",
          "name": "from",
          "type": "address"
        },
        {
          "indexed": true,
          "internalType": "address",
          "name": "to",
          "type": "address"
        },
        {
          "indexed": false,
          "internalType": "uint256",
          "name": "value",
          "type": "uint256"
        }
      ],
      "name": "Transfer",
      "type": "event"
    },
    {
      "anonymous": false,
      "inputs": [
        {
          "indexed": false,
          "internalType": "address",
          "name": "account",
          "type": "address"
        }
      ],
      "name": "Unpaused",
      "type": "event"
    },
    {
      "inputs": [
        {
          "internalType": "address",
          "name": "owner",
          "type": "address"
        },
        {
          "internalType": "address",
          "name": "spender",
          "type": "address"
        }
      ],
      "name": "allowance",
      "outputs": [
        {
          "internalType": "uint256",
          "name": "",
          "type": "uint256"
        }
      ],
      "stateMutability": "view",
      "type": "function"
    },
    {
      "inputs": [
        {
          "internalType": "address",
          "name": "spender",
          "type": "address"
        },
        {
          "internalType": "uint256",
          "name": "amount",
          "type": "uint256"
        }
      ],
      "name": "approve",
      "outputs": [
        {
          "internalType": "bool",
          "name": "",
          "type": "bool"
        }
      ],
      "stateMutability": "nonpayable",
      "type": "function"
    },
    {
      "inputs": [
        {
          "internalType": "address",
          "name": "account",
          "type": "address"
        }
      ],
      "name": "balanceOf",
      "outputs": [
        {
          "internalType": "uint256",
          "name": "",
          "type": "uint256"
        }
      ],
      "stateMutability": "view",
      "type": "function"
    },
    {
      "inputs": [],
      "name": "decimals",
      "outputs": [
        {
          "internalType": "uint8",
          "name": "",
          "type": "uint8"
        }
      ],
      "stateMutability": "view",
      "type": "function"
    },
    {
      "inputs": [
        {
          "internalType": "address",
          "name": "spender",
          "type": "address"
        },
        {
          "internalType": "uint256",
          "name": "subtractedValue",
          "type": "uint256"
        }
      ],
      "name": "decreaseAllowance",
      "outputs": [
        {
          "internalType": "bool",
          "name": "",
          "type": "bool"
        }
      ],
      "stateMutability": "nonpayable",
      "type": "function"
    },
    {
      "inputs": [
        {
          "internalType": "address",
          "name": "spender",
          "type": "address"
        },
        {
          "internalType": "uint256",
          "name": "addedValue",
          "type": "uint256"
        }
      ],
      "name": "increaseAllowance",
      "outputs": [
        {
          "internalType": "bool",
          "name": "",
          "type": "bool"
        }
      ],
      "stateMutability": "nonpayable",
      "type": "function"
    },
    {
      "inputs": [],
      "name": "name",
      "outputs": [
        {
          "internalType": "string",
          "name": "",
          "type": "string"
        }
      ],
      "stateMutability": "view",
      "type": "function"
    },
    {
      "inputs": [],
      "name": "pause",
      "outputs": [],
      "stateMutability": "nonpayable",
      "type": "function"
    },
    {
      "inputs": [],
      "name": "paused",
      "outputs": [
        {
          "internalType": "bool",
          "name": "",
          "type": "bool"
        }
      ],
      "stateMutability": "view",
      "type": "function"
    },
    {
      "inputs": [],
      "name": "symbol",
      "outputs": [
        {
          "internalType": "string",
          "name": "",
          "type": "string"
        }
      ],
      "stateMutability": "view",
      "type": "function"
    },
    {
      "inputs": [],
      "name": "totalSupply",
      "outputs": [
        {
          "internalType": "uint256",
          "name": "",
          "type": "uint256"
        }
      ],
      "stateMutability": "view",
      "type": "function"
    },
    {
      "inputs": [
        {
          "internalType": "address",
          "name": "recipient",
          "type": "address"
        },
        {
          "internalType": "uint256",
          "name": "amount",
          "type": "uint256"
        }
      ],
      "name": "transfer",
      "outputs": [
        {
          "internalType": "bool",
          "name": "",
          "type": "bool"
        }
      ],
      "stateMutability": "nonpayable",
      "type": "function"
    },
    {
      "inputs": [
        {
          "internalType": "address",
          "name": "sender",
          "type": "address"
        },
        {
          "internalType": "address",
          "name": "recipient",
          "type": "address"
        },
        {
          "internalType": "uint256",
          "name": "amount",
          "type": "uint256"
        }
      ],
      "name": "transferFrom",
      "outputs": [
        {
          "internalType": "bool",
          "name": "",
          "type": "bool"
        }
      ],
      "stateMutability": "nonpayable",
      "type": "function"
    },
    {
      "inputs": [],
      "name": "unpause",
      "outputs": [],
      "stateMutability": "nonpayable",
      "type": "function"
    }
  ],
  "bytecode": "0x60806040523480156200001157600080fd5b5060405162000ced38038062000ced833981810160405260608110156200003757600080fd5b81019080805160405193929190846401000000008211156200005857600080fd5b9083019060208201858111156200006e57600080fd5b82516401000000008111828201881017156200008957600080fd5b82525081516020918201929091019080838360005b83811015620000b85781810151838201526020016200009e565b50505050905090810190601f168015620000e65780820380516001836020036101000a031916815260200191505b50604052602001805160405193929190846401000000008211156200010a57600080fd5b9083019060208201858111156200012057600080fd5b82516401000000008111828201881017156200013b57600080fd5b82525081516020918201929091019080838360005b838110156200016a57818101518382015260200162000150565b50505050905090810190601f168015620001985780820380516001836020036101000a031916815260200191505b5060405260209081015185519093508592508491620001bd9160039185019062000338565b508051620001d390600490602084019062000338565b50506005805461ff001960ff1990911660121716905550620001f63382620001ff565b505050620003e4565b6001600160a01b0382166200021357600080fd5b6200022160008383620002c6565b6200023d81600254620002e360201b620005ee1790919060201c565b6002556001600160a01b0382166000908152602081815260409091205462000270918390620005ee620002e3821b17901c565b6001600160a01b0383166000818152602081815260408083209490945583518581529351929391927fddf252ad1be2c89b69c2b068fc378daa952ba7f163c4a11628f55a4df523b3ef9281900390910190a35050565b620002de838383620002fd60201b620006071760201c565b505050565b600082820183811015620002f657600080fd5b9392505050565b62000315838383620002de60201b620006241760201c565b6200031f6200032a565b15620002de57600080fd5b600554610100900460ff1690565b828054600181600116156101000203166002900490600052602060002090601f016020900481019282620003705760008555620003bb565b82601f106200038b57805160ff1916838001178555620003bb565b82800160010185558215620003bb579182015b82811115620003bb5782518255916020019190600101906200039e565b50620003c9929150620003cd565b5090565b5b80821115620003c95760008155600101620003ce565b6108f980620003f46000396000f3fe608060405234801561001057600080fd5b50600436106100ea5760003560e01c80635c975abb1161008c57806395d89b411161006657806395d89b4114610286578063a457c2d71461028e578063a9059cbb146102ba578063dd62ed3e146102e6576100ea565b80635c975abb1461025057806370a08231146102585780638456cb591461027e576100ea565b806323b872dd116100c857806323b872dd146101c6578063313ce567146101fc578063395093511461021a5780633f4ba83a14610246576100ea565b806306fdde03146100ef578063095ea7b31461016c57806318160ddd146101ac575b600080fd5b6100f7610314565b6040805160208082528351818301528351919283929083019185019080838360005b83811015610131578181015183820152602001610119565b50505050905090810190601f16801561015e5780820380516001836020036101000a031916815260200191505b509250505060405180910390f35b6101986004803603604081101561018257600080fd5b506001600160a01b0381351690602001356103aa565b604080519115158252519081900360200190f35b6101b46103c7565b60408051918252519081900360200190f35b610198600480360360608110156101dc57600080fd5b506001600160a01b038135811691602081013590911690604001356103cd565b610204610454565b6040805160ff9092168252519081900360200190f35b6101986004803603604081101561023057600080fd5b506001600160a01b03813516906020013561045d565b61024e6104ab565b005b6101986104b5565b6101b46004803603602081101561026e57600080fd5b50356001600160a01b03166104c3565b61024e6104de565b6100f76104e6565b610198600480360360408110156102a457600080fd5b506001600160a01b038135169060200135610547565b610198600480360360408110156102d057600080fd5b506001600160a01b0381351690602001356105af565b6101b4600480360360408110156102fc57600080fd5b506001600160a01b03813581169160200135166105c3565b60038054604080516020601f60026000196101006001881615020190951694909404938401819004810282018101909252828152606093909290918301828280156103a05780601f10610375576101008083540402835291602001916103a0565b820191906000526020600020905b81548152906001019060200180831161038357829003601f168201915b5050505050905090565b60006103be6103b7610629565b848461062d565b50600192915050565b60025490565b60006103da8484846106b5565b61044a846103e6610629565b610445856040518060600160405280602881526020016108a0602891396001600160a01b038a16600090815260016020526040812090610424610629565b6001600160a01b0316815260208101919091526040016000205491906107ac565b61062d565b5060019392505050565b60055460ff1690565b60006103be61046a610629565b84610445856001600061047b610629565b6001600160a01b03908116825260208083019390935260409182016000908120918c1681529252902054906105ee565b6104b36107c2565b565b600554610100900460ff1690565b6001600160a01b031660009081526020819052604090205490565b6104b3610824565b60048054604080516020601f60026000196101006001881615020190951694909404938401819004810282018101909252828152606093909290918301828280156103a05780601f10610375576101008083540402835291602001916103a0565b60006103be610554610629565b84610445856040518060600160405280602581526020016108c8602591396001600061057e610629565b6001600160a01b03908116825260208083019390935260409182016000908120918d168152925290205491906107ac565b60006103be6105bc610629565b84846106b5565b6001600160a01b03918216600090815260016020908152604080832093909416825291909152205490565b60008282018381101561060057600080fd5b9392505050565b610612838383610624565b61061a6104b5565b1561062457600080fd5b505050565b3390565b6001600160a01b03831661064057600080fd5b6001600160a01b03821661065357600080fd5b6001600160a01b03808416600081815260016020908152604080832094871680845294825291829020859055815185815291517f8c5be1e5ebec7d5bd14f71427d1e84f3dd0314c0f7b2291e5b200ac8c7c3b9259281900390910190a3505050565b6001600160a01b0383166106c857600080fd5b6001600160a01b0382166106db57600080fd5b6106e683838361086e565b6107238160405180606001604052806026815260200161087a602691396001600160a01b03861660009081526020819052604090205491906107ac565b6001600160a01b03808516600090815260208190526040808220939093559084168152205461075290826105ee565b6001600160a01b038084166000818152602081815260409182902094909455805185815290519193928716927fddf252ad1be2c89b69c2b068fc378daa952ba7f163c4a11628f55a4df523b3ef92918290030190a3505050565b6000838311156107bb57600080fd5b5050900390565b6107ca6104b5565b6107d357600080fd5b6005805461ff00191690557f5db9ee0a495bf2e6ff9c91a7834c1ba4fdd244a5e8aa4e537bd38aeae4b073aa610807610629565b604080516001600160a01b039092168252519081900360200190a1565b61082c6104b5565b1561083657600080fd5b6005805461ff0019166101001790557f62e78cea01bee320cd4e420270b5ea74000d11b0c9f74754ebdbfc544b05a258610807610629565b61062483838361060756fe45524332303a207472616e7366657220616d6f756e7420657863656564732062616c616e636545524332303a207472616e7366657220616d6f756e74206578636565647320616c6c6f77616e636545524332303a2064656372656173656420616c6c6f77616e63652062656c6f77207a65726fa164736f6c6343000706000a",
  "linkReferences": {},
  "deployedLinkReferences": {}
}