{
  "_format": "hh-sol-artifact-1",
  "contractName": "NFTDescriptor",
  "sourceName": "contracts/uniswap/libraries/NFTDescriptor.sol",
  "abi": [
    {
      "inputs": [
        {
          "components": [
            {
              "internalType": "uint256",
              "name": "tokenId",
              "type": "uint256"
            },
            {
              "internalType": "address",
              "name": "quoteTokenAddress",
              "type": "address"
            },
            {
              "internalType": "address",
              "name": "baseTokenAddress",
              "type": "address"
            },
            {
              "internalType": "string",
              "name": "quoteTokenSymbol",
              "type": "string"
            },
            {
              "internalType": "string",
              "name": "baseTokenSymbol",
              "type": "string"
            },
            {
              "internalType": "uint8",
              "name": "quoteTokenDecimals",
              "type": "uint8"
            },
            {
              "internalType": "uint8",
              "name": "baseTokenDecimals",
              "type": "uint8"
            },
            {
              "internalType": "bool",
              "name": "flipRatio",
              "type": "bool"
            },
            {
              "internalType": "int24",
              "name": "tickLower",
              "type": "int24"
            },
            {
              "internalType": "int24",
              "name": "tickUpper",
              "type": "int24"
            },
            {
              "internalType": "int24",
              "name": "tickCurrent",
              "type": "int24"
            },
            {
              "internalType": "int24",
              "name": "tickSpacing",
              "type": "int24"
            },
            {
              "internalType": "uint24",
              "name": "fee",
              "type": "uint24"
            },
            {
              "internalType": "address",
              "name": "poolAddress",
              "type": "address"
            }
          ],
          "internalType": "struct NFTDescriptor.ConstructTokenURIParams",
          "name": "params",
          "type": "tuple"
        }
      ],
      "name": "constructTokenURI",
      "outputs": [
        {
          "internalType": "string",
          "name": "",
          "type": "string"
        }
      ],
      "stateMutability": "pure",
      "type": "function"
    }
  ],
  "bytecode": "0x615f56610026600b82828239805160001a60731461001957fe5b30600052607381538281f3fe73000000000000000000000000000000000000000030146080604052600436106100355760003560e01c8063c49917d71461003a575b600080fd5b61004d610048366004613ec6565b610063565b60405161005a9190614608565b60405180910390f35b6060600061007e83610079856101800151610170565b6103d1565b905060006100b2610092856060015161048c565b61009f866080015161048c565b6100ad876101a00151610644565b61065a565b905060006101006100c6866000015161068c565b6100d3876080015161048c565b6100e08860200151610644565b6100ed8960400151610644565b6100fb8a6101800151610170565b610767565b905060006101156101108761079d565b6107a8565b9050610145848484846040516020016101319493929190614283565b6040516020818303038152906040526107a8565b60405160200161015591906145c3565b6040516020818303038152906040529450505050505b919050565b606062ffffff82166101b6575060408051808201909152600281527f3025000000000000000000000000000000000000000000000000000000000000602082015261016b565b816000805b62ffffff8316156102065760ff8116156101d7576001016101f0565b600a62ffffff84160662ffffff166000146101f0576001015b600190910190600a62ffffff84160492506101bb565b61020e613dc0565b60006005841061030357600060046102298660ff8716610ab2565b1015610236576001610239565b60005b60ff908116915061024d9085166001610ab2565b610258866005610ab2565b106102845761027f61026e60ff86166001610ab2565b610279876005610ab2565b90610ab2565b610287565b60005b60ff8516604085018190529092506102a6906001906102799085610ac7565b60ff908116606085015260408401516102cd9183916102c791166001610ab2565b90610ac7565b60ff90811660808501526102f59082906102c7906102ee9088166001610ac7565b8590610ac7565b60ff16602084015250610373565b61030e600585610ab2565b60026040840181905290915061032c90600190610279908490610ac7565b60ff908116606084015261034e906103479085166002610ac7565b8290610ac7565b60ff1660208301819052610363906002610ab2565b60ff166080830152600160c08301525b6103926103838560ff8616610ab2565b62ffffff891690600a0a610ad9565b8252600160e0830152600484116103aa5760006103b5565b6103b5846004610ab2565b60ff1660a08301526103c682610af8565b979650505050505050565b6060816103e1846060015161048c565b6103ee856080015161048c565b6104278660e00151156104065786610120015161040d565b8661010001515b8761016001518860c001518960a001518a60e00151610d24565b6104608760e001511561043f57876101000151610446565b8761012001515b8861016001518960c001518a60a001518b60e00151610d24565b6040516020016104749594939291906143aa565b60405160208183030381529060405290505b92915050565b6060816000805b82518160ff1610156104f057828160ff16815181106104ae57fe5b6020910101517fff0000000000000000000000000000000000000000000000000000000000000016601160f91b14156104e8576001909101905b600101610493565b5060ff81161561063c5760008160ff1683510167ffffffffffffffff8111801561051957600080fd5b506040519080825280601f01601f191660200182016040528015610544576020820181803683370190505b5090506000805b84518160ff16101561062f57848160ff168151811061056657fe5b6020910101517fff0000000000000000000000000000000000000000000000000000000000000016601160f91b14156105e4577f5c000000000000000000000000000000000000000000000000000000000000008383806001019450815181106105cc57fe5b60200101906001600160f81b031916908160001a9053505b848160ff16815181106105f357fe5b602001015160f81c60f81b83838060010194508151811061061057fe5b60200101906001600160f81b031916908160001a90535060010161054b565b508194505050505061016b565b509192915050565b60606104866001600160a01b0383166014610e4e565b6060838383866040516020016106739493929190614137565b60405160208183030381529060405290505b9392505050565b6060816106b157506040805180820190915260018152600360fc1b602082015261016b565b8160005b81156106c957600101600a820491506106b5565b60008167ffffffffffffffff811180156106e257600080fd5b506040519080825280601f01601f19166020018201604052801561070d576020820181803683370190505b50859350905060001982015b831561075e57600a840660300160f81b8282806001900393508151811061073c57fe5b60200101906001600160f81b031916908160001a905350600a84049350610719565b50949350505050565b606083858484896040516020016107829594939291906144ab565b60405160208183030381529060405290505b95945050505050565b606061048682610f8e565b8051606090806107c857505060408051602081019091526000815261016b565b6004600360028301040260008167ffffffffffffffff811180156107eb57600080fd5b506040519080825280601f01601f191660200182016040528015610816576020820181803683370190505b5090506000805b84821015610a0857600087838151811061083357fe5b016020015160019093019260f81c90508583101561086857600888848151811061085957fe5b016020015160f81c901b60ff16175b6001909201918583101561089357601088848151811061088457fe5b016020015160f81c901b60ff16175b60408051606081018252818152600190940193906152296020830139601282901c603f16815181106108c157fe5b602001015160f81c60f81b8483815181106108d857fe5b60200101906001600160f81b031916908160001a90535060405180606001604052806040815260200161522960409139600c82901c603f168151811061091a57fe5b602001015160f81c60f81b84836001018151811061093457fe5b60200101906001600160f81b031916908160001a90535060405180606001604052806040815260200161522960409139600682901c603f168151811061097657fe5b602001015160f81c60f81b84836002018151811061099057fe5b60200101906001600160f81b031916908160001a9053506040518060600160405280604081526020016152296040913981603f16815181106109ce57fe5b602001015160f81c60f81b8483600301815181106109e857fe5b60200101906001600160f81b031916908160001a9053505060040161081d565b6003850660011415610a6f57603d60f81b836002860381518110610a2857fe5b60200101906001600160f81b031916908160001a905350603d60f81b836001860381518110610a5357fe5b60200101906001600160f81b031916908160001a905350610aa7565b6003850660021415610aa757603d60f81b836001860381518110610a8f57fe5b60200101906001600160f81b031916908160001a9053505b509095945050505050565b600082821115610ac157600080fd5b50900390565b60008282018381101561068557600080fd5b6000808211610ae757600080fd5b818381610af057fe5b049392505050565b60606000826020015160ff1667ffffffffffffffff81118015610b1a57600080fd5b506040519080825280601f01601f191660200182016040528015610b45576020820181803683370190505b5090508260e0015115610b9b577f250000000000000000000000000000000000000000000000000000000000000081600183510381518110610b8357fe5b60200101906001600160f81b031916908160001a9053505b8260c0015115610bf857600360fc1b81600081518110610bb757fe5b60200101906001600160f81b031916908160001a905350601760f91b81600181518110610be057fe5b60200101906001600160f81b031916908160001a9053505b604083015160ff165b6060840151610c149060ff166001610ac7565b811015610c4b57603060f81b828281518110610c2c57fe5b60200101906001600160f81b031916908160001a905350600101610c01565b505b8251156104865760008360a0015160ff16118015610c7857508260a0015160ff16836080015160ff16145b15610cbb5760808301805160ff600019820181169092528251601760f91b92849216908110610ca357fe5b60200101906001600160f81b031916908160001a9053505b8251610ccd90603090600a9006610ac7565b60f81b818460800180518091906001900360ff1660ff1681525060ff1681518110610cf457fe5b60200101906001600160f81b031916908160001a905350600a8360000181815181610d1b57fe5b04905250610c4d565b606084600281900b620d89e71981610d3857fe5b050260020b8660020b1415610d92578115610d6e576040518060400160405280600381526020016209a82b60eb1b815250610d8b565b6040518060400160405280600381526020016226a4a760e91b8152505b9050610794565b84600281900b620d89e881610da357fe5b050260020b8660020b1415610df9578115610dd9576040518060400160405280600381526020016226a4a760e91b815250610d8b565b5060408051808201909152600381526209a82b60eb1b6020820152610794565b6000610e04876111c9565b90508215610e3b57610e3878010000000000000000000000000000000000000000000000006001600160a01b038316610ad9565b90505b610e468186866114cf565b915050610794565b606060008260020260020167ffffffffffffffff81118015610e6f57600080fd5b506040519080825280601f01601f191660200182016040528015610e9a576020820181803683370190505b509050600360fc1b81600081518110610eaf57fe5b60200101906001600160f81b031916908160001a9053507f780000000000000000000000000000000000000000000000000000000000000081600181518110610ef457fe5b60200101906001600160f81b031916908160001a905350600160028402015b6001811115610f82577f303132333435363738396162636465660000000000000000000000000000000085600f1660108110610f4b57fe5b1a60f81b828281518110610f5b57fe5b60200101906001600160f81b031916908160001a90535060049490941c9360001901610f13565b50831561068557600080fd5b60606000604051806102a00160405280610fab8560200151610644565b8152602001610fbd8560400151610644565b8152602001846101a001516001600160a01b031681526020018460600151815260200184608001518152602001610ff8856101800151610170565b815260200184610100015160020b815260200184610120015160020b815260200184610160015160020b815260200161104185610100015186610120015187610140015161169d565b60000b81526020018460000151815260200161106b85602001516001600160a01b031660886116d4565b815260200161108885604001516001600160a01b031660886116d4565b81526020016110a585602001516001600160a01b031660006116d4565b81526020016110c285604001516001600160a01b031660006116d4565b81526020016110f56110e786602001516001600160a01b0316601088600001516116e3565b600060ff6010610112611703565b815260200161112861111a86604001516001600160a01b0316601088600001516116e3565b600060ff60646101e4611703565b815260200161114d6110e786602001516001600160a01b0316602088600001516116e3565b815260200161117261111a86604001516001600160a01b0316602088600001516116e3565b81526020016111976110e786602001516001600160a01b0316603088600001516116e3565b81526020016111bc61111a86604001516001600160a01b0316603088600001516116e3565b905290506106858161174b565b60008060008360020b126111e0578260020b6111e8565b8260020b6000035b9050620d89e88111156111fa57600080fd5b60006001821661120e57600160801b611220565b6ffffcb933bd6fad37aa2d162d1a5940015b70ffffffffffffffffffffffffffffffffff1690506002821615611254576ffff97272373d413259a46990580e213a0260801c5b6004821615611273576ffff2e50f5f656932ef12357cf3c7fdcc0260801c5b6008821615611292576fffe5caca7e10e4e61c3624eaa0941cd00260801c5b60108216156112b1576fffcb9843d60f6159c9db58835c9266440260801c5b60208216156112d0576fff973b41fa98c081472e6896dfb254c00260801c5b60408216156112ef576fff2ea16466c96a3843ec78b326b528610260801c5b608082161561130e576ffe5dee046a99a2a811c461f1969c30530260801c5b61010082161561132e576ffcbe86c7900a88aedcffc83b479aa3a40260801c5b61020082161561134e576ff987a7253ac413176f2b074cf7815e540260801c5b61040082161561136e576ff3392b0822b70005940c7a398e4b70f30260801c5b61080082161561138e576fe7159475a2c29b7443b29c7fa6e889d90260801c5b6110008216156113ae576fd097f3bdfd2022b8845ad8f792aa58250260801c5b6120008216156113ce576fa9f746462d870fdf8a65dc1f90e061e50260801c5b6140008216156113ee576f70d869a156d2a1b890bb3df62baf32f70260801c5b61800082161561140e576f31be135f97d08fd981231505542fcfa60260801c5b6201000082161561142f576f09aa508b5b7a84e1c677de54f3e99bc90260801c5b6202000082161561144f576e5d6af8dedb81196699c329225ee6040260801c5b6204000082161561146e576d2216e584f5fa1ea926041bedfe980260801c5b6208000082161561148b576b048a170391f7dc42444e8fa20260801c5b60008460020b13156114a65780600019816114a257fe5b0490505b6401000000008106156114ba5760016114bd565b60005b60ff16602082901c0192505050919050565b606060006114de8585856119da565b905060006114f6828368010000000000000000611ade565b90506c0100000000000000000000000082108015611537576115308272047bf19673df52e37f2410011d100000000000600160801b611ade565b915061154c565b61154982620186a0600160801b611ade565b91505b8160005b811561156457600101600a82049150611550565b600019016000806115758684611b8d565b915091508015611586576001909201915b61158e613dc0565b85156115fb576115ad6115a5602b60ff8716610ab2565b600790610ac7565b60ff9081166020830152600260408301526115d3906001906102c790602b908816610ab2565b60ff908116606083015260208201516115ee91166001610ab2565b60ff166080820152611672565b60098460ff16106116445761161460ff85166004610ab2565b60ff166020820181905260056040830152611630906001610ab2565b60ff16606082015260046080820152611672565b60066020820152600560808201819052611669906001906102c79060ff881690610ab2565b60ff1660a08201525b82815285151560c0820152600060e082015261168d81610af8565b9c9b505050505050505050505050565b60008360020b8260020b12156116b65750600019610685565b8260020b8260020b13156116cc57506001610685565b506000610685565b606061068583831c6003611bfe565b600060ff826116f28686611cbd565b02816116fa57fe5b06949350505050565b606061174161173c846102c7611719888a610ab2565b611736611726888a610ab2565b6117308d8d610ab2565b90611cc4565b90610ad9565b61068c565b9695505050505050565b606061175682611ceb565b611772836000015184602001518560600151866080015161239f565b611789846060015185608001518660a001516126ca565b6117a78560c001518660e0015187610100015188610120015161281a565b6117c76117b887610140015161068c565b8760c001518860e00151612b6d565b6117da8761014001518860400151612f9e565b6040516020018087805190602001908083835b6020831061180c5780518252601f1990920191602091820191016117ed565b51815160209384036101000a600019018019909216911617905289519190930192890191508083835b602083106118545780518252601f199092019160209182019101611835565b51815160209384036101000a600019018019909216911617905288519190930192880191508083835b6020831061189c5780518252601f19909201916020918201910161187d565b51815160209384036101000a600019018019909216911617905287519190930192870191508083835b602083106118e45780518252601f1990920191602091820191016118c5565b51815160209384036101000a600019018019909216911617905286519190930192860191508083835b6020831061192c5780518252601f19909201916020918201910161190d565b51815160209384036101000a600019018019909216911617905285519190930192850191508083835b602083106119745780518252601f199092019160209182019101611955565b5181516020939093036101000a60001901801990911692169190911790527f3c2f7376673e000000000000000000000000000000000000000000000000000092019182525060408051808303601919018152600690920190529998505050505050505050565b6000806119f56119f060ff868116908616613016565b613049565b9050600081118015611a08575060128111155b15611ac9578260ff168460ff161115611a7257611a3c611a29826002610ad9565b6001600160a01b03871690600a0a611cc4565b91506002810660011415611a6d57611a6a827003298b075b4b6a5240945790619b37fd4a600160801b611ade565b91505b611ac4565b611a93611a80826002610ad9565b6001600160a01b03871690600a0a610ad9565b91506002810660011415611ac457611ac182600160801b7003298b075b4b6a5240945790619b37fd4a611ade565b91505b611ad6565b846001600160a01b031691505b509392505050565b6000808060001985870986860292508281109083900303905080611b145760008411611b0957600080fd5b508290049050610685565b808411611b2057600080fd5b6000848688096000868103871696879004966002600389028118808a02820302808a02820302808a02820302808a02820302808a02820302808a02909103029181900381900460010186841190950394909402919094039290920491909117919091029150509392505050565b600080600060058460ff161115611bb557611bb28560ff600419870116600a0a610ad9565b94505b60006004600a8706119050611bcb86600a610ad9565b95508015611bda578560010195505b85620186a01415611bf057600a86049550600191505b5084925090505b9250929050565b606060008260020267ffffffffffffffff81118015611c1c57600080fd5b506040519080825280601f01601f191660200182016040528015611c47576020820181803683370190505b5080519091505b8015611ad6577f303132333435363738396162636465660000000000000000000000000000000085600f1660108110611c8357fe5b1a60f81b826001830381518110611c9657fe5b60200101906001600160f81b031916908160001a90535060049490941c9360001901611c4e565b1c60ff1690565b600082611cd357506000610486565b82820282848281611ce057fe5b041461068557600080fd5b6060611d8082610160015160405160200180806150026081913960810182805190602001908083835b60208310611d335780518252601f199092019160209182019101611d14565b6001836020036101000a038019825116818451168082178552505050505050905001806813979f1e17b9bb339f60b91b8152506009019150506040516020818303038152906040526107a8565b611eec836101e001518461020001518561018001516040516020018080614b3f6063913960630184805190602001908083835b60208310611dd25780518252601f199092019160209182019101611db3565b51815160209384036101000a600019018019909216911617905265272063793d2760d01b919093019081528551600690910192860191508083835b60208310611e2c5780518252601f199092019160209182019101611e0d565b51815160209384036101000a60001901801990921691161790527f2720723d273132307078272066696c6c3d272300000000000000000000000000919093019081528451601390910192850191508083835b60208310611e9d5780518252601f199092019160209182019101611e7e565b6001836020036101000a038019825116818451168082178552505050505050905001806813979f1e17b9bb339f60b91b81525060090193505050506040516020818303038152906040526107a8565b611f3d846102200151856102400151866101a001516040516020018080614b3f60639139606301848051906020019080838360208310611dd25780518252601f199092019160209182019101611db3565b61205c856102600151866102800151876101c001516040516020018080614b3f6063913960630184805190602001908083835b60208310611f8f5780518252601f199092019160209182019101611f70565b51815160209384036101000a600019018019909216911617905265272063793d2760d01b919093019081528551600690910192860191508083835b60208310611fe95780518252601f199092019160209182019101611fca565b51815160001960209485036101000a019081169019919091161790527f2720723d273130307078272066696c6c3d272300000000000000000000000000939091019283528451601390930192908501915080838360208310611e9d5780518252601f199092019160209182019101611e7e565b6101608601516040516020018060566148ba8239605601602c61526982397f3c646566733e0000000000000000000000000000000000000000000000000000602c820152603201604b614fb78239604b0186805190602001908083835b602083106120d85780518252601f1990920191602091820191016120b9565b6001836020036101000a03801982511681845116808217855250505050505090500180615ace603e9139603e0185805190602001908083835b602083106121305780518252601f199092019160209182019101612111565b6001836020036101000a03801982511681845116808217855250505050505090500180615083603e9139603e0184805190602001908083835b602083106121885780518252601f199092019160209182019101612169565b5181516020939093036101000a60001901801990911692169190911790527f22202f3e00000000000000000000000000000000000000000000000000000000920191825250600401603b6147b28239603b0183805190602001908083835b602083106122055780518252601f1990920191602091820191016121e6565b6001836020036101000a03801982511681845116808217855250505050505090500180614bff60999139609901607f61567f8239607f016088615a4682396088016041614c988239604101605d615c068239605d01607261572b8239607201604961471b823960490160be614ef9823960be0160716149cb823960710160756155c282396075016066614cd9823960660160a4615295823960a4016085615b0c82397f3c6720636c69702d706174683d2275726c2823636f726e65727329223e00000060858201527f3c726563742066696c6c3d22000000000000000000000000000000000000000060a2820152825160ae9091019060208401908083835b602083106123235780518252601f199092019160209182019101612304565b6001836020036101000a03801982511681845116808217855250505050505090500180614d3f60319139603101604e6147648239604e01605d614ba28239605d0160416151e8823960410160526150c182396052016075615b918239607501955050505050506040516020818303038152906040529050919050565b60608382858488878a896040516020018080615ce960259139602501607d614e7c8239607d0189805190602001908083835b602083106123f05780518252601f1990920191602091820191016123d1565b51815160209384036101000a600019018019909216911617905264010714051160dd1b919093019081528a516005909101928b0191508083835b602083106124495780518252601f19909201916020918201910161242a565b6001836020036101000a03801982511681845116808217855250505050505090500180614d70607991396079016086615c63823960860187805190602001908083835b602083106124ab5780518252601f19909201916020918201910161248c565b51815160209384036101000a600019018019909216911617905264010714051160dd1b919093019081528851600590910192890191508083835b602083106125045780518252601f1990920191602091820191016124e5565b6001836020036101000a0380198251168184511680821785525050505050509050018061494660859139608501607b6158b48239607b0185805190602001908083835b602083106125665780518252601f199092019160209182019101612547565b51815160209384036101000a600019018019909216911617905264010714051160dd1b919093019081528651600590910192870191508083835b602083106125bf5780518252601f1990920191602091820191016125a0565b6001836020036101000a03801982511681845116808217855250505050505090500180614a90605d9139605d0160a361551f823960a30183805190602001908083835b602083106126215780518252601f199092019160209182019101612602565b51815160209384036101000a600019018019909216911617905264010714051160dd1b919093019081528451600590910192850191508083835b6020831061267a5780518252601f19909201916020918201910161265b565b6001836020036101000a03801982511681845116808217855250505050505090500180614690608b9139608b01985050505050505050506040516020818303038152906040529050949350505050565b606083838360405160200180806147ed60cd913960cd0184805190602001908083835b6020831061270c5780518252601f1990920191602091820191016126ed565b6001836020036101000a03801982511681845116808217855250505050505090500180602f60f81b81525060010183805190602001908083835b602083106127655780518252601f199092019160209182019101612746565b6001836020036101000a03801982511681845116808217855250505050505090500180615e6e6077913960770182805190602001908083835b602083106127bd5780518252601f19909201916020918201910161279e565b5181516020939093036101000a60001901801990911692169190911790526a1e17ba32bc3a1f1e17b39f60a91b920191825250600b016073615d0e8239607301935050505060405160208183030381529060405290509392505050565b606060008260000b6001146128ac578260000b60001914612870576040518060400160405280600581526020017f236e6f6e650000000000000000000000000000000000000000000000000000008152506128a7565b6040518060400160405280600a81526020017f23666164652d646f776e000000000000000000000000000000000000000000008152505b6128e3565b6040518060400160405280600881526020017f23666164652d75700000000000000000000000000000000000000000000000008152505b905060006128f2878787613060565b905081818383612901886132ae565b60405160200180807f3c67206d61736b3d2275726c2800000000000000000000000000000000000000815250600d0186805190602001908083835b6020831061295b5780518252601f19909201916020918201910161293c565b5181516020939093036101000a600019018019909116921691909117905261149160f11b9201918252506002016077615339823960770185805190602001908083835b602083106129bd5780518252601f19909201916020918201910161299e565b6001836020036101000a03801982511681845116808217855250505050505090500180614a3c60549139605401807f3c2f673e3c67206d61736b3d2275726c2800000000000000000000000000000081525060110184805190602001908083835b60208310612a3d5780518252601f199092019160209182019101612a1e565b5181516020939093036101000a600019018019909116921691909117905261149160f11b92019182525060020160296153b0823960290160456154038239604501807f3c7061746820643d22000000000000000000000000000000000000000000000081525060090183805190602001908083835b60208310612ad15780518252601f199092019160209182019101612ab2565b6001836020036101000a038019825116818451168082178552505050505050905001806156376048913960480182805190602001908083835b60208310612b295780518252601f199092019160209182019101612b0a565b6001836020036101000a0380198251168184511680821785525050505050509050019550505050505060405160208183030381529060405292505050949350505050565b60606000612b7a84613782565b90506000612b8784613782565b865183518251929350600490910191600a9182019101600080612baa8a8a61388c565b91509150612bbd8560040160070261068c565b8b612bcd8660040160070261068c565b89612bdd8760040160070261068c565b8a878760405160200180806156fe602d9139602d01806c1e3932b1ba103bb4b23a341e9160991b815250600d0189805190602001908083835b60208310612c355780518252601f199092019160209182019101612c16565b6001836020036101000a03801982511681845116808217855250505050505090500180615113603d9139603d01608d615d818239608d0188805190602001908083835b60208310612c975780518252601f199092019160209182019101612c78565b5181516020939093036101000a60001901801990911692169190911790526a1e17ba32bc3a1f1e17b39f60a91b920191825250600b01602d615f1d8239602d01806c1e3932b1ba103bb4b23a341e9160991b815250600d0187805190602001908083835b60208310612d1a5780518252601f199092019160209182019101612cfb565b6001836020036101000a03801982511681845116808217855250505050505090500180615113603d9139603d016093614de9823960930186805190602001908083835b60208310612d7c5780518252601f199092019160209182019101612d5d565b5181516020939093036101000a60001901801990911692169190911790526a1e17ba32bc3a1f1e17b39f60a91b920191825250600b01602d614aed8239602d01806c1e3932b1ba103bb4b23a341e9160991b815250600d0185805190602001908083835b60208310612dff5780518252601f199092019160209182019101612de0565b6001836020036101000a03801982511681845116808217855250505050505090500180615113603d9139603d01609361592f823960930184805190602001908083835b60208310612e615780518252601f199092019160209182019101612e42565b6001836020036101000a03801982511681845116808217855250505050505090500180615ee5603891396038016060615e0e823960600160646154bb82396064016025614b1a823960250183805190602001908083835b60208310612ed75780518252601f199092019160209182019101612eb8565b51815160209384036101000a60001901801990921691161790527f70782c2000000000000000000000000000000000000000000000000000000000919093019081528451600490910192850191508083835b60208310612f485780518252601f199092019160209182019101612f29565b6001836020036101000a0380198251168184511680821785525050505050509050018061491060369139603601985050505050505050506040516020818303038152906040529750505050505050509392505050565b6060612faa8383613cbd565b156130005760405160200180608d6158278239608d016073615448823960730160716151778239607101608a61579d8239608a0160846159c2823960840190506040516020818303038152906040529050610486565b5060408051602081019091526000815292915050565b600081830381831280159061302b5750838113155b80613040575060008312801561304057508381135b61068557600080fd5b60008082121561305c5781600003610486565b5090565b606060008260020b85850360020b8161307557fe5b05905060048160020b136130c0576040518060400160405280601a81526020017f4d312031433431203431203130352031303520313435203134350000000000008152509150611ad6565b60088160020b13613108576040518060400160405280601981526020017f4d312031433333203439203937203131332031343520313435000000000000008152509150611ad6565b60108160020b13613150576040518060400160405280601981526020017f4d312031433333203537203839203131332031343520313435000000000000008152509150611ad6565b60208160020b13613198576040518060400160405280601981526020017f4d312031433235203635203831203132312031343520313435000000000000008152509150611ad6565b60408160020b136131e0576040518060400160405280601981526020017f4d312031433137203733203733203132392031343520313435000000000000008152509150611ad6565b60808160020b13613228576040518060400160405280601881526020017f4d312031433920383120363520313337203134352031343500000000000000008152509150611ad6565b6101008160020b13613271576040518060400160405280601a81526020017f4d31203143312038392035372e352031343520313435203134350000000000008152509150611ad6565b505060408051808201909152601881527f4d3120314331203937203439203134352031343520313435000000000000000060208201529392505050565b604080518082018252600281527f37330000000000000000000000000000000000000000000000000000000000006020808301919091528251808401845260038082527f313930000000000000000000000000000000000000000000000000000000000082840152845180860186528181527f32313700000000000000000000000000000000000000000000000000000000008185015285518087019096529085527f3333340000000000000000000000000000000000000000000000000000000000928501929092526060939091906001600087900b148061339557508560000b600019145b1561358c578560000b600019146133ac57816133ae565b835b8660000b600019146133c057816133c2565b835b8760000b600019146133d457836133d6565b855b8860000b600019146133e857836133ea565b855b60405160200180806b1e31b4b931b6329031bc1e9160a11b815250600c0185805190602001908083835b602083106134335780518252601f199092019160209182019101613414565b51815160209384036101000a600019018019909216911617905267383c111031bc9e9160c11b919093019081528651600890910192870191508083835b6020831061348f5780518252601f199092019160209182019101613470565b6001836020036101000a038019825116818451168082178552505050505050905001806151506027913960270183805190602001908083835b602083106134e75780518252601f1990920191602091820191016134c8565b51815160209384036101000a600019018019909216911617905267383c111031bc9e9160c11b919093019081528451600890910192850191508083835b602083106135435780518252601f199092019160209182019101613524565b6001836020036101000a038019825116818451168082178552505050505050905001806153d9602a9139602a019450505050506040516020818303038152906040529450613779565b8383838360405160200180806b1e31b4b931b6329031bc1e9160a11b815250600c0185805190602001908083835b602083106135d95780518252601f1990920191602091820191016135ba565b51815160209384036101000a600019018019909216911617905267383c111031bc9e9160c11b919093019081528651600890910192870191508083835b602083106136355780518252601f199092019160209182019101613616565b51815160209384036101000a60001901801990921691161790527f70782220723d22347078222066696c6c3d22776869746522202f3e0000000000919093019081526b1e31b4b931b6329031bc1e9160a11b601b8201528551602790910192860191508083835b602083106136bb5780518252601f19909201916020918201910161369c565b51815160209384036101000a600019018019909216911617905267383c111031bc9e9160c11b919093019081528451600890910192850191508083835b602083106137175780518252601f1990920191602091820191016136f8565b6001836020036101000a038019825116818451168082178552505050505050905001807f70782220723d22347078222066696c6c3d22776869746522202f3e0000000000815250601b0194505050505060405160208183030381529060405294505b50505050919050565b6060600060405180602001604052806000815250905060008360020b12156137c85782600019029250604051806040016040528060018152602001602d60f81b81525090505b806137d58460020b61068c565b6040516020018083805190602001908083835b602083106138075780518252601f1990920191602091820191016137e8565b51815160209384036101000a600019018019909216911617905285519190930192850191508083835b6020831061384f5780518252601f199092019160209182019101613830565b6001836020036101000a03801982511681845116808217855250505050505090500192505050604051602081830303815290604052915050919050565b60608060006002858501810b0590506201e847198160020b121561390457604051806040016040528060018152602001600760fb1b8152506040518060400160405280600181526020017f37000000000000000000000000000000000000000000000000000000000000008152509250925050611bf7565b620124f7198160020b121561396d57604051806040016040528060018152602001600760fb1b8152506040518060400160405280600481526020017f31302e35000000000000000000000000000000000000000000000000000000008152509250925050611bf7565b6161a7198160020b12156139d557604051806040016040528060018152602001600760fb1b8152506040518060400160405280600581526020017f31342e32350000000000000000000000000000000000000000000000000000008152509250925050611bf7565b611387198160020b1215613a3e576040518060400160405280600281526020017f313000000000000000000000000000000000000000000000000000000000000081525060405180604001604052806002815260200161062760f31b8152509250925050611bf7565b60008160020b1215613aa5576040518060400160405280600281526020017f313100000000000000000000000000000000000000000000000000000000000081525060405180604001604052806002815260200161323160f01b8152509250925050611bf7565b6113888160020b1215613b28576040518060400160405280600281526020017f31330000000000000000000000000000000000000000000000000000000000008152506040518060400160405280600281526020017f32330000000000000000000000000000000000000000000000000000000000008152509250925050611bf7565b6161a88160020b1215613bab576040518060400160405280600281526020017f31350000000000000000000000000000000000000000000000000000000000008152506040518060400160405280600281526020017f32350000000000000000000000000000000000000000000000000000000000008152509250925050611bf7565b620124f88160020b1215613c145760405180604001604052806002815260200161062760f31b8152506040518060400160405280600281526020017f32360000000000000000000000000000000000000000000000000000000000008152509250925050611bf7565b6201e8488160020b1215613c625760405180604001604052806002815260200161323160f01b81525060405180604001604052806002815260200161323760f01b8152509250925050611bf7565b6040518060400160405280600281526020017f323400000000000000000000000000000000000000000000000000000000000081525060405180604001604052806002815260200161323760f01b8152509250925050611bf7565b6040805160208082018590526bffffffffffffffffffffffff19606085901b16828401528251603481840301815260549092019092528051910120600090613d0484613d20565b60020260010160ff1660001981613d1757fe5b04119392505050565b6000808211613d2e57600080fd5b600160801b8210613d4157608091821c91015b680100000000000000008210613d5957604091821c91015b6401000000008210613d6d57602091821c91015b620100008210613d7f57601091821c91015b6101008210613d9057600891821c91015b60108210613da057600491821c91015b60048210613db057600291821c91015b6002821061016b57600101919050565b6040805161010081018252600080825260208201819052918101829052606081018290526080810182905260a0810182905260c0810182905260e081019190915290565b80356001600160a01b038116811461016b57600080fd5b8035801515811461016b57600080fd5b8035600281900b811461016b57600080fd5b600082601f830112613e4d578081fd5b813567ffffffffffffffff811115613e6157fe5b613e74601f8201601f191660200161463b565b818152846020838601011115613e88578283fd5b816020850160208301379081016020019190915292915050565b803562ffffff8116811461016b57600080fd5b803560ff8116811461016b57600080fd5b600060208284031215613ed7578081fd5b813567ffffffffffffffff80821115613eee578283fd5b81840191506101c0808387031215613f04578384fd5b613f0d8161463b565b905082358152613f1f60208401613e04565b6020820152613f3060408401613e04565b6040820152606083013582811115613f46578485fd5b613f5287828601613e3d565b606083015250608083013582811115613f69578485fd5b613f7587828601613e3d565b608083015250613f8760a08401613eb5565b60a0820152613f9860c08401613eb5565b60c0820152613fa960e08401613e1b565b60e08201526101009150613fbe828401613e2b565b828201526101209150613fd2828401613e2b565b828201526101409150613fe6828401613e2b565b828201526101609150613ffa828401613e2b565b82820152610180915061400e828401613ea2565b828201526101a09150614022828401613e04565b91810191909152949350505050565b6000815161404381856020860161465f565b9290920192915050565b7fe29aa0efb88f20444953434c41494d45523a204475652064696c6967656e636581527f20697320696d7065726174697665207768656e20617373657373696e6720746860208201527f6973204e46542e204d616b65207375726520746f6b656e20616464726573736560408201527f73206d617463682074686520657870656374656420746f6b656e732c2061732060608201527f746f6b656e2073796d626f6c73206d617920626520696d6974617465642e00006080820152609e0190565b7f5c6e5c6e00000000000000000000000000000000000000000000000000000000815260040190565b60007f54686973204e465420726570726573656e74732061206c69717569646974792082527f706f736974696f6e20696e206120556e6973776170205633200000000000000060208301528551614195816039850160208a0161465f565b602d60f81b60399184019182015285516141b681603a840160208a0161465f565b7f20706f6f6c2e2000000000000000000000000000000000000000000000000000603a92909101918201527f546865206f776e6572206f662074686973204e46542063616e206d6f6469667960418201527f206f722072656465656d2074686520706f736974696f6e2e5c6e00000000000060618201527f5c6e506f6f6c20416464726573733a2000000000000000000000000000000000607b820152845161426681608b84016020890161465f565b612e3760f11b608b92909101918201526103c6608d820185614031565b60007f7b226e616d65223a220000000000000000000000000000000000000000000000825285516142bb816009850160208a0161465f565b7f222c20226465736372697074696f6e223a22000000000000000000000000000060099184019182015285516142f881601b840160208a0161465f565b855191019061430e81601b84016020890161465f565b7f222c2022696d616765223a202200000000000000000000000000000000000000601b92909101918201527f646174613a696d6167652f7376672b786d6c3b6261736536342c0000000000006028820152835161437281604284016020880161465f565b7f227d000000000000000000000000000000000000000000000000000000000000604292909101918201526044019695505050505050565b60007f556e6973776170202d2000000000000000000000000000000000000000000000825286516143e281600a850160208b0161465f565b80830190507f202d20000000000000000000000000000000000000000000000000000000000080600a830152875161442181600d850160208c0161465f565b602f60f81b600d9390910192830152865161444381600e850160208b0161465f565b600e920191820152845161445e81601184016020890161465f565b7f3c3e00000000000000000000000000000000000000000000000000000000000060119290910191820152835161449c81601384016020880161465f565b01601301979650505050505050565b60007f20416464726573733a200000000000000000000000000000000000000000000080835287516144e481600a860160208c0161465f565b612e3760f11b600a91850191820152875161450681600c840160208c0161465f565b01600c810191909152855190614523826016830160208a0161465f565b8181019150507f5c6e46656520546965723a2000000000000000000000000000000000000000006016820152845161456281602284016020890161465f565b7f5c6e546f6b656e2049443a2000000000000000000000000000000000000000006022929091019182015283516145a081602e84016020880161465f565b6145b66145b1602e8385010161410e565b61404d565b9998505050505050505050565b60007f646174613a6170706c69636174696f6e2f6a736f6e3b6261736536342c000000825282516145fb81601d85016020870161465f565b91909101601d0192915050565b600060208252825180602084015261462781604085016020870161465f565b601f01601f19169190910160400192915050565b60405181810167ffffffffffffffff8111828210171561465757fe5b604052919050565b60005b8381101561467a578181015183820152602001614662565b83811115614689576000848401525b5050505056fe203c616e696d6174652061646469746976653d2273756d22206174747269627574654e616d653d2273746172744f6666736574222066726f6d3d2230252220746f3d22313030252220626567696e3d22307322206475723d223330732220726570656174436f756e743d22696e646566696e69746522202f3e3c2f74657874506174683e3c2f746578743e3c73746f70206f66667365743d222e39222073746f702d636f6c6f723d227768697465222073746f702d6f7061636974793d223022202f3e3c2f6c696e6561724772616469656e743e3c72656374207374796c653d2266696c7465723a2075726c28236631292220783d223070782220793d22307078222077696474683d22323930707822206865696768743d22353030707822202f3e3c6665496d61676520726573756c743d2270332220786c696e6b3a687265663d22646174613a696d6167652f7376672b786d6c3b6261736536342c3c67206d61736b3d2275726c2823666164652d73796d626f6c29223e3c726563742066696c6c3d226e6f6e652220783d223070782220793d22307078222077696474683d22323930707822206865696768743d22323030707822202f3e203c7465787420793d22373070782220783d2233327078222066696c6c3d2277686974652220666f6e742d66616d696c793d2227436f7572696572204e6577272c206d6f6e6f73706163652220666f6e742d7765696768743d223230302220666f6e742d73697a653d2233367078223e3c7376672077696474683d2232393022206865696768743d22353030222076696577426f783d2230203020323930203530302220786d6c6e733d22687474703a2f2f7777772e77332e6f72672f323030302f7376672270782c2030707829222063783d22307078222063793d223070782220723d22347078222066696c6c3d227768697465222f3e3c2f673e203c616e696d6174652061646469746976653d2273756d22206174747269627574654e616d653d2273746172744f6666736574222066726f6d3d2230252220746f3d22313030252220626567696e3d22307322206475723d223330732220726570656174436f756e743d22696e646566696e69746522202f3e203c2f74657874506174683e3c6d61736b2069643d22666164652d757022206d61736b436f6e74656e74556e6974733d226f626a656374426f756e64696e67426f78223e3c726563742077696474683d223122206865696768743d2231222066696c6c3d2275726c2823677261642d75702922202f3e3c2f6d61736b3e22207374726f6b653d227267626128302c302c302c302e332922207374726f6b652d77696474683d2233327078222066696c6c3d226e6f6e6522207374726f6b652d6c696e656361703d22726f756e6422202f3e203c616e696d6174652061646469746976653d2273756d22206174747269627574654e616d653d2273746172744f6666736574222066726f6d3d2230252220746f3d22313030252220626567696e3d22307322206475723d2233307322203c67207374796c653d227472616e73666f726d3a7472616e736c61746528323970782c20343434707829223e3c636972636c65207374796c653d227472616e73666f726d3a7472616e736c6174653364283c7376672077696474683d2732393027206865696768743d27353030272076696577426f783d2730203020323930203530302720786d6c6e733d27687474703a2f2f7777772e77332e6f72672f323030302f737667273e3c636972636c652063783d27203c67207374796c653d2266696c7465723a75726c2823746f702d726567696f6e2d626c7572293b207472616e73666f726d3a7363616c6528312e35293b207472616e73666f726d2d6f726967696e3a63656e74657220746f703b223e22202f3e3c6665426c656e64206d6f64653d226f7665726c61792220696e3d2270302220696e323d22703122202f3e3c6665426c656e64206d6f64653d226578636c7573696f6e2220696e323d22703222202f3e3c6665426c656e64206d6f64653d226f7665726c61792220696e323d2270332220726573756c743d22626c656e644f757422202f3e3c6665476175737369616e426c7572203c706174682069643d226d696e696d61702220643d224d3233342034343443323334203435372e393439203234322e323120343633203235332034363322202f3e3c6d61736b2069643d226e6f6e6522206d61736b436f6e74656e74556e6974733d226f626a656374426f756e64696e67426f78223e3c726563742077696474683d223122206865696768743d2231222066696c6c3d22776869746522202f3e3c2f6d61736b3e2220783d223070782220793d22307078222077696474683d22323930707822206865696768743d22353030707822202f3e203c616e696d6174652061646469746976653d2273756d22206174747269627574654e616d653d2273746172744f6666736574222066726f6d3d2230252220746f3d22313030252220626567696e3d22307322206475723d223330732220726570656174436f756e743d22696e646566696e69746522202f3e3c7465787420783d22313270782220793d22313770782220666f6e742d66616d696c793d2227436f7572696572204e6577272c206d6f6e6f73706163652220666f6e742d73697a653d2231327078222066696c6c3d227768697465223e3c747370616e2066696c6c3d2272676261283235352c3235352c3235352c302e3629223e4d696e205469636b3a203c2f747370616e3e3c74657874506174682073746172744f66667365743d222d31303025222066696c6c3d2277686974652220666f6e742d66616d696c793d2227436f7572696572204e6577272c206d6f6e6f73706163652220666f6e742d73697a653d22313070782220786c696e6b3a687265663d2223746578742d706174682d61223e3c6c696e6561724772616469656e742069643d22677261642d646f776e222078313d2230222078323d2231222079313d2230222079323d2231223e3c73746f70206f66667365743d22302e30222073746f702d636f6c6f723d227768697465222073746f702d6f7061636974793d223122202f3e3c73746f70206f66667365743d22302e39222073746f702d636f6c6f723d227768697465222073746f702d6f7061636974793d223022202f3e3c2f6c696e6561724772616469656e743e3c66696c7465722069643d226631223e3c6665496d61676520726573756c743d2270302220786c696e6b3a687265663d22646174613a696d6167652f7376672b786d6c3b6261736536342c3c7376672077696474683d2732393027206865696768743d27353030272076696577426f783d2730203020323930203530302720786d6c6e733d27687474703a2f2f7777772e77332e6f72672f323030302f737667273e3c726563742077696474683d27323930707827206865696768743d273530307078272066696c6c3d2723222f3e3c6665496d61676520726573756c743d2270322220786c696e6b3a687265663d22646174613a696d6167652f7376672b786d6c3b6261736536342c3c656c6c697073652063783d22353025222063793d22307078222072783d223138307078222072793d223132307078222066696c6c3d222330303022206f7061636974793d22302e383522202f3e3c2f673e707822206865696768743d2232367078222072783d22387078222072793d22387078222066696c6c3d227267626128302c302c302c302e362922202f3e70782220723d22347078222066696c6c3d22776869746522202f3e3c636972636c652063783d2231312e333437384c32342031324c31342e343334312031322e363532324c32322e333932332031384c31332e373831392031332e373831394c31382032322e333932334c31322e363532322031342e343334314c31322032344c31312e333437382031342e343334314c362032322e33393c726563742066696c6c3d226e6f6e652220783d223070782220793d22307078222077696474683d22323930707822206865696768743d22353030707822202f3e4142434445464748494a4b4c4d4e4f505152535455565758595a6162636465666768696a6b6c6d6e6f707172737475767778797a303132333435363738392b2f20786d6c6e733a786c696e6b3d27687474703a2f2f7777772e77332e6f72672f313939392f786c696e6b273e3c6c696e6561724772616469656e742069643d22677261642d73796d626f6c223e3c73746f70206f66667365743d22302e37222073746f702d636f6c6f723d227768697465222073746f702d6f7061636974793d223122202f3e3c73746f70206f66667365743d222e3935222073746f702d636f6c6f723d227768697465222073746f702d6f7061636974793d223022202f3e3c2f6c696e6561724772616469656e743e207374796c653d227472616e73666f726d3a7472616e736c61746528373270782c313839707829223e3c7265637420783d222d313670782220793d222d31367078222077696474683d22313830707822206865696768743d223138307078222066696c6c3d226e6f6e6522202f3e3c7061746820643d22207374796c653d227472616e73666f726d3a7472616e736c61746528373270782c313839707829223e70782220723d2232347078222066696c6c3d226e6f6e6522207374726f6b653d22776869746522202f3e3c7265637420783d222d313670782220793d222d31367078222077696474683d22313830707822206865696768743d223138307078222066696c6c3d226e6f6e6522202f3e3c673e3c70617468207374796c653d227472616e73666f726d3a7472616e736c617465283670782c367078292220643d224d313220304c31322e3635323220392e35363538374c313820312e363037374c31332e373831392031302e323138314c32322e3339323320364c31342e34333431203c70617468207374726f6b652d6c696e656361703d22726f756e642220643d224d38203943382e30303030342032322e393439342031362e32303939203238203237203238222066696c6c3d226e6f6e6522207374726f6b653d22776869746522202f3e20726570656174436f756e743d22696e646566696e69746522202f3e3c2f74657874506174683e3c74657874506174682073746172744f66667365743d222d353025222066696c6c3d2277686974652220666f6e742d66616d696c793d2227436f7572696572204e6577272c206d6f6e6f73706163652220666f6e742d73697a653d22313070782220786c696e6b3a687265663d2223746578742d706174682d61223e3c6d61736b2069643d22666164652d646f776e22206d61736b436f6e74656e74556e6974733d226f626a656374426f756e64696e67426f78223e3c726563742077696474683d223122206865696768743d2231222066696c6c3d2275726c2823677261642d646f776e2922202f3e3c2f6d61736b3e22207374726f6b653d2272676261283235352c3235352c3235352c3129222066696c6c3d226e6f6e6522207374726f6b652d6c696e656361703d22726f756e6422202f3e3c2f673e696e3d22626c656e644f75742220737464446576696174696f6e3d22343222202f3e3c2f66696c7465723e203c636c6970506174682069643d22636f726e657273223e3c726563742077696474683d2232393022206865696768743d22353030222072783d223432222072793d22343222202f3e3c2f636c6970506174683e203c67207374796c653d227472616e73666f726d3a7472616e736c61746528323970782c20333834707829223e3c6c696e6561724772616469656e742069643d22677261642d7570222078313d2231222078323d2230222079313d2231222079323d2230223e3c73746f70206f66667365743d22302e30222073746f702d636f6c6f723d227768697465222073746f702d6f7061636974793d223122202f3e32334c31302e323138312031332e373831394c312e363037372031384c392e35363538372031322e363532324c302031324c392e35363538372031312e333437384c312e3630373720364c31302e323138312031302e323138314c3620312e363037374c31312e3334373820392e35363538374c313220305a222066696c6c3d22776869746522202f3e3c67207374796c653d227472616e73666f726d3a7472616e736c6174652832323670782c20333932707829223e3c726563742077696474683d223336707822206865696768743d2233367078222072783d22387078222072793d22387078222066696c6c3d226e6f6e6522207374726f6b653d2272676261283235352c3235352c3235352c302e322922202f3e3c74657874506174682073746172744f66667365743d22353025222066696c6c3d2277686974652220666f6e742d66616d696c793d2227436f7572696572204e6577272c206d6f6e6f73706163652220666f6e742d73697a653d22313070782220786c696e6b3a687265663d2223746578742d706174682d61223e3c7465787420783d22313270782220793d22313770782220666f6e742d66616d696c793d2227436f7572696572204e6577272c206d6f6e6f73706163652220666f6e742d73697a653d2231327078222066696c6c3d227768697465223e3c747370616e2066696c6c3d2272676261283235352c3235352c3235352c302e3629223e4d6178205469636b3a203c2f747370616e3e3c616e696d6174655472616e73666f726d206174747269627574654e616d653d227472616e73666f726d2220747970653d22726f74617465222066726f6d3d22302031382031382220746f3d2233363020313820313822206475723d223130732220726570656174436f756e743d22696e646566696e697465222f3e3c2f673e3c2f673e3c706174682069643d22746578742d706174682d612220643d224d34302031322048323530204132382032382030203020312032373820343020563436302041323820323820302030203120323530203438382048343020413238203238203020302031203132203436302056343020413238203238203020302031203430203132207a22202f3e222f3e3c6665496d61676520726573756c743d2270312220786c696e6b3a687265663d22646174613a696d6167652f7376672b786d6c3b6261736536342c3c6d61736b2069643d22666164652d73796d626f6c22206d61736b436f6e74656e74556e6974733d227573657253706163654f6e557365223e3c726563742077696474683d22323930707822206865696768743d223230307078222066696c6c3d2275726c2823677261642d73796d626f6c2922202f3e3c2f6d61736b3e3c2f646566733e3c7265637420783d22302220793d2230222077696474683d2232393022206865696768743d22353030222072783d223432222072793d223432222066696c6c3d227267626128302c302c302c302922207374726f6b653d2272676261283235352c3235352c3235352c302e322922202f3e3c2f673e3c66696c7465722069643d22746f702d726567696f6e2d626c7572223e3c6665476175737369616e426c757220696e3d22536f75726365477261706869632220737464446576696174696f6e3d22323422202f3e3c2f66696c7465723e3c2f74657874506174683e203c74657874506174682073746172744f66667365743d223025222066696c6c3d2277686974652220666f6e742d66616d696c793d2227436f7572696572204e6577272c206d6f6e6f73706163652220666f6e742d73697a653d22313070782220786c696e6b3a687265663d2223746578742d706174682d61223e3c7465787420746578742d72656e646572696e673d226f7074696d697a655370656564223e3c7265637420783d2231362220793d223136222077696474683d2232353822206865696768743d22343638222072783d223236222072793d223236222066696c6c3d227267626128302c302c302c302922207374726f6b653d2272676261283235352c3235352c3235352c302e322922202f3e3c7465787420783d22313270782220793d22313770782220666f6e742d66616d696c793d2227436f7572696572204e6577272c206d6f6e6f73706163652220666f6e742d73697a653d2231327078222066696c6c3d227768697465223e3c747370616e2066696c6c3d2272676261283235352c3235352c3235352c302e3629223e49443a203c2f747370616e3e3c726563742077696474683d223336707822206865696768743d2233367078222072783d22387078222072793d22387078222066696c6c3d226e6f6e6522207374726f6b653d2272676261283235352c3235352c3235352c302e322922202f3e3c2f746578743e3c7465787420793d2231313570782220783d2233327078222066696c6c3d2277686974652220666f6e742d66616d696c793d2227436f7572696572204e6577272c206d6f6e6f73706163652220666f6e742d7765696768743d223230302220666f6e742d73697a653d2233367078223e3c2f746578743e3c2f673e3c67207374796c653d227472616e73666f726d3a7472616e736c6174652832323670782c20343333707829223e203c67207374796c653d227472616e73666f726d3a7472616e736c61746528323970782c20343134707829223ea164736f6c6343000706000a",
  "linkReferences": {},
  "deployedLinkReferences": {}
}