{
  "_format": "hh-sol-artifact-1",
  "contractName": "TokenMinter",
  "sourceName": "contracts/TokenMinter.sol",
  "abi": [
    {
      "inputs": [
        {
          "internalType": "address",
          "name": "_moopToken",
          "type": "address"
        },
        {
          "internalType": "address",
          "name": "_feeRecipient",
          "type": "address"
        }
      ],
      "stateMutability": "nonpayable",
      "type": "constructor"
    },
    {
      "anonymous": false,
      "inputs": [
        {
          "indexed": false,
          "internalType": "address",
          "name": "oldRecipient",
          "type": "address"
        },
        {
          "indexed": false,
          "internalType": "address",
          "name": "newRecipient",
          "type": "address"
        }
      ],
      "name": "FeeRecipientUpdated",
      "type": "event"
    },
    {
      "anonymous": false,
      "inputs": [
        {
          "indexed": false,
          "internalType": "uint256",
          "name": "oldFee",
          "type": "uint256"
        },
        {
          "indexed": false,
          "internalType": "uint256",
          "name": "newFee",
          "type": "uint256"
        }
      ],
      "name": "MintFeeUpdated",
      "type": "event"
    },
    {
      "anonymous": false,
      "inputs": [
        {
          "indexed": true,
          "internalType": "address",
          "name": "previousOwner",
          "type": "address"
        },
        {
          "indexed": true,
          "internalType": "address",
          "name": "newOwner",
          "type": "address"
        }
      ],
      "name": "OwnershipTransferred",
      "type": "event"
    },
    {
      "anonymous": false,
      "inputs": [
        {
          "indexed": false,
          "internalType": "address",
          "name": "account",
          "type": "address"
        }
      ],
      "name": "Paused",
      "type": "event"
    },
    {
      "anonymous": false,
      "inputs": [
        {
          "indexed": true,
          "internalType": "address",
          "name": "creator",
          "type": "address"
        },
        {
          "indexed": false,
          "internalType": "address",
          "name": "tokenAddress",
          "type": "address"
        },
        {
          "indexed": false,
          "internalType": "string",
          "name": "name",
          "type": "string"
        },
        {
          "indexed": false,
          "internalType": "string",
          "name": "symbol",
          "type": "string"
        },
        {
          "indexed": false,
          "internalType": "string",
          "name": "tokenType",
          "type": "string"
        }
      ],
      "name": "TokenCreated",
      "type": "event"
    },
    {
      "anonymous": false,
      "inputs": [
        {
          "indexed": true,
          "internalType": "address",
          "name": "user",
          "type": "address"
        },
        {
          "indexed": false,
          "internalType": "address",
          "name": "tokenAddress",
          "type": "address"
        },
        {
          "indexed": false,
          "internalType": "uint256",
          "name": "amount",
          "type": "uint256"
        }
      ],
      "name": "TokenMinted",
      "type": "event"
    },
    {
      "anonymous": false,
      "inputs": [
        {
          "indexed": false,
          "internalType": "address",
          "name": "account",
          "type": "address"
        }
      ],
      "name": "Unpaused",
      "type": "event"
    },
    {
      "inputs": [],
      "name": "MIN_MOOP_BALANCE",
      "outputs": [
        {
          "internalType": "uint256",
          "name": "",
          "type": "uint256"
        }
      ],
      "stateMutability": "view",
      "type": "function"
    },
    {
      "inputs": [
        {
          "internalType": "address",
          "name": "token",
          "type": "address"
        }
      ],
      "name": "addSupportedToken",
      "outputs": [],
      "stateMutability": "nonpayable",
      "type": "function"
    },
    {
      "inputs": [
        {
          "internalType": "string",
          "name": "tokenType",
          "type": "string"
        },
        {
          "internalType": "string",
          "name": "name",
          "type": "string"
        },
        {
          "internalType": "string",
          "name": "symbol",
          "type": "string"
        },
        {
          "internalType": "uint256",
          "name": "initialSupply",
          "type": "uint256"
        },
        {
          "internalType": "bytes",
          "name": "bytecode",
          "type": "bytes"
        }
      ],
      "name": "createToken",
      "outputs": [
        {
          "internalType": "address",
          "name": "",
          "type": "address"
        }
      ],
      "stateMutability": "payable",
      "type": "function"
    },
    {
      "inputs": [],
      "name": "feeRecipient",
      "outputs": [
        {
          "internalType": "address",
          "name": "",
          "type": "address"
        }
      ],
      "stateMutability": "view",
      "type": "function"
    },
    {
      "inputs": [
        {
          "internalType": "address",
          "name": "token",
          "type": "address"
        },
        {
          "internalType": "uint256",
          "name": "amount",
          "type": "uint256"
        }
      ],
      "name": "mintExistingToken",
      "outputs": [],
      "stateMutability": "payable",
      "type": "function"
    },
    {
      "inputs": [],
      "name": "mintFee",
      "outputs": [
        {
          "internalType": "uint256",
          "name": "",
          "type": "uint256"
        }
      ],
      "stateMutability": "view",
      "type": "function"
    },
    {
      "inputs": [],
      "name": "moopToken",
      "outputs": [
        {
          "internalType": "address",
          "name": "",
          "type": "address"
        }
      ],
      "stateMutability": "view",
      "type": "function"
    },
    {
      "inputs": [],
      "name": "owner",
      "outputs": [
        {
          "internalType": "address",
          "name": "",
          "type": "address"
        }
      ],
      "stateMutability": "view",
      "type": "function"
    },
    {
      "inputs": [],
      "name": "pause",
      "outputs": [],
      "stateMutability": "nonpayable",
      "type": "function"
    },
    {
      "inputs": [],
      "name": "paused",
      "outputs": [
        {
          "internalType": "bool",
          "name": "",
          "type": "bool"
        }
      ],
      "stateMutability": "view",
      "type": "function"
    },
    {
      "inputs": [
        {
          "internalType": "address",
          "name": "token",
          "type": "address"
        }
      ],
      "name": "removeSupportedToken",
      "outputs": [],
      "stateMutability": "nonpayable",
      "type": "function"
    },
    {
      "inputs": [],
      "name": "renounceOwnership",
      "outputs": [],
      "stateMutability": "nonpayable",
      "type": "function"
    },
    {
      "inputs": [
        {
          "internalType": "address",
          "name": "_feeRecipient",
          "type": "address"
        }
      ],
      "name": "setFeeRecipient",
      "outputs": [],
      "stateMutability": "nonpayable",
      "type": "function"
    },
    {
      "inputs": [
        {
          "internalType": "uint256",
          "name": "_mintFee",
          "type": "uint256"
        }
      ],
      "name": "setMintFee",
      "outputs": [],
      "stateMutability": "nonpayable",
      "type": "function"
    },
    {
      "inputs": [
        {
          "internalType": "address",
          "name": "",
          "type": "address"
        }
      ],
      "name": "supportedTokens",
      "outputs": [
        {
          "internalType": "bool",
          "name": "",
          "type": "bool"
        }
      ],
      "stateMutability": "view",
      "type": "function"
    },
    {
      "inputs": [
        {
          "internalType": "address",
          "name": "newOwner",
          "type": "address"
        }
      ],
      "name": "transferOwnership",
      "outputs": [],
      "stateMutability": "nonpayable",
      "type": "function"
    },
    {
      "inputs": [],
      "name": "unpause",
      "outputs": [],
      "stateMutability": "nonpayable",
      "type": "function"
    },
    {
      "stateMutability": "payable",
      "type": "receive"
    }
  ],
  "bytecode": "0x60a060405266038d7ea4c6800060035534801561001b57600080fd5b506040516114de3803806114de8339818101604052604081101561003e57600080fd5b5080516020909101516000610051610121565b600080546001600160a01b0319166001600160a01b0383169081178255604051929350917f8be0079c531659141344cd1fd0a4f28419497f9722a3daafe3b4186f6b6457e0908290a350600180556002805460ff191690556001600160a01b0382166100bc57600080fd5b6001600160a01b0381166100cf57600080fd5b606082901b6001600160601b03191660805260028054610100600160a81b0319166101006001600160a01b0393841602179055166000908152600460205260409020805460ff19166001179055610125565b3390565b60805160601c61138d6101516000398061065c52806109615280610ab55280610ca9525061138d6000f3fe6080604052600436106101125760003560e01c8063715018a6116100a5578063c403d8a311610074578063e9301ded11610059578063e9301ded1461031a578063eddd0d9c1461055d578063f2fde38b146105875761011c565b8063c403d8a3146102d2578063e74b981b146102e75761011c565b8063715018a61461026057806376319190146102755780638456cb59146102a85780638da5cb5b146102bd5761011c565b806347d6015f116100e157806347d6015f146101bc5780635c975abb146101d157806368c4ac26146101fa5780636d69fcaf1461022d5761011c565b806313966db5146101215780633f4ba83a146101485780634606ca101461015f578063469048401461018b5761011c565b3661011c57600080fd5b600080fd5b34801561012d57600080fd5b506101366105ba565b60408051918252519081900360200190f35b34801561015457600080fd5b5061015d6105c0565b005b61015d6004803603604081101561017557600080fd5b506001600160a01b0381351690602001356105f6565b34801561019757600080fd5b506101a061094b565b604080516001600160a01b039092168252519081900360200190f35b3480156101c857600080fd5b506101a061095f565b3480156101dd57600080fd5b506101e6610983565b604080519115158252519081900360200190f35b34801561020657600080fd5b506101e66004803603602081101561021d57600080fd5b50356001600160a01b031661098c565b34801561023957600080fd5b5061015d6004803603602081101561025057600080fd5b50356001600160a01b03166109a1565b34801561026c57600080fd5b5061015d610a04565b34801561028157600080fd5b5061015d6004803603602081101561029857600080fd5b50356001600160a01b0316610a87565b3480156102b457600080fd5b5061015d610b13565b3480156102c957600080fd5b506101a0610b47565b3480156102de57600080fd5b50610136610b56565b3480156102f357600080fd5b5061015d6004803603602081101561030a57600080fd5b50356001600160a01b0316610b62565b6101a0600480360360a081101561033057600080fd5b81019060208101813564010000000081111561034b57600080fd5b82018360208201111561035d57600080fd5b8035906020019184600183028401116401000000008311171561037f57600080fd5b91908080601f01602080910402602001604051908101604052809392919081815260200183838082843760009201919091525092959493602081019350359150506401000000008111156103d257600080fd5b8201836020820111156103e457600080fd5b8035906020019184600183028401116401000000008311171561040657600080fd5b91908080601f016020809104026020016040519081016040528093929190818152602001838380828437600092019190915250929594936020810193503591505064010000000081111561045957600080fd5b82018360208201111561046b57600080fd5b8035906020019184600183028401116401000000008311171561048d57600080fd5b91908080601f016020809104026020016040519081016040528093929190818152602001838380828437600092019190915250929584359590949093506040810192506020013590506401000000008111156104e857600080fd5b8201836020820111156104fa57600080fd5b8035906020019184600183028401116401000000008311171561051c57600080fd5b91908080601f016020809104026020016040519081016040528093929190818152602001838380828437600092019190915250929550610c2d945050505050565b34801561056957600080fd5b5061015d6004803603602081101561058057600080fd5b50356111be565b34801561059357600080fd5b5061015d600480360360208110156105aa57600080fd5b50356001600160a01b031661122c565b60035481565b6105c86112d3565b6001600160a01b03166105d9610b47565b6001600160a01b0316146105ec57600080fd5b6105f46112d7565b565b6002600154141561060657600080fd5b6002600155610613610983565b1561061d57600080fd5b6001600160a01b03821660009081526004602052604090205460ff1661064257600080fd5b6000811161064f57600080fd5b6000670de0b6b3a76400007f00000000000000000000000000000000000000000000000000000000000000006001600160a01b03166370a08231336040518263ffffffff1660e01b815260040180826001600160a01b0316815260200191505060206040518083038186803b1580156106c757600080fd5b505afa1580156106db573d6000803e3d6000fd5b505050506040513d60208110156106f157600080fd5b505110159050806107d75760035434101561070b57600080fd5b6003543403801561076d57604051600090339083908381818185875af1925050503d8060008114610758576040519150601f19603f3d011682016040523d82523d6000602084013e61075d565b606091505b505090508061076b57600080fd5b505b60025460035460405160009261010090046001600160a01b031691908381818185875af1925050503d80600081146107c1576040519150601f19603f3d011682016040523d82523d6000602084013e6107c6565b606091505b50509050806107d457600080fd5b50505b823b806107e357600080fd5b60408051336024820152604480820186905282518083039091018152606490910182526020810180517bffffffffffffffffffffffffffffffffffffffffffffffffffffffff167f40c10f1900000000000000000000000000000000000000000000000000000000178152915181516000936001600160a01b0389169392918291908083835b602083106108885780518252601f199092019160209182019101610869565b6001836020036101000a0380198251168184511680821785525050505050509050019150506000604051808303816000865af19150503d80600081146108ea576040519150601f19603f3d011682016040523d82523d6000602084013e6108ef565b606091505b50509050806108fd57600080fd5b604080516001600160a01b038716815260208101869052815133927fdf1b2b09e9800d31c599375056be9f9e4eb37f078102643600c4e149714efaad928290030190a2505060018055505050565b60025461010090046001600160a01b031681565b7f000000000000000000000000000000000000000000000000000000000000000081565b60025460ff1690565b60046020526000908152604090205460ff1681565b6109a96112d3565b6001600160a01b03166109ba610b47565b6001600160a01b0316146109cd57600080fd5b6001600160a01b0381166109e057600080fd5b6001600160a01b03166000908152600460205260409020805460ff19166001179055565b610a0c6112d3565b6001600160a01b0316610a1d610b47565b6001600160a01b031614610a3057600080fd5b600080546040516001600160a01b03909116907f8be0079c531659141344cd1fd0a4f28419497f9722a3daafe3b4186f6b6457e0908390a36000805473ffffffffffffffffffffffffffffffffffffffff19169055565b610a8f6112d3565b6001600160a01b0316610aa0610b47565b6001600160a01b031614610ab357600080fd5b7f00000000000000000000000000000000000000000000000000000000000000006001600160a01b0316816001600160a01b03161415610af257600080fd5b6001600160a01b03166000908152600460205260409020805460ff19169055565b610b1b6112d3565b6001600160a01b0316610b2c610b47565b6001600160a01b031614610b3f57600080fd5b6105f4611338565b6000546001600160a01b031690565b670de0b6b3a764000081565b610b6a6112d3565b6001600160a01b0316610b7b610b47565b6001600160a01b031614610b8e57600080fd5b6001600160a01b038116610ba157600080fd5b600254604080516001600160a01b0361010090930483168152918316602083015280517faaebcf1bfa00580e41d966056b48521fa9f202645c86d4ddf28113e617c1b1d39281900390910190a1600280546001600160a01b03909216610100027fffffffffffffffffffffff0000000000000000000000000000000000000000ff909216919091179055565b600060026001541415610c3f57600080fd5b6002600155610c4c610983565b15610c5657600080fd5b6000855111610c6457600080fd5b6000845111610c7257600080fd5b60008311610c7f57600080fd5b60008251118015610c935750616000825111155b610c9c57600080fd5b6000670de0b6b3a76400007f00000000000000000000000000000000000000000000000000000000000000006001600160a01b03166370a08231336040518263ffffffff1660e01b815260040180826001600160a01b0316815260200191505060206040518083038186803b158015610d1457600080fd5b505afa158015610d28573d6000803e3d6000fd5b505050506040513d6020811015610d3e57600080fd5b50511015905080610e2457600354341015610d5857600080fd5b60035434038015610dba57604051600090339083908381818185875af1925050503d8060008114610da5576040519150601f19603f3d011682016040523d82523d6000602084013e610daa565b606091505b5050905080610db857600080fd5b505b60025460035460405160009261010090046001600160a01b031691908381818185875af1925050503d8060008114610e0e576040519150601f19603f3d011682016040523d82523d6000602084013e610e13565b606091505b5050905080610e2157600080fd5b50505b600080878787604051602001808060200180602001848152602001838103835286818151815260200191508051906020019080838360005b83811015610e74578181015183820152602001610e5c565b50505050905090810190601f168015610ea15780820380516001836020036101000a031916815260200191505b50838103825285518152855160209182019187019080838360005b83811015610ed4578181015183820152602001610ebc565b50505050905090810190601f168015610f015780820380516001836020036101000a031916815260200191505b50955050505050506040516020818303038152906040529050600085826040516020018083805190602001908083835b60208310610f505780518252601f199092019160209182019101610f31565b51815160209384036101000a600019018019909216911617905285519190930192850191508083835b60208310610f985780518252601f199092019160209182019101610f79565b6001836020036101000a0380198251168184511680821785525050505050509050019250505060405160208183030381529060405290508051602082016000f092506001600160a01b038316610fed57600080fd5b600160046000856001600160a01b03166001600160a01b0316815260200190815260200160002060006101000a81548160ff021916908315150217905550336001600160a01b03167ffe210c99153843bc67efa2e9a61ec1d63c505e379b9dcf05a9520e84e36e6063848b8b8e60405180856001600160a01b03168152602001806020018060200180602001848103845287818151815260200191508051906020019080838360005b838110156110ae578181015183820152602001611096565b50505050905090810190601f1680156110db5780820380516001836020036101000a031916815260200191505b50848103835286518152865160209182019188019080838360005b8381101561110e5781810151838201526020016110f6565b50505050905090810190601f16801561113b5780820380516001836020036101000a031916815260200191505b50848103825285518152855160209182019187019080838360005b8381101561116e578181015183820152602001611156565b50505050905090810190601f16801561119b5780820380516001836020036101000a031916815260200191505b5097505050505050505060405180910390a2505060018055979650505050505050565b6111c66112d3565b6001600160a01b03166111d7610b47565b6001600160a01b0316146111ea57600080fd5b600354604080519182526020820183905280517f7864bf708cae822050e5f50960a0de31bd6fe7620a8f67a48582fb95f29c114a9281900390910190a1600355565b6112346112d3565b6001600160a01b0316611245610b47565b6001600160a01b03161461125857600080fd5b6001600160a01b03811661126b57600080fd5b600080546040516001600160a01b03808516939216917f8be0079c531659141344cd1fd0a4f28419497f9722a3daafe3b4186f6b6457e091a36000805473ffffffffffffffffffffffffffffffffffffffff19166001600160a01b0392909216919091179055565b3390565b6112df610983565b6112e857600080fd5b6002805460ff191690557f5db9ee0a495bf2e6ff9c91a7834c1ba4fdd244a5e8aa4e537bd38aeae4b073aa61131b6112d3565b604080516001600160a01b039092168252519081900360200190a1565b611340610983565b1561134a57600080fd5b6002805460ff191660011790557f62e78cea01bee320cd4e420270b5ea74000d11b0c9f74754ebdbfc544b05a25861131b6112d356fea164736f6c6343000706000a",
  "linkReferences": {},
  "deployedLinkReferences": {}
}