{
  "_format": "hh-sol-artifact-1",
  "contractName": "AllFeaturesToken",
  "sourceName": "contracts/minter_contracts/ERC20TokenAllFeaturesToken.sol",
  "abi": [
    {
      "inputs": [
        {
          "internalType": "string",
          "name": "name",
          "type": "string"
        },
        {
          "internalType": "string",
          "name": "symbol",
          "type": "string"
        },
        {
          "internalType": "uint256",
          "name": "initialSupply",
          "type": "uint256"
        }
      ],
      "stateMutability": "nonpayable",
      "type": "constructor"
    },
    {
      "anonymous": false,
      "inputs": [
        {
          "indexed": true,
          "internalType": "address",
          "name": "owner",
          "type": "address"
        },
        {
          "indexed": true,
          "internalType": "address",
          "name": "spender",
          "type": "address"
        },
        {
          "indexed": false,
          "internalType": "uint256",
          "name": "value",
          "type": "uint256"
        }
      ],
      "name": "Approval",
      "type": "event"
    },
    {
      "anonymous": false,
      "inputs": [
        {
          "indexed": false,
          "internalType": "address",
          "name": "account",
          "type": "address"
        }
      ],
      "name": "Paused",
      "type": "event"
    },
    {
      "anonymous": false,
      "inputs": [
        {
          "indexed": true,
          "internalType": "address",
          "name": "from",
          "type": "address"
        },
        {
          "indexed": true,
          "internalType": "address",
          "name": "to",
          "type": "address"
        },
        {
          "indexed": false,
          "internalType": "uint256",
          "name": "value",
          "type": "uint256"
        }
      ],
      "name": "Transfer",
      "type": "event"
    },
    {
      "anonymous": false,
      "inputs": [
        {
          "indexed": false,
          "internalType": "address",
          "name": "account",
          "type": "address"
        }
      ],
      "name": "Unpaused",
      "type": "event"
    },
    {
      "inputs": [
        {
          "internalType": "address",
          "name": "owner",
          "type": "address"
        },
        {
          "internalType": "address",
          "name": "spender",
          "type": "address"
        }
      ],
      "name": "allowance",
      "outputs": [
        {
          "internalType": "uint256",
          "name": "",
          "type": "uint256"
        }
      ],
      "stateMutability": "view",
      "type": "function"
    },
    {
      "inputs": [
        {
          "internalType": "address",
          "name": "spender",
          "type": "address"
        },
        {
          "internalType": "uint256",
          "name": "amount",
          "type": "uint256"
        }
      ],
      "name": "approve",
      "outputs": [
        {
          "internalType": "bool",
          "name": "",
          "type": "bool"
        }
      ],
      "stateMutability": "nonpayable",
      "type": "function"
    },
    {
      "inputs": [
        {
          "internalType": "address",
          "name": "account",
          "type": "address"
        }
      ],
      "name": "balanceOf",
      "outputs": [
        {
          "internalType": "uint256",
          "name": "",
          "type": "uint256"
        }
      ],
      "stateMutability": "view",
      "type": "function"
    },
    {
      "inputs": [
        {
          "internalType": "uint256",
          "name": "amount",
          "type": "uint256"
        }
      ],
      "name": "burn",
      "outputs": [],
      "stateMutability": "nonpayable",
      "type": "function"
    },
    {
      "inputs": [
        {
          "internalType": "address",
          "name": "account",
          "type": "address"
        },
        {
          "internalType": "uint256",
          "name": "amount",
          "type": "uint256"
        }
      ],
      "name": "burnFrom",
      "outputs": [],
      "stateMutability": "nonpayable",
      "type": "function"
    },
    {
      "inputs": [],
      "name": "decimals",
      "outputs": [
        {
          "internalType": "uint8",
          "name": "",
          "type": "uint8"
        }
      ],
      "stateMutability": "view",
      "type": "function"
    },
    {
      "inputs": [
        {
          "internalType": "address",
          "name": "spender",
          "type": "address"
        },
        {
          "internalType": "uint256",
          "name": "subtractedValue",
          "type": "uint256"
        }
      ],
      "name": "decreaseAllowance",
      "outputs": [
        {
          "internalType": "bool",
          "name": "",
          "type": "bool"
        }
      ],
      "stateMutability": "nonpayable",
      "type": "function"
    },
    {
      "inputs": [
        {
          "internalType": "address",
          "name": "spender",
          "type": "address"
        },
        {
          "internalType": "uint256",
          "name": "addedValue",
          "type": "uint256"
        }
      ],
      "name": "increaseAllowance",
      "outputs": [
        {
          "internalType": "bool",
          "name": "",
          "type": "bool"
        }
      ],
      "stateMutability": "nonpayable",
      "type": "function"
    },
    {
      "inputs": [
        {
          "internalType": "address",
          "name": "to",
          "type": "address"
        },
        {
          "internalType": "uint256",
          "name": "amount",
          "type": "uint256"
        }
      ],
      "name": "mint",
      "outputs": [],
      "stateMutability": "nonpayable",
      "type": "function"
    },
    {
      "inputs": [],
      "name": "name",
      "outputs": [
        {
          "internalType": "string",
          "name": "",
          "type": "string"
        }
      ],
      "stateMutability": "view",
      "type": "function"
    },
    {
      "inputs": [],
      "name": "pause",
      "outputs": [],
      "stateMutability": "nonpayable",
      "type": "function"
    },
    {
      "inputs": [],
      "name": "paused",
      "outputs": [
        {
          "internalType": "bool",
          "name": "",
          "type": "bool"
        }
      ],
      "stateMutability": "view",
      "type": "function"
    },
    {
      "inputs": [],
      "name": "symbol",
      "outputs": [
        {
          "internalType": "string",
          "name": "",
          "type": "string"
        }
      ],
      "stateMutability": "view",
      "type": "function"
    },
    {
      "inputs": [],
      "name": "totalSupply",
      "outputs": [
        {
          "internalType": "uint256",
          "name": "",
          "type": "uint256"
        }
      ],
      "stateMutability": "view",
      "type": "function"
    },
    {
      "inputs": [
        {
          "internalType": "address",
          "name": "recipient",
          "type": "address"
        },
        {
          "internalType": "uint256",
          "name": "amount",
          "type": "uint256"
        }
      ],
      "name": "transfer",
      "outputs": [
        {
          "internalType": "bool",
          "name": "",
          "type": "bool"
        }
      ],
      "stateMutability": "nonpayable",
      "type": "function"
    },
    {
      "inputs": [
        {
          "internalType": "address",
          "name": "sender",
          "type": "address"
        },
        {
          "internalType": "address",
          "name": "recipient",
          "type": "address"
        },
        {
          "internalType": "uint256",
          "name": "amount",
          "type": "uint256"
        }
      ],
      "name": "transferFrom",
      "outputs": [
        {
          "internalType": "bool",
          "name": "",
          "type": "bool"
        }
      ],
      "stateMutability": "nonpayable",
      "type": "function"
    },
    {
      "inputs": [],
      "name": "unpause",
      "outputs": [],
      "stateMutability": "nonpayable",
      "type": "function"
    }
  ],
  "bytecode": "0x60806040523480156200001157600080fd5b5060405162000fd738038062000fd7833981810160405260608110156200003757600080fd5b81019080805160405193929190846401000000008211156200005857600080fd5b9083019060208201858111156200006e57600080fd5b82516401000000008111828201881017156200008957600080fd5b82525081516020918201929091019080838360005b83811015620000b85781810151838201526020016200009e565b50505050905090810190601f168015620000e65780820380516001836020036101000a031916815260200191505b50604052602001805160405193929190846401000000008211156200010a57600080fd5b9083019060208201858111156200012057600080fd5b82516401000000008111828201881017156200013b57600080fd5b82525081516020918201929091019080838360005b838110156200016a57818101518382015260200162000150565b50505050905090810190601f168015620001985780820380516001836020036101000a031916815260200191505b5060405260209081015185519093508592508491620001bd9160039185019062000338565b508051620001d390600490602084019062000338565b50506005805461ff001960ff1990911660121716905550620001f63382620001ff565b505050620003e4565b6001600160a01b0382166200021357600080fd5b6200022160008383620002c6565b6200023d81600254620002e360201b620007101790919060201c565b6002556001600160a01b038216600090815260208181526040909120546200027091839062000710620002e3821b17901c565b6001600160a01b0383166000818152602081815260408083209490945583518581529351929391927fddf252ad1be2c89b69c2b068fc378daa952ba7f163c4a11628f55a4df523b3ef9281900390910190a35050565b620002de838383620002fd60201b620007291760201c565b505050565b600082820183811015620002f657600080fd5b9392505050565b62000315838383620002de60201b620005fb1760201c565b6200031f6200032a565b15620002de57600080fd5b600554610100900460ff1690565b828054600181600116156101000203166002900490600052602060002090601f016020900481019282620003705760008555620003bb565b82601f106200038b57805160ff1916838001178555620003bb565b82800160010185558215620003bb579182015b82811115620003bb5782518255916020019190600101906200039e565b50620003c9929150620003cd565b5090565b5b80821115620003c95760008155600101620003ce565b610be380620003f46000396000f3fe608060405234801561001057600080fd5b506004361061011b5760003560e01c806342966c68116100b25780638456cb5911610081578063a457c2d711610066578063a457c2d714610334578063a9059cbb14610360578063dd62ed3e1461038c5761011b565b80638456cb591461032457806395d89b411461032c5761011b565b806342966c68146102ad5780635c975abb146102ca57806370a08231146102d257806379cc6790146102f85761011b565b8063313ce567116100ee578063313ce5671461022d578063395093511461024b5780633f4ba83a1461027757806340c10f19146102815761011b565b806306fdde0314610120578063095ea7b31461019d57806318160ddd146101dd57806323b872dd146101f7575b600080fd5b6101286103ba565b6040805160208082528351818301528351919283929083019185019080838360005b8381101561016257818101518382015260200161014a565b50505050905090810190601f16801561018f5780820380516001836020036101000a031916815260200191505b509250505060405180910390f35b6101c9600480360360408110156101b357600080fd5b506001600160a01b038135169060200135610450565b604080519115158252519081900360200190f35b6101e561046d565b60408051918252519081900360200190f35b6101c96004803603606081101561020d57600080fd5b506001600160a01b03813581169160208101359091169060400135610473565b6102356104fa565b6040805160ff9092168252519081900360200190f35b6101c96004803603604081101561026157600080fd5b506001600160a01b038135169060200135610503565b61027f610551565b005b61027f6004803603604081101561029757600080fd5b506001600160a01b03813516906020013561055b565b61027f600480360360208110156102c357600080fd5b5035610569565b6101c961057d565b6101e5600480360360208110156102e857600080fd5b50356001600160a01b031661058b565b61027f6004803603604081101561030e57600080fd5b506001600160a01b0381351690602001356105a6565b61027f610600565b610128610608565b6101c96004803603604081101561034a57600080fd5b506001600160a01b038135169060200135610669565b6101c96004803603604081101561037657600080fd5b506001600160a01b0381351690602001356106d1565b6101e5600480360360408110156103a257600080fd5b506001600160a01b03813581169160200135166106e5565b60038054604080516020601f60026000196101006001881615020190951694909404938401819004810282018101909252828152606093909290918301828280156104465780601f1061041b57610100808354040283529160200191610446565b820191906000526020600020905b81548152906001019060200180831161042957829003601f168201915b5050505050905090565b600061046461045d610746565b848461074a565b50600192915050565b60025490565b60006104808484846107d2565b6104f08461048c610746565b6104eb85604051806060016040528060288152602001610b66602891396001600160a01b038a166000908152600160205260408120906104ca610746565b6001600160a01b0316815260208101919091526040016000205491906108c9565b61074a565b5060019392505050565b60055460ff1690565b6000610464610510610746565b846104eb8560016000610521610746565b6001600160a01b03908116825260208083019390935260409182016000908120918c168152925290205490610710565b6105596108df565b565b6105658282610941565b5050565b61057a610574610746565b826109e9565b50565b600554610100900460ff1690565b6001600160a01b031660009081526020819052604090205490565b60006105dd82604051806060016040528060248152602001610b8e602491396105d6866105d1610746565b6106e5565b91906108c9565b90506105f1836105eb610746565b8361074a565b6105fb83836109e9565b505050565b610559610ab3565b60048054604080516020601f60026000196101006001881615020190951694909404938401819004810282018101909252828152606093909290918301828280156104465780601f1061041b57610100808354040283529160200191610446565b6000610464610676610746565b846104eb85604051806060016040528060258152602001610bb260259139600160006106a0610746565b6001600160a01b03908116825260208083019390935260409182016000908120918d168152925290205491906108c9565b60006104646106de610746565b84846107d2565b6001600160a01b03918216600090815260016020908152604080832093909416825291909152205490565b60008282018381101561072257600080fd5b9392505050565b6107348383836105fb565b61073c61057d565b156105fb57600080fd5b3390565b6001600160a01b03831661075d57600080fd5b6001600160a01b03821661077057600080fd5b6001600160a01b03808416600081815260016020908152604080832094871680845294825291829020859055815185815291517f8c5be1e5ebec7d5bd14f71427d1e84f3dd0314c0f7b2291e5b200ac8c7c3b9259281900390910190a3505050565b6001600160a01b0383166107e557600080fd5b6001600160a01b0382166107f857600080fd5b610803838383610afd565b61084081604051806060016040528060268152602001610b40602691396001600160a01b03861660009081526020819052604090205491906108c9565b6001600160a01b03808516600090815260208190526040808220939093559084168152205461086f9082610710565b6001600160a01b038084166000818152602081815260409182902094909455805185815290519193928716927fddf252ad1be2c89b69c2b068fc378daa952ba7f163c4a11628f55a4df523b3ef92918290030190a3505050565b6000838311156108d857600080fd5b5050900390565b6108e761057d565b6108f057600080fd5b6005805461ff00191690557f5db9ee0a495bf2e6ff9c91a7834c1ba4fdd244a5e8aa4e537bd38aeae4b073aa610924610746565b604080516001600160a01b039092168252519081900360200190a1565b6001600160a01b03821661095457600080fd5b61096060008383610afd565b60025461096d9082610710565b6002556001600160a01b0382166000908152602081905260409020546109939082610710565b6001600160a01b0383166000818152602081815260408083209490945583518581529351929391927fddf252ad1be2c89b69c2b068fc378daa952ba7f163c4a11628f55a4df523b3ef9281900390910190a35050565b6001600160a01b0382166109fc57600080fd5b610a0882600083610afd565b610a4581604051806060016040528060228152602001610b1e602291396001600160a01b03851660009081526020819052604090205491906108c9565b6001600160a01b038316600090815260208190526040902055600254610a6b9082610b08565b6002556040805182815290516000916001600160a01b038516917fddf252ad1be2c89b69c2b068fc378daa952ba7f163c4a11628f55a4df523b3ef9181900360200190a35050565b610abb61057d565b15610ac557600080fd5b6005805461ff0019166101001790557f62e78cea01bee320cd4e420270b5ea74000d11b0c9f74754ebdbfc544b05a258610924610746565b6105fb838383610729565b600082821115610b1757600080fd5b5090039056fe45524332303a206275726e20616d6f756e7420657863656564732062616c616e636545524332303a207472616e7366657220616d6f756e7420657863656564732062616c616e636545524332303a207472616e7366657220616d6f756e74206578636565647320616c6c6f77616e636545524332303a206275726e20616d6f756e74206578636565647320616c6c6f77616e636545524332303a2064656372656173656420616c6c6f77616e63652062656c6f77207a65726fa164736f6c6343000706000a",
  "linkReferences": {},
  "deployedLinkReferences": {}
}