{
  "_format": "hh-sol-artifact-1",
  "contractName": "Multicall2",
  "sourceName": "contracts/misc/Multicall2.sol",
  "abi": [
    {
      "inputs": [
        {
          "components": [
            {
              "internalType": "address",
              "name": "target",
              "type": "address"
            },
            {
              "internalType": "bytes",
              "name": "callData",
              "type": "bytes"
            }
          ],
          "internalType": "struct Multicall2.Call[]",
          "name": "calls",
          "type": "tuple[]"
        }
      ],
      "name": "aggregate",
      "outputs": [
        {
          "internalType": "uint256",
          "name": "blockNumber",
          "type": "uint256"
        },
        {
          "internalType": "bytes[]",
          "name": "returnData",
          "type": "bytes[]"
        }
      ],
      "stateMutability": "nonpayable",
      "type": "function"
    },
    {
      "inputs": [
        {
          "internalType": "uint256",
          "name": "blockNumber",
          "type": "uint256"
        }
      ],
      "name": "getBlockHash",
      "outputs": [
        {
          "internalType": "bytes32",
          "name": "blockHash",
          "type": "bytes32"
        }
      ],
      "stateMutability": "view",
      "type": "function"
    },
    {
      "inputs": [],
      "name": "getCurrentBlockCoinbase",
      "outputs": [
        {
          "internalType": "address",
          "name": "coinbase",
          "type": "address"
        }
      ],
      "stateMutability": "view",
      "type": "function"
    },
    {
      "inputs": [],
      "name": "getCurrentBlockDifficulty",
      "outputs": [
        {
          "internalType": "uint256",
          "name": "difficulty",
          "type": "uint256"
        }
      ],
      "stateMutability": "view",
      "type": "function"
    },
    {
      "inputs": [],
      "name": "getCurrentBlockGasLimit",
      "outputs": [
        {
          "internalType": "uint256",
          "name": "gaslimit",
          "type": "uint256"
        }
      ],
      "stateMutability": "view",
      "type": "function"
    },
    {
      "inputs": [],
      "name": "getCurrentBlockTimestamp",
      "outputs": [
        {
          "internalType": "uint256",
          "name": "timestamp",
          "type": "uint256"
        }
      ],
      "stateMutability": "view",
      "type": "function"
    },
    {
      "inputs": [
        {
          "internalType": "address",
          "name": "addr",
          "type": "address"
        }
      ],
      "name": "getEthBalance",
      "outputs": [
        {
          "internalType": "uint256",
          "name": "balance",
          "type": "uint256"
        }
      ],
      "stateMutability": "view",
      "type": "function"
    }
  ],
  "bytecode": "0x608060405234801561001057600080fd5b50610527806100206000396000f3fe608060405234801561001057600080fd5b506004361061007d5760003560e01c806372425d9d1161005b57806372425d9d146100d457806386d516e8146100dc578063a8b0574e146100e4578063ee82ac5e146100f95761007d565b80630f28c97d14610082578063252dba42146100a05780634d2301cc146100c1575b600080fd5b61008a61010c565b604051610097919061043d565b60405180910390f35b6100b36100ae3660046102b2565b610110565b604051610097929190610446565b61008a6100cf366004610291565b61023f565b61008a61025d565b61008a610261565b6100ec610265565b604051610097919061041c565b61008a6101073660046103e8565b610269565b4290565b8051439060609067ffffffffffffffff8111801561012d57600080fd5b5060405190808252806020026020018201604052801561016157816020015b606081526020019060019003908161014c5790505b50905060005b83518110156102395760008085838151811061017f57fe5b60200260200101516000015173ffffffffffffffffffffffffffffffffffffffff168684815181106101ad57fe5b6020026020010151602001516040516101c69190610400565b6000604051808303816000865af19150503d8060008114610203576040519150601f19603f3d011682016040523d82523d6000602084013e610208565b606091505b50915091508161021757600080fd5b8084848151811061022457fe5b60209081029190910101525050600101610167565b50915091565b73ffffffffffffffffffffffffffffffffffffffff8116315b919050565b4490565b4590565b4190565b4090565b803573ffffffffffffffffffffffffffffffffffffffff8116811461025857600080fd5b6000602082840312156102a2578081fd5b6102ab8261026d565b9392505050565b600060208083850312156102c4578182fd5b67ffffffffffffffff80843511156102da578283fd5b8335840185601f8201126102ec578384fd5b8035828111156102f857fe5b61030584858302016104c6565b81815284810190838601875b848110156103d95781358601601f196040828e0382011215610331578a8bfd5b604051604081018181108b8211171561034657fe5b604052610354838c0161026d565b815260408301358a811115610367578c8dfd5b8084019350508d603f84011261037b578b8cfd5b8a8301358a81111561038957fe5b6103998c84601f840116016104c6565b92508083528e60408286010111156103af578c8dfd5b80604085018d85013782018b018c9052808b01919091528552509287019290870190600101610311565b50909998505050505050505050565b6000602082840312156103f9578081fd5b5035919050565b600082516104128184602087016104ea565b9190910192915050565b73ffffffffffffffffffffffffffffffffffffffff91909116815260200190565b90815260200190565b600060408201848352602060408185015281855180845260608601915060608382028701019350828701855b828110156104b857878603605f190184528151805180885261049981888a018985016104ea565b601f01601f191696909601850195509284019290840190600101610472565b509398975050505050505050565b60405181810167ffffffffffffffff811182821017156104e257fe5b604052919050565b60005b838110156105055781810151838201526020016104ed565b83811115610514576000848401525b5050505056fea164736f6c6343000706000a",
  "linkReferences": {},
  "deployedLinkReferences": {}
}