{
  "_format": "hh-sol-artifact-1",
  "contractName": "Multicall2",
  "sourceName": "contracts/misc/Multicall2.sol",
  "abi": [
    {
      "inputs": [
        {
          "components": [
            {
              "internalType": "address",
              "name": "target",
              "type": "address"
            },
            {
              "internalType": "bytes",
              "name": "callData",
              "type": "bytes"
            }
          ],
          "internalType": "struct Multicall2.Call[]",
          "name": "calls",
          "type": "tuple[]"
        }
      ],
      "name": "aggregate",
      "outputs": [
        {
          "internalType": "uint256",
          "name": "blockNumber",
          "type": "uint256"
        },
        {
          "internalType": "bytes[]",
          "name": "returnData",
          "type": "bytes[]"
        }
      ],
      "stateMutability": "nonpayable",
      "type": "function"
    },
    {
      "inputs": [
        {
          "internalType": "uint256",
          "name": "blockNumber",
          "type": "uint256"
        }
      ],
      "name": "getBlockHash",
      "outputs": [
        {
          "internalType": "bytes32",
          "name": "blockHash",
          "type": "bytes32"
        }
      ],
      "stateMutability": "view",
      "type": "function"
    },
    {
      "inputs": [],
      "name": "getCurrentBlockCoinbase",
      "outputs": [
        {
          "internalType": "address",
          "name": "coinbase",
          "type": "address"
        }
      ],
      "stateMutability": "view",
      "type": "function"
    },
    {
      "inputs": [],
      "name": "getCurrentBlockDifficulty",
      "outputs": [
        {
          "internalType": "uint256",
          "name": "difficulty",
          "type": "uint256"
        }
      ],
      "stateMutability": "view",
      "type": "function"
    },
    {
      "inputs": [],
      "name": "getCurrentBlockGasLimit",
      "outputs": [
        {
          "internalType": "uint256",
          "name": "gaslimit",
          "type": "uint256"
        }
      ],
      "stateMutability": "view",
      "type": "function"
    },
    {
      "inputs": [],
      "name": "getCurrentBlockTimestamp",
      "outputs": [
        {
          "internalType": "uint256",
          "name": "timestamp",
          "type": "uint256"
        }
      ],
      "stateMutability": "view",
      "type": "function"
    },
    {
      "inputs": [
        {
          "internalType": "address",
          "name": "addr",
          "type": "address"
        }
      ],
      "name": "getEthBalance",
      "outputs": [
        {
          "internalType": "uint256",
          "name": "balance",
          "type": "uint256"
        }
      ],
      "stateMutability": "view",
      "type": "function"
    }
  ],
  "bytecode": "0x608060405234801561001057600080fd5b50610594806100206000396000f3fe608060405234801561001057600080fd5b506004361061007d5760003560e01c806372425d9d1161005b57806372425d9d146100d457806386d516e8146100dc578063a8b0574e146100e4578063ee82ac5e146100f95761007d565b80630f28c97d14610082578063252dba42146100a05780634d2301cc146100c1575b600080fd5b61008a61010c565b6040516100979190610473565b60405180910390f35b6100b36100ae3660046102e8565b610110565b6040516100979291906104b3565b61008a6100cf3660046102c7565b610275565b61008a610293565b61008a610297565b6100ec61029b565b6040516100979190610452565b61008a61010736600461041e565b61029f565b4290565b8051439060609067ffffffffffffffff8111801561012d57600080fd5b5060405190808252806020026020018201604052801561016157816020015b606081526020019060019003908161014c5790505b50905060005b835181101561026f5760008085838151811061017f57fe5b60200260200101516000015173ffffffffffffffffffffffffffffffffffffffff168684815181106101ad57fe5b6020026020010151602001516040516101c69190610436565b6000604051808303816000865af19150503d8060008114610203576040519150601f19603f3d011682016040523d82523d6000602084013e610208565b606091505b50915091508161024d576040517f08c379a00000000000000000000000000000000000000000000000000000000081526004016102449061047c565b60405180910390fd5b8084848151811061025a57fe5b60209081029190910101525050600101610167565b50915091565b73ffffffffffffffffffffffffffffffffffffffff8116315b919050565b4490565b4590565b4190565b4090565b803573ffffffffffffffffffffffffffffffffffffffff8116811461028e57600080fd5b6000602082840312156102d8578081fd5b6102e1826102a3565b9392505050565b600060208083850312156102fa578182fd5b67ffffffffffffffff8084351115610310578283fd5b8335840185601f820112610322578384fd5b80358281111561032e57fe5b61033b8485830201610533565b81815284810190838601875b8481101561040f5781358601601f196040828e0382011215610367578a8bfd5b604051604081018181108b8211171561037c57fe5b60405261038a838c016102a3565b815260408301358a81111561039d578c8dfd5b8084019350508d603f8401126103b1578b8cfd5b8a8301358a8111156103bf57fe5b6103cf8c84601f84011601610533565b92508083528e60408286010111156103e5578c8dfd5b80604085018d85013782018b018c9052808b01919091528552509287019290870190600101610347565b50909998505050505050505050565b60006020828403121561042f578081fd5b5035919050565b60008251610448818460208701610557565b9190910192915050565b73ffffffffffffffffffffffffffffffffffffffff91909116815260200190565b90815260200190565b6020808252601f908201527f4d756c746963616c6c206167677265676174652063616c6c206661696c656400604082015260600190565b600060408201848352602060408185015281855180845260608601915060608382028701019350828701855b8281101561052557878603605f190184528151805180885261050681888a01898501610557565b601f01601f1916969096018501955092840192908401906001016104df565b509398975050505050505050565b60405181810167ffffffffffffffff8111828210171561054f57fe5b604052919050565b60005b8381101561057257818101518382015260200161055a565b83811115610581576000848401525b5050505056fea164736f6c6343000706000a",
  "linkReferences": {},
  "deployedLinkReferences": {}
}