{
  "_format": "hh-sol-artifact-1",
  "contractName": "SwapRouter",
  "sourceName": "contracts/uniswap/SwapRouter.sol",
  "abi": [
    {
      "inputs": [
        {
          "internalType": "address",
          "name": "_factory",
          "type": "address"
        },
        {
          "internalType": "address",
          "name": "_WETH9",
          "type": "address"
        }
      ],
      "stateMutability": "nonpayable",
      "type": "constructor"
    },
    {
      "inputs": [],
      "name": "WETH9",
      "outputs": [
        {
          "internalType": "address",
          "name": "",
          "type": "address"
        }
      ],
      "stateMutability": "view",
      "type": "function"
    },
    {
      "inputs": [
        {
          "components": [
            {
              "internalType": "bytes",
              "name": "path",
              "type": "bytes"
            },
            {
              "internalType": "address",
              "name": "recipient",
              "type": "address"
            },
            {
              "internalType": "uint256",
              "name": "deadline",
              "type": "uint256"
            },
            {
              "internalType": "uint256",
              "name": "amountIn",
              "type": "uint256"
            },
            {
              "internalType": "uint256",
              "name": "amountOutMinimum",
              "type": "uint256"
            }
          ],
          "internalType": "struct ISwapRouter.ExactInputParams",
          "name": "params",
          "type": "tuple"
        }
      ],
      "name": "exactInput",
      "outputs": [
        {
          "internalType": "uint256",
          "name": "amountOut",
          "type": "uint256"
        }
      ],
      "stateMutability": "payable",
      "type": "function"
    },
    {
      "inputs": [
        {
          "components": [
            {
              "internalType": "address",
              "name": "tokenIn",
              "type": "address"
            },
            {
              "internalType": "address",
              "name": "tokenOut",
              "type": "address"
            },
            {
              "internalType": "uint24",
              "name": "fee",
              "type": "uint24"
            },
            {
              "internalType": "address",
              "name": "recipient",
              "type": "address"
            },
            {
              "internalType": "uint256",
              "name": "deadline",
              "type": "uint256"
            },
            {
              "internalType": "uint256",
              "name": "amountIn",
              "type": "uint256"
            },
            {
              "internalType": "uint256",
              "name": "amountOutMinimum",
              "type": "uint256"
            },
            {
              "internalType": "uint160",
              "name": "sqrtPriceLimitX96",
              "type": "uint160"
            }
          ],
          "internalType": "struct ISwapRouter.ExactInputSingleParams",
          "name": "params",
          "type": "tuple"
        }
      ],
      "name": "exactInputSingle",
      "outputs": [
        {
          "internalType": "uint256",
          "name": "amountOut",
          "type": "uint256"
        }
      ],
      "stateMutability": "payable",
      "type": "function"
    },
    {
      "inputs": [
        {
          "components": [
            {
              "internalType": "bytes",
              "name": "path",
              "type": "bytes"
            },
            {
              "internalType": "address",
              "name": "recipient",
              "type": "address"
            },
            {
              "internalType": "uint256",
              "name": "deadline",
              "type": "uint256"
            },
            {
              "internalType": "uint256",
              "name": "amountOut",
              "type": "uint256"
            },
            {
              "internalType": "uint256",
              "name": "amountInMaximum",
              "type": "uint256"
            }
          ],
          "internalType": "struct ISwapRouter.ExactOutputParams",
          "name": "params",
          "type": "tuple"
        }
      ],
      "name": "exactOutput",
      "outputs": [
        {
          "internalType": "uint256",
          "name": "amountIn",
          "type": "uint256"
        }
      ],
      "stateMutability": "payable",
      "type": "function"
    },
    {
      "inputs": [
        {
          "components": [
            {
              "internalType": "address",
              "name": "tokenIn",
              "type": "address"
            },
            {
              "internalType": "address",
              "name": "tokenOut",
              "type": "address"
            },
            {
              "internalType": "uint24",
              "name": "fee",
              "type": "uint24"
            },
            {
              "internalType": "address",
              "name": "recipient",
              "type": "address"
            },
            {
              "internalType": "uint256",
              "name": "deadline",
              "type": "uint256"
            },
            {
              "internalType": "uint256",
              "name": "amountOut",
              "type": "uint256"
            },
            {
              "internalType": "uint256",
              "name": "amountInMaximum",
              "type": "uint256"
            },
            {
              "internalType": "uint160",
              "name": "sqrtPriceLimitX96",
              "type": "uint160"
            }
          ],
          "internalType": "struct ISwapRouter.ExactOutputSingleParams",
          "name": "params",
          "type": "tuple"
        }
      ],
      "name": "exactOutputSingle",
      "outputs": [
        {
          "internalType": "uint256",
          "name": "amountIn",
          "type": "uint256"
        }
      ],
      "stateMutability": "payable",
      "type": "function"
    },
    {
      "inputs": [],
      "name": "factory",
      "outputs": [
        {
          "internalType": "address",
          "name": "",
          "type": "address"
        }
      ],
      "stateMutability": "view",
      "type": "function"
    },
    {
      "inputs": [
        {
          "internalType": "bytes[]",
          "name": "data",
          "type": "bytes[]"
        }
      ],
      "name": "multicall",
      "outputs": [
        {
          "internalType": "bytes[]",
          "name": "results",
          "type": "bytes[]"
        }
      ],
      "stateMutability": "payable",
      "type": "function"
    },
    {
      "inputs": [],
      "name": "refundETH",
      "outputs": [],
      "stateMutability": "payable",
      "type": "function"
    },
    {
      "inputs": [
        {
          "internalType": "address",
          "name": "token",
          "type": "address"
        },
        {
          "internalType": "uint256",
          "name": "value",
          "type": "uint256"
        },
        {
          "internalType": "uint256",
          "name": "deadline",
          "type": "uint256"
        },
        {
          "internalType": "uint8",
          "name": "v",
          "type": "uint8"
        },
        {
          "internalType": "bytes32",
          "name": "r",
          "type": "bytes32"
        },
        {
          "internalType": "bytes32",
          "name": "s",
          "type": "bytes32"
        }
      ],
      "name": "selfPermit",
      "outputs": [],
      "stateMutability": "payable",
      "type": "function"
    },
    {
      "inputs": [
        {
          "internalType": "address",
          "name": "token",
          "type": "address"
        },
        {
          "internalType": "uint256",
          "name": "nonce",
          "type": "uint256"
        },
        {
          "internalType": "uint256",
          "name": "expiry",
          "type": "uint256"
        },
        {
          "internalType": "uint8",
          "name": "v",
          "type": "uint8"
        },
        {
          "internalType": "bytes32",
          "name": "r",
          "type": "bytes32"
        },
        {
          "internalType": "bytes32",
          "name": "s",
          "type": "bytes32"
        }
      ],
      "name": "selfPermitAllowed",
      "outputs": [],
      "stateMutability": "payable",
      "type": "function"
    },
    {
      "inputs": [
        {
          "internalType": "address",
          "name": "token",
          "type": "address"
        },
        {
          "internalType": "uint256",
          "name": "nonce",
          "type": "uint256"
        },
        {
          "internalType": "uint256",
          "name": "expiry",
          "type": "uint256"
        },
        {
          "internalType": "uint8",
          "name": "v",
          "type": "uint8"
        },
        {
          "internalType": "bytes32",
          "name": "r",
          "type": "bytes32"
        },
        {
          "internalType": "bytes32",
          "name": "s",
          "type": "bytes32"
        }
      ],
      "name": "selfPermitAllowedIfNecessary",
      "outputs": [],
      "stateMutability": "payable",
      "type": "function"
    },
    {
      "inputs": [
        {
          "internalType": "address",
          "name": "token",
          "type": "address"
        },
        {
          "internalType": "uint256",
          "name": "value",
          "type": "uint256"
        },
        {
          "internalType": "uint256",
          "name": "deadline",
          "type": "uint256"
        },
        {
          "internalType": "uint8",
          "name": "v",
          "type": "uint8"
        },
        {
          "internalType": "bytes32",
          "name": "r",
          "type": "bytes32"
        },
        {
          "internalType": "bytes32",
          "name": "s",
          "type": "bytes32"
        }
      ],
      "name": "selfPermitIfNecessary",
      "outputs": [],
      "stateMutability": "payable",
      "type": "function"
    },
    {
      "inputs": [
        {
          "internalType": "address",
          "name": "token",
          "type": "address"
        },
        {
          "internalType": "uint256",
          "name": "amountMinimum",
          "type": "uint256"
        },
        {
          "internalType": "address",
          "name": "recipient",
          "type": "address"
        }
      ],
      "name": "sweepToken",
      "outputs": [],
      "stateMutability": "payable",
      "type": "function"
    },
    {
      "inputs": [
        {
          "internalType": "address",
          "name": "token",
          "type": "address"
        },
        {
          "internalType": "uint256",
          "name": "amountMinimum",
          "type": "uint256"
        },
        {
          "internalType": "address",
          "name": "recipient",
          "type": "address"
        },
        {
          "internalType": "uint256",
          "name": "feeBips",
          "type": "uint256"
        },
        {
          "internalType": "address",
          "name": "feeRecipient",
          "type": "address"
        }
      ],
      "name": "sweepTokenWithFee",
      "outputs": [],
      "stateMutability": "payable",
      "type": "function"
    },
    {
      "inputs": [
        {
          "internalType": "int256",
          "name": "amount0Delta",
          "type": "int256"
        },
        {
          "internalType": "int256",
          "name": "amount1Delta",
          "type": "int256"
        },
        {
          "internalType": "bytes",
          "name": "_data",
          "type": "bytes"
        }
      ],
      "name": "uniswapV3SwapCallback",
      "outputs": [],
      "stateMutability": "nonpayable",
      "type": "function"
    },
    {
      "inputs": [
        {
          "internalType": "uint256",
          "name": "amountMinimum",
          "type": "uint256"
        },
        {
          "internalType": "address",
          "name": "recipient",
          "type": "address"
        }
      ],
      "name": "unwrapWETH9",
      "outputs": [],
      "stateMutability": "payable",
      "type": "function"
    },
    {
      "inputs": [
        {
          "internalType": "uint256",
          "name": "amountMinimum",
          "type": "uint256"
        },
        {
          "internalType": "address",
          "name": "recipient",
          "type": "address"
        },
        {
          "internalType": "uint256",
          "name": "feeBips",
          "type": "uint256"
        },
        {
          "internalType": "address",
          "name": "feeRecipient",
          "type": "address"
        }
      ],
      "name": "unwrapWETH9WithFee",
      "outputs": [],
      "stateMutability": "payable",
      "type": "function"
    },
    {
      "stateMutability": "payable",
      "type": "receive"
    }
  ],
  "bytecode": "0x60c06040526000196000553480156200001757600080fd5b50604051620022e2380380620022e28339810160408190526200003a9162000076565b6001600160601b0319606092831b8116608052911b1660a052620000ad565b80516001600160a01b03811681146200007157600080fd5b919050565b6000806040838503121562000089578182fd5b620000948362000059565b9150620000a46020840162000059565b90509250929050565b60805160601c60a05160601c6121d9620001096000398061012252806104625280610510528061059d52806105dd528061068b528061144b52806114915280611505525080610a605280610e5852806115e052506121d96000f3fe6080604052600436106101125760003560e01c8063c04b8d59116100a5578063df2ab5bb11610074578063f28c049811610059578063f28c049814610286578063f3995c6714610299578063fa461e33146102ac5761014e565b8063df2ab5bb14610260578063e0e189a0146102735761014e565b8063c04b8d5914610212578063c2e3140a14610225578063c45a015514610238578063db3e21981461024d5761014e565b80634aa4a4fc116100e15780634aa4a4fc146101aa5780639b2c0a37146101cc578063a4a78f0c146101df578063ac9650d8146101f25761014e565b806312210e8a14610153578063414bf3891461015b5780634659a4941461018457806349404b7c146101975761014e565b3661014e57336001600160a01b037f0000000000000000000000000000000000000000000000000000000000000000161461014c57600080fd5b005b600080fd5b61014c6102cc565b61016e610169366004611deb565b6102de565b60405161017b91906120ed565b60405180910390f35b61014c610192366004611b69565b6103ab565b61014c6101a5366004611ef2565b61045e565b3480156101b657600080fd5b506101bf61059b565b60405161017b9190611ff9565b61014c6101da366004611f21565b6105bf565b61014c6101ed366004611b69565b61074e565b610205610200366004611bc9565b6107df565b60405161017b9190612052565b61016e610220366004611d40565b61090c565b61014c610233366004611b69565b6109cf565b34801561024457600080fd5b506101bf610a5e565b61016e61025b366004611deb565b610a82565b61014c61026e366004611aca565b610b58565b61014c610281366004611b0b565b610bf9565b61016e610294366004611e07565b610ce3565b61014c6102a7366004611b69565b610d88565b3480156102b857600080fd5b5061014c6102c7366004611c5b565b610e13565b47156102dc576102dc3347610f26565b565b60008160800135806102ee610f84565b11156102f957600080fd5b61039260a08401356103116080860160608701611aa7565b610322610100870160e08801611aa7565b604080518082019091528061033a60208a018a611aa7565b61034a60608b0160408c01611ecf565b61035a60408c0160208d01611aa7565b60405160200161036c93929190611f96565b6040516020818303038152906040528152602001336001600160a01b0316815250610f88565b91508260c001358210156103a557600080fd5b50919050565b604080517f8fcbaf0c00000000000000000000000000000000000000000000000000000000815233600482015230602482015260448101879052606481018690526001608482015260ff851660a482015260c4810184905260e4810183905290516001600160a01b03881691638fcbaf0c9161010480830192600092919082900301818387803b15801561043e57600080fd5b505af1158015610452573d6000803e3d6000fd5b50505050505050505050565b60007f00000000000000000000000000000000000000000000000000000000000000006001600160a01b03166370a08231306040518263ffffffff1660e01b815260040180826001600160a01b0316815260200191505060206040518083038186803b1580156104cd57600080fd5b505afa1580156104e1573d6000803e3d6000fd5b505050506040513d60208110156104f757600080fd5b505190508281101561050857600080fd5b8015610596577f00000000000000000000000000000000000000000000000000000000000000006001600160a01b0316632e1a7d4d826040518263ffffffff1660e01b815260040180828152602001915050600060405180830381600087803b15801561057457600080fd5b505af1158015610588573d6000803e3d6000fd5b505050506105968282610f26565b505050565b7f000000000000000000000000000000000000000000000000000000000000000081565b6000821180156105d0575060648211155b6105d957600080fd5b60007f00000000000000000000000000000000000000000000000000000000000000006001600160a01b03166370a08231306040518263ffffffff1660e01b815260040180826001600160a01b0316815260200191505060206040518083038186803b15801561064857600080fd5b505afa15801561065c573d6000803e3d6000fd5b505050506040513d602081101561067257600080fd5b505190508481101561068357600080fd5b8015610747577f00000000000000000000000000000000000000000000000000000000000000006001600160a01b0316632e1a7d4d826040518263ffffffff1660e01b815260040180828152602001915050600060405180830381600087803b1580156106ef57600080fd5b505af1158015610703573d6000803e3d6000fd5b50505050600061271061071f85846110da90919063ffffffff16565b8161072657fe5b0490508015610739576107398382610f26565b61074585828403610f26565b505b5050505050565b60408051636eb1769f60e11b81523360048201523060248201529051600019916001600160a01b0389169163dd62ed3e91604480820192602092909190829003018186803b15801561079f57600080fd5b505afa1580156107b3573d6000803e3d6000fd5b505050506040513d60208110156107c957600080fd5b50511015610745576107458686868686866103ab565b60608167ffffffffffffffff811180156107f857600080fd5b5060405190808252806020026020018201604052801561082c57816020015b60608152602001906001900390816108175790505b50905060005b82811015610905576000803086868581811061084a57fe5b905060200281019061085c91906120f6565b60405161086a929190611fe9565b600060405180830381855af49150503d80600081146108a5576040519150601f19603f3d011682016040523d82523d6000602084013e6108aa565b606091505b5091509150816108e3576044815110156108c357600080fd5b600481019050808060200190518101906108dd9190611cd6565b50600080fd5b808484815181106108f057fe5b60209081029190910101525050600101610832565b5092915050565b600081604001518061091c610f84565b111561092757600080fd5b335b60006109388560000151611104565b9050610984856060015182610951578660200151610953565b305b6000604051806040016040528061096d8b60000151611110565b8152602001876001600160a01b0316815250610f88565b606086015280156109a457845130925061099d9061111f565b85526109b1565b84606001519350506109b7565b50610929565b83608001518310156109c857600080fd5b5050919050565b60408051636eb1769f60e11b8152336004820152306024820152905186916001600160a01b0389169163dd62ed3e91604480820192602092909190829003018186803b158015610a1e57600080fd5b505afa158015610a32573d6000803e3d6000fd5b505050506040513d6020811015610a4857600080fd5b5051101561074557610745868686868686610d88565b7f000000000000000000000000000000000000000000000000000000000000000081565b6000816080013580610a92610f84565b1115610a9d57600080fd5b610b3960a0840135610ab56080860160608701611aa7565b610ac6610100870160e08801611aa7565b6040518060400160405280886020016020810190610ae49190611aa7565b610af460608b0160408c01611ecf565b610b0160208c018c611aa7565b604051602001610b1393929190611f96565b6040516020818303038152906040528152602001336001600160a01b0316815250611136565b91508260c00135821115610b4c57600080fd5b50600019600055919050565b6000836001600160a01b03166370a08231306040518263ffffffff1660e01b815260040180826001600160a01b0316815260200191505060206040518083038186803b158015610ba757600080fd5b505afa158015610bbb573d6000803e3d6000fd5b505050506040513d6020811015610bd157600080fd5b5051905082811015610be257600080fd5b8015610bf357610bf38483836112b1565b50505050565b600082118015610c0a575060648211155b610c1357600080fd5b6000856001600160a01b03166370a08231306040518263ffffffff1660e01b815260040180826001600160a01b0316815260200191505060206040518083038186803b158015610c6257600080fd5b505afa158015610c76573d6000803e3d6000fd5b505050506040513d6020811015610c8c57600080fd5b5051905084811015610c9d57600080fd5b8015610745576000612710610cb283866110da565b81610cb957fe5b0490508015610ccd57610ccd8784836112b1565b610cda87868385036112b1565b50505050505050565b6000816040013580610cf3610f84565b1115610cfe57600080fd5b610d716060840135610d166040860160208701611aa7565b6040805180820190915260009080610d2e89806120f6565b8080601f01602080910402602001604051908101604052809392919081815260200183838082843760009201919091525050509082525033602090910152611136565b5060005491508260800135821115610b4c57600080fd5b604080517fd505accf000000000000000000000000000000000000000000000000000000008152336004820152306024820152604481018790526064810186905260ff8516608482015260a4810184905260c4810183905290516001600160a01b0388169163d505accf9160e480830192600092919082900301818387803b15801561043e57600080fd5b6000841380610e225750600083135b610e2b57600080fd5b6000610e3982840184611e3f565b90506000806000610e4d84600001516113f9565b925092509250610e7f7f000000000000000000000000000000000000000000000000000000000000000084848461142a565b5060008060008a13610ea657846001600160a01b0316846001600160a01b03161089610ebd565b836001600160a01b0316856001600160a01b0316108a5b915091508115610edc57610ed78587602001513384611449565b610452565b8551610ee790611104565b15610f0c578551610ef79061111f565b8652610f068133600089611136565b50610452565b806000819055508394506104528587602001513384611449565b6040516000906001600160a01b0384169083908381818185875af1925050503d8060008114610f71576040519150601f19603f3d011682016040523d82523d6000602084013e610f76565b606091505b505090508061059657600080fd5b4290565b60006001600160a01b038416610f9c573093505b6000806000610fae85600001516113f9565b919450925090506001600160a01b0380831690841610600080610fd28686866115d9565b6001600160a01b031663128acb088b85610feb8f611617565b6001600160a01b038e1615611000578d611026565b8761101f5773fffd8963efd1fc6a506488495d951d5263988d25611026565b6401000276a45b8d60405160200161103791906120b2565b6040516020818303038152906040526040518663ffffffff1660e01b815260040161106695949392919061200d565b6040805180830381600087803b15801561107f57600080fd5b505af1158015611093573d6000803e3d6000fd5b505050506040513d601f19601f820116820180604052508101906110b79190611c38565b91509150826110c657816110c8565b805b6000039b9a5050505050505050505050565b60008215806110f5575050818102818382816110f257fe5b04145b6110fe57600080fd5b92915050565b8051604211155b919050565b60606110fe826000602b611649565b80516060906110fe90839060179060161901611649565b60006001600160a01b03841661114a573093505b600080600061115c85600001516113f9565b919450925090506001600160a01b03808416908316106000806111808587866115d9565b6001600160a01b031663128acb088b856111998f611617565b6000036001600160a01b038e16156111b1578d6111d7565b876111d05773fffd8963efd1fc6a506488495d951d5263988d256111d7565b6401000276a45b8d6040516020016111e891906120b2565b6040516020818303038152906040526040518663ffffffff1660e01b815260040161121795949392919061200d565b6040805180830381600087803b15801561123057600080fd5b505af1158015611244573d6000803e3d6000fd5b505050506040513d601f19601f820116820180604052508101906112689190611c38565b9150915060008361127d578183600003611283565b82826000035b90985090506001600160a01b038a166112a2578b81146112a257600080fd5b50505050505050949350505050565b604080516001600160a01b038481166024830152604480830185905283518084039091018152606490920183526020820180517bffffffffffffffffffffffffffffffffffffffffffffffffffffffff167fa9059cbb000000000000000000000000000000000000000000000000000000001781529251825160009485949389169392918291908083835b6020831061135b5780518252601f19909201916020918201910161133c565b6001836020036101000a0380198251168184511680821785525050505050509050019150506000604051808303816000865af19150503d80600081146113bd576040519150601f19603f3d011682016040523d82523d6000602084013e6113c2565b606091505b50915091508180156113f05750805115806113f057508080602001905160208110156113ed57600080fd5b50515b61074757600080fd5b6000808061140784826116ec565b9250611414846014611728565b90506114218460176116ec565b91509193909250565b60006114408561143b868686611754565b6117aa565b95945050505050565b7f00000000000000000000000000000000000000000000000000000000000000006001600160a01b0316846001600160a01b031614801561148a5750804710155b156115ac577f00000000000000000000000000000000000000000000000000000000000000006001600160a01b031663d0e30db0826040518263ffffffff1660e01b81526004016000604051808303818588803b1580156114ea57600080fd5b505af11580156114fe573d6000803e3d6000fd5b50505050507f00000000000000000000000000000000000000000000000000000000000000006001600160a01b031663a9059cbb83836040518363ffffffff1660e01b815260040180836001600160a01b0316815260200182815260200192505050602060405180830381600087803b15801561157a57600080fd5b505af115801561158e573d6000803e3d6000fd5b505050506040513d60208110156115a457600080fd5b50610bf39050565b6001600160a01b0383163014156115cd576115c88483836112b1565b610bf3565b610bf3848484846117cd565b600061160f7f000000000000000000000000000000000000000000000000000000000000000061160a868686611754565b61191d565b949350505050565b60007f8000000000000000000000000000000000000000000000000000000000000000821061164557600080fd5b5090565b60608182601f01101561165b57600080fd5b82828401101561166a57600080fd5b8183018451101561167a57600080fd5b60608215801561169957604051915060008252602082016040526116e3565b6040519150601f8416801560200281840101858101878315602002848b0101015b818310156116d25780518352602092830192016116ba565b5050858452601f01601f1916604052505b50949350505050565b6000818260140110156116fe57600080fd5b816014018351101561170f57600080fd5b5001602001516c01000000000000000000000000900490565b60008182600301101561173a57600080fd5b816003018351101561174b57600080fd5b50016003015190565b61175c611a19565b826001600160a01b0316846001600160a01b0316111561177a579192915b50604080516060810182526001600160a01b03948516815292909316602083015262ffffff169181019190915290565b60006117b6838361191d565b9050336001600160a01b038216146110fe57600080fd5b604080516001600160a01b0385811660248301528481166044830152606480830185905283518084039091018152608490920183526020820180517bffffffffffffffffffffffffffffffffffffffffffffffffffffffff167f23b872dd00000000000000000000000000000000000000000000000000000000178152925182516000948594938a169392918291908083835b6020831061187f5780518252601f199092019160209182019101611860565b6001836020036101000a0380198251168184511680821785525050505050509050019150506000604051808303816000865af19150503d80600081146118e1576040519150601f19603f3d011682016040523d82523d6000602084013e6118e6565b606091505b5091509150818015611914575080511580611914575080806020019051602081101561191157600080fd5b50515b61074557600080fd5b600081602001516001600160a01b031682600001516001600160a01b03161061194557600080fd5b50805160208083015160409384015184516001600160a01b0394851681850152939091168385015262ffffff166060808401919091528351808403820181526080840185528051908301207fff0000000000000000000000000000000000000000000000000000000000000060a085015294901b6bffffffffffffffffffffffff191660a183015260b58201939093527fe34f199b19b2b4f47f68442619d555527d244f78a3297ea89325f843f87b8b5460d5808301919091528251808303909101815260f5909101909152805191012090565b604080516060810182526000808252602082018190529181019190915290565b803561110b816121b4565b600082601f830112611a54578081fd5b8135611a67611a6282612166565b612142565b818152846020838601011115611a7b578283fd5b816020850160208301379081016020019190915292915050565b600061010082840312156103a5578081fd5b600060208284031215611ab8578081fd5b8135611ac3816121b4565b9392505050565b600080600060608486031215611ade578182fd5b8335611ae9816121b4565b9250602084013591506040840135611b00816121b4565b809150509250925092565b600080600080600060a08688031215611b22578081fd5b8535611b2d816121b4565b9450602086013593506040860135611b44816121b4565b9250606086013591506080860135611b5b816121b4565b809150509295509295909350565b60008060008060008060c08789031215611b81578081fd5b8635611b8c816121b4565b95506020870135945060408701359350606087013560ff81168114611baf578182fd5b9598949750929560808101359460a0909101359350915050565b60008060208385031215611bdb578182fd5b823567ffffffffffffffff80821115611bf2578384fd5b818501915085601f830112611c05578384fd5b813581811115611c13578485fd5b8660208083028501011115611c26578485fd5b60209290920196919550909350505050565b60008060408385031215611c4a578182fd5b505080516020909101519092909150565b60008060008060608587031215611c70578182fd5b8435935060208501359250604085013567ffffffffffffffff80821115611c95578384fd5b818701915087601f830112611ca8578384fd5b813581811115611cb6578485fd5b886020828501011115611cc7578485fd5b95989497505060200194505050565b600060208284031215611ce7578081fd5b815167ffffffffffffffff811115611cfd578182fd5b8201601f81018413611d0d578182fd5b8051611d1b611a6282612166565b818152856020838501011115611d2f578384fd5b611440826020830160208601612188565b600060208284031215611d51578081fd5b813567ffffffffffffffff80821115611d68578283fd5b9083019060a08286031215611d7b578283fd5b60405160a081018181108382111715611d9057fe5b604052823582811115611da1578485fd5b611dad87828601611a44565b825250611dbc60208401611a39565b602082015260408301356040820152606083013560608201526080830135608082015280935050505092915050565b60006101008284031215611dfd578081fd5b611ac38383611a95565b600060208284031215611e18578081fd5b813567ffffffffffffffff811115611e2e578182fd5b820160a08185031215611ac3578182fd5b600060208284031215611e50578081fd5b813567ffffffffffffffff80821115611e67578283fd5b9083019060408286031215611e7a578283fd5b604051604081018181108382111715611e8f57fe5b604052823582811115611ea0578485fd5b611eac87828601611a44565b82525060208301359250611ebf836121b4565b6020810192909252509392505050565b600060208284031215611ee0578081fd5b813562ffffff81168114611ac3578182fd5b60008060408385031215611f04578182fd5b823591506020830135611f16816121b4565b809150509250929050565b60008060008060808587031215611f36578182fd5b843593506020850135611f48816121b4565b9250604085013591506060850135611f5f816121b4565b939692955090935050565b60008151808452611f82816020860160208601612188565b601f01601f19169290920160200192915050565b606093841b6bffffffffffffffffffffffff19908116825260e89390931b7fffffff0000000000000000000000000000000000000000000000000000000000166014820152921b166017820152602b0190565b6000828483379101908152919050565b6001600160a01b0391909116815260200190565b60006001600160a01b038088168352861515602084015285604084015280851660608401525060a0608083015261204760a0830184611f6a565b979650505050505050565b6000602080830181845280855180835260408601915060408482028701019250838701855b828110156120a557603f19888603018452612093858351611f6a565b94509285019290850190600101612077565b5092979650505050505050565b6000602082528251604060208401526120ce6060840182611f6a565b90506001600160a01b0360208501511660408401528091505092915050565b90815260200190565b6000808335601e1984360301811261210c578283fd5b83018035915067ffffffffffffffff821115612126578283fd5b60200191503681900382131561213b57600080fd5b9250929050565b60405181810167ffffffffffffffff8111828210171561215e57fe5b604052919050565b600067ffffffffffffffff82111561217a57fe5b50601f01601f191660200190565b60005b838110156121a357818101518382015260200161218b565b83811115610bf35750506000910152565b6001600160a01b03811681146121c957600080fd5b5056fea164736f6c6343000706000a",
  "linkReferences": {},
  "deployedLinkReferences": {}
}