{
  "_format": "hh-sol-artifact-1",
  "contractName": "SwapRouter",
  "sourceName": "contracts/uniswap/SwapRouter.sol",
  "abi": [
    {
      "inputs": [
        {
          "internalType": "address",
          "name": "_factory",
          "type": "address"
        },
        {
          "internalType": "address",
          "name": "_WETH9",
          "type": "address"
        }
      ],
      "stateMutability": "nonpayable",
      "type": "constructor"
    },
    {
      "inputs": [],
      "name": "WETH9",
      "outputs": [
        {
          "internalType": "address",
          "name": "",
          "type": "address"
        }
      ],
      "stateMutability": "view",
      "type": "function"
    },
    {
      "inputs": [
        {
          "components": [
            {
              "internalType": "bytes",
              "name": "path",
              "type": "bytes"
            },
            {
              "internalType": "address",
              "name": "recipient",
              "type": "address"
            },
            {
              "internalType": "uint256",
              "name": "deadline",
              "type": "uint256"
            },
            {
              "internalType": "uint256",
              "name": "amountIn",
              "type": "uint256"
            },
            {
              "internalType": "uint256",
              "name": "amountOutMinimum",
              "type": "uint256"
            }
          ],
          "internalType": "struct ISwapRouter.ExactInputParams",
          "name": "params",
          "type": "tuple"
        }
      ],
      "name": "exactInput",
      "outputs": [
        {
          "internalType": "uint256",
          "name": "amountOut",
          "type": "uint256"
        }
      ],
      "stateMutability": "payable",
      "type": "function"
    },
    {
      "inputs": [
        {
          "components": [
            {
              "internalType": "address",
              "name": "tokenIn",
              "type": "address"
            },
            {
              "internalType": "address",
              "name": "tokenOut",
              "type": "address"
            },
            {
              "internalType": "uint24",
              "name": "fee",
              "type": "uint24"
            },
            {
              "internalType": "address",
              "name": "recipient",
              "type": "address"
            },
            {
              "internalType": "uint256",
              "name": "deadline",
              "type": "uint256"
            },
            {
              "internalType": "uint256",
              "name": "amountIn",
              "type": "uint256"
            },
            {
              "internalType": "uint256",
              "name": "amountOutMinimum",
              "type": "uint256"
            },
            {
              "internalType": "uint160",
              "name": "sqrtPriceLimitX96",
              "type": "uint160"
            }
          ],
          "internalType": "struct ISwapRouter.ExactInputSingleParams",
          "name": "params",
          "type": "tuple"
        }
      ],
      "name": "exactInputSingle",
      "outputs": [
        {
          "internalType": "uint256",
          "name": "amountOut",
          "type": "uint256"
        }
      ],
      "stateMutability": "payable",
      "type": "function"
    },
    {
      "inputs": [
        {
          "components": [
            {
              "internalType": "bytes",
              "name": "path",
              "type": "bytes"
            },
            {
              "internalType": "address",
              "name": "recipient",
              "type": "address"
            },
            {
              "internalType": "uint256",
              "name": "deadline",
              "type": "uint256"
            },
            {
              "internalType": "uint256",
              "name": "amountOut",
              "type": "uint256"
            },
            {
              "internalType": "uint256",
              "name": "amountInMaximum",
              "type": "uint256"
            }
          ],
          "internalType": "struct ISwapRouter.ExactOutputParams",
          "name": "params",
          "type": "tuple"
        }
      ],
      "name": "exactOutput",
      "outputs": [
        {
          "internalType": "uint256",
          "name": "amountIn",
          "type": "uint256"
        }
      ],
      "stateMutability": "payable",
      "type": "function"
    },
    {
      "inputs": [
        {
          "components": [
            {
              "internalType": "address",
              "name": "tokenIn",
              "type": "address"
            },
            {
              "internalType": "address",
              "name": "tokenOut",
              "type": "address"
            },
            {
              "internalType": "uint24",
              "name": "fee",
              "type": "uint24"
            },
            {
              "internalType": "address",
              "name": "recipient",
              "type": "address"
            },
            {
              "internalType": "uint256",
              "name": "deadline",
              "type": "uint256"
            },
            {
              "internalType": "uint256",
              "name": "amountOut",
              "type": "uint256"
            },
            {
              "internalType": "uint256",
              "name": "amountInMaximum",
              "type": "uint256"
            },
            {
              "internalType": "uint160",
              "name": "sqrtPriceLimitX96",
              "type": "uint160"
            }
          ],
          "internalType": "struct ISwapRouter.ExactOutputSingleParams",
          "name": "params",
          "type": "tuple"
        }
      ],
      "name": "exactOutputSingle",
      "outputs": [
        {
          "internalType": "uint256",
          "name": "amountIn",
          "type": "uint256"
        }
      ],
      "stateMutability": "payable",
      "type": "function"
    },
    {
      "inputs": [],
      "name": "factory",
      "outputs": [
        {
          "internalType": "address",
          "name": "",
          "type": "address"
        }
      ],
      "stateMutability": "view",
      "type": "function"
    },
    {
      "inputs": [
        {
          "internalType": "bytes[]",
          "name": "data",
          "type": "bytes[]"
        }
      ],
      "name": "multicall",
      "outputs": [
        {
          "internalType": "bytes[]",
          "name": "results",
          "type": "bytes[]"
        }
      ],
      "stateMutability": "payable",
      "type": "function"
    },
    {
      "inputs": [],
      "name": "refundETH",
      "outputs": [],
      "stateMutability": "payable",
      "type": "function"
    },
    {
      "inputs": [
        {
          "internalType": "address",
          "name": "token",
          "type": "address"
        },
        {
          "internalType": "uint256",
          "name": "value",
          "type": "uint256"
        },
        {
          "internalType": "uint256",
          "name": "deadline",
          "type": "uint256"
        },
        {
          "internalType": "uint8",
          "name": "v",
          "type": "uint8"
        },
        {
          "internalType": "bytes32",
          "name": "r",
          "type": "bytes32"
        },
        {
          "internalType": "bytes32",
          "name": "s",
          "type": "bytes32"
        }
      ],
      "name": "selfPermit",
      "outputs": [],
      "stateMutability": "payable",
      "type": "function"
    },
    {
      "inputs": [
        {
          "internalType": "address",
          "name": "token",
          "type": "address"
        },
        {
          "internalType": "uint256",
          "name": "nonce",
          "type": "uint256"
        },
        {
          "internalType": "uint256",
          "name": "expiry",
          "type": "uint256"
        },
        {
          "internalType": "uint8",
          "name": "v",
          "type": "uint8"
        },
        {
          "internalType": "bytes32",
          "name": "r",
          "type": "bytes32"
        },
        {
          "internalType": "bytes32",
          "name": "s",
          "type": "bytes32"
        }
      ],
      "name": "selfPermitAllowed",
      "outputs": [],
      "stateMutability": "payable",
      "type": "function"
    },
    {
      "inputs": [
        {
          "internalType": "address",
          "name": "token",
          "type": "address"
        },
        {
          "internalType": "uint256",
          "name": "nonce",
          "type": "uint256"
        },
        {
          "internalType": "uint256",
          "name": "expiry",
          "type": "uint256"
        },
        {
          "internalType": "uint8",
          "name": "v",
          "type": "uint8"
        },
        {
          "internalType": "bytes32",
          "name": "r",
          "type": "bytes32"
        },
        {
          "internalType": "bytes32",
          "name": "s",
          "type": "bytes32"
        }
      ],
      "name": "selfPermitAllowedIfNecessary",
      "outputs": [],
      "stateMutability": "payable",
      "type": "function"
    },
    {
      "inputs": [
        {
          "internalType": "address",
          "name": "token",
          "type": "address"
        },
        {
          "internalType": "uint256",
          "name": "value",
          "type": "uint256"
        },
        {
          "internalType": "uint256",
          "name": "deadline",
          "type": "uint256"
        },
        {
          "internalType": "uint8",
          "name": "v",
          "type": "uint8"
        },
        {
          "internalType": "bytes32",
          "name": "r",
          "type": "bytes32"
        },
        {
          "internalType": "bytes32",
          "name": "s",
          "type": "bytes32"
        }
      ],
      "name": "selfPermitIfNecessary",
      "outputs": [],
      "stateMutability": "payable",
      "type": "function"
    },
    {
      "inputs": [
        {
          "internalType": "address",
          "name": "token",
          "type": "address"
        },
        {
          "internalType": "uint256",
          "name": "amountMinimum",
          "type": "uint256"
        },
        {
          "internalType": "address",
          "name": "recipient",
          "type": "address"
        }
      ],
      "name": "sweepToken",
      "outputs": [],
      "stateMutability": "payable",
      "type": "function"
    },
    {
      "inputs": [
        {
          "internalType": "address",
          "name": "token",
          "type": "address"
        },
        {
          "internalType": "uint256",
          "name": "amountMinimum",
          "type": "uint256"
        },
        {
          "internalType": "address",
          "name": "recipient",
          "type": "address"
        },
        {
          "internalType": "uint256",
          "name": "feeBips",
          "type": "uint256"
        },
        {
          "internalType": "address",
          "name": "feeRecipient",
          "type": "address"
        }
      ],
      "name": "sweepTokenWithFee",
      "outputs": [],
      "stateMutability": "payable",
      "type": "function"
    },
    {
      "inputs": [
        {
          "internalType": "int256",
          "name": "amount0Delta",
          "type": "int256"
        },
        {
          "internalType": "int256",
          "name": "amount1Delta",
          "type": "int256"
        },
        {
          "internalType": "bytes",
          "name": "_data",
          "type": "bytes"
        }
      ],
      "name": "uniswapV3SwapCallback",
      "outputs": [],
      "stateMutability": "nonpayable",
      "type": "function"
    },
    {
      "inputs": [
        {
          "internalType": "uint256",
          "name": "amountMinimum",
          "type": "uint256"
        },
        {
          "internalType": "address",
          "name": "recipient",
          "type": "address"
        }
      ],
      "name": "unwrapWETH9",
      "outputs": [],
      "stateMutability": "payable",
      "type": "function"
    },
    {
      "inputs": [
        {
          "internalType": "uint256",
          "name": "amountMinimum",
          "type": "uint256"
        },
        {
          "internalType": "address",
          "name": "recipient",
          "type": "address"
        },
        {
          "internalType": "uint256",
          "name": "feeBips",
          "type": "uint256"
        },
        {
          "internalType": "address",
          "name": "feeRecipient",
          "type": "address"
        }
      ],
      "name": "unwrapWETH9WithFee",
      "outputs": [],
      "stateMutability": "payable",
      "type": "function"
    },
    {
      "stateMutability": "payable",
      "type": "receive"
    }
  ],
  "bytecode": "0x60c06040526000196000553480156200001757600080fd5b5060405162002908380380620029088339810160408190526200003a9162000076565b6001600160601b0319606092831b8116608052911b1660a052620000ad565b80516001600160a01b03811681146200007157600080fd5b919050565b6000806040838503121562000089578182fd5b620000948362000059565b9150620000a46020840162000059565b90509250929050565b60805160601c60a05160601c6127ff6200010960003980610122528061050452806105fa528061068752806106c752806107bd528061178d52806117d35280611847525080610bf65280611120528061192252506127ff6000f3fe6080604052600436106101125760003560e01c8063c04b8d59116100a5578063df2ab5bb11610074578063f28c049811610059578063f28c0498146102ce578063f3995c67146102e1578063fa461e33146102f457610196565b8063df2ab5bb146102a8578063e0e189a0146102bb57610196565b8063c04b8d591461025a578063c2e3140a1461026d578063c45a015514610280578063db3e21981461029557610196565b80634aa4a4fc116100e15780634aa4a4fc146101f25780639b2c0a3714610214578063a4a78f0c14610227578063ac9650d81461023a57610196565b806312210e8a1461019b578063414bf389146101a35780634659a494146101cc57806349404b7c146101df57610196565b3661019657336001600160a01b037f00000000000000000000000000000000000000000000000000000000000000001614610194576040805162461bcd60e51b815260206004820152600960248201527f4e6f742057455448390000000000000000000000000000000000000000000000604482015290519081900360640190fd5b005b600080fd5b610194610314565b6101b66101b136600461236d565b610326565b6040516101c391906126f0565b60405180910390f35b6101946101da3660046120eb565b61044d565b6101946101ed366004612474565b610500565b3480156101fe57600080fd5b50610207610685565b6040516101c3919061257b565b6101946102223660046124a3565b6106a9565b6101946102353660046120eb565b610880565b61024d61024836600461214b565b610911565b6040516101c391906125d4565b6101b66102683660046122c2565b610a51565b61019461027b3660046120eb565b610b65565b34801561028c57600080fd5b50610207610bf4565b6101b66102a336600461236d565b610c18565b6101946102b636600461204c565b610d3f565b6101946102c936600461208d565b610e28565b6101b66102dc366004612389565b610f5a565b6101946102ef3660046120eb565b611050565b34801561030057600080fd5b5061019461030f3660046121dd565b6110db565b47156103245761032433476111ee565b565b600081608001358061033661127e565b111561037f576040805162461bcd60e51b8152602060048201526013602482015272151c985b9cd858dd1a5bdb881d1bdbc81bdb19606a1b604482015290519081900360640190fd5b61041860a08401356103976080860160608701612029565b6103a8610100870160e08801612029565b60408051808201909152806103c060208a018a612029565b6103d060608b0160408c01612451565b6103e060408c0160208d01612029565b6040516020016103f293929190612518565b6040516020818303038152906040528152602001336001600160a01b0316815250611282565b91508260c001358210156104475760405162461bcd60e51b815260040161043e9061267e565b60405180910390fd5b50919050565b604080517f8fcbaf0c00000000000000000000000000000000000000000000000000000000815233600482015230602482015260448101879052606481018690526001608482015260ff851660a482015260c4810184905260e4810183905290516001600160a01b03881691638fcbaf0c9161010480830192600092919082900301818387803b1580156104e057600080fd5b505af11580156104f4573d6000803e3d6000fd5b50505050505050505050565b60007f00000000000000000000000000000000000000000000000000000000000000006001600160a01b03166370a08231306040518263ffffffff1660e01b815260040180826001600160a01b0316815260200191505060206040518083038186803b15801561056f57600080fd5b505afa158015610583573d6000803e3d6000fd5b505050506040513d602081101561059957600080fd5b50519050828110156105f2576040805162461bcd60e51b815260206004820152601260248201527f496e73756666696369656e742057455448390000000000000000000000000000604482015290519081900360640190fd5b8015610680577f00000000000000000000000000000000000000000000000000000000000000006001600160a01b0316632e1a7d4d826040518263ffffffff1660e01b815260040180828152602001915050600060405180830381600087803b15801561065e57600080fd5b505af1158015610672573d6000803e3d6000fd5b5050505061068082826111ee565b505050565b7f000000000000000000000000000000000000000000000000000000000000000081565b6000821180156106ba575060648211155b6106c357600080fd5b60007f00000000000000000000000000000000000000000000000000000000000000006001600160a01b03166370a08231306040518263ffffffff1660e01b815260040180826001600160a01b0316815260200191505060206040518083038186803b15801561073257600080fd5b505afa158015610746573d6000803e3d6000fd5b505050506040513d602081101561075c57600080fd5b50519050848110156107b5576040805162461bcd60e51b815260206004820152601260248201527f496e73756666696369656e742057455448390000000000000000000000000000604482015290519081900360640190fd5b8015610879577f00000000000000000000000000000000000000000000000000000000000000006001600160a01b0316632e1a7d4d826040518263ffffffff1660e01b815260040180828152602001915050600060405180830381600087803b15801561082157600080fd5b505af1158015610835573d6000803e3d6000fd5b50505050600061271061085185846113d490919063ffffffff16565b8161085857fe5b049050801561086b5761086b83826111ee565b610877858284036111ee565b505b5050505050565b60408051636eb1769f60e11b81523360048201523060248201529051600019916001600160a01b0389169163dd62ed3e91604480820192602092909190829003018186803b1580156108d157600080fd5b505afa1580156108e5573d6000803e3d6000fd5b505050506040513d60208110156108fb57600080fd5b505110156108775761087786868686868661044d565b60608167ffffffffffffffff8111801561092a57600080fd5b5060405190808252806020026020018201604052801561095e57816020015b60608152602001906001900390816109495790505b50905060005b82811015610a4a576000803086868581811061097c57fe5b905060200281019061098e91906126f9565b60405161099c92919061256b565b600060405180830381855af49150503d80600081146109d7576040519150601f19603f3d011682016040523d82523d6000602084013e6109dc565b606091505b509150915081610a28576044815110156109f557600080fd5b60048101905080806020019051810190610a0f9190612258565b60405162461bcd60e51b815260040161043e9190612634565b80848481518110610a3557fe5b60209081029190910101525050600101610964565b5092915050565b6000816040015180610a6161127e565b1115610aaa576040805162461bcd60e51b8152602060048201526013602482015272151c985b9cd858dd1a5bdb881d1bdbc81bdb19606a1b604482015290519081900360640190fd5b335b6000610abb85600001516113fe565b9050610b07856060015182610ad4578660200151610ad6565b305b60006040518060400160405280610af08b6000015161140a565b8152602001876001600160a01b0316815250611282565b60608601528015610b27578451309250610b2090611419565b8552610b34565b8460600151935050610b3a565b50610aac565b8360800151831015610b5e5760405162461bcd60e51b815260040161043e9061267e565b5050919050565b60408051636eb1769f60e11b8152336004820152306024820152905186916001600160a01b0389169163dd62ed3e91604480820192602092909190829003018186803b158015610bb457600080fd5b505afa158015610bc8573d6000803e3d6000fd5b505050506040513d6020811015610bde57600080fd5b5051101561087757610877868686868686611050565b7f000000000000000000000000000000000000000000000000000000000000000081565b6000816080013580610c2861127e565b1115610c71576040805162461bcd60e51b8152602060048201526013602482015272151c985b9cd858dd1a5bdb881d1bdbc81bdb19606a1b604482015290519081900360640190fd5b610d0d60a0840135610c896080860160608701612029565b610c9a610100870160e08801612029565b6040518060400160405280886020016020810190610cb89190612029565b610cc860608b0160408c01612451565b610cd560208c018c612029565b604051602001610ce793929190612518565b6040516020818303038152906040528152602001336001600160a01b0316815250611430565b91508260c00135821115610d335760405162461bcd60e51b815260040161043e90612647565b50600019600055919050565b6000836001600160a01b03166370a08231306040518263ffffffff1660e01b815260040180826001600160a01b0316815260200191505060206040518083038186803b158015610d8e57600080fd5b505afa158015610da2573d6000803e3d6000fd5b505050506040513d6020811015610db857600080fd5b5051905082811015610e11576040805162461bcd60e51b815260206004820152601260248201527f496e73756666696369656e7420746f6b656e0000000000000000000000000000604482015290519081900360640190fd5b8015610e2257610e228483836115ab565b50505050565b600082118015610e39575060648211155b610e4257600080fd5b6000856001600160a01b03166370a08231306040518263ffffffff1660e01b815260040180826001600160a01b0316815260200191505060206040518083038186803b158015610e9157600080fd5b505afa158015610ea5573d6000803e3d6000fd5b505050506040513d6020811015610ebb57600080fd5b5051905084811015610f14576040805162461bcd60e51b815260206004820152601260248201527f496e73756666696369656e7420746f6b656e0000000000000000000000000000604482015290519081900360640190fd5b8015610877576000612710610f2983866113d4565b81610f3057fe5b0490508015610f4457610f448784836115ab565b610f5187868385036115ab565b50505050505050565b6000816040013580610f6a61127e565b1115610fb3576040805162461bcd60e51b8152602060048201526013602482015272151c985b9cd858dd1a5bdb881d1bdbc81bdb19606a1b604482015290519081900360640190fd5b6110266060840135610fcb6040860160208701612029565b6040805180820190915260009080610fe389806126f9565b8080601f01602080910402602001604051908101604052809392919081815260200183838082843760009201919091525050509082525033602090910152611430565b5060005491508260800135821115610d335760405162461bcd60e51b815260040161043e90612647565b604080517fd505accf000000000000000000000000000000000000000000000000000000008152336004820152306024820152604481018790526064810186905260ff8516608482015260a4810184905260c4810183905290516001600160a01b0388169163d505accf9160e480830192600092919082900301818387803b1580156104e057600080fd5b60008413806110ea5750600083135b6110f357600080fd5b6000611101828401846123c1565b90506000806000611115846000015161173b565b9250925092506111477f000000000000000000000000000000000000000000000000000000000000000084848461176c565b5060008060008a1361116e57846001600160a01b0316846001600160a01b03161089611185565b836001600160a01b0316856001600160a01b0316108a5b9150915081156111a45761119f858760200151338461178b565b6104f4565b85516111af906113fe565b156111d45785516111bf90611419565b86526111ce8133600089611430565b506104f4565b806000819055508394506104f4858760200151338461178b565b6040516000906001600160a01b0384169083908381818185875af1925050503d8060008114611239576040519150601f19603f3d011682016040523d82523d6000602084013e61123e565b606091505b50509050806106805760405162461bcd60e51b81526004018080602001828103825260238152602001806127d06023913960400191505060405180910390fd5b4290565b60006001600160a01b038416611296573093505b60008060006112a8856000015161173b565b919450925090506001600160a01b03808316908416106000806112cc86868661191b565b6001600160a01b031663128acb088b856112e58f611959565b6001600160a01b038e16156112fa578d611320565b876113195773fffd8963efd1fc6a506488495d951d5263988d25611320565b6401000276a45b8d60405160200161133191906126b5565b6040516020818303038152906040526040518663ffffffff1660e01b815260040161136095949392919061258f565b6040805180830381600087803b15801561137957600080fd5b505af115801561138d573d6000803e3d6000fd5b505050506040513d601f19601f820116820180604052508101906113b191906121ba565b91509150826113c057816113c2565b805b6000039b9a5050505050505050505050565b60008215806113ef575050818102818382816113ec57fe5b04145b6113f857600080fd5b92915050565b8051604211155b919050565b60606113f8826000602b61198b565b80516060906113f89083906017906016190161198b565b60006001600160a01b038416611444573093505b6000806000611456856000015161173b565b919450925090506001600160a01b038084169083161060008061147a85878661191b565b6001600160a01b031663128acb088b856114938f611959565b6000036001600160a01b038e16156114ab578d6114d1565b876114ca5773fffd8963efd1fc6a506488495d951d5263988d256114d1565b6401000276a45b8d6040516020016114e291906126b5565b6040516020818303038152906040526040518663ffffffff1660e01b815260040161151195949392919061258f565b6040805180830381600087803b15801561152a57600080fd5b505af115801561153e573d6000803e3d6000fd5b505050506040513d601f19601f8201168201806040525081019061156291906121ba565b9150915060008361157757818360000361157d565b82826000035b90985090506001600160a01b038a1661159c578b811461159c57600080fd5b50505050505050949350505050565b604080516001600160a01b038481166024830152604480830185905283518084039091018152606490920183526020820180517bffffffffffffffffffffffffffffffffffffffffffffffffffffffff167fa9059cbb000000000000000000000000000000000000000000000000000000001781529251825160009485949389169392918291908083835b602083106116555780518252601f199092019160209182019101611636565b6001836020036101000a0380198251168184511680821785525050505050509050019150506000604051808303816000865af19150503d80600081146116b7576040519150601f19603f3d011682016040523d82523d6000602084013e6116bc565b606091505b50915091508180156116ea5750805115806116ea57508080602001905160208110156116e757600080fd5b50515b610879576040805162461bcd60e51b815260206004820152600260248201527f5446000000000000000000000000000000000000000000000000000000000000604482015290519081900360640190fd5b600080806117498482611b06565b9250611756846014611bd2565b9050611763846017611b06565b91509193909250565b60006117828561177d868686611c8e565b611ce4565b95945050505050565b7f00000000000000000000000000000000000000000000000000000000000000006001600160a01b0316846001600160a01b03161480156117cc5750804710155b156118ee577f00000000000000000000000000000000000000000000000000000000000000006001600160a01b031663d0e30db0826040518263ffffffff1660e01b81526004016000604051808303818588803b15801561182c57600080fd5b505af1158015611840573d6000803e3d6000fd5b50505050507f00000000000000000000000000000000000000000000000000000000000000006001600160a01b031663a9059cbb83836040518363ffffffff1660e01b815260040180836001600160a01b0316815260200182815260200192505050602060405180830381600087803b1580156118bc57600080fd5b505af11580156118d0573d6000803e3d6000fd5b505050506040513d60208110156118e657600080fd5b50610e229050565b6001600160a01b03831630141561190f5761190a8483836115ab565b610e22565b610e2284848484611d07565b60006119517f000000000000000000000000000000000000000000000000000000000000000061194c868686611c8e565b611e9f565b949350505050565b60007f8000000000000000000000000000000000000000000000000000000000000000821061198757600080fd5b5090565b60608182601f0110156119e5576040805162461bcd60e51b815260206004820152600e60248201527f736c6963655f6f766572666c6f77000000000000000000000000000000000000604482015290519081900360640190fd5b828284011015611a3c576040805162461bcd60e51b815260206004820152600e60248201527f736c6963655f6f766572666c6f77000000000000000000000000000000000000604482015290519081900360640190fd5b81830184511015611a94576040805162461bcd60e51b815260206004820152601160248201527f736c6963655f6f75744f66426f756e6473000000000000000000000000000000604482015290519081900360640190fd5b606082158015611ab35760405191506000825260208201604052611afd565b6040519150601f8416801560200281840101858101878315602002848b0101015b81831015611aec578051835260209283019201611ad4565b5050858452601f01601f1916604052505b50949350505050565b600081826014011015611b60576040805162461bcd60e51b815260206004820152601260248201527f746f416464726573735f6f766572666c6f770000000000000000000000000000604482015290519081900360640190fd5b8160140183511015611bb9576040805162461bcd60e51b815260206004820152601560248201527f746f416464726573735f6f75744f66426f756e64730000000000000000000000604482015290519081900360640190fd5b5001602001516c01000000000000000000000000900490565b600081826003011015611c2c576040805162461bcd60e51b815260206004820152601160248201527f746f55696e7432345f6f766572666c6f77000000000000000000000000000000604482015290519081900360640190fd5b8160030183511015611c85576040805162461bcd60e51b815260206004820152601460248201527f746f55696e7432345f6f75744f66426f756e6473000000000000000000000000604482015290519081900360640190fd5b50016003015190565b611c96611f9b565b826001600160a01b0316846001600160a01b03161115611cb4579192915b50604080516060810182526001600160a01b03948516815292909316602083015262ffffff169181019190915290565b6000611cf08383611e9f565b9050336001600160a01b038216146113f857600080fd5b604080516001600160a01b0385811660248301528481166044830152606480830185905283518084039091018152608490920183526020820180517bffffffffffffffffffffffffffffffffffffffffffffffffffffffff167f23b872dd00000000000000000000000000000000000000000000000000000000178152925182516000948594938a169392918291908083835b60208310611db95780518252601f199092019160209182019101611d9a565b6001836020036101000a0380198251168184511680821785525050505050509050019150506000604051808303816000865af19150503d8060008114611e1b576040519150601f19603f3d011682016040523d82523d6000602084013e611e20565b606091505b5091509150818015611e4e575080511580611e4e5750808060200190516020811015611e4b57600080fd5b50515b610877576040805162461bcd60e51b815260206004820152600360248201527f5446460000000000000000000000000000000000000000000000000000000000604482015290519081900360640190fd5b600081602001516001600160a01b031682600001516001600160a01b031610611ec757600080fd5b50805160208083015160409384015184516001600160a01b0394851681850152939091168385015262ffffff166060808401919091528351808403820181526080840185528051908301207fff0000000000000000000000000000000000000000000000000000000000000060a085015294901b6bffffffffffffffffffffffff191660a183015260b58201939093527fe34f199b19b2b4f47f68442619d555527d244f78a3297ea89325f843f87b8b5460d5808301919091528251808303909101815260f5909101909152805191012090565b604080516060810182526000808252602082018190529181019190915290565b8035611405816127b7565b600082601f830112611fd6578081fd5b8135611fe9611fe482612769565b612745565b818152846020838601011115611ffd578283fd5b816020850160208301379081016020019190915292915050565b60006101008284031215610447578081fd5b60006020828403121561203a578081fd5b8135612045816127b7565b9392505050565b600080600060608486031215612060578182fd5b833561206b816127b7565b9250602084013591506040840135612082816127b7565b809150509250925092565b600080600080600060a086880312156120a4578081fd5b85356120af816127b7565b94506020860135935060408601356120c6816127b7565b92506060860135915060808601356120dd816127b7565b809150509295509295909350565b60008060008060008060c08789031215612103578081fd5b863561210e816127b7565b95506020870135945060408701359350606087013560ff81168114612131578182fd5b9598949750929560808101359460a0909101359350915050565b6000806020838503121561215d578182fd5b823567ffffffffffffffff80821115612174578384fd5b818501915085601f830112612187578384fd5b813581811115612195578485fd5b86602080830285010111156121a8578485fd5b60209290920196919550909350505050565b600080604083850312156121cc578182fd5b505080516020909101519092909150565b600080600080606085870312156121f2578182fd5b8435935060208501359250604085013567ffffffffffffffff80821115612217578384fd5b818701915087601f83011261222a578384fd5b813581811115612238578485fd5b886020828501011115612249578485fd5b95989497505060200194505050565b600060208284031215612269578081fd5b815167ffffffffffffffff81111561227f578182fd5b8201601f8101841361228f578182fd5b805161229d611fe482612769565b8181528560208385010111156122b1578384fd5b61178282602083016020860161278b565b6000602082840312156122d3578081fd5b813567ffffffffffffffff808211156122ea578283fd5b9083019060a082860312156122fd578283fd5b60405160a08101818110838211171561231257fe5b604052823582811115612323578485fd5b61232f87828601611fc6565b82525061233e60208401611fbb565b602082015260408301356040820152606083013560608201526080830135608082015280935050505092915050565b6000610100828403121561237f578081fd5b6120458383612017565b60006020828403121561239a578081fd5b813567ffffffffffffffff8111156123b0578182fd5b820160a08185031215612045578182fd5b6000602082840312156123d2578081fd5b813567ffffffffffffffff808211156123e9578283fd5b90830190604082860312156123fc578283fd5b60405160408101818110838211171561241157fe5b604052823582811115612422578485fd5b61242e87828601611fc6565b82525060208301359250612441836127b7565b6020810192909252509392505050565b600060208284031215612462578081fd5b813562ffffff81168114612045578182fd5b60008060408385031215612486578182fd5b823591506020830135612498816127b7565b809150509250929050565b600080600080608085870312156124b8578182fd5b8435935060208501356124ca816127b7565b92506040850135915060608501356124e1816127b7565b939692955090935050565b6000815180845261250481602086016020860161278b565b601f01601f19169290920160200192915050565b606093841b6bffffffffffffffffffffffff19908116825260e89390931b7fffffff0000000000000000000000000000000000000000000000000000000000166014820152921b166017820152602b0190565b6000828483379101908152919050565b6001600160a01b0391909116815260200190565b60006001600160a01b038088168352861515602084015285604084015280851660608401525060a060808301526125c960a08301846124ec565b979650505050505050565b6000602080830181845280855180835260408601915060408482028701019250838701855b8281101561262757603f198886030184526126158583516124ec565b945092850192908501906001016125f9565b5092979650505050505050565b60006020825261204560208301846124ec565b60208082526012908201527f546f6f206d756368207265717565737465640000000000000000000000000000604082015260600190565b60208082526013908201527f546f6f206c6974746c6520726563656976656400000000000000000000000000604082015260600190565b6000602082528251604060208401526126d160608401826124ec565b90506001600160a01b0360208501511660408401528091505092915050565b90815260200190565b6000808335601e1984360301811261270f578283fd5b83018035915067ffffffffffffffff821115612729578283fd5b60200191503681900382131561273e57600080fd5b9250929050565b60405181810167ffffffffffffffff8111828210171561276157fe5b604052919050565b600067ffffffffffffffff82111561277d57fe5b50601f01601f191660200190565b60005b838110156127a657818101518382015260200161278e565b83811115610e225750506000910152565b6001600160a01b03811681146127cc57600080fd5b5056fe5472616e7366657248656c7065723a204554485f5452414e534645525f4641494c4544a164736f6c6343000706000a",
  "linkReferences": {},
  "deployedLinkReferences": {}
}