{
  "_format": "hh-sol-artifact-1",
  "contractName": "MintableBurnableToken",
  "sourceName": "contracts/minter_contracts/ERC20TokenMintableBurnable.sol",
  "abi": [
    {
      "inputs": [
        {
          "internalType": "string",
          "name": "name",
          "type": "string"
        },
        {
          "internalType": "string",
          "name": "symbol",
          "type": "string"
        },
        {
          "internalType": "uint256",
          "name": "initialSupply",
          "type": "uint256"
        }
      ],
      "stateMutability": "nonpayable",
      "type": "constructor"
    },
    {
      "anonymous": false,
      "inputs": [
        {
          "indexed": true,
          "internalType": "address",
          "name": "owner",
          "type": "address"
        },
        {
          "indexed": true,
          "internalType": "address",
          "name": "spender",
          "type": "address"
        },
        {
          "indexed": false,
          "internalType": "uint256",
          "name": "value",
          "type": "uint256"
        }
      ],
      "name": "Approval",
      "type": "event"
    },
    {
      "anonymous": false,
      "inputs": [
        {
          "indexed": true,
          "internalType": "address",
          "name": "from",
          "type": "address"
        },
        {
          "indexed": true,
          "internalType": "address",
          "name": "to",
          "type": "address"
        },
        {
          "indexed": false,
          "internalType": "uint256",
          "name": "value",
          "type": "uint256"
        }
      ],
      "name": "Transfer",
      "type": "event"
    },
    {
      "inputs": [
        {
          "internalType": "address",
          "name": "owner",
          "type": "address"
        },
        {
          "internalType": "address",
          "name": "spender",
          "type": "address"
        }
      ],
      "name": "allowance",
      "outputs": [
        {
          "internalType": "uint256",
          "name": "",
          "type": "uint256"
        }
      ],
      "stateMutability": "view",
      "type": "function"
    },
    {
      "inputs": [
        {
          "internalType": "address",
          "name": "spender",
          "type": "address"
        },
        {
          "internalType": "uint256",
          "name": "amount",
          "type": "uint256"
        }
      ],
      "name": "approve",
      "outputs": [
        {
          "internalType": "bool",
          "name": "",
          "type": "bool"
        }
      ],
      "stateMutability": "nonpayable",
      "type": "function"
    },
    {
      "inputs": [
        {
          "internalType": "address",
          "name": "account",
          "type": "address"
        }
      ],
      "name": "balanceOf",
      "outputs": [
        {
          "internalType": "uint256",
          "name": "",
          "type": "uint256"
        }
      ],
      "stateMutability": "view",
      "type": "function"
    },
    {
      "inputs": [
        {
          "internalType": "uint256",
          "name": "amount",
          "type": "uint256"
        }
      ],
      "name": "burn",
      "outputs": [],
      "stateMutability": "nonpayable",
      "type": "function"
    },
    {
      "inputs": [
        {
          "internalType": "address",
          "name": "account",
          "type": "address"
        },
        {
          "internalType": "uint256",
          "name": "amount",
          "type": "uint256"
        }
      ],
      "name": "burnFrom",
      "outputs": [],
      "stateMutability": "nonpayable",
      "type": "function"
    },
    {
      "inputs": [],
      "name": "decimals",
      "outputs": [
        {
          "internalType": "uint8",
          "name": "",
          "type": "uint8"
        }
      ],
      "stateMutability": "view",
      "type": "function"
    },
    {
      "inputs": [
        {
          "internalType": "address",
          "name": "spender",
          "type": "address"
        },
        {
          "internalType": "uint256",
          "name": "subtractedValue",
          "type": "uint256"
        }
      ],
      "name": "decreaseAllowance",
      "outputs": [
        {
          "internalType": "bool",
          "name": "",
          "type": "bool"
        }
      ],
      "stateMutability": "nonpayable",
      "type": "function"
    },
    {
      "inputs": [
        {
          "internalType": "address",
          "name": "spender",
          "type": "address"
        },
        {
          "internalType": "uint256",
          "name": "addedValue",
          "type": "uint256"
        }
      ],
      "name": "increaseAllowance",
      "outputs": [
        {
          "internalType": "bool",
          "name": "",
          "type": "bool"
        }
      ],
      "stateMutability": "nonpayable",
      "type": "function"
    },
    {
      "inputs": [
        {
          "internalType": "address",
          "name": "to",
          "type": "address"
        },
        {
          "internalType": "uint256",
          "name": "amount",
          "type": "uint256"
        }
      ],
      "name": "mint",
      "outputs": [],
      "stateMutability": "nonpayable",
      "type": "function"
    },
    {
      "inputs": [],
      "name": "name",
      "outputs": [
        {
          "internalType": "string",
          "name": "",
          "type": "string"
        }
      ],
      "stateMutability": "view",
      "type": "function"
    },
    {
      "inputs": [],
      "name": "symbol",
      "outputs": [
        {
          "internalType": "string",
          "name": "",
          "type": "string"
        }
      ],
      "stateMutability": "view",
      "type": "function"
    },
    {
      "inputs": [],
      "name": "totalSupply",
      "outputs": [
        {
          "internalType": "uint256",
          "name": "",
          "type": "uint256"
        }
      ],
      "stateMutability": "view",
      "type": "function"
    },
    {
      "inputs": [
        {
          "internalType": "address",
          "name": "recipient",
          "type": "address"
        },
        {
          "internalType": "uint256",
          "name": "amount",
          "type": "uint256"
        }
      ],
      "name": "transfer",
      "outputs": [
        {
          "internalType": "bool",
          "name": "",
          "type": "bool"
        }
      ],
      "stateMutability": "nonpayable",
      "type": "function"
    },
    {
      "inputs": [
        {
          "internalType": "address",
          "name": "sender",
          "type": "address"
        },
        {
          "internalType": "address",
          "name": "recipient",
          "type": "address"
        },
        {
          "internalType": "uint256",
          "name": "amount",
          "type": "uint256"
        }
      ],
      "name": "transferFrom",
      "outputs": [
        {
          "internalType": "bool",
          "name": "",
          "type": "bool"
        }
      ],
      "stateMutability": "nonpayable",
      "type": "function"
    }
  ],
  "bytecode": "0x60806040523480156200001157600080fd5b5060405162000e4038038062000e40833981810160405260608110156200003757600080fd5b81019080805160405193929190846401000000008211156200005857600080fd5b9083019060208201858111156200006e57600080fd5b82516401000000008111828201881017156200008957600080fd5b82525081516020918201929091019080838360005b83811015620000b85781810151838201526020016200009e565b50505050905090810190601f168015620000e65780820380516001836020036101000a031916815260200191505b50604052602001805160405193929190846401000000008211156200010a57600080fd5b9083019060208201858111156200012057600080fd5b82516401000000008111828201881017156200013b57600080fd5b82525081516020918201929091019080838360005b838110156200016a57818101518382015260200162000150565b50505050905090810190601f168015620001985780820380516001836020036101000a031916815260200191505b5060405260209081015185519093508592508491620001bd91600391850190620002de565b508051620001d3906004906020840190620002de565b50506005805460ff1916601217905550620001ef3382620001f8565b5050506200038a565b6001600160a01b0382166200020c57600080fd5b6200021a60008383620002bf565b6200023681600254620002c460201b620006a71790919060201c565b6002556001600160a01b0382166000908152602081815260409091205462000269918390620006a7620002c4821b17901c565b6001600160a01b0383166000818152602081815260408083209490945583518581529351929391927fddf252ad1be2c89b69c2b068fc378daa952ba7f163c4a11628f55a4df523b3ef9281900390910190a35050565b505050565b600082820183811015620002d757600080fd5b9392505050565b828054600181600116156101000203166002900490600052602060002090601f01602090048101928262000316576000855562000361565b82601f106200033157805160ff191683800117855562000361565b8280016001018555821562000361579182015b828111156200036157825182559160200191906001019062000344565b506200036f92915062000373565b5090565b5b808211156200036f576000815560010162000374565b610aa6806200039a6000396000f3fe608060405234801561001057600080fd5b50600436106100ea5760003560e01c806342966c681161008c57806395d89b411161006657806395d89b41146102e3578063a457c2d7146102eb578063a9059cbb14610317578063dd62ed3e14610343576100ea565b806342966c681461027457806370a082311461029157806379cc6790146102b7576100ea565b806323b872dd116100c857806323b872dd146101c6578063313ce567146101fc578063395093511461021a57806340c10f1914610246576100ea565b806306fdde03146100ef578063095ea7b31461016c57806318160ddd146101ac575b600080fd5b6100f7610371565b6040805160208082528351818301528351919283929083019185019080838360005b83811015610131578181015183820152602001610119565b50505050905090810190601f16801561015e5780820380516001836020036101000a031916815260200191505b509250505060405180910390f35b6101986004803603604081101561018257600080fd5b506001600160a01b038135169060200135610407565b604080519115158252519081900360200190f35b6101b4610424565b60408051918252519081900360200190f35b610198600480360360608110156101dc57600080fd5b506001600160a01b0381358116916020810135909116906040013561042a565b6102046104b1565b6040805160ff9092168252519081900360200190f35b6101986004803603604081101561023057600080fd5b506001600160a01b0381351690602001356104ba565b6102726004803603604081101561025c57600080fd5b506001600160a01b038135169060200135610508565b005b6102726004803603602081101561028a57600080fd5b5035610516565b6101b4600480360360208110156102a757600080fd5b50356001600160a01b031661052a565b610272600480360360408110156102cd57600080fd5b506001600160a01b038135169060200135610545565b6100f761059f565b6101986004803603604081101561030157600080fd5b506001600160a01b038135169060200135610600565b6101986004803603604081101561032d57600080fd5b506001600160a01b038135169060200135610668565b6101b46004803603604081101561035957600080fd5b506001600160a01b038135811691602001351661067c565b60038054604080516020601f60026000196101006001881615020190951694909404938401819004810282018101909252828152606093909290918301828280156103fd5780601f106103d2576101008083540402835291602001916103fd565b820191906000526020600020905b8154815290600101906020018083116103e057829003601f168201915b5050505050905090565b600061041b6104146106c0565b84846106c4565b50600192915050565b60025490565b600061043784848461074c565b6104a7846104436106c0565b6104a285604051806060016040528060288152602001610a29602891396001600160a01b038a166000908152600160205260408120906104816106c0565b6001600160a01b031681526020810191909152604001600020549190610843565b6106c4565b5060019392505050565b60055460ff1690565b600061041b6104c76106c0565b846104a285600160006104d86106c0565b6001600160a01b03908116825260208083019390935260409182016000908120918c1681529252902054906106a7565b6105128282610859565b5050565b6105276105216106c0565b82610901565b50565b6001600160a01b031660009081526020819052604090205490565b600061057c82604051806060016040528060248152602001610a5160249139610575866105706106c0565b61067c565b9190610843565b90506105908361058a6106c0565b836106c4565b61059a8383610901565b505050565b60048054604080516020601f60026000196101006001881615020190951694909404938401819004810282018101909252828152606093909290918301828280156103fd5780601f106103d2576101008083540402835291602001916103fd565b600061041b61060d6106c0565b846104a285604051806060016040528060258152602001610a7560259139600160006106376106c0565b6001600160a01b03908116825260208083019390935260409182016000908120918d16815292529020549190610843565b600061041b6106756106c0565b848461074c565b6001600160a01b03918216600090815260016020908152604080832093909416825291909152205490565b6000828201838110156106b957600080fd5b9392505050565b3390565b6001600160a01b0383166106d757600080fd5b6001600160a01b0382166106ea57600080fd5b6001600160a01b03808416600081815260016020908152604080832094871680845294825291829020859055815185815291517f8c5be1e5ebec7d5bd14f71427d1e84f3dd0314c0f7b2291e5b200ac8c7c3b9259281900390910190a3505050565b6001600160a01b03831661075f57600080fd5b6001600160a01b03821661077257600080fd5b61077d83838361059a565b6107ba81604051806060016040528060268152602001610a03602691396001600160a01b0386166000908152602081905260409020549190610843565b6001600160a01b0380851660009081526020819052604080822093909355908416815220546107e990826106a7565b6001600160a01b038084166000818152602081815260409182902094909455805185815290519193928716927fddf252ad1be2c89b69c2b068fc378daa952ba7f163c4a11628f55a4df523b3ef92918290030190a3505050565b60008383111561085257600080fd5b5050900390565b6001600160a01b03821661086c57600080fd5b6108786000838361059a565b60025461088590826106a7565b6002556001600160a01b0382166000908152602081905260409020546108ab90826106a7565b6001600160a01b0383166000818152602081815260408083209490945583518581529351929391927fddf252ad1be2c89b69c2b068fc378daa952ba7f163c4a11628f55a4df523b3ef9281900390910190a35050565b6001600160a01b03821661091457600080fd5b6109208260008361059a565b61095d816040518060600160405280602281526020016109e1602291396001600160a01b0385166000908152602081905260409020549190610843565b6001600160a01b03831660009081526020819052604090205560025461098390826109cb565b6002556040805182815290516000916001600160a01b038516917fddf252ad1be2c89b69c2b068fc378daa952ba7f163c4a11628f55a4df523b3ef9181900360200190a35050565b6000828211156109da57600080fd5b5090039056fe45524332303a206275726e20616d6f756e7420657863656564732062616c616e636545524332303a207472616e7366657220616d6f756e7420657863656564732062616c616e636545524332303a207472616e7366657220616d6f756e74206578636565647320616c6c6f77616e636545524332303a206275726e20616d6f756e74206578636565647320616c6c6f77616e636545524332303a2064656372656173656420616c6c6f77616e63652062656c6f77207a65726fa164736f6c6343000706000a",
  "linkReferences": {},
  "deployedLinkReferences": {}
}