{
  "_format": "hh-sol-artifact-1",
  "contractName": "NonfungibleTokenPositionDescriptor",
  "sourceName": "contracts/uniswap/NonfungibleTokenPositionDescriptor.sol",
  "abi": [
    {
      "inputs": [
        {
          "internalType": "address",
          "name": "_WETH9",
          "type": "address"
        },
        {
          "internalType": "bytes32",
          "name": "_nativeCurrencyLabelBytes",
          "type": "bytes32"
        }
      ],
      "stateMutability": "nonpayable",
      "type": "constructor"
    },
    {
      "inputs": [],
      "name": "WETH9",
      "outputs": [
        {
          "internalType": "address",
          "name": "",
          "type": "address"
        }
      ],
      "stateMutability": "view",
      "type": "function"
    },
    {
      "inputs": [
        {
          "internalType": "address",
          "name": "token0",
          "type": "address"
        },
        {
          "internalType": "address",
          "name": "token1",
          "type": "address"
        },
        {
          "internalType": "uint256",
          "name": "chainId",
          "type": "uint256"
        }
      ],
      "name": "flipRatio",
      "outputs": [
        {
          "internalType": "bool",
          "name": "",
          "type": "bool"
        }
      ],
      "stateMutability": "view",
      "type": "function"
    },
    {
      "inputs": [],
      "name": "nativeCurrencyLabel",
      "outputs": [
        {
          "internalType": "string",
          "name": "",
          "type": "string"
        }
      ],
      "stateMutability": "view",
      "type": "function"
    },
    {
      "inputs": [],
      "name": "nativeCurrencyLabelBytes",
      "outputs": [
        {
          "internalType": "bytes32",
          "name": "",
          "type": "bytes32"
        }
      ],
      "stateMutability": "view",
      "type": "function"
    },
    {
      "inputs": [
        {
          "internalType": "address",
          "name": "token",
          "type": "address"
        },
        {
          "internalType": "uint256",
          "name": "chainId",
          "type": "uint256"
        }
      ],
      "name": "tokenRatioPriority",
      "outputs": [
        {
          "internalType": "int256",
          "name": "",
          "type": "int256"
        }
      ],
      "stateMutability": "view",
      "type": "function"
    },
    {
      "inputs": [
        {
          "internalType": "contract INonfungiblePositionManager",
          "name": "positionManager",
          "type": "address"
        },
        {
          "internalType": "uint256",
          "name": "tokenId",
          "type": "uint256"
        }
      ],
      "name": "tokenURI",
      "outputs": [
        {
          "internalType": "string",
          "name": "",
          "type": "string"
        }
      ],
      "stateMutability": "view",
      "type": "function"
    }
  ],
  "bytecode": "0x60c060405234801561001057600080fd5b506040516115ab3803806115ab83398101604081905261002f9161004a565b60609190911b6001600160601b03191660805260a052610082565b6000806040838503121561005c578182fd5b82516001600160a01b0381168114610072578283fd5b6020939093015192949293505050565b60805160601c60a0516114ea6100c1600039806102ba52806102ee52806103a2525080610107528061014c5280610645528061069952506114ea6000f3fe608060405234801561001057600080fd5b50600436106100725760003560e01c8063a18246e211610050578063a18246e2146100d5578063b7af3cdc146100dd578063e9dc6375146100f257610072565b80634aa4a4fc146100775780637e5af771146100955780639d7b0ea8146100b5575b600080fd5b61007f610105565b60405161008c919061133c565b60405180910390f35b6100a86100a3366004611042565b610129565b60405161008c9190611350565b6100c86100c3366004611082565b610148565b60405161008c919061135b565b6100c86102b8565b6100e56102dc565b60405161008c9190611364565b6100e5610100366004611082565b610402565b7f000000000000000000000000000000000000000000000000000000000000000081565b60006101358383610148565b61013f8584610148565b13949350505050565b60007f00000000000000000000000000000000000000000000000000000000000000006001600160a01b0316836001600160a01b0316141561018d57506002196102b2565b81600114156102ae576001600160a01b0383167375965be2a4c8ba0e9003a512c1914b71e4101ef014156101c3575060066102b2565b6001600160a01b03831673a0b86991c6218b36c1d19d4a2e9eb0ce3606eb4814156101f0575060056102b2565b6001600160a01b03831673dac17f958d2ee523a2206206994597c13d831ec7141561021d575060046102b2565b6001600160a01b038316736b175474e89094c44da98b954eedeac495271d0f141561024a575060036102b2565b6001600160a01b038316738daebade922df735c38c80c7ebd708af50815faa141561027857506003196102b2565b6001600160a01b038316732260fac5e5542a773aa44fbcfedf7c193bc2c59914156102a657506004196102b2565b5060006102b2565b5060005b92915050565b7f000000000000000000000000000000000000000000000000000000000000000081565b606060005b60208110801561034157507f0000000000000000000000000000000000000000000000000000000000000000816020811061031857fe5b1a60f81b7fff000000000000000000000000000000000000000000000000000000000000001615155b1561034e576001016102e1565b60008167ffffffffffffffff8111801561036757600080fd5b506040519080825280601f01601f191660200182016040528015610392576020820181803683370190505b50905060005b828110156103fb577f000000000000000000000000000000000000000000000000000000000000000081602081106103cc57fe5b1a60f81b8282815181106103dc57fe5b60200101906001600160f81b031916908160001a905350600101610398565b5091505090565b60606000806000806000876001600160a01b03166399fbab88886040518263ffffffff1660e01b8152600401610438919061135b565b6101806040518083038186803b15801561045157600080fd5b505afa158015610465573d6000803e3d6000fd5b505050506040513d601f19601f820116820180604052508101906104899190611207565b50505050509650965096509650965050506000610547896001600160a01b031663c45a01556040518163ffffffff1660e01b815260040160206040518083038186803b1580156104d857600080fd5b505afa1580156104ec573d6000803e3d6000fd5b505050506040513d601f19601f82011682018060405250810190610510919061101f565b6040518060600160405280896001600160a01b03168152602001886001600160a01b031681526020018762ffffff16815250610912565b9050600061055887876100a3610a0e565b905060008115610568578761056a565b865b90506000821561057a578761057c565b885b90506000846001600160a01b0316633850c7bd6040518163ffffffff1660e01b815260040160e06040518083038186803b1580156105b957600080fd5b505afa1580156105cd573d6000803e3d6000fd5b505050506040513d601f19601f820116820180604052508101906105f1919061115e565b505050505091505073__$2a3b8736d1a1c8bb027729408c45042c82$__63c49917d7604051806101c001604052808f8152602001866001600160a01b03168152602001856001600160a01b031681526020017f00000000000000000000000000000000000000000000000000000000000000006001600160a01b0316876001600160a01b03161461068a5761068587610a12565b610692565b6106926102dc565b81526020017f00000000000000000000000000000000000000000000000000000000000000006001600160a01b0316866001600160a01b0316146106de576106d986610a12565b6106e6565b6106e66102dc565b8152602001866001600160a01b031663313ce5676040518163ffffffff1660e01b815260040160206040518083038186803b15801561072457600080fd5b505afa158015610738573d6000803e3d6000fd5b505050506040513d601f19601f8201168201806040525081019061075c91906111ed565b60ff168152602001856001600160a01b031663313ce5676040518163ffffffff1660e01b815260040160206040518083038186803b15801561079d57600080fd5b505afa1580156107b1573d6000803e3d6000fd5b505050506040513d601f19601f820116820180604052508101906107d591906111ed565b60ff16815260200187151581526020018a60020b81526020018960020b81526020018460020b8152602001886001600160a01b031663d0c93a7c6040518163ffffffff1660e01b815260040160206040518083038186803b15801561083957600080fd5b505afa15801561084d573d6000803e3d6000fd5b505050506040513d601f19601f8201168201806040525081019061087191906110ad565b60020b81526020018b62ffffff168152602001886001600160a01b03168152506040518263ffffffff1660e01b81526004016108ad9190611377565b60006040518083038186803b1580156108c557600080fd5b505af41580156108d9573d6000803e3d6000fd5b505050506040513d6000823e601f3d908101601f1916820160405261090191908101906110c7565b9d9c50505050505050505050505050565b600081602001516001600160a01b031682600001516001600160a01b03161061093a57600080fd5b50805160208083015160409384015184516001600160a01b0394851681850152939091168385015262ffffff166060808401919091528351808403820181526080840185528051908301207fff0000000000000000000000000000000000000000000000000000000000000060a085015294901b6bffffffffffffffffffffffff191660a183015260b58201939093527fe34f199b19b2b4f47f68442619d555527d244f78a3297ea89325f843f87b8b5460d5808301919091528251808303909101815260f5909101909152805191012090565b4690565b60606000610a40837f95d89b4100000000000000000000000000000000000000000000000000000000610a65565b9050805160001415610a5d57610a5583610cba565b915050610a60565b90505b919050565b60408051600481526024810182526020810180517bffffffffffffffffffffffffffffffffffffffffffffffffffffffff167fffffffff0000000000000000000000000000000000000000000000000000000085161781529151815160609360009384936001600160a01b03891693919290918291908083835b60208310610afe5780518252601f199092019160209182019101610adf565b6001836020036101000a038019825116818451168082178552505050505050905001915050600060405180830381855afa9150503d8060008114610b5e576040519150601f19603f3d011682016040523d82523d6000602084013e610b63565b606091505b5091509150811580610b7457508051155b15610b925760405180602001604052806000815250925050506102b2565b805160201415610bca576000818060200190516020811015610bb357600080fd5b50519050610bc081610cc7565b93505050506102b2565b604081511115610ca257808060200190516020811015610be957600080fd5b8101908080516040519392919084640100000000821115610c0957600080fd5b908301906020820185811115610c1e57600080fd5b8251640100000000811182820188101715610c3857600080fd5b82525081516020918201929091019080838360005b83811015610c65578181015183820152602001610c4d565b50505050905090810190601f168015610c925780820380516001836020036101000a031916815260200191505b50604052505050925050506102b2565b50506040805160208101909152600081529392505050565b6060610a5d826006610e07565b604080516020808252818301909252606091600091906020820181803683370190505090506000805b6020811015610d69576000858260208110610d0757fe5b1a60f81b90507fff00000000000000000000000000000000000000000000000000000000000000811615610d605780848481518110610d4257fe5b60200101906001600160f81b031916908160001a9053506001909201915b50600101610cf0565b5060008167ffffffffffffffff81118015610d8357600080fd5b506040519080825280601f01601f191660200182016040528015610dae576020820181803683370190505b50905060005b82811015610dfe57838181518110610dc857fe5b602001015160f81c60f81b828281518110610ddf57fe5b60200101906001600160f81b031916908160001a905350600101610db4565b50949350505050565b606060028206158015610e1a5750600082115b8015610e27575060288211155b610e9257604080517f08c379a000000000000000000000000000000000000000000000000000000000815260206004820152601e60248201527f41646472657373537472696e675574696c3a20494e56414c49445f4c454e0000604482015290519081900360640190fd5b60008267ffffffffffffffff81118015610eab57600080fd5b506040519080825280601f01601f191660200182016040528015610ed6576020820181803683370190505b5090506001600160a01b03841660005b60028504811015610f7a57600860138290030282901c600f600482901c1660f082168203610f1382610f84565b868560020281518110610f2257fe5b60200101906001600160f81b031916908160001a905350610f4281610f84565b868560020260010181518110610f5457fe5b60200101906001600160f81b031916908160001a9053505060019092019150610ee69050565b5090949350505050565b6000600a8260ff161015610f9f57506030810160f81b610a60565b506037810160f81b610a60565b8051610a60816114c5565b8051600281900b8114610a6057600080fd5b80516fffffffffffffffffffffffffffffffff81168114610a6057600080fd5b805161ffff81168114610a6057600080fd5b805162ffffff81168114610a6057600080fd5b805160ff81168114610a6057600080fd5b600060208284031215611030578081fd5b815161103b816114c5565b9392505050565b600080600060608486031215611056578182fd5b8335611061816114c5565b92506020840135611071816114c5565b929592945050506040919091013590565b60008060408385031215611094578182fd5b823561109f816114c5565b946020939093013593505050565b6000602082840312156110be578081fd5b61103b82610fb7565b6000602082840312156110d8578081fd5b815167ffffffffffffffff808211156110ef578283fd5b818401915084601f830112611102578283fd5b81518181111561110e57fe5b604051601f8201601f19168101602001838111828210171561112c57fe5b604052818152838201602001871015611143578485fd5b611154826020830160208701611495565b9695505050505050565b600080600080600080600060e0888a031215611178578283fd5b8751611183816114c5565b965061119160208901610fb7565b955061119f60408901610fe9565b94506111ad60608901610fe9565b93506111bb60808901610fe9565b92506111c960a0890161100e565b915060c088015180151581146111dd578182fd5b8091505092959891949750929550565b6000602082840312156111fe578081fd5b61103b8261100e565b6000806000806000806000806000806000806101808d8f031215611229578485fd5b8c516bffffffffffffffffffffffff81168114611244578586fd5b9b5061125260208e01610fac565b9a5061126060408e01610fac565b995061126e60608e01610fac565b985061127c60808e01610ffb565b975061128a60a08e01610fb7565b965061129860c08e01610fb7565b95506112a660e08e01610fc9565b94506101008d015193506101208d015192506112c56101408e01610fc9565b91506112d46101608e01610fc9565b90509295989b509295989b509295989b565b6001600160a01b03169052565b15159052565b60020b9052565b60008151808452611318816020860160208601611495565b601f01601f19169290920160200192915050565b62ffffff169052565b60ff169052565b6001600160a01b0391909116815260200190565b901515815260200190565b90815260200190565b60006020825261103b6020830184611300565b60006020825282516020830152602083015161139660408401826112e6565b5060408301516113a960608401826112e6565b5060608301516101c08060808501526113c66101e0850183611300565b91506080850151601f198584030160a08601526113e38382611300565b92505060a08501516113f860c0860182611335565b5060c085015161140b60e0860182611335565b5060e0850151610100611420818701836112f3565b8601519050610120611434868201836112f9565b8601519050610140611448868201836112f9565b860151905061016061145c868201836112f9565b8601519050610180611470868201836112f9565b86015190506101a06114848682018361132c565b8601519050610f7a858301826112e6565b60005b838110156114b0578181015183820152602001611498565b838111156114bf576000848401525b50505050565b6001600160a01b03811681146114da57600080fd5b5056fea164736f6c6343000706000a",
  "linkReferences": {
    "contracts/uniswap/libraries/NFTDescriptor.sol": {
      "NFTDescriptor": [
        {
          "length": 20,
          "start": 1724
        }
      ]
    }
  },
  "deployedLinkReferences": {
    "contracts/uniswap/libraries/NFTDescriptor.sol": {
      "NFTDescriptor": [
        {
          "length": 20,
          "start": 1531
        }
      ]
    }
  }
}