{"contracts/uniswap/libraries/NFTDescriptor.sol":{"NFTDescriptor":{"abi":[{"inputs":[{"components":[{"internalType":"uint256","name":"tokenId","type":"uint256"},{"internalType":"address","name":"quoteTokenAddress","type":"address"},{"internalType":"address","name":"baseTokenAddress","type":"address"},{"internalType":"string","name":"quoteTokenSymbol","type":"string"},{"internalType":"string","name":"baseTokenSymbol","type":"string"},{"internalType":"uint8","name":"quoteTokenDecimals","type":"uint8"},{"internalType":"uint8","name":"baseTokenDecimals","type":"uint8"},{"internalType":"bool","name":"flipRatio","type":"bool"},{"internalType":"int24","name":"tickLower","type":"int24"},{"internalType":"int24","name":"tickUpper","type":"int24"},{"internalType":"int24","name":"tickCurrent","type":"int24"},{"internalType":"int24","name":"tickSpacing","type":"int24"},{"internalType":"uint24","name":"fee","type":"uint24"},{"internalType":"address","name":"poolAddress","type":"address"}],"internalType":"struct NFTDescriptor.ConstructTokenURIParams","name":"params","type":"tuple"}],"name":"constructTokenURI","outputs":[{"internalType":"string","name":"","type":"string"}],"stateMutability":"pure","type":"function"}],"devdoc":{"kind":"dev","methods":{},"version":1},"evm":{"assembly":"    /* \"contracts/uniswap/libraries/NFTDescriptor.sol\":573:18328  library NFTDescriptor {... */\n  dataSize(sub_0)\n  dataOffset(sub_0)\n  0x0b\n  dup3\n  dup3\n  dup3\n  codecopy\n  dup1\n  mload\n  0x00\n  byte\n  0x73\n  eq\n  tag_1\n  jumpi\n  invalid\ntag_1:\n  mstore(0x00, address)\n  0x73\n  dup2\n  mstore8\n  dup3\n  dup2\n  return\nstop\n\nsub_0: assembly {\n        /* \"contracts/uniswap/libraries/NFTDescriptor.sol\":573:18328  library NFTDescriptor {... */\n      eq(address, deployTimeAddress())\n      mstore(0x40, 0x80)\n      jumpi(tag_1, lt(calldatasize, 0x04))\n      shr(0xe0, calldataload(0x00))\n      dup1\n      0xc49917d7\n      eq\n      tag_2\n      jumpi\n    tag_1:\n      0x00\n      dup1\n      revert\n        /* \"contracts/uniswap/libraries/NFTDescriptor.sol\":1352:3014  function constructTokenURI(ConstructTokenURIParams memory params) public pure returns (string memory) {... */\n    tag_2:\n      tag_3\n      tag_4\n      calldatasize\n      0x04\n      tag_5\n      jump\t// in\n    tag_4:\n      tag_6\n      jump\t// in\n    tag_3:\n      mload(0x40)\n      tag_7\n      swap2\n      swap1\n      tag_8\n      jump\t// in\n    tag_7:\n      mload(0x40)\n      dup1\n      swap2\n      sub\n      swap1\n      return\n    tag_6:\n        /* \"contracts/uniswap/libraries/NFTDescriptor.sol\":1439:1452  string memory */\n      0x60\n        /* \"contracts/uniswap/libraries/NFTDescriptor.sol\":1464:1482  string memory name */\n      0x00\n        /* \"contracts/uniswap/libraries/NFTDescriptor.sol\":1485:1537  generateName(params, feeToPercentString(params.fee)) */\n      tag_10\n        /* \"contracts/uniswap/libraries/NFTDescriptor.sol\":1498:1504  params */\n      dup4\n        /* \"contracts/uniswap/libraries/NFTDescriptor.sol\":1506:1536  feeToPercentString(params.fee) */\n      tag_11\n        /* \"contracts/uniswap/libraries/NFTDescriptor.sol\":1525:1531  params */\n      dup6\n        /* \"contracts/uniswap/libraries/NFTDescriptor.sol\":1525:1535  params.fee */\n      0x0180\n      add\n      mload\n        /* \"contracts/uniswap/libraries/NFTDescriptor.sol\":1506:1524  feeToPercentString */\n      tag_12\n        /* \"contracts/uniswap/libraries/NFTDescriptor.sol\":1506:1536  feeToPercentString(params.fee) */\n      jump\t// in\n    tag_11:\n        /* \"contracts/uniswap/libraries/NFTDescriptor.sol\":1485:1497  generateName */\n      tag_13\n        /* \"contracts/uniswap/libraries/NFTDescriptor.sol\":1485:1537  generateName(params, feeToPercentString(params.fee)) */\n      jump\t// in\n    tag_10:\n        /* \"contracts/uniswap/libraries/NFTDescriptor.sol\":1464:1537  string memory name = generateName(params, feeToPercentString(params.fee)) */\n      swap1\n      pop\n        /* \"contracts/uniswap/libraries/NFTDescriptor.sol\":1547:1579  string memory descriptionPartOne */\n      0x00\n        /* \"contracts/uniswap/libraries/NFTDescriptor.sol\":1594:1796  generateDescriptionPartOne(... */\n      tag_14\n        /* \"contracts/uniswap/libraries/NFTDescriptor.sol\":1638:1675  escapeQuotes(params.quoteTokenSymbol) */\n      tag_15\n        /* \"contracts/uniswap/libraries/NFTDescriptor.sol\":1651:1657  params */\n      dup6\n        /* \"contracts/uniswap/libraries/NFTDescriptor.sol\":1651:1674  params.quoteTokenSymbol */\n      0x60\n      add\n      mload\n        /* \"contracts/uniswap/libraries/NFTDescriptor.sol\":1638:1650  escapeQuotes */\n      tag_16\n        /* \"contracts/uniswap/libraries/NFTDescriptor.sol\":1638:1675  escapeQuotes(params.quoteTokenSymbol) */\n      jump\t// in\n    tag_15:\n        /* \"contracts/uniswap/libraries/NFTDescriptor.sol\":1693:1729  escapeQuotes(params.baseTokenSymbol) */\n      tag_17\n        /* \"contracts/uniswap/libraries/NFTDescriptor.sol\":1706:1712  params */\n      dup7\n        /* \"contracts/uniswap/libraries/NFTDescriptor.sol\":1706:1728  params.baseTokenSymbol */\n      0x80\n      add\n      mload\n        /* \"contracts/uniswap/libraries/NFTDescriptor.sol\":1693:1705  escapeQuotes */\n      tag_16\n        /* \"contracts/uniswap/libraries/NFTDescriptor.sol\":1693:1729  escapeQuotes(params.baseTokenSymbol) */\n      jump\t// in\n    tag_17:\n        /* \"contracts/uniswap/libraries/NFTDescriptor.sol\":1747:1782  addressToString(params.poolAddress) */\n      tag_18\n        /* \"contracts/uniswap/libraries/NFTDescriptor.sol\":1763:1769  params */\n      dup8\n        /* \"contracts/uniswap/libraries/NFTDescriptor.sol\":1763:1781  params.poolAddress */\n      0x01a0\n      add\n      mload\n        /* \"contracts/uniswap/libraries/NFTDescriptor.sol\":1747:1762  addressToString */\n      tag_19\n        /* \"contracts/uniswap/libraries/NFTDescriptor.sol\":1747:1782  addressToString(params.poolAddress) */\n      jump\t// in\n    tag_18:\n        /* \"contracts/uniswap/libraries/NFTDescriptor.sol\":1594:1620  generateDescriptionPartOne */\n      tag_20\n        /* \"contracts/uniswap/libraries/NFTDescriptor.sol\":1594:1796  generateDescriptionPartOne(... */\n      jump\t// in\n    tag_14:\n        /* \"contracts/uniswap/libraries/NFTDescriptor.sol\":1547:1796  string memory descriptionPartOne =... */\n      swap1\n      pop\n        /* \"contracts/uniswap/libraries/NFTDescriptor.sol\":1806:1838  string memory descriptionPartTwo */\n      0x00\n        /* \"contracts/uniswap/libraries/NFTDescriptor.sol\":1853:2155  generateDescriptionPartTwo(... */\n      tag_21\n        /* \"contracts/uniswap/libraries/NFTDescriptor.sol\":1897:1922  params.tokenId.toString() */\n      tag_22\n        /* \"contracts/uniswap/libraries/NFTDescriptor.sol\":1897:1903  params */\n      dup7\n        /* \"contracts/uniswap/libraries/NFTDescriptor.sol\":1897:1911  params.tokenId */\n      0x00\n      add\n      mload\n        /* \"contracts/uniswap/libraries/NFTDescriptor.sol\":1897:1920  params.tokenId.toString */\n      tag_23\n        /* \"contracts/uniswap/libraries/NFTDescriptor.sol\":1897:1922  params.tokenId.toString() */\n      jump\t// in\n    tag_22:\n        /* \"contracts/uniswap/libraries/NFTDescriptor.sol\":1940:1976  escapeQuotes(params.baseTokenSymbol) */\n      tag_24\n        /* \"contracts/uniswap/libraries/NFTDescriptor.sol\":1953:1959  params */\n      dup8\n        /* \"contracts/uniswap/libraries/NFTDescriptor.sol\":1953:1975  params.baseTokenSymbol */\n      0x80\n      add\n      mload\n        /* \"contracts/uniswap/libraries/NFTDescriptor.sol\":1940:1952  escapeQuotes */\n      tag_16\n        /* \"contracts/uniswap/libraries/NFTDescriptor.sol\":1940:1976  escapeQuotes(params.baseTokenSymbol) */\n      jump\t// in\n    tag_24:\n        /* \"contracts/uniswap/libraries/NFTDescriptor.sol\":1994:2035  addressToString(params.quoteTokenAddress) */\n      tag_25\n        /* \"contracts/uniswap/libraries/NFTDescriptor.sol\":2010:2016  params */\n      dup9\n        /* \"contracts/uniswap/libraries/NFTDescriptor.sol\":2010:2034  params.quoteTokenAddress */\n      0x20\n      add\n      mload\n        /* \"contracts/uniswap/libraries/NFTDescriptor.sol\":1994:2009  addressToString */\n      tag_19\n        /* \"contracts/uniswap/libraries/NFTDescriptor.sol\":1994:2035  addressToString(params.quoteTokenAddress) */\n      jump\t// in\n    tag_25:\n        /* \"contracts/uniswap/libraries/NFTDescriptor.sol\":2053:2093  addressToString(params.baseTokenAddress) */\n      tag_26\n        /* \"contracts/uniswap/libraries/NFTDescriptor.sol\":2069:2075  params */\n      dup10\n        /* \"contracts/uniswap/libraries/NFTDescriptor.sol\":2069:2092  params.baseTokenAddress */\n      0x40\n      add\n      mload\n        /* \"contracts/uniswap/libraries/NFTDescriptor.sol\":2053:2068  addressToString */\n      tag_19\n        /* \"contracts/uniswap/libraries/NFTDescriptor.sol\":2053:2093  addressToString(params.baseTokenAddress) */\n      jump\t// in\n    tag_26:\n        /* \"contracts/uniswap/libraries/NFTDescriptor.sol\":2111:2141  feeToPercentString(params.fee) */\n      tag_27\n        /* \"contracts/uniswap/libraries/NFTDescriptor.sol\":2130:2136  params */\n      dup11\n        /* \"contracts/uniswap/libraries/NFTDescriptor.sol\":2130:2140  params.fee */\n      0x0180\n      add\n      mload\n        /* \"contracts/uniswap/libraries/NFTDescriptor.sol\":2111:2129  feeToPercentString */\n      tag_12\n        /* \"contracts/uniswap/libraries/NFTDescriptor.sol\":2111:2141  feeToPercentString(params.fee) */\n      jump\t// in\n    tag_27:\n        /* \"contracts/uniswap/libraries/NFTDescriptor.sol\":1853:1879  generateDescriptionPartTwo */\n      tag_28\n        /* \"contracts/uniswap/libraries/NFTDescriptor.sol\":1853:2155  generateDescriptionPartTwo(... */\n      jump\t// in\n    tag_21:\n        /* \"contracts/uniswap/libraries/NFTDescriptor.sol\":1806:2155  string memory descriptionPartTwo =... */\n      swap1\n      pop\n        /* \"contracts/uniswap/libraries/NFTDescriptor.sol\":2165:2184  string memory image */\n      0x00\n        /* \"contracts/uniswap/libraries/NFTDescriptor.sol\":2187:2233  Base64.encode(bytes(generateSVGImage(params))) */\n      tag_29\n        /* \"contracts/uniswap/libraries/NFTDescriptor.sol\":2207:2231  generateSVGImage(params) */\n      tag_30\n        /* \"contracts/uniswap/libraries/NFTDescriptor.sol\":2224:2230  params */\n      dup8\n        /* \"contracts/uniswap/libraries/NFTDescriptor.sol\":2207:2223  generateSVGImage */\n      tag_31\n        /* \"contracts/uniswap/libraries/NFTDescriptor.sol\":2207:2231  generateSVGImage(params) */\n      jump\t// in\n    tag_30:\n        /* \"contracts/uniswap/libraries/NFTDescriptor.sol\":2187:2200  Base64.encode */\n      tag_32\n        /* \"contracts/uniswap/libraries/NFTDescriptor.sol\":2187:2233  Base64.encode(bytes(generateSVGImage(params))) */\n      jump\t// in\n    tag_29:\n        /* \"contracts/uniswap/libraries/NFTDescriptor.sol\":2165:2233  string memory image = Base64.encode(bytes(generateSVGImage(params))) */\n      swap1\n      pop\n        /* \"contracts/uniswap/libraries/NFTDescriptor.sol\":2378:2975  Base64.encode(... */\n      tag_33\n        /* \"contracts/uniswap/libraries/NFTDescriptor.sol\":2547:2551  name */\n      dup5\n        /* \"contracts/uniswap/libraries/NFTDescriptor.sol\":2639:2657  descriptionPartOne */\n      dup5\n        /* \"contracts/uniswap/libraries/NFTDescriptor.sol\":2691:2709  descriptionPartTwo */\n      dup5\n        /* \"contracts/uniswap/libraries/NFTDescriptor.sol\":2854:2859  image */\n      dup5\n        /* \"contracts/uniswap/libraries/NFTDescriptor.sol\":2452:2927  abi.encodePacked(... */\n      add(0x20, mload(0x40))\n      tag_34\n      swap5\n      swap4\n      swap3\n      swap2\n      swap1\n      tag_35\n      jump\t// in\n    tag_34:\n      mload(0x40)\n      0x20\n      dup2\n      dup4\n      sub\n      sub\n      dup2\n      mstore\n      swap1\n      0x40\n      mstore\n        /* \"contracts/uniswap/libraries/NFTDescriptor.sol\":2378:2391  Base64.encode */\n      tag_32\n        /* \"contracts/uniswap/libraries/NFTDescriptor.sol\":2378:2975  Base64.encode(... */\n      jump\t// in\n    tag_33:\n        /* \"contracts/uniswap/libraries/NFTDescriptor.sol\":2287:2993  abi.encodePacked(... */\n      add(0x20, mload(0x40))\n      tag_36\n      swap2\n      swap1\n      tag_37\n      jump\t// in\n    tag_36:\n      mload(0x40)\n      0x20\n      dup2\n      dup4\n      sub\n      sub\n      dup2\n      mstore\n      swap1\n      0x40\n      mstore\n        /* \"contracts/uniswap/libraries/NFTDescriptor.sol\":2244:3007  return... */\n      swap5\n      pop\n      pop\n      pop\n      pop\n      pop\n        /* \"contracts/uniswap/libraries/NFTDescriptor.sol\":1352:3014  function constructTokenURI(ConstructTokenURIParams memory params) public pure returns (string memory) {... */\n    tag_9:\n      swap2\n      swap1\n      pop\n      jump\t// out\n        /* \"contracts/uniswap/libraries/NFTDescriptor.sol\":13341:15144  function feeToPercentString(uint24 fee) internal pure returns (string memory) {... */\n    tag_12:\n        /* \"contracts/uniswap/libraries/NFTDescriptor.sol\":13404:13417  string memory */\n      0x60\n        /* \"contracts/uniswap/libraries/NFTDescriptor.sol\":13433:13441  fee == 0 */\n      0xffffff\n      dup3\n      and\n        /* \"contracts/uniswap/libraries/NFTDescriptor.sol\":13429:13479  if (fee == 0) {... */\n      tag_39\n      jumpi\n      pop\n        /* \"contracts/uniswap/libraries/NFTDescriptor.sol\":13457:13468  return '0%' */\n      0x40\n      dup1\n      mload\n      dup1\n      dup3\n      add\n      swap1\n      swap2\n      mstore\n      0x02\n      dup2\n      mstore\n      0x3025000000000000000000000000000000000000000000000000000000000000\n      0x20\n      dup3\n      add\n      mstore\n      jump(tag_9)\n        /* \"contracts/uniswap/libraries/NFTDescriptor.sol\":13429:13479  if (fee == 0) {... */\n    tag_39:\n        /* \"contracts/uniswap/libraries/NFTDescriptor.sol\":13502:13505  fee */\n      dup2\n        /* \"contracts/uniswap/libraries/NFTDescriptor.sol\":13488:13499  uint24 temp */\n      0x00\n      dup1\n        /* \"contracts/uniswap/libraries/NFTDescriptor.sol\":13565:13860  while (temp != 0) {... */\n    tag_40:\n        /* \"contracts/uniswap/libraries/NFTDescriptor.sol\":13572:13581  temp != 0 */\n      0xffffff\n      dup4\n      and\n      iszero\n        /* \"contracts/uniswap/libraries/NFTDescriptor.sol\":13565:13860  while (temp != 0) {... */\n      tag_41\n      jumpi\n        /* \"contracts/uniswap/libraries/NFTDescriptor.sol\":13601:13615  numSigfigs > 0 */\n      0xff\n      dup2\n      and\n      iszero\n        /* \"contracts/uniswap/libraries/NFTDescriptor.sol\":13597:13804  if (numSigfigs > 0) {... */\n      tag_42\n      jumpi\n        /* \"contracts/uniswap/libraries/NFTDescriptor.sol\":13706:13718  numSigfigs++ */\n      0x01\n      add\n        /* \"contracts/uniswap/libraries/NFTDescriptor.sol\":13597:13804  if (numSigfigs > 0) {... */\n      jump(tag_45)\n    tag_42:\n        /* \"contracts/uniswap/libraries/NFTDescriptor.sol\":13750:13752  10 */\n      0x0a\n        /* \"contracts/uniswap/libraries/NFTDescriptor.sol\":13743:13752  temp % 10 */\n      0xffffff\n      dup5\n      and\n      mod\n        /* \"contracts/uniswap/libraries/NFTDescriptor.sol\":13743:13757  temp % 10 != 0 */\n      0xffffff\n      and\n        /* \"contracts/uniswap/libraries/NFTDescriptor.sol\":13756:13757  0 */\n      0x00\n        /* \"contracts/uniswap/libraries/NFTDescriptor.sol\":13743:13757  temp % 10 != 0 */\n      eq\n        /* \"contracts/uniswap/libraries/NFTDescriptor.sol\":13739:13804  if (temp % 10 != 0) {... */\n      tag_45\n      jumpi\n        /* \"contracts/uniswap/libraries/NFTDescriptor.sol\":13777:13789  numSigfigs++ */\n      0x01\n      add\n        /* \"contracts/uniswap/libraries/NFTDescriptor.sol\":13739:13804  if (temp % 10 != 0) {... */\n    tag_45:\n        /* \"contracts/uniswap/libraries/NFTDescriptor.sol\":13817:13825  digits++ */\n      0x01\n      swap1\n      swap2\n      add\n      swap1\n        /* \"contracts/uniswap/libraries/NFTDescriptor.sol\":13847:13849  10 */\n      0x0a\n        /* \"contracts/uniswap/libraries/NFTDescriptor.sol\":13839:13849  temp /= 10 */\n      0xffffff\n      dup5\n      and\n      div\n      swap3\n      pop\n        /* \"contracts/uniswap/libraries/NFTDescriptor.sol\":13565:13860  while (temp != 0) {... */\n      jump(tag_40)\n    tag_41:\n        /* \"contracts/uniswap/libraries/NFTDescriptor.sol\":13870:13903  DecimalStringParams memory params */\n      tag_47\n      tag_48\n      jump\t// in\n    tag_47:\n        /* \"contracts/uniswap/libraries/NFTDescriptor.sol\":13913:13927  uint256 nZeros */\n      0x00\n        /* \"contracts/uniswap/libraries/NFTDescriptor.sol\":13951:13952  5 */\n      0x05\n        /* \"contracts/uniswap/libraries/NFTDescriptor.sol\":13941:13947  digits */\n      dup5\n        /* \"contracts/uniswap/libraries/NFTDescriptor.sol\":13941:13952  digits >= 5 */\n      lt\n        /* \"contracts/uniswap/libraries/NFTDescriptor.sol\":13937:14916  if (digits >= 5) {... */\n      tag_49\n      jumpi\n        /* \"contracts/uniswap/libraries/NFTDescriptor.sol\":14028:14048  uint256 decimalPlace */\n      0x00\n        /* \"contracts/uniswap/libraries/NFTDescriptor.sol\":14077:14078  4 */\n      0x04\n        /* \"contracts/uniswap/libraries/NFTDescriptor.sol\":14051:14073  digits.sub(numSigfigs) */\n      tag_50\n        /* \"contracts/uniswap/libraries/NFTDescriptor.sol\":14051:14057  digits */\n      dup7\n        /* \"contracts/uniswap/libraries/NFTDescriptor.sol\":14051:14073  digits.sub(numSigfigs) */\n      0xff\n      dup8\n      and\n        /* \"contracts/uniswap/libraries/NFTDescriptor.sol\":14051:14061  digits.sub */\n      tag_51\n        /* \"contracts/uniswap/libraries/NFTDescriptor.sol\":14051:14073  digits.sub(numSigfigs) */\n      jump\t// in\n    tag_50:\n        /* \"contracts/uniswap/libraries/NFTDescriptor.sol\":14051:14078  digits.sub(numSigfigs) >= 4 */\n      lt\n      iszero\n        /* \"contracts/uniswap/libraries/NFTDescriptor.sol\":14051:14086  digits.sub(numSigfigs) >= 4 ? 0 : 1 */\n      tag_52\n      jumpi\n        /* \"contracts/uniswap/libraries/NFTDescriptor.sol\":14085:14086  1 */\n      0x01\n        /* \"contracts/uniswap/libraries/NFTDescriptor.sol\":14051:14086  digits.sub(numSigfigs) >= 4 ? 0 : 1 */\n      jump(tag_53)\n    tag_52:\n        /* \"contracts/uniswap/libraries/NFTDescriptor.sol\":14081:14082  0 */\n      0x00\n        /* \"contracts/uniswap/libraries/NFTDescriptor.sol\":14051:14086  digits.sub(numSigfigs) >= 4 ? 0 : 1 */\n    tag_53:\n        /* \"contracts/uniswap/libraries/NFTDescriptor.sol\":14028:14086  uint256 decimalPlace = digits.sub(numSigfigs) >= 4 ? 0 : 1 */\n      0xff\n      swap1\n      dup2\n      and\n      swap2\n      pop\n        /* \"contracts/uniswap/libraries/NFTDescriptor.sol\":14126:14143  numSigfigs.sub(1) */\n      tag_54\n      swap1\n        /* \"contracts/uniswap/libraries/NFTDescriptor.sol\":14126:14140  numSigfigs.sub */\n      dup6\n      and\n        /* \"contracts/uniswap/libraries/NFTDescriptor.sol\":14141:14142  1 */\n      0x01\n        /* \"contracts/uniswap/libraries/NFTDescriptor.sol\":14126:14140  numSigfigs.sub */\n      tag_51\n        /* \"contracts/uniswap/libraries/NFTDescriptor.sol\":14126:14143  numSigfigs.sub(1) */\n      jump\t// in\n    tag_54:\n        /* \"contracts/uniswap/libraries/NFTDescriptor.sol\":14109:14122  digits.sub(5) */\n      tag_55\n        /* \"contracts/uniswap/libraries/NFTDescriptor.sol\":14109:14115  digits */\n      dup7\n        /* \"contracts/uniswap/libraries/NFTDescriptor.sol\":14120:14121  5 */\n      0x05\n        /* \"contracts/uniswap/libraries/NFTDescriptor.sol\":14109:14119  digits.sub */\n      tag_51\n        /* \"contracts/uniswap/libraries/NFTDescriptor.sol\":14109:14122  digits.sub(5) */\n      jump\t// in\n    tag_55:\n        /* \"contracts/uniswap/libraries/NFTDescriptor.sol\":14109:14144  digits.sub(5) < (numSigfigs.sub(1)) */\n      lt\n        /* \"contracts/uniswap/libraries/NFTDescriptor.sol\":14109:14187  digits.sub(5) < (numSigfigs.sub(1)) ? 0 : digits.sub(5).sub(numSigfigs.sub(1)) */\n      tag_56\n      jumpi\n        /* \"contracts/uniswap/libraries/NFTDescriptor.sol\":14151:14187  digits.sub(5).sub(numSigfigs.sub(1)) */\n      tag_57\n        /* \"contracts/uniswap/libraries/NFTDescriptor.sol\":14169:14186  numSigfigs.sub(1) */\n      tag_58\n        /* \"contracts/uniswap/libraries/NFTDescriptor.sol\":14169:14183  numSigfigs.sub */\n      0xff\n      dup7\n      and\n        /* \"contracts/uniswap/libraries/NFTDescriptor.sol\":14184:14185  1 */\n      0x01\n        /* \"contracts/uniswap/libraries/NFTDescriptor.sol\":14169:14183  numSigfigs.sub */\n      tag_51\n        /* \"contracts/uniswap/libraries/NFTDescriptor.sol\":14169:14186  numSigfigs.sub(1) */\n      jump\t// in\n    tag_58:\n        /* \"contracts/uniswap/libraries/NFTDescriptor.sol\":14151:14164  digits.sub(5) */\n      tag_59\n        /* \"contracts/uniswap/libraries/NFTDescriptor.sol\":14151:14157  digits */\n      dup8\n        /* \"contracts/uniswap/libraries/NFTDescriptor.sol\":14162:14163  5 */\n      0x05\n        /* \"contracts/uniswap/libraries/NFTDescriptor.sol\":14151:14161  digits.sub */\n      tag_51\n        /* \"contracts/uniswap/libraries/NFTDescriptor.sol\":14151:14164  digits.sub(5) */\n      jump\t// in\n    tag_59:\n        /* \"contracts/uniswap/libraries/NFTDescriptor.sol\":14151:14168  digits.sub(5).sub */\n      swap1\n      tag_51\n        /* \"contracts/uniswap/libraries/NFTDescriptor.sol\":14151:14187  digits.sub(5).sub(numSigfigs.sub(1)) */\n      jump\t// in\n    tag_57:\n        /* \"contracts/uniswap/libraries/NFTDescriptor.sol\":14109:14187  digits.sub(5) < (numSigfigs.sub(1)) ? 0 : digits.sub(5).sub(numSigfigs.sub(1)) */\n      jump(tag_60)\n    tag_56:\n        /* \"contracts/uniswap/libraries/NFTDescriptor.sol\":14147:14148  0 */\n      0x00\n        /* \"contracts/uniswap/libraries/NFTDescriptor.sol\":14109:14187  digits.sub(5) < (numSigfigs.sub(1)) ? 0 : digits.sub(5).sub(numSigfigs.sub(1)) */\n    tag_60:\n        /* \"contracts/uniswap/libraries/NFTDescriptor.sol\":14201:14236  params.zerosStartIndex = numSigfigs */\n      0xff\n      dup6\n      and\n        /* \"contracts/uniswap/libraries/NFTDescriptor.sol\":14201:14223  params.zerosStartIndex */\n      0x80\n      dup6\n      add\n        /* \"contracts/uniswap/libraries/NFTDescriptor.sol\":14201:14236  params.zerosStartIndex = numSigfigs */\n      dup2\n      swap1\n      mstore\n        /* \"contracts/uniswap/libraries/NFTDescriptor.sol\":14100:14187  nZeros = digits.sub(5) < (numSigfigs.sub(1)) ? 0 : digits.sub(5).sub(numSigfigs.sub(1)) */\n      swap1\n      swap3\n      pop\n        /* \"contracts/uniswap/libraries/NFTDescriptor.sol\":14279:14320  params.zerosStartIndex.add(nZeros).sub(1) */\n      tag_61\n      swap1\n        /* \"contracts/uniswap/libraries/NFTDescriptor.sol\":14318:14319  1 */\n      0x01\n      swap1\n        /* \"contracts/uniswap/libraries/NFTDescriptor.sol\":14279:14313  params.zerosStartIndex.add(nZeros) */\n      tag_59\n      swap1\n        /* \"contracts/uniswap/libraries/NFTDescriptor.sol\":14100:14187  nZeros = digits.sub(5) < (numSigfigs.sub(1)) ? 0 : digits.sub(5).sub(numSigfigs.sub(1)) */\n      dup6\n        /* \"contracts/uniswap/libraries/NFTDescriptor.sol\":14279:14305  params.zerosStartIndex.add */\n      tag_63\n        /* \"contracts/uniswap/libraries/NFTDescriptor.sol\":14279:14313  params.zerosStartIndex.add(nZeros) */\n      jump\t// in\n        /* \"contracts/uniswap/libraries/NFTDescriptor.sol\":14279:14320  params.zerosStartIndex.add(nZeros).sub(1) */\n    tag_61:\n        /* \"contracts/uniswap/libraries/NFTDescriptor.sol\":14250:14321  params.zerosEndIndex = uint8(params.zerosStartIndex.add(nZeros).sub(1)) */\n      0xff\n      swap1\n      dup2\n      and\n        /* \"contracts/uniswap/libraries/NFTDescriptor.sol\":14250:14270  params.zerosEndIndex */\n      0xa0\n      dup6\n      add\n        /* \"contracts/uniswap/libraries/NFTDescriptor.sol\":14250:14321  params.zerosEndIndex = uint8(params.zerosStartIndex.add(nZeros).sub(1)) */\n      mstore\n        /* \"contracts/uniswap/libraries/NFTDescriptor.sol\":14362:14384  params.zerosStartIndex */\n      0x80\n      dup5\n      add\n      mload\n        /* \"contracts/uniswap/libraries/NFTDescriptor.sol\":14362:14409  params.zerosStartIndex.sub(1).add(decimalPlace) */\n      tag_64\n      swap2\n        /* \"contracts/uniswap/libraries/NFTDescriptor.sol\":14396:14408  decimalPlace */\n      dup4\n      swap2\n        /* \"contracts/uniswap/libraries/NFTDescriptor.sol\":14362:14391  params.zerosStartIndex.sub(1) */\n      tag_65\n      swap2\n        /* \"contracts/uniswap/libraries/NFTDescriptor.sol\":14362:14388  params.zerosStartIndex.sub */\n      and\n        /* \"contracts/uniswap/libraries/NFTDescriptor.sol\":14389:14390  1 */\n      0x01\n        /* \"contracts/uniswap/libraries/NFTDescriptor.sol\":14362:14388  params.zerosStartIndex.sub */\n      tag_51\n        /* \"contracts/uniswap/libraries/NFTDescriptor.sol\":14362:14391  params.zerosStartIndex.sub(1) */\n      jump\t// in\n    tag_65:\n        /* \"contracts/uniswap/libraries/NFTDescriptor.sol\":14362:14395  params.zerosStartIndex.sub(1).add */\n      swap1\n      tag_63\n        /* \"contracts/uniswap/libraries/NFTDescriptor.sol\":14362:14409  params.zerosStartIndex.sub(1).add(decimalPlace) */\n      jump\t// in\n    tag_64:\n        /* \"contracts/uniswap/libraries/NFTDescriptor.sol\":14335:14410  params.sigfigIndex = uint8(params.zerosStartIndex.sub(1).add(decimalPlace)) */\n      0xff\n      swap1\n      dup2\n      and\n        /* \"contracts/uniswap/libraries/NFTDescriptor.sol\":14335:14353  params.sigfigIndex */\n      0x40\n      dup6\n      add\n        /* \"contracts/uniswap/libraries/NFTDescriptor.sol\":14335:14410  params.sigfigIndex = uint8(params.zerosStartIndex.sub(1).add(decimalPlace)) */\n      mstore\n        /* \"contracts/uniswap/libraries/NFTDescriptor.sol\":14452:14499  nZeros.add(numSigfigs.add(1)).add(decimalPlace) */\n      tag_66\n      swap1\n        /* \"contracts/uniswap/libraries/NFTDescriptor.sol\":14486:14498  decimalPlace */\n      dup3\n      swap1\n        /* \"contracts/uniswap/libraries/NFTDescriptor.sol\":14452:14481  nZeros.add(numSigfigs.add(1)) */\n      tag_65\n      swap1\n        /* \"contracts/uniswap/libraries/NFTDescriptor.sol\":14463:14480  numSigfigs.add(1) */\n      tag_68\n      swap1\n        /* \"contracts/uniswap/libraries/NFTDescriptor.sol\":14463:14477  numSigfigs.add */\n      dup9\n      and\n        /* \"contracts/uniswap/libraries/NFTDescriptor.sol\":14478:14479  1 */\n      0x01\n        /* \"contracts/uniswap/libraries/NFTDescriptor.sol\":14463:14477  numSigfigs.add */\n      tag_63\n        /* \"contracts/uniswap/libraries/NFTDescriptor.sol\":14463:14480  numSigfigs.add(1) */\n      jump\t// in\n    tag_68:\n        /* \"contracts/uniswap/libraries/NFTDescriptor.sol\":14452:14458  nZeros */\n      dup6\n      swap1\n        /* \"contracts/uniswap/libraries/NFTDescriptor.sol\":14452:14462  nZeros.add */\n      tag_63\n        /* \"contracts/uniswap/libraries/NFTDescriptor.sol\":14452:14481  nZeros.add(numSigfigs.add(1)) */\n      jump\t// in\n        /* \"contracts/uniswap/libraries/NFTDescriptor.sol\":14452:14499  nZeros.add(numSigfigs.add(1)).add(decimalPlace) */\n    tag_66:\n        /* \"contracts/uniswap/libraries/NFTDescriptor.sol\":14424:14500  params.bufferLength = uint8(nZeros.add(numSigfigs.add(1)).add(decimalPlace)) */\n      0xff\n      and\n        /* \"contracts/uniswap/libraries/NFTDescriptor.sol\":14424:14443  params.bufferLength */\n      0x20\n      dup5\n      add\n        /* \"contracts/uniswap/libraries/NFTDescriptor.sol\":14424:14500  params.bufferLength = uint8(nZeros.add(numSigfigs.add(1)).add(decimalPlace)) */\n      mstore\n      pop\n        /* \"contracts/uniswap/libraries/NFTDescriptor.sol\":13937:14916  if (digits >= 5) {... */\n      jump(tag_69)\n    tag_49:\n        /* \"contracts/uniswap/libraries/NFTDescriptor.sol\":14575:14597  uint256(5).sub(digits) */\n      tag_70\n        /* \"contracts/uniswap/libraries/NFTDescriptor.sol\":14583:14584  5 */\n      0x05\n        /* \"contracts/uniswap/libraries/NFTDescriptor.sol\":14590:14596  digits */\n      dup6\n        /* \"contracts/uniswap/libraries/NFTDescriptor.sol\":14575:14589  uint256(5).sub */\n      tag_51\n        /* \"contracts/uniswap/libraries/NFTDescriptor.sol\":14575:14597  uint256(5).sub(digits) */\n      jump\t// in\n    tag_70:\n        /* \"contracts/uniswap/libraries/NFTDescriptor.sol\":14636:14637  2 */\n      0x02\n        /* \"contracts/uniswap/libraries/NFTDescriptor.sol\":14611:14633  params.zerosStartIndex */\n      0x80\n      dup5\n      add\n        /* \"contracts/uniswap/libraries/NFTDescriptor.sol\":14611:14637  params.zerosStartIndex = 2 */\n      dup2\n      swap1\n      mstore\n        /* \"contracts/uniswap/libraries/NFTDescriptor.sol\":14566:14597  nZeros = uint256(5).sub(digits) */\n      swap1\n      swap2\n      pop\n        /* \"contracts/uniswap/libraries/NFTDescriptor.sol\":14680:14721  nZeros.add(params.zerosStartIndex).sub(1) */\n      tag_71\n      swap1\n        /* \"contracts/uniswap/libraries/NFTDescriptor.sol\":14719:14720  1 */\n      0x01\n      swap1\n        /* \"contracts/uniswap/libraries/NFTDescriptor.sol\":14680:14714  nZeros.add(params.zerosStartIndex) */\n      tag_59\n      swap1\n        /* \"contracts/uniswap/libraries/NFTDescriptor.sol\":14566:14597  nZeros = uint256(5).sub(digits) */\n      dup5\n      swap1\n        /* \"contracts/uniswap/libraries/NFTDescriptor.sol\":14680:14690  nZeros.add */\n      tag_63\n        /* \"contracts/uniswap/libraries/NFTDescriptor.sol\":14680:14714  nZeros.add(params.zerosStartIndex) */\n      jump\t// in\n        /* \"contracts/uniswap/libraries/NFTDescriptor.sol\":14680:14721  nZeros.add(params.zerosStartIndex).sub(1) */\n    tag_71:\n        /* \"contracts/uniswap/libraries/NFTDescriptor.sol\":14651:14722  params.zerosEndIndex = uint8(nZeros.add(params.zerosStartIndex).sub(1)) */\n      0xff\n      swap1\n      dup2\n      and\n        /* \"contracts/uniswap/libraries/NFTDescriptor.sol\":14651:14671  params.zerosEndIndex */\n      0xa0\n      dup5\n      add\n        /* \"contracts/uniswap/libraries/NFTDescriptor.sol\":14651:14722  params.zerosEndIndex = uint8(nZeros.add(params.zerosStartIndex).sub(1)) */\n      mstore\n        /* \"contracts/uniswap/libraries/NFTDescriptor.sol\":14764:14793  nZeros.add(numSigfigs.add(2)) */\n      tag_73\n      swap1\n        /* \"contracts/uniswap/libraries/NFTDescriptor.sol\":14775:14792  numSigfigs.add(2) */\n      tag_74\n      swap1\n        /* \"contracts/uniswap/libraries/NFTDescriptor.sol\":14775:14789  numSigfigs.add */\n      dup6\n      and\n        /* \"contracts/uniswap/libraries/NFTDescriptor.sol\":14790:14791  2 */\n      0x02\n        /* \"contracts/uniswap/libraries/NFTDescriptor.sol\":14775:14789  numSigfigs.add */\n      tag_63\n        /* \"contracts/uniswap/libraries/NFTDescriptor.sol\":14775:14792  numSigfigs.add(2) */\n      jump\t// in\n    tag_74:\n        /* \"contracts/uniswap/libraries/NFTDescriptor.sol\":14764:14770  nZeros */\n      dup3\n      swap1\n        /* \"contracts/uniswap/libraries/NFTDescriptor.sol\":14764:14774  nZeros.add */\n      tag_63\n        /* \"contracts/uniswap/libraries/NFTDescriptor.sol\":14764:14793  nZeros.add(numSigfigs.add(2)) */\n      jump\t// in\n    tag_73:\n        /* \"contracts/uniswap/libraries/NFTDescriptor.sol\":14736:14794  params.bufferLength = uint8(nZeros.add(numSigfigs.add(2))) */\n      0xff\n      and\n        /* \"contracts/uniswap/libraries/NFTDescriptor.sol\":14736:14755  params.bufferLength */\n      0x20\n      dup4\n      add\n        /* \"contracts/uniswap/libraries/NFTDescriptor.sol\":14736:14794  params.bufferLength = uint8(nZeros.add(numSigfigs.add(2))) */\n      dup2\n      swap1\n      mstore\n        /* \"contracts/uniswap/libraries/NFTDescriptor.sol\":14835:14863  (params.bufferLength).sub(2) */\n      tag_75\n      swap1\n        /* \"contracts/uniswap/libraries/NFTDescriptor.sol\":14861:14862  2 */\n      0x02\n        /* \"contracts/uniswap/libraries/NFTDescriptor.sol\":14835:14860  (params.bufferLength).sub */\n      tag_51\n        /* \"contracts/uniswap/libraries/NFTDescriptor.sol\":14835:14863  (params.bufferLength).sub(2) */\n      jump\t// in\n    tag_75:\n        /* \"contracts/uniswap/libraries/NFTDescriptor.sol\":14808:14864  params.sigfigIndex = uint8((params.bufferLength).sub(2)) */\n      0xff\n      and\n        /* \"contracts/uniswap/libraries/NFTDescriptor.sol\":14808:14826  params.sigfigIndex */\n      0x40\n      dup4\n      add\n        /* \"contracts/uniswap/libraries/NFTDescriptor.sol\":14808:14864  params.sigfigIndex = uint8((params.bufferLength).sub(2)) */\n      mstore\n        /* \"contracts/uniswap/libraries/NFTDescriptor.sol\":14901:14905  true */\n      0x01\n        /* \"contracts/uniswap/libraries/NFTDescriptor.sol\":14878:14898  params.isLessThanOne */\n      0xc0\n      dup4\n      add\n        /* \"contracts/uniswap/libraries/NFTDescriptor.sol\":14878:14905  params.isLessThanOne = true */\n      mstore\n        /* \"contracts/uniswap/libraries/NFTDescriptor.sol\":13937:14916  if (digits >= 5) {... */\n    tag_69:\n        /* \"contracts/uniswap/libraries/NFTDescriptor.sol\":14942:14988  uint256(fee).div(10**(digits.sub(numSigfigs))) */\n      tag_76\n        /* \"contracts/uniswap/libraries/NFTDescriptor.sol\":14964:14986  digits.sub(numSigfigs) */\n      tag_77\n        /* \"contracts/uniswap/libraries/NFTDescriptor.sol\":14964:14970  digits */\n      dup6\n        /* \"contracts/uniswap/libraries/NFTDescriptor.sol\":14964:14986  digits.sub(numSigfigs) */\n      0xff\n      dup7\n      and\n        /* \"contracts/uniswap/libraries/NFTDescriptor.sol\":14964:14974  digits.sub */\n      tag_51\n        /* \"contracts/uniswap/libraries/NFTDescriptor.sol\":14964:14986  digits.sub(numSigfigs) */\n      jump\t// in\n    tag_77:\n        /* \"contracts/uniswap/libraries/NFTDescriptor.sol\":14942:14954  uint256(fee) */\n      0xffffff\n      dup10\n      and\n      swap1\n        /* \"contracts/uniswap/libraries/NFTDescriptor.sol\":14959:14961  10 */\n      0x0a\n        /* \"contracts/uniswap/libraries/NFTDescriptor.sol\":14959:14987  10**(digits.sub(numSigfigs)) */\n      exp\n        /* \"contracts/uniswap/libraries/NFTDescriptor.sol\":14942:14958  uint256(fee).div */\n      tag_78\n        /* \"contracts/uniswap/libraries/NFTDescriptor.sol\":14942:14988  uint256(fee).div(10**(digits.sub(numSigfigs))) */\n      jump\t// in\n    tag_76:\n        /* \"contracts/uniswap/libraries/NFTDescriptor.sol\":14925:14988  params.sigfigs = uint256(fee).div(10**(digits.sub(numSigfigs))) */\n      dup3\n      mstore\n        /* \"contracts/uniswap/libraries/NFTDescriptor.sol\":15017:15021  true */\n      0x01\n        /* \"contracts/uniswap/libraries/NFTDescriptor.sol\":14998:15014  params.isPercent */\n      0xe0\n      dup4\n      add\n        /* \"contracts/uniswap/libraries/NFTDescriptor.sol\":14998:15021  params.isPercent = true */\n      mstore\n        /* \"contracts/uniswap/libraries/NFTDescriptor.sol\":15062:15063  4 */\n      0x04\n        /* \"contracts/uniswap/libraries/NFTDescriptor.sol\":15053:15063  digits > 4 */\n      dup5\n      gt\n        /* \"contracts/uniswap/libraries/NFTDescriptor.sol\":15053:15090  digits > 4 ? uint8(digits.sub(4)) : 0 */\n      tag_79\n      jumpi\n        /* \"contracts/uniswap/libraries/NFTDescriptor.sol\":15089:15090  0 */\n      0x00\n        /* \"contracts/uniswap/libraries/NFTDescriptor.sol\":15053:15090  digits > 4 ? uint8(digits.sub(4)) : 0 */\n      jump(tag_81)\n    tag_79:\n        /* \"contracts/uniswap/libraries/NFTDescriptor.sol\":15072:15085  digits.sub(4) */\n      tag_81\n        /* \"contracts/uniswap/libraries/NFTDescriptor.sol\":15072:15078  digits */\n      dup5\n        /* \"contracts/uniswap/libraries/NFTDescriptor.sol\":15083:15084  4 */\n      0x04\n        /* \"contracts/uniswap/libraries/NFTDescriptor.sol\":15072:15082  digits.sub */\n      tag_51\n        /* \"contracts/uniswap/libraries/NFTDescriptor.sol\":15072:15085  digits.sub(4) */\n      jump\t// in\n    tag_81:\n        /* \"contracts/uniswap/libraries/NFTDescriptor.sol\":15031:15090  params.decimalIndex = digits > 4 ? uint8(digits.sub(4)) : 0 */\n      0xff\n      and\n        /* \"contracts/uniswap/libraries/NFTDescriptor.sol\":15031:15050  params.decimalIndex */\n      0x60\n      dup4\n      add\n        /* \"contracts/uniswap/libraries/NFTDescriptor.sol\":15031:15090  params.decimalIndex = digits > 4 ? uint8(digits.sub(4)) : 0 */\n      mstore\n        /* \"contracts/uniswap/libraries/NFTDescriptor.sol\":15108:15137  generateDecimalString(params) */\n      tag_82\n        /* \"contracts/uniswap/libraries/NFTDescriptor.sol\":15031:15037  params */\n      dup3\n        /* \"contracts/uniswap/libraries/NFTDescriptor.sol\":15108:15129  generateDecimalString */\n      tag_83\n        /* \"contracts/uniswap/libraries/NFTDescriptor.sol\":15108:15137  generateDecimalString(params) */\n      jump\t// in\n    tag_82:\n        /* \"contracts/uniswap/libraries/NFTDescriptor.sol\":15101:15137  return generateDecimalString(params) */\n      swap8\n        /* \"contracts/uniswap/libraries/NFTDescriptor.sol\":13341:15144  function feeToPercentString(uint24 fee) internal pure returns (string memory) {... */\n      swap7\n      pop\n      pop\n      pop\n      pop\n      pop\n      pop\n      pop\n      jump\t// out\n        /* \"contracts/uniswap/libraries/NFTDescriptor.sol\":5488:6692  function generateName(ConstructTokenURIParams memory params, string memory feeTier)... */\n    tag_13:\n        /* \"contracts/uniswap/libraries/NFTDescriptor.sol\":5618:5631  string memory */\n      0x60\n        /* \"contracts/uniswap/libraries/NFTDescriptor.sol\":5762:5769  feeTier */\n      dup2\n        /* \"contracts/uniswap/libraries/NFTDescriptor.sol\":5818:5855  escapeQuotes(params.quoteTokenSymbol) */\n      tag_85\n        /* \"contracts/uniswap/libraries/NFTDescriptor.sol\":5831:5837  params */\n      dup5\n        /* \"contracts/uniswap/libraries/NFTDescriptor.sol\":5831:5854  params.quoteTokenSymbol */\n      0x60\n      add\n      mload\n        /* \"contracts/uniswap/libraries/NFTDescriptor.sol\":5818:5830  escapeQuotes */\n      tag_16\n        /* \"contracts/uniswap/libraries/NFTDescriptor.sol\":5818:5855  escapeQuotes(params.quoteTokenSymbol) */\n      jump\t// in\n    tag_85:\n        /* \"contracts/uniswap/libraries/NFTDescriptor.sol\":5902:5938  escapeQuotes(params.baseTokenSymbol) */\n      tag_86\n        /* \"contracts/uniswap/libraries/NFTDescriptor.sol\":5915:5921  params */\n      dup6\n        /* \"contracts/uniswap/libraries/NFTDescriptor.sol\":5915:5937  params.baseTokenSymbol */\n      0x80\n      add\n      mload\n        /* \"contracts/uniswap/libraries/NFTDescriptor.sol\":5902:5914  escapeQuotes */\n      tag_16\n        /* \"contracts/uniswap/libraries/NFTDescriptor.sol\":5902:5938  escapeQuotes(params.baseTokenSymbol) */\n      jump\t// in\n    tag_86:\n        /* \"contracts/uniswap/libraries/NFTDescriptor.sol\":5987:6296  tickToDecimalString(... */\n      tag_87\n        /* \"contracts/uniswap/libraries/NFTDescriptor.sol\":6033:6039  params */\n      dup7\n        /* \"contracts/uniswap/libraries/NFTDescriptor.sol\":6033:6049  params.flipRatio */\n      0xe0\n      add\n      mload\n        /* \"contracts/uniswap/libraries/NFTDescriptor.sol\":6032:6049  !params.flipRatio */\n      iszero\n        /* \"contracts/uniswap/libraries/NFTDescriptor.sol\":6032:6087  !params.flipRatio ? params.tickLower : params.tickUpper */\n      tag_88\n      jumpi\n        /* \"contracts/uniswap/libraries/NFTDescriptor.sol\":6071:6077  params */\n      dup7\n        /* \"contracts/uniswap/libraries/NFTDescriptor.sol\":6071:6087  params.tickUpper */\n      0x0120\n      add\n      mload\n        /* \"contracts/uniswap/libraries/NFTDescriptor.sol\":6032:6087  !params.flipRatio ? params.tickLower : params.tickUpper */\n      jump(tag_89)\n    tag_88:\n        /* \"contracts/uniswap/libraries/NFTDescriptor.sol\":6052:6058  params */\n      dup7\n        /* \"contracts/uniswap/libraries/NFTDescriptor.sol\":6052:6068  params.tickLower */\n      0x0100\n      add\n      mload\n        /* \"contracts/uniswap/libraries/NFTDescriptor.sol\":6032:6087  !params.flipRatio ? params.tickLower : params.tickUpper */\n    tag_89:\n        /* \"contracts/uniswap/libraries/NFTDescriptor.sol\":6113:6119  params */\n      dup8\n        /* \"contracts/uniswap/libraries/NFTDescriptor.sol\":6113:6131  params.tickSpacing */\n      0x0160\n      add\n      mload\n        /* \"contracts/uniswap/libraries/NFTDescriptor.sol\":6157:6163  params */\n      dup9\n        /* \"contracts/uniswap/libraries/NFTDescriptor.sol\":6157:6181  params.baseTokenDecimals */\n      0xc0\n      add\n      mload\n        /* \"contracts/uniswap/libraries/NFTDescriptor.sol\":6207:6213  params */\n      dup10\n        /* \"contracts/uniswap/libraries/NFTDescriptor.sol\":6207:6232  params.quoteTokenDecimals */\n      0xa0\n      add\n      mload\n        /* \"contracts/uniswap/libraries/NFTDescriptor.sol\":6258:6264  params */\n      dup11\n        /* \"contracts/uniswap/libraries/NFTDescriptor.sol\":6258:6274  params.flipRatio */\n      0xe0\n      add\n      mload\n        /* \"contracts/uniswap/libraries/NFTDescriptor.sol\":5987:6006  tickToDecimalString */\n      tag_90\n        /* \"contracts/uniswap/libraries/NFTDescriptor.sol\":5987:6296  tickToDecimalString(... */\n      jump\t// in\n    tag_87:\n        /* \"contracts/uniswap/libraries/NFTDescriptor.sol\":6344:6653  tickToDecimalString(... */\n      tag_91\n        /* \"contracts/uniswap/libraries/NFTDescriptor.sol\":6390:6396  params */\n      dup8\n        /* \"contracts/uniswap/libraries/NFTDescriptor.sol\":6390:6406  params.flipRatio */\n      0xe0\n      add\n      mload\n        /* \"contracts/uniswap/libraries/NFTDescriptor.sol\":6389:6406  !params.flipRatio */\n      iszero\n        /* \"contracts/uniswap/libraries/NFTDescriptor.sol\":6389:6444  !params.flipRatio ? params.tickUpper : params.tickLower */\n      tag_92\n      jumpi\n        /* \"contracts/uniswap/libraries/NFTDescriptor.sol\":6428:6434  params */\n      dup8\n        /* \"contracts/uniswap/libraries/NFTDescriptor.sol\":6428:6444  params.tickLower */\n      0x0100\n      add\n      mload\n        /* \"contracts/uniswap/libraries/NFTDescriptor.sol\":6389:6444  !params.flipRatio ? params.tickUpper : params.tickLower */\n      jump(tag_93)\n    tag_92:\n        /* \"contracts/uniswap/libraries/NFTDescriptor.sol\":6409:6415  params */\n      dup8\n        /* \"contracts/uniswap/libraries/NFTDescriptor.sol\":6409:6425  params.tickUpper */\n      0x0120\n      add\n      mload\n        /* \"contracts/uniswap/libraries/NFTDescriptor.sol\":6389:6444  !params.flipRatio ? params.tickUpper : params.tickLower */\n    tag_93:\n        /* \"contracts/uniswap/libraries/NFTDescriptor.sol\":6470:6476  params */\n      dup9\n        /* \"contracts/uniswap/libraries/NFTDescriptor.sol\":6470:6488  params.tickSpacing */\n      0x0160\n      add\n      mload\n        /* \"contracts/uniswap/libraries/NFTDescriptor.sol\":6514:6520  params */\n      dup10\n        /* \"contracts/uniswap/libraries/NFTDescriptor.sol\":6514:6538  params.baseTokenDecimals */\n      0xc0\n      add\n      mload\n        /* \"contracts/uniswap/libraries/NFTDescriptor.sol\":6564:6570  params */\n      dup11\n        /* \"contracts/uniswap/libraries/NFTDescriptor.sol\":6564:6589  params.quoteTokenDecimals */\n      0xa0\n      add\n      mload\n        /* \"contracts/uniswap/libraries/NFTDescriptor.sol\":6615:6621  params */\n      dup12\n        /* \"contracts/uniswap/libraries/NFTDescriptor.sol\":6615:6631  params.flipRatio */\n      0xe0\n      add\n      mload\n        /* \"contracts/uniswap/libraries/NFTDescriptor.sol\":6344:6363  tickToDecimalString */\n      tag_90\n        /* \"contracts/uniswap/libraries/NFTDescriptor.sol\":6344:6653  tickToDecimalString(... */\n      jump\t// in\n    tag_91:\n        /* \"contracts/uniswap/libraries/NFTDescriptor.sol\":5690:6671  abi.encodePacked(... */\n      add(0x20, mload(0x40))\n      tag_94\n      swap6\n      swap5\n      swap4\n      swap3\n      swap2\n      swap1\n      tag_95\n      jump\t// in\n    tag_94:\n      mload(0x40)\n      0x20\n      dup2\n      dup4\n      sub\n      sub\n      dup2\n      mstore\n      swap1\n      0x40\n      mstore\n        /* \"contracts/uniswap/libraries/NFTDescriptor.sol\":5647:6685  return... */\n      swap1\n      pop\n        /* \"contracts/uniswap/libraries/NFTDescriptor.sol\":5488:6692  function generateName(ConstructTokenURIParams memory params, string memory feeTier)... */\n    tag_84:\n      swap3\n      swap2\n      pop\n      pop\n      jump\t// out\n        /* \"contracts/uniswap/libraries/NFTDescriptor.sol\":3020:3806  function escapeQuotes(string memory symbol) internal pure returns (string memory) {... */\n    tag_16:\n        /* \"contracts/uniswap/libraries/NFTDescriptor.sol\":3087:3100  string memory */\n      0x60\n        /* \"contracts/uniswap/libraries/NFTDescriptor.sol\":3145:3151  symbol */\n      dup2\n        /* \"contracts/uniswap/libraries/NFTDescriptor.sol\":3112:3136  bytes memory symbolBytes */\n      0x00\n      dup1\n        /* \"contracts/uniswap/libraries/NFTDescriptor.sol\":3193:3337  for (uint8 i = 0; i < symbolBytes.length; i++) {... */\n    tag_97:\n        /* \"contracts/uniswap/libraries/NFTDescriptor.sol\":3215:3226  symbolBytes */\n      dup3\n        /* \"contracts/uniswap/libraries/NFTDescriptor.sol\":3215:3233  symbolBytes.length */\n      mload\n        /* \"contracts/uniswap/libraries/NFTDescriptor.sol\":3211:3212  i */\n      dup2\n        /* \"contracts/uniswap/libraries/NFTDescriptor.sol\":3211:3233  i < symbolBytes.length */\n      0xff\n      and\n      lt\n        /* \"contracts/uniswap/libraries/NFTDescriptor.sol\":3193:3337  for (uint8 i = 0; i < symbolBytes.length; i++) {... */\n      iszero\n      tag_98\n      jumpi\n        /* \"contracts/uniswap/libraries/NFTDescriptor.sol\":3258:3269  symbolBytes */\n      dup3\n        /* \"contracts/uniswap/libraries/NFTDescriptor.sol\":3270:3271  i */\n      dup2\n        /* \"contracts/uniswap/libraries/NFTDescriptor.sol\":3258:3272  symbolBytes[i] */\n      0xff\n      and\n      dup2\n      mload\n      dup2\n      lt\n      tag_100\n      jumpi\n      invalid\n    tag_100:\n      0x20\n      swap2\n      add\n      add\n      mload\n      0xff00000000000000000000000000000000000000000000000000000000000000\n      and\n        /* \"contracts/uniswap/libraries/NFTDescriptor.sol\":3258:3279  symbolBytes[i] == '\"' */\n      0x2200000000000000000000000000000000000000000000000000000000000000\n      eq\n        /* \"contracts/uniswap/libraries/NFTDescriptor.sol\":3254:3327  if (symbolBytes[i] == '\"') {... */\n      iszero\n      tag_101\n      jumpi\n        /* \"contracts/uniswap/libraries/NFTDescriptor.sol\":3299:3312  quotesCount++ */\n      0x01\n      swap1\n      swap2\n      add\n      swap1\n        /* \"contracts/uniswap/libraries/NFTDescriptor.sol\":3254:3327  if (symbolBytes[i] == '\"') {... */\n    tag_101:\n        /* \"contracts/uniswap/libraries/NFTDescriptor.sol\":3235:3238  i++ */\n      0x01\n      add\n        /* \"contracts/uniswap/libraries/NFTDescriptor.sol\":3193:3337  for (uint8 i = 0; i < symbolBytes.length; i++) {... */\n      jump(tag_97)\n    tag_98:\n      pop\n        /* \"contracts/uniswap/libraries/NFTDescriptor.sol\":3350:3365  quotesCount > 0 */\n      0xff\n      dup2\n      and\n      iszero\n        /* \"contracts/uniswap/libraries/NFTDescriptor.sol\":3346:3777  if (quotesCount > 0) {... */\n      tag_102\n      jumpi\n        /* \"contracts/uniswap/libraries/NFTDescriptor.sol\":3381:3406  bytes memory escapedBytes */\n      0x00\n        /* \"contracts/uniswap/libraries/NFTDescriptor.sol\":3441:3452  quotesCount */\n      dup2\n        /* \"contracts/uniswap/libraries/NFTDescriptor.sol\":3419:3453  symbolBytes.length + (quotesCount) */\n      0xff\n      and\n        /* \"contracts/uniswap/libraries/NFTDescriptor.sol\":3419:3430  symbolBytes */\n      dup4\n        /* \"contracts/uniswap/libraries/NFTDescriptor.sol\":3419:3437  symbolBytes.length */\n      mload\n        /* \"contracts/uniswap/libraries/NFTDescriptor.sol\":3419:3453  symbolBytes.length + (quotesCount) */\n      add\n        /* \"contracts/uniswap/libraries/NFTDescriptor.sol\":3409:3454  new bytes(symbolBytes.length + (quotesCount)) */\n      0xffffffffffffffff\n      dup2\n      gt\n      dup1\n      iszero\n      tag_103\n      jumpi\n      0x00\n      dup1\n      revert\n    tag_103:\n      pop\n      mload(0x40)\n      swap1\n      dup1\n      dup3\n      mstore\n      dup1\n      0x1f\n      add\n      not(0x1f)\n      and\n      0x20\n      add\n      dup3\n      add\n      0x40\n      mstore\n      dup1\n      iszero\n      tag_104\n      jumpi\n      0x20\n      dup3\n      add\n      dup2\n      dup1\n      calldatasize\n      dup4\n      calldatacopy\n      add\n      swap1\n      pop\n    tag_104:\n      pop\n        /* \"contracts/uniswap/libraries/NFTDescriptor.sol\":3381:3454  bytes memory escapedBytes = new bytes(symbolBytes.length + (quotesCount)) */\n      swap1\n      pop\n        /* \"contracts/uniswap/libraries/NFTDescriptor.sol\":3468:3481  uint256 index */\n      0x00\n      dup1\n        /* \"contracts/uniswap/libraries/NFTDescriptor.sol\":3495:3726  for (uint8 i = 0; i < symbolBytes.length; i++) {... */\n    tag_105:\n        /* \"contracts/uniswap/libraries/NFTDescriptor.sol\":3517:3528  symbolBytes */\n      dup5\n        /* \"contracts/uniswap/libraries/NFTDescriptor.sol\":3517:3535  symbolBytes.length */\n      mload\n        /* \"contracts/uniswap/libraries/NFTDescriptor.sol\":3513:3514  i */\n      dup2\n        /* \"contracts/uniswap/libraries/NFTDescriptor.sol\":3513:3535  i < symbolBytes.length */\n      0xff\n      and\n      lt\n        /* \"contracts/uniswap/libraries/NFTDescriptor.sol\":3495:3726  for (uint8 i = 0; i < symbolBytes.length; i++) {... */\n      iszero\n      tag_106\n      jumpi\n        /* \"contracts/uniswap/libraries/NFTDescriptor.sol\":3564:3575  symbolBytes */\n      dup5\n        /* \"contracts/uniswap/libraries/NFTDescriptor.sol\":3576:3577  i */\n      dup2\n        /* \"contracts/uniswap/libraries/NFTDescriptor.sol\":3564:3578  symbolBytes[i] */\n      0xff\n      and\n      dup2\n      mload\n      dup2\n      lt\n      tag_108\n      jumpi\n      invalid\n    tag_108:\n      0x20\n      swap2\n      add\n      add\n      mload\n      0xff00000000000000000000000000000000000000000000000000000000000000\n      and\n        /* \"contracts/uniswap/libraries/NFTDescriptor.sol\":3564:3585  symbolBytes[i] == '\"' */\n      0x2200000000000000000000000000000000000000000000000000000000000000\n      eq\n        /* \"contracts/uniswap/libraries/NFTDescriptor.sol\":3560:3656  if (symbolBytes[i] == '\"') {... */\n      iszero\n      tag_109\n      jumpi\n        /* \"contracts/uniswap/libraries/NFTDescriptor.sol\":3609:3637  escapedBytes[index++] = '\\\\' */\n      0x5c00000000000000000000000000000000000000000000000000000000000000\n        /* \"contracts/uniswap/libraries/NFTDescriptor.sol\":3609:3621  escapedBytes */\n      dup4\n        /* \"contracts/uniswap/libraries/NFTDescriptor.sol\":3622:3629  index++ */\n      dup4\n      dup1\n      0x01\n      add\n      swap5\n      pop\n        /* \"contracts/uniswap/libraries/NFTDescriptor.sol\":3609:3630  escapedBytes[index++] */\n      dup2\n      mload\n      dup2\n      lt\n      tag_110\n      jumpi\n      invalid\n    tag_110:\n      0x20\n      add\n      add\n        /* \"contracts/uniswap/libraries/NFTDescriptor.sol\":3609:3637  escapedBytes[index++] = '\\\\' */\n      swap1\n      not(0xffffffffffffffffffffffffffffffffffffffffffffffffffffffffffffff)\n      and\n      swap1\n      dup2\n      0x00\n      byte\n      swap1\n      mstore8\n      pop\n        /* \"contracts/uniswap/libraries/NFTDescriptor.sol\":3560:3656  if (symbolBytes[i] == '\"') {... */\n    tag_109:\n        /* \"contracts/uniswap/libraries/NFTDescriptor.sol\":3697:3708  symbolBytes */\n      dup5\n        /* \"contracts/uniswap/libraries/NFTDescriptor.sol\":3709:3710  i */\n      dup2\n        /* \"contracts/uniswap/libraries/NFTDescriptor.sol\":3697:3711  symbolBytes[i] */\n      0xff\n      and\n      dup2\n      mload\n      dup2\n      lt\n      tag_111\n      jumpi\n      invalid\n    tag_111:\n      0x20\n      add\n      add\n      mload\n      0xf8\n      shr\n      0xf8\n      shl\n        /* \"contracts/uniswap/libraries/NFTDescriptor.sol\":3673:3685  escapedBytes */\n      dup4\n        /* \"contracts/uniswap/libraries/NFTDescriptor.sol\":3686:3693  index++ */\n      dup4\n      dup1\n      0x01\n      add\n      swap5\n      pop\n        /* \"contracts/uniswap/libraries/NFTDescriptor.sol\":3673:3694  escapedBytes[index++] */\n      dup2\n      mload\n      dup2\n      lt\n      tag_112\n      jumpi\n      invalid\n    tag_112:\n      0x20\n      add\n      add\n        /* \"contracts/uniswap/libraries/NFTDescriptor.sol\":3673:3711  escapedBytes[index++] = symbolBytes[i] */\n      swap1\n      not(0xffffffffffffffffffffffffffffffffffffffffffffffffffffffffffffff)\n      and\n      swap1\n      dup2\n      0x00\n      byte\n      swap1\n      mstore8\n      pop\n        /* \"contracts/uniswap/libraries/NFTDescriptor.sol\":3537:3540  i++ */\n      0x01\n      add\n        /* \"contracts/uniswap/libraries/NFTDescriptor.sol\":3495:3726  for (uint8 i = 0; i < symbolBytes.length; i++) {... */\n      jump(tag_105)\n    tag_106:\n      pop\n        /* \"contracts/uniswap/libraries/NFTDescriptor.sol\":3753:3765  escapedBytes */\n      dup2\n        /* \"contracts/uniswap/libraries/NFTDescriptor.sol\":3739:3766  return string(escapedBytes) */\n      swap5\n      pop\n      pop\n      pop\n      pop\n      pop\n      jump(tag_9)\n        /* \"contracts/uniswap/libraries/NFTDescriptor.sol\":3346:3777  if (quotesCount > 0) {... */\n    tag_102:\n      pop\n        /* \"contracts/uniswap/libraries/NFTDescriptor.sol\":3793:3799  symbol */\n      swap2\n      swap3\n        /* \"contracts/uniswap/libraries/NFTDescriptor.sol\":3020:3806  function escapeQuotes(string memory symbol) internal pure returns (string memory) {... */\n      swap2\n      pop\n      pop\n      jump\t// out\n        /* \"contracts/uniswap/libraries/NFTDescriptor.sol\":15150:15282  function addressToString(address addr) internal pure returns (string memory) {... */\n    tag_19:\n        /* \"contracts/uniswap/libraries/NFTDescriptor.sol\":15212:15225  string memory */\n      0x60\n        /* \"contracts/uniswap/libraries/NFTDescriptor.sol\":15244:15275  (uint256(addr)).toHexString(20) */\n      tag_84\n        /* \"contracts/uniswap/libraries/NFTDescriptor.sol\":15245:15258  uint256(addr) */\n      0xffffffffffffffffffffffffffffffffffffffff\n      dup4\n      and\n        /* \"contracts/uniswap/libraries/NFTDescriptor.sol\":15272:15274  20 */\n      0x14\n        /* \"contracts/uniswap/libraries/NFTDescriptor.sol\":15244:15271  (uint256(addr)).toHexString */\n      tag_115\n        /* \"contracts/uniswap/libraries/NFTDescriptor.sol\":15244:15275  (uint256(addr)).toHexString(20) */\n      jump\t// in\n        /* \"contracts/uniswap/libraries/NFTDescriptor.sol\":3812:4547  function generateDescriptionPartOne(... */\n    tag_20:\n        /* \"contracts/uniswap/libraries/NFTDescriptor.sol\":3990:4003  string memory */\n      0x60\n        /* \"contracts/uniswap/libraries/NFTDescriptor.sol\":4177:4193  quoteTokenSymbol */\n      dup4\n        /* \"contracts/uniswap/libraries/NFTDescriptor.sol\":4240:4255  baseTokenSymbol */\n      dup4\n        /* \"contracts/uniswap/libraries/NFTDescriptor.sol\":4432:4443  poolAddress */\n      dup4\n        /* \"contracts/uniswap/libraries/NFTDescriptor.sol\":4492:4508  quoteTokenSymbol */\n      dup7\n        /* \"contracts/uniswap/libraries/NFTDescriptor.sol\":4058:4526  abi.encodePacked(... */\n      add(0x20, mload(0x40))\n      tag_117\n      swap5\n      swap4\n      swap3\n      swap2\n      swap1\n      tag_118\n      jump\t// in\n    tag_117:\n      mload(0x40)\n      0x20\n      dup2\n      dup4\n      sub\n      sub\n      dup2\n      mstore\n      swap1\n      0x40\n      mstore\n        /* \"contracts/uniswap/libraries/NFTDescriptor.sol\":4015:4540  return... */\n      swap1\n      pop\n        /* \"contracts/uniswap/libraries/NFTDescriptor.sol\":3812:4547  function generateDescriptionPartOne(... */\n    tag_116:\n      swap4\n      swap3\n      pop\n      pop\n      pop\n      jump\t// out\n        /* \"@openzeppelin/contracts/utils/Strings.sol\":202:927  function toString(uint256 value) internal pure returns (string memory) {... */\n    tag_23:\n        /* \"@openzeppelin/contracts/utils/Strings.sol\":258:271  string memory */\n      0x60\n        /* \"@openzeppelin/contracts/utils/Strings.sol\":475:485  value == 0 */\n      dup2\n        /* \"@openzeppelin/contracts/utils/Strings.sol\":471:522  if (value == 0) {... */\n      tag_120\n      jumpi\n      pop\n        /* \"@openzeppelin/contracts/utils/Strings.sol\":501:511  return \"0\" */\n      0x40\n      dup1\n      mload\n      dup1\n      dup3\n      add\n      swap1\n      swap2\n      mstore\n      0x01\n      dup2\n      mstore\n      0x3000000000000000000000000000000000000000000000000000000000000000\n      0x20\n      dup3\n      add\n      mstore\n      jump(tag_9)\n        /* \"@openzeppelin/contracts/utils/Strings.sol\":471:522  if (value == 0) {... */\n    tag_120:\n        /* \"@openzeppelin/contracts/utils/Strings.sol\":546:551  value */\n      dup2\n        /* \"@openzeppelin/contracts/utils/Strings.sol\":531:543  uint256 temp */\n      0x00\n        /* \"@openzeppelin/contracts/utils/Strings.sol\":585:660  while (temp != 0) {... */\n    tag_121:\n        /* \"@openzeppelin/contracts/utils/Strings.sol\":592:601  temp != 0 */\n      dup2\n      iszero\n        /* \"@openzeppelin/contracts/utils/Strings.sol\":585:660  while (temp != 0) {... */\n      tag_122\n      jumpi\n        /* \"@openzeppelin/contracts/utils/Strings.sol\":617:625  digits++ */\n      0x01\n      add\n        /* \"@openzeppelin/contracts/utils/Strings.sol\":647:649  10 */\n      0x0a\n        /* \"@openzeppelin/contracts/utils/Strings.sol\":639:649  temp /= 10 */\n      dup3\n      div\n      swap2\n      pop\n        /* \"@openzeppelin/contracts/utils/Strings.sol\":585:660  while (temp != 0) {... */\n      jump(tag_121)\n    tag_122:\n        /* \"@openzeppelin/contracts/utils/Strings.sol\":669:688  bytes memory buffer */\n      0x00\n        /* \"@openzeppelin/contracts/utils/Strings.sol\":701:707  digits */\n      dup2\n        /* \"@openzeppelin/contracts/utils/Strings.sol\":691:708  new bytes(digits) */\n      0xffffffffffffffff\n      dup2\n      gt\n      dup1\n      iszero\n      tag_124\n      jumpi\n      0x00\n      dup1\n      revert\n    tag_124:\n      pop\n      mload(0x40)\n      swap1\n      dup1\n      dup3\n      mstore\n      dup1\n      0x1f\n      add\n      not(0x1f)\n      and\n      0x20\n      add\n      dup3\n      add\n      0x40\n      mstore\n      dup1\n      iszero\n      tag_125\n      jumpi\n      0x20\n      dup3\n      add\n      dup2\n      dup1\n      calldatasize\n      dup4\n      calldatacopy\n      add\n      swap1\n      pop\n    tag_125:\n      pop\n        /* \"@openzeppelin/contracts/utils/Strings.sol\":761:766  value */\n      dup6\n      swap4\n      pop\n        /* \"@openzeppelin/contracts/utils/Strings.sol\":669:708  bytes memory buffer = new bytes(digits) */\n      swap1\n      pop\n      not(0x00)\n        /* \"@openzeppelin/contracts/utils/Strings.sol\":734:744  digits - 1 */\n      dup3\n      add\n        /* \"@openzeppelin/contracts/utils/Strings.sol\":776:890  while (temp != 0) {... */\n    tag_126:\n        /* \"@openzeppelin/contracts/utils/Strings.sol\":783:792  temp != 0 */\n      dup4\n      iszero\n        /* \"@openzeppelin/contracts/utils/Strings.sol\":776:890  while (temp != 0) {... */\n      tag_127\n      jumpi\n        /* \"@openzeppelin/contracts/utils/Strings.sol\":851:853  10 */\n      0x0a\n        /* \"@openzeppelin/contracts/utils/Strings.sol\":844:848  temp */\n      dup5\n        /* \"@openzeppelin/contracts/utils/Strings.sol\":844:853  temp % 10 */\n      mod\n        /* \"@openzeppelin/contracts/utils/Strings.sol\":839:841  48 */\n      0x30\n        /* \"@openzeppelin/contracts/utils/Strings.sol\":839:853  48 + temp % 10 */\n      add\n        /* \"@openzeppelin/contracts/utils/Strings.sol\":826:855  bytes1(uint8(48 + temp % 10)) */\n      0xf8\n      shl\n        /* \"@openzeppelin/contracts/utils/Strings.sol\":808:814  buffer */\n      dup3\n        /* \"@openzeppelin/contracts/utils/Strings.sol\":815:822  index-- */\n      dup3\n      dup1\n      0x01\n      swap1\n      sub\n      swap4\n      pop\n        /* \"@openzeppelin/contracts/utils/Strings.sol\":808:823  buffer[index--] */\n      dup2\n      mload\n      dup2\n      lt\n      tag_129\n      jumpi\n      invalid\n    tag_129:\n      0x20\n      add\n      add\n        /* \"@openzeppelin/contracts/utils/Strings.sol\":808:855  buffer[index--] = bytes1(uint8(48 + temp % 10)) */\n      swap1\n      not(0xffffffffffffffffffffffffffffffffffffffffffffffffffffffffffffff)\n      and\n      swap1\n      dup2\n      0x00\n      byte\n      swap1\n      mstore8\n      pop\n        /* \"@openzeppelin/contracts/utils/Strings.sol\":877:879  10 */\n      0x0a\n        /* \"@openzeppelin/contracts/utils/Strings.sol\":869:879  temp /= 10 */\n      dup5\n      div\n      swap4\n      pop\n        /* \"@openzeppelin/contracts/utils/Strings.sol\":776:890  while (temp != 0) {... */\n      jump(tag_126)\n    tag_127:\n      pop\n        /* \"@openzeppelin/contracts/utils/Strings.sol\":913:919  buffer */\n      swap5\n        /* \"@openzeppelin/contracts/utils/Strings.sol\":202:927  function toString(uint256 value) internal pure returns (string memory) {... */\n      swap4\n      pop\n      pop\n      pop\n      pop\n      jump\t// out\n        /* \"contracts/uniswap/libraries/NFTDescriptor.sol\":4553:5482  function generateDescriptionPartTwo(... */\n    tag_28:\n        /* \"contracts/uniswap/libraries/NFTDescriptor.sol\":4799:4812  string memory */\n      0x60\n        /* \"contracts/uniswap/libraries/NFTDescriptor.sol\":4939:4956  quoteTokenAddress */\n      dup4\n        /* \"contracts/uniswap/libraries/NFTDescriptor.sol\":5005:5020  baseTokenSymbol */\n      dup6\n        /* \"contracts/uniswap/libraries/NFTDescriptor.sol\":5076:5092  baseTokenAddress */\n      dup5\n        /* \"contracts/uniswap/libraries/NFTDescriptor.sol\":5151:5158  feeTier */\n      dup5\n        /* \"contracts/uniswap/libraries/NFTDescriptor.sol\":5217:5224  tokenId */\n      dup10\n        /* \"contracts/uniswap/libraries/NFTDescriptor.sol\":4867:5461  abi.encodePacked(... */\n      add(0x20, mload(0x40))\n      tag_132\n      swap6\n      swap5\n      swap4\n      swap3\n      swap2\n      swap1\n      tag_133\n      jump\t// in\n    tag_132:\n      mload(0x40)\n      0x20\n      dup2\n      dup4\n      sub\n      sub\n      dup2\n      mstore\n      swap1\n      0x40\n      mstore\n        /* \"contracts/uniswap/libraries/NFTDescriptor.sol\":4824:5475  return... */\n      swap1\n      pop\n        /* \"contracts/uniswap/libraries/NFTDescriptor.sol\":4553:5482  function generateDescriptionPartTwo(... */\n    tag_131:\n      swap6\n      swap5\n      pop\n      pop\n      pop\n      pop\n      pop\n      jump\t// out\n        /* \"contracts/uniswap/libraries/NFTDescriptor.sol\":15288:17183  function generateSVGImage(ConstructTokenURIParams memory params) internal pure returns (string memory svg) {... */\n    tag_31:\n        /* \"contracts/uniswap/libraries/NFTDescriptor.sol\":15376:15393  string memory svg */\n      0x60\n        /* \"contracts/uniswap/libraries/NFTDescriptor.sol\":15405:15438  NFTSVG.SVGParams memory svgParams */\n      0x00\n        /* \"contracts/uniswap/libraries/NFTDescriptor.sol\":15453:17129  NFTSVG.SVGParams({... */\n      mload(0x40)\n      dup1\n      0x02a0\n      add\n      0x40\n      mstore\n      dup1\n        /* \"contracts/uniswap/libraries/NFTDescriptor.sol\":15500:15541  addressToString(params.quoteTokenAddress) */\n      tag_135\n        /* \"contracts/uniswap/libraries/NFTDescriptor.sol\":15516:15522  params */\n      dup6\n        /* \"contracts/uniswap/libraries/NFTDescriptor.sol\":15516:15540  params.quoteTokenAddress */\n      0x20\n      add\n      mload\n        /* \"contracts/uniswap/libraries/NFTDescriptor.sol\":15500:15515  addressToString */\n      tag_19\n        /* \"contracts/uniswap/libraries/NFTDescriptor.sol\":15500:15541  addressToString(params.quoteTokenAddress) */\n      jump\t// in\n    tag_135:\n        /* \"contracts/uniswap/libraries/NFTDescriptor.sol\":15453:17129  NFTSVG.SVGParams({... */\n      dup2\n      mstore\n      0x20\n      add\n        /* \"contracts/uniswap/libraries/NFTDescriptor.sol\":15570:15610  addressToString(params.baseTokenAddress) */\n      tag_136\n        /* \"contracts/uniswap/libraries/NFTDescriptor.sol\":15586:15592  params */\n      dup6\n        /* \"contracts/uniswap/libraries/NFTDescriptor.sol\":15586:15609  params.baseTokenAddress */\n      0x40\n      add\n      mload\n        /* \"contracts/uniswap/libraries/NFTDescriptor.sol\":15570:15585  addressToString */\n      tag_19\n        /* \"contracts/uniswap/libraries/NFTDescriptor.sol\":15570:15610  addressToString(params.baseTokenAddress) */\n      jump\t// in\n    tag_136:\n        /* \"contracts/uniswap/libraries/NFTDescriptor.sol\":15453:17129  NFTSVG.SVGParams({... */\n      dup2\n      mstore\n      0x20\n      add\n        /* \"contracts/uniswap/libraries/NFTDescriptor.sol\":15641:15647  params */\n      dup5\n        /* \"contracts/uniswap/libraries/NFTDescriptor.sol\":15641:15659  params.poolAddress */\n      0x01a0\n      add\n      mload\n        /* \"contracts/uniswap/libraries/NFTDescriptor.sol\":15453:17129  NFTSVG.SVGParams({... */\n      0xffffffffffffffffffffffffffffffffffffffff\n      and\n      dup2\n      mstore\n      0x20\n      add\n        /* \"contracts/uniswap/libraries/NFTDescriptor.sol\":15695:15701  params */\n      dup5\n        /* \"contracts/uniswap/libraries/NFTDescriptor.sol\":15695:15718  params.quoteTokenSymbol */\n      0x60\n      add\n      mload\n        /* \"contracts/uniswap/libraries/NFTDescriptor.sol\":15453:17129  NFTSVG.SVGParams({... */\n      dup2\n      mstore\n      0x20\n      add\n        /* \"contracts/uniswap/libraries/NFTDescriptor.sol\":15753:15759  params */\n      dup5\n        /* \"contracts/uniswap/libraries/NFTDescriptor.sol\":15753:15775  params.baseTokenSymbol */\n      0x80\n      add\n      mload\n        /* \"contracts/uniswap/libraries/NFTDescriptor.sol\":15453:17129  NFTSVG.SVGParams({... */\n      dup2\n      mstore\n      0x20\n      add\n        /* \"contracts/uniswap/libraries/NFTDescriptor.sol\":15802:15832  feeToPercentString(params.fee) */\n      tag_137\n        /* \"contracts/uniswap/libraries/NFTDescriptor.sol\":15821:15827  params */\n      dup6\n        /* \"contracts/uniswap/libraries/NFTDescriptor.sol\":15821:15831  params.fee */\n      0x0180\n      add\n      mload\n        /* \"contracts/uniswap/libraries/NFTDescriptor.sol\":15802:15820  feeToPercentString */\n      tag_12\n        /* \"contracts/uniswap/libraries/NFTDescriptor.sol\":15802:15832  feeToPercentString(params.fee) */\n      jump\t// in\n    tag_137:\n        /* \"contracts/uniswap/libraries/NFTDescriptor.sol\":15453:17129  NFTSVG.SVGParams({... */\n      dup2\n      mstore\n      0x20\n      add\n        /* \"contracts/uniswap/libraries/NFTDescriptor.sol\":15861:15867  params */\n      dup5\n        /* \"contracts/uniswap/libraries/NFTDescriptor.sol\":15861:15877  params.tickLower */\n      0x0100\n      add\n      mload\n        /* \"contracts/uniswap/libraries/NFTDescriptor.sol\":15453:17129  NFTSVG.SVGParams({... */\n      0x02\n      signextend\n      dup2\n      mstore\n      0x20\n      add\n        /* \"contracts/uniswap/libraries/NFTDescriptor.sol\":15906:15912  params */\n      dup5\n        /* \"contracts/uniswap/libraries/NFTDescriptor.sol\":15906:15922  params.tickUpper */\n      0x0120\n      add\n      mload\n        /* \"contracts/uniswap/libraries/NFTDescriptor.sol\":15453:17129  NFTSVG.SVGParams({... */\n      0x02\n      signextend\n      dup2\n      mstore\n      0x20\n      add\n        /* \"contracts/uniswap/libraries/NFTDescriptor.sol\":15953:15959  params */\n      dup5\n        /* \"contracts/uniswap/libraries/NFTDescriptor.sol\":15953:15971  params.tickSpacing */\n      0x0160\n      add\n      mload\n        /* \"contracts/uniswap/libraries/NFTDescriptor.sol\":15453:17129  NFTSVG.SVGParams({... */\n      0x02\n      signextend\n      dup2\n      mstore\n      0x20\n      add\n        /* \"contracts/uniswap/libraries/NFTDescriptor.sol\":16000:16065  overRange(params.tickLower, params.tickUpper, params.tickCurrent) */\n      tag_138\n        /* \"contracts/uniswap/libraries/NFTDescriptor.sol\":16010:16016  params */\n      dup6\n        /* \"contracts/uniswap/libraries/NFTDescriptor.sol\":16010:16026  params.tickLower */\n      0x0100\n      add\n      mload\n        /* \"contracts/uniswap/libraries/NFTDescriptor.sol\":16028:16034  params */\n      dup7\n        /* \"contracts/uniswap/libraries/NFTDescriptor.sol\":16028:16044  params.tickUpper */\n      0x0120\n      add\n      mload\n        /* \"contracts/uniswap/libraries/NFTDescriptor.sol\":16046:16052  params */\n      dup8\n        /* \"contracts/uniswap/libraries/NFTDescriptor.sol\":16046:16064  params.tickCurrent */\n      0x0140\n      add\n      mload\n        /* \"contracts/uniswap/libraries/NFTDescriptor.sol\":16000:16009  overRange */\n      tag_139\n        /* \"contracts/uniswap/libraries/NFTDescriptor.sol\":16000:16065  overRange(params.tickLower, params.tickUpper, params.tickCurrent) */\n      jump\t// in\n    tag_138:\n        /* \"contracts/uniswap/libraries/NFTDescriptor.sol\":15453:17129  NFTSVG.SVGParams({... */\n      0x00\n      signextend\n      dup2\n      mstore\n      0x20\n      add\n        /* \"contracts/uniswap/libraries/NFTDescriptor.sol\":16092:16098  params */\n      dup5\n        /* \"contracts/uniswap/libraries/NFTDescriptor.sol\":16092:16106  params.tokenId */\n      0x00\n      add\n      mload\n        /* \"contracts/uniswap/libraries/NFTDescriptor.sol\":15453:17129  NFTSVG.SVGParams({... */\n      dup2\n      mstore\n      0x20\n      add\n        /* \"contracts/uniswap/libraries/NFTDescriptor.sol\":16132:16187  tokenToColorHex(uint256(params.quoteTokenAddress), 136) */\n      tag_140\n        /* \"contracts/uniswap/libraries/NFTDescriptor.sol\":16156:16162  params */\n      dup6\n        /* \"contracts/uniswap/libraries/NFTDescriptor.sol\":16156:16180  params.quoteTokenAddress */\n      0x20\n      add\n      mload\n        /* \"contracts/uniswap/libraries/NFTDescriptor.sol\":16148:16181  uint256(params.quoteTokenAddress) */\n      0xffffffffffffffffffffffffffffffffffffffff\n      and\n        /* \"contracts/uniswap/libraries/NFTDescriptor.sol\":16183:16186  136 */\n      0x88\n        /* \"contracts/uniswap/libraries/NFTDescriptor.sol\":16132:16147  tokenToColorHex */\n      tag_141\n        /* \"contracts/uniswap/libraries/NFTDescriptor.sol\":16132:16187  tokenToColorHex(uint256(params.quoteTokenAddress), 136) */\n      jump\t// in\n    tag_140:\n        /* \"contracts/uniswap/libraries/NFTDescriptor.sol\":15453:17129  NFTSVG.SVGParams({... */\n      dup2\n      mstore\n      0x20\n      add\n        /* \"contracts/uniswap/libraries/NFTDescriptor.sol\":16213:16267  tokenToColorHex(uint256(params.baseTokenAddress), 136) */\n      tag_142\n        /* \"contracts/uniswap/libraries/NFTDescriptor.sol\":16237:16243  params */\n      dup6\n        /* \"contracts/uniswap/libraries/NFTDescriptor.sol\":16237:16260  params.baseTokenAddress */\n      0x40\n      add\n      mload\n        /* \"contracts/uniswap/libraries/NFTDescriptor.sol\":16229:16261  uint256(params.baseTokenAddress) */\n      0xffffffffffffffffffffffffffffffffffffffff\n      and\n        /* \"contracts/uniswap/libraries/NFTDescriptor.sol\":16263:16266  136 */\n      0x88\n        /* \"contracts/uniswap/libraries/NFTDescriptor.sol\":16213:16228  tokenToColorHex */\n      tag_141\n        /* \"contracts/uniswap/libraries/NFTDescriptor.sol\":16213:16267  tokenToColorHex(uint256(params.baseTokenAddress), 136) */\n      jump\t// in\n    tag_142:\n        /* \"contracts/uniswap/libraries/NFTDescriptor.sol\":15453:17129  NFTSVG.SVGParams({... */\n      dup2\n      mstore\n      0x20\n      add\n        /* \"contracts/uniswap/libraries/NFTDescriptor.sol\":16293:16346  tokenToColorHex(uint256(params.quoteTokenAddress), 0) */\n      tag_143\n        /* \"contracts/uniswap/libraries/NFTDescriptor.sol\":16317:16323  params */\n      dup6\n        /* \"contracts/uniswap/libraries/NFTDescriptor.sol\":16317:16341  params.quoteTokenAddress */\n      0x20\n      add\n      mload\n        /* \"contracts/uniswap/libraries/NFTDescriptor.sol\":16309:16342  uint256(params.quoteTokenAddress) */\n      0xffffffffffffffffffffffffffffffffffffffff\n      and\n        /* \"contracts/uniswap/libraries/NFTDescriptor.sol\":16344:16345  0 */\n      0x00\n        /* \"contracts/uniswap/libraries/NFTDescriptor.sol\":16293:16308  tokenToColorHex */\n      tag_141\n        /* \"contracts/uniswap/libraries/NFTDescriptor.sol\":16293:16346  tokenToColorHex(uint256(params.quoteTokenAddress), 0) */\n      jump\t// in\n    tag_143:\n        /* \"contracts/uniswap/libraries/NFTDescriptor.sol\":15453:17129  NFTSVG.SVGParams({... */\n      dup2\n      mstore\n      0x20\n      add\n        /* \"contracts/uniswap/libraries/NFTDescriptor.sol\":16372:16424  tokenToColorHex(uint256(params.baseTokenAddress), 0) */\n      tag_144\n        /* \"contracts/uniswap/libraries/NFTDescriptor.sol\":16396:16402  params */\n      dup6\n        /* \"contracts/uniswap/libraries/NFTDescriptor.sol\":16396:16419  params.baseTokenAddress */\n      0x40\n      add\n      mload\n        /* \"contracts/uniswap/libraries/NFTDescriptor.sol\":16388:16420  uint256(params.baseTokenAddress) */\n      0xffffffffffffffffffffffffffffffffffffffff\n      and\n        /* \"contracts/uniswap/libraries/NFTDescriptor.sol\":16422:16423  0 */\n      0x00\n        /* \"contracts/uniswap/libraries/NFTDescriptor.sol\":16372:16387  tokenToColorHex */\n      tag_141\n        /* \"contracts/uniswap/libraries/NFTDescriptor.sol\":16372:16424  tokenToColorHex(uint256(params.baseTokenAddress), 0) */\n      jump\t// in\n    tag_144:\n        /* \"contracts/uniswap/libraries/NFTDescriptor.sol\":15453:17129  NFTSVG.SVGParams({... */\n      dup2\n      mstore\n      0x20\n      add\n        /* \"contracts/uniswap/libraries/NFTDescriptor.sol\":16446:16539  scale(getCircleCoord(uint256(params.quoteTokenAddress), 16, params.tokenId), 0, 255, 16, 274) */\n      tag_145\n        /* \"contracts/uniswap/libraries/NFTDescriptor.sol\":16452:16521  getCircleCoord(uint256(params.quoteTokenAddress), 16, params.tokenId) */\n      tag_146\n        /* \"contracts/uniswap/libraries/NFTDescriptor.sol\":16475:16481  params */\n      dup7\n        /* \"contracts/uniswap/libraries/NFTDescriptor.sol\":16475:16499  params.quoteTokenAddress */\n      0x20\n      add\n      mload\n        /* \"contracts/uniswap/libraries/NFTDescriptor.sol\":16467:16500  uint256(params.quoteTokenAddress) */\n      0xffffffffffffffffffffffffffffffffffffffff\n      and\n        /* \"contracts/uniswap/libraries/NFTDescriptor.sol\":16502:16504  16 */\n      0x10\n        /* \"contracts/uniswap/libraries/NFTDescriptor.sol\":16506:16512  params */\n      dup9\n        /* \"contracts/uniswap/libraries/NFTDescriptor.sol\":16506:16520  params.tokenId */\n      0x00\n      add\n      mload\n        /* \"contracts/uniswap/libraries/NFTDescriptor.sol\":16452:16466  getCircleCoord */\n      tag_147\n        /* \"contracts/uniswap/libraries/NFTDescriptor.sol\":16452:16521  getCircleCoord(uint256(params.quoteTokenAddress), 16, params.tokenId) */\n      jump\t// in\n    tag_146:\n        /* \"contracts/uniswap/libraries/NFTDescriptor.sol\":16523:16524  0 */\n      0x00\n        /* \"contracts/uniswap/libraries/NFTDescriptor.sol\":16526:16529  255 */\n      0xff\n        /* \"contracts/uniswap/libraries/NFTDescriptor.sol\":16531:16533  16 */\n      0x10\n        /* \"contracts/uniswap/libraries/NFTDescriptor.sol\":16535:16538  274 */\n      0x0112\n        /* \"contracts/uniswap/libraries/NFTDescriptor.sol\":16446:16451  scale */\n      tag_148\n        /* \"contracts/uniswap/libraries/NFTDescriptor.sol\":16446:16539  scale(getCircleCoord(uint256(params.quoteTokenAddress), 16, params.tokenId), 0, 255, 16, 274) */\n      jump\t// in\n    tag_145:\n        /* \"contracts/uniswap/libraries/NFTDescriptor.sol\":15453:17129  NFTSVG.SVGParams({... */\n      dup2\n      mstore\n      0x20\n      add\n        /* \"contracts/uniswap/libraries/NFTDescriptor.sol\":16561:16654  scale(getCircleCoord(uint256(params.baseTokenAddress), 16, params.tokenId), 0, 255, 100, 484) */\n      tag_149\n        /* \"contracts/uniswap/libraries/NFTDescriptor.sol\":16567:16635  getCircleCoord(uint256(params.baseTokenAddress), 16, params.tokenId) */\n      tag_150\n        /* \"contracts/uniswap/libraries/NFTDescriptor.sol\":16590:16596  params */\n      dup7\n        /* \"contracts/uniswap/libraries/NFTDescriptor.sol\":16590:16613  params.baseTokenAddress */\n      0x40\n      add\n      mload\n        /* \"contracts/uniswap/libraries/NFTDescriptor.sol\":16582:16614  uint256(params.baseTokenAddress) */\n      0xffffffffffffffffffffffffffffffffffffffff\n      and\n        /* \"contracts/uniswap/libraries/NFTDescriptor.sol\":16616:16618  16 */\n      0x10\n        /* \"contracts/uniswap/libraries/NFTDescriptor.sol\":16620:16626  params */\n      dup9\n        /* \"contracts/uniswap/libraries/NFTDescriptor.sol\":16620:16634  params.tokenId */\n      0x00\n      add\n      mload\n        /* \"contracts/uniswap/libraries/NFTDescriptor.sol\":16567:16581  getCircleCoord */\n      tag_147\n        /* \"contracts/uniswap/libraries/NFTDescriptor.sol\":16567:16635  getCircleCoord(uint256(params.baseTokenAddress), 16, params.tokenId) */\n      jump\t// in\n    tag_150:\n        /* \"contracts/uniswap/libraries/NFTDescriptor.sol\":16637:16638  0 */\n      0x00\n        /* \"contracts/uniswap/libraries/NFTDescriptor.sol\":16640:16643  255 */\n      0xff\n        /* \"contracts/uniswap/libraries/NFTDescriptor.sol\":16645:16648  100 */\n      0x64\n        /* \"contracts/uniswap/libraries/NFTDescriptor.sol\":16650:16653  484 */\n      0x01e4\n        /* \"contracts/uniswap/libraries/NFTDescriptor.sol\":16561:16566  scale */\n      tag_148\n        /* \"contracts/uniswap/libraries/NFTDescriptor.sol\":16561:16654  scale(getCircleCoord(uint256(params.baseTokenAddress), 16, params.tokenId), 0, 255, 100, 484) */\n      jump\t// in\n    tag_149:\n        /* \"contracts/uniswap/libraries/NFTDescriptor.sol\":15453:17129  NFTSVG.SVGParams({... */\n      dup2\n      mstore\n      0x20\n      add\n        /* \"contracts/uniswap/libraries/NFTDescriptor.sol\":16676:16769  scale(getCircleCoord(uint256(params.quoteTokenAddress), 32, params.tokenId), 0, 255, 16, 274) */\n      tag_151\n        /* \"contracts/uniswap/libraries/NFTDescriptor.sol\":16682:16751  getCircleCoord(uint256(params.quoteTokenAddress), 32, params.tokenId) */\n      tag_146\n        /* \"contracts/uniswap/libraries/NFTDescriptor.sol\":16705:16711  params */\n      dup7\n        /* \"contracts/uniswap/libraries/NFTDescriptor.sol\":16705:16729  params.quoteTokenAddress */\n      0x20\n      add\n      mload\n        /* \"contracts/uniswap/libraries/NFTDescriptor.sol\":16697:16730  uint256(params.quoteTokenAddress) */\n      0xffffffffffffffffffffffffffffffffffffffff\n      and\n        /* \"contracts/uniswap/libraries/NFTDescriptor.sol\":16732:16734  32 */\n      0x20\n        /* \"contracts/uniswap/libraries/NFTDescriptor.sol\":16736:16742  params */\n      dup9\n        /* \"contracts/uniswap/libraries/NFTDescriptor.sol\":16736:16750  params.tokenId */\n      0x00\n      add\n      mload\n        /* \"contracts/uniswap/libraries/NFTDescriptor.sol\":16682:16696  getCircleCoord */\n      tag_147\n        /* \"contracts/uniswap/libraries/NFTDescriptor.sol\":16682:16751  getCircleCoord(uint256(params.quoteTokenAddress), 32, params.tokenId) */\n      jump\t// in\n        /* \"contracts/uniswap/libraries/NFTDescriptor.sol\":16676:16769  scale(getCircleCoord(uint256(params.quoteTokenAddress), 32, params.tokenId), 0, 255, 16, 274) */\n    tag_151:\n        /* \"contracts/uniswap/libraries/NFTDescriptor.sol\":15453:17129  NFTSVG.SVGParams({... */\n      dup2\n      mstore\n      0x20\n      add\n        /* \"contracts/uniswap/libraries/NFTDescriptor.sol\":16791:16884  scale(getCircleCoord(uint256(params.baseTokenAddress), 32, params.tokenId), 0, 255, 100, 484) */\n      tag_153\n        /* \"contracts/uniswap/libraries/NFTDescriptor.sol\":16797:16865  getCircleCoord(uint256(params.baseTokenAddress), 32, params.tokenId) */\n      tag_150\n        /* \"contracts/uniswap/libraries/NFTDescriptor.sol\":16820:16826  params */\n      dup7\n        /* \"contracts/uniswap/libraries/NFTDescriptor.sol\":16820:16843  params.baseTokenAddress */\n      0x40\n      add\n      mload\n        /* \"contracts/uniswap/libraries/NFTDescriptor.sol\":16812:16844  uint256(params.baseTokenAddress) */\n      0xffffffffffffffffffffffffffffffffffffffff\n      and\n        /* \"contracts/uniswap/libraries/NFTDescriptor.sol\":16846:16848  32 */\n      0x20\n        /* \"contracts/uniswap/libraries/NFTDescriptor.sol\":16850:16856  params */\n      dup9\n        /* \"contracts/uniswap/libraries/NFTDescriptor.sol\":16850:16864  params.tokenId */\n      0x00\n      add\n      mload\n        /* \"contracts/uniswap/libraries/NFTDescriptor.sol\":16797:16811  getCircleCoord */\n      tag_147\n        /* \"contracts/uniswap/libraries/NFTDescriptor.sol\":16797:16865  getCircleCoord(uint256(params.baseTokenAddress), 32, params.tokenId) */\n      jump\t// in\n        /* \"contracts/uniswap/libraries/NFTDescriptor.sol\":16791:16884  scale(getCircleCoord(uint256(params.baseTokenAddress), 32, params.tokenId), 0, 255, 100, 484) */\n    tag_153:\n        /* \"contracts/uniswap/libraries/NFTDescriptor.sol\":15453:17129  NFTSVG.SVGParams({... */\n      dup2\n      mstore\n      0x20\n      add\n        /* \"contracts/uniswap/libraries/NFTDescriptor.sol\":16906:16999  scale(getCircleCoord(uint256(params.quoteTokenAddress), 48, params.tokenId), 0, 255, 16, 274) */\n      tag_155\n        /* \"contracts/uniswap/libraries/NFTDescriptor.sol\":16912:16981  getCircleCoord(uint256(params.quoteTokenAddress), 48, params.tokenId) */\n      tag_146\n        /* \"contracts/uniswap/libraries/NFTDescriptor.sol\":16935:16941  params */\n      dup7\n        /* \"contracts/uniswap/libraries/NFTDescriptor.sol\":16935:16959  params.quoteTokenAddress */\n      0x20\n      add\n      mload\n        /* \"contracts/uniswap/libraries/NFTDescriptor.sol\":16927:16960  uint256(params.quoteTokenAddress) */\n      0xffffffffffffffffffffffffffffffffffffffff\n      and\n        /* \"contracts/uniswap/libraries/NFTDescriptor.sol\":16962:16964  48 */\n      0x30\n        /* \"contracts/uniswap/libraries/NFTDescriptor.sol\":16966:16972  params */\n      dup9\n        /* \"contracts/uniswap/libraries/NFTDescriptor.sol\":16966:16980  params.tokenId */\n      0x00\n      add\n      mload\n        /* \"contracts/uniswap/libraries/NFTDescriptor.sol\":16912:16926  getCircleCoord */\n      tag_147\n        /* \"contracts/uniswap/libraries/NFTDescriptor.sol\":16912:16981  getCircleCoord(uint256(params.quoteTokenAddress), 48, params.tokenId) */\n      jump\t// in\n        /* \"contracts/uniswap/libraries/NFTDescriptor.sol\":16906:16999  scale(getCircleCoord(uint256(params.quoteTokenAddress), 48, params.tokenId), 0, 255, 16, 274) */\n    tag_155:\n        /* \"contracts/uniswap/libraries/NFTDescriptor.sol\":15453:17129  NFTSVG.SVGParams({... */\n      dup2\n      mstore\n      0x20\n      add\n        /* \"contracts/uniswap/libraries/NFTDescriptor.sol\":17021:17114  scale(getCircleCoord(uint256(params.baseTokenAddress), 48, params.tokenId), 0, 255, 100, 484) */\n      tag_157\n        /* \"contracts/uniswap/libraries/NFTDescriptor.sol\":17027:17095  getCircleCoord(uint256(params.baseTokenAddress), 48, params.tokenId) */\n      tag_150\n        /* \"contracts/uniswap/libraries/NFTDescriptor.sol\":17050:17056  params */\n      dup7\n        /* \"contracts/uniswap/libraries/NFTDescriptor.sol\":17050:17073  params.baseTokenAddress */\n      0x40\n      add\n      mload\n        /* \"contracts/uniswap/libraries/NFTDescriptor.sol\":17042:17074  uint256(params.baseTokenAddress) */\n      0xffffffffffffffffffffffffffffffffffffffff\n      and\n        /* \"contracts/uniswap/libraries/NFTDescriptor.sol\":17076:17078  48 */\n      0x30\n        /* \"contracts/uniswap/libraries/NFTDescriptor.sol\":17080:17086  params */\n      dup9\n        /* \"contracts/uniswap/libraries/NFTDescriptor.sol\":17080:17094  params.tokenId */\n      0x00\n      add\n      mload\n        /* \"contracts/uniswap/libraries/NFTDescriptor.sol\":17027:17041  getCircleCoord */\n      tag_147\n        /* \"contracts/uniswap/libraries/NFTDescriptor.sol\":17027:17095  getCircleCoord(uint256(params.baseTokenAddress), 48, params.tokenId) */\n      jump\t// in\n        /* \"contracts/uniswap/libraries/NFTDescriptor.sol\":17021:17114  scale(getCircleCoord(uint256(params.baseTokenAddress), 48, params.tokenId), 0, 255, 100, 484) */\n    tag_157:\n        /* \"contracts/uniswap/libraries/NFTDescriptor.sol\":15453:17129  NFTSVG.SVGParams({... */\n      swap1\n      mstore\n        /* \"contracts/uniswap/libraries/NFTDescriptor.sol\":15405:17129  NFTSVG.SVGParams memory svgParams =... */\n      swap1\n      pop\n        /* \"contracts/uniswap/libraries/NFTDescriptor.sol\":17147:17176  NFTSVG.generateSVG(svgParams) */\n      tag_116\n        /* \"contracts/uniswap/libraries/NFTDescriptor.sol\":15405:17129  NFTSVG.SVGParams memory svgParams =... */\n      dup2\n        /* \"contracts/uniswap/libraries/NFTDescriptor.sol\":17147:17165  NFTSVG.generateSVG */\n      tag_160\n        /* \"contracts/uniswap/libraries/NFTDescriptor.sol\":17147:17176  NFTSVG.generateSVG(svgParams) */\n      jump\t// in\n        /* \"contracts/uniswap/libraries/base64.sol\":185:1252  function encode(bytes memory data) internal pure returns (string memory) {\r... */\n    tag_32:\n        /* \"contracts/uniswap/libraries/base64.sol\":283:294  data.length */\n      dup1\n      mload\n        /* \"contracts/uniswap/libraries/base64.sol\":243:256  string memory */\n      0x60\n      swap1\n        /* \"contracts/uniswap/libraries/base64.sol\":309:317  len == 0 */\n      dup1\n        /* \"contracts/uniswap/libraries/base64.sol\":305:328  if (len == 0) return \"\" */\n      tag_162\n      jumpi\n      pop\n      pop\n        /* \"contracts/uniswap/libraries/base64.sol\":319:328  return \"\" */\n      0x40\n      dup1\n      mload\n      0x20\n      dup2\n      add\n      swap1\n      swap2\n      mstore\n      0x00\n      dup2\n      mstore\n      jump(tag_9)\n        /* \"contracts/uniswap/libraries/base64.sol\":305:328  if (len == 0) return \"\" */\n    tag_162:\n        /* \"contracts/uniswap/libraries/base64.sol\":360:361  4 */\n      0x04\n        /* \"contracts/uniswap/libraries/base64.sol\":377:378  3 */\n      0x03\n        /* \"contracts/uniswap/libraries/base64.sol\":372:373  2 */\n      0x02\n        /* \"contracts/uniswap/libraries/base64.sol\":366:373  len + 2 */\n      dup4\n      add\n        /* \"contracts/uniswap/libraries/base64.sol\":365:378  (len + 2) / 3 */\n      div\n        /* \"contracts/uniswap/libraries/base64.sol\":360:379  4 * ((len + 2) / 3) */\n      mul\n        /* \"contracts/uniswap/libraries/base64.sol\":339:357  uint256 encodedLen */\n      0x00\n        /* \"contracts/uniswap/libraries/base64.sol\":360:379  4 * ((len + 2) / 3) */\n      dup2\n        /* \"contracts/uniswap/libraries/base64.sol\":412:433  new bytes(encodedLen) */\n      0xffffffffffffffff\n      dup2\n      gt\n      dup1\n      iszero\n      tag_164\n      jumpi\n      0x00\n      dup1\n      revert\n    tag_164:\n      pop\n      mload(0x40)\n      swap1\n      dup1\n      dup3\n      mstore\n      dup1\n      0x1f\n      add\n      not(0x1f)\n      and\n      0x20\n      add\n      dup3\n      add\n      0x40\n      mstore\n      dup1\n      iszero\n      tag_165\n      jumpi\n      0x20\n      dup3\n      add\n      dup2\n      dup1\n      calldatasize\n      dup4\n      calldatacopy\n      add\n      swap1\n      pop\n    tag_165:\n      pop\n        /* \"contracts/uniswap/libraries/base64.sol\":390:433  bytes memory result = new bytes(encodedLen) */\n      swap1\n      pop\n        /* \"contracts/uniswap/libraries/base64.sol\":444:453  uint256 i */\n      0x00\n        /* \"contracts/uniswap/libraries/base64.sol\":468:477  uint256 j */\n      dup1\n        /* \"contracts/uniswap/libraries/base64.sol\":492:1008  while (i < len) {\r... */\n    tag_166:\n        /* \"contracts/uniswap/libraries/base64.sol\":503:506  len */\n      dup5\n        /* \"contracts/uniswap/libraries/base64.sol\":499:500  i */\n      dup3\n        /* \"contracts/uniswap/libraries/base64.sol\":499:506  i < len */\n      lt\n        /* \"contracts/uniswap/libraries/base64.sol\":492:1008  while (i < len) {\r... */\n      iszero\n      tag_167\n      jumpi\n        /* \"contracts/uniswap/libraries/base64.sol\":523:538  uint256 triplet */\n      0x00\n        /* \"contracts/uniswap/libraries/base64.sol\":547:551  data */\n      dup8\n        /* \"contracts/uniswap/libraries/base64.sol\":552:553  i */\n      dup4\n        /* \"contracts/uniswap/libraries/base64.sol\":547:554  data[i] */\n      dup2\n      mload\n      dup2\n      lt\n      tag_168\n      jumpi\n      invalid\n    tag_168:\n      add\n      0x20\n      add\n      mload\n        /* \"contracts/uniswap/libraries/base64.sol\":570:573  i++ */\n      0x01\n      swap1\n      swap4\n      add\n      swap3\n        /* \"contracts/uniswap/libraries/base64.sol\":547:554  data[i] */\n      0xf8\n      shr\n      swap1\n      pop\n        /* \"contracts/uniswap/libraries/base64.sol\":592:599  i < len */\n      dup6\n      dup4\n      lt\n        /* \"contracts/uniswap/libraries/base64.sol\":588:642  if (i < len) triplet = triplet | (uint8(data[i]) << 8) */\n      iszero\n      tag_169\n      jumpi\n        /* \"contracts/uniswap/libraries/base64.sol\":640:641  8 */\n      0x08\n        /* \"contracts/uniswap/libraries/base64.sol\":628:632  data */\n      dup9\n        /* \"contracts/uniswap/libraries/base64.sol\":633:634  i */\n      dup5\n        /* \"contracts/uniswap/libraries/base64.sol\":628:635  data[i] */\n      dup2\n      mload\n      dup2\n      lt\n      tag_170\n      jumpi\n      invalid\n    tag_170:\n      add\n      0x20\n      add\n      mload\n      0xf8\n      shr\n        /* \"contracts/uniswap/libraries/base64.sol\":622:641  uint8(data[i]) << 8 */\n      swap1\n      shl\n        /* \"contracts/uniswap/libraries/base64.sol\":622:636  uint8(data[i]) */\n      0xff\n        /* \"contracts/uniswap/libraries/base64.sol\":611:642  triplet | (uint8(data[i]) << 8) */\n      and\n      or\n        /* \"contracts/uniswap/libraries/base64.sol\":588:642  if (i < len) triplet = triplet | (uint8(data[i]) << 8) */\n    tag_169:\n        /* \"contracts/uniswap/libraries/base64.sol\":657:660  i++ */\n      0x01\n      swap1\n      swap3\n      add\n      swap2\n        /* \"contracts/uniswap/libraries/base64.sol\":679:686  i < len */\n      dup6\n      dup4\n      lt\n        /* \"contracts/uniswap/libraries/base64.sol\":675:730  if (i < len) triplet = triplet | (uint8(data[i]) << 16) */\n      iszero\n      tag_171\n      jumpi\n        /* \"contracts/uniswap/libraries/base64.sol\":727:729  16 */\n      0x10\n        /* \"contracts/uniswap/libraries/base64.sol\":715:719  data */\n      dup9\n        /* \"contracts/uniswap/libraries/base64.sol\":720:721  i */\n      dup5\n        /* \"contracts/uniswap/libraries/base64.sol\":715:722  data[i] */\n      dup2\n      mload\n      dup2\n      lt\n      tag_172\n      jumpi\n      invalid\n    tag_172:\n      add\n      0x20\n      add\n      mload\n      0xf8\n      shr\n        /* \"contracts/uniswap/libraries/base64.sol\":709:729  uint8(data[i]) << 16 */\n      swap1\n      shl\n        /* \"contracts/uniswap/libraries/base64.sol\":709:723  uint8(data[i]) */\n      0xff\n        /* \"contracts/uniswap/libraries/base64.sol\":698:730  triplet | (uint8(data[i]) << 16) */\n      and\n      or\n        /* \"contracts/uniswap/libraries/base64.sol\":675:730  if (i < len) triplet = triplet | (uint8(data[i]) << 16) */\n    tag_171:\n        /* \"contracts/uniswap/libraries/base64.sol\":775:780  TABLE */\n      0x40\n      dup1\n      mload\n      0x60\n      dup2\n      add\n      dup3\n      mstore\n      dup2\n      dup2\n      mstore\n        /* \"contracts/uniswap/libraries/base64.sol\":745:748  i++ */\n      0x01\n      swap1\n      swap5\n      add\n      swap4\n        /* \"contracts/uniswap/libraries/base64.sol\":775:780  TABLE */\n      swap1\n      data_84d8a590de33e00cbdc16e1f28c3506f5ec15c599fab9a6a4bcd575cc2f110ce\n      0x20\n      dup4\n      add\n      codecopy\n        /* \"contracts/uniswap/libraries/base64.sol\":793:795  18 */\n      0x12\n        /* \"contracts/uniswap/libraries/base64.sol\":782:789  triplet */\n      dup3\n        /* \"contracts/uniswap/libraries/base64.sol\":782:795  triplet >> 18 */\n      swap1\n      shr\n        /* \"contracts/uniswap/libraries/base64.sol\":799:803  0x3F */\n      0x3f\n        /* \"contracts/uniswap/libraries/base64.sol\":781:803  (triplet >> 18) & 0x3F */\n      and\n        /* \"contracts/uniswap/libraries/base64.sol\":775:804  TABLE[(triplet >> 18) & 0x3F] */\n      dup2\n      mload\n      dup2\n      lt\n      tag_173\n      jumpi\n      invalid\n    tag_173:\n      0x20\n      add\n      add\n      mload\n      0xf8\n      shr\n      0xf8\n      shl\n        /* \"contracts/uniswap/libraries/base64.sol\":763:769  result */\n      dup5\n        /* \"contracts/uniswap/libraries/base64.sol\":770:771  j */\n      dup4\n        /* \"contracts/uniswap/libraries/base64.sol\":763:772  result[j] */\n      dup2\n      mload\n      dup2\n      lt\n      tag_174\n      jumpi\n      invalid\n    tag_174:\n      0x20\n      add\n      add\n        /* \"contracts/uniswap/libraries/base64.sol\":763:804  result[j] = TABLE[(triplet >> 18) & 0x3F] */\n      swap1\n      not(0xffffffffffffffffffffffffffffffffffffffffffffffffffffffffffffff)\n      and\n      swap1\n      dup2\n      0x00\n      byte\n      swap1\n      mstore8\n      pop\n        /* \"contracts/uniswap/libraries/base64.sol\":835:840  TABLE */\n      mload(0x40)\n      dup1\n      0x60\n      add\n      0x40\n      mstore\n      dup1\n      0x40\n      dup2\n      mstore\n      0x20\n      add\n      data_84d8a590de33e00cbdc16e1f28c3506f5ec15c599fab9a6a4bcd575cc2f110ce\n      0x40\n      swap2\n      codecopy\n        /* \"contracts/uniswap/libraries/base64.sol\":853:855  12 */\n      0x0c\n        /* \"contracts/uniswap/libraries/base64.sol\":842:849  triplet */\n      dup3\n        /* \"contracts/uniswap/libraries/base64.sol\":842:855  triplet >> 12 */\n      swap1\n      shr\n        /* \"contracts/uniswap/libraries/base64.sol\":859:863  0x3F */\n      0x3f\n        /* \"contracts/uniswap/libraries/base64.sol\":841:863  (triplet >> 12) & 0x3F */\n      and\n        /* \"contracts/uniswap/libraries/base64.sol\":835:864  TABLE[(triplet >> 12) & 0x3F] */\n      dup2\n      mload\n      dup2\n      lt\n      tag_175\n      jumpi\n      invalid\n    tag_175:\n      0x20\n      add\n      add\n      mload\n      0xf8\n      shr\n      0xf8\n      shl\n        /* \"contracts/uniswap/libraries/base64.sol\":819:825  result */\n      dup5\n        /* \"contracts/uniswap/libraries/base64.sol\":826:827  j */\n      dup4\n        /* \"contracts/uniswap/libraries/base64.sol\":830:831  1 */\n      0x01\n        /* \"contracts/uniswap/libraries/base64.sol\":826:831  j + 1 */\n      add\n        /* \"contracts/uniswap/libraries/base64.sol\":819:832  result[j + 1] */\n      dup2\n      mload\n      dup2\n      lt\n      tag_176\n      jumpi\n      invalid\n    tag_176:\n      0x20\n      add\n      add\n        /* \"contracts/uniswap/libraries/base64.sol\":819:864  result[j + 1] = TABLE[(triplet >> 12) & 0x3F] */\n      swap1\n      not(0xffffffffffffffffffffffffffffffffffffffffffffffffffffffffffffff)\n      and\n      swap1\n      dup2\n      0x00\n      byte\n      swap1\n      mstore8\n      pop\n        /* \"contracts/uniswap/libraries/base64.sol\":895:900  TABLE */\n      mload(0x40)\n      dup1\n      0x60\n      add\n      0x40\n      mstore\n      dup1\n      0x40\n      dup2\n      mstore\n      0x20\n      add\n      data_84d8a590de33e00cbdc16e1f28c3506f5ec15c599fab9a6a4bcd575cc2f110ce\n      0x40\n      swap2\n      codecopy\n        /* \"contracts/uniswap/libraries/base64.sol\":913:914  6 */\n      0x06\n        /* \"contracts/uniswap/libraries/base64.sol\":902:909  triplet */\n      dup3\n        /* \"contracts/uniswap/libraries/base64.sol\":902:914  triplet >> 6 */\n      swap1\n      shr\n        /* \"contracts/uniswap/libraries/base64.sol\":918:922  0x3F */\n      0x3f\n        /* \"contracts/uniswap/libraries/base64.sol\":901:922  (triplet >> 6) & 0x3F */\n      and\n        /* \"contracts/uniswap/libraries/base64.sol\":895:923  TABLE[(triplet >> 6) & 0x3F] */\n      dup2\n      mload\n      dup2\n      lt\n      tag_177\n      jumpi\n      invalid\n    tag_177:\n      0x20\n      add\n      add\n      mload\n      0xf8\n      shr\n      0xf8\n      shl\n        /* \"contracts/uniswap/libraries/base64.sol\":879:885  result */\n      dup5\n        /* \"contracts/uniswap/libraries/base64.sol\":886:887  j */\n      dup4\n        /* \"contracts/uniswap/libraries/base64.sol\":890:891  2 */\n      0x02\n        /* \"contracts/uniswap/libraries/base64.sol\":886:891  j + 2 */\n      add\n        /* \"contracts/uniswap/libraries/base64.sol\":879:892  result[j + 2] */\n      dup2\n      mload\n      dup2\n      lt\n      tag_178\n      jumpi\n      invalid\n    tag_178:\n      0x20\n      add\n      add\n        /* \"contracts/uniswap/libraries/base64.sol\":879:923  result[j + 2] = TABLE[(triplet >> 6) & 0x3F] */\n      swap1\n      not(0xffffffffffffffffffffffffffffffffffffffffffffffffffffffffffffff)\n      and\n      swap1\n      dup2\n      0x00\n      byte\n      swap1\n      mstore8\n      pop\n        /* \"contracts/uniswap/libraries/base64.sol\":954:959  TABLE */\n      mload(0x40)\n      dup1\n      0x60\n      add\n      0x40\n      mstore\n      dup1\n      0x40\n      dup2\n      mstore\n      0x20\n      add\n      data_84d8a590de33e00cbdc16e1f28c3506f5ec15c599fab9a6a4bcd575cc2f110ce\n      0x40\n      swap2\n      codecopy\n        /* \"contracts/uniswap/libraries/base64.sol\":960:967  triplet */\n      dup2\n        /* \"contracts/uniswap/libraries/base64.sol\":970:974  0x3F */\n      0x3f\n        /* \"contracts/uniswap/libraries/base64.sol\":960:974  triplet & 0x3F */\n      and\n        /* \"contracts/uniswap/libraries/base64.sol\":954:975  TABLE[triplet & 0x3F] */\n      dup2\n      mload\n      dup2\n      lt\n      tag_179\n      jumpi\n      invalid\n    tag_179:\n      0x20\n      add\n      add\n      mload\n      0xf8\n      shr\n      0xf8\n      shl\n        /* \"contracts/uniswap/libraries/base64.sol\":938:944  result */\n      dup5\n        /* \"contracts/uniswap/libraries/base64.sol\":945:946  j */\n      dup4\n        /* \"contracts/uniswap/libraries/base64.sol\":949:950  3 */\n      0x03\n        /* \"contracts/uniswap/libraries/base64.sol\":945:950  j + 3 */\n      add\n        /* \"contracts/uniswap/libraries/base64.sol\":938:951  result[j + 3] */\n      dup2\n      mload\n      dup2\n      lt\n      tag_180\n      jumpi\n      invalid\n    tag_180:\n      0x20\n      add\n      add\n        /* \"contracts/uniswap/libraries/base64.sol\":938:975  result[j + 3] = TABLE[triplet & 0x3F] */\n      swap1\n      not(0xffffffffffffffffffffffffffffffffffffffffffffffffffffffffffffff)\n      and\n      swap1\n      dup2\n      0x00\n      byte\n      swap1\n      mstore8\n      pop\n      pop\n        /* \"contracts/uniswap/libraries/base64.sol\":995:996  4 */\n      0x04\n        /* \"contracts/uniswap/libraries/base64.sol\":990:996  j += 4 */\n      add\n        /* \"contracts/uniswap/libraries/base64.sol\":492:1008  while (i < len) {\r... */\n      jump(tag_166)\n    tag_167:\n        /* \"contracts/uniswap/libraries/base64.sol\":1028:1029  3 */\n      0x03\n        /* \"contracts/uniswap/libraries/base64.sol\":1022:1025  len */\n      dup6\n        /* \"contracts/uniswap/libraries/base64.sol\":1022:1029  len % 3 */\n      mod\n        /* \"contracts/uniswap/libraries/base64.sol\":1033:1034  1 */\n      0x01\n        /* \"contracts/uniswap/libraries/base64.sol\":1022:1034  len % 3 == 1 */\n      eq\n        /* \"contracts/uniswap/libraries/base64.sol\":1018:1213  if (len % 3 == 1) {\r... */\n      iszero\n      tag_182\n      jumpi\n        /* \"contracts/uniswap/libraries/base64.sol\":1051:1079  result[encodedLen - 2] = \"=\" */\n      0x3d00000000000000000000000000000000000000000000000000000000000000\n        /* \"contracts/uniswap/libraries/base64.sol\":1051:1057  result */\n      dup4\n        /* \"contracts/uniswap/libraries/base64.sol\":1071:1072  2 */\n      0x02\n        /* \"contracts/uniswap/libraries/base64.sol\":1058:1068  encodedLen */\n      dup7\n        /* \"contracts/uniswap/libraries/base64.sol\":1058:1072  encodedLen - 2 */\n      sub\n        /* \"contracts/uniswap/libraries/base64.sol\":1051:1073  result[encodedLen - 2] */\n      dup2\n      mload\n      dup2\n      lt\n      tag_183\n      jumpi\n      invalid\n    tag_183:\n      0x20\n      add\n      add\n        /* \"contracts/uniswap/libraries/base64.sol\":1051:1079  result[encodedLen - 2] = \"=\" */\n      swap1\n      not(0xffffffffffffffffffffffffffffffffffffffffffffffffffffffffffffff)\n      and\n      swap1\n      dup2\n      0x00\n      byte\n      swap1\n      mstore8\n      pop\n        /* \"contracts/uniswap/libraries/base64.sol\":1094:1122  result[encodedLen - 1] = \"=\" */\n      0x3d00000000000000000000000000000000000000000000000000000000000000\n        /* \"contracts/uniswap/libraries/base64.sol\":1094:1100  result */\n      dup4\n        /* \"contracts/uniswap/libraries/base64.sol\":1114:1115  1 */\n      0x01\n        /* \"contracts/uniswap/libraries/base64.sol\":1101:1111  encodedLen */\n      dup7\n        /* \"contracts/uniswap/libraries/base64.sol\":1101:1115  encodedLen - 1 */\n      sub\n        /* \"contracts/uniswap/libraries/base64.sol\":1094:1116  result[encodedLen - 1] */\n      dup2\n      mload\n      dup2\n      lt\n      tag_184\n      jumpi\n      invalid\n    tag_184:\n      0x20\n      add\n      add\n        /* \"contracts/uniswap/libraries/base64.sol\":1094:1122  result[encodedLen - 1] = \"=\" */\n      swap1\n      not(0xffffffffffffffffffffffffffffffffffffffffffffffffffffffffffffff)\n      and\n      swap1\n      dup2\n      0x00\n      byte\n      swap1\n      mstore8\n      pop\n        /* \"contracts/uniswap/libraries/base64.sol\":1018:1213  if (len % 3 == 1) {\r... */\n      jump(tag_187)\n    tag_182:\n        /* \"contracts/uniswap/libraries/base64.sol\":1150:1151  3 */\n      0x03\n        /* \"contracts/uniswap/libraries/base64.sol\":1144:1147  len */\n      dup6\n        /* \"contracts/uniswap/libraries/base64.sol\":1144:1151  len % 3 */\n      mod\n        /* \"contracts/uniswap/libraries/base64.sol\":1155:1156  2 */\n      0x02\n        /* \"contracts/uniswap/libraries/base64.sol\":1144:1156  len % 3 == 2 */\n      eq\n        /* \"contracts/uniswap/libraries/base64.sol\":1140:1213  if (len % 3 == 2) {\r... */\n      iszero\n      tag_187\n      jumpi\n        /* \"contracts/uniswap/libraries/base64.sol\":1173:1201  result[encodedLen - 1] = \"=\" */\n      0x3d00000000000000000000000000000000000000000000000000000000000000\n        /* \"contracts/uniswap/libraries/base64.sol\":1173:1179  result */\n      dup4\n        /* \"contracts/uniswap/libraries/base64.sol\":1193:1194  1 */\n      0x01\n        /* \"contracts/uniswap/libraries/base64.sol\":1180:1190  encodedLen */\n      dup7\n        /* \"contracts/uniswap/libraries/base64.sol\":1180:1194  encodedLen - 1 */\n      sub\n        /* \"contracts/uniswap/libraries/base64.sol\":1173:1195  result[encodedLen - 1] */\n      dup2\n      mload\n      dup2\n      lt\n      tag_188\n      jumpi\n      invalid\n    tag_188:\n      0x20\n      add\n      add\n        /* \"contracts/uniswap/libraries/base64.sol\":1173:1201  result[encodedLen - 1] = \"=\" */\n      swap1\n      not(0xffffffffffffffffffffffffffffffffffffffffffffffffffffffffffffff)\n      and\n      swap1\n      dup2\n      0x00\n      byte\n      swap1\n      mstore8\n      pop\n        /* \"contracts/uniswap/libraries/base64.sol\":1140:1213  if (len % 3 == 2) {\r... */\n    tag_187:\n      pop\n        /* \"contracts/uniswap/libraries/base64.sol\":1237:1243  result */\n      swap1\n      swap6\n        /* \"contracts/uniswap/libraries/base64.sol\":185:1252  function encode(bytes memory data) internal pure returns (string memory) {\r... */\n      swap5\n      pop\n      pop\n      pop\n      pop\n      pop\n      jump\t// out\n        /* \"@openzeppelin/contracts/math/SafeMath.sol\":3128:3283  function sub(uint256 a, uint256 b) internal pure returns (uint256) {... */\n    tag_51:\n        /* \"@openzeppelin/contracts/math/SafeMath.sol\":3186:3193  uint256 */\n      0x00\n        /* \"@openzeppelin/contracts/math/SafeMath.sol\":3218:3219  a */\n      dup3\n        /* \"@openzeppelin/contracts/math/SafeMath.sol\":3213:3214  b */\n      dup3\n        /* \"@openzeppelin/contracts/math/SafeMath.sol\":3213:3219  b <= a */\n      gt\n      iszero\n        /* \"@openzeppelin/contracts/math/SafeMath.sol\":3205:3254  require(b <= a, \"SafeMath: subtraction overflow\") */\n      tag_190\n      jumpi\n      0x00\n      dup1\n      revert\n    tag_190:\n      pop\n        /* \"@openzeppelin/contracts/math/SafeMath.sol\":3271:3276  a - b */\n      swap1\n      sub\n      swap1\n        /* \"@openzeppelin/contracts/math/SafeMath.sol\":3128:3283  function sub(uint256 a, uint256 b) internal pure returns (uint256) {... */\n      jump\t// out\n        /* \"@openzeppelin/contracts/math/SafeMath.sol\":2682:2857  function add(uint256 a, uint256 b) internal pure returns (uint256) {... */\n    tag_63:\n        /* \"@openzeppelin/contracts/math/SafeMath.sol\":2740:2747  uint256 */\n      0x00\n        /* \"@openzeppelin/contracts/math/SafeMath.sol\":2771:2776  a + b */\n      dup3\n      dup3\n      add\n        /* \"@openzeppelin/contracts/math/SafeMath.sol\":2794:2800  c >= a */\n      dup4\n      dup2\n      lt\n      iszero\n        /* \"@openzeppelin/contracts/math/SafeMath.sol\":2786:2832  require(c >= a, \"SafeMath: addition overflow\") */\n      tag_116\n      jumpi\n      0x00\n      dup1\n      revert\n        /* \"@openzeppelin/contracts/math/SafeMath.sol\":4209:4359  function div(uint256 a, uint256 b) internal pure returns (uint256) {... */\n    tag_78:\n        /* \"@openzeppelin/contracts/math/SafeMath.sol\":4267:4274  uint256 */\n      0x00\n        /* \"@openzeppelin/contracts/math/SafeMath.sol\":4298:4299  0 */\n      dup1\n        /* \"@openzeppelin/contracts/math/SafeMath.sol\":4294:4295  b */\n      dup3\n        /* \"@openzeppelin/contracts/math/SafeMath.sol\":4294:4299  b > 0 */\n      gt\n        /* \"@openzeppelin/contracts/math/SafeMath.sol\":4286:4330  require(b > 0, \"SafeMath: division by zero\") */\n      tag_194\n      jumpi\n      0x00\n      dup1\n      revert\n    tag_194:\n        /* \"@openzeppelin/contracts/math/SafeMath.sol\":4351:4352  b */\n      dup2\n        /* \"@openzeppelin/contracts/math/SafeMath.sol\":4347:4348  a */\n      dup4\n        /* \"@openzeppelin/contracts/math/SafeMath.sol\":4347:4352  a / b */\n      dup2\n      tag_195\n      jumpi\n      invalid\n    tag_195:\n      div\n      swap4\n        /* \"@openzeppelin/contracts/math/SafeMath.sol\":4209:4359  function div(uint256 a, uint256 b) internal pure returns (uint256) {... */\n      swap3\n      pop\n      pop\n      pop\n      jump\t// out\n        /* \"contracts/uniswap/libraries/NFTDescriptor.sol\":7431:8398  function generateDecimalString(DecimalStringParams memory params) private pure returns (string memory) {... */\n    tag_83:\n        /* \"contracts/uniswap/libraries/NFTDescriptor.sol\":7519:7532  string memory */\n      0x60\n        /* \"contracts/uniswap/libraries/NFTDescriptor.sol\":7544:7563  bytes memory buffer */\n      0x00\n        /* \"contracts/uniswap/libraries/NFTDescriptor.sol\":7576:7582  params */\n      dup3\n        /* \"contracts/uniswap/libraries/NFTDescriptor.sol\":7576:7595  params.bufferLength */\n      0x20\n      add\n      mload\n        /* \"contracts/uniswap/libraries/NFTDescriptor.sol\":7566:7596  new bytes(params.bufferLength) */\n      0xff\n      and\n      0xffffffffffffffff\n      dup2\n      gt\n      dup1\n      iszero\n      tag_197\n      jumpi\n      0x00\n      dup1\n      revert\n    tag_197:\n      pop\n      mload(0x40)\n      swap1\n      dup1\n      dup3\n      mstore\n      dup1\n      0x1f\n      add\n      not(0x1f)\n      and\n      0x20\n      add\n      dup3\n      add\n      0x40\n      mstore\n      dup1\n      iszero\n      tag_198\n      jumpi\n      0x20\n      dup3\n      add\n      dup2\n      dup1\n      calldatasize\n      dup4\n      calldatacopy\n      add\n      swap1\n      pop\n    tag_198:\n      pop\n        /* \"contracts/uniswap/libraries/NFTDescriptor.sol\":7544:7596  bytes memory buffer = new bytes(params.bufferLength) */\n      swap1\n      pop\n        /* \"contracts/uniswap/libraries/NFTDescriptor.sol\":7610:7616  params */\n      dup3\n        /* \"contracts/uniswap/libraries/NFTDescriptor.sol\":7610:7626  params.isPercent */\n      0xe0\n      add\n      mload\n        /* \"contracts/uniswap/libraries/NFTDescriptor.sol\":7606:7684  if (params.isPercent) {... */\n      iszero\n      tag_199\n      jumpi\n        /* \"contracts/uniswap/libraries/NFTDescriptor.sol\":7642:7673  buffer[buffer.length - 1] = '%' */\n      0x2500000000000000000000000000000000000000000000000000000000000000\n        /* \"contracts/uniswap/libraries/NFTDescriptor.sol\":7642:7648  buffer */\n      dup2\n        /* \"contracts/uniswap/libraries/NFTDescriptor.sol\":7665:7666  1 */\n      0x01\n        /* \"contracts/uniswap/libraries/NFTDescriptor.sol\":7649:7655  buffer */\n      dup4\n        /* \"contracts/uniswap/libraries/NFTDescriptor.sol\":7649:7662  buffer.length */\n      mload\n        /* \"contracts/uniswap/libraries/NFTDescriptor.sol\":7649:7666  buffer.length - 1 */\n      sub\n        /* \"contracts/uniswap/libraries/NFTDescriptor.sol\":7642:7667  buffer[buffer.length - 1] */\n      dup2\n      mload\n      dup2\n      lt\n      tag_200\n      jumpi\n      invalid\n    tag_200:\n      0x20\n      add\n      add\n        /* \"contracts/uniswap/libraries/NFTDescriptor.sol\":7642:7673  buffer[buffer.length - 1] = '%' */\n      swap1\n      not(0xffffffffffffffffffffffffffffffffffffffffffffffffffffffffffffff)\n      and\n      swap1\n      dup2\n      0x00\n      byte\n      swap1\n      mstore8\n      pop\n        /* \"contracts/uniswap/libraries/NFTDescriptor.sol\":7606:7684  if (params.isPercent) {... */\n    tag_199:\n        /* \"contracts/uniswap/libraries/NFTDescriptor.sol\":7697:7703  params */\n      dup3\n        /* \"contracts/uniswap/libraries/NFTDescriptor.sol\":7697:7717  params.isLessThanOne */\n      0xc0\n      add\n      mload\n        /* \"contracts/uniswap/libraries/NFTDescriptor.sol\":7693:7788  if (params.isLessThanOne) {... */\n      iszero\n      tag_201\n      jumpi\n        /* \"contracts/uniswap/libraries/NFTDescriptor.sol\":7733:7748  buffer[0] = '0' */\n      0x3000000000000000000000000000000000000000000000000000000000000000\n        /* \"contracts/uniswap/libraries/NFTDescriptor.sol\":7733:7739  buffer */\n      dup2\n        /* \"contracts/uniswap/libraries/NFTDescriptor.sol\":7740:7741  0 */\n      0x00\n        /* \"contracts/uniswap/libraries/NFTDescriptor.sol\":7733:7742  buffer[0] */\n      dup2\n      mload\n      dup2\n      lt\n      tag_202\n      jumpi\n      invalid\n    tag_202:\n      0x20\n      add\n      add\n        /* \"contracts/uniswap/libraries/NFTDescriptor.sol\":7733:7748  buffer[0] = '0' */\n      swap1\n      not(0xffffffffffffffffffffffffffffffffffffffffffffffffffffffffffffff)\n      and\n      swap1\n      dup2\n      0x00\n      byte\n      swap1\n      mstore8\n      pop\n        /* \"contracts/uniswap/libraries/NFTDescriptor.sol\":7762:7777  buffer[1] = '.' */\n      0x2e00000000000000000000000000000000000000000000000000000000000000\n        /* \"contracts/uniswap/libraries/NFTDescriptor.sol\":7762:7768  buffer */\n      dup2\n        /* \"contracts/uniswap/libraries/NFTDescriptor.sol\":7769:7770  1 */\n      0x01\n        /* \"contracts/uniswap/libraries/NFTDescriptor.sol\":7762:7771  buffer[1] */\n      dup2\n      mload\n      dup2\n      lt\n      tag_203\n      jumpi\n      invalid\n    tag_203:\n      0x20\n      add\n      add\n        /* \"contracts/uniswap/libraries/NFTDescriptor.sol\":7762:7777  buffer[1] = '.' */\n      swap1\n      not(0xffffffffffffffffffffffffffffffffffffffffffffffffffffffffffffff)\n      and\n      swap1\n      dup2\n      0x00\n      byte\n      swap1\n      mstore8\n      pop\n        /* \"contracts/uniswap/libraries/NFTDescriptor.sol\":7693:7788  if (params.isLessThanOne) {... */\n    tag_201:\n        /* \"contracts/uniswap/libraries/NFTDescriptor.sol\":7861:7883  params.zerosStartIndex */\n      0x80\n      dup4\n      add\n      mload\n        /* \"contracts/uniswap/libraries/NFTDescriptor.sol\":7839:7883  uint256 zerosCursor = params.zerosStartIndex */\n      0xff\n      and\n        /* \"contracts/uniswap/libraries/NFTDescriptor.sol\":7834:8007  for (uint256 zerosCursor = params.zerosStartIndex; zerosCursor < params.zerosEndIndex.add(1); zerosCursor++) {... */\n    tag_204:\n        /* \"contracts/uniswap/libraries/NFTDescriptor.sol\":7899:7919  params.zerosEndIndex */\n      0xa0\n      dup5\n      add\n      mload\n        /* \"contracts/uniswap/libraries/NFTDescriptor.sol\":7899:7926  params.zerosEndIndex.add(1) */\n      tag_207\n      swap1\n        /* \"contracts/uniswap/libraries/NFTDescriptor.sol\":7899:7923  params.zerosEndIndex.add */\n      0xff\n      and\n        /* \"contracts/uniswap/libraries/NFTDescriptor.sol\":7924:7925  1 */\n      0x01\n        /* \"contracts/uniswap/libraries/NFTDescriptor.sol\":7899:7923  params.zerosEndIndex.add */\n      tag_63\n        /* \"contracts/uniswap/libraries/NFTDescriptor.sol\":7899:7926  params.zerosEndIndex.add(1) */\n      jump\t// in\n    tag_207:\n        /* \"contracts/uniswap/libraries/NFTDescriptor.sol\":7885:7896  zerosCursor */\n      dup2\n        /* \"contracts/uniswap/libraries/NFTDescriptor.sol\":7885:7926  zerosCursor < params.zerosEndIndex.add(1) */\n      lt\n        /* \"contracts/uniswap/libraries/NFTDescriptor.sol\":7834:8007  for (uint256 zerosCursor = params.zerosStartIndex; zerosCursor < params.zerosEndIndex.add(1); zerosCursor++) {... */\n      iszero\n      tag_205\n      jumpi\n        /* \"contracts/uniswap/libraries/NFTDescriptor.sol\":7992:7994  48 */\n      0x30\n        /* \"contracts/uniswap/libraries/NFTDescriptor.sol\":7979:7996  bytes1(uint8(48)) */\n      0xf8\n      shl\n        /* \"contracts/uniswap/libraries/NFTDescriptor.sol\":7957:7963  buffer */\n      dup3\n        /* \"contracts/uniswap/libraries/NFTDescriptor.sol\":7964:7975  zerosCursor */\n      dup3\n        /* \"contracts/uniswap/libraries/NFTDescriptor.sol\":7957:7976  buffer[zerosCursor] */\n      dup2\n      mload\n      dup2\n      lt\n      tag_208\n      jumpi\n      invalid\n    tag_208:\n      0x20\n      add\n      add\n        /* \"contracts/uniswap/libraries/NFTDescriptor.sol\":7957:7996  buffer[zerosCursor] = bytes1(uint8(48)) */\n      swap1\n      not(0xffffffffffffffffffffffffffffffffffffffffffffffffffffffffffffff)\n      and\n      swap1\n      dup2\n      0x00\n      byte\n      swap1\n      mstore8\n      pop\n        /* \"contracts/uniswap/libraries/NFTDescriptor.sol\":7928:7941  zerosCursor++ */\n      0x01\n      add\n        /* \"contracts/uniswap/libraries/NFTDescriptor.sol\":7834:8007  for (uint256 zerosCursor = params.zerosStartIndex; zerosCursor < params.zerosEndIndex.add(1); zerosCursor++) {... */\n      jump(tag_204)\n    tag_205:\n      pop\n        /* \"contracts/uniswap/libraries/NFTDescriptor.sol\":8039:8361  while (params.sigfigs > 0) {... */\n    tag_209:\n        /* \"contracts/uniswap/libraries/NFTDescriptor.sol\":8046:8060  params.sigfigs */\n      dup3\n      mload\n        /* \"contracts/uniswap/libraries/NFTDescriptor.sol\":8046:8064  params.sigfigs > 0 */\n      iszero\n        /* \"contracts/uniswap/libraries/NFTDescriptor.sol\":8039:8361  while (params.sigfigs > 0) {... */\n      tag_84\n      jumpi\n        /* \"contracts/uniswap/libraries/NFTDescriptor.sol\":8106:8107  0 */\n      0x00\n        /* \"contracts/uniswap/libraries/NFTDescriptor.sol\":8084:8090  params */\n      dup4\n        /* \"contracts/uniswap/libraries/NFTDescriptor.sol\":8084:8103  params.decimalIndex */\n      0x60\n      add\n      mload\n        /* \"contracts/uniswap/libraries/NFTDescriptor.sol\":8084:8107  params.decimalIndex > 0 */\n      0xff\n      and\n      gt\n        /* \"contracts/uniswap/libraries/NFTDescriptor.sol\":8084:8152  params.decimalIndex > 0 && params.sigfigIndex == params.decimalIndex */\n      dup1\n      iszero\n      tag_211\n      jumpi\n      pop\n        /* \"contracts/uniswap/libraries/NFTDescriptor.sol\":8133:8139  params */\n      dup3\n        /* \"contracts/uniswap/libraries/NFTDescriptor.sol\":8133:8152  params.decimalIndex */\n      0x60\n      add\n      mload\n        /* \"contracts/uniswap/libraries/NFTDescriptor.sol\":8111:8152  params.sigfigIndex == params.decimalIndex */\n      0xff\n      and\n        /* \"contracts/uniswap/libraries/NFTDescriptor.sol\":8111:8117  params */\n      dup4\n        /* \"contracts/uniswap/libraries/NFTDescriptor.sol\":8111:8129  params.sigfigIndex */\n      0x40\n      add\n      mload\n        /* \"contracts/uniswap/libraries/NFTDescriptor.sol\":8111:8152  params.sigfigIndex == params.decimalIndex */\n      0xff\n      and\n      eq\n        /* \"contracts/uniswap/libraries/NFTDescriptor.sol\":8084:8152  params.decimalIndex > 0 && params.sigfigIndex == params.decimalIndex */\n    tag_211:\n        /* \"contracts/uniswap/libraries/NFTDescriptor.sol\":8080:8221  if (params.decimalIndex > 0 && params.sigfigIndex == params.decimalIndex) {... */\n      iszero\n      tag_212\n      jumpi\n        /* \"contracts/uniswap/libraries/NFTDescriptor.sol\":8179:8197  params.sigfigIndex */\n      0x40\n      dup4\n      add\n        /* \"contracts/uniswap/libraries/NFTDescriptor.sol\":8179:8199  params.sigfigIndex-- */\n      dup1\n      mload\n      0xff\n      not(0x00)\n      dup3\n      add\n      dup2\n      and\n      swap1\n      swap3\n      mstore\n        /* \"contracts/uniswap/libraries/NFTDescriptor.sol\":8172:8200  buffer[params.sigfigIndex--] */\n      dup3\n      mload\n        /* \"contracts/uniswap/libraries/NFTDescriptor.sol\":8172:8206  buffer[params.sigfigIndex--] = '.' */\n      0x2e00000000000000000000000000000000000000000000000000000000000000\n      swap3\n        /* \"contracts/uniswap/libraries/NFTDescriptor.sol\":8172:8178  buffer */\n      dup5\n      swap3\n        /* \"contracts/uniswap/libraries/NFTDescriptor.sol\":8172:8200  buffer[params.sigfigIndex--] */\n      and\n      swap1\n      dup2\n      lt\n      tag_213\n      jumpi\n      invalid\n    tag_213:\n      0x20\n      add\n      add\n        /* \"contracts/uniswap/libraries/NFTDescriptor.sol\":8172:8206  buffer[params.sigfigIndex--] = '.' */\n      swap1\n      not(0xffffffffffffffffffffffffffffffffffffffffffffffffffffffffffffff)\n      and\n      swap1\n      dup2\n      0x00\n      byte\n      swap1\n      mstore8\n      pop\n        /* \"contracts/uniswap/libraries/NFTDescriptor.sol\":8080:8221  if (params.decimalIndex > 0 && params.sigfigIndex == params.decimalIndex) {... */\n    tag_212:\n        /* \"contracts/uniswap/libraries/NFTDescriptor.sol\":8294:8308  params.sigfigs */\n      dup3\n      mload\n        /* \"contracts/uniswap/libraries/NFTDescriptor.sol\":8278:8314  uint256(48).add(params.sigfigs % 10) */\n      tag_214\n      swap1\n        /* \"contracts/uniswap/libraries/NFTDescriptor.sol\":8286:8288  48 */\n      0x30\n      swap1\n        /* \"contracts/uniswap/libraries/NFTDescriptor.sol\":8311:8313  10 */\n      0x0a\n        /* \"contracts/uniswap/libraries/NFTDescriptor.sol\":8294:8313  params.sigfigs % 10 */\n      swap1\n      mod\n        /* \"contracts/uniswap/libraries/NFTDescriptor.sol\":8278:8293  uint256(48).add */\n      tag_63\n        /* \"contracts/uniswap/libraries/NFTDescriptor.sol\":8278:8314  uint256(48).add(params.sigfigs % 10) */\n      jump\t// in\n    tag_214:\n        /* \"contracts/uniswap/libraries/NFTDescriptor.sol\":8265:8316  bytes1(uint8(uint256(48).add(params.sigfigs % 10))) */\n      0xf8\n      shl\n        /* \"contracts/uniswap/libraries/NFTDescriptor.sol\":8234:8240  buffer */\n      dup2\n        /* \"contracts/uniswap/libraries/NFTDescriptor.sol\":8241:8247  params */\n      dup5\n        /* \"contracts/uniswap/libraries/NFTDescriptor.sol\":8241:8259  params.sigfigIndex */\n      0x40\n      add\n        /* \"contracts/uniswap/libraries/NFTDescriptor.sol\":8241:8261  params.sigfigIndex-- */\n      dup1\n      mload\n      dup1\n      swap2\n      swap1\n      0x01\n      swap1\n      sub\n      0xff\n      and\n      0xff\n      and\n      dup2\n      mstore\n      pop\n        /* \"contracts/uniswap/libraries/NFTDescriptor.sol\":8234:8262  buffer[params.sigfigIndex--] */\n      0xff\n      and\n      dup2\n      mload\n      dup2\n      lt\n      tag_216\n      jumpi\n      invalid\n    tag_216:\n      0x20\n      add\n      add\n        /* \"contracts/uniswap/libraries/NFTDescriptor.sol\":8234:8316  buffer[params.sigfigIndex--] = bytes1(uint8(uint256(48).add(params.sigfigs % 10))) */\n      swap1\n      not(0xffffffffffffffffffffffffffffffffffffffffffffffffffffffffffffff)\n      and\n      swap1\n      dup2\n      0x00\n      byte\n      swap1\n      mstore8\n      pop\n        /* \"contracts/uniswap/libraries/NFTDescriptor.sol\":8348:8350  10 */\n      0x0a\n        /* \"contracts/uniswap/libraries/NFTDescriptor.sol\":8330:8336  params */\n      dup4\n        /* \"contracts/uniswap/libraries/NFTDescriptor.sol\":8330:8344  params.sigfigs */\n      0x00\n      add\n        /* \"contracts/uniswap/libraries/NFTDescriptor.sol\":8330:8350  params.sigfigs /= 10 */\n      dup2\n      dup2\n      mload\n      dup2\n      tag_217\n      jumpi\n      invalid\n    tag_217:\n      div\n      swap1\n      mstore\n      pop\n        /* \"contracts/uniswap/libraries/NFTDescriptor.sol\":8039:8361  while (params.sigfigs > 0) {... */\n      jump(tag_209)\n        /* \"contracts/uniswap/libraries/NFTDescriptor.sol\":8404:9181  function tickToDecimalString(... */\n    tag_90:\n        /* \"contracts/uniswap/libraries/NFTDescriptor.sol\":8600:8613  string memory */\n      0x60\n        /* \"contracts/uniswap/libraries/NFTDescriptor.sol\":8673:8684  tickSpacing */\n      dup5\n        /* \"contracts/uniswap/libraries/NFTDescriptor.sol\":8638:8669  TickMath.MIN_TICK / tickSpacing */\n      0x02\n      dup2\n      swap1\n      signextend\n        /* \"@uniswap/v3-core/contracts/libraries/TickMath.sol\":484:491  -887272 */\n      0xfffffffffffffffffffffffffffffffffffffffffffffffffffffffffff27618\n        /* \"contracts/uniswap/libraries/NFTDescriptor.sol\":8638:8669  TickMath.MIN_TICK / tickSpacing */\n      dup2\n      tag_219\n      jumpi\n      invalid\n    tag_219:\n      sdiv\n        /* \"contracts/uniswap/libraries/NFTDescriptor.sol\":8637:8684  (TickMath.MIN_TICK / tickSpacing) * tickSpacing */\n      mul\n        /* \"contracts/uniswap/libraries/NFTDescriptor.sol\":8629:8684  tick == (TickMath.MIN_TICK / tickSpacing) * tickSpacing */\n      0x02\n      signextend\n        /* \"contracts/uniswap/libraries/NFTDescriptor.sol\":8629:8633  tick */\n      dup7\n        /* \"contracts/uniswap/libraries/NFTDescriptor.sol\":8629:8684  tick == (TickMath.MIN_TICK / tickSpacing) * tickSpacing */\n      0x02\n      signextend\n      eq\n        /* \"contracts/uniswap/libraries/NFTDescriptor.sol\":8625:9175  if (tick == (TickMath.MIN_TICK / tickSpacing) * tickSpacing) {... */\n      iszero\n      tag_220\n      jumpi\n        /* \"contracts/uniswap/libraries/NFTDescriptor.sol\":8708:8717  flipRatio */\n      dup2\n        /* \"contracts/uniswap/libraries/NFTDescriptor.sol\":8707:8717  !flipRatio */\n      iszero\n        /* \"contracts/uniswap/libraries/NFTDescriptor.sol\":8707:8733  !flipRatio ? 'MIN' : 'MAX' */\n      tag_221\n      jumpi\n      mload(0x40)\n      dup1\n      0x40\n      add\n      0x40\n      mstore\n      dup1\n      0x03\n      dup2\n      mstore\n      0x20\n      add\n      0x4d41580000000000000000000000000000000000000000000000000000000000\n      dup2\n      mstore\n      pop\n      jump(tag_222)\n    tag_221:\n      mload(0x40)\n      dup1\n      0x40\n      add\n      0x40\n      mstore\n      dup1\n      0x03\n      dup2\n      mstore\n      0x20\n      add\n      0x4d494e0000000000000000000000000000000000000000000000000000000000\n      dup2\n      mstore\n      pop\n    tag_222:\n        /* \"contracts/uniswap/libraries/NFTDescriptor.sol\":8700:8733  return !flipRatio ? 'MIN' : 'MAX' */\n      swap1\n      pop\n      jump(tag_131)\n        /* \"contracts/uniswap/libraries/NFTDescriptor.sol\":8625:9175  if (tick == (TickMath.MIN_TICK / tickSpacing) * tickSpacing) {... */\n    tag_220:\n        /* \"contracts/uniswap/libraries/NFTDescriptor.sol\":8798:8809  tickSpacing */\n      dup5\n        /* \"contracts/uniswap/libraries/NFTDescriptor.sol\":8763:8794  TickMath.MAX_TICK / tickSpacing */\n      0x02\n      dup2\n      swap1\n      signextend\n        /* \"@uniswap/v3-core/contracts/libraries/TickMath.sol\":644:653  -MIN_TICK */\n      0x0d89e8\n        /* \"contracts/uniswap/libraries/NFTDescriptor.sol\":8763:8794  TickMath.MAX_TICK / tickSpacing */\n      dup2\n      tag_224\n      jumpi\n      invalid\n    tag_224:\n      sdiv\n        /* \"contracts/uniswap/libraries/NFTDescriptor.sol\":8762:8809  (TickMath.MAX_TICK / tickSpacing) * tickSpacing */\n      mul\n        /* \"contracts/uniswap/libraries/NFTDescriptor.sol\":8754:8809  tick == (TickMath.MAX_TICK / tickSpacing) * tickSpacing */\n      0x02\n      signextend\n        /* \"contracts/uniswap/libraries/NFTDescriptor.sol\":8754:8758  tick */\n      dup7\n        /* \"contracts/uniswap/libraries/NFTDescriptor.sol\":8754:8809  tick == (TickMath.MAX_TICK / tickSpacing) * tickSpacing */\n      0x02\n      signextend\n      eq\n        /* \"contracts/uniswap/libraries/NFTDescriptor.sol\":8750:9175  if (tick == (TickMath.MAX_TICK / tickSpacing) * tickSpacing) {... */\n      iszero\n      tag_225\n      jumpi\n        /* \"contracts/uniswap/libraries/NFTDescriptor.sol\":8833:8842  flipRatio */\n      dup2\n        /* \"contracts/uniswap/libraries/NFTDescriptor.sol\":8832:8842  !flipRatio */\n      iszero\n        /* \"contracts/uniswap/libraries/NFTDescriptor.sol\":8832:8858  !flipRatio ? 'MAX' : 'MIN' */\n      tag_226\n      jumpi\n      mload(0x40)\n      dup1\n      0x40\n      add\n      0x40\n      mstore\n      dup1\n      0x03\n      dup2\n      mstore\n      0x20\n      add\n      0x4d494e0000000000000000000000000000000000000000000000000000000000\n      dup2\n      mstore\n      pop\n      jump(tag_222)\n    tag_226:\n      pop\n      0x40\n      dup1\n      mload\n      dup1\n      dup3\n      add\n      swap1\n      swap2\n      mstore\n      0x03\n      dup2\n      mstore\n      0x4d41580000000000000000000000000000000000000000000000000000000000\n      0x20\n      dup3\n      add\n      mstore\n        /* \"contracts/uniswap/libraries/NFTDescriptor.sol\":8825:8858  return !flipRatio ? 'MAX' : 'MIN' */\n      jump(tag_131)\n        /* \"contracts/uniswap/libraries/NFTDescriptor.sol\":8750:9175  if (tick == (TickMath.MAX_TICK / tickSpacing) * tickSpacing) {... */\n    tag_225:\n        /* \"contracts/uniswap/libraries/NFTDescriptor.sol\":8889:8909  uint160 sqrtRatioX96 */\n      0x00\n        /* \"contracts/uniswap/libraries/NFTDescriptor.sol\":8912:8945  TickMath.getSqrtRatioAtTick(tick) */\n      tag_229\n        /* \"contracts/uniswap/libraries/NFTDescriptor.sol\":8940:8944  tick */\n      dup8\n        /* \"contracts/uniswap/libraries/NFTDescriptor.sol\":8912:8939  TickMath.getSqrtRatioAtTick */\n      tag_230\n        /* \"contracts/uniswap/libraries/NFTDescriptor.sol\":8912:8945  TickMath.getSqrtRatioAtTick(tick) */\n      jump\t// in\n    tag_229:\n        /* \"contracts/uniswap/libraries/NFTDescriptor.sol\":8889:8945  uint160 sqrtRatioX96 = TickMath.getSqrtRatioAtTick(tick) */\n      swap1\n      pop\n        /* \"contracts/uniswap/libraries/NFTDescriptor.sol\":8963:8972  flipRatio */\n      dup3\n        /* \"contracts/uniswap/libraries/NFTDescriptor.sol\":8959:9066  if (flipRatio) {... */\n      iszero\n      tag_231\n      jumpi\n        /* \"contracts/uniswap/libraries/NFTDescriptor.sol\":9015:9050  uint256(1 << 192).div(sqrtRatioX96) */\n      tag_232\n        /* \"contracts/uniswap/libraries/NFTDescriptor.sol\":9023:9031  1 << 192 */\n      0x01000000000000000000000000000000000000000000000000\n        /* \"contracts/uniswap/libraries/NFTDescriptor.sol\":9015:9050  uint256(1 << 192).div(sqrtRatioX96) */\n      0xffffffffffffffffffffffffffffffffffffffff\n      dup4\n      and\n        /* \"contracts/uniswap/libraries/NFTDescriptor.sol\":9015:9036  uint256(1 << 192).div */\n      tag_78\n        /* \"contracts/uniswap/libraries/NFTDescriptor.sol\":9015:9050  uint256(1 << 192).div(sqrtRatioX96) */\n      jump\t// in\n    tag_232:\n        /* \"contracts/uniswap/libraries/NFTDescriptor.sol\":8992:9051  sqrtRatioX96 = uint160(uint256(1 << 192).div(sqrtRatioX96)) */\n      swap1\n      pop\n        /* \"contracts/uniswap/libraries/NFTDescriptor.sol\":8959:9066  if (flipRatio) {... */\n    tag_231:\n        /* \"contracts/uniswap/libraries/NFTDescriptor.sol\":9086:9164  fixedPointToDecimalString(sqrtRatioX96, baseTokenDecimals, quoteTokenDecimals) */\n      tag_233\n        /* \"contracts/uniswap/libraries/NFTDescriptor.sol\":9112:9124  sqrtRatioX96 */\n      dup2\n        /* \"contracts/uniswap/libraries/NFTDescriptor.sol\":9126:9143  baseTokenDecimals */\n      dup7\n        /* \"contracts/uniswap/libraries/NFTDescriptor.sol\":9145:9163  quoteTokenDecimals */\n      dup7\n        /* \"contracts/uniswap/libraries/NFTDescriptor.sol\":9086:9111  fixedPointToDecimalString */\n      tag_234\n        /* \"contracts/uniswap/libraries/NFTDescriptor.sol\":9086:9164  fixedPointToDecimalString(sqrtRatioX96, baseTokenDecimals, quoteTokenDecimals) */\n      jump\t// in\n    tag_233:\n        /* \"contracts/uniswap/libraries/NFTDescriptor.sol\":9079:9164  return fixedPointToDecimalString(sqrtRatioX96, baseTokenDecimals, quoteTokenDecimals) */\n      swap2\n      pop\n      pop\n      jump(tag_131)\n        /* \"contracts/uniswap/libraries/HexStrings.sol\":437:874  function toHexString(uint256 value, uint256 length) internal pure returns (string memory) {... */\n    tag_115:\n        /* \"contracts/uniswap/libraries/HexStrings.sol\":512:525  string memory */\n      0x60\n        /* \"contracts/uniswap/libraries/HexStrings.sol\":537:556  bytes memory buffer */\n      0x00\n        /* \"contracts/uniswap/libraries/HexStrings.sol\":573:579  length */\n      dup3\n        /* \"contracts/uniswap/libraries/HexStrings.sol\":569:570  2 */\n      0x02\n        /* \"contracts/uniswap/libraries/HexStrings.sol\":569:579  2 * length */\n      mul\n        /* \"contracts/uniswap/libraries/HexStrings.sol\":582:583  2 */\n      0x02\n        /* \"contracts/uniswap/libraries/HexStrings.sol\":569:583  2 * length + 2 */\n      add\n        /* \"contracts/uniswap/libraries/HexStrings.sol\":559:584  new bytes(2 * length + 2) */\n      0xffffffffffffffff\n      dup2\n      gt\n      dup1\n      iszero\n      tag_236\n      jumpi\n      0x00\n      dup1\n      revert\n    tag_236:\n      pop\n      mload(0x40)\n      swap1\n      dup1\n      dup3\n      mstore\n      dup1\n      0x1f\n      add\n      not(0x1f)\n      and\n      0x20\n      add\n      dup3\n      add\n      0x40\n      mstore\n      dup1\n      iszero\n      tag_237\n      jumpi\n      0x20\n      dup3\n      add\n      dup2\n      dup1\n      calldatasize\n      dup4\n      calldatacopy\n      add\n      swap1\n      pop\n    tag_237:\n      pop\n        /* \"contracts/uniswap/libraries/HexStrings.sol\":537:584  bytes memory buffer = new bytes(2 * length + 2) */\n      swap1\n      pop\n        /* \"contracts/uniswap/libraries/HexStrings.sol\":594:609  buffer[0] = '0' */\n      0x3000000000000000000000000000000000000000000000000000000000000000\n        /* \"contracts/uniswap/libraries/HexStrings.sol\":594:600  buffer */\n      dup2\n        /* \"contracts/uniswap/libraries/HexStrings.sol\":601:602  0 */\n      0x00\n        /* \"contracts/uniswap/libraries/HexStrings.sol\":594:603  buffer[0] */\n      dup2\n      mload\n      dup2\n      lt\n      tag_238\n      jumpi\n      invalid\n    tag_238:\n      0x20\n      add\n      add\n        /* \"contracts/uniswap/libraries/HexStrings.sol\":594:609  buffer[0] = '0' */\n      swap1\n      not(0xffffffffffffffffffffffffffffffffffffffffffffffffffffffffffffff)\n      and\n      swap1\n      dup2\n      0x00\n      byte\n      swap1\n      mstore8\n      pop\n        /* \"contracts/uniswap/libraries/HexStrings.sol\":619:634  buffer[1] = 'x' */\n      0x7800000000000000000000000000000000000000000000000000000000000000\n        /* \"contracts/uniswap/libraries/HexStrings.sol\":619:625  buffer */\n      dup2\n        /* \"contracts/uniswap/libraries/HexStrings.sol\":626:627  1 */\n      0x01\n        /* \"contracts/uniswap/libraries/HexStrings.sol\":619:628  buffer[1] */\n      dup2\n      mload\n      dup2\n      lt\n      tag_239\n      jumpi\n      invalid\n    tag_239:\n      0x20\n      add\n      add\n        /* \"contracts/uniswap/libraries/HexStrings.sol\":619:634  buffer[1] = 'x' */\n      swap1\n      not(0xffffffffffffffffffffffffffffffffffffffffffffffffffffffffffffff)\n      and\n      swap1\n      dup2\n      0x00\n      byte\n      swap1\n      mstore8\n      pop\n        /* \"contracts/uniswap/libraries/HexStrings.sol\":674:675  1 */\n      0x01\n        /* \"contracts/uniswap/libraries/HexStrings.sol\":661:662  2 */\n      0x02\n        /* \"contracts/uniswap/libraries/HexStrings.sol\":661:671  2 * length */\n      dup5\n      mul\n        /* \"contracts/uniswap/libraries/HexStrings.sol\":661:675  2 * length + 1 */\n      add\n        /* \"contracts/uniswap/libraries/HexStrings.sol\":644:772  for (uint256 i = 2 * length + 1; i > 1; --i) {... */\n    tag_240:\n        /* \"contracts/uniswap/libraries/HexStrings.sol\":681:682  1 */\n      0x01\n        /* \"contracts/uniswap/libraries/HexStrings.sol\":677:678  i */\n      dup2\n        /* \"contracts/uniswap/libraries/HexStrings.sol\":677:682  i > 1 */\n      gt\n        /* \"contracts/uniswap/libraries/HexStrings.sol\":644:772  for (uint256 i = 2 * length + 1; i > 1; --i) {... */\n      iszero\n      tag_241\n      jumpi\n        /* \"contracts/uniswap/libraries/HexStrings.sol\":715:723  ALPHABET */\n      0x3031323334353637383961626364656600000000000000000000000000000000\n        /* \"contracts/uniswap/libraries/HexStrings.sol\":724:729  value */\n      dup6\n        /* \"contracts/uniswap/libraries/HexStrings.sol\":732:735  0xf */\n      0x0f\n        /* \"contracts/uniswap/libraries/HexStrings.sol\":724:735  value & 0xf */\n      and\n        /* \"contracts/uniswap/libraries/HexStrings.sol\":715:736  ALPHABET[value & 0xf] */\n      0x10\n      dup2\n      lt\n      tag_243\n      jumpi\n      invalid\n    tag_243:\n      byte\n      0xf8\n      shl\n        /* \"contracts/uniswap/libraries/HexStrings.sol\":703:709  buffer */\n      dup3\n        /* \"contracts/uniswap/libraries/HexStrings.sol\":710:711  i */\n      dup3\n        /* \"contracts/uniswap/libraries/HexStrings.sol\":703:712  buffer[i] */\n      dup2\n      mload\n      dup2\n      lt\n      tag_244\n      jumpi\n      invalid\n    tag_244:\n      0x20\n      add\n      add\n        /* \"contracts/uniswap/libraries/HexStrings.sol\":703:736  buffer[i] = ALPHABET[value & 0xf] */\n      swap1\n      not(0xffffffffffffffffffffffffffffffffffffffffffffffffffffffffffffff)\n      and\n      swap1\n      dup2\n      0x00\n      byte\n      swap1\n      mstore8\n      pop\n        /* \"contracts/uniswap/libraries/HexStrings.sol\":760:761  4 */\n      0x04\n        /* \"contracts/uniswap/libraries/HexStrings.sol\":750:761  value >>= 4 */\n      swap5\n      swap1\n      swap5\n      shr\n      swap4\n      not(0x00)\n        /* \"contracts/uniswap/libraries/HexStrings.sol\":684:687  --i */\n      add\n        /* \"contracts/uniswap/libraries/HexStrings.sol\":644:772  for (uint256 i = 2 * length + 1; i > 1; --i) {... */\n      jump(tag_240)\n    tag_241:\n      pop\n        /* \"contracts/uniswap/libraries/HexStrings.sol\":789:799  value == 0 */\n      dup4\n      iszero\n        /* \"contracts/uniswap/libraries/HexStrings.sol\":781:836  require(value == 0, 'Strings: hex length insufficient') */\n      tag_116\n      jumpi\n      0x00\n      dup1\n      revert\n        /* \"contracts/uniswap/libraries/NFTDescriptor.sol\":17189:17505  function overRange(... */\n    tag_139:\n        /* \"contracts/uniswap/libraries/NFTDescriptor.sol\":17313:17317  int8 */\n      0x00\n        /* \"contracts/uniswap/libraries/NFTDescriptor.sol\":17347:17356  tickLower */\n      dup4\n        /* \"contracts/uniswap/libraries/NFTDescriptor.sol\":17333:17356  tickCurrent < tickLower */\n      0x02\n      signextend\n        /* \"contracts/uniswap/libraries/NFTDescriptor.sol\":17333:17344  tickCurrent */\n      dup3\n        /* \"contracts/uniswap/libraries/NFTDescriptor.sol\":17333:17356  tickCurrent < tickLower */\n      0x02\n      signextend\n      slt\n        /* \"contracts/uniswap/libraries/NFTDescriptor.sol\":17329:17499  if (tickCurrent < tickLower) {... */\n      iszero\n      tag_247\n      jumpi\n      pop\n      not(0x00)\n        /* \"contracts/uniswap/libraries/NFTDescriptor.sol\":17372:17381  return -1 */\n      jump(tag_116)\n        /* \"contracts/uniswap/libraries/NFTDescriptor.sol\":17329:17499  if (tickCurrent < tickLower) {... */\n    tag_247:\n        /* \"contracts/uniswap/libraries/NFTDescriptor.sol\":17416:17425  tickUpper */\n      dup3\n        /* \"contracts/uniswap/libraries/NFTDescriptor.sol\":17402:17425  tickCurrent > tickUpper */\n      0x02\n      signextend\n        /* \"contracts/uniswap/libraries/NFTDescriptor.sol\":17402:17413  tickCurrent */\n      dup3\n        /* \"contracts/uniswap/libraries/NFTDescriptor.sol\":17402:17425  tickCurrent > tickUpper */\n      0x02\n      signextend\n      sgt\n        /* \"contracts/uniswap/libraries/NFTDescriptor.sol\":17398:17499  if (tickCurrent > tickUpper) {... */\n      iszero\n      tag_249\n      jumpi\n      pop\n        /* \"contracts/uniswap/libraries/NFTDescriptor.sol\":17448:17449  1 */\n      0x01\n        /* \"contracts/uniswap/libraries/NFTDescriptor.sol\":17441:17449  return 1 */\n      jump(tag_116)\n        /* \"contracts/uniswap/libraries/NFTDescriptor.sol\":17398:17499  if (tickCurrent > tickUpper) {... */\n    tag_249:\n      pop\n        /* \"contracts/uniswap/libraries/NFTDescriptor.sol\":17487:17488  0 */\n      0x00\n        /* \"contracts/uniswap/libraries/NFTDescriptor.sol\":17480:17488  return 0 */\n      jump(tag_116)\n        /* \"contracts/uniswap/libraries/NFTDescriptor.sol\":17785:17955  function tokenToColorHex(uint256 token, uint256 offset) internal pure returns (string memory str) {... */\n    tag_141:\n        /* \"contracts/uniswap/libraries/NFTDescriptor.sol\":17864:17881  string memory str */\n      0x60\n        /* \"contracts/uniswap/libraries/NFTDescriptor.sol\":17907:17947  (token >> offset).toHexStringNoPrefix(3) */\n      tag_116\n        /* \"contracts/uniswap/libraries/NFTDescriptor.sol\":17908:17923  token >> offset */\n      dup4\n      dup4\n      shr\n        /* \"contracts/uniswap/libraries/NFTDescriptor.sol\":17945:17946  3 */\n      0x03\n        /* \"contracts/uniswap/libraries/NFTDescriptor.sol\":17907:17944  (token >> offset).toHexStringNoPrefix */\n      tag_253\n        /* \"contracts/uniswap/libraries/NFTDescriptor.sol\":17907:17947  (token >> offset).toHexStringNoPrefix(3) */\n      jump\t// in\n        /* \"contracts/uniswap/libraries/NFTDescriptor.sol\":17961:18179  function getCircleCoord(... */\n    tag_147:\n        /* \"contracts/uniswap/libraries/NFTDescriptor.sol\":18093:18100  uint256 */\n      0x00\n        /* \"contracts/uniswap/libraries/NFTDescriptor.sol\":18169:18172  255 */\n      0xff\n        /* \"contracts/uniswap/libraries/NFTDescriptor.sol\":18158:18165  tokenId */\n      dup3\n        /* \"contracts/uniswap/libraries/NFTDescriptor.sol\":18120:18155  sliceTokenHex(tokenAddress, offset) */\n      tag_255\n        /* \"contracts/uniswap/libraries/NFTDescriptor.sol\":18134:18146  tokenAddress */\n      dup7\n        /* \"contracts/uniswap/libraries/NFTDescriptor.sol\":18148:18154  offset */\n      dup7\n        /* \"contracts/uniswap/libraries/NFTDescriptor.sol\":18120:18133  sliceTokenHex */\n      tag_256\n        /* \"contracts/uniswap/libraries/NFTDescriptor.sol\":18120:18155  sliceTokenHex(tokenAddress, offset) */\n      jump\t// in\n    tag_255:\n        /* \"contracts/uniswap/libraries/NFTDescriptor.sol\":18120:18165  sliceTokenHex(tokenAddress, offset) * tokenId */\n      mul\n        /* \"contracts/uniswap/libraries/NFTDescriptor.sol\":18119:18172  (sliceTokenHex(tokenAddress, offset) * tokenId) % 255 */\n      dup2\n      tag_257\n      jumpi\n      invalid\n    tag_257:\n      mod\n      swap5\n        /* \"contracts/uniswap/libraries/NFTDescriptor.sol\":17961:18179  function getCircleCoord(... */\n      swap4\n      pop\n      pop\n      pop\n      pop\n      jump\t// out\n        /* \"contracts/uniswap/libraries/NFTDescriptor.sol\":17511:17779  function scale(... */\n    tag_148:\n        /* \"contracts/uniswap/libraries/NFTDescriptor.sol\":17663:17676  string memory */\n      0x60\n        /* \"contracts/uniswap/libraries/NFTDescriptor.sol\":17695:17772  (n.sub(inMn).mul(outMx.sub(outMn)).div(inMx.sub(inMn)).add(outMn)).toString() */\n      tag_259\n        /* \"contracts/uniswap/libraries/NFTDescriptor.sol\":17696:17760  n.sub(inMn).mul(outMx.sub(outMn)).div(inMx.sub(inMn)).add(outMn) */\n      tag_260\n        /* \"contracts/uniswap/libraries/NFTDescriptor.sol\":17754:17759  outMn */\n      dup5\n        /* \"contracts/uniswap/libraries/NFTDescriptor.sol\":17696:17749  n.sub(inMn).mul(outMx.sub(outMn)).div(inMx.sub(inMn)) */\n      tag_65\n        /* \"contracts/uniswap/libraries/NFTDescriptor.sol\":17734:17748  inMx.sub(inMn) */\n      tag_262\n        /* \"contracts/uniswap/libraries/NFTDescriptor.sol\":17734:17738  inMx */\n      dup9\n        /* \"contracts/uniswap/libraries/NFTDescriptor.sol\":17743:17747  inMn */\n      dup11\n        /* \"contracts/uniswap/libraries/NFTDescriptor.sol\":17734:17742  inMx.sub */\n      tag_51\n        /* \"contracts/uniswap/libraries/NFTDescriptor.sol\":17734:17748  inMx.sub(inMn) */\n      jump\t// in\n    tag_262:\n        /* \"contracts/uniswap/libraries/NFTDescriptor.sol\":17696:17729  n.sub(inMn).mul(outMx.sub(outMn)) */\n      tag_263\n        /* \"contracts/uniswap/libraries/NFTDescriptor.sol\":17712:17728  outMx.sub(outMn) */\n      tag_264\n        /* \"contracts/uniswap/libraries/NFTDescriptor.sol\":17712:17717  outMx */\n      dup9\n        /* \"contracts/uniswap/libraries/NFTDescriptor.sol\":17722:17727  outMn */\n      dup11\n        /* \"contracts/uniswap/libraries/NFTDescriptor.sol\":17712:17721  outMx.sub */\n      tag_51\n        /* \"contracts/uniswap/libraries/NFTDescriptor.sol\":17712:17728  outMx.sub(outMn) */\n      jump\t// in\n    tag_264:\n        /* \"contracts/uniswap/libraries/NFTDescriptor.sol\":17696:17707  n.sub(inMn) */\n      tag_265\n        /* \"contracts/uniswap/libraries/NFTDescriptor.sol\":17696:17697  n */\n      dup14\n        /* \"contracts/uniswap/libraries/NFTDescriptor.sol\":17702:17706  inMn */\n      dup14\n        /* \"contracts/uniswap/libraries/NFTDescriptor.sol\":17696:17701  n.sub */\n      tag_51\n        /* \"contracts/uniswap/libraries/NFTDescriptor.sol\":17696:17707  n.sub(inMn) */\n      jump\t// in\n    tag_265:\n        /* \"contracts/uniswap/libraries/NFTDescriptor.sol\":17696:17711  n.sub(inMn).mul */\n      swap1\n      tag_266\n        /* \"contracts/uniswap/libraries/NFTDescriptor.sol\":17696:17729  n.sub(inMn).mul(outMx.sub(outMn)) */\n      jump\t// in\n    tag_263:\n        /* \"contracts/uniswap/libraries/NFTDescriptor.sol\":17696:17733  n.sub(inMn).mul(outMx.sub(outMn)).div */\n      swap1\n      tag_78\n        /* \"contracts/uniswap/libraries/NFTDescriptor.sol\":17696:17749  n.sub(inMn).mul(outMx.sub(outMn)).div(inMx.sub(inMn)) */\n      jump\t// in\n        /* \"contracts/uniswap/libraries/NFTDescriptor.sol\":17696:17760  n.sub(inMn).mul(outMx.sub(outMn)).div(inMx.sub(inMn)).add(outMn) */\n    tag_260:\n        /* \"contracts/uniswap/libraries/NFTDescriptor.sol\":17695:17770  (n.sub(inMn).mul(outMx.sub(outMn)).div(inMx.sub(inMn)).add(outMn)).toString */\n      tag_23\n        /* \"contracts/uniswap/libraries/NFTDescriptor.sol\":17695:17772  (n.sub(inMn).mul(outMx.sub(outMn)).div(inMx.sub(inMn)).add(outMn)).toString() */\n      jump\t// in\n    tag_259:\n        /* \"contracts/uniswap/libraries/NFTDescriptor.sol\":17688:17772  return (n.sub(inMn).mul(outMx.sub(outMn)).div(inMx.sub(inMn)).add(outMn)).toString() */\n      swap7\n        /* \"contracts/uniswap/libraries/NFTDescriptor.sol\":17511:17779  function scale(... */\n      swap6\n      pop\n      pop\n      pop\n      pop\n      pop\n      pop\n      jump\t// out\n        /* \"contracts/uniswap/libraries/NFTSVG.sol\":1359:2746  function generateSVG(SVGParams memory params) internal pure returns (string memory svg) {... */\n    tag_160:\n        /* \"contracts/uniswap/libraries/NFTSVG.sol\":1428:1445  string memory svg */\n      0x60\n        /* \"contracts/uniswap/libraries/NFTSVG.sol\":1889:1912  generateSVGDefs(params) */\n      tag_268\n        /* \"contracts/uniswap/libraries/NFTSVG.sol\":1905:1911  params */\n      dup3\n        /* \"contracts/uniswap/libraries/NFTSVG.sol\":1889:1904  generateSVGDefs */\n      tag_269\n        /* \"contracts/uniswap/libraries/NFTSVG.sol\":1889:1912  generateSVGDefs(params) */\n      jump\t// in\n    tag_268:\n        /* \"contracts/uniswap/libraries/NFTSVG.sol\":1934:2159  generateSVGBorderText(... */\n      tag_270\n        /* \"contracts/uniswap/libraries/NFTSVG.sol\":1981:1987  params */\n      dup4\n        /* \"contracts/uniswap/libraries/NFTSVG.sol\":1981:1998  params.quoteToken */\n      0x00\n      add\n      mload\n        /* \"contracts/uniswap/libraries/NFTSVG.sol\":2024:2030  params */\n      dup5\n        /* \"contracts/uniswap/libraries/NFTSVG.sol\":2024:2040  params.baseToken */\n      0x20\n      add\n      mload\n        /* \"contracts/uniswap/libraries/NFTSVG.sol\":2066:2072  params */\n      dup6\n        /* \"contracts/uniswap/libraries/NFTSVG.sol\":2066:2089  params.quoteTokenSymbol */\n      0x60\n      add\n      mload\n        /* \"contracts/uniswap/libraries/NFTSVG.sol\":2115:2121  params */\n      dup7\n        /* \"contracts/uniswap/libraries/NFTSVG.sol\":2115:2137  params.baseTokenSymbol */\n      0x80\n      add\n      mload\n        /* \"contracts/uniswap/libraries/NFTSVG.sol\":1934:1955  generateSVGBorderText */\n      tag_271\n        /* \"contracts/uniswap/libraries/NFTSVG.sol\":1934:2159  generateSVGBorderText(... */\n      jump\t// in\n    tag_270:\n        /* \"contracts/uniswap/libraries/NFTSVG.sol\":2181:2267  generateSVGCardMantle(params.quoteTokenSymbol, params.baseTokenSymbol, params.feeTier) */\n      tag_272\n        /* \"contracts/uniswap/libraries/NFTSVG.sol\":2203:2209  params */\n      dup5\n        /* \"contracts/uniswap/libraries/NFTSVG.sol\":2203:2226  params.quoteTokenSymbol */\n      0x60\n      add\n      mload\n        /* \"contracts/uniswap/libraries/NFTSVG.sol\":2228:2234  params */\n      dup6\n        /* \"contracts/uniswap/libraries/NFTSVG.sol\":2228:2250  params.baseTokenSymbol */\n      0x80\n      add\n      mload\n        /* \"contracts/uniswap/libraries/NFTSVG.sol\":2252:2258  params */\n      dup7\n        /* \"contracts/uniswap/libraries/NFTSVG.sol\":2252:2266  params.feeTier */\n      0xa0\n      add\n      mload\n        /* \"contracts/uniswap/libraries/NFTSVG.sol\":2181:2202  generateSVGCardMantle */\n      tag_273\n        /* \"contracts/uniswap/libraries/NFTSVG.sol\":2181:2267  generateSVGCardMantle(params.quoteTokenSymbol, params.baseTokenSymbol, params.feeTier) */\n      jump\t// in\n    tag_272:\n        /* \"contracts/uniswap/libraries/NFTSVG.sol\":2289:2379  generageSvgCurve(params.tickLower, params.tickUpper, params.tickSpacing, params.overRange) */\n      tag_274\n        /* \"contracts/uniswap/libraries/NFTSVG.sol\":2306:2312  params */\n      dup6\n        /* \"contracts/uniswap/libraries/NFTSVG.sol\":2306:2322  params.tickLower */\n      0xc0\n      add\n      mload\n        /* \"contracts/uniswap/libraries/NFTSVG.sol\":2324:2330  params */\n      dup7\n        /* \"contracts/uniswap/libraries/NFTSVG.sol\":2324:2340  params.tickUpper */\n      0xe0\n      add\n      mload\n        /* \"contracts/uniswap/libraries/NFTSVG.sol\":2342:2348  params */\n      dup8\n        /* \"contracts/uniswap/libraries/NFTSVG.sol\":2342:2360  params.tickSpacing */\n      0x0100\n      add\n      mload\n        /* \"contracts/uniswap/libraries/NFTSVG.sol\":2362:2368  params */\n      dup9\n        /* \"contracts/uniswap/libraries/NFTSVG.sol\":2362:2378  params.overRange */\n      0x0120\n      add\n      mload\n        /* \"contracts/uniswap/libraries/NFTSVG.sol\":2289:2305  generageSvgCurve */\n      tag_275\n        /* \"contracts/uniswap/libraries/NFTSVG.sol\":2289:2379  generageSvgCurve(params.tickLower, params.tickUpper, params.tickSpacing, params.overRange) */\n      jump\t// in\n    tag_274:\n        /* \"contracts/uniswap/libraries/NFTSVG.sol\":2401:2597  generateSVGPositionDataAndLocationCurve(... */\n      tag_276\n        /* \"contracts/uniswap/libraries/NFTSVG.sol\":2466:2491  params.tokenId.toString() */\n      tag_277\n        /* \"contracts/uniswap/libraries/NFTSVG.sol\":2466:2472  params */\n      dup8\n        /* \"contracts/uniswap/libraries/NFTSVG.sol\":2466:2480  params.tokenId */\n      0x0140\n      add\n      mload\n        /* \"contracts/uniswap/libraries/NFTSVG.sol\":2466:2489  params.tokenId.toString */\n      tag_23\n        /* \"contracts/uniswap/libraries/NFTSVG.sol\":2466:2491  params.tokenId.toString() */\n      jump\t// in\n    tag_277:\n        /* \"contracts/uniswap/libraries/NFTSVG.sol\":2517:2523  params */\n      dup8\n        /* \"contracts/uniswap/libraries/NFTSVG.sol\":2517:2533  params.tickLower */\n      0xc0\n      add\n      mload\n        /* \"contracts/uniswap/libraries/NFTSVG.sol\":2559:2565  params */\n      dup9\n        /* \"contracts/uniswap/libraries/NFTSVG.sol\":2559:2575  params.tickUpper */\n      0xe0\n      add\n      mload\n        /* \"contracts/uniswap/libraries/NFTSVG.sol\":2401:2440  generateSVGPositionDataAndLocationCurve */\n      tag_278\n        /* \"contracts/uniswap/libraries/NFTSVG.sol\":2401:2597  generateSVGPositionDataAndLocationCurve(... */\n      jump\t// in\n    tag_276:\n        /* \"contracts/uniswap/libraries/NFTSVG.sol\":2619:2677  generateSVGRareSparkle(params.tokenId, params.poolAddress) */\n      tag_279\n        /* \"contracts/uniswap/libraries/NFTSVG.sol\":2642:2648  params */\n      dup8\n        /* \"contracts/uniswap/libraries/NFTSVG.sol\":2642:2656  params.tokenId */\n      0x0140\n      add\n      mload\n        /* \"contracts/uniswap/libraries/NFTSVG.sol\":2658:2664  params */\n      dup9\n        /* \"contracts/uniswap/libraries/NFTSVG.sol\":2658:2676  params.poolAddress */\n      0x40\n      add\n      mload\n        /* \"contracts/uniswap/libraries/NFTSVG.sol\":2619:2641  generateSVGRareSparkle */\n      tag_280\n        /* \"contracts/uniswap/libraries/NFTSVG.sol\":2619:2677  generateSVGRareSparkle(params.tokenId, params.poolAddress) */\n      jump\t// in\n    tag_279:\n        /* \"contracts/uniswap/libraries/NFTSVG.sol\":1851:2725  abi.encodePacked(... */\n      add(0x20, mload(0x40))\n      dup1\n      dup8\n      dup1\n      mload\n      swap1\n      0x20\n      add\n      swap1\n      dup1\n      dup4\n      dup4\n    tag_281:\n      0x20\n      dup4\n      lt\n      tag_283\n      jumpi\n      dup1\n      mload\n      dup3\n      mstore\n      not(0x1f)\n      swap1\n      swap3\n      add\n      swap2\n      0x20\n      swap2\n      dup3\n      add\n      swap2\n      add\n      jump(tag_281)\n    tag_283:\n      mload\n      dup2\n      mload\n      0x20\n      swap4\n      dup5\n      sub\n      0x0100\n      exp\n      not(0x00)\n      add\n      dup1\n      not\n      swap1\n      swap3\n      and\n      swap2\n      and\n      or\n      swap1\n      mstore\n      dup10\n      mload\n      swap2\n      swap1\n      swap4\n      add\n      swap3\n      dup10\n      add\n      swap2\n      pop\n      dup1\n      dup4\n      dup4\n    tag_284:\n      0x20\n      dup4\n      lt\n      tag_286\n      jumpi\n      dup1\n      mload\n      dup3\n      mstore\n      not(0x1f)\n      swap1\n      swap3\n      add\n      swap2\n      0x20\n      swap2\n      dup3\n      add\n      swap2\n      add\n      jump(tag_284)\n    tag_286:\n      mload\n      dup2\n      mload\n      0x20\n      swap4\n      dup5\n      sub\n      0x0100\n      exp\n      not(0x00)\n      add\n      dup1\n      not\n      swap1\n      swap3\n      and\n      swap2\n      and\n      or\n      swap1\n      mstore\n      dup9\n      mload\n      swap2\n      swap1\n      swap4\n      add\n      swap3\n      dup9\n      add\n      swap2\n      pop\n      dup1\n      dup4\n      dup4\n    tag_287:\n      0x20\n      dup4\n      lt\n      tag_289\n      jumpi\n      dup1\n      mload\n      dup3\n      mstore\n      not(0x1f)\n      swap1\n      swap3\n      add\n      swap2\n      0x20\n      swap2\n      dup3\n      add\n      swap2\n      add\n      jump(tag_287)\n    tag_289:\n      mload\n      dup2\n      mload\n      0x20\n      swap4\n      dup5\n      sub\n      0x0100\n      exp\n      not(0x00)\n      add\n      dup1\n      not\n      swap1\n      swap3\n      and\n      swap2\n      and\n      or\n      swap1\n      mstore\n      dup8\n      mload\n      swap2\n      swap1\n      swap4\n      add\n      swap3\n      dup8\n      add\n      swap2\n      pop\n      dup1\n      dup4\n      dup4\n    tag_290:\n      0x20\n      dup4\n      lt\n      tag_292\n      jumpi\n      dup1\n      mload\n      dup3\n      mstore\n      not(0x1f)\n      swap1\n      swap3\n      add\n      swap2\n      0x20\n      swap2\n      dup3\n      add\n      swap2\n      add\n      jump(tag_290)\n    tag_292:\n      mload\n      dup2\n      mload\n      0x20\n      swap4\n      dup5\n      sub\n      0x0100\n      exp\n      not(0x00)\n      add\n      dup1\n      not\n      swap1\n      swap3\n      and\n      swap2\n      and\n      or\n      swap1\n      mstore\n      dup7\n      mload\n      swap2\n      swap1\n      swap4\n      add\n      swap3\n      dup7\n      add\n      swap2\n      pop\n      dup1\n      dup4\n      dup4\n    tag_293:\n      0x20\n      dup4\n      lt\n      tag_295\n      jumpi\n      dup1\n      mload\n      dup3\n      mstore\n      not(0x1f)\n      swap1\n      swap3\n      add\n      swap2\n      0x20\n      swap2\n      dup3\n      add\n      swap2\n      add\n      jump(tag_293)\n    tag_295:\n      mload\n      dup2\n      mload\n      0x20\n      swap4\n      dup5\n      sub\n      0x0100\n      exp\n      not(0x00)\n      add\n      dup1\n      not\n      swap1\n      swap3\n      and\n      swap2\n      and\n      or\n      swap1\n      mstore\n      dup6\n      mload\n      swap2\n      swap1\n      swap4\n      add\n      swap3\n      dup6\n      add\n      swap2\n      pop\n      dup1\n      dup4\n      dup4\n    tag_296:\n      0x20\n      dup4\n      lt\n      tag_298\n      jumpi\n      dup1\n      mload\n      dup3\n      mstore\n      not(0x1f)\n      swap1\n      swap3\n      add\n      swap2\n      0x20\n      swap2\n      dup3\n      add\n      swap2\n      add\n      jump(tag_296)\n    tag_298:\n      mload\n      dup2\n      mload\n      0x20\n      swap4\n      swap1\n      swap4\n      sub\n      0x0100\n      exp\n      not(0x00)\n      add\n      dup1\n      not\n      swap1\n      swap2\n      and\n      swap3\n      and\n      swap2\n      swap1\n      swap2\n      or\n      swap1\n      mstore\n      0x3c2f7376673e0000000000000000000000000000000000000000000000000000\n      swap3\n      add\n      swap2\n      dup3\n      mstore\n      pop\n      0x40\n      dup1\n      mload\n      dup1\n      dup4\n      sub\n      0xffffffffffffffffffffffffffffffffffffffffffffffffffffffffffffffe6\n      add\n      dup2\n      mstore\n      0x06\n      swap1\n      swap3\n      add\n      swap1\n      mstore\n      swap10\n      swap9\n      pop\n      pop\n      pop\n      pop\n      pop\n      pop\n      pop\n      pop\n      pop\n        /* \"contracts/uniswap/libraries/NFTSVG.sol\":1359:2746  function generateSVG(SVGParams memory params) internal pure returns (string memory svg) {... */\n      jump\t// out\n        /* \"@uniswap/v3-core/contracts/libraries/TickMath.sol\":1362:3942  function getSqrtRatioAtTick(int24 tick) internal pure returns (uint160 sqrtPriceX96) {... */\n    tag_230:\n        /* \"@uniswap/v3-core/contracts/libraries/TickMath.sol\":1425:1445  uint160 sqrtPriceX96 */\n      0x00\n        /* \"@uniswap/v3-core/contracts/libraries/TickMath.sol\":1457:1472  uint256 absTick */\n      dup1\n        /* \"@uniswap/v3-core/contracts/libraries/TickMath.sol\":1482:1483  0 */\n      0x00\n        /* \"@uniswap/v3-core/contracts/libraries/TickMath.sol\":1475:1479  tick */\n      dup4\n        /* \"@uniswap/v3-core/contracts/libraries/TickMath.sol\":1475:1483  tick < 0 */\n      0x02\n      signextend\n      slt\n        /* \"@uniswap/v3-core/contracts/libraries/TickMath.sol\":1475:1532  tick < 0 ? uint256(-int256(tick)) : uint256(int256(tick)) */\n      tag_300\n      jumpi\n        /* \"@uniswap/v3-core/contracts/libraries/TickMath.sol\":1526:1530  tick */\n      dup3\n        /* \"@uniswap/v3-core/contracts/libraries/TickMath.sol\":1519:1531  int256(tick) */\n      0x02\n      signextend\n        /* \"@uniswap/v3-core/contracts/libraries/TickMath.sol\":1475:1532  tick < 0 ? uint256(-int256(tick)) : uint256(int256(tick)) */\n      jump(tag_301)\n    tag_300:\n        /* \"@uniswap/v3-core/contracts/libraries/TickMath.sol\":1502:1506  tick */\n      dup3\n        /* \"@uniswap/v3-core/contracts/libraries/TickMath.sol\":1495:1507  int256(tick) */\n      0x02\n      signextend\n        /* \"@uniswap/v3-core/contracts/libraries/TickMath.sol\":1494:1507  -int256(tick) */\n      0x00\n      sub\n        /* \"@uniswap/v3-core/contracts/libraries/TickMath.sol\":1475:1532  tick < 0 ? uint256(-int256(tick)) : uint256(int256(tick)) */\n    tag_301:\n        /* \"@uniswap/v3-core/contracts/libraries/TickMath.sol\":1457:1532  uint256 absTick = tick < 0 ? uint256(-int256(tick)) : uint256(int256(tick)) */\n      swap1\n      pop\n        /* \"@uniswap/v3-core/contracts/libraries/TickMath.sol\":644:653  -MIN_TICK */\n      0x0d89e8\n        /* \"@uniswap/v3-core/contracts/libraries/TickMath.sol\":1550:1578  absTick <= uint256(MAX_TICK) */\n      dup2\n      gt\n      iszero\n        /* \"@uniswap/v3-core/contracts/libraries/TickMath.sol\":1542:1584  require(absTick <= uint256(MAX_TICK), 'T') */\n      tag_302\n      jumpi\n      0x00\n      dup1\n      revert\n    tag_302:\n        /* \"@uniswap/v3-core/contracts/libraries/TickMath.sol\":1595:1608  uint256 ratio */\n      0x00\n        /* \"@uniswap/v3-core/contracts/libraries/TickMath.sol\":1621:1624  0x1 */\n      0x01\n        /* \"@uniswap/v3-core/contracts/libraries/TickMath.sol\":1611:1624  absTick & 0x1 */\n      dup3\n      and\n        /* \"@uniswap/v3-core/contracts/libraries/TickMath.sol\":1611:1704  absTick & 0x1 != 0 ? 0xfffcb933bd6fad37aa2d162d1a594001 : 0x100000000000000000000000000000000 */\n      tag_303\n      jumpi\n        /* \"@uniswap/v3-core/contracts/libraries/TickMath.sol\":1669:1704  0x100000000000000000000000000000000 */\n      0x0100000000000000000000000000000000\n        /* \"@uniswap/v3-core/contracts/libraries/TickMath.sol\":1611:1704  absTick & 0x1 != 0 ? 0xfffcb933bd6fad37aa2d162d1a594001 : 0x100000000000000000000000000000000 */\n      jump(tag_304)\n    tag_303:\n        /* \"@uniswap/v3-core/contracts/libraries/TickMath.sol\":1632:1666  0xfffcb933bd6fad37aa2d162d1a594001 */\n      0xfffcb933bd6fad37aa2d162d1a594001\n        /* \"@uniswap/v3-core/contracts/libraries/TickMath.sol\":1611:1704  absTick & 0x1 != 0 ? 0xfffcb933bd6fad37aa2d162d1a594001 : 0x100000000000000000000000000000000 */\n    tag_304:\n        /* \"@uniswap/v3-core/contracts/libraries/TickMath.sol\":1595:1704  uint256 ratio = absTick & 0x1 != 0 ? 0xfffcb933bd6fad37aa2d162d1a594001 : 0x100000000000000000000000000000000 */\n      0xffffffffffffffffffffffffffffffffff\n      and\n      swap1\n      pop\n        /* \"@uniswap/v3-core/contracts/libraries/TickMath.sol\":1728:1731  0x2 */\n      0x02\n        /* \"@uniswap/v3-core/contracts/libraries/TickMath.sol\":1718:1731  absTick & 0x2 */\n      dup3\n      and\n        /* \"@uniswap/v3-core/contracts/libraries/TickMath.sol\":1718:1736  absTick & 0x2 != 0 */\n      iszero\n        /* \"@uniswap/v3-core/contracts/libraries/TickMath.sol\":1714:1797  if (absTick & 0x2 != 0) ratio = (ratio * 0xfff97272373d413259a46990580e213a) >> 128 */\n      tag_305\n      jumpi\n        /* \"@uniswap/v3-core/contracts/libraries/TickMath.sol\":1755:1789  0xfff97272373d413259a46990580e213a */\n      0xfff97272373d413259a46990580e213a\n        /* \"@uniswap/v3-core/contracts/libraries/TickMath.sol\":1747:1789  ratio * 0xfff97272373d413259a46990580e213a */\n      mul\n        /* \"@uniswap/v3-core/contracts/libraries/TickMath.sol\":1794:1797  128 */\n      0x80\n        /* \"@uniswap/v3-core/contracts/libraries/TickMath.sol\":1746:1797  (ratio * 0xfff97272373d413259a46990580e213a) >> 128 */\n      shr\n        /* \"@uniswap/v3-core/contracts/libraries/TickMath.sol\":1714:1797  if (absTick & 0x2 != 0) ratio = (ratio * 0xfff97272373d413259a46990580e213a) >> 128 */\n    tag_305:\n        /* \"@uniswap/v3-core/contracts/libraries/TickMath.sol\":1821:1824  0x4 */\n      0x04\n        /* \"@uniswap/v3-core/contracts/libraries/TickMath.sol\":1811:1824  absTick & 0x4 */\n      dup3\n      and\n        /* \"@uniswap/v3-core/contracts/libraries/TickMath.sol\":1811:1829  absTick & 0x4 != 0 */\n      iszero\n        /* \"@uniswap/v3-core/contracts/libraries/TickMath.sol\":1807:1890  if (absTick & 0x4 != 0) ratio = (ratio * 0xfff2e50f5f656932ef12357cf3c7fdcc) >> 128 */\n      tag_306\n      jumpi\n        /* \"@uniswap/v3-core/contracts/libraries/TickMath.sol\":1848:1882  0xfff2e50f5f656932ef12357cf3c7fdcc */\n      0xfff2e50f5f656932ef12357cf3c7fdcc\n        /* \"@uniswap/v3-core/contracts/libraries/TickMath.sol\":1840:1882  ratio * 0xfff2e50f5f656932ef12357cf3c7fdcc */\n      mul\n        /* \"@uniswap/v3-core/contracts/libraries/TickMath.sol\":1887:1890  128 */\n      0x80\n        /* \"@uniswap/v3-core/contracts/libraries/TickMath.sol\":1839:1890  (ratio * 0xfff2e50f5f656932ef12357cf3c7fdcc) >> 128 */\n      shr\n        /* \"@uniswap/v3-core/contracts/libraries/TickMath.sol\":1807:1890  if (absTick & 0x4 != 0) ratio = (ratio * 0xfff2e50f5f656932ef12357cf3c7fdcc) >> 128 */\n    tag_306:\n        /* \"@uniswap/v3-core/contracts/libraries/TickMath.sol\":1914:1917  0x8 */\n      0x08\n        /* \"@uniswap/v3-core/contracts/libraries/TickMath.sol\":1904:1917  absTick & 0x8 */\n      dup3\n      and\n        /* \"@uniswap/v3-core/contracts/libraries/TickMath.sol\":1904:1922  absTick & 0x8 != 0 */\n      iszero\n        /* \"@uniswap/v3-core/contracts/libraries/TickMath.sol\":1900:1983  if (absTick & 0x8 != 0) ratio = (ratio * 0xffe5caca7e10e4e61c3624eaa0941cd0) >> 128 */\n      tag_307\n      jumpi\n        /* \"@uniswap/v3-core/contracts/libraries/TickMath.sol\":1941:1975  0xffe5caca7e10e4e61c3624eaa0941cd0 */\n      0xffe5caca7e10e4e61c3624eaa0941cd0\n        /* \"@uniswap/v3-core/contracts/libraries/TickMath.sol\":1933:1975  ratio * 0xffe5caca7e10e4e61c3624eaa0941cd0 */\n      mul\n        /* \"@uniswap/v3-core/contracts/libraries/TickMath.sol\":1980:1983  128 */\n      0x80\n        /* \"@uniswap/v3-core/contracts/libraries/TickMath.sol\":1932:1983  (ratio * 0xffe5caca7e10e4e61c3624eaa0941cd0) >> 128 */\n      shr\n        /* \"@uniswap/v3-core/contracts/libraries/TickMath.sol\":1900:1983  if (absTick & 0x8 != 0) ratio = (ratio * 0xffe5caca7e10e4e61c3624eaa0941cd0) >> 128 */\n    tag_307:\n        /* \"@uniswap/v3-core/contracts/libraries/TickMath.sol\":2007:2011  0x10 */\n      0x10\n        /* \"@uniswap/v3-core/contracts/libraries/TickMath.sol\":1997:2011  absTick & 0x10 */\n      dup3\n      and\n        /* \"@uniswap/v3-core/contracts/libraries/TickMath.sol\":1997:2016  absTick & 0x10 != 0 */\n      iszero\n        /* \"@uniswap/v3-core/contracts/libraries/TickMath.sol\":1993:2077  if (absTick & 0x10 != 0) ratio = (ratio * 0xffcb9843d60f6159c9db58835c926644) >> 128 */\n      tag_308\n      jumpi\n        /* \"@uniswap/v3-core/contracts/libraries/TickMath.sol\":2035:2069  0xffcb9843d60f6159c9db58835c926644 */\n      0xffcb9843d60f6159c9db58835c926644\n        /* \"@uniswap/v3-core/contracts/libraries/TickMath.sol\":2027:2069  ratio * 0xffcb9843d60f6159c9db58835c926644 */\n      mul\n        /* \"@uniswap/v3-core/contracts/libraries/TickMath.sol\":2074:2077  128 */\n      0x80\n        /* \"@uniswap/v3-core/contracts/libraries/TickMath.sol\":2026:2077  (ratio * 0xffcb9843d60f6159c9db58835c926644) >> 128 */\n      shr\n        /* \"@uniswap/v3-core/contracts/libraries/TickMath.sol\":1993:2077  if (absTick & 0x10 != 0) ratio = (ratio * 0xffcb9843d60f6159c9db58835c926644) >> 128 */\n    tag_308:\n        /* \"@uniswap/v3-core/contracts/libraries/TickMath.sol\":2101:2105  0x20 */\n      0x20\n        /* \"@uniswap/v3-core/contracts/libraries/TickMath.sol\":2091:2105  absTick & 0x20 */\n      dup3\n      and\n        /* \"@uniswap/v3-core/contracts/libraries/TickMath.sol\":2091:2110  absTick & 0x20 != 0 */\n      iszero\n        /* \"@uniswap/v3-core/contracts/libraries/TickMath.sol\":2087:2171  if (absTick & 0x20 != 0) ratio = (ratio * 0xff973b41fa98c081472e6896dfb254c0) >> 128 */\n      tag_309\n      jumpi\n        /* \"@uniswap/v3-core/contracts/libraries/TickMath.sol\":2129:2163  0xff973b41fa98c081472e6896dfb254c0 */\n      0xff973b41fa98c081472e6896dfb254c0\n        /* \"@uniswap/v3-core/contracts/libraries/TickMath.sol\":2121:2163  ratio * 0xff973b41fa98c081472e6896dfb254c0 */\n      mul\n        /* \"@uniswap/v3-core/contracts/libraries/TickMath.sol\":2168:2171  128 */\n      0x80\n        /* \"@uniswap/v3-core/contracts/libraries/TickMath.sol\":2120:2171  (ratio * 0xff973b41fa98c081472e6896dfb254c0) >> 128 */\n      shr\n        /* \"@uniswap/v3-core/contracts/libraries/TickMath.sol\":2087:2171  if (absTick & 0x20 != 0) ratio = (ratio * 0xff973b41fa98c081472e6896dfb254c0) >> 128 */\n    tag_309:\n        /* \"@uniswap/v3-core/contracts/libraries/TickMath.sol\":2195:2199  0x40 */\n      0x40\n        /* \"@uniswap/v3-core/contracts/libraries/TickMath.sol\":2185:2199  absTick & 0x40 */\n      dup3\n      and\n        /* \"@uniswap/v3-core/contracts/libraries/TickMath.sol\":2185:2204  absTick & 0x40 != 0 */\n      iszero\n        /* \"@uniswap/v3-core/contracts/libraries/TickMath.sol\":2181:2265  if (absTick & 0x40 != 0) ratio = (ratio * 0xff2ea16466c96a3843ec78b326b52861) >> 128 */\n      tag_310\n      jumpi\n        /* \"@uniswap/v3-core/contracts/libraries/TickMath.sol\":2223:2257  0xff2ea16466c96a3843ec78b326b52861 */\n      0xff2ea16466c96a3843ec78b326b52861\n        /* \"@uniswap/v3-core/contracts/libraries/TickMath.sol\":2215:2257  ratio * 0xff2ea16466c96a3843ec78b326b52861 */\n      mul\n        /* \"@uniswap/v3-core/contracts/libraries/TickMath.sol\":2262:2265  128 */\n      0x80\n        /* \"@uniswap/v3-core/contracts/libraries/TickMath.sol\":2214:2265  (ratio * 0xff2ea16466c96a3843ec78b326b52861) >> 128 */\n      shr\n        /* \"@uniswap/v3-core/contracts/libraries/TickMath.sol\":2181:2265  if (absTick & 0x40 != 0) ratio = (ratio * 0xff2ea16466c96a3843ec78b326b52861) >> 128 */\n    tag_310:\n        /* \"@uniswap/v3-core/contracts/libraries/TickMath.sol\":2289:2293  0x80 */\n      0x80\n        /* \"@uniswap/v3-core/contracts/libraries/TickMath.sol\":2279:2293  absTick & 0x80 */\n      dup3\n      and\n        /* \"@uniswap/v3-core/contracts/libraries/TickMath.sol\":2279:2298  absTick & 0x80 != 0 */\n      iszero\n        /* \"@uniswap/v3-core/contracts/libraries/TickMath.sol\":2275:2359  if (absTick & 0x80 != 0) ratio = (ratio * 0xfe5dee046a99a2a811c461f1969c3053) >> 128 */\n      tag_311\n      jumpi\n        /* \"@uniswap/v3-core/contracts/libraries/TickMath.sol\":2317:2351  0xfe5dee046a99a2a811c461f1969c3053 */\n      0xfe5dee046a99a2a811c461f1969c3053\n        /* \"@uniswap/v3-core/contracts/libraries/TickMath.sol\":2309:2351  ratio * 0xfe5dee046a99a2a811c461f1969c3053 */\n      mul\n        /* \"@uniswap/v3-core/contracts/libraries/TickMath.sol\":2356:2359  128 */\n      0x80\n        /* \"@uniswap/v3-core/contracts/libraries/TickMath.sol\":2308:2359  (ratio * 0xfe5dee046a99a2a811c461f1969c3053) >> 128 */\n      shr\n        /* \"@uniswap/v3-core/contracts/libraries/TickMath.sol\":2275:2359  if (absTick & 0x80 != 0) ratio = (ratio * 0xfe5dee046a99a2a811c461f1969c3053) >> 128 */\n    tag_311:\n        /* \"@uniswap/v3-core/contracts/libraries/TickMath.sol\":2383:2388  0x100 */\n      0x0100\n        /* \"@uniswap/v3-core/contracts/libraries/TickMath.sol\":2373:2388  absTick & 0x100 */\n      dup3\n      and\n        /* \"@uniswap/v3-core/contracts/libraries/TickMath.sol\":2373:2393  absTick & 0x100 != 0 */\n      iszero\n        /* \"@uniswap/v3-core/contracts/libraries/TickMath.sol\":2369:2454  if (absTick & 0x100 != 0) ratio = (ratio * 0xfcbe86c7900a88aedcffc83b479aa3a4) >> 128 */\n      tag_312\n      jumpi\n        /* \"@uniswap/v3-core/contracts/libraries/TickMath.sol\":2412:2446  0xfcbe86c7900a88aedcffc83b479aa3a4 */\n      0xfcbe86c7900a88aedcffc83b479aa3a4\n        /* \"@uniswap/v3-core/contracts/libraries/TickMath.sol\":2404:2446  ratio * 0xfcbe86c7900a88aedcffc83b479aa3a4 */\n      mul\n        /* \"@uniswap/v3-core/contracts/libraries/TickMath.sol\":2451:2454  128 */\n      0x80\n        /* \"@uniswap/v3-core/contracts/libraries/TickMath.sol\":2403:2454  (ratio * 0xfcbe86c7900a88aedcffc83b479aa3a4) >> 128 */\n      shr\n        /* \"@uniswap/v3-core/contracts/libraries/TickMath.sol\":2369:2454  if (absTick & 0x100 != 0) ratio = (ratio * 0xfcbe86c7900a88aedcffc83b479aa3a4) >> 128 */\n    tag_312:\n        /* \"@uniswap/v3-core/contracts/libraries/TickMath.sol\":2478:2483  0x200 */\n      0x0200\n        /* \"@uniswap/v3-core/contracts/libraries/TickMath.sol\":2468:2483  absTick & 0x200 */\n      dup3\n      and\n        /* \"@uniswap/v3-core/contracts/libraries/TickMath.sol\":2468:2488  absTick & 0x200 != 0 */\n      iszero\n        /* \"@uniswap/v3-core/contracts/libraries/TickMath.sol\":2464:2549  if (absTick & 0x200 != 0) ratio = (ratio * 0xf987a7253ac413176f2b074cf7815e54) >> 128 */\n      tag_313\n      jumpi\n        /* \"@uniswap/v3-core/contracts/libraries/TickMath.sol\":2507:2541  0xf987a7253ac413176f2b074cf7815e54 */\n      0xf987a7253ac413176f2b074cf7815e54\n        /* \"@uniswap/v3-core/contracts/libraries/TickMath.sol\":2499:2541  ratio * 0xf987a7253ac413176f2b074cf7815e54 */\n      mul\n        /* \"@uniswap/v3-core/contracts/libraries/TickMath.sol\":2546:2549  128 */\n      0x80\n        /* \"@uniswap/v3-core/contracts/libraries/TickMath.sol\":2498:2549  (ratio * 0xf987a7253ac413176f2b074cf7815e54) >> 128 */\n      shr\n        /* \"@uniswap/v3-core/contracts/libraries/TickMath.sol\":2464:2549  if (absTick & 0x200 != 0) ratio = (ratio * 0xf987a7253ac413176f2b074cf7815e54) >> 128 */\n    tag_313:\n        /* \"@uniswap/v3-core/contracts/libraries/TickMath.sol\":2573:2578  0x400 */\n      0x0400\n        /* \"@uniswap/v3-core/contracts/libraries/TickMath.sol\":2563:2578  absTick & 0x400 */\n      dup3\n      and\n        /* \"@uniswap/v3-core/contracts/libraries/TickMath.sol\":2563:2583  absTick & 0x400 != 0 */\n      iszero\n        /* \"@uniswap/v3-core/contracts/libraries/TickMath.sol\":2559:2644  if (absTick & 0x400 != 0) ratio = (ratio * 0xf3392b0822b70005940c7a398e4b70f3) >> 128 */\n      tag_314\n      jumpi\n        /* \"@uniswap/v3-core/contracts/libraries/TickMath.sol\":2602:2636  0xf3392b0822b70005940c7a398e4b70f3 */\n      0xf3392b0822b70005940c7a398e4b70f3\n        /* \"@uniswap/v3-core/contracts/libraries/TickMath.sol\":2594:2636  ratio * 0xf3392b0822b70005940c7a398e4b70f3 */\n      mul\n        /* \"@uniswap/v3-core/contracts/libraries/TickMath.sol\":2641:2644  128 */\n      0x80\n        /* \"@uniswap/v3-core/contracts/libraries/TickMath.sol\":2593:2644  (ratio * 0xf3392b0822b70005940c7a398e4b70f3) >> 128 */\n      shr\n        /* \"@uniswap/v3-core/contracts/libraries/TickMath.sol\":2559:2644  if (absTick & 0x400 != 0) ratio = (ratio * 0xf3392b0822b70005940c7a398e4b70f3) >> 128 */\n    tag_314:\n        /* \"@uniswap/v3-core/contracts/libraries/TickMath.sol\":2668:2673  0x800 */\n      0x0800\n        /* \"@uniswap/v3-core/contracts/libraries/TickMath.sol\":2658:2673  absTick & 0x800 */\n      dup3\n      and\n        /* \"@uniswap/v3-core/contracts/libraries/TickMath.sol\":2658:2678  absTick & 0x800 != 0 */\n      iszero\n        /* \"@uniswap/v3-core/contracts/libraries/TickMath.sol\":2654:2739  if (absTick & 0x800 != 0) ratio = (ratio * 0xe7159475a2c29b7443b29c7fa6e889d9) >> 128 */\n      tag_315\n      jumpi\n        /* \"@uniswap/v3-core/contracts/libraries/TickMath.sol\":2697:2731  0xe7159475a2c29b7443b29c7fa6e889d9 */\n      0xe7159475a2c29b7443b29c7fa6e889d9\n        /* \"@uniswap/v3-core/contracts/libraries/TickMath.sol\":2689:2731  ratio * 0xe7159475a2c29b7443b29c7fa6e889d9 */\n      mul\n        /* \"@uniswap/v3-core/contracts/libraries/TickMath.sol\":2736:2739  128 */\n      0x80\n        /* \"@uniswap/v3-core/contracts/libraries/TickMath.sol\":2688:2739  (ratio * 0xe7159475a2c29b7443b29c7fa6e889d9) >> 128 */\n      shr\n        /* \"@uniswap/v3-core/contracts/libraries/TickMath.sol\":2654:2739  if (absTick & 0x800 != 0) ratio = (ratio * 0xe7159475a2c29b7443b29c7fa6e889d9) >> 128 */\n    tag_315:\n        /* \"@uniswap/v3-core/contracts/libraries/TickMath.sol\":2763:2769  0x1000 */\n      0x1000\n        /* \"@uniswap/v3-core/contracts/libraries/TickMath.sol\":2753:2769  absTick & 0x1000 */\n      dup3\n      and\n        /* \"@uniswap/v3-core/contracts/libraries/TickMath.sol\":2753:2774  absTick & 0x1000 != 0 */\n      iszero\n        /* \"@uniswap/v3-core/contracts/libraries/TickMath.sol\":2749:2835  if (absTick & 0x1000 != 0) ratio = (ratio * 0xd097f3bdfd2022b8845ad8f792aa5825) >> 128 */\n      tag_316\n      jumpi\n        /* \"@uniswap/v3-core/contracts/libraries/TickMath.sol\":2793:2827  0xd097f3bdfd2022b8845ad8f792aa5825 */\n      0xd097f3bdfd2022b8845ad8f792aa5825\n        /* \"@uniswap/v3-core/contracts/libraries/TickMath.sol\":2785:2827  ratio * 0xd097f3bdfd2022b8845ad8f792aa5825 */\n      mul\n        /* \"@uniswap/v3-core/contracts/libraries/TickMath.sol\":2832:2835  128 */\n      0x80\n        /* \"@uniswap/v3-core/contracts/libraries/TickMath.sol\":2784:2835  (ratio * 0xd097f3bdfd2022b8845ad8f792aa5825) >> 128 */\n      shr\n        /* \"@uniswap/v3-core/contracts/libraries/TickMath.sol\":2749:2835  if (absTick & 0x1000 != 0) ratio = (ratio * 0xd097f3bdfd2022b8845ad8f792aa5825) >> 128 */\n    tag_316:\n        /* \"@uniswap/v3-core/contracts/libraries/TickMath.sol\":2859:2865  0x2000 */\n      0x2000\n        /* \"@uniswap/v3-core/contracts/libraries/TickMath.sol\":2849:2865  absTick & 0x2000 */\n      dup3\n      and\n        /* \"@uniswap/v3-core/contracts/libraries/TickMath.sol\":2849:2870  absTick & 0x2000 != 0 */\n      iszero\n        /* \"@uniswap/v3-core/contracts/libraries/TickMath.sol\":2845:2931  if (absTick & 0x2000 != 0) ratio = (ratio * 0xa9f746462d870fdf8a65dc1f90e061e5) >> 128 */\n      tag_317\n      jumpi\n        /* \"@uniswap/v3-core/contracts/libraries/TickMath.sol\":2889:2923  0xa9f746462d870fdf8a65dc1f90e061e5 */\n      0xa9f746462d870fdf8a65dc1f90e061e5\n        /* \"@uniswap/v3-core/contracts/libraries/TickMath.sol\":2881:2923  ratio * 0xa9f746462d870fdf8a65dc1f90e061e5 */\n      mul\n        /* \"@uniswap/v3-core/contracts/libraries/TickMath.sol\":2928:2931  128 */\n      0x80\n        /* \"@uniswap/v3-core/contracts/libraries/TickMath.sol\":2880:2931  (ratio * 0xa9f746462d870fdf8a65dc1f90e061e5) >> 128 */\n      shr\n        /* \"@uniswap/v3-core/contracts/libraries/TickMath.sol\":2845:2931  if (absTick & 0x2000 != 0) ratio = (ratio * 0xa9f746462d870fdf8a65dc1f90e061e5) >> 128 */\n    tag_317:\n        /* \"@uniswap/v3-core/contracts/libraries/TickMath.sol\":2955:2961  0x4000 */\n      0x4000\n        /* \"@uniswap/v3-core/contracts/libraries/TickMath.sol\":2945:2961  absTick & 0x4000 */\n      dup3\n      and\n        /* \"@uniswap/v3-core/contracts/libraries/TickMath.sol\":2945:2966  absTick & 0x4000 != 0 */\n      iszero\n        /* \"@uniswap/v3-core/contracts/libraries/TickMath.sol\":2941:3027  if (absTick & 0x4000 != 0) ratio = (ratio * 0x70d869a156d2a1b890bb3df62baf32f7) >> 128 */\n      tag_318\n      jumpi\n        /* \"@uniswap/v3-core/contracts/libraries/TickMath.sol\":2985:3019  0x70d869a156d2a1b890bb3df62baf32f7 */\n      0x70d869a156d2a1b890bb3df62baf32f7\n        /* \"@uniswap/v3-core/contracts/libraries/TickMath.sol\":2977:3019  ratio * 0x70d869a156d2a1b890bb3df62baf32f7 */\n      mul\n        /* \"@uniswap/v3-core/contracts/libraries/TickMath.sol\":3024:3027  128 */\n      0x80\n        /* \"@uniswap/v3-core/contracts/libraries/TickMath.sol\":2976:3027  (ratio * 0x70d869a156d2a1b890bb3df62baf32f7) >> 128 */\n      shr\n        /* \"@uniswap/v3-core/contracts/libraries/TickMath.sol\":2941:3027  if (absTick & 0x4000 != 0) ratio = (ratio * 0x70d869a156d2a1b890bb3df62baf32f7) >> 128 */\n    tag_318:\n        /* \"@uniswap/v3-core/contracts/libraries/TickMath.sol\":3051:3057  0x8000 */\n      0x8000\n        /* \"@uniswap/v3-core/contracts/libraries/TickMath.sol\":3041:3057  absTick & 0x8000 */\n      dup3\n      and\n        /* \"@uniswap/v3-core/contracts/libraries/TickMath.sol\":3041:3062  absTick & 0x8000 != 0 */\n      iszero\n        /* \"@uniswap/v3-core/contracts/libraries/TickMath.sol\":3037:3123  if (absTick & 0x8000 != 0) ratio = (ratio * 0x31be135f97d08fd981231505542fcfa6) >> 128 */\n      tag_319\n      jumpi\n        /* \"@uniswap/v3-core/contracts/libraries/TickMath.sol\":3081:3115  0x31be135f97d08fd981231505542fcfa6 */\n      0x31be135f97d08fd981231505542fcfa6\n        /* \"@uniswap/v3-core/contracts/libraries/TickMath.sol\":3073:3115  ratio * 0x31be135f97d08fd981231505542fcfa6 */\n      mul\n        /* \"@uniswap/v3-core/contracts/libraries/TickMath.sol\":3120:3123  128 */\n      0x80\n        /* \"@uniswap/v3-core/contracts/libraries/TickMath.sol\":3072:3123  (ratio * 0x31be135f97d08fd981231505542fcfa6) >> 128 */\n      shr\n        /* \"@uniswap/v3-core/contracts/libraries/TickMath.sol\":3037:3123  if (absTick & 0x8000 != 0) ratio = (ratio * 0x31be135f97d08fd981231505542fcfa6) >> 128 */\n    tag_319:\n        /* \"@uniswap/v3-core/contracts/libraries/TickMath.sol\":3147:3154  0x10000 */\n      0x010000\n        /* \"@uniswap/v3-core/contracts/libraries/TickMath.sol\":3137:3154  absTick & 0x10000 */\n      dup3\n      and\n        /* \"@uniswap/v3-core/contracts/libraries/TickMath.sol\":3137:3159  absTick & 0x10000 != 0 */\n      iszero\n        /* \"@uniswap/v3-core/contracts/libraries/TickMath.sol\":3133:3219  if (absTick & 0x10000 != 0) ratio = (ratio * 0x9aa508b5b7a84e1c677de54f3e99bc9) >> 128 */\n      tag_320\n      jumpi\n        /* \"@uniswap/v3-core/contracts/libraries/TickMath.sol\":3178:3211  0x9aa508b5b7a84e1c677de54f3e99bc9 */\n      0x09aa508b5b7a84e1c677de54f3e99bc9\n        /* \"@uniswap/v3-core/contracts/libraries/TickMath.sol\":3170:3211  ratio * 0x9aa508b5b7a84e1c677de54f3e99bc9 */\n      mul\n        /* \"@uniswap/v3-core/contracts/libraries/TickMath.sol\":3216:3219  128 */\n      0x80\n        /* \"@uniswap/v3-core/contracts/libraries/TickMath.sol\":3169:3219  (ratio * 0x9aa508b5b7a84e1c677de54f3e99bc9) >> 128 */\n      shr\n        /* \"@uniswap/v3-core/contracts/libraries/TickMath.sol\":3133:3219  if (absTick & 0x10000 != 0) ratio = (ratio * 0x9aa508b5b7a84e1c677de54f3e99bc9) >> 128 */\n    tag_320:\n        /* \"@uniswap/v3-core/contracts/libraries/TickMath.sol\":3243:3250  0x20000 */\n      0x020000\n        /* \"@uniswap/v3-core/contracts/libraries/TickMath.sol\":3233:3250  absTick & 0x20000 */\n      dup3\n      and\n        /* \"@uniswap/v3-core/contracts/libraries/TickMath.sol\":3233:3255  absTick & 0x20000 != 0 */\n      iszero\n        /* \"@uniswap/v3-core/contracts/libraries/TickMath.sol\":3229:3314  if (absTick & 0x20000 != 0) ratio = (ratio * 0x5d6af8dedb81196699c329225ee604) >> 128 */\n      tag_321\n      jumpi\n        /* \"@uniswap/v3-core/contracts/libraries/TickMath.sol\":3274:3306  0x5d6af8dedb81196699c329225ee604 */\n      0x5d6af8dedb81196699c329225ee604\n        /* \"@uniswap/v3-core/contracts/libraries/TickMath.sol\":3266:3306  ratio * 0x5d6af8dedb81196699c329225ee604 */\n      mul\n        /* \"@uniswap/v3-core/contracts/libraries/TickMath.sol\":3311:3314  128 */\n      0x80\n        /* \"@uniswap/v3-core/contracts/libraries/TickMath.sol\":3265:3314  (ratio * 0x5d6af8dedb81196699c329225ee604) >> 128 */\n      shr\n        /* \"@uniswap/v3-core/contracts/libraries/TickMath.sol\":3229:3314  if (absTick & 0x20000 != 0) ratio = (ratio * 0x5d6af8dedb81196699c329225ee604) >> 128 */\n    tag_321:\n        /* \"@uniswap/v3-core/contracts/libraries/TickMath.sol\":3338:3345  0x40000 */\n      0x040000\n        /* \"@uniswap/v3-core/contracts/libraries/TickMath.sol\":3328:3345  absTick & 0x40000 */\n      dup3\n      and\n        /* \"@uniswap/v3-core/contracts/libraries/TickMath.sol\":3328:3350  absTick & 0x40000 != 0 */\n      iszero\n        /* \"@uniswap/v3-core/contracts/libraries/TickMath.sol\":3324:3407  if (absTick & 0x40000 != 0) ratio = (ratio * 0x2216e584f5fa1ea926041bedfe98) >> 128 */\n      tag_322\n      jumpi\n        /* \"@uniswap/v3-core/contracts/libraries/TickMath.sol\":3369:3399  0x2216e584f5fa1ea926041bedfe98 */\n      0x2216e584f5fa1ea926041bedfe98\n        /* \"@uniswap/v3-core/contracts/libraries/TickMath.sol\":3361:3399  ratio * 0x2216e584f5fa1ea926041bedfe98 */\n      mul\n        /* \"@uniswap/v3-core/contracts/libraries/TickMath.sol\":3404:3407  128 */\n      0x80\n        /* \"@uniswap/v3-core/contracts/libraries/TickMath.sol\":3360:3407  (ratio * 0x2216e584f5fa1ea926041bedfe98) >> 128 */\n      shr\n        /* \"@uniswap/v3-core/contracts/libraries/TickMath.sol\":3324:3407  if (absTick & 0x40000 != 0) ratio = (ratio * 0x2216e584f5fa1ea926041bedfe98) >> 128 */\n    tag_322:\n        /* \"@uniswap/v3-core/contracts/libraries/TickMath.sol\":3431:3438  0x80000 */\n      0x080000\n        /* \"@uniswap/v3-core/contracts/libraries/TickMath.sol\":3421:3438  absTick & 0x80000 */\n      dup3\n      and\n        /* \"@uniswap/v3-core/contracts/libraries/TickMath.sol\":3421:3443  absTick & 0x80000 != 0 */\n      iszero\n        /* \"@uniswap/v3-core/contracts/libraries/TickMath.sol\":3417:3495  if (absTick & 0x80000 != 0) ratio = (ratio * 0x48a170391f7dc42444e8fa2) >> 128 */\n      tag_323\n      jumpi\n        /* \"@uniswap/v3-core/contracts/libraries/TickMath.sol\":3462:3487  0x48a170391f7dc42444e8fa2 */\n      0x048a170391f7dc42444e8fa2\n        /* \"@uniswap/v3-core/contracts/libraries/TickMath.sol\":3454:3487  ratio * 0x48a170391f7dc42444e8fa2 */\n      mul\n        /* \"@uniswap/v3-core/contracts/libraries/TickMath.sol\":3492:3495  128 */\n      0x80\n        /* \"@uniswap/v3-core/contracts/libraries/TickMath.sol\":3453:3495  (ratio * 0x48a170391f7dc42444e8fa2) >> 128 */\n      shr\n        /* \"@uniswap/v3-core/contracts/libraries/TickMath.sol\":3417:3495  if (absTick & 0x80000 != 0) ratio = (ratio * 0x48a170391f7dc42444e8fa2) >> 128 */\n    tag_323:\n        /* \"@uniswap/v3-core/contracts/libraries/TickMath.sol\":3517:3518  0 */\n      0x00\n        /* \"@uniswap/v3-core/contracts/libraries/TickMath.sol\":3510:3514  tick */\n      dup5\n        /* \"@uniswap/v3-core/contracts/libraries/TickMath.sol\":3510:3518  tick > 0 */\n      0x02\n      signextend\n      sgt\n        /* \"@uniswap/v3-core/contracts/libraries/TickMath.sol\":3506:3553  if (tick > 0) ratio = type(uint256).max / ratio */\n      iszero\n      tag_324\n      jumpi\n        /* \"@uniswap/v3-core/contracts/libraries/TickMath.sol\":3548:3553  ratio */\n      dup1\n      not(0x00)\n        /* \"@uniswap/v3-core/contracts/libraries/TickMath.sol\":3528:3553  type(uint256).max / ratio */\n      dup2\n      tag_325\n      jumpi\n      invalid\n    tag_325:\n      div\n        /* \"@uniswap/v3-core/contracts/libraries/TickMath.sol\":3520:3553  ratio = type(uint256).max / ratio */\n      swap1\n      pop\n        /* \"@uniswap/v3-core/contracts/libraries/TickMath.sol\":3506:3553  if (tick > 0) ratio = type(uint256).max / ratio */\n    tag_324:\n        /* \"@uniswap/v3-core/contracts/libraries/TickMath.sol\":3912:3919  1 << 32 */\n      0x0100000000\n        /* \"@uniswap/v3-core/contracts/libraries/TickMath.sol\":3903:3908  ratio */\n      dup2\n        /* \"@uniswap/v3-core/contracts/libraries/TickMath.sol\":3903:3920  ratio % (1 << 32) */\n      mod\n        /* \"@uniswap/v3-core/contracts/libraries/TickMath.sol\":3903:3925  ratio % (1 << 32) == 0 */\n      iszero\n        /* \"@uniswap/v3-core/contracts/libraries/TickMath.sol\":3903:3933  ratio % (1 << 32) == 0 ? 0 : 1 */\n      tag_327\n      jumpi\n        /* \"@uniswap/v3-core/contracts/libraries/TickMath.sol\":3932:3933  1 */\n      0x01\n        /* \"@uniswap/v3-core/contracts/libraries/TickMath.sol\":3903:3933  ratio % (1 << 32) == 0 ? 0 : 1 */\n      jump(tag_328)\n    tag_327:\n        /* \"@uniswap/v3-core/contracts/libraries/TickMath.sol\":3928:3929  0 */\n      0x00\n        /* \"@uniswap/v3-core/contracts/libraries/TickMath.sol\":3903:3933  ratio % (1 << 32) == 0 ? 0 : 1 */\n    tag_328:\n        /* \"@uniswap/v3-core/contracts/libraries/TickMath.sol\":3886:3934  (ratio >> 32) + (ratio % (1 << 32) == 0 ? 0 : 1) */\n      0xff\n      and\n        /* \"@uniswap/v3-core/contracts/libraries/TickMath.sol\":3896:3898  32 */\n      0x20\n        /* \"@uniswap/v3-core/contracts/libraries/TickMath.sol\":3887:3892  ratio */\n      dup3\n        /* \"@uniswap/v3-core/contracts/libraries/TickMath.sol\":3887:3898  ratio >> 32 */\n      swap1\n      shr\n        /* \"@uniswap/v3-core/contracts/libraries/TickMath.sol\":3886:3934  (ratio >> 32) + (ratio % (1 << 32) == 0 ? 0 : 1) */\n      add\n        /* \"@uniswap/v3-core/contracts/libraries/TickMath.sol\":3863:3935  sqrtPriceX96 = uint160((ratio >> 32) + (ratio % (1 << 32) == 0 ? 0 : 1)) */\n      swap3\n      pop\n        /* \"@uniswap/v3-core/contracts/libraries/TickMath.sol\":1362:3942  function getSqrtRatioAtTick(int24 tick) internal pure returns (uint160 sqrtPriceX96) {... */\n      pop\n      pop\n      swap2\n      swap1\n      pop\n      jump\t// out\n        /* \"contracts/uniswap/libraries/NFTDescriptor.sol\":10976:13239  function fixedPointToDecimalString(... */\n    tag_234:\n        /* \"contracts/uniswap/libraries/NFTDescriptor.sol\":11137:11150  string memory */\n      0x60\n        /* \"contracts/uniswap/libraries/NFTDescriptor.sol\":11162:11190  uint256 adjustedSqrtRatioX96 */\n      0x00\n        /* \"contracts/uniswap/libraries/NFTDescriptor.sol\":11193:11271  adjustForDecimalPrecision(sqrtRatioX96, baseTokenDecimals, quoteTokenDecimals) */\n      tag_330\n        /* \"contracts/uniswap/libraries/NFTDescriptor.sol\":11219:11231  sqrtRatioX96 */\n      dup6\n        /* \"contracts/uniswap/libraries/NFTDescriptor.sol\":11233:11250  baseTokenDecimals */\n      dup6\n        /* \"contracts/uniswap/libraries/NFTDescriptor.sol\":11252:11270  quoteTokenDecimals */\n      dup6\n        /* \"contracts/uniswap/libraries/NFTDescriptor.sol\":11193:11218  adjustForDecimalPrecision */\n      tag_331\n        /* \"contracts/uniswap/libraries/NFTDescriptor.sol\":11193:11271  adjustForDecimalPrecision(sqrtRatioX96, baseTokenDecimals, quoteTokenDecimals) */\n      jump\t// in\n    tag_330:\n        /* \"contracts/uniswap/libraries/NFTDescriptor.sol\":11162:11271  uint256 adjustedSqrtRatioX96 = adjustForDecimalPrecision(sqrtRatioX96, baseTokenDecimals, quoteTokenDecimals) */\n      swap1\n      pop\n        /* \"contracts/uniswap/libraries/NFTDescriptor.sol\":11281:11294  uint256 value */\n      0x00\n        /* \"contracts/uniswap/libraries/NFTDescriptor.sol\":11297:11365  FullMath.mulDiv(adjustedSqrtRatioX96, adjustedSqrtRatioX96, 1 << 64) */\n      tag_332\n        /* \"contracts/uniswap/libraries/NFTDescriptor.sol\":11313:11333  adjustedSqrtRatioX96 */\n      dup3\n        /* \"contracts/uniswap/libraries/NFTDescriptor.sol\":11335:11355  adjustedSqrtRatioX96 */\n      dup4\n        /* \"contracts/uniswap/libraries/NFTDescriptor.sol\":11357:11364  1 << 64 */\n      0x010000000000000000\n        /* \"contracts/uniswap/libraries/NFTDescriptor.sol\":11297:11312  FullMath.mulDiv */\n      tag_333\n        /* \"contracts/uniswap/libraries/NFTDescriptor.sol\":11297:11365  FullMath.mulDiv(adjustedSqrtRatioX96, adjustedSqrtRatioX96, 1 << 64) */\n      jump\t// in\n    tag_332:\n        /* \"contracts/uniswap/libraries/NFTDescriptor.sol\":11281:11365  uint256 value = FullMath.mulDiv(adjustedSqrtRatioX96, adjustedSqrtRatioX96, 1 << 64) */\n      swap1\n      pop\n        /* \"contracts/uniswap/libraries/NFTDescriptor.sol\":11418:11423  2**96 */\n      0x01000000000000000000000000\n        /* \"contracts/uniswap/libraries/NFTDescriptor.sol\":11395:11423  adjustedSqrtRatioX96 < 2**96 */\n      dup3\n      lt\n        /* \"contracts/uniswap/libraries/NFTDescriptor.sol\":11433:11786  if (priceBelow1) {... */\n      dup1\n      iszero\n      tag_334\n      jumpi\n        /* \"contracts/uniswap/libraries/NFTDescriptor.sol\":11582:11622  FullMath.mulDiv(value, 10**44, 1 << 128) */\n      tag_335\n        /* \"contracts/uniswap/libraries/NFTDescriptor.sol\":11598:11603  value */\n      dup3\n        /* \"contracts/uniswap/libraries/NFTDescriptor.sol\":11605:11611  10**44 */\n      0x047bf19673df52e37f2410011d100000000000\n        /* \"contracts/uniswap/libraries/NFTDescriptor.sol\":11613:11621  1 << 128 */\n      0x0100000000000000000000000000000000\n        /* \"contracts/uniswap/libraries/NFTDescriptor.sol\":11582:11597  FullMath.mulDiv */\n      tag_333\n        /* \"contracts/uniswap/libraries/NFTDescriptor.sol\":11582:11622  FullMath.mulDiv(value, 10**44, 1 << 128) */\n      jump\t// in\n    tag_335:\n        /* \"contracts/uniswap/libraries/NFTDescriptor.sol\":11574:11622  value = FullMath.mulDiv(value, 10**44, 1 << 128) */\n      swap2\n      pop\n        /* \"contracts/uniswap/libraries/NFTDescriptor.sol\":11433:11786  if (priceBelow1) {... */\n      jump(tag_336)\n    tag_334:\n        /* \"contracts/uniswap/libraries/NFTDescriptor.sol\":11736:11775  FullMath.mulDiv(value, 10**5, 1 << 128) */\n      tag_337\n        /* \"contracts/uniswap/libraries/NFTDescriptor.sol\":11752:11757  value */\n      dup3\n        /* \"contracts/uniswap/libraries/NFTDescriptor.sol\":11759:11764  10**5 */\n      0x0186a0\n        /* \"contracts/uniswap/libraries/NFTDescriptor.sol\":11766:11774  1 << 128 */\n      0x0100000000000000000000000000000000\n        /* \"contracts/uniswap/libraries/NFTDescriptor.sol\":11736:11751  FullMath.mulDiv */\n      tag_333\n        /* \"contracts/uniswap/libraries/NFTDescriptor.sol\":11736:11775  FullMath.mulDiv(value, 10**5, 1 << 128) */\n      jump\t// in\n    tag_337:\n        /* \"contracts/uniswap/libraries/NFTDescriptor.sol\":11728:11775  value = FullMath.mulDiv(value, 10**5, 1 << 128) */\n      swap2\n      pop\n        /* \"contracts/uniswap/libraries/NFTDescriptor.sol\":11433:11786  if (priceBelow1) {... */\n    tag_336:\n        /* \"contracts/uniswap/libraries/NFTDescriptor.sol\":11838:11843  value */\n      dup2\n        /* \"contracts/uniswap/libraries/NFTDescriptor.sol\":11823:11835  uint256 temp */\n      0x00\n        /* \"contracts/uniswap/libraries/NFTDescriptor.sol\":11875:11950  while (temp != 0) {... */\n    tag_338:\n        /* \"contracts/uniswap/libraries/NFTDescriptor.sol\":11882:11891  temp != 0 */\n      dup2\n      iszero\n        /* \"contracts/uniswap/libraries/NFTDescriptor.sol\":11875:11950  while (temp != 0) {... */\n      tag_339\n      jumpi\n        /* \"contracts/uniswap/libraries/NFTDescriptor.sol\":11907:11915  digits++ */\n      0x01\n      add\n        /* \"contracts/uniswap/libraries/NFTDescriptor.sol\":11937:11939  10 */\n      0x0a\n        /* \"contracts/uniswap/libraries/NFTDescriptor.sol\":11929:11939  temp /= 10 */\n      dup3\n      div\n      swap2\n      pop\n        /* \"contracts/uniswap/libraries/NFTDescriptor.sol\":11875:11950  while (temp != 0) {... */\n      jump(tag_338)\n    tag_339:\n      not(0x00)\n        /* \"contracts/uniswap/libraries/NFTDescriptor.sol\":12021:12031  digits - 1 */\n      add\n        /* \"contracts/uniswap/libraries/NFTDescriptor.sol\":12071:12086  uint256 sigfigs */\n      0x00\n      dup1\n        /* \"contracts/uniswap/libraries/NFTDescriptor.sol\":12107:12136  sigfigsRounded(value, digits) */\n      tag_341\n        /* \"contracts/uniswap/libraries/NFTDescriptor.sol\":12122:12127  value */\n      dup7\n        /* \"contracts/uniswap/libraries/NFTDescriptor.sol\":12021:12031  digits - 1 */\n      dup5\n        /* \"contracts/uniswap/libraries/NFTDescriptor.sol\":12107:12121  sigfigsRounded */\n      tag_342\n        /* \"contracts/uniswap/libraries/NFTDescriptor.sol\":12107:12136  sigfigsRounded(value, digits) */\n      jump\t// in\n    tag_341:\n        /* \"contracts/uniswap/libraries/NFTDescriptor.sol\":12070:12136  (uint256 sigfigs, bool extraDigit) = sigfigsRounded(value, digits) */\n      swap2\n      pop\n      swap2\n      pop\n        /* \"contracts/uniswap/libraries/NFTDescriptor.sol\":12150:12160  extraDigit */\n      dup1\n        /* \"contracts/uniswap/libraries/NFTDescriptor.sol\":12146:12195  if (extraDigit) {... */\n      iszero\n      tag_343\n      jumpi\n        /* \"contracts/uniswap/libraries/NFTDescriptor.sol\":12176:12184  digits++ */\n      0x01\n      swap1\n      swap3\n      add\n      swap2\n        /* \"contracts/uniswap/libraries/NFTDescriptor.sol\":12146:12195  if (extraDigit) {... */\n    tag_343:\n        /* \"contracts/uniswap/libraries/NFTDescriptor.sol\":12205:12238  DecimalStringParams memory params */\n      tag_344\n      tag_48\n      jump\t// in\n    tag_344:\n        /* \"contracts/uniswap/libraries/NFTDescriptor.sol\":12252:12263  priceBelow1 */\n      dup6\n        /* \"contracts/uniswap/libraries/NFTDescriptor.sol\":12248:13074  if (priceBelow1) {... */\n      iszero\n      tag_345\n      jumpi\n        /* \"contracts/uniswap/libraries/NFTDescriptor.sol\":12372:12407  uint8(7).add(uint8(43).sub(digits)) */\n      tag_346\n        /* \"contracts/uniswap/libraries/NFTDescriptor.sol\":12385:12406  uint8(43).sub(digits) */\n      tag_347\n        /* \"contracts/uniswap/libraries/NFTDescriptor.sol\":12391:12393  43 */\n      0x2b\n        /* \"contracts/uniswap/libraries/NFTDescriptor.sol\":12385:12406  uint8(43).sub(digits) */\n      0xff\n      dup8\n      and\n        /* \"contracts/uniswap/libraries/NFTDescriptor.sol\":12385:12398  uint8(43).sub */\n      tag_51\n        /* \"contracts/uniswap/libraries/NFTDescriptor.sol\":12385:12406  uint8(43).sub(digits) */\n      jump\t// in\n    tag_347:\n        /* \"contracts/uniswap/libraries/NFTDescriptor.sol\":12378:12379  7 */\n      0x07\n      swap1\n        /* \"contracts/uniswap/libraries/NFTDescriptor.sol\":12372:12384  uint8(7).add */\n      tag_63\n        /* \"contracts/uniswap/libraries/NFTDescriptor.sol\":12372:12407  uint8(7).add(uint8(43).sub(digits)) */\n      jump\t// in\n    tag_346:\n        /* \"contracts/uniswap/libraries/NFTDescriptor.sol\":12344:12408  params.bufferLength = uint8(uint8(7).add(uint8(43).sub(digits))) */\n      0xff\n      swap1\n      dup2\n      and\n        /* \"contracts/uniswap/libraries/NFTDescriptor.sol\":12344:12363  params.bufferLength */\n      0x20\n      dup4\n      add\n        /* \"contracts/uniswap/libraries/NFTDescriptor.sol\":12344:12408  params.bufferLength = uint8(uint8(7).add(uint8(43).sub(digits))) */\n      mstore\n        /* \"contracts/uniswap/libraries/NFTDescriptor.sol\":12447:12448  2 */\n      0x02\n        /* \"contracts/uniswap/libraries/NFTDescriptor.sol\":12422:12444  params.zerosStartIndex */\n      0x80\n      dup4\n      add\n        /* \"contracts/uniswap/libraries/NFTDescriptor.sol\":12422:12448  params.zerosStartIndex = 2 */\n      mstore\n        /* \"contracts/uniswap/libraries/NFTDescriptor.sol\":12491:12521  uint256(43).sub(digits).add(1) */\n      tag_348\n      swap1\n        /* \"contracts/uniswap/libraries/NFTDescriptor.sol\":12519:12520  1 */\n      0x01\n      swap1\n        /* \"contracts/uniswap/libraries/NFTDescriptor.sol\":12491:12514  uint256(43).sub(digits) */\n      tag_65\n      swap1\n        /* \"contracts/uniswap/libraries/NFTDescriptor.sol\":12499:12501  43 */\n      0x2b\n      swap1\n        /* \"contracts/uniswap/libraries/NFTDescriptor.sol\":12491:12514  uint256(43).sub(digits) */\n      dup9\n      and\n        /* \"contracts/uniswap/libraries/NFTDescriptor.sol\":12491:12506  uint256(43).sub */\n      tag_51\n        /* \"contracts/uniswap/libraries/NFTDescriptor.sol\":12491:12514  uint256(43).sub(digits) */\n      jump\t// in\n        /* \"contracts/uniswap/libraries/NFTDescriptor.sol\":12491:12521  uint256(43).sub(digits).add(1) */\n    tag_348:\n        /* \"contracts/uniswap/libraries/NFTDescriptor.sol\":12462:12522  params.zerosEndIndex = uint8(uint256(43).sub(digits).add(1)) */\n      0xff\n      swap1\n      dup2\n      and\n        /* \"contracts/uniswap/libraries/NFTDescriptor.sol\":12462:12482  params.zerosEndIndex */\n      0xa0\n      dup4\n      add\n        /* \"contracts/uniswap/libraries/NFTDescriptor.sol\":12462:12522  params.zerosEndIndex = uint8(uint256(43).sub(digits).add(1)) */\n      mstore\n        /* \"contracts/uniswap/libraries/NFTDescriptor.sol\":12563:12582  params.bufferLength */\n      0x20\n      dup3\n      add\n      mload\n        /* \"contracts/uniswap/libraries/NFTDescriptor.sol\":12563:12589  params.bufferLength.sub(1) */\n      tag_350\n      swap2\n        /* \"contracts/uniswap/libraries/NFTDescriptor.sol\":12563:12586  params.bufferLength.sub */\n      and\n        /* \"contracts/uniswap/libraries/NFTDescriptor.sol\":12587:12588  1 */\n      0x01\n        /* \"contracts/uniswap/libraries/NFTDescriptor.sol\":12563:12586  params.bufferLength.sub */\n      tag_51\n        /* \"contracts/uniswap/libraries/NFTDescriptor.sol\":12563:12589  params.bufferLength.sub(1) */\n      jump\t// in\n    tag_350:\n        /* \"contracts/uniswap/libraries/NFTDescriptor.sol\":12536:12590  params.sigfigIndex = uint8(params.bufferLength.sub(1)) */\n      0xff\n      and\n        /* \"contracts/uniswap/libraries/NFTDescriptor.sol\":12536:12554  params.sigfigIndex */\n      0x40\n      dup3\n      add\n        /* \"contracts/uniswap/libraries/NFTDescriptor.sol\":12536:12590  params.sigfigIndex = uint8(params.bufferLength.sub(1)) */\n      mstore\n        /* \"contracts/uniswap/libraries/NFTDescriptor.sol\":12248:13074  if (priceBelow1) {... */\n      jump(tag_355)\n    tag_345:\n        /* \"contracts/uniswap/libraries/NFTDescriptor.sol\":12621:12622  9 */\n      0x09\n        /* \"contracts/uniswap/libraries/NFTDescriptor.sol\":12611:12617  digits */\n      dup5\n        /* \"contracts/uniswap/libraries/NFTDescriptor.sol\":12611:12622  digits >= 9 */\n      0xff\n      and\n      lt\n        /* \"contracts/uniswap/libraries/NFTDescriptor.sol\":12607:13074  if (digits >= 9) {... */\n      tag_352\n      jumpi\n        /* \"contracts/uniswap/libraries/NFTDescriptor.sol\":12708:12721  digits.sub(4) */\n      tag_353\n        /* \"contracts/uniswap/libraries/NFTDescriptor.sol\":12708:12718  digits.sub */\n      0xff\n      dup6\n      and\n        /* \"contracts/uniswap/libraries/NFTDescriptor.sol\":12719:12720  4 */\n      0x04\n        /* \"contracts/uniswap/libraries/NFTDescriptor.sol\":12708:12718  digits.sub */\n      tag_51\n        /* \"contracts/uniswap/libraries/NFTDescriptor.sol\":12708:12721  digits.sub(4) */\n      jump\t// in\n    tag_353:\n        /* \"contracts/uniswap/libraries/NFTDescriptor.sol\":12680:12722  params.bufferLength = uint8(digits.sub(4)) */\n      0xff\n      and\n        /* \"contracts/uniswap/libraries/NFTDescriptor.sol\":12680:12699  params.bufferLength */\n      0x20\n      dup3\n      add\n        /* \"contracts/uniswap/libraries/NFTDescriptor.sol\":12680:12722  params.bufferLength = uint8(digits.sub(4)) */\n      dup2\n      swap1\n      mstore\n        /* \"contracts/uniswap/libraries/NFTDescriptor.sol\":12761:12762  5 */\n      0x05\n        /* \"contracts/uniswap/libraries/NFTDescriptor.sol\":12736:12758  params.zerosStartIndex */\n      0x80\n      dup4\n      add\n        /* \"contracts/uniswap/libraries/NFTDescriptor.sol\":12736:12762  params.zerosStartIndex = 5 */\n      mstore\n        /* \"contracts/uniswap/libraries/NFTDescriptor.sol\":12805:12831  params.bufferLength.sub(1) */\n      tag_354\n      swap1\n        /* \"contracts/uniswap/libraries/NFTDescriptor.sol\":12829:12830  1 */\n      0x01\n        /* \"contracts/uniswap/libraries/NFTDescriptor.sol\":12805:12828  params.bufferLength.sub */\n      tag_51\n        /* \"contracts/uniswap/libraries/NFTDescriptor.sol\":12805:12831  params.bufferLength.sub(1) */\n      jump\t// in\n    tag_354:\n        /* \"contracts/uniswap/libraries/NFTDescriptor.sol\":12776:12832  params.zerosEndIndex = uint8(params.bufferLength.sub(1)) */\n      0xff\n      and\n        /* \"contracts/uniswap/libraries/NFTDescriptor.sol\":12776:12796  params.zerosEndIndex */\n      0xa0\n      dup3\n      add\n        /* \"contracts/uniswap/libraries/NFTDescriptor.sol\":12776:12832  params.zerosEndIndex = uint8(params.bufferLength.sub(1)) */\n      mstore\n        /* \"contracts/uniswap/libraries/NFTDescriptor.sol\":12867:12868  4 */\n      0x04\n        /* \"contracts/uniswap/libraries/NFTDescriptor.sol\":12846:12864  params.sigfigIndex */\n      0x40\n      dup3\n      add\n        /* \"contracts/uniswap/libraries/NFTDescriptor.sol\":12846:12868  params.sigfigIndex = 4 */\n      mstore\n        /* \"contracts/uniswap/libraries/NFTDescriptor.sol\":12607:13074  if (digits >= 9) {... */\n      jump(tag_355)\n    tag_352:\n        /* \"contracts/uniswap/libraries/NFTDescriptor.sol\":12963:12964  6 */\n      0x06\n        /* \"contracts/uniswap/libraries/NFTDescriptor.sol\":12941:12960  params.bufferLength */\n      0x20\n      dup3\n      add\n        /* \"contracts/uniswap/libraries/NFTDescriptor.sol\":12941:12964  params.bufferLength = 6 */\n      mstore\n        /* \"contracts/uniswap/libraries/NFTDescriptor.sol\":12999:13000  5 */\n      0x05\n        /* \"contracts/uniswap/libraries/NFTDescriptor.sol\":12978:12996  params.sigfigIndex */\n      0x40\n      dup3\n      add\n        /* \"contracts/uniswap/libraries/NFTDescriptor.sol\":12978:13000  params.sigfigIndex = 5 */\n      dup2\n      swap1\n      mstore\n        /* \"contracts/uniswap/libraries/NFTDescriptor.sol\":13042:13062  digits.sub(5).add(1) */\n      tag_356\n      swap1\n        /* \"contracts/uniswap/libraries/NFTDescriptor.sol\":13060:13061  1 */\n      0x01\n      swap1\n        /* \"contracts/uniswap/libraries/NFTDescriptor.sol\":13042:13055  digits.sub(5) */\n      tag_65\n      swap1\n        /* \"contracts/uniswap/libraries/NFTDescriptor.sol\":12941:12964  params.bufferLength = 6 */\n      0xff\n        /* \"contracts/uniswap/libraries/NFTDescriptor.sol\":13042:13052  digits.sub */\n      dup9\n      and\n      swap1\n      tag_51\n        /* \"contracts/uniswap/libraries/NFTDescriptor.sol\":13042:13055  digits.sub(5) */\n      jump\t// in\n        /* \"contracts/uniswap/libraries/NFTDescriptor.sol\":13042:13062  digits.sub(5).add(1) */\n    tag_356:\n        /* \"contracts/uniswap/libraries/NFTDescriptor.sol\":13014:13063  params.decimalIndex = uint8(digits.sub(5).add(1)) */\n      0xff\n      and\n        /* \"contracts/uniswap/libraries/NFTDescriptor.sol\":13014:13033  params.decimalIndex */\n      0x60\n      dup3\n      add\n        /* \"contracts/uniswap/libraries/NFTDescriptor.sol\":13014:13063  params.decimalIndex = uint8(digits.sub(5).add(1)) */\n      mstore\n        /* \"contracts/uniswap/libraries/NFTDescriptor.sol\":12607:13074  if (digits >= 9) {... */\n    tag_355:\n        /* \"contracts/uniswap/libraries/NFTDescriptor.sol\":13083:13107  params.sigfigs = sigfigs */\n      dup3\n      dup2\n      mstore\n        /* \"contracts/uniswap/libraries/NFTDescriptor.sol\":13117:13151  params.isLessThanOne = priceBelow1 */\n      dup6\n      iszero\n      iszero\n        /* \"contracts/uniswap/libraries/NFTDescriptor.sol\":13117:13137  params.isLessThanOne */\n      0xc0\n      dup3\n      add\n        /* \"contracts/uniswap/libraries/NFTDescriptor.sol\":13117:13151  params.isLessThanOne = priceBelow1 */\n      mstore\n        /* \"contracts/uniswap/libraries/NFTDescriptor.sol\":13083:13097  params.sigfigs */\n      0x00\n        /* \"contracts/uniswap/libraries/NFTDescriptor.sol\":13161:13177  params.isPercent */\n      0xe0\n      dup3\n      add\n        /* \"contracts/uniswap/libraries/NFTDescriptor.sol\":13161:13185  params.isPercent = false */\n      mstore\n        /* \"contracts/uniswap/libraries/NFTDescriptor.sol\":13203:13232  generateDecimalString(params) */\n      tag_358\n        /* \"contracts/uniswap/libraries/NFTDescriptor.sol\":13083:13089  params */\n      dup2\n        /* \"contracts/uniswap/libraries/NFTDescriptor.sol\":13203:13224  generateDecimalString */\n      tag_83\n        /* \"contracts/uniswap/libraries/NFTDescriptor.sol\":13203:13232  generateDecimalString(params) */\n      jump\t// in\n    tag_358:\n        /* \"contracts/uniswap/libraries/NFTDescriptor.sol\":13196:13232  return generateDecimalString(params) */\n      swap13\n        /* \"contracts/uniswap/libraries/NFTDescriptor.sol\":10976:13239  function fixedPointToDecimalString(... */\n      swap12\n      pop\n      pop\n      pop\n      pop\n      pop\n      pop\n      pop\n      pop\n      pop\n      pop\n      pop\n      pop\n      jump\t// out\n        /* \"contracts/uniswap/libraries/HexStrings.sol\":880:1209  function toHexStringNoPrefix(uint256 value, uint256 length) internal pure returns (string memory) {... */\n    tag_253:\n        /* \"contracts/uniswap/libraries/HexStrings.sol\":963:976  string memory */\n      0x60\n        /* \"contracts/uniswap/libraries/HexStrings.sol\":988:1007  bytes memory buffer */\n      0x00\n        /* \"contracts/uniswap/libraries/HexStrings.sol\":1024:1030  length */\n      dup3\n        /* \"contracts/uniswap/libraries/HexStrings.sol\":1020:1021  2 */\n      0x02\n        /* \"contracts/uniswap/libraries/HexStrings.sol\":1020:1030  2 * length */\n      mul\n        /* \"contracts/uniswap/libraries/HexStrings.sol\":1010:1031  new bytes(2 * length) */\n      0xffffffffffffffff\n      dup2\n      gt\n      dup1\n      iszero\n      tag_360\n      jumpi\n      0x00\n      dup1\n      revert\n    tag_360:\n      pop\n      mload(0x40)\n      swap1\n      dup1\n      dup3\n      mstore\n      dup1\n      0x1f\n      add\n      not(0x1f)\n      and\n      0x20\n      add\n      dup3\n      add\n      0x40\n      mstore\n      dup1\n      iszero\n      tag_361\n      jumpi\n      0x20\n      dup3\n      add\n      dup2\n      dup1\n      calldatasize\n      dup4\n      calldatacopy\n      add\n      swap1\n      pop\n    tag_361:\n      pop\n        /* \"contracts/uniswap/libraries/HexStrings.sol\":1058:1071  buffer.length */\n      dup1\n      mload\n        /* \"contracts/uniswap/libraries/HexStrings.sol\":988:1031  bytes memory buffer = new bytes(2 * length) */\n      swap1\n      swap2\n      pop\n        /* \"contracts/uniswap/libraries/HexStrings.sol\":1041:1172  for (uint256 i = buffer.length; i > 0; i--) {... */\n    tag_362:\n        /* \"contracts/uniswap/libraries/HexStrings.sol\":1073:1078  i > 0 */\n      dup1\n      iszero\n        /* \"contracts/uniswap/libraries/HexStrings.sol\":1041:1172  for (uint256 i = buffer.length; i > 0; i--) {... */\n      tag_363\n      jumpi\n        /* \"contracts/uniswap/libraries/HexStrings.sol\":1115:1123  ALPHABET */\n      0x3031323334353637383961626364656600000000000000000000000000000000\n        /* \"contracts/uniswap/libraries/HexStrings.sol\":1124:1129  value */\n      dup6\n        /* \"contracts/uniswap/libraries/HexStrings.sol\":1132:1135  0xf */\n      0x0f\n        /* \"contracts/uniswap/libraries/HexStrings.sol\":1124:1135  value & 0xf */\n      and\n        /* \"contracts/uniswap/libraries/HexStrings.sol\":1115:1136  ALPHABET[value & 0xf] */\n      0x10\n      dup2\n      lt\n      tag_365\n      jumpi\n      invalid\n    tag_365:\n      byte\n      0xf8\n      shl\n        /* \"contracts/uniswap/libraries/HexStrings.sol\":1099:1105  buffer */\n      dup3\n        /* \"contracts/uniswap/libraries/HexStrings.sol\":1110:1111  1 */\n      0x01\n        /* \"contracts/uniswap/libraries/HexStrings.sol\":1106:1107  i */\n      dup4\n        /* \"contracts/uniswap/libraries/HexStrings.sol\":1106:1111  i - 1 */\n      sub\n        /* \"contracts/uniswap/libraries/HexStrings.sol\":1099:1112  buffer[i - 1] */\n      dup2\n      mload\n      dup2\n      lt\n      tag_366\n      jumpi\n      invalid\n    tag_366:\n      0x20\n      add\n      add\n        /* \"contracts/uniswap/libraries/HexStrings.sol\":1099:1136  buffer[i - 1] = ALPHABET[value & 0xf] */\n      swap1\n      not(0xffffffffffffffffffffffffffffffffffffffffffffffffffffffffffffff)\n      and\n      swap1\n      dup2\n      0x00\n      byte\n      swap1\n      mstore8\n      pop\n        /* \"contracts/uniswap/libraries/HexStrings.sol\":1160:1161  4 */\n      0x04\n        /* \"contracts/uniswap/libraries/HexStrings.sol\":1150:1161  value >>= 4 */\n      swap5\n      swap1\n      swap5\n      shr\n      swap4\n      not(0x00)\n        /* \"contracts/uniswap/libraries/HexStrings.sol\":1080:1083  i-- */\n      add\n        /* \"contracts/uniswap/libraries/HexStrings.sol\":1041:1172  for (uint256 i = buffer.length; i > 0; i--) {... */\n      jump(tag_362)\n    tag_363:\n      pop\n        /* \"contracts/uniswap/libraries/HexStrings.sol\":1195:1201  buffer */\n      swap4\n        /* \"contracts/uniswap/libraries/HexStrings.sol\":880:1209  function toHexStringNoPrefix(uint256 value, uint256 length) internal pure returns (string memory) {... */\n      swap3\n      pop\n      pop\n      pop\n      jump\t// out\n        /* \"contracts/uniswap/libraries/NFTDescriptor.sol\":18185:18326  function sliceTokenHex(uint256 token, uint256 offset) internal pure returns (uint256) {... */\n    tag_256:\n        /* \"contracts/uniswap/libraries/NFTDescriptor.sol\":18302:18317  token >> offset */\n      shr\n        /* \"contracts/uniswap/libraries/NFTDescriptor.sol\":18288:18319  uint256(uint8(token >> offset)) */\n      0xff\n      and\n      swap1\n        /* \"contracts/uniswap/libraries/NFTDescriptor.sol\":18185:18326  function sliceTokenHex(uint256 token, uint256 offset) internal pure returns (uint256) {... */\n      jump\t// out\n        /* \"@openzeppelin/contracts/math/SafeMath.sol\":3530:3745  function mul(uint256 a, uint256 b) internal pure returns (uint256) {... */\n    tag_266:\n        /* \"@openzeppelin/contracts/math/SafeMath.sol\":3588:3595  uint256 */\n      0x00\n        /* \"@openzeppelin/contracts/math/SafeMath.sol\":3611:3617  a == 0 */\n      dup3\n        /* \"@openzeppelin/contracts/math/SafeMath.sol\":3607:3627  if (a == 0) return 0 */\n      tag_369\n      jumpi\n      pop\n        /* \"@openzeppelin/contracts/math/SafeMath.sol\":3626:3627  0 */\n      0x00\n        /* \"@openzeppelin/contracts/math/SafeMath.sol\":3619:3627  return 0 */\n      jump(tag_84)\n        /* \"@openzeppelin/contracts/math/SafeMath.sol\":3607:3627  if (a == 0) return 0 */\n    tag_369:\n        /* \"@openzeppelin/contracts/math/SafeMath.sol\":3649:3654  a * b */\n      dup3\n      dup3\n      mul\n        /* \"@openzeppelin/contracts/math/SafeMath.sol\":3653:3654  b */\n      dup3\n        /* \"@openzeppelin/contracts/math/SafeMath.sol\":3649:3650  a */\n      dup5\n        /* \"@openzeppelin/contracts/math/SafeMath.sol\":3649:3654  a * b */\n      dup3\n        /* \"@openzeppelin/contracts/math/SafeMath.sol\":3649:3650  a */\n      dup2\n        /* \"@openzeppelin/contracts/math/SafeMath.sol\":3672:3677  c / a */\n      tag_370\n      jumpi\n      invalid\n    tag_370:\n      div\n        /* \"@openzeppelin/contracts/math/SafeMath.sol\":3672:3682  c / a == b */\n      eq\n        /* \"@openzeppelin/contracts/math/SafeMath.sol\":3664:3720  require(c / a == b, \"SafeMath: multiplication overflow\") */\n      tag_116\n      jumpi\n      0x00\n      dup1\n      revert\n        /* \"contracts/uniswap/libraries/NFTSVG.sol\":2752:8095  function generateSVGDefs(SVGParams memory params) private pure returns (string memory svg) {... */\n    tag_269:\n        /* \"contracts/uniswap/libraries/NFTSVG.sol\":2824:2841  string memory svg */\n      0x60\n        /* \"contracts/uniswap/libraries/NFTSVG.sol\":3204:3597  Base64.encode(... */\n      tag_373\n        /* \"contracts/uniswap/libraries/NFTSVG.sol\":3477:3483  params */\n      dup3\n        /* \"contracts/uniswap/libraries/NFTSVG.sol\":3477:3490  params.color0 */\n      0x0160\n      add\n      mload\n        /* \"contracts/uniswap/libraries/NFTSVG.sol\":3270:3557  abi.encodePacked(... */\n      add(0x20, mload(0x40))\n      dup1\n      dup1\n      data_6d360492c387efc9efda370d7689d5bdc8d71342f56e5194b111ebf036750734\n      0x81\n      swap2\n      codecopy\n      0x81\n      add\n      dup3\n      dup1\n      mload\n      swap1\n      0x20\n      add\n      swap1\n      dup1\n      dup4\n      dup4\n    tag_374:\n      0x20\n      dup4\n      lt\n      tag_376\n      jumpi\n      dup1\n      mload\n      dup3\n      mstore\n      not(0x1f)\n      swap1\n      swap3\n      add\n      swap2\n      0x20\n      swap2\n      dup3\n      add\n      swap2\n      add\n      jump(tag_374)\n    tag_376:\n      0x01\n      dup4\n      0x20\n      sub\n      0x0100\n      exp\n      sub\n      dup1\n      not\n      dup3\n      mload\n      and\n      dup2\n      dup5\n      mload\n      and\n      dup1\n      dup3\n      or\n      dup6\n      mstore\n      pop\n      pop\n      pop\n      pop\n      pop\n      pop\n      swap1\n      pop\n      add\n      dup1\n      0x272f3e3c2f7376673e0000000000000000000000000000000000000000000000\n      dup2\n      mstore\n      pop\n      0x09\n      add\n      swap2\n      pop\n      pop\n      mload(0x40)\n      0x20\n      dup2\n      dup4\n      sub\n      sub\n      dup2\n      mstore\n      swap1\n      0x40\n      mstore\n        /* \"contracts/uniswap/libraries/NFTSVG.sol\":3204:3217  Base64.encode */\n      tag_32\n        /* \"contracts/uniswap/libraries/NFTSVG.sol\":3204:3597  Base64.encode(... */\n      jump\t// in\n    tag_373:\n        /* \"contracts/uniswap/libraries/NFTSVG.sol\":3697:4227  Base64.encode(... */\n      tag_377\n        /* \"contracts/uniswap/libraries/NFTSVG.sol\":3940:3946  params */\n      dup4\n        /* \"contracts/uniswap/libraries/NFTSVG.sol\":3940:3949  params.x1 */\n      0x01e0\n      add\n      mload\n        /* \"contracts/uniswap/libraries/NFTSVG.sol\":4017:4023  params */\n      dup5\n        /* \"contracts/uniswap/libraries/NFTSVG.sol\":4017:4026  params.y1 */\n      0x0200\n      add\n      mload\n        /* \"contracts/uniswap/libraries/NFTSVG.sol\":4107:4113  params */\n      dup6\n        /* \"contracts/uniswap/libraries/NFTSVG.sol\":4107:4120  params.color1 */\n      0x0180\n      add\n      mload\n        /* \"contracts/uniswap/libraries/NFTSVG.sol\":3763:4187  abi.encodePacked(... */\n      add(0x20, mload(0x40))\n      dup1\n      dup1\n      data_3c48d7b755ef30478f9fcb7df9667e587d5469eaab81f8e56e6c358f2f43959f\n      0x63\n      swap2\n      codecopy\n      0x63\n      add\n      dup5\n      dup1\n      mload\n      swap1\n      0x20\n      add\n      swap1\n      dup1\n      dup4\n      dup4\n    tag_378:\n      0x20\n      dup4\n      lt\n      tag_380\n      jumpi\n      dup1\n      mload\n      dup3\n      mstore\n      not(0x1f)\n      swap1\n      swap3\n      add\n      swap2\n      0x20\n      swap2\n      dup3\n      add\n      swap2\n      add\n      jump(tag_378)\n    tag_380:\n      mload\n      dup2\n      mload\n      0x20\n      swap4\n      dup5\n      sub\n      0x0100\n      exp\n      not(0x00)\n      add\n      dup1\n      not\n      swap1\n      swap3\n      and\n      swap2\n      and\n      or\n      swap1\n      mstore\n      0x272063793d270000000000000000000000000000000000000000000000000000\n      swap2\n      swap1\n      swap4\n      add\n      swap1\n      dup2\n      mstore\n      dup6\n      mload\n      0x06\n      swap1\n      swap2\n      add\n      swap3\n      dup7\n      add\n      swap2\n      pop\n      dup1\n      dup4\n      dup4\n    tag_381:\n      0x20\n      dup4\n      lt\n      tag_383\n      jumpi\n      dup1\n      mload\n      dup3\n      mstore\n      not(0x1f)\n      swap1\n      swap3\n      add\n      swap2\n      0x20\n      swap2\n      dup3\n      add\n      swap2\n      add\n      jump(tag_381)\n    tag_383:\n      mload\n      dup2\n      mload\n      0x20\n      swap4\n      dup5\n      sub\n      0x0100\n      exp\n      not(0x00)\n      add\n      dup1\n      not\n      swap1\n      swap3\n      and\n      swap2\n      and\n      or\n      swap1\n      mstore\n      0x2720723d273132307078272066696c6c3d272300000000000000000000000000\n      swap2\n      swap1\n      swap4\n      add\n      swap1\n      dup2\n      mstore\n      dup5\n      mload\n      0x13\n      swap1\n      swap2\n      add\n      swap3\n      dup6\n      add\n      swap2\n      pop\n      dup1\n      dup4\n      dup4\n    tag_384:\n      0x20\n      dup4\n      lt\n      tag_386\n      jumpi\n      dup1\n      mload\n      dup3\n      mstore\n      not(0x1f)\n      swap1\n      swap3\n      add\n      swap2\n      0x20\n      swap2\n      dup3\n      add\n      swap2\n      add\n      jump(tag_384)\n    tag_386:\n      0x01\n      dup4\n      0x20\n      sub\n      0x0100\n      exp\n      sub\n      dup1\n      not\n      dup3\n      mload\n      and\n      dup2\n      dup5\n      mload\n      and\n      dup1\n      dup3\n      or\n      dup6\n      mstore\n      pop\n      pop\n      pop\n      pop\n      pop\n      pop\n      swap1\n      pop\n      add\n      dup1\n      0x272f3e3c2f7376673e0000000000000000000000000000000000000000000000\n      dup2\n      mstore\n      pop\n      0x09\n      add\n      swap4\n      pop\n      pop\n      pop\n      pop\n      mload(0x40)\n      0x20\n      dup2\n      dup4\n      sub\n      sub\n      dup2\n      mstore\n      swap1\n      0x40\n      mstore\n        /* \"contracts/uniswap/libraries/NFTSVG.sol\":3697:3710  Base64.encode */\n      tag_32\n        /* \"contracts/uniswap/libraries/NFTSVG.sol\":3697:4227  Base64.encode(... */\n      jump\t// in\n    tag_377:\n        /* \"contracts/uniswap/libraries/NFTSVG.sol\":4327:4857  Base64.encode(... */\n      tag_387\n        /* \"contracts/uniswap/libraries/NFTSVG.sol\":4570:4576  params */\n      dup5\n        /* \"contracts/uniswap/libraries/NFTSVG.sol\":4570:4579  params.x2 */\n      0x0220\n      add\n      mload\n        /* \"contracts/uniswap/libraries/NFTSVG.sol\":4647:4653  params */\n      dup6\n        /* \"contracts/uniswap/libraries/NFTSVG.sol\":4647:4656  params.y2 */\n      0x0240\n      add\n      mload\n        /* \"contracts/uniswap/libraries/NFTSVG.sol\":4737:4743  params */\n      dup7\n        /* \"contracts/uniswap/libraries/NFTSVG.sol\":4737:4750  params.color2 */\n      0x01a0\n      add\n      mload\n        /* \"contracts/uniswap/libraries/NFTSVG.sol\":4393:4817  abi.encodePacked(... */\n      add(0x20, mload(0x40))\n      dup1\n      dup1\n      data_3c48d7b755ef30478f9fcb7df9667e587d5469eaab81f8e56e6c358f2f43959f\n      0x63\n      swap2\n      codecopy\n      0x63\n      add\n      dup5\n      dup1\n      mload\n      swap1\n      0x20\n      add\n      swap1\n      dup1\n      dup4\n      dup4\n      0x20\n      dup4\n      lt\n      tag_380\n      jumpi\n      dup1\n      mload\n      dup3\n      mstore\n      not(0x1f)\n      swap1\n      swap3\n      add\n      swap2\n      0x20\n      swap2\n      dup3\n      add\n      swap2\n      add\n      jump(tag_378)\n        /* \"contracts/uniswap/libraries/NFTSVG.sol\":4327:4857  Base64.encode(... */\n    tag_387:\n        /* \"contracts/uniswap/libraries/NFTSVG.sol\":4978:5508  Base64.encode(... */\n      tag_397\n        /* \"contracts/uniswap/libraries/NFTSVG.sol\":5221:5227  params */\n      dup6\n        /* \"contracts/uniswap/libraries/NFTSVG.sol\":5221:5230  params.x3 */\n      0x0260\n      add\n      mload\n        /* \"contracts/uniswap/libraries/NFTSVG.sol\":5298:5304  params */\n      dup7\n        /* \"contracts/uniswap/libraries/NFTSVG.sol\":5298:5307  params.y3 */\n      0x0280\n      add\n      mload\n        /* \"contracts/uniswap/libraries/NFTSVG.sol\":5388:5394  params */\n      dup8\n        /* \"contracts/uniswap/libraries/NFTSVG.sol\":5388:5401  params.color3 */\n      0x01c0\n      add\n      mload\n        /* \"contracts/uniswap/libraries/NFTSVG.sol\":5044:5468  abi.encodePacked(... */\n      add(0x20, mload(0x40))\n      dup1\n      dup1\n      data_3c48d7b755ef30478f9fcb7df9667e587d5469eaab81f8e56e6c358f2f43959f\n      0x63\n      swap2\n      codecopy\n      0x63\n      add\n      dup5\n      dup1\n      mload\n      swap1\n      0x20\n      add\n      swap1\n      dup1\n      dup4\n      dup4\n    tag_398:\n      0x20\n      dup4\n      lt\n      tag_400\n      jumpi\n      dup1\n      mload\n      dup3\n      mstore\n      not(0x1f)\n      swap1\n      swap3\n      add\n      swap2\n      0x20\n      swap2\n      dup3\n      add\n      swap2\n      add\n      jump(tag_398)\n    tag_400:\n      mload\n      dup2\n      mload\n      0x20\n      swap4\n      dup5\n      sub\n      0x0100\n      exp\n      not(0x00)\n      add\n      dup1\n      not\n      swap1\n      swap3\n      and\n      swap2\n      and\n      or\n      swap1\n      mstore\n      0x272063793d270000000000000000000000000000000000000000000000000000\n      swap2\n      swap1\n      swap4\n      add\n      swap1\n      dup2\n      mstore\n      dup6\n      mload\n      0x06\n      swap1\n      swap2\n      add\n      swap3\n      dup7\n      add\n      swap2\n      pop\n      dup1\n      dup4\n      dup4\n    tag_401:\n      0x20\n      dup4\n      lt\n      tag_403\n      jumpi\n      dup1\n      mload\n      dup3\n      mstore\n      not(0x1f)\n      swap1\n      swap3\n      add\n      swap2\n      0x20\n      swap2\n      dup3\n      add\n      swap2\n      add\n      jump(tag_401)\n    tag_403:\n      mload\n      dup2\n      mload\n      not(0x00)\n      0x20\n      swap5\n      dup6\n      sub\n      0x0100\n      exp\n      add\n      swap1\n      dup2\n      and\n      swap1\n      not\n      swap2\n      swap1\n      swap2\n      and\n      or\n      swap1\n      mstore\n      0x2720723d273130307078272066696c6c3d272300000000000000000000000000\n      swap4\n      swap1\n      swap2\n      add\n      swap3\n      dup4\n      mstore\n      dup5\n      mload\n      0x13\n      swap1\n      swap4\n      add\n      swap3\n      swap1\n      dup6\n      add\n      swap2\n      pop\n      dup1\n      dup4\n      dup4\n      0x20\n      dup4\n      lt\n      tag_386\n      jumpi\n      dup1\n      mload\n      dup3\n      mstore\n      not(0x1f)\n      swap1\n      swap3\n      add\n      swap2\n      0x20\n      swap2\n      dup3\n      add\n      swap2\n      add\n      jump(tag_384)\n        /* \"contracts/uniswap/libraries/NFTSVG.sol\":4978:5508  Base64.encode(... */\n    tag_397:\n        /* \"contracts/uniswap/libraries/NFTSVG.sol\":7447:7460  params.color0 */\n      0x0160\n      dup7\n      add\n      mload\n        /* \"contracts/uniswap/libraries/NFTSVG.sol\":2879:8078  abi.encodePacked(... */\n      add(0x20, mload(0x40))\n      dup1\n      0x56\n      data_12907fa788c43c090d50faf378fd6f9ac466c604e59cc51ff30ae1bbbc38c8bd\n      dup3\n      codecopy\n      0x56\n      add\n      0x2c\n      data_84f36e7e631ec50512631a7d2b642e3c86e37c99d02e185264181ea0fe53feba\n      dup3\n      codecopy\n      0x3c646566733e0000000000000000000000000000000000000000000000000000\n      0x2c\n      dup3\n      add\n      mstore\n      0x32\n      add\n      0x4b\n      data_5f5eeeecaa6e9906b36c9738130fb3306daeecaf7d327c054480dbfce019ef56\n      dup3\n      codecopy\n      0x4b\n      add\n      dup7\n      dup1\n      mload\n      swap1\n      0x20\n      add\n      swap1\n      dup1\n      dup4\n      dup4\n    tag_407:\n      0x20\n      dup4\n      lt\n      tag_409\n      jumpi\n      dup1\n      mload\n      dup3\n      mstore\n      not(0x1f)\n      swap1\n      swap3\n      add\n      swap2\n      0x20\n      swap2\n      dup3\n      add\n      swap2\n      add\n      jump(tag_407)\n    tag_409:\n      0x01\n      dup4\n      0x20\n      sub\n      0x0100\n      exp\n      sub\n      dup1\n      not\n      dup3\n      mload\n      and\n      dup2\n      dup5\n      mload\n      and\n      dup1\n      dup3\n      or\n      dup6\n      mstore\n      pop\n      pop\n      pop\n      pop\n      pop\n      pop\n      swap1\n      pop\n      add\n      dup1\n      data_c8625c4ff6c954b2db14bd1706ddcdc7c7bbd2e8489b900eeea309e5e9154d1f\n      0x3e\n      swap2\n      codecopy\n      0x3e\n      add\n      dup6\n      dup1\n      mload\n      swap1\n      0x20\n      add\n      swap1\n      dup1\n      dup4\n      dup4\n    tag_410:\n      0x20\n      dup4\n      lt\n      tag_412\n      jumpi\n      dup1\n      mload\n      dup3\n      mstore\n      not(0x1f)\n      swap1\n      swap3\n      add\n      swap2\n      0x20\n      swap2\n      dup3\n      add\n      swap2\n      add\n      jump(tag_410)\n    tag_412:\n      0x01\n      dup4\n      0x20\n      sub\n      0x0100\n      exp\n      sub\n      dup1\n      not\n      dup3\n      mload\n      and\n      dup2\n      dup5\n      mload\n      and\n      dup1\n      dup3\n      or\n      dup6\n      mstore\n      pop\n      pop\n      pop\n      pop\n      pop\n      pop\n      swap1\n      pop\n      add\n      dup1\n      data_735ef1ca53a2b4f5317a913b38868565c310f491134932b2790ac296eda48267\n      0x3e\n      swap2\n      codecopy\n      0x3e\n      add\n      dup5\n      dup1\n      mload\n      swap1\n      0x20\n      add\n      swap1\n      dup1\n      dup4\n      dup4\n    tag_413:\n      0x20\n      dup4\n      lt\n      tag_415\n      jumpi\n      dup1\n      mload\n      dup3\n      mstore\n      not(0x1f)\n      swap1\n      swap3\n      add\n      swap2\n      0x20\n      swap2\n      dup3\n      add\n      swap2\n      add\n      jump(tag_413)\n    tag_415:\n      mload\n      dup2\n      mload\n      0x20\n      swap4\n      swap1\n      swap4\n      sub\n      0x0100\n      exp\n      not(0x00)\n      add\n      dup1\n      not\n      swap1\n      swap2\n      and\n      swap3\n      and\n      swap2\n      swap1\n      swap2\n      or\n      swap1\n      mstore\n      0x22202f3e00000000000000000000000000000000000000000000000000000000\n      swap3\n      add\n      swap2\n      dup3\n      mstore\n      pop\n      0x04\n      add\n      0x3b\n      data_0b30bb9ee6214545b9ea9097efb5de130600391f40197f097cab945da2430220\n      dup3\n      codecopy\n      0x3b\n      add\n      dup4\n      dup1\n      mload\n      swap1\n      0x20\n      add\n      swap1\n      dup1\n      dup4\n      dup4\n    tag_416:\n      0x20\n      dup4\n      lt\n      tag_418\n      jumpi\n      dup1\n      mload\n      dup3\n      mstore\n      not(0x1f)\n      swap1\n      swap3\n      add\n      swap2\n      0x20\n      swap2\n      dup3\n      add\n      swap2\n      add\n      jump(tag_416)\n    tag_418:\n      0x01\n      dup4\n      0x20\n      sub\n      0x0100\n      exp\n      sub\n      dup1\n      not\n      dup3\n      mload\n      and\n      dup2\n      dup5\n      mload\n      and\n      dup1\n      dup3\n      or\n      dup6\n      mstore\n      pop\n      pop\n      pop\n      pop\n      pop\n      pop\n      swap1\n      pop\n      add\n      dup1\n      data_483cd74bda08c7fcbdbb6c7b6985427b6812d47c5633f98b9e7615f669d7fafd\n      0x99\n      swap2\n      codecopy\n      0x99\n      add\n      0x7f\n      data_9f99c7530ff67b359dedbad02f868664b6089e4d686e89626dd44608ff6aab0f\n      dup3\n      codecopy\n      0x7f\n      add\n      0x88\n      data_c5b5eb1e85523a3353e56e3248818f208aaa79b1a09fe2e08149ce0068d90fe9\n      dup3\n      codecopy\n      0x88\n      add\n      0x41\n      data_4b758653276e34b83f020b245d8a586eaf9cd26fbd97d7d3714c690e304e5721\n      dup3\n      codecopy\n      0x41\n      add\n      0x5d\n      data_cce19a9de29f73714bae13db1d73ac08b59c78313444c83363cfef09d838c0c4\n      dup3\n      codecopy\n      0x5d\n      add\n      0x72\n      data_a48f5f7836be870d77eac2feb87ec3732b4080b65a510a3f3cf11dab86d57166\n      dup3\n      codecopy\n      0x72\n      add\n      0x49\n      data_07d6b453733dfcd6acccdef8bdba430d27327460b66a4169d73ced361868fbe9\n      dup3\n      codecopy\n      0x49\n      add\n      0xbe\n      data_5d5eff5a3ee8c17e11f3f4661e6d1155f39e626dc52ccd2ee80907a3b00329d4\n      dup3\n      codecopy\n      0xbe\n      add\n      0x71\n      data_1bdc0da2fd5d7002fb2e67d70b3a4672d03997001c86f1c58ba784d0bc3656db\n      dup3\n      codecopy\n      0x71\n      add\n      0x75\n      data_9981a2a43c36ee7e45e960c26200a8b379d01168693d5029bb6fd776ef3ff2b1\n      dup3\n      codecopy\n      0x75\n      add\n      0x66\n      data_4e169cb09c58f4c64bb0df0614abdbc124a0076dcd8783c87e43cbd0d73facd1\n      dup3\n      codecopy\n      0x66\n      add\n      0xa4\n      data_870e80063d91f6eff2750dd8a16316f934ba72da9e645a88b6f89454be1f4aef\n      dup3\n      codecopy\n      0xa4\n      add\n      0x85\n      data_ca0f24c57a59db85f494ba6c0b8c49c5859b9cc88ba864c52bba19e858e653dd\n      dup3\n      codecopy\n      0x3c6720636c69702d706174683d2275726c2823636f726e65727329223e000000\n      0x85\n      dup3\n      add\n      mstore\n      0x3c726563742066696c6c3d220000000000000000000000000000000000000000\n      0xa2\n      dup3\n      add\n      mstore\n      dup3\n      mload\n      0xae\n      swap1\n      swap2\n      add\n      swap1\n      0x20\n      dup5\n      add\n      swap1\n      dup1\n      dup4\n      dup4\n    tag_419:\n      0x20\n      dup4\n      lt\n      tag_421\n      jumpi\n      dup1\n      mload\n      dup3\n      mstore\n      not(0x1f)\n      swap1\n      swap3\n      add\n      swap2\n      0x20\n      swap2\n      dup3\n      add\n      swap2\n      add\n      jump(tag_419)\n    tag_421:\n      0x01\n      dup4\n      0x20\n      sub\n      0x0100\n      exp\n      sub\n      dup1\n      not\n      dup3\n      mload\n      and\n      dup2\n      dup5\n      mload\n      and\n      dup1\n      dup3\n      or\n      dup6\n      mstore\n      pop\n      pop\n      pop\n      pop\n      pop\n      pop\n      swap1\n      pop\n      add\n      dup1\n      data_53fd26dadfe66b5102855d57af8e557a2267beae8def1e64f35bbd9a2d281ff9\n      0x31\n      swap2\n      codecopy\n      0x31\n      add\n      0x4e\n      data_09b07dfc70a17fef45f6fe3d38c10da942afae7501f50d1fe821bf1419a6c973\n      dup3\n      codecopy\n      0x4e\n      add\n      0x5d\n      data_4639f96f89d1ef49f25e5140ee8e04694d126a00020aebcb2df7e75b5d9e8ff8\n      dup3\n      codecopy\n      0x5d\n      add\n      0x41\n      data_8341c95578aab9bb12f989782d4cab355e9933e289241d0b82aafe9fda945df1\n      dup3\n      codecopy\n      0x41\n      add\n      0x52\n      data_79d1157f01e06698bf30fbcaee454ea514c61e81bedfc1aec9b48b048d03b463\n      dup3\n      codecopy\n      0x52\n      add\n      0x75\n      data_ca91dbc17e7b32a20d9c61bf3a31fc39e1843cdda3f9b6d132c3190c832ad888\n      dup3\n      codecopy\n      0x75\n      add\n      swap6\n      pop\n      pop\n      pop\n      pop\n      pop\n      pop\n      mload(0x40)\n      0x20\n      dup2\n      dup4\n      sub\n      sub\n      dup2\n      mstore\n      swap1\n      0x40\n      mstore\n        /* \"contracts/uniswap/libraries/NFTSVG.sol\":2853:8088  svg = string(... */\n      swap1\n      pop\n        /* \"contracts/uniswap/libraries/NFTSVG.sol\":2752:8095  function generateSVGDefs(SVGParams memory params) private pure returns (string memory svg) {... */\n      swap2\n      swap1\n      pop\n      jump\t// out\n        /* \"contracts/uniswap/libraries/NFTSVG.sol\":8101:10036  function generateSVGBorderText(... */\n    tag_271:\n        /* \"contracts/uniswap/libraries/NFTSVG.sol\":8306:8323  string memory svg */\n      0x60\n        /* \"contracts/uniswap/libraries/NFTSVG.sol\":8599:8608  baseToken */\n      dup4\n        /* \"contracts/uniswap/libraries/NFTSVG.sol\":8658:8673  baseTokenSymbol */\n      dup3\n        /* \"contracts/uniswap/libraries/NFTSVG.sol\":8988:8997  baseToken */\n      dup6\n        /* \"contracts/uniswap/libraries/NFTSVG.sol\":9047:9062  baseTokenSymbol */\n      dup5\n        /* \"contracts/uniswap/libraries/NFTSVG.sol\":9378:9388  quoteToken */\n      dup9\n        /* \"contracts/uniswap/libraries/NFTSVG.sol\":9438:9454  quoteTokenSymbol */\n      dup8\n        /* \"contracts/uniswap/libraries/NFTSVG.sol\":9770:9780  quoteToken */\n      dup11\n        /* \"contracts/uniswap/libraries/NFTSVG.sol\":9830:9846  quoteTokenSymbol */\n      dup10\n        /* \"contracts/uniswap/libraries/NFTSVG.sol\":8361:10019  abi.encodePacked(... */\n      add(0x20, mload(0x40))\n      dup1\n      dup1\n      data_def1de1dcd58e9459a64156d5380ddffd45a29faa565a4062a201283a4b86c28\n      0x25\n      swap2\n      codecopy\n      0x25\n      add\n      0x7d\n      data_5c021e382e7c7104a13e2471955db1e88164a0a2701d8def1c530fbda61a37dc\n      dup3\n      codecopy\n      0x7d\n      add\n      dup10\n      dup1\n      mload\n      swap1\n      0x20\n      add\n      swap1\n      dup1\n      dup4\n      dup4\n    tag_423:\n      0x20\n      dup4\n      lt\n      tag_425\n      jumpi\n      dup1\n      mload\n      dup3\n      mstore\n      not(0x1f)\n      swap1\n      swap3\n      add\n      swap2\n      0x20\n      swap2\n      dup3\n      add\n      swap2\n      add\n      jump(tag_423)\n    tag_425:\n      mload\n      dup2\n      mload\n      0x20\n      swap4\n      dup5\n      sub\n      0x0100\n      exp\n      not(0x00)\n      add\n      dup1\n      not\n      swap1\n      swap3\n      and\n      swap2\n      and\n      or\n      swap1\n      mstore\n      0x20e280a220000000000000000000000000000000000000000000000000000000\n      swap2\n      swap1\n      swap4\n      add\n      swap1\n      dup2\n      mstore\n      dup11\n      mload\n      0x05\n      swap1\n      swap2\n      add\n      swap3\n      dup12\n      add\n      swap2\n      pop\n      dup1\n      dup4\n      dup4\n    tag_426:\n      0x20\n      dup4\n      lt\n      tag_428\n      jumpi\n      dup1\n      mload\n      dup3\n      mstore\n      not(0x1f)\n      swap1\n      swap3\n      add\n      swap2\n      0x20\n      swap2\n      dup3\n      add\n      swap2\n      add\n      jump(tag_426)\n    tag_428:\n      0x01\n      dup4\n      0x20\n      sub\n      0x0100\n      exp\n      sub\n      dup1\n      not\n      dup3\n      mload\n      and\n      dup2\n      dup5\n      mload\n      and\n      dup1\n      dup3\n      or\n      dup6\n      mstore\n      pop\n      pop\n      pop\n      pop\n      pop\n      pop\n      swap1\n      pop\n      add\n      dup1\n      data_5ac049306c61d2605d500baef9423dd59101a8acd4643a030e0b4b8780979a7f\n      0x79\n      swap2\n      codecopy\n      0x79\n      add\n      0x86\n      data_dd2dd1ce2446da3135b69075c1bfb5ae217a66fb97ea23bbfa9101533f005eee\n      dup3\n      codecopy\n      0x86\n      add\n      dup8\n      dup1\n      mload\n      swap1\n      0x20\n      add\n      swap1\n      dup1\n      dup4\n      dup4\n    tag_429:\n      0x20\n      dup4\n      lt\n      tag_431\n      jumpi\n      dup1\n      mload\n      dup3\n      mstore\n      not(0x1f)\n      swap1\n      swap3\n      add\n      swap2\n      0x20\n      swap2\n      dup3\n      add\n      swap2\n      add\n      jump(tag_429)\n    tag_431:\n      mload\n      dup2\n      mload\n      0x20\n      swap4\n      dup5\n      sub\n      0x0100\n      exp\n      not(0x00)\n      add\n      dup1\n      not\n      swap1\n      swap3\n      and\n      swap2\n      and\n      or\n      swap1\n      mstore\n      0x20e280a220000000000000000000000000000000000000000000000000000000\n      swap2\n      swap1\n      swap4\n      add\n      swap1\n      dup2\n      mstore\n      dup9\n      mload\n      0x05\n      swap1\n      swap2\n      add\n      swap3\n      dup10\n      add\n      swap2\n      pop\n      dup1\n      dup4\n      dup4\n    tag_432:\n      0x20\n      dup4\n      lt\n      tag_434\n      jumpi\n      dup1\n      mload\n      dup3\n      mstore\n      not(0x1f)\n      swap1\n      swap3\n      add\n      swap2\n      0x20\n      swap2\n      dup3\n      add\n      swap2\n      add\n      jump(tag_432)\n    tag_434:\n      0x01\n      dup4\n      0x20\n      sub\n      0x0100\n      exp\n      sub\n      dup1\n      not\n      dup3\n      mload\n      and\n      dup2\n      dup5\n      mload\n      and\n      dup1\n      dup3\n      or\n      dup6\n      mstore\n      pop\n      pop\n      pop\n      pop\n      pop\n      pop\n      swap1\n      pop\n      add\n      dup1\n      data_12e5d23ac3d5565fca6e18679427bcbe328ab78094fc30d5dc29018e64601f05\n      0x85\n      swap2\n      codecopy\n      0x85\n      add\n      0x7b\n      data_bba7d0e9c87f4fc07285d3901f65b11169f0a648c5503e2a93e1438c905d75bd\n      dup3\n      codecopy\n      0x7b\n      add\n      dup6\n      dup1\n      mload\n      swap1\n      0x20\n      add\n      swap1\n      dup1\n      dup4\n      dup4\n    tag_435:\n      0x20\n      dup4\n      lt\n      tag_437\n      jumpi\n      dup1\n      mload\n      dup3\n      mstore\n      not(0x1f)\n      swap1\n      swap3\n      add\n      swap2\n      0x20\n      swap2\n      dup3\n      add\n      swap2\n      add\n      jump(tag_435)\n    tag_437:\n      mload\n      dup2\n      mload\n      0x20\n      swap4\n      dup5\n      sub\n      0x0100\n      exp\n      not(0x00)\n      add\n      dup1\n      not\n      swap1\n      swap3\n      and\n      swap2\n      and\n      or\n      swap1\n      mstore\n      0x20e280a220000000000000000000000000000000000000000000000000000000\n      swap2\n      swap1\n      swap4\n      add\n      swap1\n      dup2\n      mstore\n      dup7\n      mload\n      0x05\n      swap1\n      swap2\n      add\n      swap3\n      dup8\n      add\n      swap2\n      pop\n      dup1\n      dup4\n      dup4\n    tag_438:\n      0x20\n      dup4\n      lt\n      tag_440\n      jumpi\n      dup1\n      mload\n      dup3\n      mstore\n      not(0x1f)\n      swap1\n      swap3\n      add\n      swap2\n      0x20\n      swap2\n      dup3\n      add\n      swap2\n      add\n      jump(tag_438)\n    tag_440:\n      0x01\n      dup4\n      0x20\n      sub\n      0x0100\n      exp\n      sub\n      dup1\n      not\n      dup3\n      mload\n      and\n      dup2\n      dup5\n      mload\n      and\n      dup1\n      dup3\n      or\n      dup6\n      mstore\n      pop\n      pop\n      pop\n      pop\n      pop\n      pop\n      swap1\n      pop\n      add\n      dup1\n      data_2150a1c8c321a12bc9aebef62dce6760f1d4a6152ca8e7d1cfc2a91709c86ed3\n      0x5d\n      swap2\n      codecopy\n      0x5d\n      add\n      0xa3\n      data_9421d2b325b171273133fcca90ccbe277797196ba10501e62827c87ba1f00867\n      dup3\n      codecopy\n      0xa3\n      add\n      dup4\n      dup1\n      mload\n      swap1\n      0x20\n      add\n      swap1\n      dup1\n      dup4\n      dup4\n    tag_441:\n      0x20\n      dup4\n      lt\n      tag_443\n      jumpi\n      dup1\n      mload\n      dup3\n      mstore\n      not(0x1f)\n      swap1\n      swap3\n      add\n      swap2\n      0x20\n      swap2\n      dup3\n      add\n      swap2\n      add\n      jump(tag_441)\n    tag_443:\n      mload\n      dup2\n      mload\n      0x20\n      swap4\n      dup5\n      sub\n      0x0100\n      exp\n      not(0x00)\n      add\n      dup1\n      not\n      swap1\n      swap3\n      and\n      swap2\n      and\n      or\n      swap1\n      mstore\n      0x20e280a220000000000000000000000000000000000000000000000000000000\n      swap2\n      swap1\n      swap4\n      add\n      swap1\n      dup2\n      mstore\n      dup5\n      mload\n      0x05\n      swap1\n      swap2\n      add\n      swap3\n      dup6\n      add\n      swap2\n      pop\n      dup1\n      dup4\n      dup4\n    tag_444:\n      0x20\n      dup4\n      lt\n      tag_446\n      jumpi\n      dup1\n      mload\n      dup3\n      mstore\n      not(0x1f)\n      swap1\n      swap3\n      add\n      swap2\n      0x20\n      swap2\n      dup3\n      add\n      swap2\n      add\n      jump(tag_444)\n    tag_446:\n      0x01\n      dup4\n      0x20\n      sub\n      0x0100\n      exp\n      sub\n      dup1\n      not\n      dup3\n      mload\n      and\n      dup2\n      dup5\n      mload\n      and\n      dup1\n      dup3\n      or\n      dup6\n      mstore\n      pop\n      pop\n      pop\n      pop\n      pop\n      pop\n      swap1\n      pop\n      add\n      dup1\n      data_02f06577ff640a7b9a57b4040afd931b573e563f869bd83106611dd7f5abd304\n      0x8b\n      swap2\n      codecopy\n      0x8b\n      add\n      swap9\n      pop\n      pop\n      pop\n      pop\n      pop\n      pop\n      pop\n      pop\n      pop\n      mload(0x40)\n      0x20\n      dup2\n      dup4\n      sub\n      sub\n      dup2\n      mstore\n      swap1\n      0x40\n      mstore\n        /* \"contracts/uniswap/libraries/NFTSVG.sol\":8335:10029  svg = string(... */\n      swap1\n      pop\n        /* \"contracts/uniswap/libraries/NFTSVG.sol\":8101:10036  function generateSVGBorderText(... */\n      swap5\n      swap4\n      pop\n      pop\n      pop\n      pop\n      jump\t// out\n        /* \"contracts/uniswap/libraries/NFTSVG.sol\":10042:10960  function generateSVGCardMantle(... */\n    tag_273:\n        /* \"contracts/uniswap/libraries/NFTSVG.sol\":10211:10228  string memory svg */\n      0x60\n        /* \"contracts/uniswap/libraries/NFTSVG.sol\":10527:10543  quoteTokenSymbol */\n      dup4\n        /* \"contracts/uniswap/libraries/NFTSVG.sol\":10582:10597  baseTokenSymbol */\n      dup4\n        /* \"contracts/uniswap/libraries/NFTSVG.sol\":10756:10763  feeTier */\n      dup4\n        /* \"contracts/uniswap/libraries/NFTSVG.sol\":10266:10943  abi.encodePacked(... */\n      add(0x20, mload(0x40))\n      dup1\n      dup1\n      data_0f48c6991d8370b108e265feefc6212179a011d404515a1dce8a57af40b85b7f\n      0xcd\n      swap2\n      codecopy\n      0xcd\n      add\n      dup5\n      dup1\n      mload\n      swap1\n      0x20\n      add\n      swap1\n      dup1\n      dup4\n      dup4\n    tag_448:\n      0x20\n      dup4\n      lt\n      tag_450\n      jumpi\n      dup1\n      mload\n      dup3\n      mstore\n      not(0x1f)\n      swap1\n      swap3\n      add\n      swap2\n      0x20\n      swap2\n      dup3\n      add\n      swap2\n      add\n      jump(tag_448)\n    tag_450:\n      0x01\n      dup4\n      0x20\n      sub\n      0x0100\n      exp\n      sub\n      dup1\n      not\n      dup3\n      mload\n      and\n      dup2\n      dup5\n      mload\n      and\n      dup1\n      dup3\n      or\n      dup6\n      mstore\n      pop\n      pop\n      pop\n      pop\n      pop\n      pop\n      swap1\n      pop\n      add\n      dup1\n      0x2f00000000000000000000000000000000000000000000000000000000000000\n      dup2\n      mstore\n      pop\n      0x01\n      add\n      dup4\n      dup1\n      mload\n      swap1\n      0x20\n      add\n      swap1\n      dup1\n      dup4\n      dup4\n    tag_451:\n      0x20\n      dup4\n      lt\n      tag_453\n      jumpi\n      dup1\n      mload\n      dup3\n      mstore\n      not(0x1f)\n      swap1\n      swap3\n      add\n      swap2\n      0x20\n      swap2\n      dup3\n      add\n      swap2\n      add\n      jump(tag_451)\n    tag_453:\n      0x01\n      dup4\n      0x20\n      sub\n      0x0100\n      exp\n      sub\n      dup1\n      not\n      dup3\n      mload\n      and\n      dup2\n      dup5\n      mload\n      and\n      dup1\n      dup3\n      or\n      dup6\n      mstore\n      pop\n      pop\n      pop\n      pop\n      pop\n      pop\n      swap1\n      pop\n      add\n      dup1\n      data_f6a4c28d3a8f91939e9dde8d20603d72bf408bb3a4810ebf3bb6c06742d8297b\n      0x77\n      swap2\n      codecopy\n      0x77\n      add\n      dup3\n      dup1\n      mload\n      swap1\n      0x20\n      add\n      swap1\n      dup1\n      dup4\n      dup4\n    tag_454:\n      0x20\n      dup4\n      lt\n      tag_456\n      jumpi\n      dup1\n      mload\n      dup3\n      mstore\n      not(0x1f)\n      swap1\n      swap3\n      add\n      swap2\n      0x20\n      swap2\n      dup3\n      add\n      swap2\n      add\n      jump(tag_454)\n    tag_456:\n      mload\n      dup2\n      mload\n      0x20\n      swap4\n      swap1\n      swap4\n      sub\n      0x0100\n      exp\n      not(0x00)\n      add\n      dup1\n      not\n      swap1\n      swap2\n      and\n      swap3\n      and\n      swap2\n      swap1\n      swap2\n      or\n      swap1\n      mstore\n      0x3c2f746578743e3c2f673e000000000000000000000000000000000000000000\n      swap3\n      add\n      swap2\n      dup3\n      mstore\n      pop\n      0x0b\n      add\n      0x73\n      data_e0b4a009558fed53d8b93645952b1120d122982ebf4ca4d1136598e7708bf775\n      dup3\n      codecopy\n      0x73\n      add\n      swap4\n      pop\n      pop\n      pop\n      pop\n      mload(0x40)\n      0x20\n      dup2\n      dup4\n      sub\n      sub\n      dup2\n      mstore\n      swap1\n      0x40\n      mstore\n        /* \"contracts/uniswap/libraries/NFTSVG.sol\":10240:10953  svg = string(... */\n      swap1\n      pop\n        /* \"contracts/uniswap/libraries/NFTSVG.sol\":10042:10960  function generateSVGCardMantle(... */\n      swap4\n      swap3\n      pop\n      pop\n      pop\n      jump\t// out\n        /* \"contracts/uniswap/libraries/NFTSVG.sol\":10966:12206  function generageSvgCurve(... */\n    tag_275:\n        /* \"contracts/uniswap/libraries/NFTSVG.sol\":11121:11138  string memory svg */\n      0x60\n        /* \"contracts/uniswap/libraries/NFTSVG.sol\":11150:11168  string memory fade */\n      0x00\n        /* \"contracts/uniswap/libraries/NFTSVG.sol\":11171:11180  overRange */\n      dup3\n        /* \"contracts/uniswap/libraries/NFTSVG.sol\":11171:11185  overRange == 1 */\n      0x00\n      signextend\n        /* \"contracts/uniswap/libraries/NFTSVG.sol\":11184:11185  1 */\n      0x01\n        /* \"contracts/uniswap/libraries/NFTSVG.sol\":11171:11185  overRange == 1 */\n      eq\n        /* \"contracts/uniswap/libraries/NFTSVG.sol\":11171:11241  overRange == 1 ? '#fade-up' : overRange == -1 ? '#fade-down' : '#none' */\n      tag_458\n      jumpi\n        /* \"contracts/uniswap/libraries/NFTSVG.sol\":11201:11210  overRange */\n      dup3\n        /* \"contracts/uniswap/libraries/NFTSVG.sol\":11201:11216  overRange == -1 */\n      0x00\n      signextend\n      not(0x00)\n      eq\n        /* \"contracts/uniswap/libraries/NFTSVG.sol\":11201:11241  overRange == -1 ? '#fade-down' : '#none' */\n      tag_459\n      jumpi\n      mload(0x40)\n      dup1\n      0x40\n      add\n      0x40\n      mstore\n      dup1\n      0x05\n      dup2\n      mstore\n      0x20\n      add\n      0x236e6f6e65000000000000000000000000000000000000000000000000000000\n      dup2\n      mstore\n      pop\n      jump(tag_460)\n    tag_459:\n      mload(0x40)\n      dup1\n      0x40\n      add\n      0x40\n      mstore\n      dup1\n      0x0a\n      dup2\n      mstore\n      0x20\n      add\n      0x23666164652d646f776e00000000000000000000000000000000000000000000\n      dup2\n      mstore\n      pop\n    tag_460:\n        /* \"contracts/uniswap/libraries/NFTSVG.sol\":11171:11241  overRange == 1 ? '#fade-up' : overRange == -1 ? '#fade-down' : '#none' */\n      jump(tag_461)\n    tag_458:\n      mload(0x40)\n      dup1\n      0x40\n      add\n      0x40\n      mstore\n      dup1\n      0x08\n      dup2\n      mstore\n      0x20\n      add\n      0x23666164652d7570000000000000000000000000000000000000000000000000\n      dup2\n      mstore\n      pop\n    tag_461:\n        /* \"contracts/uniswap/libraries/NFTSVG.sol\":11150:11241  string memory fade = overRange == 1 ? '#fade-up' : overRange == -1 ? '#fade-down' : '#none' */\n      swap1\n      pop\n        /* \"contracts/uniswap/libraries/NFTSVG.sol\":11251:11270  string memory curve */\n      0x00\n        /* \"contracts/uniswap/libraries/NFTSVG.sol\":11273:11316  getCurve(tickLower, tickUpper, tickSpacing) */\n      tag_462\n        /* \"contracts/uniswap/libraries/NFTSVG.sol\":11282:11291  tickLower */\n      dup8\n        /* \"contracts/uniswap/libraries/NFTSVG.sol\":11293:11302  tickUpper */\n      dup8\n        /* \"contracts/uniswap/libraries/NFTSVG.sol\":11304:11315  tickSpacing */\n      dup8\n        /* \"contracts/uniswap/libraries/NFTSVG.sol\":11273:11281  getCurve */\n      tag_463\n        /* \"contracts/uniswap/libraries/NFTSVG.sol\":11273:11316  getCurve(tickLower, tickUpper, tickSpacing) */\n      jump\t// in\n    tag_462:\n        /* \"contracts/uniswap/libraries/NFTSVG.sol\":11251:11316  string memory curve = getCurve(tickLower, tickUpper, tickSpacing) */\n      swap1\n      pop\n        /* \"contracts/uniswap/libraries/NFTSVG.sol\":11419:11423  fade */\n      dup2\n        /* \"contracts/uniswap/libraries/NFTSVG.sol\":11640:11645  curve */\n      dup2\n        /* \"contracts/uniswap/libraries/NFTSVG.sol\":11804:11808  fade */\n      dup4\n        /* \"contracts/uniswap/libraries/NFTSVG.sol\":12027:12032  curve */\n      dup4\n        /* \"contracts/uniswap/libraries/NFTSVG.sol\":12142:12175  generateSVGCurveCircle(overRange) */\n      tag_464\n        /* \"contracts/uniswap/libraries/NFTSVG.sol\":12165:12174  overRange */\n      dup9\n        /* \"contracts/uniswap/libraries/NFTSVG.sol\":12142:12164  generateSVGCurveCircle */\n      tag_465\n        /* \"contracts/uniswap/libraries/NFTSVG.sol\":12142:12175  generateSVGCurveCircle(overRange) */\n      jump\t// in\n    tag_464:\n        /* \"contracts/uniswap/libraries/NFTSVG.sol\":11352:12189  abi.encodePacked(... */\n      add(0x20, mload(0x40))\n      dup1\n      dup1\n      0x3c67206d61736b3d2275726c2800000000000000000000000000000000000000\n      dup2\n      mstore\n      pop\n      0x0d\n      add\n      dup7\n      dup1\n      mload\n      swap1\n      0x20\n      add\n      swap1\n      dup1\n      dup4\n      dup4\n    tag_466:\n      0x20\n      dup4\n      lt\n      tag_468\n      jumpi\n      dup1\n      mload\n      dup3\n      mstore\n      not(0x1f)\n      swap1\n      swap3\n      add\n      swap2\n      0x20\n      swap2\n      dup3\n      add\n      swap2\n      add\n      jump(tag_466)\n    tag_468:\n      mload\n      dup2\n      mload\n      0x20\n      swap4\n      swap1\n      swap4\n      sub\n      0x0100\n      exp\n      not(0x00)\n      add\n      dup1\n      not\n      swap1\n      swap2\n      and\n      swap3\n      and\n      swap2\n      swap1\n      swap2\n      or\n      swap1\n      mstore\n      0x2922000000000000000000000000000000000000000000000000000000000000\n      swap3\n      add\n      swap2\n      dup3\n      mstore\n      pop\n      0x02\n      add\n      0x77\n      data_8d38c449c54623af115300f0b4cd575c9ad248d96fa963ffbc8a5d10a537195e\n      dup3\n      codecopy\n      0x77\n      add\n      dup6\n      dup1\n      mload\n      swap1\n      0x20\n      add\n      swap1\n      dup1\n      dup4\n      dup4\n    tag_469:\n      0x20\n      dup4\n      lt\n      tag_471\n      jumpi\n      dup1\n      mload\n      dup3\n      mstore\n      not(0x1f)\n      swap1\n      swap3\n      add\n      swap2\n      0x20\n      swap2\n      dup3\n      add\n      swap2\n      add\n      jump(tag_469)\n    tag_471:\n      0x01\n      dup4\n      0x20\n      sub\n      0x0100\n      exp\n      sub\n      dup1\n      not\n      dup3\n      mload\n      and\n      dup2\n      dup5\n      mload\n      and\n      dup1\n      dup3\n      or\n      dup6\n      mstore\n      pop\n      pop\n      pop\n      pop\n      pop\n      pop\n      swap1\n      pop\n      add\n      dup1\n      data_20b18c33024e2e0e17abfb47072fb69fd233a084a9b52e7077234344339ef1d2\n      0x54\n      swap2\n      codecopy\n      0x54\n      add\n      dup1\n      0x3c2f673e3c67206d61736b3d2275726c28000000000000000000000000000000\n      dup2\n      mstore\n      pop\n      0x11\n      add\n      dup5\n      dup1\n      mload\n      swap1\n      0x20\n      add\n      swap1\n      dup1\n      dup4\n      dup4\n    tag_472:\n      0x20\n      dup4\n      lt\n      tag_474\n      jumpi\n      dup1\n      mload\n      dup3\n      mstore\n      not(0x1f)\n      swap1\n      swap3\n      add\n      swap2\n      0x20\n      swap2\n      dup3\n      add\n      swap2\n      add\n      jump(tag_472)\n    tag_474:\n      mload\n      dup2\n      mload\n      0x20\n      swap4\n      swap1\n      swap4\n      sub\n      0x0100\n      exp\n      not(0x00)\n      add\n      dup1\n      not\n      swap1\n      swap2\n      and\n      swap3\n      and\n      swap2\n      swap1\n      swap2\n      or\n      swap1\n      mstore\n      0x2922000000000000000000000000000000000000000000000000000000000000\n      swap3\n      add\n      swap2\n      dup3\n      mstore\n      pop\n      0x02\n      add\n      0x29\n      data_8e24499475377ebfea88a8b66ad4852ff14fea8d70bdbc3a7eceb1a729240226\n      dup3\n      codecopy\n      0x29\n      add\n      0x45\n      data_8f43f63d6c112f03be0e24ed0ecb0994a71907eacdd7bbe72850d1059fbd6fa7\n      dup3\n      codecopy\n      0x45\n      add\n      dup1\n      0x3c7061746820643d220000000000000000000000000000000000000000000000\n      dup2\n      mstore\n      pop\n      0x09\n      add\n      dup4\n      dup1\n      mload\n      swap1\n      0x20\n      add\n      swap1\n      dup1\n      dup4\n      dup4\n    tag_475:\n      0x20\n      dup4\n      lt\n      tag_477\n      jumpi\n      dup1\n      mload\n      dup3\n      mstore\n      not(0x1f)\n      swap1\n      swap3\n      add\n      swap2\n      0x20\n      swap2\n      dup3\n      add\n      swap2\n      add\n      jump(tag_475)\n    tag_477:\n      0x01\n      dup4\n      0x20\n      sub\n      0x0100\n      exp\n      sub\n      dup1\n      not\n      dup3\n      mload\n      and\n      dup2\n      dup5\n      mload\n      and\n      dup1\n      dup3\n      or\n      dup6\n      mstore\n      pop\n      pop\n      pop\n      pop\n      pop\n      pop\n      swap1\n      pop\n      add\n      dup1\n      data_9bb25be920b258880439ec0b834ec0e12e09bcc9295c9fb6ea92333a2947269b\n      0x48\n      swap2\n      codecopy\n      0x48\n      add\n      dup3\n      dup1\n      mload\n      swap1\n      0x20\n      add\n      swap1\n      dup1\n      dup4\n      dup4\n    tag_478:\n      0x20\n      dup4\n      lt\n      tag_480\n      jumpi\n      dup1\n      mload\n      dup3\n      mstore\n      not(0x1f)\n      swap1\n      swap3\n      add\n      swap2\n      0x20\n      swap2\n      dup3\n      add\n      swap2\n      add\n      jump(tag_478)\n    tag_480:\n      0x01\n      dup4\n      0x20\n      sub\n      0x0100\n      exp\n      sub\n      dup1\n      not\n      dup3\n      mload\n      and\n      dup2\n      dup5\n      mload\n      and\n      dup1\n      dup3\n      or\n      dup6\n      mstore\n      pop\n      pop\n      pop\n      pop\n      pop\n      pop\n      swap1\n      pop\n      add\n      swap6\n      pop\n      pop\n      pop\n      pop\n      pop\n      pop\n      mload(0x40)\n      0x20\n      dup2\n      dup4\n      sub\n      sub\n      dup2\n      mstore\n      swap1\n      0x40\n      mstore\n        /* \"contracts/uniswap/libraries/NFTSVG.sol\":11326:12199  svg = string(... */\n      swap3\n      pop\n        /* \"contracts/uniswap/libraries/NFTSVG.sol\":10966:12206  function generageSvgCurve(... */\n      pop\n      pop\n      swap5\n      swap4\n      pop\n      pop\n      pop\n      pop\n      jump\t// out\n        /* \"contracts/uniswap/libraries/NFTSVG.sol\":14274:16823  function generateSVGPositionDataAndLocationCurve(... */\n    tag_278:\n        /* \"contracts/uniswap/libraries/NFTSVG.sol\":14432:14449  string memory svg */\n      0x60\n        /* \"contracts/uniswap/libraries/NFTSVG.sol\":14461:14487  string memory tickLowerStr */\n      0x00\n        /* \"contracts/uniswap/libraries/NFTSVG.sol\":14490:14513  tickToString(tickLower) */\n      tag_482\n        /* \"contracts/uniswap/libraries/NFTSVG.sol\":14503:14512  tickLower */\n      dup5\n        /* \"contracts/uniswap/libraries/NFTSVG.sol\":14490:14502  tickToString */\n      tag_483\n        /* \"contracts/uniswap/libraries/NFTSVG.sol\":14490:14513  tickToString(tickLower) */\n      jump\t// in\n    tag_482:\n        /* \"contracts/uniswap/libraries/NFTSVG.sol\":14461:14513  string memory tickLowerStr = tickToString(tickLower) */\n      swap1\n      pop\n        /* \"contracts/uniswap/libraries/NFTSVG.sol\":14523:14549  string memory tickUpperStr */\n      0x00\n        /* \"contracts/uniswap/libraries/NFTSVG.sol\":14552:14575  tickToString(tickUpper) */\n      tag_484\n        /* \"contracts/uniswap/libraries/NFTSVG.sol\":14565:14574  tickUpper */\n      dup5\n        /* \"contracts/uniswap/libraries/NFTSVG.sol\":14552:14564  tickToString */\n      tag_483\n        /* \"contracts/uniswap/libraries/NFTSVG.sol\":14552:14575  tickToString(tickUpper) */\n      jump\t// in\n    tag_484:\n        /* \"contracts/uniswap/libraries/NFTSVG.sol\":14606:14627  bytes(tokenId).length */\n      dup7\n      mload\n        /* \"contracts/uniswap/libraries/NFTSVG.sol\":14662:14688  bytes(tickLowerStr).length */\n      dup4\n      mload\n        /* \"contracts/uniswap/libraries/NFTSVG.sol\":14724:14750  bytes(tickUpperStr).length */\n      dup3\n      mload\n        /* \"contracts/uniswap/libraries/NFTSVG.sol\":14523:14575  string memory tickUpperStr = tickToString(tickUpper) */\n      swap3\n      swap4\n      pop\n        /* \"contracts/uniswap/libraries/NFTSVG.sol\":14630:14631  4 */\n      0x04\n        /* \"contracts/uniswap/libraries/NFTSVG.sol\":14606:14631  bytes(tokenId).length + 4 */\n      swap1\n      swap2\n      add\n      swap2\n        /* \"contracts/uniswap/libraries/NFTSVG.sol\":14691:14693  10 */\n      0x0a\n        /* \"contracts/uniswap/libraries/NFTSVG.sol\":14662:14693  bytes(tickLowerStr).length + 10 */\n      swap2\n      dup3\n      add\n      swap2\n        /* \"contracts/uniswap/libraries/NFTSVG.sol\":14724:14755  bytes(tickUpperStr).length + 10 */\n      add\n        /* \"contracts/uniswap/libraries/NFTSVG.sol\":14585:14603  uint256 str1length */\n      0x00\n      dup1\n        /* \"contracts/uniswap/libraries/NFTSVG.sol\":14812:14847  rangeLocation(tickLower, tickUpper) */\n      tag_485\n        /* \"contracts/uniswap/libraries/NFTSVG.sol\":14826:14835  tickLower */\n      dup11\n        /* \"contracts/uniswap/libraries/NFTSVG.sol\":14837:14846  tickUpper */\n      dup11\n        /* \"contracts/uniswap/libraries/NFTSVG.sol\":14812:14825  rangeLocation */\n      tag_486\n        /* \"contracts/uniswap/libraries/NFTSVG.sol\":14812:14847  rangeLocation(tickLower, tickUpper) */\n      jump\t// in\n    tag_485:\n        /* \"contracts/uniswap/libraries/NFTSVG.sol\":14765:14847  (string memory xCoord, string memory yCoord) = rangeLocation(tickLower, tickUpper) */\n      swap2\n      pop\n      swap2\n      pop\n        /* \"contracts/uniswap/libraries/NFTSVG.sol\":15015:15055  uint256(7 * (str1length + 4)).toString() */\n      tag_487\n        /* \"contracts/uniswap/libraries/NFTSVG.sol\":15028:15038  str1length */\n      dup6\n        /* \"contracts/uniswap/libraries/NFTSVG.sol\":15041:15042  4 */\n      0x04\n        /* \"contracts/uniswap/libraries/NFTSVG.sol\":15028:15042  str1length + 4 */\n      add\n        /* \"contracts/uniswap/libraries/NFTSVG.sol\":15023:15024  7 */\n      0x07\n        /* \"contracts/uniswap/libraries/NFTSVG.sol\":15023:15043  7 * (str1length + 4) */\n      mul\n        /* \"contracts/uniswap/libraries/NFTSVG.sol\":15015:15053  uint256(7 * (str1length + 4)).toString */\n      tag_23\n        /* \"contracts/uniswap/libraries/NFTSVG.sol\":15015:15055  uint256(7 * (str1length + 4)).toString() */\n      jump\t// in\n    tag_487:\n        /* \"contracts/uniswap/libraries/NFTSVG.sol\":15317:15324  tokenId */\n      dup12\n        /* \"contracts/uniswap/libraries/NFTSVG.sol\":15471:15511  uint256(7 * (str2length + 4)).toString() */\n      tag_488\n        /* \"contracts/uniswap/libraries/NFTSVG.sol\":15484:15494  str2length */\n      dup7\n        /* \"contracts/uniswap/libraries/NFTSVG.sol\":15497:15498  4 */\n      0x04\n        /* \"contracts/uniswap/libraries/NFTSVG.sol\":15484:15498  str2length + 4 */\n      add\n        /* \"contracts/uniswap/libraries/NFTSVG.sol\":15479:15480  7 */\n      0x07\n        /* \"contracts/uniswap/libraries/NFTSVG.sol\":15479:15499  7 * (str2length + 4) */\n      mul\n        /* \"contracts/uniswap/libraries/NFTSVG.sol\":15471:15509  uint256(7 * (str2length + 4)).toString */\n      tag_23\n        /* \"contracts/uniswap/libraries/NFTSVG.sol\":15471:15511  uint256(7 * (str2length + 4)).toString() */\n      jump\t// in\n    tag_488:\n        /* \"contracts/uniswap/libraries/NFTSVG.sol\":15779:15791  tickLowerStr */\n      dup10\n        /* \"contracts/uniswap/libraries/NFTSVG.sol\":15938:15978  uint256(7 * (str3length + 4)).toString() */\n      tag_489\n        /* \"contracts/uniswap/libraries/NFTSVG.sol\":15951:15961  str3length */\n      dup8\n        /* \"contracts/uniswap/libraries/NFTSVG.sol\":15964:15965  4 */\n      0x04\n        /* \"contracts/uniswap/libraries/NFTSVG.sol\":15951:15965  str3length + 4 */\n      add\n        /* \"contracts/uniswap/libraries/NFTSVG.sol\":15946:15947  7 */\n      0x07\n        /* \"contracts/uniswap/libraries/NFTSVG.sol\":15946:15966  7 * (str3length + 4) */\n      mul\n        /* \"contracts/uniswap/libraries/NFTSVG.sol\":15938:15976  uint256(7 * (str3length + 4)).toString */\n      tag_23\n        /* \"contracts/uniswap/libraries/NFTSVG.sol\":15938:15978  uint256(7 * (str3length + 4)).toString() */\n      jump\t// in\n    tag_489:\n        /* \"contracts/uniswap/libraries/NFTSVG.sol\":16246:16258  tickUpperStr */\n      dup11\n        /* \"contracts/uniswap/libraries/NFTSVG.sol\":16664:16670  xCoord */\n      dup8\n        /* \"contracts/uniswap/libraries/NFTSVG.sol\":16712:16718  yCoord */\n      dup8\n        /* \"contracts/uniswap/libraries/NFTSVG.sol\":14883:16806  abi.encodePacked(... */\n      add(0x20, mload(0x40))\n      dup1\n      dup1\n      data_a1d35662f193c8dca60ea626415bf453b6eb6f19f995eb4e725506bddb1c9b3c\n      0x2d\n      swap2\n      codecopy\n      0x2d\n      add\n      dup1\n      0x3c726563742077696474683d2200000000000000000000000000000000000000\n      dup2\n      mstore\n      pop\n      0x0d\n      add\n      dup10\n      dup1\n      mload\n      swap1\n      0x20\n      add\n      swap1\n      dup1\n      dup4\n      dup4\n    tag_490:\n      0x20\n      dup4\n      lt\n      tag_492\n      jumpi\n      dup1\n      mload\n      dup3\n      mstore\n      not(0x1f)\n      swap1\n      swap3\n      add\n      swap2\n      0x20\n      swap2\n      dup3\n      add\n      swap2\n      add\n      jump(tag_490)\n    tag_492:\n      0x01\n      dup4\n      0x20\n      sub\n      0x0100\n      exp\n      sub\n      dup1\n      not\n      dup3\n      mload\n      and\n      dup2\n      dup5\n      mload\n      and\n      dup1\n      dup3\n      or\n      dup6\n      mstore\n      pop\n      pop\n      pop\n      pop\n      pop\n      pop\n      swap1\n      pop\n      add\n      dup1\n      data_800ca0756ff976e45c222900c67e79662594eea8a3ec66e3bbb8af53bd09f4e4\n      0x3d\n      swap2\n      codecopy\n      0x3d\n      add\n      0x8d\n      data_e48f616382bc4db7da9436f22e091c88340d840be14446bdcabee6fb3c9ef913\n      dup3\n      codecopy\n      0x8d\n      add\n      dup9\n      dup1\n      mload\n      swap1\n      0x20\n      add\n      swap1\n      dup1\n      dup4\n      dup4\n    tag_493:\n      0x20\n      dup4\n      lt\n      tag_495\n      jumpi\n      dup1\n      mload\n      dup3\n      mstore\n      not(0x1f)\n      swap1\n      swap3\n      add\n      swap2\n      0x20\n      swap2\n      dup3\n      add\n      swap2\n      add\n      jump(tag_493)\n    tag_495:\n      mload\n      dup2\n      mload\n      0x20\n      swap4\n      swap1\n      swap4\n      sub\n      0x0100\n      exp\n      not(0x00)\n      add\n      dup1\n      not\n      swap1\n      swap2\n      and\n      swap3\n      and\n      swap2\n      swap1\n      swap2\n      or\n      swap1\n      mstore\n      0x3c2f746578743e3c2f673e000000000000000000000000000000000000000000\n      swap3\n      add\n      swap2\n      dup3\n      mstore\n      pop\n      0x0b\n      add\n      0x2d\n      data_fab582159965dc3537eef15a4898cfd495cdf6178ad5c39fe4f14de95021bcdd\n      dup3\n      codecopy\n      0x2d\n      add\n      dup1\n      0x3c726563742077696474683d2200000000000000000000000000000000000000\n      dup2\n      mstore\n      pop\n      0x0d\n      add\n      dup8\n      dup1\n      mload\n      swap1\n      0x20\n      add\n      swap1\n      dup1\n      dup4\n      dup4\n    tag_496:\n      0x20\n      dup4\n      lt\n      tag_498\n      jumpi\n      dup1\n      mload\n      dup3\n      mstore\n      not(0x1f)\n      swap1\n      swap3\n      add\n      swap2\n      0x20\n      swap2\n      dup3\n      add\n      swap2\n      add\n      jump(tag_496)\n    tag_498:\n      0x01\n      dup4\n      0x20\n      sub\n      0x0100\n      exp\n      sub\n      dup1\n      not\n      dup3\n      mload\n      and\n      dup2\n      dup5\n      mload\n      and\n      dup1\n      dup3\n      or\n      dup6\n      mstore\n      pop\n      pop\n      pop\n      pop\n      pop\n      pop\n      swap1\n      pop\n      add\n      dup1\n      data_800ca0756ff976e45c222900c67e79662594eea8a3ec66e3bbb8af53bd09f4e4\n      0x3d\n      swap2\n      codecopy\n      0x3d\n      add\n      0x93\n      data_5bc1bf3d11aae697778119ef346ad4842b7aeee3b48245084fb03eaf191c89a0\n      dup3\n      codecopy\n      0x93\n      add\n      dup7\n      dup1\n      mload\n      swap1\n      0x20\n      add\n      swap1\n      dup1\n      dup4\n      dup4\n    tag_499:\n      0x20\n      dup4\n      lt\n      tag_501\n      jumpi\n      dup1\n      mload\n      dup3\n      mstore\n      not(0x1f)\n      swap1\n      swap3\n      add\n      swap2\n      0x20\n      swap2\n      dup3\n      add\n      swap2\n      add\n      jump(tag_499)\n    tag_501:\n      mload\n      dup2\n      mload\n      0x20\n      swap4\n      swap1\n      swap4\n      sub\n      0x0100\n      exp\n      not(0x00)\n      add\n      dup1\n      not\n      swap1\n      swap2\n      and\n      swap3\n      and\n      swap2\n      swap1\n      swap2\n      or\n      swap1\n      mstore\n      0x3c2f746578743e3c2f673e000000000000000000000000000000000000000000\n      swap3\n      add\n      swap2\n      dup3\n      mstore\n      pop\n      0x0b\n      add\n      0x2d\n      data_220105d546304f5c5e6ab619f93ed0540d9e75da2d2186101f3be7105ff28a8a\n      dup3\n      codecopy\n      0x2d\n      add\n      dup1\n      0x3c726563742077696474683d2200000000000000000000000000000000000000\n      dup2\n      mstore\n      pop\n      0x0d\n      add\n      dup6\n      dup1\n      mload\n      swap1\n      0x20\n      add\n      swap1\n      dup1\n      dup4\n      dup4\n    tag_502:\n      0x20\n      dup4\n      lt\n      tag_504\n      jumpi\n      dup1\n      mload\n      dup3\n      mstore\n      not(0x1f)\n      swap1\n      swap3\n      add\n      swap2\n      0x20\n      swap2\n      dup3\n      add\n      swap2\n      add\n      jump(tag_502)\n    tag_504:\n      0x01\n      dup4\n      0x20\n      sub\n      0x0100\n      exp\n      sub\n      dup1\n      not\n      dup3\n      mload\n      and\n      dup2\n      dup5\n      mload\n      and\n      dup1\n      dup3\n      or\n      dup6\n      mstore\n      pop\n      pop\n      pop\n      pop\n      pop\n      pop\n      swap1\n      pop\n      add\n      dup1\n      data_800ca0756ff976e45c222900c67e79662594eea8a3ec66e3bbb8af53bd09f4e4\n      0x3d\n      swap2\n      codecopy\n      0x3d\n      add\n      0x93\n      data_bef0de1b6ab64a87365883910640202cc923019a0642c3dc3ce8c92f70e2aec2\n      dup3\n      codecopy\n      0x93\n      add\n      dup5\n      dup1\n      mload\n      swap1\n      0x20\n      add\n      swap1\n      dup1\n      dup4\n      dup4\n    tag_505:\n      0x20\n      dup4\n      lt\n      tag_507\n      jumpi\n      dup1\n      mload\n      dup3\n      mstore\n      not(0x1f)\n      swap1\n      swap3\n      add\n      swap2\n      0x20\n      swap2\n      dup3\n      add\n      swap2\n      add\n      jump(tag_505)\n    tag_507:\n      0x01\n      dup4\n      0x20\n      sub\n      0x0100\n      exp\n      sub\n      dup1\n      not\n      dup3\n      mload\n      and\n      dup2\n      dup5\n      mload\n      and\n      dup1\n      dup3\n      or\n      dup6\n      mstore\n      pop\n      pop\n      pop\n      pop\n      pop\n      pop\n      swap1\n      pop\n      add\n      dup1\n      data_f779b01e2c11d50446559da8a96e840c35be2177455b0699985122c52b0d1f4e\n      0x38\n      swap2\n      codecopy\n      0x38\n      add\n      0x60\n      data_ec66f735b9269156d2621c7cb2e179cbb93736ea6dfc7db8bdd4441a81eb1f64\n      dup3\n      codecopy\n      0x60\n      add\n      0x64\n      data_9172aa3905273de2038748a8a21d4c0caf162952597ab7af5f83d1a3c63cec1a\n      dup3\n      codecopy\n      0x64\n      add\n      0x25\n      data_2f31b113ee3d3056d0911a5e394047e1383278908d2c52df748865318956703e\n      dup3\n      codecopy\n      0x25\n      add\n      dup4\n      dup1\n      mload\n      swap1\n      0x20\n      add\n      swap1\n      dup1\n      dup4\n      dup4\n    tag_508:\n      0x20\n      dup4\n      lt\n      tag_510\n      jumpi\n      dup1\n      mload\n      dup3\n      mstore\n      not(0x1f)\n      swap1\n      swap3\n      add\n      swap2\n      0x20\n      swap2\n      dup3\n      add\n      swap2\n      add\n      jump(tag_508)\n    tag_510:\n      mload\n      dup2\n      mload\n      0x20\n      swap4\n      dup5\n      sub\n      0x0100\n      exp\n      not(0x00)\n      add\n      dup1\n      not\n      swap1\n      swap3\n      and\n      swap2\n      and\n      or\n      swap1\n      mstore\n      0x70782c2000000000000000000000000000000000000000000000000000000000\n      swap2\n      swap1\n      swap4\n      add\n      swap1\n      dup2\n      mstore\n      dup5\n      mload\n      0x04\n      swap1\n      swap2\n      add\n      swap3\n      dup6\n      add\n      swap2\n      pop\n      dup1\n      dup4\n      dup4\n    tag_511:\n      0x20\n      dup4\n      lt\n      tag_513\n      jumpi\n      dup1\n      mload\n      dup3\n      mstore\n      not(0x1f)\n      swap1\n      swap3\n      add\n      swap2\n      0x20\n      swap2\n      dup3\n      add\n      swap2\n      add\n      jump(tag_511)\n    tag_513:\n      0x01\n      dup4\n      0x20\n      sub\n      0x0100\n      exp\n      sub\n      dup1\n      not\n      dup3\n      mload\n      and\n      dup2\n      dup5\n      mload\n      and\n      dup1\n      dup3\n      or\n      dup6\n      mstore\n      pop\n      pop\n      pop\n      pop\n      pop\n      pop\n      swap1\n      pop\n      add\n      dup1\n      data_12c8706c8ed81675e674ab6c512d5560a6aee02a6795723026211fc0112724ea\n      0x36\n      swap2\n      codecopy\n      0x36\n      add\n      swap9\n      pop\n      pop\n      pop\n      pop\n      pop\n      pop\n      pop\n      pop\n      pop\n      mload(0x40)\n      0x20\n      dup2\n      dup4\n      sub\n      sub\n      dup2\n      mstore\n      swap1\n      0x40\n      mstore\n        /* \"contracts/uniswap/libraries/NFTSVG.sol\":14857:16816  svg = string(... */\n      swap8\n      pop\n        /* \"contracts/uniswap/libraries/NFTSVG.sol\":14274:16823  function generateSVGPositionDataAndLocationCurve(... */\n      pop\n      pop\n      pop\n      pop\n      pop\n      pop\n      pop\n      swap4\n      swap3\n      pop\n      pop\n      pop\n      jump\t// out\n        /* \"contracts/uniswap/libraries/NFTSVG.sol\":17994:19056  function generateSVGRareSparkle(uint256 tokenId, address poolAddress) private pure returns (string memory svg) {... */\n    tag_280:\n        /* \"contracts/uniswap/libraries/NFTSVG.sol\":18086:18103  string memory svg */\n      0x60\n        /* \"contracts/uniswap/libraries/NFTSVG.sol\":18119:18147  isRare(tokenId, poolAddress) */\n      tag_515\n        /* \"contracts/uniswap/libraries/NFTSVG.sol\":18126:18133  tokenId */\n      dup4\n        /* \"contracts/uniswap/libraries/NFTSVG.sol\":18135:18146  poolAddress */\n      dup4\n        /* \"contracts/uniswap/libraries/NFTSVG.sol\":18119:18125  isRare */\n      tag_516\n        /* \"contracts/uniswap/libraries/NFTSVG.sol\":18119:18147  isRare(tokenId, poolAddress) */\n      jump\t// in\n    tag_515:\n        /* \"contracts/uniswap/libraries/NFTSVG.sol\":18115:19050  if (isRare(tokenId, poolAddress)) {... */\n      iszero\n      tag_517\n      jumpi\n        /* \"contracts/uniswap/libraries/NFTSVG.sol\":18193:18986  abi.encodePacked(... */\n      add(0x20, mload(0x40))\n      dup1\n      0x8d\n      data_b620537f4b9141f0600bc5c47da368c069fd5940c0d18c49f45f4f60c38c7276\n      dup3\n      codecopy\n      0x8d\n      add\n      0x73\n      data_9146626b6016e55f44ab5e9e5bfcf47636d35086d1ea0e9bce56b7a6f4831ef4\n      dup3\n      codecopy\n      0x73\n      add\n      0x71\n      data_80e2be066469ac86e096e4a497c1f8a9fc0d1b11356ae8a905f38331737d0215\n      dup3\n      codecopy\n      0x71\n      add\n      0x8a\n      data_b5bc46fc2ed1d11f843f24feabdc206cab85902b15b95b355214f44b7cfde8e7\n      dup3\n      codecopy\n      0x8a\n      add\n      0x84\n      data_c4a75554270cae0d3a87478224f34b210600c80765754e633311ca3866647bf9\n      dup3\n      codecopy\n      0x84\n      add\n      swap1\n      pop\n      mload(0x40)\n      0x20\n      dup2\n      dup4\n      sub\n      sub\n      dup2\n      mstore\n      swap1\n      0x40\n      mstore\n        /* \"contracts/uniswap/libraries/NFTSVG.sol\":18163:19000  svg = string(... */\n      swap1\n      pop\n        /* \"contracts/uniswap/libraries/NFTSVG.sol\":18115:19050  if (isRare(tokenId, poolAddress)) {... */\n      jump(tag_84)\n    tag_517:\n      pop\n        /* \"contracts/uniswap/libraries/NFTSVG.sol\":19031:19039  svg = '' */\n      0x40\n      dup1\n      mload\n      0x20\n      dup2\n      add\n      swap1\n      swap2\n      mstore\n      0x00\n      dup2\n      mstore\n        /* \"contracts/uniswap/libraries/NFTSVG.sol\":17994:19056  function generateSVGRareSparkle(uint256 tokenId, address poolAddress) private pure returns (string memory svg) {... */\n      swap3\n      swap2\n      pop\n      pop\n      jump\t// out\n        /* \"contracts/uniswap/libraries/NFTDescriptor.sol\":9718:10730  function adjustForDecimalPrecision(... */\n    tag_331:\n        /* \"contracts/uniswap/libraries/NFTDescriptor.sol\":9878:9906  uint256 adjustedSqrtRatioX96 */\n      0x00\n      dup1\n        /* \"contracts/uniswap/libraries/NFTDescriptor.sol\":9939:10001  abs(int256(baseTokenDecimals).sub(int256(quoteTokenDecimals))) */\n      tag_520\n        /* \"contracts/uniswap/libraries/NFTDescriptor.sol\":9943:10000  int256(baseTokenDecimals).sub(int256(quoteTokenDecimals)) */\n      tag_521\n        /* \"contracts/uniswap/libraries/NFTDescriptor.sol\":9973:9999  int256(quoteTokenDecimals) */\n      0xff\n        /* \"contracts/uniswap/libraries/NFTDescriptor.sol\":9943:9968  int256(baseTokenDecimals) */\n      dup7\n      dup2\n      and\n      swap1\n        /* \"contracts/uniswap/libraries/NFTDescriptor.sol\":9973:9999  int256(quoteTokenDecimals) */\n      dup7\n      and\n        /* \"contracts/uniswap/libraries/NFTDescriptor.sol\":9943:9972  int256(baseTokenDecimals).sub */\n      tag_522\n        /* \"contracts/uniswap/libraries/NFTDescriptor.sol\":9943:10000  int256(baseTokenDecimals).sub(int256(quoteTokenDecimals)) */\n      jump\t// in\n    tag_521:\n        /* \"contracts/uniswap/libraries/NFTDescriptor.sol\":9939:9942  abs */\n      tag_523\n        /* \"contracts/uniswap/libraries/NFTDescriptor.sol\":9939:10001  abs(int256(baseTokenDecimals).sub(int256(quoteTokenDecimals))) */\n      jump\t// in\n    tag_520:\n        /* \"contracts/uniswap/libraries/NFTDescriptor.sol\":9918:10001  uint256 difference = abs(int256(baseTokenDecimals).sub(int256(quoteTokenDecimals))) */\n      swap1\n      pop\n        /* \"contracts/uniswap/libraries/NFTDescriptor.sol\":10028:10029  0 */\n      0x00\n        /* \"contracts/uniswap/libraries/NFTDescriptor.sol\":10015:10025  difference */\n      dup2\n        /* \"contracts/uniswap/libraries/NFTDescriptor.sol\":10015:10029  difference > 0 */\n      gt\n        /* \"contracts/uniswap/libraries/NFTDescriptor.sol\":10015:10049  difference > 0 && difference <= 18 */\n      dup1\n      iszero\n      tag_524\n      jumpi\n      pop\n        /* \"contracts/uniswap/libraries/NFTDescriptor.sol\":10047:10049  18 */\n      0x12\n        /* \"contracts/uniswap/libraries/NFTDescriptor.sol\":10033:10043  difference */\n      dup2\n        /* \"contracts/uniswap/libraries/NFTDescriptor.sol\":10033:10049  difference <= 18 */\n      gt\n      iszero\n        /* \"contracts/uniswap/libraries/NFTDescriptor.sol\":10015:10049  difference > 0 && difference <= 18 */\n    tag_524:\n        /* \"contracts/uniswap/libraries/NFTDescriptor.sol\":10011:10724  if (difference > 0 && difference <= 18) {... */\n      iszero\n      tag_525\n      jumpi\n        /* \"contracts/uniswap/libraries/NFTDescriptor.sol\":10089:10107  quoteTokenDecimals */\n      dup3\n        /* \"contracts/uniswap/libraries/NFTDescriptor.sol\":10069:10107  baseTokenDecimals > quoteTokenDecimals */\n      0xff\n      and\n        /* \"contracts/uniswap/libraries/NFTDescriptor.sol\":10069:10086  baseTokenDecimals */\n      dup5\n        /* \"contracts/uniswap/libraries/NFTDescriptor.sol\":10069:10107  baseTokenDecimals > quoteTokenDecimals */\n      0xff\n      and\n      gt\n        /* \"contracts/uniswap/libraries/NFTDescriptor.sol\":10065:10639  if (baseTokenDecimals > quoteTokenDecimals) {... */\n      iszero\n      tag_526\n      jumpi\n        /* \"contracts/uniswap/libraries/NFTDescriptor.sol\":10150:10191  sqrtRatioX96.mul(10**(difference.div(2))) */\n      tag_527\n        /* \"contracts/uniswap/libraries/NFTDescriptor.sol\":10172:10189  difference.div(2) */\n      tag_528\n        /* \"contracts/uniswap/libraries/NFTDescriptor.sol\":10172:10182  difference */\n      dup3\n        /* \"contracts/uniswap/libraries/NFTDescriptor.sol\":10187:10188  2 */\n      0x02\n        /* \"contracts/uniswap/libraries/NFTDescriptor.sol\":10172:10186  difference.div */\n      tag_78\n        /* \"contracts/uniswap/libraries/NFTDescriptor.sol\":10172:10189  difference.div(2) */\n      jump\t// in\n    tag_528:\n        /* \"contracts/uniswap/libraries/NFTDescriptor.sol\":10150:10166  sqrtRatioX96.mul */\n      0xffffffffffffffffffffffffffffffffffffffff\n      dup8\n      and\n      swap1\n        /* \"contracts/uniswap/libraries/NFTDescriptor.sol\":10167:10169  10 */\n      0x0a\n        /* \"contracts/uniswap/libraries/NFTDescriptor.sol\":10167:10190  10**(difference.div(2)) */\n      exp\n        /* \"contracts/uniswap/libraries/NFTDescriptor.sol\":10150:10166  sqrtRatioX96.mul */\n      tag_266\n        /* \"contracts/uniswap/libraries/NFTDescriptor.sol\":10150:10191  sqrtRatioX96.mul(10**(difference.div(2))) */\n      jump\t// in\n    tag_527:\n        /* \"contracts/uniswap/libraries/NFTDescriptor.sol\":10127:10191  adjustedSqrtRatioX96 = sqrtRatioX96.mul(10**(difference.div(2))) */\n      swap2\n      pop\n        /* \"contracts/uniswap/libraries/NFTDescriptor.sol\":10226:10227  2 */\n      0x02\n        /* \"contracts/uniswap/libraries/NFTDescriptor.sol\":10213:10223  difference */\n      dup2\n        /* \"contracts/uniswap/libraries/NFTDescriptor.sol\":10213:10227  difference % 2 */\n      mod\n        /* \"contracts/uniswap/libraries/NFTDescriptor.sol\":10231:10232  1 */\n      0x01\n        /* \"contracts/uniswap/libraries/NFTDescriptor.sol\":10213:10232  difference % 2 == 1 */\n      eq\n        /* \"contracts/uniswap/libraries/NFTDescriptor.sol\":10209:10357  if (difference % 2 == 1) {... */\n      iszero\n      tag_530\n      jumpi\n        /* \"contracts/uniswap/libraries/NFTDescriptor.sol\":10279:10338  FullMath.mulDiv(adjustedSqrtRatioX96, sqrt10X128, 1 << 128) */\n      tag_531\n        /* \"contracts/uniswap/libraries/NFTDescriptor.sol\":10295:10315  adjustedSqrtRatioX96 */\n      dup3\n        /* \"contracts/uniswap/libraries/NFTDescriptor.sol\":858:898  1076067327063303206878105757264492625226 */\n      0x03298b075b4b6a5240945790619b37fd4a\n        /* \"contracts/uniswap/libraries/NFTDescriptor.sol\":10329:10337  1 << 128 */\n      0x0100000000000000000000000000000000\n        /* \"contracts/uniswap/libraries/NFTDescriptor.sol\":10279:10294  FullMath.mulDiv */\n      tag_333\n        /* \"contracts/uniswap/libraries/NFTDescriptor.sol\":10279:10338  FullMath.mulDiv(adjustedSqrtRatioX96, sqrt10X128, 1 << 128) */\n      jump\t// in\n    tag_531:\n        /* \"contracts/uniswap/libraries/NFTDescriptor.sol\":10256:10338  adjustedSqrtRatioX96 = FullMath.mulDiv(adjustedSqrtRatioX96, sqrt10X128, 1 << 128) */\n      swap2\n      pop\n        /* \"contracts/uniswap/libraries/NFTDescriptor.sol\":10209:10357  if (difference % 2 == 1) {... */\n    tag_530:\n        /* \"contracts/uniswap/libraries/NFTDescriptor.sol\":10065:10639  if (baseTokenDecimals > quoteTokenDecimals) {... */\n      jump(tag_536)\n    tag_526:\n        /* \"contracts/uniswap/libraries/NFTDescriptor.sol\":10418:10459  sqrtRatioX96.div(10**(difference.div(2))) */\n      tag_533\n        /* \"contracts/uniswap/libraries/NFTDescriptor.sol\":10440:10457  difference.div(2) */\n      tag_534\n        /* \"contracts/uniswap/libraries/NFTDescriptor.sol\":10440:10450  difference */\n      dup3\n        /* \"contracts/uniswap/libraries/NFTDescriptor.sol\":10455:10456  2 */\n      0x02\n        /* \"contracts/uniswap/libraries/NFTDescriptor.sol\":10440:10454  difference.div */\n      tag_78\n        /* \"contracts/uniswap/libraries/NFTDescriptor.sol\":10440:10457  difference.div(2) */\n      jump\t// in\n    tag_534:\n        /* \"contracts/uniswap/libraries/NFTDescriptor.sol\":10418:10434  sqrtRatioX96.div */\n      0xffffffffffffffffffffffffffffffffffffffff\n      dup8\n      and\n      swap1\n        /* \"contracts/uniswap/libraries/NFTDescriptor.sol\":10435:10437  10 */\n      0x0a\n        /* \"contracts/uniswap/libraries/NFTDescriptor.sol\":10435:10458  10**(difference.div(2)) */\n      exp\n        /* \"contracts/uniswap/libraries/NFTDescriptor.sol\":10418:10434  sqrtRatioX96.div */\n      tag_78\n        /* \"contracts/uniswap/libraries/NFTDescriptor.sol\":10418:10459  sqrtRatioX96.div(10**(difference.div(2))) */\n      jump\t// in\n    tag_533:\n        /* \"contracts/uniswap/libraries/NFTDescriptor.sol\":10395:10459  adjustedSqrtRatioX96 = sqrtRatioX96.div(10**(difference.div(2))) */\n      swap2\n      pop\n        /* \"contracts/uniswap/libraries/NFTDescriptor.sol\":10494:10495  2 */\n      0x02\n        /* \"contracts/uniswap/libraries/NFTDescriptor.sol\":10481:10491  difference */\n      dup2\n        /* \"contracts/uniswap/libraries/NFTDescriptor.sol\":10481:10495  difference % 2 */\n      mod\n        /* \"contracts/uniswap/libraries/NFTDescriptor.sol\":10499:10500  1 */\n      0x01\n        /* \"contracts/uniswap/libraries/NFTDescriptor.sol\":10481:10500  difference % 2 == 1 */\n      eq\n        /* \"contracts/uniswap/libraries/NFTDescriptor.sol\":10477:10625  if (difference % 2 == 1) {... */\n      iszero\n      tag_536\n      jumpi\n        /* \"contracts/uniswap/libraries/NFTDescriptor.sol\":10547:10606  FullMath.mulDiv(adjustedSqrtRatioX96, 1 << 128, sqrt10X128) */\n      tag_537\n        /* \"contracts/uniswap/libraries/NFTDescriptor.sol\":10563:10583  adjustedSqrtRatioX96 */\n      dup3\n        /* \"contracts/uniswap/libraries/NFTDescriptor.sol\":10585:10593  1 << 128 */\n      0x0100000000000000000000000000000000\n        /* \"contracts/uniswap/libraries/NFTDescriptor.sol\":858:898  1076067327063303206878105757264492625226 */\n      0x03298b075b4b6a5240945790619b37fd4a\n        /* \"contracts/uniswap/libraries/NFTDescriptor.sol\":10547:10562  FullMath.mulDiv */\n      tag_333\n        /* \"contracts/uniswap/libraries/NFTDescriptor.sol\":10547:10606  FullMath.mulDiv(adjustedSqrtRatioX96, 1 << 128, sqrt10X128) */\n      jump\t// in\n    tag_537:\n        /* \"contracts/uniswap/libraries/NFTDescriptor.sol\":10524:10606  adjustedSqrtRatioX96 = FullMath.mulDiv(adjustedSqrtRatioX96, 1 << 128, sqrt10X128) */\n      swap2\n      pop\n        /* \"contracts/uniswap/libraries/NFTDescriptor.sol\":10477:10625  if (difference % 2 == 1) {... */\n    tag_536:\n        /* \"contracts/uniswap/libraries/NFTDescriptor.sol\":10011:10724  if (difference > 0 && difference <= 18) {... */\n      jump(tag_363)\n    tag_525:\n      pop\n      pop\n        /* \"contracts/uniswap/libraries/NFTDescriptor.sol\":10692:10713  uint256(sqrtRatioX96) */\n      0xffffffffffffffffffffffffffffffffffffffff\n      swap1\n      swap3\n      and\n      swap3\n        /* \"contracts/uniswap/libraries/NFTDescriptor.sol\":9718:10730  function adjustForDecimalPrecision(... */\n      swap2\n      pop\n      pop\n      jump\t// out\n        /* \"@uniswap/v3-core/contracts/libraries/FullMath.sol\":749:4525  function mulDiv(... */\n    tag_333:\n        /* \"@uniswap/v3-core/contracts/libraries/FullMath.sol\":861:875  uint256 result */\n      0x00\n      dup1\n      dup1\n      not(0x00)\n        /* \"@uniswap/v3-core/contracts/libraries/FullMath.sol\":1368:1369  b */\n      dup6\n        /* \"@uniswap/v3-core/contracts/libraries/FullMath.sol\":1365:1366  a */\n      dup8\n        /* \"@uniswap/v3-core/contracts/libraries/FullMath.sol\":1358:1378  mulmod(a, b, not(0)) */\n      mulmod\n        /* \"@uniswap/v3-core/contracts/libraries/FullMath.sol\":1400:1409  mul(a, b) */\n      dup7\n      dup7\n      mul\n      swap3\n      pop\n        /* \"@uniswap/v3-core/contracts/libraries/FullMath.sol\":1451:1464  lt(mm, prod0) */\n      dup3\n      dup2\n      lt\n        /* \"@uniswap/v3-core/contracts/libraries/FullMath.sol\":1435:1449  sub(mm, prod0) */\n      swap1\n      dup4\n      swap1\n      sub\n        /* \"@uniswap/v3-core/contracts/libraries/FullMath.sol\":1431:1465  sub(sub(mm, prod0), lt(mm, prod0)) */\n      sub\n      swap1\n      pop\n        /* \"@uniswap/v3-core/contracts/libraries/FullMath.sol\":1547:1557  prod1 == 0 */\n      dup1\n        /* \"@uniswap/v3-core/contracts/libraries/FullMath.sol\":1543:1722  if (prod1 == 0) {... */\n      tag_540\n      jumpi\n        /* \"@uniswap/v3-core/contracts/libraries/FullMath.sol\":1595:1596  0 */\n      0x00\n        /* \"@uniswap/v3-core/contracts/libraries/FullMath.sol\":1581:1592  denominator */\n      dup5\n        /* \"@uniswap/v3-core/contracts/libraries/FullMath.sol\":1581:1596  denominator > 0 */\n      gt\n        /* \"@uniswap/v3-core/contracts/libraries/FullMath.sol\":1573:1597  require(denominator > 0) */\n      tag_541\n      jumpi\n      0x00\n      dup1\n      revert\n    tag_541:\n      pop\n        /* \"@uniswap/v3-core/contracts/libraries/FullMath.sol\":1648:1671  div(prod0, denominator) */\n      dup3\n      swap1\n      div\n      swap1\n      pop\n        /* \"@uniswap/v3-core/contracts/libraries/FullMath.sol\":1698:1711  return result */\n      jump(tag_116)\n        /* \"@uniswap/v3-core/contracts/libraries/FullMath.sol\":1543:1722  if (prod1 == 0) {... */\n    tag_540:\n        /* \"@uniswap/v3-core/contracts/libraries/FullMath.sol\":1849:1854  prod1 */\n      dup1\n        /* \"@uniswap/v3-core/contracts/libraries/FullMath.sol\":1835:1846  denominator */\n      dup5\n        /* \"@uniswap/v3-core/contracts/libraries/FullMath.sol\":1835:1854  denominator > prod1 */\n      gt\n        /* \"@uniswap/v3-core/contracts/libraries/FullMath.sol\":1827:1855  require(denominator > prod1) */\n      tag_542\n      jumpi\n      0x00\n      dup1\n      revert\n    tag_542:\n        /* \"@uniswap/v3-core/contracts/libraries/FullMath.sol\":2132:2149  uint256 remainder */\n      0x00\n        /* \"@uniswap/v3-core/contracts/libraries/FullMath.sol\":2208:2219  denominator */\n      dup5\n        /* \"@uniswap/v3-core/contracts/libraries/FullMath.sol\":2205:2206  b */\n      dup7\n        /* \"@uniswap/v3-core/contracts/libraries/FullMath.sol\":2202:2203  a */\n      dup9\n        /* \"@uniswap/v3-core/contracts/libraries/FullMath.sol\":2195:2220  mulmod(a, b, denominator) */\n      mulmod\n        /* \"@uniswap/v3-core/contracts/libraries/FullMath.sol\":2560:2572  uint256 twos */\n      0x00\n        /* \"@uniswap/v3-core/contracts/libraries/FullMath.sol\":2575:2587  -denominator */\n      dup7\n      dup2\n      sub\n        /* \"@uniswap/v3-core/contracts/libraries/FullMath.sol\":2575:2601  -denominator & denominator */\n      dup8\n      and\n        /* \"@uniswap/v3-core/contracts/libraries/FullMath.sol\":2695:2717  div(denominator, twos) */\n      swap7\n      dup8\n      swap1\n      div\n      swap7\n        /* \"@uniswap/v3-core/contracts/libraries/FullMath.sol\":3498:3499  2 */\n      0x02\n        /* \"@uniswap/v3-core/contracts/libraries/FullMath.sol\":3479:3480  3 */\n      0x03\n        /* \"@uniswap/v3-core/contracts/libraries/FullMath.sol\":3479:3494  3 * denominator */\n      dup10\n      mul\n        /* \"@uniswap/v3-core/contracts/libraries/FullMath.sol\":3478:3499  (3 * denominator) ^ 2 */\n      dup2\n      xor\n        /* \"@uniswap/v3-core/contracts/libraries/FullMath.sol\":3725:3742  denominator * inv */\n      dup1\n      dup11\n      mul\n        /* \"@uniswap/v3-core/contracts/libraries/FullMath.sol\":3721:3742  2 - denominator * inv */\n      dup3\n      sub\n        /* \"@uniswap/v3-core/contracts/libraries/FullMath.sol\":3714:3742  inv *= 2 - denominator * inv */\n      mul\n        /* \"@uniswap/v3-core/contracts/libraries/FullMath.sol\":3783:3800  denominator * inv */\n      dup1\n      dup11\n      mul\n        /* \"@uniswap/v3-core/contracts/libraries/FullMath.sol\":3779:3800  2 - denominator * inv */\n      dup3\n      sub\n        /* \"@uniswap/v3-core/contracts/libraries/FullMath.sol\":3772:3800  inv *= 2 - denominator * inv */\n      mul\n        /* \"@uniswap/v3-core/contracts/libraries/FullMath.sol\":3842:3859  denominator * inv */\n      dup1\n      dup11\n      mul\n        /* \"@uniswap/v3-core/contracts/libraries/FullMath.sol\":3838:3859  2 - denominator * inv */\n      dup3\n      sub\n        /* \"@uniswap/v3-core/contracts/libraries/FullMath.sol\":3831:3859  inv *= 2 - denominator * inv */\n      mul\n        /* \"@uniswap/v3-core/contracts/libraries/FullMath.sol\":3901:3918  denominator * inv */\n      dup1\n      dup11\n      mul\n        /* \"@uniswap/v3-core/contracts/libraries/FullMath.sol\":3897:3918  2 - denominator * inv */\n      dup3\n      sub\n        /* \"@uniswap/v3-core/contracts/libraries/FullMath.sol\":3890:3918  inv *= 2 - denominator * inv */\n      mul\n        /* \"@uniswap/v3-core/contracts/libraries/FullMath.sol\":3960:3977  denominator * inv */\n      dup1\n      dup11\n      mul\n        /* \"@uniswap/v3-core/contracts/libraries/FullMath.sol\":3956:3977  2 - denominator * inv */\n      dup3\n      sub\n        /* \"@uniswap/v3-core/contracts/libraries/FullMath.sol\":3949:3977  inv *= 2 - denominator * inv */\n      mul\n        /* \"@uniswap/v3-core/contracts/libraries/FullMath.sol\":4020:4037  denominator * inv */\n      dup1\n      dup11\n      mul\n        /* \"@uniswap/v3-core/contracts/libraries/FullMath.sol\":4016:4037  2 - denominator * inv */\n      swap1\n      swap2\n      sub\n        /* \"@uniswap/v3-core/contracts/libraries/FullMath.sol\":4009:4037  inv *= 2 - denominator * inv */\n      mul\n        /* \"@uniswap/v3-core/contracts/libraries/FullMath.sol\":3067:3079  sub(0, twos) */\n      swap2\n      dup2\n      swap1\n      sub\n        /* \"@uniswap/v3-core/contracts/libraries/FullMath.sol\":3063:3086  div(sub(0, twos), twos) */\n      dup2\n      swap1\n      div\n        /* \"@uniswap/v3-core/contracts/libraries/FullMath.sol\":3088:3089  1 */\n      0x01\n        /* \"@uniswap/v3-core/contracts/libraries/FullMath.sol\":3059:3090  add(div(sub(0, twos), twos), 1) */\n      add\n        /* \"@uniswap/v3-core/contracts/libraries/FullMath.sol\":2337:2357  gt(remainder, prod0) */\n      dup7\n      dup5\n      gt\n        /* \"@uniswap/v3-core/contracts/libraries/FullMath.sol\":2326:2358  sub(prod1, gt(remainder, prod0)) */\n      swap1\n      swap6\n      sub\n        /* \"@uniswap/v3-core/contracts/libraries/FullMath.sol\":3118:3130  prod1 * twos */\n      swap5\n      swap1\n      swap5\n      mul\n        /* \"@uniswap/v3-core/contracts/libraries/FullMath.sol\":2380:2401  sub(prod0, remainder) */\n      swap2\n      swap1\n      swap5\n      sub\n        /* \"@uniswap/v3-core/contracts/libraries/FullMath.sol\":2823:2839  div(prod0, twos) */\n      swap3\n      swap1\n      swap3\n      div\n        /* \"@uniswap/v3-core/contracts/libraries/FullMath.sol\":3109:3130  prod0 |= prod1 * twos */\n      swap2\n      swap1\n      swap2\n      or\n        /* \"@uniswap/v3-core/contracts/libraries/FullMath.sol\":4484:4495  prod0 * inv */\n      swap2\n      swap1\n      swap2\n      mul\n      swap2\n      pop\n      pop\n        /* \"@uniswap/v3-core/contracts/libraries/FullMath.sol\":749:4525  function mulDiv(... */\n      swap4\n      swap3\n      pop\n      pop\n      pop\n      jump\t// out\n        /* \"contracts/uniswap/libraries/NFTDescriptor.sol\":9187:9712  function sigfigsRounded(uint256 value, uint8 digits) private pure returns (uint256, bool) {... */\n    tag_342:\n        /* \"contracts/uniswap/libraries/NFTDescriptor.sol\":9262:9269  uint256 */\n      0x00\n        /* \"contracts/uniswap/libraries/NFTDescriptor.sol\":9271:9275  bool */\n      dup1\n        /* \"contracts/uniswap/libraries/NFTDescriptor.sol\":9287:9302  bool extraDigit */\n      0x00\n        /* \"contracts/uniswap/libraries/NFTDescriptor.sol\":9325:9326  5 */\n      0x05\n        /* \"contracts/uniswap/libraries/NFTDescriptor.sol\":9316:9322  digits */\n      dup5\n        /* \"contracts/uniswap/libraries/NFTDescriptor.sol\":9316:9326  digits > 5 */\n      0xff\n      and\n      gt\n        /* \"contracts/uniswap/libraries/NFTDescriptor.sol\":9312:9390  if (digits > 5) {... */\n      iszero\n      tag_544\n      jumpi\n        /* \"contracts/uniswap/libraries/NFTDescriptor.sol\":9350:9379  value.div((10**(digits - 5))) */\n      tag_545\n        /* \"contracts/uniswap/libraries/NFTDescriptor.sol\":9350:9355  value */\n      dup6\n        /* \"contracts/uniswap/libraries/NFTDescriptor.sol\":9361:9377  10**(digits - 5) */\n      0xff\n        /* \"contracts/uniswap/libraries/NFTDescriptor.sol\":9366:9376  digits - 5 */\n      0xfffffffffffffffffffffffffffffffffffffffffffffffffffffffffffffffb\n      dup8\n      add\n        /* \"contracts/uniswap/libraries/NFTDescriptor.sol\":9361:9377  10**(digits - 5) */\n      and\n        /* \"contracts/uniswap/libraries/NFTDescriptor.sol\":9361:9363  10 */\n      0x0a\n        /* \"contracts/uniswap/libraries/NFTDescriptor.sol\":9361:9377  10**(digits - 5) */\n      exp\n        /* \"contracts/uniswap/libraries/NFTDescriptor.sol\":9350:9359  value.div */\n      tag_78\n        /* \"contracts/uniswap/libraries/NFTDescriptor.sol\":9350:9379  value.div((10**(digits - 5))) */\n      jump\t// in\n    tag_545:\n        /* \"contracts/uniswap/libraries/NFTDescriptor.sol\":9342:9379  value = value.div((10**(digits - 5))) */\n      swap5\n      pop\n        /* \"contracts/uniswap/libraries/NFTDescriptor.sol\":9312:9390  if (digits > 5) {... */\n    tag_544:\n        /* \"contracts/uniswap/libraries/NFTDescriptor.sol\":9399:9411  bool roundUp */\n      0x00\n        /* \"contracts/uniswap/libraries/NFTDescriptor.sol\":9427:9428  4 */\n      0x04\n        /* \"contracts/uniswap/libraries/NFTDescriptor.sol\":9422:9424  10 */\n      0x0a\n        /* \"contracts/uniswap/libraries/NFTDescriptor.sol\":9414:9419  value */\n      dup8\n        /* \"contracts/uniswap/libraries/NFTDescriptor.sol\":9414:9424  value % 10 */\n      mod\n        /* \"contracts/uniswap/libraries/NFTDescriptor.sol\":9414:9428  value % 10 > 4 */\n      gt\n      swap1\n      pop\n        /* \"contracts/uniswap/libraries/NFTDescriptor.sol\":9446:9459  value.div(10) */\n      tag_547\n        /* \"contracts/uniswap/libraries/NFTDescriptor.sol\":9446:9451  value */\n      dup7\n        /* \"contracts/uniswap/libraries/NFTDescriptor.sol\":9456:9458  10 */\n      0x0a\n        /* \"contracts/uniswap/libraries/NFTDescriptor.sol\":9446:9455  value.div */\n      tag_78\n        /* \"contracts/uniswap/libraries/NFTDescriptor.sol\":9446:9459  value.div(10) */\n      jump\t// in\n    tag_547:\n        /* \"contracts/uniswap/libraries/NFTDescriptor.sol\":9438:9459  value = value.div(10) */\n      swap6\n      pop\n        /* \"contracts/uniswap/libraries/NFTDescriptor.sol\":9473:9480  roundUp */\n      dup1\n        /* \"contracts/uniswap/libraries/NFTDescriptor.sol\":9469:9524  if (roundUp) {... */\n      iszero\n      tag_548\n      jumpi\n        /* \"contracts/uniswap/libraries/NFTDescriptor.sol\":9504:9509  value */\n      dup6\n        /* \"contracts/uniswap/libraries/NFTDescriptor.sol\":9512:9513  1 */\n      0x01\n        /* \"contracts/uniswap/libraries/NFTDescriptor.sol\":9504:9513  value + 1 */\n      add\n        /* \"contracts/uniswap/libraries/NFTDescriptor.sol\":9496:9513  value = value + 1 */\n      swap6\n      pop\n        /* \"contracts/uniswap/libraries/NFTDescriptor.sol\":9469:9524  if (roundUp) {... */\n    tag_548:\n        /* \"contracts/uniswap/libraries/NFTDescriptor.sol\":9586:9591  value */\n      dup6\n        /* \"contracts/uniswap/libraries/NFTDescriptor.sol\":9595:9601  100000 */\n      0x0186a0\n        /* \"contracts/uniswap/libraries/NFTDescriptor.sol\":9586:9601  value == 100000 */\n      eq\n        /* \"contracts/uniswap/libraries/NFTDescriptor.sol\":9582:9670  if (value == 100000) {... */\n      iszero\n      tag_549\n      jumpi\n        /* \"contracts/uniswap/libraries/NFTDescriptor.sol\":9626:9628  10 */\n      0x0a\n        /* \"contracts/uniswap/libraries/NFTDescriptor.sol\":9617:9628  value /= 10 */\n      dup7\n      div\n      swap6\n      pop\n        /* \"contracts/uniswap/libraries/NFTDescriptor.sol\":9655:9659  true */\n      0x01\n        /* \"contracts/uniswap/libraries/NFTDescriptor.sol\":9642:9659  extraDigit = true */\n      swap2\n      pop\n        /* \"contracts/uniswap/libraries/NFTDescriptor.sol\":9582:9670  if (value == 100000) {... */\n    tag_549:\n      pop\n        /* \"contracts/uniswap/libraries/NFTDescriptor.sol\":9687:9692  value */\n      dup5\n      swap3\n      pop\n        /* \"contracts/uniswap/libraries/NFTDescriptor.sol\":9694:9704  extraDigit */\n      swap1\n      pop\n        /* \"contracts/uniswap/libraries/NFTDescriptor.sol\":9187:9712  function sigfigsRounded(uint256 value, uint8 digits) private pure returns (uint256, bool) {... */\n    tag_543:\n      swap3\n      pop\n      swap3\n      swap1\n      pop\n      jump\t// out\n        /* \"contracts/uniswap/libraries/NFTSVG.sol\":12212:12939  function getCurve(... */\n    tag_463:\n        /* \"contracts/uniswap/libraries/NFTSVG.sol\":12336:12355  string memory curve */\n      0x60\n        /* \"contracts/uniswap/libraries/NFTSVG.sol\":12367:12382  int24 tickRange */\n      0x00\n        /* \"contracts/uniswap/libraries/NFTSVG.sol\":12411:12422  tickSpacing */\n      dup3\n        /* \"contracts/uniswap/libraries/NFTSVG.sol\":12385:12422  (tickUpper - tickLower) / tickSpacing */\n      0x02\n      signextend\n        /* \"contracts/uniswap/libraries/NFTSVG.sol\":12398:12407  tickLower */\n      dup6\n        /* \"contracts/uniswap/libraries/NFTSVG.sol\":12386:12395  tickUpper */\n      dup6\n        /* \"contracts/uniswap/libraries/NFTSVG.sol\":12386:12407  tickUpper - tickLower */\n      sub\n        /* \"contracts/uniswap/libraries/NFTSVG.sol\":12385:12422  (tickUpper - tickLower) / tickSpacing */\n      0x02\n      signextend\n      dup2\n      tag_552\n      jumpi\n      invalid\n    tag_552:\n      sdiv\n        /* \"contracts/uniswap/libraries/NFTSVG.sol\":12367:12422  int24 tickRange = (tickUpper - tickLower) / tickSpacing */\n      swap1\n      pop\n        /* \"contracts/uniswap/libraries/NFTSVG.sol\":12449:12450  4 */\n      0x04\n        /* \"contracts/uniswap/libraries/NFTSVG.sol\":12436:12445  tickRange */\n      dup2\n        /* \"contracts/uniswap/libraries/NFTSVG.sol\":12436:12450  tickRange <= 4 */\n      0x02\n      signextend\n      sgt\n        /* \"contracts/uniswap/libraries/NFTSVG.sol\":12432:12933  if (tickRange <= 4) {... */\n      tag_553\n      jumpi\n        /* \"contracts/uniswap/libraries/NFTSVG.sol\":12474:12480  curve1 */\n      mload(0x40)\n      dup1\n      0x40\n      add\n      0x40\n      mstore\n      dup1\n      0x1a\n      dup2\n      mstore\n      0x20\n      add\n      0x4d31203143343120343120313035203130352031343520313435000000000000\n      dup2\n      mstore\n      pop\n        /* \"contracts/uniswap/libraries/NFTSVG.sol\":12466:12480  curve = curve1 */\n      swap2\n      pop\n        /* \"contracts/uniswap/libraries/NFTSVG.sol\":12432:12933  if (tickRange <= 4) {... */\n      jump(tag_363)\n    tag_553:\n        /* \"contracts/uniswap/libraries/NFTSVG.sol\":12514:12515  8 */\n      0x08\n        /* \"contracts/uniswap/libraries/NFTSVG.sol\":12501:12510  tickRange */\n      dup2\n        /* \"contracts/uniswap/libraries/NFTSVG.sol\":12501:12515  tickRange <= 8 */\n      0x02\n      signextend\n      sgt\n        /* \"contracts/uniswap/libraries/NFTSVG.sol\":12497:12933  if (tickRange <= 8) {... */\n      tag_555\n      jumpi\n        /* \"contracts/uniswap/libraries/NFTSVG.sol\":12539:12545  curve2 */\n      mload(0x40)\n      dup1\n      0x40\n      add\n      0x40\n      mstore\n      dup1\n      0x19\n      dup2\n      mstore\n      0x20\n      add\n      0x4d31203143333320343920393720313133203134352031343500000000000000\n      dup2\n      mstore\n      pop\n        /* \"contracts/uniswap/libraries/NFTSVG.sol\":12531:12545  curve = curve2 */\n      swap2\n      pop\n        /* \"contracts/uniswap/libraries/NFTSVG.sol\":12497:12933  if (tickRange <= 8) {... */\n      jump(tag_363)\n    tag_555:\n        /* \"contracts/uniswap/libraries/NFTSVG.sol\":12579:12581  16 */\n      0x10\n        /* \"contracts/uniswap/libraries/NFTSVG.sol\":12566:12575  tickRange */\n      dup2\n        /* \"contracts/uniswap/libraries/NFTSVG.sol\":12566:12581  tickRange <= 16 */\n      0x02\n      signextend\n      sgt\n        /* \"contracts/uniswap/libraries/NFTSVG.sol\":12562:12933  if (tickRange <= 16) {... */\n      tag_557\n      jumpi\n        /* \"contracts/uniswap/libraries/NFTSVG.sol\":12605:12611  curve3 */\n      mload(0x40)\n      dup1\n      0x40\n      add\n      0x40\n      mstore\n      dup1\n      0x19\n      dup2\n      mstore\n      0x20\n      add\n      0x4d31203143333320353720383920313133203134352031343500000000000000\n      dup2\n      mstore\n      pop\n        /* \"contracts/uniswap/libraries/NFTSVG.sol\":12597:12611  curve = curve3 */\n      swap2\n      pop\n        /* \"contracts/uniswap/libraries/NFTSVG.sol\":12562:12933  if (tickRange <= 16) {... */\n      jump(tag_363)\n    tag_557:\n        /* \"contracts/uniswap/libraries/NFTSVG.sol\":12645:12647  32 */\n      0x20\n        /* \"contracts/uniswap/libraries/NFTSVG.sol\":12632:12641  tickRange */\n      dup2\n        /* \"contracts/uniswap/libraries/NFTSVG.sol\":12632:12647  tickRange <= 32 */\n      0x02\n      signextend\n      sgt\n        /* \"contracts/uniswap/libraries/NFTSVG.sol\":12628:12933  if (tickRange <= 32) {... */\n      tag_559\n      jumpi\n        /* \"contracts/uniswap/libraries/NFTSVG.sol\":12671:12677  curve4 */\n      mload(0x40)\n      dup1\n      0x40\n      add\n      0x40\n      mstore\n      dup1\n      0x19\n      dup2\n      mstore\n      0x20\n      add\n      0x4d31203143323520363520383120313231203134352031343500000000000000\n      dup2\n      mstore\n      pop\n        /* \"contracts/uniswap/libraries/NFTSVG.sol\":12663:12677  curve = curve4 */\n      swap2\n      pop\n        /* \"contracts/uniswap/libraries/NFTSVG.sol\":12628:12933  if (tickRange <= 32) {... */\n      jump(tag_363)\n    tag_559:\n        /* \"contracts/uniswap/libraries/NFTSVG.sol\":12711:12713  64 */\n      0x40\n        /* \"contracts/uniswap/libraries/NFTSVG.sol\":12698:12707  tickRange */\n      dup2\n        /* \"contracts/uniswap/libraries/NFTSVG.sol\":12698:12713  tickRange <= 64 */\n      0x02\n      signextend\n      sgt\n        /* \"contracts/uniswap/libraries/NFTSVG.sol\":12694:12933  if (tickRange <= 64) {... */\n      tag_561\n      jumpi\n        /* \"contracts/uniswap/libraries/NFTSVG.sol\":12737:12743  curve5 */\n      mload(0x40)\n      dup1\n      0x40\n      add\n      0x40\n      mstore\n      dup1\n      0x19\n      dup2\n      mstore\n      0x20\n      add\n      0x4d31203143313720373320373320313239203134352031343500000000000000\n      dup2\n      mstore\n      pop\n        /* \"contracts/uniswap/libraries/NFTSVG.sol\":12729:12743  curve = curve5 */\n      swap2\n      pop\n        /* \"contracts/uniswap/libraries/NFTSVG.sol\":12694:12933  if (tickRange <= 64) {... */\n      jump(tag_363)\n    tag_561:\n        /* \"contracts/uniswap/libraries/NFTSVG.sol\":12777:12780  128 */\n      0x80\n        /* \"contracts/uniswap/libraries/NFTSVG.sol\":12764:12773  tickRange */\n      dup2\n        /* \"contracts/uniswap/libraries/NFTSVG.sol\":12764:12780  tickRange <= 128 */\n      0x02\n      signextend\n      sgt\n        /* \"contracts/uniswap/libraries/NFTSVG.sol\":12760:12933  if (tickRange <= 128) {... */\n      tag_563\n      jumpi\n        /* \"contracts/uniswap/libraries/NFTSVG.sol\":12804:12810  curve6 */\n      mload(0x40)\n      dup1\n      0x40\n      add\n      0x40\n      mstore\n      dup1\n      0x18\n      dup2\n      mstore\n      0x20\n      add\n      0x4d31203143392038312036352031333720313435203134350000000000000000\n      dup2\n      mstore\n      pop\n        /* \"contracts/uniswap/libraries/NFTSVG.sol\":12796:12810  curve = curve6 */\n      swap2\n      pop\n        /* \"contracts/uniswap/libraries/NFTSVG.sol\":12760:12933  if (tickRange <= 128) {... */\n      jump(tag_363)\n    tag_563:\n        /* \"contracts/uniswap/libraries/NFTSVG.sol\":12844:12847  256 */\n      0x0100\n        /* \"contracts/uniswap/libraries/NFTSVG.sol\":12831:12840  tickRange */\n      dup2\n        /* \"contracts/uniswap/libraries/NFTSVG.sol\":12831:12847  tickRange <= 256 */\n      0x02\n      signextend\n      sgt\n        /* \"contracts/uniswap/libraries/NFTSVG.sol\":12827:12933  if (tickRange <= 256) {... */\n      tag_565\n      jumpi\n        /* \"contracts/uniswap/libraries/NFTSVG.sol\":12871:12877  curve7 */\n      mload(0x40)\n      dup1\n      0x40\n      add\n      0x40\n      mstore\n      dup1\n      0x1a\n      dup2\n      mstore\n      0x20\n      add\n      0x4d31203143312038392035372e35203134352031343520313435000000000000\n      dup2\n      mstore\n      pop\n        /* \"contracts/uniswap/libraries/NFTSVG.sol\":12863:12877  curve = curve7 */\n      swap2\n      pop\n        /* \"contracts/uniswap/libraries/NFTSVG.sol\":12827:12933  if (tickRange <= 256) {... */\n      jump(tag_363)\n    tag_565:\n      pop\n      pop\n        /* \"contracts/uniswap/libraries/NFTSVG.sol\":12916:12922  curve8 */\n      0x40\n      dup1\n      mload\n      dup1\n      dup3\n      add\n      swap1\n      swap2\n      mstore\n      0x18\n      dup2\n      mstore\n      0x4d31203143312039372034392031343520313435203134350000000000000000\n      0x20\n      dup3\n      add\n      mstore\n      swap4\n        /* \"contracts/uniswap/libraries/NFTSVG.sol\":12212:12939  function getCurve(... */\n      swap3\n      pop\n      pop\n      pop\n      jump\t// out\n        /* \"contracts/uniswap/libraries/NFTSVG.sol\":12945:14268  function generateSVGCurveCircle(int8 overRange) internal pure returns (string memory svg) {... */\n    tag_465:\n        /* \"contracts/uniswap/libraries/NFTSVG.sol\":13045:13073  string memory curvex1 = '73' */\n      0x40\n      dup1\n      mload\n      dup1\n      dup3\n      add\n      dup3\n      mstore\n      0x02\n      dup2\n      mstore\n      0x3733000000000000000000000000000000000000000000000000000000000000\n      0x20\n      dup1\n      dup4\n      add\n      swap2\n      swap1\n      swap2\n      mstore\n        /* \"contracts/uniswap/libraries/NFTSVG.sol\":13083:13112  string memory curvey1 = '190' */\n      dup3\n      mload\n      dup1\n      dup5\n      add\n      dup5\n      mstore\n      0x03\n      dup1\n      dup3\n      mstore\n      0x3139300000000000000000000000000000000000000000000000000000000000\n      dup3\n      dup5\n      add\n      mstore\n        /* \"contracts/uniswap/libraries/NFTSVG.sol\":13122:13151  string memory curvex2 = '217' */\n      dup5\n      mload\n      dup1\n      dup7\n      add\n      dup7\n      mstore\n      dup2\n      dup2\n      mstore\n      0x3231370000000000000000000000000000000000000000000000000000000000\n      dup2\n      dup6\n      add\n      mstore\n        /* \"contracts/uniswap/libraries/NFTSVG.sol\":13161:13190  string memory curvey2 = '334' */\n      dup6\n      mload\n      dup1\n      dup8\n      add\n      swap1\n      swap7\n      mstore\n      swap1\n      dup6\n      mstore\n      0x3333340000000000000000000000000000000000000000000000000000000000\n      swap3\n      dup6\n      add\n      swap3\n      swap1\n      swap3\n      mstore\n        /* \"contracts/uniswap/libraries/NFTSVG.sol\":13016:13033  string memory svg */\n      0x60\n      swap4\n        /* \"contracts/uniswap/libraries/NFTSVG.sol\":13083:13112  string memory curvey1 = '190' */\n      swap1\n      swap2\n        /* \"contracts/uniswap/libraries/NFTSVG.sol\":13122:13151  string memory curvex2 = '217' */\n      swap1\n        /* \"contracts/uniswap/libraries/NFTSVG.sol\":13217:13218  1 */\n      0x01\n        /* \"contracts/uniswap/libraries/NFTSVG.sol\":13045:13066  string memory curvex1 */\n      0x00\n        /* \"contracts/uniswap/libraries/NFTSVG.sol\":13204:13218  overRange == 1 */\n      dup8\n      swap1\n      signextend\n      eq\n      dup1\n        /* \"contracts/uniswap/libraries/NFTSVG.sol\":13204:13237  overRange == 1 || overRange == -1 */\n      tag_568\n      jumpi\n      pop\n        /* \"contracts/uniswap/libraries/NFTSVG.sol\":13222:13231  overRange */\n      dup6\n        /* \"contracts/uniswap/libraries/NFTSVG.sol\":13222:13237  overRange == -1 */\n      0x00\n      signextend\n      not(0x00)\n      eq\n        /* \"contracts/uniswap/libraries/NFTSVG.sol\":13204:13237  overRange == 1 || overRange == -1 */\n    tag_568:\n        /* \"contracts/uniswap/libraries/NFTSVG.sol\":13200:14262  if (overRange == 1 || overRange == -1) {... */\n      iszero\n      tag_569\n      jumpi\n        /* \"contracts/uniswap/libraries/NFTSVG.sol\":13357:13366  overRange */\n      dup6\n        /* \"contracts/uniswap/libraries/NFTSVG.sol\":13357:13372  overRange == -1 */\n      0x00\n      signextend\n      not(0x00)\n      eq\n        /* \"contracts/uniswap/libraries/NFTSVG.sol\":13357:13392  overRange == -1 ? curvex1 : curvex2 */\n      tag_570\n      jumpi\n        /* \"contracts/uniswap/libraries/NFTSVG.sol\":13385:13392  curvex2 */\n      dup2\n        /* \"contracts/uniswap/libraries/NFTSVG.sol\":13357:13392  overRange == -1 ? curvex1 : curvex2 */\n      jump(tag_571)\n    tag_570:\n        /* \"contracts/uniswap/libraries/NFTSVG.sol\":13375:13382  curvex1 */\n      dup4\n        /* \"contracts/uniswap/libraries/NFTSVG.sol\":13357:13392  overRange == -1 ? curvex1 : curvex2 */\n    tag_571:\n        /* \"contracts/uniswap/libraries/NFTSVG.sol\":13446:13455  overRange */\n      dup7\n        /* \"contracts/uniswap/libraries/NFTSVG.sol\":13446:13461  overRange == -1 */\n      0x00\n      signextend\n      not(0x00)\n      eq\n        /* \"contracts/uniswap/libraries/NFTSVG.sol\":13446:13481  overRange == -1 ? curvey1 : curvey2 */\n      tag_572\n      jumpi\n        /* \"contracts/uniswap/libraries/NFTSVG.sol\":13474:13481  curvey2 */\n      dup2\n        /* \"contracts/uniswap/libraries/NFTSVG.sol\":13446:13481  overRange == -1 ? curvey1 : curvey2 */\n      jump(tag_573)\n    tag_572:\n        /* \"contracts/uniswap/libraries/NFTSVG.sol\":13464:13471  curvey1 */\n      dup4\n        /* \"contracts/uniswap/libraries/NFTSVG.sol\":13446:13481  overRange == -1 ? curvey1 : curvey2 */\n    tag_573:\n        /* \"contracts/uniswap/libraries/NFTSVG.sol\":13566:13575  overRange */\n      dup8\n        /* \"contracts/uniswap/libraries/NFTSVG.sol\":13566:13581  overRange == -1 */\n      0x00\n      signextend\n      not(0x00)\n      eq\n        /* \"contracts/uniswap/libraries/NFTSVG.sol\":13566:13601  overRange == -1 ? curvex1 : curvex2 */\n      tag_574\n      jumpi\n        /* \"contracts/uniswap/libraries/NFTSVG.sol\":13594:13601  curvex2 */\n      dup4\n        /* \"contracts/uniswap/libraries/NFTSVG.sol\":13566:13601  overRange == -1 ? curvex1 : curvex2 */\n      jump(tag_575)\n    tag_574:\n        /* \"contracts/uniswap/libraries/NFTSVG.sol\":13584:13591  curvex1 */\n      dup6\n        /* \"contracts/uniswap/libraries/NFTSVG.sol\":13566:13601  overRange == -1 ? curvex1 : curvex2 */\n    tag_575:\n        /* \"contracts/uniswap/libraries/NFTSVG.sol\":13655:13664  overRange */\n      dup9\n        /* \"contracts/uniswap/libraries/NFTSVG.sol\":13655:13670  overRange == -1 */\n      0x00\n      signextend\n      not(0x00)\n      eq\n        /* \"contracts/uniswap/libraries/NFTSVG.sol\":13655:13690  overRange == -1 ? curvey1 : curvey2 */\n      tag_576\n      jumpi\n        /* \"contracts/uniswap/libraries/NFTSVG.sol\":13683:13690  curvey2 */\n      dup4\n        /* \"contracts/uniswap/libraries/NFTSVG.sol\":13655:13690  overRange == -1 ? curvey1 : curvey2 */\n      jump(tag_577)\n    tag_576:\n        /* \"contracts/uniswap/libraries/NFTSVG.sol\":13673:13680  curvey1 */\n      dup6\n        /* \"contracts/uniswap/libraries/NFTSVG.sol\":13655:13690  overRange == -1 ? curvey1 : curvey2 */\n    tag_577:\n        /* \"contracts/uniswap/libraries/NFTSVG.sol\":13283:13774  abi.encodePacked(... */\n      add(0x20, mload(0x40))\n      dup1\n      dup1\n      0x3c636972636c652063783d220000000000000000000000000000000000000000\n      dup2\n      mstore\n      pop\n      0x0c\n      add\n      dup6\n      dup1\n      mload\n      swap1\n      0x20\n      add\n      swap1\n      dup1\n      dup4\n      dup4\n    tag_578:\n      0x20\n      dup4\n      lt\n      tag_580\n      jumpi\n      dup1\n      mload\n      dup3\n      mstore\n      not(0x1f)\n      swap1\n      swap3\n      add\n      swap2\n      0x20\n      swap2\n      dup3\n      add\n      swap2\n      add\n      jump(tag_578)\n    tag_580:\n      mload\n      dup2\n      mload\n      0x20\n      swap4\n      dup5\n      sub\n      0x0100\n      exp\n      not(0x00)\n      add\n      dup1\n      not\n      swap1\n      swap3\n      and\n      swap2\n      and\n      or\n      swap1\n      mstore\n      0x7078222063793d22000000000000000000000000000000000000000000000000\n      swap2\n      swap1\n      swap4\n      add\n      swap1\n      dup2\n      mstore\n      dup7\n      mload\n      0x08\n      swap1\n      swap2\n      add\n      swap3\n      dup8\n      add\n      swap2\n      pop\n      dup1\n      dup4\n      dup4\n    tag_581:\n      0x20\n      dup4\n      lt\n      tag_583\n      jumpi\n      dup1\n      mload\n      dup3\n      mstore\n      not(0x1f)\n      swap1\n      swap3\n      add\n      swap2\n      0x20\n      swap2\n      dup3\n      add\n      swap2\n      add\n      jump(tag_581)\n    tag_583:\n      0x01\n      dup4\n      0x20\n      sub\n      0x0100\n      exp\n      sub\n      dup1\n      not\n      dup3\n      mload\n      and\n      dup2\n      dup5\n      mload\n      and\n      dup1\n      dup3\n      or\n      dup6\n      mstore\n      pop\n      pop\n      pop\n      pop\n      pop\n      pop\n      swap1\n      pop\n      add\n      dup1\n      data_805d2dfd72788fbd262dae04ab03ec6490a808b57ad0f61b37e39bca57c9434b\n      0x27\n      swap2\n      codecopy\n      0x27\n      add\n      dup4\n      dup1\n      mload\n      swap1\n      0x20\n      add\n      swap1\n      dup1\n      dup4\n      dup4\n    tag_584:\n      0x20\n      dup4\n      lt\n      tag_586\n      jumpi\n      dup1\n      mload\n      dup3\n      mstore\n      not(0x1f)\n      swap1\n      swap3\n      add\n      swap2\n      0x20\n      swap2\n      dup3\n      add\n      swap2\n      add\n      jump(tag_584)\n    tag_586:\n      mload\n      dup2\n      mload\n      0x20\n      swap4\n      dup5\n      sub\n      0x0100\n      exp\n      not(0x00)\n      add\n      dup1\n      not\n      swap1\n      swap3\n      and\n      swap2\n      and\n      or\n      swap1\n      mstore\n      0x7078222063793d22000000000000000000000000000000000000000000000000\n      swap2\n      swap1\n      swap4\n      add\n      swap1\n      dup2\n      mstore\n      dup5\n      mload\n      0x08\n      swap1\n      swap2\n      add\n      swap3\n      dup6\n      add\n      swap2\n      pop\n      dup1\n      dup4\n      dup4\n    tag_587:\n      0x20\n      dup4\n      lt\n      tag_589\n      jumpi\n      dup1\n      mload\n      dup3\n      mstore\n      not(0x1f)\n      swap1\n      swap3\n      add\n      swap2\n      0x20\n      swap2\n      dup3\n      add\n      swap2\n      add\n      jump(tag_587)\n    tag_589:\n      0x01\n      dup4\n      0x20\n      sub\n      0x0100\n      exp\n      sub\n      dup1\n      not\n      dup3\n      mload\n      and\n      dup2\n      dup5\n      mload\n      and\n      dup1\n      dup3\n      or\n      dup6\n      mstore\n      pop\n      pop\n      pop\n      pop\n      pop\n      pop\n      swap1\n      pop\n      add\n      dup1\n      data_8f39c2ef49d5b31ddb2a6f4b9d03a6a799196af85cc95b7c0148ca8f2d6c3143\n      0x2a\n      swap2\n      codecopy\n      0x2a\n      add\n      swap5\n      pop\n      pop\n      pop\n      pop\n      pop\n      mload(0x40)\n      0x20\n      dup2\n      dup4\n      sub\n      sub\n      dup2\n      mstore\n      swap1\n      0x40\n      mstore\n        /* \"contracts/uniswap/libraries/NFTSVG.sol\":13253:13788  svg = string(... */\n      swap5\n      pop\n        /* \"contracts/uniswap/libraries/NFTSVG.sol\":13200:14262  if (overRange == 1 || overRange == -1) {... */\n      jump(tag_590)\n    tag_569:\n        /* \"contracts/uniswap/libraries/NFTSVG.sol\":13923:13930  curvex1 */\n      dup4\n        /* \"contracts/uniswap/libraries/NFTSVG.sol\":13984:13991  curvey1 */\n      dup4\n        /* \"contracts/uniswap/libraries/NFTSVG.sol\":14100:14107  curvex2 */\n      dup4\n        /* \"contracts/uniswap/libraries/NFTSVG.sol\":14161:14168  curvey2 */\n      dup4\n        /* \"contracts/uniswap/libraries/NFTSVG.sol\":13849:14237  abi.encodePacked(... */\n      add(0x20, mload(0x40))\n      dup1\n      dup1\n      0x3c636972636c652063783d220000000000000000000000000000000000000000\n      dup2\n      mstore\n      pop\n      0x0c\n      add\n      dup6\n      dup1\n      mload\n      swap1\n      0x20\n      add\n      swap1\n      dup1\n      dup4\n      dup4\n    tag_591:\n      0x20\n      dup4\n      lt\n      tag_593\n      jumpi\n      dup1\n      mload\n      dup3\n      mstore\n      not(0x1f)\n      swap1\n      swap3\n      add\n      swap2\n      0x20\n      swap2\n      dup3\n      add\n      swap2\n      add\n      jump(tag_591)\n    tag_593:\n      mload\n      dup2\n      mload\n      0x20\n      swap4\n      dup5\n      sub\n      0x0100\n      exp\n      not(0x00)\n      add\n      dup1\n      not\n      swap1\n      swap3\n      and\n      swap2\n      and\n      or\n      swap1\n      mstore\n      0x7078222063793d22000000000000000000000000000000000000000000000000\n      swap2\n      swap1\n      swap4\n      add\n      swap1\n      dup2\n      mstore\n      dup7\n      mload\n      0x08\n      swap1\n      swap2\n      add\n      swap3\n      dup8\n      add\n      swap2\n      pop\n      dup1\n      dup4\n      dup4\n    tag_594:\n      0x20\n      dup4\n      lt\n      tag_596\n      jumpi\n      dup1\n      mload\n      dup3\n      mstore\n      not(0x1f)\n      swap1\n      swap3\n      add\n      swap2\n      0x20\n      swap2\n      dup3\n      add\n      swap2\n      add\n      jump(tag_594)\n    tag_596:\n      mload\n      dup2\n      mload\n      0x20\n      swap4\n      dup5\n      sub\n      0x0100\n      exp\n      not(0x00)\n      add\n      dup1\n      not\n      swap1\n      swap3\n      and\n      swap2\n      and\n      or\n      swap1\n      mstore\n      0x70782220723d22347078222066696c6c3d22776869746522202f3e0000000000\n      swap2\n      swap1\n      swap4\n      add\n      swap1\n      dup2\n      mstore\n      0x3c636972636c652063783d220000000000000000000000000000000000000000\n      0x1b\n      dup3\n      add\n      mstore\n      dup6\n      mload\n      0x27\n      swap1\n      swap2\n      add\n      swap3\n      dup7\n      add\n      swap2\n      pop\n      dup1\n      dup4\n      dup4\n    tag_597:\n      0x20\n      dup4\n      lt\n      tag_599\n      jumpi\n      dup1\n      mload\n      dup3\n      mstore\n      not(0x1f)\n      swap1\n      swap3\n      add\n      swap2\n      0x20\n      swap2\n      dup3\n      add\n      swap2\n      add\n      jump(tag_597)\n    tag_599:\n      mload\n      dup2\n      mload\n      0x20\n      swap4\n      dup5\n      sub\n      0x0100\n      exp\n      not(0x00)\n      add\n      dup1\n      not\n      swap1\n      swap3\n      and\n      swap2\n      and\n      or\n      swap1\n      mstore\n      0x7078222063793d22000000000000000000000000000000000000000000000000\n      swap2\n      swap1\n      swap4\n      add\n      swap1\n      dup2\n      mstore\n      dup5\n      mload\n      0x08\n      swap1\n      swap2\n      add\n      swap3\n      dup6\n      add\n      swap2\n      pop\n      dup1\n      dup4\n      dup4\n    tag_600:\n      0x20\n      dup4\n      lt\n      tag_602\n      jumpi\n      dup1\n      mload\n      dup3\n      mstore\n      not(0x1f)\n      swap1\n      swap3\n      add\n      swap2\n      0x20\n      swap2\n      dup3\n      add\n      swap2\n      add\n      jump(tag_600)\n    tag_602:\n      0x01\n      dup4\n      0x20\n      sub\n      0x0100\n      exp\n      sub\n      dup1\n      not\n      dup3\n      mload\n      and\n      dup2\n      dup5\n      mload\n      and\n      dup1\n      dup3\n      or\n      dup6\n      mstore\n      pop\n      pop\n      pop\n      pop\n      pop\n      pop\n      swap1\n      pop\n      add\n      dup1\n      0x70782220723d22347078222066696c6c3d22776869746522202f3e0000000000\n      dup2\n      mstore\n      pop\n      0x1b\n      add\n      swap5\n      pop\n      pop\n      pop\n      pop\n      pop\n      mload(0x40)\n      0x20\n      dup2\n      dup4\n      sub\n      sub\n      dup2\n      mstore\n      swap1\n      0x40\n      mstore\n        /* \"contracts/uniswap/libraries/NFTSVG.sol\":13819:14251  svg = string(... */\n      swap5\n      pop\n        /* \"contracts/uniswap/libraries/NFTSVG.sol\":13200:14262  if (overRange == 1 || overRange == -1) {... */\n    tag_590:\n        /* \"contracts/uniswap/libraries/NFTSVG.sol\":12945:14268  function generateSVGCurveCircle(int8 overRange) internal pure returns (string memory svg) {... */\n      pop\n      pop\n      pop\n      pop\n      swap2\n      swap1\n      pop\n      jump\t// out\n        /* \"contracts/uniswap/libraries/NFTSVG.sol\":16829:17101  function tickToString(int24 tick) private pure returns (string memory) {... */\n    tag_483:\n        /* \"contracts/uniswap/libraries/NFTSVG.sol\":16885:16898  string memory */\n      0x60\n        /* \"contracts/uniswap/libraries/NFTSVG.sol\":16910:16928  string memory sign */\n      0x00\n        /* \"contracts/uniswap/libraries/NFTSVG.sol\":16910:16933  string memory sign = '' */\n      mload(0x40)\n      dup1\n      0x20\n      add\n      0x40\n      mstore\n      dup1\n      0x00\n      dup2\n      mstore\n      pop\n      swap1\n      pop\n        /* \"contracts/uniswap/libraries/NFTSVG.sol\":16954:16955  0 */\n      0x00\n        /* \"contracts/uniswap/libraries/NFTSVG.sol\":16947:16951  tick */\n      dup4\n        /* \"contracts/uniswap/libraries/NFTSVG.sol\":16947:16955  tick < 0 */\n      0x02\n      signextend\n      slt\n        /* \"contracts/uniswap/libraries/NFTSVG.sol\":16943:17022  if (tick < 0) {... */\n      iszero\n      tag_604\n      jumpi\n        /* \"contracts/uniswap/libraries/NFTSVG.sol\":16978:16982  tick */\n      dup3\n      not(0x00)\n        /* \"contracts/uniswap/libraries/NFTSVG.sol\":16978:16987  tick * -1 */\n      mul\n        /* \"contracts/uniswap/libraries/NFTSVG.sol\":16971:16987  tick = tick * -1 */\n      swap3\n      pop\n        /* \"contracts/uniswap/libraries/NFTSVG.sol\":17001:17011  sign = '-' */\n      mload(0x40)\n      dup1\n      0x40\n      add\n      0x40\n      mstore\n      dup1\n      0x01\n      dup2\n      mstore\n      0x20\n      add\n      0x2d00000000000000000000000000000000000000000000000000000000000000\n      dup2\n      mstore\n      pop\n      swap1\n      pop\n        /* \"contracts/uniswap/libraries/NFTSVG.sol\":16943:17022  if (tick < 0) {... */\n    tag_604:\n        /* \"contracts/uniswap/libraries/NFTSVG.sol\":17062:17066  sign */\n      dup1\n        /* \"contracts/uniswap/libraries/NFTSVG.sol\":17068:17092  uint256(tick).toString() */\n      tag_605\n        /* \"contracts/uniswap/libraries/NFTSVG.sol\":17076:17080  tick */\n      dup5\n        /* \"contracts/uniswap/libraries/NFTSVG.sol\":17068:17081  uint256(tick) */\n      0x02\n      signextend\n        /* \"contracts/uniswap/libraries/NFTSVG.sol\":17068:17090  uint256(tick).toString */\n      tag_23\n        /* \"contracts/uniswap/libraries/NFTSVG.sol\":17068:17092  uint256(tick).toString() */\n      jump\t// in\n    tag_605:\n        /* \"contracts/uniswap/libraries/NFTSVG.sol\":17045:17093  abi.encodePacked(sign, uint256(tick).toString()) */\n      add(0x20, mload(0x40))\n      dup1\n      dup4\n      dup1\n      mload\n      swap1\n      0x20\n      add\n      swap1\n      dup1\n      dup4\n      dup4\n    tag_606:\n      0x20\n      dup4\n      lt\n      tag_608\n      jumpi\n      dup1\n      mload\n      dup3\n      mstore\n      not(0x1f)\n      swap1\n      swap3\n      add\n      swap2\n      0x20\n      swap2\n      dup3\n      add\n      swap2\n      add\n      jump(tag_606)\n    tag_608:\n      mload\n      dup2\n      mload\n      0x20\n      swap4\n      dup5\n      sub\n      0x0100\n      exp\n      not(0x00)\n      add\n      dup1\n      not\n      swap1\n      swap3\n      and\n      swap2\n      and\n      or\n      swap1\n      mstore\n      dup6\n      mload\n      swap2\n      swap1\n      swap4\n      add\n      swap3\n      dup6\n      add\n      swap2\n      pop\n      dup1\n      dup4\n      dup4\n    tag_609:\n      0x20\n      dup4\n      lt\n      tag_611\n      jumpi\n      dup1\n      mload\n      dup3\n      mstore\n      not(0x1f)\n      swap1\n      swap3\n      add\n      swap2\n      0x20\n      swap2\n      dup3\n      add\n      swap2\n      add\n      jump(tag_609)\n    tag_611:\n      0x01\n      dup4\n      0x20\n      sub\n      0x0100\n      exp\n      sub\n      dup1\n      not\n      dup3\n      mload\n      and\n      dup2\n      dup5\n      mload\n      and\n      dup1\n      dup3\n      or\n      dup6\n      mstore\n      pop\n      pop\n      pop\n      pop\n      pop\n      pop\n      swap1\n      pop\n      add\n      swap3\n      pop\n      pop\n      pop\n      mload(0x40)\n      0x20\n      dup2\n      dup4\n      sub\n      sub\n      dup2\n      mstore\n      swap1\n      0x40\n      mstore\n        /* \"contracts/uniswap/libraries/NFTSVG.sol\":17031:17094  return string(abi.encodePacked(sign, uint256(tick).toString())) */\n      swap2\n      pop\n      pop\n        /* \"contracts/uniswap/libraries/NFTSVG.sol\":16829:17101  function tickToString(int24 tick) private pure returns (string memory) {... */\n      swap2\n      swap1\n      pop\n      jump\t// out\n        /* \"contracts/uniswap/libraries/NFTSVG.sol\":17107:17988  function rangeLocation(int24 tickLower, int24 tickUpper) internal pure returns (string memory, string memory) {... */\n    tag_486:\n        /* \"contracts/uniswap/libraries/NFTSVG.sol\":17187:17200  string memory */\n      0x60\n      dup1\n        /* \"contracts/uniswap/libraries/NFTSVG.sol\":17227:17241  int24 midPoint */\n      0x00\n        /* \"contracts/uniswap/libraries/NFTSVG.sol\":17270:17271  2 */\n      0x02\n        /* \"contracts/uniswap/libraries/NFTSVG.sol\":17245:17266  tickLower + tickUpper */\n      dup6\n      dup6\n      add\n        /* \"contracts/uniswap/libraries/NFTSVG.sol\":17244:17271  (tickLower + tickUpper) / 2 */\n      dup2\n      signextend\n      sdiv\n        /* \"contracts/uniswap/libraries/NFTSVG.sol\":17227:17271  int24 midPoint = (tickLower + tickUpper) / 2 */\n      swap1\n      pop\n        /* \"contracts/uniswap/libraries/NFTSVG.sol\":17296:17304  -125_000 */\n      0xfffffffffffffffffffffffffffffffffffffffffffffffffffffffffffe17b8\n        /* \"contracts/uniswap/libraries/NFTSVG.sol\":17285:17293  midPoint */\n      dup2\n        /* \"contracts/uniswap/libraries/NFTSVG.sol\":17285:17304  midPoint < -125_000 */\n      0x02\n      signextend\n      slt\n        /* \"contracts/uniswap/libraries/NFTSVG.sol\":17281:17982  if (midPoint < -125_000) {... */\n      iszero\n      tag_614\n      jumpi\n        /* \"contracts/uniswap/libraries/NFTSVG.sol\":17320:17337  return ('8', '7') */\n      mload(0x40)\n      dup1\n      0x40\n      add\n      0x40\n      mstore\n      dup1\n      0x01\n      dup2\n      mstore\n      0x20\n      add\n      0x3800000000000000000000000000000000000000000000000000000000000000\n      dup2\n      mstore\n      pop\n      mload(0x40)\n      dup1\n      0x40\n      add\n      0x40\n      mstore\n      dup1\n      0x01\n      dup2\n      mstore\n      0x20\n      add\n      0x3700000000000000000000000000000000000000000000000000000000000000\n      dup2\n      mstore\n      pop\n      swap3\n      pop\n      swap3\n      pop\n      pop\n      jump(tag_543)\n        /* \"contracts/uniswap/libraries/NFTSVG.sol\":17281:17982  if (midPoint < -125_000) {... */\n    tag_614:\n        /* \"contracts/uniswap/libraries/NFTSVG.sol\":17369:17376  -75_000 */\n      0xfffffffffffffffffffffffffffffffffffffffffffffffffffffffffffedb08\n        /* \"contracts/uniswap/libraries/NFTSVG.sol\":17358:17366  midPoint */\n      dup2\n        /* \"contracts/uniswap/libraries/NFTSVG.sol\":17358:17376  midPoint < -75_000 */\n      0x02\n      signextend\n      slt\n        /* \"contracts/uniswap/libraries/NFTSVG.sol\":17354:17982  if (midPoint < -75_000) {... */\n      iszero\n      tag_616\n      jumpi\n        /* \"contracts/uniswap/libraries/NFTSVG.sol\":17392:17412  return ('8', '10.5') */\n      mload(0x40)\n      dup1\n      0x40\n      add\n      0x40\n      mstore\n      dup1\n      0x01\n      dup2\n      mstore\n      0x20\n      add\n      0x3800000000000000000000000000000000000000000000000000000000000000\n      dup2\n      mstore\n      pop\n      mload(0x40)\n      dup1\n      0x40\n      add\n      0x40\n      mstore\n      dup1\n      0x04\n      dup2\n      mstore\n      0x20\n      add\n      0x31302e3500000000000000000000000000000000000000000000000000000000\n      dup2\n      mstore\n      pop\n      swap3\n      pop\n      swap3\n      pop\n      pop\n      jump(tag_543)\n        /* \"contracts/uniswap/libraries/NFTSVG.sol\":17354:17982  if (midPoint < -75_000) {... */\n    tag_616:\n        /* \"contracts/uniswap/libraries/NFTSVG.sol\":17444:17451  -25_000 */\n      0xffffffffffffffffffffffffffffffffffffffffffffffffffffffffffff9e58\n        /* \"contracts/uniswap/libraries/NFTSVG.sol\":17433:17441  midPoint */\n      dup2\n        /* \"contracts/uniswap/libraries/NFTSVG.sol\":17433:17451  midPoint < -25_000 */\n      0x02\n      signextend\n      slt\n        /* \"contracts/uniswap/libraries/NFTSVG.sol\":17429:17982  if (midPoint < -25_000) {... */\n      iszero\n      tag_618\n      jumpi\n        /* \"contracts/uniswap/libraries/NFTSVG.sol\":17467:17488  return ('8', '14.25') */\n      mload(0x40)\n      dup1\n      0x40\n      add\n      0x40\n      mstore\n      dup1\n      0x01\n      dup2\n      mstore\n      0x20\n      add\n      0x3800000000000000000000000000000000000000000000000000000000000000\n      dup2\n      mstore\n      pop\n      mload(0x40)\n      dup1\n      0x40\n      add\n      0x40\n      mstore\n      dup1\n      0x05\n      dup2\n      mstore\n      0x20\n      add\n      0x31342e3235000000000000000000000000000000000000000000000000000000\n      dup2\n      mstore\n      pop\n      swap3\n      pop\n      swap3\n      pop\n      pop\n      jump(tag_543)\n        /* \"contracts/uniswap/libraries/NFTSVG.sol\":17429:17982  if (midPoint < -25_000) {... */\n    tag_618:\n        /* \"contracts/uniswap/libraries/NFTSVG.sol\":17520:17526  -5_000 */\n      0xffffffffffffffffffffffffffffffffffffffffffffffffffffffffffffec78\n        /* \"contracts/uniswap/libraries/NFTSVG.sol\":17509:17517  midPoint */\n      dup2\n        /* \"contracts/uniswap/libraries/NFTSVG.sol\":17509:17526  midPoint < -5_000 */\n      0x02\n      signextend\n      slt\n        /* \"contracts/uniswap/libraries/NFTSVG.sol\":17505:17982  if (midPoint < -5_000) {... */\n      iszero\n      tag_620\n      jumpi\n        /* \"contracts/uniswap/libraries/NFTSVG.sol\":17542:17561  return ('10', '18') */\n      mload(0x40)\n      dup1\n      0x40\n      add\n      0x40\n      mstore\n      dup1\n      0x02\n      dup2\n      mstore\n      0x20\n      add\n      0x3130000000000000000000000000000000000000000000000000000000000000\n      dup2\n      mstore\n      pop\n      mload(0x40)\n      dup1\n      0x40\n      add\n      0x40\n      mstore\n      dup1\n      0x02\n      dup2\n      mstore\n      0x20\n      add\n      0x3138000000000000000000000000000000000000000000000000000000000000\n      dup2\n      mstore\n      pop\n      swap3\n      pop\n      swap3\n      pop\n      pop\n      jump(tag_543)\n        /* \"contracts/uniswap/libraries/NFTSVG.sol\":17505:17982  if (midPoint < -5_000) {... */\n    tag_620:\n        /* \"contracts/uniswap/libraries/NFTSVG.sol\":17593:17594  0 */\n      0x00\n        /* \"contracts/uniswap/libraries/NFTSVG.sol\":17582:17590  midPoint */\n      dup2\n        /* \"contracts/uniswap/libraries/NFTSVG.sol\":17582:17594  midPoint < 0 */\n      0x02\n      signextend\n      slt\n        /* \"contracts/uniswap/libraries/NFTSVG.sol\":17578:17982  if (midPoint < 0) {... */\n      iszero\n      tag_622\n      jumpi\n        /* \"contracts/uniswap/libraries/NFTSVG.sol\":17610:17629  return ('11', '21') */\n      mload(0x40)\n      dup1\n      0x40\n      add\n      0x40\n      mstore\n      dup1\n      0x02\n      dup2\n      mstore\n      0x20\n      add\n      0x3131000000000000000000000000000000000000000000000000000000000000\n      dup2\n      mstore\n      pop\n      mload(0x40)\n      dup1\n      0x40\n      add\n      0x40\n      mstore\n      dup1\n      0x02\n      dup2\n      mstore\n      0x20\n      add\n      0x3231000000000000000000000000000000000000000000000000000000000000\n      dup2\n      mstore\n      pop\n      swap3\n      pop\n      swap3\n      pop\n      pop\n      jump(tag_543)\n        /* \"contracts/uniswap/libraries/NFTSVG.sol\":17578:17982  if (midPoint < 0) {... */\n    tag_622:\n        /* \"contracts/uniswap/libraries/NFTSVG.sol\":17661:17666  5_000 */\n      0x1388\n        /* \"contracts/uniswap/libraries/NFTSVG.sol\":17650:17658  midPoint */\n      dup2\n        /* \"contracts/uniswap/libraries/NFTSVG.sol\":17650:17666  midPoint < 5_000 */\n      0x02\n      signextend\n      slt\n        /* \"contracts/uniswap/libraries/NFTSVG.sol\":17646:17982  if (midPoint < 5_000) {... */\n      iszero\n      tag_624\n      jumpi\n        /* \"contracts/uniswap/libraries/NFTSVG.sol\":17682:17701  return ('13', '23') */\n      mload(0x40)\n      dup1\n      0x40\n      add\n      0x40\n      mstore\n      dup1\n      0x02\n      dup2\n      mstore\n      0x20\n      add\n      0x3133000000000000000000000000000000000000000000000000000000000000\n      dup2\n      mstore\n      pop\n      mload(0x40)\n      dup1\n      0x40\n      add\n      0x40\n      mstore\n      dup1\n      0x02\n      dup2\n      mstore\n      0x20\n      add\n      0x3233000000000000000000000000000000000000000000000000000000000000\n      dup2\n      mstore\n      pop\n      swap3\n      pop\n      swap3\n      pop\n      pop\n      jump(tag_543)\n        /* \"contracts/uniswap/libraries/NFTSVG.sol\":17646:17982  if (midPoint < 5_000) {... */\n    tag_624:\n        /* \"contracts/uniswap/libraries/NFTSVG.sol\":17733:17739  25_000 */\n      0x61a8\n        /* \"contracts/uniswap/libraries/NFTSVG.sol\":17722:17730  midPoint */\n      dup2\n        /* \"contracts/uniswap/libraries/NFTSVG.sol\":17722:17739  midPoint < 25_000 */\n      0x02\n      signextend\n      slt\n        /* \"contracts/uniswap/libraries/NFTSVG.sol\":17718:17982  if (midPoint < 25_000) {... */\n      iszero\n      tag_626\n      jumpi\n        /* \"contracts/uniswap/libraries/NFTSVG.sol\":17755:17774  return ('15', '25') */\n      mload(0x40)\n      dup1\n      0x40\n      add\n      0x40\n      mstore\n      dup1\n      0x02\n      dup2\n      mstore\n      0x20\n      add\n      0x3135000000000000000000000000000000000000000000000000000000000000\n      dup2\n      mstore\n      pop\n      mload(0x40)\n      dup1\n      0x40\n      add\n      0x40\n      mstore\n      dup1\n      0x02\n      dup2\n      mstore\n      0x20\n      add\n      0x3235000000000000000000000000000000000000000000000000000000000000\n      dup2\n      mstore\n      pop\n      swap3\n      pop\n      swap3\n      pop\n      pop\n      jump(tag_543)\n        /* \"contracts/uniswap/libraries/NFTSVG.sol\":17718:17982  if (midPoint < 25_000) {... */\n    tag_626:\n        /* \"contracts/uniswap/libraries/NFTSVG.sol\":17806:17812  75_000 */\n      0x0124f8\n        /* \"contracts/uniswap/libraries/NFTSVG.sol\":17795:17803  midPoint */\n      dup2\n        /* \"contracts/uniswap/libraries/NFTSVG.sol\":17795:17812  midPoint < 75_000 */\n      0x02\n      signextend\n      slt\n        /* \"contracts/uniswap/libraries/NFTSVG.sol\":17791:17982  if (midPoint < 75_000) {... */\n      iszero\n      tag_628\n      jumpi\n        /* \"contracts/uniswap/libraries/NFTSVG.sol\":17828:17847  return ('18', '26') */\n      mload(0x40)\n      dup1\n      0x40\n      add\n      0x40\n      mstore\n      dup1\n      0x02\n      dup2\n      mstore\n      0x20\n      add\n      0x3138000000000000000000000000000000000000000000000000000000000000\n      dup2\n      mstore\n      pop\n      mload(0x40)\n      dup1\n      0x40\n      add\n      0x40\n      mstore\n      dup1\n      0x02\n      dup2\n      mstore\n      0x20\n      add\n      0x3236000000000000000000000000000000000000000000000000000000000000\n      dup2\n      mstore\n      pop\n      swap3\n      pop\n      swap3\n      pop\n      pop\n      jump(tag_543)\n        /* \"contracts/uniswap/libraries/NFTSVG.sol\":17791:17982  if (midPoint < 75_000) {... */\n    tag_628:\n        /* \"contracts/uniswap/libraries/NFTSVG.sol\":17879:17886  125_000 */\n      0x01e848\n        /* \"contracts/uniswap/libraries/NFTSVG.sol\":17868:17876  midPoint */\n      dup2\n        /* \"contracts/uniswap/libraries/NFTSVG.sol\":17868:17886  midPoint < 125_000 */\n      0x02\n      signextend\n      slt\n        /* \"contracts/uniswap/libraries/NFTSVG.sol\":17864:17982  if (midPoint < 125_000) {... */\n      iszero\n      tag_630\n      jumpi\n        /* \"contracts/uniswap/libraries/NFTSVG.sol\":17902:17921  return ('21', '27') */\n      mload(0x40)\n      dup1\n      0x40\n      add\n      0x40\n      mstore\n      dup1\n      0x02\n      dup2\n      mstore\n      0x20\n      add\n      0x3231000000000000000000000000000000000000000000000000000000000000\n      dup2\n      mstore\n      pop\n      mload(0x40)\n      dup1\n      0x40\n      add\n      0x40\n      mstore\n      dup1\n      0x02\n      dup2\n      mstore\n      0x20\n      add\n      0x3237000000000000000000000000000000000000000000000000000000000000\n      dup2\n      mstore\n      pop\n      swap3\n      pop\n      swap3\n      pop\n      pop\n      jump(tag_543)\n        /* \"contracts/uniswap/libraries/NFTSVG.sol\":17864:17982  if (midPoint < 125_000) {... */\n    tag_630:\n        /* \"contracts/uniswap/libraries/NFTSVG.sol\":17952:17971  return ('24', '27') */\n      mload(0x40)\n      dup1\n      0x40\n      add\n      0x40\n      mstore\n      dup1\n      0x02\n      dup2\n      mstore\n      0x20\n      add\n      0x3234000000000000000000000000000000000000000000000000000000000000\n      dup2\n      mstore\n      pop\n      mload(0x40)\n      dup1\n      0x40\n      add\n      0x40\n      mstore\n      dup1\n      0x02\n      dup2\n      mstore\n      0x20\n      add\n      0x3237000000000000000000000000000000000000000000000000000000000000\n      dup2\n      mstore\n      pop\n      swap3\n      pop\n      swap3\n      pop\n      pop\n      jump(tag_543)\n        /* \"contracts/uniswap/libraries/NFTSVG.sol\":19062:19318  function isRare(uint256 tokenId, address poolAddress) internal pure returns (bool) {... */\n    tag_516:\n        /* \"contracts/uniswap/libraries/NFTSVG.sol\":19177:19215  abi.encodePacked(tokenId, poolAddress) */\n      0x40\n      dup1\n      mload\n      0x20\n      dup1\n      dup3\n      add\n      dup6\n      swap1\n      mstore\n      0xffffffffffffffffffffffffffffffffffffffff000000000000000000000000\n      0x60\n      dup6\n      swap1\n      shl\n      and\n      dup3\n      dup5\n      add\n      mstore\n      dup3\n      mload\n      0x34\n      dup2\n      dup5\n      sub\n      add\n      dup2\n      mstore\n      0x54\n      swap1\n      swap3\n      add\n      swap1\n      swap3\n      mstore\n        /* \"contracts/uniswap/libraries/NFTSVG.sol\":19167:19216  keccak256(abi.encodePacked(tokenId, poolAddress)) */\n      dup1\n      mload\n      swap2\n      add\n      keccak256\n        /* \"contracts/uniswap/libraries/NFTSVG.sol\":19139:19143  bool */\n      0x00\n      swap1\n        /* \"contracts/uniswap/libraries/NFTSVG.sol\":19271:19306  BitMath.mostSignificantBit(tokenId) */\n      tag_633\n        /* \"contracts/uniswap/libraries/NFTSVG.sol\":19194:19201  tokenId */\n      dup5\n        /* \"contracts/uniswap/libraries/NFTSVG.sol\":19271:19297  BitMath.mostSignificantBit */\n      tag_634\n        /* \"contracts/uniswap/libraries/NFTSVG.sol\":19271:19306  BitMath.mostSignificantBit(tokenId) */\n      jump\t// in\n    tag_633:\n        /* \"contracts/uniswap/libraries/NFTSVG.sol\":19309:19310  2 */\n      0x02\n        /* \"contracts/uniswap/libraries/NFTSVG.sol\":19271:19310  BitMath.mostSignificantBit(tokenId) * 2 */\n      mul\n        /* \"contracts/uniswap/libraries/NFTSVG.sol\":19267:19268  1 */\n      0x01\n        /* \"contracts/uniswap/libraries/NFTSVG.sol\":19267:19310  1 + BitMath.mostSignificantBit(tokenId) * 2 */\n      add\n        /* \"contracts/uniswap/libraries/NFTSVG.sol\":19246:19311  type(uint256).max / (1 + BitMath.mostSignificantBit(tokenId) * 2) */\n      0xff\n      and\n      not(0x00)\n      dup2\n      tag_635\n      jumpi\n      invalid\n    tag_635:\n      div\n      gt\n      swap4\n        /* \"contracts/uniswap/libraries/NFTSVG.sol\":19062:19318  function isRare(uint256 tokenId, address poolAddress) internal pure returns (bool) {... */\n      swap3\n      pop\n      pop\n      pop\n      jump\t// out\n        /* \"@openzeppelin/contracts/math/SignedSafeMath.sol\":2000:2213  function sub(int256 a, int256 b) internal pure returns (int256) {... */\n    tag_522:\n        /* \"@openzeppelin/contracts/math/SignedSafeMath.sol\":2056:2062  int256 */\n      0x00\n        /* \"@openzeppelin/contracts/math/SignedSafeMath.sol\":2085:2090  a - b */\n      dup2\n      dup4\n      sub\n        /* \"@openzeppelin/contracts/math/SignedSafeMath.sol\":2109:2115  b >= 0 */\n      dup2\n      dup4\n      slt\n      dup1\n      iszero\n      swap1\n        /* \"@openzeppelin/contracts/math/SignedSafeMath.sol\":2109:2125  b >= 0 && c <= a */\n      tag_637\n      jumpi\n      pop\n        /* \"@openzeppelin/contracts/math/SignedSafeMath.sol\":2124:2125  a */\n      dup4\n        /* \"@openzeppelin/contracts/math/SignedSafeMath.sol\":2119:2120  c */\n      dup2\n        /* \"@openzeppelin/contracts/math/SignedSafeMath.sol\":2119:2125  c <= a */\n      sgt\n      iszero\n        /* \"@openzeppelin/contracts/math/SignedSafeMath.sol\":2109:2125  b >= 0 && c <= a */\n    tag_637:\n        /* \"@openzeppelin/contracts/math/SignedSafeMath.sol\":2108:2146  (b >= 0 && c <= a) || (b < 0 && c > a) */\n      dup1\n      tag_639\n      jumpi\n      pop\n        /* \"@openzeppelin/contracts/math/SignedSafeMath.sol\":2135:2136  0 */\n      0x00\n        /* \"@openzeppelin/contracts/math/SignedSafeMath.sol\":2131:2132  b */\n      dup4\n        /* \"@openzeppelin/contracts/math/SignedSafeMath.sol\":2131:2136  b < 0 */\n      slt\n        /* \"@openzeppelin/contracts/math/SignedSafeMath.sol\":2131:2145  b < 0 && c > a */\n      dup1\n      iszero\n      tag_639\n      jumpi\n      pop\n        /* \"@openzeppelin/contracts/math/SignedSafeMath.sol\":2144:2145  a */\n      dup4\n        /* \"@openzeppelin/contracts/math/SignedSafeMath.sol\":2140:2141  c */\n      dup2\n        /* \"@openzeppelin/contracts/math/SignedSafeMath.sol\":2140:2145  c > a */\n      sgt\n        /* \"@openzeppelin/contracts/math/SignedSafeMath.sol\":2131:2145  b < 0 && c > a */\n    tag_639:\n        /* \"@openzeppelin/contracts/math/SignedSafeMath.sol\":2100:2187  require((b >= 0 && c <= a) || (b < 0 && c > a), \"SignedSafeMath: subtraction overflow\") */\n      tag_116\n      jumpi\n      0x00\n      dup1\n      revert\n        /* \"contracts/uniswap/libraries/NFTDescriptor.sol\":10736:10838  function abs(int256 x) private pure returns (uint256) {... */\n    tag_523:\n        /* \"contracts/uniswap/libraries/NFTDescriptor.sol\":10781:10788  uint256 */\n      0x00\n        /* \"contracts/uniswap/libraries/NFTDescriptor.sol\":10820:10821  0 */\n      dup1\n        /* \"contracts/uniswap/libraries/NFTDescriptor.sol\":10815:10816  x */\n      dup3\n        /* \"contracts/uniswap/libraries/NFTDescriptor.sol\":10815:10821  x >= 0 */\n      slt\n      iszero\n        /* \"contracts/uniswap/libraries/NFTDescriptor.sol\":10815:10830  x >= 0 ? x : -x */\n      tag_642\n      jumpi\n        /* \"contracts/uniswap/libraries/NFTDescriptor.sol\":10829:10830  x */\n      dup2\n        /* \"contracts/uniswap/libraries/NFTDescriptor.sol\":10828:10830  -x */\n      0x00\n      sub\n        /* \"contracts/uniswap/libraries/NFTDescriptor.sol\":10815:10830  x >= 0 ? x : -x */\n      jump(tag_84)\n    tag_642:\n      pop\n        /* \"contracts/uniswap/libraries/NFTDescriptor.sol\":10824:10825  x */\n      swap1\n        /* \"contracts/uniswap/libraries/NFTDescriptor.sol\":10736:10838  function abs(int256 x) private pure returns (uint256) {... */\n      jump\t// out\n        /* \"@uniswap/v3-core/contracts/libraries/BitMath.sol\":671:1402  function mostSignificantBit(uint256 x) internal pure returns (uint8 r) {... */\n    tag_634:\n        /* \"@uniswap/v3-core/contracts/libraries/BitMath.sol\":733:740  uint8 r */\n      0x00\n        /* \"@uniswap/v3-core/contracts/libraries/BitMath.sol\":764:765  0 */\n      dup1\n        /* \"@uniswap/v3-core/contracts/libraries/BitMath.sol\":760:761  x */\n      dup3\n        /* \"@uniswap/v3-core/contracts/libraries/BitMath.sol\":760:765  x > 0 */\n      gt\n        /* \"@uniswap/v3-core/contracts/libraries/BitMath.sol\":752:766  require(x > 0) */\n      tag_645\n      jumpi\n      0x00\n      dup1\n      revert\n    tag_645:\n        /* \"@uniswap/v3-core/contracts/libraries/BitMath.sol\":786:821  0x100000000000000000000000000000000 */\n      0x0100000000000000000000000000000000\n        /* \"@uniswap/v3-core/contracts/libraries/BitMath.sol\":781:782  x */\n      dup3\n        /* \"@uniswap/v3-core/contracts/libraries/BitMath.sol\":781:821  x >= 0x100000000000000000000000000000000 */\n      lt\n        /* \"@uniswap/v3-core/contracts/libraries/BitMath.sol\":777:879  if (x >= 0x100000000000000000000000000000000) {... */\n      tag_646\n      jumpi\n        /* \"@uniswap/v3-core/contracts/libraries/BitMath.sol\":843:846  128 */\n      0x80\n        /* \"@uniswap/v3-core/contracts/libraries/BitMath.sol\":837:846  x >>= 128 */\n      swap2\n      dup3\n      shr\n      swap2\n        /* \"@uniswap/v3-core/contracts/libraries/BitMath.sol\":860:868  r += 128 */\n      add\n        /* \"@uniswap/v3-core/contracts/libraries/BitMath.sol\":777:879  if (x >= 0x100000000000000000000000000000000) {... */\n    tag_646:\n        /* \"@uniswap/v3-core/contracts/libraries/BitMath.sol\":897:916  0x10000000000000000 */\n      0x010000000000000000\n        /* \"@uniswap/v3-core/contracts/libraries/BitMath.sol\":892:893  x */\n      dup3\n        /* \"@uniswap/v3-core/contracts/libraries/BitMath.sol\":892:916  x >= 0x10000000000000000 */\n      lt\n        /* \"@uniswap/v3-core/contracts/libraries/BitMath.sol\":888:972  if (x >= 0x10000000000000000) {... */\n      tag_647\n      jumpi\n        /* \"@uniswap/v3-core/contracts/libraries/BitMath.sol\":938:940  64 */\n      0x40\n        /* \"@uniswap/v3-core/contracts/libraries/BitMath.sol\":932:940  x >>= 64 */\n      swap2\n      dup3\n      shr\n      swap2\n        /* \"@uniswap/v3-core/contracts/libraries/BitMath.sol\":954:961  r += 64 */\n      add\n        /* \"@uniswap/v3-core/contracts/libraries/BitMath.sol\":888:972  if (x >= 0x10000000000000000) {... */\n    tag_647:\n        /* \"@uniswap/v3-core/contracts/libraries/BitMath.sol\":990:1001  0x100000000 */\n      0x0100000000\n        /* \"@uniswap/v3-core/contracts/libraries/BitMath.sol\":985:986  x */\n      dup3\n        /* \"@uniswap/v3-core/contracts/libraries/BitMath.sol\":985:1001  x >= 0x100000000 */\n      lt\n        /* \"@uniswap/v3-core/contracts/libraries/BitMath.sol\":981:1057  if (x >= 0x100000000) {... */\n      tag_648\n      jumpi\n        /* \"@uniswap/v3-core/contracts/libraries/BitMath.sol\":1023:1025  32 */\n      0x20\n        /* \"@uniswap/v3-core/contracts/libraries/BitMath.sol\":1017:1025  x >>= 32 */\n      swap2\n      dup3\n      shr\n      swap2\n        /* \"@uniswap/v3-core/contracts/libraries/BitMath.sol\":1039:1046  r += 32 */\n      add\n        /* \"@uniswap/v3-core/contracts/libraries/BitMath.sol\":981:1057  if (x >= 0x100000000) {... */\n    tag_648:\n        /* \"@uniswap/v3-core/contracts/libraries/BitMath.sol\":1075:1082  0x10000 */\n      0x010000\n        /* \"@uniswap/v3-core/contracts/libraries/BitMath.sol\":1070:1071  x */\n      dup3\n        /* \"@uniswap/v3-core/contracts/libraries/BitMath.sol\":1070:1082  x >= 0x10000 */\n      lt\n        /* \"@uniswap/v3-core/contracts/libraries/BitMath.sol\":1066:1138  if (x >= 0x10000) {... */\n      tag_649\n      jumpi\n        /* \"@uniswap/v3-core/contracts/libraries/BitMath.sol\":1104:1106  16 */\n      0x10\n        /* \"@uniswap/v3-core/contracts/libraries/BitMath.sol\":1098:1106  x >>= 16 */\n      swap2\n      dup3\n      shr\n      swap2\n        /* \"@uniswap/v3-core/contracts/libraries/BitMath.sol\":1120:1127  r += 16 */\n      add\n        /* \"@uniswap/v3-core/contracts/libraries/BitMath.sol\":1066:1138  if (x >= 0x10000) {... */\n    tag_649:\n        /* \"@uniswap/v3-core/contracts/libraries/BitMath.sol\":1156:1161  0x100 */\n      0x0100\n        /* \"@uniswap/v3-core/contracts/libraries/BitMath.sol\":1151:1152  x */\n      dup3\n        /* \"@uniswap/v3-core/contracts/libraries/BitMath.sol\":1151:1161  x >= 0x100 */\n      lt\n        /* \"@uniswap/v3-core/contracts/libraries/BitMath.sol\":1147:1215  if (x >= 0x100) {... */\n      tag_650\n      jumpi\n        /* \"@uniswap/v3-core/contracts/libraries/BitMath.sol\":1183:1184  8 */\n      0x08\n        /* \"@uniswap/v3-core/contracts/libraries/BitMath.sol\":1177:1184  x >>= 8 */\n      swap2\n      dup3\n      shr\n      swap2\n        /* \"@uniswap/v3-core/contracts/libraries/BitMath.sol\":1198:1204  r += 8 */\n      add\n        /* \"@uniswap/v3-core/contracts/libraries/BitMath.sol\":1147:1215  if (x >= 0x100) {... */\n    tag_650:\n        /* \"@uniswap/v3-core/contracts/libraries/BitMath.sol\":1233:1237  0x10 */\n      0x10\n        /* \"@uniswap/v3-core/contracts/libraries/BitMath.sol\":1228:1229  x */\n      dup3\n        /* \"@uniswap/v3-core/contracts/libraries/BitMath.sol\":1228:1237  x >= 0x10 */\n      lt\n        /* \"@uniswap/v3-core/contracts/libraries/BitMath.sol\":1224:1291  if (x >= 0x10) {... */\n      tag_651\n      jumpi\n        /* \"@uniswap/v3-core/contracts/libraries/BitMath.sol\":1259:1260  4 */\n      0x04\n        /* \"@uniswap/v3-core/contracts/libraries/BitMath.sol\":1253:1260  x >>= 4 */\n      swap2\n      dup3\n      shr\n      swap2\n        /* \"@uniswap/v3-core/contracts/libraries/BitMath.sol\":1274:1280  r += 4 */\n      add\n        /* \"@uniswap/v3-core/contracts/libraries/BitMath.sol\":1224:1291  if (x >= 0x10) {... */\n    tag_651:\n        /* \"@uniswap/v3-core/contracts/libraries/BitMath.sol\":1309:1312  0x4 */\n      0x04\n        /* \"@uniswap/v3-core/contracts/libraries/BitMath.sol\":1304:1305  x */\n      dup3\n        /* \"@uniswap/v3-core/contracts/libraries/BitMath.sol\":1304:1312  x >= 0x4 */\n      lt\n        /* \"@uniswap/v3-core/contracts/libraries/BitMath.sol\":1300:1366  if (x >= 0x4) {... */\n      tag_652\n      jumpi\n        /* \"@uniswap/v3-core/contracts/libraries/BitMath.sol\":1334:1335  2 */\n      0x02\n        /* \"@uniswap/v3-core/contracts/libraries/BitMath.sol\":1328:1335  x >>= 2 */\n      swap2\n      dup3\n      shr\n      swap2\n        /* \"@uniswap/v3-core/contracts/libraries/BitMath.sol\":1349:1355  r += 2 */\n      add\n        /* \"@uniswap/v3-core/contracts/libraries/BitMath.sol\":1300:1366  if (x >= 0x4) {... */\n    tag_652:\n        /* \"@uniswap/v3-core/contracts/libraries/BitMath.sol\":1384:1387  0x2 */\n      0x02\n        /* \"@uniswap/v3-core/contracts/libraries/BitMath.sol\":1379:1380  x */\n      dup3\n        /* \"@uniswap/v3-core/contracts/libraries/BitMath.sol\":1379:1387  x >= 0x2 */\n      lt\n        /* \"@uniswap/v3-core/contracts/libraries/BitMath.sol\":1375:1395  if (x >= 0x2) r += 1 */\n      tag_9\n      jumpi\n        /* \"@uniswap/v3-core/contracts/libraries/BitMath.sol\":1394:1395  1 */\n      0x01\n        /* \"@uniswap/v3-core/contracts/libraries/BitMath.sol\":1389:1395  r += 1 */\n      add\n        /* \"@uniswap/v3-core/contracts/libraries/BitMath.sol\":671:1402  function mostSignificantBit(uint256 x) internal pure returns (uint8 r) {... */\n      swap2\n      swap1\n      pop\n      jump\t// out\n    tag_48:\n      0x40\n      dup1\n      mload\n      0x0100\n      dup2\n      add\n      dup3\n      mstore\n      0x00\n      dup1\n      dup3\n      mstore\n      0x20\n      dup3\n      add\n      dup2\n      swap1\n      mstore\n      swap2\n      dup2\n      add\n      dup3\n      swap1\n      mstore\n      0x60\n      dup2\n      add\n      dup3\n      swap1\n      mstore\n      0x80\n      dup2\n      add\n      dup3\n      swap1\n      mstore\n      0xa0\n      dup2\n      add\n      dup3\n      swap1\n      mstore\n      0xc0\n      dup2\n      add\n      dup3\n      swap1\n      mstore\n      0xe0\n      dup2\n      add\n      swap2\n      swap1\n      swap2\n      mstore\n      swap1\n      jump\t// out\n        /* \"#utility.yul\":14:212   */\n    tag_655:\n        /* \"#utility.yul\":84:104   */\n      dup1\n      calldataload\n        /* \"#utility.yul\":144:186   */\n      0xffffffffffffffffffffffffffffffffffffffff\n        /* \"#utility.yul\":133:187   */\n      dup2\n      and\n        /* \"#utility.yul\":123:188   */\n      dup2\n      eq\n        /* \"#utility.yul\":113:115   */\n      tag_9\n      jumpi\n        /* \"#utility.yul\":202:203   */\n      0x00\n        /* \"#utility.yul\":199:200   */\n      dup1\n        /* \"#utility.yul\":192:204   */\n      revert\n        /* \"#utility.yul\":217:379   */\n    tag_658:\n        /* \"#utility.yul\":284:304   */\n      dup1\n      calldataload\n        /* \"#utility.yul\":340:353   */\n      dup1\n      iszero\n        /* \"#utility.yul\":333:354   */\n      iszero\n        /* \"#utility.yul\":323:355   */\n      dup2\n      eq\n        /* \"#utility.yul\":313:315   */\n      tag_9\n      jumpi\n        /* \"#utility.yul\":369:370   */\n      0x00\n        /* \"#utility.yul\":366:367   */\n      dup1\n        /* \"#utility.yul\":359:371   */\n      revert\n        /* \"#utility.yul\":384:546   */\n    tag_661:\n        /* \"#utility.yul\":452:472   */\n      dup1\n      calldataload\n        /* \"#utility.yul\":512:513   */\n      0x02\n        /* \"#utility.yul\":501:521   */\n      dup2\n      swap1\n      signextend\n        /* \"#utility.yul\":491:522   */\n      dup2\n      eq\n        /* \"#utility.yul\":481:483   */\n      tag_9\n      jumpi\n        /* \"#utility.yul\":536:537   */\n      0x00\n        /* \"#utility.yul\":533:534   */\n      dup1\n        /* \"#utility.yul\":526:538   */\n      revert\n        /* \"#utility.yul\":551:1153   */\n    tag_664:\n      0x00\n        /* \"#utility.yul\":649:652   */\n      dup3\n        /* \"#utility.yul\":642:646   */\n      0x1f\n        /* \"#utility.yul\":634:640   */\n      dup4\n        /* \"#utility.yul\":630:647   */\n      add\n        /* \"#utility.yul\":626:653   */\n      slt\n        /* \"#utility.yul\":616:618   */\n      tag_666\n      jumpi\n        /* \"#utility.yul\":671:676   */\n      dup1\n        /* \"#utility.yul\":664:669   */\n      dup2\n        /* \"#utility.yul\":657:677   */\n      revert\n        /* \"#utility.yul\":616:618   */\n    tag_666:\n        /* \"#utility.yul\":711:717   */\n      dup2\n        /* \"#utility.yul\":698:718   */\n      calldataload\n        /* \"#utility.yul\":737:755   */\n      0xffffffffffffffff\n        /* \"#utility.yul\":733:735   */\n      dup2\n        /* \"#utility.yul\":730:756   */\n      gt\n        /* \"#utility.yul\":727:729   */\n      iszero\n      tag_667\n      jumpi\n        /* \"#utility.yul\":759:768   */\n      invalid\n        /* \"#utility.yul\":727:729   */\n    tag_667:\n        /* \"#utility.yul\":794:907   */\n      tag_668\n        /* \"#utility.yul\":901:905   */\n      0x20\n      not(0x1f)\n        /* \"#utility.yul\":825:829   */\n      0x1f\n        /* \"#utility.yul\":821:823   */\n      dup5\n        /* \"#utility.yul\":817:830   */\n      add\n        /* \"#utility.yul\":813:899   */\n      and\n        /* \"#utility.yul\":809:906   */\n      add\n        /* \"#utility.yul\":794:907   */\n      tag_669\n      jump\t// in\n    tag_668:\n        /* \"#utility.yul\":932:934   */\n      dup2\n        /* \"#utility.yul\":923:930   */\n      dup2\n        /* \"#utility.yul\":916:935   */\n      mstore\n        /* \"#utility.yul\":978:981   */\n      dup5\n        /* \"#utility.yul\":971:975   */\n      0x20\n        /* \"#utility.yul\":966:968   */\n      dup4\n        /* \"#utility.yul\":958:964   */\n      dup7\n        /* \"#utility.yul\":954:969   */\n      add\n        /* \"#utility.yul\":950:976   */\n      add\n        /* \"#utility.yul\":947:982   */\n      gt\n        /* \"#utility.yul\":944:946   */\n      iszero\n      tag_670\n      jumpi\n        /* \"#utility.yul\":999:1004   */\n      dup3\n        /* \"#utility.yul\":992:997   */\n      dup4\n        /* \"#utility.yul\":985:1005   */\n      revert\n        /* \"#utility.yul\":944:946   */\n    tag_670:\n        /* \"#utility.yul\":1068:1070   */\n      dup2\n        /* \"#utility.yul\":1061:1065   */\n      0x20\n        /* \"#utility.yul\":1053:1059   */\n      dup6\n        /* \"#utility.yul\":1049:1066   */\n      add\n        /* \"#utility.yul\":1042:1046   */\n      0x20\n        /* \"#utility.yul\":1033:1040   */\n      dup4\n        /* \"#utility.yul\":1029:1047   */\n      add\n        /* \"#utility.yul\":1016:1071   */\n      calldatacopy\n        /* \"#utility.yul\":1091:1107   */\n      swap1\n      dup2\n      add\n        /* \"#utility.yul\":1109:1113   */\n      0x20\n        /* \"#utility.yul\":1087:1114   */\n      add\n        /* \"#utility.yul\":1080:1122   */\n      swap2\n      swap1\n      swap2\n      mstore\n        /* \"#utility.yul\":1095:1102   */\n      swap3\n        /* \"#utility.yul\":606:1153   */\n      swap2\n      pop\n      pop\n      jump\t// out\n        /* \"#utility.yul\":1158:1321   */\n    tag_671:\n        /* \"#utility.yul\":1227:1247   */\n      dup1\n      calldataload\n        /* \"#utility.yul\":1287:1295   */\n      0xffffff\n        /* \"#utility.yul\":1276:1296   */\n      dup2\n      and\n        /* \"#utility.yul\":1266:1297   */\n      dup2\n      eq\n        /* \"#utility.yul\":1256:1258   */\n      tag_9\n      jumpi\n        /* \"#utility.yul\":1311:1312   */\n      0x00\n        /* \"#utility.yul\":1308:1309   */\n      dup1\n        /* \"#utility.yul\":1301:1313   */\n      revert\n        /* \"#utility.yul\":1326:1484   */\n    tag_674:\n        /* \"#utility.yul\":1394:1414   */\n      dup1\n      calldataload\n        /* \"#utility.yul\":1454:1458   */\n      0xff\n        /* \"#utility.yul\":1443:1459   */\n      dup2\n      and\n        /* \"#utility.yul\":1433:1460   */\n      dup2\n      eq\n        /* \"#utility.yul\":1423:1425   */\n      tag_9\n      jumpi\n        /* \"#utility.yul\":1474:1475   */\n      0x00\n        /* \"#utility.yul\":1471:1472   */\n      dup1\n        /* \"#utility.yul\":1464:1476   */\n      revert\n        /* \"#utility.yul\":1489:3268   */\n    tag_5:\n      0x00\n        /* \"#utility.yul\":1642:1644   */\n      0x20\n        /* \"#utility.yul\":1630:1639   */\n      dup3\n        /* \"#utility.yul\":1621:1628   */\n      dup5\n        /* \"#utility.yul\":1617:1640   */\n      sub\n        /* \"#utility.yul\":1613:1645   */\n      slt\n        /* \"#utility.yul\":1610:1612   */\n      iszero\n      tag_678\n      jumpi\n        /* \"#utility.yul\":1663:1669   */\n      dup1\n        /* \"#utility.yul\":1655:1661   */\n      dup2\n        /* \"#utility.yul\":1648:1670   */\n      revert\n        /* \"#utility.yul\":1610:1612   */\n    tag_678:\n        /* \"#utility.yul\":1708:1717   */\n      dup2\n        /* \"#utility.yul\":1695:1718   */\n      calldataload\n        /* \"#utility.yul\":1737:1755   */\n      0xffffffffffffffff\n        /* \"#utility.yul\":1778:1780   */\n      dup1\n        /* \"#utility.yul\":1770:1776   */\n      dup3\n        /* \"#utility.yul\":1767:1781   */\n      gt\n        /* \"#utility.yul\":1764:1766   */\n      iszero\n      tag_679\n      jumpi\n        /* \"#utility.yul\":1799:1805   */\n      dup3\n        /* \"#utility.yul\":1791:1797   */\n      dup4\n        /* \"#utility.yul\":1784:1806   */\n      revert\n        /* \"#utility.yul\":1764:1766   */\n    tag_679:\n        /* \"#utility.yul\":1842:1848   */\n      dup2\n        /* \"#utility.yul\":1831:1840   */\n      dup5\n        /* \"#utility.yul\":1827:1849   */\n      add\n        /* \"#utility.yul\":1817:1849   */\n      swap2\n      pop\n        /* \"#utility.yul\":1868:1874   */\n      0x01c0\n        /* \"#utility.yul\":1908:1910   */\n      dup1\n        /* \"#utility.yul\":1903:1905   */\n      dup4\n        /* \"#utility.yul\":1894:1901   */\n      dup8\n        /* \"#utility.yul\":1890:1906   */\n      sub\n        /* \"#utility.yul\":1886:1911   */\n      slt\n        /* \"#utility.yul\":1883:1885   */\n      iszero\n      tag_680\n      jumpi\n        /* \"#utility.yul\":1929:1935   */\n      dup4\n        /* \"#utility.yul\":1921:1927   */\n      dup5\n        /* \"#utility.yul\":1914:1936   */\n      revert\n        /* \"#utility.yul\":1883:1885   */\n    tag_680:\n        /* \"#utility.yul\":1960:1978   */\n      tag_681\n        /* \"#utility.yul\":1975:1977   */\n      dup2\n        /* \"#utility.yul\":1960:1978   */\n      tag_669\n      jump\t// in\n    tag_681:\n        /* \"#utility.yul\":1947:1978   */\n      swap1\n      pop\n        /* \"#utility.yul\":2014:2016   */\n      dup3\n        /* \"#utility.yul\":2001:2017   */\n      calldataload\n        /* \"#utility.yul\":1994:1999   */\n      dup2\n        /* \"#utility.yul\":1987:2018   */\n      mstore\n        /* \"#utility.yul\":2050:2083   */\n      tag_682\n        /* \"#utility.yul\":2079:2081   */\n      0x20\n        /* \"#utility.yul\":2075:2077   */\n      dup5\n        /* \"#utility.yul\":2071:2082   */\n      add\n        /* \"#utility.yul\":2050:2083   */\n      tag_655\n      jump\t// in\n    tag_682:\n        /* \"#utility.yul\":2045:2047   */\n      0x20\n        /* \"#utility.yul\":2038:2043   */\n      dup3\n        /* \"#utility.yul\":2034:2048   */\n      add\n        /* \"#utility.yul\":2027:2084   */\n      mstore\n        /* \"#utility.yul\":2116:2149   */\n      tag_683\n        /* \"#utility.yul\":2145:2147   */\n      0x40\n        /* \"#utility.yul\":2141:2143   */\n      dup5\n        /* \"#utility.yul\":2137:2148   */\n      add\n        /* \"#utility.yul\":2116:2149   */\n      tag_655\n      jump\t// in\n    tag_683:\n        /* \"#utility.yul\":2111:2113   */\n      0x40\n        /* \"#utility.yul\":2104:2109   */\n      dup3\n        /* \"#utility.yul\":2100:2114   */\n      add\n        /* \"#utility.yul\":2093:2150   */\n      mstore\n        /* \"#utility.yul\":2196:2198   */\n      0x60\n        /* \"#utility.yul\":2192:2194   */\n      dup4\n        /* \"#utility.yul\":2188:2199   */\n      add\n        /* \"#utility.yul\":2175:2200   */\n      calldataload\n        /* \"#utility.yul\":2225:2227   */\n      dup3\n        /* \"#utility.yul\":2215:2223   */\n      dup2\n        /* \"#utility.yul\":2212:2228   */\n      gt\n        /* \"#utility.yul\":2209:2211   */\n      iszero\n      tag_684\n      jumpi\n        /* \"#utility.yul\":2246:2252   */\n      dup5\n        /* \"#utility.yul\":2238:2244   */\n      dup6\n        /* \"#utility.yul\":2231:2253   */\n      revert\n        /* \"#utility.yul\":2209:2211   */\n    tag_684:\n        /* \"#utility.yul\":2287:2334   */\n      tag_685\n        /* \"#utility.yul\":2326:2333   */\n      dup8\n        /* \"#utility.yul\":2315:2323   */\n      dup3\n        /* \"#utility.yul\":2311:2313   */\n      dup7\n        /* \"#utility.yul\":2307:2324   */\n      add\n        /* \"#utility.yul\":2287:2334   */\n      tag_664\n      jump\t// in\n    tag_685:\n        /* \"#utility.yul\":2282:2284   */\n      0x60\n        /* \"#utility.yul\":2275:2280   */\n      dup4\n        /* \"#utility.yul\":2271:2285   */\n      add\n        /* \"#utility.yul\":2264:2335   */\n      mstore\n      pop\n        /* \"#utility.yul\":2381:2384   */\n      0x80\n        /* \"#utility.yul\":2377:2379   */\n      dup4\n        /* \"#utility.yul\":2373:2385   */\n      add\n        /* \"#utility.yul\":2360:2386   */\n      calldataload\n        /* \"#utility.yul\":2411:2413   */\n      dup3\n        /* \"#utility.yul\":2401:2409   */\n      dup2\n        /* \"#utility.yul\":2398:2414   */\n      gt\n        /* \"#utility.yul\":2395:2397   */\n      iszero\n      tag_686\n      jumpi\n        /* \"#utility.yul\":2432:2438   */\n      dup5\n        /* \"#utility.yul\":2424:2430   */\n      dup6\n        /* \"#utility.yul\":2417:2439   */\n      revert\n        /* \"#utility.yul\":2395:2397   */\n    tag_686:\n        /* \"#utility.yul\":2474:2521   */\n      tag_687\n        /* \"#utility.yul\":2513:2520   */\n      dup8\n        /* \"#utility.yul\":2502:2510   */\n      dup3\n        /* \"#utility.yul\":2498:2500   */\n      dup7\n        /* \"#utility.yul\":2494:2511   */\n      add\n        /* \"#utility.yul\":2474:2521   */\n      tag_664\n      jump\t// in\n    tag_687:\n        /* \"#utility.yul\":2468:2471   */\n      0x80\n        /* \"#utility.yul\":2461:2466   */\n      dup4\n        /* \"#utility.yul\":2457:2472   */\n      add\n        /* \"#utility.yul\":2450:2522   */\n      mstore\n      pop\n        /* \"#utility.yul\":2555:2587   */\n      tag_688\n        /* \"#utility.yul\":2582:2585   */\n      0xa0\n        /* \"#utility.yul\":2578:2580   */\n      dup5\n        /* \"#utility.yul\":2574:2586   */\n      add\n        /* \"#utility.yul\":2555:2587   */\n      tag_674\n      jump\t// in\n    tag_688:\n        /* \"#utility.yul\":2549:2552   */\n      0xa0\n        /* \"#utility.yul\":2542:2547   */\n      dup3\n        /* \"#utility.yul\":2538:2553   */\n      add\n        /* \"#utility.yul\":2531:2588   */\n      mstore\n        /* \"#utility.yul\":2621:2653   */\n      tag_689\n        /* \"#utility.yul\":2648:2651   */\n      0xc0\n        /* \"#utility.yul\":2644:2646   */\n      dup5\n        /* \"#utility.yul\":2640:2652   */\n      add\n        /* \"#utility.yul\":2621:2653   */\n      tag_674\n      jump\t// in\n    tag_689:\n        /* \"#utility.yul\":2615:2618   */\n      0xc0\n        /* \"#utility.yul\":2608:2613   */\n      dup3\n        /* \"#utility.yul\":2604:2619   */\n      add\n        /* \"#utility.yul\":2597:2654   */\n      mstore\n        /* \"#utility.yul\":2687:2718   */\n      tag_690\n        /* \"#utility.yul\":2713:2716   */\n      0xe0\n        /* \"#utility.yul\":2709:2711   */\n      dup5\n        /* \"#utility.yul\":2705:2717   */\n      add\n        /* \"#utility.yul\":2687:2718   */\n      tag_658\n      jump\t// in\n    tag_690:\n        /* \"#utility.yul\":2681:2684   */\n      0xe0\n        /* \"#utility.yul\":2674:2679   */\n      dup3\n        /* \"#utility.yul\":2670:2685   */\n      add\n        /* \"#utility.yul\":2663:2719   */\n      mstore\n        /* \"#utility.yul\":2738:2741   */\n      0x0100\n        /* \"#utility.yul\":2728:2741   */\n      swap2\n      pop\n        /* \"#utility.yul\":2773:2804   */\n      tag_691\n        /* \"#utility.yul\":2800:2802   */\n      dup3\n        /* \"#utility.yul\":2796:2798   */\n      dup5\n        /* \"#utility.yul\":2792:2803   */\n      add\n        /* \"#utility.yul\":2773:2804   */\n      tag_661\n      jump\t// in\n    tag_691:\n        /* \"#utility.yul\":2768:2770   */\n      dup3\n        /* \"#utility.yul\":2761:2766   */\n      dup3\n        /* \"#utility.yul\":2757:2771   */\n      add\n        /* \"#utility.yul\":2750:2805   */\n      mstore\n        /* \"#utility.yul\":2824:2827   */\n      0x0120\n        /* \"#utility.yul\":2814:2827   */\n      swap2\n      pop\n        /* \"#utility.yul\":2859:2890   */\n      tag_692\n        /* \"#utility.yul\":2886:2888   */\n      dup3\n        /* \"#utility.yul\":2882:2884   */\n      dup5\n        /* \"#utility.yul\":2878:2889   */\n      add\n        /* \"#utility.yul\":2859:2890   */\n      tag_661\n      jump\t// in\n    tag_692:\n        /* \"#utility.yul\":2854:2856   */\n      dup3\n        /* \"#utility.yul\":2847:2852   */\n      dup3\n        /* \"#utility.yul\":2843:2857   */\n      add\n        /* \"#utility.yul\":2836:2891   */\n      mstore\n        /* \"#utility.yul\":2910:2913   */\n      0x0140\n        /* \"#utility.yul\":2900:2913   */\n      swap2\n      pop\n        /* \"#utility.yul\":2945:2976   */\n      tag_693\n        /* \"#utility.yul\":2972:2974   */\n      dup3\n        /* \"#utility.yul\":2968:2970   */\n      dup5\n        /* \"#utility.yul\":2964:2975   */\n      add\n        /* \"#utility.yul\":2945:2976   */\n      tag_661\n      jump\t// in\n    tag_693:\n        /* \"#utility.yul\":2940:2942   */\n      dup3\n        /* \"#utility.yul\":2933:2938   */\n      dup3\n        /* \"#utility.yul\":2929:2943   */\n      add\n        /* \"#utility.yul\":2922:2977   */\n      mstore\n        /* \"#utility.yul\":2996:2999   */\n      0x0160\n        /* \"#utility.yul\":2986:2999   */\n      swap2\n      pop\n        /* \"#utility.yul\":3031:3062   */\n      tag_694\n        /* \"#utility.yul\":3058:3060   */\n      dup3\n        /* \"#utility.yul\":3054:3056   */\n      dup5\n        /* \"#utility.yul\":3050:3061   */\n      add\n        /* \"#utility.yul\":3031:3062   */\n      tag_661\n      jump\t// in\n    tag_694:\n        /* \"#utility.yul\":3026:3028   */\n      dup3\n        /* \"#utility.yul\":3019:3024   */\n      dup3\n        /* \"#utility.yul\":3015:3029   */\n      add\n        /* \"#utility.yul\":3008:3063   */\n      mstore\n        /* \"#utility.yul\":3082:3085   */\n      0x0180\n        /* \"#utility.yul\":3072:3085   */\n      swap2\n      pop\n        /* \"#utility.yul\":3117:3149   */\n      tag_695\n        /* \"#utility.yul\":3145:3147   */\n      dup3\n        /* \"#utility.yul\":3141:3143   */\n      dup5\n        /* \"#utility.yul\":3137:3148   */\n      add\n        /* \"#utility.yul\":3117:3149   */\n      tag_671\n      jump\t// in\n    tag_695:\n        /* \"#utility.yul\":3112:3114   */\n      dup3\n        /* \"#utility.yul\":3105:3110   */\n      dup3\n        /* \"#utility.yul\":3101:3115   */\n      add\n        /* \"#utility.yul\":3094:3150   */\n      mstore\n        /* \"#utility.yul\":3169:3172   */\n      0x01a0\n        /* \"#utility.yul\":3159:3172   */\n      swap2\n      pop\n        /* \"#utility.yul\":3204:3237   */\n      tag_696\n        /* \"#utility.yul\":3233:3235   */\n      dup3\n        /* \"#utility.yul\":3229:3231   */\n      dup5\n        /* \"#utility.yul\":3225:3236   */\n      add\n        /* \"#utility.yul\":3204:3237   */\n      tag_655\n      jump\t// in\n    tag_696:\n        /* \"#utility.yul\":3188:3202   */\n      swap2\n      dup2\n      add\n        /* \"#utility.yul\":3181:3238   */\n      swap2\n      swap1\n      swap2\n      mstore\n        /* \"#utility.yul\":3192:3197   */\n      swap5\n        /* \"#utility.yul\":1600:3268   */\n      swap4\n      pop\n      pop\n      pop\n      pop\n      jump\t// out\n        /* \"#utility.yul\":3273:3460   */\n    tag_697:\n      0x00\n        /* \"#utility.yul\":3355:3360   */\n      dup2\n        /* \"#utility.yul\":3349:3361   */\n      mload\n        /* \"#utility.yul\":3370:3422   */\n      tag_699\n        /* \"#utility.yul\":3415:3421   */\n      dup2\n        /* \"#utility.yul\":3410:3413   */\n      dup6\n        /* \"#utility.yul\":3403:3407   */\n      0x20\n        /* \"#utility.yul\":3396:3401   */\n      dup7\n        /* \"#utility.yul\":3392:3408   */\n      add\n        /* \"#utility.yul\":3370:3422   */\n      tag_700\n      jump\t// in\n    tag_699:\n        /* \"#utility.yul\":3438:3454   */\n      swap3\n      swap1\n      swap3\n      add\n      swap3\n        /* \"#utility.yul\":3325:3460   */\n      swap2\n      pop\n      pop\n      jump\t// out\n        /* \"#utility.yul\":3465:3905   */\n    tag_701:\n        /* \"#utility.yul\":3544:3610   */\n      0xe29aa0efb88f20444953434c41494d45523a204475652064696c6967656e6365\n        /* \"#utility.yul\":3532:3611   */\n      dup2\n      mstore\n        /* \"#utility.yul\":3641:3675   */\n      0x20697320696d7065726174697665207768656e20617373657373696e67207468\n        /* \"#utility.yul\":3636:3638   */\n      0x20\n        /* \"#utility.yul\":3627:3639   */\n      dup3\n      add\n        /* \"#utility.yul\":3620:3676   */\n      mstore\n        /* \"#utility.yul\":3706:3740   */\n      0x6973204e46542e204d616b65207375726520746f6b656e206164647265737365\n        /* \"#utility.yul\":3701:3703   */\n      0x40\n        /* \"#utility.yul\":3692:3704   */\n      dup3\n      add\n        /* \"#utility.yul\":3685:3741   */\n      mstore\n        /* \"#utility.yul\":3771:3805   */\n      0x73206d617463682074686520657870656374656420746f6b656e732c20617320\n        /* \"#utility.yul\":3766:3768   */\n      0x60\n        /* \"#utility.yul\":3757:3769   */\n      dup3\n      add\n        /* \"#utility.yul\":3750:3806   */\n      mstore\n        /* \"#utility.yul\":3837:3869   */\n      0x746f6b656e2073796d626f6c73206d617920626520696d6974617465642e0000\n        /* \"#utility.yul\":3831:3834   */\n      0x80\n        /* \"#utility.yul\":3822:3835   */\n      dup3\n      add\n        /* \"#utility.yul\":3815:3870   */\n      mstore\n        /* \"#utility.yul\":3895:3898   */\n      0x9e\n        /* \"#utility.yul\":3886:3899   */\n      add\n      swap1\n        /* \"#utility.yul\":3522:3905   */\n      jump\t// out\n        /* \"#utility.yul\":3910:4031   */\n    tag_703:\n        /* \"#utility.yul\":3989:3997   */\n      0x5c6e5c6e00000000000000000000000000000000000000000000000000000000\n        /* \"#utility.yul\":3977:3998   */\n      dup2\n      mstore\n        /* \"#utility.yul\":4023:4024   */\n      0x04\n        /* \"#utility.yul\":4014:4025   */\n      add\n      swap1\n        /* \"#utility.yul\":3967:4031   */\n      jump\t// out\n        /* \"#utility.yul\":4036:5813   */\n    tag_118:\n      0x00\n        /* \"#utility.yul\":4947:4981   */\n      0x54686973204e465420726570726573656e74732061206c697175696469747920\n        /* \"#utility.yul\":4942:4945   */\n      dup3\n        /* \"#utility.yul\":4935:4982   */\n      mstore\n        /* \"#utility.yul\":5012:5039   */\n      0x706f736974696f6e20696e206120556e69737761702056332000000000000000\n        /* \"#utility.yul\":5007:5009   */\n      0x20\n        /* \"#utility.yul\":5002:5005   */\n      dup4\n        /* \"#utility.yul\":4998:5010   */\n      add\n        /* \"#utility.yul\":4991:5040   */\n      mstore\n        /* \"#utility.yul\":5069:5075   */\n      dup6\n        /* \"#utility.yul\":5063:5076   */\n      mload\n        /* \"#utility.yul\":5085:5145   */\n      tag_706\n        /* \"#utility.yul\":5138:5144   */\n      dup2\n        /* \"#utility.yul\":5133:5135   */\n      0x39\n        /* \"#utility.yul\":5128:5131   */\n      dup6\n        /* \"#utility.yul\":5124:5136   */\n      add\n        /* \"#utility.yul\":5119:5121   */\n      0x20\n        /* \"#utility.yul\":5111:5117   */\n      dup11\n        /* \"#utility.yul\":5107:5122   */\n      add\n        /* \"#utility.yul\":5085:5145   */\n      tag_700\n      jump\t// in\n    tag_706:\n        /* \"#utility.yul\":5209:5212   */\n      0x2d00000000000000000000000000000000000000000000000000000000000000\n        /* \"#utility.yul\":5204:5206   */\n      0x39\n        /* \"#utility.yul\":5164:5180   */\n      swap2\n      dup5\n      add\n        /* \"#utility.yul\":5196:5207   */\n      swap2\n      dup3\n      add\n        /* \"#utility.yul\":5189:5213   */\n      mstore\n        /* \"#utility.yul\":5238:5251   */\n      dup6\n      mload\n        /* \"#utility.yul\":5260:5321   */\n      tag_707\n        /* \"#utility.yul\":5238:5251   */\n      dup2\n        /* \"#utility.yul\":5307:5309   */\n      0x3a\n        /* \"#utility.yul\":5299:5310   */\n      dup5\n      add\n        /* \"#utility.yul\":5294:5296   */\n      0x20\n        /* \"#utility.yul\":5282:5297   */\n      dup11\n      add\n        /* \"#utility.yul\":5260:5321   */\n      tag_700\n      jump\t// in\n    tag_707:\n        /* \"#utility.yul\":5386:5395   */\n      0x20706f6f6c2e2000000000000000000000000000000000000000000000000000\n        /* \"#utility.yul\":5381:5383   */\n      0x3a\n        /* \"#utility.yul\":5340:5357   */\n      swap3\n      swap1\n      swap2\n      add\n        /* \"#utility.yul\":5373:5384   */\n      swap2\n      dup3\n      add\n        /* \"#utility.yul\":5366:5396   */\n      mstore\n        /* \"#utility.yul\":5425:5459   */\n      0x546865206f776e6572206f662074686973204e46542063616e206d6f64696679\n        /* \"#utility.yul\":5420:5422   */\n      0x41\n        /* \"#utility.yul\":5412:5423   */\n      dup3\n      add\n        /* \"#utility.yul\":5405:5460   */\n      mstore\n        /* \"#utility.yul\":5489:5518   */\n      0x206f722072656465656d2074686520706f736974696f6e2e5c6e000000000000\n        /* \"#utility.yul\":5484:5486   */\n      0x61\n        /* \"#utility.yul\":5476:5487   */\n      dup3\n      add\n        /* \"#utility.yul\":5469:5519   */\n      mstore\n        /* \"#utility.yul\":5549:5568   */\n      0x5c6e506f6f6c20416464726573733a2000000000000000000000000000000000\n        /* \"#utility.yul\":5543:5546   */\n      0x7b\n        /* \"#utility.yul\":5535:5547   */\n      dup3\n      add\n        /* \"#utility.yul\":5528:5569   */\n      mstore\n        /* \"#utility.yul\":5594:5607   */\n      dup5\n      mload\n        /* \"#utility.yul\":5616:5678   */\n      tag_708\n        /* \"#utility.yul\":5594:5607   */\n      dup2\n        /* \"#utility.yul\":5663:5666   */\n      0x8b\n        /* \"#utility.yul\":5655:5667   */\n      dup5\n      add\n        /* \"#utility.yul\":5650:5652   */\n      0x20\n        /* \"#utility.yul\":5638:5653   */\n      dup10\n      add\n        /* \"#utility.yul\":5616:5678   */\n      tag_700\n      jump\t// in\n    tag_708:\n        /* \"#utility.yul\":5744:5749   */\n      0x5c6e000000000000000000000000000000000000000000000000000000000000\n        /* \"#utility.yul\":5738:5741   */\n      0x8b\n        /* \"#utility.yul\":5697:5714   */\n      swap3\n      swap1\n      swap2\n      add\n        /* \"#utility.yul\":5730:5742   */\n      swap2\n      dup3\n      add\n        /* \"#utility.yul\":5723:5750   */\n      mstore\n        /* \"#utility.yul\":5766:5807   */\n      tag_82\n        /* \"#utility.yul\":5802:5805   */\n      0x8d\n        /* \"#utility.yul\":5794:5806   */\n      dup3\n      add\n        /* \"#utility.yul\":5786:5792   */\n      dup6\n        /* \"#utility.yul\":5766:5807   */\n      tag_697\n      jump\t// in\n        /* \"#utility.yul\":5818:7652   */\n    tag_35:\n      0x00\n        /* \"#utility.yul\":6628:6694   */\n      0x7b226e616d65223a220000000000000000000000000000000000000000000000\n        /* \"#utility.yul\":6623:6626   */\n      dup3\n        /* \"#utility.yul\":6616:6695   */\n      mstore\n        /* \"#utility.yul\":6724:6730   */\n      dup6\n        /* \"#utility.yul\":6718:6731   */\n      mload\n        /* \"#utility.yul\":6740:6801   */\n      tag_711\n        /* \"#utility.yul\":6794:6800   */\n      dup2\n        /* \"#utility.yul\":6790:6791   */\n      0x09\n        /* \"#utility.yul\":6785:6788   */\n      dup6\n        /* \"#utility.yul\":6781:6792   */\n      add\n        /* \"#utility.yul\":6774:6778   */\n      0x20\n        /* \"#utility.yul\":6766:6772   */\n      dup11\n        /* \"#utility.yul\":6762:6779   */\n      add\n        /* \"#utility.yul\":6740:6801   */\n      tag_700\n      jump\t// in\n    tag_711:\n        /* \"#utility.yul\":6864:6930   */\n      0x222c20226465736372697074696f6e223a220000000000000000000000000000\n        /* \"#utility.yul\":6860:6861   */\n      0x09\n        /* \"#utility.yul\":6820:6836   */\n      swap2\n      dup5\n      add\n        /* \"#utility.yul\":6852:6862   */\n      swap2\n      dup3\n      add\n        /* \"#utility.yul\":6845:6931   */\n      mstore\n        /* \"#utility.yul\":6956:6969   */\n      dup6\n      mload\n        /* \"#utility.yul\":6978:7041   */\n      tag_712\n        /* \"#utility.yul\":6956:6969   */\n      dup2\n        /* \"#utility.yul\":7027:7029   */\n      0x1b\n        /* \"#utility.yul\":7019:7030   */\n      dup5\n      add\n        /* \"#utility.yul\":7012:7016   */\n      0x20\n        /* \"#utility.yul\":7000:7017   */\n      dup11\n      add\n        /* \"#utility.yul\":6978:7041   */\n      tag_700\n      jump\t// in\n    tag_712:\n        /* \"#utility.yul\":7102:7115   */\n      dup6\n      mload\n        /* \"#utility.yul\":7060:7077   */\n      swap2\n      add\n      swap1\n        /* \"#utility.yul\":7124:7187   */\n      tag_713\n        /* \"#utility.yul\":7102:7115   */\n      dup2\n        /* \"#utility.yul\":7173:7175   */\n      0x1b\n        /* \"#utility.yul\":7165:7176   */\n      dup5\n      add\n        /* \"#utility.yul\":7158:7162   */\n      0x20\n        /* \"#utility.yul\":7146:7163   */\n      dup10\n      add\n        /* \"#utility.yul\":7124:7187   */\n      tag_700\n      jump\t// in\n    tag_713:\n        /* \"#utility.yul\":7252:7318   */\n      0x222c2022696d616765223a202200000000000000000000000000000000000000\n        /* \"#utility.yul\":7247:7249   */\n      0x1b\n        /* \"#utility.yul\":7206:7223   */\n      swap3\n      swap1\n      swap2\n      add\n        /* \"#utility.yul\":7239:7250   */\n      swap2\n      dup3\n      add\n        /* \"#utility.yul\":7232:7319   */\n      mstore\n        /* \"#utility.yul\":7348:7376   */\n      0x646174613a696d6167652f7376672b786d6c3b6261736536342c000000000000\n        /* \"#utility.yul\":7343:7345   */\n      0x28\n        /* \"#utility.yul\":7335:7346   */\n      dup3\n      add\n        /* \"#utility.yul\":7328:7377   */\n      mstore\n        /* \"#utility.yul\":7402:7415   */\n      dup4\n      mload\n        /* \"#utility.yul\":7424:7487   */\n      tag_714\n        /* \"#utility.yul\":7402:7415   */\n      dup2\n        /* \"#utility.yul\":7473:7475   */\n      0x42\n        /* \"#utility.yul\":7465:7476   */\n      dup5\n      add\n        /* \"#utility.yul\":7458:7462   */\n      0x20\n        /* \"#utility.yul\":7446:7463   */\n      dup9\n      add\n        /* \"#utility.yul\":7424:7487   */\n      tag_700\n      jump\t// in\n    tag_714:\n        /* \"#utility.yul\":7552:7618   */\n      0x227d000000000000000000000000000000000000000000000000000000000000\n        /* \"#utility.yul\":7547:7549   */\n      0x42\n        /* \"#utility.yul\":7506:7523   */\n      swap3\n      swap1\n      swap2\n      add\n        /* \"#utility.yul\":7539:7550   */\n      swap2\n      dup3\n      add\n        /* \"#utility.yul\":7532:7619   */\n      mstore\n        /* \"#utility.yul\":7643:7645   */\n      0x44\n        /* \"#utility.yul\":7635:7646   */\n      add\n      swap7\n        /* \"#utility.yul\":6606:7652   */\n      swap6\n      pop\n      pop\n      pop\n      pop\n      pop\n      pop\n      jump\t// out\n        /* \"#utility.yul\":7657:9421   */\n    tag_95:\n      0x00\n        /* \"#utility.yul\":8515:8527   */\n      0x556e6973776170202d2000000000000000000000000000000000000000000000\n        /* \"#utility.yul\":8510:8513   */\n      dup3\n        /* \"#utility.yul\":8503:8528   */\n      mstore\n        /* \"#utility.yul\":8557:8563   */\n      dup7\n        /* \"#utility.yul\":8551:8564   */\n      mload\n        /* \"#utility.yul\":8573:8635   */\n      tag_716\n        /* \"#utility.yul\":8628:8634   */\n      dup2\n        /* \"#utility.yul\":8623:8625   */\n      0x0a\n        /* \"#utility.yul\":8618:8621   */\n      dup6\n        /* \"#utility.yul\":8614:8626   */\n      add\n        /* \"#utility.yul\":8607:8611   */\n      0x20\n        /* \"#utility.yul\":8599:8605   */\n      dup12\n        /* \"#utility.yul\":8595:8612   */\n      add\n        /* \"#utility.yul\":8573:8635   */\n      tag_700\n      jump\t// in\n    tag_716:\n        /* \"#utility.yul\":8663:8669   */\n      dup1\n        /* \"#utility.yul\":8658:8661   */\n      dup4\n        /* \"#utility.yul\":8654:8670   */\n      add\n        /* \"#utility.yul\":8644:8670   */\n      swap1\n      pop\n        /* \"#utility.yul\":8689:8694   */\n      0x202d200000000000000000000000000000000000000000000000000000000000\n        /* \"#utility.yul\":8723:8725   */\n      dup1\n        /* \"#utility.yul\":8718:8720   */\n      0x0a\n        /* \"#utility.yul\":8714:8716   */\n      dup4\n        /* \"#utility.yul\":8710:8721   */\n      add\n        /* \"#utility.yul\":8703:8726   */\n      mstore\n        /* \"#utility.yul\":8757:8763   */\n      dup8\n        /* \"#utility.yul\":8751:8764   */\n      mload\n        /* \"#utility.yul\":8773:8836   */\n      tag_717\n        /* \"#utility.yul\":8827:8835   */\n      dup2\n        /* \"#utility.yul\":8822:8824   */\n      0x0d\n        /* \"#utility.yul\":8818:8820   */\n      dup6\n        /* \"#utility.yul\":8814:8825   */\n      add\n        /* \"#utility.yul\":8807:8811   */\n      0x20\n        /* \"#utility.yul\":8799:8805   */\n      dup13\n        /* \"#utility.yul\":8795:8812   */\n      add\n        /* \"#utility.yul\":8773:8836   */\n      tag_700\n      jump\t// in\n    tag_717:\n        /* \"#utility.yul\":8901:8904   */\n      0x2f00000000000000000000000000000000000000000000000000000000000000\n        /* \"#utility.yul\":8896:8898   */\n      0x0d\n        /* \"#utility.yul\":8855:8872   */\n      swap4\n      swap1\n      swap2\n      add\n        /* \"#utility.yul\":8888:8899   */\n      swap3\n      dup4\n      add\n        /* \"#utility.yul\":8881:8905   */\n      mstore\n        /* \"#utility.yul\":8930:8943   */\n      dup7\n      mload\n        /* \"#utility.yul\":8952:9015   */\n      tag_718\n        /* \"#utility.yul\":8930:8943   */\n      dup2\n        /* \"#utility.yul\":9001:9003   */\n      0x0e\n        /* \"#utility.yul\":8993:9004   */\n      dup6\n      add\n        /* \"#utility.yul\":8986:8990   */\n      0x20\n        /* \"#utility.yul\":8974:8991   */\n      dup12\n      add\n        /* \"#utility.yul\":8952:9015   */\n      tag_700\n      jump\t// in\n    tag_718:\n        /* \"#utility.yul\":9075:9077   */\n      0x0e\n        /* \"#utility.yul\":9034:9051   */\n      swap3\n      add\n        /* \"#utility.yul\":9067:9078   */\n      swap2\n      dup3\n      add\n        /* \"#utility.yul\":9060:9083   */\n      mstore\n        /* \"#utility.yul\":9108:9121   */\n      dup5\n      mload\n        /* \"#utility.yul\":9130:9193   */\n      tag_719\n        /* \"#utility.yul\":9108:9121   */\n      dup2\n        /* \"#utility.yul\":9179:9181   */\n      0x11\n        /* \"#utility.yul\":9171:9182   */\n      dup5\n      add\n        /* \"#utility.yul\":9164:9168   */\n      0x20\n        /* \"#utility.yul\":9152:9169   */\n      dup10\n      add\n        /* \"#utility.yul\":9130:9193   */\n      tag_700\n      jump\t// in\n    tag_719:\n        /* \"#utility.yul\":9258:9262   */\n      0x3c3e000000000000000000000000000000000000000000000000000000000000\n        /* \"#utility.yul\":9253:9255   */\n      0x11\n        /* \"#utility.yul\":9212:9229   */\n      swap3\n      swap1\n      swap2\n      add\n        /* \"#utility.yul\":9245:9256   */\n      swap2\n      dup3\n      add\n        /* \"#utility.yul\":9238:9263   */\n      mstore\n        /* \"#utility.yul\":9288:9301   */\n      dup4\n      mload\n        /* \"#utility.yul\":9310:9373   */\n      tag_720\n        /* \"#utility.yul\":9288:9301   */\n      dup2\n        /* \"#utility.yul\":9359:9361   */\n      0x13\n        /* \"#utility.yul\":9351:9362   */\n      dup5\n      add\n        /* \"#utility.yul\":9344:9348   */\n      0x20\n        /* \"#utility.yul\":9332:9349   */\n      dup9\n      add\n        /* \"#utility.yul\":9310:9373   */\n      tag_700\n      jump\t// in\n    tag_720:\n        /* \"#utility.yul\":9393:9410   */\n      add\n        /* \"#utility.yul\":9412:9414   */\n      0x13\n        /* \"#utility.yul\":9389:9415   */\n      add\n      swap8\n        /* \"#utility.yul\":8493:9421   */\n      swap7\n      pop\n      pop\n      pop\n      pop\n      pop\n      pop\n      pop\n      jump\t// out\n        /* \"#utility.yul\":9426:11481   */\n    tag_133:\n      0x00\n        /* \"#utility.yul\":10484:10496   */\n      0x20416464726573733a2000000000000000000000000000000000000000000000\n        /* \"#utility.yul\":10517:10519   */\n      dup1\n        /* \"#utility.yul\":10512:10515   */\n      dup4\n        /* \"#utility.yul\":10505:10520   */\n      mstore\n        /* \"#utility.yul\":10549:10555   */\n      dup8\n        /* \"#utility.yul\":10543:10556   */\n      mload\n        /* \"#utility.yul\":10565:10627   */\n      tag_722\n        /* \"#utility.yul\":10620:10626   */\n      dup2\n        /* \"#utility.yul\":10615:10617   */\n      0x0a\n        /* \"#utility.yul\":10610:10613   */\n      dup7\n        /* \"#utility.yul\":10606:10618   */\n      add\n        /* \"#utility.yul\":10599:10603   */\n      0x20\n        /* \"#utility.yul\":10591:10597   */\n      dup13\n        /* \"#utility.yul\":10587:10604   */\n      add\n        /* \"#utility.yul\":10565:10627   */\n      tag_700\n      jump\t// in\n    tag_722:\n        /* \"#utility.yul\":10691:10696   */\n      0x5c6e000000000000000000000000000000000000000000000000000000000000\n        /* \"#utility.yul\":10686:10688   */\n      0x0a\n        /* \"#utility.yul\":10646:10662   */\n      swap2\n      dup6\n      add\n        /* \"#utility.yul\":10678:10689   */\n      swap2\n      dup3\n      add\n        /* \"#utility.yul\":10671:10697   */\n      mstore\n        /* \"#utility.yul\":10722:10735   */\n      dup8\n      mload\n        /* \"#utility.yul\":10744:10807   */\n      tag_723\n        /* \"#utility.yul\":10722:10735   */\n      dup2\n        /* \"#utility.yul\":10793:10795   */\n      0x0c\n        /* \"#utility.yul\":10785:10796   */\n      dup5\n      add\n        /* \"#utility.yul\":10778:10782   */\n      0x20\n        /* \"#utility.yul\":10766:10783   */\n      dup13\n      add\n        /* \"#utility.yul\":10744:10807   */\n      tag_700\n      jump\t// in\n    tag_723:\n        /* \"#utility.yul\":10826:10843   */\n      add\n        /* \"#utility.yul\":10867:10869   */\n      0x0c\n        /* \"#utility.yul\":10859:10870   */\n      dup2\n      add\n        /* \"#utility.yul\":10852:10875   */\n      swap2\n      swap1\n      swap2\n      mstore\n        /* \"#utility.yul\":10900:10913   */\n      dup6\n      mload\n      swap1\n        /* \"#utility.yul\":10922:10985   */\n      tag_724\n        /* \"#utility.yul\":10900:10913   */\n      dup3\n        /* \"#utility.yul\":10971:10973   */\n      0x16\n        /* \"#utility.yul\":10963:10974   */\n      dup4\n      add\n        /* \"#utility.yul\":10956:10960   */\n      0x20\n        /* \"#utility.yul\":10944:10961   */\n      dup11\n      add\n        /* \"#utility.yul\":10922:10985   */\n      tag_700\n      jump\t// in\n    tag_724:\n        /* \"#utility.yul\":11012:11020   */\n      dup2\n        /* \"#utility.yul\":11008:11010   */\n      dup2\n        /* \"#utility.yul\":11004:11021   */\n      add\n        /* \"#utility.yul\":10994:11021   */\n      swap2\n      pop\n      pop\n        /* \"#utility.yul\":11050:11065   */\n      0x5c6e46656520546965723a200000000000000000000000000000000000000000\n        /* \"#utility.yul\":11045:11047   */\n      0x16\n        /* \"#utility.yul\":11041:11043   */\n      dup3\n        /* \"#utility.yul\":11037:11048   */\n      add\n        /* \"#utility.yul\":11030:11066   */\n      mstore\n        /* \"#utility.yul\":11097:11103   */\n      dup5\n        /* \"#utility.yul\":11091:11104   */\n      mload\n        /* \"#utility.yul\":11113:11176   */\n      tag_725\n        /* \"#utility.yul\":11167:11175   */\n      dup2\n        /* \"#utility.yul\":11162:11164   */\n      0x22\n        /* \"#utility.yul\":11158:11160   */\n      dup5\n        /* \"#utility.yul\":11154:11165   */\n      add\n        /* \"#utility.yul\":11147:11151   */\n      0x20\n        /* \"#utility.yul\":11139:11145   */\n      dup10\n        /* \"#utility.yul\":11135:11152   */\n      add\n        /* \"#utility.yul\":11113:11176   */\n      tag_700\n      jump\t// in\n    tag_725:\n        /* \"#utility.yul\":11241:11256   */\n      0x5c6e546f6b656e2049443a200000000000000000000000000000000000000000\n        /* \"#utility.yul\":11236:11238   */\n      0x22\n        /* \"#utility.yul\":11195:11212   */\n      swap3\n      swap1\n      swap2\n      add\n        /* \"#utility.yul\":11228:11239   */\n      swap2\n      dup3\n      add\n        /* \"#utility.yul\":11221:11257   */\n      mstore\n        /* \"#utility.yul\":11282:11295   */\n      dup4\n      mload\n        /* \"#utility.yul\":11304:11367   */\n      tag_726\n        /* \"#utility.yul\":11282:11295   */\n      dup2\n        /* \"#utility.yul\":11353:11355   */\n      0x2e\n        /* \"#utility.yul\":11345:11356   */\n      dup5\n      add\n        /* \"#utility.yul\":11338:11342   */\n      0x20\n        /* \"#utility.yul\":11326:11343   */\n      dup9\n      add\n        /* \"#utility.yul\":11304:11367   */\n      tag_700\n      jump\t// in\n    tag_726:\n        /* \"#utility.yul\":11383:11475   */\n      tag_727\n        /* \"#utility.yul\":11415:11474   */\n      tag_728\n        /* \"#utility.yul\":11470:11472   */\n      0x2e\n        /* \"#utility.yul\":11459:11467   */\n      dup4\n        /* \"#utility.yul\":11455:11457   */\n      dup6\n        /* \"#utility.yul\":11451:11468   */\n      add\n        /* \"#utility.yul\":11447:11473   */\n      add\n        /* \"#utility.yul\":11415:11474   */\n      tag_703\n      jump\t// in\n    tag_728:\n        /* \"#utility.yul\":11383:11475   */\n      tag_701\n      jump\t// in\n    tag_727:\n        /* \"#utility.yul\":11376:11475   */\n      swap10\n        /* \"#utility.yul\":10464:11481   */\n      swap9\n      pop\n      pop\n      pop\n      pop\n      pop\n      pop\n      pop\n      pop\n      pop\n      jump\t// out\n        /* \"#utility.yul\":11486:11934   */\n    tag_37:\n      0x00\n        /* \"#utility.yul\":11748:11779   */\n      0x646174613a6170706c69636174696f6e2f6a736f6e3b6261736536342c000000\n        /* \"#utility.yul\":11743:11746   */\n      dup3\n        /* \"#utility.yul\":11736:11780   */\n      mstore\n        /* \"#utility.yul\":11809:11815   */\n      dup3\n        /* \"#utility.yul\":11803:11816   */\n      mload\n        /* \"#utility.yul\":11825:11887   */\n      tag_730\n        /* \"#utility.yul\":11880:11886   */\n      dup2\n        /* \"#utility.yul\":11875:11877   */\n      0x1d\n        /* \"#utility.yul\":11870:11873   */\n      dup6\n        /* \"#utility.yul\":11866:11878   */\n      add\n        /* \"#utility.yul\":11859:11863   */\n      0x20\n        /* \"#utility.yul\":11851:11857   */\n      dup8\n        /* \"#utility.yul\":11847:11864   */\n      add\n        /* \"#utility.yul\":11825:11887   */\n      tag_700\n      jump\t// in\n    tag_730:\n        /* \"#utility.yul\":11907:11923   */\n      swap2\n      swap1\n      swap2\n      add\n        /* \"#utility.yul\":11925:11927   */\n      0x1d\n        /* \"#utility.yul\":11903:11928   */\n      add\n      swap3\n        /* \"#utility.yul\":11726:11934   */\n      swap2\n      pop\n      pop\n      jump\t// out\n        /* \"#utility.yul\":11939:12389   */\n    tag_8:\n      0x00\n        /* \"#utility.yul\":12096:12098   */\n      0x20\n        /* \"#utility.yul\":12085:12094   */\n      dup3\n        /* \"#utility.yul\":12078:12099   */\n      mstore\n        /* \"#utility.yul\":12128:12134   */\n      dup3\n        /* \"#utility.yul\":12122:12135   */\n      mload\n        /* \"#utility.yul\":12171:12177   */\n      dup1\n        /* \"#utility.yul\":12166:12168   */\n      0x20\n        /* \"#utility.yul\":12155:12164   */\n      dup5\n        /* \"#utility.yul\":12151:12169   */\n      add\n        /* \"#utility.yul\":12144:12178   */\n      mstore\n        /* \"#utility.yul\":12187:12253   */\n      tag_732\n        /* \"#utility.yul\":12246:12252   */\n      dup2\n        /* \"#utility.yul\":12241:12243   */\n      0x40\n        /* \"#utility.yul\":12230:12239   */\n      dup6\n        /* \"#utility.yul\":12226:12244   */\n      add\n        /* \"#utility.yul\":12221:12223   */\n      0x20\n        /* \"#utility.yul\":12213:12219   */\n      dup8\n        /* \"#utility.yul\":12209:12224   */\n      add\n        /* \"#utility.yul\":12187:12253   */\n      tag_700\n      jump\t// in\n    tag_732:\n        /* \"#utility.yul\":12305:12307   */\n      0x1f\n        /* \"#utility.yul\":12293:12308   */\n      add\n      not(0x1f)\n        /* \"#utility.yul\":12289:12377   */\n      and\n        /* \"#utility.yul\":12274:12378   */\n      swap2\n      swap1\n      swap2\n      add\n        /* \"#utility.yul\":12380:12382   */\n      0x40\n        /* \"#utility.yul\":12270:12383   */\n      add\n      swap3\n        /* \"#utility.yul\":12068:12389   */\n      swap2\n      pop\n      pop\n      jump\t// out\n        /* \"#utility.yul\":12394:12636   */\n    tag_669:\n        /* \"#utility.yul\":12464:12466   */\n      0x40\n        /* \"#utility.yul\":12458:12467   */\n      mload\n        /* \"#utility.yul\":12494:12511   */\n      dup2\n      dup2\n      add\n        /* \"#utility.yul\":12541:12559   */\n      0xffffffffffffffff\n        /* \"#utility.yul\":12526:12560   */\n      dup2\n      gt\n        /* \"#utility.yul\":12562:12584   */\n      dup3\n      dup3\n      lt\n        /* \"#utility.yul\":12523:12585   */\n      or\n        /* \"#utility.yul\":12520:12522   */\n      iszero\n      tag_734\n      jumpi\n        /* \"#utility.yul\":12588:12597   */\n      invalid\n        /* \"#utility.yul\":12520:12522   */\n    tag_734:\n        /* \"#utility.yul\":12615:12617   */\n      0x40\n        /* \"#utility.yul\":12608:12630   */\n      mstore\n        /* \"#utility.yul\":12438:12636   */\n      swap2\n      swap1\n      pop\n      jump\t// out\n        /* \"#utility.yul\":12641:12899   */\n    tag_700:\n        /* \"#utility.yul\":12713:12714   */\n      0x00\n        /* \"#utility.yul\":12723:12836   */\n    tag_736:\n        /* \"#utility.yul\":12737:12743   */\n      dup4\n        /* \"#utility.yul\":12734:12735   */\n      dup2\n        /* \"#utility.yul\":12731:12744   */\n      lt\n        /* \"#utility.yul\":12723:12836   */\n      iszero\n      tag_738\n      jumpi\n        /* \"#utility.yul\":12813:12824   */\n      dup2\n      dup2\n      add\n        /* \"#utility.yul\":12807:12825   */\n      mload\n        /* \"#utility.yul\":12794:12805   */\n      dup4\n      dup3\n      add\n        /* \"#utility.yul\":12787:12826   */\n      mstore\n        /* \"#utility.yul\":12759:12761   */\n      0x20\n        /* \"#utility.yul\":12752:12762   */\n      add\n        /* \"#utility.yul\":12723:12836   */\n      jump(tag_736)\n    tag_738:\n        /* \"#utility.yul\":12854:12860   */\n      dup4\n        /* \"#utility.yul\":12851:12852   */\n      dup2\n        /* \"#utility.yul\":12848:12861   */\n      gt\n        /* \"#utility.yul\":12845:12847   */\n      iszero\n      tag_739\n      jumpi\n        /* \"#utility.yul\":12889:12890   */\n      0x00\n        /* \"#utility.yul\":12880:12886   */\n      dup5\n        /* \"#utility.yul\":12875:12878   */\n      dup5\n        /* \"#utility.yul\":12871:12887   */\n      add\n        /* \"#utility.yul\":12864:12891   */\n      mstore\n        /* \"#utility.yul\":12845:12847   */\n    tag_739:\n      pop\n        /* \"#utility.yul\":12694:12899   */\n      pop\n      pop\n      pop\n      jump\t// out\n    stop\n    data_02f06577ff640a7b9a57b4040afd931b573e563f869bd83106611dd7f5abd304 203c616e696d6174652061646469746976653d2273756d22206174747269627574654e616d653d2273746172744f6666736574222066726f6d3d2230252220746f3d22313030252220626567696e3d22307322206475723d223330732220726570656174436f756e743d22696e646566696e69746522202f3e3c2f74657874506174683e3c2f746578743e\n    data_07d6b453733dfcd6acccdef8bdba430d27327460b66a4169d73ced361868fbe9 3c73746f70206f66667365743d222e39222073746f702d636f6c6f723d227768697465222073746f702d6f7061636974793d223022202f3e3c2f6c696e6561724772616469656e743e\n    data_09b07dfc70a17fef45f6fe3d38c10da942afae7501f50d1fe821bf1419a6c973 3c72656374207374796c653d2266696c7465723a2075726c28236631292220783d223070782220793d22307078222077696474683d22323930707822206865696768743d22353030707822202f3e\n    data_0b30bb9ee6214545b9ea9097efb5de130600391f40197f097cab945da2430220 3c6665496d61676520726573756c743d2270332220786c696e6b3a687265663d22646174613a696d6167652f7376672b786d6c3b6261736536342c\n    data_0f48c6991d8370b108e265feefc6212179a011d404515a1dce8a57af40b85b7f 3c67206d61736b3d2275726c2823666164652d73796d626f6c29223e3c726563742066696c6c3d226e6f6e652220783d223070782220793d22307078222077696474683d22323930707822206865696768743d22323030707822202f3e203c7465787420793d22373070782220783d2233327078222066696c6c3d2277686974652220666f6e742d66616d696c793d2227436f7572696572204e6577272c206d6f6e6f73706163652220666f6e742d7765696768743d223230302220666f6e742d73697a653d2233367078223e\n    data_12907fa788c43c090d50faf378fd6f9ac466c604e59cc51ff30ae1bbbc38c8bd 3c7376672077696474683d2232393022206865696768743d22353030222076696577426f783d2230203020323930203530302220786d6c6e733d22687474703a2f2f7777772e77332e6f72672f323030302f73766722\n    data_12c8706c8ed81675e674ab6c512d5560a6aee02a6795723026211fc0112724ea 70782c2030707829222063783d22307078222063793d223070782220723d22347078222066696c6c3d227768697465222f3e3c2f673e\n    data_12e5d23ac3d5565fca6e18679427bcbe328ab78094fc30d5dc29018e64601f05 203c616e696d6174652061646469746976653d2273756d22206174747269627574654e616d653d2273746172744f6666736574222066726f6d3d2230252220746f3d22313030252220626567696e3d22307322206475723d223330732220726570656174436f756e743d22696e646566696e69746522202f3e203c2f74657874506174683e\n    data_1bdc0da2fd5d7002fb2e67d70b3a4672d03997001c86f1c58ba784d0bc3656db 3c6d61736b2069643d22666164652d757022206d61736b436f6e74656e74556e6974733d226f626a656374426f756e64696e67426f78223e3c726563742077696474683d223122206865696768743d2231222066696c6c3d2275726c2823677261642d75702922202f3e3c2f6d61736b3e\n    data_20b18c33024e2e0e17abfb47072fb69fd233a084a9b52e7077234344339ef1d2 22207374726f6b653d227267626128302c302c302c302e332922207374726f6b652d77696474683d2233327078222066696c6c3d226e6f6e6522207374726f6b652d6c696e656361703d22726f756e6422202f3e\n    data_2150a1c8c321a12bc9aebef62dce6760f1d4a6152ca8e7d1cfc2a91709c86ed3 203c616e696d6174652061646469746976653d2273756d22206174747269627574654e616d653d2273746172744f6666736574222066726f6d3d2230252220746f3d22313030252220626567696e3d22307322206475723d2233307322\n    data_220105d546304f5c5e6ab619f93ed0540d9e75da2d2186101f3be7105ff28a8a 203c67207374796c653d227472616e73666f726d3a7472616e736c61746528323970782c20343434707829223e\n    data_2f31b113ee3d3056d0911a5e394047e1383278908d2c52df748865318956703e 3c636972636c65207374796c653d227472616e73666f726d3a7472616e736c617465336428\n    data_3c48d7b755ef30478f9fcb7df9667e587d5469eaab81f8e56e6c358f2f43959f 3c7376672077696474683d2732393027206865696768743d27353030272076696577426f783d2730203020323930203530302720786d6c6e733d27687474703a2f2f7777772e77332e6f72672f323030302f737667273e3c636972636c652063783d27\n    data_4639f96f89d1ef49f25e5140ee8e04694d126a00020aebcb2df7e75b5d9e8ff8 203c67207374796c653d2266696c7465723a75726c2823746f702d726567696f6e2d626c7572293b207472616e73666f726d3a7363616c6528312e35293b207472616e73666f726d2d6f726967696e3a63656e74657220746f703b223e\n    data_483cd74bda08c7fcbdbb6c7b6985427b6812d47c5633f98b9e7615f669d7fafd 22202f3e3c6665426c656e64206d6f64653d226f7665726c61792220696e3d2270302220696e323d22703122202f3e3c6665426c656e64206d6f64653d226578636c7573696f6e2220696e323d22703222202f3e3c6665426c656e64206d6f64653d226f7665726c61792220696e323d2270332220726573756c743d22626c656e644f757422202f3e3c6665476175737369616e426c757220\n    data_4b758653276e34b83f020b245d8a586eaf9cd26fbd97d7d3714c690e304e5721 3c706174682069643d226d696e696d61702220643d224d3233342034343443323334203435372e393439203234322e323120343633203235332034363322202f3e\n    data_4e169cb09c58f4c64bb0df0614abdbc124a0076dcd8783c87e43cbd0d73facd1 3c6d61736b2069643d226e6f6e6522206d61736b436f6e74656e74556e6974733d226f626a656374426f756e64696e67426f78223e3c726563742077696474683d223122206865696768743d2231222066696c6c3d22776869746522202f3e3c2f6d61736b3e\n    data_53fd26dadfe66b5102855d57af8e557a2267beae8def1e64f35bbd9a2d281ff9 2220783d223070782220793d22307078222077696474683d22323930707822206865696768743d22353030707822202f3e\n    data_5ac049306c61d2605d500baef9423dd59101a8acd4643a030e0b4b8780979a7f 203c616e696d6174652061646469746976653d2273756d22206174747269627574654e616d653d2273746172744f6666736574222066726f6d3d2230252220746f3d22313030252220626567696e3d22307322206475723d223330732220726570656174436f756e743d22696e646566696e69746522202f3e\n    data_5bc1bf3d11aae697778119ef346ad4842b7aeee3b48245084fb03eaf191c89a0 3c7465787420783d22313270782220793d22313770782220666f6e742d66616d696c793d2227436f7572696572204e6577272c206d6f6e6f73706163652220666f6e742d73697a653d2231327078222066696c6c3d227768697465223e3c747370616e2066696c6c3d2272676261283235352c3235352c3235352c302e3629223e4d696e205469636b3a203c2f747370616e3e\n    data_5c021e382e7c7104a13e2471955db1e88164a0a2701d8def1c530fbda61a37dc 3c74657874506174682073746172744f66667365743d222d31303025222066696c6c3d2277686974652220666f6e742d66616d696c793d2227436f7572696572204e6577272c206d6f6e6f73706163652220666f6e742d73697a653d22313070782220786c696e6b3a687265663d2223746578742d706174682d61223e\n    data_5d5eff5a3ee8c17e11f3f4661e6d1155f39e626dc52ccd2ee80907a3b00329d4 3c6c696e6561724772616469656e742069643d22677261642d646f776e222078313d2230222078323d2231222079313d2230222079323d2231223e3c73746f70206f66667365743d22302e30222073746f702d636f6c6f723d227768697465222073746f702d6f7061636974793d223122202f3e3c73746f70206f66667365743d22302e39222073746f702d636f6c6f723d227768697465222073746f702d6f7061636974793d223022202f3e3c2f6c696e6561724772616469656e743e\n    data_5f5eeeecaa6e9906b36c9738130fb3306daeecaf7d327c054480dbfce019ef56 3c66696c7465722069643d226631223e3c6665496d61676520726573756c743d2270302220786c696e6b3a687265663d22646174613a696d6167652f7376672b786d6c3b6261736536342c\n    data_6d360492c387efc9efda370d7689d5bdc8d71342f56e5194b111ebf036750734 3c7376672077696474683d2732393027206865696768743d27353030272076696577426f783d2730203020323930203530302720786d6c6e733d27687474703a2f2f7777772e77332e6f72672f323030302f737667273e3c726563742077696474683d27323930707827206865696768743d273530307078272066696c6c3d2723\n    data_735ef1ca53a2b4f5317a913b38868565c310f491134932b2790ac296eda48267 222f3e3c6665496d61676520726573756c743d2270322220786c696e6b3a687265663d22646174613a696d6167652f7376672b786d6c3b6261736536342c\n    data_79d1157f01e06698bf30fbcaee454ea514c61e81bedfc1aec9b48b048d03b463 3c656c6c697073652063783d22353025222063793d22307078222072783d223138307078222072793d223132307078222066696c6c3d222330303022206f7061636974793d22302e383522202f3e3c2f673e\n    data_800ca0756ff976e45c222900c67e79662594eea8a3ec66e3bbb8af53bd09f4e4 707822206865696768743d2232367078222072783d22387078222072793d22387078222066696c6c3d227267626128302c302c302c302e362922202f3e\n    data_805d2dfd72788fbd262dae04ab03ec6490a808b57ad0f61b37e39bca57c9434b 70782220723d22347078222066696c6c3d22776869746522202f3e3c636972636c652063783d22\n    data_80e2be066469ac86e096e4a497c1f8a9fc0d1b11356ae8a905f38331737d0215 31312e333437384c32342031324c31342e343334312031322e363532324c32322e333932332031384c31332e373831392031332e373831394c31382032322e333932334c31322e363532322031342e343334314c31322032344c31312e333437382031342e343334314c362032322e3339\n    data_8341c95578aab9bb12f989782d4cab355e9933e289241d0b82aafe9fda945df1 3c726563742066696c6c3d226e6f6e652220783d223070782220793d22307078222077696474683d22323930707822206865696768743d22353030707822202f3e\n    data_84d8a590de33e00cbdc16e1f28c3506f5ec15c599fab9a6a4bcd575cc2f110ce 4142434445464748494a4b4c4d4e4f505152535455565758595a6162636465666768696a6b6c6d6e6f707172737475767778797a303132333435363738392b2f\n    data_84f36e7e631ec50512631a7d2b642e3c86e37c99d02e185264181ea0fe53feba 20786d6c6e733a786c696e6b3d27687474703a2f2f7777772e77332e6f72672f313939392f786c696e6b273e\n    data_870e80063d91f6eff2750dd8a16316f934ba72da9e645a88b6f89454be1f4aef 3c6c696e6561724772616469656e742069643d22677261642d73796d626f6c223e3c73746f70206f66667365743d22302e37222073746f702d636f6c6f723d227768697465222073746f702d6f7061636974793d223122202f3e3c73746f70206f66667365743d222e3935222073746f702d636f6c6f723d227768697465222073746f702d6f7061636974793d223022202f3e3c2f6c696e6561724772616469656e743e\n    data_8d38c449c54623af115300f0b4cd575c9ad248d96fa963ffbc8a5d10a537195e 207374796c653d227472616e73666f726d3a7472616e736c61746528373270782c313839707829223e3c7265637420783d222d313670782220793d222d31367078222077696474683d22313830707822206865696768743d223138307078222066696c6c3d226e6f6e6522202f3e3c7061746820643d22\n    data_8e24499475377ebfea88a8b66ad4852ff14fea8d70bdbc3a7eceb1a729240226 207374796c653d227472616e73666f726d3a7472616e736c61746528373270782c313839707829223e\n    data_8f39c2ef49d5b31ddb2a6f4b9d03a6a799196af85cc95b7c0148ca8f2d6c3143 70782220723d2232347078222066696c6c3d226e6f6e6522207374726f6b653d22776869746522202f3e\n    data_8f43f63d6c112f03be0e24ed0ecb0994a71907eacdd7bbe72850d1059fbd6fa7 3c7265637420783d222d313670782220793d222d31367078222077696474683d22313830707822206865696768743d223138307078222066696c6c3d226e6f6e6522202f3e\n    data_9146626b6016e55f44ab5e9e5bfcf47636d35086d1ea0e9bce56b7a6f4831ef4 3c673e3c70617468207374796c653d227472616e73666f726d3a7472616e736c617465283670782c367078292220643d224d313220304c31322e3635323220392e35363538374c313820312e363037374c31332e373831392031302e323138314c32322e3339323320364c31342e3433343120\n    data_9172aa3905273de2038748a8a21d4c0caf162952597ab7af5f83d1a3c63cec1a 3c70617468207374726f6b652d6c696e656361703d22726f756e642220643d224d38203943382e30303030342032322e393439342031362e32303939203238203237203238222066696c6c3d226e6f6e6522207374726f6b653d22776869746522202f3e\n    data_9421d2b325b171273133fcca90ccbe277797196ba10501e62827c87ba1f00867 20726570656174436f756e743d22696e646566696e69746522202f3e3c2f74657874506174683e3c74657874506174682073746172744f66667365743d222d353025222066696c6c3d2277686974652220666f6e742d66616d696c793d2227436f7572696572204e6577272c206d6f6e6f73706163652220666f6e742d73697a653d22313070782220786c696e6b3a687265663d2223746578742d706174682d61223e\n    data_9981a2a43c36ee7e45e960c26200a8b379d01168693d5029bb6fd776ef3ff2b1 3c6d61736b2069643d22666164652d646f776e22206d61736b436f6e74656e74556e6974733d226f626a656374426f756e64696e67426f78223e3c726563742077696474683d223122206865696768743d2231222066696c6c3d2275726c2823677261642d646f776e2922202f3e3c2f6d61736b3e\n    data_9bb25be920b258880439ec0b834ec0e12e09bcc9295c9fb6ea92333a2947269b 22207374726f6b653d2272676261283235352c3235352c3235352c3129222066696c6c3d226e6f6e6522207374726f6b652d6c696e656361703d22726f756e6422202f3e3c2f673e\n    data_9f99c7530ff67b359dedbad02f868664b6089e4d686e89626dd44608ff6aab0f 696e3d22626c656e644f75742220737464446576696174696f6e3d22343222202f3e3c2f66696c7465723e203c636c6970506174682069643d22636f726e657273223e3c726563742077696474683d2232393022206865696768743d22353030222072783d223432222072793d22343222202f3e3c2f636c6970506174683e\n    data_a1d35662f193c8dca60ea626415bf453b6eb6f19f995eb4e725506bddb1c9b3c 203c67207374796c653d227472616e73666f726d3a7472616e736c61746528323970782c20333834707829223e\n    data_a48f5f7836be870d77eac2feb87ec3732b4080b65a510a3f3cf11dab86d57166 3c6c696e6561724772616469656e742069643d22677261642d7570222078313d2231222078323d2230222079313d2231222079323d2230223e3c73746f70206f66667365743d22302e30222073746f702d636f6c6f723d227768697465222073746f702d6f7061636974793d223122202f3e\n    data_b5bc46fc2ed1d11f843f24feabdc206cab85902b15b95b355214f44b7cfde8e7 32334c31302e323138312031332e373831394c312e363037372031384c392e35363538372031322e363532324c302031324c392e35363538372031312e333437384c312e3630373720364c31302e323138312031302e323138314c3620312e363037374c31312e3334373820392e35363538374c313220305a222066696c6c3d22776869746522202f3e\n    data_b620537f4b9141f0600bc5c47da368c069fd5940c0d18c49f45f4f60c38c7276 3c67207374796c653d227472616e73666f726d3a7472616e736c6174652832323670782c20333932707829223e3c726563742077696474683d223336707822206865696768743d2233367078222072783d22387078222072793d22387078222066696c6c3d226e6f6e6522207374726f6b653d2272676261283235352c3235352c3235352c302e322922202f3e\n    data_bba7d0e9c87f4fc07285d3901f65b11169f0a648c5503e2a93e1438c905d75bd 3c74657874506174682073746172744f66667365743d22353025222066696c6c3d2277686974652220666f6e742d66616d696c793d2227436f7572696572204e6577272c206d6f6e6f73706163652220666f6e742d73697a653d22313070782220786c696e6b3a687265663d2223746578742d706174682d61223e\n    data_bef0de1b6ab64a87365883910640202cc923019a0642c3dc3ce8c92f70e2aec2 3c7465787420783d22313270782220793d22313770782220666f6e742d66616d696c793d2227436f7572696572204e6577272c206d6f6e6f73706163652220666f6e742d73697a653d2231327078222066696c6c3d227768697465223e3c747370616e2066696c6c3d2272676261283235352c3235352c3235352c302e3629223e4d6178205469636b3a203c2f747370616e3e\n    data_c4a75554270cae0d3a87478224f34b210600c80765754e633311ca3866647bf9 3c616e696d6174655472616e73666f726d206174747269627574654e616d653d227472616e73666f726d2220747970653d22726f74617465222066726f6d3d22302031382031382220746f3d2233363020313820313822206475723d223130732220726570656174436f756e743d22696e646566696e697465222f3e3c2f673e3c2f673e\n    data_c5b5eb1e85523a3353e56e3248818f208aaa79b1a09fe2e08149ce0068d90fe9 3c706174682069643d22746578742d706174682d612220643d224d34302031322048323530204132382032382030203020312032373820343020563436302041323820323820302030203120323530203438382048343020413238203238203020302031203132203436302056343020413238203238203020302031203430203132207a22202f3e\n    data_c8625c4ff6c954b2db14bd1706ddcdc7c7bbd2e8489b900eeea309e5e9154d1f 222f3e3c6665496d61676520726573756c743d2270312220786c696e6b3a687265663d22646174613a696d6167652f7376672b786d6c3b6261736536342c\n    data_ca0f24c57a59db85f494ba6c0b8c49c5859b9cc88ba864c52bba19e858e653dd 3c6d61736b2069643d22666164652d73796d626f6c22206d61736b436f6e74656e74556e6974733d227573657253706163654f6e557365223e3c726563742077696474683d22323930707822206865696768743d223230307078222066696c6c3d2275726c2823677261642d73796d626f6c2922202f3e3c2f6d61736b3e3c2f646566733e\n    data_ca91dbc17e7b32a20d9c61bf3a31fc39e1843cdda3f9b6d132c3190c832ad888 3c7265637420783d22302220793d2230222077696474683d2232393022206865696768743d22353030222072783d223432222072793d223432222066696c6c3d227267626128302c302c302c302922207374726f6b653d2272676261283235352c3235352c3235352c302e322922202f3e3c2f673e\n    data_cce19a9de29f73714bae13db1d73ac08b59c78313444c83363cfef09d838c0c4 3c66696c7465722069643d22746f702d726567696f6e2d626c7572223e3c6665476175737369616e426c757220696e3d22536f75726365477261706869632220737464446576696174696f6e3d22323422202f3e3c2f66696c7465723e\n    data_dd2dd1ce2446da3135b69075c1bfb5ae217a66fb97ea23bbfa9101533f005eee 3c2f74657874506174683e203c74657874506174682073746172744f66667365743d223025222066696c6c3d2277686974652220666f6e742d66616d696c793d2227436f7572696572204e6577272c206d6f6e6f73706163652220666f6e742d73697a653d22313070782220786c696e6b3a687265663d2223746578742d706174682d61223e\n    data_def1de1dcd58e9459a64156d5380ddffd45a29faa565a4062a201283a4b86c28 3c7465787420746578742d72656e646572696e673d226f7074696d697a655370656564223e\n    data_e0b4a009558fed53d8b93645952b1120d122982ebf4ca4d1136598e7708bf775 3c7265637420783d2231362220793d223136222077696474683d2232353822206865696768743d22343638222072783d223236222072793d223236222066696c6c3d227267626128302c302c302c302922207374726f6b653d2272676261283235352c3235352c3235352c302e322922202f3e\n    data_e48f616382bc4db7da9436f22e091c88340d840be14446bdcabee6fb3c9ef913 3c7465787420783d22313270782220793d22313770782220666f6e742d66616d696c793d2227436f7572696572204e6577272c206d6f6e6f73706163652220666f6e742d73697a653d2231327078222066696c6c3d227768697465223e3c747370616e2066696c6c3d2272676261283235352c3235352c3235352c302e3629223e49443a203c2f747370616e3e\n    data_ec66f735b9269156d2621c7cb2e179cbb93736ea6dfc7db8bdd4441a81eb1f64 3c726563742077696474683d223336707822206865696768743d2233367078222072783d22387078222072793d22387078222066696c6c3d226e6f6e6522207374726f6b653d2272676261283235352c3235352c3235352c302e322922202f3e\n    data_f6a4c28d3a8f91939e9dde8d20603d72bf408bb3a4810ebf3bb6c06742d8297b 3c2f746578743e3c7465787420793d2231313570782220783d2233327078222066696c6c3d2277686974652220666f6e742d66616d696c793d2227436f7572696572204e6577272c206d6f6e6f73706163652220666f6e742d7765696768743d223230302220666f6e742d73697a653d2233367078223e\n    data_f779b01e2c11d50446559da8a96e840c35be2177455b0699985122c52b0d1f4e 3c2f746578743e3c2f673e3c67207374796c653d227472616e73666f726d3a7472616e736c6174652832323670782c20343333707829223e\n    data_fab582159965dc3537eef15a4898cfd495cdf6178ad5c39fe4f14de95021bcdd 203c67207374796c653d227472616e73666f726d3a7472616e736c61746528323970782c20343134707829223e\n\n    auxdata: 0xa164736f6c6343000706000a\n}\n","bytecode":{"linkReferences":{},"object":"61682e62000027600b82828239805160001a60731461001a57fe5b30600052607381538281f3fe73000000000000000000000000000000000000000030146080604052600436106100355760003560e01c8063c49917d71461003a575b600080fd5b61004d610048366004614730565b610063565b60405161005a9190614ee0565b60405180910390f35b6060600061007e83610079856101800151610170565b6103d1565b905060006100b2610092856060015161048c565b61009f866080015161048c565b6100ad876101a001516106ac565b6106cf565b905060006101006100c68660000151610701565b6100d3876080015161048c565b6100e088602001516106ac565b6100ed89604001516106ac565b6100fb8a6101800151610170565b610810565b9050600061011561011087610846565b610b10565b9050610145848484846040516020016101319493929190614b24565b604051602081830303815290604052610b10565b6040516020016101559190614e9b565b6040516020818303038152906040529450505050505b919050565b606062ffffff82166101b6575060408051808201909152600281527f3025000000000000000000000000000000000000000000000000000000000000602082015261016b565b816000805b62ffffff8316156102065760ff8116156101d7576001016101f0565b600a62ffffff84160662ffffff166000146101f0576001015b600190910190600a62ffffff84160492506101bb565b61020e61461d565b60006005841061030357600060046102298660ff8716610f16565b1015610236576001610239565b60005b60ff908116915061024d9085166001610f16565b610258866005610f16565b106102845761027f61026e60ff86166001610f16565b610279876005610f16565b90610f16565b610287565b60005b60ff8516608085018190529092506102a6906001906102799085610f2b565b60ff90811660a085015260808401516102cd9183916102c791166001610f16565b90610f2b565b60ff90811660408501526102f59082906102c7906102ee9088166001610f2b565b8590610f2b565b60ff16602084015250610373565b61030e600585610f16565b60026080840181905290915061032c90600190610279908490610f2b565b60ff90811660a084015261034e906103479085166002610f2b565b8290610f2b565b60ff1660208301819052610363906002610f16565b60ff166040830152600160c08301525b6103926103838560ff8616610f16565b62ffffff891690600a0a610f3d565b8252600160e0830152600484116103aa5760006103b5565b6103b5846004610f16565b60ff1660608301526103c682610f5c565b979650505050505050565b6060816103e1846060015161048c565b6103ee856080015161048c565b6104278660e00151156104065786610120015161040d565b8661010001515b8761016001518860c001518960a001518a60e0015161126c565b6104608760e001511561043f57876101000151610446565b8761012001515b8861016001518960c001518a60a001518b60e0015161126c565b604051602001610474959493929190614c4b565b60405160208183030381529060405290505b92915050565b6060816000805b82518160ff16101561050c57828160ff16815181106104ae57fe5b6020910101517fff00000000000000000000000000000000000000000000000000000000000000167f22000000000000000000000000000000000000000000000000000000000000001415610504576001909101905b600101610493565b5060ff8116156106a45760008160ff1683510167ffffffffffffffff8111801561053557600080fd5b506040519080825280601f01601f191660200182016040528015610560576020820181803683370190505b5090506000805b84518160ff16101561069757848160ff168151811061058257fe5b6020910101517fff00000000000000000000000000000000000000000000000000000000000000167f22000000000000000000000000000000000000000000000000000000000000001415610634577f5c0000000000000000000000000000000000000000000000000000000000000083838060010194508151811061060457fe5b60200101907effffffffffffffffffffffffffffffffffffffffffffffffffffffffffffff1916908160001a9053505b848160ff168151811061064357fe5b602001015160f81c60f81b83838060010194508151811061066057fe5b60200101907effffffffffffffffffffffffffffffffffffffffffffffffffffffffffffff1916908160001a905350600101610567565b508194505050505061016b565b509192915050565b606061048673ffffffffffffffffffffffffffffffffffffffff83166014611427565b6060838383866040516020016106e894939291906149a1565b60405160208183030381529060405290505b9392505050565b606081610742575060408051808201909152600181527f3000000000000000000000000000000000000000000000000000000000000000602082015261016b565b8160005b811561075a57600101600a82049150610746565b60008167ffffffffffffffff8111801561077357600080fd5b506040519080825280601f01601f19166020018201604052801561079e576020820181803683370190505b50859350905060001982015b831561080757600a840660300160f81b828280600190039350815181106107cd57fe5b60200101907effffffffffffffffffffffffffffffffffffffffffffffffffffffffffffff1916908160001a905350600a840493506107aa565b50949350505050565b6060838584848960405160200161082b959493929190614d68565b60405160208183030381529060405290505b95945050505050565b60606000604051806102a0016040528061086385602001516106ac565b815260200161087585604001516106ac565b8152602001846101a0015173ffffffffffffffffffffffffffffffffffffffff16815260200184606001518152602001846080015181526020016108bd856101800151610170565b815260200184610100015160020b815260200184610120015160020b815260200184610160015160020b81526020016109068561010001518661012001518761014001516115cb565b60000b81526020018460000151815260200161093d856020015173ffffffffffffffffffffffffffffffffffffffff166088611602565b8152602001610967856040015173ffffffffffffffffffffffffffffffffffffffff166088611602565b8152602001610991856020015173ffffffffffffffffffffffffffffffffffffffff166000611602565b81526020016109bb856040015173ffffffffffffffffffffffffffffffffffffffff166000611602565b81526020016109fb6109ed866020015173ffffffffffffffffffffffffffffffffffffffff1660108860000151611611565b600060ff6010610112611631565b8152602001610a3b610a2d866040015173ffffffffffffffffffffffffffffffffffffffff1660108860000151611611565b600060ff60646101e4611631565b8152602001610a6d6109ed866020015173ffffffffffffffffffffffffffffffffffffffff1660208860000151611611565b8152602001610a9f610a2d866040015173ffffffffffffffffffffffffffffffffffffffff1660208860000151611611565b8152602001610ad16109ed866020015173ffffffffffffffffffffffffffffffffffffffff1660308860000151611611565b8152602001610b03610a2d866040015173ffffffffffffffffffffffffffffffffffffffff1660308860000151611611565b905290506106fa81611679565b805160609080610b3057505060408051602081019091526000815261016b565b6004600360028301040260008167ffffffffffffffff81118015610b5357600080fd5b506040519080825280601f01601f191660200182016040528015610b7e576020820181803683370190505b5090506000805b84821015610dd0576000878381518110610b9b57fe5b016020015160019093019260f81c905085831015610bd0576008888481518110610bc157fe5b016020015160f81c901b60ff16175b60019092019185831015610bfb576010888481518110610bec57fe5b016020015160f81c901b60ff16175b6040805160608101825281815260019094019390615b016020830139601282901c603f1681518110610c2957fe5b602001015160f81c60f81b848381518110610c4057fe5b60200101907effffffffffffffffffffffffffffffffffffffffffffffffffffffffffffff1916908160001a905350604051806060016040528060408152602001615b0160409139600c82901c603f1681518110610c9a57fe5b602001015160f81c60f81b848360010181518110610cb457fe5b60200101907effffffffffffffffffffffffffffffffffffffffffffffffffffffffffffff1916908160001a905350604051806060016040528060408152602001615b0160409139600682901c603f1681518110610d0e57fe5b602001015160f81c60f81b848360020181518110610d2857fe5b60200101907effffffffffffffffffffffffffffffffffffffffffffffffffffffffffffff1916908160001a905350604051806060016040528060408152602001615b016040913981603f1681518110610d7e57fe5b602001015160f81c60f81b848360030181518110610d9857fe5b60200101907effffffffffffffffffffffffffffffffffffffffffffffffffffffffffffff1916908160001a90535050600401610b85565b6003850660011415610e9f577f3d00000000000000000000000000000000000000000000000000000000000000836002860381518110610e0c57fe5b60200101907effffffffffffffffffffffffffffffffffffffffffffffffffffffffffffff1916908160001a9053507f3d00000000000000000000000000000000000000000000000000000000000000836001860381518110610e6b57fe5b60200101907effffffffffffffffffffffffffffffffffffffffffffffffffffffffffffff1916908160001a905350610f0b565b6003850660021415610f0b577f3d00000000000000000000000000000000000000000000000000000000000000836001860381518110610edb57fe5b60200101907effffffffffffffffffffffffffffffffffffffffffffffffffffffffffffff1916908160001a9053505b509095945050505050565b600082821115610f2557600080fd5b50900390565b6000828201838110156106fa57600080fd5b6000808211610f4b57600080fd5b818381610f5457fe5b049392505050565b60606000826020015160ff1667ffffffffffffffff81118015610f7e57600080fd5b506040519080825280601f01601f191660200182016040528015610fa9576020820181803683370190505b5090508260e0015115611017577f250000000000000000000000000000000000000000000000000000000000000081600183510381518110610fe757fe5b60200101907effffffffffffffffffffffffffffffffffffffffffffffffffffffffffffff1916908160001a9053505b8260c00151156110dc577f30000000000000000000000000000000000000000000000000000000000000008160008151811061104f57fe5b60200101907effffffffffffffffffffffffffffffffffffffffffffffffffffffffffffff1916908160001a9053507f2e00000000000000000000000000000000000000000000000000000000000000816001815181106110ac57fe5b60200101907effffffffffffffffffffffffffffffffffffffffffffffffffffffffffffff1916908160001a9053505b608083015160ff165b60a08401516110f89060ff166001610f2b565b81101561114757603060f81b82828151811061111057fe5b60200101907effffffffffffffffffffffffffffffffffffffffffffffffffffffffffffff1916908160001a9053506001016110e5565b505b825115610486576000836060015160ff161180156111745750826060015160ff16836040015160ff16145b156111eb5760408301805160ff6000198201811690925282517f2e00000000000000000000000000000000000000000000000000000000000000928492169081106111bb57fe5b60200101907effffffffffffffffffffffffffffffffffffffffffffffffffffffffffffff1916908160001a9053505b82516111fd90603090600a9006610f2b565b60f81b818460400180518091906001900360ff1660ff1681525060ff168151811061122457fe5b60200101907effffffffffffffffffffffffffffffffffffffffffffffffffffffffffffff1916908160001a905350600a836000018181518161126357fe5b04905250611149565b606084600281900b7ffffffffffffffffffffffffffffffffffffffffffffffffffffffffffff276188161129c57fe5b050260020b8660020b141561132a5781156112ec576040518060400160405280600381526020017f4d41580000000000000000000000000000000000000000000000000000000000815250611323565b6040518060400160405280600381526020017f4d494e00000000000000000000000000000000000000000000000000000000008152505b905061083d565b84600281900b620d89e88161133b57fe5b050260020b8660020b14156113c557811561138b576040518060400160405280600381526020017f4d494e0000000000000000000000000000000000000000000000000000000000815250611323565b5060408051808201909152600381527f4d41580000000000000000000000000000000000000000000000000000000000602082015261083d565b60006113d087611926565b9050821561141457611411780100000000000000000000000000000000000000000000000073ffffffffffffffffffffffffffffffffffffffff8316610f3d565b90505b61141f818686611c39565b91505061083d565b606060008260020260020167ffffffffffffffff8111801561144857600080fd5b506040519080825280601f01601f191660200182016040528015611473576020820181803683370190505b5090507f3000000000000000000000000000000000000000000000000000000000000000816000815181106114a457fe5b60200101907effffffffffffffffffffffffffffffffffffffffffffffffffffffffffffff1916908160001a9053507f78000000000000000000000000000000000000000000000000000000000000008160018151811061150157fe5b60200101907effffffffffffffffffffffffffffffffffffffffffffffffffffffffffffff1916908160001a905350600160028402015b60018111156115bf577f303132333435363738396162636465660000000000000000000000000000000085600f166010811061157057fe5b1a60f81b82828151811061158057fe5b60200101907effffffffffffffffffffffffffffffffffffffffffffffffffffffffffffff1916908160001a90535060049490941c9360001901611538565b5083156106fa57600080fd5b60008360020b8260020b12156115e457506000196106fa565b8260020b8260020b13156115fa575060016106fa565b5060006106fa565b60606106fa83831c6003611e21565b600060ff826116208686611f00565b028161162857fe5b06949350505050565b606061166f61166a846102c7611647888a610f16565b611664611654888a610f16565b61165e8d8d610f16565b90611f07565b90610f3d565b610701565b9695505050505050565b606061168482611f2e565b6116a08360000151846020015185606001518660800151612638565b6116b7846060015185608001518660a001516129c3565b6116d58560c001518660e00151876101000151886101200151612b41565b6116f56116e6876101400151610701565b8760c001518860e00151612eca565b611708876101400151886040015161334f565b6040516020018087805190602001908083835b6020831061173a5780518252601f19909201916020918201910161171b565b51815160209384036101000a600019018019909216911617905289519190930192890191508083835b602083106117825780518252601f199092019160209182019101611763565b51815160209384036101000a600019018019909216911617905288519190930192880191508083835b602083106117ca5780518252601f1990920191602091820191016117ab565b51815160209384036101000a600019018019909216911617905287519190930192870191508083835b602083106118125780518252601f1990920191602091820191016117f3565b51815160209384036101000a600019018019909216911617905286519190930192860191508083835b6020831061185a5780518252601f19909201916020918201910161183b565b51815160209384036101000a600019018019909216911617905285519190930192850191508083835b602083106118a25780518252601f199092019160209182019101611883565b5181516020939093036101000a60001901801990911692169190911790527f3c2f7376673e0000000000000000000000000000000000000000000000000000920191825250604080518083037fffffffffffffffffffffffffffffffffffffffffffffffffffffffffffffffe6018152600690920190529998505050505050505050565b60008060008360020b1261193d578260020b611945565b8260020b6000035b9050620d89e881111561195757600080fd5b6000600182166119785770010000000000000000000000000000000061198a565b6ffffcb933bd6fad37aa2d162d1a5940015b70ffffffffffffffffffffffffffffffffff16905060028216156119be576ffff97272373d413259a46990580e213a0260801c5b60048216156119dd576ffff2e50f5f656932ef12357cf3c7fdcc0260801c5b60088216156119fc576fffe5caca7e10e4e61c3624eaa0941cd00260801c5b6010821615611a1b576fffcb9843d60f6159c9db58835c9266440260801c5b6020821615611a3a576fff973b41fa98c081472e6896dfb254c00260801c5b6040821615611a59576fff2ea16466c96a3843ec78b326b528610260801c5b6080821615611a78576ffe5dee046a99a2a811c461f1969c30530260801c5b610100821615611a98576ffcbe86c7900a88aedcffc83b479aa3a40260801c5b610200821615611ab8576ff987a7253ac413176f2b074cf7815e540260801c5b610400821615611ad8576ff3392b0822b70005940c7a398e4b70f30260801c5b610800821615611af8576fe7159475a2c29b7443b29c7fa6e889d90260801c5b611000821615611b18576fd097f3bdfd2022b8845ad8f792aa58250260801c5b612000821615611b38576fa9f746462d870fdf8a65dc1f90e061e50260801c5b614000821615611b58576f70d869a156d2a1b890bb3df62baf32f70260801c5b618000821615611b78576f31be135f97d08fd981231505542fcfa60260801c5b62010000821615611b99576f09aa508b5b7a84e1c677de54f3e99bc90260801c5b62020000821615611bb9576e5d6af8dedb81196699c329225ee6040260801c5b62040000821615611bd8576d2216e584f5fa1ea926041bedfe980260801c5b62080000821615611bf5576b048a170391f7dc42444e8fa20260801c5b60008460020b1315611c10578060001981611c0c57fe5b0490505b640100000000810615611c24576001611c27565b60005b60ff16602082901c0192505050919050565b60606000611c488585856133c7565b90506000611c6082836801000000000000000061350a565b90506c0100000000000000000000000082108015611cae57611ca78272047bf19673df52e37f2410011d10000000000070010000000000000000000000000000000061350a565b9150611cd0565b611ccd82620186a070010000000000000000000000000000000061350a565b91505b8160005b8115611ce857600101600a82049150611cd4565b60001901600080611cf986846135b9565b915091508015611d0a576001909201915b611d1261461d565b8515611d7f57611d31611d29602b60ff8716610f16565b600790610f2b565b60ff908116602083015260026080830152611d57906001906102c790602b908816610f16565b60ff90811660a08301526020820151611d7291166001610f16565b60ff166040820152611df6565b60098460ff1610611dc857611d9860ff85166004610f16565b60ff166020820181905260056080830152611db4906001610f16565b60ff1660a082015260046040820152611df6565b60066020820152600560408201819052611ded906001906102c79060ff881690610f16565b60ff1660608201525b82815285151560c0820152600060e0820152611e1181610f5c565b9c9b505050505050505050505050565b606060008260020267ffffffffffffffff81118015611e3f57600080fd5b506040519080825280601f01601f191660200182016040528015611e6a576020820181803683370190505b5080519091505b8015611ef8577f303132333435363738396162636465660000000000000000000000000000000085600f1660108110611ea657fe5b1a60f81b826001830381518110611eb957fe5b60200101907effffffffffffffffffffffffffffffffffffffffffffffffffffffffffffff1916908160001a90535060049490941c9360001901611e71565b509392505050565b1c60ff1690565b600082611f1657506000610486565b82820282848281611f2357fe5b04146106fa57600080fd5b6060611fd782610160015160405160200180806158da6081913960810182805190602001908083835b60208310611f765780518252601f199092019160209182019101611f57565b6001836020036101000a038019825116818451168082178552505050505050905001807f272f3e3c2f7376673e0000000000000000000000000000000000000000000000815250600901915050604051602081830303815290604052610b10565b61216e836101e0015184610200015185610180015160405160200180806154176063913960630184805190602001908083835b602083106120295780518252601f19909201916020918201910161200a565b51815160209384036101000a60001901801990921691161790527f272063793d270000000000000000000000000000000000000000000000000000919093019081528551600690910192860191508083835b6020831061209a5780518252601f19909201916020918201910161207b565b51815160209384036101000a60001901801990921691161790527f2720723d273132307078272066696c6c3d272300000000000000000000000000919093019081528451601390910192850191508083835b6020831061210b5780518252601f1990920191602091820191016120ec565b6001836020036101000a038019825116818451168082178552505050505050905001807f272f3e3c2f7376673e00000000000000000000000000000000000000000000008152506009019350505050604051602081830303815290604052610b10565b6121bf846102200151856102400151866101a001516040516020018080615417606391396063018480519060200190808383602083106120295780518252601f19909201916020918201910161200a565b6122f5856102600151866102800151876101c0015160405160200180806154176063913960630184805190602001908083835b602083106122115780518252601f1990920191602091820191016121f2565b51815160209384036101000a60001901801990921691161790527f272063793d270000000000000000000000000000000000000000000000000000919093019081528551600690910192860191508083835b602083106122825780518252601f199092019160209182019101612263565b51815160001960209485036101000a019081169019919091161790527f2720723d273130307078272066696c6c3d27230000000000000000000000000093909101928352845160139093019290850191508083836020831061210b5780518252601f1990920191602091820191016120ec565b6101608601516040516020018060566151928239605601602c615b4182397f3c646566733e0000000000000000000000000000000000000000000000000000602c820152603201604b61588f8239604b0186805190602001908083835b602083106123715780518252601f199092019160209182019101612352565b6001836020036101000a038019825116818451168082178552505050505050905001806163a6603e9139603e0185805190602001908083835b602083106123c95780518252601f1990920191602091820191016123aa565b6001836020036101000a0380198251168184511680821785525050505050509050018061595b603e9139603e0184805190602001908083835b602083106124215780518252601f199092019160209182019101612402565b5181516020939093036101000a60001901801990911692169190911790527f22202f3e00000000000000000000000000000000000000000000000000000000920191825250600401603b61508a8239603b0183805190602001908083835b6020831061249e5780518252601f19909201916020918201910161247f565b6001836020036101000a038019825116818451168082178552505050505050905001806154d760999139609901607f615f578239607f01608861631e823960880160416155708239604101605d6164de8239605d01607261600382396072016049614ff3823960490160be6157d1823960be0160716152a382396071016075615e9a823960750160666155b1823960660160a4615b6d823960a40160856163e482397f3c6720636c69702d706174683d2275726c2823636f726e65727329223e00000060858201527f3c726563742066696c6c3d22000000000000000000000000000000000000000060a2820152825160ae9091019060208401908083835b602083106125bc5780518252601f19909201916020918201910161259d565b6001836020036101000a0380198251168184511680821785525050505050509050018061561760319139603101604e61503c8239604e01605d61547a8239605d016041615ac082396041016052615999823960520160756164698239607501955050505050506040516020818303038152906040529050919050565b60608382858488878a8960405160200180806165c160259139602501607d6157548239607d0189805190602001908083835b602083106126895780518252601f19909201916020918201910161266a565b51815160209384036101000a60001901801990921691161790527f20e280a220000000000000000000000000000000000000000000000000000000919093019081528a516005909101928b0191508083835b602083106126fa5780518252601f1990920191602091820191016126db565b6001836020036101000a0380198251168184511680821785525050505050509050018061564860799139607901608661653b823960860187805190602001908083835b6020831061275c5780518252601f19909201916020918201910161273d565b51815160209384036101000a60001901801990921691161790527f20e280a220000000000000000000000000000000000000000000000000000000919093019081528851600590910192890191508083835b602083106127cd5780518252601f1990920191602091820191016127ae565b6001836020036101000a0380198251168184511680821785525050505050509050018061521e60859139608501607b61618c8239607b0185805190602001908083835b6020831061282f5780518252601f199092019160209182019101612810565b51815160209384036101000a60001901801990921691161790527f20e280a220000000000000000000000000000000000000000000000000000000919093019081528651600590910192870191508083835b602083106128a05780518252601f199092019160209182019101612881565b6001836020036101000a03801982511681845116808217855250505050505090500180615368605d9139605d0160a3615df7823960a30183805190602001908083835b602083106129025780518252601f1990920191602091820191016128e3565b51815160209384036101000a60001901801990921691161790527f20e280a220000000000000000000000000000000000000000000000000000000919093019081528451600590910192850191508083835b602083106129735780518252601f199092019160209182019101612954565b6001836020036101000a03801982511681845116808217855250505050505090500180614f68608b9139608b01985050505050505050506040516020818303038152906040529050949350505050565b606083838360405160200180806150c560cd913960cd0184805190602001908083835b60208310612a055780518252601f1990920191602091820191016129e6565b6001836020036101000a038019825116818451168082178552505050505050905001807f2f0000000000000000000000000000000000000000000000000000000000000081525060010183805190602001908083835b60208310612a7a5780518252601f199092019160209182019101612a5b565b6001836020036101000a038019825116818451168082178552505050505050905001806167466077913960770182805190602001908083835b60208310612ad25780518252601f199092019160209182019101612ab3565b5181516020939093036101000a60001901801990911692169190911790527f3c2f746578743e3c2f673e000000000000000000000000000000000000000000920191825250600b0160736165e68239607301935050505060405160208183030381529060405290509392505050565b606060008260000b600114612bd3578260000b60001914612b97576040518060400160405280600581526020017f236e6f6e65000000000000000000000000000000000000000000000000000000815250612bce565b6040518060400160405280600a81526020017f23666164652d646f776e000000000000000000000000000000000000000000008152505b612c0a565b6040518060400160405280600881526020017f23666164652d75700000000000000000000000000000000000000000000000008152505b90506000612c19878787613648565b905081818383612c2888613896565b60405160200180807f3c67206d61736b3d2275726c2800000000000000000000000000000000000000815250600d0186805190602001908083835b60208310612c825780518252601f199092019160209182019101612c63565b5181516020939093036101000a60001901801990911692169190911790527f29220000000000000000000000000000000000000000000000000000000000009201918252506002016077615c11823960770185805190602001908083835b60208310612cff5780518252601f199092019160209182019101612ce0565b6001836020036101000a0380198251168184511680821785525050505050509050018061531460549139605401807f3c2f673e3c67206d61736b3d2275726c2800000000000000000000000000000081525060110184805190602001908083835b60208310612d7f5780518252601f199092019160209182019101612d60565b5181516020939093036101000a60001901801990911692169190911790527f29220000000000000000000000000000000000000000000000000000000000009201918252506002016029615c8882396029016045615cdb8239604501807f3c7061746820643d22000000000000000000000000000000000000000000000081525060090183805190602001908083835b60208310612e2e5780518252601f199092019160209182019101612e0f565b6001836020036101000a03801982511681845116808217855250505050505090500180615f0f6048913960480182805190602001908083835b60208310612e865780518252601f199092019160209182019101612e67565b6001836020036101000a0380198251168184511680821785525050505050509050019550505050505060405160208183030381529060405292505050949350505050565b60606000612ed784613df1565b90506000612ee484613df1565b865183518251929350600490910191600a9182019101600080612f078a8a613f17565b91509150612f1a85600401600702610701565b8b612f2a86600401600702610701565b89612f3a87600401600702610701565b8a87876040516020018080615fd6602d9139602d01807f3c726563742077696474683d2200000000000000000000000000000000000000815250600d0189805190602001908083835b60208310612fa25780518252601f199092019160209182019101612f83565b6001836020036101000a038019825116818451168082178552505050505050905001806159eb603d9139603d01608d6166598239608d0188805190602001908083835b602083106130045780518252601f199092019160209182019101612fe5565b5181516020939093036101000a60001901801990911692169190911790527f3c2f746578743e3c2f673e000000000000000000000000000000000000000000920191825250600b01602d6167f58239602d01807f3c726563742077696474683d2200000000000000000000000000000000000000815250600d0187805190602001908083835b602083106130a95780518252601f19909201916020918201910161308a565b6001836020036101000a038019825116818451168082178552505050505050905001806159eb603d9139603d0160936156c1823960930186805190602001908083835b6020831061310b5780518252601f1990920191602091820191016130ec565b5181516020939093036101000a60001901801990911692169190911790527f3c2f746578743e3c2f673e000000000000000000000000000000000000000000920191825250600b01602d6153c58239602d01807f3c726563742077696474683d2200000000000000000000000000000000000000815250600d0185805190602001908083835b602083106131b05780518252601f199092019160209182019101613191565b6001836020036101000a038019825116818451168082178552505050505050905001806159eb603d9139603d016093616207823960930184805190602001908083835b602083106132125780518252601f1990920191602091820191016131f3565b6001836020036101000a038019825116818451168082178552505050505050905001806167bd6038913960380160606166e682396060016064615d93823960640160256153f2823960250183805190602001908083835b602083106132885780518252601f199092019160209182019101613269565b51815160209384036101000a60001901801990921691161790527f70782c2000000000000000000000000000000000000000000000000000000000919093019081528451600490910192850191508083835b602083106132f95780518252601f1990920191602091820191016132da565b6001836020036101000a038019825116818451168082178552505050505050905001806151e860369139603601985050505050505050506040516020818303038152906040529750505050505050509392505050565b606061335b83836144b0565b156133b15760405160200180608d6160ff8239608d016073615d2082396073016071615a4f8239607101608a6160758239608a01608461629a823960840190506040516020818303038152906040529050610486565b5060408051602081019091526000815292915050565b6000806133e26133dd60ff868116908616614526565b614559565b90506000811180156133f5575060128111155b156134ea578260ff168460ff16111561347957613436613416826002610f3d565b73ffffffffffffffffffffffffffffffffffffffff871690600a0a611f07565b9150600281066001141561347457613471827003298b075b4b6a5240945790619b37fd4a70010000000000000000000000000000000061350a565b91505b6134e5565b6134a7613487826002610f3d565b73ffffffffffffffffffffffffffffffffffffffff871690600a0a610f3d565b915060028106600114156134e5576134e2827001000000000000000000000000000000007003298b075b4b6a5240945790619b37fd4a61350a565b91505b611ef8565b505073ffffffffffffffffffffffffffffffffffffffff90921692915050565b6000808060001985870986860292508281109083900303905080613540576000841161353557600080fd5b5082900490506106fa565b80841161354c57600080fd5b6000848688096000868103871696879004966002600389028118808a02820302808a02820302808a02820302808a02820302808a02820302808a02909103029181900381900460010186841190950394909402919094039290920491909117919091029150509392505050565b600080600060058460ff1611156135ff576135fc8560ff7ffffffffffffffffffffffffffffffffffffffffffffffffffffffffffffffffb870116600a0a610f3d565b94505b60006004600a870611905061361586600a610f3d565b95508015613624578560010195505b85620186a0141561363a57600a86049550600191505b5084925090505b9250929050565b606060008260020b85850360020b8161365d57fe5b05905060048160020b136136a8576040518060400160405280601a81526020017f4d312031433431203431203130352031303520313435203134350000000000008152509150611ef8565b60088160020b136136f0576040518060400160405280601981526020017f4d312031433333203439203937203131332031343520313435000000000000008152509150611ef8565b60108160020b13613738576040518060400160405280601981526020017f4d312031433333203537203839203131332031343520313435000000000000008152509150611ef8565b60208160020b13613780576040518060400160405280601981526020017f4d312031433235203635203831203132312031343520313435000000000000008152509150611ef8565b60408160020b136137c8576040518060400160405280601981526020017f4d312031433137203733203733203132392031343520313435000000000000008152509150611ef8565b60808160020b13613810576040518060400160405280601881526020017f4d312031433920383120363520313337203134352031343500000000000000008152509150611ef8565b6101008160020b13613859576040518060400160405280601a81526020017f4d31203143312038392035372e352031343520313435203134350000000000008152509150611ef8565b505060408051808201909152601881527f4d3120314331203937203439203134352031343520313435000000000000000060208201529392505050565b604080518082018252600281527f37330000000000000000000000000000000000000000000000000000000000006020808301919091528251808401845260038082527f313930000000000000000000000000000000000000000000000000000000000082840152845180860186528181527f32313700000000000000000000000000000000000000000000000000000000008185015285518087019096529085527f3333340000000000000000000000000000000000000000000000000000000000928501929092526060939091906001600087900b148061397d57508560000b600019145b15613baf578560000b600019146139945781613996565b835b8660000b600019146139a857816139aa565b835b8760000b600019146139bc57836139be565b855b8860000b600019146139d057836139d2565b855b60405160200180807f3c636972636c652063783d220000000000000000000000000000000000000000815250600c0185805190602001908083835b60208310613a2c5780518252601f199092019160209182019101613a0d565b51815160209384036101000a60001901801990921691161790527f7078222063793d22000000000000000000000000000000000000000000000000919093019081528651600890910192870191508083835b60208310613a9d5780518252601f199092019160209182019101613a7e565b6001836020036101000a03801982511681845116808217855250505050505090500180615a286027913960270183805190602001908083835b60208310613af55780518252601f199092019160209182019101613ad6565b51815160209384036101000a60001901801990921691161790527f7078222063793d22000000000000000000000000000000000000000000000000919093019081528451600890910192850191508083835b60208310613b665780518252601f199092019160209182019101613b47565b6001836020036101000a03801982511681845116808217855250505050505090500180615cb1602a9139602a019450505050506040516020818303038152906040529450613de8565b8383838360405160200180807f3c636972636c652063783d220000000000000000000000000000000000000000815250600c0185805190602001908083835b60208310613c0d5780518252601f199092019160209182019101613bee565b51815160209384036101000a60001901801990921691161790527f7078222063793d22000000000000000000000000000000000000000000000000919093019081528651600890910192870191508083835b60208310613c7e5780518252601f199092019160209182019101613c5f565b51815160209384036101000a60001901801990921691161790527f70782220723d22347078222066696c6c3d22776869746522202f3e0000000000919093019081527f3c636972636c652063783d220000000000000000000000000000000000000000601b8201528551602790910192860191508083835b60208310613d155780518252601f199092019160209182019101613cf6565b51815160209384036101000a60001901801990921691161790527f7078222063793d22000000000000000000000000000000000000000000000000919093019081528451600890910192850191508083835b60208310613d865780518252601f199092019160209182019101613d67565b6001836020036101000a038019825116818451168082178552505050505050905001807f70782220723d22347078222066696c6c3d22776869746522202f3e0000000000815250601b0194505050505060405160208183030381529060405294505b50505050919050565b6060600060405180602001604052806000815250905060008360020b1215613e5357826000190292506040518060400160405280600181526020017f2d0000000000000000000000000000000000000000000000000000000000000081525090505b80613e608460020b610701565b6040516020018083805190602001908083835b60208310613e925780518252601f199092019160209182019101613e73565b51815160209384036101000a600019018019909216911617905285519190930192850191508083835b60208310613eda5780518252601f199092019160209182019101613ebb565b6001836020036101000a03801982511681845116808217855250505050505090500192505050604051602081830303815290604052915050919050565b60608060006002858501810b0590507ffffffffffffffffffffffffffffffffffffffffffffffffffffffffffffe17b88160020b1215613fc7576040518060400160405280600181526020017f38000000000000000000000000000000000000000000000000000000000000008152506040518060400160405280600181526020017f37000000000000000000000000000000000000000000000000000000000000008152509250925050613641565b7ffffffffffffffffffffffffffffffffffffffffffffffffffffffffffffedb088160020b1215614068576040518060400160405280600181526020017f38000000000000000000000000000000000000000000000000000000000000008152506040518060400160405280600481526020017f31302e35000000000000000000000000000000000000000000000000000000008152509250925050613641565b7fffffffffffffffffffffffffffffffffffffffffffffffffffffffffffff9e588160020b1215614109576040518060400160405280600181526020017f38000000000000000000000000000000000000000000000000000000000000008152506040518060400160405280600581526020017f31342e32350000000000000000000000000000000000000000000000000000008152509250925050613641565b7fffffffffffffffffffffffffffffffffffffffffffffffffffffffffffffec788160020b12156141aa576040518060400160405280600281526020017f31300000000000000000000000000000000000000000000000000000000000008152506040518060400160405280600281526020017f31380000000000000000000000000000000000000000000000000000000000008152509250925050613641565b60008160020b121561422c576040518060400160405280600281526020017f31310000000000000000000000000000000000000000000000000000000000008152506040518060400160405280600281526020017f32310000000000000000000000000000000000000000000000000000000000008152509250925050613641565b6113888160020b12156142af576040518060400160405280600281526020017f31330000000000000000000000000000000000000000000000000000000000008152506040518060400160405280600281526020017f32330000000000000000000000000000000000000000000000000000000000008152509250925050613641565b6161a88160020b1215614332576040518060400160405280600281526020017f31350000000000000000000000000000000000000000000000000000000000008152506040518060400160405280600281526020017f32350000000000000000000000000000000000000000000000000000000000008152509250925050613641565b620124f88160020b12156143b6576040518060400160405280600281526020017f31380000000000000000000000000000000000000000000000000000000000008152506040518060400160405280600281526020017f32360000000000000000000000000000000000000000000000000000000000008152509250925050613641565b6201e8488160020b121561443a576040518060400160405280600281526020017f32310000000000000000000000000000000000000000000000000000000000008152506040518060400160405280600281526020017f32370000000000000000000000000000000000000000000000000000000000008152509250925050613641565b6040518060400160405280600281526020017f32340000000000000000000000000000000000000000000000000000000000008152506040518060400160405280600281526020017f32370000000000000000000000000000000000000000000000000000000000008152509250925050613641565b6040805160208082018590527fffffffffffffffffffffffffffffffffffffffff000000000000000000000000606085901b1682840152825160348184030181526054909201909252805191012060009061450a84614570565b60020260010160ff166000198161451d57fe5b04119392505050565b600081830381831280159061453b5750838113155b80614550575060008312801561455057508381135b6106fa57600080fd5b60008082121561456c5781600003610486565b5090565b600080821161457e57600080fd5b700100000000000000000000000000000000821061459e57608091821c91015b6801000000000000000082106145b657604091821c91015b64010000000082106145ca57602091821c91015b6201000082106145dc57601091821c91015b61010082106145ed57600891821c91015b601082106145fd57600491821c91015b6004821061460d57600291821c91015b6002821061016b57600101919050565b6040805161010081018252600080825260208201819052918101829052606081018290526080810182905260a0810182905260c0810182905260e081019190915290565b803573ffffffffffffffffffffffffffffffffffffffff8116811461016b57600080fd5b8035801515811461016b57600080fd5b8035600281900b811461016b57600080fd5b600082601f8301126146b7578081fd5b813567ffffffffffffffff8111156146cb57fe5b6146de6020601f19601f84011601614f13565b8181528460208386010111156146f2578283fd5b816020850160208301379081016020019190915292915050565b803562ffffff8116811461016b57600080fd5b803560ff8116811461016b57600080fd5b600060208284031215614741578081fd5b813567ffffffffffffffff80821115614758578283fd5b81840191506101c080838703121561476e578384fd5b61477781614f13565b90508235815261478960208401614661565b602082015261479a60408401614661565b60408201526060830135828111156147b0578485fd5b6147bc878286016146a7565b6060830152506080830135828111156147d3578485fd5b6147df878286016146a7565b6080830152506147f160a0840161471f565b60a082015261480260c0840161471f565b60c082015261481360e08401614685565b60e08201526101009150614828828401614695565b82820152610120915061483c828401614695565b828201526101409150614850828401614695565b828201526101609150614864828401614695565b82820152610180915061487882840161470c565b828201526101a0915061488c828401614661565b91810191909152949350505050565b600081516148ad818560208601614f37565b9290920192915050565b7fe29aa0efb88f20444953434c41494d45523a204475652064696c6967656e636581527f20697320696d7065726174697665207768656e20617373657373696e6720746860208201527f6973204e46542e204d616b65207375726520746f6b656e20616464726573736560408201527f73206d617463682074686520657870656374656420746f6b656e732c2061732060608201527f746f6b656e2073796d626f6c73206d617920626520696d6974617465642e00006080820152609e0190565b7f5c6e5c6e00000000000000000000000000000000000000000000000000000000815260040190565b60007f54686973204e465420726570726573656e74732061206c69717569646974792082527f706f736974696f6e20696e206120556e69737761702056332000000000000000602083015285516149ff816039850160208a01614f37565b7f2d000000000000000000000000000000000000000000000000000000000000006039918401918201528551614a3c81603a840160208a01614f37565b7f20706f6f6c2e2000000000000000000000000000000000000000000000000000603a92909101918201527f546865206f776e6572206f662074686973204e46542063616e206d6f6469667960418201527f206f722072656465656d2074686520706f736974696f6e2e5c6e00000000000060618201527f5c6e506f6f6c20416464726573733a2000000000000000000000000000000000607b8201528451614aec81608b840160208901614f37565b7f5c6e000000000000000000000000000000000000000000000000000000000000608b92909101918201526103c6608d82018561489b565b60007f7b226e616d65223a22000000000000000000000000000000000000000000000082528551614b5c816009850160208a01614f37565b7f222c20226465736372697074696f6e223a2200000000000000000000000000006009918401918201528551614b9981601b840160208a01614f37565b8551910190614baf81601b840160208901614f37565b7f222c2022696d616765223a202200000000000000000000000000000000000000601b92909101918201527f646174613a696d6167652f7376672b786d6c3b6261736536342c00000000000060288201528351614c13816042840160208801614f37565b7f227d000000000000000000000000000000000000000000000000000000000000604292909101918201526044019695505050505050565b60007f556e6973776170202d200000000000000000000000000000000000000000000082528651614c8381600a850160208b01614f37565b80830190507f202d20000000000000000000000000000000000000000000000000000000000080600a8301528751614cc281600d850160208c01614f37565b7f2f00000000000000000000000000000000000000000000000000000000000000600d93909101928301528651614d0081600e850160208b01614f37565b600e9201918201528451614d1b816011840160208901614f37565b7f3c3e000000000000000000000000000000000000000000000000000000000000601192909101918201528351614d59816013840160208801614f37565b01601301979650505050505050565b60007f20416464726573733a20000000000000000000000000000000000000000000008083528751614da181600a860160208c01614f37565b7f5c6e000000000000000000000000000000000000000000000000000000000000600a918501918201528751614dde81600c840160208c01614f37565b01600c810191909152855190614dfb826016830160208a01614f37565b8181019150507f5c6e46656520546965723a20000000000000000000000000000000000000000060168201528451614e3a816022840160208901614f37565b7f5c6e546f6b656e2049443a200000000000000000000000000000000000000000602292909101918201528351614e7881602e840160208801614f37565b614e8e614e89602e83850101614978565b6148b7565b9998505050505050505050565b60007f646174613a6170706c69636174696f6e2f6a736f6e3b6261736536342c00000082528251614ed381601d850160208701614f37565b91909101601d0192915050565b6000602082528251806020840152614eff816040850160208701614f37565b601f01601f19169190910160400192915050565b60405181810167ffffffffffffffff81118282101715614f2f57fe5b604052919050565b60005b83811015614f52578181015183820152602001614f3a565b83811115614f61576000848401525b5050505056fe203c616e696d6174652061646469746976653d2273756d22206174747269627574654e616d653d2273746172744f6666736574222066726f6d3d2230252220746f3d22313030252220626567696e3d22307322206475723d223330732220726570656174436f756e743d22696e646566696e69746522202f3e3c2f74657874506174683e3c2f746578743e3c73746f70206f66667365743d222e39222073746f702d636f6c6f723d227768697465222073746f702d6f7061636974793d223022202f3e3c2f6c696e6561724772616469656e743e3c72656374207374796c653d2266696c7465723a2075726c28236631292220783d223070782220793d22307078222077696474683d22323930707822206865696768743d22353030707822202f3e3c6665496d61676520726573756c743d2270332220786c696e6b3a687265663d22646174613a696d6167652f7376672b786d6c3b6261736536342c3c67206d61736b3d2275726c2823666164652d73796d626f6c29223e3c726563742066696c6c3d226e6f6e652220783d223070782220793d22307078222077696474683d22323930707822206865696768743d22323030707822202f3e203c7465787420793d22373070782220783d2233327078222066696c6c3d2277686974652220666f6e742d66616d696c793d2227436f7572696572204e6577272c206d6f6e6f73706163652220666f6e742d7765696768743d223230302220666f6e742d73697a653d2233367078223e3c7376672077696474683d2232393022206865696768743d22353030222076696577426f783d2230203020323930203530302220786d6c6e733d22687474703a2f2f7777772e77332e6f72672f323030302f7376672270782c2030707829222063783d22307078222063793d223070782220723d22347078222066696c6c3d227768697465222f3e3c2f673e203c616e696d6174652061646469746976653d2273756d22206174747269627574654e616d653d2273746172744f6666736574222066726f6d3d2230252220746f3d22313030252220626567696e3d22307322206475723d223330732220726570656174436f756e743d22696e646566696e69746522202f3e203c2f74657874506174683e3c6d61736b2069643d22666164652d757022206d61736b436f6e74656e74556e6974733d226f626a656374426f756e64696e67426f78223e3c726563742077696474683d223122206865696768743d2231222066696c6c3d2275726c2823677261642d75702922202f3e3c2f6d61736b3e22207374726f6b653d227267626128302c302c302c302e332922207374726f6b652d77696474683d2233327078222066696c6c3d226e6f6e6522207374726f6b652d6c696e656361703d22726f756e6422202f3e203c616e696d6174652061646469746976653d2273756d22206174747269627574654e616d653d2273746172744f6666736574222066726f6d3d2230252220746f3d22313030252220626567696e3d22307322206475723d2233307322203c67207374796c653d227472616e73666f726d3a7472616e736c61746528323970782c20343434707829223e3c636972636c65207374796c653d227472616e73666f726d3a7472616e736c6174653364283c7376672077696474683d2732393027206865696768743d27353030272076696577426f783d2730203020323930203530302720786d6c6e733d27687474703a2f2f7777772e77332e6f72672f323030302f737667273e3c636972636c652063783d27203c67207374796c653d2266696c7465723a75726c2823746f702d726567696f6e2d626c7572293b207472616e73666f726d3a7363616c6528312e35293b207472616e73666f726d2d6f726967696e3a63656e74657220746f703b223e22202f3e3c6665426c656e64206d6f64653d226f7665726c61792220696e3d2270302220696e323d22703122202f3e3c6665426c656e64206d6f64653d226578636c7573696f6e2220696e323d22703222202f3e3c6665426c656e64206d6f64653d226f7665726c61792220696e323d2270332220726573756c743d22626c656e644f757422202f3e3c6665476175737369616e426c7572203c706174682069643d226d696e696d61702220643d224d3233342034343443323334203435372e393439203234322e323120343633203235332034363322202f3e3c6d61736b2069643d226e6f6e6522206d61736b436f6e74656e74556e6974733d226f626a656374426f756e64696e67426f78223e3c726563742077696474683d223122206865696768743d2231222066696c6c3d22776869746522202f3e3c2f6d61736b3e2220783d223070782220793d22307078222077696474683d22323930707822206865696768743d22353030707822202f3e203c616e696d6174652061646469746976653d2273756d22206174747269627574654e616d653d2273746172744f6666736574222066726f6d3d2230252220746f3d22313030252220626567696e3d22307322206475723d223330732220726570656174436f756e743d22696e646566696e69746522202f3e3c7465787420783d22313270782220793d22313770782220666f6e742d66616d696c793d2227436f7572696572204e6577272c206d6f6e6f73706163652220666f6e742d73697a653d2231327078222066696c6c3d227768697465223e3c747370616e2066696c6c3d2272676261283235352c3235352c3235352c302e3629223e4d696e205469636b3a203c2f747370616e3e3c74657874506174682073746172744f66667365743d222d31303025222066696c6c3d2277686974652220666f6e742d66616d696c793d2227436f7572696572204e6577272c206d6f6e6f73706163652220666f6e742d73697a653d22313070782220786c696e6b3a687265663d2223746578742d706174682d61223e3c6c696e6561724772616469656e742069643d22677261642d646f776e222078313d2230222078323d2231222079313d2230222079323d2231223e3c73746f70206f66667365743d22302e30222073746f702d636f6c6f723d227768697465222073746f702d6f7061636974793d223122202f3e3c73746f70206f66667365743d22302e39222073746f702d636f6c6f723d227768697465222073746f702d6f7061636974793d223022202f3e3c2f6c696e6561724772616469656e743e3c66696c7465722069643d226631223e3c6665496d61676520726573756c743d2270302220786c696e6b3a687265663d22646174613a696d6167652f7376672b786d6c3b6261736536342c3c7376672077696474683d2732393027206865696768743d27353030272076696577426f783d2730203020323930203530302720786d6c6e733d27687474703a2f2f7777772e77332e6f72672f323030302f737667273e3c726563742077696474683d27323930707827206865696768743d273530307078272066696c6c3d2723222f3e3c6665496d61676520726573756c743d2270322220786c696e6b3a687265663d22646174613a696d6167652f7376672b786d6c3b6261736536342c3c656c6c697073652063783d22353025222063793d22307078222072783d223138307078222072793d223132307078222066696c6c3d222330303022206f7061636974793d22302e383522202f3e3c2f673e707822206865696768743d2232367078222072783d22387078222072793d22387078222066696c6c3d227267626128302c302c302c302e362922202f3e70782220723d22347078222066696c6c3d22776869746522202f3e3c636972636c652063783d2231312e333437384c32342031324c31342e343334312031322e363532324c32322e333932332031384c31332e373831392031332e373831394c31382032322e333932334c31322e363532322031342e343334314c31322032344c31312e333437382031342e343334314c362032322e33393c726563742066696c6c3d226e6f6e652220783d223070782220793d22307078222077696474683d22323930707822206865696768743d22353030707822202f3e4142434445464748494a4b4c4d4e4f505152535455565758595a6162636465666768696a6b6c6d6e6f707172737475767778797a303132333435363738392b2f20786d6c6e733a786c696e6b3d27687474703a2f2f7777772e77332e6f72672f313939392f786c696e6b273e3c6c696e6561724772616469656e742069643d22677261642d73796d626f6c223e3c73746f70206f66667365743d22302e37222073746f702d636f6c6f723d227768697465222073746f702d6f7061636974793d223122202f3e3c73746f70206f66667365743d222e3935222073746f702d636f6c6f723d227768697465222073746f702d6f7061636974793d223022202f3e3c2f6c696e6561724772616469656e743e207374796c653d227472616e73666f726d3a7472616e736c61746528373270782c313839707829223e3c7265637420783d222d313670782220793d222d31367078222077696474683d22313830707822206865696768743d223138307078222066696c6c3d226e6f6e6522202f3e3c7061746820643d22207374796c653d227472616e73666f726d3a7472616e736c61746528373270782c313839707829223e70782220723d2232347078222066696c6c3d226e6f6e6522207374726f6b653d22776869746522202f3e3c7265637420783d222d313670782220793d222d31367078222077696474683d22313830707822206865696768743d223138307078222066696c6c3d226e6f6e6522202f3e3c673e3c70617468207374796c653d227472616e73666f726d3a7472616e736c617465283670782c367078292220643d224d313220304c31322e3635323220392e35363538374c313820312e363037374c31332e373831392031302e323138314c32322e3339323320364c31342e34333431203c70617468207374726f6b652d6c696e656361703d22726f756e642220643d224d38203943382e30303030342032322e393439342031362e32303939203238203237203238222066696c6c3d226e6f6e6522207374726f6b653d22776869746522202f3e20726570656174436f756e743d22696e646566696e69746522202f3e3c2f74657874506174683e3c74657874506174682073746172744f66667365743d222d353025222066696c6c3d2277686974652220666f6e742d66616d696c793d2227436f7572696572204e6577272c206d6f6e6f73706163652220666f6e742d73697a653d22313070782220786c696e6b3a687265663d2223746578742d706174682d61223e3c6d61736b2069643d22666164652d646f776e22206d61736b436f6e74656e74556e6974733d226f626a656374426f756e64696e67426f78223e3c726563742077696474683d223122206865696768743d2231222066696c6c3d2275726c2823677261642d646f776e2922202f3e3c2f6d61736b3e22207374726f6b653d2272676261283235352c3235352c3235352c3129222066696c6c3d226e6f6e6522207374726f6b652d6c696e656361703d22726f756e6422202f3e3c2f673e696e3d22626c656e644f75742220737464446576696174696f6e3d22343222202f3e3c2f66696c7465723e203c636c6970506174682069643d22636f726e657273223e3c726563742077696474683d2232393022206865696768743d22353030222072783d223432222072793d22343222202f3e3c2f636c6970506174683e203c67207374796c653d227472616e73666f726d3a7472616e736c61746528323970782c20333834707829223e3c6c696e6561724772616469656e742069643d22677261642d7570222078313d2231222078323d2230222079313d2231222079323d2230223e3c73746f70206f66667365743d22302e30222073746f702d636f6c6f723d227768697465222073746f702d6f7061636974793d223122202f3e32334c31302e323138312031332e373831394c312e363037372031384c392e35363538372031322e363532324c302031324c392e35363538372031312e333437384c312e3630373720364c31302e323138312031302e323138314c3620312e363037374c31312e3334373820392e35363538374c313220305a222066696c6c3d22776869746522202f3e3c67207374796c653d227472616e73666f726d3a7472616e736c6174652832323670782c20333932707829223e3c726563742077696474683d223336707822206865696768743d2233367078222072783d22387078222072793d22387078222066696c6c3d226e6f6e6522207374726f6b653d2272676261283235352c3235352c3235352c302e322922202f3e3c74657874506174682073746172744f66667365743d22353025222066696c6c3d2277686974652220666f6e742d66616d696c793d2227436f7572696572204e6577272c206d6f6e6f73706163652220666f6e742d73697a653d22313070782220786c696e6b3a687265663d2223746578742d706174682d61223e3c7465787420783d22313270782220793d22313770782220666f6e742d66616d696c793d2227436f7572696572204e6577272c206d6f6e6f73706163652220666f6e742d73697a653d2231327078222066696c6c3d227768697465223e3c747370616e2066696c6c3d2272676261283235352c3235352c3235352c302e3629223e4d6178205469636b3a203c2f747370616e3e3c616e696d6174655472616e73666f726d206174747269627574654e616d653d227472616e73666f726d2220747970653d22726f74617465222066726f6d3d22302031382031382220746f3d2233363020313820313822206475723d223130732220726570656174436f756e743d22696e646566696e697465222f3e3c2f673e3c2f673e3c706174682069643d22746578742d706174682d612220643d224d34302031322048323530204132382032382030203020312032373820343020563436302041323820323820302030203120323530203438382048343020413238203238203020302031203132203436302056343020413238203238203020302031203430203132207a22202f3e222f3e3c6665496d61676520726573756c743d2270312220786c696e6b3a687265663d22646174613a696d6167652f7376672b786d6c3b6261736536342c3c6d61736b2069643d22666164652d73796d626f6c22206d61736b436f6e74656e74556e6974733d227573657253706163654f6e557365223e3c726563742077696474683d22323930707822206865696768743d223230307078222066696c6c3d2275726c2823677261642d73796d626f6c2922202f3e3c2f6d61736b3e3c2f646566733e3c7265637420783d22302220793d2230222077696474683d2232393022206865696768743d22353030222072783d223432222072793d223432222066696c6c3d227267626128302c302c302c302922207374726f6b653d2272676261283235352c3235352c3235352c302e322922202f3e3c2f673e3c66696c7465722069643d22746f702d726567696f6e2d626c7572223e3c6665476175737369616e426c757220696e3d22536f75726365477261706869632220737464446576696174696f6e3d22323422202f3e3c2f66696c7465723e3c2f74657874506174683e203c74657874506174682073746172744f66667365743d223025222066696c6c3d2277686974652220666f6e742d66616d696c793d2227436f7572696572204e6577272c206d6f6e6f73706163652220666f6e742d73697a653d22313070782220786c696e6b3a687265663d2223746578742d706174682d61223e3c7465787420746578742d72656e646572696e673d226f7074696d697a655370656564223e3c7265637420783d2231362220793d223136222077696474683d2232353822206865696768743d22343638222072783d223236222072793d223236222066696c6c3d227267626128302c302c302c302922207374726f6b653d2272676261283235352c3235352c3235352c302e322922202f3e3c7465787420783d22313270782220793d22313770782220666f6e742d66616d696c793d2227436f7572696572204e6577272c206d6f6e6f73706163652220666f6e742d73697a653d2231327078222066696c6c3d227768697465223e3c747370616e2066696c6c3d2272676261283235352c3235352c3235352c302e3629223e49443a203c2f747370616e3e3c726563742077696474683d223336707822206865696768743d2233367078222072783d22387078222072793d22387078222066696c6c3d226e6f6e6522207374726f6b653d2272676261283235352c3235352c3235352c302e322922202f3e3c2f746578743e3c7465787420793d2231313570782220783d2233327078222066696c6c3d2277686974652220666f6e742d66616d696c793d2227436f7572696572204e6577272c206d6f6e6f73706163652220666f6e742d7765696768743d223230302220666f6e742d73697a653d2233367078223e3c2f746578743e3c2f673e3c67207374796c653d227472616e73666f726d3a7472616e736c6174652832323670782c20343333707829223e203c67207374796c653d227472616e73666f726d3a7472616e736c61746528323970782c20343134707829223ea164736f6c6343000706000a","opcodes":"PUSH2 0x682E PUSH3 0x27 PUSH1 0xB DUP3 DUP3 DUP3 CODECOPY DUP1 MLOAD PUSH1 0x0 BYTE PUSH1 0x73 EQ PUSH2 0x1A JUMPI INVALID JUMPDEST ADDRESS PUSH1 0x0 MSTORE PUSH1 0x73 DUP2 MSTORE8 DUP3 DUP2 RETURN INVALID PUSH20 0x0 ADDRESS EQ PUSH1 0x80 PUSH1 0x40 MSTORE PUSH1 0x4 CALLDATASIZE LT PUSH2 0x35 JUMPI PUSH1 0x0 CALLDATALOAD PUSH1 0xE0 SHR DUP1 PUSH4 0xC49917D7 EQ PUSH2 0x3A JUMPI JUMPDEST PUSH1 0x0 DUP1 REVERT JUMPDEST PUSH2 0x4D PUSH2 0x48 CALLDATASIZE PUSH1 0x4 PUSH2 0x4730 JUMP JUMPDEST PUSH2 0x63 JUMP JUMPDEST PUSH1 0x40 MLOAD PUSH2 0x5A SWAP2 SWAP1 PUSH2 0x4EE0 JUMP JUMPDEST PUSH1 0x40 MLOAD DUP1 SWAP2 SUB SWAP1 RETURN JUMPDEST PUSH1 0x60 PUSH1 0x0 PUSH2 0x7E DUP4 PUSH2 0x79 DUP6 PUSH2 0x180 ADD MLOAD PUSH2 0x170 JUMP JUMPDEST PUSH2 0x3D1 JUMP JUMPDEST SWAP1 POP PUSH1 0x0 PUSH2 0xB2 PUSH2 0x92 DUP6 PUSH1 0x60 ADD MLOAD PUSH2 0x48C JUMP JUMPDEST PUSH2 0x9F DUP7 PUSH1 0x80 ADD MLOAD PUSH2 0x48C JUMP JUMPDEST PUSH2 0xAD DUP8 PUSH2 0x1A0 ADD MLOAD PUSH2 0x6AC JUMP JUMPDEST PUSH2 0x6CF JUMP JUMPDEST SWAP1 POP PUSH1 0x0 PUSH2 0x100 PUSH2 0xC6 DUP7 PUSH1 0x0 ADD MLOAD PUSH2 0x701 JUMP JUMPDEST PUSH2 0xD3 DUP8 PUSH1 0x80 ADD MLOAD PUSH2 0x48C JUMP JUMPDEST PUSH2 0xE0 DUP9 PUSH1 0x20 ADD MLOAD PUSH2 0x6AC JUMP JUMPDEST PUSH2 0xED DUP10 PUSH1 0x40 ADD MLOAD PUSH2 0x6AC JUMP JUMPDEST PUSH2 0xFB DUP11 PUSH2 0x180 ADD MLOAD PUSH2 0x170 JUMP JUMPDEST PUSH2 0x810 JUMP JUMPDEST SWAP1 POP PUSH1 0x0 PUSH2 0x115 PUSH2 0x110 DUP8 PUSH2 0x846 JUMP JUMPDEST PUSH2 0xB10 JUMP JUMPDEST SWAP1 POP PUSH2 0x145 DUP5 DUP5 DUP5 DUP5 PUSH1 0x40 MLOAD PUSH1 0x20 ADD PUSH2 0x131 SWAP5 SWAP4 SWAP3 SWAP2 SWAP1 PUSH2 0x4B24 JUMP JUMPDEST PUSH1 0x40 MLOAD PUSH1 0x20 DUP2 DUP4 SUB SUB DUP2 MSTORE SWAP1 PUSH1 0x40 MSTORE PUSH2 0xB10 JUMP JUMPDEST PUSH1 0x40 MLOAD PUSH1 0x20 ADD PUSH2 0x155 SWAP2 SWAP1 PUSH2 0x4E9B JUMP JUMPDEST PUSH1 0x40 MLOAD PUSH1 0x20 DUP2 DUP4 SUB SUB DUP2 MSTORE SWAP1 PUSH1 0x40 MSTORE SWAP5 POP POP POP POP POP JUMPDEST SWAP2 SWAP1 POP JUMP JUMPDEST PUSH1 0x60 PUSH3 0xFFFFFF DUP3 AND PUSH2 0x1B6 JUMPI POP PUSH1 0x40 DUP1 MLOAD DUP1 DUP3 ADD SWAP1 SWAP2 MSTORE PUSH1 0x2 DUP2 MSTORE PUSH32 0x3025000000000000000000000000000000000000000000000000000000000000 PUSH1 0x20 DUP3 ADD MSTORE PUSH2 0x16B JUMP JUMPDEST DUP2 PUSH1 0x0 DUP1 JUMPDEST PUSH3 0xFFFFFF DUP4 AND ISZERO PUSH2 0x206 JUMPI PUSH1 0xFF DUP2 AND ISZERO PUSH2 0x1D7 JUMPI PUSH1 0x1 ADD PUSH2 0x1F0 JUMP JUMPDEST PUSH1 0xA PUSH3 0xFFFFFF DUP5 AND MOD PUSH3 0xFFFFFF AND PUSH1 0x0 EQ PUSH2 0x1F0 JUMPI PUSH1 0x1 ADD JUMPDEST PUSH1 0x1 SWAP1 SWAP2 ADD SWAP1 PUSH1 0xA PUSH3 0xFFFFFF DUP5 AND DIV SWAP3 POP PUSH2 0x1BB JUMP JUMPDEST PUSH2 0x20E PUSH2 0x461D JUMP JUMPDEST PUSH1 0x0 PUSH1 0x5 DUP5 LT PUSH2 0x303 JUMPI PUSH1 0x0 PUSH1 0x4 PUSH2 0x229 DUP7 PUSH1 0xFF DUP8 AND PUSH2 0xF16 JUMP JUMPDEST LT ISZERO PUSH2 0x236 JUMPI PUSH1 0x1 PUSH2 0x239 JUMP JUMPDEST PUSH1 0x0 JUMPDEST PUSH1 0xFF SWAP1 DUP2 AND SWAP2 POP PUSH2 0x24D SWAP1 DUP6 AND PUSH1 0x1 PUSH2 0xF16 JUMP JUMPDEST PUSH2 0x258 DUP7 PUSH1 0x5 PUSH2 0xF16 JUMP JUMPDEST LT PUSH2 0x284 JUMPI PUSH2 0x27F PUSH2 0x26E PUSH1 0xFF DUP7 AND PUSH1 0x1 PUSH2 0xF16 JUMP JUMPDEST PUSH2 0x279 DUP8 PUSH1 0x5 PUSH2 0xF16 JUMP JUMPDEST SWAP1 PUSH2 0xF16 JUMP JUMPDEST PUSH2 0x287 JUMP JUMPDEST PUSH1 0x0 JUMPDEST PUSH1 0xFF DUP6 AND PUSH1 0x80 DUP6 ADD DUP2 SWAP1 MSTORE SWAP1 SWAP3 POP PUSH2 0x2A6 SWAP1 PUSH1 0x1 SWAP1 PUSH2 0x279 SWAP1 DUP6 PUSH2 0xF2B JUMP JUMPDEST PUSH1 0xFF SWAP1 DUP2 AND PUSH1 0xA0 DUP6 ADD MSTORE PUSH1 0x80 DUP5 ADD MLOAD PUSH2 0x2CD SWAP2 DUP4 SWAP2 PUSH2 0x2C7 SWAP2 AND PUSH1 0x1 PUSH2 0xF16 JUMP JUMPDEST SWAP1 PUSH2 0xF2B JUMP JUMPDEST PUSH1 0xFF SWAP1 DUP2 AND PUSH1 0x40 DUP6 ADD MSTORE PUSH2 0x2F5 SWAP1 DUP3 SWAP1 PUSH2 0x2C7 SWAP1 PUSH2 0x2EE SWAP1 DUP9 AND PUSH1 0x1 PUSH2 0xF2B JUMP JUMPDEST DUP6 SWAP1 PUSH2 0xF2B JUMP JUMPDEST PUSH1 0xFF AND PUSH1 0x20 DUP5 ADD MSTORE POP PUSH2 0x373 JUMP JUMPDEST PUSH2 0x30E PUSH1 0x5 DUP6 PUSH2 0xF16 JUMP JUMPDEST PUSH1 0x2 PUSH1 0x80 DUP5 ADD DUP2 SWAP1 MSTORE SWAP1 SWAP2 POP PUSH2 0x32C SWAP1 PUSH1 0x1 SWAP1 PUSH2 0x279 SWAP1 DUP5 SWAP1 PUSH2 0xF2B JUMP JUMPDEST PUSH1 0xFF SWAP1 DUP2 AND PUSH1 0xA0 DUP5 ADD MSTORE PUSH2 0x34E SWAP1 PUSH2 0x347 SWAP1 DUP6 AND PUSH1 0x2 PUSH2 0xF2B JUMP JUMPDEST DUP3 SWAP1 PUSH2 0xF2B JUMP JUMPDEST PUSH1 0xFF AND PUSH1 0x20 DUP4 ADD DUP2 SWAP1 MSTORE PUSH2 0x363 SWAP1 PUSH1 0x2 PUSH2 0xF16 JUMP JUMPDEST PUSH1 0xFF AND PUSH1 0x40 DUP4 ADD MSTORE PUSH1 0x1 PUSH1 0xC0 DUP4 ADD MSTORE JUMPDEST PUSH2 0x392 PUSH2 0x383 DUP6 PUSH1 0xFF DUP7 AND PUSH2 0xF16 JUMP JUMPDEST PUSH3 0xFFFFFF DUP10 AND SWAP1 PUSH1 0xA EXP PUSH2 0xF3D JUMP JUMPDEST DUP3 MSTORE PUSH1 0x1 PUSH1 0xE0 DUP4 ADD MSTORE PUSH1 0x4 DUP5 GT PUSH2 0x3AA JUMPI PUSH1 0x0 PUSH2 0x3B5 JUMP JUMPDEST PUSH2 0x3B5 DUP5 PUSH1 0x4 PUSH2 0xF16 JUMP JUMPDEST PUSH1 0xFF AND PUSH1 0x60 DUP4 ADD MSTORE PUSH2 0x3C6 DUP3 PUSH2 0xF5C JUMP JUMPDEST SWAP8 SWAP7 POP POP POP POP POP POP POP JUMP JUMPDEST PUSH1 0x60 DUP2 PUSH2 0x3E1 DUP5 PUSH1 0x60 ADD MLOAD PUSH2 0x48C JUMP JUMPDEST PUSH2 0x3EE DUP6 PUSH1 0x80 ADD MLOAD PUSH2 0x48C JUMP JUMPDEST PUSH2 0x427 DUP7 PUSH1 0xE0 ADD MLOAD ISZERO PUSH2 0x406 JUMPI DUP7 PUSH2 0x120 ADD MLOAD PUSH2 0x40D JUMP JUMPDEST DUP7 PUSH2 0x100 ADD MLOAD JUMPDEST DUP8 PUSH2 0x160 ADD MLOAD DUP9 PUSH1 0xC0 ADD MLOAD DUP10 PUSH1 0xA0 ADD MLOAD DUP11 PUSH1 0xE0 ADD MLOAD PUSH2 0x126C JUMP JUMPDEST PUSH2 0x460 DUP8 PUSH1 0xE0 ADD MLOAD ISZERO PUSH2 0x43F JUMPI DUP8 PUSH2 0x100 ADD MLOAD PUSH2 0x446 JUMP JUMPDEST DUP8 PUSH2 0x120 ADD MLOAD JUMPDEST DUP9 PUSH2 0x160 ADD MLOAD DUP10 PUSH1 0xC0 ADD MLOAD DUP11 PUSH1 0xA0 ADD MLOAD DUP12 PUSH1 0xE0 ADD MLOAD PUSH2 0x126C JUMP JUMPDEST PUSH1 0x40 MLOAD PUSH1 0x20 ADD PUSH2 0x474 SWAP6 SWAP5 SWAP4 SWAP3 SWAP2 SWAP1 PUSH2 0x4C4B JUMP JUMPDEST PUSH1 0x40 MLOAD PUSH1 0x20 DUP2 DUP4 SUB SUB DUP2 MSTORE SWAP1 PUSH1 0x40 MSTORE SWAP1 POP JUMPDEST SWAP3 SWAP2 POP POP JUMP JUMPDEST PUSH1 0x60 DUP2 PUSH1 0x0 DUP1 JUMPDEST DUP3 MLOAD DUP2 PUSH1 0xFF AND LT ISZERO PUSH2 0x50C JUMPI DUP3 DUP2 PUSH1 0xFF AND DUP2 MLOAD DUP2 LT PUSH2 0x4AE JUMPI INVALID JUMPDEST PUSH1 0x20 SWAP2 ADD ADD MLOAD PUSH32 0xFF00000000000000000000000000000000000000000000000000000000000000 AND PUSH32 0x2200000000000000000000000000000000000000000000000000000000000000 EQ ISZERO PUSH2 0x504 JUMPI PUSH1 0x1 SWAP1 SWAP2 ADD SWAP1 JUMPDEST PUSH1 0x1 ADD PUSH2 0x493 JUMP JUMPDEST POP PUSH1 0xFF DUP2 AND ISZERO PUSH2 0x6A4 JUMPI PUSH1 0x0 DUP2 PUSH1 0xFF AND DUP4 MLOAD ADD PUSH8 0xFFFFFFFFFFFFFFFF DUP2 GT DUP1 ISZERO PUSH2 0x535 JUMPI PUSH1 0x0 DUP1 REVERT JUMPDEST POP PUSH1 0x40 MLOAD SWAP1 DUP1 DUP3 MSTORE DUP1 PUSH1 0x1F ADD PUSH1 0x1F NOT AND PUSH1 0x20 ADD DUP3 ADD PUSH1 0x40 MSTORE DUP1 ISZERO PUSH2 0x560 JUMPI PUSH1 0x20 DUP3 ADD DUP2 DUP1 CALLDATASIZE DUP4 CALLDATACOPY ADD SWAP1 POP JUMPDEST POP SWAP1 POP PUSH1 0x0 DUP1 JUMPDEST DUP5 MLOAD DUP2 PUSH1 0xFF AND LT ISZERO PUSH2 0x697 JUMPI DUP5 DUP2 PUSH1 0xFF AND DUP2 MLOAD DUP2 LT PUSH2 0x582 JUMPI INVALID JUMPDEST PUSH1 0x20 SWAP2 ADD ADD MLOAD PUSH32 0xFF00000000000000000000000000000000000000000000000000000000000000 AND PUSH32 0x2200000000000000000000000000000000000000000000000000000000000000 EQ ISZERO PUSH2 0x634 JUMPI PUSH32 0x5C00000000000000000000000000000000000000000000000000000000000000 DUP4 DUP4 DUP1 PUSH1 0x1 ADD SWAP5 POP DUP2 MLOAD DUP2 LT PUSH2 0x604 JUMPI INVALID JUMPDEST PUSH1 0x20 ADD ADD SWAP1 PUSH31 0xFFFFFFFFFFFFFFFFFFFFFFFFFFFFFFFFFFFFFFFFFFFFFFFFFFFFFFFFFFFFFF NOT AND SWAP1 DUP2 PUSH1 0x0 BYTE SWAP1 MSTORE8 POP JUMPDEST DUP5 DUP2 PUSH1 0xFF AND DUP2 MLOAD DUP2 LT PUSH2 0x643 JUMPI INVALID JUMPDEST PUSH1 0x20 ADD ADD MLOAD PUSH1 0xF8 SHR PUSH1 0xF8 SHL DUP4 DUP4 DUP1 PUSH1 0x1 ADD SWAP5 POP DUP2 MLOAD DUP2 LT PUSH2 0x660 JUMPI INVALID JUMPDEST PUSH1 0x20 ADD ADD SWAP1 PUSH31 0xFFFFFFFFFFFFFFFFFFFFFFFFFFFFFFFFFFFFFFFFFFFFFFFFFFFFFFFFFFFFFF NOT AND SWAP1 DUP2 PUSH1 0x0 BYTE SWAP1 MSTORE8 POP PUSH1 0x1 ADD PUSH2 0x567 JUMP JUMPDEST POP DUP2 SWAP5 POP POP POP POP POP PUSH2 0x16B JUMP JUMPDEST POP SWAP2 SWAP3 SWAP2 POP POP JUMP JUMPDEST PUSH1 0x60 PUSH2 0x486 PUSH20 0xFFFFFFFFFFFFFFFFFFFFFFFFFFFFFFFFFFFFFFFF DUP4 AND PUSH1 0x14 PUSH2 0x1427 JUMP JUMPDEST PUSH1 0x60 DUP4 DUP4 DUP4 DUP7 PUSH1 0x40 MLOAD PUSH1 0x20 ADD PUSH2 0x6E8 SWAP5 SWAP4 SWAP3 SWAP2 SWAP1 PUSH2 0x49A1 JUMP JUMPDEST PUSH1 0x40 MLOAD PUSH1 0x20 DUP2 DUP4 SUB SUB DUP2 MSTORE SWAP1 PUSH1 0x40 MSTORE SWAP1 POP JUMPDEST SWAP4 SWAP3 POP POP POP JUMP JUMPDEST PUSH1 0x60 DUP2 PUSH2 0x742 JUMPI POP PUSH1 0x40 DUP1 MLOAD DUP1 DUP3 ADD SWAP1 SWAP2 MSTORE PUSH1 0x1 DUP2 MSTORE PUSH32 0x3000000000000000000000000000000000000000000000000000000000000000 PUSH1 0x20 DUP3 ADD MSTORE PUSH2 0x16B JUMP JUMPDEST DUP2 PUSH1 0x0 JUMPDEST DUP2 ISZERO PUSH2 0x75A JUMPI PUSH1 0x1 ADD PUSH1 0xA DUP3 DIV SWAP2 POP PUSH2 0x746 JUMP JUMPDEST PUSH1 0x0 DUP2 PUSH8 0xFFFFFFFFFFFFFFFF DUP2 GT DUP1 ISZERO PUSH2 0x773 JUMPI PUSH1 0x0 DUP1 REVERT JUMPDEST POP PUSH1 0x40 MLOAD SWAP1 DUP1 DUP3 MSTORE DUP1 PUSH1 0x1F ADD PUSH1 0x1F NOT AND PUSH1 0x20 ADD DUP3 ADD PUSH1 0x40 MSTORE DUP1 ISZERO PUSH2 0x79E JUMPI PUSH1 0x20 DUP3 ADD DUP2 DUP1 CALLDATASIZE DUP4 CALLDATACOPY ADD SWAP1 POP JUMPDEST POP DUP6 SWAP4 POP SWAP1 POP PUSH1 0x0 NOT DUP3 ADD JUMPDEST DUP4 ISZERO PUSH2 0x807 JUMPI PUSH1 0xA DUP5 MOD PUSH1 0x30 ADD PUSH1 0xF8 SHL DUP3 DUP3 DUP1 PUSH1 0x1 SWAP1 SUB SWAP4 POP DUP2 MLOAD DUP2 LT PUSH2 0x7CD JUMPI INVALID JUMPDEST PUSH1 0x20 ADD ADD SWAP1 PUSH31 0xFFFFFFFFFFFFFFFFFFFFFFFFFFFFFFFFFFFFFFFFFFFFFFFFFFFFFFFFFFFFFF NOT AND SWAP1 DUP2 PUSH1 0x0 BYTE SWAP1 MSTORE8 POP PUSH1 0xA DUP5 DIV SWAP4 POP PUSH2 0x7AA JUMP JUMPDEST POP SWAP5 SWAP4 POP POP POP POP JUMP JUMPDEST PUSH1 0x60 DUP4 DUP6 DUP5 DUP5 DUP10 PUSH1 0x40 MLOAD PUSH1 0x20 ADD PUSH2 0x82B SWAP6 SWAP5 SWAP4 SWAP3 SWAP2 SWAP1 PUSH2 0x4D68 JUMP JUMPDEST PUSH1 0x40 MLOAD PUSH1 0x20 DUP2 DUP4 SUB SUB DUP2 MSTORE SWAP1 PUSH1 0x40 MSTORE SWAP1 POP JUMPDEST SWAP6 SWAP5 POP POP POP POP POP JUMP JUMPDEST PUSH1 0x60 PUSH1 0x0 PUSH1 0x40 MLOAD DUP1 PUSH2 0x2A0 ADD PUSH1 0x40 MSTORE DUP1 PUSH2 0x863 DUP6 PUSH1 0x20 ADD MLOAD PUSH2 0x6AC JUMP JUMPDEST DUP2 MSTORE PUSH1 0x20 ADD PUSH2 0x875 DUP6 PUSH1 0x40 ADD MLOAD PUSH2 0x6AC JUMP JUMPDEST DUP2 MSTORE PUSH1 0x20 ADD DUP5 PUSH2 0x1A0 ADD MLOAD PUSH20 0xFFFFFFFFFFFFFFFFFFFFFFFFFFFFFFFFFFFFFFFF AND DUP2 MSTORE PUSH1 0x20 ADD DUP5 PUSH1 0x60 ADD MLOAD DUP2 MSTORE PUSH1 0x20 ADD DUP5 PUSH1 0x80 ADD MLOAD DUP2 MSTORE PUSH1 0x20 ADD PUSH2 0x8BD DUP6 PUSH2 0x180 ADD MLOAD PUSH2 0x170 JUMP JUMPDEST DUP2 MSTORE PUSH1 0x20 ADD DUP5 PUSH2 0x100 ADD MLOAD PUSH1 0x2 SIGNEXTEND DUP2 MSTORE PUSH1 0x20 ADD DUP5 PUSH2 0x120 ADD MLOAD PUSH1 0x2 SIGNEXTEND DUP2 MSTORE PUSH1 0x20 ADD DUP5 PUSH2 0x160 ADD MLOAD PUSH1 0x2 SIGNEXTEND DUP2 MSTORE PUSH1 0x20 ADD PUSH2 0x906 DUP6 PUSH2 0x100 ADD MLOAD DUP7 PUSH2 0x120 ADD MLOAD DUP8 PUSH2 0x140 ADD MLOAD PUSH2 0x15CB JUMP JUMPDEST PUSH1 0x0 SIGNEXTEND DUP2 MSTORE PUSH1 0x20 ADD DUP5 PUSH1 0x0 ADD MLOAD DUP2 MSTORE PUSH1 0x20 ADD PUSH2 0x93D DUP6 PUSH1 0x20 ADD MLOAD PUSH20 0xFFFFFFFFFFFFFFFFFFFFFFFFFFFFFFFFFFFFFFFF AND PUSH1 0x88 PUSH2 0x1602 JUMP JUMPDEST DUP2 MSTORE PUSH1 0x20 ADD PUSH2 0x967 DUP6 PUSH1 0x40 ADD MLOAD PUSH20 0xFFFFFFFFFFFFFFFFFFFFFFFFFFFFFFFFFFFFFFFF AND PUSH1 0x88 PUSH2 0x1602 JUMP JUMPDEST DUP2 MSTORE PUSH1 0x20 ADD PUSH2 0x991 DUP6 PUSH1 0x20 ADD MLOAD PUSH20 0xFFFFFFFFFFFFFFFFFFFFFFFFFFFFFFFFFFFFFFFF AND PUSH1 0x0 PUSH2 0x1602 JUMP JUMPDEST DUP2 MSTORE PUSH1 0x20 ADD PUSH2 0x9BB DUP6 PUSH1 0x40 ADD MLOAD PUSH20 0xFFFFFFFFFFFFFFFFFFFFFFFFFFFFFFFFFFFFFFFF AND PUSH1 0x0 PUSH2 0x1602 JUMP JUMPDEST DUP2 MSTORE PUSH1 0x20 ADD PUSH2 0x9FB PUSH2 0x9ED DUP7 PUSH1 0x20 ADD MLOAD PUSH20 0xFFFFFFFFFFFFFFFFFFFFFFFFFFFFFFFFFFFFFFFF AND PUSH1 0x10 DUP9 PUSH1 0x0 ADD MLOAD PUSH2 0x1611 JUMP JUMPDEST PUSH1 0x0 PUSH1 0xFF PUSH1 0x10 PUSH2 0x112 PUSH2 0x1631 JUMP JUMPDEST DUP2 MSTORE PUSH1 0x20 ADD PUSH2 0xA3B PUSH2 0xA2D DUP7 PUSH1 0x40 ADD MLOAD PUSH20 0xFFFFFFFFFFFFFFFFFFFFFFFFFFFFFFFFFFFFFFFF AND PUSH1 0x10 DUP9 PUSH1 0x0 ADD MLOAD PUSH2 0x1611 JUMP JUMPDEST PUSH1 0x0 PUSH1 0xFF PUSH1 0x64 PUSH2 0x1E4 PUSH2 0x1631 JUMP JUMPDEST DUP2 MSTORE PUSH1 0x20 ADD PUSH2 0xA6D PUSH2 0x9ED DUP7 PUSH1 0x20 ADD MLOAD PUSH20 0xFFFFFFFFFFFFFFFFFFFFFFFFFFFFFFFFFFFFFFFF AND PUSH1 0x20 DUP9 PUSH1 0x0 ADD MLOAD PUSH2 0x1611 JUMP JUMPDEST DUP2 MSTORE PUSH1 0x20 ADD PUSH2 0xA9F PUSH2 0xA2D DUP7 PUSH1 0x40 ADD MLOAD PUSH20 0xFFFFFFFFFFFFFFFFFFFFFFFFFFFFFFFFFFFFFFFF AND PUSH1 0x20 DUP9 PUSH1 0x0 ADD MLOAD PUSH2 0x1611 JUMP JUMPDEST DUP2 MSTORE PUSH1 0x20 ADD PUSH2 0xAD1 PUSH2 0x9ED DUP7 PUSH1 0x20 ADD MLOAD PUSH20 0xFFFFFFFFFFFFFFFFFFFFFFFFFFFFFFFFFFFFFFFF AND PUSH1 0x30 DUP9 PUSH1 0x0 ADD MLOAD PUSH2 0x1611 JUMP JUMPDEST DUP2 MSTORE PUSH1 0x20 ADD PUSH2 0xB03 PUSH2 0xA2D DUP7 PUSH1 0x40 ADD MLOAD PUSH20 0xFFFFFFFFFFFFFFFFFFFFFFFFFFFFFFFFFFFFFFFF AND PUSH1 0x30 DUP9 PUSH1 0x0 ADD MLOAD PUSH2 0x1611 JUMP JUMPDEST SWAP1 MSTORE SWAP1 POP PUSH2 0x6FA DUP2 PUSH2 0x1679 JUMP JUMPDEST DUP1 MLOAD PUSH1 0x60 SWAP1 DUP1 PUSH2 0xB30 JUMPI POP POP PUSH1 0x40 DUP1 MLOAD PUSH1 0x20 DUP2 ADD SWAP1 SWAP2 MSTORE PUSH1 0x0 DUP2 MSTORE PUSH2 0x16B JUMP JUMPDEST PUSH1 0x4 PUSH1 0x3 PUSH1 0x2 DUP4 ADD DIV MUL PUSH1 0x0 DUP2 PUSH8 0xFFFFFFFFFFFFFFFF DUP2 GT DUP1 ISZERO PUSH2 0xB53 JUMPI PUSH1 0x0 DUP1 REVERT JUMPDEST POP PUSH1 0x40 MLOAD SWAP1 DUP1 DUP3 MSTORE DUP1 PUSH1 0x1F ADD PUSH1 0x1F NOT AND PUSH1 0x20 ADD DUP3 ADD PUSH1 0x40 MSTORE DUP1 ISZERO PUSH2 0xB7E JUMPI PUSH1 0x20 DUP3 ADD DUP2 DUP1 CALLDATASIZE DUP4 CALLDATACOPY ADD SWAP1 POP JUMPDEST POP SWAP1 POP PUSH1 0x0 DUP1 JUMPDEST DUP5 DUP3 LT ISZERO PUSH2 0xDD0 JUMPI PUSH1 0x0 DUP8 DUP4 DUP2 MLOAD DUP2 LT PUSH2 0xB9B JUMPI INVALID JUMPDEST ADD PUSH1 0x20 ADD MLOAD PUSH1 0x1 SWAP1 SWAP4 ADD SWAP3 PUSH1 0xF8 SHR SWAP1 POP DUP6 DUP4 LT ISZERO PUSH2 0xBD0 JUMPI PUSH1 0x8 DUP9 DUP5 DUP2 MLOAD DUP2 LT PUSH2 0xBC1 JUMPI INVALID JUMPDEST ADD PUSH1 0x20 ADD MLOAD PUSH1 0xF8 SHR SWAP1 SHL PUSH1 0xFF AND OR JUMPDEST PUSH1 0x1 SWAP1 SWAP3 ADD SWAP2 DUP6 DUP4 LT ISZERO PUSH2 0xBFB JUMPI PUSH1 0x10 DUP9 DUP5 DUP2 MLOAD DUP2 LT PUSH2 0xBEC JUMPI INVALID JUMPDEST ADD PUSH1 0x20 ADD MLOAD PUSH1 0xF8 SHR SWAP1 SHL PUSH1 0xFF AND OR JUMPDEST PUSH1 0x40 DUP1 MLOAD PUSH1 0x60 DUP2 ADD DUP3 MSTORE DUP2 DUP2 MSTORE PUSH1 0x1 SWAP1 SWAP5 ADD SWAP4 SWAP1 PUSH2 0x5B01 PUSH1 0x20 DUP4 ADD CODECOPY PUSH1 0x12 DUP3 SWAP1 SHR PUSH1 0x3F AND DUP2 MLOAD DUP2 LT PUSH2 0xC29 JUMPI INVALID JUMPDEST PUSH1 0x20 ADD ADD MLOAD PUSH1 0xF8 SHR PUSH1 0xF8 SHL DUP5 DUP4 DUP2 MLOAD DUP2 LT PUSH2 0xC40 JUMPI INVALID JUMPDEST PUSH1 0x20 ADD ADD SWAP1 PUSH31 0xFFFFFFFFFFFFFFFFFFFFFFFFFFFFFFFFFFFFFFFFFFFFFFFFFFFFFFFFFFFFFF NOT AND SWAP1 DUP2 PUSH1 0x0 BYTE SWAP1 MSTORE8 POP PUSH1 0x40 MLOAD DUP1 PUSH1 0x60 ADD PUSH1 0x40 MSTORE DUP1 PUSH1 0x40 DUP2 MSTORE PUSH1 0x20 ADD PUSH2 0x5B01 PUSH1 0x40 SWAP2 CODECOPY PUSH1 0xC DUP3 SWAP1 SHR PUSH1 0x3F AND DUP2 MLOAD DUP2 LT PUSH2 0xC9A JUMPI INVALID JUMPDEST PUSH1 0x20 ADD ADD MLOAD PUSH1 0xF8 SHR PUSH1 0xF8 SHL DUP5 DUP4 PUSH1 0x1 ADD DUP2 MLOAD DUP2 LT PUSH2 0xCB4 JUMPI INVALID JUMPDEST PUSH1 0x20 ADD ADD SWAP1 PUSH31 0xFFFFFFFFFFFFFFFFFFFFFFFFFFFFFFFFFFFFFFFFFFFFFFFFFFFFFFFFFFFFFF NOT AND SWAP1 DUP2 PUSH1 0x0 BYTE SWAP1 MSTORE8 POP PUSH1 0x40 MLOAD DUP1 PUSH1 0x60 ADD PUSH1 0x40 MSTORE DUP1 PUSH1 0x40 DUP2 MSTORE PUSH1 0x20 ADD PUSH2 0x5B01 PUSH1 0x40 SWAP2 CODECOPY PUSH1 0x6 DUP3 SWAP1 SHR PUSH1 0x3F AND DUP2 MLOAD DUP2 LT PUSH2 0xD0E JUMPI INVALID JUMPDEST PUSH1 0x20 ADD ADD MLOAD PUSH1 0xF8 SHR PUSH1 0xF8 SHL DUP5 DUP4 PUSH1 0x2 ADD DUP2 MLOAD DUP2 LT PUSH2 0xD28 JUMPI INVALID JUMPDEST PUSH1 0x20 ADD ADD SWAP1 PUSH31 0xFFFFFFFFFFFFFFFFFFFFFFFFFFFFFFFFFFFFFFFFFFFFFFFFFFFFFFFFFFFFFF NOT AND SWAP1 DUP2 PUSH1 0x0 BYTE SWAP1 MSTORE8 POP PUSH1 0x40 MLOAD DUP1 PUSH1 0x60 ADD PUSH1 0x40 MSTORE DUP1 PUSH1 0x40 DUP2 MSTORE PUSH1 0x20 ADD PUSH2 0x5B01 PUSH1 0x40 SWAP2 CODECOPY DUP2 PUSH1 0x3F AND DUP2 MLOAD DUP2 LT PUSH2 0xD7E JUMPI INVALID JUMPDEST PUSH1 0x20 ADD ADD MLOAD PUSH1 0xF8 SHR PUSH1 0xF8 SHL DUP5 DUP4 PUSH1 0x3 ADD DUP2 MLOAD DUP2 LT PUSH2 0xD98 JUMPI INVALID JUMPDEST PUSH1 0x20 ADD ADD SWAP1 PUSH31 0xFFFFFFFFFFFFFFFFFFFFFFFFFFFFFFFFFFFFFFFFFFFFFFFFFFFFFFFFFFFFFF NOT AND SWAP1 DUP2 PUSH1 0x0 BYTE SWAP1 MSTORE8 POP POP PUSH1 0x4 ADD PUSH2 0xB85 JUMP JUMPDEST PUSH1 0x3 DUP6 MOD PUSH1 0x1 EQ ISZERO PUSH2 0xE9F JUMPI PUSH32 0x3D00000000000000000000000000000000000000000000000000000000000000 DUP4 PUSH1 0x2 DUP7 SUB DUP2 MLOAD DUP2 LT PUSH2 0xE0C JUMPI INVALID JUMPDEST PUSH1 0x20 ADD ADD SWAP1 PUSH31 0xFFFFFFFFFFFFFFFFFFFFFFFFFFFFFFFFFFFFFFFFFFFFFFFFFFFFFFFFFFFFFF NOT AND SWAP1 DUP2 PUSH1 0x0 BYTE SWAP1 MSTORE8 POP PUSH32 0x3D00000000000000000000000000000000000000000000000000000000000000 DUP4 PUSH1 0x1 DUP7 SUB DUP2 MLOAD DUP2 LT PUSH2 0xE6B JUMPI INVALID JUMPDEST PUSH1 0x20 ADD ADD SWAP1 PUSH31 0xFFFFFFFFFFFFFFFFFFFFFFFFFFFFFFFFFFFFFFFFFFFFFFFFFFFFFFFFFFFFFF NOT AND SWAP1 DUP2 PUSH1 0x0 BYTE SWAP1 MSTORE8 POP PUSH2 0xF0B JUMP JUMPDEST PUSH1 0x3 DUP6 MOD PUSH1 0x2 EQ ISZERO PUSH2 0xF0B JUMPI PUSH32 0x3D00000000000000000000000000000000000000000000000000000000000000 DUP4 PUSH1 0x1 DUP7 SUB DUP2 MLOAD DUP2 LT PUSH2 0xEDB JUMPI INVALID JUMPDEST PUSH1 0x20 ADD ADD SWAP1 PUSH31 0xFFFFFFFFFFFFFFFFFFFFFFFFFFFFFFFFFFFFFFFFFFFFFFFFFFFFFFFFFFFFFF NOT AND SWAP1 DUP2 PUSH1 0x0 BYTE SWAP1 MSTORE8 POP JUMPDEST POP SWAP1 SWAP6 SWAP5 POP POP POP POP POP JUMP JUMPDEST PUSH1 0x0 DUP3 DUP3 GT ISZERO PUSH2 0xF25 JUMPI PUSH1 0x0 DUP1 REVERT JUMPDEST POP SWAP1 SUB SWAP1 JUMP JUMPDEST PUSH1 0x0 DUP3 DUP3 ADD DUP4 DUP2 LT ISZERO PUSH2 0x6FA JUMPI PUSH1 0x0 DUP1 REVERT JUMPDEST PUSH1 0x0 DUP1 DUP3 GT PUSH2 0xF4B JUMPI PUSH1 0x0 DUP1 REVERT JUMPDEST DUP2 DUP4 DUP2 PUSH2 0xF54 JUMPI INVALID JUMPDEST DIV SWAP4 SWAP3 POP POP POP JUMP JUMPDEST PUSH1 0x60 PUSH1 0x0 DUP3 PUSH1 0x20 ADD MLOAD PUSH1 0xFF AND PUSH8 0xFFFFFFFFFFFFFFFF DUP2 GT DUP1 ISZERO PUSH2 0xF7E JUMPI PUSH1 0x0 DUP1 REVERT JUMPDEST POP PUSH1 0x40 MLOAD SWAP1 DUP1 DUP3 MSTORE DUP1 PUSH1 0x1F ADD PUSH1 0x1F NOT AND PUSH1 0x20 ADD DUP3 ADD PUSH1 0x40 MSTORE DUP1 ISZERO PUSH2 0xFA9 JUMPI PUSH1 0x20 DUP3 ADD DUP2 DUP1 CALLDATASIZE DUP4 CALLDATACOPY ADD SWAP1 POP JUMPDEST POP SWAP1 POP DUP3 PUSH1 0xE0 ADD MLOAD ISZERO PUSH2 0x1017 JUMPI PUSH32 0x2500000000000000000000000000000000000000000000000000000000000000 DUP2 PUSH1 0x1 DUP4 MLOAD SUB DUP2 MLOAD DUP2 LT PUSH2 0xFE7 JUMPI INVALID JUMPDEST PUSH1 0x20 ADD ADD SWAP1 PUSH31 0xFFFFFFFFFFFFFFFFFFFFFFFFFFFFFFFFFFFFFFFFFFFFFFFFFFFFFFFFFFFFFF NOT AND SWAP1 DUP2 PUSH1 0x0 BYTE SWAP1 MSTORE8 POP JUMPDEST DUP3 PUSH1 0xC0 ADD MLOAD ISZERO PUSH2 0x10DC JUMPI PUSH32 0x3000000000000000000000000000000000000000000000000000000000000000 DUP2 PUSH1 0x0 DUP2 MLOAD DUP2 LT PUSH2 0x104F JUMPI INVALID JUMPDEST PUSH1 0x20 ADD ADD SWAP1 PUSH31 0xFFFFFFFFFFFFFFFFFFFFFFFFFFFFFFFFFFFFFFFFFFFFFFFFFFFFFFFFFFFFFF NOT AND SWAP1 DUP2 PUSH1 0x0 BYTE SWAP1 MSTORE8 POP PUSH32 0x2E00000000000000000000000000000000000000000000000000000000000000 DUP2 PUSH1 0x1 DUP2 MLOAD DUP2 LT PUSH2 0x10AC JUMPI INVALID JUMPDEST PUSH1 0x20 ADD ADD SWAP1 PUSH31 0xFFFFFFFFFFFFFFFFFFFFFFFFFFFFFFFFFFFFFFFFFFFFFFFFFFFFFFFFFFFFFF NOT AND SWAP1 DUP2 PUSH1 0x0 BYTE SWAP1 MSTORE8 POP JUMPDEST PUSH1 0x80 DUP4 ADD MLOAD PUSH1 0xFF AND JUMPDEST PUSH1 0xA0 DUP5 ADD MLOAD PUSH2 0x10F8 SWAP1 PUSH1 0xFF AND PUSH1 0x1 PUSH2 0xF2B JUMP JUMPDEST DUP2 LT ISZERO PUSH2 0x1147 JUMPI PUSH1 0x30 PUSH1 0xF8 SHL DUP3 DUP3 DUP2 MLOAD DUP2 LT PUSH2 0x1110 JUMPI INVALID JUMPDEST PUSH1 0x20 ADD ADD SWAP1 PUSH31 0xFFFFFFFFFFFFFFFFFFFFFFFFFFFFFFFFFFFFFFFFFFFFFFFFFFFFFFFFFFFFFF NOT AND SWAP1 DUP2 PUSH1 0x0 BYTE SWAP1 MSTORE8 POP PUSH1 0x1 ADD PUSH2 0x10E5 JUMP JUMPDEST POP JUMPDEST DUP3 MLOAD ISZERO PUSH2 0x486 JUMPI PUSH1 0x0 DUP4 PUSH1 0x60 ADD MLOAD PUSH1 0xFF AND GT DUP1 ISZERO PUSH2 0x1174 JUMPI POP DUP3 PUSH1 0x60 ADD MLOAD PUSH1 0xFF AND DUP4 PUSH1 0x40 ADD MLOAD PUSH1 0xFF AND EQ JUMPDEST ISZERO PUSH2 0x11EB JUMPI PUSH1 0x40 DUP4 ADD DUP1 MLOAD PUSH1 0xFF PUSH1 0x0 NOT DUP3 ADD DUP2 AND SWAP1 SWAP3 MSTORE DUP3 MLOAD PUSH32 0x2E00000000000000000000000000000000000000000000000000000000000000 SWAP3 DUP5 SWAP3 AND SWAP1 DUP2 LT PUSH2 0x11BB JUMPI INVALID JUMPDEST PUSH1 0x20 ADD ADD SWAP1 PUSH31 0xFFFFFFFFFFFFFFFFFFFFFFFFFFFFFFFFFFFFFFFFFFFFFFFFFFFFFFFFFFFFFF NOT AND SWAP1 DUP2 PUSH1 0x0 BYTE SWAP1 MSTORE8 POP JUMPDEST DUP3 MLOAD PUSH2 0x11FD SWAP1 PUSH1 0x30 SWAP1 PUSH1 0xA SWAP1 MOD PUSH2 0xF2B JUMP JUMPDEST PUSH1 0xF8 SHL DUP2 DUP5 PUSH1 0x40 ADD DUP1 MLOAD DUP1 SWAP2 SWAP1 PUSH1 0x1 SWAP1 SUB PUSH1 0xFF AND PUSH1 0xFF AND DUP2 MSTORE POP PUSH1 0xFF AND DUP2 MLOAD DUP2 LT PUSH2 0x1224 JUMPI INVALID JUMPDEST PUSH1 0x20 ADD ADD SWAP1 PUSH31 0xFFFFFFFFFFFFFFFFFFFFFFFFFFFFFFFFFFFFFFFFFFFFFFFFFFFFFFFFFFFFFF NOT AND SWAP1 DUP2 PUSH1 0x0 BYTE SWAP1 MSTORE8 POP PUSH1 0xA DUP4 PUSH1 0x0 ADD DUP2 DUP2 MLOAD DUP2 PUSH2 0x1263 JUMPI INVALID JUMPDEST DIV SWAP1 MSTORE POP PUSH2 0x1149 JUMP JUMPDEST PUSH1 0x60 DUP5 PUSH1 0x2 DUP2 SWAP1 SIGNEXTEND PUSH32 0xFFFFFFFFFFFFFFFFFFFFFFFFFFFFFFFFFFFFFFFFFFFFFFFFFFFFFFFFFFF27618 DUP2 PUSH2 0x129C JUMPI INVALID JUMPDEST SDIV MUL PUSH1 0x2 SIGNEXTEND DUP7 PUSH1 0x2 SIGNEXTEND EQ ISZERO PUSH2 0x132A JUMPI DUP2 ISZERO PUSH2 0x12EC JUMPI PUSH1 0x40 MLOAD DUP1 PUSH1 0x40 ADD PUSH1 0x40 MSTORE DUP1 PUSH1 0x3 DUP2 MSTORE PUSH1 0x20 ADD PUSH32 0x4D41580000000000000000000000000000000000000000000000000000000000 DUP2 MSTORE POP PUSH2 0x1323 JUMP JUMPDEST PUSH1 0x40 MLOAD DUP1 PUSH1 0x40 ADD PUSH1 0x40 MSTORE DUP1 PUSH1 0x3 DUP2 MSTORE PUSH1 0x20 ADD PUSH32 0x4D494E0000000000000000000000000000000000000000000000000000000000 DUP2 MSTORE POP JUMPDEST SWAP1 POP PUSH2 0x83D JUMP JUMPDEST DUP5 PUSH1 0x2 DUP2 SWAP1 SIGNEXTEND PUSH3 0xD89E8 DUP2 PUSH2 0x133B JUMPI INVALID JUMPDEST SDIV MUL PUSH1 0x2 SIGNEXTEND DUP7 PUSH1 0x2 SIGNEXTEND EQ ISZERO PUSH2 0x13C5 JUMPI DUP2 ISZERO PUSH2 0x138B JUMPI PUSH1 0x40 MLOAD DUP1 PUSH1 0x40 ADD PUSH1 0x40 MSTORE DUP1 PUSH1 0x3 DUP2 MSTORE PUSH1 0x20 ADD PUSH32 0x4D494E0000000000000000000000000000000000000000000000000000000000 DUP2 MSTORE POP PUSH2 0x1323 JUMP JUMPDEST POP PUSH1 0x40 DUP1 MLOAD DUP1 DUP3 ADD SWAP1 SWAP2 MSTORE PUSH1 0x3 DUP2 MSTORE PUSH32 0x4D41580000000000000000000000000000000000000000000000000000000000 PUSH1 0x20 DUP3 ADD MSTORE PUSH2 0x83D JUMP JUMPDEST PUSH1 0x0 PUSH2 0x13D0 DUP8 PUSH2 0x1926 JUMP JUMPDEST SWAP1 POP DUP3 ISZERO PUSH2 0x1414 JUMPI PUSH2 0x1411 PUSH25 0x1000000000000000000000000000000000000000000000000 PUSH20 0xFFFFFFFFFFFFFFFFFFFFFFFFFFFFFFFFFFFFFFFF DUP4 AND PUSH2 0xF3D JUMP JUMPDEST SWAP1 POP JUMPDEST PUSH2 0x141F DUP2 DUP7 DUP7 PUSH2 0x1C39 JUMP JUMPDEST SWAP2 POP POP PUSH2 0x83D JUMP JUMPDEST PUSH1 0x60 PUSH1 0x0 DUP3 PUSH1 0x2 MUL PUSH1 0x2 ADD PUSH8 0xFFFFFFFFFFFFFFFF DUP2 GT DUP1 ISZERO PUSH2 0x1448 JUMPI PUSH1 0x0 DUP1 REVERT JUMPDEST POP PUSH1 0x40 MLOAD SWAP1 DUP1 DUP3 MSTORE DUP1 PUSH1 0x1F ADD PUSH1 0x1F NOT AND PUSH1 0x20 ADD DUP3 ADD PUSH1 0x40 MSTORE DUP1 ISZERO PUSH2 0x1473 JUMPI PUSH1 0x20 DUP3 ADD DUP2 DUP1 CALLDATASIZE DUP4 CALLDATACOPY ADD SWAP1 POP JUMPDEST POP SWAP1 POP PUSH32 0x3000000000000000000000000000000000000000000000000000000000000000 DUP2 PUSH1 0x0 DUP2 MLOAD DUP2 LT PUSH2 0x14A4 JUMPI INVALID JUMPDEST PUSH1 0x20 ADD ADD SWAP1 PUSH31 0xFFFFFFFFFFFFFFFFFFFFFFFFFFFFFFFFFFFFFFFFFFFFFFFFFFFFFFFFFFFFFF NOT AND SWAP1 DUP2 PUSH1 0x0 BYTE SWAP1 MSTORE8 POP PUSH32 0x7800000000000000000000000000000000000000000000000000000000000000 DUP2 PUSH1 0x1 DUP2 MLOAD DUP2 LT PUSH2 0x1501 JUMPI INVALID JUMPDEST PUSH1 0x20 ADD ADD SWAP1 PUSH31 0xFFFFFFFFFFFFFFFFFFFFFFFFFFFFFFFFFFFFFFFFFFFFFFFFFFFFFFFFFFFFFF NOT AND SWAP1 DUP2 PUSH1 0x0 BYTE SWAP1 MSTORE8 POP PUSH1 0x1 PUSH1 0x2 DUP5 MUL ADD JUMPDEST PUSH1 0x1 DUP2 GT ISZERO PUSH2 0x15BF JUMPI PUSH32 0x3031323334353637383961626364656600000000000000000000000000000000 DUP6 PUSH1 0xF AND PUSH1 0x10 DUP2 LT PUSH2 0x1570 JUMPI INVALID JUMPDEST BYTE PUSH1 0xF8 SHL DUP3 DUP3 DUP2 MLOAD DUP2 LT PUSH2 0x1580 JUMPI INVALID JUMPDEST PUSH1 0x20 ADD ADD SWAP1 PUSH31 0xFFFFFFFFFFFFFFFFFFFFFFFFFFFFFFFFFFFFFFFFFFFFFFFFFFFFFFFFFFFFFF NOT AND SWAP1 DUP2 PUSH1 0x0 BYTE SWAP1 MSTORE8 POP PUSH1 0x4 SWAP5 SWAP1 SWAP5 SHR SWAP4 PUSH1 0x0 NOT ADD PUSH2 0x1538 JUMP JUMPDEST POP DUP4 ISZERO PUSH2 0x6FA JUMPI PUSH1 0x0 DUP1 REVERT JUMPDEST PUSH1 0x0 DUP4 PUSH1 0x2 SIGNEXTEND DUP3 PUSH1 0x2 SIGNEXTEND SLT ISZERO PUSH2 0x15E4 JUMPI POP PUSH1 0x0 NOT PUSH2 0x6FA JUMP JUMPDEST DUP3 PUSH1 0x2 SIGNEXTEND DUP3 PUSH1 0x2 SIGNEXTEND SGT ISZERO PUSH2 0x15FA JUMPI POP PUSH1 0x1 PUSH2 0x6FA JUMP JUMPDEST POP PUSH1 0x0 PUSH2 0x6FA JUMP JUMPDEST PUSH1 0x60 PUSH2 0x6FA DUP4 DUP4 SHR PUSH1 0x3 PUSH2 0x1E21 JUMP JUMPDEST PUSH1 0x0 PUSH1 0xFF DUP3 PUSH2 0x1620 DUP7 DUP7 PUSH2 0x1F00 JUMP JUMPDEST MUL DUP2 PUSH2 0x1628 JUMPI INVALID JUMPDEST MOD SWAP5 SWAP4 POP POP POP POP JUMP JUMPDEST PUSH1 0x60 PUSH2 0x166F PUSH2 0x166A DUP5 PUSH2 0x2C7 PUSH2 0x1647 DUP9 DUP11 PUSH2 0xF16 JUMP JUMPDEST PUSH2 0x1664 PUSH2 0x1654 DUP9 DUP11 PUSH2 0xF16 JUMP JUMPDEST PUSH2 0x165E DUP14 DUP14 PUSH2 0xF16 JUMP JUMPDEST SWAP1 PUSH2 0x1F07 JUMP JUMPDEST SWAP1 PUSH2 0xF3D JUMP JUMPDEST PUSH2 0x701 JUMP JUMPDEST SWAP7 SWAP6 POP POP POP POP POP POP JUMP JUMPDEST PUSH1 0x60 PUSH2 0x1684 DUP3 PUSH2 0x1F2E JUMP JUMPDEST PUSH2 0x16A0 DUP4 PUSH1 0x0 ADD MLOAD DUP5 PUSH1 0x20 ADD MLOAD DUP6 PUSH1 0x60 ADD MLOAD DUP7 PUSH1 0x80 ADD MLOAD PUSH2 0x2638 JUMP JUMPDEST PUSH2 0x16B7 DUP5 PUSH1 0x60 ADD MLOAD DUP6 PUSH1 0x80 ADD MLOAD DUP7 PUSH1 0xA0 ADD MLOAD PUSH2 0x29C3 JUMP JUMPDEST PUSH2 0x16D5 DUP6 PUSH1 0xC0 ADD MLOAD DUP7 PUSH1 0xE0 ADD MLOAD DUP8 PUSH2 0x100 ADD MLOAD DUP9 PUSH2 0x120 ADD MLOAD PUSH2 0x2B41 JUMP JUMPDEST PUSH2 0x16F5 PUSH2 0x16E6 DUP8 PUSH2 0x140 ADD MLOAD PUSH2 0x701 JUMP JUMPDEST DUP8 PUSH1 0xC0 ADD MLOAD DUP9 PUSH1 0xE0 ADD MLOAD PUSH2 0x2ECA JUMP JUMPDEST PUSH2 0x1708 DUP8 PUSH2 0x140 ADD MLOAD DUP9 PUSH1 0x40 ADD MLOAD PUSH2 0x334F JUMP JUMPDEST PUSH1 0x40 MLOAD PUSH1 0x20 ADD DUP1 DUP8 DUP1 MLOAD SWAP1 PUSH1 0x20 ADD SWAP1 DUP1 DUP4 DUP4 JUMPDEST PUSH1 0x20 DUP4 LT PUSH2 0x173A JUMPI DUP1 MLOAD DUP3 MSTORE PUSH1 0x1F NOT SWAP1 SWAP3 ADD SWAP2 PUSH1 0x20 SWAP2 DUP3 ADD SWAP2 ADD PUSH2 0x171B JUMP JUMPDEST MLOAD DUP2 MLOAD PUSH1 0x20 SWAP4 DUP5 SUB PUSH2 0x100 EXP PUSH1 0x0 NOT ADD DUP1 NOT SWAP1 SWAP3 AND SWAP2 AND OR SWAP1 MSTORE DUP10 MLOAD SWAP2 SWAP1 SWAP4 ADD SWAP3 DUP10 ADD SWAP2 POP DUP1 DUP4 DUP4 JUMPDEST PUSH1 0x20 DUP4 LT PUSH2 0x1782 JUMPI DUP1 MLOAD DUP3 MSTORE PUSH1 0x1F NOT SWAP1 SWAP3 ADD SWAP2 PUSH1 0x20 SWAP2 DUP3 ADD SWAP2 ADD PUSH2 0x1763 JUMP JUMPDEST MLOAD DUP2 MLOAD PUSH1 0x20 SWAP4 DUP5 SUB PUSH2 0x100 EXP PUSH1 0x0 NOT ADD DUP1 NOT SWAP1 SWAP3 AND SWAP2 AND OR SWAP1 MSTORE DUP9 MLOAD SWAP2 SWAP1 SWAP4 ADD SWAP3 DUP9 ADD SWAP2 POP DUP1 DUP4 DUP4 JUMPDEST PUSH1 0x20 DUP4 LT PUSH2 0x17CA JUMPI DUP1 MLOAD DUP3 MSTORE PUSH1 0x1F NOT SWAP1 SWAP3 ADD SWAP2 PUSH1 0x20 SWAP2 DUP3 ADD SWAP2 ADD PUSH2 0x17AB JUMP JUMPDEST MLOAD DUP2 MLOAD PUSH1 0x20 SWAP4 DUP5 SUB PUSH2 0x100 EXP PUSH1 0x0 NOT ADD DUP1 NOT SWAP1 SWAP3 AND SWAP2 AND OR SWAP1 MSTORE DUP8 MLOAD SWAP2 SWAP1 SWAP4 ADD SWAP3 DUP8 ADD SWAP2 POP DUP1 DUP4 DUP4 JUMPDEST PUSH1 0x20 DUP4 LT PUSH2 0x1812 JUMPI DUP1 MLOAD DUP3 MSTORE PUSH1 0x1F NOT SWAP1 SWAP3 ADD SWAP2 PUSH1 0x20 SWAP2 DUP3 ADD SWAP2 ADD PUSH2 0x17F3 JUMP JUMPDEST MLOAD DUP2 MLOAD PUSH1 0x20 SWAP4 DUP5 SUB PUSH2 0x100 EXP PUSH1 0x0 NOT ADD DUP1 NOT SWAP1 SWAP3 AND SWAP2 AND OR SWAP1 MSTORE DUP7 MLOAD SWAP2 SWAP1 SWAP4 ADD SWAP3 DUP7 ADD SWAP2 POP DUP1 DUP4 DUP4 JUMPDEST PUSH1 0x20 DUP4 LT PUSH2 0x185A JUMPI DUP1 MLOAD DUP3 MSTORE PUSH1 0x1F NOT SWAP1 SWAP3 ADD SWAP2 PUSH1 0x20 SWAP2 DUP3 ADD SWAP2 ADD PUSH2 0x183B JUMP JUMPDEST MLOAD DUP2 MLOAD PUSH1 0x20 SWAP4 DUP5 SUB PUSH2 0x100 EXP PUSH1 0x0 NOT ADD DUP1 NOT SWAP1 SWAP3 AND SWAP2 AND OR SWAP1 MSTORE DUP6 MLOAD SWAP2 SWAP1 SWAP4 ADD SWAP3 DUP6 ADD SWAP2 POP DUP1 DUP4 DUP4 JUMPDEST PUSH1 0x20 DUP4 LT PUSH2 0x18A2 JUMPI DUP1 MLOAD DUP3 MSTORE PUSH1 0x1F NOT SWAP1 SWAP3 ADD SWAP2 PUSH1 0x20 SWAP2 DUP3 ADD SWAP2 ADD PUSH2 0x1883 JUMP JUMPDEST MLOAD DUP2 MLOAD PUSH1 0x20 SWAP4 SWAP1 SWAP4 SUB PUSH2 0x100 EXP PUSH1 0x0 NOT ADD DUP1 NOT SWAP1 SWAP2 AND SWAP3 AND SWAP2 SWAP1 SWAP2 OR SWAP1 MSTORE PUSH32 0x3C2F7376673E0000000000000000000000000000000000000000000000000000 SWAP3 ADD SWAP2 DUP3 MSTORE POP PUSH1 0x40 DUP1 MLOAD DUP1 DUP4 SUB PUSH32 0xFFFFFFFFFFFFFFFFFFFFFFFFFFFFFFFFFFFFFFFFFFFFFFFFFFFFFFFFFFFFFFE6 ADD DUP2 MSTORE PUSH1 0x6 SWAP1 SWAP3 ADD SWAP1 MSTORE SWAP10 SWAP9 POP POP POP POP POP POP POP POP POP JUMP JUMPDEST PUSH1 0x0 DUP1 PUSH1 0x0 DUP4 PUSH1 0x2 SIGNEXTEND SLT PUSH2 0x193D JUMPI DUP3 PUSH1 0x2 SIGNEXTEND PUSH2 0x1945 JUMP JUMPDEST DUP3 PUSH1 0x2 SIGNEXTEND PUSH1 0x0 SUB JUMPDEST SWAP1 POP PUSH3 0xD89E8 DUP2 GT ISZERO PUSH2 0x1957 JUMPI PUSH1 0x0 DUP1 REVERT JUMPDEST PUSH1 0x0 PUSH1 0x1 DUP3 AND PUSH2 0x1978 JUMPI PUSH17 0x100000000000000000000000000000000 PUSH2 0x198A JUMP JUMPDEST PUSH16 0xFFFCB933BD6FAD37AA2D162D1A594001 JUMPDEST PUSH17 0xFFFFFFFFFFFFFFFFFFFFFFFFFFFFFFFFFF AND SWAP1 POP PUSH1 0x2 DUP3 AND ISZERO PUSH2 0x19BE JUMPI PUSH16 0xFFF97272373D413259A46990580E213A MUL PUSH1 0x80 SHR JUMPDEST PUSH1 0x4 DUP3 AND ISZERO PUSH2 0x19DD JUMPI PUSH16 0xFFF2E50F5F656932EF12357CF3C7FDCC MUL PUSH1 0x80 SHR JUMPDEST PUSH1 0x8 DUP3 AND ISZERO PUSH2 0x19FC JUMPI PUSH16 0xFFE5CACA7E10E4E61C3624EAA0941CD0 MUL PUSH1 0x80 SHR JUMPDEST PUSH1 0x10 DUP3 AND ISZERO PUSH2 0x1A1B JUMPI PUSH16 0xFFCB9843D60F6159C9DB58835C926644 MUL PUSH1 0x80 SHR JUMPDEST PUSH1 0x20 DUP3 AND ISZERO PUSH2 0x1A3A JUMPI PUSH16 0xFF973B41FA98C081472E6896DFB254C0 MUL PUSH1 0x80 SHR JUMPDEST PUSH1 0x40 DUP3 AND ISZERO PUSH2 0x1A59 JUMPI PUSH16 0xFF2EA16466C96A3843EC78B326B52861 MUL PUSH1 0x80 SHR JUMPDEST PUSH1 0x80 DUP3 AND ISZERO PUSH2 0x1A78 JUMPI PUSH16 0xFE5DEE046A99A2A811C461F1969C3053 MUL PUSH1 0x80 SHR JUMPDEST PUSH2 0x100 DUP3 AND ISZERO PUSH2 0x1A98 JUMPI PUSH16 0xFCBE86C7900A88AEDCFFC83B479AA3A4 MUL PUSH1 0x80 SHR JUMPDEST PUSH2 0x200 DUP3 AND ISZERO PUSH2 0x1AB8 JUMPI PUSH16 0xF987A7253AC413176F2B074CF7815E54 MUL PUSH1 0x80 SHR JUMPDEST PUSH2 0x400 DUP3 AND ISZERO PUSH2 0x1AD8 JUMPI PUSH16 0xF3392B0822B70005940C7A398E4B70F3 MUL PUSH1 0x80 SHR JUMPDEST PUSH2 0x800 DUP3 AND ISZERO PUSH2 0x1AF8 JUMPI PUSH16 0xE7159475A2C29B7443B29C7FA6E889D9 MUL PUSH1 0x80 SHR JUMPDEST PUSH2 0x1000 DUP3 AND ISZERO PUSH2 0x1B18 JUMPI PUSH16 0xD097F3BDFD2022B8845AD8F792AA5825 MUL PUSH1 0x80 SHR JUMPDEST PUSH2 0x2000 DUP3 AND ISZERO PUSH2 0x1B38 JUMPI PUSH16 0xA9F746462D870FDF8A65DC1F90E061E5 MUL PUSH1 0x80 SHR JUMPDEST PUSH2 0x4000 DUP3 AND ISZERO PUSH2 0x1B58 JUMPI PUSH16 0x70D869A156D2A1B890BB3DF62BAF32F7 MUL PUSH1 0x80 SHR JUMPDEST PUSH2 0x8000 DUP3 AND ISZERO PUSH2 0x1B78 JUMPI PUSH16 0x31BE135F97D08FD981231505542FCFA6 MUL PUSH1 0x80 SHR JUMPDEST PUSH3 0x10000 DUP3 AND ISZERO PUSH2 0x1B99 JUMPI PUSH16 0x9AA508B5B7A84E1C677DE54F3E99BC9 MUL PUSH1 0x80 SHR JUMPDEST PUSH3 0x20000 DUP3 AND ISZERO PUSH2 0x1BB9 JUMPI PUSH15 0x5D6AF8DEDB81196699C329225EE604 MUL PUSH1 0x80 SHR JUMPDEST PUSH3 0x40000 DUP3 AND ISZERO PUSH2 0x1BD8 JUMPI PUSH14 0x2216E584F5FA1EA926041BEDFE98 MUL PUSH1 0x80 SHR JUMPDEST PUSH3 0x80000 DUP3 AND ISZERO PUSH2 0x1BF5 JUMPI PUSH12 0x48A170391F7DC42444E8FA2 MUL PUSH1 0x80 SHR JUMPDEST PUSH1 0x0 DUP5 PUSH1 0x2 SIGNEXTEND SGT ISZERO PUSH2 0x1C10 JUMPI DUP1 PUSH1 0x0 NOT DUP2 PUSH2 0x1C0C JUMPI INVALID JUMPDEST DIV SWAP1 POP JUMPDEST PUSH5 0x100000000 DUP2 MOD ISZERO PUSH2 0x1C24 JUMPI PUSH1 0x1 PUSH2 0x1C27 JUMP JUMPDEST PUSH1 0x0 JUMPDEST PUSH1 0xFF AND PUSH1 0x20 DUP3 SWAP1 SHR ADD SWAP3 POP POP POP SWAP2 SWAP1 POP JUMP JUMPDEST PUSH1 0x60 PUSH1 0x0 PUSH2 0x1C48 DUP6 DUP6 DUP6 PUSH2 0x33C7 JUMP JUMPDEST SWAP1 POP PUSH1 0x0 PUSH2 0x1C60 DUP3 DUP4 PUSH9 0x10000000000000000 PUSH2 0x350A JUMP JUMPDEST SWAP1 POP PUSH13 0x1000000000000000000000000 DUP3 LT DUP1 ISZERO PUSH2 0x1CAE JUMPI PUSH2 0x1CA7 DUP3 PUSH19 0x47BF19673DF52E37F2410011D100000000000 PUSH17 0x100000000000000000000000000000000 PUSH2 0x350A JUMP JUMPDEST SWAP2 POP PUSH2 0x1CD0 JUMP JUMPDEST PUSH2 0x1CCD DUP3 PUSH3 0x186A0 PUSH17 0x100000000000000000000000000000000 PUSH2 0x350A JUMP JUMPDEST SWAP2 POP JUMPDEST DUP2 PUSH1 0x0 JUMPDEST DUP2 ISZERO PUSH2 0x1CE8 JUMPI PUSH1 0x1 ADD PUSH1 0xA DUP3 DIV SWAP2 POP PUSH2 0x1CD4 JUMP JUMPDEST PUSH1 0x0 NOT ADD PUSH1 0x0 DUP1 PUSH2 0x1CF9 DUP7 DUP5 PUSH2 0x35B9 JUMP JUMPDEST SWAP2 POP SWAP2 POP DUP1 ISZERO PUSH2 0x1D0A JUMPI PUSH1 0x1 SWAP1 SWAP3 ADD SWAP2 JUMPDEST PUSH2 0x1D12 PUSH2 0x461D JUMP JUMPDEST DUP6 ISZERO PUSH2 0x1D7F JUMPI PUSH2 0x1D31 PUSH2 0x1D29 PUSH1 0x2B PUSH1 0xFF DUP8 AND PUSH2 0xF16 JUMP JUMPDEST PUSH1 0x7 SWAP1 PUSH2 0xF2B JUMP JUMPDEST PUSH1 0xFF SWAP1 DUP2 AND PUSH1 0x20 DUP4 ADD MSTORE PUSH1 0x2 PUSH1 0x80 DUP4 ADD MSTORE PUSH2 0x1D57 SWAP1 PUSH1 0x1 SWAP1 PUSH2 0x2C7 SWAP1 PUSH1 0x2B SWAP1 DUP9 AND PUSH2 0xF16 JUMP JUMPDEST PUSH1 0xFF SWAP1 DUP2 AND PUSH1 0xA0 DUP4 ADD MSTORE PUSH1 0x20 DUP3 ADD MLOAD PUSH2 0x1D72 SWAP2 AND PUSH1 0x1 PUSH2 0xF16 JUMP JUMPDEST PUSH1 0xFF AND PUSH1 0x40 DUP3 ADD MSTORE PUSH2 0x1DF6 JUMP JUMPDEST PUSH1 0x9 DUP5 PUSH1 0xFF AND LT PUSH2 0x1DC8 JUMPI PUSH2 0x1D98 PUSH1 0xFF DUP6 AND PUSH1 0x4 PUSH2 0xF16 JUMP JUMPDEST PUSH1 0xFF AND PUSH1 0x20 DUP3 ADD DUP2 SWAP1 MSTORE PUSH1 0x5 PUSH1 0x80 DUP4 ADD MSTORE PUSH2 0x1DB4 SWAP1 PUSH1 0x1 PUSH2 0xF16 JUMP JUMPDEST PUSH1 0xFF AND PUSH1 0xA0 DUP3 ADD MSTORE PUSH1 0x4 PUSH1 0x40 DUP3 ADD MSTORE PUSH2 0x1DF6 JUMP JUMPDEST PUSH1 0x6 PUSH1 0x20 DUP3 ADD MSTORE PUSH1 0x5 PUSH1 0x40 DUP3 ADD DUP2 SWAP1 MSTORE PUSH2 0x1DED SWAP1 PUSH1 0x1 SWAP1 PUSH2 0x2C7 SWAP1 PUSH1 0xFF DUP9 AND SWAP1 PUSH2 0xF16 JUMP JUMPDEST PUSH1 0xFF AND PUSH1 0x60 DUP3 ADD MSTORE JUMPDEST DUP3 DUP2 MSTORE DUP6 ISZERO ISZERO PUSH1 0xC0 DUP3 ADD MSTORE PUSH1 0x0 PUSH1 0xE0 DUP3 ADD MSTORE PUSH2 0x1E11 DUP2 PUSH2 0xF5C JUMP JUMPDEST SWAP13 SWAP12 POP POP POP POP POP POP POP POP POP POP POP POP JUMP JUMPDEST PUSH1 0x60 PUSH1 0x0 DUP3 PUSH1 0x2 MUL PUSH8 0xFFFFFFFFFFFFFFFF DUP2 GT DUP1 ISZERO PUSH2 0x1E3F JUMPI PUSH1 0x0 DUP1 REVERT JUMPDEST POP PUSH1 0x40 MLOAD SWAP1 DUP1 DUP3 MSTORE DUP1 PUSH1 0x1F ADD PUSH1 0x1F NOT AND PUSH1 0x20 ADD DUP3 ADD PUSH1 0x40 MSTORE DUP1 ISZERO PUSH2 0x1E6A JUMPI PUSH1 0x20 DUP3 ADD DUP2 DUP1 CALLDATASIZE DUP4 CALLDATACOPY ADD SWAP1 POP JUMPDEST POP DUP1 MLOAD SWAP1 SWAP2 POP JUMPDEST DUP1 ISZERO PUSH2 0x1EF8 JUMPI PUSH32 0x3031323334353637383961626364656600000000000000000000000000000000 DUP6 PUSH1 0xF AND PUSH1 0x10 DUP2 LT PUSH2 0x1EA6 JUMPI INVALID JUMPDEST BYTE PUSH1 0xF8 SHL DUP3 PUSH1 0x1 DUP4 SUB DUP2 MLOAD DUP2 LT PUSH2 0x1EB9 JUMPI INVALID JUMPDEST PUSH1 0x20 ADD ADD SWAP1 PUSH31 0xFFFFFFFFFFFFFFFFFFFFFFFFFFFFFFFFFFFFFFFFFFFFFFFFFFFFFFFFFFFFFF NOT AND SWAP1 DUP2 PUSH1 0x0 BYTE SWAP1 MSTORE8 POP PUSH1 0x4 SWAP5 SWAP1 SWAP5 SHR SWAP4 PUSH1 0x0 NOT ADD PUSH2 0x1E71 JUMP JUMPDEST POP SWAP4 SWAP3 POP POP POP JUMP JUMPDEST SHR PUSH1 0xFF AND SWAP1 JUMP JUMPDEST PUSH1 0x0 DUP3 PUSH2 0x1F16 JUMPI POP PUSH1 0x0 PUSH2 0x486 JUMP JUMPDEST DUP3 DUP3 MUL DUP3 DUP5 DUP3 DUP2 PUSH2 0x1F23 JUMPI INVALID JUMPDEST DIV EQ PUSH2 0x6FA JUMPI PUSH1 0x0 DUP1 REVERT JUMPDEST PUSH1 0x60 PUSH2 0x1FD7 DUP3 PUSH2 0x160 ADD MLOAD PUSH1 0x40 MLOAD PUSH1 0x20 ADD DUP1 DUP1 PUSH2 0x58DA PUSH1 0x81 SWAP2 CODECOPY PUSH1 0x81 ADD DUP3 DUP1 MLOAD SWAP1 PUSH1 0x20 ADD SWAP1 DUP1 DUP4 DUP4 JUMPDEST PUSH1 0x20 DUP4 LT PUSH2 0x1F76 JUMPI DUP1 MLOAD DUP3 MSTORE PUSH1 0x1F NOT SWAP1 SWAP3 ADD SWAP2 PUSH1 0x20 SWAP2 DUP3 ADD SWAP2 ADD PUSH2 0x1F57 JUMP JUMPDEST PUSH1 0x1 DUP4 PUSH1 0x20 SUB PUSH2 0x100 EXP SUB DUP1 NOT DUP3 MLOAD AND DUP2 DUP5 MLOAD AND DUP1 DUP3 OR DUP6 MSTORE POP POP POP POP POP POP SWAP1 POP ADD DUP1 PUSH32 0x272F3E3C2F7376673E0000000000000000000000000000000000000000000000 DUP2 MSTORE POP PUSH1 0x9 ADD SWAP2 POP POP PUSH1 0x40 MLOAD PUSH1 0x20 DUP2 DUP4 SUB SUB DUP2 MSTORE SWAP1 PUSH1 0x40 MSTORE PUSH2 0xB10 JUMP JUMPDEST PUSH2 0x216E DUP4 PUSH2 0x1E0 ADD MLOAD DUP5 PUSH2 0x200 ADD MLOAD DUP6 PUSH2 0x180 ADD MLOAD PUSH1 0x40 MLOAD PUSH1 0x20 ADD DUP1 DUP1 PUSH2 0x5417 PUSH1 0x63 SWAP2 CODECOPY PUSH1 0x63 ADD DUP5 DUP1 MLOAD SWAP1 PUSH1 0x20 ADD SWAP1 DUP1 DUP4 DUP4 JUMPDEST PUSH1 0x20 DUP4 LT PUSH2 0x2029 JUMPI DUP1 MLOAD DUP3 MSTORE PUSH1 0x1F NOT SWAP1 SWAP3 ADD SWAP2 PUSH1 0x20 SWAP2 DUP3 ADD SWAP2 ADD PUSH2 0x200A JUMP JUMPDEST MLOAD DUP2 MLOAD PUSH1 0x20 SWAP4 DUP5 SUB PUSH2 0x100 EXP PUSH1 0x0 NOT ADD DUP1 NOT SWAP1 SWAP3 AND SWAP2 AND OR SWAP1 MSTORE PUSH32 0x272063793D270000000000000000000000000000000000000000000000000000 SWAP2 SWAP1 SWAP4 ADD SWAP1 DUP2 MSTORE DUP6 MLOAD PUSH1 0x6 SWAP1 SWAP2 ADD SWAP3 DUP7 ADD SWAP2 POP DUP1 DUP4 DUP4 JUMPDEST PUSH1 0x20 DUP4 LT PUSH2 0x209A JUMPI DUP1 MLOAD DUP3 MSTORE PUSH1 0x1F NOT SWAP1 SWAP3 ADD SWAP2 PUSH1 0x20 SWAP2 DUP3 ADD SWAP2 ADD PUSH2 0x207B JUMP JUMPDEST MLOAD DUP2 MLOAD PUSH1 0x20 SWAP4 DUP5 SUB PUSH2 0x100 EXP PUSH1 0x0 NOT ADD DUP1 NOT SWAP1 SWAP3 AND SWAP2 AND OR SWAP1 MSTORE PUSH32 0x2720723D273132307078272066696C6C3D272300000000000000000000000000 SWAP2 SWAP1 SWAP4 ADD SWAP1 DUP2 MSTORE DUP5 MLOAD PUSH1 0x13 SWAP1 SWAP2 ADD SWAP3 DUP6 ADD SWAP2 POP DUP1 DUP4 DUP4 JUMPDEST PUSH1 0x20 DUP4 LT PUSH2 0x210B JUMPI DUP1 MLOAD DUP3 MSTORE PUSH1 0x1F NOT SWAP1 SWAP3 ADD SWAP2 PUSH1 0x20 SWAP2 DUP3 ADD SWAP2 ADD PUSH2 0x20EC JUMP JUMPDEST PUSH1 0x1 DUP4 PUSH1 0x20 SUB PUSH2 0x100 EXP SUB DUP1 NOT DUP3 MLOAD AND DUP2 DUP5 MLOAD AND DUP1 DUP3 OR DUP6 MSTORE POP POP POP POP POP POP SWAP1 POP ADD DUP1 PUSH32 0x272F3E3C2F7376673E0000000000000000000000000000000000000000000000 DUP2 MSTORE POP PUSH1 0x9 ADD SWAP4 POP POP POP POP PUSH1 0x40 MLOAD PUSH1 0x20 DUP2 DUP4 SUB SUB DUP2 MSTORE SWAP1 PUSH1 0x40 MSTORE PUSH2 0xB10 JUMP JUMPDEST PUSH2 0x21BF DUP5 PUSH2 0x220 ADD MLOAD DUP6 PUSH2 0x240 ADD MLOAD DUP7 PUSH2 0x1A0 ADD MLOAD PUSH1 0x40 MLOAD PUSH1 0x20 ADD DUP1 DUP1 PUSH2 0x5417 PUSH1 0x63 SWAP2 CODECOPY PUSH1 0x63 ADD DUP5 DUP1 MLOAD SWAP1 PUSH1 0x20 ADD SWAP1 DUP1 DUP4 DUP4 PUSH1 0x20 DUP4 LT PUSH2 0x2029 JUMPI DUP1 MLOAD DUP3 MSTORE PUSH1 0x1F NOT SWAP1 SWAP3 ADD SWAP2 PUSH1 0x20 SWAP2 DUP3 ADD SWAP2 ADD PUSH2 0x200A JUMP JUMPDEST PUSH2 0x22F5 DUP6 PUSH2 0x260 ADD MLOAD DUP7 PUSH2 0x280 ADD MLOAD DUP8 PUSH2 0x1C0 ADD MLOAD PUSH1 0x40 MLOAD PUSH1 0x20 ADD DUP1 DUP1 PUSH2 0x5417 PUSH1 0x63 SWAP2 CODECOPY PUSH1 0x63 ADD DUP5 DUP1 MLOAD SWAP1 PUSH1 0x20 ADD SWAP1 DUP1 DUP4 DUP4 JUMPDEST PUSH1 0x20 DUP4 LT PUSH2 0x2211 JUMPI DUP1 MLOAD DUP3 MSTORE PUSH1 0x1F NOT SWAP1 SWAP3 ADD SWAP2 PUSH1 0x20 SWAP2 DUP3 ADD SWAP2 ADD PUSH2 0x21F2 JUMP JUMPDEST MLOAD DUP2 MLOAD PUSH1 0x20 SWAP4 DUP5 SUB PUSH2 0x100 EXP PUSH1 0x0 NOT ADD DUP1 NOT SWAP1 SWAP3 AND SWAP2 AND OR SWAP1 MSTORE PUSH32 0x272063793D270000000000000000000000000000000000000000000000000000 SWAP2 SWAP1 SWAP4 ADD SWAP1 DUP2 MSTORE DUP6 MLOAD PUSH1 0x6 SWAP1 SWAP2 ADD SWAP3 DUP7 ADD SWAP2 POP DUP1 DUP4 DUP4 JUMPDEST PUSH1 0x20 DUP4 LT PUSH2 0x2282 JUMPI DUP1 MLOAD DUP3 MSTORE PUSH1 0x1F NOT SWAP1 SWAP3 ADD SWAP2 PUSH1 0x20 SWAP2 DUP3 ADD SWAP2 ADD PUSH2 0x2263 JUMP JUMPDEST MLOAD DUP2 MLOAD PUSH1 0x0 NOT PUSH1 0x20 SWAP5 DUP6 SUB PUSH2 0x100 EXP ADD SWAP1 DUP2 AND SWAP1 NOT SWAP2 SWAP1 SWAP2 AND OR SWAP1 MSTORE PUSH32 0x2720723D273130307078272066696C6C3D272300000000000000000000000000 SWAP4 SWAP1 SWAP2 ADD SWAP3 DUP4 MSTORE DUP5 MLOAD PUSH1 0x13 SWAP1 SWAP4 ADD SWAP3 SWAP1 DUP6 ADD SWAP2 POP DUP1 DUP4 DUP4 PUSH1 0x20 DUP4 LT PUSH2 0x210B JUMPI DUP1 MLOAD DUP3 MSTORE PUSH1 0x1F NOT SWAP1 SWAP3 ADD SWAP2 PUSH1 0x20 SWAP2 DUP3 ADD SWAP2 ADD PUSH2 0x20EC JUMP JUMPDEST PUSH2 0x160 DUP7 ADD MLOAD PUSH1 0x40 MLOAD PUSH1 0x20 ADD DUP1 PUSH1 0x56 PUSH2 0x5192 DUP3 CODECOPY PUSH1 0x56 ADD PUSH1 0x2C PUSH2 0x5B41 DUP3 CODECOPY PUSH32 0x3C646566733E0000000000000000000000000000000000000000000000000000 PUSH1 0x2C DUP3 ADD MSTORE PUSH1 0x32 ADD PUSH1 0x4B PUSH2 0x588F DUP3 CODECOPY PUSH1 0x4B ADD DUP7 DUP1 MLOAD SWAP1 PUSH1 0x20 ADD SWAP1 DUP1 DUP4 DUP4 JUMPDEST PUSH1 0x20 DUP4 LT PUSH2 0x2371 JUMPI DUP1 MLOAD DUP3 MSTORE PUSH1 0x1F NOT SWAP1 SWAP3 ADD SWAP2 PUSH1 0x20 SWAP2 DUP3 ADD SWAP2 ADD PUSH2 0x2352 JUMP JUMPDEST PUSH1 0x1 DUP4 PUSH1 0x20 SUB PUSH2 0x100 EXP SUB DUP1 NOT DUP3 MLOAD AND DUP2 DUP5 MLOAD AND DUP1 DUP3 OR DUP6 MSTORE POP POP POP POP POP POP SWAP1 POP ADD DUP1 PUSH2 0x63A6 PUSH1 0x3E SWAP2 CODECOPY PUSH1 0x3E ADD DUP6 DUP1 MLOAD SWAP1 PUSH1 0x20 ADD SWAP1 DUP1 DUP4 DUP4 JUMPDEST PUSH1 0x20 DUP4 LT PUSH2 0x23C9 JUMPI DUP1 MLOAD DUP3 MSTORE PUSH1 0x1F NOT SWAP1 SWAP3 ADD SWAP2 PUSH1 0x20 SWAP2 DUP3 ADD SWAP2 ADD PUSH2 0x23AA JUMP JUMPDEST PUSH1 0x1 DUP4 PUSH1 0x20 SUB PUSH2 0x100 EXP SUB DUP1 NOT DUP3 MLOAD AND DUP2 DUP5 MLOAD AND DUP1 DUP3 OR DUP6 MSTORE POP POP POP POP POP POP SWAP1 POP ADD DUP1 PUSH2 0x595B PUSH1 0x3E SWAP2 CODECOPY PUSH1 0x3E ADD DUP5 DUP1 MLOAD SWAP1 PUSH1 0x20 ADD SWAP1 DUP1 DUP4 DUP4 JUMPDEST PUSH1 0x20 DUP4 LT PUSH2 0x2421 JUMPI DUP1 MLOAD DUP3 MSTORE PUSH1 0x1F NOT SWAP1 SWAP3 ADD SWAP2 PUSH1 0x20 SWAP2 DUP3 ADD SWAP2 ADD PUSH2 0x2402 JUMP JUMPDEST MLOAD DUP2 MLOAD PUSH1 0x20 SWAP4 SWAP1 SWAP4 SUB PUSH2 0x100 EXP PUSH1 0x0 NOT ADD DUP1 NOT SWAP1 SWAP2 AND SWAP3 AND SWAP2 SWAP1 SWAP2 OR SWAP1 MSTORE PUSH32 0x22202F3E00000000000000000000000000000000000000000000000000000000 SWAP3 ADD SWAP2 DUP3 MSTORE POP PUSH1 0x4 ADD PUSH1 0x3B PUSH2 0x508A DUP3 CODECOPY PUSH1 0x3B ADD DUP4 DUP1 MLOAD SWAP1 PUSH1 0x20 ADD SWAP1 DUP1 DUP4 DUP4 JUMPDEST PUSH1 0x20 DUP4 LT PUSH2 0x249E JUMPI DUP1 MLOAD DUP3 MSTORE PUSH1 0x1F NOT SWAP1 SWAP3 ADD SWAP2 PUSH1 0x20 SWAP2 DUP3 ADD SWAP2 ADD PUSH2 0x247F JUMP JUMPDEST PUSH1 0x1 DUP4 PUSH1 0x20 SUB PUSH2 0x100 EXP SUB DUP1 NOT DUP3 MLOAD AND DUP2 DUP5 MLOAD AND DUP1 DUP3 OR DUP6 MSTORE POP POP POP POP POP POP SWAP1 POP ADD DUP1 PUSH2 0x54D7 PUSH1 0x99 SWAP2 CODECOPY PUSH1 0x99 ADD PUSH1 0x7F PUSH2 0x5F57 DUP3 CODECOPY PUSH1 0x7F ADD PUSH1 0x88 PUSH2 0x631E DUP3 CODECOPY PUSH1 0x88 ADD PUSH1 0x41 PUSH2 0x5570 DUP3 CODECOPY PUSH1 0x41 ADD PUSH1 0x5D PUSH2 0x64DE DUP3 CODECOPY PUSH1 0x5D ADD PUSH1 0x72 PUSH2 0x6003 DUP3 CODECOPY PUSH1 0x72 ADD PUSH1 0x49 PUSH2 0x4FF3 DUP3 CODECOPY PUSH1 0x49 ADD PUSH1 0xBE PUSH2 0x57D1 DUP3 CODECOPY PUSH1 0xBE ADD PUSH1 0x71 PUSH2 0x52A3 DUP3 CODECOPY PUSH1 0x71 ADD PUSH1 0x75 PUSH2 0x5E9A DUP3 CODECOPY PUSH1 0x75 ADD PUSH1 0x66 PUSH2 0x55B1 DUP3 CODECOPY PUSH1 0x66 ADD PUSH1 0xA4 PUSH2 0x5B6D DUP3 CODECOPY PUSH1 0xA4 ADD PUSH1 0x85 PUSH2 0x63E4 DUP3 CODECOPY PUSH32 0x3C6720636C69702D706174683D2275726C2823636F726E65727329223E000000 PUSH1 0x85 DUP3 ADD MSTORE PUSH32 0x3C726563742066696C6C3D220000000000000000000000000000000000000000 PUSH1 0xA2 DUP3 ADD MSTORE DUP3 MLOAD PUSH1 0xAE SWAP1 SWAP2 ADD SWAP1 PUSH1 0x20 DUP5 ADD SWAP1 DUP1 DUP4 DUP4 JUMPDEST PUSH1 0x20 DUP4 LT PUSH2 0x25BC JUMPI DUP1 MLOAD DUP3 MSTORE PUSH1 0x1F NOT SWAP1 SWAP3 ADD SWAP2 PUSH1 0x20 SWAP2 DUP3 ADD SWAP2 ADD PUSH2 0x259D JUMP JUMPDEST PUSH1 0x1 DUP4 PUSH1 0x20 SUB PUSH2 0x100 EXP SUB DUP1 NOT DUP3 MLOAD AND DUP2 DUP5 MLOAD AND DUP1 DUP3 OR DUP6 MSTORE POP POP POP POP POP POP SWAP1 POP ADD DUP1 PUSH2 0x5617 PUSH1 0x31 SWAP2 CODECOPY PUSH1 0x31 ADD PUSH1 0x4E PUSH2 0x503C DUP3 CODECOPY PUSH1 0x4E ADD PUSH1 0x5D PUSH2 0x547A DUP3 CODECOPY PUSH1 0x5D ADD PUSH1 0x41 PUSH2 0x5AC0 DUP3 CODECOPY PUSH1 0x41 ADD PUSH1 0x52 PUSH2 0x5999 DUP3 CODECOPY PUSH1 0x52 ADD PUSH1 0x75 PUSH2 0x6469 DUP3 CODECOPY PUSH1 0x75 ADD SWAP6 POP POP POP POP POP POP PUSH1 0x40 MLOAD PUSH1 0x20 DUP2 DUP4 SUB SUB DUP2 MSTORE SWAP1 PUSH1 0x40 MSTORE SWAP1 POP SWAP2 SWAP1 POP JUMP JUMPDEST PUSH1 0x60 DUP4 DUP3 DUP6 DUP5 DUP9 DUP8 DUP11 DUP10 PUSH1 0x40 MLOAD PUSH1 0x20 ADD DUP1 DUP1 PUSH2 0x65C1 PUSH1 0x25 SWAP2 CODECOPY PUSH1 0x25 ADD PUSH1 0x7D PUSH2 0x5754 DUP3 CODECOPY PUSH1 0x7D ADD DUP10 DUP1 MLOAD SWAP1 PUSH1 0x20 ADD SWAP1 DUP1 DUP4 DUP4 JUMPDEST PUSH1 0x20 DUP4 LT PUSH2 0x2689 JUMPI DUP1 MLOAD DUP3 MSTORE PUSH1 0x1F NOT SWAP1 SWAP3 ADD SWAP2 PUSH1 0x20 SWAP2 DUP3 ADD SWAP2 ADD PUSH2 0x266A JUMP JUMPDEST MLOAD DUP2 MLOAD PUSH1 0x20 SWAP4 DUP5 SUB PUSH2 0x100 EXP PUSH1 0x0 NOT ADD DUP1 NOT SWAP1 SWAP3 AND SWAP2 AND OR SWAP1 MSTORE PUSH32 0x20E280A220000000000000000000000000000000000000000000000000000000 SWAP2 SWAP1 SWAP4 ADD SWAP1 DUP2 MSTORE DUP11 MLOAD PUSH1 0x5 SWAP1 SWAP2 ADD SWAP3 DUP12 ADD SWAP2 POP DUP1 DUP4 DUP4 JUMPDEST PUSH1 0x20 DUP4 LT PUSH2 0x26FA JUMPI DUP1 MLOAD DUP3 MSTORE PUSH1 0x1F NOT SWAP1 SWAP3 ADD SWAP2 PUSH1 0x20 SWAP2 DUP3 ADD SWAP2 ADD PUSH2 0x26DB JUMP JUMPDEST PUSH1 0x1 DUP4 PUSH1 0x20 SUB PUSH2 0x100 EXP SUB DUP1 NOT DUP3 MLOAD AND DUP2 DUP5 MLOAD AND DUP1 DUP3 OR DUP6 MSTORE POP POP POP POP POP POP SWAP1 POP ADD DUP1 PUSH2 0x5648 PUSH1 0x79 SWAP2 CODECOPY PUSH1 0x79 ADD PUSH1 0x86 PUSH2 0x653B DUP3 CODECOPY PUSH1 0x86 ADD DUP8 DUP1 MLOAD SWAP1 PUSH1 0x20 ADD SWAP1 DUP1 DUP4 DUP4 JUMPDEST PUSH1 0x20 DUP4 LT PUSH2 0x275C JUMPI DUP1 MLOAD DUP3 MSTORE PUSH1 0x1F NOT SWAP1 SWAP3 ADD SWAP2 PUSH1 0x20 SWAP2 DUP3 ADD SWAP2 ADD PUSH2 0x273D JUMP JUMPDEST MLOAD DUP2 MLOAD PUSH1 0x20 SWAP4 DUP5 SUB PUSH2 0x100 EXP PUSH1 0x0 NOT ADD DUP1 NOT SWAP1 SWAP3 AND SWAP2 AND OR SWAP1 MSTORE PUSH32 0x20E280A220000000000000000000000000000000000000000000000000000000 SWAP2 SWAP1 SWAP4 ADD SWAP1 DUP2 MSTORE DUP9 MLOAD PUSH1 0x5 SWAP1 SWAP2 ADD SWAP3 DUP10 ADD SWAP2 POP DUP1 DUP4 DUP4 JUMPDEST PUSH1 0x20 DUP4 LT PUSH2 0x27CD JUMPI DUP1 MLOAD DUP3 MSTORE PUSH1 0x1F NOT SWAP1 SWAP3 ADD SWAP2 PUSH1 0x20 SWAP2 DUP3 ADD SWAP2 ADD PUSH2 0x27AE JUMP JUMPDEST PUSH1 0x1 DUP4 PUSH1 0x20 SUB PUSH2 0x100 EXP SUB DUP1 NOT DUP3 MLOAD AND DUP2 DUP5 MLOAD AND DUP1 DUP3 OR DUP6 MSTORE POP POP POP POP POP POP SWAP1 POP ADD DUP1 PUSH2 0x521E PUSH1 0x85 SWAP2 CODECOPY PUSH1 0x85 ADD PUSH1 0x7B PUSH2 0x618C DUP3 CODECOPY PUSH1 0x7B ADD DUP6 DUP1 MLOAD SWAP1 PUSH1 0x20 ADD SWAP1 DUP1 DUP4 DUP4 JUMPDEST PUSH1 0x20 DUP4 LT PUSH2 0x282F JUMPI DUP1 MLOAD DUP3 MSTORE PUSH1 0x1F NOT SWAP1 SWAP3 ADD SWAP2 PUSH1 0x20 SWAP2 DUP3 ADD SWAP2 ADD PUSH2 0x2810 JUMP JUMPDEST MLOAD DUP2 MLOAD PUSH1 0x20 SWAP4 DUP5 SUB PUSH2 0x100 EXP PUSH1 0x0 NOT ADD DUP1 NOT SWAP1 SWAP3 AND SWAP2 AND OR SWAP1 MSTORE PUSH32 0x20E280A220000000000000000000000000000000000000000000000000000000 SWAP2 SWAP1 SWAP4 ADD SWAP1 DUP2 MSTORE DUP7 MLOAD PUSH1 0x5 SWAP1 SWAP2 ADD SWAP3 DUP8 ADD SWAP2 POP DUP1 DUP4 DUP4 JUMPDEST PUSH1 0x20 DUP4 LT PUSH2 0x28A0 JUMPI DUP1 MLOAD DUP3 MSTORE PUSH1 0x1F NOT SWAP1 SWAP3 ADD SWAP2 PUSH1 0x20 SWAP2 DUP3 ADD SWAP2 ADD PUSH2 0x2881 JUMP JUMPDEST PUSH1 0x1 DUP4 PUSH1 0x20 SUB PUSH2 0x100 EXP SUB DUP1 NOT DUP3 MLOAD AND DUP2 DUP5 MLOAD AND DUP1 DUP3 OR DUP6 MSTORE POP POP POP POP POP POP SWAP1 POP ADD DUP1 PUSH2 0x5368 PUSH1 0x5D SWAP2 CODECOPY PUSH1 0x5D ADD PUSH1 0xA3 PUSH2 0x5DF7 DUP3 CODECOPY PUSH1 0xA3 ADD DUP4 DUP1 MLOAD SWAP1 PUSH1 0x20 ADD SWAP1 DUP1 DUP4 DUP4 JUMPDEST PUSH1 0x20 DUP4 LT PUSH2 0x2902 JUMPI DUP1 MLOAD DUP3 MSTORE PUSH1 0x1F NOT SWAP1 SWAP3 ADD SWAP2 PUSH1 0x20 SWAP2 DUP3 ADD SWAP2 ADD PUSH2 0x28E3 JUMP JUMPDEST MLOAD DUP2 MLOAD PUSH1 0x20 SWAP4 DUP5 SUB PUSH2 0x100 EXP PUSH1 0x0 NOT ADD DUP1 NOT SWAP1 SWAP3 AND SWAP2 AND OR SWAP1 MSTORE PUSH32 0x20E280A220000000000000000000000000000000000000000000000000000000 SWAP2 SWAP1 SWAP4 ADD SWAP1 DUP2 MSTORE DUP5 MLOAD PUSH1 0x5 SWAP1 SWAP2 ADD SWAP3 DUP6 ADD SWAP2 POP DUP1 DUP4 DUP4 JUMPDEST PUSH1 0x20 DUP4 LT PUSH2 0x2973 JUMPI DUP1 MLOAD DUP3 MSTORE PUSH1 0x1F NOT SWAP1 SWAP3 ADD SWAP2 PUSH1 0x20 SWAP2 DUP3 ADD SWAP2 ADD PUSH2 0x2954 JUMP JUMPDEST PUSH1 0x1 DUP4 PUSH1 0x20 SUB PUSH2 0x100 EXP SUB DUP1 NOT DUP3 MLOAD AND DUP2 DUP5 MLOAD AND DUP1 DUP3 OR DUP6 MSTORE POP POP POP POP POP POP SWAP1 POP ADD DUP1 PUSH2 0x4F68 PUSH1 0x8B SWAP2 CODECOPY PUSH1 0x8B ADD SWAP9 POP POP POP POP POP POP POP POP POP PUSH1 0x40 MLOAD PUSH1 0x20 DUP2 DUP4 SUB SUB DUP2 MSTORE SWAP1 PUSH1 0x40 MSTORE SWAP1 POP SWAP5 SWAP4 POP POP POP POP JUMP JUMPDEST PUSH1 0x60 DUP4 DUP4 DUP4 PUSH1 0x40 MLOAD PUSH1 0x20 ADD DUP1 DUP1 PUSH2 0x50C5 PUSH1 0xCD SWAP2 CODECOPY PUSH1 0xCD ADD DUP5 DUP1 MLOAD SWAP1 PUSH1 0x20 ADD SWAP1 DUP1 DUP4 DUP4 JUMPDEST PUSH1 0x20 DUP4 LT PUSH2 0x2A05 JUMPI DUP1 MLOAD DUP3 MSTORE PUSH1 0x1F NOT SWAP1 SWAP3 ADD SWAP2 PUSH1 0x20 SWAP2 DUP3 ADD SWAP2 ADD PUSH2 0x29E6 JUMP JUMPDEST PUSH1 0x1 DUP4 PUSH1 0x20 SUB PUSH2 0x100 EXP SUB DUP1 NOT DUP3 MLOAD AND DUP2 DUP5 MLOAD AND DUP1 DUP3 OR DUP6 MSTORE POP POP POP POP POP POP SWAP1 POP ADD DUP1 PUSH32 0x2F00000000000000000000000000000000000000000000000000000000000000 DUP2 MSTORE POP PUSH1 0x1 ADD DUP4 DUP1 MLOAD SWAP1 PUSH1 0x20 ADD SWAP1 DUP1 DUP4 DUP4 JUMPDEST PUSH1 0x20 DUP4 LT PUSH2 0x2A7A JUMPI DUP1 MLOAD DUP3 MSTORE PUSH1 0x1F NOT SWAP1 SWAP3 ADD SWAP2 PUSH1 0x20 SWAP2 DUP3 ADD SWAP2 ADD PUSH2 0x2A5B JUMP JUMPDEST PUSH1 0x1 DUP4 PUSH1 0x20 SUB PUSH2 0x100 EXP SUB DUP1 NOT DUP3 MLOAD AND DUP2 DUP5 MLOAD AND DUP1 DUP3 OR DUP6 MSTORE POP POP POP POP POP POP SWAP1 POP ADD DUP1 PUSH2 0x6746 PUSH1 0x77 SWAP2 CODECOPY PUSH1 0x77 ADD DUP3 DUP1 MLOAD SWAP1 PUSH1 0x20 ADD SWAP1 DUP1 DUP4 DUP4 JUMPDEST PUSH1 0x20 DUP4 LT PUSH2 0x2AD2 JUMPI DUP1 MLOAD DUP3 MSTORE PUSH1 0x1F NOT SWAP1 SWAP3 ADD SWAP2 PUSH1 0x20 SWAP2 DUP3 ADD SWAP2 ADD PUSH2 0x2AB3 JUMP JUMPDEST MLOAD DUP2 MLOAD PUSH1 0x20 SWAP4 SWAP1 SWAP4 SUB PUSH2 0x100 EXP PUSH1 0x0 NOT ADD DUP1 NOT SWAP1 SWAP2 AND SWAP3 AND SWAP2 SWAP1 SWAP2 OR SWAP1 MSTORE PUSH32 0x3C2F746578743E3C2F673E000000000000000000000000000000000000000000 SWAP3 ADD SWAP2 DUP3 MSTORE POP PUSH1 0xB ADD PUSH1 0x73 PUSH2 0x65E6 DUP3 CODECOPY PUSH1 0x73 ADD SWAP4 POP POP POP POP PUSH1 0x40 MLOAD PUSH1 0x20 DUP2 DUP4 SUB SUB DUP2 MSTORE SWAP1 PUSH1 0x40 MSTORE SWAP1 POP SWAP4 SWAP3 POP POP POP JUMP JUMPDEST PUSH1 0x60 PUSH1 0x0 DUP3 PUSH1 0x0 SIGNEXTEND PUSH1 0x1 EQ PUSH2 0x2BD3 JUMPI DUP3 PUSH1 0x0 SIGNEXTEND PUSH1 0x0 NOT EQ PUSH2 0x2B97 JUMPI PUSH1 0x40 MLOAD DUP1 PUSH1 0x40 ADD PUSH1 0x40 MSTORE DUP1 PUSH1 0x5 DUP2 MSTORE PUSH1 0x20 ADD PUSH32 0x236E6F6E65000000000000000000000000000000000000000000000000000000 DUP2 MSTORE POP PUSH2 0x2BCE JUMP JUMPDEST PUSH1 0x40 MLOAD DUP1 PUSH1 0x40 ADD PUSH1 0x40 MSTORE DUP1 PUSH1 0xA DUP2 MSTORE PUSH1 0x20 ADD PUSH32 0x23666164652D646F776E00000000000000000000000000000000000000000000 DUP2 MSTORE POP JUMPDEST PUSH2 0x2C0A JUMP JUMPDEST PUSH1 0x40 MLOAD DUP1 PUSH1 0x40 ADD PUSH1 0x40 MSTORE DUP1 PUSH1 0x8 DUP2 MSTORE PUSH1 0x20 ADD PUSH32 0x23666164652D7570000000000000000000000000000000000000000000000000 DUP2 MSTORE POP JUMPDEST SWAP1 POP PUSH1 0x0 PUSH2 0x2C19 DUP8 DUP8 DUP8 PUSH2 0x3648 JUMP JUMPDEST SWAP1 POP DUP2 DUP2 DUP4 DUP4 PUSH2 0x2C28 DUP9 PUSH2 0x3896 JUMP JUMPDEST PUSH1 0x40 MLOAD PUSH1 0x20 ADD DUP1 DUP1 PUSH32 0x3C67206D61736B3D2275726C2800000000000000000000000000000000000000 DUP2 MSTORE POP PUSH1 0xD ADD DUP7 DUP1 MLOAD SWAP1 PUSH1 0x20 ADD SWAP1 DUP1 DUP4 DUP4 JUMPDEST PUSH1 0x20 DUP4 LT PUSH2 0x2C82 JUMPI DUP1 MLOAD DUP3 MSTORE PUSH1 0x1F NOT SWAP1 SWAP3 ADD SWAP2 PUSH1 0x20 SWAP2 DUP3 ADD SWAP2 ADD PUSH2 0x2C63 JUMP JUMPDEST MLOAD DUP2 MLOAD PUSH1 0x20 SWAP4 SWAP1 SWAP4 SUB PUSH2 0x100 EXP PUSH1 0x0 NOT ADD DUP1 NOT SWAP1 SWAP2 AND SWAP3 AND SWAP2 SWAP1 SWAP2 OR SWAP1 MSTORE PUSH32 0x2922000000000000000000000000000000000000000000000000000000000000 SWAP3 ADD SWAP2 DUP3 MSTORE POP PUSH1 0x2 ADD PUSH1 0x77 PUSH2 0x5C11 DUP3 CODECOPY PUSH1 0x77 ADD DUP6 DUP1 MLOAD SWAP1 PUSH1 0x20 ADD SWAP1 DUP1 DUP4 DUP4 JUMPDEST PUSH1 0x20 DUP4 LT PUSH2 0x2CFF JUMPI DUP1 MLOAD DUP3 MSTORE PUSH1 0x1F NOT SWAP1 SWAP3 ADD SWAP2 PUSH1 0x20 SWAP2 DUP3 ADD SWAP2 ADD PUSH2 0x2CE0 JUMP JUMPDEST PUSH1 0x1 DUP4 PUSH1 0x20 SUB PUSH2 0x100 EXP SUB DUP1 NOT DUP3 MLOAD AND DUP2 DUP5 MLOAD AND DUP1 DUP3 OR DUP6 MSTORE POP POP POP POP POP POP SWAP1 POP ADD DUP1 PUSH2 0x5314 PUSH1 0x54 SWAP2 CODECOPY PUSH1 0x54 ADD DUP1 PUSH32 0x3C2F673E3C67206D61736B3D2275726C28000000000000000000000000000000 DUP2 MSTORE POP PUSH1 0x11 ADD DUP5 DUP1 MLOAD SWAP1 PUSH1 0x20 ADD SWAP1 DUP1 DUP4 DUP4 JUMPDEST PUSH1 0x20 DUP4 LT PUSH2 0x2D7F JUMPI DUP1 MLOAD DUP3 MSTORE PUSH1 0x1F NOT SWAP1 SWAP3 ADD SWAP2 PUSH1 0x20 SWAP2 DUP3 ADD SWAP2 ADD PUSH2 0x2D60 JUMP JUMPDEST MLOAD DUP2 MLOAD PUSH1 0x20 SWAP4 SWAP1 SWAP4 SUB PUSH2 0x100 EXP PUSH1 0x0 NOT ADD DUP1 NOT SWAP1 SWAP2 AND SWAP3 AND SWAP2 SWAP1 SWAP2 OR SWAP1 MSTORE PUSH32 0x2922000000000000000000000000000000000000000000000000000000000000 SWAP3 ADD SWAP2 DUP3 MSTORE POP PUSH1 0x2 ADD PUSH1 0x29 PUSH2 0x5C88 DUP3 CODECOPY PUSH1 0x29 ADD PUSH1 0x45 PUSH2 0x5CDB DUP3 CODECOPY PUSH1 0x45 ADD DUP1 PUSH32 0x3C7061746820643D220000000000000000000000000000000000000000000000 DUP2 MSTORE POP PUSH1 0x9 ADD DUP4 DUP1 MLOAD SWAP1 PUSH1 0x20 ADD SWAP1 DUP1 DUP4 DUP4 JUMPDEST PUSH1 0x20 DUP4 LT PUSH2 0x2E2E JUMPI DUP1 MLOAD DUP3 MSTORE PUSH1 0x1F NOT SWAP1 SWAP3 ADD SWAP2 PUSH1 0x20 SWAP2 DUP3 ADD SWAP2 ADD PUSH2 0x2E0F JUMP JUMPDEST PUSH1 0x1 DUP4 PUSH1 0x20 SUB PUSH2 0x100 EXP SUB DUP1 NOT DUP3 MLOAD AND DUP2 DUP5 MLOAD AND DUP1 DUP3 OR DUP6 MSTORE POP POP POP POP POP POP SWAP1 POP ADD DUP1 PUSH2 0x5F0F PUSH1 0x48 SWAP2 CODECOPY PUSH1 0x48 ADD DUP3 DUP1 MLOAD SWAP1 PUSH1 0x20 ADD SWAP1 DUP1 DUP4 DUP4 JUMPDEST PUSH1 0x20 DUP4 LT PUSH2 0x2E86 JUMPI DUP1 MLOAD DUP3 MSTORE PUSH1 0x1F NOT SWAP1 SWAP3 ADD SWAP2 PUSH1 0x20 SWAP2 DUP3 ADD SWAP2 ADD PUSH2 0x2E67 JUMP JUMPDEST PUSH1 0x1 DUP4 PUSH1 0x20 SUB PUSH2 0x100 EXP SUB DUP1 NOT DUP3 MLOAD AND DUP2 DUP5 MLOAD AND DUP1 DUP3 OR DUP6 MSTORE POP POP POP POP POP POP SWAP1 POP ADD SWAP6 POP POP POP POP POP POP PUSH1 0x40 MLOAD PUSH1 0x20 DUP2 DUP4 SUB SUB DUP2 MSTORE SWAP1 PUSH1 0x40 MSTORE SWAP3 POP POP POP SWAP5 SWAP4 POP POP POP POP JUMP JUMPDEST PUSH1 0x60 PUSH1 0x0 PUSH2 0x2ED7 DUP5 PUSH2 0x3DF1 JUMP JUMPDEST SWAP1 POP PUSH1 0x0 PUSH2 0x2EE4 DUP5 PUSH2 0x3DF1 JUMP JUMPDEST DUP7 MLOAD DUP4 MLOAD DUP3 MLOAD SWAP3 SWAP4 POP PUSH1 0x4 SWAP1 SWAP2 ADD SWAP2 PUSH1 0xA SWAP2 DUP3 ADD SWAP2 ADD PUSH1 0x0 DUP1 PUSH2 0x2F07 DUP11 DUP11 PUSH2 0x3F17 JUMP JUMPDEST SWAP2 POP SWAP2 POP PUSH2 0x2F1A DUP6 PUSH1 0x4 ADD PUSH1 0x7 MUL PUSH2 0x701 JUMP JUMPDEST DUP12 PUSH2 0x2F2A DUP7 PUSH1 0x4 ADD PUSH1 0x7 MUL PUSH2 0x701 JUMP JUMPDEST DUP10 PUSH2 0x2F3A DUP8 PUSH1 0x4 ADD PUSH1 0x7 MUL PUSH2 0x701 JUMP JUMPDEST DUP11 DUP8 DUP8 PUSH1 0x40 MLOAD PUSH1 0x20 ADD DUP1 DUP1 PUSH2 0x5FD6 PUSH1 0x2D SWAP2 CODECOPY PUSH1 0x2D ADD DUP1 PUSH32 0x3C726563742077696474683D2200000000000000000000000000000000000000 DUP2 MSTORE POP PUSH1 0xD ADD DUP10 DUP1 MLOAD SWAP1 PUSH1 0x20 ADD SWAP1 DUP1 DUP4 DUP4 JUMPDEST PUSH1 0x20 DUP4 LT PUSH2 0x2FA2 JUMPI DUP1 MLOAD DUP3 MSTORE PUSH1 0x1F NOT SWAP1 SWAP3 ADD SWAP2 PUSH1 0x20 SWAP2 DUP3 ADD SWAP2 ADD PUSH2 0x2F83 JUMP JUMPDEST PUSH1 0x1 DUP4 PUSH1 0x20 SUB PUSH2 0x100 EXP SUB DUP1 NOT DUP3 MLOAD AND DUP2 DUP5 MLOAD AND DUP1 DUP3 OR DUP6 MSTORE POP POP POP POP POP POP SWAP1 POP ADD DUP1 PUSH2 0x59EB PUSH1 0x3D SWAP2 CODECOPY PUSH1 0x3D ADD PUSH1 0x8D PUSH2 0x6659 DUP3 CODECOPY PUSH1 0x8D ADD DUP9 DUP1 MLOAD SWAP1 PUSH1 0x20 ADD SWAP1 DUP1 DUP4 DUP4 JUMPDEST PUSH1 0x20 DUP4 LT PUSH2 0x3004 JUMPI DUP1 MLOAD DUP3 MSTORE PUSH1 0x1F NOT SWAP1 SWAP3 ADD SWAP2 PUSH1 0x20 SWAP2 DUP3 ADD SWAP2 ADD PUSH2 0x2FE5 JUMP JUMPDEST MLOAD DUP2 MLOAD PUSH1 0x20 SWAP4 SWAP1 SWAP4 SUB PUSH2 0x100 EXP PUSH1 0x0 NOT ADD DUP1 NOT SWAP1 SWAP2 AND SWAP3 AND SWAP2 SWAP1 SWAP2 OR SWAP1 MSTORE PUSH32 0x3C2F746578743E3C2F673E000000000000000000000000000000000000000000 SWAP3 ADD SWAP2 DUP3 MSTORE POP PUSH1 0xB ADD PUSH1 0x2D PUSH2 0x67F5 DUP3 CODECOPY PUSH1 0x2D ADD DUP1 PUSH32 0x3C726563742077696474683D2200000000000000000000000000000000000000 DUP2 MSTORE POP PUSH1 0xD ADD DUP8 DUP1 MLOAD SWAP1 PUSH1 0x20 ADD SWAP1 DUP1 DUP4 DUP4 JUMPDEST PUSH1 0x20 DUP4 LT PUSH2 0x30A9 JUMPI DUP1 MLOAD DUP3 MSTORE PUSH1 0x1F NOT SWAP1 SWAP3 ADD SWAP2 PUSH1 0x20 SWAP2 DUP3 ADD SWAP2 ADD PUSH2 0x308A JUMP JUMPDEST PUSH1 0x1 DUP4 PUSH1 0x20 SUB PUSH2 0x100 EXP SUB DUP1 NOT DUP3 MLOAD AND DUP2 DUP5 MLOAD AND DUP1 DUP3 OR DUP6 MSTORE POP POP POP POP POP POP SWAP1 POP ADD DUP1 PUSH2 0x59EB PUSH1 0x3D SWAP2 CODECOPY PUSH1 0x3D ADD PUSH1 0x93 PUSH2 0x56C1 DUP3 CODECOPY PUSH1 0x93 ADD DUP7 DUP1 MLOAD SWAP1 PUSH1 0x20 ADD SWAP1 DUP1 DUP4 DUP4 JUMPDEST PUSH1 0x20 DUP4 LT PUSH2 0x310B JUMPI DUP1 MLOAD DUP3 MSTORE PUSH1 0x1F NOT SWAP1 SWAP3 ADD SWAP2 PUSH1 0x20 SWAP2 DUP3 ADD SWAP2 ADD PUSH2 0x30EC JUMP JUMPDEST MLOAD DUP2 MLOAD PUSH1 0x20 SWAP4 SWAP1 SWAP4 SUB PUSH2 0x100 EXP PUSH1 0x0 NOT ADD DUP1 NOT SWAP1 SWAP2 AND SWAP3 AND SWAP2 SWAP1 SWAP2 OR SWAP1 MSTORE PUSH32 0x3C2F746578743E3C2F673E000000000000000000000000000000000000000000 SWAP3 ADD SWAP2 DUP3 MSTORE POP PUSH1 0xB ADD PUSH1 0x2D PUSH2 0x53C5 DUP3 CODECOPY PUSH1 0x2D ADD DUP1 PUSH32 0x3C726563742077696474683D2200000000000000000000000000000000000000 DUP2 MSTORE POP PUSH1 0xD ADD DUP6 DUP1 MLOAD SWAP1 PUSH1 0x20 ADD SWAP1 DUP1 DUP4 DUP4 JUMPDEST PUSH1 0x20 DUP4 LT PUSH2 0x31B0 JUMPI DUP1 MLOAD DUP3 MSTORE PUSH1 0x1F NOT SWAP1 SWAP3 ADD SWAP2 PUSH1 0x20 SWAP2 DUP3 ADD SWAP2 ADD PUSH2 0x3191 JUMP JUMPDEST PUSH1 0x1 DUP4 PUSH1 0x20 SUB PUSH2 0x100 EXP SUB DUP1 NOT DUP3 MLOAD AND DUP2 DUP5 MLOAD AND DUP1 DUP3 OR DUP6 MSTORE POP POP POP POP POP POP SWAP1 POP ADD DUP1 PUSH2 0x59EB PUSH1 0x3D SWAP2 CODECOPY PUSH1 0x3D ADD PUSH1 0x93 PUSH2 0x6207 DUP3 CODECOPY PUSH1 0x93 ADD DUP5 DUP1 MLOAD SWAP1 PUSH1 0x20 ADD SWAP1 DUP1 DUP4 DUP4 JUMPDEST PUSH1 0x20 DUP4 LT PUSH2 0x3212 JUMPI DUP1 MLOAD DUP3 MSTORE PUSH1 0x1F NOT SWAP1 SWAP3 ADD SWAP2 PUSH1 0x20 SWAP2 DUP3 ADD SWAP2 ADD PUSH2 0x31F3 JUMP JUMPDEST PUSH1 0x1 DUP4 PUSH1 0x20 SUB PUSH2 0x100 EXP SUB DUP1 NOT DUP3 MLOAD AND DUP2 DUP5 MLOAD AND DUP1 DUP3 OR DUP6 MSTORE POP POP POP POP POP POP SWAP1 POP ADD DUP1 PUSH2 0x67BD PUSH1 0x38 SWAP2 CODECOPY PUSH1 0x38 ADD PUSH1 0x60 PUSH2 0x66E6 DUP3 CODECOPY PUSH1 0x60 ADD PUSH1 0x64 PUSH2 0x5D93 DUP3 CODECOPY PUSH1 0x64 ADD PUSH1 0x25 PUSH2 0x53F2 DUP3 CODECOPY PUSH1 0x25 ADD DUP4 DUP1 MLOAD SWAP1 PUSH1 0x20 ADD SWAP1 DUP1 DUP4 DUP4 JUMPDEST PUSH1 0x20 DUP4 LT PUSH2 0x3288 JUMPI DUP1 MLOAD DUP3 MSTORE PUSH1 0x1F NOT SWAP1 SWAP3 ADD SWAP2 PUSH1 0x20 SWAP2 DUP3 ADD SWAP2 ADD PUSH2 0x3269 JUMP JUMPDEST MLOAD DUP2 MLOAD PUSH1 0x20 SWAP4 DUP5 SUB PUSH2 0x100 EXP PUSH1 0x0 NOT ADD DUP1 NOT SWAP1 SWAP3 AND SWAP2 AND OR SWAP1 MSTORE PUSH32 0x70782C2000000000000000000000000000000000000000000000000000000000 SWAP2 SWAP1 SWAP4 ADD SWAP1 DUP2 MSTORE DUP5 MLOAD PUSH1 0x4 SWAP1 SWAP2 ADD SWAP3 DUP6 ADD SWAP2 POP DUP1 DUP4 DUP4 JUMPDEST PUSH1 0x20 DUP4 LT PUSH2 0x32F9 JUMPI DUP1 MLOAD DUP3 MSTORE PUSH1 0x1F NOT SWAP1 SWAP3 ADD SWAP2 PUSH1 0x20 SWAP2 DUP3 ADD SWAP2 ADD PUSH2 0x32DA JUMP JUMPDEST PUSH1 0x1 DUP4 PUSH1 0x20 SUB PUSH2 0x100 EXP SUB DUP1 NOT DUP3 MLOAD AND DUP2 DUP5 MLOAD AND DUP1 DUP3 OR DUP6 MSTORE POP POP POP POP POP POP SWAP1 POP ADD DUP1 PUSH2 0x51E8 PUSH1 0x36 SWAP2 CODECOPY PUSH1 0x36 ADD SWAP9 POP POP POP POP POP POP POP POP POP PUSH1 0x40 MLOAD PUSH1 0x20 DUP2 DUP4 SUB SUB DUP2 MSTORE SWAP1 PUSH1 0x40 MSTORE SWAP8 POP POP POP POP POP POP POP POP SWAP4 SWAP3 POP POP POP JUMP JUMPDEST PUSH1 0x60 PUSH2 0x335B DUP4 DUP4 PUSH2 0x44B0 JUMP JUMPDEST ISZERO PUSH2 0x33B1 JUMPI PUSH1 0x40 MLOAD PUSH1 0x20 ADD DUP1 PUSH1 0x8D PUSH2 0x60FF DUP3 CODECOPY PUSH1 0x8D ADD PUSH1 0x73 PUSH2 0x5D20 DUP3 CODECOPY PUSH1 0x73 ADD PUSH1 0x71 PUSH2 0x5A4F DUP3 CODECOPY PUSH1 0x71 ADD PUSH1 0x8A PUSH2 0x6075 DUP3 CODECOPY PUSH1 0x8A ADD PUSH1 0x84 PUSH2 0x629A DUP3 CODECOPY PUSH1 0x84 ADD SWAP1 POP PUSH1 0x40 MLOAD PUSH1 0x20 DUP2 DUP4 SUB SUB DUP2 MSTORE SWAP1 PUSH1 0x40 MSTORE SWAP1 POP PUSH2 0x486 JUMP JUMPDEST POP PUSH1 0x40 DUP1 MLOAD PUSH1 0x20 DUP2 ADD SWAP1 SWAP2 MSTORE PUSH1 0x0 DUP2 MSTORE SWAP3 SWAP2 POP POP JUMP JUMPDEST PUSH1 0x0 DUP1 PUSH2 0x33E2 PUSH2 0x33DD PUSH1 0xFF DUP7 DUP2 AND SWAP1 DUP7 AND PUSH2 0x4526 JUMP JUMPDEST PUSH2 0x4559 JUMP JUMPDEST SWAP1 POP PUSH1 0x0 DUP2 GT DUP1 ISZERO PUSH2 0x33F5 JUMPI POP PUSH1 0x12 DUP2 GT ISZERO JUMPDEST ISZERO PUSH2 0x34EA JUMPI DUP3 PUSH1 0xFF AND DUP5 PUSH1 0xFF AND GT ISZERO PUSH2 0x3479 JUMPI PUSH2 0x3436 PUSH2 0x3416 DUP3 PUSH1 0x2 PUSH2 0xF3D JUMP JUMPDEST PUSH20 0xFFFFFFFFFFFFFFFFFFFFFFFFFFFFFFFFFFFFFFFF DUP8 AND SWAP1 PUSH1 0xA EXP PUSH2 0x1F07 JUMP JUMPDEST SWAP2 POP PUSH1 0x2 DUP2 MOD PUSH1 0x1 EQ ISZERO PUSH2 0x3474 JUMPI PUSH2 0x3471 DUP3 PUSH17 0x3298B075B4B6A5240945790619B37FD4A PUSH17 0x100000000000000000000000000000000 PUSH2 0x350A JUMP JUMPDEST SWAP2 POP JUMPDEST PUSH2 0x34E5 JUMP JUMPDEST PUSH2 0x34A7 PUSH2 0x3487 DUP3 PUSH1 0x2 PUSH2 0xF3D JUMP JUMPDEST PUSH20 0xFFFFFFFFFFFFFFFFFFFFFFFFFFFFFFFFFFFFFFFF DUP8 AND SWAP1 PUSH1 0xA EXP PUSH2 0xF3D JUMP JUMPDEST SWAP2 POP PUSH1 0x2 DUP2 MOD PUSH1 0x1 EQ ISZERO PUSH2 0x34E5 JUMPI PUSH2 0x34E2 DUP3 PUSH17 0x100000000000000000000000000000000 PUSH17 0x3298B075B4B6A5240945790619B37FD4A PUSH2 0x350A JUMP JUMPDEST SWAP2 POP JUMPDEST PUSH2 0x1EF8 JUMP JUMPDEST POP POP PUSH20 0xFFFFFFFFFFFFFFFFFFFFFFFFFFFFFFFFFFFFFFFF SWAP1 SWAP3 AND SWAP3 SWAP2 POP POP JUMP JUMPDEST PUSH1 0x0 DUP1 DUP1 PUSH1 0x0 NOT DUP6 DUP8 MULMOD DUP7 DUP7 MUL SWAP3 POP DUP3 DUP2 LT SWAP1 DUP4 SWAP1 SUB SUB SWAP1 POP DUP1 PUSH2 0x3540 JUMPI PUSH1 0x0 DUP5 GT PUSH2 0x3535 JUMPI PUSH1 0x0 DUP1 REVERT JUMPDEST POP DUP3 SWAP1 DIV SWAP1 POP PUSH2 0x6FA JUMP JUMPDEST DUP1 DUP5 GT PUSH2 0x354C JUMPI PUSH1 0x0 DUP1 REVERT JUMPDEST PUSH1 0x0 DUP5 DUP7 DUP9 MULMOD PUSH1 0x0 DUP7 DUP2 SUB DUP8 AND SWAP7 DUP8 SWAP1 DIV SWAP7 PUSH1 0x2 PUSH1 0x3 DUP10 MUL DUP2 XOR DUP1 DUP11 MUL DUP3 SUB MUL DUP1 DUP11 MUL DUP3 SUB MUL DUP1 DUP11 MUL DUP3 SUB MUL DUP1 DUP11 MUL DUP3 SUB MUL DUP1 DUP11 MUL DUP3 SUB MUL DUP1 DUP11 MUL SWAP1 SWAP2 SUB MUL SWAP2 DUP2 SWAP1 SUB DUP2 SWAP1 DIV PUSH1 0x1 ADD DUP7 DUP5 GT SWAP1 SWAP6 SUB SWAP5 SWAP1 SWAP5 MUL SWAP2 SWAP1 SWAP5 SUB SWAP3 SWAP1 SWAP3 DIV SWAP2 SWAP1 SWAP2 OR SWAP2 SWAP1 SWAP2 MUL SWAP2 POP POP SWAP4 SWAP3 POP POP POP JUMP JUMPDEST PUSH1 0x0 DUP1 PUSH1 0x0 PUSH1 0x5 DUP5 PUSH1 0xFF AND GT ISZERO PUSH2 0x35FF JUMPI PUSH2 0x35FC DUP6 PUSH1 0xFF PUSH32 0xFFFFFFFFFFFFFFFFFFFFFFFFFFFFFFFFFFFFFFFFFFFFFFFFFFFFFFFFFFFFFFFB DUP8 ADD AND PUSH1 0xA EXP PUSH2 0xF3D JUMP JUMPDEST SWAP5 POP JUMPDEST PUSH1 0x0 PUSH1 0x4 PUSH1 0xA DUP8 MOD GT SWAP1 POP PUSH2 0x3615 DUP7 PUSH1 0xA PUSH2 0xF3D JUMP JUMPDEST SWAP6 POP DUP1 ISZERO PUSH2 0x3624 JUMPI DUP6 PUSH1 0x1 ADD SWAP6 POP JUMPDEST DUP6 PUSH3 0x186A0 EQ ISZERO PUSH2 0x363A JUMPI PUSH1 0xA DUP7 DIV SWAP6 POP PUSH1 0x1 SWAP2 POP JUMPDEST POP DUP5 SWAP3 POP SWAP1 POP JUMPDEST SWAP3 POP SWAP3 SWAP1 POP JUMP JUMPDEST PUSH1 0x60 PUSH1 0x0 DUP3 PUSH1 0x2 SIGNEXTEND DUP6 DUP6 SUB PUSH1 0x2 SIGNEXTEND DUP2 PUSH2 0x365D JUMPI INVALID JUMPDEST SDIV SWAP1 POP PUSH1 0x4 DUP2 PUSH1 0x2 SIGNEXTEND SGT PUSH2 0x36A8 JUMPI PUSH1 0x40 MLOAD DUP1 PUSH1 0x40 ADD PUSH1 0x40 MSTORE DUP1 PUSH1 0x1A DUP2 MSTORE PUSH1 0x20 ADD PUSH32 0x4D31203143343120343120313035203130352031343520313435000000000000 DUP2 MSTORE POP SWAP2 POP PUSH2 0x1EF8 JUMP JUMPDEST PUSH1 0x8 DUP2 PUSH1 0x2 SIGNEXTEND SGT PUSH2 0x36F0 JUMPI PUSH1 0x40 MLOAD DUP1 PUSH1 0x40 ADD PUSH1 0x40 MSTORE DUP1 PUSH1 0x19 DUP2 MSTORE PUSH1 0x20 ADD PUSH32 0x4D31203143333320343920393720313133203134352031343500000000000000 DUP2 MSTORE POP SWAP2 POP PUSH2 0x1EF8 JUMP JUMPDEST PUSH1 0x10 DUP2 PUSH1 0x2 SIGNEXTEND SGT PUSH2 0x3738 JUMPI PUSH1 0x40 MLOAD DUP1 PUSH1 0x40 ADD PUSH1 0x40 MSTORE DUP1 PUSH1 0x19 DUP2 MSTORE PUSH1 0x20 ADD PUSH32 0x4D31203143333320353720383920313133203134352031343500000000000000 DUP2 MSTORE POP SWAP2 POP PUSH2 0x1EF8 JUMP JUMPDEST PUSH1 0x20 DUP2 PUSH1 0x2 SIGNEXTEND SGT PUSH2 0x3780 JUMPI PUSH1 0x40 MLOAD DUP1 PUSH1 0x40 ADD PUSH1 0x40 MSTORE DUP1 PUSH1 0x19 DUP2 MSTORE PUSH1 0x20 ADD PUSH32 0x4D31203143323520363520383120313231203134352031343500000000000000 DUP2 MSTORE POP SWAP2 POP PUSH2 0x1EF8 JUMP JUMPDEST PUSH1 0x40 DUP2 PUSH1 0x2 SIGNEXTEND SGT PUSH2 0x37C8 JUMPI PUSH1 0x40 MLOAD DUP1 PUSH1 0x40 ADD PUSH1 0x40 MSTORE DUP1 PUSH1 0x19 DUP2 MSTORE PUSH1 0x20 ADD PUSH32 0x4D31203143313720373320373320313239203134352031343500000000000000 DUP2 MSTORE POP SWAP2 POP PUSH2 0x1EF8 JUMP JUMPDEST PUSH1 0x80 DUP2 PUSH1 0x2 SIGNEXTEND SGT PUSH2 0x3810 JUMPI PUSH1 0x40 MLOAD DUP1 PUSH1 0x40 ADD PUSH1 0x40 MSTORE DUP1 PUSH1 0x18 DUP2 MSTORE PUSH1 0x20 ADD PUSH32 0x4D31203143392038312036352031333720313435203134350000000000000000 DUP2 MSTORE POP SWAP2 POP PUSH2 0x1EF8 JUMP JUMPDEST PUSH2 0x100 DUP2 PUSH1 0x2 SIGNEXTEND SGT PUSH2 0x3859 JUMPI PUSH1 0x40 MLOAD DUP1 PUSH1 0x40 ADD PUSH1 0x40 MSTORE DUP1 PUSH1 0x1A DUP2 MSTORE PUSH1 0x20 ADD PUSH32 0x4D31203143312038392035372E35203134352031343520313435000000000000 DUP2 MSTORE POP SWAP2 POP PUSH2 0x1EF8 JUMP JUMPDEST POP POP PUSH1 0x40 DUP1 MLOAD DUP1 DUP3 ADD SWAP1 SWAP2 MSTORE PUSH1 0x18 DUP2 MSTORE PUSH32 0x4D31203143312039372034392031343520313435203134350000000000000000 PUSH1 0x20 DUP3 ADD MSTORE SWAP4 SWAP3 POP POP POP JUMP JUMPDEST PUSH1 0x40 DUP1 MLOAD DUP1 DUP3 ADD DUP3 MSTORE PUSH1 0x2 DUP2 MSTORE PUSH32 0x3733000000000000000000000000000000000000000000000000000000000000 PUSH1 0x20 DUP1 DUP4 ADD SWAP2 SWAP1 SWAP2 MSTORE DUP3 MLOAD DUP1 DUP5 ADD DUP5 MSTORE PUSH1 0x3 DUP1 DUP3 MSTORE PUSH32 0x3139300000000000000000000000000000000000000000000000000000000000 DUP3 DUP5 ADD MSTORE DUP5 MLOAD DUP1 DUP7 ADD DUP7 MSTORE DUP2 DUP2 MSTORE PUSH32 0x3231370000000000000000000000000000000000000000000000000000000000 DUP2 DUP6 ADD MSTORE DUP6 MLOAD DUP1 DUP8 ADD SWAP1 SWAP7 MSTORE SWAP1 DUP6 MSTORE PUSH32 0x3333340000000000000000000000000000000000000000000000000000000000 SWAP3 DUP6 ADD SWAP3 SWAP1 SWAP3 MSTORE PUSH1 0x60 SWAP4 SWAP1 SWAP2 SWAP1 PUSH1 0x1 PUSH1 0x0 DUP8 SWAP1 SIGNEXTEND EQ DUP1 PUSH2 0x397D JUMPI POP DUP6 PUSH1 0x0 SIGNEXTEND PUSH1 0x0 NOT EQ JUMPDEST ISZERO PUSH2 0x3BAF JUMPI DUP6 PUSH1 0x0 SIGNEXTEND PUSH1 0x0 NOT EQ PUSH2 0x3994 JUMPI DUP2 PUSH2 0x3996 JUMP JUMPDEST DUP4 JUMPDEST DUP7 PUSH1 0x0 SIGNEXTEND PUSH1 0x0 NOT EQ PUSH2 0x39A8 JUMPI DUP2 PUSH2 0x39AA JUMP JUMPDEST DUP4 JUMPDEST DUP8 PUSH1 0x0 SIGNEXTEND PUSH1 0x0 NOT EQ PUSH2 0x39BC JUMPI DUP4 PUSH2 0x39BE JUMP JUMPDEST DUP6 JUMPDEST DUP9 PUSH1 0x0 SIGNEXTEND PUSH1 0x0 NOT EQ PUSH2 0x39D0 JUMPI DUP4 PUSH2 0x39D2 JUMP JUMPDEST DUP6 JUMPDEST PUSH1 0x40 MLOAD PUSH1 0x20 ADD DUP1 DUP1 PUSH32 0x3C636972636C652063783D220000000000000000000000000000000000000000 DUP2 MSTORE POP PUSH1 0xC ADD DUP6 DUP1 MLOAD SWAP1 PUSH1 0x20 ADD SWAP1 DUP1 DUP4 DUP4 JUMPDEST PUSH1 0x20 DUP4 LT PUSH2 0x3A2C JUMPI DUP1 MLOAD DUP3 MSTORE PUSH1 0x1F NOT SWAP1 SWAP3 ADD SWAP2 PUSH1 0x20 SWAP2 DUP3 ADD SWAP2 ADD PUSH2 0x3A0D JUMP JUMPDEST MLOAD DUP2 MLOAD PUSH1 0x20 SWAP4 DUP5 SUB PUSH2 0x100 EXP PUSH1 0x0 NOT ADD DUP1 NOT SWAP1 SWAP3 AND SWAP2 AND OR SWAP1 MSTORE PUSH32 0x7078222063793D22000000000000000000000000000000000000000000000000 SWAP2 SWAP1 SWAP4 ADD SWAP1 DUP2 MSTORE DUP7 MLOAD PUSH1 0x8 SWAP1 SWAP2 ADD SWAP3 DUP8 ADD SWAP2 POP DUP1 DUP4 DUP4 JUMPDEST PUSH1 0x20 DUP4 LT PUSH2 0x3A9D JUMPI DUP1 MLOAD DUP3 MSTORE PUSH1 0x1F NOT SWAP1 SWAP3 ADD SWAP2 PUSH1 0x20 SWAP2 DUP3 ADD SWAP2 ADD PUSH2 0x3A7E JUMP JUMPDEST PUSH1 0x1 DUP4 PUSH1 0x20 SUB PUSH2 0x100 EXP SUB DUP1 NOT DUP3 MLOAD AND DUP2 DUP5 MLOAD AND DUP1 DUP3 OR DUP6 MSTORE POP POP POP POP POP POP SWAP1 POP ADD DUP1 PUSH2 0x5A28 PUSH1 0x27 SWAP2 CODECOPY PUSH1 0x27 ADD DUP4 DUP1 MLOAD SWAP1 PUSH1 0x20 ADD SWAP1 DUP1 DUP4 DUP4 JUMPDEST PUSH1 0x20 DUP4 LT PUSH2 0x3AF5 JUMPI DUP1 MLOAD DUP3 MSTORE PUSH1 0x1F NOT SWAP1 SWAP3 ADD SWAP2 PUSH1 0x20 SWAP2 DUP3 ADD SWAP2 ADD PUSH2 0x3AD6 JUMP JUMPDEST MLOAD DUP2 MLOAD PUSH1 0x20 SWAP4 DUP5 SUB PUSH2 0x100 EXP PUSH1 0x0 NOT ADD DUP1 NOT SWAP1 SWAP3 AND SWAP2 AND OR SWAP1 MSTORE PUSH32 0x7078222063793D22000000000000000000000000000000000000000000000000 SWAP2 SWAP1 SWAP4 ADD SWAP1 DUP2 MSTORE DUP5 MLOAD PUSH1 0x8 SWAP1 SWAP2 ADD SWAP3 DUP6 ADD SWAP2 POP DUP1 DUP4 DUP4 JUMPDEST PUSH1 0x20 DUP4 LT PUSH2 0x3B66 JUMPI DUP1 MLOAD DUP3 MSTORE PUSH1 0x1F NOT SWAP1 SWAP3 ADD SWAP2 PUSH1 0x20 SWAP2 DUP3 ADD SWAP2 ADD PUSH2 0x3B47 JUMP JUMPDEST PUSH1 0x1 DUP4 PUSH1 0x20 SUB PUSH2 0x100 EXP SUB DUP1 NOT DUP3 MLOAD AND DUP2 DUP5 MLOAD AND DUP1 DUP3 OR DUP6 MSTORE POP POP POP POP POP POP SWAP1 POP ADD DUP1 PUSH2 0x5CB1 PUSH1 0x2A SWAP2 CODECOPY PUSH1 0x2A ADD SWAP5 POP POP POP POP POP PUSH1 0x40 MLOAD PUSH1 0x20 DUP2 DUP4 SUB SUB DUP2 MSTORE SWAP1 PUSH1 0x40 MSTORE SWAP5 POP PUSH2 0x3DE8 JUMP JUMPDEST DUP4 DUP4 DUP4 DUP4 PUSH1 0x40 MLOAD PUSH1 0x20 ADD DUP1 DUP1 PUSH32 0x3C636972636C652063783D220000000000000000000000000000000000000000 DUP2 MSTORE POP PUSH1 0xC ADD DUP6 DUP1 MLOAD SWAP1 PUSH1 0x20 ADD SWAP1 DUP1 DUP4 DUP4 JUMPDEST PUSH1 0x20 DUP4 LT PUSH2 0x3C0D JUMPI DUP1 MLOAD DUP3 MSTORE PUSH1 0x1F NOT SWAP1 SWAP3 ADD SWAP2 PUSH1 0x20 SWAP2 DUP3 ADD SWAP2 ADD PUSH2 0x3BEE JUMP JUMPDEST MLOAD DUP2 MLOAD PUSH1 0x20 SWAP4 DUP5 SUB PUSH2 0x100 EXP PUSH1 0x0 NOT ADD DUP1 NOT SWAP1 SWAP3 AND SWAP2 AND OR SWAP1 MSTORE PUSH32 0x7078222063793D22000000000000000000000000000000000000000000000000 SWAP2 SWAP1 SWAP4 ADD SWAP1 DUP2 MSTORE DUP7 MLOAD PUSH1 0x8 SWAP1 SWAP2 ADD SWAP3 DUP8 ADD SWAP2 POP DUP1 DUP4 DUP4 JUMPDEST PUSH1 0x20 DUP4 LT PUSH2 0x3C7E JUMPI DUP1 MLOAD DUP3 MSTORE PUSH1 0x1F NOT SWAP1 SWAP3 ADD SWAP2 PUSH1 0x20 SWAP2 DUP3 ADD SWAP2 ADD PUSH2 0x3C5F JUMP JUMPDEST MLOAD DUP2 MLOAD PUSH1 0x20 SWAP4 DUP5 SUB PUSH2 0x100 EXP PUSH1 0x0 NOT ADD DUP1 NOT SWAP1 SWAP3 AND SWAP2 AND OR SWAP1 MSTORE PUSH32 0x70782220723D22347078222066696C6C3D22776869746522202F3E0000000000 SWAP2 SWAP1 SWAP4 ADD SWAP1 DUP2 MSTORE PUSH32 0x3C636972636C652063783D220000000000000000000000000000000000000000 PUSH1 0x1B DUP3 ADD MSTORE DUP6 MLOAD PUSH1 0x27 SWAP1 SWAP2 ADD SWAP3 DUP7 ADD SWAP2 POP DUP1 DUP4 DUP4 JUMPDEST PUSH1 0x20 DUP4 LT PUSH2 0x3D15 JUMPI DUP1 MLOAD DUP3 MSTORE PUSH1 0x1F NOT SWAP1 SWAP3 ADD SWAP2 PUSH1 0x20 SWAP2 DUP3 ADD SWAP2 ADD PUSH2 0x3CF6 JUMP JUMPDEST MLOAD DUP2 MLOAD PUSH1 0x20 SWAP4 DUP5 SUB PUSH2 0x100 EXP PUSH1 0x0 NOT ADD DUP1 NOT SWAP1 SWAP3 AND SWAP2 AND OR SWAP1 MSTORE PUSH32 0x7078222063793D22000000000000000000000000000000000000000000000000 SWAP2 SWAP1 SWAP4 ADD SWAP1 DUP2 MSTORE DUP5 MLOAD PUSH1 0x8 SWAP1 SWAP2 ADD SWAP3 DUP6 ADD SWAP2 POP DUP1 DUP4 DUP4 JUMPDEST PUSH1 0x20 DUP4 LT PUSH2 0x3D86 JUMPI DUP1 MLOAD DUP3 MSTORE PUSH1 0x1F NOT SWAP1 SWAP3 ADD SWAP2 PUSH1 0x20 SWAP2 DUP3 ADD SWAP2 ADD PUSH2 0x3D67 JUMP JUMPDEST PUSH1 0x1 DUP4 PUSH1 0x20 SUB PUSH2 0x100 EXP SUB DUP1 NOT DUP3 MLOAD AND DUP2 DUP5 MLOAD AND DUP1 DUP3 OR DUP6 MSTORE POP POP POP POP POP POP SWAP1 POP ADD DUP1 PUSH32 0x70782220723D22347078222066696C6C3D22776869746522202F3E0000000000 DUP2 MSTORE POP PUSH1 0x1B ADD SWAP5 POP POP POP POP POP PUSH1 0x40 MLOAD PUSH1 0x20 DUP2 DUP4 SUB SUB DUP2 MSTORE SWAP1 PUSH1 0x40 MSTORE SWAP5 POP JUMPDEST POP POP POP POP SWAP2 SWAP1 POP JUMP JUMPDEST PUSH1 0x60 PUSH1 0x0 PUSH1 0x40 MLOAD DUP1 PUSH1 0x20 ADD PUSH1 0x40 MSTORE DUP1 PUSH1 0x0 DUP2 MSTORE POP SWAP1 POP PUSH1 0x0 DUP4 PUSH1 0x2 SIGNEXTEND SLT ISZERO PUSH2 0x3E53 JUMPI DUP3 PUSH1 0x0 NOT MUL SWAP3 POP PUSH1 0x40 MLOAD DUP1 PUSH1 0x40 ADD PUSH1 0x40 MSTORE DUP1 PUSH1 0x1 DUP2 MSTORE PUSH1 0x20 ADD PUSH32 0x2D00000000000000000000000000000000000000000000000000000000000000 DUP2 MSTORE POP SWAP1 POP JUMPDEST DUP1 PUSH2 0x3E60 DUP5 PUSH1 0x2 SIGNEXTEND PUSH2 0x701 JUMP JUMPDEST PUSH1 0x40 MLOAD PUSH1 0x20 ADD DUP1 DUP4 DUP1 MLOAD SWAP1 PUSH1 0x20 ADD SWAP1 DUP1 DUP4 DUP4 JUMPDEST PUSH1 0x20 DUP4 LT PUSH2 0x3E92 JUMPI DUP1 MLOAD DUP3 MSTORE PUSH1 0x1F NOT SWAP1 SWAP3 ADD SWAP2 PUSH1 0x20 SWAP2 DUP3 ADD SWAP2 ADD PUSH2 0x3E73 JUMP JUMPDEST MLOAD DUP2 MLOAD PUSH1 0x20 SWAP4 DUP5 SUB PUSH2 0x100 EXP PUSH1 0x0 NOT ADD DUP1 NOT SWAP1 SWAP3 AND SWAP2 AND OR SWAP1 MSTORE DUP6 MLOAD SWAP2 SWAP1 SWAP4 ADD SWAP3 DUP6 ADD SWAP2 POP DUP1 DUP4 DUP4 JUMPDEST PUSH1 0x20 DUP4 LT PUSH2 0x3EDA JUMPI DUP1 MLOAD DUP3 MSTORE PUSH1 0x1F NOT SWAP1 SWAP3 ADD SWAP2 PUSH1 0x20 SWAP2 DUP3 ADD SWAP2 ADD PUSH2 0x3EBB JUMP JUMPDEST PUSH1 0x1 DUP4 PUSH1 0x20 SUB PUSH2 0x100 EXP SUB DUP1 NOT DUP3 MLOAD AND DUP2 DUP5 MLOAD AND DUP1 DUP3 OR DUP6 MSTORE POP POP POP POP POP POP SWAP1 POP ADD SWAP3 POP POP POP PUSH1 0x40 MLOAD PUSH1 0x20 DUP2 DUP4 SUB SUB DUP2 MSTORE SWAP1 PUSH1 0x40 MSTORE SWAP2 POP POP SWAP2 SWAP1 POP JUMP JUMPDEST PUSH1 0x60 DUP1 PUSH1 0x0 PUSH1 0x2 DUP6 DUP6 ADD DUP2 SIGNEXTEND SDIV SWAP1 POP PUSH32 0xFFFFFFFFFFFFFFFFFFFFFFFFFFFFFFFFFFFFFFFFFFFFFFFFFFFFFFFFFFFE17B8 DUP2 PUSH1 0x2 SIGNEXTEND SLT ISZERO PUSH2 0x3FC7 JUMPI PUSH1 0x40 MLOAD DUP1 PUSH1 0x40 ADD PUSH1 0x40 MSTORE DUP1 PUSH1 0x1 DUP2 MSTORE PUSH1 0x20 ADD PUSH32 0x3800000000000000000000000000000000000000000000000000000000000000 DUP2 MSTORE POP PUSH1 0x40 MLOAD DUP1 PUSH1 0x40 ADD PUSH1 0x40 MSTORE DUP1 PUSH1 0x1 DUP2 MSTORE PUSH1 0x20 ADD PUSH32 0x3700000000000000000000000000000000000000000000000000000000000000 DUP2 MSTORE POP SWAP3 POP SWAP3 POP POP PUSH2 0x3641 JUMP JUMPDEST PUSH32 0xFFFFFFFFFFFFFFFFFFFFFFFFFFFFFFFFFFFFFFFFFFFFFFFFFFFFFFFFFFFEDB08 DUP2 PUSH1 0x2 SIGNEXTEND SLT ISZERO PUSH2 0x4068 JUMPI PUSH1 0x40 MLOAD DUP1 PUSH1 0x40 ADD PUSH1 0x40 MSTORE DUP1 PUSH1 0x1 DUP2 MSTORE PUSH1 0x20 ADD PUSH32 0x3800000000000000000000000000000000000000000000000000000000000000 DUP2 MSTORE POP PUSH1 0x40 MLOAD DUP1 PUSH1 0x40 ADD PUSH1 0x40 MSTORE DUP1 PUSH1 0x4 DUP2 MSTORE PUSH1 0x20 ADD PUSH32 0x31302E3500000000000000000000000000000000000000000000000000000000 DUP2 MSTORE POP SWAP3 POP SWAP3 POP POP PUSH2 0x3641 JUMP JUMPDEST PUSH32 0xFFFFFFFFFFFFFFFFFFFFFFFFFFFFFFFFFFFFFFFFFFFFFFFFFFFFFFFFFFFF9E58 DUP2 PUSH1 0x2 SIGNEXTEND SLT ISZERO PUSH2 0x4109 JUMPI PUSH1 0x40 MLOAD DUP1 PUSH1 0x40 ADD PUSH1 0x40 MSTORE DUP1 PUSH1 0x1 DUP2 MSTORE PUSH1 0x20 ADD PUSH32 0x3800000000000000000000000000000000000000000000000000000000000000 DUP2 MSTORE POP PUSH1 0x40 MLOAD DUP1 PUSH1 0x40 ADD PUSH1 0x40 MSTORE DUP1 PUSH1 0x5 DUP2 MSTORE PUSH1 0x20 ADD PUSH32 0x31342E3235000000000000000000000000000000000000000000000000000000 DUP2 MSTORE POP SWAP3 POP SWAP3 POP POP PUSH2 0x3641 JUMP JUMPDEST PUSH32 0xFFFFFFFFFFFFFFFFFFFFFFFFFFFFFFFFFFFFFFFFFFFFFFFFFFFFFFFFFFFFEC78 DUP2 PUSH1 0x2 SIGNEXTEND SLT ISZERO PUSH2 0x41AA JUMPI PUSH1 0x40 MLOAD DUP1 PUSH1 0x40 ADD PUSH1 0x40 MSTORE DUP1 PUSH1 0x2 DUP2 MSTORE PUSH1 0x20 ADD PUSH32 0x3130000000000000000000000000000000000000000000000000000000000000 DUP2 MSTORE POP PUSH1 0x40 MLOAD DUP1 PUSH1 0x40 ADD PUSH1 0x40 MSTORE DUP1 PUSH1 0x2 DUP2 MSTORE PUSH1 0x20 ADD PUSH32 0x3138000000000000000000000000000000000000000000000000000000000000 DUP2 MSTORE POP SWAP3 POP SWAP3 POP POP PUSH2 0x3641 JUMP JUMPDEST PUSH1 0x0 DUP2 PUSH1 0x2 SIGNEXTEND SLT ISZERO PUSH2 0x422C JUMPI PUSH1 0x40 MLOAD DUP1 PUSH1 0x40 ADD PUSH1 0x40 MSTORE DUP1 PUSH1 0x2 DUP2 MSTORE PUSH1 0x20 ADD PUSH32 0x3131000000000000000000000000000000000000000000000000000000000000 DUP2 MSTORE POP PUSH1 0x40 MLOAD DUP1 PUSH1 0x40 ADD PUSH1 0x40 MSTORE DUP1 PUSH1 0x2 DUP2 MSTORE PUSH1 0x20 ADD PUSH32 0x3231000000000000000000000000000000000000000000000000000000000000 DUP2 MSTORE POP SWAP3 POP SWAP3 POP POP PUSH2 0x3641 JUMP JUMPDEST PUSH2 0x1388 DUP2 PUSH1 0x2 SIGNEXTEND SLT ISZERO PUSH2 0x42AF JUMPI PUSH1 0x40 MLOAD DUP1 PUSH1 0x40 ADD PUSH1 0x40 MSTORE DUP1 PUSH1 0x2 DUP2 MSTORE PUSH1 0x20 ADD PUSH32 0x3133000000000000000000000000000000000000000000000000000000000000 DUP2 MSTORE POP PUSH1 0x40 MLOAD DUP1 PUSH1 0x40 ADD PUSH1 0x40 MSTORE DUP1 PUSH1 0x2 DUP2 MSTORE PUSH1 0x20 ADD PUSH32 0x3233000000000000000000000000000000000000000000000000000000000000 DUP2 MSTORE POP SWAP3 POP SWAP3 POP POP PUSH2 0x3641 JUMP JUMPDEST PUSH2 0x61A8 DUP2 PUSH1 0x2 SIGNEXTEND SLT ISZERO PUSH2 0x4332 JUMPI PUSH1 0x40 MLOAD DUP1 PUSH1 0x40 ADD PUSH1 0x40 MSTORE DUP1 PUSH1 0x2 DUP2 MSTORE PUSH1 0x20 ADD PUSH32 0x3135000000000000000000000000000000000000000000000000000000000000 DUP2 MSTORE POP PUSH1 0x40 MLOAD DUP1 PUSH1 0x40 ADD PUSH1 0x40 MSTORE DUP1 PUSH1 0x2 DUP2 MSTORE PUSH1 0x20 ADD PUSH32 0x3235000000000000000000000000000000000000000000000000000000000000 DUP2 MSTORE POP SWAP3 POP SWAP3 POP POP PUSH2 0x3641 JUMP JUMPDEST PUSH3 0x124F8 DUP2 PUSH1 0x2 SIGNEXTEND SLT ISZERO PUSH2 0x43B6 JUMPI PUSH1 0x40 MLOAD DUP1 PUSH1 0x40 ADD PUSH1 0x40 MSTORE DUP1 PUSH1 0x2 DUP2 MSTORE PUSH1 0x20 ADD PUSH32 0x3138000000000000000000000000000000000000000000000000000000000000 DUP2 MSTORE POP PUSH1 0x40 MLOAD DUP1 PUSH1 0x40 ADD PUSH1 0x40 MSTORE DUP1 PUSH1 0x2 DUP2 MSTORE PUSH1 0x20 ADD PUSH32 0x3236000000000000000000000000000000000000000000000000000000000000 DUP2 MSTORE POP SWAP3 POP SWAP3 POP POP PUSH2 0x3641 JUMP JUMPDEST PUSH3 0x1E848 DUP2 PUSH1 0x2 SIGNEXTEND SLT ISZERO PUSH2 0x443A JUMPI PUSH1 0x40 MLOAD DUP1 PUSH1 0x40 ADD PUSH1 0x40 MSTORE DUP1 PUSH1 0x2 DUP2 MSTORE PUSH1 0x20 ADD PUSH32 0x3231000000000000000000000000000000000000000000000000000000000000 DUP2 MSTORE POP PUSH1 0x40 MLOAD DUP1 PUSH1 0x40 ADD PUSH1 0x40 MSTORE DUP1 PUSH1 0x2 DUP2 MSTORE PUSH1 0x20 ADD PUSH32 0x3237000000000000000000000000000000000000000000000000000000000000 DUP2 MSTORE POP SWAP3 POP SWAP3 POP POP PUSH2 0x3641 JUMP JUMPDEST PUSH1 0x40 MLOAD DUP1 PUSH1 0x40 ADD PUSH1 0x40 MSTORE DUP1 PUSH1 0x2 DUP2 MSTORE PUSH1 0x20 ADD PUSH32 0x3234000000000000000000000000000000000000000000000000000000000000 DUP2 MSTORE POP PUSH1 0x40 MLOAD DUP1 PUSH1 0x40 ADD PUSH1 0x40 MSTORE DUP1 PUSH1 0x2 DUP2 MSTORE PUSH1 0x20 ADD PUSH32 0x3237000000000000000000000000000000000000000000000000000000000000 DUP2 MSTORE POP SWAP3 POP SWAP3 POP POP PUSH2 0x3641 JUMP JUMPDEST PUSH1 0x40 DUP1 MLOAD PUSH1 0x20 DUP1 DUP3 ADD DUP6 SWAP1 MSTORE PUSH32 0xFFFFFFFFFFFFFFFFFFFFFFFFFFFFFFFFFFFFFFFF000000000000000000000000 PUSH1 0x60 DUP6 SWAP1 SHL AND DUP3 DUP5 ADD MSTORE DUP3 MLOAD PUSH1 0x34 DUP2 DUP5 SUB ADD DUP2 MSTORE PUSH1 0x54 SWAP1 SWAP3 ADD SWAP1 SWAP3 MSTORE DUP1 MLOAD SWAP2 ADD KECCAK256 PUSH1 0x0 SWAP1 PUSH2 0x450A DUP5 PUSH2 0x4570 JUMP JUMPDEST PUSH1 0x2 MUL PUSH1 0x1 ADD PUSH1 0xFF AND PUSH1 0x0 NOT DUP2 PUSH2 0x451D JUMPI INVALID JUMPDEST DIV GT SWAP4 SWAP3 POP POP POP JUMP JUMPDEST PUSH1 0x0 DUP2 DUP4 SUB DUP2 DUP4 SLT DUP1 ISZERO SWAP1 PUSH2 0x453B JUMPI POP DUP4 DUP2 SGT ISZERO JUMPDEST DUP1 PUSH2 0x4550 JUMPI POP PUSH1 0x0 DUP4 SLT DUP1 ISZERO PUSH2 0x4550 JUMPI POP DUP4 DUP2 SGT JUMPDEST PUSH2 0x6FA JUMPI PUSH1 0x0 DUP1 REVERT JUMPDEST PUSH1 0x0 DUP1 DUP3 SLT ISZERO PUSH2 0x456C JUMPI DUP2 PUSH1 0x0 SUB PUSH2 0x486 JUMP JUMPDEST POP SWAP1 JUMP JUMPDEST PUSH1 0x0 DUP1 DUP3 GT PUSH2 0x457E JUMPI PUSH1 0x0 DUP1 REVERT JUMPDEST PUSH17 0x100000000000000000000000000000000 DUP3 LT PUSH2 0x459E JUMPI PUSH1 0x80 SWAP2 DUP3 SHR SWAP2 ADD JUMPDEST PUSH9 0x10000000000000000 DUP3 LT PUSH2 0x45B6 JUMPI PUSH1 0x40 SWAP2 DUP3 SHR SWAP2 ADD JUMPDEST PUSH5 0x100000000 DUP3 LT PUSH2 0x45CA JUMPI PUSH1 0x20 SWAP2 DUP3 SHR SWAP2 ADD JUMPDEST PUSH3 0x10000 DUP3 LT PUSH2 0x45DC JUMPI PUSH1 0x10 SWAP2 DUP3 SHR SWAP2 ADD JUMPDEST PUSH2 0x100 DUP3 LT PUSH2 0x45ED JUMPI PUSH1 0x8 SWAP2 DUP3 SHR SWAP2 ADD JUMPDEST PUSH1 0x10 DUP3 LT PUSH2 0x45FD JUMPI PUSH1 0x4 SWAP2 DUP3 SHR SWAP2 ADD JUMPDEST PUSH1 0x4 DUP3 LT PUSH2 0x460D JUMPI PUSH1 0x2 SWAP2 DUP3 SHR SWAP2 ADD JUMPDEST PUSH1 0x2 DUP3 LT PUSH2 0x16B JUMPI PUSH1 0x1 ADD SWAP2 SWAP1 POP JUMP JUMPDEST PUSH1 0x40 DUP1 MLOAD PUSH2 0x100 DUP2 ADD DUP3 MSTORE PUSH1 0x0 DUP1 DUP3 MSTORE PUSH1 0x20 DUP3 ADD DUP2 SWAP1 MSTORE SWAP2 DUP2 ADD DUP3 SWAP1 MSTORE PUSH1 0x60 DUP2 ADD DUP3 SWAP1 MSTORE PUSH1 0x80 DUP2 ADD DUP3 SWAP1 MSTORE PUSH1 0xA0 DUP2 ADD DUP3 SWAP1 MSTORE PUSH1 0xC0 DUP2 ADD DUP3 SWAP1 MSTORE PUSH1 0xE0 DUP2 ADD SWAP2 SWAP1 SWAP2 MSTORE SWAP1 JUMP JUMPDEST DUP1 CALLDATALOAD PUSH20 0xFFFFFFFFFFFFFFFFFFFFFFFFFFFFFFFFFFFFFFFF DUP2 AND DUP2 EQ PUSH2 0x16B JUMPI PUSH1 0x0 DUP1 REVERT JUMPDEST DUP1 CALLDATALOAD DUP1 ISZERO ISZERO DUP2 EQ PUSH2 0x16B JUMPI PUSH1 0x0 DUP1 REVERT JUMPDEST DUP1 CALLDATALOAD PUSH1 0x2 DUP2 SWAP1 SIGNEXTEND DUP2 EQ PUSH2 0x16B JUMPI PUSH1 0x0 DUP1 REVERT JUMPDEST PUSH1 0x0 DUP3 PUSH1 0x1F DUP4 ADD SLT PUSH2 0x46B7 JUMPI DUP1 DUP2 REVERT JUMPDEST DUP2 CALLDATALOAD PUSH8 0xFFFFFFFFFFFFFFFF DUP2 GT ISZERO PUSH2 0x46CB JUMPI INVALID JUMPDEST PUSH2 0x46DE PUSH1 0x20 PUSH1 0x1F NOT PUSH1 0x1F DUP5 ADD AND ADD PUSH2 0x4F13 JUMP JUMPDEST DUP2 DUP2 MSTORE DUP5 PUSH1 0x20 DUP4 DUP7 ADD ADD GT ISZERO PUSH2 0x46F2 JUMPI DUP3 DUP4 REVERT JUMPDEST DUP2 PUSH1 0x20 DUP6 ADD PUSH1 0x20 DUP4 ADD CALLDATACOPY SWAP1 DUP2 ADD PUSH1 0x20 ADD SWAP2 SWAP1 SWAP2 MSTORE SWAP3 SWAP2 POP POP JUMP JUMPDEST DUP1 CALLDATALOAD PUSH3 0xFFFFFF DUP2 AND DUP2 EQ PUSH2 0x16B JUMPI PUSH1 0x0 DUP1 REVERT JUMPDEST DUP1 CALLDATALOAD PUSH1 0xFF DUP2 AND DUP2 EQ PUSH2 0x16B JUMPI PUSH1 0x0 DUP1 REVERT JUMPDEST PUSH1 0x0 PUSH1 0x20 DUP3 DUP5 SUB SLT ISZERO PUSH2 0x4741 JUMPI DUP1 DUP2 REVERT JUMPDEST DUP2 CALLDATALOAD PUSH8 0xFFFFFFFFFFFFFFFF DUP1 DUP3 GT ISZERO PUSH2 0x4758 JUMPI DUP3 DUP4 REVERT JUMPDEST DUP2 DUP5 ADD SWAP2 POP PUSH2 0x1C0 DUP1 DUP4 DUP8 SUB SLT ISZERO PUSH2 0x476E JUMPI DUP4 DUP5 REVERT JUMPDEST PUSH2 0x4777 DUP2 PUSH2 0x4F13 JUMP JUMPDEST SWAP1 POP DUP3 CALLDATALOAD DUP2 MSTORE PUSH2 0x4789 PUSH1 0x20 DUP5 ADD PUSH2 0x4661 JUMP JUMPDEST PUSH1 0x20 DUP3 ADD MSTORE PUSH2 0x479A PUSH1 0x40 DUP5 ADD PUSH2 0x4661 JUMP JUMPDEST PUSH1 0x40 DUP3 ADD MSTORE PUSH1 0x60 DUP4 ADD CALLDATALOAD DUP3 DUP2 GT ISZERO PUSH2 0x47B0 JUMPI DUP5 DUP6 REVERT JUMPDEST PUSH2 0x47BC DUP8 DUP3 DUP7 ADD PUSH2 0x46A7 JUMP JUMPDEST PUSH1 0x60 DUP4 ADD MSTORE POP PUSH1 0x80 DUP4 ADD CALLDATALOAD DUP3 DUP2 GT ISZERO PUSH2 0x47D3 JUMPI DUP5 DUP6 REVERT JUMPDEST PUSH2 0x47DF DUP8 DUP3 DUP7 ADD PUSH2 0x46A7 JUMP JUMPDEST PUSH1 0x80 DUP4 ADD MSTORE POP PUSH2 0x47F1 PUSH1 0xA0 DUP5 ADD PUSH2 0x471F JUMP JUMPDEST PUSH1 0xA0 DUP3 ADD MSTORE PUSH2 0x4802 PUSH1 0xC0 DUP5 ADD PUSH2 0x471F JUMP JUMPDEST PUSH1 0xC0 DUP3 ADD MSTORE PUSH2 0x4813 PUSH1 0xE0 DUP5 ADD PUSH2 0x4685 JUMP JUMPDEST PUSH1 0xE0 DUP3 ADD MSTORE PUSH2 0x100 SWAP2 POP PUSH2 0x4828 DUP3 DUP5 ADD PUSH2 0x4695 JUMP JUMPDEST DUP3 DUP3 ADD MSTORE PUSH2 0x120 SWAP2 POP PUSH2 0x483C DUP3 DUP5 ADD PUSH2 0x4695 JUMP JUMPDEST DUP3 DUP3 ADD MSTORE PUSH2 0x140 SWAP2 POP PUSH2 0x4850 DUP3 DUP5 ADD PUSH2 0x4695 JUMP JUMPDEST DUP3 DUP3 ADD MSTORE PUSH2 0x160 SWAP2 POP PUSH2 0x4864 DUP3 DUP5 ADD PUSH2 0x4695 JUMP JUMPDEST DUP3 DUP3 ADD MSTORE PUSH2 0x180 SWAP2 POP PUSH2 0x4878 DUP3 DUP5 ADD PUSH2 0x470C JUMP JUMPDEST DUP3 DUP3 ADD MSTORE PUSH2 0x1A0 SWAP2 POP PUSH2 0x488C DUP3 DUP5 ADD PUSH2 0x4661 JUMP JUMPDEST SWAP2 DUP2 ADD SWAP2 SWAP1 SWAP2 MSTORE SWAP5 SWAP4 POP POP POP POP JUMP JUMPDEST PUSH1 0x0 DUP2 MLOAD PUSH2 0x48AD DUP2 DUP6 PUSH1 0x20 DUP7 ADD PUSH2 0x4F37 JUMP JUMPDEST SWAP3 SWAP1 SWAP3 ADD SWAP3 SWAP2 POP POP JUMP JUMPDEST PUSH32 0xE29AA0EFB88F20444953434C41494D45523A204475652064696C6967656E6365 DUP2 MSTORE PUSH32 0x20697320696D7065726174697665207768656E20617373657373696E67207468 PUSH1 0x20 DUP3 ADD MSTORE PUSH32 0x6973204E46542E204D616B65207375726520746F6B656E206164647265737365 PUSH1 0x40 DUP3 ADD MSTORE PUSH32 0x73206D617463682074686520657870656374656420746F6B656E732C20617320 PUSH1 0x60 DUP3 ADD MSTORE PUSH32 0x746F6B656E2073796D626F6C73206D617920626520696D6974617465642E0000 PUSH1 0x80 DUP3 ADD MSTORE PUSH1 0x9E ADD SWAP1 JUMP JUMPDEST PUSH32 0x5C6E5C6E00000000000000000000000000000000000000000000000000000000 DUP2 MSTORE PUSH1 0x4 ADD SWAP1 JUMP JUMPDEST PUSH1 0x0 PUSH32 0x54686973204E465420726570726573656E74732061206C697175696469747920 DUP3 MSTORE PUSH32 0x706F736974696F6E20696E206120556E69737761702056332000000000000000 PUSH1 0x20 DUP4 ADD MSTORE DUP6 MLOAD PUSH2 0x49FF DUP2 PUSH1 0x39 DUP6 ADD PUSH1 0x20 DUP11 ADD PUSH2 0x4F37 JUMP JUMPDEST PUSH32 0x2D00000000000000000000000000000000000000000000000000000000000000 PUSH1 0x39 SWAP2 DUP5 ADD SWAP2 DUP3 ADD MSTORE DUP6 MLOAD PUSH2 0x4A3C DUP2 PUSH1 0x3A DUP5 ADD PUSH1 0x20 DUP11 ADD PUSH2 0x4F37 JUMP JUMPDEST PUSH32 0x20706F6F6C2E2000000000000000000000000000000000000000000000000000 PUSH1 0x3A SWAP3 SWAP1 SWAP2 ADD SWAP2 DUP3 ADD MSTORE PUSH32 0x546865206F776E6572206F662074686973204E46542063616E206D6F64696679 PUSH1 0x41 DUP3 ADD MSTORE PUSH32 0x206F722072656465656D2074686520706F736974696F6E2E5C6E000000000000 PUSH1 0x61 DUP3 ADD MSTORE PUSH32 0x5C6E506F6F6C20416464726573733A2000000000000000000000000000000000 PUSH1 0x7B DUP3 ADD MSTORE DUP5 MLOAD PUSH2 0x4AEC DUP2 PUSH1 0x8B DUP5 ADD PUSH1 0x20 DUP10 ADD PUSH2 0x4F37 JUMP JUMPDEST PUSH32 0x5C6E000000000000000000000000000000000000000000000000000000000000 PUSH1 0x8B SWAP3 SWAP1 SWAP2 ADD SWAP2 DUP3 ADD MSTORE PUSH2 0x3C6 PUSH1 0x8D DUP3 ADD DUP6 PUSH2 0x489B JUMP JUMPDEST PUSH1 0x0 PUSH32 0x7B226E616D65223A220000000000000000000000000000000000000000000000 DUP3 MSTORE DUP6 MLOAD PUSH2 0x4B5C DUP2 PUSH1 0x9 DUP6 ADD PUSH1 0x20 DUP11 ADD PUSH2 0x4F37 JUMP JUMPDEST PUSH32 0x222C20226465736372697074696F6E223A220000000000000000000000000000 PUSH1 0x9 SWAP2 DUP5 ADD SWAP2 DUP3 ADD MSTORE DUP6 MLOAD PUSH2 0x4B99 DUP2 PUSH1 0x1B DUP5 ADD PUSH1 0x20 DUP11 ADD PUSH2 0x4F37 JUMP JUMPDEST DUP6 MLOAD SWAP2 ADD SWAP1 PUSH2 0x4BAF DUP2 PUSH1 0x1B DUP5 ADD PUSH1 0x20 DUP10 ADD PUSH2 0x4F37 JUMP JUMPDEST PUSH32 0x222C2022696D616765223A202200000000000000000000000000000000000000 PUSH1 0x1B SWAP3 SWAP1 SWAP2 ADD SWAP2 DUP3 ADD MSTORE PUSH32 0x646174613A696D6167652F7376672B786D6C3B6261736536342C000000000000 PUSH1 0x28 DUP3 ADD MSTORE DUP4 MLOAD PUSH2 0x4C13 DUP2 PUSH1 0x42 DUP5 ADD PUSH1 0x20 DUP9 ADD PUSH2 0x4F37 JUMP JUMPDEST PUSH32 0x227D000000000000000000000000000000000000000000000000000000000000 PUSH1 0x42 SWAP3 SWAP1 SWAP2 ADD SWAP2 DUP3 ADD MSTORE PUSH1 0x44 ADD SWAP7 SWAP6 POP POP POP POP POP POP JUMP JUMPDEST PUSH1 0x0 PUSH32 0x556E6973776170202D2000000000000000000000000000000000000000000000 DUP3 MSTORE DUP7 MLOAD PUSH2 0x4C83 DUP2 PUSH1 0xA DUP6 ADD PUSH1 0x20 DUP12 ADD PUSH2 0x4F37 JUMP JUMPDEST DUP1 DUP4 ADD SWAP1 POP PUSH32 0x202D200000000000000000000000000000000000000000000000000000000000 DUP1 PUSH1 0xA DUP4 ADD MSTORE DUP8 MLOAD PUSH2 0x4CC2 DUP2 PUSH1 0xD DUP6 ADD PUSH1 0x20 DUP13 ADD PUSH2 0x4F37 JUMP JUMPDEST PUSH32 0x2F00000000000000000000000000000000000000000000000000000000000000 PUSH1 0xD SWAP4 SWAP1 SWAP2 ADD SWAP3 DUP4 ADD MSTORE DUP7 MLOAD PUSH2 0x4D00 DUP2 PUSH1 0xE DUP6 ADD PUSH1 0x20 DUP12 ADD PUSH2 0x4F37 JUMP JUMPDEST PUSH1 0xE SWAP3 ADD SWAP2 DUP3 ADD MSTORE DUP5 MLOAD PUSH2 0x4D1B DUP2 PUSH1 0x11 DUP5 ADD PUSH1 0x20 DUP10 ADD PUSH2 0x4F37 JUMP JUMPDEST PUSH32 0x3C3E000000000000000000000000000000000000000000000000000000000000 PUSH1 0x11 SWAP3 SWAP1 SWAP2 ADD SWAP2 DUP3 ADD MSTORE DUP4 MLOAD PUSH2 0x4D59 DUP2 PUSH1 0x13 DUP5 ADD PUSH1 0x20 DUP9 ADD PUSH2 0x4F37 JUMP JUMPDEST ADD PUSH1 0x13 ADD SWAP8 SWAP7 POP POP POP POP POP POP POP JUMP JUMPDEST PUSH1 0x0 PUSH32 0x20416464726573733A2000000000000000000000000000000000000000000000 DUP1 DUP4 MSTORE DUP8 MLOAD PUSH2 0x4DA1 DUP2 PUSH1 0xA DUP7 ADD PUSH1 0x20 DUP13 ADD PUSH2 0x4F37 JUMP JUMPDEST PUSH32 0x5C6E000000000000000000000000000000000000000000000000000000000000 PUSH1 0xA SWAP2 DUP6 ADD SWAP2 DUP3 ADD MSTORE DUP8 MLOAD PUSH2 0x4DDE DUP2 PUSH1 0xC DUP5 ADD PUSH1 0x20 DUP13 ADD PUSH2 0x4F37 JUMP JUMPDEST ADD PUSH1 0xC DUP2 ADD SWAP2 SWAP1 SWAP2 MSTORE DUP6 MLOAD SWAP1 PUSH2 0x4DFB DUP3 PUSH1 0x16 DUP4 ADD PUSH1 0x20 DUP11 ADD PUSH2 0x4F37 JUMP JUMPDEST DUP2 DUP2 ADD SWAP2 POP POP PUSH32 0x5C6E46656520546965723A200000000000000000000000000000000000000000 PUSH1 0x16 DUP3 ADD MSTORE DUP5 MLOAD PUSH2 0x4E3A DUP2 PUSH1 0x22 DUP5 ADD PUSH1 0x20 DUP10 ADD PUSH2 0x4F37 JUMP JUMPDEST PUSH32 0x5C6E546F6B656E2049443A200000000000000000000000000000000000000000 PUSH1 0x22 SWAP3 SWAP1 SWAP2 ADD SWAP2 DUP3 ADD MSTORE DUP4 MLOAD PUSH2 0x4E78 DUP2 PUSH1 0x2E DUP5 ADD PUSH1 0x20 DUP9 ADD PUSH2 0x4F37 JUMP JUMPDEST PUSH2 0x4E8E PUSH2 0x4E89 PUSH1 0x2E DUP4 DUP6 ADD ADD PUSH2 0x4978 JUMP JUMPDEST PUSH2 0x48B7 JUMP JUMPDEST SWAP10 SWAP9 POP POP POP POP POP POP POP POP POP JUMP JUMPDEST PUSH1 0x0 PUSH32 0x646174613A6170706C69636174696F6E2F6A736F6E3B6261736536342C000000 DUP3 MSTORE DUP3 MLOAD PUSH2 0x4ED3 DUP2 PUSH1 0x1D DUP6 ADD PUSH1 0x20 DUP8 ADD PUSH2 0x4F37 JUMP JUMPDEST SWAP2 SWAP1 SWAP2 ADD PUSH1 0x1D ADD SWAP3 SWAP2 POP POP JUMP JUMPDEST PUSH1 0x0 PUSH1 0x20 DUP3 MSTORE DUP3 MLOAD DUP1 PUSH1 0x20 DUP5 ADD MSTORE PUSH2 0x4EFF DUP2 PUSH1 0x40 DUP6 ADD PUSH1 0x20 DUP8 ADD PUSH2 0x4F37 JUMP JUMPDEST PUSH1 0x1F ADD PUSH1 0x1F NOT AND SWAP2 SWAP1 SWAP2 ADD PUSH1 0x40 ADD SWAP3 SWAP2 POP POP JUMP JUMPDEST PUSH1 0x40 MLOAD DUP2 DUP2 ADD PUSH8 0xFFFFFFFFFFFFFFFF DUP2 GT DUP3 DUP3 LT OR ISZERO PUSH2 0x4F2F JUMPI INVALID JUMPDEST PUSH1 0x40 MSTORE SWAP2 SWAP1 POP JUMP JUMPDEST PUSH1 0x0 JUMPDEST DUP4 DUP2 LT ISZERO PUSH2 0x4F52 JUMPI DUP2 DUP2 ADD MLOAD DUP4 DUP3 ADD MSTORE PUSH1 0x20 ADD PUSH2 0x4F3A JUMP JUMPDEST DUP4 DUP2 GT ISZERO PUSH2 0x4F61 JUMPI PUSH1 0x0 DUP5 DUP5 ADD MSTORE JUMPDEST POP POP POP POP JUMP INVALID KECCAK256 EXTCODECOPY PUSH2 0x6E69 PUSH14 0x6174652061646469746976653D22 PUSH20 0x756D22206174747269627574654E616D653D2273 PUSH21 0x6172744F6666736574222066726F6D3D2230252220 PUSH21 0x6F3D22313030252220626567696E3D223073222064 PUSH22 0x723D223330732220726570656174436F756E743D2269 PUSH15 0x646566696E69746522202F3E3C2F74 PUSH6 0x787450617468 RETURNDATACOPY EXTCODECOPY 0x2F PUSH21 0x6578743E3C73746F70206F66667365743D222E3922 KECCAK256 PUSH20 0x746F702D636F6C6F723D22776869746522207374 PUSH16 0x702D6F7061636974793D223022202F3E EXTCODECOPY 0x2F PUSH13 0x696E6561724772616469656E74 RETURNDATACOPY EXTCODECOPY PUSH19 0x656374207374796C653D2266696C7465723A20 PUSH22 0x726C28236631292220783D223070782220793D223070 PUSH25 0x222077696474683D22323930707822206865696768743D2235 ADDRESS ADDRESS PUSH17 0x7822202F3E3C6665496D61676520726573 PUSH22 0x6C743D2270332220786C696E6B3A687265663D226461 PUSH21 0x613A696D6167652F7376672B786D6C3B6261736536 CALLVALUE 0x2C EXTCODECOPY PUSH8 0x206D61736B3D2275 PUSH19 0x6C2823666164652D73796D626F6C29223E3C72 PUSH6 0x63742066696C PUSH13 0x3D226E6F6E652220783D223070 PUSH25 0x2220793D22307078222077696474683D223239307078222068 PUSH6 0x696768743D22 ORIGIN ADDRESS ADDRESS PUSH17 0x7822202F3E203C7465787420793D223730 PUSH17 0x782220783D2233327078222066696C6C3D 0x22 PUSH24 0x686974652220666F6E742D66616D696C793D2227436F7572 PUSH10 0x6572204E6577272C206D PUSH16 0x6E6F73706163652220666F6E742D7765 PUSH10 0x6768743D223230302220 PUSH7 0x6F6E742D73697A PUSH6 0x3D2233367078 0x22 RETURNDATACOPY EXTCODECOPY PUSH20 0x76672077696474683D2232393022206865696768 PUSH21 0x3D22353030222076696577426F783D223020302032 CODECOPY ADDRESS KECCAK256 CALLDATALOAD ADDRESS ADDRESS 0x22 KECCAK256 PUSH25 0x6D6C6E733D22687474703A2F2F7777772E77332E6F72672F32 ADDRESS ADDRESS ADDRESS 0x2F PUSH20 0x76672270782C2030707829222063783D22307078 0x22 KECCAK256 PUSH4 0x793D2230 PUSH17 0x782220723D22347078222066696C6C3D22 PUSH24 0x68697465222F3E3C2F673E203C616E696D61746520616464 PUSH10 0x746976653D2273756D22 KECCAK256 PUSH2 0x7474 PUSH19 0x69627574654E616D653D2273746172744F6666 PUSH20 0x6574222066726F6D3D2230252220746F3D223130 ADDRESS 0x25 0x22 KECCAK256 PUSH3 0x656769 PUSH15 0x3D22307322206475723D2233307322 KECCAK256 PUSH19 0x6570656174436F756E743D22696E646566696E PUSH10 0x746522202F3E203C2F74 PUSH6 0x787450617468 RETURNDATACOPY EXTCODECOPY PUSH14 0x61736B2069643D22666164652D75 PUSH17 0x22206D61736B436F6E74656E74556E6974 PUSH20 0x3D226F626A656374426F756E64696E67426F7822 RETURNDATACOPY EXTCODECOPY PUSH19 0x6563742077696474683D223122206865696768 PUSH21 0x3D2231222066696C6C3D2275726C2823677261642D PUSH22 0x702922202F3E3C2F6D61736B3E22207374726F6B653D 0x22 PUSH19 0x67626128302C302C302C302E33292220737472 PUSH16 0x6B652D77696474683D22333270782220 PUSH7 0x696C6C3D226E6F PUSH15 0x6522207374726F6B652D6C696E6563 PUSH2 0x703D 0x22 PUSH19 0x6F756E6422202F3E203C616E696D6174652061 PUSH5 0x6469746976 PUSH6 0x3D2273756D22 KECCAK256 PUSH2 0x7474 PUSH19 0x69627574654E616D653D2273746172744F6666 PUSH20 0x6574222066726F6D3D2230252220746F3D223130 ADDRESS 0x25 0x22 KECCAK256 PUSH3 0x656769 PUSH15 0x3D22307322206475723D2233307322 KECCAK256 EXTCODECOPY PUSH8 0x207374796C653D22 PUSH21 0x72616E73666F726D3A7472616E736C617465283239 PUSH17 0x782C20343434707829223E3C636972636C PUSH6 0x207374796C65 RETURNDATASIZE 0x22 PUSH21 0x72616E73666F726D3A7472616E736C617465336428 EXTCODECOPY PUSH20 0x76672077696474683D2732393027206865696768 PUSH21 0x3D27353030272076696577426F783D273020302032 CODECOPY ADDRESS KECCAK256 CALLDATALOAD ADDRESS ADDRESS 0x27 KECCAK256 PUSH25 0x6D6C6E733D27687474703A2F2F7777772E77332E6F72672F32 ADDRESS ADDRESS ADDRESS 0x2F PUSH20 0x7667273E3C636972636C652063783D27203C6720 PUSH20 0x74796C653D2266696C7465723A75726C2823746F PUSH17 0x2D726567696F6E2D626C7572293B207472 PUSH2 0x6E73 PUSH7 0x6F726D3A736361 PUSH13 0x6528312E35293B207472616E73 PUSH7 0x6F726D2D6F7269 PUSH8 0x696E3A63656E7465 PUSH19 0x20746F703B223E22202F3E3C6665426C656E64 KECCAK256 PUSH14 0x6F64653D226F7665726C61792220 PUSH10 0x6E3D2270302220696E32 RETURNDATASIZE 0x22 PUSH17 0x3122202F3E3C6665426C656E64206D6F64 PUSH6 0x3D226578636C PUSH22 0x73696F6E2220696E323D22703222202F3E3C6665426C PUSH6 0x6E64206D6F64 PUSH6 0x3D226F766572 PUSH13 0x61792220696E323D2270332220 PUSH19 0x6573756C743D22626C656E644F757422202F3E EXTCODECOPY PUSH7 0x65476175737369 PUSH2 0x6E42 PUSH13 0x7572203C706174682069643D22 PUSH14 0x696E696D61702220643D224D3233 CALLVALUE KECCAK256 CALLVALUE CALLVALUE CALLVALUE NUMBER ORIGIN CALLER CALLVALUE KECCAK256 CALLVALUE CALLDATALOAD CALLDATACOPY 0x2E CODECOPY CALLVALUE CODECOPY KECCAK256 ORIGIN CALLVALUE ORIGIN 0x2E ORIGIN BALANCE KECCAK256 CALLVALUE CALLDATASIZE CALLER KECCAK256 ORIGIN CALLDATALOAD CALLER KECCAK256 CALLVALUE CALLDATASIZE CALLER 0x22 KECCAK256 0x2F RETURNDATACOPY EXTCODECOPY PUSH14 0x61736B2069643D226E6F6E652220 PUSH14 0x61736B436F6E74656E74556E6974 PUSH20 0x3D226F626A656374426F756E64696E67426F7822 RETURNDATACOPY EXTCODECOPY PUSH19 0x6563742077696474683D223122206865696768 PUSH21 0x3D2231222066696C6C3D22776869746522202F3E3C 0x2F PUSH14 0x61736B3E2220783D223070782220 PUSH26 0x3D22307078222077696474683D22323930707822206865696768 PUSH21 0x3D22353030707822202F3E203C616E696D61746520 PUSH2 0x6464 PUSH10 0x746976653D2273756D22 KECCAK256 PUSH2 0x7474 PUSH19 0x69627574654E616D653D2273746172744F6666 PUSH20 0x6574222066726F6D3D2230252220746F3D223130 ADDRESS 0x25 0x22 KECCAK256 PUSH3 0x656769 PUSH15 0x3D22307322206475723D2233307322 KECCAK256 PUSH19 0x6570656174436F756E743D22696E646566696E PUSH10 0x746522202F3E3C746578 PUSH21 0x20783D22313270782220793D22313770782220666F PUSH15 0x742D66616D696C793D2227436F7572 PUSH10 0x6572204E6577272C206D PUSH16 0x6E6F73706163652220666F6E742D7369 PUSH27 0x653D2231327078222066696C6C3D227768697465223E3C74737061 PUSH15 0x2066696C6C3D227267626128323535 0x2C ORIGIN CALLDATALOAD CALLDATALOAD 0x2C ORIGIN CALLDATALOAD CALLDATALOAD 0x2C ADDRESS 0x2E CALLDATASIZE 0x29 0x22 RETURNDATACOPY 0x4D PUSH10 0x6E205469636B3A203C2F PUSH21 0x7370616E3E3C74657874506174682073746172744F PUSH7 0x667365743D222D BALANCE ADDRESS ADDRESS 0x25 0x22 KECCAK256 PUSH7 0x696C6C3D227768 PUSH10 0x74652220666F6E742D66 PUSH2 0x6D69 PUSH13 0x793D2227436F7572696572204E PUSH6 0x77272C206D6F PUSH15 0x6F73706163652220666F6E742D7369 PUSH27 0x653D22313070782220786C696E6B3A687265663D2223746578742D PUSH17 0x6174682D61223E3C6C696E656172477261 PUSH5 0x69656E7420 PUSH10 0x643D22677261642D646F PUSH24 0x6E222078313D2230222078323D2231222079313D22302220 PUSH26 0x323D2231223E3C73746F70206F66667365743D22302E30222073 PUSH21 0x6F702D636F6C6F723D227768697465222073746F70 0x2D PUSH16 0x7061636974793D223122202F3E3C7374 PUSH16 0x70206F66667365743D22302E39222073 PUSH21 0x6F702D636F6C6F723D227768697465222073746F70 0x2D PUSH16 0x7061636974793D223022202F3E3C2F6C PUSH10 0x6E656172477261646965 PUSH15 0x743E3C66696C7465722069643D2266 BALANCE 0x22 RETURNDATACOPY EXTCODECOPY PUSH7 0x65496D61676520 PUSH19 0x6573756C743D2270302220786C696E6B3A6872 PUSH6 0x663D22646174 PUSH2 0x3A69 PUSH14 0x6167652F7376672B786D6C3B6261 PUSH20 0x6536342C3C7376672077696474683D2732393027 KECCAK256 PUSH9 0x65696768743D273530 ADDRESS 0x27 KECCAK256 PUSH23 0x696577426F783D2730203020323930203530302720786D PUSH13 0x6E733D27687474703A2F2F7777 PUSH24 0x2E77332E6F72672F323030302F737667273E3C7265637420 PUSH24 0x696474683D27323930707827206865696768743D27353030 PUSH17 0x78272066696C6C3D2723222F3E3C666549 PUSH14 0x61676520726573756C743D227032 0x22 KECCAK256 PUSH25 0x6C696E6B3A687265663D22646174613A696D6167652F737667 0x2B PUSH25 0x6D6C3B6261736536342C3C656C6C697073652063783D223530 0x25 0x22 KECCAK256 PUSH4 0x793D2230 PUSH17 0x78222072783D223138307078222072793D 0x22 BALANCE ORIGIN ADDRESS PUSH17 0x78222066696C6C3D222330303022206F70 PUSH2 0x6369 PUSH21 0x793D22302E383522202F3E3C2F673E707822206865 PUSH10 0x6768743D223236707822 KECCAK256 PUSH19 0x783D22387078222072793D2238707822206669 PUSH13 0x6C3D227267626128302C302C30 0x2C ADDRESS 0x2E CALLDATASIZE 0x29 0x22 KECCAK256 0x2F RETURNDATACOPY PUSH17 0x782220723D22347078222066696C6C3D22 PUSH24 0x6869746522202F3E3C636972636C652063783D2231312E33 CALLVALUE CALLDATACOPY CODESIZE 0x4C ORIGIN CALLVALUE KECCAK256 BALANCE ORIGIN 0x4C BALANCE CALLVALUE 0x2E CALLVALUE CALLER CALLVALUE BALANCE KECCAK256 BALANCE ORIGIN 0x2E CALLDATASIZE CALLDATALOAD ORIGIN ORIGIN 0x4C ORIGIN ORIGIN 0x2E CALLER CODECOPY ORIGIN CALLER KECCAK256 BALANCE CODESIZE 0x4C BALANCE CALLER 0x2E CALLDATACOPY CODESIZE BALANCE CODECOPY KECCAK256 BALANCE CALLER 0x2E CALLDATACOPY CODESIZE BALANCE CODECOPY 0x4C BALANCE CODESIZE KECCAK256 ORIGIN ORIGIN 0x2E CALLER CODECOPY ORIGIN CALLER 0x4C BALANCE ORIGIN 0x2E CALLDATASIZE CALLDATALOAD ORIGIN ORIGIN KECCAK256 BALANCE CALLVALUE 0x2E CALLVALUE CALLER CALLVALUE BALANCE 0x4C BALANCE ORIGIN KECCAK256 ORIGIN CALLVALUE 0x4C BALANCE BALANCE 0x2E CALLER CALLVALUE CALLDATACOPY CODESIZE KECCAK256 BALANCE CALLVALUE 0x2E CALLVALUE CALLER CALLVALUE BALANCE 0x4C CALLDATASIZE KECCAK256 ORIGIN ORIGIN 0x2E CALLER CODECOPY EXTCODECOPY PUSH19 0x6563742066696C6C3D226E6F6E652220783D22 ADDRESS PUSH17 0x782220793D22307078222077696474683D 0x22 ORIGIN CODECOPY ADDRESS PUSH17 0x7822206865696768743D22353030707822 KECCAK256 0x2F RETURNDATACOPY COINBASE TIMESTAMP NUMBER DIFFICULTY GASLIMIT CHAINID SELFBALANCE 0x48 0x49 0x4A 0x4B 0x4C 0x4D 0x4E 0x4F POP MLOAD MSTORE MSTORE8 SLOAD SSTORE JUMP JUMPI PC MSIZE GAS PUSH2 0x6263 PUSH5 0x6566676869 PUSH11 0x6B6C6D6E6F707172737475 PUSH23 0x7778797A303132333435363738392B2F20786D6C6E733A PUSH25 0x6C696E6B3D27687474703A2F2F7777772E77332E6F72672F31 CODECOPY CODECOPY CODECOPY 0x2F PUSH25 0x6C696E6B273E3C6C696E6561724772616469656E742069643D 0x22 PUSH8 0x7261642D73796D62 PUSH16 0x6C223E3C73746F70206F66667365743D 0x22 ADDRESS 0x2E CALLDATACOPY 0x22 KECCAK256 PUSH20 0x746F702D636F6C6F723D22776869746522207374 PUSH16 0x702D6F7061636974793D223122202F3E EXTCODECOPY PUSH20 0x746F70206F66667365743D222E3935222073746F PUSH17 0x2D636F6C6F723D22776869746522207374 PUSH16 0x702D6F7061636974793D223022202F3E EXTCODECOPY 0x2F PUSH13 0x696E6561724772616469656E74 RETURNDATACOPY KECCAK256 PUSH20 0x74796C653D227472616E73666F726D3A7472616E PUSH20 0x6C61746528373270782C313839707829223E3C72 PUSH6 0x637420783D22 0x2D BALANCE CALLDATASIZE PUSH17 0x782220793D222D31367078222077696474 PUSH9 0x3D2231383070782220 PUSH9 0x65696768743D223138 ADDRESS PUSH17 0x78222066696C6C3D226E6F6E6522202F3E EXTCODECOPY PUSH17 0x61746820643D22207374796C653D227472 PUSH2 0x6E73 PUSH7 0x6F726D3A747261 PUSH15 0x736C61746528373270782C31383970 PUSH25 0x29223E70782220723D2232347078222066696C6C3D226E6F6E PUSH6 0x22207374726F PUSH12 0x653D22776869746522202F3E EXTCODECOPY PUSH19 0x65637420783D222D313670782220793D222D31 CALLDATASIZE PUSH17 0x78222077696474683D2231383070782220 PUSH9 0x65696768743D223138 ADDRESS PUSH17 0x78222066696C6C3D226E6F6E6522202F3E EXTCODECOPY PUSH8 0x3E3C706174682073 PUSH21 0x796C653D227472616E73666F726D3A7472616E736C PUSH2 0x7465 0x28 CALLDATASIZE PUSH17 0x782C367078292220643D224D313220304C BALANCE ORIGIN 0x2E CALLDATASIZE CALLDATALOAD ORIGIN ORIGIN KECCAK256 CODECOPY 0x2E CALLDATALOAD CALLDATASIZE CALLDATALOAD CODESIZE CALLDATACOPY 0x4C BALANCE CODESIZE KECCAK256 BALANCE 0x2E CALLDATASIZE ADDRESS CALLDATACOPY CALLDATACOPY 0x4C BALANCE CALLER 0x2E CALLDATACOPY CODESIZE BALANCE CODECOPY KECCAK256 BALANCE ADDRESS 0x2E ORIGIN BALANCE CODESIZE BALANCE 0x4C ORIGIN ORIGIN 0x2E CALLER CODECOPY ORIGIN CALLER KECCAK256 CALLDATASIZE 0x4C BALANCE CALLVALUE 0x2E CALLVALUE CALLER CALLVALUE BALANCE KECCAK256 EXTCODECOPY PUSH17 0x617468207374726F6B652D6C696E656361 PUSH17 0x3D22726F756E642220643D224D38203943 CODESIZE 0x2E ADDRESS ADDRESS ADDRESS ADDRESS CALLVALUE KECCAK256 ORIGIN ORIGIN 0x2E CODECOPY CALLVALUE CODECOPY CALLVALUE KECCAK256 BALANCE CALLDATASIZE 0x2E ORIGIN ADDRESS CODECOPY CODECOPY KECCAK256 ORIGIN CODESIZE KECCAK256 ORIGIN CALLDATACOPY KECCAK256 ORIGIN CODESIZE 0x22 KECCAK256 PUSH7 0x696C6C3D226E6F PUSH15 0x6522207374726F6B653D2277686974 PUSH6 0x22202F3E2072 PUSH6 0x70656174436F PUSH22 0x6E743D22696E646566696E69746522202F3E3C2F7465 PUSH25 0x74506174683E3C74657874506174682073746172744F666673 PUSH6 0x743D222D3530 0x25 0x22 KECCAK256 PUSH7 0x696C6C3D227768 PUSH10 0x74652220666F6E742D66 PUSH2 0x6D69 PUSH13 0x793D2227436F7572696572204E PUSH6 0x77272C206D6F PUSH15 0x6F73706163652220666F6E742D7369 PUSH27 0x653D22313070782220786C696E6B3A687265663D2223746578742D PUSH17 0x6174682D61223E3C6D61736B2069643D22 PUSH7 0x6164652D646F77 PUSH15 0x22206D61736B436F6E74656E74556E PUSH10 0x74733D226F626A656374 TIMESTAMP PUSH16 0x756E64696E67426F78223E3C72656374 KECCAK256 PUSH24 0x696474683D223122206865696768743D2231222066696C6C RETURNDATASIZE 0x22 PUSH22 0x726C2823677261642D646F776E2922202F3E3C2F6D61 PUSH20 0x6B3E22207374726F6B653D227267626128323535 0x2C ORIGIN CALLDATALOAD CALLDATALOAD 0x2C ORIGIN CALLDATALOAD CALLDATALOAD 0x2C BALANCE 0x29 0x22 KECCAK256 PUSH7 0x696C6C3D226E6F PUSH15 0x6522207374726F6B652D6C696E6563 PUSH2 0x703D 0x22 PUSH19 0x6F756E6422202F3E3C2F673E696E3D22626C65 PUSH15 0x644F75742220737464446576696174 PUSH10 0x6F6E3D22343222202F3E EXTCODECOPY 0x2F PUSH7 0x696C7465723E20 EXTCODECOPY PUSH4 0x6C697050 PUSH2 0x7468 KECCAK256 PUSH10 0x643D22636F726E657273 0x22 RETURNDATACOPY EXTCODECOPY PUSH19 0x6563742077696474683D223239302220686569 PUSH8 0x68743D2235303022 KECCAK256 PUSH19 0x783D223432222072793D22343222202F3E3C2F PUSH4 0x6C697050 PUSH2 0x7468 RETURNDATACOPY KECCAK256 EXTCODECOPY PUSH8 0x207374796C653D22 PUSH21 0x72616E73666F726D3A7472616E736C617465283239 PUSH17 0x782C20333834707829223E3C6C696E6561 PUSH19 0x4772616469656E742069643D22677261642D75 PUSH17 0x222078313D2231222078323D2230222079 BALANCE RETURNDATASIZE 0x22 BALANCE 0x22 KECCAK256 PUSH26 0x323D2230223E3C73746F70206F66667365743D22302E30222073 PUSH21 0x6F702D636F6C6F723D227768697465222073746F70 0x2D PUSH16 0x7061636974793D223122202F3E32334C BALANCE ADDRESS 0x2E ORIGIN BALANCE CODESIZE BALANCE KECCAK256 BALANCE CALLER 0x2E CALLDATACOPY CODESIZE BALANCE CODECOPY 0x4C BALANCE 0x2E CALLDATASIZE ADDRESS CALLDATACOPY CALLDATACOPY KECCAK256 BALANCE CODESIZE 0x4C CODECOPY 0x2E CALLDATALOAD CALLDATASIZE CALLDATALOAD CODESIZE CALLDATACOPY KECCAK256 BALANCE ORIGIN 0x2E CALLDATASIZE CALLDATALOAD ORIGIN ORIGIN 0x4C ADDRESS KECCAK256 BALANCE ORIGIN 0x4C CODECOPY 0x2E CALLDATALOAD CALLDATASIZE CALLDATALOAD CODESIZE CALLDATACOPY KECCAK256 BALANCE BALANCE 0x2E CALLER CALLVALUE CALLDATACOPY CODESIZE 0x4C BALANCE 0x2E CALLDATASIZE ADDRESS CALLDATACOPY CALLDATACOPY KECCAK256 CALLDATASIZE 0x4C BALANCE ADDRESS 0x2E ORIGIN BALANCE CODESIZE BALANCE KECCAK256 BALANCE ADDRESS 0x2E ORIGIN BALANCE CODESIZE BALANCE 0x4C CALLDATASIZE KECCAK256 BALANCE 0x2E CALLDATASIZE ADDRESS CALLDATACOPY CALLDATACOPY 0x4C BALANCE BALANCE 0x2E CALLER CALLVALUE CALLDATACOPY CODESIZE KECCAK256 CODECOPY 0x2E CALLDATALOAD CALLDATASIZE CALLDATALOAD CODESIZE CALLDATACOPY 0x4C BALANCE ORIGIN KECCAK256 ADDRESS GAS 0x22 KECCAK256 PUSH7 0x696C6C3D227768 PUSH10 0x746522202F3E3C672073 PUSH21 0x796C653D227472616E73666F726D3A7472616E736C PUSH2 0x7465 0x28 ORIGIN ORIGIN CALLDATASIZE PUSH17 0x782C20333932707829223E3C7265637420 PUSH24 0x696474683D223336707822206865696768743D2233367078 0x22 KECCAK256 PUSH19 0x783D22387078222072793D2238707822206669 PUSH13 0x6C3D226E6F6E6522207374726F PUSH12 0x653D2272676261283235352C ORIGIN CALLDATALOAD CALLDATALOAD 0x2C ORIGIN CALLDATALOAD CALLDATALOAD 0x2C ADDRESS 0x2E ORIGIN 0x29 0x22 KECCAK256 0x2F RETURNDATACOPY EXTCODECOPY PUSH21 0x657874506174682073746172744F66667365743D22 CALLDATALOAD ADDRESS 0x25 0x22 KECCAK256 PUSH7 0x696C6C3D227768 PUSH10 0x74652220666F6E742D66 PUSH2 0x6D69 PUSH13 0x793D2227436F7572696572204E PUSH6 0x77272C206D6F PUSH15 0x6F73706163652220666F6E742D7369 PUSH27 0x653D22313070782220786C696E6B3A687265663D2223746578742D PUSH17 0x6174682D61223E3C7465787420783D2231 ORIGIN PUSH17 0x782220793D22313770782220666F6E742D PUSH7 0x616D696C793D22 0x27 NUMBER PUSH16 0x7572696572204E6577272C206D6F6E6F PUSH20 0x706163652220666F6E742D73697A653D22313270 PUSH25 0x222066696C6C3D227768697465223E3C747370616E2066696C PUSH13 0x3D2272676261283235352C3235 CALLDATALOAD 0x2C ORIGIN CALLDATALOAD CALLDATALOAD 0x2C ADDRESS 0x2E CALLDATASIZE 0x29 0x22 RETURNDATACOPY 0x4D PUSH2 0x7820 SLOAD PUSH10 0x636B3A203C2F74737061 PUSH15 0x3E3C616E696D6174655472616E7366 PUSH16 0x726D206174747269627574654E616D65 RETURNDATASIZE 0x22 PUSH21 0x72616E73666F726D2220747970653D22726F746174 PUSH6 0x222066726F6D RETURNDATASIZE 0x22 ADDRESS KECCAK256 BALANCE CODESIZE KECCAK256 BALANCE CODESIZE 0x22 KECCAK256 PUSH21 0x6F3D2233363020313820313822206475723D223130 PUSH20 0x2220726570656174436F756E743D22696E646566 PUSH10 0x6E697465222F3E3C2F67 RETURNDATACOPY EXTCODECOPY 0x2F PUSH8 0x3E3C706174682069 PUSH5 0x3D22746578 PUSH21 0x2D706174682D612220643D224D3430203132204832 CALLDATALOAD ADDRESS KECCAK256 COINBASE ORIGIN CODESIZE KECCAK256 ORIGIN CODESIZE KECCAK256 ADDRESS KECCAK256 ADDRESS KECCAK256 BALANCE KECCAK256 ORIGIN CALLDATACOPY CODESIZE KECCAK256 CALLVALUE ADDRESS KECCAK256 JUMP CALLVALUE CALLDATASIZE ADDRESS KECCAK256 COINBASE ORIGIN CODESIZE KECCAK256 ORIGIN CODESIZE KECCAK256 ADDRESS KECCAK256 ADDRESS KECCAK256 BALANCE KECCAK256 ORIGIN CALLDATALOAD ADDRESS KECCAK256 CALLVALUE CODESIZE CODESIZE KECCAK256 0x48 CALLVALUE ADDRESS KECCAK256 COINBASE ORIGIN CODESIZE KECCAK256 ORIGIN CODESIZE KECCAK256 ADDRESS KECCAK256 ADDRESS KECCAK256 BALANCE KECCAK256 BALANCE ORIGIN KECCAK256 CALLVALUE CALLDATASIZE ADDRESS KECCAK256 JUMP CALLVALUE ADDRESS KECCAK256 COINBASE ORIGIN CODESIZE KECCAK256 ORIGIN CODESIZE KECCAK256 ADDRESS KECCAK256 ADDRESS KECCAK256 BALANCE KECCAK256 CALLVALUE ADDRESS KECCAK256 BALANCE ORIGIN KECCAK256 PUSH27 0x22202F3E222F3E3C6665496D61676520726573756C743D22703122 KECCAK256 PUSH25 0x6C696E6B3A687265663D22646174613A696D6167652F737667 0x2B PUSH25 0x6D6C3B6261736536342C3C6D61736B2069643D22666164652D PUSH20 0x796D626F6C22206D61736B436F6E74656E74556E PUSH10 0x74733D22757365725370 PUSH2 0x6365 0x4F PUSH15 0x557365223E3C726563742077696474 PUSH9 0x3D2232393070782220 PUSH9 0x65696768743D223230 ADDRESS PUSH17 0x78222066696C6C3D2275726C2823677261 PUSH5 0x2D73796D62 PUSH16 0x6C2922202F3E3C2F6D61736B3E3C2F64 PUSH6 0x66733E3C7265 PUSH4 0x7420783D 0x22 ADDRESS 0x22 KECCAK256 PUSH26 0x3D2230222077696474683D2232393022206865696768743D2235 ADDRESS ADDRESS 0x22 KECCAK256 PUSH19 0x783D223432222072793D223432222066696C6C RETURNDATASIZE 0x22 PUSH19 0x67626128302C302C302C302922207374726F6B PUSH6 0x3D2272676261 0x28 ORIGIN CALLDATALOAD CALLDATALOAD 0x2C ORIGIN CALLDATALOAD CALLDATALOAD 0x2C ORIGIN CALLDATALOAD CALLDATALOAD 0x2C ADDRESS 0x2E ORIGIN 0x29 0x22 KECCAK256 0x2F RETURNDATACOPY EXTCODECOPY 0x2F PUSH8 0x3E3C66696C746572 KECCAK256 PUSH10 0x643D22746F702D726567 PUSH10 0x6F6E2D626C7572223E3C PUSH7 0x65476175737369 PUSH2 0x6E42 PUSH13 0x757220696E3D22536F75726365 SELFBALANCE PUSH19 0x61706869632220737464446576696174696F6E RETURNDATASIZE 0x22 ORIGIN CALLVALUE 0x22 KECCAK256 0x2F RETURNDATACOPY EXTCODECOPY 0x2F PUSH7 0x696C7465723E3C 0x2F PUSH21 0x657874506174683E203C7465787450617468207374 PUSH2 0x7274 0x4F PUSH7 0x667365743D2230 0x25 0x22 KECCAK256 PUSH7 0x696C6C3D227768 PUSH10 0x74652220666F6E742D66 PUSH2 0x6D69 PUSH13 0x793D2227436F7572696572204E PUSH6 0x77272C206D6F PUSH15 0x6F73706163652220666F6E742D7369 PUSH27 0x653D22313070782220786C696E6B3A687265663D2223746578742D PUSH17 0x6174682D61223E3C746578742074657874 0x2D PUSH19 0x656E646572696E673D226F7074696D697A6553 PUSH17 0x656564223E3C7265637420783D22313622 KECCAK256 PUSH26 0x3D223136222077696474683D2232353822206865696768743D22 CALLVALUE CALLDATASIZE CODESIZE 0x22 KECCAK256 PUSH19 0x783D223236222072793D223236222066696C6C RETURNDATASIZE 0x22 PUSH19 0x67626128302C302C302C302922207374726F6B PUSH6 0x3D2272676261 0x28 ORIGIN CALLDATALOAD CALLDATALOAD 0x2C ORIGIN CALLDATALOAD CALLDATALOAD 0x2C ORIGIN CALLDATALOAD CALLDATALOAD 0x2C ADDRESS 0x2E ORIGIN 0x29 0x22 KECCAK256 0x2F RETURNDATACOPY EXTCODECOPY PUSH21 0x65787420783D22313270782220793D223137707822 KECCAK256 PUSH7 0x6F6E742D66616D PUSH10 0x6C793D2227436F757269 PUSH6 0x72204E657727 0x2C KECCAK256 PUSH14 0x6F6E6F73706163652220666F6E74 0x2D PUSH20 0x697A653D2231327078222066696C6C3D22776869 PUSH21 0x65223E3C747370616E2066696C6C3D227267626128 ORIGIN CALLDATALOAD CALLDATALOAD 0x2C ORIGIN CALLDATALOAD CALLDATALOAD 0x2C ORIGIN CALLDATALOAD CALLDATALOAD 0x2C ADDRESS 0x2E CALLDATASIZE 0x29 0x22 RETURNDATACOPY 0x49 DIFFICULTY GASPRICE KECCAK256 EXTCODECOPY 0x2F PUSH21 0x7370616E3E3C726563742077696474683D22333670 PUSH25 0x22206865696768743D2233367078222072783D223870782220 PUSH19 0x793D22387078222066696C6C3D226E6F6E6522 KECCAK256 PUSH20 0x74726F6B653D2272676261283235352C3235352C ORIGIN CALLDATALOAD CALLDATALOAD 0x2C ADDRESS 0x2E ORIGIN 0x29 0x22 KECCAK256 0x2F RETURNDATACOPY EXTCODECOPY 0x2F PUSH21 0x6578743E3C7465787420793D223131357078222078 RETURNDATASIZE 0x22 CALLER ORIGIN PUSH17 0x78222066696C6C3D227768697465222066 PUSH16 0x6E742D66616D696C793D2227436F7572 PUSH10 0x6572204E6577272C206D PUSH16 0x6E6F73706163652220666F6E742D7765 PUSH10 0x6768743D223230302220 PUSH7 0x6F6E742D73697A PUSH6 0x3D2233367078 0x22 RETURNDATACOPY EXTCODECOPY 0x2F PUSH21 0x6578743E3C2F673E3C67207374796C653D22747261 PUSH15 0x73666F726D3A7472616E736C617465 0x28 ORIGIN ORIGIN CALLDATASIZE PUSH17 0x782C20343333707829223E203C67207374 PUSH26 0x6C653D227472616E73666F726D3A7472616E736C617465283239 PUSH17 0x782C20343134707829223EA164736F6C63 NUMBER STOP SMOD MOD STOP EXP "},"gasEstimates":{"creation":{"codeDepositCost":"5334000","executionCost":"6438","totalCost":"5340438"},"external":{"constructTokenURI(NFTDescriptor.ConstructTokenURIParams)":"infinite"},"internal":{"abs(int256)":"68","addressToString(address)":"infinite","adjustForDecimalPrecision(uint160,uint8,uint8)":"infinite","escapeQuotes(string memory)":"infinite","feeToPercentString(uint24)":"infinite","fixedPointToDecimalString(uint160,uint8,uint8)":"infinite","generateDecimalString(struct NFTDescriptor.DecimalStringParams memory)":"infinite","generateDescriptionPartOne(string memory,string memory,string memory)":"infinite","generateDescriptionPartTwo(string memory,string memory,string memory,string memory,string memory)":"infinite","generateName(struct NFTDescriptor.ConstructTokenURIParams memory,string memory)":"infinite","generateSVGImage(struct NFTDescriptor.ConstructTokenURIParams memory)":"infinite","getCircleCoord(uint256,uint256,uint256)":"101","overRange(int24,int24,int24)":"125","scale(uint256,uint256,uint256,uint256,uint256)":"infinite","sigfigsRounded(uint256,uint8)":"infinite","sliceTokenHex(uint256,uint256)":"21","tickToDecimalString(int24,int24,uint8,uint8,bool)":"infinite","tokenToColorHex(uint256,uint256)":"infinite"}},"methodIdentifiers":{"constructTokenURI(NFTDescriptor.ConstructTokenURIParams)":"c49917d7"}},"storageLayout":{"storage":[],"types":null},"userdoc":{"kind":"user","methods":{},"version":1}}}}