{"contracts/uniswap/UniswapV3Pool.sol":{"UniswapV3Pool":{"abi":[{"inputs":[],"stateMutability":"nonpayable","type":"constructor"},{"anonymous":false,"inputs":[{"indexed":true,"internalType":"address","name":"owner","type":"address"},{"indexed":true,"internalType":"int24","name":"tickLower","type":"int24"},{"indexed":true,"internalType":"int24","name":"tickUpper","type":"int24"},{"indexed":false,"internalType":"uint128","name":"amount","type":"uint128"},{"indexed":false,"internalType":"uint256","name":"amount0","type":"uint256"},{"indexed":false,"internalType":"uint256","name":"amount1","type":"uint256"}],"name":"Burn","type":"event"},{"anonymous":false,"inputs":[{"indexed":true,"internalType":"address","name":"owner","type":"address"},{"indexed":false,"internalType":"address","name":"recipient","type":"address"},{"indexed":true,"internalType":"int24","name":"tickLower","type":"int24"},{"indexed":true,"internalType":"int24","name":"tickUpper","type":"int24"},{"indexed":false,"internalType":"uint128","name":"amount0","type":"uint128"},{"indexed":false,"internalType":"uint128","name":"amount1","type":"uint128"}],"name":"Collect","type":"event"},{"anonymous":false,"inputs":[{"indexed":true,"internalType":"address","name":"sender","type":"address"},{"indexed":true,"internalType":"address","name":"recipient","type":"address"},{"indexed":false,"internalType":"uint128","name":"amount0","type":"uint128"},{"indexed":false,"internalType":"uint128","name":"amount1","type":"uint128"}],"name":"CollectProtocol","type":"event"},{"anonymous":false,"inputs":[{"indexed":true,"internalType":"address","name":"sender","type":"address"},{"indexed":true,"internalType":"address","name":"recipient","type":"address"},{"indexed":false,"internalType":"uint256","name":"amount0","type":"uint256"},{"indexed":false,"internalType":"uint256","name":"amount1","type":"uint256"},{"indexed":false,"internalType":"uint256","name":"paid0","type":"uint256"},{"indexed":false,"internalType":"uint256","name":"paid1","type":"uint256"}],"name":"Flash","type":"event"},{"anonymous":false,"inputs":[{"indexed":false,"internalType":"uint16","name":"observationCardinalityNextOld","type":"uint16"},{"indexed":false,"internalType":"uint16","name":"observationCardinalityNextNew","type":"uint16"}],"name":"IncreaseObservationCardinalityNext","type":"event"},{"anonymous":false,"inputs":[{"indexed":false,"internalType":"uint160","name":"sqrtPriceX96","type":"uint160"},{"indexed":false,"internalType":"int24","name":"tick","type":"int24"}],"name":"Initialize","type":"event"},{"anonymous":false,"inputs":[{"indexed":false,"internalType":"address","name":"sender","type":"address"},{"indexed":true,"internalType":"address","name":"owner","type":"address"},{"indexed":true,"internalType":"int24","name":"tickLower","type":"int24"},{"indexed":true,"internalType":"int24","name":"tickUpper","type":"int24"},{"indexed":false,"internalType":"uint128","name":"amount","type":"uint128"},{"indexed":false,"internalType":"uint256","name":"amount0","type":"uint256"},{"indexed":false,"internalType":"uint256","name":"amount1","type":"uint256"}],"name":"Mint","type":"event"},{"anonymous":false,"inputs":[{"indexed":false,"internalType":"uint8","name":"feeProtocol0Old","type":"uint8"},{"indexed":false,"internalType":"uint8","name":"feeProtocol1Old","type":"uint8"},{"indexed":false,"internalType":"uint8","name":"feeProtocol0New","type":"uint8"},{"indexed":false,"internalType":"uint8","name":"feeProtocol1New","type":"uint8"}],"name":"SetFeeProtocol","type":"event"},{"anonymous":false,"inputs":[{"indexed":true,"internalType":"address","name":"sender","type":"address"},{"indexed":true,"internalType":"address","name":"recipient","type":"address"},{"indexed":false,"internalType":"int256","name":"amount0","type":"int256"},{"indexed":false,"internalType":"int256","name":"amount1","type":"int256"},{"indexed":false,"internalType":"uint160","name":"sqrtPriceX96","type":"uint160"},{"indexed":false,"internalType":"uint128","name":"liquidity","type":"uint128"},{"indexed":false,"internalType":"int24","name":"tick","type":"int24"}],"name":"Swap","type":"event"},{"inputs":[{"internalType":"int24","name":"tickLower","type":"int24"},{"internalType":"int24","name":"tickUpper","type":"int24"},{"internalType":"uint128","name":"amount","type":"uint128"}],"name":"burn","outputs":[{"internalType":"uint256","name":"amount0","type":"uint256"},{"internalType":"uint256","name":"amount1","type":"uint256"}],"stateMutability":"nonpayable","type":"function"},{"inputs":[{"internalType":"address","name":"recipient","type":"address"},{"internalType":"int24","name":"tickLower","type":"int24"},{"internalType":"int24","name":"tickUpper","type":"int24"},{"internalType":"uint128","name":"amount0Requested","type":"uint128"},{"internalType":"uint128","name":"amount1Requested","type":"uint128"}],"name":"collect","outputs":[{"internalType":"uint128","name":"amount0","type":"uint128"},{"internalType":"uint128","name":"amount1","type":"uint128"}],"stateMutability":"nonpayable","type":"function"},{"inputs":[{"internalType":"address","name":"recipient","type":"address"},{"internalType":"uint128","name":"amount0Requested","type":"uint128"},{"internalType":"uint128","name":"amount1Requested","type":"uint128"}],"name":"collectProtocol","outputs":[{"internalType":"uint128","name":"amount0","type":"uint128"},{"internalType":"uint128","name":"amount1","type":"uint128"}],"stateMutability":"nonpayable","type":"function"},{"inputs":[],"name":"factory","outputs":[{"internalType":"address","name":"","type":"address"}],"stateMutability":"view","type":"function"},{"inputs":[],"name":"fee","outputs":[{"internalType":"uint24","name":"","type":"uint24"}],"stateMutability":"view","type":"function"},{"inputs":[],"name":"feeGrowthGlobal0X128","outputs":[{"internalType":"uint256","name":"","type":"uint256"}],"stateMutability":"view","type":"function"},{"inputs":[],"name":"feeGrowthGlobal1X128","outputs":[{"internalType":"uint256","name":"","type":"uint256"}],"stateMutability":"view","type":"function"},{"inputs":[{"internalType":"address","name":"recipient","type":"address"},{"internalType":"uint256","name":"amount0","type":"uint256"},{"internalType":"uint256","name":"amount1","type":"uint256"},{"internalType":"bytes","name":"data","type":"bytes"}],"name":"flash","outputs":[],"stateMutability":"nonpayable","type":"function"},{"inputs":[{"internalType":"uint16","name":"observationCardinalityNext","type":"uint16"}],"name":"increaseObservationCardinalityNext","outputs":[],"stateMutability":"nonpayable","type":"function"},{"inputs":[{"internalType":"uint160","name":"sqrtPriceX96","type":"uint160"}],"name":"initialize","outputs":[],"stateMutability":"nonpayable","type":"function"},{"inputs":[],"name":"liquidity","outputs":[{"internalType":"uint128","name":"","type":"uint128"}],"stateMutability":"view","type":"function"},{"inputs":[],"name":"maxLiquidityPerTick","outputs":[{"internalType":"uint128","name":"","type":"uint128"}],"stateMutability":"view","type":"function"},{"inputs":[{"internalType":"address","name":"recipient","type":"address"},{"internalType":"int24","name":"tickLower","type":"int24"},{"internalType":"int24","name":"tickUpper","type":"int24"},{"internalType":"uint128","name":"amount","type":"uint128"},{"internalType":"bytes","name":"data","type":"bytes"}],"name":"mint","outputs":[{"internalType":"uint256","name":"amount0","type":"uint256"},{"internalType":"uint256","name":"amount1","type":"uint256"}],"stateMutability":"nonpayable","type":"function"},{"inputs":[{"internalType":"uint256","name":"","type":"uint256"}],"name":"observations","outputs":[{"internalType":"uint32","name":"blockTimestamp","type":"uint32"},{"internalType":"int56","name":"tickCumulative","type":"int56"},{"internalType":"uint160","name":"secondsPerLiquidityCumulativeX128","type":"uint160"},{"internalType":"bool","name":"initialized","type":"bool"}],"stateMutability":"view","type":"function"},{"inputs":[{"internalType":"uint32[]","name":"secondsAgos","type":"uint32[]"}],"name":"observe","outputs":[{"internalType":"int56[]","name":"tickCumulatives","type":"int56[]"},{"internalType":"uint160[]","name":"secondsPerLiquidityCumulativeX128s","type":"uint160[]"}],"stateMutability":"view","type":"function"},{"inputs":[{"internalType":"bytes32","name":"","type":"bytes32"}],"name":"positions","outputs":[{"internalType":"uint128","name":"liquidity","type":"uint128"},{"internalType":"uint256","name":"feeGrowthInside0LastX128","type":"uint256"},{"internalType":"uint256","name":"feeGrowthInside1LastX128","type":"uint256"},{"internalType":"uint128","name":"tokensOwed0","type":"uint128"},{"internalType":"uint128","name":"tokensOwed1","type":"uint128"}],"stateMutability":"view","type":"function"},{"inputs":[],"name":"protocolFees","outputs":[{"internalType":"uint128","name":"token0","type":"uint128"},{"internalType":"uint128","name":"token1","type":"uint128"}],"stateMutability":"view","type":"function"},{"inputs":[{"internalType":"uint8","name":"feeProtocol0","type":"uint8"},{"internalType":"uint8","name":"feeProtocol1","type":"uint8"}],"name":"setFeeProtocol","outputs":[],"stateMutability":"nonpayable","type":"function"},{"inputs":[],"name":"slot0","outputs":[{"internalType":"uint160","name":"sqrtPriceX96","type":"uint160"},{"internalType":"int24","name":"tick","type":"int24"},{"internalType":"uint16","name":"observationIndex","type":"uint16"},{"internalType":"uint16","name":"observationCardinality","type":"uint16"},{"internalType":"uint16","name":"observationCardinalityNext","type":"uint16"},{"internalType":"uint8","name":"feeProtocol","type":"uint8"},{"internalType":"bool","name":"unlocked","type":"bool"}],"stateMutability":"view","type":"function"},{"inputs":[{"internalType":"int24","name":"tickLower","type":"int24"},{"internalType":"int24","name":"tickUpper","type":"int24"}],"name":"snapshotCumulativesInside","outputs":[{"internalType":"int56","name":"tickCumulativeInside","type":"int56"},{"internalType":"uint160","name":"secondsPerLiquidityInsideX128","type":"uint160"},{"internalType":"uint32","name":"secondsInside","type":"uint32"}],"stateMutability":"view","type":"function"},{"inputs":[{"internalType":"address","name":"recipient","type":"address"},{"internalType":"bool","name":"zeroForOne","type":"bool"},{"internalType":"int256","name":"amountSpecified","type":"int256"},{"internalType":"uint160","name":"sqrtPriceLimitX96","type":"uint160"},{"internalType":"bytes","name":"data","type":"bytes"}],"name":"swap","outputs":[{"internalType":"int256","name":"amount0","type":"int256"},{"internalType":"int256","name":"amount1","type":"int256"}],"stateMutability":"nonpayable","type":"function"},{"inputs":[{"internalType":"int16","name":"","type":"int16"}],"name":"tickBitmap","outputs":[{"internalType":"uint256","name":"","type":"uint256"}],"stateMutability":"view","type":"function"},{"inputs":[],"name":"tickSpacing","outputs":[{"internalType":"int24","name":"","type":"int24"}],"stateMutability":"view","type":"function"},{"inputs":[{"internalType":"int24","name":"","type":"int24"}],"name":"ticks","outputs":[{"internalType":"uint128","name":"liquidityGross","type":"uint128"},{"internalType":"int128","name":"liquidityNet","type":"int128"},{"internalType":"uint256","name":"feeGrowthOutside0X128","type":"uint256"},{"internalType":"uint256","name":"feeGrowthOutside1X128","type":"uint256"},{"internalType":"int56","name":"tickCumulativeOutside","type":"int56"},{"internalType":"uint160","name":"secondsPerLiquidityOutsideX128","type":"uint160"},{"internalType":"uint32","name":"secondsOutside","type":"uint32"},{"internalType":"bool","name":"initialized","type":"bool"}],"stateMutability":"view","type":"function"},{"inputs":[],"name":"token0","outputs":[{"internalType":"address","name":"","type":"address"}],"stateMutability":"view","type":"function"},{"inputs":[],"name":"token1","outputs":[{"internalType":"address","name":"","type":"address"}],"stateMutability":"view","type":"function"}],"devdoc":{"kind":"dev","methods":{"burn(int24,int24,uint128)":{"details":"noDelegateCall is applied indirectly via _modifyPosition","params":{"amount":"How much liquidity to burn","tickLower":"The lower tick of the position for which to burn liquidity","tickUpper":"The upper tick of the position for which to burn liquidity"},"returns":{"amount0":"The amount of token0 sent to the recipient","amount1":"The amount of token1 sent to the recipient"}},"collect(address,int24,int24,uint128,uint128)":{"details":"Does not recompute fees earned, which must be done either via mint or burn of any amount of liquidity. Collect must be called by the position owner. To withdraw only token0 or only token1, amount0Requested or amount1Requested may be set to zero. To withdraw all tokens owed, caller may pass any value greater than the actual tokens owed, e.g. type(uint128).max. Tokens owed may be from accumulated swap fees or burned liquidity.","params":{"amount0Requested":"How much token0 should be withdrawn from the fees owed","amount1Requested":"How much token1 should be withdrawn from the fees owed","recipient":"The address which should receive the fees collected","tickLower":"The lower tick of the position for which to collect fees","tickUpper":"The upper tick of the position for which to collect fees"},"returns":{"amount0":"The amount of fees collected in token0","amount1":"The amount of fees collected in token1"}},"collectProtocol(address,uint128,uint128)":{"params":{"amount0Requested":"The maximum amount of token0 to send, can be 0 to collect fees in only token1","amount1Requested":"The maximum amount of token1 to send, can be 0 to collect fees in only token0","recipient":"The address to which collected protocol fees should be sent"},"returns":{"amount0":"The protocol fee collected in token0","amount1":"The protocol fee collected in token1"}},"flash(address,uint256,uint256,bytes)":{"details":"The caller of this method receives a callback in the form of IUniswapV3FlashCallback#uniswapV3FlashCallbackCan be used to donate underlying tokens pro-rata to currently in-range liquidity providers by calling with 0 amount{0,1} and sending the donation amount(s) from the callback","params":{"amount0":"The amount of token0 to send","amount1":"The amount of token1 to send","data":"Any data to be passed through to the callback","recipient":"The address which will receive the token0 and token1 amounts"}},"increaseObservationCardinalityNext(uint16)":{"details":"This method is no-op if the pool already has an observationCardinalityNext greater than or equal to the input observationCardinalityNext.","params":{"observationCardinalityNext":"The desired minimum number of observations for the pool to store"}},"initialize(uint160)":{"details":"not locked because it initializes unlocked","params":{"sqrtPriceX96":"the initial sqrt price of the pool as a Q64.96"}},"mint(address,int24,int24,uint128,bytes)":{"details":"noDelegateCall is applied indirectly via _modifyPosition","params":{"amount":"The amount of liquidity to mint","data":"Any data that should be passed through to the callback","recipient":"The address for which the liquidity will be created","tickLower":"The lower tick of the position in which to add liquidity","tickUpper":"The upper tick of the position in which to add liquidity"},"returns":{"amount0":"The amount of token0 that was paid to mint the given amount of liquidity. Matches the value in the callback","amount1":"The amount of token1 that was paid to mint the given amount of liquidity. Matches the value in the callback"}},"observe(uint32[])":{"details":"To get a time weighted average tick or liquidity-in-range, you must call this with two values, one representing the beginning of the period and another for the end of the period. E.g., to get the last hour time-weighted average tick, you must call it with secondsAgos = [3600, 0].The time weighted average tick represents the geometric time weighted average price of the pool, in log base sqrt(1.0001) of token1 / token0. The TickMath library can be used to go from a tick value to a ratio.","params":{"secondsAgos":"From how long ago each cumulative tick and liquidity value should be returned"},"returns":{"secondsPerLiquidityCumulativeX128s":"Cumulative seconds per liquidity-in-range value as of each `secondsAgos` from the current block timestamp","tickCumulatives":"Cumulative tick values as of each `secondsAgos` from the current block timestamp"}},"setFeeProtocol(uint8,uint8)":{"params":{"feeProtocol0":"new protocol fee for token0 of the pool","feeProtocol1":"new protocol fee for token1 of the pool"}},"snapshotCumulativesInside(int24,int24)":{"details":"Snapshots must only be compared to other snapshots, taken over a period for which a position existed. I.e., snapshots cannot be compared if a position is not held for the entire period between when the first snapshot is taken and the second snapshot is taken.","params":{"tickLower":"The lower tick of the range","tickUpper":"The upper tick of the range"},"returns":{"secondsInside":"The snapshot of seconds per liquidity for the range","secondsPerLiquidityInsideX128":"The snapshot of seconds per liquidity for the range","tickCumulativeInside":"The snapshot of the tick accumulator for the range"}},"swap(address,bool,int256,uint160,bytes)":{"details":"The caller of this method receives a callback in the form of IUniswapV3SwapCallback#uniswapV3SwapCallback","params":{"amountSpecified":"The amount of the swap, which implicitly configures the swap as exact input (positive), or exact output (negative)","data":"Any data to be passed through to the callback","recipient":"The address to receive the output of the swap","sqrtPriceLimitX96":"The Q64.96 sqrt price limit. If zero for one, the price cannot be less than this value after the swap. If one for zero, the price cannot be greater than this value after the swap","zeroForOne":"The direction of the swap, true for token0 to token1, false for token1 to token0"},"returns":{"amount0":"The delta of the balance of token0 of the pool, exact when negative, minimum when positive","amount1":"The delta of the balance of token1 of the pool, exact when negative, minimum when positive"}}},"stateVariables":{"factory":{"return":"The contract address"},"fee":{"return":"The fee"},"feeGrowthGlobal0X128":{"details":"This value can overflow the uint256"},"feeGrowthGlobal1X128":{"details":"This value can overflow the uint256"},"liquidity":{"details":"This value has no relationship to the total liquidity across all ticks"},"maxLiquidityPerTick":{"details":"This parameter is enforced per tick to prevent liquidity from overflowing a uint128 at any point, and also prevents out-of-range liquidity from being used to prevent adding in-range liquidity to a pool","return":"The max amount of liquidity per tick"},"observations":{"details":"You most likely want to use #observe() instead of this method to get an observation as of some amount of time ago, rather than at a specific index in the array.","params":{"index":"The element of the observations array to fetch"},"return":"blockTimestamp The timestamp of the observation, Returns tickCumulative the tick multiplied by seconds elapsed for the life of the pool as of the observation timestamp, Returns secondsPerLiquidityCumulativeX128 the seconds per in range liquidity for the life of the pool as of the observation timestamp, Returns initialized whether the observation has been initialized and the values are safe to use"},"positions":{"params":{"key":"The position's key is a hash of a preimage composed by the owner, tickLower and tickUpper"},"return":"_liquidity The amount of liquidity in the position, Returns feeGrowthInside0LastX128 fee growth of token0 inside the tick range as of the last mint/burn/poke, Returns feeGrowthInside1LastX128 fee growth of token1 inside the tick range as of the last mint/burn/poke, Returns tokensOwed0 the computed amount of token0 owed to the position as of the last mint/burn/poke, Returns tokensOwed1 the computed amount of token1 owed to the position as of the last mint/burn/poke"},"protocolFees":{"details":"Protocol fees will never exceed uint128 max in either token"},"slot0":{"return":"sqrtPriceX96 The current price of the pool as a sqrt(token1/token0) Q64.96 value tick The current tick of the pool, i.e. according to the last tick transition that was run. This value may not always be equal to SqrtTickMath.getTickAtSqrtRatio(sqrtPriceX96) if the price is on a tick boundary. observationIndex The index of the last oracle observation that was written, observationCardinality The current maximum number of observations stored in the pool, observationCardinalityNext The next maximum number of observations, to be updated when the observation. feeProtocol The protocol fee for both tokens of the pool. Encoded as two 4 bit values, where the protocol fee of token1 is shifted 4 bits and the protocol fee of token0 is the lower 4 bits. Used as the denominator of a fraction of the swap fee, e.g. 4 means 1/4th of the swap fee. unlocked Whether the pool is currently locked to reentrancy"},"tickSpacing":{"details":"Ticks can only be used at multiples of this value, minimum of 1 and always positive e.g.: a tickSpacing of 3 means ticks can be initialized every 3rd tick, i.e., ..., -6, -3, 0, 3, 6, ... This value is an int24 to avoid casting even though it is always positive.","return":"The tick spacing"},"ticks":{"params":{"tick":"The tick to look up"},"return":"liquidityGross the total amount of position liquidity that uses the pool either as tick lower or tick upper, liquidityNet how much liquidity changes when the pool price crosses the tick, feeGrowthOutside0X128 the fee growth on the other side of the tick from the current tick in token0, feeGrowthOutside1X128 the fee growth on the other side of the tick from the current tick in token1, tickCumulativeOutside the cumulative tick value on the other side of the tick from the current tick secondsPerLiquidityOutsideX128 the seconds spent per liquidity on the other side of the tick from the current tick, secondsOutside the seconds spent on the other side of the tick from the current tick, initialized Set to true if the tick is initialized, i.e. liquidityGross is greater than 0, otherwise equal to false. Outside values can only be used if the tick is initialized, i.e. if liquidityGross is greater than 0. In addition, these values are only relative and must be used only in comparison to previous snapshots for a specific position."},"token0":{"return":"The token contract address"},"token1":{"return":"The token contract address"}},"version":1},"evm":{"assembly":"    /* \"contracts/uniswap/UniswapV3Pool.sol\":932:35500  contract UniswapV3Pool is IUniswapV3Pool, NoDelegateCall {... */\n  mstore(0x40, 0x0160)\n    /* \"contracts/uniswap/UniswapV3Pool.sol\":4335:4608  constructor() {... */\n  callvalue\n  dup1\n  iszero\n  tag_1\n  jumpi\n  0x00\n  dup1\n  revert\ntag_1:\n  pop\n    /* \"contracts/uniswap/NoDelegateCall.sol\":591:595  this */\n  address\n    /* \"contracts/uniswap/NoDelegateCall.sol\":572:596  original = address(this) */\n  0x60\n  shl\n  0x80\n  mstore\n    /* \"contracts/uniswap/UniswapV3Pool.sol\":4434:4481  IUniswapV3PoolDeployer(msg.sender).parameters() */\n  0x40\n  dup1\n  mload\n  shl(0xe4, 0x08903573)\n  dup2\n  mstore\n  swap1\n  mload\n    /* \"contracts/uniswap/UniswapV3Pool.sol\":4359:4377  int24 _tickSpacing */\n  0x00\n  swap2\n    /* \"contracts/uniswap/UniswapV3Pool.sol\":4457:4467  msg.sender */\n  caller\n  swap2\n    /* \"contracts/uniswap/UniswapV3Pool.sol\":4434:4479  IUniswapV3PoolDeployer(msg.sender).parameters */\n  0x89035730\n  swap2\n    /* \"contracts/uniswap/UniswapV3Pool.sol\":4434:4481  IUniswapV3PoolDeployer(msg.sender).parameters() */\n  0x04\n  dup1\n  dup3\n  add\n  swap3\n  0xa0\n  swap3\n  swap1\n  swap2\n  swap1\n  dup3\n  swap1\n  sub\n  add\n  dup2\n    /* \"contracts/uniswap/UniswapV3Pool.sol\":4457:4467  msg.sender */\n  dup7\n    /* \"contracts/uniswap/UniswapV3Pool.sol\":4434:4481  IUniswapV3PoolDeployer(msg.sender).parameters() */\n  dup1\n  extcodesize\n  iszero\n  dup1\n  iszero\n  tag_6\n  jumpi\n  0x00\n  dup1\n  revert\ntag_6:\n  pop\n  gas\n  staticcall\n  iszero\n  dup1\n  iszero\n  tag_8\n  jumpi\n  returndatasize\n  0x00\n  dup1\n  returndatacopy\n  revert(0x00, returndatasize)\ntag_8:\n  pop\n  pop\n  pop\n  pop\n  mload(0x40)\n  returndatasize\n  0xa0\n  dup2\n  lt\n  iszero\n  tag_9\n  jumpi\n  0x00\n  dup1\n  revert\ntag_9:\n  pop\n  dup1\n  mload\n  0x20\n  dup1\n  dup4\n  add\n  mload\n  0x40\n  dup5\n  add\n  mload\n  0x60\n  dup1\n  dup7\n  add\n  mload\n  0x80\n  swap1\n  swap7\n  add\n  mload\n    /* \"contracts/uniswap/UniswapV3Pool.sol\":4387:4481  (factory, token0, token1, fee, _tickSpacing) = IUniswapV3PoolDeployer(msg.sender).parameters() */\n  0xe8\n  swap7\n  dup8\n  shl\n  not(sub(shl(0xe8, 0x01), 0x01))\n  and\n  0x0100\n  mstore\n  swap2\n  dup2\n  shl\n  not(sub(shl(0x60, 0x01), 0x01))\n  swap1\n  dup2\n  and\n  0xe0\n  mstore\n  swap3\n  dup2\n  shl\n  dup4\n  and\n  0xc0\n  mstore\n  swap4\n  swap1\n  swap4\n  shl\n  and\n    /* \"contracts/uniswap/UniswapV3Pool.sol\":4434:4481  IUniswapV3PoolDeployer(msg.sender).parameters() */\n  0xa0\n    /* \"contracts/uniswap/UniswapV3Pool.sol\":4387:4481  (factory, token0, token1, fee, _tickSpacing) = IUniswapV3PoolDeployer(msg.sender).parameters() */\n  mstore\n    /* \"contracts/uniswap/UniswapV3Pool.sol\":4491:4517  tickSpacing = _tickSpacing */\n  0x02\n  dup3\n  dup2\n  signextend\n  swap1\n  signextend\n  swap1\n  swap3\n  shl\n  0x0120\n  mstore\n    /* \"contracts/uniswap/UniswapV3Pool.sol\":4434:4481  IUniswapV3PoolDeployer(msg.sender).parameters() */\n  swap2\n  pop\n    /* \"contracts/uniswap/UniswapV3Pool.sol\":4550:4601  Tick.tickSpacingToMaxLiquidityPerTick(_tickSpacing) */\n  tag_10\n  swap1\n    /* \"contracts/uniswap/UniswapV3Pool.sol\":4434:4481  IUniswapV3PoolDeployer(msg.sender).parameters() */\n  dup3\n  swap1\n    /* \"contracts/uniswap/UniswapV3Pool.sol\":4550:4587  Tick.tickSpacingToMaxLiquidityPerTick */\n  tag_11\n  dup2\n  shl\n  tag_0_121\n  or\n    /* \"contracts/uniswap/UniswapV3Pool.sol\":4550:4601  Tick.tickSpacingToMaxLiquidityPerTick(_tickSpacing) */\n  swap1\n  shr\n  jump\t// in\ntag_10:\n    /* \"contracts/uniswap/UniswapV3Pool.sol\":4528:4601  maxLiquidityPerTick = Tick.tickSpacingToMaxLiquidityPerTick(_tickSpacing) */\n  0x80\n  shl\n  not(sub(shl(0x80, 0x01), 0x01))\n  and\n  0x0140\n  mstore\n  pop\n    /* \"contracts/uniswap/UniswapV3Pool.sol\":932:35500  contract UniswapV3Pool is IUniswapV3Pool, NoDelegateCall {... */\n  jump(tag_12)\n    /* \"contracts/uniswap/libraries/Tick.sol\":2202:2566  function tickSpacingToMaxLiquidityPerTick(int24 tickSpacing) internal pure returns (uint128) {... */\ntag_11:\n    /* \"contracts/uniswap/libraries/Tick.sol\":2286:2293  uint128 */\n  0x00\n  dup1\n    /* \"contracts/uniswap/libraries/Tick.sol\":2357:2368  tickSpacing */\n  dup3\n    /* \"contracts/uniswap/libraries/Tick.sol\":2322:2353  TickMath.MIN_TICK / tickSpacing */\n  0x02\n  dup2\n  swap1\n  signextend\n  not(0x0d89e7)\n  dup2\n  tag_14\n  jumpi\n  invalid\ntag_14:\n  sdiv\n    /* \"contracts/uniswap/libraries/Tick.sol\":2321:2368  (TickMath.MIN_TICK / tickSpacing) * tickSpacing */\n  mul\n  swap1\n  pop\n    /* \"contracts/uniswap/libraries/Tick.sol\":2378:2391  int24 maxTick */\n  0x00\n    /* \"contracts/uniswap/libraries/Tick.sol\":2430:2441  tickSpacing */\n  dup4\n    /* \"contracts/uniswap/libraries/Tick.sol\":2395:2426  TickMath.MAX_TICK / tickSpacing */\n  0x02\n  dup2\n  swap1\n  signextend\n    /* \"contracts/uniswap/libraries/TickMath.sol\":644:653  -MIN_TICK */\n  0x0d89e8\n    /* \"contracts/uniswap/libraries/Tick.sol\":2395:2426  TickMath.MAX_TICK / tickSpacing */\n  dup2\n  tag_15\n  jumpi\n  invalid\ntag_15:\n  sdiv\n    /* \"contracts/uniswap/libraries/Tick.sol\":2394:2441  (TickMath.MAX_TICK / tickSpacing) * tickSpacing */\n  mul\n    /* \"contracts/uniswap/libraries/Tick.sol\":2378:2441  int24 maxTick = (TickMath.MAX_TICK / tickSpacing) * tickSpacing */\n  swap1\n  pop\n    /* \"contracts/uniswap/libraries/Tick.sol\":2451:2466  uint24 numTicks */\n  0x00\n    /* \"contracts/uniswap/libraries/Tick.sol\":2498:2509  tickSpacing */\n  dup5\n    /* \"contracts/uniswap/libraries/Tick.sol\":2476:2509  (maxTick - minTick) / tickSpacing */\n  0x02\n  signextend\n    /* \"contracts/uniswap/libraries/Tick.sol\":2487:2494  minTick */\n  dup4\n    /* \"contracts/uniswap/libraries/Tick.sol\":2477:2484  maxTick */\n  dup4\n    /* \"contracts/uniswap/libraries/Tick.sol\":2477:2494  maxTick - minTick */\n  sub\n    /* \"contracts/uniswap/libraries/Tick.sol\":2476:2509  (maxTick - minTick) / tickSpacing */\n  0x02\n  signextend\n  dup2\n  tag_16\n  jumpi\n  invalid\ntag_16:\n  sdiv\n    /* \"contracts/uniswap/libraries/Tick.sol\":2513:2514  1 */\n  0x01\n    /* \"contracts/uniswap/libraries/Tick.sol\":2469:2514  uint24((maxTick - minTick) / tickSpacing) + 1 */\n  add\n    /* \"contracts/uniswap/libraries/Tick.sol\":2451:2514  uint24 numTicks = uint24((maxTick - minTick) / tickSpacing) + 1 */\n  swap1\n  pop\n    /* \"contracts/uniswap/libraries/Tick.sol\":2551:2559  numTicks */\n  dup1\n    /* \"contracts/uniswap/libraries/Tick.sol\":2531:2559  type(uint128).max / numTicks */\n  0xffffff\n  and\n  sub(shl(0x80, 0x01), 0x01)\n  dup1\n  and\n  dup2\n  tag_17\n  jumpi\n  invalid\ntag_17:\n  div\n  swap6\n    /* \"contracts/uniswap/libraries/Tick.sol\":2202:2566  function tickSpacingToMaxLiquidityPerTick(int24 tickSpacing) internal pure returns (uint128) {... */\n  swap5\n  pop\n  pop\n  pop\n  pop\n  pop\n  jump\t// out\n    /* \"contracts/uniswap/UniswapV3Pool.sol\":932:35500  contract UniswapV3Pool is IUniswapV3Pool, NoDelegateCall {... */\ntag_12:\n  shr(0x60, mload(0x80))\n  shr(0x60, mload(0xa0))\n  shr(0x60, mload(0xc0))\n  shr(0x60, mload(0xe0))\n  shr(0xe8, mload(0x0100))\n  shr(0xe8, mload(0x0120))\n  shr(0x80, mload(0x0140))\n  codecopy(0x00, dataOffset(sub_0), dataSize(sub_0))\n  assignImmutable(\"0x631897788617bc63fb0292c44f57a6c3824e4264bc88fb4e3c08b910f3f417fc\")\n  assignImmutable(\"0xb9aa4ff60d3edb7fbc3b53bd780c9274ed80a5ba1a237d38b011edab2b031b4a\")\n  assignImmutable(\"0x7d4579ab3c781860520f730aa471b37a7366c1c6efb6e34470da23130f5149f7\")\n  assignImmutable(\"0x712adca22095011a9de0b4aa84648bf2bea2744bd9326ede31e43d2a71662846\")\n  assignImmutable(\"0xb811eb8190fe00dc85563459f7e9e4ba4c2ef31ddac91e9e2d37d1e7e1b1d5bc\")\n  assignImmutable(\"0x7c8c0582d21a968b9aa25d45e0e719f1fe93aa4458f5d5939d507b861e308328\")\n  assignImmutable(\"0xceebf77a833b30520287ddd9478ff51abbdffa30aa90a8d655dba0e8a79ce0c1\")\n  return(0x00, dataSize(sub_0))\nstop\n\nsub_0: assembly {\n        /* \"contracts/uniswap/UniswapV3Pool.sol\":932:35500  contract UniswapV3Pool is IUniswapV3Pool, NoDelegateCall {... */\n      mstore(0x40, 0x80)\n      callvalue\n      dup1\n      iszero\n      tag_1\n      jumpi\n      0x00\n      dup1\n      revert\n    tag_1:\n      pop\n      jumpi(tag_2, lt(calldatasize, 0x04))\n      shr(0xe0, calldataload(0x00))\n      dup1\n      0x70cf754a\n      gt\n      tag_29\n      jumpi\n      dup1\n      0xc45a0155\n      gt\n      tag_30\n      jumpi\n      dup1\n      0xddca3f43\n      gt\n      tag_31\n      jumpi\n      dup1\n      0xddca3f43\n      eq\n      tag_25\n      jumpi\n      dup1\n      0xf3058399\n      eq\n      tag_26\n      jumpi\n      dup1\n      0xf30dba93\n      eq\n      tag_27\n      jumpi\n      dup1\n      0xf637731d\n      eq\n      tag_28\n      jumpi\n      jump(tag_2)\n    tag_31:\n      dup1\n      0xc45a0155\n      eq\n      tag_22\n      jumpi\n      dup1\n      0xd0c93a7c\n      eq\n      tag_23\n      jumpi\n      dup1\n      0xd21220a7\n      eq\n      tag_24\n      jumpi\n      jump(tag_2)\n    tag_30:\n      dup1\n      0x883bdbfd\n      gt\n      tag_32\n      jumpi\n      dup1\n      0x883bdbfd\n      eq\n      tag_19\n      jumpi\n      dup1\n      0xa34123a7\n      eq\n      tag_20\n      jumpi\n      dup1\n      0xa38807f2\n      eq\n      tag_21\n      jumpi\n      jump(tag_2)\n    tag_32:\n      dup1\n      0x70cf754a\n      eq\n      tag_16\n      jumpi\n      dup1\n      0x8206a4d1\n      eq\n      tag_17\n      jumpi\n      dup1\n      0x85b66729\n      eq\n      tag_18\n      jumpi\n      jump(tag_2)\n    tag_29:\n      dup1\n      0x3850c7bd\n      gt\n      tag_33\n      jumpi\n      dup1\n      0x490e6cbc\n      gt\n      tag_34\n      jumpi\n      dup1\n      0x490e6cbc\n      eq\n      tag_12\n      jumpi\n      dup1\n      0x4f1eb3d8\n      eq\n      tag_13\n      jumpi\n      dup1\n      0x514ea4bf\n      eq\n      tag_14\n      jumpi\n      dup1\n      0x5339c296\n      eq\n      tag_15\n      jumpi\n      jump(tag_2)\n    tag_34:\n      dup1\n      0x3850c7bd\n      eq\n      tag_9\n      jumpi\n      dup1\n      0x3c8a7d8d\n      eq\n      tag_10\n      jumpi\n      dup1\n      0x46141319\n      eq\n      tag_11\n      jumpi\n      jump(tag_2)\n    tag_33:\n      dup1\n      0x1ad8b03b\n      gt\n      tag_35\n      jumpi\n      dup1\n      0x1ad8b03b\n      eq\n      tag_6\n      jumpi\n      dup1\n      0x252c09d7\n      eq\n      tag_7\n      jumpi\n      dup1\n      0x32148f67\n      eq\n      tag_8\n      jumpi\n      jump(tag_2)\n    tag_35:\n      dup1\n      0x0dfe1681\n      eq\n      tag_3\n      jumpi\n      dup1\n      0x128acb08\n      eq\n      tag_4\n      jumpi\n      dup1\n      0x1a686502\n      eq\n      tag_5\n      jumpi\n    tag_2:\n      0x00\n      dup1\n      revert\n        /* \"contracts/uniswap/UniswapV3Pool.sol\":1515:1555  address public immutable override token0 */\n    tag_3:\n      tag_36\n      tag_37\n      jump\t// in\n    tag_36:\n      0x40\n      dup1\n      mload\n      sub(shl(0xa0, 0x01), 0x01)\n      swap1\n      swap3\n      and\n      dup3\n      mstore\n      mload\n      swap1\n      dup2\n      swap1\n      sub\n      0x20\n      add\n      swap1\n      return\n        /* \"contracts/uniswap/UniswapV3Pool.sol\":22899:31901  function swap(... */\n    tag_4:\n      tag_38\n      0x04\n      dup1\n      calldatasize\n      sub\n      0xa0\n      dup2\n      lt\n      iszero\n      tag_39\n      jumpi\n      0x00\n      dup1\n      revert\n    tag_39:\n      sub(shl(0xa0, 0x01), 0x01)\n      dup3\n      calldataload\n      dup2\n      and\n      swap3\n      0x20\n      dup2\n      add\n      calldataload\n      iszero\n      iszero\n      swap3\n      0x40\n      dup3\n      add\n      calldataload\n      swap3\n      0x60\n      dup4\n      add\n      calldataload\n      and\n      swap2\n      swap1\n      dup2\n      add\n      swap1\n      0xa0\n      dup2\n      add\n      0x80\n      dup3\n      add\n      calldataload\n      0x0100000000\n      dup2\n      gt\n      iszero\n      tag_40\n      jumpi\n      0x00\n      dup1\n      revert\n    tag_40:\n      dup3\n      add\n      dup4\n      0x20\n      dup3\n      add\n      gt\n      iszero\n      tag_41\n      jumpi\n      0x00\n      dup1\n      revert\n    tag_41:\n      dup1\n      calldataload\n      swap1\n      0x20\n      add\n      swap2\n      dup5\n      0x01\n      dup4\n      mul\n      dup5\n      add\n      gt\n      0x0100000000\n      dup4\n      gt\n      or\n      iszero\n      tag_42\n      jumpi\n      0x00\n      dup1\n      revert\n    tag_42:\n      pop\n      swap1\n      swap3\n      pop\n      swap1\n      pop\n      tag_43\n      jump\t// in\n    tag_38:\n      0x40\n      dup1\n      mload\n      swap3\n      dup4\n      mstore\n      0x20\n      dup4\n      add\n      swap2\n      swap1\n      swap2\n      mstore\n      dup1\n      mload\n      swap2\n      dup3\n      swap1\n      sub\n      add\n      swap1\n      return\n        /* \"contracts/uniswap/UniswapV3Pool.sol\":3176:3209  uint128 public override liquidity */\n    tag_5:\n      tag_44\n      tag_45\n      jump\t// in\n    tag_44:\n      0x40\n      dup1\n      mload\n      0xffffffffffffffffffffffffffffffff\n      swap1\n      swap3\n      and\n      dup3\n      mstore\n      mload\n      swap1\n      dup2\n      swap1\n      sub\n      0x20\n      add\n      swap1\n      return\n        /* \"contracts/uniswap/UniswapV3Pool.sol\":3088:3129  ProtocolFees public override protocolFees */\n    tag_6:\n      tag_46\n      tag_47\n      jump\t// in\n    tag_46:\n      mload(0x40)\n      dup1\n      dup4\n      0xffffffffffffffffffffffffffffffff\n      and\n      dup2\n      mstore\n      0x20\n      add\n      dup3\n      0xffffffffffffffffffffffffffffffff\n      and\n      dup2\n      mstore\n      0x20\n      add\n      swap3\n      pop\n      pop\n      pop\n      mload(0x40)\n      dup1\n      swap2\n      sub\n      swap1\n      return\n        /* \"contracts/uniswap/UniswapV3Pool.sol\":3554:3608  Oracle.Observation[65535] public override observations */\n    tag_7:\n      tag_48\n      0x04\n      dup1\n      calldatasize\n      sub\n      0x20\n      dup2\n      lt\n      iszero\n      tag_49\n      jumpi\n      0x00\n      dup1\n      revert\n    tag_49:\n      pop\n      calldataload\n      tag_50\n      jump\t// in\n    tag_48:\n      0x40\n      dup1\n      mload\n      0xffffffff\n      swap1\n      swap6\n      and\n      dup6\n      mstore\n      0x06\n      swap4\n      swap1\n      swap4\n      signextend\n      0x20\n      dup6\n      add\n      mstore\n      sub(shl(0xa0, 0x01), 0x01)\n      swap1\n      swap2\n      and\n      dup4\n      dup4\n      add\n      mstore\n      iszero\n      iszero\n      0x60\n      dup4\n      add\n      mstore\n      mload\n      swap1\n      dup2\n      swap1\n      sub\n      0x80\n      add\n      swap1\n      return\n        /* \"contracts/uniswap/UniswapV3Pool.sol\":9623:10283  function increaseObservationCardinalityNext(uint16 observationCardinalityNext)... */\n    tag_8:\n      tag_51\n      0x04\n      dup1\n      calldatasize\n      sub\n      0x20\n      dup2\n      lt\n      iszero\n      tag_52\n      jumpi\n      0x00\n      dup1\n      revert\n    tag_52:\n      pop\n      calldataload\n      0xffff\n      and\n      tag_53\n      jump\t// in\n    tag_51:\n      stop\n        /* \"contracts/uniswap/UniswapV3Pool.sol\":2697:2724  Slot0 public override slot0 */\n    tag_9:\n      tag_54\n      tag_55\n      jump\t// in\n    tag_54:\n      0x40\n      dup1\n      mload\n      sub(shl(0xa0, 0x01), 0x01)\n      swap1\n      swap9\n      and\n      dup9\n      mstore\n      0x02\n      swap7\n      swap1\n      swap7\n      signextend\n      0x20\n      dup9\n      add\n      mstore\n      0xffff\n      swap5\n      dup6\n      and\n      dup8\n      dup8\n      add\n      mstore\n      swap3\n      dup5\n      and\n      0x60\n      dup8\n      add\n      mstore\n      swap3\n      and\n      0x80\n      dup6\n      add\n      mstore\n      0xff\n      swap1\n      swap2\n      and\n      0xa0\n      dup5\n      add\n      mstore\n      iszero\n      iszero\n      0xc0\n      dup4\n      add\n      mstore\n      mload\n      swap1\n      dup2\n      swap1\n      sub\n      0xe0\n      add\n      swap1\n      return\n        /* \"contracts/uniswap/UniswapV3Pool.sol\":17529:18717  function mint(... */\n    tag_10:\n      tag_38\n      0x04\n      dup1\n      calldatasize\n      sub\n      0xa0\n      dup2\n      lt\n      iszero\n      tag_57\n      jumpi\n      0x00\n      dup1\n      revert\n    tag_57:\n      sub(shl(0xa0, 0x01), 0x01)\n      dup3\n      calldataload\n      and\n      swap2\n      0x20\n      dup2\n      add\n      calldataload\n      0x02\n      swap1\n      dup2\n      signextend\n      swap3\n      0x40\n      dup4\n      add\n      calldataload\n      swap1\n      swap2\n      signextend\n      swap2\n      0xffffffffffffffffffffffffffffffff\n      0x60\n      dup3\n      add\n      calldataload\n      and\n      swap2\n      dup2\n      add\n      swap1\n      0xa0\n      dup2\n      add\n      0x80\n      dup3\n      add\n      calldataload\n      0x0100000000\n      dup2\n      gt\n      iszero\n      tag_58\n      jumpi\n      0x00\n      dup1\n      revert\n    tag_58:\n      dup3\n      add\n      dup4\n      0x20\n      dup3\n      add\n      gt\n      iszero\n      tag_59\n      jumpi\n      0x00\n      dup1\n      revert\n    tag_59:\n      dup1\n      calldataload\n      swap1\n      0x20\n      add\n      swap2\n      dup5\n      0x01\n      dup4\n      mul\n      dup5\n      add\n      gt\n      0x0100000000\n      dup4\n      gt\n      or\n      iszero\n      tag_60\n      jumpi\n      0x00\n      dup1\n      revert\n    tag_60:\n      pop\n      swap1\n      swap3\n      pop\n      swap1\n      pop\n      tag_61\n      jump\t// in\n        /* \"contracts/uniswap/UniswapV3Pool.sol\":2861:2905  uint256 public override feeGrowthGlobal1X128 */\n    tag_11:\n      tag_62\n      tag_63\n      jump\t// in\n    tag_62:\n      0x40\n      dup1\n      mload\n      swap2\n      dup3\n      mstore\n      mload\n      swap1\n      dup2\n      swap1\n      sub\n      0x20\n      add\n      swap1\n      return\n        /* \"contracts/uniswap/UniswapV3Pool.sol\":31949:33862  function flash(... */\n    tag_12:\n      tag_51\n      0x04\n      dup1\n      calldatasize\n      sub\n      0x80\n      dup2\n      lt\n      iszero\n      tag_65\n      jumpi\n      0x00\n      dup1\n      revert\n    tag_65:\n      sub(shl(0xa0, 0x01), 0x01)\n      dup3\n      calldataload\n      and\n      swap2\n      0x20\n      dup2\n      add\n      calldataload\n      swap2\n      0x40\n      dup3\n      add\n      calldataload\n      swap2\n      swap1\n      dup2\n      add\n      swap1\n      0x80\n      dup2\n      add\n      0x60\n      dup3\n      add\n      calldataload\n      0x0100000000\n      dup2\n      gt\n      iszero\n      tag_66\n      jumpi\n      0x00\n      dup1\n      revert\n    tag_66:\n      dup3\n      add\n      dup4\n      0x20\n      dup3\n      add\n      gt\n      iszero\n      tag_67\n      jumpi\n      0x00\n      dup1\n      revert\n    tag_67:\n      dup1\n      calldataload\n      swap1\n      0x20\n      add\n      swap2\n      dup5\n      0x01\n      dup4\n      mul\n      dup5\n      add\n      gt\n      0x0100000000\n      dup4\n      gt\n      or\n      iszero\n      tag_68\n      jumpi\n      0x00\n      dup1\n      revert\n    tag_68:\n      pop\n      swap1\n      swap3\n      pop\n      swap1\n      pop\n      tag_69\n      jump\t// in\n        /* \"contracts/uniswap/UniswapV3Pool.sol\":18765:19800  function collect(... */\n    tag_13:\n      tag_46\n      0x04\n      dup1\n      calldatasize\n      sub\n      0xa0\n      dup2\n      lt\n      iszero\n      tag_71\n      jumpi\n      0x00\n      dup1\n      revert\n    tag_71:\n      pop\n      sub(shl(0xa0, 0x01), 0x01)\n      dup2\n      calldataload\n      and\n      swap1\n      0x20\n      dup2\n      add\n      calldataload\n      0x02\n      swap1\n      dup2\n      signextend\n      swap2\n      0x40\n      dup2\n      add\n      calldataload\n      swap1\n      swap2\n      signextend\n      swap1\n      0xffffffffffffffffffffffffffffffff\n      0x60\n      dup3\n      add\n      calldataload\n      dup2\n      and\n      swap2\n      0x80\n      add\n      calldataload\n      and\n      tag_72\n      jump\t// in\n        /* \"contracts/uniswap/UniswapV3Pool.sol\":3449:3508  mapping(bytes32 => Position.Info) public override positions */\n    tag_14:\n      tag_73\n      0x04\n      dup1\n      calldatasize\n      sub\n      0x20\n      dup2\n      lt\n      iszero\n      tag_74\n      jumpi\n      0x00\n      dup1\n      revert\n    tag_74:\n      pop\n      calldataload\n      tag_75\n      jump\t// in\n    tag_73:\n      0x40\n      dup1\n      mload\n      0xffffffffffffffffffffffffffffffff\n      swap7\n      dup8\n      and\n      dup2\n      mstore\n      0x20\n      dup2\n      add\n      swap6\n      swap1\n      swap6\n      mstore\n      dup5\n      dup2\n      add\n      swap4\n      swap1\n      swap4\n      mstore\n      swap1\n      dup5\n      and\n      0x60\n      dup5\n      add\n      mstore\n      swap1\n      swap3\n      and\n      0x80\n      dup3\n      add\n      mstore\n      swap1\n      mload\n      swap1\n      dup2\n      swap1\n      sub\n      0xa0\n      add\n      swap1\n      return\n        /* \"contracts/uniswap/UniswapV3Pool.sol\":3351:3403  mapping(int16 => uint256) public override tickBitmap */\n    tag_15:\n      tag_62\n      0x04\n      dup1\n      calldatasize\n      sub\n      0x20\n      dup2\n      lt\n      iszero\n      tag_77\n      jumpi\n      0x00\n      dup1\n      revert\n    tag_77:\n      pop\n      calldataload\n      0x01\n      signextend\n      tag_78\n      jump\t// in\n        /* \"contracts/uniswap/UniswapV3Pool.sol\":1880:1933  uint128 public immutable override maxLiquidityPerTick */\n    tag_16:\n      tag_44\n      tag_80\n      jump\t// in\n        /* \"contracts/uniswap/UniswapV3Pool.sol\":33915:34428  function setFeeProtocol(uint8 feeProtocol0, uint8 feeProtocol1) external override lock onlyFactoryOwner {... */\n    tag_17:\n      tag_51\n      0x04\n      dup1\n      calldatasize\n      sub\n      0x40\n      dup2\n      lt\n      iszero\n      tag_82\n      jumpi\n      0x00\n      dup1\n      revert\n    tag_82:\n      pop\n      0xff\n      dup2\n      calldataload\n      dup2\n      and\n      swap2\n      0x20\n      add\n      calldataload\n      and\n      tag_83\n      jump\t// in\n        /* \"contracts/uniswap/UniswapV3Pool.sol\":34481:35498  function collectProtocol(... */\n    tag_18:\n      tag_46\n      0x04\n      dup1\n      calldatasize\n      sub\n      0x60\n      dup2\n      lt\n      iszero\n      tag_85\n      jumpi\n      0x00\n      dup1\n      revert\n    tag_85:\n      pop\n      sub(shl(0xa0, 0x01), 0x01)\n      dup2\n      calldataload\n      and\n      swap1\n      0xffffffffffffffffffffffffffffffff\n      0x20\n      dup3\n      add\n      calldataload\n      dup2\n      and\n      swap2\n      0x40\n      add\n      calldataload\n      and\n      tag_86\n      jump\t// in\n        /* \"contracts/uniswap/UniswapV3Pool.sol\":9076:9575  function observe(uint32[] calldata secondsAgos)... */\n    tag_19:\n      tag_87\n      0x04\n      dup1\n      calldatasize\n      sub\n      0x20\n      dup2\n      lt\n      iszero\n      tag_88\n      jumpi\n      0x00\n      dup1\n      revert\n    tag_88:\n      dup2\n      add\n      swap1\n      0x20\n      dup2\n      add\n      dup2\n      calldataload\n      0x0100000000\n      dup2\n      gt\n      iszero\n      tag_89\n      jumpi\n      0x00\n      dup1\n      revert\n    tag_89:\n      dup3\n      add\n      dup4\n      0x20\n      dup3\n      add\n      gt\n      iszero\n      tag_90\n      jumpi\n      0x00\n      dup1\n      revert\n    tag_90:\n      dup1\n      calldataload\n      swap1\n      0x20\n      add\n      swap2\n      dup5\n      0x20\n      dup4\n      mul\n      dup5\n      add\n      gt\n      0x0100000000\n      dup4\n      gt\n      or\n      iszero\n      tag_91\n      jumpi\n      0x00\n      dup1\n      revert\n    tag_91:\n      pop\n      swap1\n      swap3\n      pop\n      swap1\n      pop\n      tag_92\n      jump\t// in\n    tag_87:\n      mload(0x40)\n      dup1\n      dup1\n      0x20\n      add\n      dup1\n      0x20\n      add\n      dup4\n      dup2\n      sub\n      dup4\n      mstore\n      dup6\n      dup2\n      dup2\n      mload\n      dup2\n      mstore\n      0x20\n      add\n      swap2\n      pop\n      dup1\n      mload\n      swap1\n      0x20\n      add\n      swap1\n      0x20\n      mul\n      dup1\n      dup4\n      dup4\n      0x00\n    tag_93:\n      dup4\n      dup2\n      lt\n      iszero\n      tag_95\n      jumpi\n      dup2\n      dup2\n      add\n      mload\n      dup4\n      dup3\n      add\n      mstore\n      0x20\n      add\n      jump(tag_93)\n    tag_95:\n      pop\n      pop\n      pop\n      pop\n      swap1\n      pop\n      add\n      dup4\n      dup2\n      sub\n      dup3\n      mstore\n      dup5\n      dup2\n      dup2\n      mload\n      dup2\n      mstore\n      0x20\n      add\n      swap2\n      pop\n      dup1\n      mload\n      swap1\n      0x20\n      add\n      swap1\n      0x20\n      mul\n      dup1\n      dup4\n      dup4\n      0x00\n    tag_96:\n      dup4\n      dup2\n      lt\n      iszero\n      tag_98\n      jumpi\n      dup2\n      dup2\n      add\n      mload\n      dup4\n      dup3\n      add\n      mstore\n      0x20\n      add\n      jump(tag_96)\n    tag_98:\n      pop\n      pop\n      pop\n      pop\n      swap1\n      pop\n      add\n      swap5\n      pop\n      pop\n      pop\n      pop\n      pop\n      mload(0x40)\n      dup1\n      swap2\n      sub\n      swap1\n      return\n        /* \"contracts/uniswap/UniswapV3Pool.sol\":19918:20857  function burn(... */\n    tag_20:\n      tag_38\n      0x04\n      dup1\n      calldatasize\n      sub\n      0x60\n      dup2\n      lt\n      iszero\n      tag_100\n      jumpi\n      0x00\n      dup1\n      revert\n    tag_100:\n      pop\n      dup1\n      calldataload\n      0x02\n      swap1\n      dup2\n      signextend\n      swap2\n      0x20\n      dup2\n      add\n      calldataload\n      swap1\n      swap2\n      signextend\n      swap1\n      0x40\n      add\n      calldataload\n      0xffffffffffffffffffffffffffffffff\n      and\n      tag_101\n      jump\t// in\n        /* \"contracts/uniswap/UniswapV3Pool.sol\":6169:9023  function snapshotCumulativesInside(int24 tickLower, int24 tickUpper)... */\n    tag_21:\n      tag_102\n      0x04\n      dup1\n      calldatasize\n      sub\n      0x40\n      dup2\n      lt\n      iszero\n      tag_103\n      jumpi\n      0x00\n      dup1\n      revert\n    tag_103:\n      pop\n      dup1\n      calldataload\n      0x02\n      swap1\n      dup2\n      signextend\n      swap2\n      0x20\n      add\n      calldataload\n      swap1\n      signextend\n      tag_104\n      jump\t// in\n    tag_102:\n      0x40\n      dup1\n      mload\n      0x06\n      swap5\n      swap1\n      swap5\n      signextend\n      dup5\n      mstore\n      sub(shl(0xa0, 0x01), 0x01)\n      swap1\n      swap3\n      and\n      0x20\n      dup5\n      add\n      mstore\n      0xffffffff\n      and\n      dup3\n      dup3\n      add\n      mstore\n      mload\n      swap1\n      dup2\n      swap1\n      sub\n      0x60\n      add\n      swap1\n      return\n        /* \"contracts/uniswap/UniswapV3Pool.sol\":1423:1464  address public immutable override factory */\n    tag_22:\n      tag_36\n      tag_106\n      jump\t// in\n        /* \"contracts/uniswap/UniswapV3Pool.sol\":1785:1828  int24 public immutable override tickSpacing */\n    tag_23:\n      tag_107\n      tag_108\n      jump\t// in\n    tag_107:\n      0x40\n      dup1\n      mload\n      0x02\n      swap3\n      swap1\n      swap3\n      signextend\n      dup3\n      mstore\n      mload\n      swap1\n      dup2\n      swap1\n      sub\n      0x20\n      add\n      swap1\n      return\n        /* \"contracts/uniswap/UniswapV3Pool.sol\":1606:1646  address public immutable override token1 */\n    tag_24:\n      tag_36\n      tag_110\n      jump\t// in\n        /* \"contracts/uniswap/UniswapV3Pool.sol\":1697:1733  uint24 public immutable override fee */\n    tag_25:\n      tag_111\n      tag_112\n      jump\t// in\n    tag_111:\n      0x40\n      dup1\n      mload\n      0xffffff\n      swap1\n      swap3\n      and\n      dup3\n      mstore\n      mload\n      swap1\n      dup2\n      swap1\n      sub\n      0x20\n      add\n      swap1\n      return\n        /* \"contracts/uniswap/UniswapV3Pool.sol\":2771:2815  uint256 public override feeGrowthGlobal0X128 */\n    tag_26:\n      tag_62\n      tag_114\n      jump\t// in\n        /* \"contracts/uniswap/UniswapV3Pool.sol\":3256:3305  mapping(int24 => Tick.Info) public override ticks */\n    tag_27:\n      tag_115\n      0x04\n      dup1\n      calldatasize\n      sub\n      0x20\n      dup2\n      lt\n      iszero\n      tag_116\n      jumpi\n      0x00\n      dup1\n      revert\n    tag_116:\n      pop\n      calldataload\n      0x02\n      signextend\n      tag_117\n      jump\t// in\n    tag_115:\n      0x40\n      dup1\n      mload\n      0xffffffffffffffffffffffffffffffff\n      swap1\n      swap10\n      and\n      dup10\n      mstore\n      0x0f\n      swap8\n      swap1\n      swap8\n      signextend\n      0x20\n      dup10\n      add\n      mstore\n      dup8\n      dup8\n      add\n      swap6\n      swap1\n      swap6\n      mstore\n      0x60\n      dup8\n      add\n      swap4\n      swap1\n      swap4\n      mstore\n      0x06\n      swap2\n      swap1\n      swap2\n      signextend\n      0x80\n      dup7\n      add\n      mstore\n      sub(shl(0xa0, 0x01), 0x01)\n      and\n      0xa0\n      dup6\n      add\n      mstore\n      0xffffffff\n      and\n      0xc0\n      dup5\n      add\n      mstore\n      iszero\n      iszero\n      0xe0\n      dup4\n      add\n      mstore\n      mload\n      swap1\n      dup2\n      swap1\n      sub\n      0x0100\n      add\n      swap1\n      return\n        /* \"contracts/uniswap/UniswapV3Pool.sol\":10387:11008  function initialize(uint160 sqrtPriceX96) external override {... */\n    tag_28:\n      tag_51\n      0x04\n      dup1\n      calldatasize\n      sub\n      0x20\n      dup2\n      lt\n      iszero\n      tag_119\n      jumpi\n      0x00\n      dup1\n      revert\n    tag_119:\n      pop\n      calldataload\n      sub(shl(0xa0, 0x01), 0x01)\n      and\n      tag_120\n      jump\t// in\n        /* \"contracts/uniswap/UniswapV3Pool.sol\":1515:1555  address public immutable override token0 */\n    tag_37:\n      immutable(\"0xb811eb8190fe00dc85563459f7e9e4ba4c2ef31ddac91e9e2d37d1e7e1b1d5bc\")\n      dup2\n      jump\t// out\n        /* \"contracts/uniswap/UniswapV3Pool.sol\":22899:31901  function swap(... */\n    tag_43:\n        /* \"contracts/uniswap/UniswapV3Pool.sol\":23109:23123  int256 amount0 */\n      0x00\n        /* \"contracts/uniswap/UniswapV3Pool.sol\":23125:23139  int256 amount1 */\n      dup1\n        /* \"contracts/uniswap/NoDelegateCall.sol\":1036:1058  checkNotDelegateCall() */\n      tag_123\n        /* \"contracts/uniswap/NoDelegateCall.sol\":1036:1056  checkNotDelegateCall */\n      tag_124\n        /* \"contracts/uniswap/NoDelegateCall.sol\":1036:1058  checkNotDelegateCall() */\n      jump\t// in\n    tag_123:\n        /* \"contracts/uniswap/UniswapV3Pool.sol\":23159:23179  amountSpecified != 0 */\n      dup6\n        /* \"contracts/uniswap/UniswapV3Pool.sol\":23151:23186  require(amountSpecified != 0, 'AS') */\n      tag_126\n      jumpi\n      0x00\n      dup1\n      revert\n    tag_126:\n        /* \"contracts/uniswap/UniswapV3Pool.sol\":23197:23228  Slot0 memory slot0Start = slot0 */\n      0x40\n      dup1\n      mload\n      0xe0\n      dup2\n      add\n      dup3\n      mstore\n        /* \"contracts/uniswap/UniswapV3Pool.sol\":23197:23220  Slot0 memory slot0Start */\n      0x00\n        /* \"contracts/uniswap/UniswapV3Pool.sol\":23197:23228  Slot0 memory slot0Start = slot0 */\n      sload\n      sub(shl(0xa0, 0x01), 0x01)\n      dup2\n      and\n      dup3\n      mstore\n      0x010000000000000000000000000000000000000000\n      dup2\n      div\n      0x02\n      swap1\n      dup2\n      signextend\n      dup2\n      signextend\n      swap1\n      signextend\n      0x20\n      dup4\n      add\n      mstore\n      0xffff\n      0x010000000000000000000000000000000000000000000000\n      dup3\n      div\n      dup2\n      and\n      swap4\n      dup4\n      add\n      swap4\n      swap1\n      swap4\n      mstore\n      0x0100000000000000000000000000000000000000000000000000\n      dup2\n      div\n      dup4\n      and\n      0x60\n      dup4\n      add\n      mstore\n      0x01000000000000000000000000000000000000000000000000000000\n      dup2\n      div\n      swap1\n      swap3\n      and\n      0x80\n      dup3\n      add\n      mstore\n      0xff\n      0x010000000000000000000000000000000000000000000000000000000000\n      dup4\n      div\n      dup2\n      and\n      0xa0\n      dup4\n      add\n      mstore\n      0x01000000000000000000000000000000000000000000000000000000000000\n      swap1\n      swap3\n      div\n      swap1\n      swap2\n      and\n      iszero\n      iszero\n      0xc0\n      dup3\n      add\n      dup2\n      swap1\n      mstore\n        /* \"contracts/uniswap/UniswapV3Pool.sol\":23239:23274  require(slot0Start.unlocked, 'LOK') */\n      tag_127\n      jumpi\n      0x00\n      dup1\n      revert\n    tag_127:\n        /* \"contracts/uniswap/UniswapV3Pool.sol\":23305:23315  zeroForOne */\n      dup8\n        /* \"contracts/uniswap/UniswapV3Pool.sol\":23305:23533  zeroForOne... */\n      tag_128\n      jumpi\n        /* \"contracts/uniswap/UniswapV3Pool.sol\":23463:23473  slot0Start */\n      dup1\n        /* \"contracts/uniswap/UniswapV3Pool.sol\":23463:23486  slot0Start.sqrtPriceX96 */\n      0x00\n      add\n      mload\n      sub(shl(0xa0, 0x01), 0x01)\n        /* \"contracts/uniswap/UniswapV3Pool.sol\":23443:23486  sqrtPriceLimitX96 > slot0Start.sqrtPriceX96 */\n      and\n        /* \"contracts/uniswap/UniswapV3Pool.sol\":23443:23460  sqrtPriceLimitX96 */\n      dup7\n      sub(shl(0xa0, 0x01), 0x01)\n        /* \"contracts/uniswap/UniswapV3Pool.sol\":23443:23486  sqrtPriceLimitX96 > slot0Start.sqrtPriceX96 */\n      and\n      gt\n        /* \"contracts/uniswap/UniswapV3Pool.sol\":23443:23533  sqrtPriceLimitX96 > slot0Start.sqrtPriceX96 && sqrtPriceLimitX96 < TickMath.MAX_SQRT_RATIO */\n      dup1\n      iszero\n      tag_129\n      jumpi\n      pop\n        /* \"contracts/uniswap/libraries/TickMath.sol\":1004:1053  1461446703485210103287273052203988822378723970342 */\n      0xfffd8963efd1fc6a506488495d951d5263988d26\n      sub(shl(0xa0, 0x01), 0x01)\n        /* \"contracts/uniswap/UniswapV3Pool.sol\":23490:23533  sqrtPriceLimitX96 < TickMath.MAX_SQRT_RATIO */\n      dup8\n      and\n      lt\n        /* \"contracts/uniswap/UniswapV3Pool.sol\":23443:23533  sqrtPriceLimitX96 > slot0Start.sqrtPriceX96 && sqrtPriceLimitX96 < TickMath.MAX_SQRT_RATIO */\n    tag_129:\n        /* \"contracts/uniswap/UniswapV3Pool.sol\":23305:23533  zeroForOne... */\n      jump(tag_131)\n    tag_128:\n        /* \"contracts/uniswap/UniswapV3Pool.sol\":23354:23364  slot0Start */\n      dup1\n        /* \"contracts/uniswap/UniswapV3Pool.sol\":23354:23377  slot0Start.sqrtPriceX96 */\n      0x00\n      add\n      mload\n      sub(shl(0xa0, 0x01), 0x01)\n        /* \"contracts/uniswap/UniswapV3Pool.sol\":23334:23377  sqrtPriceLimitX96 < slot0Start.sqrtPriceX96 */\n      and\n        /* \"contracts/uniswap/UniswapV3Pool.sol\":23334:23351  sqrtPriceLimitX96 */\n      dup7\n      sub(shl(0xa0, 0x01), 0x01)\n        /* \"contracts/uniswap/UniswapV3Pool.sol\":23334:23377  sqrtPriceLimitX96 < slot0Start.sqrtPriceX96 */\n      and\n      lt\n        /* \"contracts/uniswap/UniswapV3Pool.sol\":23334:23424  sqrtPriceLimitX96 < slot0Start.sqrtPriceX96 && sqrtPriceLimitX96 > TickMath.MIN_SQRT_RATIO */\n      dup1\n      iszero\n      tag_131\n      jumpi\n      pop\n        /* \"contracts/uniswap/libraries/TickMath.sol\":824:834  4295128739 */\n      0x01000276a3\n      sub(shl(0xa0, 0x01), 0x01)\n        /* \"contracts/uniswap/UniswapV3Pool.sol\":23381:23424  sqrtPriceLimitX96 > TickMath.MIN_SQRT_RATIO */\n      dup8\n      and\n      gt\n        /* \"contracts/uniswap/UniswapV3Pool.sol\":23334:23424  sqrtPriceLimitX96 < slot0Start.sqrtPriceX96 && sqrtPriceLimitX96 > TickMath.MIN_SQRT_RATIO */\n    tag_131:\n        /* \"contracts/uniswap/UniswapV3Pool.sol\":23284:23562  require(... */\n      tag_132\n      jumpi\n      0x00\n      dup1\n      revert\n    tag_132:\n        /* \"contracts/uniswap/UniswapV3Pool.sol\":23590:23595  false */\n      0x00\n        /* \"contracts/uniswap/UniswapV3Pool.sol\":23573:23595  slot0.unlocked = false */\n      dup1\n      sload\n      0xff00ffffffffffffffffffffffffffffffffffffffffffffffffffffffffffff\n      and\n      dup2\n      sstore\n        /* \"contracts/uniswap/UniswapV3Pool.sol\":23643:24006  SwapCache({... */\n      0x40\n      dup1\n      mload\n      0xc0\n      dup2\n      add\n      swap1\n      swap2\n      mstore\n      dup1\n        /* \"contracts/uniswap/UniswapV3Pool.sol\":23778:23788  zeroForOne */\n      dup11\n        /* \"contracts/uniswap/UniswapV3Pool.sol\":23778:23852  zeroForOne ? (slot0Start.feeProtocol % 16) : (slot0Start.feeProtocol >> 4) */\n      tag_133\n      jumpi\n        /* \"contracts/uniswap/UniswapV3Pool.sol\":23850:23851  4 */\n      0x04\n        /* \"contracts/uniswap/UniswapV3Pool.sol\":23824:23834  slot0Start */\n      dup5\n        /* \"contracts/uniswap/UniswapV3Pool.sol\":23824:23846  slot0Start.feeProtocol */\n      0xa0\n      add\n      mload\n        /* \"contracts/uniswap/UniswapV3Pool.sol\":23824:23851  slot0Start.feeProtocol >> 4 */\n      0xff\n      and\n      swap1\n      shr\n        /* \"contracts/uniswap/UniswapV3Pool.sol\":23778:23852  zeroForOne ? (slot0Start.feeProtocol % 16) : (slot0Start.feeProtocol >> 4) */\n      jump(tag_134)\n    tag_133:\n        /* \"contracts/uniswap/UniswapV3Pool.sol\":23817:23819  16 */\n      0x10\n        /* \"contracts/uniswap/UniswapV3Pool.sol\":23792:23802  slot0Start */\n      dup5\n        /* \"contracts/uniswap/UniswapV3Pool.sol\":23792:23814  slot0Start.feeProtocol */\n      0xa0\n      add\n      mload\n        /* \"contracts/uniswap/UniswapV3Pool.sol\":23792:23819  slot0Start.feeProtocol % 16 */\n      0xff\n      and\n      dup2\n      tag_135\n      jumpi\n      invalid\n    tag_135:\n      mod\n        /* \"contracts/uniswap/UniswapV3Pool.sol\":23778:23852  zeroForOne ? (slot0Start.feeProtocol % 16) : (slot0Start.feeProtocol >> 4) */\n    tag_134:\n        /* \"contracts/uniswap/UniswapV3Pool.sol\":23643:24006  SwapCache({... */\n      0xff\n      and\n      dup2\n      mstore\n        /* \"contracts/uniswap/UniswapV3Pool.sol\":23687:23696  liquidity */\n      and(0xffffffffffffffffffffffffffffffff, sload(0x04))\n        /* \"contracts/uniswap/UniswapV3Pool.sol\":23643:24006  SwapCache({... */\n      0x20\n      dup3\n      add\n      mstore\n      0x40\n      add\n        /* \"contracts/uniswap/UniswapV3Pool.sol\":23730:23747  _blockTimestamp() */\n      tag_136\n        /* \"contracts/uniswap/UniswapV3Pool.sol\":23730:23745  _blockTimestamp */\n      tag_137\n        /* \"contracts/uniswap/UniswapV3Pool.sol\":23730:23747  _blockTimestamp() */\n      jump\t// in\n    tag_136:\n        /* \"contracts/uniswap/UniswapV3Pool.sol\":23643:24006  SwapCache({... */\n      0xffffffff\n      and\n      dup2\n      mstore\n      0x20\n      add\n        /* \"contracts/uniswap/UniswapV3Pool.sol\":23940:23941  0 */\n      0x00\n        /* \"contracts/uniswap/UniswapV3Pool.sol\":23643:24006  SwapCache({... */\n      0x06\n      signextend\n      dup2\n      mstore\n      0x20\n      add\n        /* \"contracts/uniswap/UniswapV3Pool.sol\":23905:23906  0 */\n      0x00\n      sub(shl(0xa0, 0x01), 0x01)\n        /* \"contracts/uniswap/UniswapV3Pool.sol\":23643:24006  SwapCache({... */\n      and\n      dup2\n      mstore\n      0x20\n      add\n        /* \"contracts/uniswap/UniswapV3Pool.sol\":23986:23991  false */\n      0x00\n        /* \"contracts/uniswap/UniswapV3Pool.sol\":23643:24006  SwapCache({... */\n      iszero\n      iszero\n      dup2\n      mstore\n      pop\n        /* \"contracts/uniswap/UniswapV3Pool.sol\":23606:24006  SwapCache memory cache =... */\n      swap1\n      pop\n        /* \"contracts/uniswap/UniswapV3Pool.sol\":24017:24032  bool exactInput */\n      0x00\n        /* \"contracts/uniswap/UniswapV3Pool.sol\":24053:24054  0 */\n      dup1\n        /* \"contracts/uniswap/UniswapV3Pool.sol\":24035:24050  amountSpecified */\n      dup10\n        /* \"contracts/uniswap/UniswapV3Pool.sol\":24035:24054  amountSpecified > 0 */\n      sgt\n        /* \"contracts/uniswap/UniswapV3Pool.sol\":24017:24054  bool exactInput = amountSpecified > 0 */\n      swap1\n      pop\n        /* \"contracts/uniswap/UniswapV3Pool.sol\":24065:24087  SwapState memory state */\n      0x00\n        /* \"contracts/uniswap/UniswapV3Pool.sol\":24102:24493  SwapState({... */\n      mload(0x40)\n      dup1\n      0xe0\n      add\n      0x40\n      mstore\n      dup1\n        /* \"contracts/uniswap/UniswapV3Pool.sol\":24156:24171  amountSpecified */\n      dup12\n        /* \"contracts/uniswap/UniswapV3Pool.sol\":24102:24493  SwapState({... */\n      dup2\n      mstore\n      0x20\n      add\n        /* \"contracts/uniswap/UniswapV3Pool.sol\":24207:24208  0 */\n      0x00\n        /* \"contracts/uniswap/UniswapV3Pool.sol\":24102:24493  SwapState({... */\n      dup2\n      mstore\n      0x20\n      add\n        /* \"contracts/uniswap/UniswapV3Pool.sol\":24240:24250  slot0Start */\n      dup6\n        /* \"contracts/uniswap/UniswapV3Pool.sol\":24240:24263  slot0Start.sqrtPriceX96 */\n      0x00\n      add\n      mload\n      sub(shl(0xa0, 0x01), 0x01)\n        /* \"contracts/uniswap/UniswapV3Pool.sol\":24102:24493  SwapState({... */\n      and\n      dup2\n      mstore\n      0x20\n      add\n        /* \"contracts/uniswap/UniswapV3Pool.sol\":24287:24297  slot0Start */\n      dup6\n        /* \"contracts/uniswap/UniswapV3Pool.sol\":24287:24302  slot0Start.tick */\n      0x20\n      add\n      mload\n        /* \"contracts/uniswap/UniswapV3Pool.sol\":24102:24493  SwapState({... */\n      0x02\n      signextend\n      dup2\n      mstore\n      0x20\n      add\n        /* \"contracts/uniswap/UniswapV3Pool.sol\":24341:24351  zeroForOne */\n      dup13\n        /* \"contracts/uniswap/UniswapV3Pool.sol\":24341:24397  zeroForOne ? feeGrowthGlobal0X128 : feeGrowthGlobal1X128 */\n      tag_138\n      jumpi\n        /* \"contracts/uniswap/UniswapV3Pool.sol\":24377:24397  feeGrowthGlobal1X128 */\n      sload(0x02)\n        /* \"contracts/uniswap/UniswapV3Pool.sol\":24341:24397  zeroForOne ? feeGrowthGlobal0X128 : feeGrowthGlobal1X128 */\n      jump(tag_139)\n    tag_138:\n        /* \"contracts/uniswap/UniswapV3Pool.sol\":24354:24374  feeGrowthGlobal0X128 */\n      sload(0x01)\n        /* \"contracts/uniswap/UniswapV3Pool.sol\":24341:24397  zeroForOne ? feeGrowthGlobal0X128 : feeGrowthGlobal1X128 */\n    tag_139:\n        /* \"contracts/uniswap/UniswapV3Pool.sol\":24102:24493  SwapState({... */\n      dup2\n      mstore\n      0x20\n      add\n        /* \"contracts/uniswap/UniswapV3Pool.sol\":24428:24429  0 */\n      0x00\n        /* \"contracts/uniswap/UniswapV3Pool.sol\":24102:24493  SwapState({... */\n      0xffffffffffffffffffffffffffffffff\n      and\n      dup2\n      mstore\n      0x20\n      add\n        /* \"contracts/uniswap/UniswapV3Pool.sol\":24458:24463  cache */\n      dup5\n        /* \"contracts/uniswap/UniswapV3Pool.sol\":24458:24478  cache.liquidityStart */\n      0x20\n      add\n      mload\n        /* \"contracts/uniswap/UniswapV3Pool.sol\":24102:24493  SwapState({... */\n      0xffffffffffffffffffffffffffffffff\n      and\n      dup2\n      mstore\n      pop\n        /* \"contracts/uniswap/UniswapV3Pool.sol\":24065:24493  SwapState memory state =... */\n      swap1\n      pop\n        /* \"contracts/uniswap/UniswapV3Pool.sol\":24620:29241  while (state.amountSpecifiedRemaining != 0 && state.sqrtPriceX96 != sqrtPriceLimitX96) {... */\n    tag_140:\n        /* \"contracts/uniswap/UniswapV3Pool.sol\":24627:24657  state.amountSpecifiedRemaining */\n      dup1\n      mload\n        /* \"contracts/uniswap/UniswapV3Pool.sol\":24627:24662  state.amountSpecifiedRemaining != 0 */\n      iszero\n      dup1\n      iszero\n      swap1\n        /* \"contracts/uniswap/UniswapV3Pool.sol\":24627:24705  state.amountSpecifiedRemaining != 0 && state.sqrtPriceX96 != sqrtPriceLimitX96 */\n      tag_142\n      jumpi\n      pop\n        /* \"contracts/uniswap/UniswapV3Pool.sol\":24688:24705  sqrtPriceLimitX96 */\n      dup9\n      sub(shl(0xa0, 0x01), 0x01)\n        /* \"contracts/uniswap/UniswapV3Pool.sol\":24666:24705  state.sqrtPriceX96 != sqrtPriceLimitX96 */\n      and\n        /* \"contracts/uniswap/UniswapV3Pool.sol\":24666:24671  state */\n      dup2\n        /* \"contracts/uniswap/UniswapV3Pool.sol\":24666:24684  state.sqrtPriceX96 */\n      0x40\n      add\n      mload\n      sub(shl(0xa0, 0x01), 0x01)\n        /* \"contracts/uniswap/UniswapV3Pool.sol\":24666:24705  state.sqrtPriceX96 != sqrtPriceLimitX96 */\n      and\n      eq\n      iszero\n        /* \"contracts/uniswap/UniswapV3Pool.sol\":24627:24705  state.amountSpecifiedRemaining != 0 && state.sqrtPriceX96 != sqrtPriceLimitX96 */\n    tag_142:\n        /* \"contracts/uniswap/UniswapV3Pool.sol\":24620:29241  while (state.amountSpecifiedRemaining != 0 && state.sqrtPriceX96 != sqrtPriceLimitX96) {... */\n      iszero\n      tag_141\n      jumpi\n        /* \"contracts/uniswap/UniswapV3Pool.sol\":24721:24749  StepComputations memory step */\n      tag_143\n      tag_144\n      jump\t// in\n    tag_143:\n        /* \"contracts/uniswap/UniswapV3Pool.sol\":24789:24807  state.sqrtPriceX96 */\n      0x40\n      dup3\n      add\n      mload\n      sub(shl(0xa0, 0x01), 0x01)\n        /* \"contracts/uniswap/UniswapV3Pool.sol\":24764:24807  step.sqrtPriceStartX96 = state.sqrtPriceX96 */\n      and\n      dup2\n      mstore\n        /* \"contracts/uniswap/UniswapV3Pool.sol\":24919:24929  state.tick */\n      0x60\n      dup3\n      add\n      mload\n        /* \"contracts/uniswap/UniswapV3Pool.sol\":24858:25000  tickBitmap.nextInitializedTickWithinOneWord(... */\n      tag_145\n      swap1\n        /* \"contracts/uniswap/UniswapV3Pool.sol\":24858:24868  tickBitmap */\n      0x06\n      swap1\n        /* \"contracts/uniswap/UniswapV3Pool.sol\":24947:24958  tickSpacing */\n      immutable(\"0xb9aa4ff60d3edb7fbc3b53bd780c9274ed80a5ba1a237d38b011edab2b031b4a\")\n        /* \"contracts/uniswap/UniswapV3Pool.sol\":24976:24986  zeroForOne */\n      dup16\n        /* \"contracts/uniswap/UniswapV3Pool.sol\":24858:24901  tickBitmap.nextInitializedTickWithinOneWord */\n      tag_146\n        /* \"contracts/uniswap/UniswapV3Pool.sol\":24858:25000  tickBitmap.nextInitializedTickWithinOneWord(... */\n      jump\t// in\n    tag_145:\n        /* \"contracts/uniswap/UniswapV3Pool.sol\":24822:25000  (step.tickNext, step.initialized) = tickBitmap.nextInitializedTickWithinOneWord(... */\n      iszero\n      iszero\n        /* \"contracts/uniswap/UniswapV3Pool.sol\":24838:24854  step.initialized */\n      0x40\n      dup4\n      add\n        /* \"contracts/uniswap/UniswapV3Pool.sol\":24822:25000  (step.tickNext, step.initialized) = tickBitmap.nextInitializedTickWithinOneWord(... */\n      mstore\n      0x02\n      swap1\n      dup2\n      signextend\n      dup2\n      signextend\n        /* \"contracts/uniswap/UniswapV3Pool.sol\":24823:24836  step.tickNext */\n      0x20\n      dup4\n      add\n        /* \"contracts/uniswap/UniswapV3Pool.sol\":24822:25000  (step.tickNext, step.initialized) = tickBitmap.nextInitializedTickWithinOneWord(... */\n      dup2\n      swap1\n      mstore\n        /* \"contracts/uniswap/libraries/TickMath.sol\":484:491  -887272 */\n      0xfffffffffffffffffffffffffffffffffffffffffffffffffffffffffff27618\n        /* \"contracts/uniswap/UniswapV3Pool.sol\":25132:25165  step.tickNext < TickMath.MIN_TICK */\n      swap2\n      signextend\n      slt\n        /* \"contracts/uniswap/UniswapV3Pool.sol\":25128:25344  if (step.tickNext < TickMath.MIN_TICK) {... */\n      iszero\n      tag_147\n      jumpi\n        /* \"contracts/uniswap/libraries/TickMath.sol\":484:491  -887272 */\n      0xfffffffffffffffffffffffffffffffffffffffffffffffffffffffffff27618\n        /* \"contracts/uniswap/UniswapV3Pool.sol\":25185:25198  step.tickNext */\n      0x20\n      dup3\n      add\n        /* \"contracts/uniswap/UniswapV3Pool.sol\":25185:25218  step.tickNext = TickMath.MIN_TICK */\n      mstore\n        /* \"contracts/uniswap/UniswapV3Pool.sol\":25128:25344  if (step.tickNext < TickMath.MIN_TICK) {... */\n      jump(tag_149)\n    tag_147:\n        /* \"contracts/uniswap/UniswapV3Pool.sol\":25243:25256  step.tickNext */\n      0x20\n      dup2\n      add\n      mload\n        /* \"contracts/uniswap/libraries/TickMath.sol\":644:653  -MIN_TICK */\n      0x0d89e8\n        /* \"contracts/uniswap/UniswapV3Pool.sol\":25243:25276  step.tickNext > TickMath.MAX_TICK */\n      0x02\n      swap2\n      swap1\n      swap2\n      signextend\n      sgt\n        /* \"contracts/uniswap/UniswapV3Pool.sol\":25239:25344  if (step.tickNext > TickMath.MAX_TICK) {... */\n      iszero\n      tag_149\n      jumpi\n        /* \"contracts/uniswap/libraries/TickMath.sol\":644:653  -MIN_TICK */\n      0x0d89e8\n        /* \"contracts/uniswap/UniswapV3Pool.sol\":25296:25309  step.tickNext */\n      0x20\n      dup3\n      add\n        /* \"contracts/uniswap/UniswapV3Pool.sol\":25296:25329  step.tickNext = TickMath.MAX_TICK */\n      mstore\n        /* \"contracts/uniswap/UniswapV3Pool.sol\":25239:25344  if (step.tickNext > TickMath.MAX_TICK) {... */\n    tag_149:\n        /* \"contracts/uniswap/UniswapV3Pool.sol\":25429:25471  TickMath.getSqrtRatioAtTick(step.tickNext) */\n      tag_150\n        /* \"contracts/uniswap/UniswapV3Pool.sol\":25457:25461  step */\n      dup2\n        /* \"contracts/uniswap/UniswapV3Pool.sol\":25457:25470  step.tickNext */\n      0x20\n      add\n      mload\n        /* \"contracts/uniswap/UniswapV3Pool.sol\":25429:25456  TickMath.getSqrtRatioAtTick */\n      tag_151\n        /* \"contracts/uniswap/UniswapV3Pool.sol\":25429:25471  TickMath.getSqrtRatioAtTick(step.tickNext) */\n      jump\t// in\n    tag_150:\n      sub(shl(0xa0, 0x01), 0x01)\n        /* \"contracts/uniswap/UniswapV3Pool.sol\":25405:25471  step.sqrtPriceNextX96 = TickMath.getSqrtRatioAtTick(step.tickNext) */\n      and\n        /* \"contracts/uniswap/UniswapV3Pool.sol\":25405:25426  step.sqrtPriceNextX96 */\n      0x60\n      dup3\n      add\n        /* \"contracts/uniswap/UniswapV3Pool.sol\":25405:25471  step.sqrtPriceNextX96 = TickMath.getSqrtRatioAtTick(step.tickNext) */\n      mstore\n        /* \"contracts/uniswap/UniswapV3Pool.sol\":25717:25735  state.sqrtPriceX96 */\n      0x40\n      dup3\n      add\n      mload\n        /* \"contracts/uniswap/UniswapV3Pool.sol\":25675:26053  SwapMath.computeSwapStep(... */\n      tag_152\n      swap1\n        /* \"contracts/uniswap/UniswapV3Pool.sol\":25754:25764  zeroForOne */\n      dup14\n        /* \"contracts/uniswap/UniswapV3Pool.sol\":25754:25852  zeroForOne ? step.sqrtPriceNextX96 < sqrtPriceLimitX96 : step.sqrtPriceNextX96 > sqrtPriceLimitX96 */\n      tag_153\n      jumpi\n        /* \"contracts/uniswap/UniswapV3Pool.sol\":25835:25852  sqrtPriceLimitX96 */\n      dup12\n      sub(shl(0xa0, 0x01), 0x01)\n        /* \"contracts/uniswap/UniswapV3Pool.sol\":25811:25852  step.sqrtPriceNextX96 > sqrtPriceLimitX96 */\n      and\n        /* \"contracts/uniswap/UniswapV3Pool.sol\":25811:25815  step */\n      dup4\n        /* \"contracts/uniswap/UniswapV3Pool.sol\":25811:25832  step.sqrtPriceNextX96 */\n      0x60\n      add\n      mload\n      sub(shl(0xa0, 0x01), 0x01)\n        /* \"contracts/uniswap/UniswapV3Pool.sol\":25811:25852  step.sqrtPriceNextX96 > sqrtPriceLimitX96 */\n      and\n      gt\n        /* \"contracts/uniswap/UniswapV3Pool.sol\":25754:25852  zeroForOne ? step.sqrtPriceNextX96 < sqrtPriceLimitX96 : step.sqrtPriceNextX96 > sqrtPriceLimitX96 */\n      jump(tag_154)\n    tag_153:\n        /* \"contracts/uniswap/UniswapV3Pool.sol\":25791:25808  sqrtPriceLimitX96 */\n      dup12\n      sub(shl(0xa0, 0x01), 0x01)\n        /* \"contracts/uniswap/UniswapV3Pool.sol\":25767:25808  step.sqrtPriceNextX96 < sqrtPriceLimitX96 */\n      and\n        /* \"contracts/uniswap/UniswapV3Pool.sol\":25767:25771  step */\n      dup4\n        /* \"contracts/uniswap/UniswapV3Pool.sol\":25767:25788  step.sqrtPriceNextX96 */\n      0x60\n      add\n      mload\n      sub(shl(0xa0, 0x01), 0x01)\n        /* \"contracts/uniswap/UniswapV3Pool.sol\":25767:25808  step.sqrtPriceNextX96 < sqrtPriceLimitX96 */\n      and\n      lt\n        /* \"contracts/uniswap/UniswapV3Pool.sol\":25754:25852  zeroForOne ? step.sqrtPriceNextX96 < sqrtPriceLimitX96 : step.sqrtPriceNextX96 > sqrtPriceLimitX96 */\n    tag_154:\n        /* \"contracts/uniswap/UniswapV3Pool.sol\":25753:25937  (zeroForOne ? step.sqrtPriceNextX96 < sqrtPriceLimitX96 : step.sqrtPriceNextX96 > sqrtPriceLimitX96)... */\n      tag_155\n      jumpi\n        /* \"contracts/uniswap/UniswapV3Pool.sol\":25916:25920  step */\n      dup3\n        /* \"contracts/uniswap/UniswapV3Pool.sol\":25916:25937  step.sqrtPriceNextX96 */\n      0x60\n      add\n      mload\n        /* \"contracts/uniswap/UniswapV3Pool.sol\":25753:25937  (zeroForOne ? step.sqrtPriceNextX96 < sqrtPriceLimitX96 : step.sqrtPriceNextX96 > sqrtPriceLimitX96)... */\n      jump(tag_156)\n    tag_155:\n        /* \"contracts/uniswap/UniswapV3Pool.sol\":25876:25893  sqrtPriceLimitX96 */\n      dup12\n        /* \"contracts/uniswap/UniswapV3Pool.sol\":25753:25937  (zeroForOne ? step.sqrtPriceNextX96 < sqrtPriceLimitX96 : step.sqrtPriceNextX96 > sqrtPriceLimitX96)... */\n    tag_156:\n        /* \"contracts/uniswap/UniswapV3Pool.sol\":25955:25970  state.liquidity */\n      0xc0\n      dup6\n      add\n      mload\n        /* \"contracts/uniswap/UniswapV3Pool.sol\":25988:26018  state.amountSpecifiedRemaining */\n      dup6\n      mload\n        /* \"contracts/uniswap/UniswapV3Pool.sol\":26036:26039  fee */\n      immutable(\"0x7d4579ab3c781860520f730aa471b37a7366c1c6efb6e34470da23130f5149f7\")\n        /* \"contracts/uniswap/UniswapV3Pool.sol\":25675:25699  SwapMath.computeSwapStep */\n      tag_157\n        /* \"contracts/uniswap/UniswapV3Pool.sol\":25675:26053  SwapMath.computeSwapStep(... */\n      jump\t// in\n    tag_152:\n        /* \"contracts/uniswap/UniswapV3Pool.sol\":25657:25671  step.feeAmount */\n      0xc0\n      dup6\n      add\n        /* \"contracts/uniswap/UniswapV3Pool.sol\":25605:26053  (state.sqrtPriceX96, step.amountIn, step.amountOut, step.feeAmount) = SwapMath.computeSwapStep(... */\n      mstore\n        /* \"contracts/uniswap/UniswapV3Pool.sol\":25641:25655  step.amountOut */\n      0xa0\n      dup5\n      add\n        /* \"contracts/uniswap/UniswapV3Pool.sol\":25605:26053  (state.sqrtPriceX96, step.amountIn, step.amountOut, step.feeAmount) = SwapMath.computeSwapStep(... */\n      mstore\n        /* \"contracts/uniswap/UniswapV3Pool.sol\":25626:25639  step.amountIn */\n      0x80\n      dup4\n      add\n        /* \"contracts/uniswap/UniswapV3Pool.sol\":25605:26053  (state.sqrtPriceX96, step.amountIn, step.amountOut, step.feeAmount) = SwapMath.computeSwapStep(... */\n      mstore\n      sub(shl(0xa0, 0x01), 0x01)\n      and\n        /* \"contracts/uniswap/UniswapV3Pool.sol\":25606:25624  state.sqrtPriceX96 */\n      0x40\n      dup4\n      add\n        /* \"contracts/uniswap/UniswapV3Pool.sol\":25605:26053  (state.sqrtPriceX96, step.amountIn, step.amountOut, step.feeAmount) = SwapMath.computeSwapStep(... */\n      mstore\n        /* \"contracts/uniswap/UniswapV3Pool.sol\":26068:26502  if (exactInput) {... */\n      dup3\n      iszero\n      tag_158\n      jumpi\n        /* \"contracts/uniswap/UniswapV3Pool.sol\":26136:26179  (step.amountIn + step.feeAmount).toInt256() */\n      tag_159\n        /* \"contracts/uniswap/UniswapV3Pool.sol\":26153:26157  step */\n      dup2\n        /* \"contracts/uniswap/UniswapV3Pool.sol\":26153:26167  step.feeAmount */\n      0xc0\n      add\n      mload\n        /* \"contracts/uniswap/UniswapV3Pool.sol\":26137:26141  step */\n      dup3\n        /* \"contracts/uniswap/UniswapV3Pool.sol\":26137:26150  step.amountIn */\n      0x80\n      add\n      mload\n        /* \"contracts/uniswap/UniswapV3Pool.sol\":26137:26167  step.amountIn + step.feeAmount */\n      add\n        /* \"contracts/uniswap/UniswapV3Pool.sol\":26136:26177  (step.amountIn + step.feeAmount).toInt256 */\n      tag_160\n        /* \"contracts/uniswap/UniswapV3Pool.sol\":26136:26179  (step.amountIn + step.feeAmount).toInt256() */\n      jump\t// in\n    tag_159:\n        /* \"contracts/uniswap/UniswapV3Pool.sol\":26102:26179  state.amountSpecifiedRemaining -= (step.amountIn + step.feeAmount).toInt256() */\n      dup3\n      mload\n      sub\n      dup3\n      mstore\n        /* \"contracts/uniswap/UniswapV3Pool.sol\":26249:26263  step.amountOut */\n      0xa0\n      dup2\n      add\n      mload\n        /* \"contracts/uniswap/UniswapV3Pool.sol\":26222:26275  state.amountCalculated.sub(step.amountOut.toInt256()) */\n      tag_161\n      swap1\n        /* \"contracts/uniswap/UniswapV3Pool.sol\":26249:26274  step.amountOut.toInt256() */\n      tag_162\n      swap1\n        /* \"contracts/uniswap/UniswapV3Pool.sol\":26249:26272  step.amountOut.toInt256 */\n      tag_160\n        /* \"contracts/uniswap/UniswapV3Pool.sol\":26249:26274  step.amountOut.toInt256() */\n      jump\t// in\n    tag_162:\n        /* \"contracts/uniswap/UniswapV3Pool.sol\":26222:26244  state.amountCalculated */\n      0x20\n      dup5\n      add\n      mload\n      swap1\n        /* \"contracts/uniswap/UniswapV3Pool.sol\":26222:26248  state.amountCalculated.sub */\n      tag_163\n        /* \"contracts/uniswap/UniswapV3Pool.sol\":26222:26275  state.amountCalculated.sub(step.amountOut.toInt256()) */\n      jump\t// in\n    tag_161:\n        /* \"contracts/uniswap/UniswapV3Pool.sol\":26197:26219  state.amountCalculated */\n      0x20\n      dup4\n      add\n        /* \"contracts/uniswap/UniswapV3Pool.sol\":26197:26275  state.amountCalculated = state.amountCalculated.sub(step.amountOut.toInt256()) */\n      mstore\n        /* \"contracts/uniswap/UniswapV3Pool.sol\":26068:26502  if (exactInput) {... */\n      jump(tag_164)\n    tag_158:\n        /* \"contracts/uniswap/UniswapV3Pool.sol\":26348:26373  step.amountOut.toInt256() */\n      tag_165\n        /* \"contracts/uniswap/UniswapV3Pool.sol\":26348:26352  step */\n      dup2\n        /* \"contracts/uniswap/UniswapV3Pool.sol\":26348:26362  step.amountOut */\n      0xa0\n      add\n      mload\n        /* \"contracts/uniswap/UniswapV3Pool.sol\":26348:26371  step.amountOut.toInt256 */\n      tag_160\n        /* \"contracts/uniswap/UniswapV3Pool.sol\":26348:26373  step.amountOut.toInt256() */\n      jump\t// in\n    tag_165:\n        /* \"contracts/uniswap/UniswapV3Pool.sol\":26314:26373  state.amountSpecifiedRemaining += step.amountOut.toInt256() */\n      dup3\n      mload\n      add\n      dup3\n      mstore\n        /* \"contracts/uniswap/UniswapV3Pool.sol\":26460:26474  step.feeAmount */\n      0xc0\n      dup2\n      add\n      mload\n        /* \"contracts/uniswap/UniswapV3Pool.sol\":26444:26457  step.amountIn */\n      0x80\n      dup3\n      add\n      mload\n        /* \"contracts/uniswap/UniswapV3Pool.sol\":26416:26487  state.amountCalculated.add((step.amountIn + step.feeAmount).toInt256()) */\n      tag_166\n      swap2\n        /* \"contracts/uniswap/UniswapV3Pool.sol\":26443:26486  (step.amountIn + step.feeAmount).toInt256() */\n      tag_167\n      swap2\n        /* \"contracts/uniswap/UniswapV3Pool.sol\":26444:26474  step.amountIn + step.feeAmount */\n      add\n        /* \"contracts/uniswap/UniswapV3Pool.sol\":26443:26484  (step.amountIn + step.feeAmount).toInt256 */\n      tag_160\n        /* \"contracts/uniswap/UniswapV3Pool.sol\":26443:26486  (step.amountIn + step.feeAmount).toInt256() */\n      jump\t// in\n    tag_167:\n        /* \"contracts/uniswap/UniswapV3Pool.sol\":26416:26438  state.amountCalculated */\n      0x20\n      dup5\n      add\n      mload\n      swap1\n        /* \"contracts/uniswap/UniswapV3Pool.sol\":26416:26442  state.amountCalculated.add */\n      tag_168\n        /* \"contracts/uniswap/UniswapV3Pool.sol\":26416:26487  state.amountCalculated.add((step.amountIn + step.feeAmount).toInt256()) */\n      jump\t// in\n    tag_166:\n        /* \"contracts/uniswap/UniswapV3Pool.sol\":26391:26413  state.amountCalculated */\n      0x20\n      dup4\n      add\n        /* \"contracts/uniswap/UniswapV3Pool.sol\":26391:26487  state.amountCalculated = state.amountCalculated.add((step.amountIn + step.feeAmount).toInt256()) */\n      mstore\n        /* \"contracts/uniswap/UniswapV3Pool.sol\":26068:26502  if (exactInput) {... */\n    tag_164:\n        /* \"contracts/uniswap/UniswapV3Pool.sol\":26637:26654  cache.feeProtocol */\n      dup4\n      mload\n        /* \"contracts/uniswap/UniswapV3Pool.sol\":26637:26658  cache.feeProtocol > 0 */\n      0xff\n      and\n      iszero\n        /* \"contracts/uniswap/UniswapV3Pool.sol\":26633:26837  if (cache.feeProtocol > 0) {... */\n      tag_169\n      jumpi\n        /* \"contracts/uniswap/UniswapV3Pool.sol\":26678:26691  uint256 delta */\n      0x00\n        /* \"contracts/uniswap/UniswapV3Pool.sol\":26711:26716  cache */\n      dup5\n        /* \"contracts/uniswap/UniswapV3Pool.sol\":26711:26728  cache.feeProtocol */\n      0x00\n      add\n      mload\n        /* \"contracts/uniswap/UniswapV3Pool.sol\":26694:26728  step.feeAmount / cache.feeProtocol */\n      0xff\n      and\n        /* \"contracts/uniswap/UniswapV3Pool.sol\":26694:26698  step */\n      dup3\n        /* \"contracts/uniswap/UniswapV3Pool.sol\":26694:26708  step.feeAmount */\n      0xc0\n      add\n      mload\n        /* \"contracts/uniswap/UniswapV3Pool.sol\":26694:26728  step.feeAmount / cache.feeProtocol */\n      dup2\n      tag_170\n      jumpi\n      invalid\n    tag_170:\n        /* \"contracts/uniswap/UniswapV3Pool.sol\":26746:26760  step.feeAmount */\n      0xc0\n      dup5\n      add\n        /* \"contracts/uniswap/UniswapV3Pool.sol\":26746:26769  step.feeAmount -= delta */\n      dup1\n      mload\n        /* \"contracts/uniswap/UniswapV3Pool.sol\":26694:26728  step.feeAmount / cache.feeProtocol */\n      swap3\n      swap1\n      swap2\n      div\n        /* \"contracts/uniswap/UniswapV3Pool.sol\":26746:26769  step.feeAmount -= delta */\n      swap2\n      dup3\n      swap1\n      sub\n      swap1\n      mstore\n        /* \"contracts/uniswap/UniswapV3Pool.sol\":26787:26804  state.protocolFee */\n      0xa0\n      dup5\n      add\n        /* \"contracts/uniswap/UniswapV3Pool.sol\":26787:26822  state.protocolFee += uint128(delta) */\n      dup1\n      mload\n      swap1\n      swap2\n      add\n      0xffffffffffffffffffffffffffffffff\n      and\n      swap1\n      mstore\n      pop\n        /* \"contracts/uniswap/UniswapV3Pool.sol\":26633:26837  if (cache.feeProtocol > 0) {... */\n    tag_169:\n        /* \"contracts/uniswap/UniswapV3Pool.sol\":26896:26911  state.liquidity */\n      0xc0\n      dup3\n      add\n      mload\n        /* \"contracts/uniswap/UniswapV3Pool.sol\":26896:26915  state.liquidity > 0 */\n      0xffffffffffffffffffffffffffffffff\n      and\n      iszero\n        /* \"contracts/uniswap/UniswapV3Pool.sol\":26892:27030  if (state.liquidity > 0)... */\n      tag_171\n      jumpi\n        /* \"contracts/uniswap/UniswapV3Pool.sol\":26962:27030  FullMath.mulDiv(step.feeAmount, FixedPoint128.Q128, state.liquidity) */\n      tag_172\n        /* \"contracts/uniswap/UniswapV3Pool.sol\":26978:26982  step */\n      dup2\n        /* \"contracts/uniswap/UniswapV3Pool.sol\":26978:26992  step.feeAmount */\n      0xc0\n      add\n      mload\n        /* \"contracts/uniswap/libraries/FixedPoint128.sol\":272:307  0x100000000000000000000000000000000 */\n      0x0100000000000000000000000000000000\n        /* \"contracts/uniswap/UniswapV3Pool.sol\":27014:27019  state */\n      dup5\n        /* \"contracts/uniswap/UniswapV3Pool.sol\":27014:27029  state.liquidity */\n      0xc0\n      add\n      mload\n        /* \"contracts/uniswap/UniswapV3Pool.sol\":26962:27030  FullMath.mulDiv(step.feeAmount, FixedPoint128.Q128, state.liquidity) */\n      0xffffffffffffffffffffffffffffffff\n      and\n        /* \"contracts/uniswap/UniswapV3Pool.sol\":26962:26977  FullMath.mulDiv */\n      tag_173\n        /* \"contracts/uniswap/UniswapV3Pool.sol\":26962:27030  FullMath.mulDiv(step.feeAmount, FixedPoint128.Q128, state.liquidity) */\n      jump\t// in\n    tag_172:\n        /* \"contracts/uniswap/UniswapV3Pool.sol\":26933:26958  state.feeGrowthGlobalX128 */\n      0x80\n      dup4\n      add\n        /* \"contracts/uniswap/UniswapV3Pool.sol\":26933:27030  state.feeGrowthGlobalX128 += FullMath.mulDiv(step.feeAmount, FixedPoint128.Q128, state.liquidity) */\n      dup1\n      mload\n      swap1\n      swap2\n      add\n      swap1\n      mstore\n        /* \"contracts/uniswap/UniswapV3Pool.sol\":26892:27030  if (state.liquidity > 0)... */\n    tag_171:\n        /* \"contracts/uniswap/UniswapV3Pool.sol\":27126:27130  step */\n      dup1\n        /* \"contracts/uniswap/UniswapV3Pool.sol\":27126:27147  step.sqrtPriceNextX96 */\n      0x60\n      add\n      mload\n      sub(shl(0xa0, 0x01), 0x01)\n        /* \"contracts/uniswap/UniswapV3Pool.sol\":27104:27147  state.sqrtPriceX96 == step.sqrtPriceNextX96 */\n      and\n        /* \"contracts/uniswap/UniswapV3Pool.sol\":27104:27109  state */\n      dup3\n        /* \"contracts/uniswap/UniswapV3Pool.sol\":27104:27122  state.sqrtPriceX96 */\n      0x40\n      add\n      mload\n      sub(shl(0xa0, 0x01), 0x01)\n        /* \"contracts/uniswap/UniswapV3Pool.sol\":27104:27147  state.sqrtPriceX96 == step.sqrtPriceNextX96 */\n      and\n      eq\n        /* \"contracts/uniswap/UniswapV3Pool.sol\":27100:29231  if (state.sqrtPriceX96 == step.sqrtPriceNextX96) {... */\n      iszero\n      tag_174\n      jumpi\n        /* \"contracts/uniswap/UniswapV3Pool.sol\":27242:27246  step */\n      dup1\n        /* \"contracts/uniswap/UniswapV3Pool.sol\":27242:27258  step.initialized */\n      0x40\n      add\n      mload\n        /* \"contracts/uniswap/UniswapV3Pool.sol\":27238:28870  if (step.initialized) {... */\n      iszero\n      tag_175\n      jumpi\n        /* \"contracts/uniswap/UniswapV3Pool.sol\":27457:27462  cache */\n      dup4\n        /* \"contracts/uniswap/UniswapV3Pool.sol\":27457:27488  cache.computedLatestObservation */\n      0xa0\n      add\n      mload\n        /* \"contracts/uniswap/UniswapV3Pool.sol\":27452:28017  if (!cache.computedLatestObservation) {... */\n      tag_176\n      jumpi\n        /* \"contracts/uniswap/UniswapV3Pool.sol\":27582:27930  observations.observeSingle(... */\n      tag_177\n        /* \"contracts/uniswap/UniswapV3Pool.sol\":27638:27643  cache */\n      dup5\n        /* \"contracts/uniswap/UniswapV3Pool.sol\":27638:27658  cache.blockTimestamp */\n      0x40\n      add\n      mload\n        /* \"contracts/uniswap/UniswapV3Pool.sol\":27688:27689  0 */\n      0x00\n        /* \"contracts/uniswap/UniswapV3Pool.sol\":27719:27729  slot0Start */\n      dup8\n        /* \"contracts/uniswap/UniswapV3Pool.sol\":27719:27734  slot0Start.tick */\n      0x20\n      add\n      mload\n        /* \"contracts/uniswap/UniswapV3Pool.sol\":27764:27774  slot0Start */\n      dup9\n        /* \"contracts/uniswap/UniswapV3Pool.sol\":27764:27791  slot0Start.observationIndex */\n      0x40\n      add\n      mload\n        /* \"contracts/uniswap/UniswapV3Pool.sol\":27821:27826  cache */\n      dup9\n        /* \"contracts/uniswap/UniswapV3Pool.sol\":27821:27841  cache.liquidityStart */\n      0x20\n      add\n      mload\n        /* \"contracts/uniswap/UniswapV3Pool.sol\":27871:27881  slot0Start */\n      dup11\n        /* \"contracts/uniswap/UniswapV3Pool.sol\":27871:27904  slot0Start.observationCardinality */\n      0x60\n      add\n      mload\n        /* \"contracts/uniswap/UniswapV3Pool.sol\":27582:27594  observations */\n      0x08\n        /* \"contracts/uniswap/UniswapV3Pool.sol\":27582:27608  observations.observeSingle */\n      tag_178\n      swap1\n        /* \"contracts/uniswap/UniswapV3Pool.sol\":27582:27930  observations.observeSingle(... */\n      swap7\n      swap6\n      swap5\n      swap4\n      swap3\n      swap2\n      swap1\n      0xffffffff\n      and\n      jump\t// in\n    tag_177:\n      sub(shl(0xa0, 0x01), 0x01)\n        /* \"contracts/uniswap/UniswapV3Pool.sol\":27516:27930  (cache.tickCumulative, cache.secondsPerLiquidityCumulativeX128) = observations.observeSingle(... */\n      and\n        /* \"contracts/uniswap/UniswapV3Pool.sol\":27539:27578  cache.secondsPerLiquidityCumulativeX128 */\n      0x80\n      dup7\n      add\n        /* \"contracts/uniswap/UniswapV3Pool.sol\":27516:27930  (cache.tickCumulative, cache.secondsPerLiquidityCumulativeX128) = observations.observeSingle(... */\n      mstore\n      0x06\n      swap1\n      dup2\n      signextend\n      swap1\n      signextend\n        /* \"contracts/uniswap/UniswapV3Pool.sol\":27517:27537  cache.tickCumulative */\n      0x60\n      dup6\n      add\n        /* \"contracts/uniswap/UniswapV3Pool.sol\":27516:27930  (cache.tickCumulative, cache.secondsPerLiquidityCumulativeX128) = observations.observeSingle(... */\n      mstore\n        /* \"contracts/uniswap/UniswapV3Pool.sol\":27990:27994  true */\n      0x01\n        /* \"contracts/uniswap/UniswapV3Pool.sol\":27956:27987  cache.computedLatestObservation */\n      0xa0\n      dup6\n      add\n        /* \"contracts/uniswap/UniswapV3Pool.sol\":27956:27994  cache.computedLatestObservation = true */\n      mstore\n        /* \"contracts/uniswap/UniswapV3Pool.sol\":27452:28017  if (!cache.computedLatestObservation) {... */\n    tag_176:\n        /* \"contracts/uniswap/UniswapV3Pool.sol\":28038:28057  int128 liquidityNet */\n      0x00\n        /* \"contracts/uniswap/UniswapV3Pool.sol\":28084:28519  ticks.cross(... */\n      tag_179\n        /* \"contracts/uniswap/UniswapV3Pool.sol\":28125:28129  step */\n      dup3\n        /* \"contracts/uniswap/UniswapV3Pool.sol\":28125:28138  step.tickNext */\n      0x20\n      add\n      mload\n        /* \"contracts/uniswap/UniswapV3Pool.sol\":28169:28179  zeroForOne */\n      dup15\n        /* \"contracts/uniswap/UniswapV3Pool.sol\":28169:28230  zeroForOne ? state.feeGrowthGlobalX128 : feeGrowthGlobal0X128 */\n      tag_180\n      jumpi\n        /* \"contracts/uniswap/UniswapV3Pool.sol\":28210:28230  feeGrowthGlobal0X128 */\n      sload(0x01)\n        /* \"contracts/uniswap/UniswapV3Pool.sol\":28169:28230  zeroForOne ? state.feeGrowthGlobalX128 : feeGrowthGlobal0X128 */\n      jump(tag_181)\n    tag_180:\n        /* \"contracts/uniswap/UniswapV3Pool.sol\":28182:28187  state */\n      dup5\n        /* \"contracts/uniswap/UniswapV3Pool.sol\":28182:28207  state.feeGrowthGlobalX128 */\n      0x80\n      add\n      mload\n        /* \"contracts/uniswap/UniswapV3Pool.sol\":28169:28230  zeroForOne ? state.feeGrowthGlobalX128 : feeGrowthGlobal0X128 */\n    tag_181:\n        /* \"contracts/uniswap/UniswapV3Pool.sol\":28262:28272  zeroForOne */\n      dup16\n        /* \"contracts/uniswap/UniswapV3Pool.sol\":28262:28323  zeroForOne ? feeGrowthGlobal1X128 : state.feeGrowthGlobalX128 */\n      tag_182\n      jumpi\n        /* \"contracts/uniswap/UniswapV3Pool.sol\":28298:28303  state */\n      dup6\n        /* \"contracts/uniswap/UniswapV3Pool.sol\":28298:28323  state.feeGrowthGlobalX128 */\n      0x80\n      add\n      mload\n        /* \"contracts/uniswap/UniswapV3Pool.sol\":28262:28323  zeroForOne ? feeGrowthGlobal1X128 : state.feeGrowthGlobalX128 */\n      jump(tag_183)\n    tag_182:\n        /* \"contracts/uniswap/UniswapV3Pool.sol\":28275:28295  feeGrowthGlobal1X128 */\n      sload(0x02)\n        /* \"contracts/uniswap/UniswapV3Pool.sol\":28262:28323  zeroForOne ? feeGrowthGlobal1X128 : state.feeGrowthGlobalX128 */\n    tag_183:\n        /* \"contracts/uniswap/UniswapV3Pool.sol\":28354:28393  cache.secondsPerLiquidityCumulativeX128 */\n      0x80\n      dup10\n      add\n      mload\n        /* \"contracts/uniswap/UniswapV3Pool.sol\":28423:28443  cache.tickCumulative */\n      0x60\n      dup11\n      add\n      mload\n        /* \"contracts/uniswap/UniswapV3Pool.sol\":28473:28493  cache.blockTimestamp */\n      0x40\n      dup12\n      add\n      mload\n        /* \"contracts/uniswap/UniswapV3Pool.sol\":28084:28089  ticks */\n      0x05\n      swap6\n        /* \"contracts/uniswap/UniswapV3Pool.sol\":28084:28519  ticks.cross(... */\n      swap5\n      swap4\n      swap3\n        /* \"contracts/uniswap/UniswapV3Pool.sol\":28354:28393  cache.secondsPerLiquidityCumulativeX128 */\n      swap2\n        /* \"contracts/uniswap/UniswapV3Pool.sol\":28423:28443  cache.tickCumulative */\n      swap1\n        /* \"contracts/uniswap/UniswapV3Pool.sol\":28084:28095  ticks.cross */\n      tag_184\n        /* \"contracts/uniswap/UniswapV3Pool.sol\":28084:28519  ticks.cross(... */\n      jump\t// in\n    tag_179:\n        /* \"contracts/uniswap/UniswapV3Pool.sol\":28038:28519  int128 liquidityNet =... */\n      swap1\n      pop\n        /* \"contracts/uniswap/UniswapV3Pool.sol\":28717:28727  zeroForOne */\n      dup13\n        /* \"contracts/uniswap/UniswapV3Pool.sol\":28713:28757  if (zeroForOne) liquidityNet = -liquidityNet */\n      iszero\n      tag_185\n      jumpi\n        /* \"contracts/uniswap/UniswapV3Pool.sol\":28744:28757  -liquidityNet */\n      0x00\n      sub\n        /* \"contracts/uniswap/UniswapV3Pool.sol\":28713:28757  if (zeroForOne) liquidityNet = -liquidityNet */\n    tag_185:\n        /* \"contracts/uniswap/UniswapV3Pool.sol\":28798:28851  LiquidityMath.addDelta(state.liquidity, liquidityNet) */\n      tag_186\n        /* \"contracts/uniswap/UniswapV3Pool.sol\":28821:28826  state */\n      dup4\n        /* \"contracts/uniswap/UniswapV3Pool.sol\":28821:28836  state.liquidity */\n      0xc0\n      add\n      mload\n        /* \"contracts/uniswap/UniswapV3Pool.sol\":28838:28850  liquidityNet */\n      dup3\n        /* \"contracts/uniswap/UniswapV3Pool.sol\":28798:28820  LiquidityMath.addDelta */\n      tag_187\n        /* \"contracts/uniswap/UniswapV3Pool.sol\":28798:28851  LiquidityMath.addDelta(state.liquidity, liquidityNet) */\n      jump\t// in\n    tag_186:\n        /* \"contracts/uniswap/UniswapV3Pool.sol\":28780:28851  state.liquidity = LiquidityMath.addDelta(state.liquidity, liquidityNet) */\n      0xffffffffffffffffffffffffffffffff\n      and\n        /* \"contracts/uniswap/UniswapV3Pool.sol\":28780:28795  state.liquidity */\n      0xc0\n      dup5\n      add\n        /* \"contracts/uniswap/UniswapV3Pool.sol\":28780:28851  state.liquidity = LiquidityMath.addDelta(state.liquidity, liquidityNet) */\n      mstore\n      pop\n        /* \"contracts/uniswap/UniswapV3Pool.sol\":27238:28870  if (step.initialized) {... */\n    tag_175:\n        /* \"contracts/uniswap/UniswapV3Pool.sol\":28901:28911  zeroForOne */\n      dup12\n        /* \"contracts/uniswap/UniswapV3Pool.sol\":28901:28947  zeroForOne ? step.tickNext - 1 : step.tickNext */\n      tag_188\n      jumpi\n        /* \"contracts/uniswap/UniswapV3Pool.sol\":28934:28938  step */\n      dup1\n        /* \"contracts/uniswap/UniswapV3Pool.sol\":28934:28947  step.tickNext */\n      0x20\n      add\n      mload\n        /* \"contracts/uniswap/UniswapV3Pool.sol\":28901:28947  zeroForOne ? step.tickNext - 1 : step.tickNext */\n      jump(tag_189)\n    tag_188:\n        /* \"contracts/uniswap/UniswapV3Pool.sol\":28930:28931  1 */\n      0x01\n        /* \"contracts/uniswap/UniswapV3Pool.sol\":28914:28918  step */\n      dup2\n        /* \"contracts/uniswap/UniswapV3Pool.sol\":28914:28927  step.tickNext */\n      0x20\n      add\n      mload\n        /* \"contracts/uniswap/UniswapV3Pool.sol\":28914:28931  step.tickNext - 1 */\n      sub\n        /* \"contracts/uniswap/UniswapV3Pool.sol\":28901:28947  zeroForOne ? step.tickNext - 1 : step.tickNext */\n    tag_189:\n        /* \"contracts/uniswap/UniswapV3Pool.sol\":28888:28947  state.tick = zeroForOne ? step.tickNext - 1 : step.tickNext */\n      0x02\n      swap1\n      dup2\n      signextend\n      swap1\n      signextend\n        /* \"contracts/uniswap/UniswapV3Pool.sol\":28888:28898  state.tick */\n      0x60\n      dup4\n      add\n        /* \"contracts/uniswap/UniswapV3Pool.sol\":28888:28947  state.tick = zeroForOne ? step.tickNext - 1 : step.tickNext */\n      mstore\n        /* \"contracts/uniswap/UniswapV3Pool.sol\":27100:29231  if (state.sqrtPriceX96 == step.sqrtPriceNextX96) {... */\n      jump(tag_191)\n    tag_174:\n        /* \"contracts/uniswap/UniswapV3Pool.sol\":28994:28998  step */\n      dup1\n        /* \"contracts/uniswap/UniswapV3Pool.sol\":28994:29016  step.sqrtPriceStartX96 */\n      0x00\n      add\n      mload\n      sub(shl(0xa0, 0x01), 0x01)\n        /* \"contracts/uniswap/UniswapV3Pool.sol\":28972:29016  state.sqrtPriceX96 != step.sqrtPriceStartX96 */\n      and\n        /* \"contracts/uniswap/UniswapV3Pool.sol\":28972:28977  state */\n      dup3\n        /* \"contracts/uniswap/UniswapV3Pool.sol\":28972:28990  state.sqrtPriceX96 */\n      0x40\n      add\n      mload\n      sub(shl(0xa0, 0x01), 0x01)\n        /* \"contracts/uniswap/UniswapV3Pool.sol\":28972:29016  state.sqrtPriceX96 != step.sqrtPriceStartX96 */\n      and\n      eq\n        /* \"contracts/uniswap/UniswapV3Pool.sol\":28968:29231  if (state.sqrtPriceX96 != step.sqrtPriceStartX96) {... */\n      tag_191\n      jumpi\n        /* \"contracts/uniswap/UniswapV3Pool.sol\":29169:29216  TickMath.getTickAtSqrtRatio(state.sqrtPriceX96) */\n      tag_192\n        /* \"contracts/uniswap/UniswapV3Pool.sol\":29197:29202  state */\n      dup3\n        /* \"contracts/uniswap/UniswapV3Pool.sol\":29197:29215  state.sqrtPriceX96 */\n      0x40\n      add\n      mload\n        /* \"contracts/uniswap/UniswapV3Pool.sol\":29169:29196  TickMath.getTickAtSqrtRatio */\n      tag_193\n        /* \"contracts/uniswap/UniswapV3Pool.sol\":29169:29216  TickMath.getTickAtSqrtRatio(state.sqrtPriceX96) */\n      jump\t// in\n    tag_192:\n        /* \"contracts/uniswap/UniswapV3Pool.sol\":29156:29216  state.tick = TickMath.getTickAtSqrtRatio(state.sqrtPriceX96) */\n      0x02\n      swap1\n      dup2\n      signextend\n      swap1\n      signextend\n        /* \"contracts/uniswap/UniswapV3Pool.sol\":29156:29166  state.tick */\n      0x60\n      dup4\n      add\n        /* \"contracts/uniswap/UniswapV3Pool.sol\":29156:29216  state.tick = TickMath.getTickAtSqrtRatio(state.sqrtPriceX96) */\n      mstore\n        /* \"contracts/uniswap/UniswapV3Pool.sol\":28968:29231  if (state.sqrtPriceX96 != step.sqrtPriceStartX96) {... */\n    tag_191:\n        /* \"contracts/uniswap/UniswapV3Pool.sol\":24620:29241  while (state.amountSpecifiedRemaining != 0 && state.sqrtPriceX96 != sqrtPriceLimitX96) {... */\n      pop\n      jump(tag_140)\n    tag_141:\n        /* \"contracts/uniswap/UniswapV3Pool.sol\":29337:29347  slot0Start */\n      dup4\n        /* \"contracts/uniswap/UniswapV3Pool.sol\":29337:29352  slot0Start.tick */\n      0x20\n      add\n      mload\n        /* \"contracts/uniswap/UniswapV3Pool.sol\":29323:29352  state.tick != slot0Start.tick */\n      0x02\n      signextend\n        /* \"contracts/uniswap/UniswapV3Pool.sol\":29323:29328  state */\n      dup2\n        /* \"contracts/uniswap/UniswapV3Pool.sol\":29323:29333  state.tick */\n      0x60\n      add\n      mload\n        /* \"contracts/uniswap/UniswapV3Pool.sol\":29323:29352  state.tick != slot0Start.tick */\n      0x02\n      signextend\n      eq\n        /* \"contracts/uniswap/UniswapV3Pool.sol\":29319:30146  if (state.tick != slot0Start.tick) {... */\n      tag_194\n      jumpi\n        /* \"contracts/uniswap/UniswapV3Pool.sol\":29369:29392  uint16 observationIndex */\n      0x00\n        /* \"contracts/uniswap/UniswapV3Pool.sol\":29394:29423  uint16 observationCardinality */\n      dup1\n        /* \"contracts/uniswap/UniswapV3Pool.sol\":29443:29763  observations.write(... */\n      tag_195\n        /* \"contracts/uniswap/UniswapV3Pool.sol\":29483:29493  slot0Start */\n      dup7\n        /* \"contracts/uniswap/UniswapV3Pool.sol\":29483:29510  slot0Start.observationIndex */\n      0x40\n      add\n      mload\n        /* \"contracts/uniswap/UniswapV3Pool.sol\":29532:29537  cache */\n      dup7\n        /* \"contracts/uniswap/UniswapV3Pool.sol\":29532:29552  cache.blockTimestamp */\n      0x40\n      add\n      mload\n        /* \"contracts/uniswap/UniswapV3Pool.sol\":29574:29584  slot0Start */\n      dup9\n        /* \"contracts/uniswap/UniswapV3Pool.sol\":29574:29589  slot0Start.tick */\n      0x20\n      add\n      mload\n        /* \"contracts/uniswap/UniswapV3Pool.sol\":29611:29616  cache */\n      dup9\n        /* \"contracts/uniswap/UniswapV3Pool.sol\":29611:29631  cache.liquidityStart */\n      0x20\n      add\n      mload\n        /* \"contracts/uniswap/UniswapV3Pool.sol\":29653:29663  slot0Start */\n      dup11\n        /* \"contracts/uniswap/UniswapV3Pool.sol\":29653:29686  slot0Start.observationCardinality */\n      0x60\n      add\n      mload\n        /* \"contracts/uniswap/UniswapV3Pool.sol\":29708:29718  slot0Start */\n      dup12\n        /* \"contracts/uniswap/UniswapV3Pool.sol\":29708:29745  slot0Start.observationCardinalityNext */\n      0x80\n      add\n      mload\n        /* \"contracts/uniswap/UniswapV3Pool.sol\":29443:29455  observations */\n      0x08\n        /* \"contracts/uniswap/UniswapV3Pool.sol\":29443:29461  observations.write */\n      tag_196\n      swap1\n        /* \"contracts/uniswap/UniswapV3Pool.sol\":29443:29763  observations.write(... */\n      swap7\n      swap6\n      swap5\n      swap4\n      swap3\n      swap2\n      swap1\n      0xffffffff\n      and\n      jump\t// in\n    tag_195:\n        /* \"contracts/uniswap/UniswapV3Pool.sol\":29884:29902  state.sqrtPriceX96 */\n      0x40\n      dup6\n      add\n      mload\n        /* \"contracts/uniswap/UniswapV3Pool.sol\":29920:29930  state.tick */\n      0x60\n      dup7\n      add\n      mload\n        /* \"contracts/uniswap/UniswapV3Pool.sol\":29778:29783  slot0 */\n      0x00\n        /* \"contracts/uniswap/UniswapV3Pool.sol\":29777:30018  (slot0.sqrtPriceX96, slot0.tick, slot0.observationIndex, slot0.observationCardinality) = (... */\n      dup1\n      sload\n      0xffffffffff0000ffffffffffffffffffffffffffffffffffffffffffffffffff\n      and\n      0x0100000000000000000000000000000000000000000000000000\n      0xffff\n      swap6\n      dup7\n      and\n      mul\n      or\n      0xffffffffffffff0000ffffffffffffffffffffffffffffffffffffffffffffff\n      and\n      0x010000000000000000000000000000000000000000000000\n      swap6\n      swap1\n      swap5\n      and\n      swap5\n      swap1\n      swap5\n      mul\n      swap3\n      swap1\n      swap3\n      or\n      0xffffffffffffffffff000000ffffffffffffffffffffffffffffffffffffffff\n      and\n      0x010000000000000000000000000000000000000000\n      0xffffff\n      0x02\n      swap5\n      swap1\n      swap5\n      signextend\n      swap4\n      swap1\n      swap4\n      and\n      swap3\n      swap1\n      swap3\n      mul\n      swap2\n      swap1\n      swap2\n      or\n      0xffffffffffffffffffffffff0000000000000000000000000000000000000000\n      and\n      sub(shl(0xa0, 0x01), 0x01)\n      swap1\n      swap2\n      and\n      or\n      swap1\n      sstore\n      pop\n        /* \"contracts/uniswap/UniswapV3Pool.sol\":29319:30146  if (state.tick != slot0Start.tick) {... */\n      tag_197\n      swap1\n      pop\n      jump\n    tag_194:\n        /* \"contracts/uniswap/UniswapV3Pool.sol\":30117:30135  state.sqrtPriceX96 */\n      0x40\n      dup2\n      add\n      mload\n        /* \"contracts/uniswap/UniswapV3Pool.sol\":30096:30101  slot0 */\n      0x00\n        /* \"contracts/uniswap/UniswapV3Pool.sol\":30096:30135  slot0.sqrtPriceX96 = state.sqrtPriceX96 */\n      dup1\n      sload\n      0xffffffffffffffffffffffff0000000000000000000000000000000000000000\n      and\n      sub(shl(0xa0, 0x01), 0x01)\n      swap1\n      swap3\n      and\n      swap2\n      swap1\n      swap2\n      or\n      swap1\n      sstore\n        /* \"contracts/uniswap/UniswapV3Pool.sol\":29319:30146  if (state.tick != slot0Start.tick) {... */\n    tag_197:\n        /* \"contracts/uniswap/UniswapV3Pool.sol\":30226:30231  state */\n      dup1\n        /* \"contracts/uniswap/UniswapV3Pool.sol\":30226:30241  state.liquidity */\n      0xc0\n      add\n      mload\n        /* \"contracts/uniswap/UniswapV3Pool.sol\":30202:30241  cache.liquidityStart != state.liquidity */\n      0xffffffffffffffffffffffffffffffff\n      and\n        /* \"contracts/uniswap/UniswapV3Pool.sol\":30202:30207  cache */\n      dup4\n        /* \"contracts/uniswap/UniswapV3Pool.sol\":30202:30222  cache.liquidityStart */\n      0x20\n      add\n      mload\n        /* \"contracts/uniswap/UniswapV3Pool.sol\":30202:30241  cache.liquidityStart != state.liquidity */\n      0xffffffffffffffffffffffffffffffff\n      and\n      eq\n        /* \"contracts/uniswap/UniswapV3Pool.sol\":30198:30270  if (cache.liquidityStart != state.liquidity) liquidity = state.liquidity */\n      tag_198\n      jumpi\n        /* \"contracts/uniswap/UniswapV3Pool.sol\":30255:30270  state.liquidity */\n      0xc0\n      dup2\n      add\n      mload\n        /* \"contracts/uniswap/UniswapV3Pool.sol\":30243:30252  liquidity */\n      0x04\n        /* \"contracts/uniswap/UniswapV3Pool.sol\":30243:30270  liquidity = state.liquidity */\n      dup1\n      sload\n      0xffffffffffffffffffffffffffffffff00000000000000000000000000000000\n      and\n      0xffffffffffffffffffffffffffffffff\n      swap1\n      swap3\n      and\n      swap2\n      swap1\n      swap2\n      or\n      swap1\n      sstore\n        /* \"contracts/uniswap/UniswapV3Pool.sol\":30198:30270  if (cache.liquidityStart != state.liquidity) liquidity = state.liquidity */\n    tag_198:\n        /* \"contracts/uniswap/UniswapV3Pool.sol\":30452:30462  zeroForOne */\n      dup11\n        /* \"contracts/uniswap/UniswapV3Pool.sol\":30448:30778  if (zeroForOne) {... */\n      iszero\n      tag_199\n      jumpi\n        /* \"contracts/uniswap/UniswapV3Pool.sol\":30501:30526  state.feeGrowthGlobalX128 */\n      0x80\n      dup2\n      add\n      mload\n        /* \"contracts/uniswap/UniswapV3Pool.sol\":30478:30498  feeGrowthGlobal0X128 */\n      0x01\n        /* \"contracts/uniswap/UniswapV3Pool.sol\":30478:30526  feeGrowthGlobal0X128 = state.feeGrowthGlobalX128 */\n      sstore\n        /* \"contracts/uniswap/UniswapV3Pool.sol\":30544:30561  state.protocolFee */\n      0xa0\n      dup2\n      add\n      mload\n        /* \"contracts/uniswap/UniswapV3Pool.sol\":30544:30565  state.protocolFee > 0 */\n      0xffffffffffffffffffffffffffffffff\n      and\n      iszero\n        /* \"contracts/uniswap/UniswapV3Pool.sol\":30540:30607  if (state.protocolFee > 0) protocolFees.token0 += state.protocolFee */\n      tag_200\n      jumpi\n        /* \"contracts/uniswap/UniswapV3Pool.sol\":30590:30607  state.protocolFee */\n      0xa0\n      dup2\n      add\n      mload\n        /* \"contracts/uniswap/UniswapV3Pool.sol\":30567:30579  protocolFees */\n      0x03\n        /* \"contracts/uniswap/UniswapV3Pool.sol\":30567:30607  protocolFees.token0 += state.protocolFee */\n      dup1\n      sload\n      0xffffffffffffffffffffffffffffffff00000000000000000000000000000000\n      dup2\n      and\n      0xffffffffffffffffffffffffffffffff\n      swap2\n      dup3\n      and\n      swap1\n      swap4\n      add\n      and\n      swap2\n      swap1\n      swap2\n      or\n      swap1\n      sstore\n        /* \"contracts/uniswap/UniswapV3Pool.sol\":30540:30607  if (state.protocolFee > 0) protocolFees.token0 += state.protocolFee */\n    tag_200:\n        /* \"contracts/uniswap/UniswapV3Pool.sol\":30448:30778  if (zeroForOne) {... */\n      jump(tag_202)\n    tag_199:\n        /* \"contracts/uniswap/UniswapV3Pool.sol\":30661:30686  state.feeGrowthGlobalX128 */\n      0x80\n      dup2\n      add\n      mload\n        /* \"contracts/uniswap/UniswapV3Pool.sol\":30638:30658  feeGrowthGlobal1X128 */\n      0x02\n        /* \"contracts/uniswap/UniswapV3Pool.sol\":30638:30686  feeGrowthGlobal1X128 = state.feeGrowthGlobalX128 */\n      sstore\n        /* \"contracts/uniswap/UniswapV3Pool.sol\":30704:30721  state.protocolFee */\n      0xa0\n      dup2\n      add\n      mload\n        /* \"contracts/uniswap/UniswapV3Pool.sol\":30704:30725  state.protocolFee > 0 */\n      0xffffffffffffffffffffffffffffffff\n      and\n      iszero\n        /* \"contracts/uniswap/UniswapV3Pool.sol\":30700:30767  if (state.protocolFee > 0) protocolFees.token1 += state.protocolFee */\n      tag_202\n      jumpi\n        /* \"contracts/uniswap/UniswapV3Pool.sol\":30750:30767  state.protocolFee */\n      0xa0\n      dup2\n      add\n      mload\n        /* \"contracts/uniswap/UniswapV3Pool.sol\":30727:30739  protocolFees */\n      0x03\n        /* \"contracts/uniswap/UniswapV3Pool.sol\":30727:30767  protocolFees.token1 += state.protocolFee */\n      dup1\n      sload\n      0xffffffffffffffffffffffffffffffff\n      dup1\n      dup3\n      and\n      0x0100000000000000000000000000000000\n      swap3\n      dup4\n      swap1\n      div\n      dup3\n      and\n      swap1\n      swap5\n      add\n      and\n      mul\n      swap2\n      swap1\n      swap2\n      or\n      swap1\n      sstore\n        /* \"contracts/uniswap/UniswapV3Pool.sol\":30700:30767  if (state.protocolFee > 0) protocolFees.token1 += state.protocolFee */\n    tag_202:\n        /* \"contracts/uniswap/UniswapV3Pool.sol\":30823:30833  exactInput */\n      dup2\n        /* \"contracts/uniswap/UniswapV3Pool.sol\":30809:30833  zeroForOne == exactInput */\n      iszero\n      iszero\n        /* \"contracts/uniswap/UniswapV3Pool.sol\":30809:30819  zeroForOne */\n      dup12\n        /* \"contracts/uniswap/UniswapV3Pool.sol\":30809:30833  zeroForOne == exactInput */\n      iszero\n      iszero\n      eq\n        /* \"contracts/uniswap/UniswapV3Pool.sol\":30809:31011  zeroForOne == exactInput... */\n      tag_203\n      jumpi\n        /* \"contracts/uniswap/UniswapV3Pool.sol\":30938:30960  state.amountCalculated */\n      0x20\n      dup2\n      add\n      mload\n        /* \"contracts/uniswap/UniswapV3Pool.sol\":30980:31010  state.amountSpecifiedRemaining */\n      dup2\n      mload\n        /* \"contracts/uniswap/UniswapV3Pool.sol\":30962:31010  amountSpecified - state.amountSpecifiedRemaining */\n      dup12\n      sub\n        /* \"contracts/uniswap/UniswapV3Pool.sol\":30809:31011  zeroForOne == exactInput... */\n      jump(tag_204)\n    tag_203:\n        /* \"contracts/uniswap/UniswapV3Pool.sol\":30867:30872  state */\n      dup1\n        /* \"contracts/uniswap/UniswapV3Pool.sol\":30867:30897  state.amountSpecifiedRemaining */\n      0x00\n      add\n      mload\n        /* \"contracts/uniswap/UniswapV3Pool.sol\":30849:30864  amountSpecified */\n      dup11\n        /* \"contracts/uniswap/UniswapV3Pool.sol\":30849:30897  amountSpecified - state.amountSpecifiedRemaining */\n      sub\n        /* \"contracts/uniswap/UniswapV3Pool.sol\":30899:30904  state */\n      dup2\n        /* \"contracts/uniswap/UniswapV3Pool.sol\":30899:30921  state.amountCalculated */\n      0x20\n      add\n      mload\n        /* \"contracts/uniswap/UniswapV3Pool.sol\":30809:31011  zeroForOne == exactInput... */\n    tag_204:\n        /* \"contracts/uniswap/UniswapV3Pool.sol\":30788:31011  (amount0, amount1) = zeroForOne == exactInput... */\n      swap1\n      swap7\n      pop\n      swap5\n      pop\n        /* \"contracts/uniswap/UniswapV3Pool.sol\":31070:31754  if (zeroForOne) {... */\n      dup11\n      iszero\n      tag_205\n      jumpi\n        /* \"contracts/uniswap/UniswapV3Pool.sol\":31114:31115  0 */\n      0x00\n        /* \"contracts/uniswap/UniswapV3Pool.sol\":31104:31111  amount1 */\n      dup6\n        /* \"contracts/uniswap/UniswapV3Pool.sol\":31104:31115  amount1 < 0 */\n      slt\n        /* \"contracts/uniswap/UniswapV3Pool.sol\":31100:31182  if (amount1 < 0) TransferHelper.safeTransfer(token1, recipient, uint256(-amount1)) */\n      iszero\n      tag_207\n      jumpi\n        /* \"contracts/uniswap/UniswapV3Pool.sol\":31117:31182  TransferHelper.safeTransfer(token1, recipient, uint256(-amount1)) */\n      tag_207\n        /* \"contracts/uniswap/UniswapV3Pool.sol\":31145:31151  token1 */\n      immutable(\"0x712adca22095011a9de0b4aa84648bf2bea2744bd9326ede31e43d2a71662846\")\n        /* \"contracts/uniswap/UniswapV3Pool.sol\":31153:31162  recipient */\n      dup14\n        /* \"contracts/uniswap/UniswapV3Pool.sol\":31173:31180  amount1 */\n      dup8\n        /* \"contracts/uniswap/UniswapV3Pool.sol\":31172:31180  -amount1 */\n      0x00\n      sub\n        /* \"contracts/uniswap/UniswapV3Pool.sol\":31117:31144  TransferHelper.safeTransfer */\n      tag_208\n        /* \"contracts/uniswap/UniswapV3Pool.sol\":31117:31182  TransferHelper.safeTransfer(token1, recipient, uint256(-amount1)) */\n      jump\t// in\n    tag_207:\n        /* \"contracts/uniswap/UniswapV3Pool.sol\":31197:31219  uint256 balance0Before */\n      0x00\n        /* \"contracts/uniswap/UniswapV3Pool.sol\":31222:31232  balance0() */\n      tag_209\n        /* \"contracts/uniswap/UniswapV3Pool.sol\":31222:31230  balance0 */\n      tag_210\n        /* \"contracts/uniswap/UniswapV3Pool.sol\":31222:31232  balance0() */\n      jump\t// in\n    tag_209:\n        /* \"contracts/uniswap/UniswapV3Pool.sol\":31197:31232  uint256 balance0Before = balance0() */\n      swap1\n      pop\n        /* \"contracts/uniswap/UniswapV3Pool.sol\":31269:31279  msg.sender */\n      caller\n      sub(shl(0xa0, 0x01), 0x01)\n        /* \"contracts/uniswap/UniswapV3Pool.sol\":31246:31302  IUniswapV3SwapCallback(msg.sender).uniswapV3SwapCallback */\n      and\n      0xfa461e33\n        /* \"contracts/uniswap/UniswapV3Pool.sol\":31303:31310  amount0 */\n      dup9\n        /* \"contracts/uniswap/UniswapV3Pool.sol\":31312:31319  amount1 */\n      dup9\n        /* \"contracts/uniswap/UniswapV3Pool.sol\":31321:31325  data */\n      dup13\n      dup13\n        /* \"contracts/uniswap/UniswapV3Pool.sol\":31246:31326  IUniswapV3SwapCallback(msg.sender).uniswapV3SwapCallback(amount0, amount1, data) */\n      mload(0x40)\n      dup6\n      0xffffffff\n      and\n      0xe0\n      shl\n      dup2\n      mstore\n      0x04\n      add\n      dup1\n      dup6\n      dup2\n      mstore\n      0x20\n      add\n      dup5\n      dup2\n      mstore\n      0x20\n      add\n      dup1\n      0x20\n      add\n      dup3\n      dup2\n      sub\n      dup3\n      mstore\n      dup5\n      dup5\n      dup3\n      dup2\n      dup2\n      mstore\n      0x20\n      add\n      swap3\n      pop\n      dup1\n      dup3\n      dup5\n      calldatacopy\n      0x00\n      dup2\n      dup5\n      add\n      mstore\n      not(0x1f)\n      0x1f\n      dup3\n      add\n      and\n      swap1\n      pop\n      dup1\n      dup4\n      add\n      swap3\n      pop\n      pop\n      pop\n      swap6\n      pop\n      pop\n      pop\n      pop\n      pop\n      pop\n      0x00\n      mload(0x40)\n      dup1\n      dup4\n      sub\n      dup2\n      0x00\n      dup8\n      dup1\n      extcodesize\n      iszero\n      dup1\n      iszero\n      tag_211\n      jumpi\n      0x00\n      dup1\n      revert\n    tag_211:\n      pop\n      gas\n      call\n      iszero\n      dup1\n      iszero\n      tag_213\n      jumpi\n      returndatasize\n      0x00\n      dup1\n      returndatacopy\n      revert(0x00, returndatasize)\n    tag_213:\n      pop\n      pop\n      pop\n      pop\n        /* \"contracts/uniswap/UniswapV3Pool.sol\":31388:31398  balance0() */\n      tag_214\n        /* \"contracts/uniswap/UniswapV3Pool.sol\":31388:31396  balance0 */\n      tag_210\n        /* \"contracts/uniswap/UniswapV3Pool.sol\":31388:31398  balance0() */\n      jump\t// in\n    tag_214:\n        /* \"contracts/uniswap/UniswapV3Pool.sol\":31348:31384  balance0Before.add(uint256(amount0)) */\n      tag_215\n        /* \"contracts/uniswap/UniswapV3Pool.sol\":31348:31362  balance0Before */\n      dup3\n        /* \"contracts/uniswap/UniswapV3Pool.sol\":31375:31382  amount0 */\n      dup10\n        /* \"contracts/uniswap/UniswapV3Pool.sol\":31348:31366  balance0Before.add */\n      tag_216\n        /* \"contracts/uniswap/UniswapV3Pool.sol\":31348:31384  balance0Before.add(uint256(amount0)) */\n      jump\t// in\n    tag_215:\n        /* \"contracts/uniswap/UniswapV3Pool.sol\":31348:31398  balance0Before.add(uint256(amount0)) <= balance0() */\n      gt\n      iszero\n        /* \"contracts/uniswap/UniswapV3Pool.sol\":31340:31406  require(balance0Before.add(uint256(amount0)) <= balance0(), 'IIA') */\n      tag_217\n      jumpi\n      0x00\n      dup1\n      revert\n    tag_217:\n        /* \"contracts/uniswap/UniswapV3Pool.sol\":31070:31754  if (zeroForOne) {... */\n      pop\n      jump(tag_218)\n    tag_205:\n        /* \"contracts/uniswap/UniswapV3Pool.sol\":31451:31452  0 */\n      0x00\n        /* \"contracts/uniswap/UniswapV3Pool.sol\":31441:31448  amount0 */\n      dup7\n        /* \"contracts/uniswap/UniswapV3Pool.sol\":31441:31452  amount0 < 0 */\n      slt\n        /* \"contracts/uniswap/UniswapV3Pool.sol\":31437:31519  if (amount0 < 0) TransferHelper.safeTransfer(token0, recipient, uint256(-amount0)) */\n      iszero\n      tag_220\n      jumpi\n        /* \"contracts/uniswap/UniswapV3Pool.sol\":31454:31519  TransferHelper.safeTransfer(token0, recipient, uint256(-amount0)) */\n      tag_220\n        /* \"contracts/uniswap/UniswapV3Pool.sol\":31482:31488  token0 */\n      immutable(\"0xb811eb8190fe00dc85563459f7e9e4ba4c2ef31ddac91e9e2d37d1e7e1b1d5bc\")\n        /* \"contracts/uniswap/UniswapV3Pool.sol\":31490:31499  recipient */\n      dup14\n        /* \"contracts/uniswap/UniswapV3Pool.sol\":31510:31517  amount0 */\n      dup9\n        /* \"contracts/uniswap/UniswapV3Pool.sol\":31509:31517  -amount0 */\n      0x00\n      sub\n        /* \"contracts/uniswap/UniswapV3Pool.sol\":31454:31481  TransferHelper.safeTransfer */\n      tag_208\n        /* \"contracts/uniswap/UniswapV3Pool.sol\":31454:31519  TransferHelper.safeTransfer(token0, recipient, uint256(-amount0)) */\n      jump\t// in\n    tag_220:\n        /* \"contracts/uniswap/UniswapV3Pool.sol\":31534:31556  uint256 balance1Before */\n      0x00\n        /* \"contracts/uniswap/UniswapV3Pool.sol\":31559:31569  balance1() */\n      tag_221\n        /* \"contracts/uniswap/UniswapV3Pool.sol\":31559:31567  balance1 */\n      tag_222\n        /* \"contracts/uniswap/UniswapV3Pool.sol\":31559:31569  balance1() */\n      jump\t// in\n    tag_221:\n        /* \"contracts/uniswap/UniswapV3Pool.sol\":31534:31569  uint256 balance1Before = balance1() */\n      swap1\n      pop\n        /* \"contracts/uniswap/UniswapV3Pool.sol\":31606:31616  msg.sender */\n      caller\n      sub(shl(0xa0, 0x01), 0x01)\n        /* \"contracts/uniswap/UniswapV3Pool.sol\":31583:31639  IUniswapV3SwapCallback(msg.sender).uniswapV3SwapCallback */\n      and\n      0xfa461e33\n        /* \"contracts/uniswap/UniswapV3Pool.sol\":31640:31647  amount0 */\n      dup9\n        /* \"contracts/uniswap/UniswapV3Pool.sol\":31649:31656  amount1 */\n      dup9\n        /* \"contracts/uniswap/UniswapV3Pool.sol\":31658:31662  data */\n      dup13\n      dup13\n        /* \"contracts/uniswap/UniswapV3Pool.sol\":31583:31663  IUniswapV3SwapCallback(msg.sender).uniswapV3SwapCallback(amount0, amount1, data) */\n      mload(0x40)\n      dup6\n      0xffffffff\n      and\n      0xe0\n      shl\n      dup2\n      mstore\n      0x04\n      add\n      dup1\n      dup6\n      dup2\n      mstore\n      0x20\n      add\n      dup5\n      dup2\n      mstore\n      0x20\n      add\n      dup1\n      0x20\n      add\n      dup3\n      dup2\n      sub\n      dup3\n      mstore\n      dup5\n      dup5\n      dup3\n      dup2\n      dup2\n      mstore\n      0x20\n      add\n      swap3\n      pop\n      dup1\n      dup3\n      dup5\n      calldatacopy\n      0x00\n      dup2\n      dup5\n      add\n      mstore\n      not(0x1f)\n      0x1f\n      dup3\n      add\n      and\n      swap1\n      pop\n      dup1\n      dup4\n      add\n      swap3\n      pop\n      pop\n      pop\n      swap6\n      pop\n      pop\n      pop\n      pop\n      pop\n      pop\n      0x00\n      mload(0x40)\n      dup1\n      dup4\n      sub\n      dup2\n      0x00\n      dup8\n      dup1\n      extcodesize\n      iszero\n      dup1\n      iszero\n      tag_223\n      jumpi\n      0x00\n      dup1\n      revert\n    tag_223:\n      pop\n      gas\n      call\n      iszero\n      dup1\n      iszero\n      tag_225\n      jumpi\n      returndatasize\n      0x00\n      dup1\n      returndatacopy\n      revert(0x00, returndatasize)\n    tag_225:\n      pop\n      pop\n      pop\n      pop\n        /* \"contracts/uniswap/UniswapV3Pool.sol\":31725:31735  balance1() */\n      tag_226\n        /* \"contracts/uniswap/UniswapV3Pool.sol\":31725:31733  balance1 */\n      tag_222\n        /* \"contracts/uniswap/UniswapV3Pool.sol\":31725:31735  balance1() */\n      jump\t// in\n    tag_226:\n        /* \"contracts/uniswap/UniswapV3Pool.sol\":31685:31721  balance1Before.add(uint256(amount1)) */\n      tag_227\n        /* \"contracts/uniswap/UniswapV3Pool.sol\":31685:31699  balance1Before */\n      dup3\n        /* \"contracts/uniswap/UniswapV3Pool.sol\":31712:31719  amount1 */\n      dup9\n        /* \"contracts/uniswap/UniswapV3Pool.sol\":31685:31703  balance1Before.add */\n      tag_216\n        /* \"contracts/uniswap/UniswapV3Pool.sol\":31685:31721  balance1Before.add(uint256(amount1)) */\n      jump\t// in\n    tag_227:\n        /* \"contracts/uniswap/UniswapV3Pool.sol\":31685:31735  balance1Before.add(uint256(amount1)) <= balance1() */\n      gt\n      iszero\n        /* \"contracts/uniswap/UniswapV3Pool.sol\":31677:31743  require(balance1Before.add(uint256(amount1)) <= balance1(), 'IIA') */\n      tag_228\n      jumpi\n      0x00\n      dup1\n      revert\n    tag_228:\n        /* \"contracts/uniswap/UniswapV3Pool.sol\":31070:31754  if (zeroForOne) {... */\n      pop\n    tag_218:\n        /* \"contracts/uniswap/UniswapV3Pool.sol\":31815:31833  state.sqrtPriceX96 */\n      0x40\n      dup1\n      dup3\n      add\n      mload\n        /* \"contracts/uniswap/UniswapV3Pool.sol\":31835:31850  state.liquidity */\n      0xc0\n      dup4\n      add\n      mload\n        /* \"contracts/uniswap/UniswapV3Pool.sol\":31852:31862  state.tick */\n      0x60\n      dup1\n      dup6\n      add\n      mload\n        /* \"contracts/uniswap/UniswapV3Pool.sol\":31769:31863  Swap(msg.sender, recipient, amount0, amount1, state.sqrtPriceX96, state.liquidity, state.tick) */\n      dup5\n      mload\n      dup12\n      dup2\n      mstore\n      0x20\n      dup2\n      add\n      dup12\n      swap1\n      mstore\n      sub(shl(0xa0, 0x01), 0x01)\n      swap5\n      dup6\n      and\n      dup2\n      dup8\n      add\n      mstore\n      0xffffffffffffffffffffffffffffffff\n      swap1\n      swap4\n      and\n      swap2\n      dup4\n      add\n      swap2\n      swap1\n      swap2\n      mstore\n      0x02\n      signextend\n      0x80\n      dup3\n      add\n      mstore\n      swap2\n      mload\n      swap1\n      dup15\n      and\n      swap2\n        /* \"contracts/uniswap/UniswapV3Pool.sol\":31774:31784  msg.sender */\n      caller\n      swap2\n        /* \"contracts/uniswap/UniswapV3Pool.sol\":31769:31863  Swap(msg.sender, recipient, amount0, amount1, state.sqrtPriceX96, state.liquidity, state.tick) */\n      0xc42079f94a6350d7e6235f29174924f928cc2ac818eb64fed8004e115fbcca67\n      swap2\n      dup2\n      swap1\n      sub\n      0xa0\n      add\n      swap1\n      log3\n      pop\n      pop\n        /* \"contracts/uniswap/UniswapV3Pool.sol\":31873:31878  slot0 */\n      0x00\n        /* \"contracts/uniswap/UniswapV3Pool.sol\":31873:31894  slot0.unlocked = true */\n      dup1\n      sload\n      0xff00ffffffffffffffffffffffffffffffffffffffffffffffffffffffffffff\n      and\n      0x01000000000000000000000000000000000000000000000000000000000000\n      or\n      swap1\n      sstore\n      pop\n        /* \"contracts/uniswap/UniswapV3Pool.sol\":22899:31901  function swap(... */\n      swap2\n      swap9\n      swap1\n      swap8\n      pop\n      swap6\n      pop\n      pop\n      pop\n      pop\n      pop\n      pop\n      jump\t// out\n        /* \"contracts/uniswap/UniswapV3Pool.sol\":3176:3209  uint128 public override liquidity */\n    tag_45:\n      and(0xffffffffffffffffffffffffffffffff, sload(0x04))\n      dup2\n      jump\t// out\n        /* \"contracts/uniswap/UniswapV3Pool.sol\":3088:3129  ProtocolFees public override protocolFees */\n    tag_47:\n      sload(0x03)\n      0xffffffffffffffffffffffffffffffff\n      dup1\n      dup3\n      and\n      swap2\n      0x0100000000000000000000000000000000\n      swap1\n      div\n      and\n      dup3\n      jump\t// out\n        /* \"contracts/uniswap/UniswapV3Pool.sol\":3554:3608  Oracle.Observation[65535] public override observations */\n    tag_50:\n      0x08\n      dup2\n      0xffff\n      dup2\n      lt\n      tag_229\n      jumpi\n      0x00\n      dup1\n      revert\n    tag_229:\n      add\n      sload\n      0xffffffff\n      dup2\n      and\n      swap2\n      pop\n      0x0100000000\n      dup2\n      div\n      0x06\n      signextend\n      swap1\n      0x010000000000000000000000\n      dup2\n      div\n      sub(shl(0xa0, 0x01), 0x01)\n      and\n      swap1\n      0x0100000000000000000000000000000000000000000000000000000000000000\n      swap1\n      div\n      0xff\n      and\n      dup5\n      jump\t// out\n        /* \"contracts/uniswap/UniswapV3Pool.sol\":9623:10283  function increaseObservationCardinalityNext(uint16 observationCardinalityNext)... */\n    tag_53:\n        /* \"contracts/uniswap/UniswapV3Pool.sol\":3997:4002  slot0 */\n      0x00\n        /* \"contracts/uniswap/UniswapV3Pool.sol\":3997:4011  slot0.unlocked */\n      sload\n      0x01000000000000000000000000000000000000000000000000000000000000\n      swap1\n      div\n      0xff\n      and\n        /* \"contracts/uniswap/UniswapV3Pool.sol\":3989:4019  require(slot0.unlocked, 'LOK') */\n      tag_232\n      jumpi\n      0x00\n      dup1\n      revert\n    tag_232:\n        /* \"contracts/uniswap/UniswapV3Pool.sol\":4046:4051  false */\n      0x00\n        /* \"contracts/uniswap/UniswapV3Pool.sol\":4029:4051  slot0.unlocked = false */\n      dup1\n      sload\n      0xff00ffffffffffffffffffffffffffffffffffffffffffffffffffffffffffff\n      and\n      swap1\n      sstore\n        /* \"contracts/uniswap/NoDelegateCall.sol\":1036:1058  checkNotDelegateCall() */\n      tag_234\n        /* \"contracts/uniswap/NoDelegateCall.sol\":1036:1056  checkNotDelegateCall */\n      tag_124\n        /* \"contracts/uniswap/NoDelegateCall.sol\":1036:1058  checkNotDelegateCall() */\n      jump\t// in\n    tag_234:\n        /* \"contracts/uniswap/UniswapV3Pool.sol\":9786:9822  uint16 observationCardinalityNextOld */\n      0x00\n        /* \"contracts/uniswap/UniswapV3Pool.sol\":9825:9857  slot0.observationCardinalityNext */\n      dup1\n      sload\n      0x01000000000000000000000000000000000000000000000000000000\n      swap1\n      div\n      0xffff\n      and\n      swap1\n        /* \"contracts/uniswap/UniswapV3Pool.sol\":9935:10011  observations.grow(observationCardinalityNextOld, observationCardinalityNext) */\n      tag_236\n        /* \"contracts/uniswap/UniswapV3Pool.sol\":9935:9947  observations */\n      0x08\n        /* \"contracts/uniswap/UniswapV3Pool.sol\":9825:9857  slot0.observationCardinalityNext */\n      dup4\n        /* \"contracts/uniswap/UniswapV3Pool.sol\":9984:10010  observationCardinalityNext */\n      dup6\n        /* \"contracts/uniswap/UniswapV3Pool.sol\":9935:9952  observations.grow */\n      tag_237\n        /* \"contracts/uniswap/UniswapV3Pool.sol\":9935:10011  observations.grow(observationCardinalityNextOld, observationCardinalityNext) */\n      jump\t// in\n    tag_236:\n        /* \"contracts/uniswap/UniswapV3Pool.sol\":10021:10026  slot0 */\n      0x00\n        /* \"contracts/uniswap/UniswapV3Pool.sol\":10021:10085  slot0.observationCardinalityNext = observationCardinalityNextNew */\n      dup1\n      sload\n      0xffff\n      dup1\n      dup5\n      and\n      0x01000000000000000000000000000000000000000000000000000000\n      dup2\n      mul\n      0xffffff0000ffffffffffffffffffffffffffffffffffffffffffffffffffffff\n      swap1\n      swap4\n      and\n      swap3\n      swap1\n      swap3\n      or\n      swap1\n      swap3\n      sstore\n        /* \"contracts/uniswap/UniswapV3Pool.sol\":9884:10011  uint16 observationCardinalityNextNew =... */\n      swap2\n      swap3\n      pop\n        /* \"contracts/uniswap/UniswapV3Pool.sol\":10099:10161  observationCardinalityNextOld != observationCardinalityNextNew */\n      dup4\n      and\n      eq\n        /* \"contracts/uniswap/UniswapV3Pool.sol\":10095:10276  if (observationCardinalityNextOld != observationCardinalityNextNew)... */\n      tag_238\n      jumpi\n        /* \"contracts/uniswap/UniswapV3Pool.sol\":10180:10276  IncreaseObservationCardinalityNext(observationCardinalityNextOld, observationCardinalityNextNew) */\n      0x40\n      dup1\n      mload\n      0xffff\n      dup1\n      dup6\n      and\n      dup3\n      mstore\n      dup4\n      and\n      0x20\n      dup3\n      add\n      mstore\n      dup2\n      mload\n      0xac49e518f90a358f652e4400164f05a5d8f7e35e7747279bc3a93dbf584e125a\n      swap3\n      swap2\n      dup2\n      swap1\n      sub\n      swap1\n      swap2\n      add\n      swap1\n      log1\n        /* \"contracts/uniswap/UniswapV3Pool.sol\":10095:10276  if (observationCardinalityNextOld != observationCardinalityNextNew)... */\n    tag_238:\n      pop\n      pop\n        /* \"contracts/uniswap/UniswapV3Pool.sol\":4072:4077  slot0 */\n      0x00\n        /* \"contracts/uniswap/UniswapV3Pool.sol\":4072:4093  slot0.unlocked = true */\n      dup1\n      sload\n      0xff00ffffffffffffffffffffffffffffffffffffffffffffffffffffffffffff\n      and\n      0x01000000000000000000000000000000000000000000000000000000000000\n      or\n      swap1\n      sstore\n      pop\n        /* \"contracts/uniswap/UniswapV3Pool.sol\":9623:10283  function increaseObservationCardinalityNext(uint16 observationCardinalityNext)... */\n      jump\t// out\n        /* \"contracts/uniswap/UniswapV3Pool.sol\":2697:2724  Slot0 public override slot0 */\n    tag_55:\n      sload(0x00)\n      sub(shl(0xa0, 0x01), 0x01)\n      dup2\n      and\n      swap1\n      0x010000000000000000000000000000000000000000\n      dup2\n      div\n      0x02\n      signextend\n      swap1\n      0xffff\n      0x010000000000000000000000000000000000000000000000\n      dup3\n      div\n      dup2\n      and\n      swap2\n      0x0100000000000000000000000000000000000000000000000000\n      dup2\n      div\n      dup3\n      and\n      swap2\n      0x01000000000000000000000000000000000000000000000000000000\n      dup3\n      div\n      and\n      swap1\n      0xff\n      0x010000000000000000000000000000000000000000000000000000000000\n      dup3\n      div\n      dup2\n      and\n      swap2\n      0x01000000000000000000000000000000000000000000000000000000000000\n      swap1\n      div\n      and\n      dup8\n      jump\t// out\n        /* \"contracts/uniswap/UniswapV3Pool.sol\":17529:18717  function mint(... */\n    tag_61:\n        /* \"contracts/uniswap/UniswapV3Pool.sol\":17711:17726  uint256 amount0 */\n      0x00\n        /* \"contracts/uniswap/UniswapV3Pool.sol\":3997:4011  slot0.unlocked */\n      dup1\n      sload\n        /* \"contracts/uniswap/UniswapV3Pool.sol\":17711:17726  uint256 amount0 */\n      dup2\n      swap1\n        /* \"contracts/uniswap/UniswapV3Pool.sol\":3997:4011  slot0.unlocked */\n      0x01000000000000000000000000000000000000000000000000000000000000\n      swap1\n      div\n      0xff\n      and\n        /* \"contracts/uniswap/UniswapV3Pool.sol\":3989:4019  require(slot0.unlocked, 'LOK') */\n      tag_240\n      jumpi\n      0x00\n      dup1\n      revert\n    tag_240:\n        /* \"contracts/uniswap/UniswapV3Pool.sol\":4046:4051  false */\n      0x00\n        /* \"contracts/uniswap/UniswapV3Pool.sol\":4029:4051  slot0.unlocked = false */\n      dup1\n      sload\n      0xff00ffffffffffffffffffffffffffffffffffffffffffffffffffffffffffff\n      and\n      swap1\n      sstore\n        /* \"contracts/uniswap/UniswapV3Pool.sol\":17763:17773  amount > 0 */\n      0xffffffffffffffffffffffffffffffff\n      dup6\n      and\n        /* \"contracts/uniswap/UniswapV3Pool.sol\":17755:17774  require(amount > 0) */\n      tag_242\n      jumpi\n      0x00\n      dup1\n      revert\n    tag_242:\n        /* \"contracts/uniswap/UniswapV3Pool.sol\":17787:17804  int256 amount0Int */\n      0x00\n        /* \"contracts/uniswap/UniswapV3Pool.sol\":17806:17823  int256 amount1Int */\n      dup1\n        /* \"contracts/uniswap/UniswapV3Pool.sol\":17839:18111  _modifyPosition(... */\n      tag_243\n        /* \"contracts/uniswap/UniswapV3Pool.sol\":17872:18097  ModifyPositionParams({... */\n      mload(0x40)\n      dup1\n      0x80\n      add\n      0x40\n      mstore\n      dup1\n        /* \"contracts/uniswap/UniswapV3Pool.sol\":17922:17931  recipient */\n      dup13\n      sub(shl(0xa0, 0x01), 0x01)\n        /* \"contracts/uniswap/UniswapV3Pool.sol\":17872:18097  ModifyPositionParams({... */\n      and\n      dup2\n      mstore\n      0x20\n      add\n        /* \"contracts/uniswap/UniswapV3Pool.sol\":17964:17973  tickLower */\n      dup12\n        /* \"contracts/uniswap/UniswapV3Pool.sol\":17872:18097  ModifyPositionParams({... */\n      0x02\n      signextend\n      dup2\n      mstore\n      0x20\n      add\n        /* \"contracts/uniswap/UniswapV3Pool.sol\":18006:18015  tickUpper */\n      dup11\n        /* \"contracts/uniswap/UniswapV3Pool.sol\":17872:18097  ModifyPositionParams({... */\n      0x02\n      signextend\n      dup2\n      mstore\n      0x20\n      add\n        /* \"contracts/uniswap/UniswapV3Pool.sol\":18053:18078  int256(amount).toInt128() */\n      tag_244\n        /* \"contracts/uniswap/UniswapV3Pool.sol\":18060:18066  amount */\n      dup11\n        /* \"contracts/uniswap/UniswapV3Pool.sol\":18053:18067  int256(amount) */\n      0xffffffffffffffffffffffffffffffff\n      and\n        /* \"contracts/uniswap/UniswapV3Pool.sol\":18053:18076  int256(amount).toInt128 */\n      tag_245\n        /* \"contracts/uniswap/UniswapV3Pool.sol\":18053:18078  int256(amount).toInt128() */\n      jump\t// in\n    tag_244:\n        /* \"contracts/uniswap/UniswapV3Pool.sol\":17872:18097  ModifyPositionParams({... */\n      0x0f\n      signextend\n      swap1\n      mstore\n        /* \"contracts/uniswap/UniswapV3Pool.sol\":17839:17854  _modifyPosition */\n      tag_246\n        /* \"contracts/uniswap/UniswapV3Pool.sol\":17839:18111  _modifyPosition(... */\n      jump\t// in\n    tag_243:\n        /* \"contracts/uniswap/UniswapV3Pool.sol\":17784:18111  (, int256 amount0Int, int256 amount1Int) =... */\n      swap3\n      pop\n      swap3\n      pop\n      pop\n        /* \"contracts/uniswap/UniswapV3Pool.sol\":18140:18150  amount0Int */\n      dup2\n        /* \"contracts/uniswap/UniswapV3Pool.sol\":18122:18151  amount0 = uint256(amount0Int) */\n      swap4\n      pop\n        /* \"contracts/uniswap/UniswapV3Pool.sol\":18179:18189  amount1Int */\n      dup1\n        /* \"contracts/uniswap/UniswapV3Pool.sol\":18161:18190  amount1 = uint256(amount1Int) */\n      swap3\n      pop\n        /* \"contracts/uniswap/UniswapV3Pool.sol\":18201:18223  uint256 balance0Before */\n      0x00\n        /* \"contracts/uniswap/UniswapV3Pool.sol\":18233:18255  uint256 balance1Before */\n      dup1\n        /* \"contracts/uniswap/UniswapV3Pool.sol\":18279:18280  0 */\n      0x00\n        /* \"contracts/uniswap/UniswapV3Pool.sol\":18269:18276  amount0 */\n      dup7\n        /* \"contracts/uniswap/UniswapV3Pool.sol\":18269:18280  amount0 > 0 */\n      gt\n        /* \"contracts/uniswap/UniswapV3Pool.sol\":18265:18309  if (amount0 > 0) balance0Before = balance0() */\n      iszero\n      tag_247\n      jumpi\n        /* \"contracts/uniswap/UniswapV3Pool.sol\":18299:18309  balance0() */\n      tag_248\n        /* \"contracts/uniswap/UniswapV3Pool.sol\":18299:18307  balance0 */\n      tag_210\n        /* \"contracts/uniswap/UniswapV3Pool.sol\":18299:18309  balance0() */\n      jump\t// in\n    tag_248:\n        /* \"contracts/uniswap/UniswapV3Pool.sol\":18282:18309  balance0Before = balance0() */\n      swap2\n      pop\n        /* \"contracts/uniswap/UniswapV3Pool.sol\":18265:18309  if (amount0 > 0) balance0Before = balance0() */\n    tag_247:\n        /* \"contracts/uniswap/UniswapV3Pool.sol\":18323:18334  amount1 > 0 */\n      dup5\n      iszero\n        /* \"contracts/uniswap/UniswapV3Pool.sol\":18319:18363  if (amount1 > 0) balance1Before = balance1() */\n      tag_249\n      jumpi\n        /* \"contracts/uniswap/UniswapV3Pool.sol\":18353:18363  balance1() */\n      tag_250\n        /* \"contracts/uniswap/UniswapV3Pool.sol\":18353:18361  balance1 */\n      tag_222\n        /* \"contracts/uniswap/UniswapV3Pool.sol\":18353:18363  balance1() */\n      jump\t// in\n    tag_250:\n        /* \"contracts/uniswap/UniswapV3Pool.sol\":18336:18363  balance1Before = balance1() */\n      swap1\n      pop\n        /* \"contracts/uniswap/UniswapV3Pool.sol\":18319:18363  if (amount1 > 0) balance1Before = balance1() */\n    tag_249:\n        /* \"contracts/uniswap/UniswapV3Pool.sol\":18396:18406  msg.sender */\n      caller\n      sub(shl(0xa0, 0x01), 0x01)\n        /* \"contracts/uniswap/UniswapV3Pool.sol\":18373:18429  IUniswapV3MintCallback(msg.sender).uniswapV3MintCallback */\n      and\n      0xd3487997\n        /* \"contracts/uniswap/UniswapV3Pool.sol\":18430:18437  amount0 */\n      dup8\n        /* \"contracts/uniswap/UniswapV3Pool.sol\":18439:18446  amount1 */\n      dup8\n        /* \"contracts/uniswap/UniswapV3Pool.sol\":18448:18452  data */\n      dup12\n      dup12\n        /* \"contracts/uniswap/UniswapV3Pool.sol\":18373:18453  IUniswapV3MintCallback(msg.sender).uniswapV3MintCallback(amount0, amount1, data) */\n      mload(0x40)\n      dup6\n      0xffffffff\n      and\n      0xe0\n      shl\n      dup2\n      mstore\n      0x04\n      add\n      dup1\n      dup6\n      dup2\n      mstore\n      0x20\n      add\n      dup5\n      dup2\n      mstore\n      0x20\n      add\n      dup1\n      0x20\n      add\n      dup3\n      dup2\n      sub\n      dup3\n      mstore\n      dup5\n      dup5\n      dup3\n      dup2\n      dup2\n      mstore\n      0x20\n      add\n      swap3\n      pop\n      dup1\n      dup3\n      dup5\n      calldatacopy\n      0x00\n      dup2\n      dup5\n      add\n      mstore\n      not(0x1f)\n      0x1f\n      dup3\n      add\n      and\n      swap1\n      pop\n      dup1\n      dup4\n      add\n      swap3\n      pop\n      pop\n      pop\n      swap6\n      pop\n      pop\n      pop\n      pop\n      pop\n      pop\n      0x00\n      mload(0x40)\n      dup1\n      dup4\n      sub\n      dup2\n      0x00\n      dup8\n      dup1\n      extcodesize\n      iszero\n      dup1\n      iszero\n      tag_251\n      jumpi\n      0x00\n      dup1\n      revert\n    tag_251:\n      pop\n      gas\n      call\n      iszero\n      dup1\n      iszero\n      tag_253\n      jumpi\n      returndatasize\n      0x00\n      dup1\n      returndatacopy\n      revert(0x00, returndatasize)\n    tag_253:\n      pop\n      pop\n      pop\n      pop\n        /* \"contracts/uniswap/UniswapV3Pool.sol\":18477:18478  0 */\n      0x00\n        /* \"contracts/uniswap/UniswapV3Pool.sol\":18467:18474  amount0 */\n      dup7\n        /* \"contracts/uniswap/UniswapV3Pool.sol\":18467:18478  amount0 > 0 */\n      gt\n        /* \"contracts/uniswap/UniswapV3Pool.sol\":18463:18536  if (amount0 > 0) require(balance0Before.add(amount0) <= balance0(), 'M0') */\n      iszero\n      tag_257\n      jumpi\n        /* \"contracts/uniswap/UniswapV3Pool.sol\":18519:18529  balance0() */\n      tag_255\n        /* \"contracts/uniswap/UniswapV3Pool.sol\":18519:18527  balance0 */\n      tag_210\n        /* \"contracts/uniswap/UniswapV3Pool.sol\":18519:18529  balance0() */\n      jump\t// in\n    tag_255:\n        /* \"contracts/uniswap/UniswapV3Pool.sol\":18488:18515  balance0Before.add(amount0) */\n      tag_256\n        /* \"contracts/uniswap/UniswapV3Pool.sol\":18488:18502  balance0Before */\n      dup4\n        /* \"contracts/uniswap/UniswapV3Pool.sol\":18507:18514  amount0 */\n      dup9\n        /* \"contracts/uniswap/UniswapV3Pool.sol\":18488:18506  balance0Before.add */\n      tag_216\n        /* \"contracts/uniswap/UniswapV3Pool.sol\":18488:18515  balance0Before.add(amount0) */\n      jump\t// in\n    tag_256:\n        /* \"contracts/uniswap/UniswapV3Pool.sol\":18488:18529  balance0Before.add(amount0) <= balance0() */\n      gt\n      iszero\n        /* \"contracts/uniswap/UniswapV3Pool.sol\":18480:18536  require(balance0Before.add(amount0) <= balance0(), 'M0') */\n      tag_257\n      jumpi\n      0x00\n      dup1\n      revert\n    tag_257:\n        /* \"contracts/uniswap/UniswapV3Pool.sol\":18550:18561  amount1 > 0 */\n      dup5\n      iszero\n        /* \"contracts/uniswap/UniswapV3Pool.sol\":18546:18619  if (amount1 > 0) require(balance1Before.add(amount1) <= balance1(), 'M1') */\n      tag_261\n      jumpi\n        /* \"contracts/uniswap/UniswapV3Pool.sol\":18602:18612  balance1() */\n      tag_259\n        /* \"contracts/uniswap/UniswapV3Pool.sol\":18602:18610  balance1 */\n      tag_222\n        /* \"contracts/uniswap/UniswapV3Pool.sol\":18602:18612  balance1() */\n      jump\t// in\n    tag_259:\n        /* \"contracts/uniswap/UniswapV3Pool.sol\":18571:18598  balance1Before.add(amount1) */\n      tag_260\n        /* \"contracts/uniswap/UniswapV3Pool.sol\":18571:18585  balance1Before */\n      dup3\n        /* \"contracts/uniswap/UniswapV3Pool.sol\":18590:18597  amount1 */\n      dup8\n        /* \"contracts/uniswap/UniswapV3Pool.sol\":18571:18589  balance1Before.add */\n      tag_216\n        /* \"contracts/uniswap/UniswapV3Pool.sol\":18571:18598  balance1Before.add(amount1) */\n      jump\t// in\n    tag_260:\n        /* \"contracts/uniswap/UniswapV3Pool.sol\":18571:18612  balance1Before.add(amount1) <= balance1() */\n      gt\n      iszero\n        /* \"contracts/uniswap/UniswapV3Pool.sol\":18563:18619  require(balance1Before.add(amount1) <= balance1(), 'M1') */\n      tag_261\n      jumpi\n      0x00\n      dup1\n      revert\n    tag_261:\n        /* \"contracts/uniswap/UniswapV3Pool.sol\":18674:18683  tickUpper */\n      dup10\n        /* \"contracts/uniswap/UniswapV3Pool.sol\":18635:18710  Mint(msg.sender, recipient, tickLower, tickUpper, amount, amount0, amount1) */\n      0x02\n      signextend\n        /* \"contracts/uniswap/UniswapV3Pool.sol\":18663:18672  tickLower */\n      dup12\n        /* \"contracts/uniswap/UniswapV3Pool.sol\":18635:18710  Mint(msg.sender, recipient, tickLower, tickUpper, amount, amount0, amount1) */\n      0x02\n      signextend\n        /* \"contracts/uniswap/UniswapV3Pool.sol\":18652:18661  recipient */\n      dup14\n      sub(shl(0xa0, 0x01), 0x01)\n        /* \"contracts/uniswap/UniswapV3Pool.sol\":18635:18710  Mint(msg.sender, recipient, tickLower, tickUpper, amount, amount0, amount1) */\n      and\n      0x7a53080ba414158be7ec69b987b5fb7d07dee101fe85488f0853ae16239d0bde\n        /* \"contracts/uniswap/UniswapV3Pool.sol\":18640:18650  msg.sender */\n      caller\n        /* \"contracts/uniswap/UniswapV3Pool.sol\":18685:18691  amount */\n      dup14\n        /* \"contracts/uniswap/UniswapV3Pool.sol\":18693:18700  amount0 */\n      dup12\n        /* \"contracts/uniswap/UniswapV3Pool.sol\":18702:18709  amount1 */\n      dup12\n        /* \"contracts/uniswap/UniswapV3Pool.sol\":18635:18710  Mint(msg.sender, recipient, tickLower, tickUpper, amount, amount0, amount1) */\n      mload(0x40)\n      dup1\n      dup6\n      sub(shl(0xa0, 0x01), 0x01)\n      and\n      dup2\n      mstore\n      0x20\n      add\n      dup5\n      0xffffffffffffffffffffffffffffffff\n      and\n      dup2\n      mstore\n      0x20\n      add\n      dup4\n      dup2\n      mstore\n      0x20\n      add\n      dup3\n      dup2\n      mstore\n      0x20\n      add\n      swap5\n      pop\n      pop\n      pop\n      pop\n      pop\n      mload(0x40)\n      dup1\n      swap2\n      sub\n      swap1\n      log4\n      pop\n      pop\n        /* \"contracts/uniswap/UniswapV3Pool.sol\":4072:4077  slot0 */\n      0x00\n        /* \"contracts/uniswap/UniswapV3Pool.sol\":4072:4093  slot0.unlocked = true */\n      dup1\n      sload\n      0xff00ffffffffffffffffffffffffffffffffffffffffffffffffffffffffffff\n      and\n      0x01000000000000000000000000000000000000000000000000000000000000\n      or\n      swap1\n      sstore\n      pop\n        /* \"contracts/uniswap/UniswapV3Pool.sol\":17529:18717  function mint(... */\n      swap2\n      swap9\n      swap1\n      swap8\n      pop\n      swap6\n      pop\n      pop\n      pop\n      pop\n      pop\n      pop\n      jump\t// out\n        /* \"contracts/uniswap/UniswapV3Pool.sol\":2861:2905  uint256 public override feeGrowthGlobal1X128 */\n    tag_63:\n      sload(0x02)\n      dup2\n      jump\t// out\n        /* \"contracts/uniswap/UniswapV3Pool.sol\":31949:33862  function flash(... */\n    tag_69:\n        /* \"contracts/uniswap/UniswapV3Pool.sol\":3997:4002  slot0 */\n      0x00\n        /* \"contracts/uniswap/UniswapV3Pool.sol\":3997:4011  slot0.unlocked */\n      sload\n      0x01000000000000000000000000000000000000000000000000000000000000\n      swap1\n      div\n      0xff\n      and\n        /* \"contracts/uniswap/UniswapV3Pool.sol\":3989:4019  require(slot0.unlocked, 'LOK') */\n      tag_263\n      jumpi\n      0x00\n      dup1\n      revert\n    tag_263:\n        /* \"contracts/uniswap/UniswapV3Pool.sol\":4046:4051  false */\n      0x00\n        /* \"contracts/uniswap/UniswapV3Pool.sol\":4029:4051  slot0.unlocked = false */\n      dup1\n      sload\n      0xff00ffffffffffffffffffffffffffffffffffffffffffffffffffffffffffff\n      and\n      swap1\n      sstore\n        /* \"contracts/uniswap/NoDelegateCall.sol\":1036:1058  checkNotDelegateCall() */\n      tag_265\n        /* \"contracts/uniswap/NoDelegateCall.sol\":1036:1056  checkNotDelegateCall */\n      tag_124\n        /* \"contracts/uniswap/NoDelegateCall.sol\":1036:1058  checkNotDelegateCall() */\n      jump\t// in\n    tag_265:\n        /* \"contracts/uniswap/UniswapV3Pool.sol\":32145:32154  liquidity */\n      and(0xffffffffffffffffffffffffffffffff, sload(0x04))\n        /* \"contracts/uniswap/UniswapV3Pool.sol\":32172:32186  _liquidity > 0 */\n      dup1\n        /* \"contracts/uniswap/UniswapV3Pool.sol\":32164:32192  require(_liquidity > 0, 'L') */\n      tag_267\n      jumpi\n      0x00\n      dup1\n      revert\n    tag_267:\n        /* \"contracts/uniswap/UniswapV3Pool.sol\":32203:32215  uint256 fee0 */\n      0x00\n        /* \"contracts/uniswap/UniswapV3Pool.sol\":32218:32262  FullMath.mulDivRoundingUp(amount0, fee, 1e6) */\n      tag_268\n        /* \"contracts/uniswap/UniswapV3Pool.sol\":32244:32251  amount0 */\n      dup7\n        /* \"contracts/uniswap/UniswapV3Pool.sol\":32253:32256  fee */\n      immutable(\"0x7d4579ab3c781860520f730aa471b37a7366c1c6efb6e34470da23130f5149f7\")\n        /* \"contracts/uniswap/UniswapV3Pool.sol\":32218:32262  FullMath.mulDivRoundingUp(amount0, fee, 1e6) */\n      0xffffff\n      and\n        /* \"contracts/uniswap/UniswapV3Pool.sol\":32258:32261  1e6 */\n      0x0f4240\n        /* \"contracts/uniswap/UniswapV3Pool.sol\":32218:32243  FullMath.mulDivRoundingUp */\n      tag_269\n        /* \"contracts/uniswap/UniswapV3Pool.sol\":32218:32262  FullMath.mulDivRoundingUp(amount0, fee, 1e6) */\n      jump\t// in\n    tag_268:\n        /* \"contracts/uniswap/UniswapV3Pool.sol\":32203:32262  uint256 fee0 = FullMath.mulDivRoundingUp(amount0, fee, 1e6) */\n      swap1\n      pop\n        /* \"contracts/uniswap/UniswapV3Pool.sol\":32272:32284  uint256 fee1 */\n      0x00\n        /* \"contracts/uniswap/UniswapV3Pool.sol\":32287:32331  FullMath.mulDivRoundingUp(amount1, fee, 1e6) */\n      tag_270\n        /* \"contracts/uniswap/UniswapV3Pool.sol\":32313:32320  amount1 */\n      dup7\n        /* \"contracts/uniswap/UniswapV3Pool.sol\":32322:32325  fee */\n      immutable(\"0x7d4579ab3c781860520f730aa471b37a7366c1c6efb6e34470da23130f5149f7\")\n        /* \"contracts/uniswap/UniswapV3Pool.sol\":32287:32331  FullMath.mulDivRoundingUp(amount1, fee, 1e6) */\n      0xffffff\n      and\n        /* \"contracts/uniswap/UniswapV3Pool.sol\":32327:32330  1e6 */\n      0x0f4240\n        /* \"contracts/uniswap/UniswapV3Pool.sol\":32287:32312  FullMath.mulDivRoundingUp */\n      tag_269\n        /* \"contracts/uniswap/UniswapV3Pool.sol\":32287:32331  FullMath.mulDivRoundingUp(amount1, fee, 1e6) */\n      jump\t// in\n    tag_270:\n        /* \"contracts/uniswap/UniswapV3Pool.sol\":32272:32331  uint256 fee1 = FullMath.mulDivRoundingUp(amount1, fee, 1e6) */\n      swap1\n      pop\n        /* \"contracts/uniswap/UniswapV3Pool.sol\":32341:32363  uint256 balance0Before */\n      0x00\n        /* \"contracts/uniswap/UniswapV3Pool.sol\":32366:32376  balance0() */\n      tag_271\n        /* \"contracts/uniswap/UniswapV3Pool.sol\":32366:32374  balance0 */\n      tag_210\n        /* \"contracts/uniswap/UniswapV3Pool.sol\":32366:32376  balance0() */\n      jump\t// in\n    tag_271:\n        /* \"contracts/uniswap/UniswapV3Pool.sol\":32341:32376  uint256 balance0Before = balance0() */\n      swap1\n      pop\n        /* \"contracts/uniswap/UniswapV3Pool.sol\":32386:32408  uint256 balance1Before */\n      0x00\n        /* \"contracts/uniswap/UniswapV3Pool.sol\":32411:32421  balance1() */\n      tag_272\n        /* \"contracts/uniswap/UniswapV3Pool.sol\":32411:32419  balance1 */\n      tag_222\n        /* \"contracts/uniswap/UniswapV3Pool.sol\":32411:32421  balance1() */\n      jump\t// in\n    tag_272:\n        /* \"contracts/uniswap/UniswapV3Pool.sol\":32386:32421  uint256 balance1Before = balance1() */\n      swap1\n      pop\n        /* \"contracts/uniswap/UniswapV3Pool.sol\":32436:32447  amount0 > 0 */\n      dup9\n      iszero\n        /* \"contracts/uniswap/UniswapV3Pool.sol\":32432:32504  if (amount0 > 0) TransferHelper.safeTransfer(token0, recipient, amount0) */\n      tag_274\n      jumpi\n        /* \"contracts/uniswap/UniswapV3Pool.sol\":32449:32504  TransferHelper.safeTransfer(token0, recipient, amount0) */\n      tag_274\n        /* \"contracts/uniswap/UniswapV3Pool.sol\":32477:32483  token0 */\n      immutable(\"0xb811eb8190fe00dc85563459f7e9e4ba4c2ef31ddac91e9e2d37d1e7e1b1d5bc\")\n        /* \"contracts/uniswap/UniswapV3Pool.sol\":32485:32494  recipient */\n      dup12\n        /* \"contracts/uniswap/UniswapV3Pool.sol\":32496:32503  amount0 */\n      dup12\n        /* \"contracts/uniswap/UniswapV3Pool.sol\":32449:32476  TransferHelper.safeTransfer */\n      tag_208\n        /* \"contracts/uniswap/UniswapV3Pool.sol\":32449:32504  TransferHelper.safeTransfer(token0, recipient, amount0) */\n      jump\t// in\n    tag_274:\n        /* \"contracts/uniswap/UniswapV3Pool.sol\":32518:32529  amount1 > 0 */\n      dup8\n      iszero\n        /* \"contracts/uniswap/UniswapV3Pool.sol\":32514:32586  if (amount1 > 0) TransferHelper.safeTransfer(token1, recipient, amount1) */\n      tag_276\n      jumpi\n        /* \"contracts/uniswap/UniswapV3Pool.sol\":32531:32586  TransferHelper.safeTransfer(token1, recipient, amount1) */\n      tag_276\n        /* \"contracts/uniswap/UniswapV3Pool.sol\":32559:32565  token1 */\n      immutable(\"0x712adca22095011a9de0b4aa84648bf2bea2744bd9326ede31e43d2a71662846\")\n        /* \"contracts/uniswap/UniswapV3Pool.sol\":32567:32576  recipient */\n      dup12\n        /* \"contracts/uniswap/UniswapV3Pool.sol\":32578:32585  amount1 */\n      dup11\n        /* \"contracts/uniswap/UniswapV3Pool.sol\":32531:32558  TransferHelper.safeTransfer */\n      tag_208\n        /* \"contracts/uniswap/UniswapV3Pool.sol\":32531:32586  TransferHelper.safeTransfer(token1, recipient, amount1) */\n      jump\t// in\n    tag_276:\n        /* \"contracts/uniswap/UniswapV3Pool.sol\":32621:32631  msg.sender */\n      caller\n      sub(shl(0xa0, 0x01), 0x01)\n        /* \"contracts/uniswap/UniswapV3Pool.sol\":32597:32655  IUniswapV3FlashCallback(msg.sender).uniswapV3FlashCallback */\n      and\n      0xe9cbafb0\n        /* \"contracts/uniswap/UniswapV3Pool.sol\":32656:32660  fee0 */\n      dup6\n        /* \"contracts/uniswap/UniswapV3Pool.sol\":32662:32666  fee1 */\n      dup6\n        /* \"contracts/uniswap/UniswapV3Pool.sol\":32668:32672  data */\n      dup11\n      dup11\n        /* \"contracts/uniswap/UniswapV3Pool.sol\":32597:32673  IUniswapV3FlashCallback(msg.sender).uniswapV3FlashCallback(fee0, fee1, data) */\n      mload(0x40)\n      dup6\n      0xffffffff\n      and\n      0xe0\n      shl\n      dup2\n      mstore\n      0x04\n      add\n      dup1\n      dup6\n      dup2\n      mstore\n      0x20\n      add\n      dup5\n      dup2\n      mstore\n      0x20\n      add\n      dup1\n      0x20\n      add\n      dup3\n      dup2\n      sub\n      dup3\n      mstore\n      dup5\n      dup5\n      dup3\n      dup2\n      dup2\n      mstore\n      0x20\n      add\n      swap3\n      pop\n      dup1\n      dup3\n      dup5\n      calldatacopy\n      0x00\n      dup2\n      dup5\n      add\n      mstore\n      not(0x1f)\n      0x1f\n      dup3\n      add\n      and\n      swap1\n      pop\n      dup1\n      dup4\n      add\n      swap3\n      pop\n      pop\n      pop\n      swap6\n      pop\n      pop\n      pop\n      pop\n      pop\n      pop\n      0x00\n      mload(0x40)\n      dup1\n      dup4\n      sub\n      dup2\n      0x00\n      dup8\n      dup1\n      extcodesize\n      iszero\n      dup1\n      iszero\n      tag_277\n      jumpi\n      0x00\n      dup1\n      revert\n    tag_277:\n      pop\n      gas\n      call\n      iszero\n      dup1\n      iszero\n      tag_279\n      jumpi\n      returndatasize\n      0x00\n      dup1\n      returndatacopy\n      revert(0x00, returndatasize)\n    tag_279:\n      pop\n      pop\n      pop\n      pop\n        /* \"contracts/uniswap/UniswapV3Pool.sol\":32684:32705  uint256 balance0After */\n      0x00\n        /* \"contracts/uniswap/UniswapV3Pool.sol\":32708:32718  balance0() */\n      tag_280\n        /* \"contracts/uniswap/UniswapV3Pool.sol\":32708:32716  balance0 */\n      tag_210\n        /* \"contracts/uniswap/UniswapV3Pool.sol\":32708:32718  balance0() */\n      jump\t// in\n    tag_280:\n        /* \"contracts/uniswap/UniswapV3Pool.sol\":32684:32718  uint256 balance0After = balance0() */\n      swap1\n      pop\n        /* \"contracts/uniswap/UniswapV3Pool.sol\":32728:32749  uint256 balance1After */\n      0x00\n        /* \"contracts/uniswap/UniswapV3Pool.sol\":32752:32762  balance1() */\n      tag_281\n        /* \"contracts/uniswap/UniswapV3Pool.sol\":32752:32760  balance1 */\n      tag_222\n        /* \"contracts/uniswap/UniswapV3Pool.sol\":32752:32762  balance1() */\n      jump\t// in\n    tag_281:\n        /* \"contracts/uniswap/UniswapV3Pool.sol\":32728:32762  uint256 balance1After = balance1() */\n      swap1\n      pop\n        /* \"contracts/uniswap/UniswapV3Pool.sol\":32809:32822  balance0After */\n      dup2\n        /* \"contracts/uniswap/UniswapV3Pool.sol\":32781:32805  balance0Before.add(fee0) */\n      tag_282\n        /* \"contracts/uniswap/UniswapV3Pool.sol\":32781:32795  balance0Before */\n      dup6\n        /* \"contracts/uniswap/UniswapV3Pool.sol\":32800:32804  fee0 */\n      dup9\n        /* \"contracts/uniswap/UniswapV3Pool.sol\":32781:32799  balance0Before.add */\n      tag_216\n        /* \"contracts/uniswap/UniswapV3Pool.sol\":32781:32805  balance0Before.add(fee0) */\n      jump\t// in\n    tag_282:\n        /* \"contracts/uniswap/UniswapV3Pool.sol\":32781:32822  balance0Before.add(fee0) <= balance0After */\n      gt\n      iszero\n        /* \"contracts/uniswap/UniswapV3Pool.sol\":32773:32829  require(balance0Before.add(fee0) <= balance0After, 'F0') */\n      tag_283\n      jumpi\n      0x00\n      dup1\n      revert\n    tag_283:\n        /* \"contracts/uniswap/UniswapV3Pool.sol\":32875:32888  balance1After */\n      dup1\n        /* \"contracts/uniswap/UniswapV3Pool.sol\":32847:32871  balance1Before.add(fee1) */\n      tag_284\n        /* \"contracts/uniswap/UniswapV3Pool.sol\":32847:32861  balance1Before */\n      dup5\n        /* \"contracts/uniswap/UniswapV3Pool.sol\":32866:32870  fee1 */\n      dup8\n        /* \"contracts/uniswap/UniswapV3Pool.sol\":32847:32865  balance1Before.add */\n      tag_216\n        /* \"contracts/uniswap/UniswapV3Pool.sol\":32847:32871  balance1Before.add(fee1) */\n      jump\t// in\n    tag_284:\n        /* \"contracts/uniswap/UniswapV3Pool.sol\":32847:32888  balance1Before.add(fee1) <= balance1After */\n      gt\n      iszero\n        /* \"contracts/uniswap/UniswapV3Pool.sol\":32839:32895  require(balance1Before.add(fee1) <= balance1After, 'F1') */\n      tag_285\n      jumpi\n      0x00\n      dup1\n      revert\n    tag_285:\n        /* \"contracts/uniswap/UniswapV3Pool.sol\":33010:33040  balance0After - balance0Before */\n      dup4\n      dup3\n      sub\n        /* \"contracts/uniswap/UniswapV3Pool.sol\":33066:33096  balance1After - balance1Before */\n      dup4\n      dup3\n      sub\n        /* \"contracts/uniswap/UniswapV3Pool.sol\":33111:33120  paid0 > 0 */\n      dup2\n      iszero\n        /* \"contracts/uniswap/UniswapV3Pool.sol\":33107:33439  if (paid0 > 0) {... */\n      tag_286\n      jumpi\n        /* \"contracts/uniswap/UniswapV3Pool.sol\":33136:33154  uint8 feeProtocol0 */\n      0x00\n        /* \"contracts/uniswap/UniswapV3Pool.sol\":33157:33174  slot0.feeProtocol */\n      dup1\n      sload\n      0x010000000000000000000000000000000000000000000000000000000000\n      swap1\n      div\n        /* \"contracts/uniswap/UniswapV3Pool.sol\":33157:33179  slot0.feeProtocol % 16 */\n      0x0f\n      and\n      swap1\n        /* \"contracts/uniswap/UniswapV3Pool.sol\":33209:33226  feeProtocol0 == 0 */\n      dup2\n      iszero\n        /* \"contracts/uniswap/UniswapV3Pool.sol\":33209:33253  feeProtocol0 == 0 ? 0 : paid0 / feeProtocol0 */\n      tag_288\n      jumpi\n        /* \"contracts/uniswap/UniswapV3Pool.sol\":33241:33253  feeProtocol0 */\n      dup2\n        /* \"contracts/uniswap/UniswapV3Pool.sol\":33233:33253  paid0 / feeProtocol0 */\n      0xff\n      and\n        /* \"contracts/uniswap/UniswapV3Pool.sol\":33233:33238  paid0 */\n      dup5\n        /* \"contracts/uniswap/UniswapV3Pool.sol\":33233:33253  paid0 / feeProtocol0 */\n      dup2\n      tag_289\n      jumpi\n      invalid\n    tag_289:\n      div\n        /* \"contracts/uniswap/UniswapV3Pool.sol\":33209:33253  feeProtocol0 == 0 ? 0 : paid0 / feeProtocol0 */\n      jump(tag_290)\n    tag_288:\n        /* \"contracts/uniswap/UniswapV3Pool.sol\":33229:33230  0 */\n      0x00\n        /* \"contracts/uniswap/UniswapV3Pool.sol\":33209:33253  feeProtocol0 == 0 ? 0 : paid0 / feeProtocol0 */\n    tag_290:\n        /* \"contracts/uniswap/UniswapV3Pool.sol\":33193:33253  uint256 fees0 = feeProtocol0 == 0 ? 0 : paid0 / feeProtocol0 */\n      swap1\n      pop\n        /* \"contracts/uniswap/UniswapV3Pool.sol\":33271:33289  uint128(fees0) > 0 */\n      0xffffffffffffffffffffffffffffffff\n      dup2\n      and\n      iszero\n        /* \"contracts/uniswap/UniswapV3Pool.sol\":33267:33328  if (uint128(fees0) > 0) protocolFees.token0 += uint128(fees0) */\n      tag_291\n      jumpi\n        /* \"contracts/uniswap/UniswapV3Pool.sol\":33291:33303  protocolFees */\n      0x03\n        /* \"contracts/uniswap/UniswapV3Pool.sol\":33291:33328  protocolFees.token0 += uint128(fees0) */\n      dup1\n      sload\n      0xffffffffffffffffffffffffffffffff\n      dup1\n      dup3\n      and\n      dup5\n      add\n      and\n      0xffffffffffffffffffffffffffffffff00000000000000000000000000000000\n      swap1\n      swap2\n      and\n      or\n      swap1\n      sstore\n        /* \"contracts/uniswap/UniswapV3Pool.sol\":33267:33328  if (uint128(fees0) > 0) protocolFees.token0 += uint128(fees0) */\n    tag_291:\n        /* \"contracts/uniswap/UniswapV3Pool.sol\":33366:33428  FullMath.mulDiv(paid0 - fees0, FixedPoint128.Q128, _liquidity) */\n      tag_292\n        /* \"contracts/uniswap/UniswapV3Pool.sol\":33390:33395  fees0 */\n      dup2\n        /* \"contracts/uniswap/UniswapV3Pool.sol\":33382:33387  paid0 */\n      dup6\n        /* \"contracts/uniswap/UniswapV3Pool.sol\":33382:33395  paid0 - fees0 */\n      sub\n        /* \"contracts/uniswap/libraries/FixedPoint128.sol\":272:307  0x100000000000000000000000000000000 */\n      0x0100000000000000000000000000000000\n        /* \"contracts/uniswap/UniswapV3Pool.sol\":33417:33427  _liquidity */\n      dup14\n        /* \"contracts/uniswap/UniswapV3Pool.sol\":33366:33428  FullMath.mulDiv(paid0 - fees0, FixedPoint128.Q128, _liquidity) */\n      0xffffffffffffffffffffffffffffffff\n      and\n        /* \"contracts/uniswap/UniswapV3Pool.sol\":33366:33381  FullMath.mulDiv */\n      tag_173\n        /* \"contracts/uniswap/UniswapV3Pool.sol\":33366:33428  FullMath.mulDiv(paid0 - fees0, FixedPoint128.Q128, _liquidity) */\n      jump\t// in\n    tag_292:\n        /* \"contracts/uniswap/UniswapV3Pool.sol\":33342:33362  feeGrowthGlobal0X128 */\n      0x01\n        /* \"contracts/uniswap/UniswapV3Pool.sol\":33342:33428  feeGrowthGlobal0X128 += FullMath.mulDiv(paid0 - fees0, FixedPoint128.Q128, _liquidity) */\n      dup1\n      sload\n      swap1\n      swap2\n      add\n      swap1\n      sstore\n      pop\n      pop\n        /* \"contracts/uniswap/UniswapV3Pool.sol\":33107:33439  if (paid0 > 0) {... */\n    tag_286:\n        /* \"contracts/uniswap/UniswapV3Pool.sol\":33452:33461  paid1 > 0 */\n      dup1\n      iszero\n        /* \"contracts/uniswap/UniswapV3Pool.sol\":33448:33780  if (paid1 > 0) {... */\n      tag_293\n      jumpi\n        /* \"contracts/uniswap/UniswapV3Pool.sol\":33477:33495  uint8 feeProtocol1 */\n      0x00\n        /* \"contracts/uniswap/UniswapV3Pool.sol\":33498:33515  slot0.feeProtocol */\n      dup1\n      sload\n      0x010000000000000000000000000000000000000000000000000000000000\n      swap1\n      div\n        /* \"contracts/uniswap/UniswapV3Pool.sol\":33519:33520  4 */\n      0x04\n        /* \"contracts/uniswap/UniswapV3Pool.sol\":33498:33520  slot0.feeProtocol >> 4 */\n      shr\n      0x0f\n      and\n      swap1\n        /* \"contracts/uniswap/UniswapV3Pool.sol\":33550:33567  feeProtocol1 == 0 */\n      dup2\n      iszero\n        /* \"contracts/uniswap/UniswapV3Pool.sol\":33550:33594  feeProtocol1 == 0 ? 0 : paid1 / feeProtocol1 */\n      tag_294\n      jumpi\n        /* \"contracts/uniswap/UniswapV3Pool.sol\":33582:33594  feeProtocol1 */\n      dup2\n        /* \"contracts/uniswap/UniswapV3Pool.sol\":33574:33594  paid1 / feeProtocol1 */\n      0xff\n      and\n        /* \"contracts/uniswap/UniswapV3Pool.sol\":33574:33579  paid1 */\n      dup4\n        /* \"contracts/uniswap/UniswapV3Pool.sol\":33574:33594  paid1 / feeProtocol1 */\n      dup2\n      tag_295\n      jumpi\n      invalid\n    tag_295:\n      div\n        /* \"contracts/uniswap/UniswapV3Pool.sol\":33550:33594  feeProtocol1 == 0 ? 0 : paid1 / feeProtocol1 */\n      jump(tag_296)\n    tag_294:\n        /* \"contracts/uniswap/UniswapV3Pool.sol\":33570:33571  0 */\n      0x00\n        /* \"contracts/uniswap/UniswapV3Pool.sol\":33550:33594  feeProtocol1 == 0 ? 0 : paid1 / feeProtocol1 */\n    tag_296:\n        /* \"contracts/uniswap/UniswapV3Pool.sol\":33534:33594  uint256 fees1 = feeProtocol1 == 0 ? 0 : paid1 / feeProtocol1 */\n      swap1\n      pop\n        /* \"contracts/uniswap/UniswapV3Pool.sol\":33612:33630  uint128(fees1) > 0 */\n      0xffffffffffffffffffffffffffffffff\n      dup2\n      and\n      iszero\n        /* \"contracts/uniswap/UniswapV3Pool.sol\":33608:33669  if (uint128(fees1) > 0) protocolFees.token1 += uint128(fees1) */\n      tag_297\n      jumpi\n        /* \"contracts/uniswap/UniswapV3Pool.sol\":33632:33644  protocolFees */\n      0x03\n        /* \"contracts/uniswap/UniswapV3Pool.sol\":33632:33669  protocolFees.token1 += uint128(fees1) */\n      dup1\n      sload\n      0xffffffffffffffffffffffffffffffff\n      0x0100000000000000000000000000000000\n      dup1\n      dup4\n      div\n      dup3\n      and\n      dup6\n      add\n      dup3\n      and\n      mul\n      swap2\n      and\n      or\n      swap1\n      sstore\n        /* \"contracts/uniswap/UniswapV3Pool.sol\":33608:33669  if (uint128(fees1) > 0) protocolFees.token1 += uint128(fees1) */\n    tag_297:\n        /* \"contracts/uniswap/UniswapV3Pool.sol\":33707:33769  FullMath.mulDiv(paid1 - fees1, FixedPoint128.Q128, _liquidity) */\n      tag_298\n        /* \"contracts/uniswap/UniswapV3Pool.sol\":33731:33736  fees1 */\n      dup2\n        /* \"contracts/uniswap/UniswapV3Pool.sol\":33723:33728  paid1 */\n      dup5\n        /* \"contracts/uniswap/UniswapV3Pool.sol\":33723:33736  paid1 - fees1 */\n      sub\n        /* \"contracts/uniswap/libraries/FixedPoint128.sol\":272:307  0x100000000000000000000000000000000 */\n      0x0100000000000000000000000000000000\n        /* \"contracts/uniswap/UniswapV3Pool.sol\":33758:33768  _liquidity */\n      dup14\n        /* \"contracts/uniswap/UniswapV3Pool.sol\":33707:33769  FullMath.mulDiv(paid1 - fees1, FixedPoint128.Q128, _liquidity) */\n      0xffffffffffffffffffffffffffffffff\n      and\n        /* \"contracts/uniswap/UniswapV3Pool.sol\":33707:33722  FullMath.mulDiv */\n      tag_173\n        /* \"contracts/uniswap/UniswapV3Pool.sol\":33707:33769  FullMath.mulDiv(paid1 - fees1, FixedPoint128.Q128, _liquidity) */\n      jump\t// in\n    tag_298:\n        /* \"contracts/uniswap/UniswapV3Pool.sol\":33683:33703  feeGrowthGlobal1X128 */\n      0x02\n        /* \"contracts/uniswap/UniswapV3Pool.sol\":33683:33769  feeGrowthGlobal1X128 += FullMath.mulDiv(paid1 - fees1, FixedPoint128.Q128, _liquidity) */\n      dup1\n      sload\n      swap1\n      swap2\n      add\n      swap1\n      sstore\n      pop\n      pop\n        /* \"contracts/uniswap/UniswapV3Pool.sol\":33448:33780  if (paid1 > 0) {... */\n    tag_293:\n        /* \"contracts/uniswap/UniswapV3Pool.sol\":33813:33822  recipient */\n      dup14\n      sub(shl(0xa0, 0x01), 0x01)\n        /* \"contracts/uniswap/UniswapV3Pool.sol\":33795:33855  Flash(msg.sender, recipient, amount0, amount1, paid0, paid1) */\n      and\n        /* \"contracts/uniswap/UniswapV3Pool.sol\":33801:33811  msg.sender */\n      caller\n      sub(shl(0xa0, 0x01), 0x01)\n        /* \"contracts/uniswap/UniswapV3Pool.sol\":33795:33855  Flash(msg.sender, recipient, amount0, amount1, paid0, paid1) */\n      and\n      0xbdbdb71d7860376ba52b25a5028beea23581364a40522f6bcfb86bb1f2dca633\n        /* \"contracts/uniswap/UniswapV3Pool.sol\":33824:33831  amount0 */\n      dup16\n        /* \"contracts/uniswap/UniswapV3Pool.sol\":33833:33840  amount1 */\n      dup16\n        /* \"contracts/uniswap/UniswapV3Pool.sol\":33842:33847  paid0 */\n      dup7\n        /* \"contracts/uniswap/UniswapV3Pool.sol\":33849:33854  paid1 */\n      dup7\n        /* \"contracts/uniswap/UniswapV3Pool.sol\":33795:33855  Flash(msg.sender, recipient, amount0, amount1, paid0, paid1) */\n      mload(0x40)\n      dup1\n      dup6\n      dup2\n      mstore\n      0x20\n      add\n      dup5\n      dup2\n      mstore\n      0x20\n      add\n      dup4\n      dup2\n      mstore\n      0x20\n      add\n      dup3\n      dup2\n      mstore\n      0x20\n      add\n      swap5\n      pop\n      pop\n      pop\n      pop\n      pop\n      mload(0x40)\n      dup1\n      swap2\n      sub\n      swap1\n      log3\n      pop\n      pop\n        /* \"contracts/uniswap/UniswapV3Pool.sol\":4072:4077  slot0 */\n      0x00\n        /* \"contracts/uniswap/UniswapV3Pool.sol\":4072:4093  slot0.unlocked = true */\n      dup1\n      sload\n      0xff00ffffffffffffffffffffffffffffffffffffffffffffffffffffffffffff\n      and\n      0x01000000000000000000000000000000000000000000000000000000000000\n      or\n      swap1\n      sstore\n      pop\n      pop\n      pop\n      pop\n      pop\n      pop\n      pop\n      pop\n      pop\n      pop\n      pop\n      pop\n        /* \"contracts/uniswap/UniswapV3Pool.sol\":31949:33862  function flash(... */\n      jump\t// out\n        /* \"contracts/uniswap/UniswapV3Pool.sol\":18765:19800  function collect(... */\n    tag_72:\n        /* \"contracts/uniswap/UniswapV3Pool.sol\":18965:18980  uint128 amount0 */\n      0x00\n        /* \"contracts/uniswap/UniswapV3Pool.sol\":3997:4011  slot0.unlocked */\n      dup1\n      sload\n        /* \"contracts/uniswap/UniswapV3Pool.sol\":18965:18980  uint128 amount0 */\n      dup2\n      swap1\n        /* \"contracts/uniswap/UniswapV3Pool.sol\":3997:4011  slot0.unlocked */\n      0x01000000000000000000000000000000000000000000000000000000000000\n      swap1\n      div\n      0xff\n      and\n        /* \"contracts/uniswap/UniswapV3Pool.sol\":3989:4019  require(slot0.unlocked, 'LOK') */\n      tag_300\n      jumpi\n      0x00\n      dup1\n      revert\n    tag_300:\n        /* \"contracts/uniswap/UniswapV3Pool.sol\":4046:4051  false */\n      0x00\n        /* \"contracts/uniswap/UniswapV3Pool.sol\":4029:4051  slot0.unlocked = false */\n      dup1\n      sload\n      0xff00ffffffffffffffffffffffffffffffffffffffffffffffffffffffffffff\n      and\n      dup2\n      sstore\n        /* \"contracts/uniswap/UniswapV3Pool.sol\":19154:19201  positions.get(msg.sender, tickLower, tickUpper) */\n      tag_302\n        /* \"contracts/uniswap/UniswapV3Pool.sol\":19154:19163  positions */\n      0x07\n        /* \"contracts/uniswap/UniswapV3Pool.sol\":19168:19178  msg.sender */\n      caller\n        /* \"contracts/uniswap/UniswapV3Pool.sol\":19180:19189  tickLower */\n      dup10\n        /* \"contracts/uniswap/UniswapV3Pool.sol\":19191:19200  tickUpper */\n      dup10\n        /* \"contracts/uniswap/UniswapV3Pool.sol\":19154:19167  positions.get */\n      tag_303\n        /* \"contracts/uniswap/UniswapV3Pool.sol\":19154:19201  positions.get(msg.sender, tickLower, tickUpper) */\n      jump\t// in\n    tag_302:\n        /* \"contracts/uniswap/UniswapV3Pool.sol\":19241:19261  position.tokensOwed0 */\n      0x03\n      dup2\n      add\n      sload\n        /* \"contracts/uniswap/UniswapV3Pool.sol\":19121:19201  Position.Info storage position = positions.get(msg.sender, tickLower, tickUpper) */\n      swap1\n      swap2\n      pop\n        /* \"contracts/uniswap/UniswapV3Pool.sol\":19241:19261  position.tokensOwed0 */\n      0xffffffffffffffffffffffffffffffff\n      swap1\n      dup2\n      and\n        /* \"contracts/uniswap/UniswapV3Pool.sol\":19222:19261  amount0Requested > position.tokensOwed0 */\n      swap1\n      dup7\n      and\n      gt\n        /* \"contracts/uniswap/UniswapV3Pool.sol\":19222:19303  amount0Requested > position.tokensOwed0 ? position.tokensOwed0 : amount0Requested */\n      tag_304\n      jumpi\n        /* \"contracts/uniswap/UniswapV3Pool.sol\":19287:19303  amount0Requested */\n      dup5\n        /* \"contracts/uniswap/UniswapV3Pool.sol\":19222:19303  amount0Requested > position.tokensOwed0 ? position.tokensOwed0 : amount0Requested */\n      jump(tag_305)\n    tag_304:\n        /* \"contracts/uniswap/UniswapV3Pool.sol\":19264:19284  position.tokensOwed0 */\n      0x03\n      dup2\n      add\n      sload\n      0xffffffffffffffffffffffffffffffff\n      and\n        /* \"contracts/uniswap/UniswapV3Pool.sol\":19222:19303  amount0Requested > position.tokensOwed0 ? position.tokensOwed0 : amount0Requested */\n    tag_305:\n        /* \"contracts/uniswap/UniswapV3Pool.sol\":19342:19362  position.tokensOwed1 */\n      0x03\n      dup3\n      add\n      sload\n        /* \"contracts/uniswap/UniswapV3Pool.sol\":19212:19303  amount0 = amount0Requested > position.tokensOwed0 ? position.tokensOwed0 : amount0Requested */\n      swap1\n      swap4\n      pop\n        /* \"contracts/uniswap/UniswapV3Pool.sol\":19342:19362  position.tokensOwed1 */\n      0xffffffffffffffffffffffffffffffff\n      0x0100000000000000000000000000000000\n      swap1\n      swap2\n      div\n      dup2\n      and\n        /* \"contracts/uniswap/UniswapV3Pool.sol\":19323:19362  amount1Requested > position.tokensOwed1 */\n      swap1\n      dup6\n      and\n      gt\n        /* \"contracts/uniswap/UniswapV3Pool.sol\":19323:19404  amount1Requested > position.tokensOwed1 ? position.tokensOwed1 : amount1Requested */\n      tag_306\n      jumpi\n        /* \"contracts/uniswap/UniswapV3Pool.sol\":19388:19404  amount1Requested */\n      dup4\n        /* \"contracts/uniswap/UniswapV3Pool.sol\":19323:19404  amount1Requested > position.tokensOwed1 ? position.tokensOwed1 : amount1Requested */\n      jump(tag_307)\n    tag_306:\n        /* \"contracts/uniswap/UniswapV3Pool.sol\":19365:19385  position.tokensOwed1 */\n      0x03\n      dup2\n      add\n      sload\n      0x0100000000000000000000000000000000\n      swap1\n      div\n      0xffffffffffffffffffffffffffffffff\n      and\n        /* \"contracts/uniswap/UniswapV3Pool.sol\":19323:19404  amount1Requested > position.tokensOwed1 ? position.tokensOwed1 : amount1Requested */\n    tag_307:\n        /* \"contracts/uniswap/UniswapV3Pool.sol\":19313:19404  amount1 = amount1Requested > position.tokensOwed1 ? position.tokensOwed1 : amount1Requested */\n      swap2\n      pop\n        /* \"contracts/uniswap/UniswapV3Pool.sol\":19419:19430  amount0 > 0 */\n      0xffffffffffffffffffffffffffffffff\n      dup4\n      and\n      iszero\n        /* \"contracts/uniswap/UniswapV3Pool.sol\":19415:19557  if (amount0 > 0) {... */\n      tag_309\n      jumpi\n        /* \"contracts/uniswap/UniswapV3Pool.sol\":19446:19466  position.tokensOwed0 */\n      0x03\n      dup2\n      add\n        /* \"contracts/uniswap/UniswapV3Pool.sol\":19446:19477  position.tokensOwed0 -= amount0 */\n      dup1\n      sload\n      0xffffffffffffffffffffffffffffffff00000000000000000000000000000000\n      dup2\n      and\n      0xffffffffffffffffffffffffffffffff\n      swap2\n      dup3\n      and\n      dup7\n      swap1\n      sub\n      dup3\n      and\n      or\n      swap1\n      swap2\n      sstore\n        /* \"contracts/uniswap/UniswapV3Pool.sol\":19491:19546  TransferHelper.safeTransfer(token0, recipient, amount0) */\n      tag_309\n      swap1\n        /* \"contracts/uniswap/UniswapV3Pool.sol\":19519:19525  token0 */\n      immutable(\"0xb811eb8190fe00dc85563459f7e9e4ba4c2ef31ddac91e9e2d37d1e7e1b1d5bc\")\n      swap1\n        /* \"contracts/uniswap/UniswapV3Pool.sol\":19527:19536  recipient */\n      dup11\n      swap1\n        /* \"contracts/uniswap/UniswapV3Pool.sol\":19491:19546  TransferHelper.safeTransfer(token0, recipient, amount0) */\n      dup7\n      and\n        /* \"contracts/uniswap/UniswapV3Pool.sol\":19491:19518  TransferHelper.safeTransfer */\n      tag_208\n        /* \"contracts/uniswap/UniswapV3Pool.sol\":19491:19546  TransferHelper.safeTransfer(token0, recipient, amount0) */\n      jump\t// in\n    tag_309:\n        /* \"contracts/uniswap/UniswapV3Pool.sol\":19570:19581  amount1 > 0 */\n      0xffffffffffffffffffffffffffffffff\n      dup3\n      and\n      iszero\n        /* \"contracts/uniswap/UniswapV3Pool.sol\":19566:19708  if (amount1 > 0) {... */\n      tag_311\n      jumpi\n        /* \"contracts/uniswap/UniswapV3Pool.sol\":19597:19617  position.tokensOwed1 */\n      0x03\n      dup2\n      add\n        /* \"contracts/uniswap/UniswapV3Pool.sol\":19597:19628  position.tokensOwed1 -= amount1 */\n      dup1\n      sload\n      0xffffffffffffffffffffffffffffffff\n      0x0100000000000000000000000000000000\n      dup1\n      dup4\n      div\n      dup3\n      and\n      dup7\n      swap1\n      sub\n      dup3\n      and\n      mul\n      swap2\n      dup2\n      and\n      swap2\n      swap1\n      swap2\n      or\n      swap1\n      swap2\n      sstore\n        /* \"contracts/uniswap/UniswapV3Pool.sol\":19642:19697  TransferHelper.safeTransfer(token1, recipient, amount1) */\n      tag_311\n      swap1\n        /* \"contracts/uniswap/UniswapV3Pool.sol\":19670:19676  token1 */\n      immutable(\"0x712adca22095011a9de0b4aa84648bf2bea2744bd9326ede31e43d2a71662846\")\n      swap1\n        /* \"contracts/uniswap/UniswapV3Pool.sol\":19678:19687  recipient */\n      dup11\n      swap1\n        /* \"contracts/uniswap/UniswapV3Pool.sol\":19642:19697  TransferHelper.safeTransfer(token1, recipient, amount1) */\n      dup6\n      and\n        /* \"contracts/uniswap/UniswapV3Pool.sol\":19642:19669  TransferHelper.safeTransfer */\n      tag_208\n        /* \"contracts/uniswap/UniswapV3Pool.sol\":19642:19697  TransferHelper.safeTransfer(token1, recipient, amount1) */\n      jump\t// in\n    tag_311:\n        /* \"contracts/uniswap/UniswapV3Pool.sol\":19723:19793  Collect(msg.sender, recipient, tickLower, tickUpper, amount0, amount1) */\n      0x40\n      dup1\n      mload\n      sub(shl(0xa0, 0x01), 0x01)\n      dup11\n      and\n      dup2\n      mstore\n      0xffffffffffffffffffffffffffffffff\n      dup1\n      dup7\n      and\n      0x20\n      dup4\n      add\n      mstore\n      dup5\n      and\n      dup2\n      dup4\n      add\n      mstore\n      swap1\n      mload\n      0x02\n      dup9\n      dup2\n      signextend\n      swap3\n      swap1\n      dup11\n      swap1\n      signextend\n      swap2\n        /* \"contracts/uniswap/UniswapV3Pool.sol\":19731:19741  msg.sender */\n      caller\n      swap2\n        /* \"contracts/uniswap/UniswapV3Pool.sol\":19723:19793  Collect(msg.sender, recipient, tickLower, tickUpper, amount0, amount1) */\n      0x70935338e69775456a85ddef226c395fb668b63fa0115f5f20610b388e6ca9c0\n      swap2\n      swap1\n      dup2\n      swap1\n      sub\n      0x60\n      add\n      swap1\n      log4\n      pop\n        /* \"contracts/uniswap/UniswapV3Pool.sol\":4072:4077  slot0 */\n      0x00\n        /* \"contracts/uniswap/UniswapV3Pool.sol\":4072:4093  slot0.unlocked = true */\n      dup1\n      sload\n      0xff00ffffffffffffffffffffffffffffffffffffffffffffffffffffffffffff\n      and\n      0x01000000000000000000000000000000000000000000000000000000000000\n      or\n      swap1\n      sstore\n        /* \"contracts/uniswap/UniswapV3Pool.sol\":18765:19800  function collect(... */\n      swap1\n      swap7\n      swap1\n      swap6\n      pop\n      swap4\n      pop\n      pop\n      pop\n      pop\n      jump\t// out\n        /* \"contracts/uniswap/UniswapV3Pool.sol\":3449:3508  mapping(bytes32 => Position.Info) public override positions */\n    tag_75:\n      mstore(0x20, 0x07)\n      0x00\n      swap1\n      dup2\n      mstore\n      0x40\n      swap1\n      keccak256\n      dup1\n      sload\n      0x01\n      dup3\n      add\n      sload\n      0x02\n      dup4\n      add\n      sload\n      0x03\n      swap1\n      swap4\n      add\n      sload\n      0xffffffffffffffffffffffffffffffff\n      swap3\n      dup4\n      and\n      swap4\n      swap2\n      swap3\n      dup2\n      dup2\n      and\n      swap2\n      0x0100000000000000000000000000000000\n      swap1\n      div\n      and\n      dup6\n      jump\t// out\n        /* \"contracts/uniswap/UniswapV3Pool.sol\":3351:3403  mapping(int16 => uint256) public override tickBitmap */\n    tag_78:\n      mstore(0x20, 0x06)\n      0x00\n      swap1\n      dup2\n      mstore\n      0x40\n      swap1\n      keccak256\n      sload\n      dup2\n      jump\t// out\n        /* \"contracts/uniswap/UniswapV3Pool.sol\":1880:1933  uint128 public immutable override maxLiquidityPerTick */\n    tag_80:\n      immutable(\"0x631897788617bc63fb0292c44f57a6c3824e4264bc88fb4e3c08b910f3f417fc\")\n      dup2\n      jump\t// out\n        /* \"contracts/uniswap/UniswapV3Pool.sol\":33915:34428  function setFeeProtocol(uint8 feeProtocol0, uint8 feeProtocol1) external override lock onlyFactoryOwner {... */\n    tag_83:\n        /* \"contracts/uniswap/UniswapV3Pool.sol\":3997:4002  slot0 */\n      0x00\n        /* \"contracts/uniswap/UniswapV3Pool.sol\":3997:4011  slot0.unlocked */\n      sload\n      0x01000000000000000000000000000000000000000000000000000000000000\n      swap1\n      div\n      0xff\n      and\n        /* \"contracts/uniswap/UniswapV3Pool.sol\":3989:4019  require(slot0.unlocked, 'LOK') */\n      tag_313\n      jumpi\n      0x00\n      dup1\n      revert\n    tag_313:\n        /* \"contracts/uniswap/UniswapV3Pool.sol\":4046:4051  false */\n      0x00\n        /* \"contracts/uniswap/UniswapV3Pool.sol\":4029:4051  slot0.unlocked = false */\n      dup1\n      sload\n      0xff00ffffffffffffffffffffffffffffffffffffffffffffffffffffffffffff\n      and\n      swap1\n      sstore\n        /* \"contracts/uniswap/UniswapV3Pool.sol\":4276:4310  IUniswapV3Factory(factory).owner() */\n      0x40\n      dup1\n      mload\n      0x8da5cb5b00000000000000000000000000000000000000000000000000000000\n      dup2\n      mstore\n      swap1\n      mload\n      sub(shl(0xa0, 0x01), 0x01)\n        /* \"contracts/uniswap/UniswapV3Pool.sol\":4294:4301  factory */\n      immutable(\"0x7c8c0582d21a968b9aa25d45e0e719f1fe93aa4458f5d5939d507b861e308328\")\n        /* \"contracts/uniswap/UniswapV3Pool.sol\":4276:4308  IUniswapV3Factory(factory).owner */\n      and\n      swap2\n      0x8da5cb5b\n      swap2\n        /* \"contracts/uniswap/UniswapV3Pool.sol\":4276:4310  IUniswapV3Factory(factory).owner() */\n      0x04\n      dup1\n      dup4\n      add\n      swap3\n      0x20\n      swap3\n      swap2\n      swap1\n      dup3\n      swap1\n      sub\n      add\n      dup2\n        /* \"contracts/uniswap/UniswapV3Pool.sol\":4276:4308  IUniswapV3Factory(factory).owner */\n      dup7\n        /* \"contracts/uniswap/UniswapV3Pool.sol\":4276:4310  IUniswapV3Factory(factory).owner() */\n      dup1\n      extcodesize\n      iszero\n      dup1\n      iszero\n      tag_315\n      jumpi\n      0x00\n      dup1\n      revert\n    tag_315:\n      pop\n      gas\n      staticcall\n      iszero\n      dup1\n      iszero\n      tag_317\n      jumpi\n      returndatasize\n      0x00\n      dup1\n      returndatacopy\n      revert(0x00, returndatasize)\n    tag_317:\n      pop\n      pop\n      pop\n      pop\n      mload(0x40)\n      returndatasize\n      0x20\n      dup2\n      lt\n      iszero\n      tag_318\n      jumpi\n      0x00\n      dup1\n      revert\n    tag_318:\n      pop\n      mload\n      sub(shl(0xa0, 0x01), 0x01)\n        /* \"contracts/uniswap/UniswapV3Pool.sol\":4262:4310  msg.sender == IUniswapV3Factory(factory).owner() */\n      and\n        /* \"contracts/uniswap/UniswapV3Pool.sol\":4262:4272  msg.sender */\n      caller\n        /* \"contracts/uniswap/UniswapV3Pool.sol\":4262:4310  msg.sender == IUniswapV3Factory(factory).owner() */\n      eq\n        /* \"contracts/uniswap/UniswapV3Pool.sol\":4254:4311  require(msg.sender == IUniswapV3Factory(factory).owner()) */\n      tag_319\n      jumpi\n      0x00\n      dup1\n      revert\n    tag_319:\n        /* \"contracts/uniswap/UniswapV3Pool.sol\":34051:34068  feeProtocol0 == 0 */\n      0xff\n      dup3\n      and\n      iszero\n      dup1\n        /* \"contracts/uniswap/UniswapV3Pool.sol\":34051:34113  feeProtocol0 == 0 || (feeProtocol0 >= 4 && feeProtocol0 <= 10) */\n      tag_322\n      jumpi\n      pop\n        /* \"contracts/uniswap/UniswapV3Pool.sol\":34089:34090  4 */\n      0x04\n        /* \"contracts/uniswap/UniswapV3Pool.sol\":34073:34085  feeProtocol0 */\n      dup3\n        /* \"contracts/uniswap/UniswapV3Pool.sol\":34073:34090  feeProtocol0 >= 4 */\n      0xff\n      and\n      lt\n      iszero\n        /* \"contracts/uniswap/UniswapV3Pool.sol\":34073:34112  feeProtocol0 >= 4 && feeProtocol0 <= 10 */\n      dup1\n      iszero\n      tag_322\n      jumpi\n      pop\n        /* \"contracts/uniswap/UniswapV3Pool.sol\":34110:34112  10 */\n      0x0a\n        /* \"contracts/uniswap/UniswapV3Pool.sol\":34094:34106  feeProtocol0 */\n      dup3\n        /* \"contracts/uniswap/UniswapV3Pool.sol\":34094:34112  feeProtocol0 <= 10 */\n      0xff\n      and\n      gt\n      iszero\n        /* \"contracts/uniswap/UniswapV3Pool.sol\":34073:34112  feeProtocol0 >= 4 && feeProtocol0 <= 10 */\n    tag_322:\n        /* \"contracts/uniswap/UniswapV3Pool.sol\":34050:34198  (feeProtocol0 == 0 || (feeProtocol0 >= 4 && feeProtocol0 <= 10)) &&... */\n      dup1\n      iszero\n      tag_325\n      jumpi\n      pop\n        /* \"contracts/uniswap/UniswapV3Pool.sol\":34135:34152  feeProtocol1 == 0 */\n      0xff\n      dup2\n      and\n      iszero\n      dup1\n        /* \"contracts/uniswap/UniswapV3Pool.sol\":34135:34197  feeProtocol1 == 0 || (feeProtocol1 >= 4 && feeProtocol1 <= 10) */\n      tag_325\n      jumpi\n      pop\n        /* \"contracts/uniswap/UniswapV3Pool.sol\":34173:34174  4 */\n      0x04\n        /* \"contracts/uniswap/UniswapV3Pool.sol\":34157:34169  feeProtocol1 */\n      dup2\n        /* \"contracts/uniswap/UniswapV3Pool.sol\":34157:34174  feeProtocol1 >= 4 */\n      0xff\n      and\n      lt\n      iszero\n        /* \"contracts/uniswap/UniswapV3Pool.sol\":34157:34196  feeProtocol1 >= 4 && feeProtocol1 <= 10 */\n      dup1\n      iszero\n      tag_325\n      jumpi\n      pop\n        /* \"contracts/uniswap/UniswapV3Pool.sol\":34194:34196  10 */\n      0x0a\n        /* \"contracts/uniswap/UniswapV3Pool.sol\":34178:34190  feeProtocol1 */\n      dup2\n        /* \"contracts/uniswap/UniswapV3Pool.sol\":34178:34196  feeProtocol1 <= 10 */\n      0xff\n      and\n      gt\n      iszero\n        /* \"contracts/uniswap/UniswapV3Pool.sol\":34157:34196  feeProtocol1 >= 4 && feeProtocol1 <= 10 */\n    tag_325:\n        /* \"contracts/uniswap/UniswapV3Pool.sol\":34029:34208  require(... */\n      tag_326\n      jumpi\n      0x00\n      dup1\n      revert\n    tag_326:\n        /* \"contracts/uniswap/UniswapV3Pool.sol\":34218:34238  uint8 feeProtocolOld */\n      0x00\n        /* \"contracts/uniswap/UniswapV3Pool.sol\":34241:34258  slot0.feeProtocol */\n      dup1\n      sload\n        /* \"contracts/uniswap/UniswapV3Pool.sol\":34304:34321  feeProtocol1 << 4 */\n      0x0ff0\n        /* \"contracts/uniswap/UniswapV3Pool.sol\":34320:34321  4 */\n      0x04\n        /* \"contracts/uniswap/UniswapV3Pool.sol\":34304:34321  feeProtocol1 << 4 */\n      dup5\n      swap1\n      shl\n      and\n        /* \"contracts/uniswap/UniswapV3Pool.sol\":34288:34322  feeProtocol0 + (feeProtocol1 << 4) */\n      dup5\n      add\n        /* \"contracts/uniswap/UniswapV3Pool.sol\":34241:34258  slot0.feeProtocol */\n      0xff\n        /* \"contracts/uniswap/UniswapV3Pool.sol\":34268:34322  slot0.feeProtocol = feeProtocol0 + (feeProtocol1 << 4) */\n      swap1\n      dup2\n      and\n        /* \"contracts/uniswap/UniswapV3Pool.sol\":34241:34258  slot0.feeProtocol */\n      0x010000000000000000000000000000000000000000000000000000000000\n        /* \"contracts/uniswap/UniswapV3Pool.sol\":34268:34322  slot0.feeProtocol = feeProtocol0 + (feeProtocol1 << 4) */\n      swap1\n      dup2\n      mul\n      0xffff00ffffffffffffffffffffffffffffffffffffffffffffffffffffffffff\n      dup5\n      and\n      or\n      swap1\n      swap4\n      sstore\n        /* \"contracts/uniswap/UniswapV3Pool.sol\":34241:34258  slot0.feeProtocol */\n      swap2\n      swap1\n      div\n      and\n        /* \"contracts/uniswap/UniswapV3Pool.sol\":34337:34421  SetFeeProtocol(feeProtocolOld % 16, feeProtocolOld >> 4, feeProtocol0, feeProtocol1) */\n      0x973d8d92bb299f4af6ce49b52a8adb85ae46b9f214c4c4fc06ac77401237b133\n        /* \"contracts/uniswap/UniswapV3Pool.sol\":34369:34371  16 */\n      0x10\n        /* \"contracts/uniswap/UniswapV3Pool.sol\":34241:34258  slot0.feeProtocol */\n      dup3\n        /* \"contracts/uniswap/UniswapV3Pool.sol\":34337:34421  SetFeeProtocol(feeProtocolOld % 16, feeProtocolOld >> 4, feeProtocol0, feeProtocol1) */\n      0x40\n      dup1\n      mload\n        /* \"contracts/uniswap/UniswapV3Pool.sol\":34373:34392  feeProtocolOld >> 4 */\n      0xff\n        /* \"contracts/uniswap/UniswapV3Pool.sol\":34352:34371  feeProtocolOld % 16 */\n      swap4\n      swap1\n      swap3\n      mod\n        /* \"contracts/uniswap/UniswapV3Pool.sol\":34337:34421  SetFeeProtocol(feeProtocolOld % 16, feeProtocolOld >> 4, feeProtocol0, feeProtocol1) */\n      dup4\n      and\n      dup3\n      mstore\n        /* \"contracts/uniswap/UniswapV3Pool.sol\":34373:34392  feeProtocolOld >> 4 */\n      0x0f\n        /* \"contracts/uniswap/UniswapV3Pool.sol\":34391:34392  4 */\n      0x04\n        /* \"contracts/uniswap/UniswapV3Pool.sol\":34373:34392  feeProtocolOld >> 4 */\n      dup7\n      swap1\n      shr\n      and\n        /* \"contracts/uniswap/UniswapV3Pool.sol\":34337:34421  SetFeeProtocol(feeProtocolOld % 16, feeProtocolOld >> 4, feeProtocol0, feeProtocol1) */\n      0x20\n      dup4\n      add\n      mstore\n      dup7\n      dup4\n      and\n      dup3\n      dup3\n      add\n      mstore\n      swap2\n      dup6\n      and\n      0x60\n      dup3\n      add\n      mstore\n      swap1\n      mload\n      swap1\n      dup2\n      swap1\n      sub\n      0x80\n      add\n      swap1\n      log1\n      pop\n      pop\n        /* \"contracts/uniswap/UniswapV3Pool.sol\":4072:4077  slot0 */\n      0x00\n        /* \"contracts/uniswap/UniswapV3Pool.sol\":4072:4093  slot0.unlocked = true */\n      dup1\n      sload\n      0xff00ffffffffffffffffffffffffffffffffffffffffffffffffffffffffffff\n      and\n      0x01000000000000000000000000000000000000000000000000000000000000\n      or\n      swap1\n      sstore\n      pop\n        /* \"contracts/uniswap/UniswapV3Pool.sol\":33915:34428  function setFeeProtocol(uint8 feeProtocol0, uint8 feeProtocol1) external override lock onlyFactoryOwner {... */\n      jump\t// out\n        /* \"contracts/uniswap/UniswapV3Pool.sol\":34481:35498  function collectProtocol(... */\n    tag_86:\n        /* \"contracts/uniswap/UniswapV3Pool.sol\":34656:34671  uint128 amount0 */\n      0x00\n        /* \"contracts/uniswap/UniswapV3Pool.sol\":3997:4011  slot0.unlocked */\n      dup1\n      sload\n        /* \"contracts/uniswap/UniswapV3Pool.sol\":34656:34671  uint128 amount0 */\n      dup2\n      swap1\n        /* \"contracts/uniswap/UniswapV3Pool.sol\":3997:4011  slot0.unlocked */\n      0x01000000000000000000000000000000000000000000000000000000000000\n      swap1\n      div\n      0xff\n      and\n        /* \"contracts/uniswap/UniswapV3Pool.sol\":3989:4019  require(slot0.unlocked, 'LOK') */\n      tag_329\n      jumpi\n      0x00\n      dup1\n      revert\n    tag_329:\n        /* \"contracts/uniswap/UniswapV3Pool.sol\":4046:4051  false */\n      0x00\n        /* \"contracts/uniswap/UniswapV3Pool.sol\":4029:4051  slot0.unlocked = false */\n      dup1\n      sload\n      0xff00ffffffffffffffffffffffffffffffffffffffffffffffffffffffffffff\n      and\n      swap1\n      sstore\n        /* \"contracts/uniswap/UniswapV3Pool.sol\":4276:4310  IUniswapV3Factory(factory).owner() */\n      0x40\n      dup1\n      mload\n      0x8da5cb5b00000000000000000000000000000000000000000000000000000000\n      dup2\n      mstore\n      swap1\n      mload\n      sub(shl(0xa0, 0x01), 0x01)\n        /* \"contracts/uniswap/UniswapV3Pool.sol\":4294:4301  factory */\n      immutable(\"0x7c8c0582d21a968b9aa25d45e0e719f1fe93aa4458f5d5939d507b861e308328\")\n        /* \"contracts/uniswap/UniswapV3Pool.sol\":4276:4308  IUniswapV3Factory(factory).owner */\n      and\n      swap2\n      0x8da5cb5b\n      swap2\n        /* \"contracts/uniswap/UniswapV3Pool.sol\":4276:4310  IUniswapV3Factory(factory).owner() */\n      0x04\n      dup1\n      dup4\n      add\n      swap3\n      0x20\n      swap3\n      swap2\n      swap1\n      dup3\n      swap1\n      sub\n      add\n      dup2\n        /* \"contracts/uniswap/UniswapV3Pool.sol\":4276:4308  IUniswapV3Factory(factory).owner */\n      dup7\n        /* \"contracts/uniswap/UniswapV3Pool.sol\":4276:4310  IUniswapV3Factory(factory).owner() */\n      dup1\n      extcodesize\n      iszero\n      dup1\n      iszero\n      tag_331\n      jumpi\n      0x00\n      dup1\n      revert\n    tag_331:\n      pop\n      gas\n      staticcall\n      iszero\n      dup1\n      iszero\n      tag_333\n      jumpi\n      returndatasize\n      0x00\n      dup1\n      returndatacopy\n      revert(0x00, returndatasize)\n    tag_333:\n      pop\n      pop\n      pop\n      pop\n      mload(0x40)\n      returndatasize\n      0x20\n      dup2\n      lt\n      iszero\n      tag_334\n      jumpi\n      0x00\n      dup1\n      revert\n    tag_334:\n      pop\n      mload\n      sub(shl(0xa0, 0x01), 0x01)\n        /* \"contracts/uniswap/UniswapV3Pool.sol\":4262:4310  msg.sender == IUniswapV3Factory(factory).owner() */\n      and\n        /* \"contracts/uniswap/UniswapV3Pool.sol\":4262:4272  msg.sender */\n      caller\n        /* \"contracts/uniswap/UniswapV3Pool.sol\":4262:4310  msg.sender == IUniswapV3Factory(factory).owner() */\n      eq\n        /* \"contracts/uniswap/UniswapV3Pool.sol\":4254:4311  require(msg.sender == IUniswapV3Factory(factory).owner()) */\n      tag_335\n      jumpi\n      0x00\n      dup1\n      revert\n    tag_335:\n        /* \"contracts/uniswap/UniswapV3Pool.sol\":34729:34741  protocolFees */\n      0x03\n        /* \"contracts/uniswap/UniswapV3Pool.sol\":34729:34748  protocolFees.token0 */\n      sload\n      0xffffffffffffffffffffffffffffffff\n      swap1\n      dup2\n      and\n        /* \"contracts/uniswap/UniswapV3Pool.sol\":34710:34748  amount0Requested > protocolFees.token0 */\n      swap1\n      dup6\n      and\n      gt\n        /* \"contracts/uniswap/UniswapV3Pool.sol\":34710:34789  amount0Requested > protocolFees.token0 ? protocolFees.token0 : amount0Requested */\n      tag_337\n      jumpi\n        /* \"contracts/uniswap/UniswapV3Pool.sol\":34773:34789  amount0Requested */\n      dup4\n        /* \"contracts/uniswap/UniswapV3Pool.sol\":34710:34789  amount0Requested > protocolFees.token0 ? protocolFees.token0 : amount0Requested */\n      jump(tag_338)\n    tag_337:\n        /* \"contracts/uniswap/UniswapV3Pool.sol\":34751:34763  protocolFees */\n      0x03\n        /* \"contracts/uniswap/UniswapV3Pool.sol\":34751:34770  protocolFees.token0 */\n      sload\n      0xffffffffffffffffffffffffffffffff\n      and\n        /* \"contracts/uniswap/UniswapV3Pool.sol\":34710:34789  amount0Requested > protocolFees.token0 ? protocolFees.token0 : amount0Requested */\n    tag_338:\n        /* \"contracts/uniswap/UniswapV3Pool.sol\":34828:34840  protocolFees */\n      0x03\n        /* \"contracts/uniswap/UniswapV3Pool.sol\":34828:34847  protocolFees.token1 */\n      sload\n        /* \"contracts/uniswap/UniswapV3Pool.sol\":34700:34789  amount0 = amount0Requested > protocolFees.token0 ? protocolFees.token0 : amount0Requested */\n      swap1\n      swap3\n      pop\n        /* \"contracts/uniswap/UniswapV3Pool.sol\":34828:34847  protocolFees.token1 */\n      0xffffffffffffffffffffffffffffffff\n      0x0100000000000000000000000000000000\n      swap1\n      swap2\n      div\n      dup2\n      and\n        /* \"contracts/uniswap/UniswapV3Pool.sol\":34809:34847  amount1Requested > protocolFees.token1 */\n      swap1\n      dup5\n      and\n      gt\n        /* \"contracts/uniswap/UniswapV3Pool.sol\":34809:34888  amount1Requested > protocolFees.token1 ? protocolFees.token1 : amount1Requested */\n      tag_339\n      jumpi\n        /* \"contracts/uniswap/UniswapV3Pool.sol\":34872:34888  amount1Requested */\n      dup3\n        /* \"contracts/uniswap/UniswapV3Pool.sol\":34809:34888  amount1Requested > protocolFees.token1 ? protocolFees.token1 : amount1Requested */\n      jump(tag_340)\n    tag_339:\n        /* \"contracts/uniswap/UniswapV3Pool.sol\":34850:34862  protocolFees */\n      0x03\n        /* \"contracts/uniswap/UniswapV3Pool.sol\":34850:34869  protocolFees.token1 */\n      sload\n      0x0100000000000000000000000000000000\n      swap1\n      div\n      0xffffffffffffffffffffffffffffffff\n      and\n        /* \"contracts/uniswap/UniswapV3Pool.sol\":34809:34888  amount1Requested > protocolFees.token1 ? protocolFees.token1 : amount1Requested */\n    tag_340:\n        /* \"contracts/uniswap/UniswapV3Pool.sol\":34799:34888  amount1 = amount1Requested > protocolFees.token1 ? protocolFees.token1 : amount1Requested */\n      swap1\n      pop\n        /* \"contracts/uniswap/UniswapV3Pool.sol\":34903:34914  amount0 > 0 */\n      0xffffffffffffffffffffffffffffffff\n      dup3\n      and\n      iszero\n        /* \"contracts/uniswap/UniswapV3Pool.sol\":34899:35155  if (amount0 > 0) {... */\n      tag_343\n      jumpi\n        /* \"contracts/uniswap/UniswapV3Pool.sol\":34945:34957  protocolFees */\n      0x03\n        /* \"contracts/uniswap/UniswapV3Pool.sol\":34945:34964  protocolFees.token0 */\n      sload\n      0xffffffffffffffffffffffffffffffff\n        /* \"contracts/uniswap/UniswapV3Pool.sol\":34934:34964  amount0 == protocolFees.token0 */\n      dup4\n      dup2\n      and\n        /* \"contracts/uniswap/UniswapV3Pool.sol\":34945:34964  protocolFees.token0 */\n      swap2\n      and\n        /* \"contracts/uniswap/UniswapV3Pool.sol\":34934:34964  amount0 == protocolFees.token0 */\n      eq\n        /* \"contracts/uniswap/UniswapV3Pool.sol\":34930:34975  if (amount0 == protocolFees.token0) amount0-- */\n      iszero\n      tag_342\n      jumpi\n        /* \"contracts/uniswap/UniswapV3Pool.sol\":34966:34975  amount0-- */\n      0xffffffffffffffffffffffffffffffffffffffffffffffffffffffffffffffff\n      swap1\n      swap2\n      add\n      swap1\n        /* \"contracts/uniswap/UniswapV3Pool.sol\":34930:34975  if (amount0 == protocolFees.token0) amount0-- */\n    tag_342:\n        /* \"contracts/uniswap/UniswapV3Pool.sol\":35045:35057  protocolFees */\n      0x03\n        /* \"contracts/uniswap/UniswapV3Pool.sol\":35045:35075  protocolFees.token0 -= amount0 */\n      dup1\n      sload\n      0xffffffffffffffffffffffffffffffff00000000000000000000000000000000\n      dup2\n      and\n      0xffffffffffffffffffffffffffffffff\n      swap2\n      dup3\n      and\n      dup6\n      swap1\n      sub\n      dup3\n      and\n      or\n      swap1\n      swap2\n      sstore\n        /* \"contracts/uniswap/UniswapV3Pool.sol\":35089:35144  TransferHelper.safeTransfer(token0, recipient, amount0) */\n      tag_343\n      swap1\n        /* \"contracts/uniswap/UniswapV3Pool.sol\":35117:35123  token0 */\n      immutable(\"0xb811eb8190fe00dc85563459f7e9e4ba4c2ef31ddac91e9e2d37d1e7e1b1d5bc\")\n      swap1\n        /* \"contracts/uniswap/UniswapV3Pool.sol\":35125:35134  recipient */\n      dup8\n      swap1\n        /* \"contracts/uniswap/UniswapV3Pool.sol\":35089:35144  TransferHelper.safeTransfer(token0, recipient, amount0) */\n      dup6\n      and\n        /* \"contracts/uniswap/UniswapV3Pool.sol\":35089:35116  TransferHelper.safeTransfer */\n      tag_208\n        /* \"contracts/uniswap/UniswapV3Pool.sol\":35089:35144  TransferHelper.safeTransfer(token0, recipient, amount0) */\n      jump\t// in\n    tag_343:\n        /* \"contracts/uniswap/UniswapV3Pool.sol\":35168:35179  amount1 > 0 */\n      0xffffffffffffffffffffffffffffffff\n      dup2\n      and\n      iszero\n        /* \"contracts/uniswap/UniswapV3Pool.sol\":35164:35420  if (amount1 > 0) {... */\n      tag_346\n      jumpi\n        /* \"contracts/uniswap/UniswapV3Pool.sol\":35210:35222  protocolFees */\n      0x03\n        /* \"contracts/uniswap/UniswapV3Pool.sol\":35210:35229  protocolFees.token1 */\n      sload\n      0xffffffffffffffffffffffffffffffff\n        /* \"contracts/uniswap/UniswapV3Pool.sol\":35199:35229  amount1 == protocolFees.token1 */\n      dup3\n      dup2\n      and\n        /* \"contracts/uniswap/UniswapV3Pool.sol\":35210:35229  protocolFees.token1 */\n      0x0100000000000000000000000000000000\n      swap1\n      swap3\n      div\n      and\n        /* \"contracts/uniswap/UniswapV3Pool.sol\":35199:35229  amount1 == protocolFees.token1 */\n      eq\n        /* \"contracts/uniswap/UniswapV3Pool.sol\":35195:35240  if (amount1 == protocolFees.token1) amount1-- */\n      iszero\n      tag_345\n      jumpi\n        /* \"contracts/uniswap/UniswapV3Pool.sol\":35231:35240  amount1-- */\n      0xffffffffffffffffffffffffffffffffffffffffffffffffffffffffffffffff\n      add\n        /* \"contracts/uniswap/UniswapV3Pool.sol\":35195:35240  if (amount1 == protocolFees.token1) amount1-- */\n    tag_345:\n        /* \"contracts/uniswap/UniswapV3Pool.sol\":35310:35322  protocolFees */\n      0x03\n        /* \"contracts/uniswap/UniswapV3Pool.sol\":35310:35340  protocolFees.token1 -= amount1 */\n      dup1\n      sload\n      0xffffffffffffffffffffffffffffffff\n      0x0100000000000000000000000000000000\n      dup1\n      dup4\n      div\n      dup3\n      and\n      dup6\n      swap1\n      sub\n      dup3\n      and\n      mul\n      swap2\n      dup2\n      and\n      swap2\n      swap1\n      swap2\n      or\n      swap1\n      swap2\n      sstore\n        /* \"contracts/uniswap/UniswapV3Pool.sol\":35354:35409  TransferHelper.safeTransfer(token1, recipient, amount1) */\n      tag_346\n      swap1\n        /* \"contracts/uniswap/UniswapV3Pool.sol\":35382:35388  token1 */\n      immutable(\"0x712adca22095011a9de0b4aa84648bf2bea2744bd9326ede31e43d2a71662846\")\n      swap1\n        /* \"contracts/uniswap/UniswapV3Pool.sol\":35390:35399  recipient */\n      dup8\n      swap1\n        /* \"contracts/uniswap/UniswapV3Pool.sol\":35354:35409  TransferHelper.safeTransfer(token1, recipient, amount1) */\n      dup5\n      and\n        /* \"contracts/uniswap/UniswapV3Pool.sol\":35354:35381  TransferHelper.safeTransfer */\n      tag_208\n        /* \"contracts/uniswap/UniswapV3Pool.sol\":35354:35409  TransferHelper.safeTransfer(token1, recipient, amount1) */\n      jump\t// in\n    tag_346:\n        /* \"contracts/uniswap/UniswapV3Pool.sol\":35435:35491  CollectProtocol(msg.sender, recipient, amount0, amount1) */\n      0x40\n      dup1\n      mload\n      0xffffffffffffffffffffffffffffffff\n      dup1\n      dup6\n      and\n      dup3\n      mstore\n      dup4\n      and\n      0x20\n      dup3\n      add\n      mstore\n      dup2\n      mload\n      sub(shl(0xa0, 0x01), 0x01)\n      dup9\n      and\n      swap3\n        /* \"contracts/uniswap/UniswapV3Pool.sol\":35451:35461  msg.sender */\n      caller\n      swap3\n        /* \"contracts/uniswap/UniswapV3Pool.sol\":35435:35491  CollectProtocol(msg.sender, recipient, amount0, amount1) */\n      0x596b573906218d3411850b26a6b437d6c4522fdb43d2d2386263f86d50b8b151\n      swap3\n      swap1\n      dup2\n      swap1\n      sub\n      swap1\n      swap2\n      add\n      swap1\n      log3\n        /* \"contracts/uniswap/UniswapV3Pool.sol\":4072:4077  slot0 */\n      0x00\n        /* \"contracts/uniswap/UniswapV3Pool.sol\":4072:4093  slot0.unlocked = true */\n      dup1\n      sload\n      0xff00ffffffffffffffffffffffffffffffffffffffffffffffffffffffffffff\n      and\n      0x01000000000000000000000000000000000000000000000000000000000000\n      or\n      swap1\n      sstore\n        /* \"contracts/uniswap/UniswapV3Pool.sol\":34481:35498  function collectProtocol(... */\n      swap1\n      swap5\n      swap1\n      swap4\n      pop\n      swap2\n      pop\n      pop\n      jump\t// out\n        /* \"contracts/uniswap/UniswapV3Pool.sol\":9076:9575  function observe(uint32[] calldata secondsAgos)... */\n    tag_92:\n        /* \"contracts/uniswap/UniswapV3Pool.sol\":9211:9241  int56[] memory tickCumulatives */\n      0x60\n        /* \"contracts/uniswap/UniswapV3Pool.sol\":9243:9294  uint160[] memory secondsPerLiquidityCumulativeX128s */\n      dup1\n        /* \"contracts/uniswap/NoDelegateCall.sol\":1036:1058  checkNotDelegateCall() */\n      tag_348\n        /* \"contracts/uniswap/NoDelegateCall.sol\":1036:1056  checkNotDelegateCall */\n      tag_124\n        /* \"contracts/uniswap/NoDelegateCall.sol\":1036:1058  checkNotDelegateCall() */\n      jump\t// in\n    tag_348:\n        /* \"contracts/uniswap/UniswapV3Pool.sol\":9329:9568  observations.observe(... */\n      tag_350\n        /* \"contracts/uniswap/UniswapV3Pool.sol\":9367:9384  _blockTimestamp() */\n      tag_351\n        /* \"contracts/uniswap/UniswapV3Pool.sol\":9367:9382  _blockTimestamp */\n      tag_137\n        /* \"contracts/uniswap/UniswapV3Pool.sol\":9367:9384  _blockTimestamp() */\n      jump\t// in\n    tag_351:\n        /* \"contracts/uniswap/UniswapV3Pool.sol\":9402:9413  secondsAgos */\n      dup6\n      dup6\n        /* \"contracts/uniswap/UniswapV3Pool.sol\":9329:9568  observations.observe(... */\n      dup1\n      dup1\n      0x20\n      mul\n      0x20\n      add\n      mload(0x40)\n      swap1\n      dup2\n      add\n      0x40\n      mstore\n      dup1\n      swap4\n      swap3\n      swap2\n      swap1\n      dup2\n      dup2\n      mstore\n      0x20\n      add\n      dup4\n      dup4\n      0x20\n      mul\n      dup1\n      dup3\n      dup5\n      calldatacopy\n      0x00\n      swap3\n      add\n      dup3\n      swap1\n      mstore\n      pop\n        /* \"contracts/uniswap/UniswapV3Pool.sol\":9431:9441  slot0.tick */\n      sload\n        /* \"contracts/uniswap/UniswapV3Pool.sol\":9499:9508  liquidity */\n      sload(0x04)\n        /* \"contracts/uniswap/UniswapV3Pool.sol\":9329:9341  observations */\n      0x08\n      swap7\n        /* \"contracts/uniswap/UniswapV3Pool.sol\":9329:9568  observations.observe(... */\n      swap6\n      swap5\n      pop\n        /* \"contracts/uniswap/UniswapV3Pool.sol\":9431:9441  slot0.tick */\n      0x010000000000000000000000000000000000000000\n      dup3\n      div\n      0x02\n      signextend\n      swap4\n      pop\n        /* \"contracts/uniswap/UniswapV3Pool.sol\":9459:9481  slot0.observationIndex */\n      0xffff\n      0x010000000000000000000000000000000000000000000000\n      dup4\n      div\n      dup2\n      and\n      swap4\n      pop\n        /* \"contracts/uniswap/UniswapV3Pool.sol\":9499:9508  liquidity */\n      0xffffffffffffffffffffffffffffffff\n      swap1\n      swap2\n      and\n      swap2\n        /* \"contracts/uniswap/UniswapV3Pool.sol\":9526:9554  slot0.observationCardinality */\n      0x0100000000000000000000000000000000000000000000000000\n      swap1\n      div\n      and\n        /* \"contracts/uniswap/UniswapV3Pool.sol\":9329:9349  observations.observe */\n      tag_352\n        /* \"contracts/uniswap/UniswapV3Pool.sol\":9329:9568  observations.observe(... */\n      jump\t// in\n    tag_350:\n        /* \"contracts/uniswap/UniswapV3Pool.sol\":9310:9568  return... */\n      swap2\n      pop\n      swap2\n      pop\n        /* \"contracts/uniswap/UniswapV3Pool.sol\":9076:9575  function observe(uint32[] calldata secondsAgos)... */\n      swap3\n      pop\n      swap3\n      swap1\n      pop\n      jump\t// out\n        /* \"contracts/uniswap/UniswapV3Pool.sol\":19918:20857  function burn(... */\n    tag_101:\n        /* \"contracts/uniswap/UniswapV3Pool.sol\":20044:20059  uint256 amount0 */\n      0x00\n        /* \"contracts/uniswap/UniswapV3Pool.sol\":3997:4011  slot0.unlocked */\n      dup1\n      sload\n        /* \"contracts/uniswap/UniswapV3Pool.sol\":20044:20059  uint256 amount0 */\n      dup2\n      swap1\n        /* \"contracts/uniswap/UniswapV3Pool.sol\":3997:4011  slot0.unlocked */\n      0x01000000000000000000000000000000000000000000000000000000000000\n      swap1\n      div\n      0xff\n      and\n        /* \"contracts/uniswap/UniswapV3Pool.sol\":3989:4019  require(slot0.unlocked, 'LOK') */\n      tag_354\n      jumpi\n      0x00\n      dup1\n      revert\n    tag_354:\n        /* \"contracts/uniswap/UniswapV3Pool.sol\":4046:4051  false */\n      0x00\n        /* \"contracts/uniswap/UniswapV3Pool.sol\":4029:4051  slot0.unlocked = false */\n      dup1\n      sload\n      0xff00ffffffffffffffffffffffffffffffffffffffffffffffffffffffffffff\n      and\n      dup2\n      sstore\n        /* \"contracts/uniswap/UniswapV3Pool.sol\":20206:20433  ModifyPositionParams({... */\n      0x40\n      dup1\n      mload\n      0x80\n      dup2\n      add\n      dup3\n      mstore\n        /* \"contracts/uniswap/UniswapV3Pool.sol\":20256:20266  msg.sender */\n      caller\n        /* \"contracts/uniswap/UniswapV3Pool.sol\":20206:20433  ModifyPositionParams({... */\n      dup2\n      mstore\n      0x02\n      dup9\n      dup2\n      signextend\n      0x20\n      dup4\n      add\n      mstore\n      dup8\n      swap1\n      signextend\n      swap2\n      dup2\n      add\n      swap2\n      swap1\n      swap2\n      mstore\n        /* \"contracts/uniswap/UniswapV3Pool.sol\":4046:4051  false */\n      dup2\n      swap1\n      dup2\n      swap1\n        /* \"contracts/uniswap/UniswapV3Pool.sol\":20173:20447  _modifyPosition(... */\n      tag_356\n      swap1\n        /* \"contracts/uniswap/UniswapV3Pool.sol\":20206:20433  ModifyPositionParams({... */\n      0x60\n      dup2\n      add\n        /* \"contracts/uniswap/UniswapV3Pool.sol\":20389:20414  int256(amount).toInt128() */\n      tag_357\n        /* \"contracts/uniswap/UniswapV3Pool.sol\":20389:20403  int256(amount) */\n      0xffffffffffffffffffffffffffffffff\n      dup11\n      and\n        /* \"contracts/uniswap/UniswapV3Pool.sol\":20389:20412  int256(amount).toInt128 */\n      tag_245\n        /* \"contracts/uniswap/UniswapV3Pool.sol\":20389:20414  int256(amount).toInt128() */\n      jump\t// in\n    tag_357:\n        /* \"contracts/uniswap/UniswapV3Pool.sol\":20388:20414  -int256(amount).toInt128() */\n      0x00\n      sub\n        /* \"contracts/uniswap/UniswapV3Pool.sol\":20206:20433  ModifyPositionParams({... */\n      0x0f\n      signextend\n      swap1\n      mstore\n        /* \"contracts/uniswap/UniswapV3Pool.sol\":20173:20188  _modifyPosition */\n      tag_246\n        /* \"contracts/uniswap/UniswapV3Pool.sol\":20173:20447  _modifyPosition(... */\n      jump\t// in\n    tag_356:\n        /* \"contracts/uniswap/UniswapV3Pool.sol\":20088:20447  (Position.Info storage position, int256 amount0Int, int256 amount1Int) =... */\n      swap3\n      pop\n      swap3\n      pop\n      swap3\n      pop\n        /* \"contracts/uniswap/UniswapV3Pool.sol\":20477:20487  amount0Int */\n      dup2\n        /* \"contracts/uniswap/UniswapV3Pool.sol\":20476:20487  -amount0Int */\n      0x00\n      sub\n        /* \"contracts/uniswap/UniswapV3Pool.sol\":20458:20488  amount0 = uint256(-amount0Int) */\n      swap5\n      pop\n        /* \"contracts/uniswap/UniswapV3Pool.sol\":20517:20527  amount1Int */\n      dup1\n        /* \"contracts/uniswap/UniswapV3Pool.sol\":20516:20527  -amount1Int */\n      0x00\n      sub\n        /* \"contracts/uniswap/UniswapV3Pool.sol\":20498:20528  amount1 = uint256(-amount1Int) */\n      swap4\n      pop\n        /* \"contracts/uniswap/UniswapV3Pool.sol\":20553:20554  0 */\n      0x00\n        /* \"contracts/uniswap/UniswapV3Pool.sol\":20543:20550  amount0 */\n      dup6\n        /* \"contracts/uniswap/UniswapV3Pool.sol\":20543:20554  amount0 > 0 */\n      gt\n        /* \"contracts/uniswap/UniswapV3Pool.sol\":20543:20569  amount0 > 0 || amount1 > 0 */\n      dup1\n      tag_358\n      jumpi\n      pop\n        /* \"contracts/uniswap/UniswapV3Pool.sol\":20568:20569  0 */\n      0x00\n        /* \"contracts/uniswap/UniswapV3Pool.sol\":20558:20565  amount1 */\n      dup5\n        /* \"contracts/uniswap/UniswapV3Pool.sol\":20558:20569  amount1 > 0 */\n      gt\n        /* \"contracts/uniswap/UniswapV3Pool.sol\":20543:20569  amount0 > 0 || amount1 > 0 */\n    tag_358:\n        /* \"contracts/uniswap/UniswapV3Pool.sol\":20539:20771  if (amount0 > 0 || amount1 > 0) {... */\n      iszero\n      tag_359\n      jumpi\n        /* \"contracts/uniswap/UniswapV3Pool.sol\":20650:20670  position.tokensOwed0 */\n      0x03\n      dup4\n      add\n      dup1\n      sload\n      0xffffffffffffffffffffffffffffffff\n      dup1\n      dup3\n      and\n        /* \"contracts/uniswap/UniswapV3Pool.sol\":20650:20689  position.tokensOwed0 + uint128(amount0) */\n      dup1\n      dup10\n      add\n        /* \"contracts/uniswap/UniswapV3Pool.sol\":20585:20760  (position.tokensOwed0, position.tokensOwed1) = (... */\n      dup3\n      and\n        /* \"contracts/uniswap/UniswapV3Pool.sol\":20707:20727  position.tokensOwed1 */\n      0x0100000000000000000000000000000000\n      swap4\n      dup5\n      swap1\n      div\n      dup4\n      and\n        /* \"contracts/uniswap/UniswapV3Pool.sol\":20707:20746  position.tokensOwed1 + uint128(amount1) */\n      dup10\n      add\n        /* \"contracts/uniswap/UniswapV3Pool.sol\":20585:20760  (position.tokensOwed0, position.tokensOwed1) = (... */\n      swap1\n      swap3\n      and\n      swap1\n      swap3\n      mul\n      swap1\n      swap2\n      or\n      0xffffffffffffffffffffffffffffffff00000000000000000000000000000000\n      and\n      or\n      swap1\n      sstore\n        /* \"contracts/uniswap/UniswapV3Pool.sol\":20539:20771  if (amount0 > 0 || amount1 > 0) {... */\n    tag_359:\n        /* \"contracts/uniswap/UniswapV3Pool.sol\":20786:20850  Burn(msg.sender, tickLower, tickUpper, amount, amount0, amount1) */\n      0x40\n      dup1\n      mload\n      0xffffffffffffffffffffffffffffffff\n      dup9\n      and\n      dup2\n      mstore\n      0x20\n      dup2\n      add\n      dup8\n      swap1\n      mstore\n      dup1\n      dup3\n      add\n      dup7\n      swap1\n      mstore\n      swap1\n      mload\n      0x02\n      dup10\n      dup2\n      signextend\n      swap3\n      swap1\n      dup12\n      swap1\n      signextend\n      swap2\n        /* \"contracts/uniswap/UniswapV3Pool.sol\":20791:20801  msg.sender */\n      caller\n      swap2\n        /* \"contracts/uniswap/UniswapV3Pool.sol\":20786:20850  Burn(msg.sender, tickLower, tickUpper, amount, amount0, amount1) */\n      0x0c396cd989a39f4459b5fa1aed6a9a8dcdbc45908acfd67e028cd568da98982c\n      swap2\n      swap1\n      dup2\n      swap1\n      sub\n      0x60\n      add\n      swap1\n      log4\n      pop\n      pop\n        /* \"contracts/uniswap/UniswapV3Pool.sol\":4072:4077  slot0 */\n      0x00\n        /* \"contracts/uniswap/UniswapV3Pool.sol\":4072:4093  slot0.unlocked = true */\n      dup1\n      sload\n      0xff00ffffffffffffffffffffffffffffffffffffffffffffffffffffffffffff\n      and\n      0x01000000000000000000000000000000000000000000000000000000000000\n      or\n      swap1\n      sstore\n      pop\n        /* \"contracts/uniswap/UniswapV3Pool.sol\":19918:20857  function burn(... */\n      swap1\n      swap5\n      swap1\n      swap4\n      pop\n      swap2\n      pop\n      pop\n      jump\t// out\n        /* \"contracts/uniswap/UniswapV3Pool.sol\":6169:9023  function snapshotCumulativesInside(int24 tickLower, int24 tickUpper)... */\n    tag_104:\n        /* \"contracts/uniswap/UniswapV3Pool.sol\":6338:6364  int56 tickCumulativeInside */\n      0x00\n        /* \"contracts/uniswap/UniswapV3Pool.sol\":6378:6415  uint160 secondsPerLiquidityInsideX128 */\n      dup1\n        /* \"contracts/uniswap/UniswapV3Pool.sol\":6429:6449  uint32 secondsInside */\n      0x00\n        /* \"contracts/uniswap/NoDelegateCall.sol\":1036:1058  checkNotDelegateCall() */\n      tag_361\n        /* \"contracts/uniswap/NoDelegateCall.sol\":1036:1056  checkNotDelegateCall */\n      tag_124\n        /* \"contracts/uniswap/NoDelegateCall.sol\":1036:1058  checkNotDelegateCall() */\n      jump\t// in\n    tag_361:\n        /* \"contracts/uniswap/UniswapV3Pool.sol\":6474:6506  checkTicks(tickLower, tickUpper) */\n      tag_363\n        /* \"contracts/uniswap/UniswapV3Pool.sol\":6485:6494  tickLower */\n      dup6\n        /* \"contracts/uniswap/UniswapV3Pool.sol\":6496:6505  tickUpper */\n      dup6\n        /* \"contracts/uniswap/UniswapV3Pool.sol\":6474:6484  checkTicks */\n      tag_364\n        /* \"contracts/uniswap/UniswapV3Pool.sol\":6474:6506  checkTicks(tickLower, tickUpper) */\n      jump\t// in\n    tag_363:\n        /* \"contracts/uniswap/UniswapV3Pool.sol\":6806:6822  ticks[tickLower] */\n      0x02\n      dup6\n      dup2\n      signextend\n      dup2\n      signextend\n        /* \"contracts/uniswap/UniswapV3Pool.sol\":6517:6542  int56 tickCumulativeLower */\n      0x00\n        /* \"contracts/uniswap/UniswapV3Pool.sol\":6806:6822  ticks[tickLower] */\n      swap1\n      dup2\n      mstore\n        /* \"contracts/uniswap/UniswapV3Pool.sol\":6806:6811  ticks */\n      0x05\n        /* \"contracts/uniswap/UniswapV3Pool.sol\":6806:6822  ticks[tickLower] */\n      0x20\n      mstore\n      0x40\n      dup1\n      dup3\n      keccak256\n        /* \"contracts/uniswap/UniswapV3Pool.sol\":6862:6878  ticks[tickUpper] */\n      dup8\n      dup5\n      signextend\n      swap1\n      swap4\n      signextend\n      dup3\n      mstore\n      dup2\n      keccak256\n        /* \"contracts/uniswap/UniswapV3Pool.sol\":7045:7072  lower.tickCumulativeOutside */\n      0x03\n      dup4\n      add\n      sload\n      0x06\n      dup2\n      swap1\n      signextend\n      swap4\n        /* \"contracts/uniswap/UniswapV3Pool.sol\":7090:7126  lower.secondsPerLiquidityOutsideX128 */\n      0x0100000000000000\n      dup3\n      div\n      sub(shl(0xa0, 0x01), 0x01)\n      and\n      swap3\n        /* \"contracts/uniswap/UniswapV3Pool.sol\":6517:6542  int56 tickCumulativeLower */\n      dup5\n      swap3\n        /* \"contracts/uniswap/UniswapV3Pool.sol\":7144:7164  lower.secondsOutside */\n      0x01000000000000000000000000000000000000000000000000000000\n      dup2\n      div\n      0xffffffff\n      and\n      swap3\n        /* \"contracts/uniswap/UniswapV3Pool.sol\":6517:6542  int56 tickCumulativeLower */\n      dup5\n      swap3\n        /* \"contracts/uniswap/UniswapV3Pool.sol\":6806:6822  ticks[tickLower] */\n      swap1\n      swap2\n        /* \"contracts/uniswap/UniswapV3Pool.sol\":7182:7199  lower.initialized */\n      0x0100000000000000000000000000000000000000000000000000000000000000\n      swap1\n      div\n      0xff\n      and\n      dup1\n        /* \"contracts/uniswap/UniswapV3Pool.sol\":7227:7252  require(initializedLower) */\n      tag_365\n      jumpi\n      0x00\n      dup1\n      revert\n    tag_365:\n        /* \"contracts/uniswap/UniswapV3Pool.sol\":7420:7447  upper.tickCumulativeOutside */\n      0x03\n      dup3\n      add\n      sload\n      0x06\n      dup2\n      swap1\n      signextend\n      swap9\n      pop\n        /* \"contracts/uniswap/UniswapV3Pool.sol\":7465:7501  upper.secondsPerLiquidityOutsideX128 */\n      0x0100000000000000\n      dup2\n      div\n      sub(shl(0xa0, 0x01), 0x01)\n      and\n      swap7\n      pop\n        /* \"contracts/uniswap/UniswapV3Pool.sol\":7519:7539  upper.secondsOutside */\n      0x01000000000000000000000000000000000000000000000000000000\n      dup2\n      div\n      0xffffffff\n      and\n      swap5\n      pop\n        /* \"contracts/uniswap/UniswapV3Pool.sol\":7557:7574  upper.initialized */\n      0x0100000000000000000000000000000000000000000000000000000000000000\n      swap1\n      div\n      0xff\n      and\n      dup1\n        /* \"contracts/uniswap/UniswapV3Pool.sol\":7602:7627  require(initializedUpper) */\n      tag_366\n      jumpi\n      0x00\n      dup1\n      revert\n    tag_366:\n      pop\n      pop\n        /* \"contracts/uniswap/UniswapV3Pool.sol\":7648:7675  Slot0 memory _slot0 = slot0 */\n      0x40\n      dup1\n      mload\n      0xe0\n      dup2\n      add\n      dup3\n      mstore\n        /* \"contracts/uniswap/UniswapV3Pool.sol\":7648:7667  Slot0 memory _slot0 */\n      0x00\n        /* \"contracts/uniswap/UniswapV3Pool.sol\":7648:7675  Slot0 memory _slot0 = slot0 */\n      sload\n      sub(shl(0xa0, 0x01), 0x01)\n      dup2\n      and\n      dup3\n      mstore\n      0x010000000000000000000000000000000000000000\n      dup2\n      div\n      0x02\n      swap1\n      dup2\n      signextend\n      dup2\n      signextend\n      dup2\n      signextend\n      0x20\n      dup5\n      add\n      dup2\n      swap1\n      mstore\n      0xffff\n      0x010000000000000000000000000000000000000000000000\n      dup5\n      div\n      dup2\n      and\n      swap6\n      dup6\n      add\n      swap6\n      swap1\n      swap6\n      mstore\n      0x0100000000000000000000000000000000000000000000000000\n      dup4\n      div\n      dup6\n      and\n      0x60\n      dup6\n      add\n      mstore\n      0x01000000000000000000000000000000000000000000000000000000\n      dup4\n      div\n      swap1\n      swap5\n      and\n      0x80\n      dup5\n      add\n      mstore\n      0xff\n      0x010000000000000000000000000000000000000000000000000000000000\n      dup4\n      div\n      dup2\n      and\n      0xa0\n      dup6\n      add\n      mstore\n      0x01000000000000000000000000000000000000000000000000000000000000\n      swap1\n      swap3\n      div\n      swap1\n      swap2\n      and\n      iszero\n      iszero\n      0xc0\n      dup4\n      add\n      mstore\n      swap1\n      swap4\n      pop\n        /* \"contracts/uniswap/UniswapV3Pool.sol\":7690:7713  _slot0.tick < tickLower */\n      dup15\n      dup2\n      signextend\n      swap2\n      swap1\n      signextend\n      slt\n        /* \"contracts/uniswap/UniswapV3Pool.sol\":7686:9017  if (_slot0.tick < tickLower) {... */\n      iszero\n      swap1\n      pop\n      tag_367\n      jumpi\n      pop\n        /* \"contracts/uniswap/UniswapV3Pool.sol\":7754:7795  tickCumulativeLower - tickCumulativeUpper */\n      swap4\n      swap1\n      swap5\n      sub\n      swap7\n      pop\n        /* \"contracts/uniswap/UniswapV3Pool.sol\":7813:7886  secondsPerLiquidityOutsideLowerX128 - secondsPerLiquidityOutsideUpperX128 */\n      swap1\n      sub\n      swap4\n      pop\n        /* \"contracts/uniswap/UniswapV3Pool.sol\":7904:7945  secondsOutsideLower - secondsOutsideUpper */\n      swap1\n      sub\n      swap1\n      pop\n        /* \"contracts/uniswap/UniswapV3Pool.sol\":7729:7959  return (... */\n      jump(tag_362)\n        /* \"contracts/uniswap/UniswapV3Pool.sol\":7686:9017  if (_slot0.tick < tickLower) {... */\n    tag_367:\n        /* \"contracts/uniswap/UniswapV3Pool.sol\":7994:8003  tickUpper */\n      dup11\n        /* \"contracts/uniswap/UniswapV3Pool.sol\":7980:8003  _slot0.tick < tickUpper */\n      0x02\n      signextend\n        /* \"contracts/uniswap/UniswapV3Pool.sol\":7980:7986  _slot0 */\n      dup2\n        /* \"contracts/uniswap/UniswapV3Pool.sol\":7980:7991  _slot0.tick */\n      0x20\n      add\n      mload\n        /* \"contracts/uniswap/UniswapV3Pool.sol\":7980:8003  _slot0.tick < tickUpper */\n      0x02\n      signextend\n      slt\n        /* \"contracts/uniswap/UniswapV3Pool.sol\":7976:9017  if (_slot0.tick < tickUpper) {... */\n      iszero\n      tag_369\n      jumpi\n        /* \"contracts/uniswap/UniswapV3Pool.sol\":8019:8030  uint32 time */\n      0x00\n        /* \"contracts/uniswap/UniswapV3Pool.sol\":8033:8050  _blockTimestamp() */\n      tag_370\n        /* \"contracts/uniswap/UniswapV3Pool.sol\":8033:8048  _blockTimestamp */\n      tag_137\n        /* \"contracts/uniswap/UniswapV3Pool.sol\":8033:8050  _blockTimestamp() */\n      jump\t// in\n    tag_370:\n        /* \"contracts/uniswap/UniswapV3Pool.sol\":8245:8256  _slot0.tick */\n      0x20\n      dup4\n      add\n      mload\n        /* \"contracts/uniswap/UniswapV3Pool.sol\":8278:8301  _slot0.observationIndex */\n      0x40\n      dup5\n      add\n      mload\n        /* \"contracts/uniswap/UniswapV3Pool.sol\":8323:8332  liquidity */\n      sload(0x04)\n        /* \"contracts/uniswap/UniswapV3Pool.sol\":8354:8383  _slot0.observationCardinality */\n      0x60\n      dup7\n      add\n      mload\n        /* \"contracts/uniswap/UniswapV3Pool.sol\":8019:8050  uint32 time = _blockTimestamp() */\n      swap4\n      swap5\n      pop\n        /* \"contracts/uniswap/UniswapV3Pool.sol\":8065:8085  int56 tickCumulative */\n      0x00\n      swap4\n      dup5\n      swap4\n        /* \"contracts/uniswap/UniswapV3Pool.sol\":8148:8401  observations.observeSingle(... */\n      tag_371\n      swap4\n        /* \"contracts/uniswap/UniswapV3Pool.sol\":8148:8160  observations */\n      0x08\n      swap4\n        /* \"contracts/uniswap/UniswapV3Pool.sol\":8019:8050  uint32 time = _blockTimestamp() */\n      dup9\n      swap4\n        /* \"contracts/uniswap/UniswapV3Pool.sol\":8065:8085  int56 tickCumulative */\n      dup8\n      swap4\n        /* \"contracts/uniswap/UniswapV3Pool.sol\":8245:8256  _slot0.tick */\n      swap3\n        /* \"contracts/uniswap/UniswapV3Pool.sol\":8278:8301  _slot0.observationIndex */\n      swap2\n        /* \"contracts/uniswap/UniswapV3Pool.sol\":8323:8332  liquidity */\n      0xffffffffffffffffffffffffffffffff\n      and\n      swap1\n        /* \"contracts/uniswap/UniswapV3Pool.sol\":8148:8174  observations.observeSingle */\n      tag_178\n        /* \"contracts/uniswap/UniswapV3Pool.sol\":8148:8401  observations.observeSingle(... */\n      jump\t// in\n    tag_371:\n        /* \"contracts/uniswap/UniswapV3Pool.sol\":8440:8476  tickCumulative - tickCumulativeLower */\n      swap11\n      swap1\n      sub\n        /* \"contracts/uniswap/UniswapV3Pool.sol\":8440:8498  tickCumulative - tickCumulativeLower - tickCumulativeUpper */\n      swap9\n      swap1\n      swap9\n      sub\n      swap12\n      pop\n      pop\n        /* \"contracts/uniswap/UniswapV3Pool.sol\":8516:8607  secondsPerLiquidityCumulativeX128 -... */\n      swap5\n      swap1\n      swap7\n      sub\n        /* \"contracts/uniswap/UniswapV3Pool.sol\":8516:8665  secondsPerLiquidityCumulativeX128 -... */\n      swap3\n      swap1\n      swap3\n      sub\n      swap7\n      pop\n        /* \"contracts/uniswap/UniswapV3Pool.sol\":8683:8709  time - secondsOutsideLower */\n      swap1\n      swap2\n      sub\n        /* \"contracts/uniswap/UniswapV3Pool.sol\":8683:8731  time - secondsOutsideLower - secondsOutsideUpper */\n      sub\n      swap3\n      pop\n        /* \"contracts/uniswap/UniswapV3Pool.sol\":8415:8745  return (... */\n      tag_362\n      swap2\n      pop\n      pop\n      jump\n        /* \"contracts/uniswap/UniswapV3Pool.sol\":7976:9017  if (_slot0.tick < tickUpper) {... */\n    tag_369:\n      pop\n        /* \"contracts/uniswap/UniswapV3Pool.sol\":8801:8842  tickCumulativeUpper - tickCumulativeLower */\n      swap5\n      swap1\n      swap4\n      sub\n      swap7\n      pop\n        /* \"contracts/uniswap/UniswapV3Pool.sol\":8860:8933  secondsPerLiquidityOutsideUpperX128 - secondsPerLiquidityOutsideLowerX128 */\n      sub\n      swap4\n      pop\n        /* \"contracts/uniswap/UniswapV3Pool.sol\":8951:8992  secondsOutsideUpper - secondsOutsideLower */\n      swap1\n      sub\n      swap1\n      pop\n        /* \"contracts/uniswap/NoDelegateCall.sol\":1068:1069  _ */\n    tag_362:\n        /* \"contracts/uniswap/UniswapV3Pool.sol\":6169:9023  function snapshotCumulativesInside(int24 tickLower, int24 tickUpper)... */\n      swap3\n      pop\n      swap3\n      pop\n      swap3\n      jump\t// out\n        /* \"contracts/uniswap/UniswapV3Pool.sol\":1423:1464  address public immutable override factory */\n    tag_106:\n      immutable(\"0x7c8c0582d21a968b9aa25d45e0e719f1fe93aa4458f5d5939d507b861e308328\")\n      dup2\n      jump\t// out\n        /* \"contracts/uniswap/UniswapV3Pool.sol\":1785:1828  int24 public immutable override tickSpacing */\n    tag_108:\n      immutable(\"0xb9aa4ff60d3edb7fbc3b53bd780c9274ed80a5ba1a237d38b011edab2b031b4a\")\n      dup2\n      jump\t// out\n        /* \"contracts/uniswap/UniswapV3Pool.sol\":1606:1646  address public immutable override token1 */\n    tag_110:\n      immutable(\"0x712adca22095011a9de0b4aa84648bf2bea2744bd9326ede31e43d2a71662846\")\n      dup2\n      jump\t// out\n        /* \"contracts/uniswap/UniswapV3Pool.sol\":1697:1733  uint24 public immutable override fee */\n    tag_112:\n      immutable(\"0x7d4579ab3c781860520f730aa471b37a7366c1c6efb6e34470da23130f5149f7\")\n      dup2\n      jump\t// out\n        /* \"contracts/uniswap/UniswapV3Pool.sol\":2771:2815  uint256 public override feeGrowthGlobal0X128 */\n    tag_114:\n      sload(0x01)\n      dup2\n      jump\t// out\n        /* \"contracts/uniswap/UniswapV3Pool.sol\":3256:3305  mapping(int24 => Tick.Info) public override ticks */\n    tag_117:\n      mstore(0x20, 0x05)\n      0x00\n      swap1\n      dup2\n      mstore\n      0x40\n      swap1\n      keccak256\n      dup1\n      sload\n      0x01\n      dup3\n      add\n      sload\n      0x02\n      dup4\n      add\n      sload\n      0x03\n      swap1\n      swap4\n      add\n      sload\n      0xffffffffffffffffffffffffffffffff\n      dup4\n      and\n      swap4\n      0x0100000000000000000000000000000000\n      swap1\n      swap4\n      div\n      0x0f\n      signextend\n      swap3\n      swap1\n      0x06\n      dup2\n      swap1\n      signextend\n      swap1\n      0x0100000000000000\n      dup2\n      div\n      sub(shl(0xa0, 0x01), 0x01)\n      and\n      swap1\n      0x01000000000000000000000000000000000000000000000000000000\n      dup2\n      div\n      0xffffffff\n      and\n      swap1\n      0x0100000000000000000000000000000000000000000000000000000000000000\n      swap1\n      div\n      0xff\n      and\n      dup9\n      jump\t// out\n        /* \"contracts/uniswap/UniswapV3Pool.sol\":10387:11008  function initialize(uint160 sqrtPriceX96) external override {... */\n    tag_120:\n        /* \"contracts/uniswap/UniswapV3Pool.sol\":10465:10470  slot0 */\n      0x00\n        /* \"contracts/uniswap/UniswapV3Pool.sol\":10465:10483  slot0.sqrtPriceX96 */\n      sload\n      sub(shl(0xa0, 0x01), 0x01)\n      and\n        /* \"contracts/uniswap/UniswapV3Pool.sol\":10465:10488  slot0.sqrtPriceX96 == 0 */\n      iszero\n        /* \"contracts/uniswap/UniswapV3Pool.sol\":10457:10495  require(slot0.sqrtPriceX96 == 0, 'AI') */\n      tag_374\n      jumpi\n      0x00\n      dup1\n      revert\n    tag_374:\n        /* \"contracts/uniswap/UniswapV3Pool.sol\":10506:10516  int24 tick */\n      0x00\n        /* \"contracts/uniswap/UniswapV3Pool.sol\":10519:10560  TickMath.getTickAtSqrtRatio(sqrtPriceX96) */\n      tag_375\n        /* \"contracts/uniswap/UniswapV3Pool.sol\":10547:10559  sqrtPriceX96 */\n      dup3\n        /* \"contracts/uniswap/UniswapV3Pool.sol\":10519:10546  TickMath.getTickAtSqrtRatio */\n      tag_193\n        /* \"contracts/uniswap/UniswapV3Pool.sol\":10519:10560  TickMath.getTickAtSqrtRatio(sqrtPriceX96) */\n      jump\t// in\n    tag_375:\n        /* \"contracts/uniswap/UniswapV3Pool.sol\":10506:10560  int24 tick = TickMath.getTickAtSqrtRatio(sqrtPriceX96) */\n      swap1\n      pop\n        /* \"contracts/uniswap/UniswapV3Pool.sol\":10572:10590  uint16 cardinality */\n      0x00\n        /* \"contracts/uniswap/UniswapV3Pool.sol\":10592:10614  uint16 cardinalityNext */\n      dup1\n        /* \"contracts/uniswap/UniswapV3Pool.sol\":10618:10660  observations.initialize(_blockTimestamp()) */\n      tag_376\n        /* \"contracts/uniswap/UniswapV3Pool.sol\":10642:10659  _blockTimestamp() */\n      tag_377\n        /* \"contracts/uniswap/UniswapV3Pool.sol\":10642:10657  _blockTimestamp */\n      tag_137\n        /* \"contracts/uniswap/UniswapV3Pool.sol\":10642:10659  _blockTimestamp() */\n      jump\t// in\n    tag_377:\n        /* \"contracts/uniswap/UniswapV3Pool.sol\":10618:10630  observations */\n      0x08\n      swap1\n        /* \"contracts/uniswap/UniswapV3Pool.sol\":10618:10641  observations.initialize */\n      tag_378\n        /* \"contracts/uniswap/UniswapV3Pool.sol\":10618:10660  observations.initialize(_blockTimestamp()) */\n      jump\t// in\n    tag_376:\n        /* \"contracts/uniswap/UniswapV3Pool.sol\":10679:10955  Slot0({... */\n      0x40\n      dup1\n      mload\n      0xe0\n      dup2\n      add\n      dup3\n      mstore\n      sub(shl(0xa0, 0x01), 0x01)\n      dup9\n      and\n      dup1\n      dup3\n      mstore\n      0x02\n      dup9\n      dup2\n      signextend\n      0x20\n      dup1\n      dup6\n      add\n      dup3\n      swap1\n      mstore\n      0x00\n      dup6\n      dup8\n      add\n      dup2\n      swap1\n      mstore\n      0xffff\n      dup10\n      dup2\n      and\n      0x60\n      dup9\n      add\n      dup2\n      swap1\n      mstore\n      swap1\n      dup10\n      and\n      0x80\n      dup9\n      add\n      dup2\n      swap1\n      mstore\n      0xa0\n      dup9\n      add\n      dup4\n      swap1\n      mstore\n        /* \"contracts/uniswap/UniswapV3Pool.sol\":10940:10944  true */\n      0x01\n        /* \"contracts/uniswap/UniswapV3Pool.sol\":10679:10955  Slot0({... */\n      0xc0\n      swap1\n      swap9\n      add\n      swap8\n      swap1\n      swap8\n      mstore\n        /* \"contracts/uniswap/UniswapV3Pool.sol\":10671:10955  slot0 = Slot0({... */\n      dup2\n      sload\n      0x01000000000000000000000000000000000000000000000000000000000000\n      0xffffffffffffffffffffffff0000000000000000000000000000000000000000\n      swap1\n      swap2\n      and\n      dup8\n      or\n      0xffffffffffffffffff000000ffffffffffffffffffffffffffffffffffffffff\n      and\n      0x010000000000000000000000000000000000000000\n      0xffffff\n      swap8\n      dup8\n      swap1\n      signextend\n      swap8\n      swap1\n      swap8\n      and\n      swap7\n      swap1\n      swap7\n      mul\n      swap6\n      swap1\n      swap6\n      or\n      0xffffffffff00000000ffffffffffffffffffffffffffffffffffffffffffffff\n      and\n      0x0100000000000000000000000000000000000000000000000000\n      swap1\n      swap2\n      mul\n      or\n      0xffffff0000ffffffffffffffffffffffffffffffffffffffffffffffffffffff\n      and\n      0x01000000000000000000000000000000000000000000000000000000\n      swap1\n      swap7\n      mul\n      swap6\n      swap1\n      swap6\n      or\n      0xff0000ffffffffffffffffffffffffffffffffffffffffffffffffffffffffff\n      and\n      swap3\n      swap1\n      swap3\n      or\n      swap1\n      swap4\n      sstore\n        /* \"contracts/uniswap/UniswapV3Pool.sol\":10971:11001  Initialize(sqrtPriceX96, tick) */\n      dup4\n      mload\n      swap2\n      dup3\n      mstore\n      dup2\n      add\n      swap2\n      swap1\n      swap2\n      mstore\n      dup2\n      mload\n        /* \"contracts/uniswap/UniswapV3Pool.sol\":10679:10955  Slot0({... */\n      swap4\n      swap6\n      pop\n      swap2\n      swap4\n      pop\n        /* \"contracts/uniswap/UniswapV3Pool.sol\":10971:11001  Initialize(sqrtPriceX96, tick) */\n      0x98636036cb66a9c19a37435efc1e90142190214e8abeb821bdba3f2990dd4c95\n      swap3\n      swap2\n      dup3\n      swap1\n      sub\n      add\n      swap1\n      log1\n        /* \"contracts/uniswap/UniswapV3Pool.sol\":10387:11008  function initialize(uint160 sqrtPriceX96) external override {... */\n      pop\n      pop\n      pop\n      pop\n      jump\t// out\n        /* \"contracts/uniswap/libraries/Tick.sol\":2202:2566  function tickSpacingToMaxLiquidityPerTick(int24 tickSpacing) internal pure returns (uint128) {... */\n    tag_121:\n        /* \"contracts/uniswap/libraries/Tick.sol\":2286:2293  uint128 */\n      0x00\n      dup1\n        /* \"contracts/uniswap/libraries/Tick.sol\":2357:2368  tickSpacing */\n      dup3\n        /* \"contracts/uniswap/libraries/Tick.sol\":2322:2353  TickMath.MIN_TICK / tickSpacing */\n      0x02\n      dup2\n      swap1\n      signextend\n        /* \"contracts/uniswap/libraries/TickMath.sol\":484:491  -887272 */\n      0xfffffffffffffffffffffffffffffffffffffffffffffffffffffffffff27618\n        /* \"contracts/uniswap/libraries/Tick.sol\":2322:2353  TickMath.MIN_TICK / tickSpacing */\n      dup2\n      tag_380\n      jumpi\n      invalid\n    tag_380:\n      sdiv\n        /* \"contracts/uniswap/libraries/Tick.sol\":2321:2368  (TickMath.MIN_TICK / tickSpacing) * tickSpacing */\n      mul\n      swap1\n      pop\n        /* \"contracts/uniswap/libraries/Tick.sol\":2378:2391  int24 maxTick */\n      0x00\n        /* \"contracts/uniswap/libraries/Tick.sol\":2430:2441  tickSpacing */\n      dup4\n        /* \"contracts/uniswap/libraries/Tick.sol\":2395:2426  TickMath.MAX_TICK / tickSpacing */\n      0x02\n      dup2\n      swap1\n      signextend\n        /* \"contracts/uniswap/libraries/TickMath.sol\":644:653  -MIN_TICK */\n      0x0d89e8\n        /* \"contracts/uniswap/libraries/Tick.sol\":2395:2426  TickMath.MAX_TICK / tickSpacing */\n      dup2\n      tag_381\n      jumpi\n      invalid\n    tag_381:\n      sdiv\n        /* \"contracts/uniswap/libraries/Tick.sol\":2394:2441  (TickMath.MAX_TICK / tickSpacing) * tickSpacing */\n      mul\n        /* \"contracts/uniswap/libraries/Tick.sol\":2378:2441  int24 maxTick = (TickMath.MAX_TICK / tickSpacing) * tickSpacing */\n      swap1\n      pop\n        /* \"contracts/uniswap/libraries/Tick.sol\":2451:2466  uint24 numTicks */\n      0x00\n        /* \"contracts/uniswap/libraries/Tick.sol\":2498:2509  tickSpacing */\n      dup5\n        /* \"contracts/uniswap/libraries/Tick.sol\":2476:2509  (maxTick - minTick) / tickSpacing */\n      0x02\n      signextend\n        /* \"contracts/uniswap/libraries/Tick.sol\":2487:2494  minTick */\n      dup4\n        /* \"contracts/uniswap/libraries/Tick.sol\":2477:2484  maxTick */\n      dup4\n        /* \"contracts/uniswap/libraries/Tick.sol\":2477:2494  maxTick - minTick */\n      sub\n        /* \"contracts/uniswap/libraries/Tick.sol\":2476:2509  (maxTick - minTick) / tickSpacing */\n      0x02\n      signextend\n      dup2\n      tag_382\n      jumpi\n      invalid\n    tag_382:\n      sdiv\n        /* \"contracts/uniswap/libraries/Tick.sol\":2513:2514  1 */\n      0x01\n        /* \"contracts/uniswap/libraries/Tick.sol\":2469:2514  uint24((maxTick - minTick) / tickSpacing) + 1 */\n      add\n        /* \"contracts/uniswap/libraries/Tick.sol\":2451:2514  uint24 numTicks = uint24((maxTick - minTick) / tickSpacing) + 1 */\n      swap1\n      pop\n        /* \"contracts/uniswap/libraries/Tick.sol\":2551:2559  numTicks */\n      dup1\n        /* \"contracts/uniswap/libraries/Tick.sol\":2531:2559  type(uint128).max / numTicks */\n      0xffffff\n      and\n        /* \"contracts/uniswap/libraries/Tick.sol\":2531:2548  type(uint128).max */\n      0xffffffffffffffffffffffffffffffff\n        /* \"contracts/uniswap/libraries/Tick.sol\":2531:2559  type(uint128).max / numTicks */\n      dup1\n      and\n      dup2\n      tag_383\n      jumpi\n      invalid\n    tag_383:\n      div\n        /* \"contracts/uniswap/libraries/Tick.sol\":2524:2559  return type(uint128).max / numTicks */\n      swap4\n      pop\n      pop\n      pop\n      pop\n        /* \"contracts/uniswap/libraries/Tick.sol\":2202:2566  function tickSpacingToMaxLiquidityPerTick(int24 tickSpacing) internal pure returns (uint128) {... */\n    tag_379:\n      swap2\n      swap1\n      pop\n      jump\t// out\n        /* \"contracts/uniswap/NoDelegateCall.sol\":835:931  function checkNotDelegateCall() private view {... */\n    tag_124:\n        /* \"contracts/uniswap/NoDelegateCall.sol\":906:910  this */\n      address\n      sub(shl(0xa0, 0x01), 0x01)\n        /* \"contracts/uniswap/NoDelegateCall.sol\":915:923  original */\n      immutable(\"0xceebf77a833b30520287ddd9478ff51abbdffa30aa90a8d655dba0e8a79ce0c1\")\n        /* \"contracts/uniswap/NoDelegateCall.sol\":898:923  address(this) == original */\n      and\n      eq\n        /* \"contracts/uniswap/NoDelegateCall.sol\":890:924  require(address(this) == original) */\n      tag_385\n      jumpi\n      0x00\n      dup1\n      revert\n    tag_385:\n        /* \"contracts/uniswap/NoDelegateCall.sol\":835:931  function checkNotDelegateCall() private view {... */\n      jump\t// out\n        /* \"contracts/uniswap/UniswapV3Pool.sol\":5018:5156  function _blockTimestamp() internal view virtual returns (uint32) {... */\n    tag_137:\n        /* \"contracts/uniswap/UniswapV3Pool.sol\":5108:5123  block.timestamp */\n      timestamp\n        /* \"contracts/uniswap/UniswapV3Pool.sol\":5018:5156  function _blockTimestamp() internal view virtual returns (uint32) {... */\n      swap1\n      jump\t// out\n        /* \"contracts/uniswap/libraries/TickBitmap.sol\":2187:4108  function nextInitializedTickWithinOneWord(... */\n    tag_146:\n        /* \"contracts/uniswap/libraries/TickBitmap.sol\":2371:2381  int24 next */\n      0x00\n        /* \"contracts/uniswap/libraries/TickBitmap.sol\":2383:2399  bool initialized */\n      dup1\n        /* \"contracts/uniswap/libraries/TickBitmap.sol\":2411:2427  int24 compressed */\n      0x00\n        /* \"contracts/uniswap/libraries/TickBitmap.sol\":2437:2448  tickSpacing */\n      dup5\n        /* \"contracts/uniswap/libraries/TickBitmap.sol\":2430:2448  tick / tickSpacing */\n      0x02\n      signextend\n        /* \"contracts/uniswap/libraries/TickBitmap.sol\":2430:2434  tick */\n      dup7\n        /* \"contracts/uniswap/libraries/TickBitmap.sol\":2430:2448  tick / tickSpacing */\n      0x02\n      signextend\n      dup2\n      tag_388\n      jumpi\n      invalid\n    tag_388:\n      sdiv\n        /* \"contracts/uniswap/libraries/TickBitmap.sol\":2411:2448  int24 compressed = tick / tickSpacing */\n      swap1\n      pop\n        /* \"contracts/uniswap/libraries/TickBitmap.sol\":2469:2470  0 */\n      0x00\n        /* \"contracts/uniswap/libraries/TickBitmap.sol\":2462:2466  tick */\n      dup7\n        /* \"contracts/uniswap/libraries/TickBitmap.sol\":2462:2470  tick < 0 */\n      0x02\n      signextend\n      slt\n        /* \"contracts/uniswap/libraries/TickBitmap.sol\":2462:2497  tick < 0 && tick % tickSpacing != 0 */\n      dup1\n      iszero\n      tag_389\n      jumpi\n      pop\n        /* \"contracts/uniswap/libraries/TickBitmap.sol\":2481:2492  tickSpacing */\n      dup5\n        /* \"contracts/uniswap/libraries/TickBitmap.sol\":2474:2492  tick % tickSpacing */\n      0x02\n      signextend\n        /* \"contracts/uniswap/libraries/TickBitmap.sol\":2474:2478  tick */\n      dup7\n        /* \"contracts/uniswap/libraries/TickBitmap.sol\":2474:2492  tick % tickSpacing */\n      0x02\n      signextend\n      dup2\n      tag_390\n      jumpi\n      invalid\n    tag_390:\n      smod\n        /* \"contracts/uniswap/libraries/TickBitmap.sol\":2474:2497  tick % tickSpacing != 0 */\n      0x02\n      signextend\n      iszero\n      iszero\n        /* \"contracts/uniswap/libraries/TickBitmap.sol\":2462:2497  tick < 0 && tick % tickSpacing != 0 */\n    tag_389:\n        /* \"contracts/uniswap/libraries/TickBitmap.sol\":2458:2511  if (tick < 0 && tick % tickSpacing != 0) compressed-- */\n      iszero\n      tag_391\n      jumpi\n        /* \"contracts/uniswap/libraries/TickBitmap.sol\":2499:2511  compressed-- */\n      0xffffffffffffffffffffffffffffffffffffffffffffffffffffffffffffffff\n      add\n        /* \"contracts/uniswap/libraries/TickBitmap.sol\":2458:2511  if (tick < 0 && tick % tickSpacing != 0) compressed-- */\n    tag_391:\n        /* \"contracts/uniswap/libraries/TickBitmap.sol\":2561:2564  lte */\n      dup4\n        /* \"contracts/uniswap/libraries/TickBitmap.sol\":2557:4102  if (lte) {... */\n      iszero\n      tag_392\n      jumpi\n        /* \"contracts/uniswap/libraries/TickBitmap.sol\":2581:2594  int16 wordPos */\n      0x00\n        /* \"contracts/uniswap/libraries/TickBitmap.sol\":2596:2608  uint8 bitPos */\n      dup1\n        /* \"contracts/uniswap/libraries/TickBitmap.sol\":2612:2632  position(compressed) */\n      tag_393\n        /* \"contracts/uniswap/libraries/TickBitmap.sol\":2621:2631  compressed */\n      dup4\n        /* \"contracts/uniswap/libraries/TickBitmap.sol\":2612:2620  position */\n      tag_394\n        /* \"contracts/uniswap/libraries/TickBitmap.sol\":2612:2632  position(compressed) */\n      jump\t// in\n    tag_393:\n        /* \"contracts/uniswap/libraries/TickBitmap.sol\":2749:2750  1 */\n      0x01\n        /* \"contracts/uniswap/libraries/TickBitmap.sol\":2792:2805  self[wordPos] */\n      dup3\n      dup2\n      signextend\n      dup2\n      signextend\n        /* \"contracts/uniswap/libraries/TickBitmap.sol\":2713:2725  uint256 mask */\n      0x00\n        /* \"contracts/uniswap/libraries/TickBitmap.sol\":2792:2805  self[wordPos] */\n      swap1\n      dup2\n      mstore\n      0x20\n      dup14\n      swap1\n      mstore\n      0x40\n      swap1\n      keccak256\n      sload\n        /* \"contracts/uniswap/libraries/TickBitmap.sol\":2749:2760  1 << bitPos */\n      0xff\n      dup4\n      and\n      swap2\n      swap1\n      swap2\n      shl\n        /* \"contracts/uniswap/libraries/TickBitmap.sol\":2728:2761  (1 << bitPos) - 1 + (1 << bitPos) */\n      dup1\n      add\n        /* \"contracts/uniswap/libraries/TickBitmap.sol\":2728:2745  (1 << bitPos) - 1 */\n      0xffffffffffffffffffffffffffffffffffffffffffffffffffffffffffffffff\n        /* \"contracts/uniswap/libraries/TickBitmap.sol\":2728:2761  (1 << bitPos) - 1 + (1 << bitPos) */\n      add\n        /* \"contracts/uniswap/libraries/TickBitmap.sol\":2792:2812  self[wordPos] & mask */\n      swap1\n      dup2\n      and\n        /* \"contracts/uniswap/libraries/TickBitmap.sol\":2959:2970  masked != 0 */\n      dup1\n      iszero\n      iszero\n      swap8\n      pop\n        /* \"contracts/uniswap/libraries/TickBitmap.sol\":2580:2632  (int16 wordPos, uint8 bitPos) = position(compressed) */\n      swap3\n      swap5\n      pop\n      swap1\n      swap3\n      pop\n        /* \"contracts/uniswap/libraries/TickBitmap.sol\":2728:2761  (1 << bitPos) - 1 + (1 << bitPos) */\n      swap1\n        /* \"contracts/uniswap/libraries/TickBitmap.sol\":2959:2970  masked != 0 */\n      dup6\n        /* \"contracts/uniswap/libraries/TickBitmap.sol\":3101:3271  initialized... */\n      tag_395\n      jumpi\n        /* \"contracts/uniswap/libraries/TickBitmap.sol\":3260:3271  tickSpacing */\n      dup9\n        /* \"contracts/uniswap/libraries/TickBitmap.sol\":3249:3255  bitPos */\n      dup4\n        /* \"contracts/uniswap/libraries/TickBitmap.sol\":3243:3256  int24(bitPos) */\n      0xff\n      and\n        /* \"contracts/uniswap/libraries/TickBitmap.sol\":3230:3240  compressed */\n      dup7\n        /* \"contracts/uniswap/libraries/TickBitmap.sol\":3230:3256  compressed - int24(bitPos) */\n      sub\n        /* \"contracts/uniswap/libraries/TickBitmap.sol\":3229:3271  (compressed - int24(bitPos)) * tickSpacing */\n      mul\n        /* \"contracts/uniswap/libraries/TickBitmap.sol\":3101:3271  initialized... */\n      jump(tag_396)\n    tag_395:\n        /* \"contracts/uniswap/libraries/TickBitmap.sol\":3199:3210  tickSpacing */\n      dup9\n        /* \"contracts/uniswap/libraries/TickBitmap.sol\":3160:3194  BitMath.mostSignificantBit(masked) */\n      tag_397\n        /* \"contracts/uniswap/libraries/TickBitmap.sol\":3187:3193  masked */\n      dup3\n        /* \"contracts/uniswap/libraries/TickBitmap.sol\":3160:3186  BitMath.mostSignificantBit */\n      tag_398\n        /* \"contracts/uniswap/libraries/TickBitmap.sol\":3160:3194  BitMath.mostSignificantBit(masked) */\n      jump\t// in\n    tag_397:\n        /* \"contracts/uniswap/libraries/TickBitmap.sol\":3151:3157  bitPos */\n      dup5\n        /* \"contracts/uniswap/libraries/TickBitmap.sol\":3151:3194  bitPos - BitMath.mostSignificantBit(masked) */\n      sub\n        /* \"contracts/uniswap/libraries/TickBitmap.sol\":3145:3195  int24(bitPos - BitMath.mostSignificantBit(masked)) */\n      0xff\n      and\n        /* \"contracts/uniswap/libraries/TickBitmap.sol\":3132:3142  compressed */\n      dup7\n        /* \"contracts/uniswap/libraries/TickBitmap.sol\":3132:3195  compressed - int24(bitPos - BitMath.mostSignificantBit(masked)) */\n      sub\n        /* \"contracts/uniswap/libraries/TickBitmap.sol\":3131:3210  (compressed - int24(bitPos - BitMath.mostSignificantBit(masked))) * tickSpacing */\n      mul\n        /* \"contracts/uniswap/libraries/TickBitmap.sol\":3101:3271  initialized... */\n    tag_396:\n        /* \"contracts/uniswap/libraries/TickBitmap.sol\":3094:3271  next = initialized... */\n      swap7\n      pop\n        /* \"contracts/uniswap/libraries/TickBitmap.sol\":2557:4102  if (lte) {... */\n      pop\n      pop\n      pop\n      pop\n      jump(tag_399)\n    tag_392:\n        /* \"contracts/uniswap/libraries/TickBitmap.sol\":3400:3413  int16 wordPos */\n      0x00\n        /* \"contracts/uniswap/libraries/TickBitmap.sol\":3415:3427  uint8 bitPos */\n      dup1\n        /* \"contracts/uniswap/libraries/TickBitmap.sol\":3431:3455  position(compressed + 1) */\n      tag_400\n        /* \"contracts/uniswap/libraries/TickBitmap.sol\":3440:3450  compressed */\n      dup4\n        /* \"contracts/uniswap/libraries/TickBitmap.sol\":3453:3454  1 */\n      0x01\n        /* \"contracts/uniswap/libraries/TickBitmap.sol\":3440:3454  compressed + 1 */\n      add\n        /* \"contracts/uniswap/libraries/TickBitmap.sol\":3431:3439  position */\n      tag_394\n        /* \"contracts/uniswap/libraries/TickBitmap.sol\":3431:3455  position(compressed + 1) */\n      jump\t// in\n    tag_400:\n        /* \"contracts/uniswap/libraries/TickBitmap.sol\":3399:3455  (int16 wordPos, uint8 bitPos) = position(compressed + 1) */\n      swap2\n      pop\n      swap2\n      pop\n        /* \"contracts/uniswap/libraries/TickBitmap.sol\":3527:3539  uint256 mask */\n      0x00\n        /* \"contracts/uniswap/libraries/TickBitmap.sol\":3560:3561  1 */\n      0x01\n        /* \"contracts/uniswap/libraries/TickBitmap.sol\":3550:3556  bitPos */\n      dup3\n        /* \"contracts/uniswap/libraries/TickBitmap.sol\":3545:3556  1 << bitPos */\n      0xff\n      and\n        /* \"contracts/uniswap/libraries/TickBitmap.sol\":3545:3546  1 */\n      0x01\n        /* \"contracts/uniswap/libraries/TickBitmap.sol\":3545:3556  1 << bitPos */\n      swap1\n      shl\n        /* \"contracts/uniswap/libraries/TickBitmap.sol\":3544:3561  (1 << bitPos) - 1 */\n      sub\n        /* \"contracts/uniswap/libraries/TickBitmap.sol\":3542:3562  ~((1 << bitPos) - 1) */\n      not\n        /* \"contracts/uniswap/libraries/TickBitmap.sol\":3527:3562  uint256 mask = ~((1 << bitPos) - 1) */\n      swap1\n      pop\n        /* \"contracts/uniswap/libraries/TickBitmap.sol\":3576:3590  uint256 masked */\n      0x00\n        /* \"contracts/uniswap/libraries/TickBitmap.sol\":3609:3613  mask */\n      dup2\n        /* \"contracts/uniswap/libraries/TickBitmap.sol\":3593:3597  self */\n      dup12\n        /* \"contracts/uniswap/libraries/TickBitmap.sol\":3593:3606  self[wordPos] */\n      0x00\n        /* \"contracts/uniswap/libraries/TickBitmap.sol\":3598:3605  wordPos */\n      dup7\n        /* \"contracts/uniswap/libraries/TickBitmap.sol\":3593:3606  self[wordPos] */\n      0x01\n      signextend\n      0x01\n      signextend\n      dup2\n      mstore\n      0x20\n      add\n      swap1\n      dup2\n      mstore\n      0x20\n      add\n      0x00\n      keccak256\n      sload\n        /* \"contracts/uniswap/libraries/TickBitmap.sol\":3593:3613  self[wordPos] & mask */\n      and\n        /* \"contracts/uniswap/libraries/TickBitmap.sol\":3576:3613  uint256 masked = self[wordPos] & mask */\n      swap1\n      pop\n        /* \"contracts/uniswap/libraries/TickBitmap.sol\":3752:3758  masked */\n      dup1\n        /* \"contracts/uniswap/libraries/TickBitmap.sol\":3762:3763  0 */\n      0x00\n        /* \"contracts/uniswap/libraries/TickBitmap.sol\":3752:3763  masked != 0 */\n      eq\n      iszero\n        /* \"contracts/uniswap/libraries/TickBitmap.sol\":3738:3763  initialized = masked != 0 */\n      swap6\n      pop\n        /* \"contracts/uniswap/libraries/TickBitmap.sol\":3894:3905  initialized */\n      dup6\n        /* \"contracts/uniswap/libraries/TickBitmap.sol\":3894:4091  initialized... */\n      tag_401\n      jumpi\n        /* \"contracts/uniswap/libraries/TickBitmap.sol\":4080:4091  tickSpacing */\n      dup9\n        /* \"contracts/uniswap/libraries/TickBitmap.sol\":4069:4075  bitPos */\n      dup4\n        /* \"contracts/uniswap/libraries/TickBitmap.sol\":4051:4066  type(uint8).max */\n      0xff\n        /* \"contracts/uniswap/libraries/TickBitmap.sol\":4051:4075  type(uint8).max - bitPos */\n      sub\n        /* \"contracts/uniswap/libraries/TickBitmap.sol\":4045:4076  int24(type(uint8).max - bitPos) */\n      0xff\n      and\n        /* \"contracts/uniswap/libraries/TickBitmap.sol\":4028:4038  compressed */\n      dup7\n        /* \"contracts/uniswap/libraries/TickBitmap.sol\":4041:4042  1 */\n      0x01\n        /* \"contracts/uniswap/libraries/TickBitmap.sol\":4028:4042  compressed + 1 */\n      add\n        /* \"contracts/uniswap/libraries/TickBitmap.sol\":4028:4076  compressed + 1 + int24(type(uint8).max - bitPos) */\n      add\n        /* \"contracts/uniswap/libraries/TickBitmap.sol\":4027:4091  (compressed + 1 + int24(type(uint8).max - bitPos)) * tickSpacing */\n      mul\n        /* \"contracts/uniswap/libraries/TickBitmap.sol\":3894:4091  initialized... */\n      jump(tag_402)\n    tag_401:\n        /* \"contracts/uniswap/libraries/TickBitmap.sol\":3997:4008  tickSpacing */\n      dup9\n        /* \"contracts/uniswap/libraries/TickBitmap.sol\":3986:3992  bitPos */\n      dup4\n        /* \"contracts/uniswap/libraries/TickBitmap.sol\":3948:3983  BitMath.leastSignificantBit(masked) */\n      tag_403\n        /* \"contracts/uniswap/libraries/TickBitmap.sol\":3976:3982  masked */\n      dup4\n        /* \"contracts/uniswap/libraries/TickBitmap.sol\":3948:3975  BitMath.leastSignificantBit */\n      tag_404\n        /* \"contracts/uniswap/libraries/TickBitmap.sol\":3948:3983  BitMath.leastSignificantBit(masked) */\n      jump\t// in\n    tag_403:\n        /* \"contracts/uniswap/libraries/TickBitmap.sol\":3948:3992  BitMath.leastSignificantBit(masked) - bitPos */\n      sub\n        /* \"contracts/uniswap/libraries/TickBitmap.sol\":3942:3993  int24(BitMath.leastSignificantBit(masked) - bitPos) */\n      0xff\n      and\n        /* \"contracts/uniswap/libraries/TickBitmap.sol\":3925:3935  compressed */\n      dup7\n        /* \"contracts/uniswap/libraries/TickBitmap.sol\":3938:3939  1 */\n      0x01\n        /* \"contracts/uniswap/libraries/TickBitmap.sol\":3925:3939  compressed + 1 */\n      add\n        /* \"contracts/uniswap/libraries/TickBitmap.sol\":3925:3993  compressed + 1 + int24(BitMath.leastSignificantBit(masked) - bitPos) */\n      add\n        /* \"contracts/uniswap/libraries/TickBitmap.sol\":3924:4008  (compressed + 1 + int24(BitMath.leastSignificantBit(masked) - bitPos)) * tickSpacing */\n      mul\n        /* \"contracts/uniswap/libraries/TickBitmap.sol\":3894:4091  initialized... */\n    tag_402:\n        /* \"contracts/uniswap/libraries/TickBitmap.sol\":3887:4091  next = initialized... */\n      swap7\n      pop\n        /* \"contracts/uniswap/libraries/TickBitmap.sol\":2557:4102  if (lte) {... */\n      pop\n      pop\n      pop\n      pop\n    tag_399:\n        /* \"contracts/uniswap/libraries/TickBitmap.sol\":2187:4108  function nextInitializedTickWithinOneWord(... */\n      pop\n      swap5\n      pop\n      swap5\n      swap3\n      pop\n      pop\n      pop\n      jump\t// out\n        /* \"contracts/uniswap/libraries/TickMath.sol\":1362:3942  function getSqrtRatioAtTick(int24 tick) internal pure returns (uint160 sqrtPriceX96) {... */\n    tag_151:\n        /* \"contracts/uniswap/libraries/TickMath.sol\":1425:1445  uint160 sqrtPriceX96 */\n      0x00\n        /* \"contracts/uniswap/libraries/TickMath.sol\":1457:1472  uint256 absTick */\n      dup1\n        /* \"contracts/uniswap/libraries/TickMath.sol\":1482:1483  0 */\n      0x00\n        /* \"contracts/uniswap/libraries/TickMath.sol\":1475:1479  tick */\n      dup4\n        /* \"contracts/uniswap/libraries/TickMath.sol\":1475:1483  tick < 0 */\n      0x02\n      signextend\n      slt\n        /* \"contracts/uniswap/libraries/TickMath.sol\":1475:1532  tick < 0 ? uint256(-int256(tick)) : uint256(int256(tick)) */\n      tag_406\n      jumpi\n        /* \"contracts/uniswap/libraries/TickMath.sol\":1526:1530  tick */\n      dup3\n        /* \"contracts/uniswap/libraries/TickMath.sol\":1519:1531  int256(tick) */\n      0x02\n      signextend\n        /* \"contracts/uniswap/libraries/TickMath.sol\":1475:1532  tick < 0 ? uint256(-int256(tick)) : uint256(int256(tick)) */\n      jump(tag_407)\n    tag_406:\n        /* \"contracts/uniswap/libraries/TickMath.sol\":1502:1506  tick */\n      dup3\n        /* \"contracts/uniswap/libraries/TickMath.sol\":1495:1507  int256(tick) */\n      0x02\n      signextend\n        /* \"contracts/uniswap/libraries/TickMath.sol\":1494:1507  -int256(tick) */\n      0x00\n      sub\n        /* \"contracts/uniswap/libraries/TickMath.sol\":1475:1532  tick < 0 ? uint256(-int256(tick)) : uint256(int256(tick)) */\n    tag_407:\n        /* \"contracts/uniswap/libraries/TickMath.sol\":1457:1532  uint256 absTick = tick < 0 ? uint256(-int256(tick)) : uint256(int256(tick)) */\n      swap1\n      pop\n        /* \"contracts/uniswap/libraries/TickMath.sol\":644:653  -MIN_TICK */\n      0x0d89e8\n        /* \"contracts/uniswap/libraries/TickMath.sol\":1550:1578  absTick <= uint256(MAX_TICK) */\n      dup2\n      gt\n      iszero\n        /* \"contracts/uniswap/libraries/TickMath.sol\":1542:1584  require(absTick <= uint256(MAX_TICK), 'T') */\n      tag_408\n      jumpi\n      0x00\n      dup1\n      revert\n    tag_408:\n        /* \"contracts/uniswap/libraries/TickMath.sol\":1595:1608  uint256 ratio */\n      0x00\n        /* \"contracts/uniswap/libraries/TickMath.sol\":1621:1624  0x1 */\n      0x01\n        /* \"contracts/uniswap/libraries/TickMath.sol\":1611:1624  absTick & 0x1 */\n      dup3\n      and\n        /* \"contracts/uniswap/libraries/TickMath.sol\":1611:1704  absTick & 0x1 != 0 ? 0xfffcb933bd6fad37aa2d162d1a594001 : 0x100000000000000000000000000000000 */\n      tag_409\n      jumpi\n        /* \"contracts/uniswap/libraries/TickMath.sol\":1669:1704  0x100000000000000000000000000000000 */\n      0x0100000000000000000000000000000000\n        /* \"contracts/uniswap/libraries/TickMath.sol\":1611:1704  absTick & 0x1 != 0 ? 0xfffcb933bd6fad37aa2d162d1a594001 : 0x100000000000000000000000000000000 */\n      jump(tag_410)\n    tag_409:\n        /* \"contracts/uniswap/libraries/TickMath.sol\":1632:1666  0xfffcb933bd6fad37aa2d162d1a594001 */\n      0xfffcb933bd6fad37aa2d162d1a594001\n        /* \"contracts/uniswap/libraries/TickMath.sol\":1611:1704  absTick & 0x1 != 0 ? 0xfffcb933bd6fad37aa2d162d1a594001 : 0x100000000000000000000000000000000 */\n    tag_410:\n        /* \"contracts/uniswap/libraries/TickMath.sol\":1595:1704  uint256 ratio = absTick & 0x1 != 0 ? 0xfffcb933bd6fad37aa2d162d1a594001 : 0x100000000000000000000000000000000 */\n      0xffffffffffffffffffffffffffffffffff\n      and\n      swap1\n      pop\n        /* \"contracts/uniswap/libraries/TickMath.sol\":1728:1731  0x2 */\n      0x02\n        /* \"contracts/uniswap/libraries/TickMath.sol\":1718:1731  absTick & 0x2 */\n      dup3\n      and\n        /* \"contracts/uniswap/libraries/TickMath.sol\":1718:1736  absTick & 0x2 != 0 */\n      iszero\n        /* \"contracts/uniswap/libraries/TickMath.sol\":1714:1797  if (absTick & 0x2 != 0) ratio = (ratio * 0xfff97272373d413259a46990580e213a) >> 128 */\n      tag_411\n      jumpi\n        /* \"contracts/uniswap/libraries/TickMath.sol\":1755:1789  0xfff97272373d413259a46990580e213a */\n      0xfff97272373d413259a46990580e213a\n        /* \"contracts/uniswap/libraries/TickMath.sol\":1747:1789  ratio * 0xfff97272373d413259a46990580e213a */\n      mul\n        /* \"contracts/uniswap/libraries/TickMath.sol\":1794:1797  128 */\n      0x80\n        /* \"contracts/uniswap/libraries/TickMath.sol\":1746:1797  (ratio * 0xfff97272373d413259a46990580e213a) >> 128 */\n      shr\n        /* \"contracts/uniswap/libraries/TickMath.sol\":1714:1797  if (absTick & 0x2 != 0) ratio = (ratio * 0xfff97272373d413259a46990580e213a) >> 128 */\n    tag_411:\n        /* \"contracts/uniswap/libraries/TickMath.sol\":1821:1824  0x4 */\n      0x04\n        /* \"contracts/uniswap/libraries/TickMath.sol\":1811:1824  absTick & 0x4 */\n      dup3\n      and\n        /* \"contracts/uniswap/libraries/TickMath.sol\":1811:1829  absTick & 0x4 != 0 */\n      iszero\n        /* \"contracts/uniswap/libraries/TickMath.sol\":1807:1890  if (absTick & 0x4 != 0) ratio = (ratio * 0xfff2e50f5f656932ef12357cf3c7fdcc) >> 128 */\n      tag_412\n      jumpi\n        /* \"contracts/uniswap/libraries/TickMath.sol\":1848:1882  0xfff2e50f5f656932ef12357cf3c7fdcc */\n      0xfff2e50f5f656932ef12357cf3c7fdcc\n        /* \"contracts/uniswap/libraries/TickMath.sol\":1840:1882  ratio * 0xfff2e50f5f656932ef12357cf3c7fdcc */\n      mul\n        /* \"contracts/uniswap/libraries/TickMath.sol\":1887:1890  128 */\n      0x80\n        /* \"contracts/uniswap/libraries/TickMath.sol\":1839:1890  (ratio * 0xfff2e50f5f656932ef12357cf3c7fdcc) >> 128 */\n      shr\n        /* \"contracts/uniswap/libraries/TickMath.sol\":1807:1890  if (absTick & 0x4 != 0) ratio = (ratio * 0xfff2e50f5f656932ef12357cf3c7fdcc) >> 128 */\n    tag_412:\n        /* \"contracts/uniswap/libraries/TickMath.sol\":1914:1917  0x8 */\n      0x08\n        /* \"contracts/uniswap/libraries/TickMath.sol\":1904:1917  absTick & 0x8 */\n      dup3\n      and\n        /* \"contracts/uniswap/libraries/TickMath.sol\":1904:1922  absTick & 0x8 != 0 */\n      iszero\n        /* \"contracts/uniswap/libraries/TickMath.sol\":1900:1983  if (absTick & 0x8 != 0) ratio = (ratio * 0xffe5caca7e10e4e61c3624eaa0941cd0) >> 128 */\n      tag_413\n      jumpi\n        /* \"contracts/uniswap/libraries/TickMath.sol\":1941:1975  0xffe5caca7e10e4e61c3624eaa0941cd0 */\n      0xffe5caca7e10e4e61c3624eaa0941cd0\n        /* \"contracts/uniswap/libraries/TickMath.sol\":1933:1975  ratio * 0xffe5caca7e10e4e61c3624eaa0941cd0 */\n      mul\n        /* \"contracts/uniswap/libraries/TickMath.sol\":1980:1983  128 */\n      0x80\n        /* \"contracts/uniswap/libraries/TickMath.sol\":1932:1983  (ratio * 0xffe5caca7e10e4e61c3624eaa0941cd0) >> 128 */\n      shr\n        /* \"contracts/uniswap/libraries/TickMath.sol\":1900:1983  if (absTick & 0x8 != 0) ratio = (ratio * 0xffe5caca7e10e4e61c3624eaa0941cd0) >> 128 */\n    tag_413:\n        /* \"contracts/uniswap/libraries/TickMath.sol\":2007:2011  0x10 */\n      0x10\n        /* \"contracts/uniswap/libraries/TickMath.sol\":1997:2011  absTick & 0x10 */\n      dup3\n      and\n        /* \"contracts/uniswap/libraries/TickMath.sol\":1997:2016  absTick & 0x10 != 0 */\n      iszero\n        /* \"contracts/uniswap/libraries/TickMath.sol\":1993:2077  if (absTick & 0x10 != 0) ratio = (ratio * 0xffcb9843d60f6159c9db58835c926644) >> 128 */\n      tag_414\n      jumpi\n        /* \"contracts/uniswap/libraries/TickMath.sol\":2035:2069  0xffcb9843d60f6159c9db58835c926644 */\n      0xffcb9843d60f6159c9db58835c926644\n        /* \"contracts/uniswap/libraries/TickMath.sol\":2027:2069  ratio * 0xffcb9843d60f6159c9db58835c926644 */\n      mul\n        /* \"contracts/uniswap/libraries/TickMath.sol\":2074:2077  128 */\n      0x80\n        /* \"contracts/uniswap/libraries/TickMath.sol\":2026:2077  (ratio * 0xffcb9843d60f6159c9db58835c926644) >> 128 */\n      shr\n        /* \"contracts/uniswap/libraries/TickMath.sol\":1993:2077  if (absTick & 0x10 != 0) ratio = (ratio * 0xffcb9843d60f6159c9db58835c926644) >> 128 */\n    tag_414:\n        /* \"contracts/uniswap/libraries/TickMath.sol\":2101:2105  0x20 */\n      0x20\n        /* \"contracts/uniswap/libraries/TickMath.sol\":2091:2105  absTick & 0x20 */\n      dup3\n      and\n        /* \"contracts/uniswap/libraries/TickMath.sol\":2091:2110  absTick & 0x20 != 0 */\n      iszero\n        /* \"contracts/uniswap/libraries/TickMath.sol\":2087:2171  if (absTick & 0x20 != 0) ratio = (ratio * 0xff973b41fa98c081472e6896dfb254c0) >> 128 */\n      tag_415\n      jumpi\n        /* \"contracts/uniswap/libraries/TickMath.sol\":2129:2163  0xff973b41fa98c081472e6896dfb254c0 */\n      0xff973b41fa98c081472e6896dfb254c0\n        /* \"contracts/uniswap/libraries/TickMath.sol\":2121:2163  ratio * 0xff973b41fa98c081472e6896dfb254c0 */\n      mul\n        /* \"contracts/uniswap/libraries/TickMath.sol\":2168:2171  128 */\n      0x80\n        /* \"contracts/uniswap/libraries/TickMath.sol\":2120:2171  (ratio * 0xff973b41fa98c081472e6896dfb254c0) >> 128 */\n      shr\n        /* \"contracts/uniswap/libraries/TickMath.sol\":2087:2171  if (absTick & 0x20 != 0) ratio = (ratio * 0xff973b41fa98c081472e6896dfb254c0) >> 128 */\n    tag_415:\n        /* \"contracts/uniswap/libraries/TickMath.sol\":2195:2199  0x40 */\n      0x40\n        /* \"contracts/uniswap/libraries/TickMath.sol\":2185:2199  absTick & 0x40 */\n      dup3\n      and\n        /* \"contracts/uniswap/libraries/TickMath.sol\":2185:2204  absTick & 0x40 != 0 */\n      iszero\n        /* \"contracts/uniswap/libraries/TickMath.sol\":2181:2265  if (absTick & 0x40 != 0) ratio = (ratio * 0xff2ea16466c96a3843ec78b326b52861) >> 128 */\n      tag_416\n      jumpi\n        /* \"contracts/uniswap/libraries/TickMath.sol\":2223:2257  0xff2ea16466c96a3843ec78b326b52861 */\n      0xff2ea16466c96a3843ec78b326b52861\n        /* \"contracts/uniswap/libraries/TickMath.sol\":2215:2257  ratio * 0xff2ea16466c96a3843ec78b326b52861 */\n      mul\n        /* \"contracts/uniswap/libraries/TickMath.sol\":2262:2265  128 */\n      0x80\n        /* \"contracts/uniswap/libraries/TickMath.sol\":2214:2265  (ratio * 0xff2ea16466c96a3843ec78b326b52861) >> 128 */\n      shr\n        /* \"contracts/uniswap/libraries/TickMath.sol\":2181:2265  if (absTick & 0x40 != 0) ratio = (ratio * 0xff2ea16466c96a3843ec78b326b52861) >> 128 */\n    tag_416:\n        /* \"contracts/uniswap/libraries/TickMath.sol\":2289:2293  0x80 */\n      0x80\n        /* \"contracts/uniswap/libraries/TickMath.sol\":2279:2293  absTick & 0x80 */\n      dup3\n      and\n        /* \"contracts/uniswap/libraries/TickMath.sol\":2279:2298  absTick & 0x80 != 0 */\n      iszero\n        /* \"contracts/uniswap/libraries/TickMath.sol\":2275:2359  if (absTick & 0x80 != 0) ratio = (ratio * 0xfe5dee046a99a2a811c461f1969c3053) >> 128 */\n      tag_417\n      jumpi\n        /* \"contracts/uniswap/libraries/TickMath.sol\":2317:2351  0xfe5dee046a99a2a811c461f1969c3053 */\n      0xfe5dee046a99a2a811c461f1969c3053\n        /* \"contracts/uniswap/libraries/TickMath.sol\":2309:2351  ratio * 0xfe5dee046a99a2a811c461f1969c3053 */\n      mul\n        /* \"contracts/uniswap/libraries/TickMath.sol\":2356:2359  128 */\n      0x80\n        /* \"contracts/uniswap/libraries/TickMath.sol\":2308:2359  (ratio * 0xfe5dee046a99a2a811c461f1969c3053) >> 128 */\n      shr\n        /* \"contracts/uniswap/libraries/TickMath.sol\":2275:2359  if (absTick & 0x80 != 0) ratio = (ratio * 0xfe5dee046a99a2a811c461f1969c3053) >> 128 */\n    tag_417:\n        /* \"contracts/uniswap/libraries/TickMath.sol\":2383:2388  0x100 */\n      0x0100\n        /* \"contracts/uniswap/libraries/TickMath.sol\":2373:2388  absTick & 0x100 */\n      dup3\n      and\n        /* \"contracts/uniswap/libraries/TickMath.sol\":2373:2393  absTick & 0x100 != 0 */\n      iszero\n        /* \"contracts/uniswap/libraries/TickMath.sol\":2369:2454  if (absTick & 0x100 != 0) ratio = (ratio * 0xfcbe86c7900a88aedcffc83b479aa3a4) >> 128 */\n      tag_418\n      jumpi\n        /* \"contracts/uniswap/libraries/TickMath.sol\":2412:2446  0xfcbe86c7900a88aedcffc83b479aa3a4 */\n      0xfcbe86c7900a88aedcffc83b479aa3a4\n        /* \"contracts/uniswap/libraries/TickMath.sol\":2404:2446  ratio * 0xfcbe86c7900a88aedcffc83b479aa3a4 */\n      mul\n        /* \"contracts/uniswap/libraries/TickMath.sol\":2451:2454  128 */\n      0x80\n        /* \"contracts/uniswap/libraries/TickMath.sol\":2403:2454  (ratio * 0xfcbe86c7900a88aedcffc83b479aa3a4) >> 128 */\n      shr\n        /* \"contracts/uniswap/libraries/TickMath.sol\":2369:2454  if (absTick & 0x100 != 0) ratio = (ratio * 0xfcbe86c7900a88aedcffc83b479aa3a4) >> 128 */\n    tag_418:\n        /* \"contracts/uniswap/libraries/TickMath.sol\":2478:2483  0x200 */\n      0x0200\n        /* \"contracts/uniswap/libraries/TickMath.sol\":2468:2483  absTick & 0x200 */\n      dup3\n      and\n        /* \"contracts/uniswap/libraries/TickMath.sol\":2468:2488  absTick & 0x200 != 0 */\n      iszero\n        /* \"contracts/uniswap/libraries/TickMath.sol\":2464:2549  if (absTick & 0x200 != 0) ratio = (ratio * 0xf987a7253ac413176f2b074cf7815e54) >> 128 */\n      tag_419\n      jumpi\n        /* \"contracts/uniswap/libraries/TickMath.sol\":2507:2541  0xf987a7253ac413176f2b074cf7815e54 */\n      0xf987a7253ac413176f2b074cf7815e54\n        /* \"contracts/uniswap/libraries/TickMath.sol\":2499:2541  ratio * 0xf987a7253ac413176f2b074cf7815e54 */\n      mul\n        /* \"contracts/uniswap/libraries/TickMath.sol\":2546:2549  128 */\n      0x80\n        /* \"contracts/uniswap/libraries/TickMath.sol\":2498:2549  (ratio * 0xf987a7253ac413176f2b074cf7815e54) >> 128 */\n      shr\n        /* \"contracts/uniswap/libraries/TickMath.sol\":2464:2549  if (absTick & 0x200 != 0) ratio = (ratio * 0xf987a7253ac413176f2b074cf7815e54) >> 128 */\n    tag_419:\n        /* \"contracts/uniswap/libraries/TickMath.sol\":2573:2578  0x400 */\n      0x0400\n        /* \"contracts/uniswap/libraries/TickMath.sol\":2563:2578  absTick & 0x400 */\n      dup3\n      and\n        /* \"contracts/uniswap/libraries/TickMath.sol\":2563:2583  absTick & 0x400 != 0 */\n      iszero\n        /* \"contracts/uniswap/libraries/TickMath.sol\":2559:2644  if (absTick & 0x400 != 0) ratio = (ratio * 0xf3392b0822b70005940c7a398e4b70f3) >> 128 */\n      tag_420\n      jumpi\n        /* \"contracts/uniswap/libraries/TickMath.sol\":2602:2636  0xf3392b0822b70005940c7a398e4b70f3 */\n      0xf3392b0822b70005940c7a398e4b70f3\n        /* \"contracts/uniswap/libraries/TickMath.sol\":2594:2636  ratio * 0xf3392b0822b70005940c7a398e4b70f3 */\n      mul\n        /* \"contracts/uniswap/libraries/TickMath.sol\":2641:2644  128 */\n      0x80\n        /* \"contracts/uniswap/libraries/TickMath.sol\":2593:2644  (ratio * 0xf3392b0822b70005940c7a398e4b70f3) >> 128 */\n      shr\n        /* \"contracts/uniswap/libraries/TickMath.sol\":2559:2644  if (absTick & 0x400 != 0) ratio = (ratio * 0xf3392b0822b70005940c7a398e4b70f3) >> 128 */\n    tag_420:\n        /* \"contracts/uniswap/libraries/TickMath.sol\":2668:2673  0x800 */\n      0x0800\n        /* \"contracts/uniswap/libraries/TickMath.sol\":2658:2673  absTick & 0x800 */\n      dup3\n      and\n        /* \"contracts/uniswap/libraries/TickMath.sol\":2658:2678  absTick & 0x800 != 0 */\n      iszero\n        /* \"contracts/uniswap/libraries/TickMath.sol\":2654:2739  if (absTick & 0x800 != 0) ratio = (ratio * 0xe7159475a2c29b7443b29c7fa6e889d9) >> 128 */\n      tag_421\n      jumpi\n        /* \"contracts/uniswap/libraries/TickMath.sol\":2697:2731  0xe7159475a2c29b7443b29c7fa6e889d9 */\n      0xe7159475a2c29b7443b29c7fa6e889d9\n        /* \"contracts/uniswap/libraries/TickMath.sol\":2689:2731  ratio * 0xe7159475a2c29b7443b29c7fa6e889d9 */\n      mul\n        /* \"contracts/uniswap/libraries/TickMath.sol\":2736:2739  128 */\n      0x80\n        /* \"contracts/uniswap/libraries/TickMath.sol\":2688:2739  (ratio * 0xe7159475a2c29b7443b29c7fa6e889d9) >> 128 */\n      shr\n        /* \"contracts/uniswap/libraries/TickMath.sol\":2654:2739  if (absTick & 0x800 != 0) ratio = (ratio * 0xe7159475a2c29b7443b29c7fa6e889d9) >> 128 */\n    tag_421:\n        /* \"contracts/uniswap/libraries/TickMath.sol\":2763:2769  0x1000 */\n      0x1000\n        /* \"contracts/uniswap/libraries/TickMath.sol\":2753:2769  absTick & 0x1000 */\n      dup3\n      and\n        /* \"contracts/uniswap/libraries/TickMath.sol\":2753:2774  absTick & 0x1000 != 0 */\n      iszero\n        /* \"contracts/uniswap/libraries/TickMath.sol\":2749:2835  if (absTick & 0x1000 != 0) ratio = (ratio * 0xd097f3bdfd2022b8845ad8f792aa5825) >> 128 */\n      tag_422\n      jumpi\n        /* \"contracts/uniswap/libraries/TickMath.sol\":2793:2827  0xd097f3bdfd2022b8845ad8f792aa5825 */\n      0xd097f3bdfd2022b8845ad8f792aa5825\n        /* \"contracts/uniswap/libraries/TickMath.sol\":2785:2827  ratio * 0xd097f3bdfd2022b8845ad8f792aa5825 */\n      mul\n        /* \"contracts/uniswap/libraries/TickMath.sol\":2832:2835  128 */\n      0x80\n        /* \"contracts/uniswap/libraries/TickMath.sol\":2784:2835  (ratio * 0xd097f3bdfd2022b8845ad8f792aa5825) >> 128 */\n      shr\n        /* \"contracts/uniswap/libraries/TickMath.sol\":2749:2835  if (absTick & 0x1000 != 0) ratio = (ratio * 0xd097f3bdfd2022b8845ad8f792aa5825) >> 128 */\n    tag_422:\n        /* \"contracts/uniswap/libraries/TickMath.sol\":2859:2865  0x2000 */\n      0x2000\n        /* \"contracts/uniswap/libraries/TickMath.sol\":2849:2865  absTick & 0x2000 */\n      dup3\n      and\n        /* \"contracts/uniswap/libraries/TickMath.sol\":2849:2870  absTick & 0x2000 != 0 */\n      iszero\n        /* \"contracts/uniswap/libraries/TickMath.sol\":2845:2931  if (absTick & 0x2000 != 0) ratio = (ratio * 0xa9f746462d870fdf8a65dc1f90e061e5) >> 128 */\n      tag_423\n      jumpi\n        /* \"contracts/uniswap/libraries/TickMath.sol\":2889:2923  0xa9f746462d870fdf8a65dc1f90e061e5 */\n      0xa9f746462d870fdf8a65dc1f90e061e5\n        /* \"contracts/uniswap/libraries/TickMath.sol\":2881:2923  ratio * 0xa9f746462d870fdf8a65dc1f90e061e5 */\n      mul\n        /* \"contracts/uniswap/libraries/TickMath.sol\":2928:2931  128 */\n      0x80\n        /* \"contracts/uniswap/libraries/TickMath.sol\":2880:2931  (ratio * 0xa9f746462d870fdf8a65dc1f90e061e5) >> 128 */\n      shr\n        /* \"contracts/uniswap/libraries/TickMath.sol\":2845:2931  if (absTick & 0x2000 != 0) ratio = (ratio * 0xa9f746462d870fdf8a65dc1f90e061e5) >> 128 */\n    tag_423:\n        /* \"contracts/uniswap/libraries/TickMath.sol\":2955:2961  0x4000 */\n      0x4000\n        /* \"contracts/uniswap/libraries/TickMath.sol\":2945:2961  absTick & 0x4000 */\n      dup3\n      and\n        /* \"contracts/uniswap/libraries/TickMath.sol\":2945:2966  absTick & 0x4000 != 0 */\n      iszero\n        /* \"contracts/uniswap/libraries/TickMath.sol\":2941:3027  if (absTick & 0x4000 != 0) ratio = (ratio * 0x70d869a156d2a1b890bb3df62baf32f7) >> 128 */\n      tag_424\n      jumpi\n        /* \"contracts/uniswap/libraries/TickMath.sol\":2985:3019  0x70d869a156d2a1b890bb3df62baf32f7 */\n      0x70d869a156d2a1b890bb3df62baf32f7\n        /* \"contracts/uniswap/libraries/TickMath.sol\":2977:3019  ratio * 0x70d869a156d2a1b890bb3df62baf32f7 */\n      mul\n        /* \"contracts/uniswap/libraries/TickMath.sol\":3024:3027  128 */\n      0x80\n        /* \"contracts/uniswap/libraries/TickMath.sol\":2976:3027  (ratio * 0x70d869a156d2a1b890bb3df62baf32f7) >> 128 */\n      shr\n        /* \"contracts/uniswap/libraries/TickMath.sol\":2941:3027  if (absTick & 0x4000 != 0) ratio = (ratio * 0x70d869a156d2a1b890bb3df62baf32f7) >> 128 */\n    tag_424:\n        /* \"contracts/uniswap/libraries/TickMath.sol\":3051:3057  0x8000 */\n      0x8000\n        /* \"contracts/uniswap/libraries/TickMath.sol\":3041:3057  absTick & 0x8000 */\n      dup3\n      and\n        /* \"contracts/uniswap/libraries/TickMath.sol\":3041:3062  absTick & 0x8000 != 0 */\n      iszero\n        /* \"contracts/uniswap/libraries/TickMath.sol\":3037:3123  if (absTick & 0x8000 != 0) ratio = (ratio * 0x31be135f97d08fd981231505542fcfa6) >> 128 */\n      tag_425\n      jumpi\n        /* \"contracts/uniswap/libraries/TickMath.sol\":3081:3115  0x31be135f97d08fd981231505542fcfa6 */\n      0x31be135f97d08fd981231505542fcfa6\n        /* \"contracts/uniswap/libraries/TickMath.sol\":3073:3115  ratio * 0x31be135f97d08fd981231505542fcfa6 */\n      mul\n        /* \"contracts/uniswap/libraries/TickMath.sol\":3120:3123  128 */\n      0x80\n        /* \"contracts/uniswap/libraries/TickMath.sol\":3072:3123  (ratio * 0x31be135f97d08fd981231505542fcfa6) >> 128 */\n      shr\n        /* \"contracts/uniswap/libraries/TickMath.sol\":3037:3123  if (absTick & 0x8000 != 0) ratio = (ratio * 0x31be135f97d08fd981231505542fcfa6) >> 128 */\n    tag_425:\n        /* \"contracts/uniswap/libraries/TickMath.sol\":3147:3154  0x10000 */\n      0x010000\n        /* \"contracts/uniswap/libraries/TickMath.sol\":3137:3154  absTick & 0x10000 */\n      dup3\n      and\n        /* \"contracts/uniswap/libraries/TickMath.sol\":3137:3159  absTick & 0x10000 != 0 */\n      iszero\n        /* \"contracts/uniswap/libraries/TickMath.sol\":3133:3219  if (absTick & 0x10000 != 0) ratio = (ratio * 0x9aa508b5b7a84e1c677de54f3e99bc9) >> 128 */\n      tag_426\n      jumpi\n        /* \"contracts/uniswap/libraries/TickMath.sol\":3178:3211  0x9aa508b5b7a84e1c677de54f3e99bc9 */\n      0x09aa508b5b7a84e1c677de54f3e99bc9\n        /* \"contracts/uniswap/libraries/TickMath.sol\":3170:3211  ratio * 0x9aa508b5b7a84e1c677de54f3e99bc9 */\n      mul\n        /* \"contracts/uniswap/libraries/TickMath.sol\":3216:3219  128 */\n      0x80\n        /* \"contracts/uniswap/libraries/TickMath.sol\":3169:3219  (ratio * 0x9aa508b5b7a84e1c677de54f3e99bc9) >> 128 */\n      shr\n        /* \"contracts/uniswap/libraries/TickMath.sol\":3133:3219  if (absTick & 0x10000 != 0) ratio = (ratio * 0x9aa508b5b7a84e1c677de54f3e99bc9) >> 128 */\n    tag_426:\n        /* \"contracts/uniswap/libraries/TickMath.sol\":3243:3250  0x20000 */\n      0x020000\n        /* \"contracts/uniswap/libraries/TickMath.sol\":3233:3250  absTick & 0x20000 */\n      dup3\n      and\n        /* \"contracts/uniswap/libraries/TickMath.sol\":3233:3255  absTick & 0x20000 != 0 */\n      iszero\n        /* \"contracts/uniswap/libraries/TickMath.sol\":3229:3314  if (absTick & 0x20000 != 0) ratio = (ratio * 0x5d6af8dedb81196699c329225ee604) >> 128 */\n      tag_427\n      jumpi\n        /* \"contracts/uniswap/libraries/TickMath.sol\":3274:3306  0x5d6af8dedb81196699c329225ee604 */\n      0x5d6af8dedb81196699c329225ee604\n        /* \"contracts/uniswap/libraries/TickMath.sol\":3266:3306  ratio * 0x5d6af8dedb81196699c329225ee604 */\n      mul\n        /* \"contracts/uniswap/libraries/TickMath.sol\":3311:3314  128 */\n      0x80\n        /* \"contracts/uniswap/libraries/TickMath.sol\":3265:3314  (ratio * 0x5d6af8dedb81196699c329225ee604) >> 128 */\n      shr\n        /* \"contracts/uniswap/libraries/TickMath.sol\":3229:3314  if (absTick & 0x20000 != 0) ratio = (ratio * 0x5d6af8dedb81196699c329225ee604) >> 128 */\n    tag_427:\n        /* \"contracts/uniswap/libraries/TickMath.sol\":3338:3345  0x40000 */\n      0x040000\n        /* \"contracts/uniswap/libraries/TickMath.sol\":3328:3345  absTick & 0x40000 */\n      dup3\n      and\n        /* \"contracts/uniswap/libraries/TickMath.sol\":3328:3350  absTick & 0x40000 != 0 */\n      iszero\n        /* \"contracts/uniswap/libraries/TickMath.sol\":3324:3407  if (absTick & 0x40000 != 0) ratio = (ratio * 0x2216e584f5fa1ea926041bedfe98) >> 128 */\n      tag_428\n      jumpi\n        /* \"contracts/uniswap/libraries/TickMath.sol\":3369:3399  0x2216e584f5fa1ea926041bedfe98 */\n      0x2216e584f5fa1ea926041bedfe98\n        /* \"contracts/uniswap/libraries/TickMath.sol\":3361:3399  ratio * 0x2216e584f5fa1ea926041bedfe98 */\n      mul\n        /* \"contracts/uniswap/libraries/TickMath.sol\":3404:3407  128 */\n      0x80\n        /* \"contracts/uniswap/libraries/TickMath.sol\":3360:3407  (ratio * 0x2216e584f5fa1ea926041bedfe98) >> 128 */\n      shr\n        /* \"contracts/uniswap/libraries/TickMath.sol\":3324:3407  if (absTick & 0x40000 != 0) ratio = (ratio * 0x2216e584f5fa1ea926041bedfe98) >> 128 */\n    tag_428:\n        /* \"contracts/uniswap/libraries/TickMath.sol\":3431:3438  0x80000 */\n      0x080000\n        /* \"contracts/uniswap/libraries/TickMath.sol\":3421:3438  absTick & 0x80000 */\n      dup3\n      and\n        /* \"contracts/uniswap/libraries/TickMath.sol\":3421:3443  absTick & 0x80000 != 0 */\n      iszero\n        /* \"contracts/uniswap/libraries/TickMath.sol\":3417:3495  if (absTick & 0x80000 != 0) ratio = (ratio * 0x48a170391f7dc42444e8fa2) >> 128 */\n      tag_429\n      jumpi\n        /* \"contracts/uniswap/libraries/TickMath.sol\":3462:3487  0x48a170391f7dc42444e8fa2 */\n      0x048a170391f7dc42444e8fa2\n        /* \"contracts/uniswap/libraries/TickMath.sol\":3454:3487  ratio * 0x48a170391f7dc42444e8fa2 */\n      mul\n        /* \"contracts/uniswap/libraries/TickMath.sol\":3492:3495  128 */\n      0x80\n        /* \"contracts/uniswap/libraries/TickMath.sol\":3453:3495  (ratio * 0x48a170391f7dc42444e8fa2) >> 128 */\n      shr\n        /* \"contracts/uniswap/libraries/TickMath.sol\":3417:3495  if (absTick & 0x80000 != 0) ratio = (ratio * 0x48a170391f7dc42444e8fa2) >> 128 */\n    tag_429:\n        /* \"contracts/uniswap/libraries/TickMath.sol\":3517:3518  0 */\n      0x00\n        /* \"contracts/uniswap/libraries/TickMath.sol\":3510:3514  tick */\n      dup5\n        /* \"contracts/uniswap/libraries/TickMath.sol\":3510:3518  tick > 0 */\n      0x02\n      signextend\n      sgt\n        /* \"contracts/uniswap/libraries/TickMath.sol\":3506:3553  if (tick > 0) ratio = type(uint256).max / ratio */\n      iszero\n      tag_430\n      jumpi\n        /* \"contracts/uniswap/libraries/TickMath.sol\":3548:3553  ratio */\n      dup1\n        /* \"contracts/uniswap/libraries/TickMath.sol\":3528:3545  type(uint256).max */\n      0xffffffffffffffffffffffffffffffffffffffffffffffffffffffffffffffff\n        /* \"contracts/uniswap/libraries/TickMath.sol\":3528:3553  type(uint256).max / ratio */\n      dup2\n      tag_431\n      jumpi\n      invalid\n    tag_431:\n      div\n        /* \"contracts/uniswap/libraries/TickMath.sol\":3520:3553  ratio = type(uint256).max / ratio */\n      swap1\n      pop\n        /* \"contracts/uniswap/libraries/TickMath.sol\":3506:3553  if (tick > 0) ratio = type(uint256).max / ratio */\n    tag_430:\n        /* \"contracts/uniswap/libraries/TickMath.sol\":3912:3919  1 << 32 */\n      0x0100000000\n        /* \"contracts/uniswap/libraries/TickMath.sol\":3903:3908  ratio */\n      dup2\n        /* \"contracts/uniswap/libraries/TickMath.sol\":3903:3920  ratio % (1 << 32) */\n      mod\n        /* \"contracts/uniswap/libraries/TickMath.sol\":3903:3925  ratio % (1 << 32) == 0 */\n      iszero\n        /* \"contracts/uniswap/libraries/TickMath.sol\":3903:3933  ratio % (1 << 32) == 0 ? 0 : 1 */\n      tag_433\n      jumpi\n        /* \"contracts/uniswap/libraries/TickMath.sol\":3932:3933  1 */\n      0x01\n        /* \"contracts/uniswap/libraries/TickMath.sol\":3903:3933  ratio % (1 << 32) == 0 ? 0 : 1 */\n      jump(tag_434)\n    tag_433:\n        /* \"contracts/uniswap/libraries/TickMath.sol\":3928:3929  0 */\n      0x00\n        /* \"contracts/uniswap/libraries/TickMath.sol\":3903:3933  ratio % (1 << 32) == 0 ? 0 : 1 */\n    tag_434:\n        /* \"contracts/uniswap/libraries/TickMath.sol\":3886:3934  (ratio >> 32) + (ratio % (1 << 32) == 0 ? 0 : 1) */\n      0xff\n      and\n        /* \"contracts/uniswap/libraries/TickMath.sol\":3896:3898  32 */\n      0x20\n        /* \"contracts/uniswap/libraries/TickMath.sol\":3887:3892  ratio */\n      dup3\n        /* \"contracts/uniswap/libraries/TickMath.sol\":3887:3898  ratio >> 32 */\n      swap1\n      shr\n        /* \"contracts/uniswap/libraries/TickMath.sol\":3886:3934  (ratio >> 32) + (ratio % (1 << 32) == 0 ? 0 : 1) */\n      add\n        /* \"contracts/uniswap/libraries/TickMath.sol\":3863:3935  sqrtPriceX96 = uint160((ratio >> 32) + (ratio % (1 << 32) == 0 ? 0 : 1)) */\n      swap3\n      pop\n        /* \"contracts/uniswap/libraries/TickMath.sol\":1362:3942  function getSqrtRatioAtTick(int24 tick) internal pure returns (uint160 sqrtPriceX96) {... */\n      pop\n      pop\n      swap2\n      swap1\n      pop\n      jump\t// out\n        /* \"contracts/uniswap/libraries/SwapMath.sol\":1391:4630  function computeSwapStep(... */\n    tag_157:\n        /* \"contracts/uniswap/libraries/SwapMath.sol\":1638:1662  uint160 sqrtRatioNextX96 */\n      0x00\n      dup1\n      dup1\n      dup1\n      sub(shl(0xa0, 0x01), 0x01)\n        /* \"contracts/uniswap/libraries/SwapMath.sol\":1797:1838  sqrtRatioCurrentX96 >= sqrtRatioTargetX96 */\n      dup1\n      dup10\n      and\n      swap1\n      dup11\n      and\n      lt\n      iszero\n        /* \"contracts/uniswap/libraries/SwapMath.sol\":1863:1883  amountRemaining >= 0 */\n      dup2\n      dup8\n      slt\n      dup1\n      iszero\n      swap1\n        /* \"contracts/uniswap/libraries/SwapMath.sol\":1894:3248  if (exactIn) {... */\n      tag_436\n      jumpi\n        /* \"contracts/uniswap/libraries/SwapMath.sol\":1921:1951  uint256 amountRemainingLessFee */\n      0x00\n        /* \"contracts/uniswap/libraries/SwapMath.sol\":1954:2015  FullMath.mulDiv(uint256(amountRemaining), 1e6 - feePips, 1e6) */\n      tag_437\n        /* \"contracts/uniswap/libraries/SwapMath.sol\":1978:1993  amountRemaining */\n      dup10\n        /* \"contracts/uniswap/libraries/SwapMath.sol\":2002:2009  feePips */\n      dup10\n        /* \"contracts/uniswap/libraries/SwapMath.sol\":1996:1999  1e6 */\n      0x0f4240\n        /* \"contracts/uniswap/libraries/SwapMath.sol\":1996:2009  1e6 - feePips */\n      sub\n        /* \"contracts/uniswap/libraries/SwapMath.sol\":1954:2015  FullMath.mulDiv(uint256(amountRemaining), 1e6 - feePips, 1e6) */\n      0xffffff\n      and\n        /* \"contracts/uniswap/libraries/SwapMath.sol\":2011:2014  1e6 */\n      0x0f4240\n        /* \"contracts/uniswap/libraries/SwapMath.sol\":1954:1969  FullMath.mulDiv */\n      tag_173\n        /* \"contracts/uniswap/libraries/SwapMath.sol\":1954:2015  FullMath.mulDiv(uint256(amountRemaining), 1e6 - feePips, 1e6) */\n      jump\t// in\n    tag_437:\n        /* \"contracts/uniswap/libraries/SwapMath.sol\":1921:2015  uint256 amountRemainingLessFee = FullMath.mulDiv(uint256(amountRemaining), 1e6 - feePips, 1e6) */\n      swap1\n      pop\n        /* \"contracts/uniswap/libraries/SwapMath.sol\":2040:2050  zeroForOne */\n      dup3\n        /* \"contracts/uniswap/libraries/SwapMath.sol\":2040:2262  zeroForOne... */\n      tag_438\n      jumpi\n        /* \"contracts/uniswap/libraries/SwapMath.sol\":2175:2262  SqrtPriceMath.getAmount1Delta(sqrtRatioCurrentX96, sqrtRatioTargetX96, liquidity, true) */\n      tag_439\n        /* \"contracts/uniswap/libraries/SwapMath.sol\":2205:2224  sqrtRatioCurrentX96 */\n      dup13\n        /* \"contracts/uniswap/libraries/SwapMath.sol\":2226:2244  sqrtRatioTargetX96 */\n      dup13\n        /* \"contracts/uniswap/libraries/SwapMath.sol\":2246:2255  liquidity */\n      dup13\n        /* \"contracts/uniswap/libraries/SwapMath.sol\":2257:2261  true */\n      0x01\n        /* \"contracts/uniswap/libraries/SwapMath.sol\":2175:2204  SqrtPriceMath.getAmount1Delta */\n      tag_440\n        /* \"contracts/uniswap/libraries/SwapMath.sol\":2175:2262  SqrtPriceMath.getAmount1Delta(sqrtRatioCurrentX96, sqrtRatioTargetX96, liquidity, true) */\n      jump\t// in\n    tag_439:\n        /* \"contracts/uniswap/libraries/SwapMath.sol\":2040:2262  zeroForOne... */\n      jump(tag_442)\n    tag_438:\n        /* \"contracts/uniswap/libraries/SwapMath.sol\":2069:2156  SqrtPriceMath.getAmount0Delta(sqrtRatioTargetX96, sqrtRatioCurrentX96, liquidity, true) */\n      tag_442\n        /* \"contracts/uniswap/libraries/SwapMath.sol\":2099:2117  sqrtRatioTargetX96 */\n      dup12\n        /* \"contracts/uniswap/libraries/SwapMath.sol\":2119:2138  sqrtRatioCurrentX96 */\n      dup14\n        /* \"contracts/uniswap/libraries/SwapMath.sol\":2140:2149  liquidity */\n      dup13\n        /* \"contracts/uniswap/libraries/SwapMath.sol\":2151:2155  true */\n      0x01\n        /* \"contracts/uniswap/libraries/SwapMath.sol\":2069:2098  SqrtPriceMath.getAmount0Delta */\n      tag_443\n        /* \"contracts/uniswap/libraries/SwapMath.sol\":2069:2156  SqrtPriceMath.getAmount0Delta(sqrtRatioTargetX96, sqrtRatioCurrentX96, liquidity, true) */\n      jump\t// in\n    tag_442:\n        /* \"contracts/uniswap/libraries/SwapMath.sol\":2029:2262  amountIn = zeroForOne... */\n      swap6\n      pop\n        /* \"contracts/uniswap/libraries/SwapMath.sol\":2306:2314  amountIn */\n      dup6\n        /* \"contracts/uniswap/libraries/SwapMath.sol\":2280:2302  amountRemainingLessFee */\n      dup2\n        /* \"contracts/uniswap/libraries/SwapMath.sol\":2280:2314  amountRemainingLessFee >= amountIn */\n      lt\n        /* \"contracts/uniswap/libraries/SwapMath.sol\":2276:2612  if (amountRemainingLessFee >= amountIn) sqrtRatioNextX96 = sqrtRatioTargetX96;... */\n      tag_444\n      jumpi\n        /* \"contracts/uniswap/libraries/SwapMath.sol\":2335:2353  sqrtRatioTargetX96 */\n      dup11\n        /* \"contracts/uniswap/libraries/SwapMath.sol\":2316:2353  sqrtRatioNextX96 = sqrtRatioTargetX96 */\n      swap7\n      pop\n        /* \"contracts/uniswap/libraries/SwapMath.sol\":2276:2612  if (amountRemainingLessFee >= amountIn) sqrtRatioNextX96 = sqrtRatioTargetX96;... */\n      jump(tag_445)\n    tag_444:\n        /* \"contracts/uniswap/libraries/SwapMath.sol\":2407:2612  SqrtPriceMath.getNextSqrtPriceFromInput(... */\n      tag_446\n        /* \"contracts/uniswap/libraries/SwapMath.sol\":2468:2487  sqrtRatioCurrentX96 */\n      dup13\n        /* \"contracts/uniswap/libraries/SwapMath.sol\":2509:2518  liquidity */\n      dup12\n        /* \"contracts/uniswap/libraries/SwapMath.sol\":2540:2562  amountRemainingLessFee */\n      dup4\n        /* \"contracts/uniswap/libraries/SwapMath.sol\":2584:2594  zeroForOne */\n      dup7\n        /* \"contracts/uniswap/libraries/SwapMath.sol\":2407:2446  SqrtPriceMath.getNextSqrtPriceFromInput */\n      tag_447\n        /* \"contracts/uniswap/libraries/SwapMath.sol\":2407:2612  SqrtPriceMath.getNextSqrtPriceFromInput(... */\n      jump\t// in\n    tag_446:\n        /* \"contracts/uniswap/libraries/SwapMath.sol\":2388:2612  sqrtRatioNextX96 = SqrtPriceMath.getNextSqrtPriceFromInput(... */\n      swap7\n      pop\n        /* \"contracts/uniswap/libraries/SwapMath.sol\":2276:2612  if (amountRemainingLessFee >= amountIn) sqrtRatioNextX96 = sqrtRatioTargetX96;... */\n    tag_445:\n        /* \"contracts/uniswap/libraries/SwapMath.sol\":1894:3248  if (exactIn) {... */\n      pop\n      jump(tag_454)\n    tag_436:\n        /* \"contracts/uniswap/libraries/SwapMath.sol\":2655:2665  zeroForOne */\n      dup2\n        /* \"contracts/uniswap/libraries/SwapMath.sol\":2655:2879  zeroForOne... */\n      tag_449\n      jumpi\n        /* \"contracts/uniswap/libraries/SwapMath.sol\":2791:2879  SqrtPriceMath.getAmount0Delta(sqrtRatioCurrentX96, sqrtRatioTargetX96, liquidity, false) */\n      tag_450\n        /* \"contracts/uniswap/libraries/SwapMath.sol\":2821:2840  sqrtRatioCurrentX96 */\n      dup12\n        /* \"contracts/uniswap/libraries/SwapMath.sol\":2842:2860  sqrtRatioTargetX96 */\n      dup12\n        /* \"contracts/uniswap/libraries/SwapMath.sol\":2862:2871  liquidity */\n      dup12\n        /* \"contracts/uniswap/libraries/SwapMath.sol\":2873:2878  false */\n      0x00\n        /* \"contracts/uniswap/libraries/SwapMath.sol\":2791:2820  SqrtPriceMath.getAmount0Delta */\n      tag_443\n        /* \"contracts/uniswap/libraries/SwapMath.sol\":2791:2879  SqrtPriceMath.getAmount0Delta(sqrtRatioCurrentX96, sqrtRatioTargetX96, liquidity, false) */\n      jump\t// in\n    tag_450:\n        /* \"contracts/uniswap/libraries/SwapMath.sol\":2655:2879  zeroForOne... */\n      jump(tag_452)\n    tag_449:\n        /* \"contracts/uniswap/libraries/SwapMath.sol\":2684:2772  SqrtPriceMath.getAmount1Delta(sqrtRatioTargetX96, sqrtRatioCurrentX96, liquidity, false) */\n      tag_452\n        /* \"contracts/uniswap/libraries/SwapMath.sol\":2714:2732  sqrtRatioTargetX96 */\n      dup11\n        /* \"contracts/uniswap/libraries/SwapMath.sol\":2734:2753  sqrtRatioCurrentX96 */\n      dup13\n        /* \"contracts/uniswap/libraries/SwapMath.sol\":2755:2764  liquidity */\n      dup12\n        /* \"contracts/uniswap/libraries/SwapMath.sol\":2766:2771  false */\n      0x00\n        /* \"contracts/uniswap/libraries/SwapMath.sol\":2684:2713  SqrtPriceMath.getAmount1Delta */\n      tag_440\n        /* \"contracts/uniswap/libraries/SwapMath.sol\":2684:2772  SqrtPriceMath.getAmount1Delta(sqrtRatioTargetX96, sqrtRatioCurrentX96, liquidity, false) */\n      jump\t// in\n    tag_452:\n        /* \"contracts/uniswap/libraries/SwapMath.sol\":2643:2879  amountOut = zeroForOne... */\n      swap4\n      pop\n        /* \"contracts/uniswap/libraries/SwapMath.sol\":2926:2935  amountOut */\n      dup4\n        /* \"contracts/uniswap/libraries/SwapMath.sol\":2906:2921  amountRemaining */\n      dup9\n        /* \"contracts/uniswap/libraries/SwapMath.sol\":2905:2921  -amountRemaining */\n      0x00\n      sub\n        /* \"contracts/uniswap/libraries/SwapMath.sol\":2897:2935  uint256(-amountRemaining) >= amountOut */\n      lt\n        /* \"contracts/uniswap/libraries/SwapMath.sol\":2893:3237  if (uint256(-amountRemaining) >= amountOut) sqrtRatioNextX96 = sqrtRatioTargetX96;... */\n      tag_453\n      jumpi\n        /* \"contracts/uniswap/libraries/SwapMath.sol\":2956:2974  sqrtRatioTargetX96 */\n      dup10\n        /* \"contracts/uniswap/libraries/SwapMath.sol\":2937:2974  sqrtRatioNextX96 = sqrtRatioTargetX96 */\n      swap6\n      pop\n        /* \"contracts/uniswap/libraries/SwapMath.sol\":2893:3237  if (uint256(-amountRemaining) >= amountOut) sqrtRatioNextX96 = sqrtRatioTargetX96;... */\n      jump(tag_454)\n    tag_453:\n        /* \"contracts/uniswap/libraries/SwapMath.sol\":3028:3237  SqrtPriceMath.getNextSqrtPriceFromOutput(... */\n      tag_455\n        /* \"contracts/uniswap/libraries/SwapMath.sol\":3090:3109  sqrtRatioCurrentX96 */\n      dup12\n        /* \"contracts/uniswap/libraries/SwapMath.sol\":3131:3140  liquidity */\n      dup11\n        /* \"contracts/uniswap/libraries/SwapMath.sol\":3171:3186  amountRemaining */\n      dup11\n        /* \"contracts/uniswap/libraries/SwapMath.sol\":3170:3186  -amountRemaining */\n      0x00\n      sub\n        /* \"contracts/uniswap/libraries/SwapMath.sol\":3209:3219  zeroForOne */\n      dup6\n        /* \"contracts/uniswap/libraries/SwapMath.sol\":3028:3068  SqrtPriceMath.getNextSqrtPriceFromOutput */\n      tag_456\n        /* \"contracts/uniswap/libraries/SwapMath.sol\":3028:3237  SqrtPriceMath.getNextSqrtPriceFromOutput(... */\n      jump\t// in\n    tag_455:\n        /* \"contracts/uniswap/libraries/SwapMath.sol\":3009:3237  sqrtRatioNextX96 = SqrtPriceMath.getNextSqrtPriceFromOutput(... */\n      swap6\n      pop\n        /* \"contracts/uniswap/libraries/SwapMath.sol\":2893:3237  if (uint256(-amountRemaining) >= amountOut) sqrtRatioNextX96 = sqrtRatioTargetX96;... */\n    tag_454:\n      sub(shl(0xa0, 0x01), 0x01)\n        /* \"contracts/uniswap/libraries/SwapMath.sol\":3269:3307  sqrtRatioTargetX96 == sqrtRatioNextX96 */\n      dup11\n      dup2\n      and\n      swap1\n      dup8\n      and\n      eq\n        /* \"contracts/uniswap/libraries/SwapMath.sol\":3358:4090  if (zeroForOne) {... */\n      dup3\n      iszero\n      tag_457\n      jumpi\n        /* \"contracts/uniswap/libraries/SwapMath.sol\":3399:3402  max */\n      dup1\n        /* \"contracts/uniswap/libraries/SwapMath.sol\":3399:3413  max && exactIn */\n      dup1\n      iszero\n      tag_458\n      jumpi\n      pop\n        /* \"contracts/uniswap/libraries/SwapMath.sol\":3406:3413  exactIn */\n      dup2\n        /* \"contracts/uniswap/libraries/SwapMath.sol\":3399:3413  max && exactIn */\n    tag_458:\n        /* \"contracts/uniswap/libraries/SwapMath.sol\":3399:3544  max && exactIn... */\n      tag_459\n      jumpi\n        /* \"contracts/uniswap/libraries/SwapMath.sol\":3459:3544  SqrtPriceMath.getAmount0Delta(sqrtRatioNextX96, sqrtRatioCurrentX96, liquidity, true) */\n      tag_460\n        /* \"contracts/uniswap/libraries/SwapMath.sol\":3489:3505  sqrtRatioNextX96 */\n      dup8\n        /* \"contracts/uniswap/libraries/SwapMath.sol\":3507:3526  sqrtRatioCurrentX96 */\n      dup14\n        /* \"contracts/uniswap/libraries/SwapMath.sol\":3528:3537  liquidity */\n      dup13\n        /* \"contracts/uniswap/libraries/SwapMath.sol\":3539:3543  true */\n      0x01\n        /* \"contracts/uniswap/libraries/SwapMath.sol\":3459:3488  SqrtPriceMath.getAmount0Delta */\n      tag_443\n        /* \"contracts/uniswap/libraries/SwapMath.sol\":3459:3544  SqrtPriceMath.getAmount0Delta(sqrtRatioNextX96, sqrtRatioCurrentX96, liquidity, true) */\n      jump\t// in\n    tag_460:\n        /* \"contracts/uniswap/libraries/SwapMath.sol\":3399:3544  max && exactIn... */\n      jump(tag_461)\n    tag_459:\n        /* \"contracts/uniswap/libraries/SwapMath.sol\":3432:3440  amountIn */\n      dup6\n        /* \"contracts/uniswap/libraries/SwapMath.sol\":3399:3544  max && exactIn... */\n    tag_461:\n        /* \"contracts/uniswap/libraries/SwapMath.sol\":3388:3544  amountIn = max && exactIn... */\n      swap6\n      pop\n        /* \"contracts/uniswap/libraries/SwapMath.sol\":3570:3573  max */\n      dup1\n        /* \"contracts/uniswap/libraries/SwapMath.sol\":3570:3585  max && !exactIn */\n      dup1\n      iszero\n      tag_462\n      jumpi\n      pop\n        /* \"contracts/uniswap/libraries/SwapMath.sol\":3578:3585  exactIn */\n      dup2\n        /* \"contracts/uniswap/libraries/SwapMath.sol\":3577:3585  !exactIn */\n      iszero\n        /* \"contracts/uniswap/libraries/SwapMath.sol\":3570:3585  max && !exactIn */\n    tag_462:\n        /* \"contracts/uniswap/libraries/SwapMath.sol\":3570:3718  max && !exactIn... */\n      tag_463\n      jumpi\n        /* \"contracts/uniswap/libraries/SwapMath.sol\":3632:3718  SqrtPriceMath.getAmount1Delta(sqrtRatioNextX96, sqrtRatioCurrentX96, liquidity, false) */\n      tag_464\n        /* \"contracts/uniswap/libraries/SwapMath.sol\":3662:3678  sqrtRatioNextX96 */\n      dup8\n        /* \"contracts/uniswap/libraries/SwapMath.sol\":3680:3699  sqrtRatioCurrentX96 */\n      dup14\n        /* \"contracts/uniswap/libraries/SwapMath.sol\":3701:3710  liquidity */\n      dup13\n        /* \"contracts/uniswap/libraries/SwapMath.sol\":3712:3717  false */\n      0x00\n        /* \"contracts/uniswap/libraries/SwapMath.sol\":3632:3661  SqrtPriceMath.getAmount1Delta */\n      tag_440\n        /* \"contracts/uniswap/libraries/SwapMath.sol\":3632:3718  SqrtPriceMath.getAmount1Delta(sqrtRatioNextX96, sqrtRatioCurrentX96, liquidity, false) */\n      jump\t// in\n    tag_464:\n        /* \"contracts/uniswap/libraries/SwapMath.sol\":3570:3718  max && !exactIn... */\n      jump(tag_465)\n    tag_463:\n        /* \"contracts/uniswap/libraries/SwapMath.sol\":3604:3613  amountOut */\n      dup5\n        /* \"contracts/uniswap/libraries/SwapMath.sol\":3570:3718  max && !exactIn... */\n    tag_465:\n        /* \"contracts/uniswap/libraries/SwapMath.sol\":3558:3718  amountOut = max && !exactIn... */\n      swap5\n      pop\n        /* \"contracts/uniswap/libraries/SwapMath.sol\":3358:4090  if (zeroForOne) {... */\n      jump(tag_466)\n    tag_457:\n        /* \"contracts/uniswap/libraries/SwapMath.sol\":3760:3763  max */\n      dup1\n        /* \"contracts/uniswap/libraries/SwapMath.sol\":3760:3774  max && exactIn */\n      dup1\n      iszero\n      tag_467\n      jumpi\n      pop\n        /* \"contracts/uniswap/libraries/SwapMath.sol\":3767:3774  exactIn */\n      dup2\n        /* \"contracts/uniswap/libraries/SwapMath.sol\":3760:3774  max && exactIn */\n    tag_467:\n        /* \"contracts/uniswap/libraries/SwapMath.sol\":3760:3905  max && exactIn... */\n      tag_468\n      jumpi\n        /* \"contracts/uniswap/libraries/SwapMath.sol\":3820:3905  SqrtPriceMath.getAmount1Delta(sqrtRatioCurrentX96, sqrtRatioNextX96, liquidity, true) */\n      tag_469\n        /* \"contracts/uniswap/libraries/SwapMath.sol\":3850:3869  sqrtRatioCurrentX96 */\n      dup13\n        /* \"contracts/uniswap/libraries/SwapMath.sol\":3871:3887  sqrtRatioNextX96 */\n      dup9\n        /* \"contracts/uniswap/libraries/SwapMath.sol\":3889:3898  liquidity */\n      dup13\n        /* \"contracts/uniswap/libraries/SwapMath.sol\":3900:3904  true */\n      0x01\n        /* \"contracts/uniswap/libraries/SwapMath.sol\":3820:3849  SqrtPriceMath.getAmount1Delta */\n      tag_440\n        /* \"contracts/uniswap/libraries/SwapMath.sol\":3820:3905  SqrtPriceMath.getAmount1Delta(sqrtRatioCurrentX96, sqrtRatioNextX96, liquidity, true) */\n      jump\t// in\n    tag_469:\n        /* \"contracts/uniswap/libraries/SwapMath.sol\":3760:3905  max && exactIn... */\n      jump(tag_470)\n    tag_468:\n        /* \"contracts/uniswap/libraries/SwapMath.sol\":3793:3801  amountIn */\n      dup6\n        /* \"contracts/uniswap/libraries/SwapMath.sol\":3760:3905  max && exactIn... */\n    tag_470:\n        /* \"contracts/uniswap/libraries/SwapMath.sol\":3749:3905  amountIn = max && exactIn... */\n      swap6\n      pop\n        /* \"contracts/uniswap/libraries/SwapMath.sol\":3931:3934  max */\n      dup1\n        /* \"contracts/uniswap/libraries/SwapMath.sol\":3931:3946  max && !exactIn */\n      dup1\n      iszero\n      tag_471\n      jumpi\n      pop\n        /* \"contracts/uniswap/libraries/SwapMath.sol\":3939:3946  exactIn */\n      dup2\n        /* \"contracts/uniswap/libraries/SwapMath.sol\":3938:3946  !exactIn */\n      iszero\n        /* \"contracts/uniswap/libraries/SwapMath.sol\":3931:3946  max && !exactIn */\n    tag_471:\n        /* \"contracts/uniswap/libraries/SwapMath.sol\":3931:4079  max && !exactIn... */\n      tag_472\n      jumpi\n        /* \"contracts/uniswap/libraries/SwapMath.sol\":3993:4079  SqrtPriceMath.getAmount0Delta(sqrtRatioCurrentX96, sqrtRatioNextX96, liquidity, false) */\n      tag_473\n        /* \"contracts/uniswap/libraries/SwapMath.sol\":4023:4042  sqrtRatioCurrentX96 */\n      dup13\n        /* \"contracts/uniswap/libraries/SwapMath.sol\":4044:4060  sqrtRatioNextX96 */\n      dup9\n        /* \"contracts/uniswap/libraries/SwapMath.sol\":4062:4071  liquidity */\n      dup13\n        /* \"contracts/uniswap/libraries/SwapMath.sol\":4073:4078  false */\n      0x00\n        /* \"contracts/uniswap/libraries/SwapMath.sol\":3993:4022  SqrtPriceMath.getAmount0Delta */\n      tag_443\n        /* \"contracts/uniswap/libraries/SwapMath.sol\":3993:4079  SqrtPriceMath.getAmount0Delta(sqrtRatioCurrentX96, sqrtRatioNextX96, liquidity, false) */\n      jump\t// in\n    tag_473:\n        /* \"contracts/uniswap/libraries/SwapMath.sol\":3931:4079  max && !exactIn... */\n      jump(tag_474)\n    tag_472:\n        /* \"contracts/uniswap/libraries/SwapMath.sol\":3965:3974  amountOut */\n      dup5\n        /* \"contracts/uniswap/libraries/SwapMath.sol\":3931:4079  max && !exactIn... */\n    tag_474:\n        /* \"contracts/uniswap/libraries/SwapMath.sol\":3919:4079  amountOut = max && !exactIn... */\n      swap5\n      pop\n        /* \"contracts/uniswap/libraries/SwapMath.sol\":3358:4090  if (zeroForOne) {... */\n    tag_466:\n        /* \"contracts/uniswap/libraries/SwapMath.sol\":4180:4187  exactIn */\n      dup2\n        /* \"contracts/uniswap/libraries/SwapMath.sol\":4179:4187  !exactIn */\n      iszero\n        /* \"contracts/uniswap/libraries/SwapMath.sol\":4179:4228  !exactIn && amountOut > uint256(-amountRemaining) */\n      dup1\n      iszero\n      tag_475\n      jumpi\n      pop\n        /* \"contracts/uniswap/libraries/SwapMath.sol\":4212:4227  amountRemaining */\n      dup9\n        /* \"contracts/uniswap/libraries/SwapMath.sol\":4211:4227  -amountRemaining */\n      0x00\n      sub\n        /* \"contracts/uniswap/libraries/SwapMath.sol\":4191:4200  amountOut */\n      dup6\n        /* \"contracts/uniswap/libraries/SwapMath.sol\":4191:4228  amountOut > uint256(-amountRemaining) */\n      gt\n        /* \"contracts/uniswap/libraries/SwapMath.sol\":4179:4228  !exactIn && amountOut > uint256(-amountRemaining) */\n    tag_475:\n        /* \"contracts/uniswap/libraries/SwapMath.sol\":4175:4292  if (!exactIn && amountOut > uint256(-amountRemaining)) {... */\n      iszero\n      tag_476\n      jumpi\n        /* \"contracts/uniswap/libraries/SwapMath.sol\":4265:4280  amountRemaining */\n      dup9\n        /* \"contracts/uniswap/libraries/SwapMath.sol\":4264:4280  -amountRemaining */\n      0x00\n      sub\n        /* \"contracts/uniswap/libraries/SwapMath.sol\":4244:4281  amountOut = uint256(-amountRemaining) */\n      swap5\n      pop\n        /* \"contracts/uniswap/libraries/SwapMath.sol\":4175:4292  if (!exactIn && amountOut > uint256(-amountRemaining)) {... */\n    tag_476:\n        /* \"contracts/uniswap/libraries/SwapMath.sol\":4306:4313  exactIn */\n      dup2\n        /* \"contracts/uniswap/libraries/SwapMath.sol\":4306:4355  exactIn && sqrtRatioNextX96 != sqrtRatioTargetX96 */\n      dup1\n      iszero\n      tag_477\n      jumpi\n      pop\n        /* \"contracts/uniswap/libraries/SwapMath.sol\":4337:4355  sqrtRatioTargetX96 */\n      dup11\n      sub(shl(0xa0, 0x01), 0x01)\n        /* \"contracts/uniswap/libraries/SwapMath.sol\":4317:4355  sqrtRatioNextX96 != sqrtRatioTargetX96 */\n      and\n        /* \"contracts/uniswap/libraries/SwapMath.sol\":4317:4333  sqrtRatioNextX96 */\n      dup8\n      sub(shl(0xa0, 0x01), 0x01)\n        /* \"contracts/uniswap/libraries/SwapMath.sol\":4317:4355  sqrtRatioNextX96 != sqrtRatioTargetX96 */\n      and\n      eq\n      iszero\n        /* \"contracts/uniswap/libraries/SwapMath.sol\":4306:4355  exactIn && sqrtRatioNextX96 != sqrtRatioTargetX96 */\n    tag_477:\n        /* \"contracts/uniswap/libraries/SwapMath.sol\":4302:4624  if (exactIn && sqrtRatioNextX96 != sqrtRatioTargetX96) {... */\n      iszero\n      tag_478\n      jumpi\n        /* \"contracts/uniswap/libraries/SwapMath.sol\":4503:4511  amountIn */\n      dup6\n        /* \"contracts/uniswap/libraries/SwapMath.sol\":4484:4499  amountRemaining */\n      dup10\n        /* \"contracts/uniswap/libraries/SwapMath.sol\":4476:4511  uint256(amountRemaining) - amountIn */\n      sub\n        /* \"contracts/uniswap/libraries/SwapMath.sol\":4464:4511  feeAmount = uint256(amountRemaining) - amountIn */\n      swap4\n      pop\n        /* \"contracts/uniswap/libraries/SwapMath.sol\":4302:4624  if (exactIn && sqrtRatioNextX96 != sqrtRatioTargetX96) {... */\n      jump(tag_479)\n    tag_478:\n        /* \"contracts/uniswap/libraries/SwapMath.sol\":4554:4613  FullMath.mulDivRoundingUp(amountIn, feePips, 1e6 - feePips) */\n      tag_480\n        /* \"contracts/uniswap/libraries/SwapMath.sol\":4580:4588  amountIn */\n      dup7\n        /* \"contracts/uniswap/libraries/SwapMath.sol\":4590:4597  feePips */\n      dup10\n        /* \"contracts/uniswap/libraries/SwapMath.sol\":4554:4613  FullMath.mulDivRoundingUp(amountIn, feePips, 1e6 - feePips) */\n      0xffffff\n      and\n        /* \"contracts/uniswap/libraries/SwapMath.sol\":4605:4612  feePips */\n      dup11\n        /* \"contracts/uniswap/libraries/SwapMath.sol\":4599:4602  1e6 */\n      0x0f4240\n        /* \"contracts/uniswap/libraries/SwapMath.sol\":4599:4612  1e6 - feePips */\n      sub\n        /* \"contracts/uniswap/libraries/SwapMath.sol\":4554:4613  FullMath.mulDivRoundingUp(amountIn, feePips, 1e6 - feePips) */\n      0xffffff\n      and\n        /* \"contracts/uniswap/libraries/SwapMath.sol\":4554:4579  FullMath.mulDivRoundingUp */\n      tag_269\n        /* \"contracts/uniswap/libraries/SwapMath.sol\":4554:4613  FullMath.mulDivRoundingUp(amountIn, feePips, 1e6 - feePips) */\n      jump\t// in\n    tag_480:\n        /* \"contracts/uniswap/libraries/SwapMath.sol\":4542:4613  feeAmount = FullMath.mulDivRoundingUp(amountIn, feePips, 1e6 - feePips) */\n      swap4\n      pop\n        /* \"contracts/uniswap/libraries/SwapMath.sol\":4302:4624  if (exactIn && sqrtRatioNextX96 != sqrtRatioTargetX96) {... */\n    tag_479:\n        /* \"contracts/uniswap/libraries/SwapMath.sol\":1391:4630  function computeSwapStep(... */\n      pop\n      pop\n      pop\n      swap6\n      pop\n      swap6\n      pop\n      swap6\n      pop\n      swap6\n      swap2\n      pop\n      pop\n      jump\t// out\n        /* \"contracts/uniswap/libraries/SafeCast.sol\":924:1045  function toInt256(uint256 y) internal pure returns (int256 z) {... */\n    tag_160:\n        /* \"contracts/uniswap/libraries/SafeCast.sol\":976:984  int256 z */\n      0x00\n        /* \"contracts/uniswap/libraries/SafeCast.sol\":1008:1014  2**255 */\n      0x8000000000000000000000000000000000000000000000000000000000000000\n        /* \"contracts/uniswap/libraries/SafeCast.sol\":1004:1005  y */\n      dup3\n        /* \"contracts/uniswap/libraries/SafeCast.sol\":1004:1014  y < 2**255 */\n      lt\n        /* \"contracts/uniswap/libraries/SafeCast.sol\":996:1015  require(y < 2**255) */\n      tag_482\n      jumpi\n      0x00\n      dup1\n      revert\n    tag_482:\n      pop\n        /* \"contracts/uniswap/libraries/SafeCast.sol\":1036:1037  y */\n      swap1\n        /* \"contracts/uniswap/libraries/SafeCast.sol\":924:1045  function toInt256(uint256 y) internal pure returns (int256 z) {... */\n      jump\t// out\n        /* \"contracts/uniswap/libraries/LowGasSafeMath.sol\":1573:1693  function sub(int256 x, int256 y) internal pure returns (int256 z) {... */\n    tag_163:\n        /* \"contracts/uniswap/libraries/LowGasSafeMath.sol\":1662:1667  x - y */\n      dup1\n      dup3\n      sub\n        /* \"contracts/uniswap/libraries/LowGasSafeMath.sol\":1657:1673  (z = x - y) <= x */\n      dup3\n      dup2\n      sgt\n      iszero\n        /* \"contracts/uniswap/libraries/LowGasSafeMath.sol\":1629:1637  int256 z */\n      0x00\n        /* \"contracts/uniswap/libraries/LowGasSafeMath.sol\":1678:1684  y >= 0 */\n      dup4\n      slt\n      iszero\n        /* \"contracts/uniswap/libraries/LowGasSafeMath.sol\":1657:1685  (z = x - y) <= x == (y >= 0) */\n      eq\n        /* \"contracts/uniswap/libraries/LowGasSafeMath.sol\":1649:1686  require((z = x - y) <= x == (y >= 0)) */\n      tag_484\n      jumpi\n      0x00\n      dup1\n      revert\n    tag_484:\n        /* \"contracts/uniswap/libraries/LowGasSafeMath.sol\":1573:1693  function sub(int256 x, int256 y) internal pure returns (int256 z) {... */\n      swap3\n      swap2\n      pop\n      pop\n      jump\t// out\n        /* \"contracts/uniswap/libraries/LowGasSafeMath.sol\":1276:1396  function add(int256 x, int256 y) internal pure returns (int256 z) {... */\n    tag_168:\n        /* \"contracts/uniswap/libraries/LowGasSafeMath.sol\":1365:1370  x + y */\n      dup2\n      dup2\n      add\n        /* \"contracts/uniswap/libraries/LowGasSafeMath.sol\":1360:1376  (z = x + y) >= x */\n      dup3\n      dup2\n      slt\n      iszero\n        /* \"contracts/uniswap/libraries/LowGasSafeMath.sol\":1332:1340  int256 z */\n      0x00\n        /* \"contracts/uniswap/libraries/LowGasSafeMath.sol\":1381:1387  y >= 0 */\n      dup4\n      slt\n      iszero\n        /* \"contracts/uniswap/libraries/LowGasSafeMath.sol\":1360:1388  (z = x + y) >= x == (y >= 0) */\n      eq\n        /* \"contracts/uniswap/libraries/LowGasSafeMath.sol\":1352:1389  require((z = x + y) >= x == (y >= 0)) */\n      tag_484\n      jumpi\n      0x00\n      dup1\n      revert\n        /* \"contracts/uniswap/libraries/FullMath.sol\":749:4525  function mulDiv(... */\n    tag_173:\n        /* \"contracts/uniswap/libraries/FullMath.sol\":861:875  uint256 result */\n      0x00\n      dup1\n      dup1\n        /* \"contracts/uniswap/libraries/FullMath.sol\":1371:1377  not(0) */\n      0xffffffffffffffffffffffffffffffffffffffffffffffffffffffffffffffff\n        /* \"contracts/uniswap/libraries/FullMath.sol\":1368:1369  b */\n      dup6\n        /* \"contracts/uniswap/libraries/FullMath.sol\":1365:1366  a */\n      dup8\n        /* \"contracts/uniswap/libraries/FullMath.sol\":1358:1378  mulmod(a, b, not(0)) */\n      mulmod\n        /* \"contracts/uniswap/libraries/FullMath.sol\":1400:1409  mul(a, b) */\n      dup7\n      dup7\n      mul\n      swap3\n      pop\n        /* \"contracts/uniswap/libraries/FullMath.sol\":1451:1464  lt(mm, prod0) */\n      dup3\n      dup2\n      lt\n        /* \"contracts/uniswap/libraries/FullMath.sol\":1435:1449  sub(mm, prod0) */\n      swap1\n      dup4\n      swap1\n      sub\n        /* \"contracts/uniswap/libraries/FullMath.sol\":1431:1465  sub(sub(mm, prod0), lt(mm, prod0)) */\n      sub\n      swap1\n      pop\n        /* \"contracts/uniswap/libraries/FullMath.sol\":1547:1557  prod1 == 0 */\n      dup1\n        /* \"contracts/uniswap/libraries/FullMath.sol\":1543:1722  if (prod1 == 0) {... */\n      tag_488\n      jumpi\n        /* \"contracts/uniswap/libraries/FullMath.sol\":1595:1596  0 */\n      0x00\n        /* \"contracts/uniswap/libraries/FullMath.sol\":1581:1592  denominator */\n      dup5\n        /* \"contracts/uniswap/libraries/FullMath.sol\":1581:1596  denominator > 0 */\n      gt\n        /* \"contracts/uniswap/libraries/FullMath.sol\":1573:1597  require(denominator > 0) */\n      tag_489\n      jumpi\n      0x00\n      dup1\n      revert\n    tag_489:\n      pop\n        /* \"contracts/uniswap/libraries/FullMath.sol\":1648:1671  div(prod0, denominator) */\n      dup3\n      swap1\n      div\n      swap1\n      pop\n        /* \"contracts/uniswap/libraries/FullMath.sol\":1698:1711  return result */\n      jump(tag_487)\n        /* \"contracts/uniswap/libraries/FullMath.sol\":1543:1722  if (prod1 == 0) {... */\n    tag_488:\n        /* \"contracts/uniswap/libraries/FullMath.sol\":1849:1854  prod1 */\n      dup1\n        /* \"contracts/uniswap/libraries/FullMath.sol\":1835:1846  denominator */\n      dup5\n        /* \"contracts/uniswap/libraries/FullMath.sol\":1835:1854  denominator > prod1 */\n      gt\n        /* \"contracts/uniswap/libraries/FullMath.sol\":1827:1855  require(denominator > prod1) */\n      tag_490\n      jumpi\n      0x00\n      dup1\n      revert\n    tag_490:\n        /* \"contracts/uniswap/libraries/FullMath.sol\":2132:2149  uint256 remainder */\n      0x00\n        /* \"contracts/uniswap/libraries/FullMath.sol\":2208:2219  denominator */\n      dup5\n        /* \"contracts/uniswap/libraries/FullMath.sol\":2205:2206  b */\n      dup7\n        /* \"contracts/uniswap/libraries/FullMath.sol\":2202:2203  a */\n      dup9\n        /* \"contracts/uniswap/libraries/FullMath.sol\":2195:2220  mulmod(a, b, denominator) */\n      mulmod\n        /* \"contracts/uniswap/libraries/FullMath.sol\":2560:2572  uint256 twos */\n      0x00\n        /* \"contracts/uniswap/libraries/FullMath.sol\":2575:2587  -denominator */\n      dup7\n      dup2\n      sub\n        /* \"contracts/uniswap/libraries/FullMath.sol\":2575:2601  -denominator & denominator */\n      dup8\n      and\n        /* \"contracts/uniswap/libraries/FullMath.sol\":2695:2717  div(denominator, twos) */\n      swap7\n      dup8\n      swap1\n      div\n      swap7\n        /* \"contracts/uniswap/libraries/FullMath.sol\":3498:3499  2 */\n      0x02\n        /* \"contracts/uniswap/libraries/FullMath.sol\":3479:3480  3 */\n      0x03\n        /* \"contracts/uniswap/libraries/FullMath.sol\":3479:3494  3 * denominator */\n      dup10\n      mul\n        /* \"contracts/uniswap/libraries/FullMath.sol\":3478:3499  (3 * denominator) ^ 2 */\n      dup2\n      xor\n        /* \"contracts/uniswap/libraries/FullMath.sol\":3725:3742  denominator * inv */\n      dup1\n      dup11\n      mul\n        /* \"contracts/uniswap/libraries/FullMath.sol\":3721:3742  2 - denominator * inv */\n      dup3\n      sub\n        /* \"contracts/uniswap/libraries/FullMath.sol\":3714:3742  inv *= 2 - denominator * inv */\n      mul\n        /* \"contracts/uniswap/libraries/FullMath.sol\":3783:3800  denominator * inv */\n      dup1\n      dup11\n      mul\n        /* \"contracts/uniswap/libraries/FullMath.sol\":3779:3800  2 - denominator * inv */\n      dup3\n      sub\n        /* \"contracts/uniswap/libraries/FullMath.sol\":3772:3800  inv *= 2 - denominator * inv */\n      mul\n        /* \"contracts/uniswap/libraries/FullMath.sol\":3842:3859  denominator * inv */\n      dup1\n      dup11\n      mul\n        /* \"contracts/uniswap/libraries/FullMath.sol\":3838:3859  2 - denominator * inv */\n      dup3\n      sub\n        /* \"contracts/uniswap/libraries/FullMath.sol\":3831:3859  inv *= 2 - denominator * inv */\n      mul\n        /* \"contracts/uniswap/libraries/FullMath.sol\":3901:3918  denominator * inv */\n      dup1\n      dup11\n      mul\n        /* \"contracts/uniswap/libraries/FullMath.sol\":3897:3918  2 - denominator * inv */\n      dup3\n      sub\n        /* \"contracts/uniswap/libraries/FullMath.sol\":3890:3918  inv *= 2 - denominator * inv */\n      mul\n        /* \"contracts/uniswap/libraries/FullMath.sol\":3960:3977  denominator * inv */\n      dup1\n      dup11\n      mul\n        /* \"contracts/uniswap/libraries/FullMath.sol\":3956:3977  2 - denominator * inv */\n      dup3\n      sub\n        /* \"contracts/uniswap/libraries/FullMath.sol\":3949:3977  inv *= 2 - denominator * inv */\n      mul\n        /* \"contracts/uniswap/libraries/FullMath.sol\":4020:4037  denominator * inv */\n      dup1\n      dup11\n      mul\n        /* \"contracts/uniswap/libraries/FullMath.sol\":4016:4037  2 - denominator * inv */\n      swap1\n      swap2\n      sub\n        /* \"contracts/uniswap/libraries/FullMath.sol\":4009:4037  inv *= 2 - denominator * inv */\n      mul\n        /* \"contracts/uniswap/libraries/FullMath.sol\":3067:3079  sub(0, twos) */\n      swap2\n      dup2\n      swap1\n      sub\n        /* \"contracts/uniswap/libraries/FullMath.sol\":3063:3086  div(sub(0, twos), twos) */\n      dup2\n      swap1\n      div\n        /* \"contracts/uniswap/libraries/FullMath.sol\":3088:3089  1 */\n      0x01\n        /* \"contracts/uniswap/libraries/FullMath.sol\":3059:3090  add(div(sub(0, twos), twos), 1) */\n      add\n        /* \"contracts/uniswap/libraries/FullMath.sol\":2337:2357  gt(remainder, prod0) */\n      dup7\n      dup5\n      gt\n        /* \"contracts/uniswap/libraries/FullMath.sol\":2326:2358  sub(prod1, gt(remainder, prod0)) */\n      swap1\n      swap6\n      sub\n        /* \"contracts/uniswap/libraries/FullMath.sol\":3118:3130  prod1 * twos */\n      swap5\n      swap1\n      swap5\n      mul\n        /* \"contracts/uniswap/libraries/FullMath.sol\":2380:2401  sub(prod0, remainder) */\n      swap2\n      swap1\n      swap5\n      sub\n        /* \"contracts/uniswap/libraries/FullMath.sol\":2823:2839  div(prod0, twos) */\n      swap3\n      swap1\n      swap3\n      div\n        /* \"contracts/uniswap/libraries/FullMath.sol\":3109:3130  prod0 |= prod1 * twos */\n      swap2\n      swap1\n      swap2\n      or\n        /* \"contracts/uniswap/libraries/FullMath.sol\":4484:4495  prod0 * inv */\n      swap2\n      swap1\n      swap2\n      mul\n      swap2\n      pop\n      pop\n        /* \"contracts/uniswap/libraries/FullMath.sol\":749:4525  function mulDiv(... */\n    tag_487:\n      swap4\n      swap3\n      pop\n      pop\n      pop\n      jump\t// out\n        /* \"contracts/uniswap/libraries/Oracle.sol\":12653:14596  function observeSingle(... */\n    tag_178:\n        /* \"contracts/uniswap/libraries/Oracle.sol\":12891:12911  int56 tickCumulative */\n      0x00\n      dup1\n        /* \"contracts/uniswap/libraries/Oracle.sol\":12970:12985  secondsAgo == 0 */\n      0xffffffff\n      dup8\n      and\n        /* \"contracts/uniswap/libraries/Oracle.sol\":12966:13223  if (secondsAgo == 0) {... */\n      tag_492\n      jumpi\n        /* \"contracts/uniswap/libraries/Oracle.sol\":13001:13024  Observation memory last */\n      0x00\n        /* \"contracts/uniswap/libraries/Oracle.sol\":13027:13031  self */\n      dup10\n        /* \"contracts/uniswap/libraries/Oracle.sol\":13032:13037  index */\n      dup7\n        /* \"contracts/uniswap/libraries/Oracle.sol\":13027:13038  self[index] */\n      0xffff\n      and\n      0xffff\n      dup2\n      lt\n      tag_493\n      jumpi\n      invalid\n    tag_493:\n        /* \"contracts/uniswap/libraries/Oracle.sol\":13001:13038  Observation memory last = self[index] */\n      0x40\n      dup1\n      mload\n      0x80\n      dup2\n      add\n      dup3\n      mstore\n        /* \"contracts/uniswap/libraries/Oracle.sol\":13027:13038  self[index] */\n      swap2\n      swap1\n      swap3\n      add\n        /* \"contracts/uniswap/libraries/Oracle.sol\":13001:13038  Observation memory last = self[index] */\n      sload\n      0xffffffff\n      dup1\n      dup3\n      and\n      dup1\n      dup5\n      mstore\n      0x0100000000\n      dup4\n      div\n      0x06\n      swap1\n      dup2\n      signextend\n      dup2\n      signextend\n      swap1\n      signextend\n      0x20\n      dup6\n      add\n      mstore\n      0x010000000000000000000000\n      dup4\n      div\n      sub(shl(0xa0, 0x01), 0x01)\n      and\n      swap5\n      dup5\n      add\n      swap5\n      swap1\n      swap5\n      mstore\n      0x0100000000000000000000000000000000000000000000000000000000000000\n      swap1\n      swap2\n      div\n      0xff\n      and\n      iszero\n      iszero\n      0x60\n      dup4\n      add\n      mstore\n      swap1\n      swap3\n      pop\n        /* \"contracts/uniswap/libraries/Oracle.sol\":13056:13083  last.blockTimestamp != time */\n      dup11\n      and\n      eq\n        /* \"contracts/uniswap/libraries/Oracle.sol\":13052:13130  if (last.blockTimestamp != time) last = transform(last, time, tick, liquidity) */\n      tag_495\n      jumpi\n        /* \"contracts/uniswap/libraries/Oracle.sol\":13092:13130  transform(last, time, tick, liquidity) */\n      tag_496\n        /* \"contracts/uniswap/libraries/Oracle.sol\":13102:13106  last */\n      dup2\n        /* \"contracts/uniswap/libraries/Oracle.sol\":13108:13112  time */\n      dup11\n        /* \"contracts/uniswap/libraries/Oracle.sol\":13114:13118  tick */\n      dup10\n        /* \"contracts/uniswap/libraries/Oracle.sol\":13120:13129  liquidity */\n      dup9\n        /* \"contracts/uniswap/libraries/Oracle.sol\":13092:13101  transform */\n      tag_497\n        /* \"contracts/uniswap/libraries/Oracle.sol\":13092:13130  transform(last, time, tick, liquidity) */\n      jump\t// in\n    tag_496:\n        /* \"contracts/uniswap/libraries/Oracle.sol\":13085:13130  last = transform(last, time, tick, liquidity) */\n      swap1\n      pop\n        /* \"contracts/uniswap/libraries/Oracle.sol\":13052:13130  if (last.blockTimestamp != time) last = transform(last, time, tick, liquidity) */\n    tag_495:\n        /* \"contracts/uniswap/libraries/Oracle.sol\":13152:13156  last */\n      dup1\n        /* \"contracts/uniswap/libraries/Oracle.sol\":13152:13171  last.tickCumulative */\n      0x20\n      add\n      mload\n        /* \"contracts/uniswap/libraries/Oracle.sol\":13173:13177  last */\n      dup2\n        /* \"contracts/uniswap/libraries/Oracle.sol\":13173:13211  last.secondsPerLiquidityCumulativeX128 */\n      0x40\n      add\n      mload\n        /* \"contracts/uniswap/libraries/Oracle.sol\":13144:13212  return (last.tickCumulative, last.secondsPerLiquidityCumulativeX128) */\n      swap3\n      pop\n      swap3\n      pop\n      pop\n      jump(tag_491)\n        /* \"contracts/uniswap/libraries/Oracle.sol\":12966:13223  if (secondsAgo == 0) {... */\n    tag_492:\n        /* \"contracts/uniswap/libraries/Oracle.sol\":13249:13266  time - secondsAgo */\n      dup7\n      dup9\n      sub\n        /* \"contracts/uniswap/libraries/Oracle.sol\":13233:13246  uint32 target */\n      0x00\n      dup1\n        /* \"contracts/uniswap/libraries/Oracle.sol\":13353:13436  getSurroundingObservations(self, time, target, tick, index, liquidity, cardinality) */\n      tag_498\n        /* \"contracts/uniswap/libraries/Oracle.sol\":13380:13384  self */\n      dup13\n        /* \"contracts/uniswap/libraries/Oracle.sol\":13249:13253  time */\n      dup13\n        /* \"contracts/uniswap/libraries/Oracle.sol\":13249:13266  time - secondsAgo */\n      dup6\n        /* \"contracts/uniswap/libraries/Oracle.sol\":13400:13404  tick */\n      dup13\n        /* \"contracts/uniswap/libraries/Oracle.sol\":13406:13411  index */\n      dup13\n        /* \"contracts/uniswap/libraries/Oracle.sol\":13413:13422  liquidity */\n      dup13\n        /* \"contracts/uniswap/libraries/Oracle.sol\":13424:13435  cardinality */\n      dup13\n        /* \"contracts/uniswap/libraries/Oracle.sol\":13353:13379  getSurroundingObservations */\n      tag_499\n        /* \"contracts/uniswap/libraries/Oracle.sol\":13353:13436  getSurroundingObservations(self, time, target, tick, index, liquidity, cardinality) */\n      jump\t// in\n    tag_498:\n        /* \"contracts/uniswap/libraries/Oracle.sol\":13277:13436  (Observation memory beforeOrAt, Observation memory atOrAfter) =... */\n      swap2\n      pop\n      swap2\n      pop\n        /* \"contracts/uniswap/libraries/Oracle.sol\":13461:13471  beforeOrAt */\n      dup2\n        /* \"contracts/uniswap/libraries/Oracle.sol\":13461:13486  beforeOrAt.blockTimestamp */\n      0x00\n      add\n      mload\n        /* \"contracts/uniswap/libraries/Oracle.sol\":13451:13486  target == beforeOrAt.blockTimestamp */\n      0xffffffff\n      and\n        /* \"contracts/uniswap/libraries/Oracle.sol\":13451:13457  target */\n      dup4\n        /* \"contracts/uniswap/libraries/Oracle.sol\":13451:13486  target == beforeOrAt.blockTimestamp */\n      0xffffffff\n      and\n      eq\n        /* \"contracts/uniswap/libraries/Oracle.sol\":13447:14590  if (target == beforeOrAt.blockTimestamp) {... */\n      iszero\n      tag_500\n      jumpi\n        /* \"contracts/uniswap/libraries/Oracle.sol\":13552:13562  beforeOrAt */\n      dup2\n        /* \"contracts/uniswap/libraries/Oracle.sol\":13552:13577  beforeOrAt.tickCumulative */\n      0x20\n      add\n      mload\n        /* \"contracts/uniswap/libraries/Oracle.sol\":13579:13589  beforeOrAt */\n      dup3\n        /* \"contracts/uniswap/libraries/Oracle.sol\":13579:13623  beforeOrAt.secondsPerLiquidityCumulativeX128 */\n      0x40\n      add\n      mload\n        /* \"contracts/uniswap/libraries/Oracle.sol\":13544:13624  return (beforeOrAt.tickCumulative, beforeOrAt.secondsPerLiquidityCumulativeX128) */\n      swap5\n      pop\n      swap5\n      pop\n      pop\n      pop\n      pop\n      jump(tag_491)\n        /* \"contracts/uniswap/libraries/Oracle.sol\":13447:14590  if (target == beforeOrAt.blockTimestamp) {... */\n    tag_500:\n        /* \"contracts/uniswap/libraries/Oracle.sol\":13655:13679  atOrAfter.blockTimestamp */\n      dup1\n      mload\n        /* \"contracts/uniswap/libraries/Oracle.sol\":13645:13679  target == atOrAfter.blockTimestamp */\n      0xffffffff\n      dup5\n      dup2\n      and\n      swap2\n      and\n      eq\n        /* \"contracts/uniswap/libraries/Oracle.sol\":13641:14590  if (target == atOrAfter.blockTimestamp) {... */\n      iszero\n      tag_502\n      jumpi\n        /* \"contracts/uniswap/libraries/Oracle.sol\":13746:13755  atOrAfter */\n      dup1\n        /* \"contracts/uniswap/libraries/Oracle.sol\":13746:13770  atOrAfter.tickCumulative */\n      0x20\n      add\n      mload\n        /* \"contracts/uniswap/libraries/Oracle.sol\":13772:13781  atOrAfter */\n      dup2\n        /* \"contracts/uniswap/libraries/Oracle.sol\":13772:13815  atOrAfter.secondsPerLiquidityCumulativeX128 */\n      0x40\n      add\n      mload\n        /* \"contracts/uniswap/libraries/Oracle.sol\":13738:13816  return (atOrAfter.tickCumulative, atOrAfter.secondsPerLiquidityCumulativeX128) */\n      swap5\n      pop\n      swap5\n      pop\n      pop\n      pop\n      pop\n      jump(tag_491)\n        /* \"contracts/uniswap/libraries/Oracle.sol\":13641:14590  if (target == atOrAfter.blockTimestamp) {... */\n    tag_502:\n        /* \"contracts/uniswap/libraries/Oracle.sol\":13939:13964  beforeOrAt.blockTimestamp */\n      dup2\n      mload\n        /* \"contracts/uniswap/libraries/Oracle.sol\":13912:13936  atOrAfter.blockTimestamp */\n      dup2\n      mload\n        /* \"contracts/uniswap/libraries/Oracle.sol\":14149:14174  beforeOrAt.tickCumulative */\n      0x20\n      dup1\n      dup6\n      add\n      mload\n        /* \"contracts/uniswap/libraries/Oracle.sol\":14122:14146  atOrAfter.tickCumulative */\n      swap1\n      dup5\n      add\n      mload\n        /* \"contracts/uniswap/libraries/Oracle.sol\":13912:13964  atOrAfter.blockTimestamp - beforeOrAt.blockTimestamp */\n      swap2\n      dup4\n      swap1\n      sub\n      swap3\n        /* \"contracts/uniswap/libraries/Oracle.sol\":13999:14033  target - beforeOrAt.blockTimestamp */\n      dup7\n      sub\n      swap2\n        /* \"contracts/uniswap/libraries/Oracle.sol\":14120:14233  ((atOrAfter.tickCumulative - beforeOrAt.tickCumulative) / observationTimeDelta) *... */\n      0xffffffff\n      dup1\n      dup5\n      and\n      swap3\n        /* \"contracts/uniswap/libraries/Oracle.sol\":14121:14198  (atOrAfter.tickCumulative - beforeOrAt.tickCumulative) / observationTimeDelta */\n      swap1\n      dup6\n      and\n      swap2\n        /* \"contracts/uniswap/libraries/Oracle.sol\":14122:14174  atOrAfter.tickCumulative - beforeOrAt.tickCumulative */\n      sub\n        /* \"contracts/uniswap/libraries/Oracle.sol\":14121:14198  (atOrAfter.tickCumulative - beforeOrAt.tickCumulative) / observationTimeDelta */\n      0x06\n      signextend\n      dup2\n      tag_504\n      jumpi\n      invalid\n    tag_504:\n      sdiv\n        /* \"contracts/uniswap/libraries/Oracle.sol\":14120:14233  ((atOrAfter.tickCumulative - beforeOrAt.tickCumulative) / observationTimeDelta) *... */\n      mul\n        /* \"contracts/uniswap/libraries/Oracle.sol\":14072:14082  beforeOrAt */\n      dup5\n        /* \"contracts/uniswap/libraries/Oracle.sol\":14072:14097  beforeOrAt.tickCumulative */\n      0x20\n      add\n      mload\n        /* \"contracts/uniswap/libraries/Oracle.sol\":14072:14233  beforeOrAt.tickCumulative +... */\n      add\n        /* \"contracts/uniswap/libraries/Oracle.sol\":14523:14543  observationTimeDelta */\n      dup3\n        /* \"contracts/uniswap/libraries/Oracle.sol\":14351:14543  (uint256(... */\n      0xffffffff\n      and\n        /* \"contracts/uniswap/libraries/Oracle.sol\":14508:14519  targetDelta */\n      dup3\n        /* \"contracts/uniswap/libraries/Oracle.sol\":14352:14519  uint256(... */\n      0xffffffff\n      and\n        /* \"contracts/uniswap/libraries/Oracle.sol\":14435:14445  beforeOrAt */\n      dup7\n        /* \"contracts/uniswap/libraries/Oracle.sol\":14435:14479  beforeOrAt.secondsPerLiquidityCumulativeX128 */\n      0x40\n      add\n      mload\n        /* \"contracts/uniswap/libraries/Oracle.sol\":14389:14398  atOrAfter */\n      dup7\n        /* \"contracts/uniswap/libraries/Oracle.sol\":14389:14432  atOrAfter.secondsPerLiquidityCumulativeX128 */\n      0x40\n      add\n      mload\n        /* \"contracts/uniswap/libraries/Oracle.sol\":14389:14479  atOrAfter.secondsPerLiquidityCumulativeX128 - beforeOrAt.secondsPerLiquidityCumulativeX128 */\n      sub\n      sub(shl(0xa0, 0x01), 0x01)\n        /* \"contracts/uniswap/libraries/Oracle.sol\":14352:14505  uint256(... */\n      and\n        /* \"contracts/uniswap/libraries/Oracle.sol\":14352:14519  uint256(... */\n      mul\n        /* \"contracts/uniswap/libraries/Oracle.sol\":14351:14543  (uint256(... */\n      dup2\n      tag_505\n      jumpi\n      invalid\n    tag_505:\n      div\n        /* \"contracts/uniswap/libraries/Oracle.sol\":14251:14261  beforeOrAt */\n      dup6\n        /* \"contracts/uniswap/libraries/Oracle.sol\":14251:14295  beforeOrAt.secondsPerLiquidityCumulativeX128 */\n      0x40\n      add\n      mload\n        /* \"contracts/uniswap/libraries/Oracle.sol\":14251:14565  beforeOrAt.secondsPerLiquidityCumulativeX128 +... */\n      add\n        /* \"contracts/uniswap/libraries/Oracle.sol\":14047:14579  return (... */\n      swap7\n      pop\n      swap7\n      pop\n      pop\n      pop\n      pop\n      pop\n      pop\n        /* \"contracts/uniswap/libraries/Oracle.sol\":12653:14596  function observeSingle(... */\n    tag_491:\n      swap8\n      pop\n      swap8\n      swap6\n      pop\n      pop\n      pop\n      pop\n      pop\n      pop\n      jump\t// out\n        /* \"contracts/uniswap/libraries/Tick.sol\":8868:9705  function cross(... */\n    tag_184:\n        /* \"contracts/uniswap/libraries/Tick.sol\":9211:9221  self[tick] */\n      0x02\n      swap6\n      dup7\n      signextend\n      dup7\n      signextend\n        /* \"contracts/uniswap/libraries/Tick.sol\":9155:9174  int128 liquidityNet */\n      0x00\n        /* \"contracts/uniswap/libraries/Tick.sol\":9211:9221  self[tick] */\n      swap1\n      dup2\n      mstore\n      0x20\n      swap8\n      swap1\n      swap8\n      mstore\n      0x40\n      swap1\n      swap7\n      keccak256\n        /* \"contracts/uniswap/libraries/Tick.sol\":9283:9309  info.feeGrowthOutside0X128 */\n      0x01\n      dup2\n      add\n      dup1\n      sload\n        /* \"contracts/uniswap/libraries/Tick.sol\":9260:9309  feeGrowthGlobal0X128 - info.feeGrowthOutside0X128 */\n      swap1\n      swap6\n      sub\n        /* \"contracts/uniswap/libraries/Tick.sol\":9231:9309  info.feeGrowthOutside0X128 = feeGrowthGlobal0X128 - info.feeGrowthOutside0X128 */\n      swap1\n      swap5\n      sstore\n        /* \"contracts/uniswap/libraries/Tick.sol\":9371:9397  info.feeGrowthOutside1X128 */\n      swap4\n      dup4\n      add\n      dup1\n      sload\n        /* \"contracts/uniswap/libraries/Tick.sol\":9348:9397  feeGrowthGlobal1X128 - info.feeGrowthOutside1X128 */\n      swap1\n      swap3\n      sub\n        /* \"contracts/uniswap/libraries/Tick.sol\":9319:9397  info.feeGrowthOutside1X128 = feeGrowthGlobal1X128 - info.feeGrowthOutside1X128 */\n      swap1\n      swap2\n      sstore\n        /* \"contracts/uniswap/libraries/Tick.sol\":9481:9516  info.secondsPerLiquidityOutsideX128 */\n      0x03\n      dup3\n      add\n      dup1\n      sload\n        /* \"contracts/uniswap/libraries/Tick.sol\":9637:9656  info.secondsOutside */\n      0xffffffff\n      0x01000000000000000000000000000000000000000000000000000000\n      sub(shl(0xa0, 0x01), 0x01)\n        /* \"contracts/uniswap/libraries/Tick.sol\":9481:9516  info.secondsPerLiquidityOutsideX128 */\n      0x0100000000000000\n      dup1\n      dup6\n      div\n      dup3\n      and\n        /* \"contracts/uniswap/libraries/Tick.sol\":9445:9516  secondsPerLiquidityCumulativeX128 - info.secondsPerLiquidityOutsideX128 */\n      swap1\n      swap7\n      sub\n        /* \"contracts/uniswap/libraries/Tick.sol\":9407:9516  info.secondsPerLiquidityOutsideX128 = secondsPerLiquidityCumulativeX128 - info.secondsPerLiquidityOutsideX128 */\n      and\n      swap1\n      swap5\n      mul\n      0xffffffffff0000000000000000000000000000000000000000ffffffffffffff\n      swap1\n      swap3\n      and\n      swap2\n      swap1\n      swap2\n      or\n        /* \"contracts/uniswap/libraries/Tick.sol\":9572:9598  info.tickCumulativeOutside */\n      0x06\n      dup2\n      dup2\n      signextend\n        /* \"contracts/uniswap/libraries/Tick.sol\":9555:9598  tickCumulative - info.tickCumulativeOutside */\n      swap1\n      swap7\n      sub\n        /* \"contracts/uniswap/libraries/Tick.sol\":9526:9598  info.tickCumulativeOutside = tickCumulative - info.tickCumulativeOutside */\n      swap1\n      swap6\n      signextend\n      0xffffffffffffff\n      and\n      0xffffffffffffffffffffffffffffffffffffffffffffffffff00000000000000\n      swap1\n      swap6\n      and\n      swap5\n      swap1\n      swap5\n      or\n        /* \"contracts/uniswap/libraries/Tick.sol\":9637:9656  info.secondsOutside */\n      dup3\n      dup2\n      div\n      dup6\n      and\n        /* \"contracts/uniswap/libraries/Tick.sol\":9630:9656  time - info.secondsOutside */\n      swap1\n      swap6\n      sub\n        /* \"contracts/uniswap/libraries/Tick.sol\":9608:9656  info.secondsOutside = time - info.secondsOutside */\n      swap1\n      swap4\n      and\n      mul\n      0xff00000000ffffffffffffffffffffffffffffffffffffffffffffffffffffff\n      swap1\n      swap4\n      and\n      swap3\n      swap1\n      swap3\n      or\n      swap1\n      sstore\n        /* \"contracts/uniswap/libraries/Tick.sol\":9681:9698  info.liquidityNet */\n      sload\n      0x0100000000000000000000000000000000\n      swap1\n      div\n      0x0f\n      signextend\n      swap1\n        /* \"contracts/uniswap/libraries/Tick.sol\":8868:9705  function cross(... */\n      jump\t// out\n        /* \"contracts/uniswap/libraries/LiquidityMath.sol\":383:619  function addDelta(uint128 x, int128 y) internal pure returns (uint128 z) {... */\n    tag_187:\n        /* \"contracts/uniswap/libraries/LiquidityMath.sol\":445:454  uint128 z */\n      0x00\n        /* \"contracts/uniswap/libraries/LiquidityMath.sol\":474:475  0 */\n      dup1\n        /* \"contracts/uniswap/libraries/LiquidityMath.sol\":470:471  y */\n      dup3\n        /* \"contracts/uniswap/libraries/LiquidityMath.sol\":470:475  y < 0 */\n      0x0f\n      signextend\n      slt\n        /* \"contracts/uniswap/libraries/LiquidityMath.sol\":466:613  if (y < 0) {... */\n      iszero\n      tag_508\n      jumpi\n        /* \"contracts/uniswap/libraries/LiquidityMath.sol\":523:524  x */\n      dup3\n        /* \"contracts/uniswap/libraries/LiquidityMath.sol\":499:524  (z = x - uint128(-y)) < x */\n      0xffffffffffffffffffffffffffffffff\n      and\n        /* \"contracts/uniswap/libraries/LiquidityMath.sol\":517:518  y */\n      dup3\n        /* \"contracts/uniswap/libraries/LiquidityMath.sol\":516:518  -y */\n      0x00\n      sub\n        /* \"contracts/uniswap/libraries/LiquidityMath.sol\":504:505  x */\n      dup5\n        /* \"contracts/uniswap/libraries/LiquidityMath.sol\":504:519  x - uint128(-y) */\n      sub\n        /* \"contracts/uniswap/libraries/LiquidityMath.sol\":500:519  z = x - uint128(-y) */\n      swap2\n      pop\n      dup2\n        /* \"contracts/uniswap/libraries/LiquidityMath.sol\":499:524  (z = x - uint128(-y)) < x */\n      0xffffffffffffffffffffffffffffffff\n      and\n      lt\n        /* \"contracts/uniswap/libraries/LiquidityMath.sol\":491:531  require((z = x - uint128(-y)) < x, 'LS') */\n      tag_509\n      jumpi\n      0x00\n      dup1\n      revert\n    tag_509:\n        /* \"contracts/uniswap/libraries/LiquidityMath.sol\":466:613  if (y < 0) {... */\n      jump(tag_484)\n    tag_508:\n        /* \"contracts/uniswap/libraries/LiquidityMath.sol\":594:595  x */\n      dup3\n        /* \"contracts/uniswap/libraries/LiquidityMath.sol\":570:595  (z = x + uint128(y)) >= x */\n      0xffffffffffffffffffffffffffffffff\n      and\n        /* \"contracts/uniswap/libraries/LiquidityMath.sol\":587:588  y */\n      dup3\n        /* \"contracts/uniswap/libraries/LiquidityMath.sol\":575:576  x */\n      dup5\n        /* \"contracts/uniswap/libraries/LiquidityMath.sol\":575:589  x + uint128(y) */\n      add\n        /* \"contracts/uniswap/libraries/LiquidityMath.sol\":571:589  z = x + uint128(y) */\n      swap2\n      pop\n      dup2\n        /* \"contracts/uniswap/libraries/LiquidityMath.sol\":570:595  (z = x + uint128(y)) >= x */\n      0xffffffffffffffffffffffffffffffff\n      and\n      lt\n      iszero\n        /* \"contracts/uniswap/libraries/LiquidityMath.sol\":562:602  require((z = x + uint128(y)) >= x, 'LA') */\n      tag_484\n      jumpi\n      0x00\n      dup1\n      revert\n        /* \"contracts/uniswap/libraries/TickMath.sol\":4361:8642  function getTickAtSqrtRatio(uint160 sqrtPriceX96) internal pure returns (int24 tick) {... */\n    tag_193:\n        /* \"contracts/uniswap/libraries/TickMath.sol\":4434:4444  int24 tick */\n      0x00\n        /* \"contracts/uniswap/libraries/TickMath.sol\":824:834  4295128739 */\n      0x01000276a3\n      sub(shl(0xa0, 0x01), 0x01)\n        /* \"contracts/uniswap/libraries/TickMath.sol\":4563:4593  sqrtPriceX96 >= MIN_SQRT_RATIO */\n      dup4\n      and\n      lt\n      dup1\n      iszero\n      swap1\n        /* \"contracts/uniswap/libraries/TickMath.sol\":4563:4626  sqrtPriceX96 >= MIN_SQRT_RATIO && sqrtPriceX96 < MAX_SQRT_RATIO */\n      tag_513\n      jumpi\n      pop\n        /* \"contracts/uniswap/libraries/TickMath.sol\":1004:1053  1461446703485210103287273052203988822378723970342 */\n      0xfffd8963efd1fc6a506488495d951d5263988d26\n      sub(shl(0xa0, 0x01), 0x01)\n        /* \"contracts/uniswap/libraries/TickMath.sol\":4597:4626  sqrtPriceX96 < MAX_SQRT_RATIO */\n      dup4\n      and\n      lt\n        /* \"contracts/uniswap/libraries/TickMath.sol\":4563:4626  sqrtPriceX96 >= MIN_SQRT_RATIO && sqrtPriceX96 < MAX_SQRT_RATIO */\n    tag_513:\n        /* \"contracts/uniswap/libraries/TickMath.sol\":4555:4632  require(sqrtPriceX96 >= MIN_SQRT_RATIO && sqrtPriceX96 < MAX_SQRT_RATIO, 'R') */\n      tag_514\n      jumpi\n      0x00\n      dup1\n      revert\n    tag_514:\n        /* \"contracts/uniswap/libraries/TickMath.sol\":4658:4685  uint256(sqrtPriceX96) << 32 */\n      0xffffffffffffffffffffffffffffffffffffffff00000000\n        /* \"contracts/uniswap/libraries/TickMath.sol\":4683:4685  32 */\n      0x20\n        /* \"contracts/uniswap/libraries/TickMath.sol\":4658:4685  uint256(sqrtPriceX96) << 32 */\n      dup4\n      swap1\n      shl\n      and\n        /* \"contracts/uniswap/libraries/TickMath.sol\":4794:4828  0xFFFFFFFFFFFFFFFFFFFFFFFFFFFFFFFF */\n      0xffffffffffffffffffffffffffffffff\n        /* \"contracts/uniswap/libraries/TickMath.sol\":4788:4829  gt(r, 0xFFFFFFFFFFFFFFFFFFFFFFFFFFFFFFFF) */\n      dup2\n      gt\n        /* \"contracts/uniswap/libraries/TickMath.sol\":4785:4786  7 */\n      0x07\n        /* \"contracts/uniswap/libraries/TickMath.sol\":4781:4830  shl(7, gt(r, 0xFFFFFFFFFFFFFFFFFFFFFFFFFFFFFFFF)) */\n      shl\n        /* \"contracts/uniswap/libraries/TickMath.sol\":4878:4887  shr(f, r) */\n      dup2\n      dup2\n      shr\n        /* \"contracts/uniswap/libraries/TickMath.sol\":4951:4969  0xFFFFFFFFFFFFFFFF */\n      0xffffffffffffffff\n        /* \"contracts/uniswap/libraries/TickMath.sol\":4945:4970  gt(r, 0xFFFFFFFFFFFFFFFF) */\n      dup2\n      gt\n        /* \"contracts/uniswap/libraries/TickMath.sol\":4942:4943  6 */\n      0x06\n        /* \"contracts/uniswap/libraries/TickMath.sol\":4938:4971  shl(6, gt(r, 0xFFFFFFFFFFFFFFFF)) */\n      shl\n        /* \"contracts/uniswap/libraries/TickMath.sol\":5019:5028  shr(f, r) */\n      swap1\n      dup2\n      shr\n        /* \"contracts/uniswap/libraries/TickMath.sol\":5092:5102  0xFFFFFFFF */\n      0xffffffff\n        /* \"contracts/uniswap/libraries/TickMath.sol\":5086:5103  gt(r, 0xFFFFFFFF) */\n      dup2\n      gt\n        /* \"contracts/uniswap/libraries/TickMath.sol\":5083:5084  5 */\n      0x05\n        /* \"contracts/uniswap/libraries/TickMath.sol\":5079:5104  shl(5, gt(r, 0xFFFFFFFF)) */\n      shl\n        /* \"contracts/uniswap/libraries/TickMath.sol\":5152:5161  shr(f, r) */\n      swap1\n      dup2\n      shr\n        /* \"contracts/uniswap/libraries/TickMath.sol\":5225:5231  0xFFFF */\n      0xffff\n        /* \"contracts/uniswap/libraries/TickMath.sol\":5219:5232  gt(r, 0xFFFF) */\n      dup2\n      gt\n        /* \"contracts/uniswap/libraries/TickMath.sol\":5216:5217  4 */\n      0x04\n        /* \"contracts/uniswap/libraries/TickMath.sol\":5212:5233  shl(4, gt(r, 0xFFFF)) */\n      shl\n        /* \"contracts/uniswap/libraries/TickMath.sol\":5281:5290  shr(f, r) */\n      swap1\n      dup2\n      shr\n        /* \"contracts/uniswap/libraries/TickMath.sol\":5354:5358  0xFF */\n      0xff\n        /* \"contracts/uniswap/libraries/TickMath.sol\":5348:5359  gt(r, 0xFF) */\n      dup2\n      gt\n        /* \"contracts/uniswap/libraries/TickMath.sol\":5345:5346  3 */\n      0x03\n        /* \"contracts/uniswap/libraries/TickMath.sol\":5341:5360  shl(3, gt(r, 0xFF)) */\n      swap1\n      dup2\n      shl\n        /* \"contracts/uniswap/libraries/TickMath.sol\":5408:5417  shr(f, r) */\n      swap2\n      dup3\n      shr\n        /* \"contracts/uniswap/libraries/TickMath.sol\":5481:5484  0xF */\n      0x0f\n        /* \"contracts/uniswap/libraries/TickMath.sol\":5475:5485  gt(r, 0xF) */\n      dup2\n      gt\n        /* \"contracts/uniswap/libraries/TickMath.sol\":5472:5473  2 */\n      0x02\n        /* \"contracts/uniswap/libraries/TickMath.sol\":5468:5486  shl(2, gt(r, 0xF)) */\n      shl\n        /* \"contracts/uniswap/libraries/TickMath.sol\":5534:5543  shr(f, r) */\n      swap1\n      dup2\n      shr\n        /* \"contracts/uniswap/libraries/TickMath.sol\":5601:5611  gt(r, 0x3) */\n      swap2\n      dup3\n      gt\n        /* \"contracts/uniswap/libraries/TickMath.sol\":5598:5599  1 */\n      0x01\n        /* \"contracts/uniswap/libraries/TickMath.sol\":5594:5612  shl(1, gt(r, 0x3)) */\n      swap1\n      dup2\n      shl\n        /* \"contracts/uniswap/libraries/TickMath.sol\":5660:5669  shr(f, r) */\n      swap3\n      dup4\n      shr\n      swap8\n        /* \"contracts/uniswap/libraries/TickMath.sol\":5720:5730  gt(r, 0x1) */\n      swap1\n      dup9\n      gt\n        /* \"contracts/uniswap/libraries/TickMath.sol\":4991:5001  or(msb, f) */\n      swap7\n      or\n        /* \"contracts/uniswap/libraries/TickMath.sol\":5124:5134  or(msb, f) */\n      swap1\n      swap5\n      or\n        /* \"contracts/uniswap/libraries/TickMath.sol\":5253:5263  or(msb, f) */\n      swap1\n      swap3\n      or\n        /* \"contracts/uniswap/libraries/TickMath.sol\":5380:5390  or(msb, f) */\n      or\n        /* \"contracts/uniswap/libraries/TickMath.sol\":5506:5516  or(msb, f) */\n      swap1\n      swap2\n      or\n        /* \"contracts/uniswap/libraries/TickMath.sol\":5632:5642  or(msb, f) */\n      or\n        /* \"contracts/uniswap/libraries/TickMath.sol\":5750:5760  or(msb, f) */\n      or\n        /* \"contracts/uniswap/libraries/TickMath.sol\":5791:5794  128 */\n      0x80\n        /* \"contracts/uniswap/libraries/TickMath.sol\":5784:5794  msb >= 128 */\n      dup2\n      lt\n        /* \"contracts/uniswap/libraries/TickMath.sol\":5780:5859  if (msb >= 128) r = ratio >> (msb - 127);... */\n      tag_515\n      jumpi\n        /* \"contracts/uniswap/libraries/TickMath.sol\":5816:5819  127 */\n      0x7f\n        /* \"contracts/uniswap/libraries/TickMath.sol\":5810:5813  msb */\n      dup2\n        /* \"contracts/uniswap/libraries/TickMath.sol\":5810:5819  msb - 127 */\n      sub\n        /* \"contracts/uniswap/libraries/TickMath.sol\":5800:5805  ratio */\n      dup4\n        /* \"contracts/uniswap/libraries/TickMath.sol\":5800:5820  ratio >> (msb - 127) */\n      swap1\n      shr\n        /* \"contracts/uniswap/libraries/TickMath.sol\":5796:5820  r = ratio >> (msb - 127) */\n      swap2\n      pop\n        /* \"contracts/uniswap/libraries/TickMath.sol\":5780:5859  if (msb >= 128) r = ratio >> (msb - 127);... */\n      jump(tag_516)\n    tag_515:\n        /* \"contracts/uniswap/libraries/TickMath.sol\":5855:5858  msb */\n      dup1\n        /* \"contracts/uniswap/libraries/TickMath.sol\":5849:5852  127 */\n      0x7f\n        /* \"contracts/uniswap/libraries/TickMath.sol\":5849:5858  127 - msb */\n      sub\n        /* \"contracts/uniswap/libraries/TickMath.sol\":5839:5844  ratio */\n      dup4\n        /* \"contracts/uniswap/libraries/TickMath.sol\":5839:5859  ratio << (127 - msb) */\n      swap1\n      shl\n        /* \"contracts/uniswap/libraries/TickMath.sol\":5835:5859  r = ratio << (127 - msb) */\n      swap2\n      pop\n        /* \"contracts/uniswap/libraries/TickMath.sol\":5780:5859  if (msb >= 128) r = ratio >> (msb - 127);... */\n    tag_516:\n        /* \"contracts/uniswap/libraries/TickMath.sol\":5958:5967  mul(r, r) */\n      swap1\n      dup1\n      mul\n        /* \"contracts/uniswap/libraries/TickMath.sol\":5953:5956  127 */\n      0x7f\n        /* \"contracts/uniswap/libraries/TickMath.sol\":5949:5968  shr(127, mul(r, r)) */\n      dup2\n      dup2\n      shr\n        /* \"contracts/uniswap/libraries/TickMath.sol\":5990:6001  shr(128, r) */\n      0xff\n      dup4\n      dup2\n      shr\n        /* \"contracts/uniswap/libraries/TickMath.sol\":6062:6071  shr(f, r) */\n      swap2\n      swap1\n      swap2\n      shr\n        /* \"contracts/uniswap/libraries/TickMath.sol\":6127:6136  mul(r, r) */\n      dup1\n      mul\n        /* \"contracts/uniswap/libraries/TickMath.sol\":6118:6137  shr(127, mul(r, r)) */\n      dup1\n      dup4\n      shr\n        /* \"contracts/uniswap/libraries/TickMath.sol\":6159:6170  shr(128, r) */\n      dup2\n      dup4\n      shr\n        /* \"contracts/uniswap/libraries/TickMath.sol\":6231:6240  shr(f, r) */\n      shr\n        /* \"contracts/uniswap/libraries/TickMath.sol\":6296:6305  mul(r, r) */\n      dup1\n      mul\n        /* \"contracts/uniswap/libraries/TickMath.sol\":6287:6306  shr(127, mul(r, r)) */\n      dup1\n      dup5\n      shr\n        /* \"contracts/uniswap/libraries/TickMath.sol\":6328:6339  shr(128, r) */\n      dup2\n      dup5\n      shr\n        /* \"contracts/uniswap/libraries/TickMath.sol\":6400:6409  shr(f, r) */\n      shr\n        /* \"contracts/uniswap/libraries/TickMath.sol\":6465:6474  mul(r, r) */\n      dup1\n      mul\n        /* \"contracts/uniswap/libraries/TickMath.sol\":6456:6475  shr(127, mul(r, r)) */\n      dup1\n      dup6\n      shr\n        /* \"contracts/uniswap/libraries/TickMath.sol\":6497:6508  shr(128, r) */\n      dup2\n      dup6\n      shr\n        /* \"contracts/uniswap/libraries/TickMath.sol\":6569:6578  shr(f, r) */\n      shr\n        /* \"contracts/uniswap/libraries/TickMath.sol\":6634:6643  mul(r, r) */\n      dup1\n      mul\n        /* \"contracts/uniswap/libraries/TickMath.sol\":6625:6644  shr(127, mul(r, r)) */\n      dup1\n      dup7\n      shr\n        /* \"contracts/uniswap/libraries/TickMath.sol\":6666:6677  shr(128, r) */\n      dup2\n      dup7\n      shr\n        /* \"contracts/uniswap/libraries/TickMath.sol\":6738:6747  shr(f, r) */\n      shr\n        /* \"contracts/uniswap/libraries/TickMath.sol\":6803:6812  mul(r, r) */\n      dup1\n      mul\n        /* \"contracts/uniswap/libraries/TickMath.sol\":6794:6813  shr(127, mul(r, r)) */\n      dup1\n      dup8\n      shr\n        /* \"contracts/uniswap/libraries/TickMath.sol\":6835:6846  shr(128, r) */\n      dup2\n      dup8\n      shr\n        /* \"contracts/uniswap/libraries/TickMath.sol\":6907:6916  shr(f, r) */\n      shr\n        /* \"contracts/uniswap/libraries/TickMath.sol\":6972:6981  mul(r, r) */\n      dup1\n      mul\n        /* \"contracts/uniswap/libraries/TickMath.sol\":6963:6982  shr(127, mul(r, r)) */\n      dup1\n      dup9\n      shr\n        /* \"contracts/uniswap/libraries/TickMath.sol\":7004:7015  shr(128, r) */\n      dup2\n      dup9\n      shr\n        /* \"contracts/uniswap/libraries/TickMath.sol\":7076:7085  shr(f, r) */\n      shr\n        /* \"contracts/uniswap/libraries/TickMath.sol\":7141:7150  mul(r, r) */\n      dup1\n      mul\n        /* \"contracts/uniswap/libraries/TickMath.sol\":7132:7151  shr(127, mul(r, r)) */\n      dup1\n      dup10\n      shr\n        /* \"contracts/uniswap/libraries/TickMath.sol\":7173:7184  shr(128, r) */\n      dup2\n      dup10\n      shr\n        /* \"contracts/uniswap/libraries/TickMath.sol\":7245:7254  shr(f, r) */\n      shr\n        /* \"contracts/uniswap/libraries/TickMath.sol\":7310:7319  mul(r, r) */\n      dup1\n      mul\n        /* \"contracts/uniswap/libraries/TickMath.sol\":7301:7320  shr(127, mul(r, r)) */\n      dup1\n      dup11\n      shr\n        /* \"contracts/uniswap/libraries/TickMath.sol\":7342:7353  shr(128, r) */\n      dup2\n      dup11\n      shr\n        /* \"contracts/uniswap/libraries/TickMath.sol\":7414:7423  shr(f, r) */\n      shr\n        /* \"contracts/uniswap/libraries/TickMath.sol\":7479:7488  mul(r, r) */\n      dup1\n      mul\n        /* \"contracts/uniswap/libraries/TickMath.sol\":7470:7489  shr(127, mul(r, r)) */\n      dup1\n      dup12\n      shr\n        /* \"contracts/uniswap/libraries/TickMath.sol\":7511:7522  shr(128, r) */\n      dup2\n      dup12\n      shr\n        /* \"contracts/uniswap/libraries/TickMath.sol\":7583:7592  shr(f, r) */\n      shr\n        /* \"contracts/uniswap/libraries/TickMath.sol\":7648:7657  mul(r, r) */\n      dup1\n      mul\n        /* \"contracts/uniswap/libraries/TickMath.sol\":7639:7658  shr(127, mul(r, r)) */\n      dup1\n      dup13\n      shr\n        /* \"contracts/uniswap/libraries/TickMath.sol\":7680:7691  shr(128, r) */\n      dup2\n      dup13\n      shr\n        /* \"contracts/uniswap/libraries/TickMath.sol\":7752:7761  shr(f, r) */\n      shr\n        /* \"contracts/uniswap/libraries/TickMath.sol\":7817:7826  mul(r, r) */\n      dup1\n      mul\n        /* \"contracts/uniswap/libraries/TickMath.sol\":7808:7827  shr(127, mul(r, r)) */\n      dup1\n      dup14\n      shr\n        /* \"contracts/uniswap/libraries/TickMath.sol\":7849:7860  shr(128, r) */\n      dup2\n      dup14\n      shr\n        /* \"contracts/uniswap/libraries/TickMath.sol\":7921:7930  shr(f, r) */\n      shr\n        /* \"contracts/uniswap/libraries/TickMath.sol\":7986:7995  mul(r, r) */\n      dup1\n      mul\n        /* \"contracts/uniswap/libraries/TickMath.sol\":7977:7996  shr(127, mul(r, r)) */\n      dup1\n      dup15\n      shr\n        /* \"contracts/uniswap/libraries/TickMath.sol\":8018:8029  shr(128, r) */\n      swap13\n      dup2\n      swap1\n      shr\n        /* \"contracts/uniswap/libraries/TickMath.sol\":8090:8099  shr(f, r) */\n      swap13\n      swap1\n      swap13\n      shr\n        /* \"contracts/uniswap/libraries/TickMath.sol\":8155:8164  mul(r, r) */\n      dup1\n      mul\n        /* \"contracts/uniswap/libraries/TickMath.sol\":8146:8165  shr(127, mul(r, r)) */\n      swap13\n      dup14\n      swap1\n      shr\n      swap15\n        /* \"contracts/uniswap/libraries/TickMath.sol\":5958:5967  mul(r, r) */\n      swap14\n        /* \"contracts/uniswap/libraries/TickMath.sol\":5886:5903  int256(msb) - 128 */\n      0xffffffffffffffffffffffffffffffffffffffffffffffffffffffffffffff80\n      dup16\n      add\n        /* \"contracts/uniswap/libraries/TickMath.sol\":5908:5910  64 */\n      0x40\n        /* \"contracts/uniswap/libraries/TickMath.sol\":5885:5910  (int256(msb) - 128) << 64 */\n      shl\n        /* \"contracts/uniswap/libraries/TickMath.sol\":6033:6043  shl(63, f) */\n      0xc0\n      swap2\n      swap1\n      swap2\n      shr\n      0x8000000000000000\n      and\n        /* \"contracts/uniswap/libraries/TickMath.sol\":6023:6044  or(log_2, shl(63, f)) */\n      or\n        /* \"contracts/uniswap/libraries/TickMath.sol\":6202:6212  shl(62, f) */\n      0xc1\n      swap12\n      swap1\n      swap12\n      shr\n      0x4000000000000000\n      and\n        /* \"contracts/uniswap/libraries/TickMath.sol\":6192:6213  or(log_2, shl(62, f)) */\n      swap11\n      swap1\n      swap11\n      or\n        /* \"contracts/uniswap/libraries/TickMath.sol\":6371:6381  shl(61, f) */\n      0xc2\n      swap10\n      swap1\n      swap10\n      shr\n      0x2000000000000000\n      and\n        /* \"contracts/uniswap/libraries/TickMath.sol\":6361:6382  or(log_2, shl(61, f)) */\n      swap9\n      swap1\n      swap9\n      or\n        /* \"contracts/uniswap/libraries/TickMath.sol\":6540:6550  shl(60, f) */\n      0xc3\n      swap8\n      swap1\n      swap8\n      shr\n      0x1000000000000000\n      and\n        /* \"contracts/uniswap/libraries/TickMath.sol\":6530:6551  or(log_2, shl(60, f)) */\n      swap7\n      swap1\n      swap7\n      or\n        /* \"contracts/uniswap/libraries/TickMath.sol\":6709:6719  shl(59, f) */\n      0xc4\n      swap6\n      swap1\n      swap6\n      shr\n      0x0800000000000000\n      and\n        /* \"contracts/uniswap/libraries/TickMath.sol\":6699:6720  or(log_2, shl(59, f)) */\n      swap5\n      swap1\n      swap5\n      or\n        /* \"contracts/uniswap/libraries/TickMath.sol\":6878:6888  shl(58, f) */\n      0xc5\n      swap4\n      swap1\n      swap4\n      shr\n      0x0400000000000000\n      and\n        /* \"contracts/uniswap/libraries/TickMath.sol\":6868:6889  or(log_2, shl(58, f)) */\n      swap3\n      swap1\n      swap3\n      or\n        /* \"contracts/uniswap/libraries/TickMath.sol\":7047:7057  shl(57, f) */\n      0xc6\n      swap2\n      swap1\n      swap2\n      shr\n      0x0200000000000000\n      and\n        /* \"contracts/uniswap/libraries/TickMath.sol\":7037:7058  or(log_2, shl(57, f)) */\n      or\n        /* \"contracts/uniswap/libraries/TickMath.sol\":7216:7226  shl(56, f) */\n      0xc7\n      swap2\n      swap1\n      swap2\n      shr\n      0x0100000000000000\n      and\n        /* \"contracts/uniswap/libraries/TickMath.sol\":7206:7227  or(log_2, shl(56, f)) */\n      or\n        /* \"contracts/uniswap/libraries/TickMath.sol\":7385:7395  shl(55, f) */\n      0xc8\n      swap2\n      swap1\n      swap2\n      shr\n      0x80000000000000\n      and\n        /* \"contracts/uniswap/libraries/TickMath.sol\":7375:7396  or(log_2, shl(55, f)) */\n      or\n        /* \"contracts/uniswap/libraries/TickMath.sol\":7554:7564  shl(54, f) */\n      0xc9\n      swap2\n      swap1\n      swap2\n      shr\n      0x40000000000000\n      and\n        /* \"contracts/uniswap/libraries/TickMath.sol\":7544:7565  or(log_2, shl(54, f)) */\n      or\n        /* \"contracts/uniswap/libraries/TickMath.sol\":7723:7733  shl(53, f) */\n      0xca\n      swap2\n      swap1\n      swap2\n      shr\n      0x20000000000000\n      and\n        /* \"contracts/uniswap/libraries/TickMath.sol\":7713:7734  or(log_2, shl(53, f)) */\n      or\n        /* \"contracts/uniswap/libraries/TickMath.sol\":7892:7902  shl(52, f) */\n      0xcb\n      swap2\n      swap1\n      swap2\n      shr\n      0x10000000000000\n      and\n        /* \"contracts/uniswap/libraries/TickMath.sol\":7882:7903  or(log_2, shl(52, f)) */\n      or\n        /* \"contracts/uniswap/libraries/TickMath.sol\":8061:8071  shl(51, f) */\n      0xcc\n      swap2\n      swap1\n      swap2\n      shr\n      0x08000000000000\n      and\n        /* \"contracts/uniswap/libraries/TickMath.sol\":8051:8072  or(log_2, shl(51, f)) */\n      or\n        /* \"contracts/uniswap/libraries/TickMath.sol\":8230:8240  shl(50, f) */\n      0xcd\n      swap2\n      swap1\n      swap2\n      shr\n      0x04000000000000\n      and\n        /* \"contracts/uniswap/libraries/TickMath.sol\":8220:8241  or(log_2, shl(50, f)) */\n      or\n        /* \"contracts/uniswap/libraries/TickMath.sol\":8292:8316  255738958999603826347141 */\n      0x3627a301d71055774c85\n        /* \"contracts/uniswap/libraries/TickMath.sol\":8284:8316  log_2 * 255738958999603826347141 */\n      dup2\n      mul\n        /* \"contracts/uniswap/libraries/TickMath.sol\":8368:8421  log_sqrt10001 - 3402992956809132418596140100660247210 */\n      0xfffffffffffffffffffffffffffffffffd709b7e5480fba5a50fed5e62ffc556\n      dup2\n      add\n        /* \"contracts/uniswap/libraries/TickMath.sol\":5900:5903  128 */\n      0x80\n        /* \"contracts/uniswap/libraries/TickMath.sol\":8367:8429  (log_sqrt10001 - 3402992956809132418596140100660247210) >> 128 */\n      swap1\n      dup2\n      sar\n      swap1\n        /* \"contracts/uniswap/libraries/TickMath.sol\":8478:8517  291339464771989622907027621153398088495 */\n      0xdb2df09e81959a81455e260799a0632f\n        /* \"contracts/uniswap/libraries/TickMath.sol\":8462:8517  log_sqrt10001 + 291339464771989622907027621153398088495 */\n      dup4\n      add\n        /* \"contracts/uniswap/libraries/TickMath.sol\":8461:8525  (log_sqrt10001 + 291339464771989622907027621153398088495) >> 128 */\n      swap1\n      sar\n        /* \"contracts/uniswap/libraries/TickMath.sol\":8544:8561  tickLow == tickHi */\n      0x02\n      dup2\n      dup2\n      signextend\n      swap1\n      dup4\n      swap1\n      signextend\n      eq\n        /* \"contracts/uniswap/libraries/TickMath.sol\":8544:8635  tickLow == tickHi ? tickLow : getSqrtRatioAtTick(tickHi) <= sqrtPriceX96 ? tickHi : tickLow */\n      tag_517\n      jumpi\n        /* \"contracts/uniswap/libraries/TickMath.sol\":8604:8616  sqrtPriceX96 */\n      dup9\n      sub(shl(0xa0, 0x01), 0x01)\n        /* \"contracts/uniswap/libraries/TickMath.sol\":8574:8616  getSqrtRatioAtTick(tickHi) <= sqrtPriceX96 */\n      and\n        /* \"contracts/uniswap/libraries/TickMath.sol\":8574:8600  getSqrtRatioAtTick(tickHi) */\n      tag_518\n        /* \"contracts/uniswap/libraries/TickMath.sol\":8593:8599  tickHi */\n      dup3\n        /* \"contracts/uniswap/libraries/TickMath.sol\":8574:8592  getSqrtRatioAtTick */\n      tag_151\n        /* \"contracts/uniswap/libraries/TickMath.sol\":8574:8600  getSqrtRatioAtTick(tickHi) */\n      jump\t// in\n    tag_518:\n      sub(shl(0xa0, 0x01), 0x01)\n        /* \"contracts/uniswap/libraries/TickMath.sol\":8574:8616  getSqrtRatioAtTick(tickHi) <= sqrtPriceX96 */\n      and\n      gt\n      iszero\n        /* \"contracts/uniswap/libraries/TickMath.sol\":8574:8635  getSqrtRatioAtTick(tickHi) <= sqrtPriceX96 ? tickHi : tickLow */\n      tag_519\n      jumpi\n        /* \"contracts/uniswap/libraries/TickMath.sol\":8628:8635  tickLow */\n      dup2\n        /* \"contracts/uniswap/libraries/TickMath.sol\":8574:8635  getSqrtRatioAtTick(tickHi) <= sqrtPriceX96 ? tickHi : tickLow */\n      jump(tag_520)\n    tag_519:\n        /* \"contracts/uniswap/libraries/TickMath.sol\":8619:8625  tickHi */\n      dup1\n        /* \"contracts/uniswap/libraries/TickMath.sol\":8574:8635  getSqrtRatioAtTick(tickHi) <= sqrtPriceX96 ? tickHi : tickLow */\n    tag_520:\n        /* \"contracts/uniswap/libraries/TickMath.sol\":8544:8635  tickLow == tickHi ? tickLow : getSqrtRatioAtTick(tickHi) <= sqrtPriceX96 ? tickHi : tickLow */\n      jump(tag_521)\n    tag_517:\n        /* \"contracts/uniswap/libraries/TickMath.sol\":8564:8571  tickLow */\n      dup2\n        /* \"contracts/uniswap/libraries/TickMath.sol\":8544:8635  tickLow == tickHi ? tickLow : getSqrtRatioAtTick(tickHi) <= sqrtPriceX96 ? tickHi : tickLow */\n    tag_521:\n        /* \"contracts/uniswap/libraries/TickMath.sol\":8537:8635  tick = tickLow == tickHi ? tickLow : getSqrtRatioAtTick(tickHi) <= sqrtPriceX96 ? tickHi : tickLow */\n      swap10\n        /* \"contracts/uniswap/libraries/TickMath.sol\":4361:8642  function getTickAtSqrtRatio(uint160 sqrtPriceX96) internal pure returns (int24 tick) {... */\n      swap9\n      pop\n      pop\n      pop\n      pop\n      pop\n      pop\n      pop\n      pop\n      pop\n      jump\t// out\n        /* \"contracts/uniswap/libraries/Oracle.sol\":4439:5341  function write(... */\n    tag_196:\n        /* \"contracts/uniswap/libraries/Oracle.sol\":4679:4698  uint16 indexUpdated */\n      0x00\n        /* \"contracts/uniswap/libraries/Oracle.sol\":4700:4725  uint16 cardinalityUpdated */\n      dup1\n        /* \"contracts/uniswap/libraries/Oracle.sol\":4737:4760  Observation memory last */\n      0x00\n        /* \"contracts/uniswap/libraries/Oracle.sol\":4763:4767  self */\n      dup10\n        /* \"contracts/uniswap/libraries/Oracle.sol\":4768:4773  index */\n      dup10\n        /* \"contracts/uniswap/libraries/Oracle.sol\":4763:4774  self[index] */\n      0xffff\n      and\n      0xffff\n      dup2\n      lt\n      tag_523\n      jumpi\n      invalid\n    tag_523:\n        /* \"contracts/uniswap/libraries/Oracle.sol\":4737:4774  Observation memory last = self[index] */\n      0x40\n      dup1\n      mload\n      0x80\n      dup2\n      add\n      dup3\n      mstore\n        /* \"contracts/uniswap/libraries/Oracle.sol\":4763:4774  self[index] */\n      swap2\n      swap1\n      swap3\n      add\n        /* \"contracts/uniswap/libraries/Oracle.sol\":4737:4774  Observation memory last = self[index] */\n      sload\n      0xffffffff\n      dup1\n      dup3\n      and\n      dup1\n      dup5\n      mstore\n      0x0100000000\n      dup4\n      div\n      0x06\n      swap1\n      dup2\n      signextend\n      dup2\n      signextend\n      swap1\n      signextend\n      0x20\n      dup6\n      add\n      mstore\n      0x010000000000000000000000\n      dup4\n      div\n      sub(shl(0xa0, 0x01), 0x01)\n      and\n      swap5\n      dup5\n      add\n      swap5\n      swap1\n      swap5\n      mstore\n      0x0100000000000000000000000000000000000000000000000000000000000000\n      swap1\n      swap2\n      div\n      0xff\n      and\n      iszero\n      iszero\n      0x60\n      dup4\n      add\n      mstore\n      swap1\n      swap3\n      pop\n        /* \"contracts/uniswap/libraries/Oracle.sol\":4864:4901  last.blockTimestamp == blockTimestamp */\n      dup10\n      and\n      eq\n        /* \"contracts/uniswap/libraries/Oracle.sol\":4860:4930  if (last.blockTimestamp == blockTimestamp) return (index, cardinality) */\n      iszero\n      tag_525\n      jumpi\n        /* \"contracts/uniswap/libraries/Oracle.sol\":4911:4916  index */\n      dup9\n        /* \"contracts/uniswap/libraries/Oracle.sol\":4918:4929  cardinality */\n      dup6\n        /* \"contracts/uniswap/libraries/Oracle.sol\":4903:4930  return (index, cardinality) */\n      swap3\n      pop\n      swap3\n      pop\n      pop\n      jump(tag_491)\n        /* \"contracts/uniswap/libraries/Oracle.sol\":4860:4930  if (last.blockTimestamp == blockTimestamp) return (index, cardinality) */\n    tag_525:\n        /* \"contracts/uniswap/libraries/Oracle.sol\":5031:5042  cardinality */\n      dup5\n        /* \"contracts/uniswap/libraries/Oracle.sol\":5013:5042  cardinalityNext > cardinality */\n      0xffff\n      and\n        /* \"contracts/uniswap/libraries/Oracle.sol\":5013:5028  cardinalityNext */\n      dup5\n        /* \"contracts/uniswap/libraries/Oracle.sol\":5013:5042  cardinalityNext > cardinality */\n      0xffff\n      and\n      gt\n        /* \"contracts/uniswap/libraries/Oracle.sol\":5013:5072  cardinalityNext > cardinality && index == (cardinality - 1) */\n      dup1\n      iszero\n      tag_526\n      jumpi\n      pop\n        /* \"contracts/uniswap/libraries/Oracle.sol\":5070:5071  1 */\n      0x01\n        /* \"contracts/uniswap/libraries/Oracle.sol\":5056:5067  cardinality */\n      dup6\n        /* \"contracts/uniswap/libraries/Oracle.sol\":5056:5071  cardinality - 1 */\n      sub\n        /* \"contracts/uniswap/libraries/Oracle.sol\":5046:5072  index == (cardinality - 1) */\n      0xffff\n      and\n        /* \"contracts/uniswap/libraries/Oracle.sol\":5046:5051  index */\n      dup10\n        /* \"contracts/uniswap/libraries/Oracle.sol\":5046:5072  index == (cardinality - 1) */\n      0xffff\n      and\n      eq\n        /* \"contracts/uniswap/libraries/Oracle.sol\":5013:5072  cardinalityNext > cardinality && index == (cardinality - 1) */\n    tag_526:\n        /* \"contracts/uniswap/libraries/Oracle.sol\":5009:5198  if (cardinalityNext > cardinality && index == (cardinality - 1)) {... */\n      iszero\n      tag_527\n      jumpi\n        /* \"contracts/uniswap/libraries/Oracle.sol\":5109:5124  cardinalityNext */\n      dup4\n        /* \"contracts/uniswap/libraries/Oracle.sol\":5088:5124  cardinalityUpdated = cardinalityNext */\n      swap2\n      pop\n        /* \"contracts/uniswap/libraries/Oracle.sol\":5009:5198  if (cardinalityNext > cardinality && index == (cardinality - 1)) {... */\n      jump(tag_528)\n    tag_527:\n        /* \"contracts/uniswap/libraries/Oracle.sol\":5176:5187  cardinality */\n      dup5\n        /* \"contracts/uniswap/libraries/Oracle.sol\":5155:5187  cardinalityUpdated = cardinality */\n      swap2\n      pop\n        /* \"contracts/uniswap/libraries/Oracle.sol\":5009:5198  if (cardinalityNext > cardinality && index == (cardinality - 1)) {... */\n    tag_528:\n        /* \"contracts/uniswap/libraries/Oracle.sol\":5237:5255  cardinalityUpdated */\n      dup2\n        /* \"contracts/uniswap/libraries/Oracle.sol\":5223:5255  (index + 1) % cardinalityUpdated */\n      0xffff\n      and\n        /* \"contracts/uniswap/libraries/Oracle.sol\":5224:5229  index */\n      dup10\n        /* \"contracts/uniswap/libraries/Oracle.sol\":5232:5233  1 */\n      0x01\n        /* \"contracts/uniswap/libraries/Oracle.sol\":5224:5233  index + 1 */\n      add\n        /* \"contracts/uniswap/libraries/Oracle.sol\":5223:5255  (index + 1) % cardinalityUpdated */\n      0xffff\n      and\n      dup2\n      tag_529\n      jumpi\n      invalid\n    tag_529:\n      mod\n        /* \"contracts/uniswap/libraries/Oracle.sol\":5208:5255  indexUpdated = (index + 1) % cardinalityUpdated */\n      swap3\n      pop\n        /* \"contracts/uniswap/libraries/Oracle.sol\":5286:5334  transform(last, blockTimestamp, tick, liquidity) */\n      tag_530\n        /* \"contracts/uniswap/libraries/Oracle.sol\":5296:5300  last */\n      dup2\n        /* \"contracts/uniswap/libraries/Oracle.sol\":5302:5316  blockTimestamp */\n      dup10\n        /* \"contracts/uniswap/libraries/Oracle.sol\":5318:5322  tick */\n      dup10\n        /* \"contracts/uniswap/libraries/Oracle.sol\":5324:5333  liquidity */\n      dup10\n        /* \"contracts/uniswap/libraries/Oracle.sol\":5286:5295  transform */\n      tag_497\n        /* \"contracts/uniswap/libraries/Oracle.sol\":5286:5334  transform(last, blockTimestamp, tick, liquidity) */\n      jump\t// in\n    tag_530:\n        /* \"contracts/uniswap/libraries/Oracle.sol\":5265:5269  self */\n      dup11\n        /* \"contracts/uniswap/libraries/Oracle.sol\":5270:5282  indexUpdated */\n      dup5\n        /* \"contracts/uniswap/libraries/Oracle.sol\":5265:5283  self[indexUpdated] */\n      0xffff\n      and\n      0xffff\n      dup2\n      lt\n      tag_531\n      jumpi\n      invalid\n    tag_531:\n        /* \"contracts/uniswap/libraries/Oracle.sol\":5265:5334  self[indexUpdated] = transform(last, blockTimestamp, tick, liquidity) */\n      dup3\n      mload\n        /* \"contracts/uniswap/libraries/Oracle.sol\":5265:5283  self[indexUpdated] */\n      swap2\n      add\n        /* \"contracts/uniswap/libraries/Oracle.sol\":5265:5334  self[indexUpdated] = transform(last, blockTimestamp, tick, liquidity) */\n      dup1\n      sload\n      0x20\n      dup5\n      add\n      mload\n      0x40\n      dup6\n      add\n      mload\n      0x60\n      swap1\n      swap6\n      add\n      mload\n      iszero\n      iszero\n      0x0100000000000000000000000000000000000000000000000000000000000000\n      mul\n      0xffffffffffffffffffffffffffffffffffffffffffffffffffffffffffffff\n      sub(shl(0xa0, 0x01), 0x01)\n      swap1\n      swap7\n      and\n      0x010000000000000000000000\n      mul\n      0xff0000000000000000000000000000000000000000ffffffffffffffffffffff\n      0x06\n      swap4\n      swap1\n      swap4\n      signextend\n      0xffffffffffffff\n      and\n      0x0100000000\n      mul\n      0xffffffffffffffffffffffffffffffffffffffffff00000000000000ffffffff\n      0xffffffff\n      swap1\n      swap8\n      and\n      0xffffffffffffffffffffffffffffffffffffffffffffffffffffffff00000000\n      swap1\n      swap6\n      and\n      swap5\n      swap1\n      swap5\n      or\n      swap6\n      swap1\n      swap6\n      and\n      swap3\n      swap1\n      swap3\n      or\n      and\n      swap3\n      swap1\n      swap3\n      or\n      swap3\n      swap1\n      swap3\n      and\n      or\n      swap1\n      sstore\n      pop\n        /* \"contracts/uniswap/libraries/Oracle.sol\":4439:5341  function write(... */\n      swap8\n      pop\n      swap8\n      swap6\n      pop\n      pop\n      pop\n      pop\n      pop\n      pop\n      jump\t// out\n        /* \"contracts/uniswap/libraries/TransferHelper.sol\":604:932  function safeTransfer(... */\n    tag_208:\n        /* \"contracts/uniswap/libraries/TransferHelper.sol\":776:842  abi.encodeWithSelector(IERC20Minimal.transfer.selector, to, value) */\n      0x40\n      dup1\n      mload\n      sub(shl(0xa0, 0x01), 0x01)\n      dup5\n      dup2\n      and\n      0x24\n      dup4\n      add\n      mstore\n      0x44\n      dup1\n      dup4\n      add\n      dup6\n      swap1\n      mstore\n      dup4\n      mload\n      dup1\n      dup5\n      sub\n      swap1\n      swap2\n      add\n      dup2\n      mstore\n      0x64\n      swap1\n      swap3\n      add\n      dup4\n      mstore\n      0x20\n      dup3\n      add\n      dup1\n      mload\n      0xffffffffffffffffffffffffffffffffffffffffffffffffffffffff\n      and\n        /* \"contracts/uniswap/libraries/TransferHelper.sol\":799:830  IERC20Minimal.transfer.selector */\n      0xa9059cbb00000000000000000000000000000000000000000000000000000000\n        /* \"contracts/uniswap/libraries/TransferHelper.sol\":776:842  abi.encodeWithSelector(IERC20Minimal.transfer.selector, to, value) */\n      or\n      dup2\n      mstore\n        /* \"contracts/uniswap/libraries/TransferHelper.sol\":765:843  token.call(abi.encodeWithSelector(IERC20Minimal.transfer.selector, to, value)) */\n      swap3\n      mload\n      dup3\n      mload\n        /* \"contracts/uniswap/libraries/TransferHelper.sol\":718:730  bool success */\n      0x00\n      swap5\n      dup6\n      swap5\n        /* \"contracts/uniswap/libraries/TransferHelper.sol\":765:775  token.call */\n      swap4\n      dup10\n      and\n      swap4\n        /* \"contracts/uniswap/libraries/TransferHelper.sol\":776:842  abi.encodeWithSelector(IERC20Minimal.transfer.selector, to, value) */\n      swap3\n        /* \"contracts/uniswap/libraries/TransferHelper.sol\":765:843  token.call(abi.encodeWithSelector(IERC20Minimal.transfer.selector, to, value)) */\n      swap2\n      dup3\n      swap2\n        /* \"contracts/uniswap/libraries/TransferHelper.sol\":776:842  abi.encodeWithSelector(IERC20Minimal.transfer.selector, to, value) */\n      swap1\n        /* \"contracts/uniswap/libraries/TransferHelper.sol\":765:843  token.call(abi.encodeWithSelector(IERC20Minimal.transfer.selector, to, value)) */\n      dup1\n      dup4\n        /* \"contracts/uniswap/libraries/TransferHelper.sol\":776:842  abi.encodeWithSelector(IERC20Minimal.transfer.selector, to, value) */\n      dup4\n        /* \"contracts/uniswap/libraries/TransferHelper.sol\":765:843  token.call(abi.encodeWithSelector(IERC20Minimal.transfer.selector, to, value)) */\n    tag_534:\n      0x20\n      dup4\n      lt\n      tag_536\n      jumpi\n      dup1\n      mload\n      dup3\n      mstore\n      0xffffffffffffffffffffffffffffffffffffffffffffffffffffffffffffffe0\n      swap1\n      swap3\n      add\n      swap2\n      0x20\n      swap2\n      dup3\n      add\n      swap2\n      add\n      jump(tag_534)\n    tag_536:\n      0x01\n      dup4\n      0x20\n      sub\n      0x0100\n      exp\n      sub\n      dup1\n      not\n      dup3\n      mload\n      and\n      dup2\n      dup5\n      mload\n      and\n      dup1\n      dup3\n      or\n      dup6\n      mstore\n      pop\n      pop\n      pop\n      pop\n      pop\n      pop\n      swap1\n      pop\n      add\n      swap2\n      pop\n      pop\n      0x00\n      mload(0x40)\n      dup1\n      dup4\n      sub\n      dup2\n      0x00\n      dup7\n      gas\n      call\n      swap2\n      pop\n      pop\n      returndatasize\n      dup1\n      0x00\n      dup2\n      eq\n      tag_539\n      jumpi\n      mload(0x40)\n      swap2\n      pop\n      and(add(returndatasize, 0x3f), not(0x1f))\n      dup3\n      add\n      0x40\n      mstore\n      returndatasize\n      dup3\n      mstore\n      returndatasize\n      0x00\n      0x20\n      dup5\n      add\n      returndatacopy\n      jump(tag_538)\n    tag_539:\n      0x60\n      swap2\n      pop\n    tag_538:\n      pop\n        /* \"contracts/uniswap/libraries/TransferHelper.sol\":717:843  (bool success, bytes memory data) =... */\n      swap2\n      pop\n      swap2\n      pop\n        /* \"contracts/uniswap/libraries/TransferHelper.sol\":861:868  success */\n      dup2\n        /* \"contracts/uniswap/libraries/TransferHelper.sol\":861:918  success && (data.length == 0 || abi.decode(data, (bool))) */\n      dup1\n      iszero\n      tag_541\n      jumpi\n      pop\n        /* \"contracts/uniswap/libraries/TransferHelper.sol\":873:884  data.length */\n      dup1\n      mload\n        /* \"contracts/uniswap/libraries/TransferHelper.sol\":873:889  data.length == 0 */\n      iszero\n      dup1\n        /* \"contracts/uniswap/libraries/TransferHelper.sol\":873:917  data.length == 0 || abi.decode(data, (bool)) */\n      tag_541\n      jumpi\n      pop\n        /* \"contracts/uniswap/libraries/TransferHelper.sol\":904:908  data */\n      dup1\n        /* \"contracts/uniswap/libraries/TransferHelper.sol\":893:917  abi.decode(data, (bool)) */\n      dup1\n      0x20\n      add\n      swap1\n      mload\n      0x20\n      dup2\n      lt\n      iszero\n      tag_542\n      jumpi\n      0x00\n      dup1\n      revert\n    tag_542:\n      pop\n      mload\n        /* \"contracts/uniswap/libraries/TransferHelper.sol\":873:917  data.length == 0 || abi.decode(data, (bool)) */\n    tag_541:\n        /* \"contracts/uniswap/libraries/TransferHelper.sol\":853:925  require(success && (data.length == 0 || abi.decode(data, (bool))), 'TF') */\n      tag_543\n      jumpi\n      0x00\n      dup1\n      revert\n    tag_543:\n        /* \"contracts/uniswap/libraries/TransferHelper.sol\":604:932  function safeTransfer(... */\n      pop\n      pop\n      pop\n      pop\n      pop\n      jump\t// out\n        /* \"contracts/uniswap/UniswapV3Pool.sol\":5339:5636  function balance0() private view returns (uint256) {... */\n    tag_210:\n        /* \"contracts/uniswap/UniswapV3Pool.sol\":5466:5537  abi.encodeWithSelector(IERC20Minimal.balanceOf.selector, address(this)) */\n      0x40\n      dup1\n      mload\n        /* \"contracts/uniswap/UniswapV3Pool.sol\":5531:5535  this */\n      address\n        /* \"contracts/uniswap/UniswapV3Pool.sol\":5466:5537  abi.encodeWithSelector(IERC20Minimal.balanceOf.selector, address(this)) */\n      0x24\n      dup1\n      dup4\n      add\n      swap2\n      swap1\n      swap2\n      mstore\n      dup3\n      mload\n      dup1\n      dup4\n      sub\n      swap1\n      swap2\n      add\n      dup2\n      mstore\n      0x44\n      swap1\n      swap2\n      add\n      dup3\n      mstore\n      0x20\n      dup2\n      add\n      dup1\n      mload\n      0xffffffffffffffffffffffffffffffffffffffffffffffffffffffff\n      and\n        /* \"contracts/uniswap/UniswapV3Pool.sol\":5489:5521  IERC20Minimal.balanceOf.selector */\n      0x70a0823100000000000000000000000000000000000000000000000000000000\n        /* \"contracts/uniswap/UniswapV3Pool.sol\":5466:5537  abi.encodeWithSelector(IERC20Minimal.balanceOf.selector, address(this)) */\n      or\n      dup2\n      mstore\n        /* \"contracts/uniswap/UniswapV3Pool.sol\":5448:5538  token0.staticcall(abi.encodeWithSelector(IERC20Minimal.balanceOf.selector, address(this))) */\n      swap2\n      mload\n      dup2\n      mload\n        /* \"contracts/uniswap/UniswapV3Pool.sol\":5381:5388  uint256 */\n      0x00\n      swap4\n      dup5\n      swap4\n      dup5\n      swap4\n      sub(shl(0xa0, 0x01), 0x01)\n        /* \"contracts/uniswap/UniswapV3Pool.sol\":5448:5454  token0 */\n      immutable(\"0xb811eb8190fe00dc85563459f7e9e4ba4c2ef31ddac91e9e2d37d1e7e1b1d5bc\")\n        /* \"contracts/uniswap/UniswapV3Pool.sol\":5448:5465  token0.staticcall */\n      and\n      swap4\n        /* \"contracts/uniswap/UniswapV3Pool.sol\":5466:5537  abi.encodeWithSelector(IERC20Minimal.balanceOf.selector, address(this)) */\n      swap2\n      swap3\n        /* \"contracts/uniswap/UniswapV3Pool.sol\":5448:5538  token0.staticcall(abi.encodeWithSelector(IERC20Minimal.balanceOf.selector, address(this))) */\n      swap1\n      swap2\n      dup3\n      swap2\n        /* \"contracts/uniswap/UniswapV3Pool.sol\":5466:5537  abi.encodeWithSelector(IERC20Minimal.balanceOf.selector, address(this)) */\n      swap1\n        /* \"contracts/uniswap/UniswapV3Pool.sol\":5448:5538  token0.staticcall(abi.encodeWithSelector(IERC20Minimal.balanceOf.selector, address(this))) */\n      dup1\n      dup4\n        /* \"contracts/uniswap/UniswapV3Pool.sol\":5466:5537  abi.encodeWithSelector(IERC20Minimal.balanceOf.selector, address(this)) */\n      dup4\n        /* \"contracts/uniswap/UniswapV3Pool.sol\":5448:5538  token0.staticcall(abi.encodeWithSelector(IERC20Minimal.balanceOf.selector, address(this))) */\n    tag_545:\n      0x20\n      dup4\n      lt\n      tag_547\n      jumpi\n      dup1\n      mload\n      dup3\n      mstore\n      0xffffffffffffffffffffffffffffffffffffffffffffffffffffffffffffffe0\n      swap1\n      swap3\n      add\n      swap2\n      0x20\n      swap2\n      dup3\n      add\n      swap2\n      add\n      jump(tag_545)\n    tag_547:\n      0x01\n      dup4\n      0x20\n      sub\n      0x0100\n      exp\n      sub\n      dup1\n      not\n      dup3\n      mload\n      and\n      dup2\n      dup5\n      mload\n      and\n      dup1\n      dup3\n      or\n      dup6\n      mstore\n      pop\n      pop\n      pop\n      pop\n      pop\n      pop\n      swap1\n      pop\n      add\n      swap2\n      pop\n      pop\n      0x00\n      mload(0x40)\n      dup1\n      dup4\n      sub\n      dup2\n      dup6\n      gas\n      staticcall\n      swap2\n      pop\n      pop\n      returndatasize\n      dup1\n      0x00\n      dup2\n      eq\n      tag_550\n      jumpi\n      mload(0x40)\n      swap2\n      pop\n      and(add(returndatasize, 0x3f), not(0x1f))\n      dup3\n      add\n      0x40\n      mstore\n      returndatasize\n      dup3\n      mstore\n      returndatasize\n      0x00\n      0x20\n      dup5\n      add\n      returndatacopy\n      jump(tag_549)\n    tag_550:\n      0x60\n      swap2\n      pop\n    tag_549:\n      pop\n        /* \"contracts/uniswap/UniswapV3Pool.sol\":5400:5538  (bool success, bytes memory data) =... */\n      swap2\n      pop\n      swap2\n      pop\n        /* \"contracts/uniswap/UniswapV3Pool.sol\":5556:5563  success */\n      dup2\n        /* \"contracts/uniswap/UniswapV3Pool.sol\":5556:5584  success && data.length >= 32 */\n      dup1\n      iszero\n      tag_551\n      jumpi\n      pop\n        /* \"contracts/uniswap/UniswapV3Pool.sol\":5582:5584  32 */\n      0x20\n        /* \"contracts/uniswap/UniswapV3Pool.sol\":5567:5571  data */\n      dup2\n        /* \"contracts/uniswap/UniswapV3Pool.sol\":5567:5578  data.length */\n      mload\n        /* \"contracts/uniswap/UniswapV3Pool.sol\":5567:5584  data.length >= 32 */\n      lt\n      iszero\n        /* \"contracts/uniswap/UniswapV3Pool.sol\":5556:5584  success && data.length >= 32 */\n    tag_551:\n        /* \"contracts/uniswap/UniswapV3Pool.sol\":5548:5585  require(success && data.length >= 32) */\n      tag_552\n      jumpi\n      0x00\n      dup1\n      revert\n    tag_552:\n        /* \"contracts/uniswap/UniswapV3Pool.sol\":5613:5617  data */\n      dup1\n        /* \"contracts/uniswap/UniswapV3Pool.sol\":5602:5629  abi.decode(data, (uint256)) */\n      dup1\n      0x20\n      add\n      swap1\n      mload\n      0x20\n      dup2\n      lt\n      iszero\n      tag_553\n      jumpi\n      0x00\n      dup1\n      revert\n    tag_553:\n      pop\n      mload\n      swap3\n      pop\n      pop\n      pop\n        /* \"contracts/uniswap/UniswapV3Pool.sol\":5339:5636  function balance0() private view returns (uint256) {... */\n      swap1\n      jump\t// out\n        /* \"contracts/uniswap/libraries/LowGasSafeMath.sol\":435:546  function add(uint256 x, uint256 y) internal pure returns (uint256 z) {... */\n    tag_216:\n        /* \"contracts/uniswap/libraries/LowGasSafeMath.sol\":527:532  x + y */\n      dup1\n      dup3\n      add\n        /* \"contracts/uniswap/libraries/LowGasSafeMath.sol\":522:538  (z = x + y) >= x */\n      dup3\n      dup2\n      lt\n      iszero\n        /* \"contracts/uniswap/libraries/LowGasSafeMath.sol\":514:539  require((z = x + y) >= x) */\n      tag_484\n      jumpi\n      0x00\n      dup1\n      revert\n        /* \"contracts/uniswap/UniswapV3Pool.sol\":5819:6116  function balance1() private view returns (uint256) {... */\n    tag_222:\n        /* \"contracts/uniswap/UniswapV3Pool.sol\":5946:6017  abi.encodeWithSelector(IERC20Minimal.balanceOf.selector, address(this)) */\n      0x40\n      dup1\n      mload\n        /* \"contracts/uniswap/UniswapV3Pool.sol\":6011:6015  this */\n      address\n        /* \"contracts/uniswap/UniswapV3Pool.sol\":5946:6017  abi.encodeWithSelector(IERC20Minimal.balanceOf.selector, address(this)) */\n      0x24\n      dup1\n      dup4\n      add\n      swap2\n      swap1\n      swap2\n      mstore\n      dup3\n      mload\n      dup1\n      dup4\n      sub\n      swap1\n      swap2\n      add\n      dup2\n      mstore\n      0x44\n      swap1\n      swap2\n      add\n      dup3\n      mstore\n      0x20\n      dup2\n      add\n      dup1\n      mload\n      0xffffffffffffffffffffffffffffffffffffffffffffffffffffffff\n      and\n        /* \"contracts/uniswap/UniswapV3Pool.sol\":5969:6001  IERC20Minimal.balanceOf.selector */\n      0x70a0823100000000000000000000000000000000000000000000000000000000\n        /* \"contracts/uniswap/UniswapV3Pool.sol\":5946:6017  abi.encodeWithSelector(IERC20Minimal.balanceOf.selector, address(this)) */\n      or\n      dup2\n      mstore\n        /* \"contracts/uniswap/UniswapV3Pool.sol\":5928:6018  token1.staticcall(abi.encodeWithSelector(IERC20Minimal.balanceOf.selector, address(this))) */\n      swap2\n      mload\n      dup2\n      mload\n        /* \"contracts/uniswap/UniswapV3Pool.sol\":5861:5868  uint256 */\n      0x00\n      swap4\n      dup5\n      swap4\n      dup5\n      swap4\n      sub(shl(0xa0, 0x01), 0x01)\n        /* \"contracts/uniswap/UniswapV3Pool.sol\":5928:5934  token1 */\n      immutable(\"0x712adca22095011a9de0b4aa84648bf2bea2744bd9326ede31e43d2a71662846\")\n        /* \"contracts/uniswap/UniswapV3Pool.sol\":5928:5945  token1.staticcall */\n      and\n      swap4\n        /* \"contracts/uniswap/UniswapV3Pool.sol\":5946:6017  abi.encodeWithSelector(IERC20Minimal.balanceOf.selector, address(this)) */\n      swap2\n      swap3\n        /* \"contracts/uniswap/UniswapV3Pool.sol\":5928:6018  token1.staticcall(abi.encodeWithSelector(IERC20Minimal.balanceOf.selector, address(this))) */\n      swap1\n      swap2\n      dup3\n      swap2\n        /* \"contracts/uniswap/UniswapV3Pool.sol\":5946:6017  abi.encodeWithSelector(IERC20Minimal.balanceOf.selector, address(this)) */\n      swap1\n        /* \"contracts/uniswap/UniswapV3Pool.sol\":5928:6018  token1.staticcall(abi.encodeWithSelector(IERC20Minimal.balanceOf.selector, address(this))) */\n      dup1\n      dup4\n        /* \"contracts/uniswap/UniswapV3Pool.sol\":5946:6017  abi.encodeWithSelector(IERC20Minimal.balanceOf.selector, address(this)) */\n      dup4\n        /* \"contracts/uniswap/UniswapV3Pool.sol\":5928:6018  token1.staticcall(abi.encodeWithSelector(IERC20Minimal.balanceOf.selector, address(this))) */\n      0x20\n      dup4\n      lt\n      tag_547\n      jumpi\n      dup1\n      mload\n      dup3\n      mstore\n      0xffffffffffffffffffffffffffffffffffffffffffffffffffffffffffffffe0\n      swap1\n      swap3\n      add\n      swap2\n      0x20\n      swap2\n      dup3\n      add\n      swap2\n      add\n      jump(tag_545)\n        /* \"contracts/uniswap/libraries/Oracle.sol\":5720:6269  function grow(... */\n    tag_237:\n        /* \"contracts/uniswap/libraries/Oracle.sol\":5844:5850  uint16 */\n      0x00\n        /* \"contracts/uniswap/libraries/Oracle.sol\":5880:5881  0 */\n      dup1\n        /* \"contracts/uniswap/libraries/Oracle.sol\":5870:5877  current */\n      dup4\n        /* \"contracts/uniswap/libraries/Oracle.sol\":5870:5881  current > 0 */\n      0xffff\n      and\n      gt\n        /* \"contracts/uniswap/libraries/Oracle.sol\":5862:5887  require(current > 0, 'I') */\n      tag_567\n      jumpi\n      0x00\n      dup1\n      revert\n    tag_567:\n        /* \"contracts/uniswap/libraries/Oracle.sol\":5993:6000  current */\n      dup3\n        /* \"contracts/uniswap/libraries/Oracle.sol\":5985:6000  next <= current */\n      0xffff\n      and\n        /* \"contracts/uniswap/libraries/Oracle.sol\":5985:5989  next */\n      dup3\n        /* \"contracts/uniswap/libraries/Oracle.sol\":5985:6000  next <= current */\n      0xffff\n      and\n      gt\n        /* \"contracts/uniswap/libraries/Oracle.sol\":5981:6016  if (next <= current) return current */\n      tag_568\n      jumpi\n      pop\n        /* \"contracts/uniswap/libraries/Oracle.sol\":6009:6016  current */\n      dup2\n        /* \"contracts/uniswap/libraries/Oracle.sol\":6002:6016  return current */\n      jump(tag_487)\n        /* \"contracts/uniswap/libraries/Oracle.sol\":5981:6016  if (next <= current) return current */\n    tag_568:\n        /* \"contracts/uniswap/libraries/Oracle.sol\":6191:6198  current */\n      dup3\n        /* \"contracts/uniswap/libraries/Oracle.sol\":6175:6241  for (uint16 i = current; i < next; i++) self[i].blockTimestamp = 1 */\n    tag_569:\n        /* \"contracts/uniswap/libraries/Oracle.sol\":6204:6208  next */\n      dup3\n        /* \"contracts/uniswap/libraries/Oracle.sol\":6200:6208  i < next */\n      0xffff\n      and\n        /* \"contracts/uniswap/libraries/Oracle.sol\":6200:6201  i */\n      dup2\n        /* \"contracts/uniswap/libraries/Oracle.sol\":6200:6208  i < next */\n      0xffff\n      and\n      lt\n        /* \"contracts/uniswap/libraries/Oracle.sol\":6175:6241  for (uint16 i = current; i < next; i++) self[i].blockTimestamp = 1 */\n      iszero\n      tag_570\n      jumpi\n        /* \"contracts/uniswap/libraries/Oracle.sol\":6240:6241  1 */\n      0x01\n        /* \"contracts/uniswap/libraries/Oracle.sol\":6215:6219  self */\n      dup6\n        /* \"contracts/uniswap/libraries/Oracle.sol\":6220:6221  i */\n      dup3\n        /* \"contracts/uniswap/libraries/Oracle.sol\":6215:6222  self[i] */\n      0xffff\n      and\n      0xffff\n      dup2\n      lt\n      tag_572\n      jumpi\n      invalid\n    tag_572:\n      add\n        /* \"contracts/uniswap/libraries/Oracle.sol\":6215:6241  self[i].blockTimestamp = 1 */\n      dup1\n      sload\n      0xffffffffffffffffffffffffffffffffffffffffffffffffffffffff00000000\n      and\n      0xffffffff\n      swap3\n      swap1\n      swap3\n      and\n      swap2\n      swap1\n      swap2\n      or\n      swap1\n      sstore\n      0x01\n        /* \"contracts/uniswap/libraries/Oracle.sol\":6210:6213  i++ */\n      add\n        /* \"contracts/uniswap/libraries/Oracle.sol\":6175:6241  for (uint16 i = current; i < next; i++) self[i].blockTimestamp = 1 */\n      jump(tag_569)\n    tag_570:\n      pop\n        /* \"contracts/uniswap/libraries/Oracle.sol\":6258:6262  next */\n      swap1\n      swap4\n        /* \"contracts/uniswap/libraries/Oracle.sol\":5720:6269  function grow(... */\n      swap3\n      pop\n      pop\n      pop\n      jump\t// out\n        /* \"contracts/uniswap/libraries/SafeCast.sol\":652:759  function toInt128(int256 y) internal pure returns (int128 z) {... */\n    tag_245:\n        /* \"contracts/uniswap/libraries/SafeCast.sol\":750:751  y */\n      dup1\n        /* \"contracts/uniswap/libraries/SafeCast.sol\":731:751  (z = int128(y)) == y */\n      0x0f\n      dup2\n      swap1\n      signextend\n      dup2\n      eq\n        /* \"contracts/uniswap/libraries/SafeCast.sol\":723:752  require((z = int128(y)) == y) */\n      tag_379\n      jumpi\n      0x00\n      dup1\n      revert\n        /* \"contracts/uniswap/UniswapV3Pool.sol\":11757:14570  function _modifyPosition(ModifyPositionParams memory params)... */\n    tag_246:\n        /* \"contracts/uniswap/UniswapV3Pool.sol\":11887:11917  Position.Info storage position */\n      0x00\n        /* \"contracts/uniswap/UniswapV3Pool.sol\":11931:11945  int256 amount0 */\n      dup1\n        /* \"contracts/uniswap/UniswapV3Pool.sol\":11959:11973  int256 amount1 */\n      0x00\n        /* \"contracts/uniswap/NoDelegateCall.sol\":1036:1058  checkNotDelegateCall() */\n      tag_577\n        /* \"contracts/uniswap/NoDelegateCall.sol\":1036:1056  checkNotDelegateCall */\n      tag_124\n        /* \"contracts/uniswap/NoDelegateCall.sol\":1036:1058  checkNotDelegateCall() */\n      jump\t// in\n    tag_577:\n        /* \"contracts/uniswap/UniswapV3Pool.sol\":11998:12044  checkTicks(params.tickLower, params.tickUpper) */\n      tag_579\n        /* \"contracts/uniswap/UniswapV3Pool.sol\":12009:12015  params */\n      dup5\n        /* \"contracts/uniswap/UniswapV3Pool.sol\":12009:12025  params.tickLower */\n      0x20\n      add\n      mload\n        /* \"contracts/uniswap/UniswapV3Pool.sol\":12027:12033  params */\n      dup6\n        /* \"contracts/uniswap/UniswapV3Pool.sol\":12027:12043  params.tickUpper */\n      0x40\n      add\n      mload\n        /* \"contracts/uniswap/UniswapV3Pool.sol\":11998:12008  checkTicks */\n      tag_364\n        /* \"contracts/uniswap/UniswapV3Pool.sol\":11998:12044  checkTicks(params.tickLower, params.tickUpper) */\n      jump\t// in\n    tag_579:\n        /* \"contracts/uniswap/UniswapV3Pool.sol\":12055:12082  Slot0 memory _slot0 = slot0 */\n      0x40\n      dup1\n      mload\n      0xe0\n      dup2\n      add\n      dup3\n      mstore\n        /* \"contracts/uniswap/UniswapV3Pool.sol\":12055:12074  Slot0 memory _slot0 */\n      0x00\n        /* \"contracts/uniswap/UniswapV3Pool.sol\":12055:12082  Slot0 memory _slot0 = slot0 */\n      sload\n      sub(shl(0xa0, 0x01), 0x01)\n      dup2\n      and\n      dup3\n      mstore\n      0x010000000000000000000000000000000000000000\n      dup2\n      div\n      0x02\n      swap1\n      dup2\n      signextend\n      dup2\n      signextend\n      swap1\n      signextend\n      0x20\n      dup1\n      dup5\n      add\n      dup3\n      swap1\n      mstore\n      0xffff\n      0x010000000000000000000000000000000000000000000000\n      dup5\n      div\n      dup2\n      and\n      dup6\n      dup8\n      add\n      mstore\n      0x0100000000000000000000000000000000000000000000000000\n      dup5\n      div\n      dup2\n      and\n      0x60\n      dup1\n      dup8\n      add\n      swap2\n      swap1\n      swap2\n      mstore\n      0x01000000000000000000000000000000000000000000000000000000\n      dup6\n      div\n      swap1\n      swap2\n      and\n      0x80\n      dup7\n      add\n      mstore\n      0xff\n      0x010000000000000000000000000000000000000000000000000000000000\n      dup6\n      div\n      dup2\n      and\n      0xa0\n      dup8\n      add\n      mstore\n      0x01000000000000000000000000000000000000000000000000000000000000\n      swap1\n      swap5\n      div\n      swap1\n      swap4\n      and\n      iszero\n      iszero\n      0xc0\n      dup6\n      add\n      mstore\n        /* \"contracts/uniswap/UniswapV3Pool.sol\":12163:12175  params.owner */\n      dup9\n      mload\n        /* \"contracts/uniswap/UniswapV3Pool.sol\":12189:12205  params.tickLower */\n      swap1\n      dup10\n      add\n      mload\n        /* \"contracts/uniswap/UniswapV3Pool.sol\":12219:12235  params.tickUpper */\n      swap5\n      dup10\n      add\n      mload\n        /* \"contracts/uniswap/UniswapV3Pool.sol\":12249:12270  params.liquidityDelta */\n      swap3\n      dup10\n      add\n      mload\n        /* \"contracts/uniswap/UniswapV3Pool.sol\":12055:12082  Slot0 memory _slot0 = slot0 */\n      swap4\n      swap5\n        /* \"contracts/uniswap/UniswapV3Pool.sol\":12134:12305  _updatePosition(... */\n      tag_580\n      swap5\n        /* \"contracts/uniswap/UniswapV3Pool.sol\":12163:12175  params.owner */\n      swap2\n      swap4\n        /* \"contracts/uniswap/UniswapV3Pool.sol\":12189:12205  params.tickLower */\n      swap1\n      swap3\n        /* \"contracts/uniswap/UniswapV3Pool.sol\":12219:12235  params.tickUpper */\n      swap1\n      swap2\n        /* \"contracts/uniswap/UniswapV3Pool.sol\":12249:12270  params.liquidityDelta */\n      swap1\n        /* \"contracts/uniswap/UniswapV3Pool.sol\":12134:12149  _updatePosition */\n      tag_581\n        /* \"contracts/uniswap/UniswapV3Pool.sol\":12134:12305  _updatePosition(... */\n      jump\t// in\n    tag_580:\n        /* \"contracts/uniswap/UniswapV3Pool.sol\":12123:12305  position = _updatePosition(... */\n      swap4\n      pop\n        /* \"contracts/uniswap/UniswapV3Pool.sol\":12320:12326  params */\n      dup5\n        /* \"contracts/uniswap/UniswapV3Pool.sol\":12320:12341  params.liquidityDelta */\n      0x60\n      add\n      mload\n        /* \"contracts/uniswap/UniswapV3Pool.sol\":12320:12346  params.liquidityDelta != 0 */\n      0x0f\n      signextend\n        /* \"contracts/uniswap/UniswapV3Pool.sol\":12345:12346  0 */\n      0x00\n        /* \"contracts/uniswap/UniswapV3Pool.sol\":12320:12346  params.liquidityDelta != 0 */\n      eq\n        /* \"contracts/uniswap/UniswapV3Pool.sol\":12316:14564  if (params.liquidityDelta != 0) {... */\n      tag_598\n      jumpi\n        /* \"contracts/uniswap/UniswapV3Pool.sol\":12380:12386  params */\n      dup5\n        /* \"contracts/uniswap/UniswapV3Pool.sol\":12380:12396  params.tickLower */\n      0x20\n      add\n      mload\n        /* \"contracts/uniswap/UniswapV3Pool.sol\":12366:12396  _slot0.tick < params.tickLower */\n      0x02\n      signextend\n        /* \"contracts/uniswap/UniswapV3Pool.sol\":12366:12372  _slot0 */\n      dup2\n        /* \"contracts/uniswap/UniswapV3Pool.sol\":12366:12377  _slot0.tick */\n      0x20\n      add\n      mload\n        /* \"contracts/uniswap/UniswapV3Pool.sol\":12366:12396  _slot0.tick < params.tickLower */\n      0x02\n      signextend\n      slt\n        /* \"contracts/uniswap/UniswapV3Pool.sol\":12362:14554  if (_slot0.tick < params.tickLower) {... */\n      iszero\n      tag_583\n      jumpi\n        /* \"contracts/uniswap/UniswapV3Pool.sol\":12655:12879  SqrtPriceMath.getAmount0Delta(... */\n      tag_584\n        /* \"contracts/uniswap/UniswapV3Pool.sol\":12706:12751  TickMath.getSqrtRatioAtTick(params.tickLower) */\n      tag_585\n        /* \"contracts/uniswap/UniswapV3Pool.sol\":12734:12740  params */\n      dup7\n        /* \"contracts/uniswap/UniswapV3Pool.sol\":12734:12750  params.tickLower */\n      0x20\n      add\n      mload\n        /* \"contracts/uniswap/UniswapV3Pool.sol\":12706:12733  TickMath.getSqrtRatioAtTick */\n      tag_151\n        /* \"contracts/uniswap/UniswapV3Pool.sol\":12706:12751  TickMath.getSqrtRatioAtTick(params.tickLower) */\n      jump\t// in\n    tag_585:\n        /* \"contracts/uniswap/UniswapV3Pool.sol\":12773:12818  TickMath.getSqrtRatioAtTick(params.tickUpper) */\n      tag_586\n        /* \"contracts/uniswap/UniswapV3Pool.sol\":12801:12807  params */\n      dup8\n        /* \"contracts/uniswap/UniswapV3Pool.sol\":12801:12817  params.tickUpper */\n      0x40\n      add\n      mload\n        /* \"contracts/uniswap/UniswapV3Pool.sol\":12773:12800  TickMath.getSqrtRatioAtTick */\n      tag_151\n        /* \"contracts/uniswap/UniswapV3Pool.sol\":12773:12818  TickMath.getSqrtRatioAtTick(params.tickUpper) */\n      jump\t// in\n    tag_586:\n        /* \"contracts/uniswap/UniswapV3Pool.sol\":12840:12846  params */\n      dup8\n        /* \"contracts/uniswap/UniswapV3Pool.sol\":12840:12861  params.liquidityDelta */\n      0x60\n      add\n      mload\n        /* \"contracts/uniswap/UniswapV3Pool.sol\":12655:12684  SqrtPriceMath.getAmount0Delta */\n      tag_587\n        /* \"contracts/uniswap/UniswapV3Pool.sol\":12655:12879  SqrtPriceMath.getAmount0Delta(... */\n      jump\t// in\n    tag_584:\n        /* \"contracts/uniswap/UniswapV3Pool.sol\":12645:12879  amount0 = SqrtPriceMath.getAmount0Delta(... */\n      swap3\n      pop\n        /* \"contracts/uniswap/UniswapV3Pool.sol\":12362:14554  if (_slot0.tick < params.tickLower) {... */\n      jump(tag_598)\n    tag_583:\n        /* \"contracts/uniswap/UniswapV3Pool.sol\":12918:12924  params */\n      dup5\n        /* \"contracts/uniswap/UniswapV3Pool.sol\":12918:12934  params.tickUpper */\n      0x40\n      add\n      mload\n        /* \"contracts/uniswap/UniswapV3Pool.sol\":12904:12934  _slot0.tick < params.tickUpper */\n      0x02\n      signextend\n        /* \"contracts/uniswap/UniswapV3Pool.sol\":12904:12910  _slot0 */\n      dup2\n        /* \"contracts/uniswap/UniswapV3Pool.sol\":12904:12915  _slot0.tick */\n      0x20\n      add\n      mload\n        /* \"contracts/uniswap/UniswapV3Pool.sol\":12904:12934  _slot0.tick < params.tickUpper */\n      0x02\n      signextend\n      slt\n        /* \"contracts/uniswap/UniswapV3Pool.sol\":12900:14554  if (_slot0.tick < params.tickUpper) {... */\n      iszero\n      tag_589\n      jumpi\n        /* \"contracts/uniswap/UniswapV3Pool.sol\":13039:13048  liquidity */\n      sload(0x04)\n        /* \"contracts/uniswap/UniswapV3Pool.sol\":13235:13258  _slot0.observationIndex */\n      0x40\n      dup3\n      add\n      mload\n        /* \"contracts/uniswap/UniswapV3Pool.sol\":13039:13048  liquidity */\n      0xffffffffffffffffffffffffffffffff\n      swap1\n      swap2\n      and\n      swap1\n        /* \"contracts/uniswap/UniswapV3Pool.sol\":13195:13491  observations.write(... */\n      tag_590\n      swap1\n        /* \"contracts/uniswap/UniswapV3Pool.sol\":13280:13297  _blockTimestamp() */\n      tag_591\n        /* \"contracts/uniswap/UniswapV3Pool.sol\":13280:13295  _blockTimestamp */\n      tag_137\n        /* \"contracts/uniswap/UniswapV3Pool.sol\":13280:13297  _blockTimestamp() */\n      jump\t// in\n    tag_591:\n        /* \"contracts/uniswap/UniswapV3Pool.sol\":13319:13330  _slot0.tick */\n      0x20\n      dup6\n      add\n      mload\n        /* \"contracts/uniswap/UniswapV3Pool.sol\":13389:13418  _slot0.observationCardinality */\n      0x60\n      dup7\n      add\n      mload\n        /* \"contracts/uniswap/UniswapV3Pool.sol\":13440:13473  _slot0.observationCardinalityNext */\n      0x80\n      dup8\n      add\n      mload\n        /* \"contracts/uniswap/UniswapV3Pool.sol\":13195:13207  observations */\n      0x08\n      swap5\n        /* \"contracts/uniswap/UniswapV3Pool.sol\":13195:13491  observations.write(... */\n      swap4\n      swap3\n        /* \"contracts/uniswap/UniswapV3Pool.sol\":13319:13330  _slot0.tick */\n      swap2\n        /* \"contracts/uniswap/UniswapV3Pool.sol\":13352:13367  liquidityBefore */\n      dup8\n      swap2\n        /* \"contracts/uniswap/UniswapV3Pool.sol\":13195:13213  observations.write */\n      tag_196\n        /* \"contracts/uniswap/UniswapV3Pool.sol\":13195:13491  observations.write(... */\n      jump\t// in\n    tag_590:\n        /* \"contracts/uniswap/UniswapV3Pool.sol\":13139:13144  slot0 */\n      0x00\n        /* \"contracts/uniswap/UniswapV3Pool.sol\":13138:13491  (slot0.observationIndex, slot0.observationCardinality) = observations.write(... */\n      dup1\n      sload\n      0xffffffffff0000ffffffffffffffffffffffffffffffffffffffffffffffffff\n      and\n      0x0100000000000000000000000000000000000000000000000000\n      0xffff\n      swap4\n      dup5\n      and\n      mul\n      or\n      0xffffffffffffff0000ffffffffffffffffffffffffffffffffffffffffffffff\n      and\n      0x010000000000000000000000000000000000000000000000\n      swap4\n      swap1\n      swap3\n      and\n      swap3\n      swap1\n      swap3\n      mul\n      or\n      swap1\n      sstore\n        /* \"contracts/uniswap/UniswapV3Pool.sol\":13571:13590  _slot0.sqrtPriceX96 */\n      dup2\n      mload\n        /* \"contracts/uniswap/UniswapV3Pool.sol\":13640:13656  params.tickUpper */\n      0x40\n      dup8\n      add\n      mload\n        /* \"contracts/uniswap/UniswapV3Pool.sol\":13520:13718  SqrtPriceMath.getAmount0Delta(... */\n      tag_592\n      swap2\n        /* \"contracts/uniswap/UniswapV3Pool.sol\":13571:13590  _slot0.sqrtPriceX96 */\n      swap1\n        /* \"contracts/uniswap/UniswapV3Pool.sol\":13612:13657  TickMath.getSqrtRatioAtTick(params.tickUpper) */\n      tag_593\n      swap1\n        /* \"contracts/uniswap/UniswapV3Pool.sol\":13612:13639  TickMath.getSqrtRatioAtTick */\n      tag_151\n        /* \"contracts/uniswap/UniswapV3Pool.sol\":13612:13657  TickMath.getSqrtRatioAtTick(params.tickUpper) */\n      jump\t// in\n    tag_593:\n        /* \"contracts/uniswap/UniswapV3Pool.sol\":13679:13685  params */\n      dup9\n        /* \"contracts/uniswap/UniswapV3Pool.sol\":13679:13700  params.liquidityDelta */\n      0x60\n      add\n      mload\n        /* \"contracts/uniswap/UniswapV3Pool.sol\":13520:13549  SqrtPriceMath.getAmount0Delta */\n      tag_587\n        /* \"contracts/uniswap/UniswapV3Pool.sol\":13520:13718  SqrtPriceMath.getAmount0Delta(... */\n      jump\t// in\n    tag_592:\n        /* \"contracts/uniswap/UniswapV3Pool.sol\":13510:13718  amount0 = SqrtPriceMath.getAmount0Delta(... */\n      swap4\n      pop\n        /* \"contracts/uniswap/UniswapV3Pool.sol\":13746:13944  SqrtPriceMath.getAmount1Delta(... */\n      tag_594\n        /* \"contracts/uniswap/UniswapV3Pool.sol\":13797:13842  TickMath.getSqrtRatioAtTick(params.tickLower) */\n      tag_595\n        /* \"contracts/uniswap/UniswapV3Pool.sol\":13825:13831  params */\n      dup8\n        /* \"contracts/uniswap/UniswapV3Pool.sol\":13825:13841  params.tickLower */\n      0x20\n      add\n      mload\n        /* \"contracts/uniswap/UniswapV3Pool.sol\":13797:13824  TickMath.getSqrtRatioAtTick */\n      tag_151\n        /* \"contracts/uniswap/UniswapV3Pool.sol\":13797:13842  TickMath.getSqrtRatioAtTick(params.tickLower) */\n      jump\t// in\n    tag_595:\n        /* \"contracts/uniswap/UniswapV3Pool.sol\":13864:13883  _slot0.sqrtPriceX96 */\n      dup4\n      mload\n        /* \"contracts/uniswap/UniswapV3Pool.sol\":13905:13926  params.liquidityDelta */\n      0x60\n      dup10\n      add\n      mload\n        /* \"contracts/uniswap/UniswapV3Pool.sol\":13746:13775  SqrtPriceMath.getAmount1Delta */\n      tag_596\n        /* \"contracts/uniswap/UniswapV3Pool.sol\":13746:13944  SqrtPriceMath.getAmount1Delta(... */\n      jump\t// in\n    tag_594:\n        /* \"contracts/uniswap/UniswapV3Pool.sol\":13736:13944  amount1 = SqrtPriceMath.getAmount1Delta(... */\n      swap3\n      pop\n        /* \"contracts/uniswap/UniswapV3Pool.sol\":13975:14037  LiquidityMath.addDelta(liquidityBefore, params.liquidityDelta) */\n      tag_597\n        /* \"contracts/uniswap/UniswapV3Pool.sol\":13998:14013  liquidityBefore */\n      dup2\n        /* \"contracts/uniswap/UniswapV3Pool.sol\":14015:14021  params */\n      dup8\n        /* \"contracts/uniswap/UniswapV3Pool.sol\":14015:14036  params.liquidityDelta */\n      0x60\n      add\n      mload\n        /* \"contracts/uniswap/UniswapV3Pool.sol\":13975:13997  LiquidityMath.addDelta */\n      tag_187\n        /* \"contracts/uniswap/UniswapV3Pool.sol\":13975:14037  LiquidityMath.addDelta(liquidityBefore, params.liquidityDelta) */\n      jump\t// in\n    tag_597:\n        /* \"contracts/uniswap/UniswapV3Pool.sol\":13963:13972  liquidity */\n      0x04\n        /* \"contracts/uniswap/UniswapV3Pool.sol\":13963:14037  liquidity = LiquidityMath.addDelta(liquidityBefore, params.liquidityDelta) */\n      dup1\n      sload\n      0xffffffffffffffffffffffffffffffff00000000000000000000000000000000\n      and\n      0xffffffffffffffffffffffffffffffff\n      swap3\n      swap1\n      swap3\n      and\n      swap2\n      swap1\n      swap2\n      or\n      swap1\n      sstore\n      pop\n        /* \"contracts/uniswap/UniswapV3Pool.sol\":12900:14554  if (_slot0.tick < params.tickUpper) {... */\n      jump(tag_598)\n    tag_589:\n        /* \"contracts/uniswap/UniswapV3Pool.sol\":14315:14539  SqrtPriceMath.getAmount1Delta(... */\n      tag_599\n        /* \"contracts/uniswap/UniswapV3Pool.sol\":14366:14411  TickMath.getSqrtRatioAtTick(params.tickLower) */\n      tag_600\n        /* \"contracts/uniswap/UniswapV3Pool.sol\":14394:14400  params */\n      dup7\n        /* \"contracts/uniswap/UniswapV3Pool.sol\":14394:14410  params.tickLower */\n      0x20\n      add\n      mload\n        /* \"contracts/uniswap/UniswapV3Pool.sol\":14366:14393  TickMath.getSqrtRatioAtTick */\n      tag_151\n        /* \"contracts/uniswap/UniswapV3Pool.sol\":14366:14411  TickMath.getSqrtRatioAtTick(params.tickLower) */\n      jump\t// in\n    tag_600:\n        /* \"contracts/uniswap/UniswapV3Pool.sol\":14433:14478  TickMath.getSqrtRatioAtTick(params.tickUpper) */\n      tag_601\n        /* \"contracts/uniswap/UniswapV3Pool.sol\":14461:14467  params */\n      dup8\n        /* \"contracts/uniswap/UniswapV3Pool.sol\":14461:14477  params.tickUpper */\n      0x40\n      add\n      mload\n        /* \"contracts/uniswap/UniswapV3Pool.sol\":14433:14460  TickMath.getSqrtRatioAtTick */\n      tag_151\n        /* \"contracts/uniswap/UniswapV3Pool.sol\":14433:14478  TickMath.getSqrtRatioAtTick(params.tickUpper) */\n      jump\t// in\n    tag_601:\n        /* \"contracts/uniswap/UniswapV3Pool.sol\":14500:14506  params */\n      dup8\n        /* \"contracts/uniswap/UniswapV3Pool.sol\":14500:14521  params.liquidityDelta */\n      0x60\n      add\n      mload\n        /* \"contracts/uniswap/UniswapV3Pool.sol\":14315:14344  SqrtPriceMath.getAmount1Delta */\n      tag_596\n        /* \"contracts/uniswap/UniswapV3Pool.sol\":14315:14539  SqrtPriceMath.getAmount1Delta(... */\n      jump\t// in\n    tag_599:\n        /* \"contracts/uniswap/UniswapV3Pool.sol\":14305:14539  amount1 = SqrtPriceMath.getAmount1Delta(... */\n      swap2\n      pop\n        /* \"contracts/uniswap/UniswapV3Pool.sol\":12900:14554  if (_slot0.tick < params.tickUpper) {... */\n    tag_598:\n        /* \"contracts/uniswap/NoDelegateCall.sol\":1068:1069  _ */\n      pop\n        /* \"contracts/uniswap/UniswapV3Pool.sol\":11757:14570  function _modifyPosition(ModifyPositionParams memory params)... */\n      swap2\n      swap4\n      swap1\n      swap3\n      pop\n      jump\t// out\n        /* \"contracts/uniswap/libraries/FullMath.sol\":4807:5122  function mulDivRoundingUp(... */\n    tag_269:\n        /* \"contracts/uniswap/libraries/FullMath.sol\":4929:4943  uint256 result */\n      0x00\n        /* \"contracts/uniswap/libraries/FullMath.sol\":4964:4989  mulDiv(a, b, denominator) */\n      tag_603\n        /* \"contracts/uniswap/libraries/FullMath.sol\":4971:4972  a */\n      dup5\n        /* \"contracts/uniswap/libraries/FullMath.sol\":4974:4975  b */\n      dup5\n        /* \"contracts/uniswap/libraries/FullMath.sol\":4977:4988  denominator */\n      dup5\n        /* \"contracts/uniswap/libraries/FullMath.sol\":4964:4970  mulDiv */\n      tag_173\n        /* \"contracts/uniswap/libraries/FullMath.sol\":4964:4989  mulDiv(a, b, denominator) */\n      jump\t// in\n    tag_603:\n        /* \"contracts/uniswap/libraries/FullMath.sol\":4955:4989  result = mulDiv(a, b, denominator) */\n      swap1\n      pop\n        /* \"contracts/uniswap/libraries/FullMath.sol\":5031:5032  0 */\n      0x00\n        /* \"contracts/uniswap/libraries/FullMath.sol\":5016:5027  denominator */\n      dup3\n        /* \"contracts/uniswap/libraries/FullMath.sol\":5003:5028  mulmod(a, b, denominator) */\n      dup1\n      tag_604\n      jumpi\n      invalid\n    tag_604:\n        /* \"contracts/uniswap/libraries/FullMath.sol\":5013:5014  b */\n      dup5\n        /* \"contracts/uniswap/libraries/FullMath.sol\":5010:5011  a */\n      dup7\n        /* \"contracts/uniswap/libraries/FullMath.sol\":5003:5028  mulmod(a, b, denominator) */\n      mulmod\n        /* \"contracts/uniswap/libraries/FullMath.sol\":5003:5032  mulmod(a, b, denominator) > 0 */\n      gt\n        /* \"contracts/uniswap/libraries/FullMath.sol\":4999:5116  if (mulmod(a, b, denominator) > 0) {... */\n      iszero\n      tag_487\n      jumpi\n        /* \"contracts/uniswap/libraries/FullMath.sol\":5065:5082  type(uint256).max */\n      0xffffffffffffffffffffffffffffffffffffffffffffffffffffffffffffffff\n        /* \"contracts/uniswap/libraries/FullMath.sol\":5056:5062  result */\n      dup2\n        /* \"contracts/uniswap/libraries/FullMath.sol\":5056:5082  result < type(uint256).max */\n      lt\n        /* \"contracts/uniswap/libraries/FullMath.sol\":5048:5083  require(result < type(uint256).max) */\n      tag_606\n      jumpi\n      0x00\n      dup1\n      revert\n    tag_606:\n        /* \"contracts/uniswap/libraries/FullMath.sol\":5097:5105  result++ */\n      0x01\n      add\n        /* \"contracts/uniswap/libraries/FullMath.sol\":4807:5122  function mulDivRoundingUp(... */\n      swap4\n      swap3\n      pop\n      pop\n      pop\n      jump\t// out\n        /* \"contracts/uniswap/libraries/Position.sol\":1253:1537  function get(... */\n    tag_303:\n        /* \"contracts/uniswap/libraries/Position.sol\":1483:1528  abi.encodePacked(owner, tickLower, tickUpper) */\n      0x40\n      dup1\n      mload\n      0x60\n      swap5\n      swap1\n      swap5\n      shl\n      0xffffffffffffffffffffffffffffffffffffffff000000000000000000000000\n      and\n      0x20\n      dup1\n      dup7\n      add\n      swap2\n      swap1\n      swap2\n      mstore\n      0x02\n      swap4\n      dup5\n      signextend\n      0xe8\n      swap1\n      dup2\n      shl\n      0x34\n      dup8\n      add\n      mstore\n      swap3\n      swap1\n      swap4\n      signextend\n      swap1\n      swap2\n      shl\n      0x37\n      dup5\n      add\n      mstore\n      dup1\n      mload\n      dup1\n      dup5\n      sub\n      0x1a\n      add\n      dup2\n      mstore\n      0x3a\n      swap1\n      swap4\n      add\n      dup2\n      mstore\n        /* \"contracts/uniswap/libraries/Position.sol\":1473:1529  keccak256(abi.encodePacked(owner, tickLower, tickUpper)) */\n      dup3\n      mload\n      swap3\n      dup3\n      add\n      swap3\n      swap1\n      swap3\n      keccak256\n      0x00\n        /* \"contracts/uniswap/libraries/Position.sol\":1468:1530  self[keccak256(abi.encodePacked(owner, tickLower, tickUpper))] */\n      swap1\n      dup2\n      mstore\n      swap3\n      swap1\n      mstore\n      swap1\n      keccak256\n      swap1\n        /* \"contracts/uniswap/libraries/Position.sol\":1253:1537  function get(... */\n      jump\t// out\n        /* \"contracts/uniswap/libraries/Oracle.sol\":15550:16412  function observe(... */\n    tag_352:\n        /* \"contracts/uniswap/libraries/Oracle.sol\":15792:15822  int56[] memory tickCumulatives */\n      0x60\n        /* \"contracts/uniswap/libraries/Oracle.sol\":15824:15875  uint160[] memory secondsPerLiquidityCumulativeX128s */\n      dup1\n        /* \"contracts/uniswap/libraries/Oracle.sol\":15909:15910  0 */\n      0x00\n        /* \"contracts/uniswap/libraries/Oracle.sol\":15895:15906  cardinality */\n      dup4\n        /* \"contracts/uniswap/libraries/Oracle.sol\":15895:15910  cardinality > 0 */\n      0xffff\n      and\n      gt\n        /* \"contracts/uniswap/libraries/Oracle.sol\":15887:15916  require(cardinality > 0, 'I') */\n      tag_609\n      jumpi\n      0x00\n      dup1\n      revert\n    tag_609:\n        /* \"contracts/uniswap/libraries/Oracle.sol\":15957:15968  secondsAgos */\n      dup7\n        /* \"contracts/uniswap/libraries/Oracle.sol\":15957:15975  secondsAgos.length */\n      mload\n        /* \"contracts/uniswap/libraries/Oracle.sol\":15945:15976  new int56[](secondsAgos.length) */\n      0xffffffffffffffff\n      dup2\n      gt\n      dup1\n      iszero\n      tag_610\n      jumpi\n      0x00\n      dup1\n      revert\n    tag_610:\n      pop\n      mload(0x40)\n      swap1\n      dup1\n      dup3\n      mstore\n      dup1\n      0x20\n      mul\n      0x20\n      add\n      dup3\n      add\n      0x40\n      mstore\n      dup1\n      iszero\n      tag_611\n      jumpi\n      dup2\n      0x20\n      add\n      0x20\n      dup3\n      mul\n      dup1\n      calldatasize\n      dup4\n      calldatacopy\n      add\n      swap1\n      pop\n    tag_611:\n      pop\n        /* \"contracts/uniswap/libraries/Oracle.sol\":15927:15976  tickCumulatives = new int56[](secondsAgos.length) */\n      swap2\n      pop\n        /* \"contracts/uniswap/libraries/Oracle.sol\":16037:16048  secondsAgos */\n      dup7\n        /* \"contracts/uniswap/libraries/Oracle.sol\":16037:16055  secondsAgos.length */\n      mload\n        /* \"contracts/uniswap/libraries/Oracle.sol\":16023:16056  new uint160[](secondsAgos.length) */\n      0xffffffffffffffff\n      dup2\n      gt\n      dup1\n      iszero\n      tag_612\n      jumpi\n      0x00\n      dup1\n      revert\n    tag_612:\n      pop\n      mload(0x40)\n      swap1\n      dup1\n      dup3\n      mstore\n      dup1\n      0x20\n      mul\n      0x20\n      add\n      dup3\n      add\n      0x40\n      mstore\n      dup1\n      iszero\n      tag_613\n      jumpi\n      dup2\n      0x20\n      add\n      0x20\n      dup3\n      mul\n      dup1\n      calldatasize\n      dup4\n      calldatacopy\n      add\n      swap1\n      pop\n    tag_613:\n      pop\n        /* \"contracts/uniswap/libraries/Oracle.sol\":15986:16056  secondsPerLiquidityCumulativeX128s = new uint160[](secondsAgos.length) */\n      swap1\n      pop\n        /* \"contracts/uniswap/libraries/Oracle.sol\":16071:16080  uint256 i */\n      0x00\n        /* \"contracts/uniswap/libraries/Oracle.sol\":16066:16406  for (uint256 i = 0; i < secondsAgos.length; i++) {... */\n    tag_614:\n        /* \"contracts/uniswap/libraries/Oracle.sol\":16090:16101  secondsAgos */\n      dup8\n        /* \"contracts/uniswap/libraries/Oracle.sol\":16090:16108  secondsAgos.length */\n      mload\n        /* \"contracts/uniswap/libraries/Oracle.sol\":16086:16087  i */\n      dup2\n        /* \"contracts/uniswap/libraries/Oracle.sol\":16086:16108  i < secondsAgos.length */\n      lt\n        /* \"contracts/uniswap/libraries/Oracle.sol\":16066:16406  for (uint256 i = 0; i < secondsAgos.length; i++) {... */\n      iszero\n      tag_615\n      jumpi\n        /* \"contracts/uniswap/libraries/Oracle.sol\":16191:16395  observeSingle(... */\n      tag_617\n        /* \"contracts/uniswap/libraries/Oracle.sol\":16222:16226  self */\n      dup11\n        /* \"contracts/uniswap/libraries/Oracle.sol\":16244:16248  time */\n      dup11\n        /* \"contracts/uniswap/libraries/Oracle.sol\":16266:16277  secondsAgos */\n      dup11\n        /* \"contracts/uniswap/libraries/Oracle.sol\":16278:16279  i */\n      dup5\n        /* \"contracts/uniswap/libraries/Oracle.sol\":16266:16280  secondsAgos[i] */\n      dup2\n      mload\n      dup2\n      lt\n      tag_618\n      jumpi\n      invalid\n    tag_618:\n      0x20\n      mul\n      0x20\n      add\n      add\n      mload\n        /* \"contracts/uniswap/libraries/Oracle.sol\":16298:16302  tick */\n      dup11\n        /* \"contracts/uniswap/libraries/Oracle.sol\":16320:16325  index */\n      dup11\n        /* \"contracts/uniswap/libraries/Oracle.sol\":16343:16352  liquidity */\n      dup11\n        /* \"contracts/uniswap/libraries/Oracle.sol\":16370:16381  cardinality */\n      dup11\n        /* \"contracts/uniswap/libraries/Oracle.sol\":16191:16204  observeSingle */\n      tag_178\n        /* \"contracts/uniswap/libraries/Oracle.sol\":16191:16395  observeSingle(... */\n      jump\t// in\n    tag_617:\n        /* \"contracts/uniswap/libraries/Oracle.sol\":16130:16145  tickCumulatives */\n      dup5\n        /* \"contracts/uniswap/libraries/Oracle.sol\":16146:16147  i */\n      dup4\n        /* \"contracts/uniswap/libraries/Oracle.sol\":16130:16148  tickCumulatives[i] */\n      dup2\n      mload\n      dup2\n      lt\n      tag_619\n      jumpi\n      invalid\n    tag_619:\n      0x20\n      mul\n      0x20\n      add\n      add\n        /* \"contracts/uniswap/libraries/Oracle.sol\":16150:16184  secondsPerLiquidityCumulativeX128s */\n      dup5\n        /* \"contracts/uniswap/libraries/Oracle.sol\":16185:16186  i */\n      dup5\n        /* \"contracts/uniswap/libraries/Oracle.sol\":16150:16187  secondsPerLiquidityCumulativeX128s[i] */\n      dup2\n      mload\n      dup2\n      lt\n      tag_620\n      jumpi\n      invalid\n    tag_620:\n      0x20\n      mul\n      0x20\n      add\n      add\n        /* \"contracts/uniswap/libraries/Oracle.sol\":16129:16395  (tickCumulatives[i], secondsPerLiquidityCumulativeX128s[i]) = observeSingle(... */\n      dup3\n      sub(shl(0xa0, 0x01), 0x01)\n      and\n      sub(shl(0xa0, 0x01), 0x01)\n      and\n      dup2\n      mstore\n      pop\n      dup3\n      0x06\n      signextend\n      0x06\n      signextend\n      dup2\n      mstore\n      pop\n      pop\n      pop\n        /* \"contracts/uniswap/libraries/Oracle.sol\":16110:16113  i++ */\n      dup1\n      dup1\n      0x01\n      add\n      swap2\n      pop\n      pop\n        /* \"contracts/uniswap/libraries/Oracle.sol\":16066:16406  for (uint256 i = 0; i < secondsAgos.length; i++) {... */\n      jump(tag_614)\n    tag_615:\n      pop\n        /* \"contracts/uniswap/libraries/Oracle.sol\":15550:16412  function observe(... */\n      swap8\n      pop\n      swap8\n      swap6\n      pop\n      pop\n      pop\n      pop\n      pop\n      pop\n      jump\t// out\n        /* \"contracts/uniswap/UniswapV3Pool.sol\":4664:4897  function checkTicks(int24 tickLower, int24 tickUpper) private pure {... */\n    tag_364:\n        /* \"contracts/uniswap/UniswapV3Pool.sol\":4761:4770  tickUpper */\n      dup1\n        /* \"contracts/uniswap/UniswapV3Pool.sol\":4749:4770  tickLower < tickUpper */\n      0x02\n      signextend\n        /* \"contracts/uniswap/UniswapV3Pool.sol\":4749:4758  tickLower */\n      dup3\n        /* \"contracts/uniswap/UniswapV3Pool.sol\":4749:4770  tickLower < tickUpper */\n      0x02\n      signextend\n      slt\n        /* \"contracts/uniswap/UniswapV3Pool.sol\":4741:4778  require(tickLower < tickUpper, 'TLU') */\n      tag_622\n      jumpi\n      0x00\n      dup1\n      revert\n    tag_622:\n        /* \"contracts/uniswap/libraries/TickMath.sol\":484:491  -887272 */\n      0xfffffffffffffffffffffffffffffffffffffffffffffffffffffffffff27618\n        /* \"contracts/uniswap/UniswapV3Pool.sol\":4796:4826  tickLower >= TickMath.MIN_TICK */\n      0x02\n      dup4\n      swap1\n      signextend\n      slt\n      iszero\n        /* \"contracts/uniswap/UniswapV3Pool.sol\":4788:4834  require(tickLower >= TickMath.MIN_TICK, 'TLM') */\n      tag_623\n      jumpi\n      0x00\n      dup1\n      revert\n    tag_623:\n        /* \"contracts/uniswap/libraries/TickMath.sol\":644:653  -MIN_TICK */\n      0x0d89e8\n        /* \"contracts/uniswap/UniswapV3Pool.sol\":4852:4882  tickUpper <= TickMath.MAX_TICK */\n      0x02\n      dup3\n      swap1\n      signextend\n      sgt\n      iszero\n        /* \"contracts/uniswap/UniswapV3Pool.sol\":4844:4890  require(tickUpper <= TickMath.MAX_TICK, 'TUM') */\n      tag_624\n      jumpi\n      0x00\n      dup1\n      revert\n    tag_624:\n        /* \"contracts/uniswap/UniswapV3Pool.sol\":4664:4897  function checkTicks(int24 tickLower, int24 tickUpper) private pure {... */\n      pop\n      pop\n      jump\t// out\n        /* \"contracts/uniswap/libraries/Oracle.sol\":2895:3262  function initialize(Observation[65535] storage self, uint32 time)... */\n    tag_378:\n        /* \"contracts/uniswap/libraries/Oracle.sol\":3063:3232  Observation({... */\n      0x40\n      dup1\n      mload\n      0x80\n      dup2\n      add\n      dup3\n      mstore\n      0xffffffff\n      swap3\n      dup4\n      and\n      dup1\n      dup3\n      mstore\n      0x00\n      0x20\n      dup4\n      add\n      dup2\n      swap1\n      mstore\n      swap3\n      dup3\n      add\n      swap3\n      swap1\n      swap3\n      mstore\n        /* \"contracts/uniswap/libraries/Oracle.sol\":3217:3221  true */\n      0x01\n        /* \"contracts/uniswap/libraries/Oracle.sol\":3063:3232  Observation({... */\n      0x60\n      swap1\n      swap2\n      add\n      dup2\n      swap1\n      mstore\n        /* \"contracts/uniswap/libraries/Oracle.sol\":3053:3232  self[0] = Observation({... */\n      dup4\n      sload\n      0xffffffffffffffffffffffffffffffffffffffffffffffffffffffff00000000\n      and\n      swap1\n      swap2\n      or\n      swap1\n      swap2\n      and\n      0x0100000000000000000000000000000000000000000000000000000000000000\n      or\n      swap1\n      swap2\n      sstore\n        /* \"contracts/uniswap/libraries/Oracle.sol\":3217:3221  true */\n      swap1\n      dup2\n      swap1\n        /* \"contracts/uniswap/libraries/Oracle.sol\":2895:3262  function initialize(Observation[65535] storage self, uint32 time)... */\n      jump\t// out\n        /* \"contracts/uniswap/libraries/TickBitmap.sol\":685:845  function position(int24 tick) private pure returns (int16 wordPos, uint8 bitPos) {... */\n    tag_394:\n        /* \"contracts/uniswap/libraries/TickBitmap.sol\":792:801  tick >> 8 */\n      0x02\n      signextend\n        /* \"contracts/uniswap/libraries/TickBitmap.sol\":800:801  8 */\n      0x08\n        /* \"contracts/uniswap/libraries/TickBitmap.sol\":792:801  tick >> 8 */\n      dup2\n      swap1\n      sar\n      swap2\n        /* \"contracts/uniswap/libraries/TickBitmap.sol\":834:837  256 */\n      0x0100\n        /* \"contracts/uniswap/libraries/TickBitmap.sol\":827:837  tick % 256 */\n      swap1\n      swap2\n      smod\n      swap1\n        /* \"contracts/uniswap/libraries/TickBitmap.sol\":685:845  function position(int24 tick) private pure returns (int16 wordPos, uint8 bitPos) {... */\n      jump\t// out\n        /* \"contracts/uniswap/libraries/BitMath.sol\":671:1402  function mostSignificantBit(uint256 x) internal pure returns (uint8 r) {... */\n    tag_398:\n        /* \"contracts/uniswap/libraries/BitMath.sol\":733:740  uint8 r */\n      0x00\n        /* \"contracts/uniswap/libraries/BitMath.sol\":764:765  0 */\n      dup1\n        /* \"contracts/uniswap/libraries/BitMath.sol\":760:761  x */\n      dup3\n        /* \"contracts/uniswap/libraries/BitMath.sol\":760:765  x > 0 */\n      gt\n        /* \"contracts/uniswap/libraries/BitMath.sol\":752:766  require(x > 0) */\n      tag_631\n      jumpi\n      0x00\n      dup1\n      revert\n    tag_631:\n        /* \"contracts/uniswap/libraries/BitMath.sol\":786:821  0x100000000000000000000000000000000 */\n      0x0100000000000000000000000000000000\n        /* \"contracts/uniswap/libraries/BitMath.sol\":781:782  x */\n      dup3\n        /* \"contracts/uniswap/libraries/BitMath.sol\":781:821  x >= 0x100000000000000000000000000000000 */\n      lt\n        /* \"contracts/uniswap/libraries/BitMath.sol\":777:879  if (x >= 0x100000000000000000000000000000000) {... */\n      tag_632\n      jumpi\n        /* \"contracts/uniswap/libraries/BitMath.sol\":843:846  128 */\n      0x80\n        /* \"contracts/uniswap/libraries/BitMath.sol\":837:846  x >>= 128 */\n      swap2\n      dup3\n      shr\n      swap2\n        /* \"contracts/uniswap/libraries/BitMath.sol\":860:868  r += 128 */\n      add\n        /* \"contracts/uniswap/libraries/BitMath.sol\":777:879  if (x >= 0x100000000000000000000000000000000) {... */\n    tag_632:\n        /* \"contracts/uniswap/libraries/BitMath.sol\":897:916  0x10000000000000000 */\n      0x010000000000000000\n        /* \"contracts/uniswap/libraries/BitMath.sol\":892:893  x */\n      dup3\n        /* \"contracts/uniswap/libraries/BitMath.sol\":892:916  x >= 0x10000000000000000 */\n      lt\n        /* \"contracts/uniswap/libraries/BitMath.sol\":888:972  if (x >= 0x10000000000000000) {... */\n      tag_633\n      jumpi\n        /* \"contracts/uniswap/libraries/BitMath.sol\":938:940  64 */\n      0x40\n        /* \"contracts/uniswap/libraries/BitMath.sol\":932:940  x >>= 64 */\n      swap2\n      dup3\n      shr\n      swap2\n        /* \"contracts/uniswap/libraries/BitMath.sol\":954:961  r += 64 */\n      add\n        /* \"contracts/uniswap/libraries/BitMath.sol\":888:972  if (x >= 0x10000000000000000) {... */\n    tag_633:\n        /* \"contracts/uniswap/libraries/BitMath.sol\":990:1001  0x100000000 */\n      0x0100000000\n        /* \"contracts/uniswap/libraries/BitMath.sol\":985:986  x */\n      dup3\n        /* \"contracts/uniswap/libraries/BitMath.sol\":985:1001  x >= 0x100000000 */\n      lt\n        /* \"contracts/uniswap/libraries/BitMath.sol\":981:1057  if (x >= 0x100000000) {... */\n      tag_634\n      jumpi\n        /* \"contracts/uniswap/libraries/BitMath.sol\":1023:1025  32 */\n      0x20\n        /* \"contracts/uniswap/libraries/BitMath.sol\":1017:1025  x >>= 32 */\n      swap2\n      dup3\n      shr\n      swap2\n        /* \"contracts/uniswap/libraries/BitMath.sol\":1039:1046  r += 32 */\n      add\n        /* \"contracts/uniswap/libraries/BitMath.sol\":981:1057  if (x >= 0x100000000) {... */\n    tag_634:\n        /* \"contracts/uniswap/libraries/BitMath.sol\":1075:1082  0x10000 */\n      0x010000\n        /* \"contracts/uniswap/libraries/BitMath.sol\":1070:1071  x */\n      dup3\n        /* \"contracts/uniswap/libraries/BitMath.sol\":1070:1082  x >= 0x10000 */\n      lt\n        /* \"contracts/uniswap/libraries/BitMath.sol\":1066:1138  if (x >= 0x10000) {... */\n      tag_635\n      jumpi\n        /* \"contracts/uniswap/libraries/BitMath.sol\":1104:1106  16 */\n      0x10\n        /* \"contracts/uniswap/libraries/BitMath.sol\":1098:1106  x >>= 16 */\n      swap2\n      dup3\n      shr\n      swap2\n        /* \"contracts/uniswap/libraries/BitMath.sol\":1120:1127  r += 16 */\n      add\n        /* \"contracts/uniswap/libraries/BitMath.sol\":1066:1138  if (x >= 0x10000) {... */\n    tag_635:\n        /* \"contracts/uniswap/libraries/BitMath.sol\":1156:1161  0x100 */\n      0x0100\n        /* \"contracts/uniswap/libraries/BitMath.sol\":1151:1152  x */\n      dup3\n        /* \"contracts/uniswap/libraries/BitMath.sol\":1151:1161  x >= 0x100 */\n      lt\n        /* \"contracts/uniswap/libraries/BitMath.sol\":1147:1215  if (x >= 0x100) {... */\n      tag_636\n      jumpi\n        /* \"contracts/uniswap/libraries/BitMath.sol\":1183:1184  8 */\n      0x08\n        /* \"contracts/uniswap/libraries/BitMath.sol\":1177:1184  x >>= 8 */\n      swap2\n      dup3\n      shr\n      swap2\n        /* \"contracts/uniswap/libraries/BitMath.sol\":1198:1204  r += 8 */\n      add\n        /* \"contracts/uniswap/libraries/BitMath.sol\":1147:1215  if (x >= 0x100) {... */\n    tag_636:\n        /* \"contracts/uniswap/libraries/BitMath.sol\":1233:1237  0x10 */\n      0x10\n        /* \"contracts/uniswap/libraries/BitMath.sol\":1228:1229  x */\n      dup3\n        /* \"contracts/uniswap/libraries/BitMath.sol\":1228:1237  x >= 0x10 */\n      lt\n        /* \"contracts/uniswap/libraries/BitMath.sol\":1224:1291  if (x >= 0x10) {... */\n      tag_637\n      jumpi\n        /* \"contracts/uniswap/libraries/BitMath.sol\":1259:1260  4 */\n      0x04\n        /* \"contracts/uniswap/libraries/BitMath.sol\":1253:1260  x >>= 4 */\n      swap2\n      dup3\n      shr\n      swap2\n        /* \"contracts/uniswap/libraries/BitMath.sol\":1274:1280  r += 4 */\n      add\n        /* \"contracts/uniswap/libraries/BitMath.sol\":1224:1291  if (x >= 0x10) {... */\n    tag_637:\n        /* \"contracts/uniswap/libraries/BitMath.sol\":1309:1312  0x4 */\n      0x04\n        /* \"contracts/uniswap/libraries/BitMath.sol\":1304:1305  x */\n      dup3\n        /* \"contracts/uniswap/libraries/BitMath.sol\":1304:1312  x >= 0x4 */\n      lt\n        /* \"contracts/uniswap/libraries/BitMath.sol\":1300:1366  if (x >= 0x4) {... */\n      tag_638\n      jumpi\n        /* \"contracts/uniswap/libraries/BitMath.sol\":1334:1335  2 */\n      0x02\n        /* \"contracts/uniswap/libraries/BitMath.sol\":1328:1335  x >>= 2 */\n      swap2\n      dup3\n      shr\n      swap2\n        /* \"contracts/uniswap/libraries/BitMath.sol\":1349:1355  r += 2 */\n      add\n        /* \"contracts/uniswap/libraries/BitMath.sol\":1300:1366  if (x >= 0x4) {... */\n    tag_638:\n        /* \"contracts/uniswap/libraries/BitMath.sol\":1384:1387  0x2 */\n      0x02\n        /* \"contracts/uniswap/libraries/BitMath.sol\":1379:1380  x */\n      dup3\n        /* \"contracts/uniswap/libraries/BitMath.sol\":1379:1387  x >= 0x2 */\n      lt\n        /* \"contracts/uniswap/libraries/BitMath.sol\":1375:1395  if (x >= 0x2) r += 1 */\n      tag_379\n      jumpi\n        /* \"contracts/uniswap/libraries/BitMath.sol\":1394:1395  1 */\n      0x01\n        /* \"contracts/uniswap/libraries/BitMath.sol\":1389:1395  r += 1 */\n      add\n        /* \"contracts/uniswap/libraries/BitMath.sol\":671:1402  function mostSignificantBit(uint256 x) internal pure returns (uint8 r) {... */\n      swap2\n      swap1\n      pop\n      jump\t// out\n        /* \"contracts/uniswap/libraries/BitMath.sol\":1893:2787  function leastSignificantBit(uint256 x) internal pure returns (uint8 r) {... */\n    tag_404:\n        /* \"contracts/uniswap/libraries/BitMath.sol\":1956:1963  uint8 r */\n      0x00\n        /* \"contracts/uniswap/libraries/BitMath.sol\":1987:1988  0 */\n      dup1\n        /* \"contracts/uniswap/libraries/BitMath.sol\":1983:1984  x */\n      dup3\n        /* \"contracts/uniswap/libraries/BitMath.sol\":1983:1988  x > 0 */\n      gt\n        /* \"contracts/uniswap/libraries/BitMath.sol\":1975:1989  require(x > 0) */\n      tag_641\n      jumpi\n      0x00\n      dup1\n      revert\n    tag_641:\n      pop\n        /* \"contracts/uniswap/libraries/BitMath.sol\":2004:2007  255 */\n      0xff\n        /* \"contracts/uniswap/libraries/BitMath.sol\":2025:2042  type(uint128).max */\n      0xffffffffffffffffffffffffffffffff\n        /* \"contracts/uniswap/libraries/BitMath.sol\":2021:2042  x & type(uint128).max */\n      dup3\n      and\n        /* \"contracts/uniswap/libraries/BitMath.sol\":2021:2046  x & type(uint128).max > 0 */\n      iszero\n        /* \"contracts/uniswap/libraries/BitMath.sol\":2017:2121  if (x & type(uint128).max > 0) {... */\n      tag_642\n      jumpi\n        /* \"contracts/uniswap/libraries/BitMath.sol\":2062:2070  r -= 128 */\n      0xffffffffffffffffffffffffffffffffffffffffffffffffffffffffffffff80\n      add\n        /* \"contracts/uniswap/libraries/BitMath.sol\":2017:2121  if (x & type(uint128).max > 0) {... */\n      jump(tag_643)\n    tag_642:\n        /* \"contracts/uniswap/libraries/BitMath.sol\":2107:2110  128 */\n      0x80\n        /* \"contracts/uniswap/libraries/BitMath.sol\":2101:2110  x >>= 128 */\n      dup3\n      swap1\n      shr\n      swap2\n      pop\n        /* \"contracts/uniswap/libraries/BitMath.sol\":2017:2121  if (x & type(uint128).max > 0) {... */\n    tag_643:\n        /* \"contracts/uniswap/libraries/BitMath.sol\":2138:2154  type(uint64).max */\n      0xffffffffffffffff\n        /* \"contracts/uniswap/libraries/BitMath.sol\":2134:2154  x & type(uint64).max */\n      dup3\n      and\n        /* \"contracts/uniswap/libraries/BitMath.sol\":2134:2158  x & type(uint64).max > 0 */\n      iszero\n        /* \"contracts/uniswap/libraries/BitMath.sol\":2130:2231  if (x & type(uint64).max > 0) {... */\n      tag_644\n      jumpi\n        /* \"contracts/uniswap/libraries/BitMath.sol\":2174:2181  r -= 64 */\n      0xffffffffffffffffffffffffffffffffffffffffffffffffffffffffffffffc0\n      add\n        /* \"contracts/uniswap/libraries/BitMath.sol\":2130:2231  if (x & type(uint64).max > 0) {... */\n      jump(tag_645)\n    tag_644:\n        /* \"contracts/uniswap/libraries/BitMath.sol\":2218:2220  64 */\n      0x40\n        /* \"contracts/uniswap/libraries/BitMath.sol\":2212:2220  x >>= 64 */\n      dup3\n      swap1\n      shr\n      swap2\n      pop\n        /* \"contracts/uniswap/libraries/BitMath.sol\":2130:2231  if (x & type(uint64).max > 0) {... */\n    tag_645:\n        /* \"contracts/uniswap/libraries/BitMath.sol\":2248:2264  type(uint32).max */\n      0xffffffff\n        /* \"contracts/uniswap/libraries/BitMath.sol\":2244:2264  x & type(uint32).max */\n      dup3\n      and\n        /* \"contracts/uniswap/libraries/BitMath.sol\":2244:2268  x & type(uint32).max > 0 */\n      iszero\n        /* \"contracts/uniswap/libraries/BitMath.sol\":2240:2341  if (x & type(uint32).max > 0) {... */\n      tag_646\n      jumpi\n        /* \"contracts/uniswap/libraries/BitMath.sol\":2284:2291  r -= 32 */\n      0xffffffffffffffffffffffffffffffffffffffffffffffffffffffffffffffe0\n      add\n        /* \"contracts/uniswap/libraries/BitMath.sol\":2240:2341  if (x & type(uint32).max > 0) {... */\n      jump(tag_647)\n    tag_646:\n        /* \"contracts/uniswap/libraries/BitMath.sol\":2328:2330  32 */\n      0x20\n        /* \"contracts/uniswap/libraries/BitMath.sol\":2322:2330  x >>= 32 */\n      dup3\n      swap1\n      shr\n      swap2\n      pop\n        /* \"contracts/uniswap/libraries/BitMath.sol\":2240:2341  if (x & type(uint32).max > 0) {... */\n    tag_647:\n        /* \"contracts/uniswap/libraries/BitMath.sol\":2358:2374  type(uint16).max */\n      0xffff\n        /* \"contracts/uniswap/libraries/BitMath.sol\":2354:2374  x & type(uint16).max */\n      dup3\n      and\n        /* \"contracts/uniswap/libraries/BitMath.sol\":2354:2378  x & type(uint16).max > 0 */\n      iszero\n        /* \"contracts/uniswap/libraries/BitMath.sol\":2350:2451  if (x & type(uint16).max > 0) {... */\n      tag_648\n      jumpi\n        /* \"contracts/uniswap/libraries/BitMath.sol\":2394:2401  r -= 16 */\n      0xfffffffffffffffffffffffffffffffffffffffffffffffffffffffffffffff0\n      add\n        /* \"contracts/uniswap/libraries/BitMath.sol\":2350:2451  if (x & type(uint16).max > 0) {... */\n      jump(tag_649)\n    tag_648:\n        /* \"contracts/uniswap/libraries/BitMath.sol\":2438:2440  16 */\n      0x10\n        /* \"contracts/uniswap/libraries/BitMath.sol\":2432:2440  x >>= 16 */\n      dup3\n      swap1\n      shr\n      swap2\n      pop\n        /* \"contracts/uniswap/libraries/BitMath.sol\":2350:2451  if (x & type(uint16).max > 0) {... */\n    tag_649:\n        /* \"contracts/uniswap/libraries/BitMath.sol\":2468:2483  type(uint8).max */\n      0xff\n        /* \"contracts/uniswap/libraries/BitMath.sol\":2464:2483  x & type(uint8).max */\n      dup3\n      and\n        /* \"contracts/uniswap/libraries/BitMath.sol\":2464:2487  x & type(uint8).max > 0 */\n      iszero\n        /* \"contracts/uniswap/libraries/BitMath.sol\":2460:2558  if (x & type(uint8).max > 0) {... */\n      tag_650\n      jumpi\n        /* \"contracts/uniswap/libraries/BitMath.sol\":2503:2509  r -= 8 */\n      0xfffffffffffffffffffffffffffffffffffffffffffffffffffffffffffffff8\n      add\n        /* \"contracts/uniswap/libraries/BitMath.sol\":2460:2558  if (x & type(uint8).max > 0) {... */\n      jump(tag_651)\n    tag_650:\n        /* \"contracts/uniswap/libraries/BitMath.sol\":2546:2547  8 */\n      0x08\n        /* \"contracts/uniswap/libraries/BitMath.sol\":2540:2547  x >>= 8 */\n      dup3\n      swap1\n      shr\n      swap2\n      pop\n        /* \"contracts/uniswap/libraries/BitMath.sol\":2460:2558  if (x & type(uint8).max > 0) {... */\n    tag_651:\n        /* \"contracts/uniswap/libraries/BitMath.sol\":2575:2578  0xf */\n      0x0f\n        /* \"contracts/uniswap/libraries/BitMath.sol\":2571:2578  x & 0xf */\n      dup3\n      and\n        /* \"contracts/uniswap/libraries/BitMath.sol\":2571:2582  x & 0xf > 0 */\n      iszero\n        /* \"contracts/uniswap/libraries/BitMath.sol\":2567:2653  if (x & 0xf > 0) {... */\n      tag_652\n      jumpi\n        /* \"contracts/uniswap/libraries/BitMath.sol\":2598:2604  r -= 4 */\n      0xfffffffffffffffffffffffffffffffffffffffffffffffffffffffffffffffc\n      add\n        /* \"contracts/uniswap/libraries/BitMath.sol\":2567:2653  if (x & 0xf > 0) {... */\n      jump(tag_653)\n    tag_652:\n        /* \"contracts/uniswap/libraries/BitMath.sol\":2641:2642  4 */\n      0x04\n        /* \"contracts/uniswap/libraries/BitMath.sol\":2635:2642  x >>= 4 */\n      dup3\n      swap1\n      shr\n      swap2\n      pop\n        /* \"contracts/uniswap/libraries/BitMath.sol\":2567:2653  if (x & 0xf > 0) {... */\n    tag_653:\n        /* \"contracts/uniswap/libraries/BitMath.sol\":2670:2673  0x3 */\n      0x03\n        /* \"contracts/uniswap/libraries/BitMath.sol\":2666:2673  x & 0x3 */\n      dup3\n      and\n        /* \"contracts/uniswap/libraries/BitMath.sol\":2666:2677  x & 0x3 > 0 */\n      iszero\n        /* \"contracts/uniswap/libraries/BitMath.sol\":2662:2748  if (x & 0x3 > 0) {... */\n      tag_654\n      jumpi\n        /* \"contracts/uniswap/libraries/BitMath.sol\":2693:2699  r -= 2 */\n      0xfffffffffffffffffffffffffffffffffffffffffffffffffffffffffffffffe\n      add\n        /* \"contracts/uniswap/libraries/BitMath.sol\":2662:2748  if (x & 0x3 > 0) {... */\n      jump(tag_655)\n    tag_654:\n        /* \"contracts/uniswap/libraries/BitMath.sol\":2736:2737  2 */\n      0x02\n        /* \"contracts/uniswap/libraries/BitMath.sol\":2730:2737  x >>= 2 */\n      dup3\n      swap1\n      shr\n      swap2\n      pop\n        /* \"contracts/uniswap/libraries/BitMath.sol\":2662:2748  if (x & 0x3 > 0) {... */\n    tag_655:\n        /* \"contracts/uniswap/libraries/BitMath.sol\":2765:2768  0x1 */\n      0x01\n        /* \"contracts/uniswap/libraries/BitMath.sol\":2761:2768  x & 0x1 */\n      dup3\n      and\n        /* \"contracts/uniswap/libraries/BitMath.sol\":2761:2772  x & 0x1 > 0 */\n      iszero\n        /* \"contracts/uniswap/libraries/BitMath.sol\":2757:2780  if (x & 0x1 > 0) r -= 1 */\n      tag_379\n      jumpi\n        /* \"contracts/uniswap/libraries/BitMath.sol\":2774:2780  r -= 1 */\n      0xffffffffffffffffffffffffffffffffffffffffffffffffffffffffffffffff\n      add\n        /* \"contracts/uniswap/libraries/BitMath.sol\":1893:2787  function leastSignificantBit(uint256 x) internal pure returns (uint8 r) {... */\n      swap2\n      swap1\n      pop\n      jump\t// out\n        /* \"contracts/uniswap/libraries/SqrtPriceMath.sol\":8727:9259  function getAmount1Delta(... */\n    tag_440:\n        /* \"contracts/uniswap/libraries/SqrtPriceMath.sol\":8892:8907  uint256 amount1 */\n      0x00\n        /* \"contracts/uniswap/libraries/SqrtPriceMath.sol\":8939:8952  sqrtRatioBX96 */\n      dup4\n      sub(shl(0xa0, 0x01), 0x01)\n        /* \"contracts/uniswap/libraries/SqrtPriceMath.sol\":8923:8952  sqrtRatioAX96 > sqrtRatioBX96 */\n      and\n        /* \"contracts/uniswap/libraries/SqrtPriceMath.sol\":8923:8936  sqrtRatioAX96 */\n      dup6\n      sub(shl(0xa0, 0x01), 0x01)\n        /* \"contracts/uniswap/libraries/SqrtPriceMath.sol\":8923:8952  sqrtRatioAX96 > sqrtRatioBX96 */\n      and\n      gt\n        /* \"contracts/uniswap/libraries/SqrtPriceMath.sol\":8919:9017  if (sqrtRatioAX96 > sqrtRatioBX96) (sqrtRatioAX96, sqrtRatioBX96) = (sqrtRatioBX96, sqrtRatioAX96) */\n      iszero\n      tag_658\n      jumpi\n        /* \"contracts/uniswap/libraries/SqrtPriceMath.sol\":8988:9001  sqrtRatioBX96 */\n      swap3\n      swap4\n        /* \"contracts/uniswap/libraries/SqrtPriceMath.sol\":9003:9016  sqrtRatioAX96 */\n      swap3\n        /* \"contracts/uniswap/libraries/SqrtPriceMath.sol\":8919:9017  if (sqrtRatioAX96 > sqrtRatioBX96) (sqrtRatioAX96, sqrtRatioBX96) = (sqrtRatioBX96, sqrtRatioAX96) */\n    tag_658:\n        /* \"contracts/uniswap/libraries/SqrtPriceMath.sol\":9047:9054  roundUp */\n      dup2\n        /* \"contracts/uniswap/libraries/SqrtPriceMath.sol\":9047:9252  roundUp... */\n      tag_659\n      jumpi\n        /* \"contracts/uniswap/libraries/SqrtPriceMath.sol\":9177:9252  FullMath.mulDiv(liquidity, sqrtRatioBX96 - sqrtRatioAX96, FixedPoint96.Q96) */\n      tag_660\n        /* \"contracts/uniswap/libraries/SqrtPriceMath.sol\":9193:9202  liquidity */\n      dup4\n        /* \"contracts/uniswap/libraries/SqrtPriceMath.sol\":9177:9252  FullMath.mulDiv(liquidity, sqrtRatioBX96 - sqrtRatioAX96, FixedPoint96.Q96) */\n      0xffffffffffffffffffffffffffffffff\n      and\n        /* \"contracts/uniswap/libraries/SqrtPriceMath.sol\":9220:9233  sqrtRatioAX96 */\n      dup7\n        /* \"contracts/uniswap/libraries/SqrtPriceMath.sol\":9204:9217  sqrtRatioBX96 */\n      dup7\n        /* \"contracts/uniswap/libraries/SqrtPriceMath.sol\":9204:9233  sqrtRatioBX96 - sqrtRatioAX96 */\n      sub\n      sub(shl(0xa0, 0x01), 0x01)\n        /* \"contracts/uniswap/libraries/SqrtPriceMath.sol\":9177:9252  FullMath.mulDiv(liquidity, sqrtRatioBX96 - sqrtRatioAX96, FixedPoint96.Q96) */\n      and\n        /* \"contracts/uniswap/libraries/FixedPoint96.sol\":349:376  0x1000000000000000000000000 */\n      0x01000000000000000000000000\n        /* \"contracts/uniswap/libraries/SqrtPriceMath.sol\":9177:9192  FullMath.mulDiv */\n      tag_173\n        /* \"contracts/uniswap/libraries/SqrtPriceMath.sol\":9177:9252  FullMath.mulDiv(liquidity, sqrtRatioBX96 - sqrtRatioAX96, FixedPoint96.Q96) */\n      jump\t// in\n    tag_660:\n        /* \"contracts/uniswap/libraries/SqrtPriceMath.sol\":9047:9252  roundUp... */\n      jump(tag_662)\n    tag_659:\n        /* \"contracts/uniswap/libraries/SqrtPriceMath.sol\":9073:9158  FullMath.mulDivRoundingUp(liquidity, sqrtRatioBX96 - sqrtRatioAX96, FixedPoint96.Q96) */\n      tag_662\n        /* \"contracts/uniswap/libraries/SqrtPriceMath.sol\":9099:9108  liquidity */\n      dup4\n        /* \"contracts/uniswap/libraries/SqrtPriceMath.sol\":9073:9158  FullMath.mulDivRoundingUp(liquidity, sqrtRatioBX96 - sqrtRatioAX96, FixedPoint96.Q96) */\n      0xffffffffffffffffffffffffffffffff\n      and\n        /* \"contracts/uniswap/libraries/SqrtPriceMath.sol\":9126:9139  sqrtRatioAX96 */\n      dup7\n        /* \"contracts/uniswap/libraries/SqrtPriceMath.sol\":9110:9123  sqrtRatioBX96 */\n      dup7\n        /* \"contracts/uniswap/libraries/SqrtPriceMath.sol\":9110:9139  sqrtRatioBX96 - sqrtRatioAX96 */\n      sub\n      sub(shl(0xa0, 0x01), 0x01)\n        /* \"contracts/uniswap/libraries/SqrtPriceMath.sol\":9073:9158  FullMath.mulDivRoundingUp(liquidity, sqrtRatioBX96 - sqrtRatioAX96, FixedPoint96.Q96) */\n      and\n        /* \"contracts/uniswap/libraries/FixedPoint96.sol\":349:376  0x1000000000000000000000000 */\n      0x01000000000000000000000000\n        /* \"contracts/uniswap/libraries/SqrtPriceMath.sol\":9073:9098  FullMath.mulDivRoundingUp */\n      tag_269\n        /* \"contracts/uniswap/libraries/SqrtPriceMath.sol\":9073:9158  FullMath.mulDivRoundingUp(liquidity, sqrtRatioBX96 - sqrtRatioAX96, FixedPoint96.Q96) */\n      jump\t// in\n    tag_662:\n        /* \"contracts/uniswap/libraries/SqrtPriceMath.sol\":9028:9252  return... */\n      swap1\n      pop\n        /* \"contracts/uniswap/libraries/SqrtPriceMath.sol\":8727:9259  function getAmount1Delta(... */\n    tag_657:\n      swap5\n      swap4\n      pop\n      pop\n      pop\n      pop\n      jump\t// out\n        /* \"contracts/uniswap/libraries/SqrtPriceMath.sol\":7493:8272  function getAmount0Delta(... */\n    tag_443:\n        /* \"contracts/uniswap/libraries/SqrtPriceMath.sol\":7658:7673  uint256 amount0 */\n      0x00\n        /* \"contracts/uniswap/libraries/SqrtPriceMath.sol\":7705:7718  sqrtRatioBX96 */\n      dup4\n      sub(shl(0xa0, 0x01), 0x01)\n        /* \"contracts/uniswap/libraries/SqrtPriceMath.sol\":7689:7718  sqrtRatioAX96 > sqrtRatioBX96 */\n      and\n        /* \"contracts/uniswap/libraries/SqrtPriceMath.sol\":7689:7702  sqrtRatioAX96 */\n      dup6\n      sub(shl(0xa0, 0x01), 0x01)\n        /* \"contracts/uniswap/libraries/SqrtPriceMath.sol\":7689:7718  sqrtRatioAX96 > sqrtRatioBX96 */\n      and\n      gt\n        /* \"contracts/uniswap/libraries/SqrtPriceMath.sol\":7685:7783  if (sqrtRatioAX96 > sqrtRatioBX96) (sqrtRatioAX96, sqrtRatioBX96) = (sqrtRatioBX96, sqrtRatioAX96) */\n      iszero\n      tag_664\n      jumpi\n        /* \"contracts/uniswap/libraries/SqrtPriceMath.sol\":7754:7767  sqrtRatioBX96 */\n      swap3\n      swap4\n        /* \"contracts/uniswap/libraries/SqrtPriceMath.sol\":7769:7782  sqrtRatioAX96 */\n      swap3\n        /* \"contracts/uniswap/libraries/SqrtPriceMath.sol\":7685:7783  if (sqrtRatioAX96 > sqrtRatioBX96) (sqrtRatioAX96, sqrtRatioBX96) = (sqrtRatioBX96, sqrtRatioAX96) */\n    tag_664:\n        /* \"contracts/uniswap/libraries/SqrtPriceMath.sol\":7815:7860  uint256(liquidity) << FixedPoint96.RESOLUTION */\n      0xffffffffffffffffffffffffffffffff000000000000000000000000\n        /* \"contracts/uniswap/libraries/FixedPoint96.sol\":309:311  96 */\n      0x60\n        /* \"contracts/uniswap/libraries/SqrtPriceMath.sol\":7815:7860  uint256(liquidity) << FixedPoint96.RESOLUTION */\n      dup5\n      swap1\n      shl\n      and\n      sub(shl(0xa0, 0x01), 0x01)\n        /* \"contracts/uniswap/libraries/SqrtPriceMath.sol\":7891:7920  sqrtRatioBX96 - sqrtRatioAX96 */\n      dup7\n      dup7\n      sub\n        /* \"contracts/uniswap/libraries/SqrtPriceMath.sol\":7870:7920  uint256 numerator2 = sqrtRatioBX96 - sqrtRatioAX96 */\n      dup2\n      and\n      swap1\n        /* \"contracts/uniswap/libraries/SqrtPriceMath.sol\":7939:7956  sqrtRatioAX96 > 0 */\n      dup8\n      and\n        /* \"contracts/uniswap/libraries/SqrtPriceMath.sol\":7931:7957  require(sqrtRatioAX96 > 0) */\n      tag_665\n      jumpi\n      0x00\n      dup1\n      revert\n    tag_665:\n        /* \"contracts/uniswap/libraries/SqrtPriceMath.sol\":7987:7994  roundUp */\n      dup4\n        /* \"contracts/uniswap/libraries/SqrtPriceMath.sol\":7987:8265  roundUp... */\n      tag_666\n      jumpi\n        /* \"contracts/uniswap/libraries/SqrtPriceMath.sol\":8252:8265  sqrtRatioAX96 */\n      dup7\n      sub(shl(0xa0, 0x01), 0x01)\n        /* \"contracts/uniswap/libraries/SqrtPriceMath.sol\":8195:8265  FullMath.mulDiv(numerator1, numerator2, sqrtRatioBX96) / sqrtRatioAX96 */\n      and\n        /* \"contracts/uniswap/libraries/SqrtPriceMath.sol\":8195:8249  FullMath.mulDiv(numerator1, numerator2, sqrtRatioBX96) */\n      tag_667\n        /* \"contracts/uniswap/libraries/SqrtPriceMath.sol\":8211:8221  numerator1 */\n      dup4\n        /* \"contracts/uniswap/libraries/SqrtPriceMath.sol\":8223:8233  numerator2 */\n      dup4\n        /* \"contracts/uniswap/libraries/SqrtPriceMath.sol\":8235:8248  sqrtRatioBX96 */\n      dup10\n      sub(shl(0xa0, 0x01), 0x01)\n        /* \"contracts/uniswap/libraries/SqrtPriceMath.sol\":8195:8249  FullMath.mulDiv(numerator1, numerator2, sqrtRatioBX96) */\n      and\n        /* \"contracts/uniswap/libraries/SqrtPriceMath.sol\":8195:8210  FullMath.mulDiv */\n      tag_173\n        /* \"contracts/uniswap/libraries/SqrtPriceMath.sol\":8195:8249  FullMath.mulDiv(numerator1, numerator2, sqrtRatioBX96) */\n      jump\t// in\n    tag_667:\n        /* \"contracts/uniswap/libraries/SqrtPriceMath.sol\":8195:8265  FullMath.mulDiv(numerator1, numerator2, sqrtRatioBX96) / sqrtRatioAX96 */\n      dup2\n      tag_668\n      jumpi\n      invalid\n    tag_668:\n      div\n        /* \"contracts/uniswap/libraries/SqrtPriceMath.sol\":7987:8265  roundUp... */\n      jump(tag_670)\n    tag_666:\n        /* \"contracts/uniswap/libraries/SqrtPriceMath.sol\":8013:8176  UnsafeMath.divRoundingUp(... */\n      tag_670\n        /* \"contracts/uniswap/libraries/SqrtPriceMath.sol\":8059:8123  FullMath.mulDivRoundingUp(numerator1, numerator2, sqrtRatioBX96) */\n      tag_671\n        /* \"contracts/uniswap/libraries/SqrtPriceMath.sol\":8085:8095  numerator1 */\n      dup4\n        /* \"contracts/uniswap/libraries/SqrtPriceMath.sol\":8097:8107  numerator2 */\n      dup4\n        /* \"contracts/uniswap/libraries/SqrtPriceMath.sol\":8109:8122  sqrtRatioBX96 */\n      dup10\n      sub(shl(0xa0, 0x01), 0x01)\n        /* \"contracts/uniswap/libraries/SqrtPriceMath.sol\":8059:8123  FullMath.mulDivRoundingUp(numerator1, numerator2, sqrtRatioBX96) */\n      and\n        /* \"contracts/uniswap/libraries/SqrtPriceMath.sol\":8059:8084  FullMath.mulDivRoundingUp */\n      tag_269\n        /* \"contracts/uniswap/libraries/SqrtPriceMath.sol\":8059:8123  FullMath.mulDivRoundingUp(numerator1, numerator2, sqrtRatioBX96) */\n      jump\t// in\n    tag_671:\n        /* \"contracts/uniswap/libraries/SqrtPriceMath.sol\":8145:8158  sqrtRatioAX96 */\n      dup9\n      sub(shl(0xa0, 0x01), 0x01)\n        /* \"contracts/uniswap/libraries/SqrtPriceMath.sol\":8013:8176  UnsafeMath.divRoundingUp(... */\n      and\n        /* \"contracts/uniswap/libraries/SqrtPriceMath.sol\":8013:8037  UnsafeMath.divRoundingUp */\n      tag_672\n        /* \"contracts/uniswap/libraries/SqrtPriceMath.sol\":8013:8176  UnsafeMath.divRoundingUp(... */\n      jump\t// in\n    tag_670:\n        /* \"contracts/uniswap/libraries/SqrtPriceMath.sol\":7968:8265  return... */\n      swap8\n        /* \"contracts/uniswap/libraries/SqrtPriceMath.sol\":7493:8272  function getAmount0Delta(... */\n      swap7\n      pop\n      pop\n      pop\n      pop\n      pop\n      pop\n      pop\n      jump\t// out\n        /* \"contracts/uniswap/libraries/SqrtPriceMath.sol\":5299:5849  function getNextSqrtPriceFromInput(... */\n    tag_447:\n        /* \"contracts/uniswap/libraries/SqrtPriceMath.sol\":5467:5483  uint160 sqrtQX96 */\n      0x00\n        /* \"contracts/uniswap/libraries/SqrtPriceMath.sol\":5514:5515  0 */\n      dup1\n        /* \"contracts/uniswap/libraries/SqrtPriceMath.sol\":5503:5511  sqrtPX96 */\n      dup6\n      sub(shl(0xa0, 0x01), 0x01)\n        /* \"contracts/uniswap/libraries/SqrtPriceMath.sol\":5503:5515  sqrtPX96 > 0 */\n      and\n      gt\n        /* \"contracts/uniswap/libraries/SqrtPriceMath.sol\":5495:5516  require(sqrtPX96 > 0) */\n      tag_674\n      jumpi\n      0x00\n      dup1\n      revert\n    tag_674:\n        /* \"contracts/uniswap/libraries/SqrtPriceMath.sol\":5546:5547  0 */\n      0x00\n        /* \"contracts/uniswap/libraries/SqrtPriceMath.sol\":5534:5543  liquidity */\n      dup5\n        /* \"contracts/uniswap/libraries/SqrtPriceMath.sol\":5534:5547  liquidity > 0 */\n      0xffffffffffffffffffffffffffffffff\n      and\n      gt\n        /* \"contracts/uniswap/libraries/SqrtPriceMath.sol\":5526:5548  require(liquidity > 0) */\n      tag_675\n      jumpi\n      0x00\n      dup1\n      revert\n    tag_675:\n        /* \"contracts/uniswap/libraries/SqrtPriceMath.sol\":5644:5654  zeroForOne */\n      dup2\n        /* \"contracts/uniswap/libraries/SqrtPriceMath.sol\":5644:5842  zeroForOne... */\n      tag_676\n      jumpi\n        /* \"contracts/uniswap/libraries/SqrtPriceMath.sol\":5766:5842  getNextSqrtPriceFromAmount1RoundingDown(sqrtPX96, liquidity, amountIn, true) */\n      tag_660\n        /* \"contracts/uniswap/libraries/SqrtPriceMath.sol\":5806:5814  sqrtPX96 */\n      dup6\n        /* \"contracts/uniswap/libraries/SqrtPriceMath.sol\":5816:5825  liquidity */\n      dup6\n        /* \"contracts/uniswap/libraries/SqrtPriceMath.sol\":5827:5835  amountIn */\n      dup6\n        /* \"contracts/uniswap/libraries/SqrtPriceMath.sol\":5837:5841  true */\n      0x01\n        /* \"contracts/uniswap/libraries/SqrtPriceMath.sol\":5766:5805  getNextSqrtPriceFromAmount1RoundingDown */\n      tag_678\n        /* \"contracts/uniswap/libraries/SqrtPriceMath.sol\":5766:5842  getNextSqrtPriceFromAmount1RoundingDown(sqrtPX96, liquidity, amountIn, true) */\n      jump\t// in\n        /* \"contracts/uniswap/libraries/SqrtPriceMath.sol\":5644:5842  zeroForOne... */\n    tag_676:\n        /* \"contracts/uniswap/libraries/SqrtPriceMath.sol\":5673:5747  getNextSqrtPriceFromAmount0RoundingUp(sqrtPX96, liquidity, amountIn, true) */\n      tag_662\n        /* \"contracts/uniswap/libraries/SqrtPriceMath.sol\":5711:5719  sqrtPX96 */\n      dup6\n        /* \"contracts/uniswap/libraries/SqrtPriceMath.sol\":5721:5730  liquidity */\n      dup6\n        /* \"contracts/uniswap/libraries/SqrtPriceMath.sol\":5732:5740  amountIn */\n      dup6\n        /* \"contracts/uniswap/libraries/SqrtPriceMath.sol\":5742:5746  true */\n      0x01\n        /* \"contracts/uniswap/libraries/SqrtPriceMath.sol\":5673:5710  getNextSqrtPriceFromAmount0RoundingUp */\n      tag_681\n        /* \"contracts/uniswap/libraries/SqrtPriceMath.sol\":5673:5747  getNextSqrtPriceFromAmount0RoundingUp(sqrtPX96, liquidity, amountIn, true) */\n      jump\t// in\n        /* \"contracts/uniswap/libraries/SqrtPriceMath.sol\":6395:6945  function getNextSqrtPriceFromOutput(... */\n    tag_456:\n        /* \"contracts/uniswap/libraries/SqrtPriceMath.sol\":6565:6581  uint160 sqrtQX96 */\n      0x00\n        /* \"contracts/uniswap/libraries/SqrtPriceMath.sol\":6612:6613  0 */\n      dup1\n        /* \"contracts/uniswap/libraries/SqrtPriceMath.sol\":6601:6609  sqrtPX96 */\n      dup6\n      sub(shl(0xa0, 0x01), 0x01)\n        /* \"contracts/uniswap/libraries/SqrtPriceMath.sol\":6601:6613  sqrtPX96 > 0 */\n      and\n      gt\n        /* \"contracts/uniswap/libraries/SqrtPriceMath.sol\":6593:6614  require(sqrtPX96 > 0) */\n      tag_683\n      jumpi\n      0x00\n      dup1\n      revert\n    tag_683:\n        /* \"contracts/uniswap/libraries/SqrtPriceMath.sol\":6644:6645  0 */\n      0x00\n        /* \"contracts/uniswap/libraries/SqrtPriceMath.sol\":6632:6641  liquidity */\n      dup5\n        /* \"contracts/uniswap/libraries/SqrtPriceMath.sol\":6632:6645  liquidity > 0 */\n      0xffffffffffffffffffffffffffffffff\n      and\n      gt\n        /* \"contracts/uniswap/libraries/SqrtPriceMath.sol\":6624:6646  require(liquidity > 0) */\n      tag_684\n      jumpi\n      0x00\n      dup1\n      revert\n    tag_684:\n        /* \"contracts/uniswap/libraries/SqrtPriceMath.sol\":6736:6746  zeroForOne */\n      dup2\n        /* \"contracts/uniswap/libraries/SqrtPriceMath.sol\":6736:6938  zeroForOne... */\n      tag_685\n      jumpi\n        /* \"contracts/uniswap/libraries/SqrtPriceMath.sol\":6862:6938  getNextSqrtPriceFromAmount0RoundingUp(sqrtPX96, liquidity, amountOut, false) */\n      tag_660\n        /* \"contracts/uniswap/libraries/SqrtPriceMath.sol\":6900:6908  sqrtPX96 */\n      dup6\n        /* \"contracts/uniswap/libraries/SqrtPriceMath.sol\":6910:6919  liquidity */\n      dup6\n        /* \"contracts/uniswap/libraries/SqrtPriceMath.sol\":6921:6930  amountOut */\n      dup6\n        /* \"contracts/uniswap/libraries/SqrtPriceMath.sol\":6932:6937  false */\n      0x00\n        /* \"contracts/uniswap/libraries/SqrtPriceMath.sol\":6862:6899  getNextSqrtPriceFromAmount0RoundingUp */\n      tag_681\n        /* \"contracts/uniswap/libraries/SqrtPriceMath.sol\":6862:6938  getNextSqrtPriceFromAmount0RoundingUp(sqrtPX96, liquidity, amountOut, false) */\n      jump\t// in\n        /* \"contracts/uniswap/libraries/SqrtPriceMath.sol\":6736:6938  zeroForOne... */\n    tag_685:\n        /* \"contracts/uniswap/libraries/SqrtPriceMath.sol\":6765:6843  getNextSqrtPriceFromAmount1RoundingDown(sqrtPX96, liquidity, amountOut, false) */\n      tag_662\n        /* \"contracts/uniswap/libraries/SqrtPriceMath.sol\":6805:6813  sqrtPX96 */\n      dup6\n        /* \"contracts/uniswap/libraries/SqrtPriceMath.sol\":6815:6824  liquidity */\n      dup6\n        /* \"contracts/uniswap/libraries/SqrtPriceMath.sol\":6826:6835  amountOut */\n      dup6\n        /* \"contracts/uniswap/libraries/SqrtPriceMath.sol\":6837:6842  false */\n      0x00\n        /* \"contracts/uniswap/libraries/SqrtPriceMath.sol\":6765:6804  getNextSqrtPriceFromAmount1RoundingDown */\n      tag_678\n        /* \"contracts/uniswap/libraries/SqrtPriceMath.sol\":6765:6843  getNextSqrtPriceFromAmount1RoundingDown(sqrtPX96, liquidity, amountOut, false) */\n      jump\t// in\n        /* \"contracts/uniswap/libraries/Oracle.sol\":1811:2444  function transform(... */\n    tag_497:\n        /* \"contracts/uniswap/libraries/Oracle.sol\":1969:1987  Observation memory */\n      tag_689\n      tag_690\n      jump\t// in\n    tag_689:\n        /* \"contracts/uniswap/libraries/Oracle.sol\":1999:2011  uint32 delta */\n      0x00\n        /* \"contracts/uniswap/libraries/Oracle.sol\":2031:2035  last */\n      dup6\n        /* \"contracts/uniswap/libraries/Oracle.sol\":2031:2050  last.blockTimestamp */\n      0x00\n      add\n      mload\n        /* \"contracts/uniswap/libraries/Oracle.sol\":2014:2028  blockTimestamp */\n      dup6\n        /* \"contracts/uniswap/libraries/Oracle.sol\":2014:2050  blockTimestamp - last.blockTimestamp */\n      sub\n        /* \"contracts/uniswap/libraries/Oracle.sol\":1999:2050  uint32 delta = blockTimestamp - last.blockTimestamp */\n      swap1\n      pop\n        /* \"contracts/uniswap/libraries/Oracle.sol\":2079:2437  Observation({... */\n      mload(0x40)\n      dup1\n      0x80\n      add\n      0x40\n      mstore\n      dup1\n        /* \"contracts/uniswap/libraries/Oracle.sol\":2125:2139  blockTimestamp */\n      dup7\n        /* \"contracts/uniswap/libraries/Oracle.sol\":2079:2437  Observation({... */\n      0xffffffff\n      and\n      dup2\n      mstore\n      0x20\n      add\n        /* \"contracts/uniswap/libraries/Oracle.sol\":2209:2214  delta */\n      dup3\n        /* \"contracts/uniswap/libraries/Oracle.sol\":2195:2214  int56(tick) * delta */\n      0xffffffff\n      and\n        /* \"contracts/uniswap/libraries/Oracle.sol\":2201:2205  tick */\n      dup7\n        /* \"contracts/uniswap/libraries/Oracle.sol\":2195:2206  int56(tick) */\n      0x02\n      signextend\n        /* \"contracts/uniswap/libraries/Oracle.sol\":2195:2214  int56(tick) * delta */\n      mul\n        /* \"contracts/uniswap/libraries/Oracle.sol\":2173:2177  last */\n      dup9\n        /* \"contracts/uniswap/libraries/Oracle.sol\":2173:2192  last.tickCumulative */\n      0x20\n      add\n      mload\n        /* \"contracts/uniswap/libraries/Oracle.sol\":2173:2214  last.tickCumulative + int56(tick) * delta */\n      add\n        /* \"contracts/uniswap/libraries/Oracle.sol\":2079:2437  Observation({... */\n      0x06\n      signextend\n      dup2\n      mstore\n      0x20\n      add\n        /* \"contracts/uniswap/libraries/Oracle.sol\":2368:2369  0 */\n      0x00\n        /* \"contracts/uniswap/libraries/Oracle.sol\":2356:2365  liquidity */\n      dup6\n        /* \"contracts/uniswap/libraries/Oracle.sol\":2356:2369  liquidity > 0 */\n      0xffffffffffffffffffffffffffffffff\n      and\n      gt\n        /* \"contracts/uniswap/libraries/Oracle.sol\":2356:2385  liquidity > 0 ? liquidity : 1 */\n      tag_692\n      jumpi\n        /* \"contracts/uniswap/libraries/Oracle.sol\":2384:2385  1 */\n      0x01\n        /* \"contracts/uniswap/libraries/Oracle.sol\":2356:2385  liquidity > 0 ? liquidity : 1 */\n      jump(tag_693)\n    tag_692:\n        /* \"contracts/uniswap/libraries/Oracle.sol\":2372:2381  liquidity */\n      dup5\n        /* \"contracts/uniswap/libraries/Oracle.sol\":2356:2385  liquidity > 0 ? liquidity : 1 */\n    tag_693:\n        /* \"contracts/uniswap/libraries/Oracle.sol\":2329:2386  (uint160(delta) << 128) / (liquidity > 0 ? liquidity : 1) */\n      0xffffffffffffffffffffffffffffffff\n      and\n        /* \"contracts/uniswap/libraries/Oracle.sol\":2330:2351  uint160(delta) << 128 */\n      0xffffffff00000000000000000000000000000000\n        /* \"contracts/uniswap/libraries/Oracle.sol\":2348:2351  128 */\n      0x80\n        /* \"contracts/uniswap/libraries/Oracle.sol\":2330:2351  uint160(delta) << 128 */\n      dup6\n      swap1\n      shl\n      and\n        /* \"contracts/uniswap/libraries/Oracle.sol\":2329:2386  (uint160(delta) << 128) / (liquidity > 0 ? liquidity : 1) */\n      dup2\n      tag_694\n      jumpi\n      invalid\n    tag_694:\n      div\n        /* \"contracts/uniswap/libraries/Oracle.sol\":2267:2271  last */\n      dup9\n        /* \"contracts/uniswap/libraries/Oracle.sol\":2267:2305  last.secondsPerLiquidityCumulativeX128 */\n      0x40\n      add\n      mload\n        /* \"contracts/uniswap/libraries/Oracle.sol\":2267:2387  last.secondsPerLiquidityCumulativeX128 +... */\n      add\n      sub(shl(0xa0, 0x01), 0x01)\n        /* \"contracts/uniswap/libraries/Oracle.sol\":2079:2437  Observation({... */\n      and\n      dup2\n      mstore\n      0x20\n      add\n        /* \"contracts/uniswap/libraries/Oracle.sol\":2418:2422  true */\n      0x01\n        /* \"contracts/uniswap/libraries/Oracle.sol\":2079:2437  Observation({... */\n      iszero\n      iszero\n      dup2\n      mstore\n      pop\n        /* \"contracts/uniswap/libraries/Oracle.sol\":2060:2437  return... */\n      swap2\n      pop\n      pop\n        /* \"contracts/uniswap/libraries/Oracle.sol\":1811:2444  function transform(... */\n      swap5\n      swap4\n      pop\n      pop\n      pop\n      pop\n      jump\t// out\n        /* \"contracts/uniswap/libraries/Oracle.sol\":10117:11542  function getSurroundingObservations(... */\n    tag_499:\n        /* \"contracts/uniswap/libraries/Oracle.sol\":10363:10392  Observation memory beforeOrAt */\n      tag_695\n      tag_690\n      jump\t// in\n    tag_695:\n        /* \"contracts/uniswap/libraries/Oracle.sol\":10394:10422  Observation memory atOrAfter */\n      tag_696\n      tag_690\n      jump\t// in\n    tag_696:\n        /* \"contracts/uniswap/libraries/Oracle.sol\":10510:10514  self */\n      dup9\n        /* \"contracts/uniswap/libraries/Oracle.sol\":10515:10520  index */\n      dup6\n        /* \"contracts/uniswap/libraries/Oracle.sol\":10510:10521  self[index] */\n      0xffff\n      and\n      0xffff\n      dup2\n      lt\n      tag_698\n      jumpi\n      invalid\n    tag_698:\n        /* \"contracts/uniswap/libraries/Oracle.sol\":10497:10521  beforeOrAt = self[index] */\n      0x40\n      dup1\n      mload\n      0x80\n      dup2\n      add\n      dup3\n      mstore\n        /* \"contracts/uniswap/libraries/Oracle.sol\":10510:10521  self[index] */\n      swap2\n      swap1\n      swap3\n      add\n        /* \"contracts/uniswap/libraries/Oracle.sol\":10497:10521  beforeOrAt = self[index] */\n      sload\n      0xffffffff\n      dup2\n      and\n      dup1\n      dup4\n      mstore\n      0x0100000000\n      dup3\n      div\n      0x06\n      swap1\n      dup2\n      signextend\n      dup2\n      signextend\n      swap1\n      signextend\n      0x20\n      dup5\n      add\n      mstore\n      0x010000000000000000000000\n      dup3\n      div\n      sub(shl(0xa0, 0x01), 0x01)\n      and\n      swap4\n      dup4\n      add\n      swap4\n      swap1\n      swap4\n      mstore\n      0x0100000000000000000000000000000000000000000000000000000000000000\n      swap1\n      div\n      0xff\n      and\n      iszero\n      iszero\n      0x60\n      dup3\n      add\n      mstore\n      swap3\n      pop\n        /* \"contracts/uniswap/libraries/Oracle.sol\":10636:10680  lte(time, beforeOrAt.blockTimestamp, target) */\n      tag_700\n      swap1\n        /* \"contracts/uniswap/libraries/Oracle.sol\":10640:10644  time */\n      dup10\n      swap1\n        /* \"contracts/uniswap/libraries/Oracle.sol\":10673:10679  target */\n      dup10\n        /* \"contracts/uniswap/libraries/Oracle.sol\":10636:10639  lte */\n      tag_701\n        /* \"contracts/uniswap/libraries/Oracle.sol\":10636:10680  lte(time, beforeOrAt.blockTimestamp, target) */\n      jump\t// in\n    tag_700:\n        /* \"contracts/uniswap/libraries/Oracle.sol\":10632:11075  if (lte(time, beforeOrAt.blockTimestamp, target)) {... */\n      iszero\n      tag_704\n      jumpi\n        /* \"contracts/uniswap/libraries/Oracle.sol\":10729:10735  target */\n      dup7\n        /* \"contracts/uniswap/libraries/Oracle.sol\":10700:10735  beforeOrAt.blockTimestamp == target */\n      0xffffffff\n      and\n        /* \"contracts/uniswap/libraries/Oracle.sol\":10700:10710  beforeOrAt */\n      dup3\n        /* \"contracts/uniswap/libraries/Oracle.sol\":10700:10725  beforeOrAt.blockTimestamp */\n      0x00\n      add\n      mload\n        /* \"contracts/uniswap/libraries/Oracle.sol\":10700:10735  beforeOrAt.blockTimestamp == target */\n      0xffffffff\n      and\n      eq\n        /* \"contracts/uniswap/libraries/Oracle.sol\":10696:11065  if (beforeOrAt.blockTimestamp == target) {... */\n      iszero\n      tag_703\n      jumpi\n        /* \"contracts/uniswap/libraries/Oracle.sol\":10863:10893  return (beforeOrAt, atOrAfter) */\n      jump(tag_491)\n        /* \"contracts/uniswap/libraries/Oracle.sol\":10696:11065  if (beforeOrAt.blockTimestamp == target) {... */\n    tag_703:\n        /* \"contracts/uniswap/libraries/Oracle.sol\":10991:11001  beforeOrAt */\n      dup2\n        /* \"contracts/uniswap/libraries/Oracle.sol\":11003:11049  transform(beforeOrAt, target, tick, liquidity) */\n      tag_705\n        /* \"contracts/uniswap/libraries/Oracle.sol\":11013:11023  beforeOrAt */\n      dup4\n        /* \"contracts/uniswap/libraries/Oracle.sol\":11025:11031  target */\n      dup10\n        /* \"contracts/uniswap/libraries/Oracle.sol\":11033:11037  tick */\n      dup10\n        /* \"contracts/uniswap/libraries/Oracle.sol\":11039:11048  liquidity */\n      dup9\n        /* \"contracts/uniswap/libraries/Oracle.sol\":11003:11012  transform */\n      tag_497\n        /* \"contracts/uniswap/libraries/Oracle.sol\":11003:11049  transform(beforeOrAt, target, tick, liquidity) */\n      jump\t// in\n    tag_705:\n        /* \"contracts/uniswap/libraries/Oracle.sol\":10983:11050  return (beforeOrAt, transform(beforeOrAt, target, tick, liquidity)) */\n      swap2\n      pop\n      swap2\n      pop\n      jump(tag_491)\n        /* \"contracts/uniswap/libraries/Oracle.sol\":10696:11065  if (beforeOrAt.blockTimestamp == target) {... */\n    tag_704:\n        /* \"contracts/uniswap/libraries/Oracle.sol\":11151:11155  self */\n      dup9\n        /* \"contracts/uniswap/libraries/Oracle.sol\":11170:11181  cardinality */\n      dup4\n        /* \"contracts/uniswap/libraries/Oracle.sol\":11156:11181  (index + 1) % cardinality */\n      0xffff\n      and\n        /* \"contracts/uniswap/libraries/Oracle.sol\":11157:11162  index */\n      dup7\n        /* \"contracts/uniswap/libraries/Oracle.sol\":11165:11166  1 */\n      0x01\n        /* \"contracts/uniswap/libraries/Oracle.sol\":11157:11166  index + 1 */\n      add\n        /* \"contracts/uniswap/libraries/Oracle.sol\":11156:11181  (index + 1) % cardinality */\n      0xffff\n      and\n      dup2\n      tag_706\n      jumpi\n      invalid\n    tag_706:\n      mod\n        /* \"contracts/uniswap/libraries/Oracle.sol\":11151:11182  self[(index + 1) % cardinality] */\n      0xffff\n      and\n      0xffff\n      dup2\n      lt\n      tag_707\n      jumpi\n      invalid\n    tag_707:\n        /* \"contracts/uniswap/libraries/Oracle.sol\":11138:11182  beforeOrAt = self[(index + 1) % cardinality] */\n      0x40\n      dup1\n      mload\n      0x80\n      dup2\n      add\n      dup3\n      mstore\n        /* \"contracts/uniswap/libraries/Oracle.sol\":11151:11182  self[(index + 1) % cardinality] */\n      swap3\n      swap1\n      swap2\n      add\n        /* \"contracts/uniswap/libraries/Oracle.sol\":11138:11182  beforeOrAt = self[(index + 1) % cardinality] */\n      sload\n      0xffffffff\n      dup2\n      and\n      dup4\n      mstore\n      0x0100000000\n      dup2\n      div\n      0x06\n      swap1\n      dup2\n      signextend\n      dup2\n      signextend\n      swap1\n      signextend\n      0x20\n      dup5\n      add\n      mstore\n      sub(shl(0xa0, 0x01), 0x01)\n      0x010000000000000000000000\n      dup3\n      div\n      and\n      swap2\n      dup4\n      add\n      swap2\n      swap1\n      swap2\n      mstore\n      0xff\n      0x0100000000000000000000000000000000000000000000000000000000000000\n      swap1\n      swap2\n      div\n      and\n      iszero\n      iszero\n      0x60\n      dup3\n      add\n      dup2\n      swap1\n      mstore\n      swap1\n      swap3\n      pop\n        /* \"contracts/uniswap/libraries/Oracle.sol\":11192:11241  if (!beforeOrAt.initialized) beforeOrAt = self[0] */\n      tag_709\n      jumpi\n        /* \"contracts/uniswap/libraries/Oracle.sol\":11221:11241  beforeOrAt = self[0] */\n      0x40\n      dup1\n      mload\n      0x80\n      dup2\n      add\n      dup3\n      mstore\n      dup11\n      sload\n      0xffffffff\n      dup2\n      and\n      dup3\n      mstore\n      0x0100000000\n      dup2\n      div\n      0x06\n      swap1\n      dup2\n      signextend\n      dup2\n      signextend\n      swap1\n      signextend\n      0x20\n      dup4\n      add\n      mstore\n      0x010000000000000000000000\n      dup2\n      div\n      sub(shl(0xa0, 0x01), 0x01)\n      and\n      swap3\n      dup3\n      add\n      swap3\n      swap1\n      swap3\n      mstore\n      0x0100000000000000000000000000000000000000000000000000000000000000\n      swap1\n      swap2\n      div\n      0xff\n      and\n      iszero\n      iszero\n      0x60\n      dup3\n      add\n      mstore\n      swap2\n      pop\n        /* \"contracts/uniswap/libraries/Oracle.sol\":11192:11241  if (!beforeOrAt.initialized) beforeOrAt = self[0] */\n    tag_709:\n        /* \"contracts/uniswap/libraries/Oracle.sol\":11348:11392  lte(time, beforeOrAt.blockTimestamp, target) */\n      tag_712\n        /* \"contracts/uniswap/libraries/Oracle.sol\":11352:11356  time */\n      dup9\n        /* \"contracts/uniswap/libraries/Oracle.sol\":11358:11368  beforeOrAt */\n      dup4\n        /* \"contracts/uniswap/libraries/Oracle.sol\":11358:11383  beforeOrAt.blockTimestamp */\n      0x00\n      add\n      mload\n        /* \"contracts/uniswap/libraries/Oracle.sol\":11385:11391  target */\n      dup10\n        /* \"contracts/uniswap/libraries/Oracle.sol\":11348:11351  lte */\n      tag_701\n        /* \"contracts/uniswap/libraries/Oracle.sol\":11348:11392  lte(time, beforeOrAt.blockTimestamp, target) */\n      jump\t// in\n    tag_712:\n        /* \"contracts/uniswap/libraries/Oracle.sol\":11340:11400  require(lte(time, beforeOrAt.blockTimestamp, target), 'OLD') */\n      tag_713\n      jumpi\n      0x00\n      dup1\n      revert\n    tag_713:\n        /* \"contracts/uniswap/libraries/Oracle.sol\":11483:11535  binarySearch(self, time, target, index, cardinality) */\n      tag_714\n        /* \"contracts/uniswap/libraries/Oracle.sol\":11496:11500  self */\n      dup10\n        /* \"contracts/uniswap/libraries/Oracle.sol\":11502:11506  time */\n      dup10\n        /* \"contracts/uniswap/libraries/Oracle.sol\":11508:11514  target */\n      dup10\n        /* \"contracts/uniswap/libraries/Oracle.sol\":11516:11521  index */\n      dup9\n        /* \"contracts/uniswap/libraries/Oracle.sol\":11523:11534  cardinality */\n      dup8\n        /* \"contracts/uniswap/libraries/Oracle.sol\":11483:11495  binarySearch */\n      tag_715\n        /* \"contracts/uniswap/libraries/Oracle.sol\":11483:11535  binarySearch(self, time, target, index, cardinality) */\n      jump\t// in\n    tag_714:\n        /* \"contracts/uniswap/libraries/Oracle.sol\":11476:11535  return binarySearch(self, time, target, index, cardinality) */\n      swap2\n      pop\n      swap2\n      pop\n        /* \"contracts/uniswap/libraries/Oracle.sol\":10117:11542  function getSurroundingObservations(... */\n      swap8\n      pop\n      swap8\n      swap6\n      pop\n      pop\n      pop\n      pop\n      pop\n      pop\n      jump\t// out\n        /* \"contracts/uniswap/UniswapV3Pool.sol\":14894:17411  function _updatePosition(... */\n    tag_581:\n        /* \"contracts/uniswap/UniswapV3Pool.sol\":15066:15096  Position.Info storage position */\n      0x00\n        /* \"contracts/uniswap/UniswapV3Pool.sol\":15119:15161  positions.get(owner, tickLower, tickUpper) */\n      tag_717\n        /* \"contracts/uniswap/UniswapV3Pool.sol\":15119:15128  positions */\n      0x07\n        /* \"contracts/uniswap/UniswapV3Pool.sol\":15133:15138  owner */\n      dup8\n        /* \"contracts/uniswap/UniswapV3Pool.sol\":15140:15149  tickLower */\n      dup8\n        /* \"contracts/uniswap/UniswapV3Pool.sol\":15151:15160  tickUpper */\n      dup8\n        /* \"contracts/uniswap/UniswapV3Pool.sol\":15119:15132  positions.get */\n      tag_303\n        /* \"contracts/uniswap/UniswapV3Pool.sol\":15119:15161  positions.get(owner, tickLower, tickUpper) */\n      jump\t// in\n    tag_717:\n        /* \"contracts/uniswap/UniswapV3Pool.sol\":15204:15224  feeGrowthGlobal0X128 */\n      sload(0x01)\n        /* \"contracts/uniswap/UniswapV3Pool.sol\":15296:15316  feeGrowthGlobal1X128 */\n      sload(0x02)\n        /* \"contracts/uniswap/UniswapV3Pool.sol\":15108:15161  position = positions.get(owner, tickLower, tickUpper) */\n      swap2\n      swap3\n      pop\n        /* \"contracts/uniswap/UniswapV3Pool.sol\":15204:15224  feeGrowthGlobal0X128 */\n      swap1\n        /* \"contracts/uniswap/UniswapV3Pool.sol\":15172:15201  uint256 _feeGrowthGlobal0X128 */\n      0x00\n      dup1\n        /* \"contracts/uniswap/UniswapV3Pool.sol\":15464:15483  liquidityDelta != 0 */\n      0x0f\n      dup8\n      swap1\n      signextend\n      iszero\n        /* \"contracts/uniswap/UniswapV3Pool.sol\":15460:16862  if (liquidityDelta != 0) {... */\n      tag_718\n      jumpi\n        /* \"contracts/uniswap/UniswapV3Pool.sol\":15499:15510  uint32 time */\n      0x00\n        /* \"contracts/uniswap/UniswapV3Pool.sol\":15513:15530  _blockTimestamp() */\n      tag_719\n        /* \"contracts/uniswap/UniswapV3Pool.sol\":15513:15528  _blockTimestamp */\n      tag_137\n        /* \"contracts/uniswap/UniswapV3Pool.sol\":15513:15530  _blockTimestamp() */\n      jump\t// in\n    tag_719:\n        /* \"contracts/uniswap/UniswapV3Pool.sol\":15545:15565  int56 tickCumulative */\n      0x00\n        /* \"contracts/uniswap/UniswapV3Pool.sol\":15725:15735  slot0.tick */\n      dup1\n      sload\n        /* \"contracts/uniswap/UniswapV3Pool.sol\":15801:15810  liquidity */\n      sload(0x04)\n        /* \"contracts/uniswap/UniswapV3Pool.sol\":15499:15530  uint32 time = _blockTimestamp() */\n      swap3\n      swap4\n      pop\n        /* \"contracts/uniswap/UniswapV3Pool.sol\":15545:15565  int56 tickCumulative */\n      swap1\n      swap2\n      dup3\n      swap2\n        /* \"contracts/uniswap/UniswapV3Pool.sol\":15628:15878  observations.observeSingle(... */\n      tag_720\n      swap2\n        /* \"contracts/uniswap/UniswapV3Pool.sol\":15628:15640  observations */\n      0x08\n      swap2\n        /* \"contracts/uniswap/UniswapV3Pool.sol\":15499:15530  uint32 time = _blockTimestamp() */\n      dup7\n      swap2\n        /* \"contracts/uniswap/UniswapV3Pool.sol\":15545:15565  int56 tickCumulative */\n      dup6\n      swap2\n        /* \"contracts/uniswap/UniswapV3Pool.sol\":15725:15735  slot0.tick */\n      0x010000000000000000000000000000000000000000\n      dup2\n      div\n      0x02\n      signextend\n      swap2\n        /* \"contracts/uniswap/UniswapV3Pool.sol\":15757:15779  slot0.observationIndex */\n      0xffff\n      0x010000000000000000000000000000000000000000000000\n      dup4\n      div\n      dup2\n      and\n      swap3\n        /* \"contracts/uniswap/UniswapV3Pool.sol\":15801:15810  liquidity */\n      0xffffffffffffffffffffffffffffffff\n      swap1\n      swap3\n      and\n      swap2\n        /* \"contracts/uniswap/UniswapV3Pool.sol\":15832:15860  slot0.observationCardinality */\n      0x0100000000000000000000000000000000000000000000000000\n      swap1\n      div\n      and\n        /* \"contracts/uniswap/UniswapV3Pool.sol\":15628:15654  observations.observeSingle */\n      tag_178\n        /* \"contracts/uniswap/UniswapV3Pool.sol\":15628:15878  observations.observeSingle(... */\n      jump\t// in\n    tag_720:\n        /* \"contracts/uniswap/UniswapV3Pool.sol\":15544:15878  (int56 tickCumulative, uint160 secondsPerLiquidityCumulativeX128) =... */\n      swap1\n      swap3\n      pop\n      swap1\n      pop\n        /* \"contracts/uniswap/UniswapV3Pool.sol\":15908:16258  ticks.update(... */\n      tag_721\n        /* \"contracts/uniswap/UniswapV3Pool.sol\":15908:15913  ticks */\n      0x05\n        /* \"contracts/uniswap/UniswapV3Pool.sol\":15938:15947  tickLower */\n      dup14\n        /* \"contracts/uniswap/UniswapV3Pool.sol\":15965:15969  tick */\n      dup12\n        /* \"contracts/uniswap/UniswapV3Pool.sol\":15987:16001  liquidityDelta */\n      dup14\n        /* \"contracts/uniswap/UniswapV3Pool.sol\":16019:16040  _feeGrowthGlobal0X128 */\n      dup12\n        /* \"contracts/uniswap/UniswapV3Pool.sol\":16058:16079  _feeGrowthGlobal1X128 */\n      dup12\n        /* \"contracts/uniswap/UniswapV3Pool.sol\":15544:15878  (int56 tickCumulative, uint160 secondsPerLiquidityCumulativeX128) =... */\n      dup8\n      dup10\n        /* \"contracts/uniswap/UniswapV3Pool.sol\":16180:16184  time */\n      dup12\n        /* \"contracts/uniswap/UniswapV3Pool.sol\":16202:16207  false */\n      0x00\n        /* \"contracts/uniswap/UniswapV3Pool.sol\":16225:16244  maxLiquidityPerTick */\n      immutable(\"0x631897788617bc63fb0292c44f57a6c3824e4264bc88fb4e3c08b910f3f417fc\")\n        /* \"contracts/uniswap/UniswapV3Pool.sol\":15908:15920  ticks.update */\n      tag_722\n        /* \"contracts/uniswap/UniswapV3Pool.sol\":15908:16258  ticks.update(... */\n      jump\t// in\n    tag_721:\n        /* \"contracts/uniswap/UniswapV3Pool.sol\":15893:16258  flippedLower = ticks.update(... */\n      swap5\n      pop\n        /* \"contracts/uniswap/UniswapV3Pool.sol\":16287:16636  ticks.update(... */\n      tag_723\n        /* \"contracts/uniswap/UniswapV3Pool.sol\":16287:16292  ticks */\n      0x05\n        /* \"contracts/uniswap/UniswapV3Pool.sol\":16317:16326  tickUpper */\n      dup13\n        /* \"contracts/uniswap/UniswapV3Pool.sol\":16344:16348  tick */\n      dup12\n        /* \"contracts/uniswap/UniswapV3Pool.sol\":16366:16380  liquidityDelta */\n      dup14\n        /* \"contracts/uniswap/UniswapV3Pool.sol\":16398:16419  _feeGrowthGlobal0X128 */\n      dup12\n        /* \"contracts/uniswap/UniswapV3Pool.sol\":16437:16458  _feeGrowthGlobal1X128 */\n      dup12\n        /* \"contracts/uniswap/UniswapV3Pool.sol\":16476:16509  secondsPerLiquidityCumulativeX128 */\n      dup8\n        /* \"contracts/uniswap/UniswapV3Pool.sol\":16527:16541  tickCumulative */\n      dup10\n        /* \"contracts/uniswap/UniswapV3Pool.sol\":16559:16563  time */\n      dup12\n        /* \"contracts/uniswap/UniswapV3Pool.sol\":16581:16585  true */\n      0x01\n        /* \"contracts/uniswap/UniswapV3Pool.sol\":16603:16622  maxLiquidityPerTick */\n      immutable(\"0x631897788617bc63fb0292c44f57a6c3824e4264bc88fb4e3c08b910f3f417fc\")\n        /* \"contracts/uniswap/UniswapV3Pool.sol\":16287:16299  ticks.update */\n      tag_722\n        /* \"contracts/uniswap/UniswapV3Pool.sol\":16287:16636  ticks.update(... */\n      jump\t// in\n    tag_723:\n        /* \"contracts/uniswap/UniswapV3Pool.sol\":16272:16636  flippedUpper = ticks.update(... */\n      swap4\n      pop\n        /* \"contracts/uniswap/UniswapV3Pool.sol\":16655:16667  flippedLower */\n      dup5\n        /* \"contracts/uniswap/UniswapV3Pool.sol\":16651:16745  if (flippedLower) {... */\n      iszero\n      tag_725\n      jumpi\n        /* \"contracts/uniswap/UniswapV3Pool.sol\":16687:16730  tickBitmap.flipTick(tickLower, tickSpacing) */\n      tag_725\n        /* \"contracts/uniswap/UniswapV3Pool.sol\":16687:16697  tickBitmap */\n      0x06\n        /* \"contracts/uniswap/UniswapV3Pool.sol\":16707:16716  tickLower */\n      dup14\n        /* \"contracts/uniswap/UniswapV3Pool.sol\":16718:16729  tickSpacing */\n      immutable(\"0xb9aa4ff60d3edb7fbc3b53bd780c9274ed80a5ba1a237d38b011edab2b031b4a\")\n        /* \"contracts/uniswap/UniswapV3Pool.sol\":16687:16706  tickBitmap.flipTick */\n      tag_726\n        /* \"contracts/uniswap/UniswapV3Pool.sol\":16687:16730  tickBitmap.flipTick(tickLower, tickSpacing) */\n      jump\t// in\n    tag_725:\n        /* \"contracts/uniswap/UniswapV3Pool.sol\":16762:16774  flippedUpper */\n      dup4\n        /* \"contracts/uniswap/UniswapV3Pool.sol\":16758:16852  if (flippedUpper) {... */\n      iszero\n      tag_728\n      jumpi\n        /* \"contracts/uniswap/UniswapV3Pool.sol\":16794:16837  tickBitmap.flipTick(tickUpper, tickSpacing) */\n      tag_728\n        /* \"contracts/uniswap/UniswapV3Pool.sol\":16794:16804  tickBitmap */\n      0x06\n        /* \"contracts/uniswap/UniswapV3Pool.sol\":16814:16823  tickUpper */\n      dup13\n        /* \"contracts/uniswap/UniswapV3Pool.sol\":16825:16836  tickSpacing */\n      immutable(\"0xb9aa4ff60d3edb7fbc3b53bd780c9274ed80a5ba1a237d38b011edab2b031b4a\")\n        /* \"contracts/uniswap/UniswapV3Pool.sol\":16794:16813  tickBitmap.flipTick */\n      tag_726\n        /* \"contracts/uniswap/UniswapV3Pool.sol\":16794:16837  tickBitmap.flipTick(tickUpper, tickSpacing) */\n      jump\t// in\n    tag_728:\n        /* \"contracts/uniswap/UniswapV3Pool.sol\":15460:16862  if (liquidityDelta != 0) {... */\n      pop\n      pop\n      pop\n    tag_718:\n        /* \"contracts/uniswap/UniswapV3Pool.sol\":16873:16901  uint256 feeGrowthInside0X128 */\n      0x00\n      dup1\n        /* \"contracts/uniswap/UniswapV3Pool.sol\":16947:17045  ticks.getFeeGrowthInside(tickLower, tickUpper, tick, _feeGrowthGlobal0X128, _feeGrowthGlobal1X128) */\n      tag_729\n        /* \"contracts/uniswap/UniswapV3Pool.sol\":16947:16952  ticks */\n      0x05\n        /* \"contracts/uniswap/UniswapV3Pool.sol\":16972:16981  tickLower */\n      dup13\n        /* \"contracts/uniswap/UniswapV3Pool.sol\":16983:16992  tickUpper */\n      dup13\n        /* \"contracts/uniswap/UniswapV3Pool.sol\":16994:16998  tick */\n      dup12\n        /* \"contracts/uniswap/UniswapV3Pool.sol\":17000:17021  _feeGrowthGlobal0X128 */\n      dup11\n        /* \"contracts/uniswap/UniswapV3Pool.sol\":17023:17044  _feeGrowthGlobal1X128 */\n      dup11\n        /* \"contracts/uniswap/UniswapV3Pool.sol\":16947:16971  ticks.getFeeGrowthInside */\n      tag_730\n        /* \"contracts/uniswap/UniswapV3Pool.sol\":16947:17045  ticks.getFeeGrowthInside(tickLower, tickUpper, tick, _feeGrowthGlobal0X128, _feeGrowthGlobal1X128) */\n      jump\t// in\n    tag_729:\n        /* \"contracts/uniswap/UniswapV3Pool.sol\":16872:17045  (uint256 feeGrowthInside0X128, uint256 feeGrowthInside1X128) =... */\n      swap1\n      swap3\n      pop\n      swap1\n      pop\n        /* \"contracts/uniswap/UniswapV3Pool.sol\":17056:17131  position.update(liquidityDelta, feeGrowthInside0X128, feeGrowthInside1X128) */\n      tag_731\n        /* \"contracts/uniswap/UniswapV3Pool.sol\":17056:17064  position */\n      dup8\n        /* \"contracts/uniswap/UniswapV3Pool.sol\":17072:17086  liquidityDelta */\n      dup11\n        /* \"contracts/uniswap/UniswapV3Pool.sol\":16872:17045  (uint256 feeGrowthInside0X128, uint256 feeGrowthInside1X128) =... */\n      dup5\n      dup5\n        /* \"contracts/uniswap/UniswapV3Pool.sol\":17056:17071  position.update */\n      tag_732\n        /* \"contracts/uniswap/UniswapV3Pool.sol\":17056:17131  position.update(liquidityDelta, feeGrowthInside0X128, feeGrowthInside1X128) */\n      jump\t// in\n    tag_731:\n        /* \"contracts/uniswap/UniswapV3Pool.sol\":17219:17220  0 */\n      0x00\n        /* \"contracts/uniswap/UniswapV3Pool.sol\":17202:17216  liquidityDelta */\n      dup10\n        /* \"contracts/uniswap/UniswapV3Pool.sol\":17202:17220  liquidityDelta < 0 */\n      0x0f\n      signextend\n      slt\n        /* \"contracts/uniswap/UniswapV3Pool.sol\":17198:17405  if (liquidityDelta < 0) {... */\n      iszero\n      tag_738\n      jumpi\n        /* \"contracts/uniswap/UniswapV3Pool.sol\":17240:17252  flippedLower */\n      dup4\n        /* \"contracts/uniswap/UniswapV3Pool.sol\":17236:17309  if (flippedLower) {... */\n      iszero\n      tag_735\n      jumpi\n        /* \"contracts/uniswap/UniswapV3Pool.sol\":17272:17294  ticks.clear(tickLower) */\n      tag_735\n        /* \"contracts/uniswap/UniswapV3Pool.sol\":17272:17277  ticks */\n      0x05\n        /* \"contracts/uniswap/UniswapV3Pool.sol\":17284:17293  tickLower */\n      dup13\n        /* \"contracts/uniswap/UniswapV3Pool.sol\":17272:17283  ticks.clear */\n      tag_736\n        /* \"contracts/uniswap/UniswapV3Pool.sol\":17272:17294  ticks.clear(tickLower) */\n      jump\t// in\n    tag_735:\n        /* \"contracts/uniswap/UniswapV3Pool.sol\":17326:17338  flippedUpper */\n      dup3\n        /* \"contracts/uniswap/UniswapV3Pool.sol\":17322:17395  if (flippedUpper) {... */\n      iszero\n      tag_738\n      jumpi\n        /* \"contracts/uniswap/UniswapV3Pool.sol\":17358:17380  ticks.clear(tickUpper) */\n      tag_738\n        /* \"contracts/uniswap/UniswapV3Pool.sol\":17358:17363  ticks */\n      0x05\n        /* \"contracts/uniswap/UniswapV3Pool.sol\":17370:17379  tickUpper */\n      dup12\n        /* \"contracts/uniswap/UniswapV3Pool.sol\":17358:17369  ticks.clear */\n      tag_736\n        /* \"contracts/uniswap/UniswapV3Pool.sol\":17358:17380  ticks.clear(tickUpper) */\n      jump\t// in\n    tag_738:\n        /* \"contracts/uniswap/UniswapV3Pool.sol\":14894:17411  function _updatePosition(... */\n      pop\n      pop\n      pop\n      pop\n      pop\n      pop\n      swap6\n      swap5\n      pop\n      pop\n      pop\n      pop\n      pop\n      jump\t// out\n        /* \"contracts/uniswap/libraries/SqrtPriceMath.sol\":9603:10015  function getAmount0Delta(... */\n    tag_587:\n        /* \"contracts/uniswap/libraries/SqrtPriceMath.sol\":9745:9759  int256 amount0 */\n      0x00\n        /* \"contracts/uniswap/libraries/SqrtPriceMath.sol\":9802:9803  0 */\n      dup1\n        /* \"contracts/uniswap/libraries/SqrtPriceMath.sol\":9790:9799  liquidity */\n      dup3\n        /* \"contracts/uniswap/libraries/SqrtPriceMath.sol\":9790:9803  liquidity < 0 */\n      0x0f\n      signextend\n      slt\n        /* \"contracts/uniswap/libraries/SqrtPriceMath.sol\":9790:10008  liquidity < 0... */\n      tag_740\n      jumpi\n        /* \"contracts/uniswap/libraries/SqrtPriceMath.sol\":9926:10008  getAmount0Delta(sqrtRatioAX96, sqrtRatioBX96, uint128(liquidity), true).toInt256() */\n      tag_741\n        /* \"contracts/uniswap/libraries/SqrtPriceMath.sol\":9926:9997  getAmount0Delta(sqrtRatioAX96, sqrtRatioBX96, uint128(liquidity), true) */\n      tag_742\n        /* \"contracts/uniswap/libraries/SqrtPriceMath.sol\":9942:9955  sqrtRatioAX96 */\n      dup6\n        /* \"contracts/uniswap/libraries/SqrtPriceMath.sol\":9957:9970  sqrtRatioBX96 */\n      dup6\n        /* \"contracts/uniswap/libraries/SqrtPriceMath.sol\":9980:9989  liquidity */\n      dup6\n        /* \"contracts/uniswap/libraries/SqrtPriceMath.sol\":9992:9996  true */\n      0x01\n        /* \"contracts/uniswap/libraries/SqrtPriceMath.sol\":9926:9941  getAmount0Delta */\n      tag_443\n        /* \"contracts/uniswap/libraries/SqrtPriceMath.sol\":9926:9997  getAmount0Delta(sqrtRatioAX96, sqrtRatioBX96, uint128(liquidity), true) */\n      jump\t// in\n    tag_742:\n        /* \"contracts/uniswap/libraries/SqrtPriceMath.sol\":9926:10006  getAmount0Delta(sqrtRatioAX96, sqrtRatioBX96, uint128(liquidity), true).toInt256 */\n      tag_160\n        /* \"contracts/uniswap/libraries/SqrtPriceMath.sol\":9926:10008  getAmount0Delta(sqrtRatioAX96, sqrtRatioBX96, uint128(liquidity), true).toInt256() */\n      jump\t// in\n    tag_741:\n        /* \"contracts/uniswap/libraries/SqrtPriceMath.sol\":9790:10008  liquidity < 0... */\n      jump(tag_657)\n    tag_740:\n        /* \"contracts/uniswap/libraries/SqrtPriceMath.sol\":9823:9907  getAmount0Delta(sqrtRatioAX96, sqrtRatioBX96, uint128(-liquidity), false).toInt256() */\n      tag_744\n        /* \"contracts/uniswap/libraries/SqrtPriceMath.sol\":9823:9896  getAmount0Delta(sqrtRatioAX96, sqrtRatioBX96, uint128(-liquidity), false) */\n      tag_742\n        /* \"contracts/uniswap/libraries/SqrtPriceMath.sol\":9839:9852  sqrtRatioAX96 */\n      dup6\n        /* \"contracts/uniswap/libraries/SqrtPriceMath.sol\":9854:9867  sqrtRatioBX96 */\n      dup6\n        /* \"contracts/uniswap/libraries/SqrtPriceMath.sol\":9878:9887  liquidity */\n      dup6\n        /* \"contracts/uniswap/libraries/SqrtPriceMath.sol\":9877:9887  -liquidity */\n      0x00\n      sub\n        /* \"contracts/uniswap/libraries/SqrtPriceMath.sol\":9890:9895  false */\n      0x00\n        /* \"contracts/uniswap/libraries/SqrtPriceMath.sol\":9823:9838  getAmount0Delta */\n      tag_443\n        /* \"contracts/uniswap/libraries/SqrtPriceMath.sol\":9823:9896  getAmount0Delta(sqrtRatioAX96, sqrtRatioBX96, uint128(-liquidity), false) */\n      jump\t// in\n        /* \"contracts/uniswap/libraries/SqrtPriceMath.sol\":9823:9907  getAmount0Delta(sqrtRatioAX96, sqrtRatioBX96, uint128(-liquidity), false).toInt256() */\n    tag_744:\n        /* \"contracts/uniswap/libraries/SqrtPriceMath.sol\":9822:9907  -getAmount0Delta(sqrtRatioAX96, sqrtRatioBX96, uint128(-liquidity), false).toInt256() */\n      0x00\n      sub\n        /* \"contracts/uniswap/libraries/SqrtPriceMath.sol\":9771:10008  return... */\n      swap5\n        /* \"contracts/uniswap/libraries/SqrtPriceMath.sol\":9603:10015  function getAmount0Delta(... */\n      swap4\n      pop\n      pop\n      pop\n      pop\n      jump\t// out\n        /* \"contracts/uniswap/libraries/SqrtPriceMath.sol\":10359:10771  function getAmount1Delta(... */\n    tag_596:\n        /* \"contracts/uniswap/libraries/SqrtPriceMath.sol\":10501:10515  int256 amount1 */\n      0x00\n        /* \"contracts/uniswap/libraries/SqrtPriceMath.sol\":10558:10559  0 */\n      dup1\n        /* \"contracts/uniswap/libraries/SqrtPriceMath.sol\":10546:10555  liquidity */\n      dup3\n        /* \"contracts/uniswap/libraries/SqrtPriceMath.sol\":10546:10559  liquidity < 0 */\n      0x0f\n      signextend\n      slt\n        /* \"contracts/uniswap/libraries/SqrtPriceMath.sol\":10546:10764  liquidity < 0... */\n      tag_747\n      jumpi\n        /* \"contracts/uniswap/libraries/SqrtPriceMath.sol\":10682:10764  getAmount1Delta(sqrtRatioAX96, sqrtRatioBX96, uint128(liquidity), true).toInt256() */\n      tag_741\n        /* \"contracts/uniswap/libraries/SqrtPriceMath.sol\":10682:10753  getAmount1Delta(sqrtRatioAX96, sqrtRatioBX96, uint128(liquidity), true) */\n      tag_742\n        /* \"contracts/uniswap/libraries/SqrtPriceMath.sol\":10698:10711  sqrtRatioAX96 */\n      dup6\n        /* \"contracts/uniswap/libraries/SqrtPriceMath.sol\":10713:10726  sqrtRatioBX96 */\n      dup6\n        /* \"contracts/uniswap/libraries/SqrtPriceMath.sol\":10736:10745  liquidity */\n      dup6\n        /* \"contracts/uniswap/libraries/SqrtPriceMath.sol\":10748:10752  true */\n      0x01\n        /* \"contracts/uniswap/libraries/SqrtPriceMath.sol\":10682:10697  getAmount1Delta */\n      tag_440\n        /* \"contracts/uniswap/libraries/SqrtPriceMath.sol\":10682:10753  getAmount1Delta(sqrtRatioAX96, sqrtRatioBX96, uint128(liquidity), true) */\n      jump\t// in\n        /* \"contracts/uniswap/libraries/SqrtPriceMath.sol\":10546:10764  liquidity < 0... */\n    tag_747:\n        /* \"contracts/uniswap/libraries/SqrtPriceMath.sol\":10579:10663  getAmount1Delta(sqrtRatioAX96, sqrtRatioBX96, uint128(-liquidity), false).toInt256() */\n      tag_744\n        /* \"contracts/uniswap/libraries/SqrtPriceMath.sol\":10579:10652  getAmount1Delta(sqrtRatioAX96, sqrtRatioBX96, uint128(-liquidity), false) */\n      tag_742\n        /* \"contracts/uniswap/libraries/SqrtPriceMath.sol\":10595:10608  sqrtRatioAX96 */\n      dup6\n        /* \"contracts/uniswap/libraries/SqrtPriceMath.sol\":10610:10623  sqrtRatioBX96 */\n      dup6\n        /* \"contracts/uniswap/libraries/SqrtPriceMath.sol\":10634:10643  liquidity */\n      dup6\n        /* \"contracts/uniswap/libraries/SqrtPriceMath.sol\":10633:10643  -liquidity */\n      0x00\n      sub\n        /* \"contracts/uniswap/libraries/SqrtPriceMath.sol\":10646:10651  false */\n      0x00\n        /* \"contracts/uniswap/libraries/SqrtPriceMath.sol\":10579:10594  getAmount1Delta */\n      tag_440\n        /* \"contracts/uniswap/libraries/SqrtPriceMath.sol\":10579:10652  getAmount1Delta(sqrtRatioAX96, sqrtRatioBX96, uint128(-liquidity), false) */\n      jump\t// in\n        /* \"contracts/uniswap/libraries/UnsafeMath.sol\":492:657  function divRoundingUp(uint256 x, uint256 y) internal pure returns (uint256 z) {... */\n    tag_672:\n        /* \"contracts/uniswap/libraries/UnsafeMath.sol\":613:622  div(x, y) */\n      dup1\n      dup3\n      div\n        /* \"contracts/uniswap/libraries/UnsafeMath.sol\":627:636  mod(x, y) */\n      swap2\n      mod\n        /* \"contracts/uniswap/libraries/UnsafeMath.sol\":624:640  gt(mod(x, y), 0) */\n      iszero\n      iszero\n        /* \"contracts/uniswap/libraries/UnsafeMath.sol\":609:641  add(div(x, y), gt(mod(x, y), 0)) */\n      add\n      swap1\n        /* \"contracts/uniswap/libraries/UnsafeMath.sol\":590:651  {... */\n      jump\t// out\n        /* \"contracts/uniswap/libraries/SqrtPriceMath.sol\":3597:4750  function getNextSqrtPriceFromAmount1RoundingDown(... */\n    tag_678:\n        /* \"contracts/uniswap/libraries/SqrtPriceMath.sol\":3770:3777  uint160 */\n      0x00\n        /* \"contracts/uniswap/libraries/SqrtPriceMath.sol\":3947:3950  add */\n      dup2\n        /* \"contracts/uniswap/libraries/SqrtPriceMath.sol\":3943:4744  if (add) {... */\n      iszero\n      tag_755\n      jumpi\n        /* \"contracts/uniswap/libraries/SqrtPriceMath.sol\":3966:3982  uint256 quotient */\n      0x00\n      sub(shl(0xa0, 0x01), 0x01)\n        /* \"contracts/uniswap/libraries/SqrtPriceMath.sol\":4023:4050  amount <= type(uint160).max */\n      dup5\n      gt\n      iszero\n        /* \"contracts/uniswap/libraries/SqrtPriceMath.sol\":4023:4203  amount <= type(uint160).max... */\n      tag_756\n      jumpi\n        /* \"contracts/uniswap/libraries/SqrtPriceMath.sol\":4151:4203  FullMath.mulDiv(amount, FixedPoint96.Q96, liquidity) */\n      tag_757\n        /* \"contracts/uniswap/libraries/SqrtPriceMath.sol\":4167:4173  amount */\n      dup5\n        /* \"contracts/uniswap/libraries/FixedPoint96.sol\":349:376  0x1000000000000000000000000 */\n      0x01000000000000000000000000\n        /* \"contracts/uniswap/libraries/SqrtPriceMath.sol\":4193:4202  liquidity */\n      dup8\n        /* \"contracts/uniswap/libraries/SqrtPriceMath.sol\":4151:4203  FullMath.mulDiv(amount, FixedPoint96.Q96, liquidity) */\n      0xffffffffffffffffffffffffffffffff\n      and\n        /* \"contracts/uniswap/libraries/SqrtPriceMath.sol\":4151:4166  FullMath.mulDiv */\n      tag_173\n        /* \"contracts/uniswap/libraries/SqrtPriceMath.sol\":4151:4203  FullMath.mulDiv(amount, FixedPoint96.Q96, liquidity) */\n      jump\t// in\n    tag_757:\n        /* \"contracts/uniswap/libraries/SqrtPriceMath.sol\":4023:4203  amount <= type(uint160).max... */\n      jump(tag_758)\n    tag_756:\n        /* \"contracts/uniswap/libraries/SqrtPriceMath.sol\":4077:4124  (amount << FixedPoint96.RESOLUTION) / liquidity */\n      0xffffffffffffffffffffffffffffffff\n      dup6\n      and\n        /* \"contracts/uniswap/libraries/FixedPoint96.sol\":309:311  96 */\n      0x60\n        /* \"contracts/uniswap/libraries/SqrtPriceMath.sol\":4078:4111  amount << FixedPoint96.RESOLUTION */\n      dup6\n      swap1\n      shl\n        /* \"contracts/uniswap/libraries/SqrtPriceMath.sol\":4077:4124  (amount << FixedPoint96.RESOLUTION) / liquidity */\n      dup2\n      tag_759\n      jumpi\n      invalid\n    tag_759:\n      div\n        /* \"contracts/uniswap/libraries/SqrtPriceMath.sol\":4023:4203  amount <= type(uint160).max... */\n    tag_758:\n        /* \"contracts/uniswap/libraries/SqrtPriceMath.sol\":3966:4221  uint256 quotient =... */\n      swap1\n      pop\n        /* \"contracts/uniswap/libraries/SqrtPriceMath.sol\":4243:4286  uint256(sqrtPX96).add(quotient).toUint160() */\n      tag_760\n        /* \"contracts/uniswap/libraries/SqrtPriceMath.sol\":4243:4274  uint256(sqrtPX96).add(quotient) */\n      tag_761\n      sub(shl(0xa0, 0x01), 0x01)\n        /* \"contracts/uniswap/libraries/SqrtPriceMath.sol\":4243:4260  uint256(sqrtPX96) */\n      dup9\n      and\n        /* \"contracts/uniswap/libraries/SqrtPriceMath.sol\":3966:4221  uint256 quotient =... */\n      dup4\n        /* \"contracts/uniswap/libraries/SqrtPriceMath.sol\":4243:4264  uint256(sqrtPX96).add */\n      tag_216\n        /* \"contracts/uniswap/libraries/SqrtPriceMath.sol\":4243:4274  uint256(sqrtPX96).add(quotient) */\n      jump\t// in\n    tag_761:\n        /* \"contracts/uniswap/libraries/SqrtPriceMath.sol\":4243:4284  uint256(sqrtPX96).add(quotient).toUint160 */\n      tag_762\n        /* \"contracts/uniswap/libraries/SqrtPriceMath.sol\":4243:4286  uint256(sqrtPX96).add(quotient).toUint160() */\n      jump\t// in\n    tag_760:\n        /* \"contracts/uniswap/libraries/SqrtPriceMath.sol\":4236:4286  return uint256(sqrtPX96).add(quotient).toUint160() */\n      swap2\n      pop\n      pop\n      jump(tag_657)\n        /* \"contracts/uniswap/libraries/SqrtPriceMath.sol\":3943:4744  if (add) {... */\n    tag_755:\n        /* \"contracts/uniswap/libraries/SqrtPriceMath.sol\":4317:4333  uint256 quotient */\n      0x00\n      sub(shl(0xa0, 0x01), 0x01)\n        /* \"contracts/uniswap/libraries/SqrtPriceMath.sol\":4374:4401  amount <= type(uint160).max */\n      dup5\n      gt\n      iszero\n        /* \"contracts/uniswap/libraries/SqrtPriceMath.sol\":4374:4587  amount <= type(uint160).max... */\n      tag_764\n      jumpi\n        /* \"contracts/uniswap/libraries/SqrtPriceMath.sol\":4525:4587  FullMath.mulDivRoundingUp(amount, FixedPoint96.Q96, liquidity) */\n      tag_765\n        /* \"contracts/uniswap/libraries/SqrtPriceMath.sol\":4551:4557  amount */\n      dup5\n        /* \"contracts/uniswap/libraries/FixedPoint96.sol\":349:376  0x1000000000000000000000000 */\n      0x01000000000000000000000000\n        /* \"contracts/uniswap/libraries/SqrtPriceMath.sol\":4577:4586  liquidity */\n      dup8\n        /* \"contracts/uniswap/libraries/SqrtPriceMath.sol\":4525:4587  FullMath.mulDivRoundingUp(amount, FixedPoint96.Q96, liquidity) */\n      0xffffffffffffffffffffffffffffffff\n      and\n        /* \"contracts/uniswap/libraries/SqrtPriceMath.sol\":4525:4550  FullMath.mulDivRoundingUp */\n      tag_269\n        /* \"contracts/uniswap/libraries/SqrtPriceMath.sol\":4525:4587  FullMath.mulDivRoundingUp(amount, FixedPoint96.Q96, liquidity) */\n      jump\t// in\n    tag_765:\n        /* \"contracts/uniswap/libraries/SqrtPriceMath.sol\":4374:4587  amount <= type(uint160).max... */\n      jump(tag_767)\n    tag_764:\n        /* \"contracts/uniswap/libraries/SqrtPriceMath.sol\":4428:4498  UnsafeMath.divRoundingUp(amount << FixedPoint96.RESOLUTION, liquidity) */\n      tag_767\n        /* \"contracts/uniswap/libraries/FixedPoint96.sol\":309:311  96 */\n      0x60\n        /* \"contracts/uniswap/libraries/SqrtPriceMath.sol\":4453:4486  amount << FixedPoint96.RESOLUTION */\n      dup6\n      swap1\n      shl\n        /* \"contracts/uniswap/libraries/SqrtPriceMath.sol\":4428:4498  UnsafeMath.divRoundingUp(amount << FixedPoint96.RESOLUTION, liquidity) */\n      0xffffffffffffffffffffffffffffffff\n      dup8\n      and\n        /* \"contracts/uniswap/libraries/SqrtPriceMath.sol\":4428:4452  UnsafeMath.divRoundingUp */\n      tag_672\n        /* \"contracts/uniswap/libraries/SqrtPriceMath.sol\":4428:4498  UnsafeMath.divRoundingUp(amount << FixedPoint96.RESOLUTION, liquidity) */\n      jump\t// in\n    tag_767:\n        /* \"contracts/uniswap/libraries/SqrtPriceMath.sol\":4317:4605  uint256 quotient =... */\n      swap1\n      pop\n        /* \"contracts/uniswap/libraries/SqrtPriceMath.sol\":4639:4647  quotient */\n      dup1\n        /* \"contracts/uniswap/libraries/SqrtPriceMath.sol\":4628:4636  sqrtPX96 */\n      dup7\n      sub(shl(0xa0, 0x01), 0x01)\n        /* \"contracts/uniswap/libraries/SqrtPriceMath.sol\":4628:4647  sqrtPX96 > quotient */\n      and\n      gt\n        /* \"contracts/uniswap/libraries/SqrtPriceMath.sol\":4620:4648  require(sqrtPX96 > quotient) */\n      tag_768\n      jumpi\n      0x00\n      dup1\n      revert\n    tag_768:\n      sub(shl(0xa0, 0x01), 0x01)\n        /* \"contracts/uniswap/libraries/SqrtPriceMath.sol\":4713:4732  sqrtPX96 - quotient */\n      dup7\n      and\n      sub\n      swap1\n      pop\n        /* \"contracts/uniswap/libraries/SqrtPriceMath.sol\":4698:4733  return uint160(sqrtPX96 - quotient) */\n      jump(tag_657)\n        /* \"contracts/uniswap/libraries/SqrtPriceMath.sol\":1405:2771  function getNextSqrtPriceFromAmount0RoundingUp(... */\n    tag_681:\n        /* \"contracts/uniswap/libraries/SqrtPriceMath.sol\":1576:1583  uint160 */\n      0x00\n        /* \"contracts/uniswap/libraries/SqrtPriceMath.sol\":1711:1722  amount == 0 */\n      dup3\n        /* \"contracts/uniswap/libraries/SqrtPriceMath.sol\":1707:1739  if (amount == 0) return sqrtPX96 */\n      tag_770\n      jumpi\n      pop\n        /* \"contracts/uniswap/libraries/SqrtPriceMath.sol\":1731:1739  sqrtPX96 */\n      dup4\n        /* \"contracts/uniswap/libraries/SqrtPriceMath.sol\":1724:1739  return sqrtPX96 */\n      jump(tag_657)\n        /* \"contracts/uniswap/libraries/SqrtPriceMath.sol\":1707:1739  if (amount == 0) return sqrtPX96 */\n    tag_770:\n        /* \"contracts/uniswap/libraries/SqrtPriceMath.sol\":1770:1815  uint256(liquidity) << FixedPoint96.RESOLUTION */\n      0xffffffffffffffffffffffffffffffff000000000000000000000000\n        /* \"contracts/uniswap/libraries/FixedPoint96.sol\":309:311  96 */\n      0x60\n        /* \"contracts/uniswap/libraries/SqrtPriceMath.sol\":1770:1815  uint256(liquidity) << FixedPoint96.RESOLUTION */\n      dup6\n      swap1\n      shl\n      and\n        /* \"contracts/uniswap/libraries/SqrtPriceMath.sol\":1826:2765  if (add) {... */\n      dup3\n      iszero\n      tag_771\n      jumpi\n      sub(shl(0xa0, 0x01), 0x01)\n        /* \"contracts/uniswap/libraries/SqrtPriceMath.sol\":1882:1932  (product = amount * sqrtPX96) / amount == sqrtPX96 */\n      dup7\n      and\n        /* \"contracts/uniswap/libraries/SqrtPriceMath.sol\":1893:1910  amount * sqrtPX96 */\n      dup5\n      dup2\n      mul\n      swap1\n        /* \"contracts/uniswap/libraries/SqrtPriceMath.sol\":1914:1920  amount */\n      dup6\n        /* \"contracts/uniswap/libraries/SqrtPriceMath.sol\":1893:1910  amount * sqrtPX96 */\n      dup3\n        /* \"contracts/uniswap/libraries/SqrtPriceMath.sol\":1914:1920  amount */\n      dup2\n        /* \"contracts/uniswap/libraries/SqrtPriceMath.sol\":1882:1920  (product = amount * sqrtPX96) / amount */\n      tag_772\n      jumpi\n      invalid\n    tag_772:\n      div\n        /* \"contracts/uniswap/libraries/SqrtPriceMath.sol\":1882:1932  (product = amount * sqrtPX96) / amount == sqrtPX96 */\n      eq\n        /* \"contracts/uniswap/libraries/SqrtPriceMath.sol\":1878:2201  if ((product = amount * sqrtPX96) / amount == sqrtPX96) {... */\n      iszero\n      tag_773\n      jumpi\n        /* \"contracts/uniswap/libraries/SqrtPriceMath.sol\":1974:1994  numerator1 + product */\n      dup2\n      dup2\n      add\n        /* \"contracts/uniswap/libraries/SqrtPriceMath.sol\":2016:2041  denominator >= numerator1 */\n      dup3\n      dup2\n      lt\n        /* \"contracts/uniswap/libraries/SqrtPriceMath.sol\":2012:2186  if (denominator >= numerator1)... */\n      tag_774\n      jumpi\n        /* \"contracts/uniswap/libraries/SqrtPriceMath.sol\":2125:2185  FullMath.mulDivRoundingUp(numerator1, sqrtPX96, denominator) */\n      tag_775\n        /* \"contracts/uniswap/libraries/SqrtPriceMath.sol\":2151:2161  numerator1 */\n      dup4\n        /* \"contracts/uniswap/libraries/SqrtPriceMath.sol\":2163:2171  sqrtPX96 */\n      dup10\n      sub(shl(0xa0, 0x01), 0x01)\n        /* \"contracts/uniswap/libraries/SqrtPriceMath.sol\":2125:2185  FullMath.mulDivRoundingUp(numerator1, sqrtPX96, denominator) */\n      and\n        /* \"contracts/uniswap/libraries/SqrtPriceMath.sol\":2173:2184  denominator */\n      dup4\n        /* \"contracts/uniswap/libraries/SqrtPriceMath.sol\":2125:2150  FullMath.mulDivRoundingUp */\n      tag_269\n        /* \"contracts/uniswap/libraries/SqrtPriceMath.sol\":2125:2185  FullMath.mulDivRoundingUp(numerator1, sqrtPX96, denominator) */\n      jump\t// in\n    tag_775:\n        /* \"contracts/uniswap/libraries/SqrtPriceMath.sol\":2110:2186  return uint160(FullMath.mulDivRoundingUp(numerator1, sqrtPX96, denominator)) */\n      swap4\n      pop\n      pop\n      pop\n      pop\n      jump(tag_657)\n        /* \"contracts/uniswap/libraries/SqrtPriceMath.sol\":2012:2186  if (denominator >= numerator1)... */\n    tag_774:\n        /* \"contracts/uniswap/libraries/SqrtPriceMath.sol\":1878:2201  if ((product = amount * sqrtPX96) / amount == sqrtPX96) {... */\n      pop\n    tag_773:\n        /* \"contracts/uniswap/libraries/SqrtPriceMath.sol\":2230:2303  UnsafeMath.divRoundingUp(numerator1, (numerator1 / sqrtPX96).add(amount)) */\n      tag_776\n        /* \"contracts/uniswap/libraries/SqrtPriceMath.sol\":2255:2265  numerator1 */\n      dup3\n        /* \"contracts/uniswap/libraries/SqrtPriceMath.sol\":2267:2302  (numerator1 / sqrtPX96).add(amount) */\n      tag_777\n        /* \"contracts/uniswap/libraries/SqrtPriceMath.sol\":2295:2301  amount */\n      dup8\n        /* \"contracts/uniswap/libraries/SqrtPriceMath.sol\":2281:2289  sqrtPX96 */\n      dup11\n      sub(shl(0xa0, 0x01), 0x01)\n        /* \"contracts/uniswap/libraries/SqrtPriceMath.sol\":2268:2289  numerator1 / sqrtPX96 */\n      and\n        /* \"contracts/uniswap/libraries/SqrtPriceMath.sol\":2268:2278  numerator1 */\n      dup7\n        /* \"contracts/uniswap/libraries/SqrtPriceMath.sol\":2268:2289  numerator1 / sqrtPX96 */\n      dup2\n      tag_778\n      jumpi\n      invalid\n    tag_778:\n      div\n      swap1\n        /* \"contracts/uniswap/libraries/SqrtPriceMath.sol\":2267:2294  (numerator1 / sqrtPX96).add */\n      tag_216\n        /* \"contracts/uniswap/libraries/SqrtPriceMath.sol\":2267:2302  (numerator1 / sqrtPX96).add(amount) */\n      jump\t// in\n    tag_777:\n        /* \"contracts/uniswap/libraries/SqrtPriceMath.sol\":2230:2254  UnsafeMath.divRoundingUp */\n      tag_672\n        /* \"contracts/uniswap/libraries/SqrtPriceMath.sol\":2230:2303  UnsafeMath.divRoundingUp(numerator1, (numerator1 / sqrtPX96).add(amount)) */\n      jump\t// in\n    tag_776:\n        /* \"contracts/uniswap/libraries/SqrtPriceMath.sol\":2215:2304  return uint160(UnsafeMath.divRoundingUp(numerator1, (numerator1 / sqrtPX96).add(amount))) */\n      swap3\n      pop\n      pop\n      pop\n      jump(tag_657)\n        /* \"contracts/uniswap/libraries/SqrtPriceMath.sol\":1826:2765  if (add) {... */\n    tag_771:\n      sub(shl(0xa0, 0x01), 0x01)\n        /* \"contracts/uniswap/libraries/SqrtPriceMath.sol\":2530:2580  (product = amount * sqrtPX96) / amount == sqrtPX96 */\n      dup7\n      and\n        /* \"contracts/uniswap/libraries/SqrtPriceMath.sol\":2541:2558  amount * sqrtPX96 */\n      dup5\n      dup2\n      mul\n      swap1\n        /* \"contracts/uniswap/libraries/SqrtPriceMath.sol\":2562:2568  amount */\n      dup6\n        /* \"contracts/uniswap/libraries/SqrtPriceMath.sol\":2541:2558  amount * sqrtPX96 */\n      dup3\n        /* \"contracts/uniswap/libraries/SqrtPriceMath.sol\":2562:2568  amount */\n      dup2\n        /* \"contracts/uniswap/libraries/SqrtPriceMath.sol\":2530:2568  (product = amount * sqrtPX96) / amount */\n      tag_780\n      jumpi\n      invalid\n    tag_780:\n      div\n        /* \"contracts/uniswap/libraries/SqrtPriceMath.sol\":2530:2580  (product = amount * sqrtPX96) / amount == sqrtPX96 */\n      eq\n        /* \"contracts/uniswap/libraries/SqrtPriceMath.sol\":2530:2604  (product = amount * sqrtPX96) / amount == sqrtPX96 && numerator1 > product */\n      dup1\n      iszero\n      tag_781\n      jumpi\n      pop\n        /* \"contracts/uniswap/libraries/SqrtPriceMath.sol\":2597:2604  product */\n      dup1\n        /* \"contracts/uniswap/libraries/SqrtPriceMath.sol\":2584:2594  numerator1 */\n      dup3\n        /* \"contracts/uniswap/libraries/SqrtPriceMath.sol\":2584:2604  numerator1 > product */\n      gt\n        /* \"contracts/uniswap/libraries/SqrtPriceMath.sol\":2530:2604  (product = amount * sqrtPX96) / amount == sqrtPX96 && numerator1 > product */\n    tag_781:\n        /* \"contracts/uniswap/libraries/SqrtPriceMath.sol\":2522:2605  require((product = amount * sqrtPX96) / amount == sqrtPX96 && numerator1 > product) */\n      tag_782\n      jumpi\n      0x00\n      dup1\n      revert\n    tag_782:\n        /* \"contracts/uniswap/libraries/SqrtPriceMath.sol\":2641:2661  numerator1 - product */\n      dup1\n      dup3\n      sub\n        /* \"contracts/uniswap/libraries/SqrtPriceMath.sol\":2682:2754  FullMath.mulDivRoundingUp(numerator1, sqrtPX96, denominator).toUint160() */\n      tag_775\n        /* \"contracts/uniswap/libraries/SqrtPriceMath.sol\":2682:2742  FullMath.mulDivRoundingUp(numerator1, sqrtPX96, denominator) */\n      tag_761\n        /* \"contracts/uniswap/libraries/SqrtPriceMath.sol\":2641:2651  numerator1 */\n      dup5\n      sub(shl(0xa0, 0x01), 0x01)\n        /* \"contracts/uniswap/libraries/SqrtPriceMath.sol\":2682:2742  FullMath.mulDivRoundingUp(numerator1, sqrtPX96, denominator) */\n      dup12\n      and\n        /* \"contracts/uniswap/libraries/SqrtPriceMath.sol\":2641:2661  numerator1 - product */\n      dup5\n        /* \"contracts/uniswap/libraries/SqrtPriceMath.sol\":2682:2707  FullMath.mulDivRoundingUp */\n      tag_269\n        /* \"contracts/uniswap/libraries/SqrtPriceMath.sol\":2682:2742  FullMath.mulDivRoundingUp(numerator1, sqrtPX96, denominator) */\n      jump\t// in\n        /* \"contracts/uniswap/libraries/Oracle.sol\":6703:7074  function lte(... */\n    tag_701:\n        /* \"contracts/uniswap/libraries/Oracle.sol\":6801:6805  bool */\n      0x00\n        /* \"contracts/uniswap/libraries/Oracle.sol\":6886:6890  time */\n      dup4\n        /* \"contracts/uniswap/libraries/Oracle.sol\":6881:6890  a <= time */\n      0xffffffff\n      and\n        /* \"contracts/uniswap/libraries/Oracle.sol\":6881:6882  a */\n      dup4\n        /* \"contracts/uniswap/libraries/Oracle.sol\":6881:6890  a <= time */\n      0xffffffff\n      and\n      gt\n      iszero\n        /* \"contracts/uniswap/libraries/Oracle.sol\":6881:6903  a <= time && b <= time */\n      dup1\n      iszero\n      tag_786\n      jumpi\n      pop\n        /* \"contracts/uniswap/libraries/Oracle.sol\":6899:6903  time */\n      dup4\n        /* \"contracts/uniswap/libraries/Oracle.sol\":6894:6903  b <= time */\n      0xffffffff\n      and\n        /* \"contracts/uniswap/libraries/Oracle.sol\":6894:6895  b */\n      dup3\n        /* \"contracts/uniswap/libraries/Oracle.sol\":6894:6903  b <= time */\n      0xffffffff\n      and\n      gt\n      iszero\n        /* \"contracts/uniswap/libraries/Oracle.sol\":6881:6903  a <= time && b <= time */\n    tag_786:\n        /* \"contracts/uniswap/libraries/Oracle.sol\":6877:6918  if (a <= time && b <= time) return a <= b */\n      iszero\n      tag_787\n      jumpi\n        /* \"contracts/uniswap/libraries/Oracle.sol\":6917:6918  b */\n      dup2\n        /* \"contracts/uniswap/libraries/Oracle.sol\":6912:6918  a <= b */\n      0xffffffff\n      and\n        /* \"contracts/uniswap/libraries/Oracle.sol\":6912:6913  a */\n      dup4\n        /* \"contracts/uniswap/libraries/Oracle.sol\":6912:6918  a <= b */\n      0xffffffff\n      and\n      gt\n      iszero\n        /* \"contracts/uniswap/libraries/Oracle.sol\":6905:6918  return a <= b */\n      swap1\n      pop\n      jump(tag_487)\n        /* \"contracts/uniswap/libraries/Oracle.sol\":6877:6918  if (a <= time && b <= time) return a <= b */\n    tag_787:\n        /* \"contracts/uniswap/libraries/Oracle.sol\":6929:6946  uint256 aAdjusted */\n      0x00\n        /* \"contracts/uniswap/libraries/Oracle.sol\":6953:6957  time */\n      dup5\n        /* \"contracts/uniswap/libraries/Oracle.sol\":6949:6957  a > time */\n      0xffffffff\n      and\n        /* \"contracts/uniswap/libraries/Oracle.sol\":6949:6950  a */\n      dup5\n        /* \"contracts/uniswap/libraries/Oracle.sol\":6949:6957  a > time */\n      0xffffffff\n      and\n      gt\n        /* \"contracts/uniswap/libraries/Oracle.sol\":6949:6973  a > time ? a : a + 2**32 */\n      tag_788\n      jumpi\n        /* \"contracts/uniswap/libraries/Oracle.sol\":6964:6965  a */\n      dup4\n        /* \"contracts/uniswap/libraries/Oracle.sol\":6964:6973  a + 2**32 */\n      0xffffffff\n      and\n        /* \"contracts/uniswap/libraries/Oracle.sol\":6968:6973  2**32 */\n      0x0100000000\n        /* \"contracts/uniswap/libraries/Oracle.sol\":6964:6973  a + 2**32 */\n      add\n        /* \"contracts/uniswap/libraries/Oracle.sol\":6949:6973  a > time ? a : a + 2**32 */\n      jump(tag_789)\n    tag_788:\n        /* \"contracts/uniswap/libraries/Oracle.sol\":6960:6961  a */\n      dup4\n        /* \"contracts/uniswap/libraries/Oracle.sol\":6949:6973  a > time ? a : a + 2**32 */\n      0xffffffff\n      and\n    tag_789:\n        /* \"contracts/uniswap/libraries/Oracle.sol\":6929:6973  uint256 aAdjusted = a > time ? a : a + 2**32 */\n      0xffffffffff\n      and\n      swap1\n      pop\n        /* \"contracts/uniswap/libraries/Oracle.sol\":6983:7000  uint256 bAdjusted */\n      0x00\n        /* \"contracts/uniswap/libraries/Oracle.sol\":7007:7011  time */\n      dup6\n        /* \"contracts/uniswap/libraries/Oracle.sol\":7003:7011  b > time */\n      0xffffffff\n      and\n        /* \"contracts/uniswap/libraries/Oracle.sol\":7003:7004  b */\n      dup5\n        /* \"contracts/uniswap/libraries/Oracle.sol\":7003:7011  b > time */\n      0xffffffff\n      and\n      gt\n        /* \"contracts/uniswap/libraries/Oracle.sol\":7003:7027  b > time ? b : b + 2**32 */\n      tag_790\n      jumpi\n        /* \"contracts/uniswap/libraries/Oracle.sol\":7018:7019  b */\n      dup4\n        /* \"contracts/uniswap/libraries/Oracle.sol\":7018:7027  b + 2**32 */\n      0xffffffff\n      and\n        /* \"contracts/uniswap/libraries/Oracle.sol\":7022:7027  2**32 */\n      0x0100000000\n        /* \"contracts/uniswap/libraries/Oracle.sol\":7018:7027  b + 2**32 */\n      add\n        /* \"contracts/uniswap/libraries/Oracle.sol\":7003:7027  b > time ? b : b + 2**32 */\n      jump(tag_791)\n    tag_790:\n        /* \"contracts/uniswap/libraries/Oracle.sol\":7014:7015  b */\n      dup4\n        /* \"contracts/uniswap/libraries/Oracle.sol\":7003:7027  b > time ? b : b + 2**32 */\n      0xffffffff\n      and\n    tag_791:\n        /* \"contracts/uniswap/libraries/Oracle.sol\":6983:7027  uint256 bAdjusted = b > time ? b : b + 2**32 */\n      0xffffffffff\n      and\n        /* \"contracts/uniswap/libraries/Oracle.sol\":7045:7067  aAdjusted <= bAdjusted */\n      swap1\n      swap2\n      gt\n      iszero\n      swap6\n        /* \"contracts/uniswap/libraries/Oracle.sol\":6703:7074  function lte(... */\n      swap5\n      pop\n      pop\n      pop\n      pop\n      pop\n      jump\t// out\n        /* \"contracts/uniswap/libraries/Oracle.sol\":8029:9093  function binarySearch(... */\n    tag_715:\n        /* \"contracts/uniswap/libraries/Oracle.sol\":8214:8243  Observation memory beforeOrAt */\n      tag_792\n      tag_690\n      jump\t// in\n    tag_792:\n        /* \"contracts/uniswap/libraries/Oracle.sol\":8245:8273  Observation memory atOrAfter */\n      tag_793\n      tag_690\n      jump\t// in\n    tag_793:\n        /* \"contracts/uniswap/libraries/Oracle.sol\":8285:8294  uint256 l */\n      0x00\n        /* \"contracts/uniswap/libraries/Oracle.sol\":8311:8322  cardinality */\n      dup4\n        /* \"contracts/uniswap/libraries/Oracle.sol\":8297:8322  (index + 1) % cardinality */\n      0xffff\n      and\n        /* \"contracts/uniswap/libraries/Oracle.sol\":8298:8303  index */\n      dup6\n        /* \"contracts/uniswap/libraries/Oracle.sol\":8306:8307  1 */\n      0x01\n        /* \"contracts/uniswap/libraries/Oracle.sol\":8298:8307  index + 1 */\n      add\n        /* \"contracts/uniswap/libraries/Oracle.sol\":8297:8322  (index + 1) % cardinality */\n      0xffff\n      and\n      dup2\n      tag_795\n      jumpi\n      invalid\n    tag_795:\n      mod\n        /* \"contracts/uniswap/libraries/Oracle.sol\":8285:8322  uint256 l = (index + 1) % cardinality */\n      0xffff\n      and\n      swap1\n      pop\n        /* \"contracts/uniswap/libraries/Oracle.sol\":8354:8363  uint256 r */\n      0x00\n        /* \"contracts/uniswap/libraries/Oracle.sol\":8384:8385  1 */\n      0x01\n        /* \"contracts/uniswap/libraries/Oracle.sol\":8370:8381  cardinality */\n      dup6\n        /* \"contracts/uniswap/libraries/Oracle.sol\":8366:8381  l + cardinality */\n      0xffff\n      and\n        /* \"contracts/uniswap/libraries/Oracle.sol\":8366:8367  l */\n      dup4\n        /* \"contracts/uniswap/libraries/Oracle.sol\":8366:8381  l + cardinality */\n      add\n        /* \"contracts/uniswap/libraries/Oracle.sol\":8366:8385  l + cardinality - 1 */\n      sub\n        /* \"contracts/uniswap/libraries/Oracle.sol\":8354:8385  uint256 r = l + cardinality - 1 */\n      swap1\n      pop\n        /* \"contracts/uniswap/libraries/Oracle.sol\":8417:8426  uint256 i */\n      0x00\n        /* \"contracts/uniswap/libraries/Oracle.sol\":8436:9087  while (true) {... */\n    tag_796:\n      pop\n        /* \"contracts/uniswap/libraries/Oracle.sol\":8477:8478  2 */\n      0x02\n        /* \"contracts/uniswap/libraries/Oracle.sol\":8468:8473  l + r */\n      dup2\n      dup4\n      add\n        /* \"contracts/uniswap/libraries/Oracle.sol\":8467:8478  (l + r) / 2 */\n      div\n        /* \"contracts/uniswap/libraries/Oracle.sol\":8506:8510  self */\n      dup10\n        /* \"contracts/uniswap/libraries/Oracle.sol\":8511:8526  i % cardinality */\n      0xffff\n      dup8\n      and\n        /* \"contracts/uniswap/libraries/Oracle.sol\":8467:8478  (l + r) / 2 */\n      dup3\n        /* \"contracts/uniswap/libraries/Oracle.sol\":8511:8526  i % cardinality */\n      dup2\n      tag_799\n      jumpi\n      invalid\n    tag_799:\n      mod\n        /* \"contracts/uniswap/libraries/Oracle.sol\":8506:8527  self[i % cardinality] */\n      0xffff\n      dup2\n      lt\n      tag_800\n      jumpi\n      invalid\n    tag_800:\n        /* \"contracts/uniswap/libraries/Oracle.sol\":8493:8527  beforeOrAt = self[i % cardinality] */\n      0x40\n      dup1\n      mload\n      0x80\n      dup2\n      add\n      dup3\n      mstore\n        /* \"contracts/uniswap/libraries/Oracle.sol\":8506:8527  self[i % cardinality] */\n      swap3\n      swap1\n      swap2\n      add\n        /* \"contracts/uniswap/libraries/Oracle.sol\":8493:8527  beforeOrAt = self[i % cardinality] */\n      sload\n      0xffffffff\n      dup2\n      and\n      dup4\n      mstore\n      0x0100000000\n      dup2\n      div\n      0x06\n      swap1\n      dup2\n      signextend\n      dup2\n      signextend\n      swap1\n      signextend\n      0x20\n      dup5\n      add\n      mstore\n      sub(shl(0xa0, 0x01), 0x01)\n      0x010000000000000000000000\n      dup3\n      div\n      and\n      swap2\n      dup4\n      add\n      swap2\n      swap1\n      swap2\n      mstore\n      0xff\n      0x0100000000000000000000000000000000000000000000000000000000000000\n      swap1\n      swap2\n      div\n      and\n      iszero\n      iszero\n      0x60\n      dup3\n      add\n      dup2\n      swap1\n      mstore\n      swap1\n      swap6\n      pop\n        /* \"contracts/uniswap/libraries/Oracle.sol\":8634:8731  if (!beforeOrAt.initialized) {... */\n      tag_802\n      jumpi\n        /* \"contracts/uniswap/libraries/Oracle.sol\":8685:8686  i */\n      dup1\n        /* \"contracts/uniswap/libraries/Oracle.sol\":8689:8690  1 */\n      0x01\n        /* \"contracts/uniswap/libraries/Oracle.sol\":8685:8690  i + 1 */\n      add\n        /* \"contracts/uniswap/libraries/Oracle.sol\":8681:8690  l = i + 1 */\n      swap3\n      pop\n        /* \"contracts/uniswap/libraries/Oracle.sol\":8708:8716  continue */\n      jump(tag_796)\n        /* \"contracts/uniswap/libraries/Oracle.sol\":8634:8731  if (!beforeOrAt.initialized) {... */\n    tag_802:\n        /* \"contracts/uniswap/libraries/Oracle.sol\":8757:8761  self */\n      dup10\n        /* \"contracts/uniswap/libraries/Oracle.sol\":8772:8783  cardinality */\n      dup7\n        /* \"contracts/uniswap/libraries/Oracle.sol\":8762:8783  (i + 1) % cardinality */\n      0xffff\n      and\n        /* \"contracts/uniswap/libraries/Oracle.sol\":8763:8764  i */\n      dup3\n        /* \"contracts/uniswap/libraries/Oracle.sol\":8767:8768  1 */\n      0x01\n        /* \"contracts/uniswap/libraries/Oracle.sol\":8763:8768  i + 1 */\n      add\n        /* \"contracts/uniswap/libraries/Oracle.sol\":8762:8783  (i + 1) % cardinality */\n      dup2\n      tag_803\n      jumpi\n      invalid\n    tag_803:\n      mod\n        /* \"contracts/uniswap/libraries/Oracle.sol\":8757:8784  self[(i + 1) % cardinality] */\n      0xffff\n      dup2\n      lt\n      tag_804\n      jumpi\n      invalid\n    tag_804:\n        /* \"contracts/uniswap/libraries/Oracle.sol\":8745:8784  atOrAfter = self[(i + 1) % cardinality] */\n      0x40\n      dup1\n      mload\n      0x80\n      dup2\n      add\n      dup3\n      mstore\n        /* \"contracts/uniswap/libraries/Oracle.sol\":8757:8784  self[(i + 1) % cardinality] */\n      swap3\n      swap1\n      swap2\n      add\n        /* \"contracts/uniswap/libraries/Oracle.sol\":8745:8784  atOrAfter = self[(i + 1) % cardinality] */\n      sload\n      0xffffffff\n      dup2\n      and\n      dup4\n      mstore\n      0x0100000000\n      dup2\n      div\n      0x06\n      swap1\n      dup2\n      signextend\n      dup2\n      signextend\n      swap1\n      signextend\n      0x20\n      dup5\n      add\n      mstore\n      sub(shl(0xa0, 0x01), 0x01)\n      0x010000000000000000000000\n      dup3\n      div\n      and\n      swap2\n      dup4\n      add\n      swap2\n      swap1\n      swap2\n      mstore\n      0xff\n      0x0100000000000000000000000000000000000000000000000000000000000000\n      swap1\n      swap2\n      div\n      and\n      iszero\n      iszero\n      0x60\n      dup3\n      add\n      mstore\n        /* \"contracts/uniswap/libraries/Oracle.sol\":8832:8857  beforeOrAt.blockTimestamp */\n      dup6\n      mload\n        /* \"contracts/uniswap/libraries/Oracle.sol\":8745:8784  atOrAfter = self[(i + 1) % cardinality] */\n      swap1\n      swap5\n      pop\n      0x00\n      swap1\n        /* \"contracts/uniswap/libraries/Oracle.sol\":8822:8866  lte(time, beforeOrAt.blockTimestamp, target) */\n      tag_806\n      swap1\n        /* \"contracts/uniswap/libraries/Oracle.sol\":8826:8830  time */\n      dup12\n      swap1\n        /* \"contracts/uniswap/libraries/Oracle.sol\":8859:8865  target */\n      dup12\n        /* \"contracts/uniswap/libraries/Oracle.sol\":8822:8825  lte */\n      tag_701\n        /* \"contracts/uniswap/libraries/Oracle.sol\":8822:8866  lte(time, beforeOrAt.blockTimestamp, target) */\n      jump\t// in\n    tag_806:\n        /* \"contracts/uniswap/libraries/Oracle.sol\":8799:8866  bool targetAtOrAfter = lte(time, beforeOrAt.blockTimestamp, target) */\n      swap1\n      pop\n        /* \"contracts/uniswap/libraries/Oracle.sol\":8933:8948  targetAtOrAfter */\n      dup1\n        /* \"contracts/uniswap/libraries/Oracle.sol\":8933:8995  targetAtOrAfter && lte(time, target, atOrAfter.blockTimestamp) */\n      dup1\n      iszero\n      tag_808\n      jumpi\n      pop\n        /* \"contracts/uniswap/libraries/Oracle.sol\":8952:8995  lte(time, target, atOrAfter.blockTimestamp) */\n      tag_808\n        /* \"contracts/uniswap/libraries/Oracle.sol\":8956:8960  time */\n      dup11\n        /* \"contracts/uniswap/libraries/Oracle.sol\":8962:8968  target */\n      dup11\n        /* \"contracts/uniswap/libraries/Oracle.sol\":8970:8979  atOrAfter */\n      dup8\n        /* \"contracts/uniswap/libraries/Oracle.sol\":8970:8994  atOrAfter.blockTimestamp */\n      0x00\n      add\n      mload\n        /* \"contracts/uniswap/libraries/Oracle.sol\":8952:8955  lte */\n      tag_701\n        /* \"contracts/uniswap/libraries/Oracle.sol\":8952:8995  lte(time, target, atOrAfter.blockTimestamp) */\n      jump\t// in\n    tag_808:\n        /* \"contracts/uniswap/libraries/Oracle.sol\":8929:9002  if (targetAtOrAfter && lte(time, target, atOrAfter.blockTimestamp)) break */\n      iszero\n      tag_809\n      jumpi\n        /* \"contracts/uniswap/libraries/Oracle.sol\":8997:9002  break */\n      pop\n      jump(tag_797)\n        /* \"contracts/uniswap/libraries/Oracle.sol\":8929:9002  if (targetAtOrAfter && lte(time, target, atOrAfter.blockTimestamp)) break */\n    tag_809:\n        /* \"contracts/uniswap/libraries/Oracle.sol\":9022:9037  targetAtOrAfter */\n      dup1\n        /* \"contracts/uniswap/libraries/Oracle.sol\":9017:9076  if (!targetAtOrAfter) r = i - 1;... */\n      tag_810\n      jumpi\n        /* \"contracts/uniswap/libraries/Oracle.sol\":9047:9048  1 */\n      0x01\n        /* \"contracts/uniswap/libraries/Oracle.sol\":9043:9044  i */\n      dup3\n        /* \"contracts/uniswap/libraries/Oracle.sol\":9043:9048  i - 1 */\n      sub\n        /* \"contracts/uniswap/libraries/Oracle.sol\":9039:9048  r = i - 1 */\n      swap3\n      pop\n        /* \"contracts/uniswap/libraries/Oracle.sol\":9017:9076  if (!targetAtOrAfter) r = i - 1;... */\n      jump(tag_811)\n    tag_810:\n        /* \"contracts/uniswap/libraries/Oracle.sol\":9071:9072  i */\n      dup2\n        /* \"contracts/uniswap/libraries/Oracle.sol\":9075:9076  1 */\n      0x01\n        /* \"contracts/uniswap/libraries/Oracle.sol\":9071:9076  i + 1 */\n      add\n        /* \"contracts/uniswap/libraries/Oracle.sol\":9067:9076  l = i + 1 */\n      swap4\n      pop\n        /* \"contracts/uniswap/libraries/Oracle.sol\":9017:9076  if (!targetAtOrAfter) r = i - 1;... */\n    tag_811:\n        /* \"contracts/uniswap/libraries/Oracle.sol\":8436:9087  while (true) {... */\n      pop\n      jump(tag_796)\n    tag_797:\n        /* \"contracts/uniswap/libraries/Oracle.sol\":8029:9093  function binarySearch(... */\n      pop\n      pop\n      pop\n      swap6\n      pop\n      swap6\n      swap4\n      pop\n      pop\n      pop\n      pop\n      jump\t// out\n        /* \"contracts/uniswap/libraries/Tick.sol\":6108:7797  function update(... */\n    tag_722:\n        /* \"contracts/uniswap/libraries/Tick.sol\":6553:6563  self[tick] */\n      0x02\n      dup11\n      dup2\n      signextend\n      swap1\n      signextend\n        /* \"contracts/uniswap/libraries/Tick.sol\":6504:6516  bool flipped */\n      0x00\n        /* \"contracts/uniswap/libraries/Tick.sol\":6553:6563  self[tick] */\n      swap1\n      dup2\n      mstore\n      0x20\n      dup13\n      swap1\n      mstore\n      0x40\n      dup2\n      keccak256\n        /* \"contracts/uniswap/libraries/Tick.sol\":6605:6624  info.liquidityGross */\n      dup1\n      sload\n      0xffffffffffffffffffffffffffffffff\n      and\n        /* \"contracts/uniswap/libraries/Tick.sol\":6504:6516  bool flipped */\n      dup3\n        /* \"contracts/uniswap/libraries/Tick.sol\":6664:6724  LiquidityMath.addDelta(liquidityGrossBefore, liquidityDelta) */\n      tag_813\n        /* \"contracts/uniswap/libraries/Tick.sol\":6605:6624  info.liquidityGross */\n      dup3\n        /* \"contracts/uniswap/libraries/Tick.sol\":6709:6723  liquidityDelta */\n      dup14\n        /* \"contracts/uniswap/libraries/Tick.sol\":6664:6686  LiquidityMath.addDelta */\n      tag_187\n        /* \"contracts/uniswap/libraries/Tick.sol\":6664:6724  LiquidityMath.addDelta(liquidityGrossBefore, liquidityDelta) */\n      jump\t// in\n    tag_813:\n        /* \"contracts/uniswap/libraries/Tick.sol\":6634:6724  uint128 liquidityGrossAfter = LiquidityMath.addDelta(liquidityGrossBefore, liquidityDelta) */\n      swap1\n      pop\n        /* \"contracts/uniswap/libraries/Tick.sol\":6766:6778  maxLiquidity */\n      dup5\n        /* \"contracts/uniswap/libraries/Tick.sol\":6743:6778  liquidityGrossAfter <= maxLiquidity */\n      0xffffffffffffffffffffffffffffffff\n      and\n        /* \"contracts/uniswap/libraries/Tick.sol\":6743:6762  liquidityGrossAfter */\n      dup2\n        /* \"contracts/uniswap/libraries/Tick.sol\":6743:6778  liquidityGrossAfter <= maxLiquidity */\n      0xffffffffffffffffffffffffffffffff\n      and\n      gt\n      iszero\n        /* \"contracts/uniswap/libraries/Tick.sol\":6735:6785  require(liquidityGrossAfter <= maxLiquidity, 'LO') */\n      tag_814\n      jumpi\n      0x00\n      dup1\n      revert\n    tag_814:\n        /* \"contracts/uniswap/libraries/Tick.sol\":6837:6862  liquidityGrossBefore == 0 */\n      0xffffffffffffffffffffffffffffffff\n      dup3\n      dup2\n      and\n      iszero\n        /* \"contracts/uniswap/libraries/Tick.sol\":6807:6831  liquidityGrossAfter == 0 */\n      swap1\n      dup3\n      and\n      iszero\n        /* \"contracts/uniswap/libraries/Tick.sol\":6806:6863  (liquidityGrossAfter == 0) != (liquidityGrossBefore == 0) */\n      dup2\n      eq\n      iszero\n      swap5\n      pop\n      iszero\n        /* \"contracts/uniswap/libraries/Tick.sol\":6874:7446  if (liquidityGrossBefore == 0) {... */\n      tag_815\n      jumpi\n        /* \"contracts/uniswap/libraries/Tick.sol\":7043:7054  tickCurrent */\n      dup13\n        /* \"contracts/uniswap/libraries/Tick.sol\":7035:7054  tick <= tickCurrent */\n      0x02\n      signextend\n        /* \"contracts/uniswap/libraries/Tick.sol\":7035:7039  tick */\n      dup15\n        /* \"contracts/uniswap/libraries/Tick.sol\":7035:7054  tick <= tickCurrent */\n      0x02\n      signextend\n      sgt\n        /* \"contracts/uniswap/libraries/Tick.sol\":7031:7399  if (tick <= tickCurrent) {... */\n      tag_816\n      jumpi\n        /* \"contracts/uniswap/libraries/Tick.sol\":7074:7100  info.feeGrowthOutside0X128 */\n      0x01\n      dup4\n      add\n        /* \"contracts/uniswap/libraries/Tick.sol\":7074:7123  info.feeGrowthOutside0X128 = feeGrowthGlobal0X128 */\n      dup12\n      swap1\n      sstore\n        /* \"contracts/uniswap/libraries/Tick.sol\":7141:7167  info.feeGrowthOutside1X128 */\n      0x02\n      dup4\n      add\n        /* \"contracts/uniswap/libraries/Tick.sol\":7141:7190  info.feeGrowthOutside1X128 = feeGrowthGlobal1X128 */\n      dup11\n      swap1\n      sstore\n        /* \"contracts/uniswap/libraries/Tick.sol\":7208:7243  info.secondsPerLiquidityOutsideX128 */\n      0x03\n      dup4\n      add\n        /* \"contracts/uniswap/libraries/Tick.sol\":7208:7279  info.secondsPerLiquidityOutsideX128 = secondsPerLiquidityCumulativeX128 */\n      dup1\n      sload\n      0xffffffffff0000000000000000000000000000000000000000ffffffffffffff\n      and\n      0x0100000000000000\n      sub(shl(0xa0, 0x01), 0x01)\n      dup13\n      and\n      mul\n      or\n        /* \"contracts/uniswap/libraries/Tick.sol\":7297:7340  info.tickCumulativeOutside = tickCumulative */\n      0xffffffffffffffffffffffffffffffffffffffffffffffffff00000000000000\n      and\n      0xffffffffffffff\n      0x06\n      dup12\n      swap1\n      signextend\n      and\n      or\n        /* \"contracts/uniswap/libraries/Tick.sol\":7358:7384  info.secondsOutside = time */\n      0xff00000000ffffffffffffffffffffffffffffffffffffffffffffffffffffff\n      and\n      0x01000000000000000000000000000000000000000000000000000000\n      0xffffffff\n      dup11\n      and\n      mul\n      or\n      swap1\n      sstore\n        /* \"contracts/uniswap/libraries/Tick.sol\":7031:7399  if (tick <= tickCurrent) {... */\n    tag_816:\n        /* \"contracts/uniswap/libraries/Tick.sol\":7412:7428  info.initialized */\n      0x03\n      dup4\n      add\n        /* \"contracts/uniswap/libraries/Tick.sol\":7412:7435  info.initialized = true */\n      dup1\n      sload\n      0xffffffffffffffffffffffffffffffffffffffffffffffffffffffffffffff\n      and\n      0x0100000000000000000000000000000000000000000000000000000000000000\n      or\n      swap1\n      sstore\n        /* \"contracts/uniswap/libraries/Tick.sol\":6874:7446  if (liquidityGrossBefore == 0) {... */\n    tag_815:\n        /* \"contracts/uniswap/libraries/Tick.sol\":7456:7497  info.liquidityGross = liquidityGrossAfter */\n      dup3\n      sload\n      0xffffffffffffffffffffffffffffffff00000000000000000000000000000000\n      and\n      0xffffffffffffffffffffffffffffffff\n      dup3\n      and\n      or\n      dup4\n      sstore\n        /* \"contracts/uniswap/libraries/Tick.sol\":7643:7648  upper */\n      dup6\n        /* \"contracts/uniswap/libraries/Tick.sol\":7643:7790  upper... */\n      tag_817\n      jumpi\n        /* \"contracts/uniswap/libraries/Tick.sol\":7741:7758  info.liquidityNet */\n      dup3\n      sload\n        /* \"contracts/uniswap/libraries/Tick.sol\":7734:7790  int256(info.liquidityNet).add(liquidityDelta).toInt128() */\n      tag_818\n      swap1\n        /* \"contracts/uniswap/libraries/Tick.sol\":7734:7779  int256(info.liquidityNet).add(liquidityDelta) */\n      tag_819\n      swap1\n        /* \"contracts/uniswap/libraries/Tick.sol\":7741:7758  info.liquidityNet */\n      0x0100000000000000000000000000000000\n      swap1\n      div\n        /* \"contracts/uniswap/libraries/Tick.sol\":7734:7779  int256(info.liquidityNet).add(liquidityDelta) */\n      0x0f\n        /* \"contracts/uniswap/libraries/Tick.sol\":7741:7758  info.liquidityNet */\n      swap1\n      dup2\n      signextend\n        /* \"contracts/uniswap/libraries/Tick.sol\":7734:7759  int256(info.liquidityNet) */\n      dup2\n      signextend\n      swap1\n        /* \"contracts/uniswap/libraries/Tick.sol\":7734:7779  int256(info.liquidityNet).add(liquidityDelta) */\n      dup16\n      swap1\n      signextend\n        /* \"contracts/uniswap/libraries/Tick.sol\":7734:7763  int256(info.liquidityNet).add */\n      tag_168\n        /* \"contracts/uniswap/libraries/Tick.sol\":7734:7779  int256(info.liquidityNet).add(liquidityDelta) */\n      jump\t// in\n    tag_819:\n        /* \"contracts/uniswap/libraries/Tick.sol\":7734:7788  int256(info.liquidityNet).add(liquidityDelta).toInt128 */\n      tag_245\n        /* \"contracts/uniswap/libraries/Tick.sol\":7734:7790  int256(info.liquidityNet).add(liquidityDelta).toInt128() */\n      jump\t// in\n    tag_818:\n        /* \"contracts/uniswap/libraries/Tick.sol\":7643:7790  upper... */\n      jump(tag_821)\n    tag_817:\n        /* \"contracts/uniswap/libraries/Tick.sol\":7670:7687  info.liquidityNet */\n      dup3\n      sload\n        /* \"contracts/uniswap/libraries/Tick.sol\":7663:7719  int256(info.liquidityNet).sub(liquidityDelta).toInt128() */\n      tag_821\n      swap1\n        /* \"contracts/uniswap/libraries/Tick.sol\":7663:7708  int256(info.liquidityNet).sub(liquidityDelta) */\n      tag_819\n      swap1\n        /* \"contracts/uniswap/libraries/Tick.sol\":7670:7687  info.liquidityNet */\n      0x0100000000000000000000000000000000\n      swap1\n      div\n        /* \"contracts/uniswap/libraries/Tick.sol\":7663:7708  int256(info.liquidityNet).sub(liquidityDelta) */\n      0x0f\n        /* \"contracts/uniswap/libraries/Tick.sol\":7670:7687  info.liquidityNet */\n      swap1\n      dup2\n      signextend\n        /* \"contracts/uniswap/libraries/Tick.sol\":7663:7688  int256(info.liquidityNet) */\n      dup2\n      signextend\n      swap1\n        /* \"contracts/uniswap/libraries/Tick.sol\":7663:7708  int256(info.liquidityNet).sub(liquidityDelta) */\n      dup16\n      swap1\n      signextend\n        /* \"contracts/uniswap/libraries/Tick.sol\":7663:7692  int256(info.liquidityNet).sub */\n      tag_163\n        /* \"contracts/uniswap/libraries/Tick.sol\":7663:7708  int256(info.liquidityNet).sub(liquidityDelta) */\n      jump\t// in\n        /* \"contracts/uniswap/libraries/Tick.sol\":7663:7719  int256(info.liquidityNet).sub(liquidityDelta).toInt128() */\n    tag_821:\n        /* \"contracts/uniswap/libraries/Tick.sol\":7623:7790  info.liquidityNet = upper... */\n      dup4\n      sload\n      0x0f\n      swap2\n      swap1\n      swap2\n      signextend\n      0xffffffffffffffffffffffffffffffff\n      swap1\n      dup2\n      and\n      0x0100000000000000000000000000000000\n      mul\n      swap2\n      and\n      or\n      swap1\n      swap3\n      sstore\n      pop\n        /* \"contracts/uniswap/libraries/Tick.sol\":6108:7797  function update(... */\n      swap1\n      swap13\n      swap12\n      pop\n      pop\n      pop\n      pop\n      pop\n      pop\n      pop\n      pop\n      pop\n      pop\n      pop\n      pop\n      jump\t// out\n        /* \"contracts/uniswap/libraries/TickBitmap.sol\":1101:1449  function flipTick(... */\n    tag_726:\n        /* \"contracts/uniswap/libraries/TickBitmap.sol\":1254:1265  tickSpacing */\n      dup1\n        /* \"contracts/uniswap/libraries/TickBitmap.sol\":1247:1265  tick % tickSpacing */\n      0x02\n      signextend\n        /* \"contracts/uniswap/libraries/TickBitmap.sol\":1247:1251  tick */\n      dup3\n        /* \"contracts/uniswap/libraries/TickBitmap.sol\":1247:1265  tick % tickSpacing */\n      0x02\n      signextend\n      dup2\n      tag_824\n      jumpi\n      invalid\n    tag_824:\n      smod\n        /* \"contracts/uniswap/libraries/TickBitmap.sol\":1247:1270  tick % tickSpacing == 0 */\n      0x02\n      signextend\n      iszero\n        /* \"contracts/uniswap/libraries/TickBitmap.sol\":1239:1271  require(tick % tickSpacing == 0) */\n      tag_825\n      jumpi\n      0x00\n      dup1\n      revert\n    tag_825:\n        /* \"contracts/uniswap/libraries/TickBitmap.sol\":1316:1329  int16 wordPos */\n      0x00\n        /* \"contracts/uniswap/libraries/TickBitmap.sol\":1331:1343  uint8 bitPos */\n      dup1\n        /* \"contracts/uniswap/libraries/TickBitmap.sol\":1347:1375  position(tick / tickSpacing) */\n      tag_826\n        /* \"contracts/uniswap/libraries/TickBitmap.sol\":1363:1374  tickSpacing */\n      dup4\n        /* \"contracts/uniswap/libraries/TickBitmap.sol\":1356:1374  tick / tickSpacing */\n      0x02\n      signextend\n        /* \"contracts/uniswap/libraries/TickBitmap.sol\":1356:1360  tick */\n      dup6\n        /* \"contracts/uniswap/libraries/TickBitmap.sol\":1356:1374  tick / tickSpacing */\n      0x02\n      signextend\n      dup2\n      tag_827\n      jumpi\n      invalid\n    tag_827:\n      sdiv\n        /* \"contracts/uniswap/libraries/TickBitmap.sol\":1347:1355  position */\n      tag_394\n        /* \"contracts/uniswap/libraries/TickBitmap.sol\":1347:1375  position(tick / tickSpacing) */\n      jump\t// in\n    tag_826:\n        /* \"contracts/uniswap/libraries/TickBitmap.sol\":1400:1401  1 */\n      0x01\n        /* \"contracts/uniswap/libraries/TickBitmap.sol\":1421:1434  self[wordPos] */\n      swap2\n      dup3\n      signextend\n      dup3\n      signextend\n        /* \"contracts/uniswap/libraries/TickBitmap.sol\":1385:1397  uint256 mask */\n      0x00\n        /* \"contracts/uniswap/libraries/TickBitmap.sol\":1421:1434  self[wordPos] */\n      swap1\n      dup2\n      mstore\n      0x20\n      swap8\n      swap1\n      swap8\n      mstore\n      0x40\n      swap1\n      swap7\n      keccak256\n        /* \"contracts/uniswap/libraries/TickBitmap.sol\":1421:1442  self[wordPos] ^= mask */\n      dup1\n      sload\n        /* \"contracts/uniswap/libraries/TickBitmap.sol\":1400:1411  1 << bitPos */\n      0xff\n      swap1\n      swap8\n      and\n      swap2\n      swap1\n      swap2\n      shl\n        /* \"contracts/uniswap/libraries/TickBitmap.sol\":1421:1442  self[wordPos] ^= mask */\n      swap1\n      swap6\n      xor\n      swap1\n      swap5\n      sstore\n      pop\n      pop\n      pop\n      pop\n        /* \"contracts/uniswap/libraries/TickBitmap.sol\":1101:1449  function flipTick(... */\n      jump\t// out\n        /* \"contracts/uniswap/libraries/Tick.sol\":3342:4911  function getFeeGrowthInside(... */\n    tag_730:\n        /* \"contracts/uniswap/libraries/Tick.sol\":3693:3708  self[tickLower] */\n      0x02\n      dup6\n      dup2\n      signextend\n      dup1\n      dup3\n      signextend\n        /* \"contracts/uniswap/libraries/Tick.sol\":3602:3630  uint256 feeGrowthInside0X128 */\n      0x00\n        /* \"contracts/uniswap/libraries/Tick.sol\":3693:3708  self[tickLower] */\n      swap1\n      dup2\n      mstore\n      0x20\n      dup10\n      swap1\n      mstore\n      0x40\n      dup1\n      dup3\n      keccak256\n        /* \"contracts/uniswap/libraries/Tick.sol\":3739:3754  self[tickUpper] */\n      dup9\n      dup6\n      signextend\n      dup6\n      signextend\n      dup4\n      mstore\n      swap1\n      dup3\n      keccak256\n        /* \"contracts/uniswap/libraries/Tick.sol\":3602:3630  uint256 feeGrowthInside0X128 */\n      swap2\n      swap4\n      dup5\n      swap4\n        /* \"contracts/uniswap/libraries/Tick.sol\":3693:3708  self[tickLower] */\n      swap2\n      swap3\n        /* \"contracts/uniswap/libraries/Tick.sol\":3739:3754  self[tickUpper] */\n      swap2\n        /* \"contracts/uniswap/libraries/Tick.sol\":3602:3630  uint256 feeGrowthInside0X128 */\n      dup5\n      swap2\n      dup3\n      swap2\n        /* \"contracts/uniswap/libraries/Tick.sol\":3881:3905  tickCurrent >= tickLower */\n      swap1\n      dup11\n      swap1\n      signextend\n      slt\n        /* \"contracts/uniswap/libraries/Tick.sol\":3877:4233  if (tickCurrent >= tickLower) {... */\n      tag_829\n      jumpi\n      pop\n      pop\n        /* \"contracts/uniswap/libraries/Tick.sol\":3943:3970  lower.feeGrowthOutside0X128 */\n      0x01\n      dup3\n      add\n      sload\n        /* \"contracts/uniswap/libraries/Tick.sol\":4006:4033  lower.feeGrowthOutside1X128 */\n      0x02\n      dup4\n      add\n      sload\n        /* \"contracts/uniswap/libraries/Tick.sol\":3877:4233  if (tickCurrent >= tickLower) {... */\n      jump(tag_830)\n    tag_829:\n        /* \"contracts/uniswap/libraries/Tick.sol\":4109:4114  lower */\n      dup4\n        /* \"contracts/uniswap/libraries/Tick.sol\":4109:4136  lower.feeGrowthOutside0X128 */\n      0x01\n      add\n      sload\n        /* \"contracts/uniswap/libraries/Tick.sol\":4086:4106  feeGrowthGlobal0X128 */\n      dup9\n        /* \"contracts/uniswap/libraries/Tick.sol\":4086:4136  feeGrowthGlobal0X128 - lower.feeGrowthOutside0X128 */\n      sub\n        /* \"contracts/uniswap/libraries/Tick.sol\":4064:4136  feeGrowthBelow0X128 = feeGrowthGlobal0X128 - lower.feeGrowthOutside0X128 */\n      swap2\n      pop\n        /* \"contracts/uniswap/libraries/Tick.sol\":4195:4200  lower */\n      dup4\n        /* \"contracts/uniswap/libraries/Tick.sol\":4195:4222  lower.feeGrowthOutside1X128 */\n      0x02\n      add\n      sload\n        /* \"contracts/uniswap/libraries/Tick.sol\":4172:4192  feeGrowthGlobal1X128 */\n      dup8\n        /* \"contracts/uniswap/libraries/Tick.sol\":4172:4222  feeGrowthGlobal1X128 - lower.feeGrowthOutside1X128 */\n      sub\n        /* \"contracts/uniswap/libraries/Tick.sol\":4150:4222  feeGrowthBelow1X128 = feeGrowthGlobal1X128 - lower.feeGrowthOutside1X128 */\n      swap1\n      pop\n        /* \"contracts/uniswap/libraries/Tick.sol\":3877:4233  if (tickCurrent >= tickLower) {... */\n    tag_830:\n        /* \"contracts/uniswap/libraries/Tick.sol\":4281:4308  uint256 feeGrowthAbove0X128 */\n      0x00\n        /* \"contracts/uniswap/libraries/Tick.sol\":4318:4345  uint256 feeGrowthAbove1X128 */\n      dup1\n        /* \"contracts/uniswap/libraries/Tick.sol\":4373:4382  tickUpper */\n      dup12\n        /* \"contracts/uniswap/libraries/Tick.sol\":4359:4382  tickCurrent < tickUpper */\n      0x02\n      signextend\n        /* \"contracts/uniswap/libraries/Tick.sol\":4359:4370  tickCurrent */\n      dup12\n        /* \"contracts/uniswap/libraries/Tick.sol\":4359:4382  tickCurrent < tickUpper */\n      0x02\n      signextend\n      slt\n        /* \"contracts/uniswap/libraries/Tick.sol\":4355:4710  if (tickCurrent < tickUpper) {... */\n      iszero\n      tag_831\n      jumpi\n      pop\n      pop\n        /* \"contracts/uniswap/libraries/Tick.sol\":4420:4447  upper.feeGrowthOutside0X128 */\n      0x01\n      dup4\n      add\n      sload\n        /* \"contracts/uniswap/libraries/Tick.sol\":4483:4510  upper.feeGrowthOutside1X128 */\n      0x02\n      dup5\n      add\n      sload\n        /* \"contracts/uniswap/libraries/Tick.sol\":4355:4710  if (tickCurrent < tickUpper) {... */\n      jump(tag_832)\n    tag_831:\n        /* \"contracts/uniswap/libraries/Tick.sol\":4586:4591  upper */\n      dup5\n        /* \"contracts/uniswap/libraries/Tick.sol\":4586:4613  upper.feeGrowthOutside0X128 */\n      0x01\n      add\n      sload\n        /* \"contracts/uniswap/libraries/Tick.sol\":4563:4583  feeGrowthGlobal0X128 */\n      dup11\n        /* \"contracts/uniswap/libraries/Tick.sol\":4563:4613  feeGrowthGlobal0X128 - upper.feeGrowthOutside0X128 */\n      sub\n        /* \"contracts/uniswap/libraries/Tick.sol\":4541:4613  feeGrowthAbove0X128 = feeGrowthGlobal0X128 - upper.feeGrowthOutside0X128 */\n      swap2\n      pop\n        /* \"contracts/uniswap/libraries/Tick.sol\":4672:4677  upper */\n      dup5\n        /* \"contracts/uniswap/libraries/Tick.sol\":4672:4699  upper.feeGrowthOutside1X128 */\n      0x02\n      add\n      sload\n        /* \"contracts/uniswap/libraries/Tick.sol\":4649:4669  feeGrowthGlobal1X128 */\n      dup10\n        /* \"contracts/uniswap/libraries/Tick.sol\":4649:4699  feeGrowthGlobal1X128 - upper.feeGrowthOutside1X128 */\n      sub\n        /* \"contracts/uniswap/libraries/Tick.sol\":4627:4699  feeGrowthAbove1X128 = feeGrowthGlobal1X128 - upper.feeGrowthOutside1X128 */\n      swap1\n      pop\n        /* \"contracts/uniswap/libraries/Tick.sol\":4355:4710  if (tickCurrent < tickUpper) {... */\n    tag_832:\n        /* \"contracts/uniswap/libraries/Tick.sol\":4743:4785  feeGrowthGlobal0X128 - feeGrowthBelow0X128 */\n      swap3\n      swap1\n      swap9\n      sub\n        /* \"contracts/uniswap/libraries/Tick.sol\":4743:4807  feeGrowthGlobal0X128 - feeGrowthBelow0X128 - feeGrowthAbove0X128 */\n      swap8\n      swap1\n      swap8\n      sub\n      swap12\n        /* \"contracts/uniswap/libraries/Tick.sol\":4840:4882  feeGrowthGlobal1X128 - feeGrowthBelow1X128 */\n      swap7\n      swap1\n      swap6\n      sub\n        /* \"contracts/uniswap/libraries/Tick.sol\":4840:4904  feeGrowthGlobal1X128 - feeGrowthBelow1X128 - feeGrowthAbove1X128 */\n      swap5\n      swap1\n      swap5\n      sub\n      swap9\n      pop\n        /* \"contracts/uniswap/libraries/Tick.sol\":3342:4911  function getFeeGrowthInside(... */\n      swap4\n      swap7\n      pop\n      pop\n      pop\n      pop\n      pop\n      pop\n      pop\n      jump\t// out\n        /* \"contracts/uniswap/libraries/Position.sol\":2017:3579  function update(... */\n    tag_732:\n        /* \"contracts/uniswap/libraries/Position.sol\":2192:2216  Info memory _self = self */\n      0x40\n      dup1\n      mload\n      0xa0\n      dup2\n      add\n      dup3\n      mstore\n      dup6\n      sload\n      0xffffffffffffffffffffffffffffffff\n      swap1\n      dup2\n      and\n      dup3\n      mstore\n      0x01\n      dup8\n      add\n      sload\n      0x20\n      dup4\n      add\n      mstore\n      0x02\n      dup8\n      add\n      sload\n      swap3\n      dup3\n      add\n      swap3\n      swap1\n      swap3\n      mstore\n      0x03\n      dup7\n      add\n      sload\n      dup1\n      dup4\n      and\n      0x60\n      dup4\n      add\n      mstore\n      0x0100000000000000000000000000000000\n      swap1\n      div\n      swap1\n      swap2\n      and\n      0x80\n      dup3\n      add\n      mstore\n        /* \"contracts/uniswap/libraries/Position.sol\":2192:2209  Info memory _self */\n      0x00\n        /* \"contracts/uniswap/libraries/Position.sol\":2262:2281  liquidityDelta == 0 */\n      0x0f\n      dup6\n      swap1\n      signextend\n        /* \"contracts/uniswap/libraries/Position.sol\":2258:2533  if (liquidityDelta == 0) {... */\n      tag_834\n      jumpi\n        /* \"contracts/uniswap/libraries/Position.sol\":2305:2320  _self.liquidity */\n      dup2\n      mload\n        /* \"contracts/uniswap/libraries/Position.sol\":2305:2324  _self.liquidity > 0 */\n      0xffffffffffffffffffffffffffffffff\n      and\n        /* \"contracts/uniswap/libraries/Position.sol\":2297:2331  require(_self.liquidity > 0, 'NP') */\n      tag_835\n      jumpi\n      0x00\n      dup1\n      revert\n    tag_835:\n      pop\n        /* \"contracts/uniswap/libraries/Position.sol\":2405:2420  _self.liquidity */\n      dup1\n      mload\n        /* \"contracts/uniswap/libraries/Position.sol\":2258:2533  if (liquidityDelta == 0) {... */\n      jump(tag_836)\n    tag_834:\n        /* \"contracts/uniswap/libraries/Position.sol\":2490:2505  _self.liquidity */\n      dup2\n      mload\n        /* \"contracts/uniswap/libraries/Position.sol\":2467:2522  LiquidityMath.addDelta(_self.liquidity, liquidityDelta) */\n      tag_837\n      swap1\n        /* \"contracts/uniswap/libraries/Position.sol\":2507:2521  liquidityDelta */\n      dup7\n        /* \"contracts/uniswap/libraries/Position.sol\":2467:2489  LiquidityMath.addDelta */\n      tag_187\n        /* \"contracts/uniswap/libraries/Position.sol\":2467:2522  LiquidityMath.addDelta(_self.liquidity, liquidityDelta) */\n      jump\t// in\n    tag_837:\n        /* \"contracts/uniswap/libraries/Position.sol\":2451:2522  liquidityNext = LiquidityMath.addDelta(_self.liquidity, liquidityDelta) */\n      swap1\n      pop\n        /* \"contracts/uniswap/libraries/Position.sol\":2258:2533  if (liquidityDelta == 0) {... */\n    tag_836:\n        /* \"contracts/uniswap/libraries/Position.sol\":2581:2600  uint128 tokensOwed0 */\n      0x00\n        /* \"contracts/uniswap/libraries/Position.sol\":2640:2825  FullMath.mulDiv(... */\n      tag_838\n        /* \"contracts/uniswap/libraries/Position.sol\":2700:2705  _self */\n      dup4\n        /* \"contracts/uniswap/libraries/Position.sol\":2700:2730  _self.feeGrowthInside0LastX128 */\n      0x20\n      add\n      mload\n        /* \"contracts/uniswap/libraries/Position.sol\":2677:2697  feeGrowthInside0X128 */\n      dup7\n        /* \"contracts/uniswap/libraries/Position.sol\":2677:2730  feeGrowthInside0X128 - _self.feeGrowthInside0LastX128 */\n      sub\n        /* \"contracts/uniswap/libraries/Position.sol\":2752:2757  _self */\n      dup5\n        /* \"contracts/uniswap/libraries/Position.sol\":2752:2767  _self.liquidity */\n      0x00\n      add\n      mload\n        /* \"contracts/uniswap/libraries/Position.sol\":2640:2825  FullMath.mulDiv(... */\n      0xffffffffffffffffffffffffffffffff\n      and\n        /* \"contracts/uniswap/libraries/FixedPoint128.sol\":272:307  0x100000000000000000000000000000000 */\n      0x0100000000000000000000000000000000\n        /* \"contracts/uniswap/libraries/Position.sol\":2640:2655  FullMath.mulDiv */\n      tag_173\n        /* \"contracts/uniswap/libraries/Position.sol\":2640:2825  FullMath.mulDiv(... */\n      jump\t// in\n    tag_838:\n        /* \"contracts/uniswap/libraries/Position.sol\":2581:2839  uint128 tokensOwed0 =... */\n      swap1\n      pop\n        /* \"contracts/uniswap/libraries/Position.sol\":2849:2868  uint128 tokensOwed1 */\n      0x00\n        /* \"contracts/uniswap/libraries/Position.sol\":2908:3093  FullMath.mulDiv(... */\n      tag_839\n        /* \"contracts/uniswap/libraries/Position.sol\":2968:2973  _self */\n      dup5\n        /* \"contracts/uniswap/libraries/Position.sol\":2968:2998  _self.feeGrowthInside1LastX128 */\n      0x40\n      add\n      mload\n        /* \"contracts/uniswap/libraries/Position.sol\":2945:2965  feeGrowthInside1X128 */\n      dup7\n        /* \"contracts/uniswap/libraries/Position.sol\":2945:2998  feeGrowthInside1X128 - _self.feeGrowthInside1LastX128 */\n      sub\n        /* \"contracts/uniswap/libraries/Position.sol\":3020:3025  _self */\n      dup6\n        /* \"contracts/uniswap/libraries/Position.sol\":3020:3035  _self.liquidity */\n      0x00\n      add\n      mload\n        /* \"contracts/uniswap/libraries/Position.sol\":2908:3093  FullMath.mulDiv(... */\n      0xffffffffffffffffffffffffffffffff\n      and\n        /* \"contracts/uniswap/libraries/FixedPoint128.sol\":272:307  0x100000000000000000000000000000000 */\n      0x0100000000000000000000000000000000\n        /* \"contracts/uniswap/libraries/Position.sol\":2908:2923  FullMath.mulDiv */\n      tag_173\n        /* \"contracts/uniswap/libraries/Position.sol\":2908:3093  FullMath.mulDiv(... */\n      jump\t// in\n    tag_839:\n        /* \"contracts/uniswap/libraries/Position.sol\":2849:3107  uint128 tokensOwed1 =... */\n      swap1\n      pop\n        /* \"contracts/uniswap/libraries/Position.sol\":3153:3167  liquidityDelta */\n      dup7\n        /* \"contracts/uniswap/libraries/Position.sol\":3153:3172  liquidityDelta != 0 */\n      0x0f\n      signextend\n        /* \"contracts/uniswap/libraries/Position.sol\":3171:3172  0 */\n      0x00\n        /* \"contracts/uniswap/libraries/Position.sol\":3153:3172  liquidityDelta != 0 */\n      eq\n        /* \"contracts/uniswap/libraries/Position.sol\":3149:3204  if (liquidityDelta != 0) self.liquidity = liquidityNext */\n      tag_840\n      jumpi\n        /* \"contracts/uniswap/libraries/Position.sol\":3174:3204  self.liquidity = liquidityNext */\n      dup8\n      sload\n      0xffffffffffffffffffffffffffffffff00000000000000000000000000000000\n      and\n      0xffffffffffffffffffffffffffffffff\n      dup5\n      and\n      or\n      dup9\n      sstore\n        /* \"contracts/uniswap/libraries/Position.sol\":3149:3204  if (liquidityDelta != 0) self.liquidity = liquidityNext */\n    tag_840:\n        /* \"contracts/uniswap/libraries/Position.sol\":3214:3243  self.feeGrowthInside0LastX128 */\n      0x01\n      dup9\n      add\n        /* \"contracts/uniswap/libraries/Position.sol\":3214:3266  self.feeGrowthInside0LastX128 = feeGrowthInside0X128 */\n      dup7\n      swap1\n      sstore\n        /* \"contracts/uniswap/libraries/Position.sol\":3276:3305  self.feeGrowthInside1LastX128 */\n      0x02\n      dup9\n      add\n        /* \"contracts/uniswap/libraries/Position.sol\":3276:3328  self.feeGrowthInside1LastX128 = feeGrowthInside1X128 */\n      dup6\n      swap1\n      sstore\n        /* \"contracts/uniswap/libraries/Position.sol\":3342:3357  tokensOwed0 > 0 */\n      0xffffffffffffffffffffffffffffffff\n      dup3\n      and\n      iszero\n      iszero\n      dup1\n        /* \"contracts/uniswap/libraries/Position.sol\":3342:3376  tokensOwed0 > 0 || tokensOwed1 > 0 */\n      tag_841\n      jumpi\n      pop\n        /* \"contracts/uniswap/libraries/Position.sol\":3375:3376  0 */\n      0x00\n        /* \"contracts/uniswap/libraries/Position.sol\":3361:3372  tokensOwed1 */\n      dup2\n        /* \"contracts/uniswap/libraries/Position.sol\":3361:3376  tokensOwed1 > 0 */\n      0xffffffffffffffffffffffffffffffff\n      and\n      gt\n        /* \"contracts/uniswap/libraries/Position.sol\":3342:3376  tokensOwed0 > 0 || tokensOwed1 > 0 */\n    tag_841:\n        /* \"contracts/uniswap/libraries/Position.sol\":3338:3573  if (tokensOwed0 > 0 || tokensOwed1 > 0) {... */\n      iszero\n      tag_842\n      jumpi\n        /* \"contracts/uniswap/libraries/Position.sol\":3486:3502  self.tokensOwed0 */\n      0x03\n      dup9\n      add\n        /* \"contracts/uniswap/libraries/Position.sol\":3486:3517  self.tokensOwed0 += tokensOwed0 */\n      dup1\n      sload\n      0xffffffffffffffffffffffffffffffff00000000000000000000000000000000\n      dup2\n      and\n      0xffffffffffffffffffffffffffffffff\n      swap2\n      dup3\n      and\n      dup6\n      add\n      dup3\n      and\n      or\n        /* \"contracts/uniswap/libraries/Position.sol\":3531:3562  self.tokensOwed1 += tokensOwed1 */\n      dup1\n      dup3\n      and\n      0x0100000000000000000000000000000000\n      swap2\n      dup3\n      swap1\n      div\n      dup4\n      and\n      dup6\n      add\n      swap1\n      swap3\n      and\n      mul\n      or\n      swap1\n      sstore\n        /* \"contracts/uniswap/libraries/Position.sol\":3338:3573  if (tokensOwed0 > 0 || tokensOwed1 > 0) {... */\n    tag_842:\n        /* \"contracts/uniswap/libraries/Position.sol\":2017:3579  function update(... */\n      pop\n      pop\n      pop\n      pop\n      pop\n      pop\n      pop\n      pop\n      jump\t// out\n        /* \"contracts/uniswap/libraries/Tick.sol\":7984:8096  function clear(mapping(int24 => Tick.Info) storage self, int24 tick) internal {... */\n    tag_736:\n        /* \"contracts/uniswap/libraries/Tick.sol\":8079:8089  self[tick] */\n      0x02\n      swap1\n      dup2\n      signextend\n      dup2\n      signextend\n      0x00\n      swap1\n      dup2\n      mstore\n      0x20\n      swap3\n      swap1\n      swap3\n      mstore\n      0x40\n      dup3\n      keccak256\n        /* \"contracts/uniswap/libraries/Tick.sol\":8072:8089  delete self[tick] */\n      dup3\n      dup2\n      sstore\n      0x01\n      dup2\n      add\n      dup4\n      swap1\n      sstore\n      swap1\n      dup2\n      add\n      dup3\n      swap1\n      sstore\n      0x03\n      add\n      sstore\n        /* \"contracts/uniswap/libraries/Tick.sol\":7984:8096  function clear(mapping(int24 => Tick.Info) storage self, int24 tick) internal {... */\n      jump\t// out\n        /* \"contracts/uniswap/libraries/SafeCast.sol\":357:468  function toUint160(uint256 y) internal pure returns (uint160 z) {... */\n    tag_762:\n        /* \"contracts/uniswap/libraries/SafeCast.sol\":459:460  y */\n      dup1\n      sub(shl(0xa0, 0x01), 0x01)\n        /* \"contracts/uniswap/libraries/SafeCast.sol\":439:460  (z = uint160(y)) == y */\n      dup2\n      and\n      dup2\n      eq\n        /* \"contracts/uniswap/libraries/SafeCast.sol\":431:461  require((z = uint160(y)) == y) */\n      tag_379\n      jumpi\n      0x00\n      dup1\n      revert\n    tag_144:\n      0x40\n      dup1\n      mload\n      0xe0\n      dup2\n      add\n      dup3\n      mstore\n      0x00\n      dup1\n      dup3\n      mstore\n      0x20\n      dup3\n      add\n      dup2\n      swap1\n      mstore\n      swap2\n      dup2\n      add\n      dup3\n      swap1\n      mstore\n      0x60\n      dup2\n      add\n      dup3\n      swap1\n      mstore\n      0x80\n      dup2\n      add\n      dup3\n      swap1\n      mstore\n      0xa0\n      dup2\n      add\n      dup3\n      swap1\n      mstore\n      0xc0\n      dup2\n      add\n      swap2\n      swap1\n      swap2\n      mstore\n      swap1\n      jump\t// out\n    tag_690:\n      0x40\n      dup1\n      mload\n      0x80\n      dup2\n      add\n      dup3\n      mstore\n      0x00\n      dup1\n      dup3\n      mstore\n      0x20\n      dup3\n      add\n      dup2\n      swap1\n      mstore\n      swap2\n      dup2\n      add\n      dup3\n      swap1\n      mstore\n      0x60\n      dup2\n      add\n      swap2\n      swap1\n      swap2\n      mstore\n      swap1\n      jump\t// out\n\n    auxdata: 0xa164736f6c6343000706000a\n}\n","bytecode":{"linkReferences":{},"object":"6101606040523480156200001257600080fd5b503060601b60805260408051630890357360e41b81529051600091339163890357309160048082019260a092909190829003018186803b1580156200005657600080fd5b505afa1580156200006b573d6000803e3d6000fd5b505050506040513d60a08110156200008257600080fd5b508051602080830151604084015160608086015160809096015160e896871b6001600160e81b0319166101005291811b6001600160601b031990811660e05292811b831660c0529390931b1660a052600282810b900b90921b610120529150620000f79082906200010f811b6200343317901c565b60801b6001600160801b03191661014052506200017d565b60008082600281900b620d89e719816200012557fe5b05029050600083600281900b620d89e8816200013d57fe5b0502905060008460020b83830360020b816200015557fe5b0560010190508062ffffff166001600160801b038016816200017357fe5b0495945050505050565b60805160601c60a05160601c60c05160601c60e05160601c6101005160e81c6101205160e81c6101405160801c6165886200024a6000398061247a52806158c052806158f7525080610c8652806130f7528061592b528061595d525080610dad5280611cee5280611d25528061313f5250806113d05280611da8528061232b5280612a44528061311b528061491152508061092352806114d05280611d7752806122a6528061296b528061477c525080612528528061279b52806130d35250806134cf52506165886000f3fe608060405234801561001057600080fd5b50600436106101ae5760003560e01c806370cf754a116100ee578063c45a015511610097578063ddca3f4311610071578063ddca3f4314610848578063f305839914610868578063f30dba9314610870578063f637731d146108fb576101ae565b8063c45a015514610819578063d0c93a7c14610821578063d21220a714610840576101ae565b8063883bdbfd116100c8578063883bdbfd14610672578063a34123a71461077b578063a38807f2146107be576101ae565b806370cf754a146105fc5780638206a4d11461060457806385b667291461062c576101ae565b80633850c7bd1161015b578063490e6cbc11610135578063490e6cbc146104945780634f1eb3d814610520578063514ea4bf1461057a5780635339c296146105dc576101ae565b80633850c7bd146103765780633c8a7d8d146103cf578063461413191461047a576101ae565b80631ad8b03b1161018c5780631ad8b03b146102b3578063252c09d7146102fc57806332148f6714610353576101ae565b80630dfe1681146101b3578063128acb08146101d75780631a68650214610286575b600080fd5b6101bb610921565b604080516001600160a01b039092168252519081900360200190f35b61026d600480360360a08110156101ed57600080fd5b6001600160a01b0382358116926020810135151592604082013592606083013516919081019060a08101608082013564010000000081111561022e57600080fd5b82018360208201111561024057600080fd5b8035906020019184600183028401116401000000008311171561026257600080fd5b509092509050610945565b6040805192835260208301919091528051918290030190f35b61028e611699565b604080516fffffffffffffffffffffffffffffffff9092168252519081900360200190f35b6102bb6116b1565b60405180836fffffffffffffffffffffffffffffffff168152602001826fffffffffffffffffffffffffffffffff1681526020019250505060405180910390f35b6103196004803603602081101561031257600080fd5b50356116e1565b6040805163ffffffff909516855260069390930b60208501526001600160a01b039091168383015215156060830152519081900360800190f35b6103746004803603602081101561036957600080fd5b503561ffff1661174b565b005b61037e6118cd565b604080516001600160a01b03909816885260029690960b602088015261ffff9485168787015292841660608701529216608085015260ff90911660a0840152151560c0830152519081900360e00190f35b61026d600480360360a08110156103e557600080fd5b6001600160a01b03823516916020810135600290810b92604083013590910b916fffffffffffffffffffffffffffffffff6060820135169181019060a08101608082013564010000000081111561043b57600080fd5b82018360208201111561044d57600080fd5b8035906020019184600183028401116401000000008311171561046f57600080fd5b5090925090506119a5565b610482611c60565b60408051918252519081900360200190f35b610374600480360360808110156104aa57600080fd5b6001600160a01b0382351691602081013591604082013591908101906080810160608201356401000000008111156104e157600080fd5b8201836020820111156104f357600080fd5b8035906020019184600183028401116401000000008311171561051557600080fd5b509092509050611c66565b6102bb600480360360a081101561053657600080fd5b506001600160a01b03813516906020810135600290810b91604081013590910b906fffffffffffffffffffffffffffffffff6060820135811691608001351661212b565b6105976004803603602081101561059057600080fd5b5035612413565b604080516fffffffffffffffffffffffffffffffff96871681526020810195909552848101939093529084166060840152909216608082015290519081900360a00190f35b610482600480360360208110156105f257600080fd5b503560010b612466565b61028e612478565b6103746004803603604081101561061a57600080fd5b5060ff8135811691602001351661249c565b6102bb6004803603606081101561064257600080fd5b506001600160a01b03813516906fffffffffffffffffffffffffffffffff6020820135811691604001351661270c565b6106e26004803603602081101561068857600080fd5b8101906020810181356401000000008111156106a357600080fd5b8201836020820111156106b557600080fd5b803590602001918460208302840111640100000000831117156106d757600080fd5b509092509050612b1b565b604051808060200180602001838103835285818151815260200191508051906020019060200280838360005b8381101561072657818101518382015260200161070e565b50505050905001838103825284818151815260200191508051906020019060200280838360005b8381101561076557818101518382015260200161074d565b5050505090500194505050505060405180910390f35b61026d6004803603606081101561079157600080fd5b508035600290810b91602081013590910b90604001356fffffffffffffffffffffffffffffffff16612bec565b6107e8600480360360408110156107d457600080fd5b508035600290810b9160200135900b612de1565b6040805160069490940b84526001600160a01b03909216602084015263ffffffff1682820152519081900360600190f35b6101bb6130d1565b6108296130f5565b6040805160029290920b8252519081900360200190f35b6101bb613119565b61085061313d565b6040805162ffffff9092168252519081900360200190f35b610482613161565b6108906004803603602081101561088657600080fd5b503560020b613167565b604080516fffffffffffffffffffffffffffffffff9099168952600f9790970b602089015287870195909552606087019390935260069190910b60808601526001600160a01b031660a085015263ffffffff1660c0840152151560e083015251908190036101000190f35b6103746004803603602081101561091157600080fd5b50356001600160a01b031661321f565b7f000000000000000000000000000000000000000000000000000000000000000081565b6000806109506134c4565b8561095a57600080fd5b6040805160e0810182526000546001600160a01b0381168252740100000000000000000000000000000000000000008104600290810b810b900b602083015261ffff7701000000000000000000000000000000000000000000000082048116938301939093527901000000000000000000000000000000000000000000000000008104831660608301527b010000000000000000000000000000000000000000000000000000008104909216608082015260ff7d0100000000000000000000000000000000000000000000000000000000008304811660a08301527e01000000000000000000000000000000000000000000000000000000000000909204909116151560c08201819052610a6d57600080fd5b87610ab85780600001516001600160a01b0316866001600160a01b0316118015610ab3575073fffd8963efd1fc6a506488495d951d5263988d266001600160a01b038716105b610aea565b80600001516001600160a01b0316866001600160a01b0316108015610aea57506401000276a36001600160a01b038716115b610af357600080fd5b600080547fff00ffffffffffffffffffffffffffffffffffffffffffffffffffffffffffff1681556040805160c08101909152808a610b3d5760048460a0015160ff16901c610b50565b60108460a0015160ff1681610b4e57fe5b065b60ff1681526004546fffffffffffffffffffffffffffffffff166020820152604001610b7a6134fb565b63ffffffff168152602001600060060b815260200160006001600160a01b031681526020016000151581525090506000808913905060006040518060e001604052808b81526020016000815260200185600001516001600160a01b03168152602001856020015160020b81526020018c610bf657600254610bfa565b6001545b815260200160006fffffffffffffffffffffffffffffffff16815260200184602001516fffffffffffffffffffffffffffffffff1681525090505b805115801590610c5b5750886001600160a01b031681604001516001600160a01b031614155b1561108e57610c68616518565b60408201516001600160a01b031681526060820151610cab906006907f00000000000000000000000000000000000000000000000000000000000000008f6134ff565b15156040830152600290810b810b602083018190527ffffffffffffffffffffffffffffffffffffffffffffffffffffffffffff27618910b1215610d14577ffffffffffffffffffffffffffffffffffffffffffffffffffffffffffff276186020820152610d33565b6020810151620d89e860029190910b1315610d3357620d89e860208201525b610d40816020015161367d565b6001600160a01b031660608201526040820151610dd1908d610d7a578b6001600160a01b031683606001516001600160a01b031611610d94565b8b6001600160a01b031683606001516001600160a01b0316105b610da2578260600151610da4565b8b5b60c085015185517f00000000000000000000000000000000000000000000000000000000000000006139ae565b60c085015260a084015260808301526001600160a01b031660408301528215610e3357610e078160c00151826080015101613ba0565b825103825260a0810151610e2990610e1e90613ba0565b602084015190613bd2565b6020830152610e6e565b610e408160a00151613ba0565b825101825260c08101516080820151610e6891610e5d9101613ba0565b602084015190613bee565b60208301525b835160ff1615610ebd576000846000015160ff168260c0015181610e8e57fe5b60c0840180519290910491829003905260a0840180519091016fffffffffffffffffffffffffffffffff169052505b60c08201516fffffffffffffffffffffffffffffffff1615610f1b57610f0f8160c001517001000000000000000000000000000000008460c001516fffffffffffffffffffffffffffffffff16613c04565b60808301805190910190525b80606001516001600160a01b031682604001516001600160a01b0316141561104d57806040015115611024578360a00151610fa557610f83846040015160008760200151886040015188602001518a606001516008613cd2909695949392919063ffffffff16565b6001600160a01b03166080860152600690810b900b6060850152600160a08501525b6000610ff182602001518e610fbc57600154610fc2565b84608001515b8f610fd1578560800151610fd5565b6002545b608089015160608a015160408b01516005959493929190613e89565b90508c15610ffd576000035b61100b8360c0015182613fb1565b6fffffffffffffffffffffffffffffffff1660c0840152505b8b61103357806020015161103c565b60018160200151035b600290810b900b6060830152611088565b80600001516001600160a01b031682604001516001600160a01b0316146110885761107b8260400151614031565b600290810b900b60608301525b50610c35565b836020015160020b816060015160020b146111fc576000806110dc86604001518660400151886020015188602001518a606001518b608001516008614367909695949392919063ffffffff16565b60408501516060860151600080547fffffffffff0000ffffffffffffffffffffffffffffffffffffffffffffffffff1679010000000000000000000000000000000000000000000000000061ffff95861602177fffffffffffffff0000ffffffffffffffffffffffffffffffffffffffffffffff16770100000000000000000000000000000000000000000000009590941694909402929092177fffffffffffffffffff000000ffffffffffffffffffffffffffffffffffffffff167401000000000000000000000000000000000000000062ffffff60029490940b9390931692909202919091177fffffffffffffffffffffffff0000000000000000000000000000000000000000166001600160a01b03909116179055506112399050565b6040810151600080547fffffffffffffffffffffffff0000000000000000000000000000000000000000166001600160a01b039092169190911790555b8060c001516fffffffffffffffffffffffffffffffff1683602001516fffffffffffffffffffffffffffffffff16146112b25760c0810151600480547fffffffffffffffffffffffffffffffff00000000000000000000000000000000166fffffffffffffffffffffffffffffffff9092169190911790555b8a1561132c57608081015160015560a08101516fffffffffffffffffffffffffffffffff16156113275760a0810151600380547fffffffffffffffffffffffffffffffff0000000000000000000000000000000081166fffffffffffffffffffffffffffffffff918216909301169190911790555b611391565b608081015160025560a08101516fffffffffffffffffffffffffffffffff16156113915760a0810151600380546fffffffffffffffffffffffffffffffff80821670010000000000000000000000000000000092839004821690940116029190911790555b8115158b1515146113aa57602081015181518b036113b7565b80600001518a0381602001515b90965094508a156114c25760008512156113f9576113f97f00000000000000000000000000000000000000000000000000000000000000008d87600003614593565b6000611403614700565b9050336001600160a01b031663fa461e3388888c8c6040518563ffffffff1660e01b815260040180858152602001848152602001806020018281038252848482818152602001925080828437600081840152601f19601f82011690508083019250505095505050505050600060405180830381600087803b15801561148757600080fd5b505af115801561149b573d6000803e3d6000fd5b505050506114a7614700565b6114b18289614885565b11156114bc57600080fd5b506115be565b60008612156114f9576114f97f00000000000000000000000000000000000000000000000000000000000000008d88600003614593565b6000611503614895565b9050336001600160a01b031663fa461e3388888c8c6040518563ffffffff1660e01b815260040180858152602001848152602001806020018281038252848482818152602001925080828437600081840152601f19601f82011690508083019250505095505050505050600060405180830381600087803b15801561158757600080fd5b505af115801561159b573d6000803e3d6000fd5b505050506115a7614895565b6115b18288614885565b11156115bc57600080fd5b505b60408082015160c083015160608085015184518b8152602081018b90526001600160a01b03948516818701526fffffffffffffffffffffffffffffffff9093169183019190915260020b60808201529151908e169133917fc42079f94a6350d7e6235f29174924f928cc2ac818eb64fed8004e115fbcca679181900360a00190a35050600080547fff00ffffffffffffffffffffffffffffffffffffffffffffffffffffffffffff167e0100000000000000000000000000000000000000000000000000000000000017905550919890975095505050505050565b6004546fffffffffffffffffffffffffffffffff1681565b6003546fffffffffffffffffffffffffffffffff8082169170010000000000000000000000000000000090041682565b60088161ffff81106116f257600080fd5b015463ffffffff81169150640100000000810460060b906b01000000000000000000000081046001600160a01b0316907f0100000000000000000000000000000000000000000000000000000000000000900460ff1684565b6000547e01000000000000000000000000000000000000000000000000000000000000900460ff1661177c57600080fd5b600080547fff00ffffffffffffffffffffffffffffffffffffffffffffffffffffffffffff1690556117ac6134c4565b600080547b01000000000000000000000000000000000000000000000000000000900461ffff16906117e060088385614979565b6000805461ffff8084167b0100000000000000000000000000000000000000000000000000000081027fffffff0000ffffffffffffffffffffffffffffffffffffffffffffffffffffff9093169290921790925591925083161461187f576040805161ffff80851682528316602082015281517fac49e518f90a358f652e4400164f05a5d8f7e35e7747279bc3a93dbf584e125a929181900390910190a15b5050600080547fff00ffffffffffffffffffffffffffffffffffffffffffffffffffffffffffff167e0100000000000000000000000000000000000000000000000000000000000017905550565b6000546001600160a01b0381169074010000000000000000000000000000000000000000810460020b9061ffff77010000000000000000000000000000000000000000000000820481169179010000000000000000000000000000000000000000000000000081048216917b010000000000000000000000000000000000000000000000000000008204169060ff7d01000000000000000000000000000000000000000000000000000000000082048116917e0100000000000000000000000000000000000000000000000000000000000090041687565b6000805481907e01000000000000000000000000000000000000000000000000000000000000900460ff166119d957600080fd5b600080547fff00ffffffffffffffffffffffffffffffffffffffffffffffffffffffffffff1690556fffffffffffffffffffffffffffffffff8516611a1d57600080fd5b600080611a7460405180608001604052808c6001600160a01b031681526020018b60020b81526020018a60020b8152602001611a6a8a6fffffffffffffffffffffffffffffffff16614a0b565b600f0b9052614a1c565b92509250508193508092506000806000861115611a9657611a93614700565b91505b8415611aa757611aa4614895565b90505b336001600160a01b031663d348799787878b8b6040518563ffffffff1660e01b815260040180858152602001848152602001806020018281038252848482818152602001925080828437600081840152601f19601f82011690508083019250505095505050505050600060405180830381600087803b158015611b2957600080fd5b505af1158015611b3d573d6000803e3d6000fd5b505050506000861115611b6757611b52614700565b611b5c8388614885565b1115611b6757600080fd5b8415611b8a57611b75614895565b611b7f8287614885565b1115611b8a57600080fd5b8960020b8b60020b8d6001600160a01b03167f7a53080ba414158be7ec69b987b5fb7d07dee101fe85488f0853ae16239d0bde338d8b8b60405180856001600160a01b03168152602001846fffffffffffffffffffffffffffffffff16815260200183815260200182815260200194505050505060405180910390a45050600080547fff00ffffffffffffffffffffffffffffffffffffffffffffffffffffffffffff167e0100000000000000000000000000000000000000000000000000000000000017905550919890975095505050505050565b60025481565b6000547e01000000000000000000000000000000000000000000000000000000000000900460ff16611c9757600080fd5b600080547fff00ffffffffffffffffffffffffffffffffffffffffffffffffffffffffffff169055611cc76134c4565b6004546fffffffffffffffffffffffffffffffff1680611ce657600080fd5b6000611d1b867f000000000000000000000000000000000000000000000000000000000000000062ffffff16620f4240614d6c565b90506000611d52867f000000000000000000000000000000000000000000000000000000000000000062ffffff16620f4240614d6c565b90506000611d5e614700565b90506000611d6a614895565b90508815611d9d57611d9d7f00000000000000000000000000000000000000000000000000000000000000008b8b614593565b8715611dce57611dce7f00000000000000000000000000000000000000000000000000000000000000008b8a614593565b336001600160a01b031663e9cbafb085858a8a6040518563ffffffff1660e01b815260040180858152602001848152602001806020018281038252848482818152602001925080828437600081840152601f19601f82011690508083019250505095505050505050600060405180830381600087803b158015611e5057600080fd5b505af1158015611e64573d6000803e3d6000fd5b505050506000611e72614700565b90506000611e7e614895565b905081611e8b8588614885565b1115611e9657600080fd5b80611ea18487614885565b1115611eac57600080fd5b8382038382038115611f9557600080547d0100000000000000000000000000000000000000000000000000000000009004600f16908115611ef9578160ff168481611ef357fe5b04611efc565b60005b90506fffffffffffffffffffffffffffffffff811615611f5957600380546fffffffffffffffffffffffffffffffff8082168401167fffffffffffffffffffffffffffffffff000000000000000000000000000000009091161790555b611f898185037001000000000000000000000000000000008d6fffffffffffffffffffffffffffffffff16613c04565b60018054909101905550505b801561206f57600080547d010000000000000000000000000000000000000000000000000000000000900460041c600f16908115611fdf578160ff168381611fd957fe5b04611fe2565b60005b90506fffffffffffffffffffffffffffffffff81161561203357600380546fffffffffffffffffffffffffffffffff7001000000000000000000000000000000008083048216850182160291161790555b6120638184037001000000000000000000000000000000008d6fffffffffffffffffffffffffffffffff16613c04565b60028054909101905550505b8d6001600160a01b0316336001600160a01b03167fbdbdb71d7860376ba52b25a5028beea23581364a40522f6bcfb86bb1f2dca6338f8f86866040518085815260200184815260200183815260200182815260200194505050505060405180910390a35050600080547fff00ffffffffffffffffffffffffffffffffffffffffffffffffffffffffffff167e01000000000000000000000000000000000000000000000000000000000000179055505050505050505050505050565b6000805481907e01000000000000000000000000000000000000000000000000000000000000900460ff1661215f57600080fd5b600080547fff00ffffffffffffffffffffffffffffffffffffffffffffffffffffffffffff1681556121946007338989614dc4565b60038101549091506fffffffffffffffffffffffffffffffff908116908616116121be57846121d6565b60038101546fffffffffffffffffffffffffffffffff165b60038201549093506fffffffffffffffffffffffffffffffff7001000000000000000000000000000000009091048116908516116122145783612240565b600381015470010000000000000000000000000000000090046fffffffffffffffffffffffffffffffff165b91506fffffffffffffffffffffffffffffffff8316156122cf576003810180547fffffffffffffffffffffffffffffffff0000000000000000000000000000000081166fffffffffffffffffffffffffffffffff9182168690038216179091556122cf907f0000000000000000000000000000000000000000000000000000000000000000908a908616614593565b6fffffffffffffffffffffffffffffffff821615612354576003810180546fffffffffffffffffffffffffffffffff700100000000000000000000000000000000808304821686900382160291811691909117909155612354907f0000000000000000000000000000000000000000000000000000000000000000908a908516614593565b604080516001600160a01b038a1681526fffffffffffffffffffffffffffffffff80861660208301528416818301529051600288810b92908a900b9133917f70935338e69775456a85ddef226c395fb668b63fa0115f5f20610b388e6ca9c0919081900360600190a450600080547fff00ffffffffffffffffffffffffffffffffffffffffffffffffffffffffffff167e0100000000000000000000000000000000000000000000000000000000000017905590969095509350505050565b60076020526000908152604090208054600182015460028301546003909301546fffffffffffffffffffffffffffffffff9283169391928181169170010000000000000000000000000000000090041685565b60066020526000908152604090205481565b7f000000000000000000000000000000000000000000000000000000000000000081565b6000547e01000000000000000000000000000000000000000000000000000000000000900460ff166124cd57600080fd5b600080547fff00ffffffffffffffffffffffffffffffffffffffffffffffffffffffffffff169055604080517f8da5cb5b00000000000000000000000000000000000000000000000000000000815290516001600160a01b037f00000000000000000000000000000000000000000000000000000000000000001691638da5cb5b916004808301926020929190829003018186803b15801561256e57600080fd5b505afa158015612582573d6000803e3d6000fd5b505050506040513d602081101561259857600080fd5b50516001600160a01b031633146125ae57600080fd5b60ff821615806125d1575060048260ff16101580156125d15750600a8260ff1611155b80156125fb575060ff811615806125fb575060048160ff16101580156125fb5750600a8160ff1611155b61260457600080fd5b60008054610ff0600484901b16840160ff9081167d0100000000000000000000000000000000000000000000000000000000009081027fffff00ffffffffffffffffffffffffffffffffffffffffffffffffffffffffff841617909355919004167f973d8d92bb299f4af6ce49b52a8adb85ae46b9f214c4c4fc06ac77401237b1336010826040805160ff9390920683168252600f600486901c16602083015286831682820152918516606082015290519081900360800190a15050600080547fff00ffffffffffffffffffffffffffffffffffffffffffffffffffffffffffff167e0100000000000000000000000000000000000000000000000000000000000017905550565b6000805481907e01000000000000000000000000000000000000000000000000000000000000900460ff1661274057600080fd5b600080547fff00ffffffffffffffffffffffffffffffffffffffffffffffffffffffffffff169055604080517f8da5cb5b00000000000000000000000000000000000000000000000000000000815290516001600160a01b037f00000000000000000000000000000000000000000000000000000000000000001691638da5cb5b916004808301926020929190829003018186803b1580156127e157600080fd5b505afa1580156127f5573d6000803e3d6000fd5b505050506040513d602081101561280b57600080fd5b50516001600160a01b0316331461282157600080fd5b6003546fffffffffffffffffffffffffffffffff90811690851611612846578361285c565b6003546fffffffffffffffffffffffffffffffff165b6003549092506fffffffffffffffffffffffffffffffff70010000000000000000000000000000000090910481169084161161289857826128c2565b60035470010000000000000000000000000000000090046fffffffffffffffffffffffffffffffff165b90506fffffffffffffffffffffffffffffffff821615612994576003546fffffffffffffffffffffffffffffffff83811691161415612921577fffffffffffffffffffffffffffffffffffffffffffffffffffffffffffffffff909101905b600380547fffffffffffffffffffffffffffffffff0000000000000000000000000000000081166fffffffffffffffffffffffffffffffff918216859003821617909155612994907f00000000000000000000000000000000000000000000000000000000000000009087908516614593565b6fffffffffffffffffffffffffffffffff811615612a6d576003546fffffffffffffffffffffffffffffffff828116700100000000000000000000000000000000909204161415612a02577fffffffffffffffffffffffffffffffffffffffffffffffffffffffffffffffff015b600380546fffffffffffffffffffffffffffffffff700100000000000000000000000000000000808304821685900382160291811691909117909155612a6d907f00000000000000000000000000000000000000000000000000000000000000009087908416614593565b604080516fffffffffffffffffffffffffffffffff80851682528316602082015281516001600160a01b0388169233927f596b573906218d3411850b26a6b437d6c4522fdb43d2d2386263f86d50b8b151929081900390910190a3600080547fff00ffffffffffffffffffffffffffffffffffffffffffffffffffffffffffff167e010000000000000000000000000000000000000000000000000000000000001790559094909350915050565b606080612b266134c4565b612be1612b316134fb565b85858080602002602001604051908101604052809392919081815260200183836020028082843760009201829052505460045460089695945074010000000000000000000000000000000000000000820460020b935061ffff770100000000000000000000000000000000000000000000008304811693506fffffffffffffffffffffffffffffffff90911691790100000000000000000000000000000000000000000000000000900416614e3b565b915091509250929050565b6000805481907e01000000000000000000000000000000000000000000000000000000000000900460ff16612c2057600080fd5b600080547fff00ffffffffffffffffffffffffffffffffffffffffffffffffffffffffffff16815560408051608081018252338152600288810b602083015287900b9181019190915281908190612c9d9060608101612c906fffffffffffffffffffffffffffffffff8a16614a0b565b600003600f0b9052614a1c565b9250925092508160000394508060000393506000851180612cbe5750600084115b15612d2b576003830180546fffffffffffffffffffffffffffffffff808216808901821670010000000000000000000000000000000093849004831689019092169092029091177fffffffffffffffffffffffffffffffff00000000000000000000000000000000161790555b604080516fffffffffffffffffffffffffffffffff88168152602081018790528082018690529051600289810b92908b900b9133917f0c396cd989a39f4459b5fa1aed6a9a8dcdbc45908acfd67e028cd568da98982c919081900360600190a45050600080547fff00ffffffffffffffffffffffffffffffffffffffffffffffffffffffffffff167e01000000000000000000000000000000000000000000000000000000000000179055509094909350915050565b6000806000612dee6134c4565b612df88585614f69565b600285810b810b60009081526005602052604080822087840b90930b825281206003830154600681900b9367010000000000000082046001600160a01b03169284927b01000000000000000000000000000000000000000000000000000000810463ffffffff1692849290917f0100000000000000000000000000000000000000000000000000000000000000900460ff1680612e9457600080fd5b6003820154600681900b985067010000000000000081046001600160a01b031696507b01000000000000000000000000000000000000000000000000000000810463ffffffff1694507f0100000000000000000000000000000000000000000000000000000000000000900460ff1680612f0d57600080fd5b50506040805160e0810182526000546001600160a01b0381168252740100000000000000000000000000000000000000008104600290810b810b810b6020840181905261ffff7701000000000000000000000000000000000000000000000084048116958501959095527901000000000000000000000000000000000000000000000000008304851660608501527b010000000000000000000000000000000000000000000000000000008304909416608084015260ff7d0100000000000000000000000000000000000000000000000000000000008304811660a08501527e01000000000000000000000000000000000000000000000000000000000000909204909116151560c08301529093508e810b91900b1215905061303e575093909403965090039350900390506130ca565b8a60020b816020015160020b12156130bb57600061305a6134fb565b6020830151604084015160045460608601519394506000938493613099936008938893879392916fffffffffffffffffffffffffffffffff1690613cd2565b9a9003989098039b5050949096039290920396509091030392506130ca915050565b50949093039650039350900390505b9250925092565b7f000000000000000000000000000000000000000000000000000000000000000081565b7f000000000000000000000000000000000000000000000000000000000000000081565b7f000000000000000000000000000000000000000000000000000000000000000081565b7f000000000000000000000000000000000000000000000000000000000000000081565b60015481565b60056020526000908152604090208054600182015460028301546003909301546fffffffffffffffffffffffffffffffff831693700100000000000000000000000000000000909304600f0b9290600681900b9067010000000000000081046001600160a01b0316907b01000000000000000000000000000000000000000000000000000000810463ffffffff16907f0100000000000000000000000000000000000000000000000000000000000000900460ff1688565b6000546001600160a01b03161561323557600080fd5b600061324082614031565b90506000806132586132506134fb565b600890614fc4565b6040805160e0810182526001600160a01b038816808252600288810b6020808501829052600085870181905261ffff898116606088018190529089166080880181905260a08801839052600160c09098019790975281547e010000000000000000000000000000000000000000000000000000000000007fffffffffffffffffffffffff000000000000000000000000000000000000000090911687177fffffffffffffffffff000000ffffffffffffffffffffffffffffffffffffffff167401000000000000000000000000000000000000000062ffffff9787900b9790971696909602959095177fffffffffff00000000ffffffffffffffffffffffffffffffffffffffffffffff16790100000000000000000000000000000000000000000000000000909102177fffffff0000ffffffffffffffffffffffffffffffffffffffffffffffffffffff167b01000000000000000000000000000000000000000000000000000000909602959095177fff0000ffffffffffffffffffffffffffffffffffffffffffffffffffffffffff1692909217909355835191825281019190915281519395509193507f98636036cb66a9c19a37435efc1e90142190214e8abeb821bdba3f2990dd4c9592918290030190a150505050565b60008082600281900b7ffffffffffffffffffffffffffffffffffffffffffffffffffffffffffff276188161346457fe5b05029050600083600281900b620d89e88161347b57fe5b0502905060008460020b83830360020b8161349257fe5b0560010190508062ffffff166fffffffffffffffffffffffffffffffff8016816134b857fe5b0493505050505b919050565b306001600160a01b037f000000000000000000000000000000000000000000000000000000000000000016146134f957600080fd5b565b4290565b60008060008460020b8660020b8161351357fe5b05905060008660020b12801561353a57508460020b8660020b8161353357fe5b0760020b15155b15613562577fffffffffffffffffffffffffffffffffffffffffffffffffffffffffffffffff015b83156135f55760008061357483615047565b600182810b810b600090815260208d9052604090205460ff83169190911b80017fffffffffffffffffffffffffffffffffffffffffffffffffffffffffffffffff01908116801515975092945090925090856135d757888360ff168603026135ea565b886135e182615059565b840360ff168603025b965050505050613673565b60008061360483600101615047565b91509150600060018260ff166001901b031990506000818b60008660010b60010b815260200190815260200160002054169050806000141595508561365657888360ff0360ff1686600101010261366c565b888361366183615106565b0360ff168660010101025b9650505050505b5094509492505050565b60008060008360020b12613694578260020b61369c565b8260020b6000035b9050620d89e88111156136ae57600080fd5b6000600182166136cf577001000000000000000000000000000000006136e1565b6ffffcb933bd6fad37aa2d162d1a5940015b70ffffffffffffffffffffffffffffffffff1690506002821615613715576ffff97272373d413259a46990580e213a0260801c5b6004821615613734576ffff2e50f5f656932ef12357cf3c7fdcc0260801c5b6008821615613753576fffe5caca7e10e4e61c3624eaa0941cd00260801c5b6010821615613772576fffcb9843d60f6159c9db58835c9266440260801c5b6020821615613791576fff973b41fa98c081472e6896dfb254c00260801c5b60408216156137b0576fff2ea16466c96a3843ec78b326b528610260801c5b60808216156137cf576ffe5dee046a99a2a811c461f1969c30530260801c5b6101008216156137ef576ffcbe86c7900a88aedcffc83b479aa3a40260801c5b61020082161561380f576ff987a7253ac413176f2b074cf7815e540260801c5b61040082161561382f576ff3392b0822b70005940c7a398e4b70f30260801c5b61080082161561384f576fe7159475a2c29b7443b29c7fa6e889d90260801c5b61100082161561386f576fd097f3bdfd2022b8845ad8f792aa58250260801c5b61200082161561388f576fa9f746462d870fdf8a65dc1f90e061e50260801c5b6140008216156138af576f70d869a156d2a1b890bb3df62baf32f70260801c5b6180008216156138cf576f31be135f97d08fd981231505542fcfa60260801c5b620100008216156138f0576f09aa508b5b7a84e1c677de54f3e99bc90260801c5b62020000821615613910576e5d6af8dedb81196699c329225ee6040260801c5b6204000082161561392f576d2216e584f5fa1ea926041bedfe980260801c5b6208000082161561394c576b048a170391f7dc42444e8fa20260801c5b60008460020b131561398557807fffffffffffffffffffffffffffffffffffffffffffffffffffffffffffffffff8161398157fe5b0490505b64010000000081061561399957600161399c565b60005b60ff16602082901c0192505050919050565b60008080806001600160a01b03808916908a161015818712801590613a335760006139e78989620f42400362ffffff16620f4240613c04565b905082613a00576139fb8c8c8c60016152e9565b613a0d565b613a0d8b8d8c6001615388565b9550858110613a1e578a9650613a2d565b613a2a8c8b8386615445565b96505b50613a7d565b81613a4a57613a458b8b8b6000615388565b613a57565b613a578a8c8b60006152e9565b9350838860000310613a6b57899550613a7d565b613a7a8b8a8a6000038561549a565b95505b6001600160a01b038a8116908716148215613ae057808015613a9c5750815b613ab257613aad878d8c6001615388565b613ab4565b855b9550808015613ac1575081155b613ad757613ad2878d8c60006152e9565b613ad9565b845b9450613b2a565b808015613aea5750815b613b0057613afb8c888c60016152e9565b613b02565b855b9550808015613b0f575081155b613b2557613b208c888c6000615388565b613b27565b845b94505b81158015613b3a57508860000385115b15613b46578860000394505b818015613b6557508a6001600160a01b0316876001600160a01b031614155b15613b74578589039350613b91565b613b8e868962ffffff168a620f42400362ffffff16614d6c565b93505b50505095509550955095915050565b60007f80000000000000000000000000000000000000000000000000000000000000008210613bce57600080fd5b5090565b80820382811315600083121514613be857600080fd5b92915050565b81810182811215600083121514613be857600080fd5b600080807fffffffffffffffffffffffffffffffffffffffffffffffffffffffffffffffff85870986860292508281109083900303905080613c585760008411613c4d57600080fd5b508290049050613ccb565b808411613c6457600080fd5b6000848688096000868103871696879004966002600389028118808a02820302808a02820302808a02820302808a02820302808a02820302808a02909103029181900381900460010186841190950394909402919094039290920491909117919091029150505b9392505050565b60008063ffffffff8716613d9d576000898661ffff1661ffff8110613cf357fe5b60408051608081018252919092015463ffffffff8082168084526401000000008304600690810b810b900b60208501526b01000000000000000000000083046001600160a01b0316948401949094527f010000000000000000000000000000000000000000000000000000000000000090910460ff16151560608301529092508a1614613d8957613d86818a89886154ef565b90505b806020015181604001519250925050613e7d565b868803600080613db28c8c858c8c8c8c6155b1565b91509150816000015163ffffffff168363ffffffff161415613de4578160200151826040015194509450505050613e7d565b805163ffffffff84811691161415613e0c578060200151816040015194509450505050613e7d565b8151815160208085015190840151918390039286039163ffffffff80841692908516910360060b81613e3a57fe5b05028460200151018263ffffffff168263ffffffff1686604001518660400151036001600160a01b03160281613e6c57fe5b048560400151019650965050505050505b97509795505050505050565b600295860b860b60009081526020979097526040909620600181018054909503909455938301805490920390915560038201805463ffffffff7b010000000000000000000000000000000000000000000000000000006001600160a01b036701000000000000008085048216909603169094027fffffffffff0000000000000000000000000000000000000000ffffffffffffff90921691909117600681810b90960390950b66ffffffffffffff167fffffffffffffffffffffffffffffffffffffffffffffffffff00000000000000909516949094178281048516909503909316027fff00000000ffffffffffffffffffffffffffffffffffffffffffffffffffffff909316929092179055547001000000000000000000000000000000009004600f0b90565b60008082600f0b1215613ffb57826fffffffffffffffffffffffffffffffff168260000384039150816fffffffffffffffffffffffffffffffff1610613ff657600080fd5b613be8565b826fffffffffffffffffffffffffffffffff168284019150816fffffffffffffffffffffffffffffffff161015613be857600080fd5b60006401000276a36001600160a01b0383161080159061406d575073fffd8963efd1fc6a506488495d951d5263988d266001600160a01b038316105b61407657600080fd5b77ffffffffffffffffffffffffffffffffffffffff00000000602083901b166fffffffffffffffffffffffffffffffff811160071b81811c67ffffffffffffffff811160061b90811c63ffffffff811160051b90811c61ffff811160041b90811c60ff8111600390811b91821c600f811160021b90811c918211600190811b92831c9790881196179094179092171790911717176080811061412057607f810383901c915061412a565b80607f0383901b91505b908002607f81811c60ff83811c9190911c800280831c81831c1c800280841c81841c1c800280851c81851c1c800280861c81861c1c800280871c81871c1c800280881c81881c1c800280891c81891c1c8002808a1c818a1c1c8002808b1c818b1c1c8002808c1c818c1c1c8002808d1c818d1c1c8002808e1c9c81901c9c909c1c80029c8d901c9e9d7fffffffffffffffffffffffffffffffffffffffffffffffffffffffffffffff808f0160401b60c09190911c678000000000000000161760c19b909b1c674000000000000000169a909a1760c29990991c672000000000000000169890981760c39790971c671000000000000000169690961760c49590951c670800000000000000169490941760c59390931c670400000000000000169290921760c69190911c670200000000000000161760c79190911c670100000000000000161760c89190911c6680000000000000161760c99190911c6640000000000000161760ca9190911c6620000000000000161760cb9190911c6610000000000000161760cc9190911c6608000000000000161760cd9190911c66040000000000001617693627a301d71055774c8581027ffffffffffffffffffffffffffffffffffd709b7e5480fba5a50fed5e62ffc5568101608090811d906fdb2df09e81959a81455e260799a0632f8301901d600281810b9083900b1461435857886001600160a01b031661433c8261367d565b6001600160a01b031611156143515781614353565b805b61435a565b815b9998505050505050505050565b6000806000898961ffff1661ffff811061437d57fe5b60408051608081018252919092015463ffffffff8082168084526401000000008304600690810b810b900b60208501526b01000000000000000000000083046001600160a01b0316948401949094527f010000000000000000000000000000000000000000000000000000000000000090910460ff1615156060830152909250891614156144115788859250925050613e7d565b8461ffff168461ffff1611801561443257506001850361ffff168961ffff16145b1561443f57839150614443565b8491505b8161ffff168960010161ffff168161445757fe5b069250614466818989896154ef565b8a8461ffff1661ffff811061447757fe5b8251910180546020840151604085015160609095015115157f0100000000000000000000000000000000000000000000000000000000000000027effffffffffffffffffffffffffffffffffffffffffffffffffffffffffffff6001600160a01b039096166b010000000000000000000000027fff0000000000000000000000000000000000000000ffffffffffffffffffffff60069390930b66ffffffffffffff16640100000000027fffffffffffffffffffffffffffffffffffffffffff00000000000000ffffffff63ffffffff9097167fffffffffffffffffffffffffffffffffffffffffffffffffffffffff000000009095169490941795909516929092171692909217929092161790555097509795505050505050565b604080516001600160a01b038481166024830152604480830185905283518084039091018152606490920183526020820180517bffffffffffffffffffffffffffffffffffffffffffffffffffffffff167fa9059cbb000000000000000000000000000000000000000000000000000000001781529251825160009485949389169392918291908083835b6020831061465b57805182527fffffffffffffffffffffffffffffffffffffffffffffffffffffffffffffffe0909201916020918201910161461e565b6001836020036101000a0380198251168184511680821785525050505050509050019150506000604051808303816000865af19150503d80600081146146bd576040519150601f19603f3d011682016040523d82523d6000602084013e6146c2565b606091505b50915091508180156146f05750805115806146f057508080602001905160208110156146ed57600080fd5b50515b6146f957600080fd5b5050505050565b604080513060248083019190915282518083039091018152604490910182526020810180517bffffffffffffffffffffffffffffffffffffffffffffffffffffffff167f70a082310000000000000000000000000000000000000000000000000000000017815291518151600093849384936001600160a01b037f00000000000000000000000000000000000000000000000000000000000000001693919290918291908083835b602083106147e557805182527fffffffffffffffffffffffffffffffffffffffffffffffffffffffffffffffe090920191602091820191016147a8565b6001836020036101000a038019825116818451168082178552505050505050905001915050600060405180830381855afa9150503d8060008114614845576040519150601f19603f3d011682016040523d82523d6000602084013e61484a565b606091505b509150915081801561485e57506020815110155b61486757600080fd5b80806020019051602081101561487c57600080fd5b50519250505090565b80820182811015613be857600080fd5b604080513060248083019190915282518083039091018152604490910182526020810180517bffffffffffffffffffffffffffffffffffffffffffffffffffffffff167f70a082310000000000000000000000000000000000000000000000000000000017815291518151600093849384936001600160a01b037f0000000000000000000000000000000000000000000000000000000000000000169391929091829190808383602083106147e557805182527fffffffffffffffffffffffffffffffffffffffffffffffffffffffffffffffe090920191602091820191016147a8565b6000808361ffff161161498b57600080fd5b8261ffff168261ffff16116149a1575081613ccb565b825b8261ffff168161ffff161015614a02576001858261ffff1661ffff81106149c657fe5b0180547fffffffffffffffffffffffffffffffffffffffffffffffffffffffff000000001663ffffffff929092169190911790556001016149a3565b50909392505050565b80600f81900b81146134bf57600080fd5b6000806000614a296134c4565b614a3b84602001518560400151614f69565b6040805160e0810182526000546001600160a01b0381168252740100000000000000000000000000000000000000008104600290810b810b900b602080840182905261ffff770100000000000000000000000000000000000000000000008404811685870152790100000000000000000000000000000000000000000000000000840481166060808701919091527b010000000000000000000000000000000000000000000000000000008504909116608086015260ff7d0100000000000000000000000000000000000000000000000000000000008504811660a08701527e01000000000000000000000000000000000000000000000000000000000000909404909316151560c085015288519089015194890151928901519394614b6794919390929091906157ec565b93508460600151600f0b600014614d6457846020015160020b816020015160020b1215614bbc57614bb5614b9e866020015161367d565b614bab876040015161367d565b87606001516159e5565b9250614d64565b846040015160020b816020015160020b1215614d3a5760045460408201516fffffffffffffffffffffffffffffffff90911690614c1790614bfb6134fb565b6020850151606086015160808701516008949392918791614367565b600080547fffffffffff0000ffffffffffffffffffffffffffffffffffffffffffffffffff1679010000000000000000000000000000000000000000000000000061ffff93841602177fffffffffffffff0000ffffffffffffffffffffffffffffffffffffffffffffff1677010000000000000000000000000000000000000000000000939092169290920217905581516040870151614cc59190614cbb9061367d565b88606001516159e5565b9350614ce3614cd7876020015161367d565b83516060890151615a29565b9250614cf3818760600151613fb1565b600480547fffffffffffffffffffffffffffffffff00000000000000000000000000000000166fffffffffffffffffffffffffffffffff9290921691909117905550614d64565b614d61614d4a866020015161367d565b614d57876040015161367d565b8760600151615a29565b91505b509193909250565b6000614d79848484613c04565b905060008280614d8557fe5b8486091115613ccb577fffffffffffffffffffffffffffffffffffffffffffffffffffffffffffffffff8110614dba57600080fd5b6001019392505050565b6040805160609490941b7fffffffffffffffffffffffffffffffffffffffff00000000000000000000000016602080860191909152600293840b60e890811b60348701529290930b90911b60378401528051808403601a018152603a90930181528251928201929092206000908152929052902090565b60608060008361ffff1611614e4f57600080fd5b865167ffffffffffffffff81118015614e6757600080fd5b50604051908082528060200260200182016040528015614e91578160200160208202803683370190505b509150865167ffffffffffffffff81118015614eac57600080fd5b50604051908082528060200260200182016040528015614ed6578160200160208202803683370190505b50905060005b8751811015614f5c57614f078a8a8a8481518110614ef657fe5b60200260200101518a8a8a8a613cd2565b848381518110614f1357fe5b60200260200101848481518110614f2657fe5b60200260200101826001600160a01b03166001600160a01b03168152508260060b60060b81525050508080600101915050614edc565b5097509795505050505050565b8060020b8260020b12614f7b57600080fd5b7ffffffffffffffffffffffffffffffffffffffffffffffffffffffffffff27618600283900b1215614fac57600080fd5b620d89e8600282900b1315614fc057600080fd5b5050565b6040805160808101825263ffffffff928316808252600060208301819052928201929092526001606090910181905283547fffffffffffffffffffffffffffffffffffffffffffffffffffffffff00000000169091179091167f010000000000000000000000000000000000000000000000000000000000000017909155908190565b60020b600881901d9161010090910790565b600080821161506757600080fd5b700100000000000000000000000000000000821061508757608091821c91015b68010000000000000000821061509f57604091821c91015b64010000000082106150b357602091821c91015b6201000082106150c557601091821c91015b61010082106150d657600891821c91015b601082106150e657600491821c91015b600482106150f657600291821c91015b600282106134bf57600101919050565b600080821161511457600080fd5b5060ff6fffffffffffffffffffffffffffffffff821615615156577fffffffffffffffffffffffffffffffffffffffffffffffffffffffffffffff800161515e565b608082901c91505b67ffffffffffffffff821615615195577fffffffffffffffffffffffffffffffffffffffffffffffffffffffffffffffc00161519d565b604082901c91505b63ffffffff8216156151d0577fffffffffffffffffffffffffffffffffffffffffffffffffffffffffffffffe0016151d8565b602082901c91505b61ffff821615615209577ffffffffffffffffffffffffffffffffffffffffffffffffffffffffffffffff001615211565b601082901c91505b60ff821615615241577ffffffffffffffffffffffffffffffffffffffffffffffffffffffffffffffff801615249565b600882901c91505b600f821615615279577ffffffffffffffffffffffffffffffffffffffffffffffffffffffffffffffffc01615281565b600482901c91505b60038216156152b1577ffffffffffffffffffffffffffffffffffffffffffffffffffffffffffffffffe016152b9565b600282901c91505b60018216156134bf577fffffffffffffffffffffffffffffffffffffffffffffffffffffffffffffffff01919050565b6000836001600160a01b0316856001600160a01b03161115615309579293925b8161534857615343836fffffffffffffffffffffffffffffffff168686036001600160a01b03166c01000000000000000000000000613c04565b61537d565b61537d836fffffffffffffffffffffffffffffffff168686036001600160a01b03166c01000000000000000000000000614d6c565b90505b949350505050565b6000836001600160a01b0316856001600160a01b031611156153a8579293925b7bffffffffffffffffffffffffffffffff000000000000000000000000606084901b166001600160a01b0386860381169087166153e457600080fd5b8361541457866001600160a01b03166154078383896001600160a01b0316613c04565b8161540e57fe5b0461543a565b61543a61542b8383896001600160a01b0316614d6c565b886001600160a01b0316615a58565b979650505050505050565b600080856001600160a01b03161161545c57600080fd5b6000846fffffffffffffffffffffffffffffffff161161547b57600080fd5b8161548d576153438585856001615a63565b61537d8585856001615b7a565b600080856001600160a01b0316116154b157600080fd5b6000846fffffffffffffffffffffffffffffffff16116154d057600080fd5b816154e2576153438585856000615b7a565b61537d8585856000615a63565b6154f7616554565b600085600001518503905060405180608001604052808663ffffffff1681526020018263ffffffff168660020b0288602001510160060b81526020016000856fffffffffffffffffffffffffffffffff1611615554576001615556565b845b6fffffffffffffffffffffffffffffffff1673ffffffff00000000000000000000000000000000608085901b168161558a57fe5b048860400151016001600160a01b0316815260200160011515815250915050949350505050565b6155b9616554565b6155c1616554565b888561ffff1661ffff81106155d257fe5b60408051608081018252919092015463ffffffff81168083526401000000008204600690810b810b900b60208401526b01000000000000000000000082046001600160a01b0316938301939093527f0100000000000000000000000000000000000000000000000000000000000000900460ff1615156060820152925061565b90899089615c6f565b15615693578663ffffffff16826000015163ffffffff16141561567d57613e7d565b8161568a838989886154ef565b91509150613e7d565b888361ffff168660010161ffff16816156a857fe5b0661ffff1661ffff81106156b857fe5b60408051608081018252929091015463ffffffff811683526401000000008104600690810b810b900b60208401526001600160a01b036b0100000000000000000000008204169183019190915260ff7f0100000000000000000000000000000000000000000000000000000000000000909104161515606082018190529092506157b757604080516080810182528a5463ffffffff811682526401000000008104600690810b810b900b60208301526b01000000000000000000000081046001600160a01b0316928201929092527f010000000000000000000000000000000000000000000000000000000000000090910460ff161515606082015291505b6157c688836000015189615c6f565b6157cf57600080fd5b6157dc8989898887615d32565b9150915097509795505050505050565b60006157fb6007878787614dc4565b60015460025491925090600080600f87900b1561598557600061581c6134fb565b60008054600454929350909182916158aa916008918691859174010000000000000000000000000000000000000000810460020b9161ffff7701000000000000000000000000000000000000000000000083048116926fffffffffffffffffffffffffffffffff90921691790100000000000000000000000000000000000000000000000000900416613cd2565b90925090506158e460058d8b8d8b8b87898b60007f0000000000000000000000000000000000000000000000000000000000000000615f1a565b945061591b60058c8b8d8b8b87898b60017f0000000000000000000000000000000000000000000000000000000000000000615f1a565b9350841561594f5761594f60068d7f00000000000000000000000000000000000000000000000000000000000000006161b0565b83156159815761598160068c7f00000000000000000000000000000000000000000000000000000000000000006161b0565b5050505b60008061599760058c8c8b8a8a616216565b90925090506159a8878a84846162c2565b600089600f0b12156159d65783156159c5576159c560058c6164d6565b82156159d6576159d660058b6164d6565b50505050505095945050505050565b60008082600f0b12615a0b57615a06615a018585856001615388565b613ba0565b615380565b615a1e615a018585856000036000615388565b600003949350505050565b60008082600f0b12615a4557615a06615a0185858560016152e9565b615a1e615a0185858560000360006152e9565b808204910615150190565b60008115615af15760006001600160a01b03841115615aab57615aa6846c01000000000000000000000000876fffffffffffffffffffffffffffffffff16613c04565b615acc565b6fffffffffffffffffffffffffffffffff8516606085901b81615aca57fe5b045b9050615ae9615ae46001600160a01b03881683614885565b616502565b915050615380565b60006001600160a01b03841115615b3157615b2c846c01000000000000000000000000876fffffffffffffffffffffffffffffffff16614d6c565b615b51565b615b51606085901b6fffffffffffffffffffffffffffffffff8716615a58565b905080866001600160a01b031611615b6857600080fd5b6001600160a01b038616039050615380565b600082615b88575083615380565b7bffffffffffffffffffffffffffffffff000000000000000000000000606085901b168215615c28576001600160a01b03861684810290858281615bc857fe5b041415615bf957818101828110615bf757615bed83896001600160a01b031683614d6c565b9350505050615380565b505b615c1f82615c1a878a6001600160a01b03168681615c1357fe5b0490614885565b615a58565b92505050615380565b6001600160a01b03861684810290858281615c3f57fe5b04148015615c4c57508082115b615c5557600080fd5b808203615bed615ae4846001600160a01b038b1684614d6c565b60008363ffffffff168363ffffffff1611158015615c9957508363ffffffff168263ffffffff1611155b15615cb5578163ffffffff168363ffffffff1611159050613ccb565b60008463ffffffff168463ffffffff1611615cdd578363ffffffff1664010000000001615ce5565b8363ffffffff165b64ffffffffff16905060008563ffffffff168463ffffffff1611615d16578363ffffffff1664010000000001615d1e565b8363ffffffff165b64ffffffffff169091111595945050505050565b615d3a616554565b615d42616554565b60008361ffff168560010161ffff1681615d5857fe5b0661ffff169050600060018561ffff16830103905060005b506002818301048961ffff87168281615d8557fe5b0661ffff8110615d9157fe5b60408051608081018252929091015463ffffffff811683526401000000008104600690810b810b900b60208401526001600160a01b036b0100000000000000000000008204169183019190915260ff7f010000000000000000000000000000000000000000000000000000000000000090910416151560608201819052909550615e2057806001019250615d70565b898661ffff168260010181615e3157fe5b0661ffff8110615e3d57fe5b60408051608081018252929091015463ffffffff811683526401000000008104600690810b810b900b60208401526001600160a01b036b0100000000000000000000008204169183019190915260ff7f010000000000000000000000000000000000000000000000000000000000000090910416151560608201528551909450600090615ecc908b908b615c6f565b9050808015615ee55750615ee58a8a8760000151615c6f565b15615ef05750615f0d565b80615f0057600182039250615f07565b8160010193505b50615d70565b5050509550959350505050565b60028a810b900b600090815260208c90526040812080546fffffffffffffffffffffffffffffffff1682615f4e828d613fb1565b9050846fffffffffffffffffffffffffffffffff16816fffffffffffffffffffffffffffffffff161115615f8157600080fd5b6fffffffffffffffffffffffffffffffff82811615908216158114159450156160c4578c60020b8e60020b1361607857600183018b9055600283018a90556003830180547fffffffffff0000000000000000000000000000000000000000ffffffffffffff166701000000000000006001600160a01b038c1602177fffffffffffffffffffffffffffffffffffffffffffffffffff000000000000001666ffffffffffffff60068b900b16177fff00000000ffffffffffffffffffffffffffffffffffffffffffffffffffffff167b0100000000000000000000000000000000000000000000000000000063ffffffff8a16021790555b6003830180547effffffffffffffffffffffffffffffffffffffffffffffffffffffffffffff167f01000000000000000000000000000000000000000000000000000000000000001790555b82547fffffffffffffffffffffffffffffffff00000000000000000000000000000000166fffffffffffffffffffffffffffffffff82161783558561613b57825461613690616131907001000000000000000000000000000000009004600f90810b810b908f900b613bee565b614a0b565b616169565b825461616990616131907001000000000000000000000000000000009004600f90810b810b908f900b613bd2565b8354600f9190910b6fffffffffffffffffffffffffffffffff9081167001000000000000000000000000000000000291161790925550909c9b505050505050505050505050565b8060020b8260020b816161bf57fe5b0760020b156161cd57600080fd5b6000806161e88360020b8560020b816161e257fe5b05615047565b600191820b820b60009081526020979097526040909620805460ff9097169190911b90951890945550505050565b600285810b80820b60009081526020899052604080822088850b850b83529082209193849391929184918291908a900b1261625c5750506001820154600283015461626f565b8360010154880391508360020154870390505b6000808b60020b8b60020b1215616291575050600183015460028401546162a4565b84600101548a0391508460020154890390505b92909803979097039b96909503949094039850939650505050505050565b6040805160a08101825285546fffffffffffffffffffffffffffffffff90811682526001870154602083015260028701549282019290925260038601548083166060830152700100000000000000000000000000000000900490911660808201526000600f85900b6163535781516fffffffffffffffffffffffffffffffff1661634b57600080fd5b508051616362565b815161635f9086613fb1565b90505b600061639c8360200151860384600001516fffffffffffffffffffffffffffffffff16700100000000000000000000000000000000613c04565b905060006163d88460400151860385600001516fffffffffffffffffffffffffffffffff16700100000000000000000000000000000000613c04565b905086600f0b6000146164205787547fffffffffffffffffffffffffffffffff00000000000000000000000000000000166fffffffffffffffffffffffffffffffff84161788555b60018801869055600288018590556fffffffffffffffffffffffffffffffff821615158061646057506000816fffffffffffffffffffffffffffffffff16115b156164cc576003880180547fffffffffffffffffffffffffffffffff0000000000000000000000000000000081166fffffffffffffffffffffffffffffffff91821685018216178082167001000000000000000000000000000000009182900483168501909216021790555b5050505050505050565b600290810b810b6000908152602092909252604082208281556001810183905590810182905560030155565b806001600160a01b03811681146134bf57600080fd5b6040805160e081018252600080825260208201819052918101829052606081018290526080810182905260a0810182905260c081019190915290565b6040805160808101825260008082526020820181905291810182905260608101919091529056fea164736f6c6343000706000a","opcodes":"PUSH2 0x160 PUSH1 0x40 MSTORE CALLVALUE DUP1 ISZERO PUSH3 0x12 JUMPI PUSH1 0x0 DUP1 REVERT JUMPDEST POP ADDRESS PUSH1 0x60 SHL PUSH1 0x80 MSTORE PUSH1 0x40 DUP1 MLOAD PUSH4 0x8903573 PUSH1 0xE4 SHL DUP2 MSTORE SWAP1 MLOAD PUSH1 0x0 SWAP2 CALLER SWAP2 PUSH4 0x89035730 SWAP2 PUSH1 0x4 DUP1 DUP3 ADD SWAP3 PUSH1 0xA0 SWAP3 SWAP1 SWAP2 SWAP1 DUP3 SWAP1 SUB ADD DUP2 DUP7 DUP1 EXTCODESIZE ISZERO DUP1 ISZERO PUSH3 0x56 JUMPI PUSH1 0x0 DUP1 REVERT JUMPDEST POP GAS STATICCALL ISZERO DUP1 ISZERO PUSH3 0x6B JUMPI RETURNDATASIZE PUSH1 0x0 DUP1 RETURNDATACOPY RETURNDATASIZE PUSH1 0x0 REVERT JUMPDEST POP POP POP POP PUSH1 0x40 MLOAD RETURNDATASIZE PUSH1 0xA0 DUP2 LT ISZERO PUSH3 0x82 JUMPI PUSH1 0x0 DUP1 REVERT JUMPDEST POP DUP1 MLOAD PUSH1 0x20 DUP1 DUP4 ADD MLOAD PUSH1 0x40 DUP5 ADD MLOAD PUSH1 0x60 DUP1 DUP7 ADD MLOAD PUSH1 0x80 SWAP1 SWAP7 ADD MLOAD PUSH1 0xE8 SWAP7 DUP8 SHL PUSH1 0x1 PUSH1 0x1 PUSH1 0xE8 SHL SUB NOT AND PUSH2 0x100 MSTORE SWAP2 DUP2 SHL PUSH1 0x1 PUSH1 0x1 PUSH1 0x60 SHL SUB NOT SWAP1 DUP2 AND PUSH1 0xE0 MSTORE SWAP3 DUP2 SHL DUP4 AND PUSH1 0xC0 MSTORE SWAP4 SWAP1 SWAP4 SHL AND PUSH1 0xA0 MSTORE PUSH1 0x2 DUP3 DUP2 SIGNEXTEND SWAP1 SIGNEXTEND SWAP1 SWAP3 SHL PUSH2 0x120 MSTORE SWAP2 POP PUSH3 0xF7 SWAP1 DUP3 SWAP1 PUSH3 0x10F DUP2 SHL PUSH3 0x3433 OR SWAP1 SHR JUMP JUMPDEST PUSH1 0x80 SHL PUSH1 0x1 PUSH1 0x1 PUSH1 0x80 SHL SUB NOT AND PUSH2 0x140 MSTORE POP PUSH3 0x17D JUMP JUMPDEST PUSH1 0x0 DUP1 DUP3 PUSH1 0x2 DUP2 SWAP1 SIGNEXTEND PUSH3 0xD89E7 NOT DUP2 PUSH3 0x125 JUMPI INVALID JUMPDEST SDIV MUL SWAP1 POP PUSH1 0x0 DUP4 PUSH1 0x2 DUP2 SWAP1 SIGNEXTEND PUSH3 0xD89E8 DUP2 PUSH3 0x13D JUMPI INVALID JUMPDEST SDIV MUL SWAP1 POP PUSH1 0x0 DUP5 PUSH1 0x2 SIGNEXTEND DUP4 DUP4 SUB PUSH1 0x2 SIGNEXTEND DUP2 PUSH3 0x155 JUMPI INVALID JUMPDEST SDIV PUSH1 0x1 ADD SWAP1 POP DUP1 PUSH3 0xFFFFFF AND PUSH1 0x1 PUSH1 0x1 PUSH1 0x80 SHL SUB DUP1 AND DUP2 PUSH3 0x173 JUMPI INVALID JUMPDEST DIV SWAP6 SWAP5 POP POP POP POP POP JUMP JUMPDEST PUSH1 0x80 MLOAD PUSH1 0x60 SHR PUSH1 0xA0 MLOAD PUSH1 0x60 SHR PUSH1 0xC0 MLOAD PUSH1 0x60 SHR PUSH1 0xE0 MLOAD PUSH1 0x60 SHR PUSH2 0x100 MLOAD PUSH1 0xE8 SHR PUSH2 0x120 MLOAD PUSH1 0xE8 SHR PUSH2 0x140 MLOAD PUSH1 0x80 SHR PUSH2 0x6588 PUSH3 0x24A PUSH1 0x0 CODECOPY DUP1 PUSH2 0x247A MSTORE DUP1 PUSH2 0x58C0 MSTORE DUP1 PUSH2 0x58F7 MSTORE POP DUP1 PUSH2 0xC86 MSTORE DUP1 PUSH2 0x30F7 MSTORE DUP1 PUSH2 0x592B MSTORE DUP1 PUSH2 0x595D MSTORE POP DUP1 PUSH2 0xDAD MSTORE DUP1 PUSH2 0x1CEE MSTORE DUP1 PUSH2 0x1D25 MSTORE DUP1 PUSH2 0x313F MSTORE POP DUP1 PUSH2 0x13D0 MSTORE DUP1 PUSH2 0x1DA8 MSTORE DUP1 PUSH2 0x232B MSTORE DUP1 PUSH2 0x2A44 MSTORE DUP1 PUSH2 0x311B MSTORE DUP1 PUSH2 0x4911 MSTORE POP DUP1 PUSH2 0x923 MSTORE DUP1 PUSH2 0x14D0 MSTORE DUP1 PUSH2 0x1D77 MSTORE DUP1 PUSH2 0x22A6 MSTORE DUP1 PUSH2 0x296B MSTORE DUP1 PUSH2 0x477C MSTORE POP DUP1 PUSH2 0x2528 MSTORE DUP1 PUSH2 0x279B MSTORE DUP1 PUSH2 0x30D3 MSTORE POP DUP1 PUSH2 0x34CF MSTORE POP PUSH2 0x6588 PUSH1 0x0 RETURN INVALID PUSH1 0x80 PUSH1 0x40 MSTORE CALLVALUE DUP1 ISZERO PUSH2 0x10 JUMPI PUSH1 0x0 DUP1 REVERT JUMPDEST POP PUSH1 0x4 CALLDATASIZE LT PUSH2 0x1AE JUMPI PUSH1 0x0 CALLDATALOAD PUSH1 0xE0 SHR DUP1 PUSH4 0x70CF754A GT PUSH2 0xEE JUMPI DUP1 PUSH4 0xC45A0155 GT PUSH2 0x97 JUMPI DUP1 PUSH4 0xDDCA3F43 GT PUSH2 0x71 JUMPI DUP1 PUSH4 0xDDCA3F43 EQ PUSH2 0x848 JUMPI DUP1 PUSH4 0xF3058399 EQ PUSH2 0x868 JUMPI DUP1 PUSH4 0xF30DBA93 EQ PUSH2 0x870 JUMPI DUP1 PUSH4 0xF637731D EQ PUSH2 0x8FB JUMPI PUSH2 0x1AE JUMP JUMPDEST DUP1 PUSH4 0xC45A0155 EQ PUSH2 0x819 JUMPI DUP1 PUSH4 0xD0C93A7C EQ PUSH2 0x821 JUMPI DUP1 PUSH4 0xD21220A7 EQ PUSH2 0x840 JUMPI PUSH2 0x1AE JUMP JUMPDEST DUP1 PUSH4 0x883BDBFD GT PUSH2 0xC8 JUMPI DUP1 PUSH4 0x883BDBFD EQ PUSH2 0x672 JUMPI DUP1 PUSH4 0xA34123A7 EQ PUSH2 0x77B JUMPI DUP1 PUSH4 0xA38807F2 EQ PUSH2 0x7BE JUMPI PUSH2 0x1AE JUMP JUMPDEST DUP1 PUSH4 0x70CF754A EQ PUSH2 0x5FC JUMPI DUP1 PUSH4 0x8206A4D1 EQ PUSH2 0x604 JUMPI DUP1 PUSH4 0x85B66729 EQ PUSH2 0x62C JUMPI PUSH2 0x1AE JUMP JUMPDEST DUP1 PUSH4 0x3850C7BD GT PUSH2 0x15B JUMPI DUP1 PUSH4 0x490E6CBC GT PUSH2 0x135 JUMPI DUP1 PUSH4 0x490E6CBC EQ PUSH2 0x494 JUMPI DUP1 PUSH4 0x4F1EB3D8 EQ PUSH2 0x520 JUMPI DUP1 PUSH4 0x514EA4BF EQ PUSH2 0x57A JUMPI DUP1 PUSH4 0x5339C296 EQ PUSH2 0x5DC JUMPI PUSH2 0x1AE JUMP JUMPDEST DUP1 PUSH4 0x3850C7BD EQ PUSH2 0x376 JUMPI DUP1 PUSH4 0x3C8A7D8D EQ PUSH2 0x3CF JUMPI DUP1 PUSH4 0x46141319 EQ PUSH2 0x47A JUMPI PUSH2 0x1AE JUMP JUMPDEST DUP1 PUSH4 0x1AD8B03B GT PUSH2 0x18C JUMPI DUP1 PUSH4 0x1AD8B03B EQ PUSH2 0x2B3 JUMPI DUP1 PUSH4 0x252C09D7 EQ PUSH2 0x2FC JUMPI DUP1 PUSH4 0x32148F67 EQ PUSH2 0x353 JUMPI PUSH2 0x1AE JUMP JUMPDEST DUP1 PUSH4 0xDFE1681 EQ PUSH2 0x1B3 JUMPI DUP1 PUSH4 0x128ACB08 EQ PUSH2 0x1D7 JUMPI DUP1 PUSH4 0x1A686502 EQ PUSH2 0x286 JUMPI JUMPDEST PUSH1 0x0 DUP1 REVERT JUMPDEST PUSH2 0x1BB PUSH2 0x921 JUMP JUMPDEST PUSH1 0x40 DUP1 MLOAD PUSH1 0x1 PUSH1 0x1 PUSH1 0xA0 SHL SUB SWAP1 SWAP3 AND DUP3 MSTORE MLOAD SWAP1 DUP2 SWAP1 SUB PUSH1 0x20 ADD SWAP1 RETURN JUMPDEST PUSH2 0x26D PUSH1 0x4 DUP1 CALLDATASIZE SUB PUSH1 0xA0 DUP2 LT ISZERO PUSH2 0x1ED JUMPI PUSH1 0x0 DUP1 REVERT JUMPDEST PUSH1 0x1 PUSH1 0x1 PUSH1 0xA0 SHL SUB DUP3 CALLDATALOAD DUP2 AND SWAP3 PUSH1 0x20 DUP2 ADD CALLDATALOAD ISZERO ISZERO SWAP3 PUSH1 0x40 DUP3 ADD CALLDATALOAD SWAP3 PUSH1 0x60 DUP4 ADD CALLDATALOAD AND SWAP2 SWAP1 DUP2 ADD SWAP1 PUSH1 0xA0 DUP2 ADD PUSH1 0x80 DUP3 ADD CALLDATALOAD PUSH5 0x100000000 DUP2 GT ISZERO PUSH2 0x22E JUMPI PUSH1 0x0 DUP1 REVERT JUMPDEST DUP3 ADD DUP4 PUSH1 0x20 DUP3 ADD GT ISZERO PUSH2 0x240 JUMPI PUSH1 0x0 DUP1 REVERT JUMPDEST DUP1 CALLDATALOAD SWAP1 PUSH1 0x20 ADD SWAP2 DUP5 PUSH1 0x1 DUP4 MUL DUP5 ADD GT PUSH5 0x100000000 DUP4 GT OR ISZERO PUSH2 0x262 JUMPI PUSH1 0x0 DUP1 REVERT JUMPDEST POP SWAP1 SWAP3 POP SWAP1 POP PUSH2 0x945 JUMP JUMPDEST PUSH1 0x40 DUP1 MLOAD SWAP3 DUP4 MSTORE PUSH1 0x20 DUP4 ADD SWAP2 SWAP1 SWAP2 MSTORE DUP1 MLOAD SWAP2 DUP3 SWAP1 SUB ADD SWAP1 RETURN JUMPDEST PUSH2 0x28E PUSH2 0x1699 JUMP JUMPDEST PUSH1 0x40 DUP1 MLOAD PUSH16 0xFFFFFFFFFFFFFFFFFFFFFFFFFFFFFFFF SWAP1 SWAP3 AND DUP3 MSTORE MLOAD SWAP1 DUP2 SWAP1 SUB PUSH1 0x20 ADD SWAP1 RETURN JUMPDEST PUSH2 0x2BB PUSH2 0x16B1 JUMP JUMPDEST PUSH1 0x40 MLOAD DUP1 DUP4 PUSH16 0xFFFFFFFFFFFFFFFFFFFFFFFFFFFFFFFF AND DUP2 MSTORE PUSH1 0x20 ADD DUP3 PUSH16 0xFFFFFFFFFFFFFFFFFFFFFFFFFFFFFFFF AND DUP2 MSTORE PUSH1 0x20 ADD SWAP3 POP POP POP PUSH1 0x40 MLOAD DUP1 SWAP2 SUB SWAP1 RETURN JUMPDEST PUSH2 0x319 PUSH1 0x4 DUP1 CALLDATASIZE SUB PUSH1 0x20 DUP2 LT ISZERO PUSH2 0x312 JUMPI PUSH1 0x0 DUP1 REVERT JUMPDEST POP CALLDATALOAD PUSH2 0x16E1 JUMP JUMPDEST PUSH1 0x40 DUP1 MLOAD PUSH4 0xFFFFFFFF SWAP1 SWAP6 AND DUP6 MSTORE PUSH1 0x6 SWAP4 SWAP1 SWAP4 SIGNEXTEND PUSH1 0x20 DUP6 ADD MSTORE PUSH1 0x1 PUSH1 0x1 PUSH1 0xA0 SHL SUB SWAP1 SWAP2 AND DUP4 DUP4 ADD MSTORE ISZERO ISZERO PUSH1 0x60 DUP4 ADD MSTORE MLOAD SWAP1 DUP2 SWAP1 SUB PUSH1 0x80 ADD SWAP1 RETURN JUMPDEST PUSH2 0x374 PUSH1 0x4 DUP1 CALLDATASIZE SUB PUSH1 0x20 DUP2 LT ISZERO PUSH2 0x369 JUMPI PUSH1 0x0 DUP1 REVERT JUMPDEST POP CALLDATALOAD PUSH2 0xFFFF AND PUSH2 0x174B JUMP JUMPDEST STOP JUMPDEST PUSH2 0x37E PUSH2 0x18CD JUMP JUMPDEST PUSH1 0x40 DUP1 MLOAD PUSH1 0x1 PUSH1 0x1 PUSH1 0xA0 SHL SUB SWAP1 SWAP9 AND DUP9 MSTORE PUSH1 0x2 SWAP7 SWAP1 SWAP7 SIGNEXTEND PUSH1 0x20 DUP9 ADD MSTORE PUSH2 0xFFFF SWAP5 DUP6 AND DUP8 DUP8 ADD MSTORE SWAP3 DUP5 AND PUSH1 0x60 DUP8 ADD MSTORE SWAP3 AND PUSH1 0x80 DUP6 ADD MSTORE PUSH1 0xFF SWAP1 SWAP2 AND PUSH1 0xA0 DUP5 ADD MSTORE ISZERO ISZERO PUSH1 0xC0 DUP4 ADD MSTORE MLOAD SWAP1 DUP2 SWAP1 SUB PUSH1 0xE0 ADD SWAP1 RETURN JUMPDEST PUSH2 0x26D PUSH1 0x4 DUP1 CALLDATASIZE SUB PUSH1 0xA0 DUP2 LT ISZERO PUSH2 0x3E5 JUMPI PUSH1 0x0 DUP1 REVERT JUMPDEST PUSH1 0x1 PUSH1 0x1 PUSH1 0xA0 SHL SUB DUP3 CALLDATALOAD AND SWAP2 PUSH1 0x20 DUP2 ADD CALLDATALOAD PUSH1 0x2 SWAP1 DUP2 SIGNEXTEND SWAP3 PUSH1 0x40 DUP4 ADD CALLDATALOAD SWAP1 SWAP2 SIGNEXTEND SWAP2 PUSH16 0xFFFFFFFFFFFFFFFFFFFFFFFFFFFFFFFF PUSH1 0x60 DUP3 ADD CALLDATALOAD AND SWAP2 DUP2 ADD SWAP1 PUSH1 0xA0 DUP2 ADD PUSH1 0x80 DUP3 ADD CALLDATALOAD PUSH5 0x100000000 DUP2 GT ISZERO PUSH2 0x43B JUMPI PUSH1 0x0 DUP1 REVERT JUMPDEST DUP3 ADD DUP4 PUSH1 0x20 DUP3 ADD GT ISZERO PUSH2 0x44D JUMPI PUSH1 0x0 DUP1 REVERT JUMPDEST DUP1 CALLDATALOAD SWAP1 PUSH1 0x20 ADD SWAP2 DUP5 PUSH1 0x1 DUP4 MUL DUP5 ADD GT PUSH5 0x100000000 DUP4 GT OR ISZERO PUSH2 0x46F JUMPI PUSH1 0x0 DUP1 REVERT JUMPDEST POP SWAP1 SWAP3 POP SWAP1 POP PUSH2 0x19A5 JUMP JUMPDEST PUSH2 0x482 PUSH2 0x1C60 JUMP JUMPDEST PUSH1 0x40 DUP1 MLOAD SWAP2 DUP3 MSTORE MLOAD SWAP1 DUP2 SWAP1 SUB PUSH1 0x20 ADD SWAP1 RETURN JUMPDEST PUSH2 0x374 PUSH1 0x4 DUP1 CALLDATASIZE SUB PUSH1 0x80 DUP2 LT ISZERO PUSH2 0x4AA JUMPI PUSH1 0x0 DUP1 REVERT JUMPDEST PUSH1 0x1 PUSH1 0x1 PUSH1 0xA0 SHL SUB DUP3 CALLDATALOAD AND SWAP2 PUSH1 0x20 DUP2 ADD CALLDATALOAD SWAP2 PUSH1 0x40 DUP3 ADD CALLDATALOAD SWAP2 SWAP1 DUP2 ADD SWAP1 PUSH1 0x80 DUP2 ADD PUSH1 0x60 DUP3 ADD CALLDATALOAD PUSH5 0x100000000 DUP2 GT ISZERO PUSH2 0x4E1 JUMPI PUSH1 0x0 DUP1 REVERT JUMPDEST DUP3 ADD DUP4 PUSH1 0x20 DUP3 ADD GT ISZERO PUSH2 0x4F3 JUMPI PUSH1 0x0 DUP1 REVERT JUMPDEST DUP1 CALLDATALOAD SWAP1 PUSH1 0x20 ADD SWAP2 DUP5 PUSH1 0x1 DUP4 MUL DUP5 ADD GT PUSH5 0x100000000 DUP4 GT OR ISZERO PUSH2 0x515 JUMPI PUSH1 0x0 DUP1 REVERT JUMPDEST POP SWAP1 SWAP3 POP SWAP1 POP PUSH2 0x1C66 JUMP JUMPDEST PUSH2 0x2BB PUSH1 0x4 DUP1 CALLDATASIZE SUB PUSH1 0xA0 DUP2 LT ISZERO PUSH2 0x536 JUMPI PUSH1 0x0 DUP1 REVERT JUMPDEST POP PUSH1 0x1 PUSH1 0x1 PUSH1 0xA0 SHL SUB DUP2 CALLDATALOAD AND SWAP1 PUSH1 0x20 DUP2 ADD CALLDATALOAD PUSH1 0x2 SWAP1 DUP2 SIGNEXTEND SWAP2 PUSH1 0x40 DUP2 ADD CALLDATALOAD SWAP1 SWAP2 SIGNEXTEND SWAP1 PUSH16 0xFFFFFFFFFFFFFFFFFFFFFFFFFFFFFFFF PUSH1 0x60 DUP3 ADD CALLDATALOAD DUP2 AND SWAP2 PUSH1 0x80 ADD CALLDATALOAD AND PUSH2 0x212B JUMP JUMPDEST PUSH2 0x597 PUSH1 0x4 DUP1 CALLDATASIZE SUB PUSH1 0x20 DUP2 LT ISZERO PUSH2 0x590 JUMPI PUSH1 0x0 DUP1 REVERT JUMPDEST POP CALLDATALOAD PUSH2 0x2413 JUMP JUMPDEST PUSH1 0x40 DUP1 MLOAD PUSH16 0xFFFFFFFFFFFFFFFFFFFFFFFFFFFFFFFF SWAP7 DUP8 AND DUP2 MSTORE PUSH1 0x20 DUP2 ADD SWAP6 SWAP1 SWAP6 MSTORE DUP5 DUP2 ADD SWAP4 SWAP1 SWAP4 MSTORE SWAP1 DUP5 AND PUSH1 0x60 DUP5 ADD MSTORE SWAP1 SWAP3 AND PUSH1 0x80 DUP3 ADD MSTORE SWAP1 MLOAD SWAP1 DUP2 SWAP1 SUB PUSH1 0xA0 ADD SWAP1 RETURN JUMPDEST PUSH2 0x482 PUSH1 0x4 DUP1 CALLDATASIZE SUB PUSH1 0x20 DUP2 LT ISZERO PUSH2 0x5F2 JUMPI PUSH1 0x0 DUP1 REVERT JUMPDEST POP CALLDATALOAD PUSH1 0x1 SIGNEXTEND PUSH2 0x2466 JUMP JUMPDEST PUSH2 0x28E PUSH2 0x2478 JUMP JUMPDEST PUSH2 0x374 PUSH1 0x4 DUP1 CALLDATASIZE SUB PUSH1 0x40 DUP2 LT ISZERO PUSH2 0x61A JUMPI PUSH1 0x0 DUP1 REVERT JUMPDEST POP PUSH1 0xFF DUP2 CALLDATALOAD DUP2 AND SWAP2 PUSH1 0x20 ADD CALLDATALOAD AND PUSH2 0x249C JUMP JUMPDEST PUSH2 0x2BB PUSH1 0x4 DUP1 CALLDATASIZE SUB PUSH1 0x60 DUP2 LT ISZERO PUSH2 0x642 JUMPI PUSH1 0x0 DUP1 REVERT JUMPDEST POP PUSH1 0x1 PUSH1 0x1 PUSH1 0xA0 SHL SUB DUP2 CALLDATALOAD AND SWAP1 PUSH16 0xFFFFFFFFFFFFFFFFFFFFFFFFFFFFFFFF PUSH1 0x20 DUP3 ADD CALLDATALOAD DUP2 AND SWAP2 PUSH1 0x40 ADD CALLDATALOAD AND PUSH2 0x270C JUMP JUMPDEST PUSH2 0x6E2 PUSH1 0x4 DUP1 CALLDATASIZE SUB PUSH1 0x20 DUP2 LT ISZERO PUSH2 0x688 JUMPI PUSH1 0x0 DUP1 REVERT JUMPDEST DUP2 ADD SWAP1 PUSH1 0x20 DUP2 ADD DUP2 CALLDATALOAD PUSH5 0x100000000 DUP2 GT ISZERO PUSH2 0x6A3 JUMPI PUSH1 0x0 DUP1 REVERT JUMPDEST DUP3 ADD DUP4 PUSH1 0x20 DUP3 ADD GT ISZERO PUSH2 0x6B5 JUMPI PUSH1 0x0 DUP1 REVERT JUMPDEST DUP1 CALLDATALOAD SWAP1 PUSH1 0x20 ADD SWAP2 DUP5 PUSH1 0x20 DUP4 MUL DUP5 ADD GT PUSH5 0x100000000 DUP4 GT OR ISZERO PUSH2 0x6D7 JUMPI PUSH1 0x0 DUP1 REVERT JUMPDEST POP SWAP1 SWAP3 POP SWAP1 POP PUSH2 0x2B1B JUMP JUMPDEST PUSH1 0x40 MLOAD DUP1 DUP1 PUSH1 0x20 ADD DUP1 PUSH1 0x20 ADD DUP4 DUP2 SUB DUP4 MSTORE DUP6 DUP2 DUP2 MLOAD DUP2 MSTORE PUSH1 0x20 ADD SWAP2 POP DUP1 MLOAD SWAP1 PUSH1 0x20 ADD SWAP1 PUSH1 0x20 MUL DUP1 DUP4 DUP4 PUSH1 0x0 JUMPDEST DUP4 DUP2 LT ISZERO PUSH2 0x726 JUMPI DUP2 DUP2 ADD MLOAD DUP4 DUP3 ADD MSTORE PUSH1 0x20 ADD PUSH2 0x70E JUMP JUMPDEST POP POP POP POP SWAP1 POP ADD DUP4 DUP2 SUB DUP3 MSTORE DUP5 DUP2 DUP2 MLOAD DUP2 MSTORE PUSH1 0x20 ADD SWAP2 POP DUP1 MLOAD SWAP1 PUSH1 0x20 ADD SWAP1 PUSH1 0x20 MUL DUP1 DUP4 DUP4 PUSH1 0x0 JUMPDEST DUP4 DUP2 LT ISZERO PUSH2 0x765 JUMPI DUP2 DUP2 ADD MLOAD DUP4 DUP3 ADD MSTORE PUSH1 0x20 ADD PUSH2 0x74D JUMP JUMPDEST POP POP POP POP SWAP1 POP ADD SWAP5 POP POP POP POP POP PUSH1 0x40 MLOAD DUP1 SWAP2 SUB SWAP1 RETURN JUMPDEST PUSH2 0x26D PUSH1 0x4 DUP1 CALLDATASIZE SUB PUSH1 0x60 DUP2 LT ISZERO PUSH2 0x791 JUMPI PUSH1 0x0 DUP1 REVERT JUMPDEST POP DUP1 CALLDATALOAD PUSH1 0x2 SWAP1 DUP2 SIGNEXTEND SWAP2 PUSH1 0x20 DUP2 ADD CALLDATALOAD SWAP1 SWAP2 SIGNEXTEND SWAP1 PUSH1 0x40 ADD CALLDATALOAD PUSH16 0xFFFFFFFFFFFFFFFFFFFFFFFFFFFFFFFF AND PUSH2 0x2BEC JUMP JUMPDEST PUSH2 0x7E8 PUSH1 0x4 DUP1 CALLDATASIZE SUB PUSH1 0x40 DUP2 LT ISZERO PUSH2 0x7D4 JUMPI PUSH1 0x0 DUP1 REVERT JUMPDEST POP DUP1 CALLDATALOAD PUSH1 0x2 SWAP1 DUP2 SIGNEXTEND SWAP2 PUSH1 0x20 ADD CALLDATALOAD SWAP1 SIGNEXTEND PUSH2 0x2DE1 JUMP JUMPDEST PUSH1 0x40 DUP1 MLOAD PUSH1 0x6 SWAP5 SWAP1 SWAP5 SIGNEXTEND DUP5 MSTORE PUSH1 0x1 PUSH1 0x1 PUSH1 0xA0 SHL SUB SWAP1 SWAP3 AND PUSH1 0x20 DUP5 ADD MSTORE PUSH4 0xFFFFFFFF AND DUP3 DUP3 ADD MSTORE MLOAD SWAP1 DUP2 SWAP1 SUB PUSH1 0x60 ADD SWAP1 RETURN JUMPDEST PUSH2 0x1BB PUSH2 0x30D1 JUMP JUMPDEST PUSH2 0x829 PUSH2 0x30F5 JUMP JUMPDEST PUSH1 0x40 DUP1 MLOAD PUSH1 0x2 SWAP3 SWAP1 SWAP3 SIGNEXTEND DUP3 MSTORE MLOAD SWAP1 DUP2 SWAP1 SUB PUSH1 0x20 ADD SWAP1 RETURN JUMPDEST PUSH2 0x1BB PUSH2 0x3119 JUMP JUMPDEST PUSH2 0x850 PUSH2 0x313D JUMP JUMPDEST PUSH1 0x40 DUP1 MLOAD PUSH3 0xFFFFFF SWAP1 SWAP3 AND DUP3 MSTORE MLOAD SWAP1 DUP2 SWAP1 SUB PUSH1 0x20 ADD SWAP1 RETURN JUMPDEST PUSH2 0x482 PUSH2 0x3161 JUMP JUMPDEST PUSH2 0x890 PUSH1 0x4 DUP1 CALLDATASIZE SUB PUSH1 0x20 DUP2 LT ISZERO PUSH2 0x886 JUMPI PUSH1 0x0 DUP1 REVERT JUMPDEST POP CALLDATALOAD PUSH1 0x2 SIGNEXTEND PUSH2 0x3167 JUMP JUMPDEST PUSH1 0x40 DUP1 MLOAD PUSH16 0xFFFFFFFFFFFFFFFFFFFFFFFFFFFFFFFF SWAP1 SWAP10 AND DUP10 MSTORE PUSH1 0xF SWAP8 SWAP1 SWAP8 SIGNEXTEND PUSH1 0x20 DUP10 ADD MSTORE DUP8 DUP8 ADD SWAP6 SWAP1 SWAP6 MSTORE PUSH1 0x60 DUP8 ADD SWAP4 SWAP1 SWAP4 MSTORE PUSH1 0x6 SWAP2 SWAP1 SWAP2 SIGNEXTEND PUSH1 0x80 DUP7 ADD MSTORE PUSH1 0x1 PUSH1 0x1 PUSH1 0xA0 SHL SUB AND PUSH1 0xA0 DUP6 ADD MSTORE PUSH4 0xFFFFFFFF AND PUSH1 0xC0 DUP5 ADD MSTORE ISZERO ISZERO PUSH1 0xE0 DUP4 ADD MSTORE MLOAD SWAP1 DUP2 SWAP1 SUB PUSH2 0x100 ADD SWAP1 RETURN JUMPDEST PUSH2 0x374 PUSH1 0x4 DUP1 CALLDATASIZE SUB PUSH1 0x20 DUP2 LT ISZERO PUSH2 0x911 JUMPI PUSH1 0x0 DUP1 REVERT JUMPDEST POP CALLDATALOAD PUSH1 0x1 PUSH1 0x1 PUSH1 0xA0 SHL SUB AND PUSH2 0x321F JUMP JUMPDEST PUSH32 0x0 DUP2 JUMP JUMPDEST PUSH1 0x0 DUP1 PUSH2 0x950 PUSH2 0x34C4 JUMP JUMPDEST DUP6 PUSH2 0x95A JUMPI PUSH1 0x0 DUP1 REVERT JUMPDEST PUSH1 0x40 DUP1 MLOAD PUSH1 0xE0 DUP2 ADD DUP3 MSTORE PUSH1 0x0 SLOAD PUSH1 0x1 PUSH1 0x1 PUSH1 0xA0 SHL SUB DUP2 AND DUP3 MSTORE PUSH21 0x10000000000000000000000000000000000000000 DUP2 DIV PUSH1 0x2 SWAP1 DUP2 SIGNEXTEND DUP2 SIGNEXTEND SWAP1 SIGNEXTEND PUSH1 0x20 DUP4 ADD MSTORE PUSH2 0xFFFF PUSH24 0x10000000000000000000000000000000000000000000000 DUP3 DIV DUP2 AND SWAP4 DUP4 ADD SWAP4 SWAP1 SWAP4 MSTORE PUSH26 0x100000000000000000000000000000000000000000000000000 DUP2 DIV DUP4 AND PUSH1 0x60 DUP4 ADD MSTORE PUSH28 0x1000000000000000000000000000000000000000000000000000000 DUP2 DIV SWAP1 SWAP3 AND PUSH1 0x80 DUP3 ADD MSTORE PUSH1 0xFF PUSH30 0x10000000000000000000000000000000000000000000000000000000000 DUP4 DIV DUP2 AND PUSH1 0xA0 DUP4 ADD MSTORE PUSH31 0x1000000000000000000000000000000000000000000000000000000000000 SWAP1 SWAP3 DIV SWAP1 SWAP2 AND ISZERO ISZERO PUSH1 0xC0 DUP3 ADD DUP2 SWAP1 MSTORE PUSH2 0xA6D JUMPI PUSH1 0x0 DUP1 REVERT JUMPDEST DUP8 PUSH2 0xAB8 JUMPI DUP1 PUSH1 0x0 ADD MLOAD PUSH1 0x1 PUSH1 0x1 PUSH1 0xA0 SHL SUB AND DUP7 PUSH1 0x1 PUSH1 0x1 PUSH1 0xA0 SHL SUB AND GT DUP1 ISZERO PUSH2 0xAB3 JUMPI POP PUSH20 0xFFFD8963EFD1FC6A506488495D951D5263988D26 PUSH1 0x1 PUSH1 0x1 PUSH1 0xA0 SHL SUB DUP8 AND LT JUMPDEST PUSH2 0xAEA JUMP JUMPDEST DUP1 PUSH1 0x0 ADD MLOAD PUSH1 0x1 PUSH1 0x1 PUSH1 0xA0 SHL SUB AND DUP7 PUSH1 0x1 PUSH1 0x1 PUSH1 0xA0 SHL SUB AND LT DUP1 ISZERO PUSH2 0xAEA JUMPI POP PUSH5 0x1000276A3 PUSH1 0x1 PUSH1 0x1 PUSH1 0xA0 SHL SUB DUP8 AND GT JUMPDEST PUSH2 0xAF3 JUMPI PUSH1 0x0 DUP1 REVERT JUMPDEST PUSH1 0x0 DUP1 SLOAD PUSH32 0xFF00FFFFFFFFFFFFFFFFFFFFFFFFFFFFFFFFFFFFFFFFFFFFFFFFFFFFFFFFFFFF AND DUP2 SSTORE PUSH1 0x40 DUP1 MLOAD PUSH1 0xC0 DUP2 ADD SWAP1 SWAP2 MSTORE DUP1 DUP11 PUSH2 0xB3D JUMPI PUSH1 0x4 DUP5 PUSH1 0xA0 ADD MLOAD PUSH1 0xFF AND SWAP1 SHR PUSH2 0xB50 JUMP JUMPDEST PUSH1 0x10 DUP5 PUSH1 0xA0 ADD MLOAD PUSH1 0xFF AND DUP2 PUSH2 0xB4E JUMPI INVALID JUMPDEST MOD JUMPDEST PUSH1 0xFF AND DUP2 MSTORE PUSH1 0x4 SLOAD PUSH16 0xFFFFFFFFFFFFFFFFFFFFFFFFFFFFFFFF AND PUSH1 0x20 DUP3 ADD MSTORE PUSH1 0x40 ADD PUSH2 0xB7A PUSH2 0x34FB JUMP JUMPDEST PUSH4 0xFFFFFFFF AND DUP2 MSTORE PUSH1 0x20 ADD PUSH1 0x0 PUSH1 0x6 SIGNEXTEND DUP2 MSTORE PUSH1 0x20 ADD PUSH1 0x0 PUSH1 0x1 PUSH1 0x1 PUSH1 0xA0 SHL SUB AND DUP2 MSTORE PUSH1 0x20 ADD PUSH1 0x0 ISZERO ISZERO DUP2 MSTORE POP SWAP1 POP PUSH1 0x0 DUP1 DUP10 SGT SWAP1 POP PUSH1 0x0 PUSH1 0x40 MLOAD DUP1 PUSH1 0xE0 ADD PUSH1 0x40 MSTORE DUP1 DUP12 DUP2 MSTORE PUSH1 0x20 ADD PUSH1 0x0 DUP2 MSTORE PUSH1 0x20 ADD DUP6 PUSH1 0x0 ADD MLOAD PUSH1 0x1 PUSH1 0x1 PUSH1 0xA0 SHL SUB AND DUP2 MSTORE PUSH1 0x20 ADD DUP6 PUSH1 0x20 ADD MLOAD PUSH1 0x2 SIGNEXTEND DUP2 MSTORE PUSH1 0x20 ADD DUP13 PUSH2 0xBF6 JUMPI PUSH1 0x2 SLOAD PUSH2 0xBFA JUMP JUMPDEST PUSH1 0x1 SLOAD JUMPDEST DUP2 MSTORE PUSH1 0x20 ADD PUSH1 0x0 PUSH16 0xFFFFFFFFFFFFFFFFFFFFFFFFFFFFFFFF AND DUP2 MSTORE PUSH1 0x20 ADD DUP5 PUSH1 0x20 ADD MLOAD PUSH16 0xFFFFFFFFFFFFFFFFFFFFFFFFFFFFFFFF AND DUP2 MSTORE POP SWAP1 POP JUMPDEST DUP1 MLOAD ISZERO DUP1 ISZERO SWAP1 PUSH2 0xC5B JUMPI POP DUP9 PUSH1 0x1 PUSH1 0x1 PUSH1 0xA0 SHL SUB AND DUP2 PUSH1 0x40 ADD MLOAD PUSH1 0x1 PUSH1 0x1 PUSH1 0xA0 SHL SUB AND EQ ISZERO JUMPDEST ISZERO PUSH2 0x108E JUMPI PUSH2 0xC68 PUSH2 0x6518 JUMP JUMPDEST PUSH1 0x40 DUP3 ADD MLOAD PUSH1 0x1 PUSH1 0x1 PUSH1 0xA0 SHL SUB AND DUP2 MSTORE PUSH1 0x60 DUP3 ADD MLOAD PUSH2 0xCAB SWAP1 PUSH1 0x6 SWAP1 PUSH32 0x0 DUP16 PUSH2 0x34FF JUMP JUMPDEST ISZERO ISZERO PUSH1 0x40 DUP4 ADD MSTORE PUSH1 0x2 SWAP1 DUP2 SIGNEXTEND DUP2 SIGNEXTEND PUSH1 0x20 DUP4 ADD DUP2 SWAP1 MSTORE PUSH32 0xFFFFFFFFFFFFFFFFFFFFFFFFFFFFFFFFFFFFFFFFFFFFFFFFFFFFFFFFFFF27618 SWAP2 SIGNEXTEND SLT ISZERO PUSH2 0xD14 JUMPI PUSH32 0xFFFFFFFFFFFFFFFFFFFFFFFFFFFFFFFFFFFFFFFFFFFFFFFFFFFFFFFFFFF27618 PUSH1 0x20 DUP3 ADD MSTORE PUSH2 0xD33 JUMP JUMPDEST PUSH1 0x20 DUP2 ADD MLOAD PUSH3 0xD89E8 PUSH1 0x2 SWAP2 SWAP1 SWAP2 SIGNEXTEND SGT ISZERO PUSH2 0xD33 JUMPI PUSH3 0xD89E8 PUSH1 0x20 DUP3 ADD MSTORE JUMPDEST PUSH2 0xD40 DUP2 PUSH1 0x20 ADD MLOAD PUSH2 0x367D JUMP JUMPDEST PUSH1 0x1 PUSH1 0x1 PUSH1 0xA0 SHL SUB AND PUSH1 0x60 DUP3 ADD MSTORE PUSH1 0x40 DUP3 ADD MLOAD PUSH2 0xDD1 SWAP1 DUP14 PUSH2 0xD7A JUMPI DUP12 PUSH1 0x1 PUSH1 0x1 PUSH1 0xA0 SHL SUB AND DUP4 PUSH1 0x60 ADD MLOAD PUSH1 0x1 PUSH1 0x1 PUSH1 0xA0 SHL SUB AND GT PUSH2 0xD94 JUMP JUMPDEST DUP12 PUSH1 0x1 PUSH1 0x1 PUSH1 0xA0 SHL SUB AND DUP4 PUSH1 0x60 ADD MLOAD PUSH1 0x1 PUSH1 0x1 PUSH1 0xA0 SHL SUB AND LT JUMPDEST PUSH2 0xDA2 JUMPI DUP3 PUSH1 0x60 ADD MLOAD PUSH2 0xDA4 JUMP JUMPDEST DUP12 JUMPDEST PUSH1 0xC0 DUP6 ADD MLOAD DUP6 MLOAD PUSH32 0x0 PUSH2 0x39AE JUMP JUMPDEST PUSH1 0xC0 DUP6 ADD MSTORE PUSH1 0xA0 DUP5 ADD MSTORE PUSH1 0x80 DUP4 ADD MSTORE PUSH1 0x1 PUSH1 0x1 PUSH1 0xA0 SHL SUB AND PUSH1 0x40 DUP4 ADD MSTORE DUP3 ISZERO PUSH2 0xE33 JUMPI PUSH2 0xE07 DUP2 PUSH1 0xC0 ADD MLOAD DUP3 PUSH1 0x80 ADD MLOAD ADD PUSH2 0x3BA0 JUMP JUMPDEST DUP3 MLOAD SUB DUP3 MSTORE PUSH1 0xA0 DUP2 ADD MLOAD PUSH2 0xE29 SWAP1 PUSH2 0xE1E SWAP1 PUSH2 0x3BA0 JUMP JUMPDEST PUSH1 0x20 DUP5 ADD MLOAD SWAP1 PUSH2 0x3BD2 JUMP JUMPDEST PUSH1 0x20 DUP4 ADD MSTORE PUSH2 0xE6E JUMP JUMPDEST PUSH2 0xE40 DUP2 PUSH1 0xA0 ADD MLOAD PUSH2 0x3BA0 JUMP JUMPDEST DUP3 MLOAD ADD DUP3 MSTORE PUSH1 0xC0 DUP2 ADD MLOAD PUSH1 0x80 DUP3 ADD MLOAD PUSH2 0xE68 SWAP2 PUSH2 0xE5D SWAP2 ADD PUSH2 0x3BA0 JUMP JUMPDEST PUSH1 0x20 DUP5 ADD MLOAD SWAP1 PUSH2 0x3BEE JUMP JUMPDEST PUSH1 0x20 DUP4 ADD MSTORE JUMPDEST DUP4 MLOAD PUSH1 0xFF AND ISZERO PUSH2 0xEBD JUMPI PUSH1 0x0 DUP5 PUSH1 0x0 ADD MLOAD PUSH1 0xFF AND DUP3 PUSH1 0xC0 ADD MLOAD DUP2 PUSH2 0xE8E JUMPI INVALID JUMPDEST PUSH1 0xC0 DUP5 ADD DUP1 MLOAD SWAP3 SWAP1 SWAP2 DIV SWAP2 DUP3 SWAP1 SUB SWAP1 MSTORE PUSH1 0xA0 DUP5 ADD DUP1 MLOAD SWAP1 SWAP2 ADD PUSH16 0xFFFFFFFFFFFFFFFFFFFFFFFFFFFFFFFF AND SWAP1 MSTORE POP JUMPDEST PUSH1 0xC0 DUP3 ADD MLOAD PUSH16 0xFFFFFFFFFFFFFFFFFFFFFFFFFFFFFFFF AND ISZERO PUSH2 0xF1B JUMPI PUSH2 0xF0F DUP2 PUSH1 0xC0 ADD MLOAD PUSH17 0x100000000000000000000000000000000 DUP5 PUSH1 0xC0 ADD MLOAD PUSH16 0xFFFFFFFFFFFFFFFFFFFFFFFFFFFFFFFF AND PUSH2 0x3C04 JUMP JUMPDEST PUSH1 0x80 DUP4 ADD DUP1 MLOAD SWAP1 SWAP2 ADD SWAP1 MSTORE JUMPDEST DUP1 PUSH1 0x60 ADD MLOAD PUSH1 0x1 PUSH1 0x1 PUSH1 0xA0 SHL SUB AND DUP3 PUSH1 0x40 ADD MLOAD PUSH1 0x1 PUSH1 0x1 PUSH1 0xA0 SHL SUB AND EQ ISZERO PUSH2 0x104D JUMPI DUP1 PUSH1 0x40 ADD MLOAD ISZERO PUSH2 0x1024 JUMPI DUP4 PUSH1 0xA0 ADD MLOAD PUSH2 0xFA5 JUMPI PUSH2 0xF83 DUP5 PUSH1 0x40 ADD MLOAD PUSH1 0x0 DUP8 PUSH1 0x20 ADD MLOAD DUP9 PUSH1 0x40 ADD MLOAD DUP9 PUSH1 0x20 ADD MLOAD DUP11 PUSH1 0x60 ADD MLOAD PUSH1 0x8 PUSH2 0x3CD2 SWAP1 SWAP7 SWAP6 SWAP5 SWAP4 SWAP3 SWAP2 SWAP1 PUSH4 0xFFFFFFFF AND JUMP JUMPDEST PUSH1 0x1 PUSH1 0x1 PUSH1 0xA0 SHL SUB AND PUSH1 0x80 DUP7 ADD MSTORE PUSH1 0x6 SWAP1 DUP2 SIGNEXTEND SWAP1 SIGNEXTEND PUSH1 0x60 DUP6 ADD MSTORE PUSH1 0x1 PUSH1 0xA0 DUP6 ADD MSTORE JUMPDEST PUSH1 0x0 PUSH2 0xFF1 DUP3 PUSH1 0x20 ADD MLOAD DUP15 PUSH2 0xFBC JUMPI PUSH1 0x1 SLOAD PUSH2 0xFC2 JUMP JUMPDEST DUP5 PUSH1 0x80 ADD MLOAD JUMPDEST DUP16 PUSH2 0xFD1 JUMPI DUP6 PUSH1 0x80 ADD MLOAD PUSH2 0xFD5 JUMP JUMPDEST PUSH1 0x2 SLOAD JUMPDEST PUSH1 0x80 DUP10 ADD MLOAD PUSH1 0x60 DUP11 ADD MLOAD PUSH1 0x40 DUP12 ADD MLOAD PUSH1 0x5 SWAP6 SWAP5 SWAP4 SWAP3 SWAP2 SWAP1 PUSH2 0x3E89 JUMP JUMPDEST SWAP1 POP DUP13 ISZERO PUSH2 0xFFD JUMPI PUSH1 0x0 SUB JUMPDEST PUSH2 0x100B DUP4 PUSH1 0xC0 ADD MLOAD DUP3 PUSH2 0x3FB1 JUMP JUMPDEST PUSH16 0xFFFFFFFFFFFFFFFFFFFFFFFFFFFFFFFF AND PUSH1 0xC0 DUP5 ADD MSTORE POP JUMPDEST DUP12 PUSH2 0x1033 JUMPI DUP1 PUSH1 0x20 ADD MLOAD PUSH2 0x103C JUMP JUMPDEST PUSH1 0x1 DUP2 PUSH1 0x20 ADD MLOAD SUB JUMPDEST PUSH1 0x2 SWAP1 DUP2 SIGNEXTEND SWAP1 SIGNEXTEND PUSH1 0x60 DUP4 ADD MSTORE PUSH2 0x1088 JUMP JUMPDEST DUP1 PUSH1 0x0 ADD MLOAD PUSH1 0x1 PUSH1 0x1 PUSH1 0xA0 SHL SUB AND DUP3 PUSH1 0x40 ADD MLOAD PUSH1 0x1 PUSH1 0x1 PUSH1 0xA0 SHL SUB AND EQ PUSH2 0x1088 JUMPI PUSH2 0x107B DUP3 PUSH1 0x40 ADD MLOAD PUSH2 0x4031 JUMP JUMPDEST PUSH1 0x2 SWAP1 DUP2 SIGNEXTEND SWAP1 SIGNEXTEND PUSH1 0x60 DUP4 ADD MSTORE JUMPDEST POP PUSH2 0xC35 JUMP JUMPDEST DUP4 PUSH1 0x20 ADD MLOAD PUSH1 0x2 SIGNEXTEND DUP2 PUSH1 0x60 ADD MLOAD PUSH1 0x2 SIGNEXTEND EQ PUSH2 0x11FC JUMPI PUSH1 0x0 DUP1 PUSH2 0x10DC DUP7 PUSH1 0x40 ADD MLOAD DUP7 PUSH1 0x40 ADD MLOAD DUP9 PUSH1 0x20 ADD MLOAD DUP9 PUSH1 0x20 ADD MLOAD DUP11 PUSH1 0x60 ADD MLOAD DUP12 PUSH1 0x80 ADD MLOAD PUSH1 0x8 PUSH2 0x4367 SWAP1 SWAP7 SWAP6 SWAP5 SWAP4 SWAP3 SWAP2 SWAP1 PUSH4 0xFFFFFFFF AND JUMP JUMPDEST PUSH1 0x40 DUP6 ADD MLOAD PUSH1 0x60 DUP7 ADD MLOAD PUSH1 0x0 DUP1 SLOAD PUSH32 0xFFFFFFFFFF0000FFFFFFFFFFFFFFFFFFFFFFFFFFFFFFFFFFFFFFFFFFFFFFFFFF AND PUSH26 0x100000000000000000000000000000000000000000000000000 PUSH2 0xFFFF SWAP6 DUP7 AND MUL OR PUSH32 0xFFFFFFFFFFFFFF0000FFFFFFFFFFFFFFFFFFFFFFFFFFFFFFFFFFFFFFFFFFFFFF AND PUSH24 0x10000000000000000000000000000000000000000000000 SWAP6 SWAP1 SWAP5 AND SWAP5 SWAP1 SWAP5 MUL SWAP3 SWAP1 SWAP3 OR PUSH32 0xFFFFFFFFFFFFFFFFFF000000FFFFFFFFFFFFFFFFFFFFFFFFFFFFFFFFFFFFFFFF AND PUSH21 0x10000000000000000000000000000000000000000 PUSH3 0xFFFFFF PUSH1 0x2 SWAP5 SWAP1 SWAP5 SIGNEXTEND SWAP4 SWAP1 SWAP4 AND SWAP3 SWAP1 SWAP3 MUL SWAP2 SWAP1 SWAP2 OR PUSH32 0xFFFFFFFFFFFFFFFFFFFFFFFF0000000000000000000000000000000000000000 AND PUSH1 0x1 PUSH1 0x1 PUSH1 0xA0 SHL SUB SWAP1 SWAP2 AND OR SWAP1 SSTORE POP PUSH2 0x1239 SWAP1 POP JUMP JUMPDEST PUSH1 0x40 DUP2 ADD MLOAD PUSH1 0x0 DUP1 SLOAD PUSH32 0xFFFFFFFFFFFFFFFFFFFFFFFF0000000000000000000000000000000000000000 AND PUSH1 0x1 PUSH1 0x1 PUSH1 0xA0 SHL SUB SWAP1 SWAP3 AND SWAP2 SWAP1 SWAP2 OR SWAP1 SSTORE JUMPDEST DUP1 PUSH1 0xC0 ADD MLOAD PUSH16 0xFFFFFFFFFFFFFFFFFFFFFFFFFFFFFFFF AND DUP4 PUSH1 0x20 ADD MLOAD PUSH16 0xFFFFFFFFFFFFFFFFFFFFFFFFFFFFFFFF AND EQ PUSH2 0x12B2 JUMPI PUSH1 0xC0 DUP2 ADD MLOAD PUSH1 0x4 DUP1 SLOAD PUSH32 0xFFFFFFFFFFFFFFFFFFFFFFFFFFFFFFFF00000000000000000000000000000000 AND PUSH16 0xFFFFFFFFFFFFFFFFFFFFFFFFFFFFFFFF SWAP1 SWAP3 AND SWAP2 SWAP1 SWAP2 OR SWAP1 SSTORE JUMPDEST DUP11 ISZERO PUSH2 0x132C JUMPI PUSH1 0x80 DUP2 ADD MLOAD PUSH1 0x1 SSTORE PUSH1 0xA0 DUP2 ADD MLOAD PUSH16 0xFFFFFFFFFFFFFFFFFFFFFFFFFFFFFFFF AND ISZERO PUSH2 0x1327 JUMPI PUSH1 0xA0 DUP2 ADD MLOAD PUSH1 0x3 DUP1 SLOAD PUSH32 0xFFFFFFFFFFFFFFFFFFFFFFFFFFFFFFFF00000000000000000000000000000000 DUP2 AND PUSH16 0xFFFFFFFFFFFFFFFFFFFFFFFFFFFFFFFF SWAP2 DUP3 AND SWAP1 SWAP4 ADD AND SWAP2 SWAP1 SWAP2 OR SWAP1 SSTORE JUMPDEST PUSH2 0x1391 JUMP JUMPDEST PUSH1 0x80 DUP2 ADD MLOAD PUSH1 0x2 SSTORE PUSH1 0xA0 DUP2 ADD MLOAD PUSH16 0xFFFFFFFFFFFFFFFFFFFFFFFFFFFFFFFF AND ISZERO PUSH2 0x1391 JUMPI PUSH1 0xA0 DUP2 ADD MLOAD PUSH1 0x3 DUP1 SLOAD PUSH16 0xFFFFFFFFFFFFFFFFFFFFFFFFFFFFFFFF DUP1 DUP3 AND PUSH17 0x100000000000000000000000000000000 SWAP3 DUP4 SWAP1 DIV DUP3 AND SWAP1 SWAP5 ADD AND MUL SWAP2 SWAP1 SWAP2 OR SWAP1 SSTORE JUMPDEST DUP2 ISZERO ISZERO DUP12 ISZERO ISZERO EQ PUSH2 0x13AA JUMPI PUSH1 0x20 DUP2 ADD MLOAD DUP2 MLOAD DUP12 SUB PUSH2 0x13B7 JUMP JUMPDEST DUP1 PUSH1 0x0 ADD MLOAD DUP11 SUB DUP2 PUSH1 0x20 ADD MLOAD JUMPDEST SWAP1 SWAP7 POP SWAP5 POP DUP11 ISZERO PUSH2 0x14C2 JUMPI PUSH1 0x0 DUP6 SLT ISZERO PUSH2 0x13F9 JUMPI PUSH2 0x13F9 PUSH32 0x0 DUP14 DUP8 PUSH1 0x0 SUB PUSH2 0x4593 JUMP JUMPDEST PUSH1 0x0 PUSH2 0x1403 PUSH2 0x4700 JUMP JUMPDEST SWAP1 POP CALLER PUSH1 0x1 PUSH1 0x1 PUSH1 0xA0 SHL SUB AND PUSH4 0xFA461E33 DUP9 DUP9 DUP13 DUP13 PUSH1 0x40 MLOAD DUP6 PUSH4 0xFFFFFFFF AND PUSH1 0xE0 SHL DUP2 MSTORE PUSH1 0x4 ADD DUP1 DUP6 DUP2 MSTORE PUSH1 0x20 ADD DUP5 DUP2 MSTORE PUSH1 0x20 ADD DUP1 PUSH1 0x20 ADD DUP3 DUP2 SUB DUP3 MSTORE DUP5 DUP5 DUP3 DUP2 DUP2 MSTORE PUSH1 0x20 ADD SWAP3 POP DUP1 DUP3 DUP5 CALLDATACOPY PUSH1 0x0 DUP2 DUP5 ADD MSTORE PUSH1 0x1F NOT PUSH1 0x1F DUP3 ADD AND SWAP1 POP DUP1 DUP4 ADD SWAP3 POP POP POP SWAP6 POP POP POP POP POP POP PUSH1 0x0 PUSH1 0x40 MLOAD DUP1 DUP4 SUB DUP2 PUSH1 0x0 DUP8 DUP1 EXTCODESIZE ISZERO DUP1 ISZERO PUSH2 0x1487 JUMPI PUSH1 0x0 DUP1 REVERT JUMPDEST POP GAS CALL ISZERO DUP1 ISZERO PUSH2 0x149B JUMPI RETURNDATASIZE PUSH1 0x0 DUP1 RETURNDATACOPY RETURNDATASIZE PUSH1 0x0 REVERT JUMPDEST POP POP POP POP PUSH2 0x14A7 PUSH2 0x4700 JUMP JUMPDEST PUSH2 0x14B1 DUP3 DUP10 PUSH2 0x4885 JUMP JUMPDEST GT ISZERO PUSH2 0x14BC JUMPI PUSH1 0x0 DUP1 REVERT JUMPDEST POP PUSH2 0x15BE JUMP JUMPDEST PUSH1 0x0 DUP7 SLT ISZERO PUSH2 0x14F9 JUMPI PUSH2 0x14F9 PUSH32 0x0 DUP14 DUP9 PUSH1 0x0 SUB PUSH2 0x4593 JUMP JUMPDEST PUSH1 0x0 PUSH2 0x1503 PUSH2 0x4895 JUMP JUMPDEST SWAP1 POP CALLER PUSH1 0x1 PUSH1 0x1 PUSH1 0xA0 SHL SUB AND PUSH4 0xFA461E33 DUP9 DUP9 DUP13 DUP13 PUSH1 0x40 MLOAD DUP6 PUSH4 0xFFFFFFFF AND PUSH1 0xE0 SHL DUP2 MSTORE PUSH1 0x4 ADD DUP1 DUP6 DUP2 MSTORE PUSH1 0x20 ADD DUP5 DUP2 MSTORE PUSH1 0x20 ADD DUP1 PUSH1 0x20 ADD DUP3 DUP2 SUB DUP3 MSTORE DUP5 DUP5 DUP3 DUP2 DUP2 MSTORE PUSH1 0x20 ADD SWAP3 POP DUP1 DUP3 DUP5 CALLDATACOPY PUSH1 0x0 DUP2 DUP5 ADD MSTORE PUSH1 0x1F NOT PUSH1 0x1F DUP3 ADD AND SWAP1 POP DUP1 DUP4 ADD SWAP3 POP POP POP SWAP6 POP POP POP POP POP POP PUSH1 0x0 PUSH1 0x40 MLOAD DUP1 DUP4 SUB DUP2 PUSH1 0x0 DUP8 DUP1 EXTCODESIZE ISZERO DUP1 ISZERO PUSH2 0x1587 JUMPI PUSH1 0x0 DUP1 REVERT JUMPDEST POP GAS CALL ISZERO DUP1 ISZERO PUSH2 0x159B JUMPI RETURNDATASIZE PUSH1 0x0 DUP1 RETURNDATACOPY RETURNDATASIZE PUSH1 0x0 REVERT JUMPDEST POP POP POP POP PUSH2 0x15A7 PUSH2 0x4895 JUMP JUMPDEST PUSH2 0x15B1 DUP3 DUP9 PUSH2 0x4885 JUMP JUMPDEST GT ISZERO PUSH2 0x15BC JUMPI PUSH1 0x0 DUP1 REVERT JUMPDEST POP JUMPDEST PUSH1 0x40 DUP1 DUP3 ADD MLOAD PUSH1 0xC0 DUP4 ADD MLOAD PUSH1 0x60 DUP1 DUP6 ADD MLOAD DUP5 MLOAD DUP12 DUP2 MSTORE PUSH1 0x20 DUP2 ADD DUP12 SWAP1 MSTORE PUSH1 0x1 PUSH1 0x1 PUSH1 0xA0 SHL SUB SWAP5 DUP6 AND DUP2 DUP8 ADD MSTORE PUSH16 0xFFFFFFFFFFFFFFFFFFFFFFFFFFFFFFFF SWAP1 SWAP4 AND SWAP2 DUP4 ADD SWAP2 SWAP1 SWAP2 MSTORE PUSH1 0x2 SIGNEXTEND PUSH1 0x80 DUP3 ADD MSTORE SWAP2 MLOAD SWAP1 DUP15 AND SWAP2 CALLER SWAP2 PUSH32 0xC42079F94A6350D7E6235F29174924F928CC2AC818EB64FED8004E115FBCCA67 SWAP2 DUP2 SWAP1 SUB PUSH1 0xA0 ADD SWAP1 LOG3 POP POP PUSH1 0x0 DUP1 SLOAD PUSH32 0xFF00FFFFFFFFFFFFFFFFFFFFFFFFFFFFFFFFFFFFFFFFFFFFFFFFFFFFFFFFFFFF AND PUSH31 0x1000000000000000000000000000000000000000000000000000000000000 OR SWAP1 SSTORE POP SWAP2 SWAP9 SWAP1 SWAP8 POP SWAP6 POP POP POP POP POP POP JUMP JUMPDEST PUSH1 0x4 SLOAD PUSH16 0xFFFFFFFFFFFFFFFFFFFFFFFFFFFFFFFF AND DUP2 JUMP JUMPDEST PUSH1 0x3 SLOAD PUSH16 0xFFFFFFFFFFFFFFFFFFFFFFFFFFFFFFFF DUP1 DUP3 AND SWAP2 PUSH17 0x100000000000000000000000000000000 SWAP1 DIV AND DUP3 JUMP JUMPDEST PUSH1 0x8 DUP2 PUSH2 0xFFFF DUP2 LT PUSH2 0x16F2 JUMPI PUSH1 0x0 DUP1 REVERT JUMPDEST ADD SLOAD PUSH4 0xFFFFFFFF DUP2 AND SWAP2 POP PUSH5 0x100000000 DUP2 DIV PUSH1 0x6 SIGNEXTEND SWAP1 PUSH12 0x10000000000000000000000 DUP2 DIV PUSH1 0x1 PUSH1 0x1 PUSH1 0xA0 SHL SUB AND SWAP1 PUSH32 0x100000000000000000000000000000000000000000000000000000000000000 SWAP1 DIV PUSH1 0xFF AND DUP5 JUMP JUMPDEST PUSH1 0x0 SLOAD PUSH31 0x1000000000000000000000000000000000000000000000000000000000000 SWAP1 DIV PUSH1 0xFF AND PUSH2 0x177C JUMPI PUSH1 0x0 DUP1 REVERT JUMPDEST PUSH1 0x0 DUP1 SLOAD PUSH32 0xFF00FFFFFFFFFFFFFFFFFFFFFFFFFFFFFFFFFFFFFFFFFFFFFFFFFFFFFFFFFFFF AND SWAP1 SSTORE PUSH2 0x17AC PUSH2 0x34C4 JUMP JUMPDEST PUSH1 0x0 DUP1 SLOAD PUSH28 0x1000000000000000000000000000000000000000000000000000000 SWAP1 DIV PUSH2 0xFFFF AND SWAP1 PUSH2 0x17E0 PUSH1 0x8 DUP4 DUP6 PUSH2 0x4979 JUMP JUMPDEST PUSH1 0x0 DUP1 SLOAD PUSH2 0xFFFF DUP1 DUP5 AND PUSH28 0x1000000000000000000000000000000000000000000000000000000 DUP2 MUL PUSH32 0xFFFFFF0000FFFFFFFFFFFFFFFFFFFFFFFFFFFFFFFFFFFFFFFFFFFFFFFFFFFFFF SWAP1 SWAP4 AND SWAP3 SWAP1 SWAP3 OR SWAP1 SWAP3 SSTORE SWAP2 SWAP3 POP DUP4 AND EQ PUSH2 0x187F JUMPI PUSH1 0x40 DUP1 MLOAD PUSH2 0xFFFF DUP1 DUP6 AND DUP3 MSTORE DUP4 AND PUSH1 0x20 DUP3 ADD MSTORE DUP2 MLOAD PUSH32 0xAC49E518F90A358F652E4400164F05A5D8F7E35E7747279BC3A93DBF584E125A SWAP3 SWAP2 DUP2 SWAP1 SUB SWAP1 SWAP2 ADD SWAP1 LOG1 JUMPDEST POP POP PUSH1 0x0 DUP1 SLOAD PUSH32 0xFF00FFFFFFFFFFFFFFFFFFFFFFFFFFFFFFFFFFFFFFFFFFFFFFFFFFFFFFFFFFFF AND PUSH31 0x1000000000000000000000000000000000000000000000000000000000000 OR SWAP1 SSTORE POP JUMP JUMPDEST PUSH1 0x0 SLOAD PUSH1 0x1 PUSH1 0x1 PUSH1 0xA0 SHL SUB DUP2 AND SWAP1 PUSH21 0x10000000000000000000000000000000000000000 DUP2 DIV PUSH1 0x2 SIGNEXTEND SWAP1 PUSH2 0xFFFF PUSH24 0x10000000000000000000000000000000000000000000000 DUP3 DIV DUP2 AND SWAP2 PUSH26 0x100000000000000000000000000000000000000000000000000 DUP2 DIV DUP3 AND SWAP2 PUSH28 0x1000000000000000000000000000000000000000000000000000000 DUP3 DIV AND SWAP1 PUSH1 0xFF PUSH30 0x10000000000000000000000000000000000000000000000000000000000 DUP3 DIV DUP2 AND SWAP2 PUSH31 0x1000000000000000000000000000000000000000000000000000000000000 SWAP1 DIV AND DUP8 JUMP JUMPDEST PUSH1 0x0 DUP1 SLOAD DUP2 SWAP1 PUSH31 0x1000000000000000000000000000000000000000000000000000000000000 SWAP1 DIV PUSH1 0xFF AND PUSH2 0x19D9 JUMPI PUSH1 0x0 DUP1 REVERT JUMPDEST PUSH1 0x0 DUP1 SLOAD PUSH32 0xFF00FFFFFFFFFFFFFFFFFFFFFFFFFFFFFFFFFFFFFFFFFFFFFFFFFFFFFFFFFFFF AND SWAP1 SSTORE PUSH16 0xFFFFFFFFFFFFFFFFFFFFFFFFFFFFFFFF DUP6 AND PUSH2 0x1A1D JUMPI PUSH1 0x0 DUP1 REVERT JUMPDEST PUSH1 0x0 DUP1 PUSH2 0x1A74 PUSH1 0x40 MLOAD DUP1 PUSH1 0x80 ADD PUSH1 0x40 MSTORE DUP1 DUP13 PUSH1 0x1 PUSH1 0x1 PUSH1 0xA0 SHL SUB AND DUP2 MSTORE PUSH1 0x20 ADD DUP12 PUSH1 0x2 SIGNEXTEND DUP2 MSTORE PUSH1 0x20 ADD DUP11 PUSH1 0x2 SIGNEXTEND DUP2 MSTORE PUSH1 0x20 ADD PUSH2 0x1A6A DUP11 PUSH16 0xFFFFFFFFFFFFFFFFFFFFFFFFFFFFFFFF AND PUSH2 0x4A0B JUMP JUMPDEST PUSH1 0xF SIGNEXTEND SWAP1 MSTORE PUSH2 0x4A1C JUMP JUMPDEST SWAP3 POP SWAP3 POP POP DUP2 SWAP4 POP DUP1 SWAP3 POP PUSH1 0x0 DUP1 PUSH1 0x0 DUP7 GT ISZERO PUSH2 0x1A96 JUMPI PUSH2 0x1A93 PUSH2 0x4700 JUMP JUMPDEST SWAP2 POP JUMPDEST DUP5 ISZERO PUSH2 0x1AA7 JUMPI PUSH2 0x1AA4 PUSH2 0x4895 JUMP JUMPDEST SWAP1 POP JUMPDEST CALLER PUSH1 0x1 PUSH1 0x1 PUSH1 0xA0 SHL SUB AND PUSH4 0xD3487997 DUP8 DUP8 DUP12 DUP12 PUSH1 0x40 MLOAD DUP6 PUSH4 0xFFFFFFFF AND PUSH1 0xE0 SHL DUP2 MSTORE PUSH1 0x4 ADD DUP1 DUP6 DUP2 MSTORE PUSH1 0x20 ADD DUP5 DUP2 MSTORE PUSH1 0x20 ADD DUP1 PUSH1 0x20 ADD DUP3 DUP2 SUB DUP3 MSTORE DUP5 DUP5 DUP3 DUP2 DUP2 MSTORE PUSH1 0x20 ADD SWAP3 POP DUP1 DUP3 DUP5 CALLDATACOPY PUSH1 0x0 DUP2 DUP5 ADD MSTORE PUSH1 0x1F NOT PUSH1 0x1F DUP3 ADD AND SWAP1 POP DUP1 DUP4 ADD SWAP3 POP POP POP SWAP6 POP POP POP POP POP POP PUSH1 0x0 PUSH1 0x40 MLOAD DUP1 DUP4 SUB DUP2 PUSH1 0x0 DUP8 DUP1 EXTCODESIZE ISZERO DUP1 ISZERO PUSH2 0x1B29 JUMPI PUSH1 0x0 DUP1 REVERT JUMPDEST POP GAS CALL ISZERO DUP1 ISZERO PUSH2 0x1B3D JUMPI RETURNDATASIZE PUSH1 0x0 DUP1 RETURNDATACOPY RETURNDATASIZE PUSH1 0x0 REVERT JUMPDEST POP POP POP POP PUSH1 0x0 DUP7 GT ISZERO PUSH2 0x1B67 JUMPI PUSH2 0x1B52 PUSH2 0x4700 JUMP JUMPDEST PUSH2 0x1B5C DUP4 DUP9 PUSH2 0x4885 JUMP JUMPDEST GT ISZERO PUSH2 0x1B67 JUMPI PUSH1 0x0 DUP1 REVERT JUMPDEST DUP5 ISZERO PUSH2 0x1B8A JUMPI PUSH2 0x1B75 PUSH2 0x4895 JUMP JUMPDEST PUSH2 0x1B7F DUP3 DUP8 PUSH2 0x4885 JUMP JUMPDEST GT ISZERO PUSH2 0x1B8A JUMPI PUSH1 0x0 DUP1 REVERT JUMPDEST DUP10 PUSH1 0x2 SIGNEXTEND DUP12 PUSH1 0x2 SIGNEXTEND DUP14 PUSH1 0x1 PUSH1 0x1 PUSH1 0xA0 SHL SUB AND PUSH32 0x7A53080BA414158BE7EC69B987B5FB7D07DEE101FE85488F0853AE16239D0BDE CALLER DUP14 DUP12 DUP12 PUSH1 0x40 MLOAD DUP1 DUP6 PUSH1 0x1 PUSH1 0x1 PUSH1 0xA0 SHL SUB AND DUP2 MSTORE PUSH1 0x20 ADD DUP5 PUSH16 0xFFFFFFFFFFFFFFFFFFFFFFFFFFFFFFFF AND DUP2 MSTORE PUSH1 0x20 ADD DUP4 DUP2 MSTORE PUSH1 0x20 ADD DUP3 DUP2 MSTORE PUSH1 0x20 ADD SWAP5 POP POP POP POP POP PUSH1 0x40 MLOAD DUP1 SWAP2 SUB SWAP1 LOG4 POP POP PUSH1 0x0 DUP1 SLOAD PUSH32 0xFF00FFFFFFFFFFFFFFFFFFFFFFFFFFFFFFFFFFFFFFFFFFFFFFFFFFFFFFFFFFFF AND PUSH31 0x1000000000000000000000000000000000000000000000000000000000000 OR SWAP1 SSTORE POP SWAP2 SWAP9 SWAP1 SWAP8 POP SWAP6 POP POP POP POP POP POP JUMP JUMPDEST PUSH1 0x2 SLOAD DUP2 JUMP JUMPDEST PUSH1 0x0 SLOAD PUSH31 0x1000000000000000000000000000000000000000000000000000000000000 SWAP1 DIV PUSH1 0xFF AND PUSH2 0x1C97 JUMPI PUSH1 0x0 DUP1 REVERT JUMPDEST PUSH1 0x0 DUP1 SLOAD PUSH32 0xFF00FFFFFFFFFFFFFFFFFFFFFFFFFFFFFFFFFFFFFFFFFFFFFFFFFFFFFFFFFFFF AND SWAP1 SSTORE PUSH2 0x1CC7 PUSH2 0x34C4 JUMP JUMPDEST PUSH1 0x4 SLOAD PUSH16 0xFFFFFFFFFFFFFFFFFFFFFFFFFFFFFFFF AND DUP1 PUSH2 0x1CE6 JUMPI PUSH1 0x0 DUP1 REVERT JUMPDEST PUSH1 0x0 PUSH2 0x1D1B DUP7 PUSH32 0x0 PUSH3 0xFFFFFF AND PUSH3 0xF4240 PUSH2 0x4D6C JUMP JUMPDEST SWAP1 POP PUSH1 0x0 PUSH2 0x1D52 DUP7 PUSH32 0x0 PUSH3 0xFFFFFF AND PUSH3 0xF4240 PUSH2 0x4D6C JUMP JUMPDEST SWAP1 POP PUSH1 0x0 PUSH2 0x1D5E PUSH2 0x4700 JUMP JUMPDEST SWAP1 POP PUSH1 0x0 PUSH2 0x1D6A PUSH2 0x4895 JUMP JUMPDEST SWAP1 POP DUP9 ISZERO PUSH2 0x1D9D JUMPI PUSH2 0x1D9D PUSH32 0x0 DUP12 DUP12 PUSH2 0x4593 JUMP JUMPDEST DUP8 ISZERO PUSH2 0x1DCE JUMPI PUSH2 0x1DCE PUSH32 0x0 DUP12 DUP11 PUSH2 0x4593 JUMP JUMPDEST CALLER PUSH1 0x1 PUSH1 0x1 PUSH1 0xA0 SHL SUB AND PUSH4 0xE9CBAFB0 DUP6 DUP6 DUP11 DUP11 PUSH1 0x40 MLOAD DUP6 PUSH4 0xFFFFFFFF AND PUSH1 0xE0 SHL DUP2 MSTORE PUSH1 0x4 ADD DUP1 DUP6 DUP2 MSTORE PUSH1 0x20 ADD DUP5 DUP2 MSTORE PUSH1 0x20 ADD DUP1 PUSH1 0x20 ADD DUP3 DUP2 SUB DUP3 MSTORE DUP5 DUP5 DUP3 DUP2 DUP2 MSTORE PUSH1 0x20 ADD SWAP3 POP DUP1 DUP3 DUP5 CALLDATACOPY PUSH1 0x0 DUP2 DUP5 ADD MSTORE PUSH1 0x1F NOT PUSH1 0x1F DUP3 ADD AND SWAP1 POP DUP1 DUP4 ADD SWAP3 POP POP POP SWAP6 POP POP POP POP POP POP PUSH1 0x0 PUSH1 0x40 MLOAD DUP1 DUP4 SUB DUP2 PUSH1 0x0 DUP8 DUP1 EXTCODESIZE ISZERO DUP1 ISZERO PUSH2 0x1E50 JUMPI PUSH1 0x0 DUP1 REVERT JUMPDEST POP GAS CALL ISZERO DUP1 ISZERO PUSH2 0x1E64 JUMPI RETURNDATASIZE PUSH1 0x0 DUP1 RETURNDATACOPY RETURNDATASIZE PUSH1 0x0 REVERT JUMPDEST POP POP POP POP PUSH1 0x0 PUSH2 0x1E72 PUSH2 0x4700 JUMP JUMPDEST SWAP1 POP PUSH1 0x0 PUSH2 0x1E7E PUSH2 0x4895 JUMP JUMPDEST SWAP1 POP DUP2 PUSH2 0x1E8B DUP6 DUP9 PUSH2 0x4885 JUMP JUMPDEST GT ISZERO PUSH2 0x1E96 JUMPI PUSH1 0x0 DUP1 REVERT JUMPDEST DUP1 PUSH2 0x1EA1 DUP5 DUP8 PUSH2 0x4885 JUMP JUMPDEST GT ISZERO PUSH2 0x1EAC JUMPI PUSH1 0x0 DUP1 REVERT JUMPDEST DUP4 DUP3 SUB DUP4 DUP3 SUB DUP2 ISZERO PUSH2 0x1F95 JUMPI PUSH1 0x0 DUP1 SLOAD PUSH30 0x10000000000000000000000000000000000000000000000000000000000 SWAP1 DIV PUSH1 0xF AND SWAP1 DUP2 ISZERO PUSH2 0x1EF9 JUMPI DUP2 PUSH1 0xFF AND DUP5 DUP2 PUSH2 0x1EF3 JUMPI INVALID JUMPDEST DIV PUSH2 0x1EFC JUMP JUMPDEST PUSH1 0x0 JUMPDEST SWAP1 POP PUSH16 0xFFFFFFFFFFFFFFFFFFFFFFFFFFFFFFFF DUP2 AND ISZERO PUSH2 0x1F59 JUMPI PUSH1 0x3 DUP1 SLOAD PUSH16 0xFFFFFFFFFFFFFFFFFFFFFFFFFFFFFFFF DUP1 DUP3 AND DUP5 ADD AND PUSH32 0xFFFFFFFFFFFFFFFFFFFFFFFFFFFFFFFF00000000000000000000000000000000 SWAP1 SWAP2 AND OR SWAP1 SSTORE JUMPDEST PUSH2 0x1F89 DUP2 DUP6 SUB PUSH17 0x100000000000000000000000000000000 DUP14 PUSH16 0xFFFFFFFFFFFFFFFFFFFFFFFFFFFFFFFF AND PUSH2 0x3C04 JUMP JUMPDEST PUSH1 0x1 DUP1 SLOAD SWAP1 SWAP2 ADD SWAP1 SSTORE POP POP JUMPDEST DUP1 ISZERO PUSH2 0x206F JUMPI PUSH1 0x0 DUP1 SLOAD PUSH30 0x10000000000000000000000000000000000000000000000000000000000 SWAP1 DIV PUSH1 0x4 SHR PUSH1 0xF AND SWAP1 DUP2 ISZERO PUSH2 0x1FDF JUMPI DUP2 PUSH1 0xFF AND DUP4 DUP2 PUSH2 0x1FD9 JUMPI INVALID JUMPDEST DIV PUSH2 0x1FE2 JUMP JUMPDEST PUSH1 0x0 JUMPDEST SWAP1 POP PUSH16 0xFFFFFFFFFFFFFFFFFFFFFFFFFFFFFFFF DUP2 AND ISZERO PUSH2 0x2033 JUMPI PUSH1 0x3 DUP1 SLOAD PUSH16 0xFFFFFFFFFFFFFFFFFFFFFFFFFFFFFFFF PUSH17 0x100000000000000000000000000000000 DUP1 DUP4 DIV DUP3 AND DUP6 ADD DUP3 AND MUL SWAP2 AND OR SWAP1 SSTORE JUMPDEST PUSH2 0x2063 DUP2 DUP5 SUB PUSH17 0x100000000000000000000000000000000 DUP14 PUSH16 0xFFFFFFFFFFFFFFFFFFFFFFFFFFFFFFFF AND PUSH2 0x3C04 JUMP JUMPDEST PUSH1 0x2 DUP1 SLOAD SWAP1 SWAP2 ADD SWAP1 SSTORE POP POP JUMPDEST DUP14 PUSH1 0x1 PUSH1 0x1 PUSH1 0xA0 SHL SUB AND CALLER PUSH1 0x1 PUSH1 0x1 PUSH1 0xA0 SHL SUB AND PUSH32 0xBDBDB71D7860376BA52B25A5028BEEA23581364A40522F6BCFB86BB1F2DCA633 DUP16 DUP16 DUP7 DUP7 PUSH1 0x40 MLOAD DUP1 DUP6 DUP2 MSTORE PUSH1 0x20 ADD DUP5 DUP2 MSTORE PUSH1 0x20 ADD DUP4 DUP2 MSTORE PUSH1 0x20 ADD DUP3 DUP2 MSTORE PUSH1 0x20 ADD SWAP5 POP POP POP POP POP PUSH1 0x40 MLOAD DUP1 SWAP2 SUB SWAP1 LOG3 POP POP PUSH1 0x0 DUP1 SLOAD PUSH32 0xFF00FFFFFFFFFFFFFFFFFFFFFFFFFFFFFFFFFFFFFFFFFFFFFFFFFFFFFFFFFFFF AND PUSH31 0x1000000000000000000000000000000000000000000000000000000000000 OR SWAP1 SSTORE POP POP POP POP POP POP POP POP POP POP POP POP JUMP JUMPDEST PUSH1 0x0 DUP1 SLOAD DUP2 SWAP1 PUSH31 0x1000000000000000000000000000000000000000000000000000000000000 SWAP1 DIV PUSH1 0xFF AND PUSH2 0x215F JUMPI PUSH1 0x0 DUP1 REVERT JUMPDEST PUSH1 0x0 DUP1 SLOAD PUSH32 0xFF00FFFFFFFFFFFFFFFFFFFFFFFFFFFFFFFFFFFFFFFFFFFFFFFFFFFFFFFFFFFF AND DUP2 SSTORE PUSH2 0x2194 PUSH1 0x7 CALLER DUP10 DUP10 PUSH2 0x4DC4 JUMP JUMPDEST PUSH1 0x3 DUP2 ADD SLOAD SWAP1 SWAP2 POP PUSH16 0xFFFFFFFFFFFFFFFFFFFFFFFFFFFFFFFF SWAP1 DUP2 AND SWAP1 DUP7 AND GT PUSH2 0x21BE JUMPI DUP5 PUSH2 0x21D6 JUMP JUMPDEST PUSH1 0x3 DUP2 ADD SLOAD PUSH16 0xFFFFFFFFFFFFFFFFFFFFFFFFFFFFFFFF AND JUMPDEST PUSH1 0x3 DUP3 ADD SLOAD SWAP1 SWAP4 POP PUSH16 0xFFFFFFFFFFFFFFFFFFFFFFFFFFFFFFFF PUSH17 0x100000000000000000000000000000000 SWAP1 SWAP2 DIV DUP2 AND SWAP1 DUP6 AND GT PUSH2 0x2214 JUMPI DUP4 PUSH2 0x2240 JUMP JUMPDEST PUSH1 0x3 DUP2 ADD SLOAD PUSH17 0x100000000000000000000000000000000 SWAP1 DIV PUSH16 0xFFFFFFFFFFFFFFFFFFFFFFFFFFFFFFFF AND JUMPDEST SWAP2 POP PUSH16 0xFFFFFFFFFFFFFFFFFFFFFFFFFFFFFFFF DUP4 AND ISZERO PUSH2 0x22CF JUMPI PUSH1 0x3 DUP2 ADD DUP1 SLOAD PUSH32 0xFFFFFFFFFFFFFFFFFFFFFFFFFFFFFFFF00000000000000000000000000000000 DUP2 AND PUSH16 0xFFFFFFFFFFFFFFFFFFFFFFFFFFFFFFFF SWAP2 DUP3 AND DUP7 SWAP1 SUB DUP3 AND OR SWAP1 SWAP2 SSTORE PUSH2 0x22CF SWAP1 PUSH32 0x0 SWAP1 DUP11 SWAP1 DUP7 AND PUSH2 0x4593 JUMP JUMPDEST PUSH16 0xFFFFFFFFFFFFFFFFFFFFFFFFFFFFFFFF DUP3 AND ISZERO PUSH2 0x2354 JUMPI PUSH1 0x3 DUP2 ADD DUP1 SLOAD PUSH16 0xFFFFFFFFFFFFFFFFFFFFFFFFFFFFFFFF PUSH17 0x100000000000000000000000000000000 DUP1 DUP4 DIV DUP3 AND DUP7 SWAP1 SUB DUP3 AND MUL SWAP2 DUP2 AND SWAP2 SWAP1 SWAP2 OR SWAP1 SWAP2 SSTORE PUSH2 0x2354 SWAP1 PUSH32 0x0 SWAP1 DUP11 SWAP1 DUP6 AND PUSH2 0x4593 JUMP JUMPDEST PUSH1 0x40 DUP1 MLOAD PUSH1 0x1 PUSH1 0x1 PUSH1 0xA0 SHL SUB DUP11 AND DUP2 MSTORE PUSH16 0xFFFFFFFFFFFFFFFFFFFFFFFFFFFFFFFF DUP1 DUP7 AND PUSH1 0x20 DUP4 ADD MSTORE DUP5 AND DUP2 DUP4 ADD MSTORE SWAP1 MLOAD PUSH1 0x2 DUP9 DUP2 SIGNEXTEND SWAP3 SWAP1 DUP11 SWAP1 SIGNEXTEND SWAP2 CALLER SWAP2 PUSH32 0x70935338E69775456A85DDEF226C395FB668B63FA0115F5F20610B388E6CA9C0 SWAP2 SWAP1 DUP2 SWAP1 SUB PUSH1 0x60 ADD SWAP1 LOG4 POP PUSH1 0x0 DUP1 SLOAD PUSH32 0xFF00FFFFFFFFFFFFFFFFFFFFFFFFFFFFFFFFFFFFFFFFFFFFFFFFFFFFFFFFFFFF AND PUSH31 0x1000000000000000000000000000000000000000000000000000000000000 OR SWAP1 SSTORE SWAP1 SWAP7 SWAP1 SWAP6 POP SWAP4 POP POP POP POP JUMP JUMPDEST PUSH1 0x7 PUSH1 0x20 MSTORE PUSH1 0x0 SWAP1 DUP2 MSTORE PUSH1 0x40 SWAP1 KECCAK256 DUP1 SLOAD PUSH1 0x1 DUP3 ADD SLOAD PUSH1 0x2 DUP4 ADD SLOAD PUSH1 0x3 SWAP1 SWAP4 ADD SLOAD PUSH16 0xFFFFFFFFFFFFFFFFFFFFFFFFFFFFFFFF SWAP3 DUP4 AND SWAP4 SWAP2 SWAP3 DUP2 DUP2 AND SWAP2 PUSH17 0x100000000000000000000000000000000 SWAP1 DIV AND DUP6 JUMP JUMPDEST PUSH1 0x6 PUSH1 0x20 MSTORE PUSH1 0x0 SWAP1 DUP2 MSTORE PUSH1 0x40 SWAP1 KECCAK256 SLOAD DUP2 JUMP JUMPDEST PUSH32 0x0 DUP2 JUMP JUMPDEST PUSH1 0x0 SLOAD PUSH31 0x1000000000000000000000000000000000000000000000000000000000000 SWAP1 DIV PUSH1 0xFF AND PUSH2 0x24CD JUMPI PUSH1 0x0 DUP1 REVERT JUMPDEST PUSH1 0x0 DUP1 SLOAD PUSH32 0xFF00FFFFFFFFFFFFFFFFFFFFFFFFFFFFFFFFFFFFFFFFFFFFFFFFFFFFFFFFFFFF AND SWAP1 SSTORE PUSH1 0x40 DUP1 MLOAD PUSH32 0x8DA5CB5B00000000000000000000000000000000000000000000000000000000 DUP2 MSTORE SWAP1 MLOAD PUSH1 0x1 PUSH1 0x1 PUSH1 0xA0 SHL SUB PUSH32 0x0 AND SWAP2 PUSH4 0x8DA5CB5B SWAP2 PUSH1 0x4 DUP1 DUP4 ADD SWAP3 PUSH1 0x20 SWAP3 SWAP2 SWAP1 DUP3 SWAP1 SUB ADD DUP2 DUP7 DUP1 EXTCODESIZE ISZERO DUP1 ISZERO PUSH2 0x256E JUMPI PUSH1 0x0 DUP1 REVERT JUMPDEST POP GAS STATICCALL ISZERO DUP1 ISZERO PUSH2 0x2582 JUMPI RETURNDATASIZE PUSH1 0x0 DUP1 RETURNDATACOPY RETURNDATASIZE PUSH1 0x0 REVERT JUMPDEST POP POP POP POP PUSH1 0x40 MLOAD RETURNDATASIZE PUSH1 0x20 DUP2 LT ISZERO PUSH2 0x2598 JUMPI PUSH1 0x0 DUP1 REVERT JUMPDEST POP MLOAD PUSH1 0x1 PUSH1 0x1 PUSH1 0xA0 SHL SUB AND CALLER EQ PUSH2 0x25AE JUMPI PUSH1 0x0 DUP1 REVERT JUMPDEST PUSH1 0xFF DUP3 AND ISZERO DUP1 PUSH2 0x25D1 JUMPI POP PUSH1 0x4 DUP3 PUSH1 0xFF AND LT ISZERO DUP1 ISZERO PUSH2 0x25D1 JUMPI POP PUSH1 0xA DUP3 PUSH1 0xFF AND GT ISZERO JUMPDEST DUP1 ISZERO PUSH2 0x25FB JUMPI POP PUSH1 0xFF DUP2 AND ISZERO DUP1 PUSH2 0x25FB JUMPI POP PUSH1 0x4 DUP2 PUSH1 0xFF AND LT ISZERO DUP1 ISZERO PUSH2 0x25FB JUMPI POP PUSH1 0xA DUP2 PUSH1 0xFF AND GT ISZERO JUMPDEST PUSH2 0x2604 JUMPI PUSH1 0x0 DUP1 REVERT JUMPDEST PUSH1 0x0 DUP1 SLOAD PUSH2 0xFF0 PUSH1 0x4 DUP5 SWAP1 SHL AND DUP5 ADD PUSH1 0xFF SWAP1 DUP2 AND PUSH30 0x10000000000000000000000000000000000000000000000000000000000 SWAP1 DUP2 MUL PUSH32 0xFFFF00FFFFFFFFFFFFFFFFFFFFFFFFFFFFFFFFFFFFFFFFFFFFFFFFFFFFFFFFFF DUP5 AND OR SWAP1 SWAP4 SSTORE SWAP2 SWAP1 DIV AND PUSH32 0x973D8D92BB299F4AF6CE49B52A8ADB85AE46B9F214C4C4FC06AC77401237B133 PUSH1 0x10 DUP3 PUSH1 0x40 DUP1 MLOAD PUSH1 0xFF SWAP4 SWAP1 SWAP3 MOD DUP4 AND DUP3 MSTORE PUSH1 0xF PUSH1 0x4 DUP7 SWAP1 SHR AND PUSH1 0x20 DUP4 ADD MSTORE DUP7 DUP4 AND DUP3 DUP3 ADD MSTORE SWAP2 DUP6 AND PUSH1 0x60 DUP3 ADD MSTORE SWAP1 MLOAD SWAP1 DUP2 SWAP1 SUB PUSH1 0x80 ADD SWAP1 LOG1 POP POP PUSH1 0x0 DUP1 SLOAD PUSH32 0xFF00FFFFFFFFFFFFFFFFFFFFFFFFFFFFFFFFFFFFFFFFFFFFFFFFFFFFFFFFFFFF AND PUSH31 0x1000000000000000000000000000000000000000000000000000000000000 OR SWAP1 SSTORE POP JUMP JUMPDEST PUSH1 0x0 DUP1 SLOAD DUP2 SWAP1 PUSH31 0x1000000000000000000000000000000000000000000000000000000000000 SWAP1 DIV PUSH1 0xFF AND PUSH2 0x2740 JUMPI PUSH1 0x0 DUP1 REVERT JUMPDEST PUSH1 0x0 DUP1 SLOAD PUSH32 0xFF00FFFFFFFFFFFFFFFFFFFFFFFFFFFFFFFFFFFFFFFFFFFFFFFFFFFFFFFFFFFF AND SWAP1 SSTORE PUSH1 0x40 DUP1 MLOAD PUSH32 0x8DA5CB5B00000000000000000000000000000000000000000000000000000000 DUP2 MSTORE SWAP1 MLOAD PUSH1 0x1 PUSH1 0x1 PUSH1 0xA0 SHL SUB PUSH32 0x0 AND SWAP2 PUSH4 0x8DA5CB5B SWAP2 PUSH1 0x4 DUP1 DUP4 ADD SWAP3 PUSH1 0x20 SWAP3 SWAP2 SWAP1 DUP3 SWAP1 SUB ADD DUP2 DUP7 DUP1 EXTCODESIZE ISZERO DUP1 ISZERO PUSH2 0x27E1 JUMPI PUSH1 0x0 DUP1 REVERT JUMPDEST POP GAS STATICCALL ISZERO DUP1 ISZERO PUSH2 0x27F5 JUMPI RETURNDATASIZE PUSH1 0x0 DUP1 RETURNDATACOPY RETURNDATASIZE PUSH1 0x0 REVERT JUMPDEST POP POP POP POP PUSH1 0x40 MLOAD RETURNDATASIZE PUSH1 0x20 DUP2 LT ISZERO PUSH2 0x280B JUMPI PUSH1 0x0 DUP1 REVERT JUMPDEST POP MLOAD PUSH1 0x1 PUSH1 0x1 PUSH1 0xA0 SHL SUB AND CALLER EQ PUSH2 0x2821 JUMPI PUSH1 0x0 DUP1 REVERT JUMPDEST PUSH1 0x3 SLOAD PUSH16 0xFFFFFFFFFFFFFFFFFFFFFFFFFFFFFFFF SWAP1 DUP2 AND SWAP1 DUP6 AND GT PUSH2 0x2846 JUMPI DUP4 PUSH2 0x285C JUMP JUMPDEST PUSH1 0x3 SLOAD PUSH16 0xFFFFFFFFFFFFFFFFFFFFFFFFFFFFFFFF AND JUMPDEST PUSH1 0x3 SLOAD SWAP1 SWAP3 POP PUSH16 0xFFFFFFFFFFFFFFFFFFFFFFFFFFFFFFFF PUSH17 0x100000000000000000000000000000000 SWAP1 SWAP2 DIV DUP2 AND SWAP1 DUP5 AND GT PUSH2 0x2898 JUMPI DUP3 PUSH2 0x28C2 JUMP JUMPDEST PUSH1 0x3 SLOAD PUSH17 0x100000000000000000000000000000000 SWAP1 DIV PUSH16 0xFFFFFFFFFFFFFFFFFFFFFFFFFFFFFFFF AND JUMPDEST SWAP1 POP PUSH16 0xFFFFFFFFFFFFFFFFFFFFFFFFFFFFFFFF DUP3 AND ISZERO PUSH2 0x2994 JUMPI PUSH1 0x3 SLOAD PUSH16 0xFFFFFFFFFFFFFFFFFFFFFFFFFFFFFFFF DUP4 DUP2 AND SWAP2 AND EQ ISZERO PUSH2 0x2921 JUMPI PUSH32 0xFFFFFFFFFFFFFFFFFFFFFFFFFFFFFFFFFFFFFFFFFFFFFFFFFFFFFFFFFFFFFFFF SWAP1 SWAP2 ADD SWAP1 JUMPDEST PUSH1 0x3 DUP1 SLOAD PUSH32 0xFFFFFFFFFFFFFFFFFFFFFFFFFFFFFFFF00000000000000000000000000000000 DUP2 AND PUSH16 0xFFFFFFFFFFFFFFFFFFFFFFFFFFFFFFFF SWAP2 DUP3 AND DUP6 SWAP1 SUB DUP3 AND OR SWAP1 SWAP2 SSTORE PUSH2 0x2994 SWAP1 PUSH32 0x0 SWAP1 DUP8 SWAP1 DUP6 AND PUSH2 0x4593 JUMP JUMPDEST PUSH16 0xFFFFFFFFFFFFFFFFFFFFFFFFFFFFFFFF DUP2 AND ISZERO PUSH2 0x2A6D JUMPI PUSH1 0x3 SLOAD PUSH16 0xFFFFFFFFFFFFFFFFFFFFFFFFFFFFFFFF DUP3 DUP2 AND PUSH17 0x100000000000000000000000000000000 SWAP1 SWAP3 DIV AND EQ ISZERO PUSH2 0x2A02 JUMPI PUSH32 0xFFFFFFFFFFFFFFFFFFFFFFFFFFFFFFFFFFFFFFFFFFFFFFFFFFFFFFFFFFFFFFFF ADD JUMPDEST PUSH1 0x3 DUP1 SLOAD PUSH16 0xFFFFFFFFFFFFFFFFFFFFFFFFFFFFFFFF PUSH17 0x100000000000000000000000000000000 DUP1 DUP4 DIV DUP3 AND DUP6 SWAP1 SUB DUP3 AND MUL SWAP2 DUP2 AND SWAP2 SWAP1 SWAP2 OR SWAP1 SWAP2 SSTORE PUSH2 0x2A6D SWAP1 PUSH32 0x0 SWAP1 DUP8 SWAP1 DUP5 AND PUSH2 0x4593 JUMP JUMPDEST PUSH1 0x40 DUP1 MLOAD PUSH16 0xFFFFFFFFFFFFFFFFFFFFFFFFFFFFFFFF DUP1 DUP6 AND DUP3 MSTORE DUP4 AND PUSH1 0x20 DUP3 ADD MSTORE DUP2 MLOAD PUSH1 0x1 PUSH1 0x1 PUSH1 0xA0 SHL SUB DUP9 AND SWAP3 CALLER SWAP3 PUSH32 0x596B573906218D3411850B26A6B437D6C4522FDB43D2D2386263F86D50B8B151 SWAP3 SWAP1 DUP2 SWAP1 SUB SWAP1 SWAP2 ADD SWAP1 LOG3 PUSH1 0x0 DUP1 SLOAD PUSH32 0xFF00FFFFFFFFFFFFFFFFFFFFFFFFFFFFFFFFFFFFFFFFFFFFFFFFFFFFFFFFFFFF AND PUSH31 0x1000000000000000000000000000000000000000000000000000000000000 OR SWAP1 SSTORE SWAP1 SWAP5 SWAP1 SWAP4 POP SWAP2 POP POP JUMP JUMPDEST PUSH1 0x60 DUP1 PUSH2 0x2B26 PUSH2 0x34C4 JUMP JUMPDEST PUSH2 0x2BE1 PUSH2 0x2B31 PUSH2 0x34FB JUMP JUMPDEST DUP6 DUP6 DUP1 DUP1 PUSH1 0x20 MUL PUSH1 0x20 ADD PUSH1 0x40 MLOAD SWAP1 DUP2 ADD PUSH1 0x40 MSTORE DUP1 SWAP4 SWAP3 SWAP2 SWAP1 DUP2 DUP2 MSTORE PUSH1 0x20 ADD DUP4 DUP4 PUSH1 0x20 MUL DUP1 DUP3 DUP5 CALLDATACOPY PUSH1 0x0 SWAP3 ADD DUP3 SWAP1 MSTORE POP SLOAD PUSH1 0x4 SLOAD PUSH1 0x8 SWAP7 SWAP6 SWAP5 POP PUSH21 0x10000000000000000000000000000000000000000 DUP3 DIV PUSH1 0x2 SIGNEXTEND SWAP4 POP PUSH2 0xFFFF PUSH24 0x10000000000000000000000000000000000000000000000 DUP4 DIV DUP2 AND SWAP4 POP PUSH16 0xFFFFFFFFFFFFFFFFFFFFFFFFFFFFFFFF SWAP1 SWAP2 AND SWAP2 PUSH26 0x100000000000000000000000000000000000000000000000000 SWAP1 DIV AND PUSH2 0x4E3B JUMP JUMPDEST SWAP2 POP SWAP2 POP SWAP3 POP SWAP3 SWAP1 POP JUMP JUMPDEST PUSH1 0x0 DUP1 SLOAD DUP2 SWAP1 PUSH31 0x1000000000000000000000000000000000000000000000000000000000000 SWAP1 DIV PUSH1 0xFF AND PUSH2 0x2C20 JUMPI PUSH1 0x0 DUP1 REVERT JUMPDEST PUSH1 0x0 DUP1 SLOAD PUSH32 0xFF00FFFFFFFFFFFFFFFFFFFFFFFFFFFFFFFFFFFFFFFFFFFFFFFFFFFFFFFFFFFF AND DUP2 SSTORE PUSH1 0x40 DUP1 MLOAD PUSH1 0x80 DUP2 ADD DUP3 MSTORE CALLER DUP2 MSTORE PUSH1 0x2 DUP9 DUP2 SIGNEXTEND PUSH1 0x20 DUP4 ADD MSTORE DUP8 SWAP1 SIGNEXTEND SWAP2 DUP2 ADD SWAP2 SWAP1 SWAP2 MSTORE DUP2 SWAP1 DUP2 SWAP1 PUSH2 0x2C9D SWAP1 PUSH1 0x60 DUP2 ADD PUSH2 0x2C90 PUSH16 0xFFFFFFFFFFFFFFFFFFFFFFFFFFFFFFFF DUP11 AND PUSH2 0x4A0B JUMP JUMPDEST PUSH1 0x0 SUB PUSH1 0xF SIGNEXTEND SWAP1 MSTORE PUSH2 0x4A1C JUMP JUMPDEST SWAP3 POP SWAP3 POP SWAP3 POP DUP2 PUSH1 0x0 SUB SWAP5 POP DUP1 PUSH1 0x0 SUB SWAP4 POP PUSH1 0x0 DUP6 GT DUP1 PUSH2 0x2CBE JUMPI POP PUSH1 0x0 DUP5 GT JUMPDEST ISZERO PUSH2 0x2D2B JUMPI PUSH1 0x3 DUP4 ADD DUP1 SLOAD PUSH16 0xFFFFFFFFFFFFFFFFFFFFFFFFFFFFFFFF DUP1 DUP3 AND DUP1 DUP10 ADD DUP3 AND PUSH17 0x100000000000000000000000000000000 SWAP4 DUP5 SWAP1 DIV DUP4 AND DUP10 ADD SWAP1 SWAP3 AND SWAP1 SWAP3 MUL SWAP1 SWAP2 OR PUSH32 0xFFFFFFFFFFFFFFFFFFFFFFFFFFFFFFFF00000000000000000000000000000000 AND OR SWAP1 SSTORE JUMPDEST PUSH1 0x40 DUP1 MLOAD PUSH16 0xFFFFFFFFFFFFFFFFFFFFFFFFFFFFFFFF DUP9 AND DUP2 MSTORE PUSH1 0x20 DUP2 ADD DUP8 SWAP1 MSTORE DUP1 DUP3 ADD DUP7 SWAP1 MSTORE SWAP1 MLOAD PUSH1 0x2 DUP10 DUP2 SIGNEXTEND SWAP3 SWAP1 DUP12 SWAP1 SIGNEXTEND SWAP2 CALLER SWAP2 PUSH32 0xC396CD989A39F4459B5FA1AED6A9A8DCDBC45908ACFD67E028CD568DA98982C SWAP2 SWAP1 DUP2 SWAP1 SUB PUSH1 0x60 ADD SWAP1 LOG4 POP POP PUSH1 0x0 DUP1 SLOAD PUSH32 0xFF00FFFFFFFFFFFFFFFFFFFFFFFFFFFFFFFFFFFFFFFFFFFFFFFFFFFFFFFFFFFF AND PUSH31 0x1000000000000000000000000000000000000000000000000000000000000 OR SWAP1 SSTORE POP SWAP1 SWAP5 SWAP1 SWAP4 POP SWAP2 POP POP JUMP JUMPDEST PUSH1 0x0 DUP1 PUSH1 0x0 PUSH2 0x2DEE PUSH2 0x34C4 JUMP JUMPDEST PUSH2 0x2DF8 DUP6 DUP6 PUSH2 0x4F69 JUMP JUMPDEST PUSH1 0x2 DUP6 DUP2 SIGNEXTEND DUP2 SIGNEXTEND PUSH1 0x0 SWAP1 DUP2 MSTORE PUSH1 0x5 PUSH1 0x20 MSTORE PUSH1 0x40 DUP1 DUP3 KECCAK256 DUP8 DUP5 SIGNEXTEND SWAP1 SWAP4 SIGNEXTEND DUP3 MSTORE DUP2 KECCAK256 PUSH1 0x3 DUP4 ADD SLOAD PUSH1 0x6 DUP2 SWAP1 SIGNEXTEND SWAP4 PUSH8 0x100000000000000 DUP3 DIV PUSH1 0x1 PUSH1 0x1 PUSH1 0xA0 SHL SUB AND SWAP3 DUP5 SWAP3 PUSH28 0x1000000000000000000000000000000000000000000000000000000 DUP2 DIV PUSH4 0xFFFFFFFF AND SWAP3 DUP5 SWAP3 SWAP1 SWAP2 PUSH32 0x100000000000000000000000000000000000000000000000000000000000000 SWAP1 DIV PUSH1 0xFF AND DUP1 PUSH2 0x2E94 JUMPI PUSH1 0x0 DUP1 REVERT JUMPDEST PUSH1 0x3 DUP3 ADD SLOAD PUSH1 0x6 DUP2 SWAP1 SIGNEXTEND SWAP9 POP PUSH8 0x100000000000000 DUP2 DIV PUSH1 0x1 PUSH1 0x1 PUSH1 0xA0 SHL SUB AND SWAP7 POP PUSH28 0x1000000000000000000000000000000000000000000000000000000 DUP2 DIV PUSH4 0xFFFFFFFF AND SWAP5 POP PUSH32 0x100000000000000000000000000000000000000000000000000000000000000 SWAP1 DIV PUSH1 0xFF AND DUP1 PUSH2 0x2F0D JUMPI PUSH1 0x0 DUP1 REVERT JUMPDEST POP POP PUSH1 0x40 DUP1 MLOAD PUSH1 0xE0 DUP2 ADD DUP3 MSTORE PUSH1 0x0 SLOAD PUSH1 0x1 PUSH1 0x1 PUSH1 0xA0 SHL SUB DUP2 AND DUP3 MSTORE PUSH21 0x10000000000000000000000000000000000000000 DUP2 DIV PUSH1 0x2 SWAP1 DUP2 SIGNEXTEND DUP2 SIGNEXTEND DUP2 SIGNEXTEND PUSH1 0x20 DUP5 ADD DUP2 SWAP1 MSTORE PUSH2 0xFFFF PUSH24 0x10000000000000000000000000000000000000000000000 DUP5 DIV DUP2 AND SWAP6 DUP6 ADD SWAP6 SWAP1 SWAP6 MSTORE PUSH26 0x100000000000000000000000000000000000000000000000000 DUP4 DIV DUP6 AND PUSH1 0x60 DUP6 ADD MSTORE PUSH28 0x1000000000000000000000000000000000000000000000000000000 DUP4 DIV SWAP1 SWAP5 AND PUSH1 0x80 DUP5 ADD MSTORE PUSH1 0xFF PUSH30 0x10000000000000000000000000000000000000000000000000000000000 DUP4 DIV DUP2 AND PUSH1 0xA0 DUP6 ADD MSTORE PUSH31 0x1000000000000000000000000000000000000000000000000000000000000 SWAP1 SWAP3 DIV SWAP1 SWAP2 AND ISZERO ISZERO PUSH1 0xC0 DUP4 ADD MSTORE SWAP1 SWAP4 POP DUP15 DUP2 SIGNEXTEND SWAP2 SWAP1 SIGNEXTEND SLT ISZERO SWAP1 POP PUSH2 0x303E JUMPI POP SWAP4 SWAP1 SWAP5 SUB SWAP7 POP SWAP1 SUB SWAP4 POP SWAP1 SUB SWAP1 POP PUSH2 0x30CA JUMP JUMPDEST DUP11 PUSH1 0x2 SIGNEXTEND DUP2 PUSH1 0x20 ADD MLOAD PUSH1 0x2 SIGNEXTEND SLT ISZERO PUSH2 0x30BB JUMPI PUSH1 0x0 PUSH2 0x305A PUSH2 0x34FB JUMP JUMPDEST PUSH1 0x20 DUP4 ADD MLOAD PUSH1 0x40 DUP5 ADD MLOAD PUSH1 0x4 SLOAD PUSH1 0x60 DUP7 ADD MLOAD SWAP4 SWAP5 POP PUSH1 0x0 SWAP4 DUP5 SWAP4 PUSH2 0x3099 SWAP4 PUSH1 0x8 SWAP4 DUP9 SWAP4 DUP8 SWAP4 SWAP3 SWAP2 PUSH16 0xFFFFFFFFFFFFFFFFFFFFFFFFFFFFFFFF AND SWAP1 PUSH2 0x3CD2 JUMP JUMPDEST SWAP11 SWAP1 SUB SWAP9 SWAP1 SWAP9 SUB SWAP12 POP POP SWAP5 SWAP1 SWAP7 SUB SWAP3 SWAP1 SWAP3 SUB SWAP7 POP SWAP1 SWAP2 SUB SUB SWAP3 POP PUSH2 0x30CA SWAP2 POP POP JUMP JUMPDEST POP SWAP5 SWAP1 SWAP4 SUB SWAP7 POP SUB SWAP4 POP SWAP1 SUB SWAP1 POP JUMPDEST SWAP3 POP SWAP3 POP SWAP3 JUMP JUMPDEST PUSH32 0x0 DUP2 JUMP JUMPDEST PUSH32 0x0 DUP2 JUMP JUMPDEST PUSH32 0x0 DUP2 JUMP JUMPDEST PUSH32 0x0 DUP2 JUMP JUMPDEST PUSH1 0x1 SLOAD DUP2 JUMP JUMPDEST PUSH1 0x5 PUSH1 0x20 MSTORE PUSH1 0x0 SWAP1 DUP2 MSTORE PUSH1 0x40 SWAP1 KECCAK256 DUP1 SLOAD PUSH1 0x1 DUP3 ADD SLOAD PUSH1 0x2 DUP4 ADD SLOAD PUSH1 0x3 SWAP1 SWAP4 ADD SLOAD PUSH16 0xFFFFFFFFFFFFFFFFFFFFFFFFFFFFFFFF DUP4 AND SWAP4 PUSH17 0x100000000000000000000000000000000 SWAP1 SWAP4 DIV PUSH1 0xF SIGNEXTEND SWAP3 SWAP1 PUSH1 0x6 DUP2 SWAP1 SIGNEXTEND SWAP1 PUSH8 0x100000000000000 DUP2 DIV PUSH1 0x1 PUSH1 0x1 PUSH1 0xA0 SHL SUB AND SWAP1 PUSH28 0x1000000000000000000000000000000000000000000000000000000 DUP2 DIV PUSH4 0xFFFFFFFF AND SWAP1 PUSH32 0x100000000000000000000000000000000000000000000000000000000000000 SWAP1 DIV PUSH1 0xFF AND DUP9 JUMP JUMPDEST PUSH1 0x0 SLOAD PUSH1 0x1 PUSH1 0x1 PUSH1 0xA0 SHL SUB AND ISZERO PUSH2 0x3235 JUMPI PUSH1 0x0 DUP1 REVERT JUMPDEST PUSH1 0x0 PUSH2 0x3240 DUP3 PUSH2 0x4031 JUMP JUMPDEST SWAP1 POP PUSH1 0x0 DUP1 PUSH2 0x3258 PUSH2 0x3250 PUSH2 0x34FB JUMP JUMPDEST PUSH1 0x8 SWAP1 PUSH2 0x4FC4 JUMP JUMPDEST PUSH1 0x40 DUP1 MLOAD PUSH1 0xE0 DUP2 ADD DUP3 MSTORE PUSH1 0x1 PUSH1 0x1 PUSH1 0xA0 SHL SUB DUP9 AND DUP1 DUP3 MSTORE PUSH1 0x2 DUP9 DUP2 SIGNEXTEND PUSH1 0x20 DUP1 DUP6 ADD DUP3 SWAP1 MSTORE PUSH1 0x0 DUP6 DUP8 ADD DUP2 SWAP1 MSTORE PUSH2 0xFFFF DUP10 DUP2 AND PUSH1 0x60 DUP9 ADD DUP2 SWAP1 MSTORE SWAP1 DUP10 AND PUSH1 0x80 DUP9 ADD DUP2 SWAP1 MSTORE PUSH1 0xA0 DUP9 ADD DUP4 SWAP1 MSTORE PUSH1 0x1 PUSH1 0xC0 SWAP1 SWAP9 ADD SWAP8 SWAP1 SWAP8 MSTORE DUP2 SLOAD PUSH31 0x1000000000000000000000000000000000000000000000000000000000000 PUSH32 0xFFFFFFFFFFFFFFFFFFFFFFFF0000000000000000000000000000000000000000 SWAP1 SWAP2 AND DUP8 OR PUSH32 0xFFFFFFFFFFFFFFFFFF000000FFFFFFFFFFFFFFFFFFFFFFFFFFFFFFFFFFFFFFFF AND PUSH21 0x10000000000000000000000000000000000000000 PUSH3 0xFFFFFF SWAP8 DUP8 SWAP1 SIGNEXTEND SWAP8 SWAP1 SWAP8 AND SWAP7 SWAP1 SWAP7 MUL SWAP6 SWAP1 SWAP6 OR PUSH32 0xFFFFFFFFFF00000000FFFFFFFFFFFFFFFFFFFFFFFFFFFFFFFFFFFFFFFFFFFFFF AND PUSH26 0x100000000000000000000000000000000000000000000000000 SWAP1 SWAP2 MUL OR PUSH32 0xFFFFFF0000FFFFFFFFFFFFFFFFFFFFFFFFFFFFFFFFFFFFFFFFFFFFFFFFFFFFFF AND PUSH28 0x1000000000000000000000000000000000000000000000000000000 SWAP1 SWAP7 MUL SWAP6 SWAP1 SWAP6 OR PUSH32 0xFF0000FFFFFFFFFFFFFFFFFFFFFFFFFFFFFFFFFFFFFFFFFFFFFFFFFFFFFFFFFF AND SWAP3 SWAP1 SWAP3 OR SWAP1 SWAP4 SSTORE DUP4 MLOAD SWAP2 DUP3 MSTORE DUP2 ADD SWAP2 SWAP1 SWAP2 MSTORE DUP2 MLOAD SWAP4 SWAP6 POP SWAP2 SWAP4 POP PUSH32 0x98636036CB66A9C19A37435EFC1E90142190214E8ABEB821BDBA3F2990DD4C95 SWAP3 SWAP2 DUP3 SWAP1 SUB ADD SWAP1 LOG1 POP POP POP POP JUMP JUMPDEST PUSH1 0x0 DUP1 DUP3 PUSH1 0x2 DUP2 SWAP1 SIGNEXTEND PUSH32 0xFFFFFFFFFFFFFFFFFFFFFFFFFFFFFFFFFFFFFFFFFFFFFFFFFFFFFFFFFFF27618 DUP2 PUSH2 0x3464 JUMPI INVALID JUMPDEST SDIV MUL SWAP1 POP PUSH1 0x0 DUP4 PUSH1 0x2 DUP2 SWAP1 SIGNEXTEND PUSH3 0xD89E8 DUP2 PUSH2 0x347B JUMPI INVALID JUMPDEST SDIV MUL SWAP1 POP PUSH1 0x0 DUP5 PUSH1 0x2 SIGNEXTEND DUP4 DUP4 SUB PUSH1 0x2 SIGNEXTEND DUP2 PUSH2 0x3492 JUMPI INVALID JUMPDEST SDIV PUSH1 0x1 ADD SWAP1 POP DUP1 PUSH3 0xFFFFFF AND PUSH16 0xFFFFFFFFFFFFFFFFFFFFFFFFFFFFFFFF DUP1 AND DUP2 PUSH2 0x34B8 JUMPI INVALID JUMPDEST DIV SWAP4 POP POP POP POP JUMPDEST SWAP2 SWAP1 POP JUMP JUMPDEST ADDRESS PUSH1 0x1 PUSH1 0x1 PUSH1 0xA0 SHL SUB PUSH32 0x0 AND EQ PUSH2 0x34F9 JUMPI PUSH1 0x0 DUP1 REVERT JUMPDEST JUMP JUMPDEST TIMESTAMP SWAP1 JUMP JUMPDEST PUSH1 0x0 DUP1 PUSH1 0x0 DUP5 PUSH1 0x2 SIGNEXTEND DUP7 PUSH1 0x2 SIGNEXTEND DUP2 PUSH2 0x3513 JUMPI INVALID JUMPDEST SDIV SWAP1 POP PUSH1 0x0 DUP7 PUSH1 0x2 SIGNEXTEND SLT DUP1 ISZERO PUSH2 0x353A JUMPI POP DUP5 PUSH1 0x2 SIGNEXTEND DUP7 PUSH1 0x2 SIGNEXTEND DUP2 PUSH2 0x3533 JUMPI INVALID JUMPDEST SMOD PUSH1 0x2 SIGNEXTEND ISZERO ISZERO JUMPDEST ISZERO PUSH2 0x3562 JUMPI PUSH32 0xFFFFFFFFFFFFFFFFFFFFFFFFFFFFFFFFFFFFFFFFFFFFFFFFFFFFFFFFFFFFFFFF ADD JUMPDEST DUP4 ISZERO PUSH2 0x35F5 JUMPI PUSH1 0x0 DUP1 PUSH2 0x3574 DUP4 PUSH2 0x5047 JUMP JUMPDEST PUSH1 0x1 DUP3 DUP2 SIGNEXTEND DUP2 SIGNEXTEND PUSH1 0x0 SWAP1 DUP2 MSTORE PUSH1 0x20 DUP14 SWAP1 MSTORE PUSH1 0x40 SWAP1 KECCAK256 SLOAD PUSH1 0xFF DUP4 AND SWAP2 SWAP1 SWAP2 SHL DUP1 ADD PUSH32 0xFFFFFFFFFFFFFFFFFFFFFFFFFFFFFFFFFFFFFFFFFFFFFFFFFFFFFFFFFFFFFFFF ADD SWAP1 DUP2 AND DUP1 ISZERO ISZERO SWAP8 POP SWAP3 SWAP5 POP SWAP1 SWAP3 POP SWAP1 DUP6 PUSH2 0x35D7 JUMPI DUP9 DUP4 PUSH1 0xFF AND DUP7 SUB MUL PUSH2 0x35EA JUMP JUMPDEST DUP9 PUSH2 0x35E1 DUP3 PUSH2 0x5059 JUMP JUMPDEST DUP5 SUB PUSH1 0xFF AND DUP7 SUB MUL JUMPDEST SWAP7 POP POP POP POP POP PUSH2 0x3673 JUMP JUMPDEST PUSH1 0x0 DUP1 PUSH2 0x3604 DUP4 PUSH1 0x1 ADD PUSH2 0x5047 JUMP JUMPDEST SWAP2 POP SWAP2 POP PUSH1 0x0 PUSH1 0x1 DUP3 PUSH1 0xFF AND PUSH1 0x1 SWAP1 SHL SUB NOT SWAP1 POP PUSH1 0x0 DUP2 DUP12 PUSH1 0x0 DUP7 PUSH1 0x1 SIGNEXTEND PUSH1 0x1 SIGNEXTEND DUP2 MSTORE PUSH1 0x20 ADD SWAP1 DUP2 MSTORE PUSH1 0x20 ADD PUSH1 0x0 KECCAK256 SLOAD AND SWAP1 POP DUP1 PUSH1 0x0 EQ ISZERO SWAP6 POP DUP6 PUSH2 0x3656 JUMPI DUP9 DUP4 PUSH1 0xFF SUB PUSH1 0xFF AND DUP7 PUSH1 0x1 ADD ADD MUL PUSH2 0x366C JUMP JUMPDEST DUP9 DUP4 PUSH2 0x3661 DUP4 PUSH2 0x5106 JUMP JUMPDEST SUB PUSH1 0xFF AND DUP7 PUSH1 0x1 ADD ADD MUL JUMPDEST SWAP7 POP POP POP POP POP JUMPDEST POP SWAP5 POP SWAP5 SWAP3 POP POP POP JUMP JUMPDEST PUSH1 0x0 DUP1 PUSH1 0x0 DUP4 PUSH1 0x2 SIGNEXTEND SLT PUSH2 0x3694 JUMPI DUP3 PUSH1 0x2 SIGNEXTEND PUSH2 0x369C JUMP JUMPDEST DUP3 PUSH1 0x2 SIGNEXTEND PUSH1 0x0 SUB JUMPDEST SWAP1 POP PUSH3 0xD89E8 DUP2 GT ISZERO PUSH2 0x36AE JUMPI PUSH1 0x0 DUP1 REVERT JUMPDEST PUSH1 0x0 PUSH1 0x1 DUP3 AND PUSH2 0x36CF JUMPI PUSH17 0x100000000000000000000000000000000 PUSH2 0x36E1 JUMP JUMPDEST PUSH16 0xFFFCB933BD6FAD37AA2D162D1A594001 JUMPDEST PUSH17 0xFFFFFFFFFFFFFFFFFFFFFFFFFFFFFFFFFF AND SWAP1 POP PUSH1 0x2 DUP3 AND ISZERO PUSH2 0x3715 JUMPI PUSH16 0xFFF97272373D413259A46990580E213A MUL PUSH1 0x80 SHR JUMPDEST PUSH1 0x4 DUP3 AND ISZERO PUSH2 0x3734 JUMPI PUSH16 0xFFF2E50F5F656932EF12357CF3C7FDCC MUL PUSH1 0x80 SHR JUMPDEST PUSH1 0x8 DUP3 AND ISZERO PUSH2 0x3753 JUMPI PUSH16 0xFFE5CACA7E10E4E61C3624EAA0941CD0 MUL PUSH1 0x80 SHR JUMPDEST PUSH1 0x10 DUP3 AND ISZERO PUSH2 0x3772 JUMPI PUSH16 0xFFCB9843D60F6159C9DB58835C926644 MUL PUSH1 0x80 SHR JUMPDEST PUSH1 0x20 DUP3 AND ISZERO PUSH2 0x3791 JUMPI PUSH16 0xFF973B41FA98C081472E6896DFB254C0 MUL PUSH1 0x80 SHR JUMPDEST PUSH1 0x40 DUP3 AND ISZERO PUSH2 0x37B0 JUMPI PUSH16 0xFF2EA16466C96A3843EC78B326B52861 MUL PUSH1 0x80 SHR JUMPDEST PUSH1 0x80 DUP3 AND ISZERO PUSH2 0x37CF JUMPI PUSH16 0xFE5DEE046A99A2A811C461F1969C3053 MUL PUSH1 0x80 SHR JUMPDEST PUSH2 0x100 DUP3 AND ISZERO PUSH2 0x37EF JUMPI PUSH16 0xFCBE86C7900A88AEDCFFC83B479AA3A4 MUL PUSH1 0x80 SHR JUMPDEST PUSH2 0x200 DUP3 AND ISZERO PUSH2 0x380F JUMPI PUSH16 0xF987A7253AC413176F2B074CF7815E54 MUL PUSH1 0x80 SHR JUMPDEST PUSH2 0x400 DUP3 AND ISZERO PUSH2 0x382F JUMPI PUSH16 0xF3392B0822B70005940C7A398E4B70F3 MUL PUSH1 0x80 SHR JUMPDEST PUSH2 0x800 DUP3 AND ISZERO PUSH2 0x384F JUMPI PUSH16 0xE7159475A2C29B7443B29C7FA6E889D9 MUL PUSH1 0x80 SHR JUMPDEST PUSH2 0x1000 DUP3 AND ISZERO PUSH2 0x386F JUMPI PUSH16 0xD097F3BDFD2022B8845AD8F792AA5825 MUL PUSH1 0x80 SHR JUMPDEST PUSH2 0x2000 DUP3 AND ISZERO PUSH2 0x388F JUMPI PUSH16 0xA9F746462D870FDF8A65DC1F90E061E5 MUL PUSH1 0x80 SHR JUMPDEST PUSH2 0x4000 DUP3 AND ISZERO PUSH2 0x38AF JUMPI PUSH16 0x70D869A156D2A1B890BB3DF62BAF32F7 MUL PUSH1 0x80 SHR JUMPDEST PUSH2 0x8000 DUP3 AND ISZERO PUSH2 0x38CF JUMPI PUSH16 0x31BE135F97D08FD981231505542FCFA6 MUL PUSH1 0x80 SHR JUMPDEST PUSH3 0x10000 DUP3 AND ISZERO PUSH2 0x38F0 JUMPI PUSH16 0x9AA508B5B7A84E1C677DE54F3E99BC9 MUL PUSH1 0x80 SHR JUMPDEST PUSH3 0x20000 DUP3 AND ISZERO PUSH2 0x3910 JUMPI PUSH15 0x5D6AF8DEDB81196699C329225EE604 MUL PUSH1 0x80 SHR JUMPDEST PUSH3 0x40000 DUP3 AND ISZERO PUSH2 0x392F JUMPI PUSH14 0x2216E584F5FA1EA926041BEDFE98 MUL PUSH1 0x80 SHR JUMPDEST PUSH3 0x80000 DUP3 AND ISZERO PUSH2 0x394C JUMPI PUSH12 0x48A170391F7DC42444E8FA2 MUL PUSH1 0x80 SHR JUMPDEST PUSH1 0x0 DUP5 PUSH1 0x2 SIGNEXTEND SGT ISZERO PUSH2 0x3985 JUMPI DUP1 PUSH32 0xFFFFFFFFFFFFFFFFFFFFFFFFFFFFFFFFFFFFFFFFFFFFFFFFFFFFFFFFFFFFFFFF DUP2 PUSH2 0x3981 JUMPI INVALID JUMPDEST DIV SWAP1 POP JUMPDEST PUSH5 0x100000000 DUP2 MOD ISZERO PUSH2 0x3999 JUMPI PUSH1 0x1 PUSH2 0x399C JUMP JUMPDEST PUSH1 0x0 JUMPDEST PUSH1 0xFF AND PUSH1 0x20 DUP3 SWAP1 SHR ADD SWAP3 POP POP POP SWAP2 SWAP1 POP JUMP JUMPDEST PUSH1 0x0 DUP1 DUP1 DUP1 PUSH1 0x1 PUSH1 0x1 PUSH1 0xA0 SHL SUB DUP1 DUP10 AND SWAP1 DUP11 AND LT ISZERO DUP2 DUP8 SLT DUP1 ISZERO SWAP1 PUSH2 0x3A33 JUMPI PUSH1 0x0 PUSH2 0x39E7 DUP10 DUP10 PUSH3 0xF4240 SUB PUSH3 0xFFFFFF AND PUSH3 0xF4240 PUSH2 0x3C04 JUMP JUMPDEST SWAP1 POP DUP3 PUSH2 0x3A00 JUMPI PUSH2 0x39FB DUP13 DUP13 DUP13 PUSH1 0x1 PUSH2 0x52E9 JUMP JUMPDEST PUSH2 0x3A0D JUMP JUMPDEST PUSH2 0x3A0D DUP12 DUP14 DUP13 PUSH1 0x1 PUSH2 0x5388 JUMP JUMPDEST SWAP6 POP DUP6 DUP2 LT PUSH2 0x3A1E JUMPI DUP11 SWAP7 POP PUSH2 0x3A2D JUMP JUMPDEST PUSH2 0x3A2A DUP13 DUP12 DUP4 DUP7 PUSH2 0x5445 JUMP JUMPDEST SWAP7 POP JUMPDEST POP PUSH2 0x3A7D JUMP JUMPDEST DUP2 PUSH2 0x3A4A JUMPI PUSH2 0x3A45 DUP12 DUP12 DUP12 PUSH1 0x0 PUSH2 0x5388 JUMP JUMPDEST PUSH2 0x3A57 JUMP JUMPDEST PUSH2 0x3A57 DUP11 DUP13 DUP12 PUSH1 0x0 PUSH2 0x52E9 JUMP JUMPDEST SWAP4 POP DUP4 DUP9 PUSH1 0x0 SUB LT PUSH2 0x3A6B JUMPI DUP10 SWAP6 POP PUSH2 0x3A7D JUMP JUMPDEST PUSH2 0x3A7A DUP12 DUP11 DUP11 PUSH1 0x0 SUB DUP6 PUSH2 0x549A JUMP JUMPDEST SWAP6 POP JUMPDEST PUSH1 0x1 PUSH1 0x1 PUSH1 0xA0 SHL SUB DUP11 DUP2 AND SWAP1 DUP8 AND EQ DUP3 ISZERO PUSH2 0x3AE0 JUMPI DUP1 DUP1 ISZERO PUSH2 0x3A9C JUMPI POP DUP2 JUMPDEST PUSH2 0x3AB2 JUMPI PUSH2 0x3AAD DUP8 DUP14 DUP13 PUSH1 0x1 PUSH2 0x5388 JUMP JUMPDEST PUSH2 0x3AB4 JUMP JUMPDEST DUP6 JUMPDEST SWAP6 POP DUP1 DUP1 ISZERO PUSH2 0x3AC1 JUMPI POP DUP2 ISZERO JUMPDEST PUSH2 0x3AD7 JUMPI PUSH2 0x3AD2 DUP8 DUP14 DUP13 PUSH1 0x0 PUSH2 0x52E9 JUMP JUMPDEST PUSH2 0x3AD9 JUMP JUMPDEST DUP5 JUMPDEST SWAP5 POP PUSH2 0x3B2A JUMP JUMPDEST DUP1 DUP1 ISZERO PUSH2 0x3AEA JUMPI POP DUP2 JUMPDEST PUSH2 0x3B00 JUMPI PUSH2 0x3AFB DUP13 DUP9 DUP13 PUSH1 0x1 PUSH2 0x52E9 JUMP JUMPDEST PUSH2 0x3B02 JUMP JUMPDEST DUP6 JUMPDEST SWAP6 POP DUP1 DUP1 ISZERO PUSH2 0x3B0F JUMPI POP DUP2 ISZERO JUMPDEST PUSH2 0x3B25 JUMPI PUSH2 0x3B20 DUP13 DUP9 DUP13 PUSH1 0x0 PUSH2 0x5388 JUMP JUMPDEST PUSH2 0x3B27 JUMP JUMPDEST DUP5 JUMPDEST SWAP5 POP JUMPDEST DUP2 ISZERO DUP1 ISZERO PUSH2 0x3B3A JUMPI POP DUP9 PUSH1 0x0 SUB DUP6 GT JUMPDEST ISZERO PUSH2 0x3B46 JUMPI DUP9 PUSH1 0x0 SUB SWAP5 POP JUMPDEST DUP2 DUP1 ISZERO PUSH2 0x3B65 JUMPI POP DUP11 PUSH1 0x1 PUSH1 0x1 PUSH1 0xA0 SHL SUB AND DUP8 PUSH1 0x1 PUSH1 0x1 PUSH1 0xA0 SHL SUB AND EQ ISZERO JUMPDEST ISZERO PUSH2 0x3B74 JUMPI DUP6 DUP10 SUB SWAP4 POP PUSH2 0x3B91 JUMP JUMPDEST PUSH2 0x3B8E DUP7 DUP10 PUSH3 0xFFFFFF AND DUP11 PUSH3 0xF4240 SUB PUSH3 0xFFFFFF AND PUSH2 0x4D6C JUMP JUMPDEST SWAP4 POP JUMPDEST POP POP POP SWAP6 POP SWAP6 POP SWAP6 POP SWAP6 SWAP2 POP POP JUMP JUMPDEST PUSH1 0x0 PUSH32 0x8000000000000000000000000000000000000000000000000000000000000000 DUP3 LT PUSH2 0x3BCE JUMPI PUSH1 0x0 DUP1 REVERT JUMPDEST POP SWAP1 JUMP JUMPDEST DUP1 DUP3 SUB DUP3 DUP2 SGT ISZERO PUSH1 0x0 DUP4 SLT ISZERO EQ PUSH2 0x3BE8 JUMPI PUSH1 0x0 DUP1 REVERT JUMPDEST SWAP3 SWAP2 POP POP JUMP JUMPDEST DUP2 DUP2 ADD DUP3 DUP2 SLT ISZERO PUSH1 0x0 DUP4 SLT ISZERO EQ PUSH2 0x3BE8 JUMPI PUSH1 0x0 DUP1 REVERT JUMPDEST PUSH1 0x0 DUP1 DUP1 PUSH32 0xFFFFFFFFFFFFFFFFFFFFFFFFFFFFFFFFFFFFFFFFFFFFFFFFFFFFFFFFFFFFFFFF DUP6 DUP8 MULMOD DUP7 DUP7 MUL SWAP3 POP DUP3 DUP2 LT SWAP1 DUP4 SWAP1 SUB SUB SWAP1 POP DUP1 PUSH2 0x3C58 JUMPI PUSH1 0x0 DUP5 GT PUSH2 0x3C4D JUMPI PUSH1 0x0 DUP1 REVERT JUMPDEST POP DUP3 SWAP1 DIV SWAP1 POP PUSH2 0x3CCB JUMP JUMPDEST DUP1 DUP5 GT PUSH2 0x3C64 JUMPI PUSH1 0x0 DUP1 REVERT JUMPDEST PUSH1 0x0 DUP5 DUP7 DUP9 MULMOD PUSH1 0x0 DUP7 DUP2 SUB DUP8 AND SWAP7 DUP8 SWAP1 DIV SWAP7 PUSH1 0x2 PUSH1 0x3 DUP10 MUL DUP2 XOR DUP1 DUP11 MUL DUP3 SUB MUL DUP1 DUP11 MUL DUP3 SUB MUL DUP1 DUP11 MUL DUP3 SUB MUL DUP1 DUP11 MUL DUP3 SUB MUL DUP1 DUP11 MUL DUP3 SUB MUL DUP1 DUP11 MUL SWAP1 SWAP2 SUB MUL SWAP2 DUP2 SWAP1 SUB DUP2 SWAP1 DIV PUSH1 0x1 ADD DUP7 DUP5 GT SWAP1 SWAP6 SUB SWAP5 SWAP1 SWAP5 MUL SWAP2 SWAP1 SWAP5 SUB SWAP3 SWAP1 SWAP3 DIV SWAP2 SWAP1 SWAP2 OR SWAP2 SWAP1 SWAP2 MUL SWAP2 POP POP JUMPDEST SWAP4 SWAP3 POP POP POP JUMP JUMPDEST PUSH1 0x0 DUP1 PUSH4 0xFFFFFFFF DUP8 AND PUSH2 0x3D9D JUMPI PUSH1 0x0 DUP10 DUP7 PUSH2 0xFFFF AND PUSH2 0xFFFF DUP2 LT PUSH2 0x3CF3 JUMPI INVALID JUMPDEST PUSH1 0x40 DUP1 MLOAD PUSH1 0x80 DUP2 ADD DUP3 MSTORE SWAP2 SWAP1 SWAP3 ADD SLOAD PUSH4 0xFFFFFFFF DUP1 DUP3 AND DUP1 DUP5 MSTORE PUSH5 0x100000000 DUP4 DIV PUSH1 0x6 SWAP1 DUP2 SIGNEXTEND DUP2 SIGNEXTEND SWAP1 SIGNEXTEND PUSH1 0x20 DUP6 ADD MSTORE PUSH12 0x10000000000000000000000 DUP4 DIV PUSH1 0x1 PUSH1 0x1 PUSH1 0xA0 SHL SUB AND SWAP5 DUP5 ADD SWAP5 SWAP1 SWAP5 MSTORE PUSH32 0x100000000000000000000000000000000000000000000000000000000000000 SWAP1 SWAP2 DIV PUSH1 0xFF AND ISZERO ISZERO PUSH1 0x60 DUP4 ADD MSTORE SWAP1 SWAP3 POP DUP11 AND EQ PUSH2 0x3D89 JUMPI PUSH2 0x3D86 DUP2 DUP11 DUP10 DUP9 PUSH2 0x54EF JUMP JUMPDEST SWAP1 POP JUMPDEST DUP1 PUSH1 0x20 ADD MLOAD DUP2 PUSH1 0x40 ADD MLOAD SWAP3 POP SWAP3 POP POP PUSH2 0x3E7D JUMP JUMPDEST DUP7 DUP9 SUB PUSH1 0x0 DUP1 PUSH2 0x3DB2 DUP13 DUP13 DUP6 DUP13 DUP13 DUP13 DUP13 PUSH2 0x55B1 JUMP JUMPDEST SWAP2 POP SWAP2 POP DUP2 PUSH1 0x0 ADD MLOAD PUSH4 0xFFFFFFFF AND DUP4 PUSH4 0xFFFFFFFF AND EQ ISZERO PUSH2 0x3DE4 JUMPI DUP2 PUSH1 0x20 ADD MLOAD DUP3 PUSH1 0x40 ADD MLOAD SWAP5 POP SWAP5 POP POP POP POP PUSH2 0x3E7D JUMP JUMPDEST DUP1 MLOAD PUSH4 0xFFFFFFFF DUP5 DUP2 AND SWAP2 AND EQ ISZERO PUSH2 0x3E0C JUMPI DUP1 PUSH1 0x20 ADD MLOAD DUP2 PUSH1 0x40 ADD MLOAD SWAP5 POP SWAP5 POP POP POP POP PUSH2 0x3E7D JUMP JUMPDEST DUP2 MLOAD DUP2 MLOAD PUSH1 0x20 DUP1 DUP6 ADD MLOAD SWAP1 DUP5 ADD MLOAD SWAP2 DUP4 SWAP1 SUB SWAP3 DUP7 SUB SWAP2 PUSH4 0xFFFFFFFF DUP1 DUP5 AND SWAP3 SWAP1 DUP6 AND SWAP2 SUB PUSH1 0x6 SIGNEXTEND DUP2 PUSH2 0x3E3A JUMPI INVALID JUMPDEST SDIV MUL DUP5 PUSH1 0x20 ADD MLOAD ADD DUP3 PUSH4 0xFFFFFFFF AND DUP3 PUSH4 0xFFFFFFFF AND DUP7 PUSH1 0x40 ADD MLOAD DUP7 PUSH1 0x40 ADD MLOAD SUB PUSH1 0x1 PUSH1 0x1 PUSH1 0xA0 SHL SUB AND MUL DUP2 PUSH2 0x3E6C JUMPI INVALID JUMPDEST DIV DUP6 PUSH1 0x40 ADD MLOAD ADD SWAP7 POP SWAP7 POP POP POP POP POP POP JUMPDEST SWAP8 POP SWAP8 SWAP6 POP POP POP POP POP POP JUMP JUMPDEST PUSH1 0x2 SWAP6 DUP7 SIGNEXTEND DUP7 SIGNEXTEND PUSH1 0x0 SWAP1 DUP2 MSTORE PUSH1 0x20 SWAP8 SWAP1 SWAP8 MSTORE PUSH1 0x40 SWAP1 SWAP7 KECCAK256 PUSH1 0x1 DUP2 ADD DUP1 SLOAD SWAP1 SWAP6 SUB SWAP1 SWAP5 SSTORE SWAP4 DUP4 ADD DUP1 SLOAD SWAP1 SWAP3 SUB SWAP1 SWAP2 SSTORE PUSH1 0x3 DUP3 ADD DUP1 SLOAD PUSH4 0xFFFFFFFF PUSH28 0x1000000000000000000000000000000000000000000000000000000 PUSH1 0x1 PUSH1 0x1 PUSH1 0xA0 SHL SUB PUSH8 0x100000000000000 DUP1 DUP6 DIV DUP3 AND SWAP1 SWAP7 SUB AND SWAP1 SWAP5 MUL PUSH32 0xFFFFFFFFFF0000000000000000000000000000000000000000FFFFFFFFFFFFFF SWAP1 SWAP3 AND SWAP2 SWAP1 SWAP2 OR PUSH1 0x6 DUP2 DUP2 SIGNEXTEND SWAP1 SWAP7 SUB SWAP1 SWAP6 SIGNEXTEND PUSH7 0xFFFFFFFFFFFFFF AND PUSH32 0xFFFFFFFFFFFFFFFFFFFFFFFFFFFFFFFFFFFFFFFFFFFFFFFFFF00000000000000 SWAP1 SWAP6 AND SWAP5 SWAP1 SWAP5 OR DUP3 DUP2 DIV DUP6 AND SWAP1 SWAP6 SUB SWAP1 SWAP4 AND MUL PUSH32 0xFF00000000FFFFFFFFFFFFFFFFFFFFFFFFFFFFFFFFFFFFFFFFFFFFFFFFFFFFFF SWAP1 SWAP4 AND SWAP3 SWAP1 SWAP3 OR SWAP1 SSTORE SLOAD PUSH17 0x100000000000000000000000000000000 SWAP1 DIV PUSH1 0xF SIGNEXTEND SWAP1 JUMP JUMPDEST PUSH1 0x0 DUP1 DUP3 PUSH1 0xF SIGNEXTEND SLT ISZERO PUSH2 0x3FFB JUMPI DUP3 PUSH16 0xFFFFFFFFFFFFFFFFFFFFFFFFFFFFFFFF AND DUP3 PUSH1 0x0 SUB DUP5 SUB SWAP2 POP DUP2 PUSH16 0xFFFFFFFFFFFFFFFFFFFFFFFFFFFFFFFF AND LT PUSH2 0x3FF6 JUMPI PUSH1 0x0 DUP1 REVERT JUMPDEST PUSH2 0x3BE8 JUMP JUMPDEST DUP3 PUSH16 0xFFFFFFFFFFFFFFFFFFFFFFFFFFFFFFFF AND DUP3 DUP5 ADD SWAP2 POP DUP2 PUSH16 0xFFFFFFFFFFFFFFFFFFFFFFFFFFFFFFFF AND LT ISZERO PUSH2 0x3BE8 JUMPI PUSH1 0x0 DUP1 REVERT JUMPDEST PUSH1 0x0 PUSH5 0x1000276A3 PUSH1 0x1 PUSH1 0x1 PUSH1 0xA0 SHL SUB DUP4 AND LT DUP1 ISZERO SWAP1 PUSH2 0x406D JUMPI POP PUSH20 0xFFFD8963EFD1FC6A506488495D951D5263988D26 PUSH1 0x1 PUSH1 0x1 PUSH1 0xA0 SHL SUB DUP4 AND LT JUMPDEST PUSH2 0x4076 JUMPI PUSH1 0x0 DUP1 REVERT JUMPDEST PUSH24 0xFFFFFFFFFFFFFFFFFFFFFFFFFFFFFFFFFFFFFFFF00000000 PUSH1 0x20 DUP4 SWAP1 SHL AND PUSH16 0xFFFFFFFFFFFFFFFFFFFFFFFFFFFFFFFF DUP2 GT PUSH1 0x7 SHL DUP2 DUP2 SHR PUSH8 0xFFFFFFFFFFFFFFFF DUP2 GT PUSH1 0x6 SHL SWAP1 DUP2 SHR PUSH4 0xFFFFFFFF DUP2 GT PUSH1 0x5 SHL SWAP1 DUP2 SHR PUSH2 0xFFFF DUP2 GT PUSH1 0x4 SHL SWAP1 DUP2 SHR PUSH1 0xFF DUP2 GT PUSH1 0x3 SWAP1 DUP2 SHL SWAP2 DUP3 SHR PUSH1 0xF DUP2 GT PUSH1 0x2 SHL SWAP1 DUP2 SHR SWAP2 DUP3 GT PUSH1 0x1 SWAP1 DUP2 SHL SWAP3 DUP4 SHR SWAP8 SWAP1 DUP9 GT SWAP7 OR SWAP1 SWAP5 OR SWAP1 SWAP3 OR OR SWAP1 SWAP2 OR OR OR PUSH1 0x80 DUP2 LT PUSH2 0x4120 JUMPI PUSH1 0x7F DUP2 SUB DUP4 SWAP1 SHR SWAP2 POP PUSH2 0x412A JUMP JUMPDEST DUP1 PUSH1 0x7F SUB DUP4 SWAP1 SHL SWAP2 POP JUMPDEST SWAP1 DUP1 MUL PUSH1 0x7F DUP2 DUP2 SHR PUSH1 0xFF DUP4 DUP2 SHR SWAP2 SWAP1 SWAP2 SHR DUP1 MUL DUP1 DUP4 SHR DUP2 DUP4 SHR SHR DUP1 MUL DUP1 DUP5 SHR DUP2 DUP5 SHR SHR DUP1 MUL DUP1 DUP6 SHR DUP2 DUP6 SHR SHR DUP1 MUL DUP1 DUP7 SHR DUP2 DUP7 SHR SHR DUP1 MUL DUP1 DUP8 SHR DUP2 DUP8 SHR SHR DUP1 MUL DUP1 DUP9 SHR DUP2 DUP9 SHR SHR DUP1 MUL DUP1 DUP10 SHR DUP2 DUP10 SHR SHR DUP1 MUL DUP1 DUP11 SHR DUP2 DUP11 SHR SHR DUP1 MUL DUP1 DUP12 SHR DUP2 DUP12 SHR SHR DUP1 MUL DUP1 DUP13 SHR DUP2 DUP13 SHR SHR DUP1 MUL DUP1 DUP14 SHR DUP2 DUP14 SHR SHR DUP1 MUL DUP1 DUP15 SHR SWAP13 DUP2 SWAP1 SHR SWAP13 SWAP1 SWAP13 SHR DUP1 MUL SWAP13 DUP14 SWAP1 SHR SWAP15 SWAP14 PUSH32 0xFFFFFFFFFFFFFFFFFFFFFFFFFFFFFFFFFFFFFFFFFFFFFFFFFFFFFFFFFFFFFF80 DUP16 ADD PUSH1 0x40 SHL PUSH1 0xC0 SWAP2 SWAP1 SWAP2 SHR PUSH8 0x8000000000000000 AND OR PUSH1 0xC1 SWAP12 SWAP1 SWAP12 SHR PUSH8 0x4000000000000000 AND SWAP11 SWAP1 SWAP11 OR PUSH1 0xC2 SWAP10 SWAP1 SWAP10 SHR PUSH8 0x2000000000000000 AND SWAP9 SWAP1 SWAP9 OR PUSH1 0xC3 SWAP8 SWAP1 SWAP8 SHR PUSH8 0x1000000000000000 AND SWAP7 SWAP1 SWAP7 OR PUSH1 0xC4 SWAP6 SWAP1 SWAP6 SHR PUSH8 0x800000000000000 AND SWAP5 SWAP1 SWAP5 OR PUSH1 0xC5 SWAP4 SWAP1 SWAP4 SHR PUSH8 0x400000000000000 AND SWAP3 SWAP1 SWAP3 OR PUSH1 0xC6 SWAP2 SWAP1 SWAP2 SHR PUSH8 0x200000000000000 AND OR PUSH1 0xC7 SWAP2 SWAP1 SWAP2 SHR PUSH8 0x100000000000000 AND OR PUSH1 0xC8 SWAP2 SWAP1 SWAP2 SHR PUSH7 0x80000000000000 AND OR PUSH1 0xC9 SWAP2 SWAP1 SWAP2 SHR PUSH7 0x40000000000000 AND OR PUSH1 0xCA SWAP2 SWAP1 SWAP2 SHR PUSH7 0x20000000000000 AND OR PUSH1 0xCB SWAP2 SWAP1 SWAP2 SHR PUSH7 0x10000000000000 AND OR PUSH1 0xCC SWAP2 SWAP1 SWAP2 SHR PUSH7 0x8000000000000 AND OR PUSH1 0xCD SWAP2 SWAP1 SWAP2 SHR PUSH7 0x4000000000000 AND OR PUSH10 0x3627A301D71055774C85 DUP2 MUL PUSH32 0xFFFFFFFFFFFFFFFFFFFFFFFFFFFFFFFFFD709B7E5480FBA5A50FED5E62FFC556 DUP2 ADD PUSH1 0x80 SWAP1 DUP2 SAR SWAP1 PUSH16 0xDB2DF09E81959A81455E260799A0632F DUP4 ADD SWAP1 SAR PUSH1 0x2 DUP2 DUP2 SIGNEXTEND SWAP1 DUP4 SWAP1 SIGNEXTEND EQ PUSH2 0x4358 JUMPI DUP9 PUSH1 0x1 PUSH1 0x1 PUSH1 0xA0 SHL SUB AND PUSH2 0x433C DUP3 PUSH2 0x367D JUMP JUMPDEST PUSH1 0x1 PUSH1 0x1 PUSH1 0xA0 SHL SUB AND GT ISZERO PUSH2 0x4351 JUMPI DUP2 PUSH2 0x4353 JUMP JUMPDEST DUP1 JUMPDEST PUSH2 0x435A JUMP JUMPDEST DUP2 JUMPDEST SWAP10 SWAP9 POP POP POP POP POP POP POP POP POP JUMP JUMPDEST PUSH1 0x0 DUP1 PUSH1 0x0 DUP10 DUP10 PUSH2 0xFFFF AND PUSH2 0xFFFF DUP2 LT PUSH2 0x437D JUMPI INVALID JUMPDEST PUSH1 0x40 DUP1 MLOAD PUSH1 0x80 DUP2 ADD DUP3 MSTORE SWAP2 SWAP1 SWAP3 ADD SLOAD PUSH4 0xFFFFFFFF DUP1 DUP3 AND DUP1 DUP5 MSTORE PUSH5 0x100000000 DUP4 DIV PUSH1 0x6 SWAP1 DUP2 SIGNEXTEND DUP2 SIGNEXTEND SWAP1 SIGNEXTEND PUSH1 0x20 DUP6 ADD MSTORE PUSH12 0x10000000000000000000000 DUP4 DIV PUSH1 0x1 PUSH1 0x1 PUSH1 0xA0 SHL SUB AND SWAP5 DUP5 ADD SWAP5 SWAP1 SWAP5 MSTORE PUSH32 0x100000000000000000000000000000000000000000000000000000000000000 SWAP1 SWAP2 DIV PUSH1 0xFF AND ISZERO ISZERO PUSH1 0x60 DUP4 ADD MSTORE SWAP1 SWAP3 POP DUP10 AND EQ ISZERO PUSH2 0x4411 JUMPI DUP9 DUP6 SWAP3 POP SWAP3 POP POP PUSH2 0x3E7D JUMP JUMPDEST DUP5 PUSH2 0xFFFF AND DUP5 PUSH2 0xFFFF AND GT DUP1 ISZERO PUSH2 0x4432 JUMPI POP PUSH1 0x1 DUP6 SUB PUSH2 0xFFFF AND DUP10 PUSH2 0xFFFF AND EQ JUMPDEST ISZERO PUSH2 0x443F JUMPI DUP4 SWAP2 POP PUSH2 0x4443 JUMP JUMPDEST DUP5 SWAP2 POP JUMPDEST DUP2 PUSH2 0xFFFF AND DUP10 PUSH1 0x1 ADD PUSH2 0xFFFF AND DUP2 PUSH2 0x4457 JUMPI INVALID JUMPDEST MOD SWAP3 POP PUSH2 0x4466 DUP2 DUP10 DUP10 DUP10 PUSH2 0x54EF JUMP JUMPDEST DUP11 DUP5 PUSH2 0xFFFF AND PUSH2 0xFFFF DUP2 LT PUSH2 0x4477 JUMPI INVALID JUMPDEST DUP3 MLOAD SWAP2 ADD DUP1 SLOAD PUSH1 0x20 DUP5 ADD MLOAD PUSH1 0x40 DUP6 ADD MLOAD PUSH1 0x60 SWAP1 SWAP6 ADD MLOAD ISZERO ISZERO PUSH32 0x100000000000000000000000000000000000000000000000000000000000000 MUL PUSH31 0xFFFFFFFFFFFFFFFFFFFFFFFFFFFFFFFFFFFFFFFFFFFFFFFFFFFFFFFFFFFFFF PUSH1 0x1 PUSH1 0x1 PUSH1 0xA0 SHL SUB SWAP1 SWAP7 AND PUSH12 0x10000000000000000000000 MUL PUSH32 0xFF0000000000000000000000000000000000000000FFFFFFFFFFFFFFFFFFFFFF PUSH1 0x6 SWAP4 SWAP1 SWAP4 SIGNEXTEND PUSH7 0xFFFFFFFFFFFFFF AND PUSH5 0x100000000 MUL PUSH32 0xFFFFFFFFFFFFFFFFFFFFFFFFFFFFFFFFFFFFFFFFFF00000000000000FFFFFFFF PUSH4 0xFFFFFFFF SWAP1 SWAP8 AND PUSH32 0xFFFFFFFFFFFFFFFFFFFFFFFFFFFFFFFFFFFFFFFFFFFFFFFFFFFFFFFF00000000 SWAP1 SWAP6 AND SWAP5 SWAP1 SWAP5 OR SWAP6 SWAP1 SWAP6 AND SWAP3 SWAP1 SWAP3 OR AND SWAP3 SWAP1 SWAP3 OR SWAP3 SWAP1 SWAP3 AND OR SWAP1 SSTORE POP SWAP8 POP SWAP8 SWAP6 POP POP POP POP POP POP JUMP JUMPDEST PUSH1 0x40 DUP1 MLOAD PUSH1 0x1 PUSH1 0x1 PUSH1 0xA0 SHL SUB DUP5 DUP2 AND PUSH1 0x24 DUP4 ADD MSTORE PUSH1 0x44 DUP1 DUP4 ADD DUP6 SWAP1 MSTORE DUP4 MLOAD DUP1 DUP5 SUB SWAP1 SWAP2 ADD DUP2 MSTORE PUSH1 0x64 SWAP1 SWAP3 ADD DUP4 MSTORE PUSH1 0x20 DUP3 ADD DUP1 MLOAD PUSH28 0xFFFFFFFFFFFFFFFFFFFFFFFFFFFFFFFFFFFFFFFFFFFFFFFFFFFFFFFF AND PUSH32 0xA9059CBB00000000000000000000000000000000000000000000000000000000 OR DUP2 MSTORE SWAP3 MLOAD DUP3 MLOAD PUSH1 0x0 SWAP5 DUP6 SWAP5 SWAP4 DUP10 AND SWAP4 SWAP3 SWAP2 DUP3 SWAP2 SWAP1 DUP1 DUP4 DUP4 JUMPDEST PUSH1 0x20 DUP4 LT PUSH2 0x465B JUMPI DUP1 MLOAD DUP3 MSTORE PUSH32 0xFFFFFFFFFFFFFFFFFFFFFFFFFFFFFFFFFFFFFFFFFFFFFFFFFFFFFFFFFFFFFFE0 SWAP1 SWAP3 ADD SWAP2 PUSH1 0x20 SWAP2 DUP3 ADD SWAP2 ADD PUSH2 0x461E JUMP JUMPDEST PUSH1 0x1 DUP4 PUSH1 0x20 SUB PUSH2 0x100 EXP SUB DUP1 NOT DUP3 MLOAD AND DUP2 DUP5 MLOAD AND DUP1 DUP3 OR DUP6 MSTORE POP POP POP POP POP POP SWAP1 POP ADD SWAP2 POP POP PUSH1 0x0 PUSH1 0x40 MLOAD DUP1 DUP4 SUB DUP2 PUSH1 0x0 DUP7 GAS CALL SWAP2 POP POP RETURNDATASIZE DUP1 PUSH1 0x0 DUP2 EQ PUSH2 0x46BD JUMPI PUSH1 0x40 MLOAD SWAP2 POP PUSH1 0x1F NOT PUSH1 0x3F RETURNDATASIZE ADD AND DUP3 ADD PUSH1 0x40 MSTORE RETURNDATASIZE DUP3 MSTORE RETURNDATASIZE PUSH1 0x0 PUSH1 0x20 DUP5 ADD RETURNDATACOPY PUSH2 0x46C2 JUMP JUMPDEST PUSH1 0x60 SWAP2 POP JUMPDEST POP SWAP2 POP SWAP2 POP DUP2 DUP1 ISZERO PUSH2 0x46F0 JUMPI POP DUP1 MLOAD ISZERO DUP1 PUSH2 0x46F0 JUMPI POP DUP1 DUP1 PUSH1 0x20 ADD SWAP1 MLOAD PUSH1 0x20 DUP2 LT ISZERO PUSH2 0x46ED JUMPI PUSH1 0x0 DUP1 REVERT JUMPDEST POP MLOAD JUMPDEST PUSH2 0x46F9 JUMPI PUSH1 0x0 DUP1 REVERT JUMPDEST POP POP POP POP POP JUMP JUMPDEST PUSH1 0x40 DUP1 MLOAD ADDRESS PUSH1 0x24 DUP1 DUP4 ADD SWAP2 SWAP1 SWAP2 MSTORE DUP3 MLOAD DUP1 DUP4 SUB SWAP1 SWAP2 ADD DUP2 MSTORE PUSH1 0x44 SWAP1 SWAP2 ADD DUP3 MSTORE PUSH1 0x20 DUP2 ADD DUP1 MLOAD PUSH28 0xFFFFFFFFFFFFFFFFFFFFFFFFFFFFFFFFFFFFFFFFFFFFFFFFFFFFFFFF AND PUSH32 0x70A0823100000000000000000000000000000000000000000000000000000000 OR DUP2 MSTORE SWAP2 MLOAD DUP2 MLOAD PUSH1 0x0 SWAP4 DUP5 SWAP4 DUP5 SWAP4 PUSH1 0x1 PUSH1 0x1 PUSH1 0xA0 SHL SUB PUSH32 0x0 AND SWAP4 SWAP2 SWAP3 SWAP1 SWAP2 DUP3 SWAP2 SWAP1 DUP1 DUP4 DUP4 JUMPDEST PUSH1 0x20 DUP4 LT PUSH2 0x47E5 JUMPI DUP1 MLOAD DUP3 MSTORE PUSH32 0xFFFFFFFFFFFFFFFFFFFFFFFFFFFFFFFFFFFFFFFFFFFFFFFFFFFFFFFFFFFFFFE0 SWAP1 SWAP3 ADD SWAP2 PUSH1 0x20 SWAP2 DUP3 ADD SWAP2 ADD PUSH2 0x47A8 JUMP JUMPDEST PUSH1 0x1 DUP4 PUSH1 0x20 SUB PUSH2 0x100 EXP SUB DUP1 NOT DUP3 MLOAD AND DUP2 DUP5 MLOAD AND DUP1 DUP3 OR DUP6 MSTORE POP POP POP POP POP POP SWAP1 POP ADD SWAP2 POP POP PUSH1 0x0 PUSH1 0x40 MLOAD DUP1 DUP4 SUB DUP2 DUP6 GAS STATICCALL SWAP2 POP POP RETURNDATASIZE DUP1 PUSH1 0x0 DUP2 EQ PUSH2 0x4845 JUMPI PUSH1 0x40 MLOAD SWAP2 POP PUSH1 0x1F NOT PUSH1 0x3F RETURNDATASIZE ADD AND DUP3 ADD PUSH1 0x40 MSTORE RETURNDATASIZE DUP3 MSTORE RETURNDATASIZE PUSH1 0x0 PUSH1 0x20 DUP5 ADD RETURNDATACOPY PUSH2 0x484A JUMP JUMPDEST PUSH1 0x60 SWAP2 POP JUMPDEST POP SWAP2 POP SWAP2 POP DUP2 DUP1 ISZERO PUSH2 0x485E JUMPI POP PUSH1 0x20 DUP2 MLOAD LT ISZERO JUMPDEST PUSH2 0x4867 JUMPI PUSH1 0x0 DUP1 REVERT JUMPDEST DUP1 DUP1 PUSH1 0x20 ADD SWAP1 MLOAD PUSH1 0x20 DUP2 LT ISZERO PUSH2 0x487C JUMPI PUSH1 0x0 DUP1 REVERT JUMPDEST POP MLOAD SWAP3 POP POP POP SWAP1 JUMP JUMPDEST DUP1 DUP3 ADD DUP3 DUP2 LT ISZERO PUSH2 0x3BE8 JUMPI PUSH1 0x0 DUP1 REVERT JUMPDEST PUSH1 0x40 DUP1 MLOAD ADDRESS PUSH1 0x24 DUP1 DUP4 ADD SWAP2 SWAP1 SWAP2 MSTORE DUP3 MLOAD DUP1 DUP4 SUB SWAP1 SWAP2 ADD DUP2 MSTORE PUSH1 0x44 SWAP1 SWAP2 ADD DUP3 MSTORE PUSH1 0x20 DUP2 ADD DUP1 MLOAD PUSH28 0xFFFFFFFFFFFFFFFFFFFFFFFFFFFFFFFFFFFFFFFFFFFFFFFFFFFFFFFF AND PUSH32 0x70A0823100000000000000000000000000000000000000000000000000000000 OR DUP2 MSTORE SWAP2 MLOAD DUP2 MLOAD PUSH1 0x0 SWAP4 DUP5 SWAP4 DUP5 SWAP4 PUSH1 0x1 PUSH1 0x1 PUSH1 0xA0 SHL SUB PUSH32 0x0 AND SWAP4 SWAP2 SWAP3 SWAP1 SWAP2 DUP3 SWAP2 SWAP1 DUP1 DUP4 DUP4 PUSH1 0x20 DUP4 LT PUSH2 0x47E5 JUMPI DUP1 MLOAD DUP3 MSTORE PUSH32 0xFFFFFFFFFFFFFFFFFFFFFFFFFFFFFFFFFFFFFFFFFFFFFFFFFFFFFFFFFFFFFFE0 SWAP1 SWAP3 ADD SWAP2 PUSH1 0x20 SWAP2 DUP3 ADD SWAP2 ADD PUSH2 0x47A8 JUMP JUMPDEST PUSH1 0x0 DUP1 DUP4 PUSH2 0xFFFF AND GT PUSH2 0x498B JUMPI PUSH1 0x0 DUP1 REVERT JUMPDEST DUP3 PUSH2 0xFFFF AND DUP3 PUSH2 0xFFFF AND GT PUSH2 0x49A1 JUMPI POP DUP2 PUSH2 0x3CCB JUMP JUMPDEST DUP3 JUMPDEST DUP3 PUSH2 0xFFFF AND DUP2 PUSH2 0xFFFF AND LT ISZERO PUSH2 0x4A02 JUMPI PUSH1 0x1 DUP6 DUP3 PUSH2 0xFFFF AND PUSH2 0xFFFF DUP2 LT PUSH2 0x49C6 JUMPI INVALID JUMPDEST ADD DUP1 SLOAD PUSH32 0xFFFFFFFFFFFFFFFFFFFFFFFFFFFFFFFFFFFFFFFFFFFFFFFFFFFFFFFF00000000 AND PUSH4 0xFFFFFFFF SWAP3 SWAP1 SWAP3 AND SWAP2 SWAP1 SWAP2 OR SWAP1 SSTORE PUSH1 0x1 ADD PUSH2 0x49A3 JUMP JUMPDEST POP SWAP1 SWAP4 SWAP3 POP POP POP JUMP JUMPDEST DUP1 PUSH1 0xF DUP2 SWAP1 SIGNEXTEND DUP2 EQ PUSH2 0x34BF JUMPI PUSH1 0x0 DUP1 REVERT JUMPDEST PUSH1 0x0 DUP1 PUSH1 0x0 PUSH2 0x4A29 PUSH2 0x34C4 JUMP JUMPDEST PUSH2 0x4A3B DUP5 PUSH1 0x20 ADD MLOAD DUP6 PUSH1 0x40 ADD MLOAD PUSH2 0x4F69 JUMP JUMPDEST PUSH1 0x40 DUP1 MLOAD PUSH1 0xE0 DUP2 ADD DUP3 MSTORE PUSH1 0x0 SLOAD PUSH1 0x1 PUSH1 0x1 PUSH1 0xA0 SHL SUB DUP2 AND DUP3 MSTORE PUSH21 0x10000000000000000000000000000000000000000 DUP2 DIV PUSH1 0x2 SWAP1 DUP2 SIGNEXTEND DUP2 SIGNEXTEND SWAP1 SIGNEXTEND PUSH1 0x20 DUP1 DUP5 ADD DUP3 SWAP1 MSTORE PUSH2 0xFFFF PUSH24 0x10000000000000000000000000000000000000000000000 DUP5 DIV DUP2 AND DUP6 DUP8 ADD MSTORE PUSH26 0x100000000000000000000000000000000000000000000000000 DUP5 DIV DUP2 AND PUSH1 0x60 DUP1 DUP8 ADD SWAP2 SWAP1 SWAP2 MSTORE PUSH28 0x1000000000000000000000000000000000000000000000000000000 DUP6 DIV SWAP1 SWAP2 AND PUSH1 0x80 DUP7 ADD MSTORE PUSH1 0xFF PUSH30 0x10000000000000000000000000000000000000000000000000000000000 DUP6 DIV DUP2 AND PUSH1 0xA0 DUP8 ADD MSTORE PUSH31 0x1000000000000000000000000000000000000000000000000000000000000 SWAP1 SWAP5 DIV SWAP1 SWAP4 AND ISZERO ISZERO PUSH1 0xC0 DUP6 ADD MSTORE DUP9 MLOAD SWAP1 DUP10 ADD MLOAD SWAP5 DUP10 ADD MLOAD SWAP3 DUP10 ADD MLOAD SWAP4 SWAP5 PUSH2 0x4B67 SWAP5 SWAP2 SWAP4 SWAP1 SWAP3 SWAP1 SWAP2 SWAP1 PUSH2 0x57EC JUMP JUMPDEST SWAP4 POP DUP5 PUSH1 0x60 ADD MLOAD PUSH1 0xF SIGNEXTEND PUSH1 0x0 EQ PUSH2 0x4D64 JUMPI DUP5 PUSH1 0x20 ADD MLOAD PUSH1 0x2 SIGNEXTEND DUP2 PUSH1 0x20 ADD MLOAD PUSH1 0x2 SIGNEXTEND SLT ISZERO PUSH2 0x4BBC JUMPI PUSH2 0x4BB5 PUSH2 0x4B9E DUP7 PUSH1 0x20 ADD MLOAD PUSH2 0x367D JUMP JUMPDEST PUSH2 0x4BAB DUP8 PUSH1 0x40 ADD MLOAD PUSH2 0x367D JUMP JUMPDEST DUP8 PUSH1 0x60 ADD MLOAD PUSH2 0x59E5 JUMP JUMPDEST SWAP3 POP PUSH2 0x4D64 JUMP JUMPDEST DUP5 PUSH1 0x40 ADD MLOAD PUSH1 0x2 SIGNEXTEND DUP2 PUSH1 0x20 ADD MLOAD PUSH1 0x2 SIGNEXTEND SLT ISZERO PUSH2 0x4D3A JUMPI PUSH1 0x4 SLOAD PUSH1 0x40 DUP3 ADD MLOAD PUSH16 0xFFFFFFFFFFFFFFFFFFFFFFFFFFFFFFFF SWAP1 SWAP2 AND SWAP1 PUSH2 0x4C17 SWAP1 PUSH2 0x4BFB PUSH2 0x34FB JUMP JUMPDEST PUSH1 0x20 DUP6 ADD MLOAD PUSH1 0x60 DUP7 ADD MLOAD PUSH1 0x80 DUP8 ADD MLOAD PUSH1 0x8 SWAP5 SWAP4 SWAP3 SWAP2 DUP8 SWAP2 PUSH2 0x4367 JUMP JUMPDEST PUSH1 0x0 DUP1 SLOAD PUSH32 0xFFFFFFFFFF0000FFFFFFFFFFFFFFFFFFFFFFFFFFFFFFFFFFFFFFFFFFFFFFFFFF AND PUSH26 0x100000000000000000000000000000000000000000000000000 PUSH2 0xFFFF SWAP4 DUP5 AND MUL OR PUSH32 0xFFFFFFFFFFFFFF0000FFFFFFFFFFFFFFFFFFFFFFFFFFFFFFFFFFFFFFFFFFFFFF AND PUSH24 0x10000000000000000000000000000000000000000000000 SWAP4 SWAP1 SWAP3 AND SWAP3 SWAP1 SWAP3 MUL OR SWAP1 SSTORE DUP2 MLOAD PUSH1 0x40 DUP8 ADD MLOAD PUSH2 0x4CC5 SWAP2 SWAP1 PUSH2 0x4CBB SWAP1 PUSH2 0x367D JUMP JUMPDEST DUP9 PUSH1 0x60 ADD MLOAD PUSH2 0x59E5 JUMP JUMPDEST SWAP4 POP PUSH2 0x4CE3 PUSH2 0x4CD7 DUP8 PUSH1 0x20 ADD MLOAD PUSH2 0x367D JUMP JUMPDEST DUP4 MLOAD PUSH1 0x60 DUP10 ADD MLOAD PUSH2 0x5A29 JUMP JUMPDEST SWAP3 POP PUSH2 0x4CF3 DUP2 DUP8 PUSH1 0x60 ADD MLOAD PUSH2 0x3FB1 JUMP JUMPDEST PUSH1 0x4 DUP1 SLOAD PUSH32 0xFFFFFFFFFFFFFFFFFFFFFFFFFFFFFFFF00000000000000000000000000000000 AND PUSH16 0xFFFFFFFFFFFFFFFFFFFFFFFFFFFFFFFF SWAP3 SWAP1 SWAP3 AND SWAP2 SWAP1 SWAP2 OR SWAP1 SSTORE POP PUSH2 0x4D64 JUMP JUMPDEST PUSH2 0x4D61 PUSH2 0x4D4A DUP7 PUSH1 0x20 ADD MLOAD PUSH2 0x367D JUMP JUMPDEST PUSH2 0x4D57 DUP8 PUSH1 0x40 ADD MLOAD PUSH2 0x367D JUMP JUMPDEST DUP8 PUSH1 0x60 ADD MLOAD PUSH2 0x5A29 JUMP JUMPDEST SWAP2 POP JUMPDEST POP SWAP2 SWAP4 SWAP1 SWAP3 POP JUMP JUMPDEST PUSH1 0x0 PUSH2 0x4D79 DUP5 DUP5 DUP5 PUSH2 0x3C04 JUMP JUMPDEST SWAP1 POP PUSH1 0x0 DUP3 DUP1 PUSH2 0x4D85 JUMPI INVALID JUMPDEST DUP5 DUP7 MULMOD GT ISZERO PUSH2 0x3CCB JUMPI PUSH32 0xFFFFFFFFFFFFFFFFFFFFFFFFFFFFFFFFFFFFFFFFFFFFFFFFFFFFFFFFFFFFFFFF DUP2 LT PUSH2 0x4DBA JUMPI PUSH1 0x0 DUP1 REVERT JUMPDEST PUSH1 0x1 ADD SWAP4 SWAP3 POP POP POP JUMP JUMPDEST PUSH1 0x40 DUP1 MLOAD PUSH1 0x60 SWAP5 SWAP1 SWAP5 SHL PUSH32 0xFFFFFFFFFFFFFFFFFFFFFFFFFFFFFFFFFFFFFFFF000000000000000000000000 AND PUSH1 0x20 DUP1 DUP7 ADD SWAP2 SWAP1 SWAP2 MSTORE PUSH1 0x2 SWAP4 DUP5 SIGNEXTEND PUSH1 0xE8 SWAP1 DUP2 SHL PUSH1 0x34 DUP8 ADD MSTORE SWAP3 SWAP1 SWAP4 SIGNEXTEND SWAP1 SWAP2 SHL PUSH1 0x37 DUP5 ADD MSTORE DUP1 MLOAD DUP1 DUP5 SUB PUSH1 0x1A ADD DUP2 MSTORE PUSH1 0x3A SWAP1 SWAP4 ADD DUP2 MSTORE DUP3 MLOAD SWAP3 DUP3 ADD SWAP3 SWAP1 SWAP3 KECCAK256 PUSH1 0x0 SWAP1 DUP2 MSTORE SWAP3 SWAP1 MSTORE SWAP1 KECCAK256 SWAP1 JUMP JUMPDEST PUSH1 0x60 DUP1 PUSH1 0x0 DUP4 PUSH2 0xFFFF AND GT PUSH2 0x4E4F JUMPI PUSH1 0x0 DUP1 REVERT JUMPDEST DUP7 MLOAD PUSH8 0xFFFFFFFFFFFFFFFF DUP2 GT DUP1 ISZERO PUSH2 0x4E67 JUMPI PUSH1 0x0 DUP1 REVERT JUMPDEST POP PUSH1 0x40 MLOAD SWAP1 DUP1 DUP3 MSTORE DUP1 PUSH1 0x20 MUL PUSH1 0x20 ADD DUP3 ADD PUSH1 0x40 MSTORE DUP1 ISZERO PUSH2 0x4E91 JUMPI DUP2 PUSH1 0x20 ADD PUSH1 0x20 DUP3 MUL DUP1 CALLDATASIZE DUP4 CALLDATACOPY ADD SWAP1 POP JUMPDEST POP SWAP2 POP DUP7 MLOAD PUSH8 0xFFFFFFFFFFFFFFFF DUP2 GT DUP1 ISZERO PUSH2 0x4EAC JUMPI PUSH1 0x0 DUP1 REVERT JUMPDEST POP PUSH1 0x40 MLOAD SWAP1 DUP1 DUP3 MSTORE DUP1 PUSH1 0x20 MUL PUSH1 0x20 ADD DUP3 ADD PUSH1 0x40 MSTORE DUP1 ISZERO PUSH2 0x4ED6 JUMPI DUP2 PUSH1 0x20 ADD PUSH1 0x20 DUP3 MUL DUP1 CALLDATASIZE DUP4 CALLDATACOPY ADD SWAP1 POP JUMPDEST POP SWAP1 POP PUSH1 0x0 JUMPDEST DUP8 MLOAD DUP2 LT ISZERO PUSH2 0x4F5C JUMPI PUSH2 0x4F07 DUP11 DUP11 DUP11 DUP5 DUP2 MLOAD DUP2 LT PUSH2 0x4EF6 JUMPI INVALID JUMPDEST PUSH1 0x20 MUL PUSH1 0x20 ADD ADD MLOAD DUP11 DUP11 DUP11 DUP11 PUSH2 0x3CD2 JUMP JUMPDEST DUP5 DUP4 DUP2 MLOAD DUP2 LT PUSH2 0x4F13 JUMPI INVALID JUMPDEST PUSH1 0x20 MUL PUSH1 0x20 ADD ADD DUP5 DUP5 DUP2 MLOAD DUP2 LT PUSH2 0x4F26 JUMPI INVALID JUMPDEST PUSH1 0x20 MUL PUSH1 0x20 ADD ADD DUP3 PUSH1 0x1 PUSH1 0x1 PUSH1 0xA0 SHL SUB AND PUSH1 0x1 PUSH1 0x1 PUSH1 0xA0 SHL SUB AND DUP2 MSTORE POP DUP3 PUSH1 0x6 SIGNEXTEND PUSH1 0x6 SIGNEXTEND DUP2 MSTORE POP POP POP DUP1 DUP1 PUSH1 0x1 ADD SWAP2 POP POP PUSH2 0x4EDC JUMP JUMPDEST POP SWAP8 POP SWAP8 SWAP6 POP POP POP POP POP POP JUMP JUMPDEST DUP1 PUSH1 0x2 SIGNEXTEND DUP3 PUSH1 0x2 SIGNEXTEND SLT PUSH2 0x4F7B JUMPI PUSH1 0x0 DUP1 REVERT JUMPDEST PUSH32 0xFFFFFFFFFFFFFFFFFFFFFFFFFFFFFFFFFFFFFFFFFFFFFFFFFFFFFFFFFFF27618 PUSH1 0x2 DUP4 SWAP1 SIGNEXTEND SLT ISZERO PUSH2 0x4FAC JUMPI PUSH1 0x0 DUP1 REVERT JUMPDEST PUSH3 0xD89E8 PUSH1 0x2 DUP3 SWAP1 SIGNEXTEND SGT ISZERO PUSH2 0x4FC0 JUMPI PUSH1 0x0 DUP1 REVERT JUMPDEST POP POP JUMP JUMPDEST PUSH1 0x40 DUP1 MLOAD PUSH1 0x80 DUP2 ADD DUP3 MSTORE PUSH4 0xFFFFFFFF SWAP3 DUP4 AND DUP1 DUP3 MSTORE PUSH1 0x0 PUSH1 0x20 DUP4 ADD DUP2 SWAP1 MSTORE SWAP3 DUP3 ADD SWAP3 SWAP1 SWAP3 MSTORE PUSH1 0x1 PUSH1 0x60 SWAP1 SWAP2 ADD DUP2 SWAP1 MSTORE DUP4 SLOAD PUSH32 0xFFFFFFFFFFFFFFFFFFFFFFFFFFFFFFFFFFFFFFFFFFFFFFFFFFFFFFFF00000000 AND SWAP1 SWAP2 OR SWAP1 SWAP2 AND PUSH32 0x100000000000000000000000000000000000000000000000000000000000000 OR SWAP1 SWAP2 SSTORE SWAP1 DUP2 SWAP1 JUMP JUMPDEST PUSH1 0x2 SIGNEXTEND PUSH1 0x8 DUP2 SWAP1 SAR SWAP2 PUSH2 0x100 SWAP1 SWAP2 SMOD SWAP1 JUMP JUMPDEST PUSH1 0x0 DUP1 DUP3 GT PUSH2 0x5067 JUMPI PUSH1 0x0 DUP1 REVERT JUMPDEST PUSH17 0x100000000000000000000000000000000 DUP3 LT PUSH2 0x5087 JUMPI PUSH1 0x80 SWAP2 DUP3 SHR SWAP2 ADD JUMPDEST PUSH9 0x10000000000000000 DUP3 LT PUSH2 0x509F JUMPI PUSH1 0x40 SWAP2 DUP3 SHR SWAP2 ADD JUMPDEST PUSH5 0x100000000 DUP3 LT PUSH2 0x50B3 JUMPI PUSH1 0x20 SWAP2 DUP3 SHR SWAP2 ADD JUMPDEST PUSH3 0x10000 DUP3 LT PUSH2 0x50C5 JUMPI PUSH1 0x10 SWAP2 DUP3 SHR SWAP2 ADD JUMPDEST PUSH2 0x100 DUP3 LT PUSH2 0x50D6 JUMPI PUSH1 0x8 SWAP2 DUP3 SHR SWAP2 ADD JUMPDEST PUSH1 0x10 DUP3 LT PUSH2 0x50E6 JUMPI PUSH1 0x4 SWAP2 DUP3 SHR SWAP2 ADD JUMPDEST PUSH1 0x4 DUP3 LT PUSH2 0x50F6 JUMPI PUSH1 0x2 SWAP2 DUP3 SHR SWAP2 ADD JUMPDEST PUSH1 0x2 DUP3 LT PUSH2 0x34BF JUMPI PUSH1 0x1 ADD SWAP2 SWAP1 POP JUMP JUMPDEST PUSH1 0x0 DUP1 DUP3 GT PUSH2 0x5114 JUMPI PUSH1 0x0 DUP1 REVERT JUMPDEST POP PUSH1 0xFF PUSH16 0xFFFFFFFFFFFFFFFFFFFFFFFFFFFFFFFF DUP3 AND ISZERO PUSH2 0x5156 JUMPI PUSH32 0xFFFFFFFFFFFFFFFFFFFFFFFFFFFFFFFFFFFFFFFFFFFFFFFFFFFFFFFFFFFFFF80 ADD PUSH2 0x515E JUMP JUMPDEST PUSH1 0x80 DUP3 SWAP1 SHR SWAP2 POP JUMPDEST PUSH8 0xFFFFFFFFFFFFFFFF DUP3 AND ISZERO PUSH2 0x5195 JUMPI PUSH32 0xFFFFFFFFFFFFFFFFFFFFFFFFFFFFFFFFFFFFFFFFFFFFFFFFFFFFFFFFFFFFFFC0 ADD PUSH2 0x519D JUMP JUMPDEST PUSH1 0x40 DUP3 SWAP1 SHR SWAP2 POP JUMPDEST PUSH4 0xFFFFFFFF DUP3 AND ISZERO PUSH2 0x51D0 JUMPI PUSH32 0xFFFFFFFFFFFFFFFFFFFFFFFFFFFFFFFFFFFFFFFFFFFFFFFFFFFFFFFFFFFFFFE0 ADD PUSH2 0x51D8 JUMP JUMPDEST PUSH1 0x20 DUP3 SWAP1 SHR SWAP2 POP JUMPDEST PUSH2 0xFFFF DUP3 AND ISZERO PUSH2 0x5209 JUMPI PUSH32 0xFFFFFFFFFFFFFFFFFFFFFFFFFFFFFFFFFFFFFFFFFFFFFFFFFFFFFFFFFFFFFFF0 ADD PUSH2 0x5211 JUMP JUMPDEST PUSH1 0x10 DUP3 SWAP1 SHR SWAP2 POP JUMPDEST PUSH1 0xFF DUP3 AND ISZERO PUSH2 0x5241 JUMPI PUSH32 0xFFFFFFFFFFFFFFFFFFFFFFFFFFFFFFFFFFFFFFFFFFFFFFFFFFFFFFFFFFFFFFF8 ADD PUSH2 0x5249 JUMP JUMPDEST PUSH1 0x8 DUP3 SWAP1 SHR SWAP2 POP JUMPDEST PUSH1 0xF DUP3 AND ISZERO PUSH2 0x5279 JUMPI PUSH32 0xFFFFFFFFFFFFFFFFFFFFFFFFFFFFFFFFFFFFFFFFFFFFFFFFFFFFFFFFFFFFFFFC ADD PUSH2 0x5281 JUMP JUMPDEST PUSH1 0x4 DUP3 SWAP1 SHR SWAP2 POP JUMPDEST PUSH1 0x3 DUP3 AND ISZERO PUSH2 0x52B1 JUMPI PUSH32 0xFFFFFFFFFFFFFFFFFFFFFFFFFFFFFFFFFFFFFFFFFFFFFFFFFFFFFFFFFFFFFFFE ADD PUSH2 0x52B9 JUMP JUMPDEST PUSH1 0x2 DUP3 SWAP1 SHR SWAP2 POP JUMPDEST PUSH1 0x1 DUP3 AND ISZERO PUSH2 0x34BF JUMPI PUSH32 0xFFFFFFFFFFFFFFFFFFFFFFFFFFFFFFFFFFFFFFFFFFFFFFFFFFFFFFFFFFFFFFFF ADD SWAP2 SWAP1 POP JUMP JUMPDEST PUSH1 0x0 DUP4 PUSH1 0x1 PUSH1 0x1 PUSH1 0xA0 SHL SUB AND DUP6 PUSH1 0x1 PUSH1 0x1 PUSH1 0xA0 SHL SUB AND GT ISZERO PUSH2 0x5309 JUMPI SWAP3 SWAP4 SWAP3 JUMPDEST DUP2 PUSH2 0x5348 JUMPI PUSH2 0x5343 DUP4 PUSH16 0xFFFFFFFFFFFFFFFFFFFFFFFFFFFFFFFF AND DUP7 DUP7 SUB PUSH1 0x1 PUSH1 0x1 PUSH1 0xA0 SHL SUB AND PUSH13 0x1000000000000000000000000 PUSH2 0x3C04 JUMP JUMPDEST PUSH2 0x537D JUMP JUMPDEST PUSH2 0x537D DUP4 PUSH16 0xFFFFFFFFFFFFFFFFFFFFFFFFFFFFFFFF AND DUP7 DUP7 SUB PUSH1 0x1 PUSH1 0x1 PUSH1 0xA0 SHL SUB AND PUSH13 0x1000000000000000000000000 PUSH2 0x4D6C JUMP JUMPDEST SWAP1 POP JUMPDEST SWAP5 SWAP4 POP POP POP POP JUMP JUMPDEST PUSH1 0x0 DUP4 PUSH1 0x1 PUSH1 0x1 PUSH1 0xA0 SHL SUB AND DUP6 PUSH1 0x1 PUSH1 0x1 PUSH1 0xA0 SHL SUB AND GT ISZERO PUSH2 0x53A8 JUMPI SWAP3 SWAP4 SWAP3 JUMPDEST PUSH28 0xFFFFFFFFFFFFFFFFFFFFFFFFFFFFFFFF000000000000000000000000 PUSH1 0x60 DUP5 SWAP1 SHL AND PUSH1 0x1 PUSH1 0x1 PUSH1 0xA0 SHL SUB DUP7 DUP7 SUB DUP2 AND SWAP1 DUP8 AND PUSH2 0x53E4 JUMPI PUSH1 0x0 DUP1 REVERT JUMPDEST DUP4 PUSH2 0x5414 JUMPI DUP7 PUSH1 0x1 PUSH1 0x1 PUSH1 0xA0 SHL SUB AND PUSH2 0x5407 DUP4 DUP4 DUP10 PUSH1 0x1 PUSH1 0x1 PUSH1 0xA0 SHL SUB AND PUSH2 0x3C04 JUMP JUMPDEST DUP2 PUSH2 0x540E JUMPI INVALID JUMPDEST DIV PUSH2 0x543A JUMP JUMPDEST PUSH2 0x543A PUSH2 0x542B DUP4 DUP4 DUP10 PUSH1 0x1 PUSH1 0x1 PUSH1 0xA0 SHL SUB AND PUSH2 0x4D6C JUMP JUMPDEST DUP9 PUSH1 0x1 PUSH1 0x1 PUSH1 0xA0 SHL SUB AND PUSH2 0x5A58 JUMP JUMPDEST SWAP8 SWAP7 POP POP POP POP POP POP POP JUMP JUMPDEST PUSH1 0x0 DUP1 DUP6 PUSH1 0x1 PUSH1 0x1 PUSH1 0xA0 SHL SUB AND GT PUSH2 0x545C JUMPI PUSH1 0x0 DUP1 REVERT JUMPDEST PUSH1 0x0 DUP5 PUSH16 0xFFFFFFFFFFFFFFFFFFFFFFFFFFFFFFFF AND GT PUSH2 0x547B JUMPI PUSH1 0x0 DUP1 REVERT JUMPDEST DUP2 PUSH2 0x548D JUMPI PUSH2 0x5343 DUP6 DUP6 DUP6 PUSH1 0x1 PUSH2 0x5A63 JUMP JUMPDEST PUSH2 0x537D DUP6 DUP6 DUP6 PUSH1 0x1 PUSH2 0x5B7A JUMP JUMPDEST PUSH1 0x0 DUP1 DUP6 PUSH1 0x1 PUSH1 0x1 PUSH1 0xA0 SHL SUB AND GT PUSH2 0x54B1 JUMPI PUSH1 0x0 DUP1 REVERT JUMPDEST PUSH1 0x0 DUP5 PUSH16 0xFFFFFFFFFFFFFFFFFFFFFFFFFFFFFFFF AND GT PUSH2 0x54D0 JUMPI PUSH1 0x0 DUP1 REVERT JUMPDEST DUP2 PUSH2 0x54E2 JUMPI PUSH2 0x5343 DUP6 DUP6 DUP6 PUSH1 0x0 PUSH2 0x5B7A JUMP JUMPDEST PUSH2 0x537D DUP6 DUP6 DUP6 PUSH1 0x0 PUSH2 0x5A63 JUMP JUMPDEST PUSH2 0x54F7 PUSH2 0x6554 JUMP JUMPDEST PUSH1 0x0 DUP6 PUSH1 0x0 ADD MLOAD DUP6 SUB SWAP1 POP PUSH1 0x40 MLOAD DUP1 PUSH1 0x80 ADD PUSH1 0x40 MSTORE DUP1 DUP7 PUSH4 0xFFFFFFFF AND DUP2 MSTORE PUSH1 0x20 ADD DUP3 PUSH4 0xFFFFFFFF AND DUP7 PUSH1 0x2 SIGNEXTEND MUL DUP9 PUSH1 0x20 ADD MLOAD ADD PUSH1 0x6 SIGNEXTEND DUP2 MSTORE PUSH1 0x20 ADD PUSH1 0x0 DUP6 PUSH16 0xFFFFFFFFFFFFFFFFFFFFFFFFFFFFFFFF AND GT PUSH2 0x5554 JUMPI PUSH1 0x1 PUSH2 0x5556 JUMP JUMPDEST DUP5 JUMPDEST PUSH16 0xFFFFFFFFFFFFFFFFFFFFFFFFFFFFFFFF AND PUSH20 0xFFFFFFFF00000000000000000000000000000000 PUSH1 0x80 DUP6 SWAP1 SHL AND DUP2 PUSH2 0x558A JUMPI INVALID JUMPDEST DIV DUP9 PUSH1 0x40 ADD MLOAD ADD PUSH1 0x1 PUSH1 0x1 PUSH1 0xA0 SHL SUB AND DUP2 MSTORE PUSH1 0x20 ADD PUSH1 0x1 ISZERO ISZERO DUP2 MSTORE POP SWAP2 POP POP SWAP5 SWAP4 POP POP POP POP JUMP JUMPDEST PUSH2 0x55B9 PUSH2 0x6554 JUMP JUMPDEST PUSH2 0x55C1 PUSH2 0x6554 JUMP JUMPDEST DUP9 DUP6 PUSH2 0xFFFF AND PUSH2 0xFFFF DUP2 LT PUSH2 0x55D2 JUMPI INVALID JUMPDEST PUSH1 0x40 DUP1 MLOAD PUSH1 0x80 DUP2 ADD DUP3 MSTORE SWAP2 SWAP1 SWAP3 ADD SLOAD PUSH4 0xFFFFFFFF DUP2 AND DUP1 DUP4 MSTORE PUSH5 0x100000000 DUP3 DIV PUSH1 0x6 SWAP1 DUP2 SIGNEXTEND DUP2 SIGNEXTEND SWAP1 SIGNEXTEND PUSH1 0x20 DUP5 ADD MSTORE PUSH12 0x10000000000000000000000 DUP3 DIV PUSH1 0x1 PUSH1 0x1 PUSH1 0xA0 SHL SUB AND SWAP4 DUP4 ADD SWAP4 SWAP1 SWAP4 MSTORE PUSH32 0x100000000000000000000000000000000000000000000000000000000000000 SWAP1 DIV PUSH1 0xFF AND ISZERO ISZERO PUSH1 0x60 DUP3 ADD MSTORE SWAP3 POP PUSH2 0x565B SWAP1 DUP10 SWAP1 DUP10 PUSH2 0x5C6F JUMP JUMPDEST ISZERO PUSH2 0x5693 JUMPI DUP7 PUSH4 0xFFFFFFFF AND DUP3 PUSH1 0x0 ADD MLOAD PUSH4 0xFFFFFFFF AND EQ ISZERO PUSH2 0x567D JUMPI PUSH2 0x3E7D JUMP JUMPDEST DUP2 PUSH2 0x568A DUP4 DUP10 DUP10 DUP9 PUSH2 0x54EF JUMP JUMPDEST SWAP2 POP SWAP2 POP PUSH2 0x3E7D JUMP JUMPDEST DUP9 DUP4 PUSH2 0xFFFF AND DUP7 PUSH1 0x1 ADD PUSH2 0xFFFF AND DUP2 PUSH2 0x56A8 JUMPI INVALID JUMPDEST MOD PUSH2 0xFFFF AND PUSH2 0xFFFF DUP2 LT PUSH2 0x56B8 JUMPI INVALID JUMPDEST PUSH1 0x40 DUP1 MLOAD PUSH1 0x80 DUP2 ADD DUP3 MSTORE SWAP3 SWAP1 SWAP2 ADD SLOAD PUSH4 0xFFFFFFFF DUP2 AND DUP4 MSTORE PUSH5 0x100000000 DUP2 DIV PUSH1 0x6 SWAP1 DUP2 SIGNEXTEND DUP2 SIGNEXTEND SWAP1 SIGNEXTEND PUSH1 0x20 DUP5 ADD MSTORE PUSH1 0x1 PUSH1 0x1 PUSH1 0xA0 SHL SUB PUSH12 0x10000000000000000000000 DUP3 DIV AND SWAP2 DUP4 ADD SWAP2 SWAP1 SWAP2 MSTORE PUSH1 0xFF PUSH32 0x100000000000000000000000000000000000000000000000000000000000000 SWAP1 SWAP2 DIV AND ISZERO ISZERO PUSH1 0x60 DUP3 ADD DUP2 SWAP1 MSTORE SWAP1 SWAP3 POP PUSH2 0x57B7 JUMPI PUSH1 0x40 DUP1 MLOAD PUSH1 0x80 DUP2 ADD DUP3 MSTORE DUP11 SLOAD PUSH4 0xFFFFFFFF DUP2 AND DUP3 MSTORE PUSH5 0x100000000 DUP2 DIV PUSH1 0x6 SWAP1 DUP2 SIGNEXTEND DUP2 SIGNEXTEND SWAP1 SIGNEXTEND PUSH1 0x20 DUP4 ADD MSTORE PUSH12 0x10000000000000000000000 DUP2 DIV PUSH1 0x1 PUSH1 0x1 PUSH1 0xA0 SHL SUB AND SWAP3 DUP3 ADD SWAP3 SWAP1 SWAP3 MSTORE PUSH32 0x100000000000000000000000000000000000000000000000000000000000000 SWAP1 SWAP2 DIV PUSH1 0xFF AND ISZERO ISZERO PUSH1 0x60 DUP3 ADD MSTORE SWAP2 POP JUMPDEST PUSH2 0x57C6 DUP9 DUP4 PUSH1 0x0 ADD MLOAD DUP10 PUSH2 0x5C6F JUMP JUMPDEST PUSH2 0x57CF JUMPI PUSH1 0x0 DUP1 REVERT JUMPDEST PUSH2 0x57DC DUP10 DUP10 DUP10 DUP9 DUP8 PUSH2 0x5D32 JUMP JUMPDEST SWAP2 POP SWAP2 POP SWAP8 POP SWAP8 SWAP6 POP POP POP POP POP POP JUMP JUMPDEST PUSH1 0x0 PUSH2 0x57FB PUSH1 0x7 DUP8 DUP8 DUP8 PUSH2 0x4DC4 JUMP JUMPDEST PUSH1 0x1 SLOAD PUSH1 0x2 SLOAD SWAP2 SWAP3 POP SWAP1 PUSH1 0x0 DUP1 PUSH1 0xF DUP8 SWAP1 SIGNEXTEND ISZERO PUSH2 0x5985 JUMPI PUSH1 0x0 PUSH2 0x581C PUSH2 0x34FB JUMP JUMPDEST PUSH1 0x0 DUP1 SLOAD PUSH1 0x4 SLOAD SWAP3 SWAP4 POP SWAP1 SWAP2 DUP3 SWAP2 PUSH2 0x58AA SWAP2 PUSH1 0x8 SWAP2 DUP7 SWAP2 DUP6 SWAP2 PUSH21 0x10000000000000000000000000000000000000000 DUP2 DIV PUSH1 0x2 SIGNEXTEND SWAP2 PUSH2 0xFFFF PUSH24 0x10000000000000000000000000000000000000000000000 DUP4 DIV DUP2 AND SWAP3 PUSH16 0xFFFFFFFFFFFFFFFFFFFFFFFFFFFFFFFF SWAP1 SWAP3 AND SWAP2 PUSH26 0x100000000000000000000000000000000000000000000000000 SWAP1 DIV AND PUSH2 0x3CD2 JUMP JUMPDEST SWAP1 SWAP3 POP SWAP1 POP PUSH2 0x58E4 PUSH1 0x5 DUP14 DUP12 DUP14 DUP12 DUP12 DUP8 DUP10 DUP12 PUSH1 0x0 PUSH32 0x0 PUSH2 0x5F1A JUMP JUMPDEST SWAP5 POP PUSH2 0x591B PUSH1 0x5 DUP13 DUP12 DUP14 DUP12 DUP12 DUP8 DUP10 DUP12 PUSH1 0x1 PUSH32 0x0 PUSH2 0x5F1A JUMP JUMPDEST SWAP4 POP DUP5 ISZERO PUSH2 0x594F JUMPI PUSH2 0x594F PUSH1 0x6 DUP14 PUSH32 0x0 PUSH2 0x61B0 JUMP JUMPDEST DUP4 ISZERO PUSH2 0x5981 JUMPI PUSH2 0x5981 PUSH1 0x6 DUP13 PUSH32 0x0 PUSH2 0x61B0 JUMP JUMPDEST POP POP POP JUMPDEST PUSH1 0x0 DUP1 PUSH2 0x5997 PUSH1 0x5 DUP13 DUP13 DUP12 DUP11 DUP11 PUSH2 0x6216 JUMP JUMPDEST SWAP1 SWAP3 POP SWAP1 POP PUSH2 0x59A8 DUP8 DUP11 DUP5 DUP5 PUSH2 0x62C2 JUMP JUMPDEST PUSH1 0x0 DUP10 PUSH1 0xF SIGNEXTEND SLT ISZERO PUSH2 0x59D6 JUMPI DUP4 ISZERO PUSH2 0x59C5 JUMPI PUSH2 0x59C5 PUSH1 0x5 DUP13 PUSH2 0x64D6 JUMP JUMPDEST DUP3 ISZERO PUSH2 0x59D6 JUMPI PUSH2 0x59D6 PUSH1 0x5 DUP12 PUSH2 0x64D6 JUMP JUMPDEST POP POP POP POP POP POP SWAP6 SWAP5 POP POP POP POP POP JUMP JUMPDEST PUSH1 0x0 DUP1 DUP3 PUSH1 0xF SIGNEXTEND SLT PUSH2 0x5A0B JUMPI PUSH2 0x5A06 PUSH2 0x5A01 DUP6 DUP6 DUP6 PUSH1 0x1 PUSH2 0x5388 JUMP JUMPDEST PUSH2 0x3BA0 JUMP JUMPDEST PUSH2 0x5380 JUMP JUMPDEST PUSH2 0x5A1E PUSH2 0x5A01 DUP6 DUP6 DUP6 PUSH1 0x0 SUB PUSH1 0x0 PUSH2 0x5388 JUMP JUMPDEST PUSH1 0x0 SUB SWAP5 SWAP4 POP POP POP POP JUMP JUMPDEST PUSH1 0x0 DUP1 DUP3 PUSH1 0xF SIGNEXTEND SLT PUSH2 0x5A45 JUMPI PUSH2 0x5A06 PUSH2 0x5A01 DUP6 DUP6 DUP6 PUSH1 0x1 PUSH2 0x52E9 JUMP JUMPDEST PUSH2 0x5A1E PUSH2 0x5A01 DUP6 DUP6 DUP6 PUSH1 0x0 SUB PUSH1 0x0 PUSH2 0x52E9 JUMP JUMPDEST DUP1 DUP3 DIV SWAP2 MOD ISZERO ISZERO ADD SWAP1 JUMP JUMPDEST PUSH1 0x0 DUP2 ISZERO PUSH2 0x5AF1 JUMPI PUSH1 0x0 PUSH1 0x1 PUSH1 0x1 PUSH1 0xA0 SHL SUB DUP5 GT ISZERO PUSH2 0x5AAB JUMPI PUSH2 0x5AA6 DUP5 PUSH13 0x1000000000000000000000000 DUP8 PUSH16 0xFFFFFFFFFFFFFFFFFFFFFFFFFFFFFFFF AND PUSH2 0x3C04 JUMP JUMPDEST PUSH2 0x5ACC JUMP JUMPDEST PUSH16 0xFFFFFFFFFFFFFFFFFFFFFFFFFFFFFFFF DUP6 AND PUSH1 0x60 DUP6 SWAP1 SHL DUP2 PUSH2 0x5ACA JUMPI INVALID JUMPDEST DIV JUMPDEST SWAP1 POP PUSH2 0x5AE9 PUSH2 0x5AE4 PUSH1 0x1 PUSH1 0x1 PUSH1 0xA0 SHL SUB DUP9 AND DUP4 PUSH2 0x4885 JUMP JUMPDEST PUSH2 0x6502 JUMP JUMPDEST SWAP2 POP POP PUSH2 0x5380 JUMP JUMPDEST PUSH1 0x0 PUSH1 0x1 PUSH1 0x1 PUSH1 0xA0 SHL SUB DUP5 GT ISZERO PUSH2 0x5B31 JUMPI PUSH2 0x5B2C DUP5 PUSH13 0x1000000000000000000000000 DUP8 PUSH16 0xFFFFFFFFFFFFFFFFFFFFFFFFFFFFFFFF AND PUSH2 0x4D6C JUMP JUMPDEST PUSH2 0x5B51 JUMP JUMPDEST PUSH2 0x5B51 PUSH1 0x60 DUP6 SWAP1 SHL PUSH16 0xFFFFFFFFFFFFFFFFFFFFFFFFFFFFFFFF DUP8 AND PUSH2 0x5A58 JUMP JUMPDEST SWAP1 POP DUP1 DUP7 PUSH1 0x1 PUSH1 0x1 PUSH1 0xA0 SHL SUB AND GT PUSH2 0x5B68 JUMPI PUSH1 0x0 DUP1 REVERT JUMPDEST PUSH1 0x1 PUSH1 0x1 PUSH1 0xA0 SHL SUB DUP7 AND SUB SWAP1 POP PUSH2 0x5380 JUMP JUMPDEST PUSH1 0x0 DUP3 PUSH2 0x5B88 JUMPI POP DUP4 PUSH2 0x5380 JUMP JUMPDEST PUSH28 0xFFFFFFFFFFFFFFFFFFFFFFFFFFFFFFFF000000000000000000000000 PUSH1 0x60 DUP6 SWAP1 SHL AND DUP3 ISZERO PUSH2 0x5C28 JUMPI PUSH1 0x1 PUSH1 0x1 PUSH1 0xA0 SHL SUB DUP7 AND DUP5 DUP2 MUL SWAP1 DUP6 DUP3 DUP2 PUSH2 0x5BC8 JUMPI INVALID JUMPDEST DIV EQ ISZERO PUSH2 0x5BF9 JUMPI DUP2 DUP2 ADD DUP3 DUP2 LT PUSH2 0x5BF7 JUMPI PUSH2 0x5BED DUP4 DUP10 PUSH1 0x1 PUSH1 0x1 PUSH1 0xA0 SHL SUB AND DUP4 PUSH2 0x4D6C JUMP JUMPDEST SWAP4 POP POP POP POP PUSH2 0x5380 JUMP JUMPDEST POP JUMPDEST PUSH2 0x5C1F DUP3 PUSH2 0x5C1A DUP8 DUP11 PUSH1 0x1 PUSH1 0x1 PUSH1 0xA0 SHL SUB AND DUP7 DUP2 PUSH2 0x5C13 JUMPI INVALID JUMPDEST DIV SWAP1 PUSH2 0x4885 JUMP JUMPDEST PUSH2 0x5A58 JUMP JUMPDEST SWAP3 POP POP POP PUSH2 0x5380 JUMP JUMPDEST PUSH1 0x1 PUSH1 0x1 PUSH1 0xA0 SHL SUB DUP7 AND DUP5 DUP2 MUL SWAP1 DUP6 DUP3 DUP2 PUSH2 0x5C3F JUMPI INVALID JUMPDEST DIV EQ DUP1 ISZERO PUSH2 0x5C4C JUMPI POP DUP1 DUP3 GT JUMPDEST PUSH2 0x5C55 JUMPI PUSH1 0x0 DUP1 REVERT JUMPDEST DUP1 DUP3 SUB PUSH2 0x5BED PUSH2 0x5AE4 DUP5 PUSH1 0x1 PUSH1 0x1 PUSH1 0xA0 SHL SUB DUP12 AND DUP5 PUSH2 0x4D6C JUMP JUMPDEST PUSH1 0x0 DUP4 PUSH4 0xFFFFFFFF AND DUP4 PUSH4 0xFFFFFFFF AND GT ISZERO DUP1 ISZERO PUSH2 0x5C99 JUMPI POP DUP4 PUSH4 0xFFFFFFFF AND DUP3 PUSH4 0xFFFFFFFF AND GT ISZERO JUMPDEST ISZERO PUSH2 0x5CB5 JUMPI DUP2 PUSH4 0xFFFFFFFF AND DUP4 PUSH4 0xFFFFFFFF AND GT ISZERO SWAP1 POP PUSH2 0x3CCB JUMP JUMPDEST PUSH1 0x0 DUP5 PUSH4 0xFFFFFFFF AND DUP5 PUSH4 0xFFFFFFFF AND GT PUSH2 0x5CDD JUMPI DUP4 PUSH4 0xFFFFFFFF AND PUSH5 0x100000000 ADD PUSH2 0x5CE5 JUMP JUMPDEST DUP4 PUSH4 0xFFFFFFFF AND JUMPDEST PUSH5 0xFFFFFFFFFF AND SWAP1 POP PUSH1 0x0 DUP6 PUSH4 0xFFFFFFFF AND DUP5 PUSH4 0xFFFFFFFF AND GT PUSH2 0x5D16 JUMPI DUP4 PUSH4 0xFFFFFFFF AND PUSH5 0x100000000 ADD PUSH2 0x5D1E JUMP JUMPDEST DUP4 PUSH4 0xFFFFFFFF AND JUMPDEST PUSH5 0xFFFFFFFFFF AND SWAP1 SWAP2 GT ISZERO SWAP6 SWAP5 POP POP POP POP POP JUMP JUMPDEST PUSH2 0x5D3A PUSH2 0x6554 JUMP JUMPDEST PUSH2 0x5D42 PUSH2 0x6554 JUMP JUMPDEST PUSH1 0x0 DUP4 PUSH2 0xFFFF AND DUP6 PUSH1 0x1 ADD PUSH2 0xFFFF AND DUP2 PUSH2 0x5D58 JUMPI INVALID JUMPDEST MOD PUSH2 0xFFFF AND SWAP1 POP PUSH1 0x0 PUSH1 0x1 DUP6 PUSH2 0xFFFF AND DUP4 ADD SUB SWAP1 POP PUSH1 0x0 JUMPDEST POP PUSH1 0x2 DUP2 DUP4 ADD DIV DUP10 PUSH2 0xFFFF DUP8 AND DUP3 DUP2 PUSH2 0x5D85 JUMPI INVALID JUMPDEST MOD PUSH2 0xFFFF DUP2 LT PUSH2 0x5D91 JUMPI INVALID JUMPDEST PUSH1 0x40 DUP1 MLOAD PUSH1 0x80 DUP2 ADD DUP3 MSTORE SWAP3 SWAP1 SWAP2 ADD SLOAD PUSH4 0xFFFFFFFF DUP2 AND DUP4 MSTORE PUSH5 0x100000000 DUP2 DIV PUSH1 0x6 SWAP1 DUP2 SIGNEXTEND DUP2 SIGNEXTEND SWAP1 SIGNEXTEND PUSH1 0x20 DUP5 ADD MSTORE PUSH1 0x1 PUSH1 0x1 PUSH1 0xA0 SHL SUB PUSH12 0x10000000000000000000000 DUP3 DIV AND SWAP2 DUP4 ADD SWAP2 SWAP1 SWAP2 MSTORE PUSH1 0xFF PUSH32 0x100000000000000000000000000000000000000000000000000000000000000 SWAP1 SWAP2 DIV AND ISZERO ISZERO PUSH1 0x60 DUP3 ADD DUP2 SWAP1 MSTORE SWAP1 SWAP6 POP PUSH2 0x5E20 JUMPI DUP1 PUSH1 0x1 ADD SWAP3 POP PUSH2 0x5D70 JUMP JUMPDEST DUP10 DUP7 PUSH2 0xFFFF AND DUP3 PUSH1 0x1 ADD DUP2 PUSH2 0x5E31 JUMPI INVALID JUMPDEST MOD PUSH2 0xFFFF DUP2 LT PUSH2 0x5E3D JUMPI INVALID JUMPDEST PUSH1 0x40 DUP1 MLOAD PUSH1 0x80 DUP2 ADD DUP3 MSTORE SWAP3 SWAP1 SWAP2 ADD SLOAD PUSH4 0xFFFFFFFF DUP2 AND DUP4 MSTORE PUSH5 0x100000000 DUP2 DIV PUSH1 0x6 SWAP1 DUP2 SIGNEXTEND DUP2 SIGNEXTEND SWAP1 SIGNEXTEND PUSH1 0x20 DUP5 ADD MSTORE PUSH1 0x1 PUSH1 0x1 PUSH1 0xA0 SHL SUB PUSH12 0x10000000000000000000000 DUP3 DIV AND SWAP2 DUP4 ADD SWAP2 SWAP1 SWAP2 MSTORE PUSH1 0xFF PUSH32 0x100000000000000000000000000000000000000000000000000000000000000 SWAP1 SWAP2 DIV AND ISZERO ISZERO PUSH1 0x60 DUP3 ADD MSTORE DUP6 MLOAD SWAP1 SWAP5 POP PUSH1 0x0 SWAP1 PUSH2 0x5ECC SWAP1 DUP12 SWAP1 DUP12 PUSH2 0x5C6F JUMP JUMPDEST SWAP1 POP DUP1 DUP1 ISZERO PUSH2 0x5EE5 JUMPI POP PUSH2 0x5EE5 DUP11 DUP11 DUP8 PUSH1 0x0 ADD MLOAD PUSH2 0x5C6F JUMP JUMPDEST ISZERO PUSH2 0x5EF0 JUMPI POP PUSH2 0x5F0D JUMP JUMPDEST DUP1 PUSH2 0x5F00 JUMPI PUSH1 0x1 DUP3 SUB SWAP3 POP PUSH2 0x5F07 JUMP JUMPDEST DUP2 PUSH1 0x1 ADD SWAP4 POP JUMPDEST POP PUSH2 0x5D70 JUMP JUMPDEST POP POP POP SWAP6 POP SWAP6 SWAP4 POP POP POP POP JUMP JUMPDEST PUSH1 0x2 DUP11 DUP2 SIGNEXTEND SWAP1 SIGNEXTEND PUSH1 0x0 SWAP1 DUP2 MSTORE PUSH1 0x20 DUP13 SWAP1 MSTORE PUSH1 0x40 DUP2 KECCAK256 DUP1 SLOAD PUSH16 0xFFFFFFFFFFFFFFFFFFFFFFFFFFFFFFFF AND DUP3 PUSH2 0x5F4E DUP3 DUP14 PUSH2 0x3FB1 JUMP JUMPDEST SWAP1 POP DUP5 PUSH16 0xFFFFFFFFFFFFFFFFFFFFFFFFFFFFFFFF AND DUP2 PUSH16 0xFFFFFFFFFFFFFFFFFFFFFFFFFFFFFFFF AND GT ISZERO PUSH2 0x5F81 JUMPI PUSH1 0x0 DUP1 REVERT JUMPDEST PUSH16 0xFFFFFFFFFFFFFFFFFFFFFFFFFFFFFFFF DUP3 DUP2 AND ISZERO SWAP1 DUP3 AND ISZERO DUP2 EQ ISZERO SWAP5 POP ISZERO PUSH2 0x60C4 JUMPI DUP13 PUSH1 0x2 SIGNEXTEND DUP15 PUSH1 0x2 SIGNEXTEND SGT PUSH2 0x6078 JUMPI PUSH1 0x1 DUP4 ADD DUP12 SWAP1 SSTORE PUSH1 0x2 DUP4 ADD DUP11 SWAP1 SSTORE PUSH1 0x3 DUP4 ADD DUP1 SLOAD PUSH32 0xFFFFFFFFFF0000000000000000000000000000000000000000FFFFFFFFFFFFFF AND PUSH8 0x100000000000000 PUSH1 0x1 PUSH1 0x1 PUSH1 0xA0 SHL SUB DUP13 AND MUL OR PUSH32 0xFFFFFFFFFFFFFFFFFFFFFFFFFFFFFFFFFFFFFFFFFFFFFFFFFF00000000000000 AND PUSH7 0xFFFFFFFFFFFFFF PUSH1 0x6 DUP12 SWAP1 SIGNEXTEND AND OR PUSH32 0xFF00000000FFFFFFFFFFFFFFFFFFFFFFFFFFFFFFFFFFFFFFFFFFFFFFFFFFFFFF AND PUSH28 0x1000000000000000000000000000000000000000000000000000000 PUSH4 0xFFFFFFFF DUP11 AND MUL OR SWAP1 SSTORE JUMPDEST PUSH1 0x3 DUP4 ADD DUP1 SLOAD PUSH31 0xFFFFFFFFFFFFFFFFFFFFFFFFFFFFFFFFFFFFFFFFFFFFFFFFFFFFFFFFFFFFFF AND PUSH32 0x100000000000000000000000000000000000000000000000000000000000000 OR SWAP1 SSTORE JUMPDEST DUP3 SLOAD PUSH32 0xFFFFFFFFFFFFFFFFFFFFFFFFFFFFFFFF00000000000000000000000000000000 AND PUSH16 0xFFFFFFFFFFFFFFFFFFFFFFFFFFFFFFFF DUP3 AND OR DUP4 SSTORE DUP6 PUSH2 0x613B JUMPI DUP3 SLOAD PUSH2 0x6136 SWAP1 PUSH2 0x6131 SWAP1 PUSH17 0x100000000000000000000000000000000 SWAP1 DIV PUSH1 0xF SWAP1 DUP2 SIGNEXTEND DUP2 SIGNEXTEND SWAP1 DUP16 SWAP1 SIGNEXTEND PUSH2 0x3BEE JUMP JUMPDEST PUSH2 0x4A0B JUMP JUMPDEST PUSH2 0x6169 JUMP JUMPDEST DUP3 SLOAD PUSH2 0x6169 SWAP1 PUSH2 0x6131 SWAP1 PUSH17 0x100000000000000000000000000000000 SWAP1 DIV PUSH1 0xF SWAP1 DUP2 SIGNEXTEND DUP2 SIGNEXTEND SWAP1 DUP16 SWAP1 SIGNEXTEND PUSH2 0x3BD2 JUMP JUMPDEST DUP4 SLOAD PUSH1 0xF SWAP2 SWAP1 SWAP2 SIGNEXTEND PUSH16 0xFFFFFFFFFFFFFFFFFFFFFFFFFFFFFFFF SWAP1 DUP2 AND PUSH17 0x100000000000000000000000000000000 MUL SWAP2 AND OR SWAP1 SWAP3 SSTORE POP SWAP1 SWAP13 SWAP12 POP POP POP POP POP POP POP POP POP POP POP POP JUMP JUMPDEST DUP1 PUSH1 0x2 SIGNEXTEND DUP3 PUSH1 0x2 SIGNEXTEND DUP2 PUSH2 0x61BF JUMPI INVALID JUMPDEST SMOD PUSH1 0x2 SIGNEXTEND ISZERO PUSH2 0x61CD JUMPI PUSH1 0x0 DUP1 REVERT JUMPDEST PUSH1 0x0 DUP1 PUSH2 0x61E8 DUP4 PUSH1 0x2 SIGNEXTEND DUP6 PUSH1 0x2 SIGNEXTEND DUP2 PUSH2 0x61E2 JUMPI INVALID JUMPDEST SDIV PUSH2 0x5047 JUMP JUMPDEST PUSH1 0x1 SWAP2 DUP3 SIGNEXTEND DUP3 SIGNEXTEND PUSH1 0x0 SWAP1 DUP2 MSTORE PUSH1 0x20 SWAP8 SWAP1 SWAP8 MSTORE PUSH1 0x40 SWAP1 SWAP7 KECCAK256 DUP1 SLOAD PUSH1 0xFF SWAP1 SWAP8 AND SWAP2 SWAP1 SWAP2 SHL SWAP1 SWAP6 XOR SWAP1 SWAP5 SSTORE POP POP POP POP JUMP JUMPDEST PUSH1 0x2 DUP6 DUP2 SIGNEXTEND DUP1 DUP3 SIGNEXTEND PUSH1 0x0 SWAP1 DUP2 MSTORE PUSH1 0x20 DUP10 SWAP1 MSTORE PUSH1 0x40 DUP1 DUP3 KECCAK256 DUP9 DUP6 SIGNEXTEND DUP6 SIGNEXTEND DUP4 MSTORE SWAP1 DUP3 KECCAK256 SWAP2 SWAP4 DUP5 SWAP4 SWAP2 SWAP3 SWAP2 DUP5 SWAP2 DUP3 SWAP2 SWAP1 DUP11 SWAP1 SIGNEXTEND SLT PUSH2 0x625C JUMPI POP POP PUSH1 0x1 DUP3 ADD SLOAD PUSH1 0x2 DUP4 ADD SLOAD PUSH2 0x626F JUMP JUMPDEST DUP4 PUSH1 0x1 ADD SLOAD DUP9 SUB SWAP2 POP DUP4 PUSH1 0x2 ADD SLOAD DUP8 SUB SWAP1 POP JUMPDEST PUSH1 0x0 DUP1 DUP12 PUSH1 0x2 SIGNEXTEND DUP12 PUSH1 0x2 SIGNEXTEND SLT ISZERO PUSH2 0x6291 JUMPI POP POP PUSH1 0x1 DUP4 ADD SLOAD PUSH1 0x2 DUP5 ADD SLOAD PUSH2 0x62A4 JUMP JUMPDEST DUP5 PUSH1 0x1 ADD SLOAD DUP11 SUB SWAP2 POP DUP5 PUSH1 0x2 ADD SLOAD DUP10 SUB SWAP1 POP JUMPDEST SWAP3 SWAP1 SWAP9 SUB SWAP8 SWAP1 SWAP8 SUB SWAP12 SWAP7 SWAP1 SWAP6 SUB SWAP5 SWAP1 SWAP5 SUB SWAP9 POP SWAP4 SWAP7 POP POP POP POP POP POP POP JUMP JUMPDEST PUSH1 0x40 DUP1 MLOAD PUSH1 0xA0 DUP2 ADD DUP3 MSTORE DUP6 SLOAD PUSH16 0xFFFFFFFFFFFFFFFFFFFFFFFFFFFFFFFF SWAP1 DUP2 AND DUP3 MSTORE PUSH1 0x1 DUP8 ADD SLOAD PUSH1 0x20 DUP4 ADD MSTORE PUSH1 0x2 DUP8 ADD SLOAD SWAP3 DUP3 ADD SWAP3 SWAP1 SWAP3 MSTORE PUSH1 0x3 DUP7 ADD SLOAD DUP1 DUP4 AND PUSH1 0x60 DUP4 ADD MSTORE PUSH17 0x100000000000000000000000000000000 SWAP1 DIV SWAP1 SWAP2 AND PUSH1 0x80 DUP3 ADD MSTORE PUSH1 0x0 PUSH1 0xF DUP6 SWAP1 SIGNEXTEND PUSH2 0x6353 JUMPI DUP2 MLOAD PUSH16 0xFFFFFFFFFFFFFFFFFFFFFFFFFFFFFFFF AND PUSH2 0x634B JUMPI PUSH1 0x0 DUP1 REVERT JUMPDEST POP DUP1 MLOAD PUSH2 0x6362 JUMP JUMPDEST DUP2 MLOAD PUSH2 0x635F SWAP1 DUP7 PUSH2 0x3FB1 JUMP JUMPDEST SWAP1 POP JUMPDEST PUSH1 0x0 PUSH2 0x639C DUP4 PUSH1 0x20 ADD MLOAD DUP7 SUB DUP5 PUSH1 0x0 ADD MLOAD PUSH16 0xFFFFFFFFFFFFFFFFFFFFFFFFFFFFFFFF AND PUSH17 0x100000000000000000000000000000000 PUSH2 0x3C04 JUMP JUMPDEST SWAP1 POP PUSH1 0x0 PUSH2 0x63D8 DUP5 PUSH1 0x40 ADD MLOAD DUP7 SUB DUP6 PUSH1 0x0 ADD MLOAD PUSH16 0xFFFFFFFFFFFFFFFFFFFFFFFFFFFFFFFF AND PUSH17 0x100000000000000000000000000000000 PUSH2 0x3C04 JUMP JUMPDEST SWAP1 POP DUP7 PUSH1 0xF SIGNEXTEND PUSH1 0x0 EQ PUSH2 0x6420 JUMPI DUP8 SLOAD PUSH32 0xFFFFFFFFFFFFFFFFFFFFFFFFFFFFFFFF00000000000000000000000000000000 AND PUSH16 0xFFFFFFFFFFFFFFFFFFFFFFFFFFFFFFFF DUP5 AND OR DUP9 SSTORE JUMPDEST PUSH1 0x1 DUP9 ADD DUP7 SWAP1 SSTORE PUSH1 0x2 DUP9 ADD DUP6 SWAP1 SSTORE PUSH16 0xFFFFFFFFFFFFFFFFFFFFFFFFFFFFFFFF DUP3 AND ISZERO ISZERO DUP1 PUSH2 0x6460 JUMPI POP PUSH1 0x0 DUP2 PUSH16 0xFFFFFFFFFFFFFFFFFFFFFFFFFFFFFFFF AND GT JUMPDEST ISZERO PUSH2 0x64CC JUMPI PUSH1 0x3 DUP9 ADD DUP1 SLOAD PUSH32 0xFFFFFFFFFFFFFFFFFFFFFFFFFFFFFFFF00000000000000000000000000000000 DUP2 AND PUSH16 0xFFFFFFFFFFFFFFFFFFFFFFFFFFFFFFFF SWAP2 DUP3 AND DUP6 ADD DUP3 AND OR DUP1 DUP3 AND PUSH17 0x100000000000000000000000000000000 SWAP2 DUP3 SWAP1 DIV DUP4 AND DUP6 ADD SWAP1 SWAP3 AND MUL OR SWAP1 SSTORE JUMPDEST POP POP POP POP POP POP POP POP JUMP JUMPDEST PUSH1 0x2 SWAP1 DUP2 SIGNEXTEND DUP2 SIGNEXTEND PUSH1 0x0 SWAP1 DUP2 MSTORE PUSH1 0x20 SWAP3 SWAP1 SWAP3 MSTORE PUSH1 0x40 DUP3 KECCAK256 DUP3 DUP2 SSTORE PUSH1 0x1 DUP2 ADD DUP4 SWAP1 SSTORE SWAP1 DUP2 ADD DUP3 SWAP1 SSTORE PUSH1 0x3 ADD SSTORE JUMP JUMPDEST DUP1 PUSH1 0x1 PUSH1 0x1 PUSH1 0xA0 SHL SUB DUP2 AND DUP2 EQ PUSH2 0x34BF JUMPI PUSH1 0x0 DUP1 REVERT JUMPDEST PUSH1 0x40 DUP1 MLOAD PUSH1 0xE0 DUP2 ADD DUP3 MSTORE PUSH1 0x0 DUP1 DUP3 MSTORE PUSH1 0x20 DUP3 ADD DUP2 SWAP1 MSTORE SWAP2 DUP2 ADD DUP3 SWAP1 MSTORE PUSH1 0x60 DUP2 ADD DUP3 SWAP1 MSTORE PUSH1 0x80 DUP2 ADD DUP3 SWAP1 MSTORE PUSH1 0xA0 DUP2 ADD DUP3 SWAP1 MSTORE PUSH1 0xC0 DUP2 ADD SWAP2 SWAP1 SWAP2 MSTORE SWAP1 JUMP JUMPDEST PUSH1 0x40 DUP1 MLOAD PUSH1 0x80 DUP2 ADD DUP3 MSTORE PUSH1 0x0 DUP1 DUP3 MSTORE PUSH1 0x20 DUP3 ADD DUP2 SWAP1 MSTORE SWAP2 DUP2 ADD DUP3 SWAP1 MSTORE PUSH1 0x60 DUP2 ADD SWAP2 SWAP1 SWAP2 MSTORE SWAP1 JUMP INVALID LOG1 PUSH5 0x736F6C6343 STOP SMOD MOD STOP EXP "},"gasEstimates":{"creation":{"codeDepositCost":"5198400","executionCost":"infinite","totalCost":"infinite"},"external":{"burn(int24,int24,uint128)":"infinite","collect(address,int24,int24,uint128,uint128)":"infinite","collectProtocol(address,uint128,uint128)":"infinite","factory()":"infinite","fee()":"infinite","feeGrowthGlobal0X128()":"1064","feeGrowthGlobal1X128()":"1088","flash(address,uint256,uint256,bytes)":"infinite","increaseObservationCardinalityNext(uint16)":"infinite","initialize(uint160)":"47293","liquidity()":"1104","maxLiquidityPerTick()":"infinite","mint(address,int24,int24,uint128,bytes)":"infinite","observations(uint256)":"1323","observe(uint32[])":"infinite","positions(bytes32)":"3783","protocolFees()":"1112","setFeeProtocol(uint8,uint8)":"infinite","slot0()":"1360","snapshotCumulativesInside(int24,int24)":"infinite","swap(address,bool,int256,uint160,bytes)":"infinite","tickBitmap(int16)":"1225","tickSpacing()":"infinite","ticks(int24)":"3957","token0()":"infinite","token1()":"infinite"},"internal":{"_blockTimestamp()":"14","_modifyPosition(struct UniswapV3Pool.ModifyPositionParams memory)":"infinite","_updatePosition(address,int24,int24,int128,int24)":"infinite","balance0()":"infinite","balance1()":"infinite","checkTicks(int24,int24)":"126"}},"methodIdentifiers":{"burn(int24,int24,uint128)":"a34123a7","collect(address,int24,int24,uint128,uint128)":"4f1eb3d8","collectProtocol(address,uint128,uint128)":"85b66729","factory()":"c45a0155","fee()":"ddca3f43","feeGrowthGlobal0X128()":"f3058399","feeGrowthGlobal1X128()":"46141319","flash(address,uint256,uint256,bytes)":"490e6cbc","increaseObservationCardinalityNext(uint16)":"32148f67","initialize(uint160)":"f637731d","liquidity()":"1a686502","maxLiquidityPerTick()":"70cf754a","mint(address,int24,int24,uint128,bytes)":"3c8a7d8d","observations(uint256)":"252c09d7","observe(uint32[])":"883bdbfd","positions(bytes32)":"514ea4bf","protocolFees()":"1ad8b03b","setFeeProtocol(uint8,uint8)":"8206a4d1","slot0()":"3850c7bd","snapshotCumulativesInside(int24,int24)":"a38807f2","swap(address,bool,int256,uint160,bytes)":"128acb08","tickBitmap(int16)":"5339c296","tickSpacing()":"d0c93a7c","ticks(int24)":"f30dba93","token0()":"0dfe1681","token1()":"d21220a7"}},"storageLayout":{"storage":[{"astId":144,"contract":"contracts/uniswap/UniswapV3Pool.sol:UniswapV3Pool","label":"slot0","offset":0,"slot":"0","type":"t_struct(Slot0)140_storage"},{"astId":148,"contract":"contracts/uniswap/UniswapV3Pool.sol:UniswapV3Pool","label":"feeGrowthGlobal0X128","offset":0,"slot":"1","type":"t_uint256"},{"astId":152,"contract":"contracts/uniswap/UniswapV3Pool.sol:UniswapV3Pool","label":"feeGrowthGlobal1X128","offset":0,"slot":"2","type":"t_uint256"},{"astId":161,"contract":"contracts/uniswap/UniswapV3Pool.sol:UniswapV3Pool","label":"protocolFees","offset":0,"slot":"3","type":"t_struct(ProtocolFees)157_storage"},{"astId":165,"contract":"contracts/uniswap/UniswapV3Pool.sol:UniswapV3Pool","label":"liquidity","offset":0,"slot":"4","type":"t_uint128"},{"astId":171,"contract":"contracts/uniswap/UniswapV3Pool.sol:UniswapV3Pool","label":"ticks","offset":0,"slot":"5","type":"t_mapping(t_int24,t_struct(Info)5605_storage)"},{"astId":177,"contract":"contracts/uniswap/UniswapV3Pool.sol:UniswapV3Pool","label":"tickBitmap","offset":0,"slot":"6","type":"t_mapping(t_int16,t_uint256)"},{"astId":183,"contract":"contracts/uniswap/UniswapV3Pool.sol:UniswapV3Pool","label":"positions","offset":0,"slot":"7","type":"t_mapping(t_bytes32,t_struct(Info)4572_storage)"},{"astId":189,"contract":"contracts/uniswap/UniswapV3Pool.sol:UniswapV3Pool","label":"observations","offset":0,"slot":"8","type":"t_array(t_struct(Observation)3832_storage)65535_storage"}],"types":{"t_array(t_struct(Observation)3832_storage)65535_storage":{"base":"t_struct(Observation)3832_storage","encoding":"inplace","label":"struct Oracle.Observation[65535]","numberOfBytes":"2097120"},"t_bool":{"encoding":"inplace","label":"bool","numberOfBytes":"1"},"t_bytes32":{"encoding":"inplace","label":"bytes32","numberOfBytes":"32"},"t_int128":{"encoding":"inplace","label":"int128","numberOfBytes":"16"},"t_int16":{"encoding":"inplace","label":"int16","numberOfBytes":"2"},"t_int24":{"encoding":"inplace","label":"int24","numberOfBytes":"3"},"t_int56":{"encoding":"inplace","label":"int56","numberOfBytes":"7"},"t_mapping(t_bytes32,t_struct(Info)4572_storage)":{"encoding":"mapping","key":"t_bytes32","label":"mapping(bytes32 => struct Position.Info)","numberOfBytes":"32","value":"t_struct(Info)4572_storage"},"t_mapping(t_int16,t_uint256)":{"encoding":"mapping","key":"t_int16","label":"mapping(int16 => uint256)","numberOfBytes":"32","value":"t_uint256"},"t_mapping(t_int24,t_struct(Info)5605_storage)":{"encoding":"mapping","key":"t_int24","label":"mapping(int24 => struct Tick.Info)","numberOfBytes":"32","value":"t_struct(Info)5605_storage"},"t_struct(Info)4572_storage":{"encoding":"inplace","label":"struct Position.Info","members":[{"astId":4563,"contract":"contracts/uniswap/UniswapV3Pool.sol:UniswapV3Pool","label":"liquidity","offset":0,"slot":"0","type":"t_uint128"},{"astId":4565,"contract":"contracts/uniswap/UniswapV3Pool.sol:UniswapV3Pool","label":"feeGrowthInside0LastX128","offset":0,"slot":"1","type":"t_uint256"},{"astId":4567,"contract":"contracts/uniswap/UniswapV3Pool.sol:UniswapV3Pool","label":"feeGrowthInside1LastX128","offset":0,"slot":"2","type":"t_uint256"},{"astId":4569,"contract":"contracts/uniswap/UniswapV3Pool.sol:UniswapV3Pool","label":"tokensOwed0","offset":0,"slot":"3","type":"t_uint128"},{"astId":4571,"contract":"contracts/uniswap/UniswapV3Pool.sol:UniswapV3Pool","label":"tokensOwed1","offset":16,"slot":"3","type":"t_uint128"}],"numberOfBytes":"128"},"t_struct(Info)5605_storage":{"encoding":"inplace","label":"struct Tick.Info","members":[{"astId":5590,"contract":"contracts/uniswap/UniswapV3Pool.sol:UniswapV3Pool","label":"liquidityGross","offset":0,"slot":"0","type":"t_uint128"},{"astId":5592,"contract":"contracts/uniswap/UniswapV3Pool.sol:UniswapV3Pool","label":"liquidityNet","offset":16,"slot":"0","type":"t_int128"},{"astId":5594,"contract":"contracts/uniswap/UniswapV3Pool.sol:UniswapV3Pool","label":"feeGrowthOutside0X128","offset":0,"slot":"1","type":"t_uint256"},{"astId":5596,"contract":"contracts/uniswap/UniswapV3Pool.sol:UniswapV3Pool","label":"feeGrowthOutside1X128","offset":0,"slot":"2","type":"t_uint256"},{"astId":5598,"contract":"contracts/uniswap/UniswapV3Pool.sol:UniswapV3Pool","label":"tickCumulativeOutside","offset":0,"slot":"3","type":"t_int56"},{"astId":5600,"contract":"contracts/uniswap/UniswapV3Pool.sol:UniswapV3Pool","label":"secondsPerLiquidityOutsideX128","offset":7,"slot":"3","type":"t_uint160"},{"astId":5602,"contract":"contracts/uniswap/UniswapV3Pool.sol:UniswapV3Pool","label":"secondsOutside","offset":27,"slot":"3","type":"t_uint32"},{"astId":5604,"contract":"contracts/uniswap/UniswapV3Pool.sol:UniswapV3Pool","label":"initialized","offset":31,"slot":"3","type":"t_bool"}],"numberOfBytes":"128"},"t_struct(Observation)3832_storage":{"encoding":"inplace","label":"struct Oracle.Observation","members":[{"astId":3825,"contract":"contracts/uniswap/UniswapV3Pool.sol:UniswapV3Pool","label":"blockTimestamp","offset":0,"slot":"0","type":"t_uint32"},{"astId":3827,"contract":"contracts/uniswap/UniswapV3Pool.sol:UniswapV3Pool","label":"tickCumulative","offset":4,"slot":"0","type":"t_int56"},{"astId":3829,"contract":"contracts/uniswap/UniswapV3Pool.sol:UniswapV3Pool","label":"secondsPerLiquidityCumulativeX128","offset":11,"slot":"0","type":"t_uint160"},{"astId":3831,"contract":"contracts/uniswap/UniswapV3Pool.sol:UniswapV3Pool","label":"initialized","offset":31,"slot":"0","type":"t_bool"}],"numberOfBytes":"32"},"t_struct(ProtocolFees)157_storage":{"encoding":"inplace","label":"struct UniswapV3Pool.ProtocolFees","members":[{"astId":154,"contract":"contracts/uniswap/UniswapV3Pool.sol:UniswapV3Pool","label":"token0","offset":0,"slot":"0","type":"t_uint128"},{"astId":156,"contract":"contracts/uniswap/UniswapV3Pool.sol:UniswapV3Pool","label":"token1","offset":16,"slot":"0","type":"t_uint128"}],"numberOfBytes":"32"},"t_struct(Slot0)140_storage":{"encoding":"inplace","label":"struct UniswapV3Pool.Slot0","members":[{"astId":127,"contract":"contracts/uniswap/UniswapV3Pool.sol:UniswapV3Pool","label":"sqrtPriceX96","offset":0,"slot":"0","type":"t_uint160"},{"astId":129,"contract":"contracts/uniswap/UniswapV3Pool.sol:UniswapV3Pool","label":"tick","offset":20,"slot":"0","type":"t_int24"},{"astId":131,"contract":"contracts/uniswap/UniswapV3Pool.sol:UniswapV3Pool","label":"observationIndex","offset":23,"slot":"0","type":"t_uint16"},{"astId":133,"contract":"contracts/uniswap/UniswapV3Pool.sol:UniswapV3Pool","label":"observationCardinality","offset":25,"slot":"0","type":"t_uint16"},{"astId":135,"contract":"contracts/uniswap/UniswapV3Pool.sol:UniswapV3Pool","label":"observationCardinalityNext","offset":27,"slot":"0","type":"t_uint16"},{"astId":137,"contract":"contracts/uniswap/UniswapV3Pool.sol:UniswapV3Pool","label":"feeProtocol","offset":29,"slot":"0","type":"t_uint8"},{"astId":139,"contract":"contracts/uniswap/UniswapV3Pool.sol:UniswapV3Pool","label":"unlocked","offset":30,"slot":"0","type":"t_bool"}],"numberOfBytes":"32"},"t_uint128":{"encoding":"inplace","label":"uint128","numberOfBytes":"16"},"t_uint16":{"encoding":"inplace","label":"uint16","numberOfBytes":"2"},"t_uint160":{"encoding":"inplace","label":"uint160","numberOfBytes":"20"},"t_uint256":{"encoding":"inplace","label":"uint256","numberOfBytes":"32"},"t_uint32":{"encoding":"inplace","label":"uint32","numberOfBytes":"4"},"t_uint8":{"encoding":"inplace","label":"uint8","numberOfBytes":"1"}}},"userdoc":{"events":{"Burn(address,int24,int24,uint128,uint256,uint256)":{"notice":"Emitted when a position's liquidity is removed"},"Collect(address,address,int24,int24,uint128,uint128)":{"notice":"Emitted when fees are collected by the owner of a position"},"CollectProtocol(address,address,uint128,uint128)":{"notice":"Emitted when the collected protocol fees are withdrawn by the factory owner"},"Flash(address,address,uint256,uint256,uint256,uint256)":{"notice":"Emitted by the pool for any flashes of token0/token1"},"IncreaseObservationCardinalityNext(uint16,uint16)":{"notice":"Emitted by the pool for increases to the number of observations that can be stored"},"Initialize(uint160,int24)":{"notice":"Emitted exactly once by a pool when #initialize is first called on the pool"},"Mint(address,address,int24,int24,uint128,uint256,uint256)":{"notice":"Emitted when liquidity is minted for a given position"},"SetFeeProtocol(uint8,uint8,uint8,uint8)":{"notice":"Emitted when the protocol fee is changed by the pool"},"Swap(address,address,int256,int256,uint160,uint128,int24)":{"notice":"Emitted by the pool for any swaps between token0 and token1"}},"kind":"user","methods":{"burn(int24,int24,uint128)":{"notice":"Burn liquidity from the sender and account tokens owed for the liquidity to the position"},"collect(address,int24,int24,uint128,uint128)":{"notice":"Collects tokens owed to a position"},"collectProtocol(address,uint128,uint128)":{"notice":"Collect the protocol fee accrued to the pool"},"factory()":{"notice":"The contract that deployed the pool, which must adhere to the IUniswapV3Factory interface"},"fee()":{"notice":"The pool's fee in hundredths of a bip, i.e. 1e-6"},"feeGrowthGlobal0X128()":{"notice":"The fee growth as a Q128.128 fees of token0 collected per unit of liquidity for the entire life of the pool"},"feeGrowthGlobal1X128()":{"notice":"The fee growth as a Q128.128 fees of token1 collected per unit of liquidity for the entire life of the pool"},"flash(address,uint256,uint256,bytes)":{"notice":"Receive token0 and/or token1 and pay it back, plus a fee, in the callback"},"increaseObservationCardinalityNext(uint16)":{"notice":"Increase the maximum number of price and liquidity observations that this pool will store"},"initialize(uint160)":{"notice":"Sets the initial price for the pool"},"liquidity()":{"notice":"The currently in range liquidity available to the pool"},"maxLiquidityPerTick()":{"notice":"The maximum amount of position liquidity that can use any tick in the range"},"mint(address,int24,int24,uint128,bytes)":{"notice":"Adds liquidity for the given recipient/tickLower/tickUpper position"},"observations(uint256)":{"notice":"Returns data about a specific observation index"},"observe(uint32[])":{"notice":"Returns the cumulative tick and liquidity as of each timestamp `secondsAgo` from the current block timestamp"},"positions(bytes32)":{"notice":"Returns the information about a position by the position's key"},"protocolFees()":{"notice":"The amounts of token0 and token1 that are owed to the protocol"},"setFeeProtocol(uint8,uint8)":{"notice":"Set the denominator of the protocol's % share of the fees"},"slot0()":{"notice":"The 0th storage slot in the pool stores many values, and is exposed as a single method to save gas when accessed externally."},"snapshotCumulativesInside(int24,int24)":{"notice":"Returns a snapshot of the tick cumulative, seconds per liquidity and seconds inside a tick range"},"swap(address,bool,int256,uint160,bytes)":{"notice":"Swap token0 for token1, or token1 for token0"},"tickBitmap(int16)":{"notice":"Returns 256 packed tick initialized boolean values. See TickBitmap for more information"},"tickSpacing()":{"notice":"The pool tick spacing"},"ticks(int24)":{"notice":"Look up information about a specific tick in the pool"},"token0()":{"notice":"The first of the two tokens of the pool, sorted by address"},"token1()":{"notice":"The second of the two tokens of the pool, sorted by address"}},"version":1}}}}