{"contracts/misc/Multicall2.sol":{"Multicall2":{"abi":[{"inputs":[{"components":[{"internalType":"address","name":"target","type":"address"},{"internalType":"bytes","name":"callData","type":"bytes"}],"internalType":"struct Multicall2.Call[]","name":"calls","type":"tuple[]"}],"name":"aggregate","outputs":[{"internalType":"uint256","name":"blockNumber","type":"uint256"},{"internalType":"bytes[]","name":"returnData","type":"bytes[]"}],"stateMutability":"nonpayable","type":"function"},{"inputs":[{"internalType":"uint256","name":"blockNumber","type":"uint256"}],"name":"getBlockHash","outputs":[{"internalType":"bytes32","name":"blockHash","type":"bytes32"}],"stateMutability":"view","type":"function"},{"inputs":[],"name":"getCurrentBlockCoinbase","outputs":[{"internalType":"address","name":"coinbase","type":"address"}],"stateMutability":"view","type":"function"},{"inputs":[],"name":"getCurrentBlockDifficulty","outputs":[{"internalType":"uint256","name":"difficulty","type":"uint256"}],"stateMutability":"view","type":"function"},{"inputs":[],"name":"getCurrentBlockGasLimit","outputs":[{"internalType":"uint256","name":"gaslimit","type":"uint256"}],"stateMutability":"view","type":"function"},{"inputs":[],"name":"getCurrentBlockTimestamp","outputs":[{"internalType":"uint256","name":"timestamp","type":"uint256"}],"stateMutability":"view","type":"function"},{"inputs":[{"internalType":"address","name":"addr","type":"address"}],"name":"getEthBalance","outputs":[{"internalType":"uint256","name":"balance","type":"uint256"}],"stateMutability":"view","type":"function"}],"devdoc":{"kind":"dev","methods":{},"version":1},"evm":{"assembly":"    /* \"contracts/misc/Multicall2.sol\":81:1398  contract Multicall2 {\r... */\n  mstore(0x40, 0x80)\n  callvalue\n  dup1\n  iszero\n  tag_1\n  jumpi\n  0x00\n  dup1\n  revert\ntag_1:\n  pop\n  dataSize(sub_0)\n  dup1\n  dataOffset(sub_0)\n  0x00\n  codecopy\n  0x00\n  return\nstop\n\nsub_0: assembly {\n        /* \"contracts/misc/Multicall2.sol\":81:1398  contract Multicall2 {\r... */\n      mstore(0x40, 0x80)\n      callvalue\n      dup1\n      iszero\n      tag_1\n      jumpi\n      0x00\n      dup1\n      revert\n    tag_1:\n      pop\n      jumpi(tag_2, lt(calldatasize, 0x04))\n      shr(0xe0, calldataload(0x00))\n      dup1\n      0x72425d9d\n      gt\n      tag_10\n      jumpi\n      dup1\n      0x72425d9d\n      eq\n      tag_6\n      jumpi\n      dup1\n      0x86d516e8\n      eq\n      tag_7\n      jumpi\n      dup1\n      0xa8b0574e\n      eq\n      tag_8\n      jumpi\n      dup1\n      0xee82ac5e\n      eq\n      tag_9\n      jumpi\n      jump(tag_2)\n    tag_10:\n      dup1\n      0x0f28c97d\n      eq\n      tag_3\n      jumpi\n      dup1\n      0x252dba42\n      eq\n      tag_4\n      jumpi\n      dup1\n      0x4d2301cc\n      eq\n      tag_5\n      jumpi\n    tag_2:\n      0x00\n      dup1\n      revert\n        /* \"contracts/misc/Multicall2.sol\":785:902  function getCurrentBlockTimestamp() public view returns (uint256 timestamp) {\r... */\n    tag_3:\n      tag_11\n      tag_12\n      jump\t// in\n    tag_11:\n      mload(0x40)\n      tag_13\n      swap2\n      swap1\n      tag_41\n      jump\t// in\n    tag_13:\n      mload(0x40)\n      dup1\n      swap2\n      sub\n      swap1\n      return\n        /* \"contracts/misc/Multicall2.sol\":186:638  function aggregate(Call[] memory calls) public returns (uint256 blockNumber, bytes[] memory returnData) {\r... */\n    tag_4:\n      tag_15\n      tag_16\n      calldatasize\n      0x04\n      tag_17\n      jump\t// in\n    tag_16:\n      tag_18\n      jump\t// in\n    tag_15:\n      mload(0x40)\n      tag_13\n      swap3\n      swap2\n      swap1\n      tag_20\n      jump\t// in\n        /* \"contracts/misc/Multicall2.sol\":910:1023  function getEthBalance(address addr) public view returns (uint256 balance) {\r... */\n    tag_5:\n      tag_11\n      tag_22\n      calldatasize\n      0x04\n      tag_23\n      jump\t// in\n    tag_22:\n      tag_24\n      jump\t// in\n        /* \"contracts/misc/Multicall2.sol\":1031:1151  function getCurrentBlockDifficulty() public view returns (uint256 difficulty) {\r... */\n    tag_6:\n      tag_11\n      tag_27\n      jump\t// in\n        /* \"contracts/misc/Multicall2.sol\":1159:1273  function getCurrentBlockGasLimit() public view returns (uint256 gaslimit) {\r... */\n    tag_7:\n      tag_11\n      tag_30\n      jump\t// in\n        /* \"contracts/misc/Multicall2.sol\":1281:1395  function getCurrentBlockCoinbase() public view returns (address coinbase) {\r... */\n    tag_8:\n      tag_32\n      tag_33\n      jump\t// in\n    tag_32:\n      mload(0x40)\n      tag_13\n      swap2\n      swap1\n      tag_35\n      jump\t// in\n        /* \"contracts/misc/Multicall2.sol\":646:777  function getBlockHash(uint256 blockNumber) public view returns (bytes32 blockHash) {\r... */\n    tag_9:\n      tag_11\n      tag_37\n      calldatasize\n      0x04\n      tag_38\n      jump\t// in\n    tag_37:\n      tag_39\n      jump\t// in\n        /* \"contracts/misc/Multicall2.sol\":785:902  function getCurrentBlockTimestamp() public view returns (uint256 timestamp) {\r... */\n    tag_12:\n        /* \"contracts/misc/Multicall2.sol\":879:894  block.timestamp */\n      timestamp\n        /* \"contracts/misc/Multicall2.sol\":785:902  function getCurrentBlockTimestamp() public view returns (uint256 timestamp) {\r... */\n      swap1\n      jump\t// out\n        /* \"contracts/misc/Multicall2.sol\":186:638  function aggregate(Call[] memory calls) public returns (uint256 blockNumber, bytes[] memory returnData) {\r... */\n    tag_18:\n        /* \"contracts/misc/Multicall2.sol\":363:375  calls.length */\n      dup1\n      mload\n        /* \"contracts/misc/Multicall2.sol\":315:327  block.number */\n      number\n      swap1\n        /* \"contracts/misc/Multicall2.sol\":263:288  bytes[] memory returnData */\n      0x60\n      swap1\n        /* \"contracts/misc/Multicall2.sol\":351:376  new bytes[](calls.length) */\n      0xffffffffffffffff\n      dup2\n      gt\n      dup1\n      iszero\n      tag_44\n      jumpi\n      0x00\n      dup1\n      revert\n    tag_44:\n      pop\n      mload(0x40)\n      swap1\n      dup1\n      dup3\n      mstore\n      dup1\n      0x20\n      mul\n      0x20\n      add\n      dup3\n      add\n      0x40\n      mstore\n      dup1\n      iszero\n      tag_45\n      jumpi\n      dup2\n      0x20\n      add\n    tag_46:\n      0x60\n      dup2\n      mstore\n      0x20\n      add\n      swap1\n      0x01\n      swap1\n      sub\n      swap1\n      dup2\n      tag_46\n      jumpi\n      swap1\n      pop\n    tag_45:\n      pop\n        /* \"contracts/misc/Multicall2.sol\":338:376  returnData = new bytes[](calls.length) */\n      swap1\n      pop\n        /* \"contracts/misc/Multicall2.sol\":392:401  uint256 i */\n      0x00\n        /* \"contracts/misc/Multicall2.sol\":387:631  for (uint256 i = 0; i < calls.length; i++) {\r... */\n    tag_47:\n        /* \"contracts/misc/Multicall2.sol\":411:416  calls */\n      dup4\n        /* \"contracts/misc/Multicall2.sol\":411:423  calls.length */\n      mload\n        /* \"contracts/misc/Multicall2.sol\":407:408  i */\n      dup2\n        /* \"contracts/misc/Multicall2.sol\":407:423  i < calls.length */\n      lt\n        /* \"contracts/misc/Multicall2.sol\":387:631  for (uint256 i = 0; i < calls.length; i++) {\r... */\n      iszero\n      tag_48\n      jumpi\n        /* \"contracts/misc/Multicall2.sol\":446:458  bool success */\n      0x00\n        /* \"contracts/misc/Multicall2.sol\":460:476  bytes memory ret */\n      dup1\n        /* \"contracts/misc/Multicall2.sol\":480:485  calls */\n      dup6\n        /* \"contracts/misc/Multicall2.sol\":486:487  i */\n      dup4\n        /* \"contracts/misc/Multicall2.sol\":480:488  calls[i] */\n      dup2\n      mload\n      dup2\n      lt\n      tag_50\n      jumpi\n      invalid\n    tag_50:\n      0x20\n      mul\n      0x20\n      add\n      add\n      mload\n        /* \"contracts/misc/Multicall2.sol\":480:495  calls[i].target */\n      0x00\n      add\n      mload\n        /* \"contracts/misc/Multicall2.sol\":480:500  calls[i].target.call */\n      0xffffffffffffffffffffffffffffffffffffffff\n      and\n        /* \"contracts/misc/Multicall2.sol\":501:506  calls */\n      dup7\n        /* \"contracts/misc/Multicall2.sol\":507:508  i */\n      dup5\n        /* \"contracts/misc/Multicall2.sol\":501:509  calls[i] */\n      dup2\n      mload\n      dup2\n      lt\n      tag_51\n      jumpi\n      invalid\n    tag_51:\n      0x20\n      mul\n      0x20\n      add\n      add\n      mload\n        /* \"contracts/misc/Multicall2.sol\":501:518  calls[i].callData */\n      0x20\n      add\n      mload\n        /* \"contracts/misc/Multicall2.sol\":480:519  calls[i].target.call(calls[i].callData) */\n      mload(0x40)\n      tag_52\n      swap2\n      swap1\n      tag_53\n      jump\t// in\n    tag_52:\n      0x00\n      mload(0x40)\n      dup1\n      dup4\n      sub\n      dup2\n      0x00\n      dup7\n      gas\n      call\n      swap2\n      pop\n      pop\n      returndatasize\n      dup1\n      0x00\n      dup2\n      eq\n      tag_56\n      jumpi\n      mload(0x40)\n      swap2\n      pop\n      and(add(returndatasize, 0x3f), not(0x1f))\n      dup3\n      add\n      0x40\n      mstore\n      returndatasize\n      dup3\n      mstore\n      returndatasize\n      0x00\n      0x20\n      dup5\n      add\n      returndatacopy\n      jump(tag_55)\n    tag_56:\n      0x60\n      swap2\n      pop\n    tag_55:\n      pop\n        /* \"contracts/misc/Multicall2.sol\":445:519  (bool success, bytes memory ret) = calls[i].target.call(calls[i].callData) */\n      swap2\n      pop\n      swap2\n      pop\n        /* \"contracts/misc/Multicall2.sol\":542:549  success */\n      dup2\n        /* \"contracts/misc/Multicall2.sol\":534:585  require(success, \"Multicall aggregate call failed\") */\n      tag_57\n      jumpi\n      0x00\n      dup1\n      revert\n    tag_57:\n        /* \"contracts/misc/Multicall2.sol\":616:619  ret */\n      dup1\n        /* \"contracts/misc/Multicall2.sol\":600:610  returnData */\n      dup5\n        /* \"contracts/misc/Multicall2.sol\":611:612  i */\n      dup5\n        /* \"contracts/misc/Multicall2.sol\":600:613  returnData[i] */\n      dup2\n      mload\n      dup2\n      lt\n      tag_58\n      jumpi\n      invalid\n    tag_58:\n      0x20\n      swap1\n      dup2\n      mul\n      swap2\n      swap1\n      swap2\n      add\n      add\n        /* \"contracts/misc/Multicall2.sol\":600:619  returnData[i] = ret */\n      mstore\n      pop\n      pop\n        /* \"contracts/misc/Multicall2.sol\":425:428  i++ */\n      0x01\n      add\n        /* \"contracts/misc/Multicall2.sol\":387:631  for (uint256 i = 0; i < calls.length; i++) {\r... */\n      jump(tag_47)\n    tag_48:\n      pop\n        /* \"contracts/misc/Multicall2.sol\":186:638  function aggregate(Call[] memory calls) public returns (uint256 blockNumber, bytes[] memory returnData) {\r... */\n      swap2\n      pop\n      swap2\n      jump\t// out\n        /* \"contracts/misc/Multicall2.sol\":910:1023  function getEthBalance(address addr) public view returns (uint256 balance) {\r... */\n    tag_24:\n        /* \"contracts/misc/Multicall2.sol\":1003:1015  addr.balance */\n      0xffffffffffffffffffffffffffffffffffffffff\n      dup2\n      and\n      balance\n        /* \"contracts/misc/Multicall2.sol\":910:1023  function getEthBalance(address addr) public view returns (uint256 balance) {\r... */\n    tag_59:\n      swap2\n      swap1\n      pop\n      jump\t// out\n        /* \"contracts/misc/Multicall2.sol\":1031:1151  function getCurrentBlockDifficulty() public view returns (uint256 difficulty) {\r... */\n    tag_27:\n        /* \"contracts/misc/Multicall2.sol\":1127:1143  block.difficulty */\n      difficulty\n        /* \"contracts/misc/Multicall2.sol\":1031:1151  function getCurrentBlockDifficulty() public view returns (uint256 difficulty) {\r... */\n      swap1\n      jump\t// out\n        /* \"contracts/misc/Multicall2.sol\":1159:1273  function getCurrentBlockGasLimit() public view returns (uint256 gaslimit) {\r... */\n    tag_30:\n        /* \"contracts/misc/Multicall2.sol\":1251:1265  block.gaslimit */\n      gaslimit\n        /* \"contracts/misc/Multicall2.sol\":1159:1273  function getCurrentBlockGasLimit() public view returns (uint256 gaslimit) {\r... */\n      swap1\n      jump\t// out\n        /* \"contracts/misc/Multicall2.sol\":1281:1395  function getCurrentBlockCoinbase() public view returns (address coinbase) {\r... */\n    tag_33:\n        /* \"contracts/misc/Multicall2.sol\":1373:1387  block.coinbase */\n      coinbase\n        /* \"contracts/misc/Multicall2.sol\":1281:1395  function getCurrentBlockCoinbase() public view returns (address coinbase) {\r... */\n      swap1\n      jump\t// out\n        /* \"contracts/misc/Multicall2.sol\":646:777  function getBlockHash(uint256 blockNumber) public view returns (bytes32 blockHash) {\r... */\n    tag_39:\n        /* \"contracts/misc/Multicall2.sol\":747:769  blockhash(blockNumber) */\n      blockhash\n      swap1\n        /* \"contracts/misc/Multicall2.sol\":646:777  function getBlockHash(uint256 blockNumber) public view returns (bytes32 blockHash) {\r... */\n      jump\t// out\n        /* \"#utility.yul\":14:212   */\n    tag_65:\n        /* \"#utility.yul\":84:104   */\n      dup1\n      calldataload\n        /* \"#utility.yul\":144:186   */\n      0xffffffffffffffffffffffffffffffffffffffff\n        /* \"#utility.yul\":133:187   */\n      dup2\n      and\n        /* \"#utility.yul\":123:188   */\n      dup2\n      eq\n        /* \"#utility.yul\":113:115   */\n      tag_59\n      jumpi\n        /* \"#utility.yul\":202:203   */\n      0x00\n        /* \"#utility.yul\":199:200   */\n      dup1\n        /* \"#utility.yul\":192:204   */\n      revert\n        /* \"#utility.yul\":217:415   */\n    tag_23:\n      0x00\n        /* \"#utility.yul\":329:331   */\n      0x20\n        /* \"#utility.yul\":317:326   */\n      dup3\n        /* \"#utility.yul\":308:315   */\n      dup5\n        /* \"#utility.yul\":304:327   */\n      sub\n        /* \"#utility.yul\":300:332   */\n      slt\n        /* \"#utility.yul\":297:299   */\n      iszero\n      tag_69\n      jumpi\n        /* \"#utility.yul\":350:356   */\n      dup1\n        /* \"#utility.yul\":342:348   */\n      dup2\n        /* \"#utility.yul\":335:357   */\n      revert\n        /* \"#utility.yul\":297:299   */\n    tag_69:\n        /* \"#utility.yul\":378:409   */\n      tag_70\n        /* \"#utility.yul\":399:408   */\n      dup3\n        /* \"#utility.yul\":378:409   */\n      tag_65\n      jump\t// in\n    tag_70:\n        /* \"#utility.yul\":368:409   */\n      swap4\n        /* \"#utility.yul\":287:415   */\n      swap3\n      pop\n      pop\n      pop\n      jump\t// out\n        /* \"#utility.yul\":420:2384   */\n    tag_17:\n      0x00\n        /* \"#utility.yul\":554:556   */\n      0x20\n        /* \"#utility.yul\":597:599   */\n      dup1\n        /* \"#utility.yul\":585:594   */\n      dup4\n        /* \"#utility.yul\":576:583   */\n      dup6\n        /* \"#utility.yul\":572:595   */\n      sub\n        /* \"#utility.yul\":568:600   */\n      slt\n        /* \"#utility.yul\":565:567   */\n      iszero\n      tag_72\n      jumpi\n        /* \"#utility.yul\":618:624   */\n      dup2\n        /* \"#utility.yul\":610:616   */\n      dup3\n        /* \"#utility.yul\":603:625   */\n      revert\n        /* \"#utility.yul\":565:567   */\n    tag_72:\n        /* \"#utility.yul\":646:664   */\n      0xffffffffffffffff\n        /* \"#utility.yul\":704:706   */\n      dup1\n        /* \"#utility.yul\":692:701   */\n      dup5\n        /* \"#utility.yul\":679:702   */\n      calldataload\n        /* \"#utility.yul\":676:707   */\n      gt\n        /* \"#utility.yul\":673:675   */\n      iszero\n      tag_73\n      jumpi\n        /* \"#utility.yul\":725:731   */\n      dup3\n        /* \"#utility.yul\":717:723   */\n      dup4\n        /* \"#utility.yul\":710:732   */\n      revert\n        /* \"#utility.yul\":673:675   */\n    tag_73:\n        /* \"#utility.yul\":781:790   */\n      dup4\n        /* \"#utility.yul\":768:791   */\n      calldataload\n        /* \"#utility.yul\":757:766   */\n      dup5\n        /* \"#utility.yul\":753:792   */\n      add\n        /* \"#utility.yul\":830:837   */\n      dup6\n        /* \"#utility.yul\":823:827   */\n      0x1f\n        /* \"#utility.yul\":819:821   */\n      dup3\n        /* \"#utility.yul\":815:828   */\n      add\n        /* \"#utility.yul\":811:838   */\n      slt\n        /* \"#utility.yul\":801:803   */\n      tag_74\n      jumpi\n        /* \"#utility.yul\":857:863   */\n      dup4\n        /* \"#utility.yul\":849:855   */\n      dup5\n        /* \"#utility.yul\":842:864   */\n      revert\n        /* \"#utility.yul\":801:803   */\n    tag_74:\n        /* \"#utility.yul\":898:900   */\n      dup1\n        /* \"#utility.yul\":885:901   */\n      calldataload\n        /* \"#utility.yul\":920:922   */\n      dup3\n        /* \"#utility.yul\":916:918   */\n      dup2\n        /* \"#utility.yul\":913:923   */\n      gt\n        /* \"#utility.yul\":910:912   */\n      iszero\n      tag_75\n      jumpi\n        /* \"#utility.yul\":926:935   */\n      invalid\n        /* \"#utility.yul\":910:912   */\n    tag_75:\n        /* \"#utility.yul\":957:993   */\n      tag_76\n        /* \"#utility.yul\":989:991   */\n      dup5\n        /* \"#utility.yul\":984:986   */\n      dup6\n        /* \"#utility.yul\":980:982   */\n      dup4\n        /* \"#utility.yul\":976:987   */\n      mul\n        /* \"#utility.yul\":972:992   */\n      add\n        /* \"#utility.yul\":957:993   */\n      tag_77\n      jump\t// in\n    tag_76:\n        /* \"#utility.yul\":1027:1042   */\n      dup2\n      dup2\n      mstore\n        /* \"#utility.yul\":1058:1070   */\n      dup5\n      dup2\n      add\n      swap1\n        /* \"#utility.yul\":1090:1101   */\n      dup4\n      dup7\n      add\n        /* \"#utility.yul\":1119:1125   */\n      dup8\n        /* \"#utility.yul\":1134:2354   */\n    tag_78:\n        /* \"#utility.yul\":1148:1150   */\n      dup5\n        /* \"#utility.yul\":1145:1146   */\n      dup2\n        /* \"#utility.yul\":1142:1151   */\n      lt\n        /* \"#utility.yul\":1134:2354   */\n      iszero\n      tag_80\n      jumpi\n        /* \"#utility.yul\":1211:1228   */\n      dup2\n      calldataload\n        /* \"#utility.yul\":1203:1229   */\n      dup7\n      add\n      not(0x1f)\n        /* \"#utility.yul\":1306:1310   */\n      0x40\n        /* \"#utility.yul\":1283:1299   */\n      dup3\n      dup15\n      sub\n        /* \"#utility.yul\":1279:1304   */\n      dup3\n      add\n        /* \"#utility.yul\":1275:1311   */\n      slt\n        /* \"#utility.yul\":1272:1274   */\n      iszero\n      tag_81\n      jumpi\n        /* \"#utility.yul\":1329:1335   */\n      dup11\n        /* \"#utility.yul\":1321:1327   */\n      dup12\n        /* \"#utility.yul\":1314:1336   */\n      revert\n        /* \"#utility.yul\":1272:1274   */\n    tag_81:\n        /* \"#utility.yul\":1371:1375   */\n      0x40\n        /* \"#utility.yul\":1365:1376   */\n      mload\n        /* \"#utility.yul\":1419:1423   */\n      0x40\n        /* \"#utility.yul\":1411:1417   */\n      dup2\n        /* \"#utility.yul\":1407:1424   */\n      add\n        /* \"#utility.yul\":1478:1484   */\n      dup2\n        /* \"#utility.yul\":1466:1476   */\n      dup2\n        /* \"#utility.yul\":1463:1485   */\n      lt\n        /* \"#utility.yul\":1458:1460   */\n      dup12\n        /* \"#utility.yul\":1446:1456   */\n      dup3\n        /* \"#utility.yul\":1443:1461   */\n      gt\n        /* \"#utility.yul\":1440:1486   */\n      or\n        /* \"#utility.yul\":1437:1439   */\n      iszero\n      tag_82\n      jumpi\n        /* \"#utility.yul\":1489:1498   */\n      invalid\n        /* \"#utility.yul\":1437:1439   */\n    tag_82:\n        /* \"#utility.yul\":1520:1524   */\n      0x40\n        /* \"#utility.yul\":1513:1537   */\n      mstore\n        /* \"#utility.yul\":1565:1598   */\n      tag_83\n        /* \"#utility.yul\":1586:1597   */\n      dup4\n      dup13\n      add\n        /* \"#utility.yul\":1565:1598   */\n      tag_65\n      jump\t// in\n    tag_83:\n        /* \"#utility.yul\":1557:1563   */\n      dup2\n        /* \"#utility.yul\":1550:1599   */\n      mstore\n        /* \"#utility.yul\":1647:1651   */\n      0x40\n        /* \"#utility.yul\":1643:1645   */\n      dup4\n        /* \"#utility.yul\":1639:1652   */\n      add\n        /* \"#utility.yul\":1626:1653   */\n      calldataload\n        /* \"#utility.yul\":1680:1682   */\n      dup11\n        /* \"#utility.yul\":1672:1678   */\n      dup2\n        /* \"#utility.yul\":1669:1683   */\n      gt\n        /* \"#utility.yul\":1666:1668   */\n      iszero\n      tag_84\n      jumpi\n        /* \"#utility.yul\":1701:1707   */\n      dup13\n        /* \"#utility.yul\":1693:1699   */\n      dup14\n        /* \"#utility.yul\":1686:1708   */\n      revert\n        /* \"#utility.yul\":1666:1668   */\n    tag_84:\n        /* \"#utility.yul\":1741:1747   */\n      dup1\n        /* \"#utility.yul\":1737:1739   */\n      dup5\n        /* \"#utility.yul\":1733:1748   */\n      add\n        /* \"#utility.yul\":1723:1748   */\n      swap4\n      pop\n      pop\n        /* \"#utility.yul\":1788:1795   */\n      dup14\n        /* \"#utility.yul\":1783:1785   */\n      0x3f\n        /* \"#utility.yul\":1779:1781   */\n      dup5\n        /* \"#utility.yul\":1775:1786   */\n      add\n        /* \"#utility.yul\":1771:1796   */\n      slt\n        /* \"#utility.yul\":1761:1763   */\n      tag_85\n      jumpi\n        /* \"#utility.yul\":1815:1821   */\n      dup12\n        /* \"#utility.yul\":1807:1813   */\n      dup13\n        /* \"#utility.yul\":1800:1822   */\n      revert\n        /* \"#utility.yul\":1761:1763   */\n    tag_85:\n        /* \"#utility.yul\":1868:1870   */\n      dup11\n        /* \"#utility.yul\":1864:1866   */\n      dup4\n        /* \"#utility.yul\":1860:1871   */\n      add\n        /* \"#utility.yul\":1847:1872   */\n      calldataload\n        /* \"#utility.yul\":1895:1897   */\n      dup11\n        /* \"#utility.yul\":1891:1893   */\n      dup2\n        /* \"#utility.yul\":1888:1898   */\n      gt\n        /* \"#utility.yul\":1885:1887   */\n      iszero\n      tag_86\n      jumpi\n        /* \"#utility.yul\":1901:1910   */\n      invalid\n        /* \"#utility.yul\":1885:1887   */\n    tag_86:\n        /* \"#utility.yul\":1938:1985   */\n      tag_87\n        /* \"#utility.yul\":1981:1983   */\n      dup13\n        /* \"#utility.yul\":1976:1978   */\n      dup5\n        /* \"#utility.yul\":1969:1973   */\n      0x1f\n        /* \"#utility.yul\":1965:1967   */\n      dup5\n        /* \"#utility.yul\":1961:1974   */\n      add\n        /* \"#utility.yul\":1957:1979   */\n      and\n        /* \"#utility.yul\":1953:1984   */\n      add\n        /* \"#utility.yul\":1938:1985   */\n      tag_77\n      jump\t// in\n    tag_87:\n        /* \"#utility.yul\":1925:1985   */\n      swap3\n      pop\n        /* \"#utility.yul\":2012:2014   */\n      dup1\n        /* \"#utility.yul\":2005:2010   */\n      dup4\n        /* \"#utility.yul\":1998:2015   */\n      mstore\n        /* \"#utility.yul\":2058:2065   */\n      dup15\n        /* \"#utility.yul\":2051:2055   */\n      0x40\n        /* \"#utility.yul\":2046:2048   */\n      dup3\n        /* \"#utility.yul\":2042:2044   */\n      dup7\n        /* \"#utility.yul\":2038:2049   */\n      add\n        /* \"#utility.yul\":2034:2056   */\n      add\n        /* \"#utility.yul\":2031:2066   */\n      gt\n        /* \"#utility.yul\":2028:2030   */\n      iszero\n      tag_88\n      jumpi\n        /* \"#utility.yul\":2084:2090   */\n      dup13\n        /* \"#utility.yul\":2076:2082   */\n      dup14\n        /* \"#utility.yul\":2069:2091   */\n      revert\n        /* \"#utility.yul\":2028:2030   */\n    tag_88:\n        /* \"#utility.yul\":2150:2152   */\n      dup1\n        /* \"#utility.yul\":2143:2147   */\n      0x40\n        /* \"#utility.yul\":2139:2141   */\n      dup6\n        /* \"#utility.yul\":2135:2148   */\n      add\n        /* \"#utility.yul\":2130:2132   */\n      dup14\n        /* \"#utility.yul\":2123:2128   */\n      dup6\n        /* \"#utility.yul\":2119:2133   */\n      add\n        /* \"#utility.yul\":2106:2153   */\n      calldatacopy\n        /* \"#utility.yul\":2177:2191   */\n      dup3\n      add\n        /* \"#utility.yul\":2173:2196   */\n      dup12\n      add\n        /* \"#utility.yul\":2166:2205   */\n      dup13\n      swap1\n      mstore\n        /* \"#utility.yul\":2225:2240   */\n      dup1\n      dup12\n      add\n        /* \"#utility.yul\":2218:2248   */\n      swap2\n      swap1\n      swap2\n      mstore\n        /* \"#utility.yul\":2261:2280   */\n      dup6\n      mstore\n      pop\n        /* \"#utility.yul\":2300:2312   */\n      swap3\n      dup8\n      add\n      swap3\n        /* \"#utility.yul\":2332:2344   */\n      swap1\n      dup8\n      add\n      swap1\n        /* \"#utility.yul\":1166:1167   */\n      0x01\n        /* \"#utility.yul\":1159:1168   */\n      add\n        /* \"#utility.yul\":1134:2354   */\n      jump(tag_78)\n    tag_80:\n      pop\n        /* \"#utility.yul\":2373:2378   */\n      swap1\n      swap10\n        /* \"#utility.yul\":534:2384   */\n      swap9\n      pop\n      pop\n      pop\n      pop\n      pop\n      pop\n      pop\n      pop\n      pop\n      jump\t// out\n        /* \"#utility.yul\":2389:2579   */\n    tag_38:\n      0x00\n        /* \"#utility.yul\":2501:2503   */\n      0x20\n        /* \"#utility.yul\":2489:2498   */\n      dup3\n        /* \"#utility.yul\":2480:2487   */\n      dup5\n        /* \"#utility.yul\":2476:2499   */\n      sub\n        /* \"#utility.yul\":2472:2504   */\n      slt\n        /* \"#utility.yul\":2469:2471   */\n      iszero\n      tag_90\n      jumpi\n        /* \"#utility.yul\":2522:2528   */\n      dup1\n        /* \"#utility.yul\":2514:2520   */\n      dup2\n        /* \"#utility.yul\":2507:2529   */\n      revert\n        /* \"#utility.yul\":2469:2471   */\n    tag_90:\n      pop\n        /* \"#utility.yul\":2550:2573   */\n      calldataload\n      swap2\n        /* \"#utility.yul\":2459:2579   */\n      swap1\n      pop\n      jump\t// out\n        /* \"#utility.yul\":2584:2858   */\n    tag_53:\n      0x00\n        /* \"#utility.yul\":2751:2757   */\n      dup3\n        /* \"#utility.yul\":2745:2758   */\n      mload\n        /* \"#utility.yul\":2767:2820   */\n      tag_92\n        /* \"#utility.yul\":2813:2819   */\n      dup2\n        /* \"#utility.yul\":2808:2811   */\n      dup5\n        /* \"#utility.yul\":2801:2805   */\n      0x20\n        /* \"#utility.yul\":2793:2799   */\n      dup8\n        /* \"#utility.yul\":2789:2806   */\n      add\n        /* \"#utility.yul\":2767:2820   */\n      tag_93\n      jump\t// in\n    tag_92:\n        /* \"#utility.yul\":2836:2852   */\n      swap2\n      swap1\n      swap2\n      add\n      swap3\n        /* \"#utility.yul\":2721:2858   */\n      swap2\n      pop\n      pop\n      jump\t// out\n        /* \"#utility.yul\":2863:3089   */\n    tag_35:\n        /* \"#utility.yul\":3039:3081   */\n      0xffffffffffffffffffffffffffffffffffffffff\n        /* \"#utility.yul\":3027:3082   */\n      swap2\n      swap1\n      swap2\n      and\n        /* \"#utility.yul\":3009:3083   */\n      dup2\n      mstore\n        /* \"#utility.yul\":2997:2999   */\n      0x20\n        /* \"#utility.yul\":2982:3000   */\n      add\n      swap1\n        /* \"#utility.yul\":2964:3089   */\n      jump\t// out\n        /* \"#utility.yul\":3094:3271   */\n    tag_41:\n        /* \"#utility.yul\":3240:3265   */\n      swap1\n      dup2\n      mstore\n        /* \"#utility.yul\":3228:3230   */\n      0x20\n        /* \"#utility.yul\":3213:3231   */\n      add\n      swap1\n        /* \"#utility.yul\":3195:3271   */\n      jump\t// out\n        /* \"#utility.yul\":3458:4532   */\n    tag_20:\n      0x00\n        /* \"#utility.yul\":3694:3696   */\n      0x40\n        /* \"#utility.yul\":3683:3692   */\n      dup3\n        /* \"#utility.yul\":3679:3697   */\n      add\n        /* \"#utility.yul\":3724:3730   */\n      dup5\n        /* \"#utility.yul\":3713:3722   */\n      dup4\n        /* \"#utility.yul\":3706:3731   */\n      mstore\n        /* \"#utility.yul\":3750:3752   */\n      0x20\n        /* \"#utility.yul\":3788:3790   */\n      0x40\n        /* \"#utility.yul\":3783:3785   */\n      dup2\n        /* \"#utility.yul\":3772:3781   */\n      dup6\n        /* \"#utility.yul\":3768:3786   */\n      add\n        /* \"#utility.yul\":3761:3791   */\n      mstore\n        /* \"#utility.yul\":3811:3817   */\n      dup2\n        /* \"#utility.yul\":3846:3852   */\n      dup6\n        /* \"#utility.yul\":3840:3853   */\n      mload\n        /* \"#utility.yul\":3877:3883   */\n      dup1\n        /* \"#utility.yul\":3869:3875   */\n      dup5\n        /* \"#utility.yul\":3862:3884   */\n      mstore\n        /* \"#utility.yul\":3915:3917   */\n      0x60\n        /* \"#utility.yul\":3904:3913   */\n      dup7\n        /* \"#utility.yul\":3900:3918   */\n      add\n        /* \"#utility.yul\":3893:3918   */\n      swap2\n      pop\n        /* \"#utility.yul\":3978:3980   */\n      0x60\n        /* \"#utility.yul\":3972:3974   */\n      dup4\n        /* \"#utility.yul\":3964:3970   */\n      dup3\n        /* \"#utility.yul\":3960:3975   */\n      mul\n        /* \"#utility.yul\":3949:3958   */\n      dup8\n        /* \"#utility.yul\":3945:3976   */\n      add\n        /* \"#utility.yul\":3941:3981   */\n      add\n        /* \"#utility.yul\":3927:3981   */\n      swap4\n      pop\n        /* \"#utility.yul\":4016:4018   */\n      dup3\n        /* \"#utility.yul\":4008:4014   */\n      dup8\n        /* \"#utility.yul\":4004:4019   */\n      add\n        /* \"#utility.yul\":4037:4041   */\n      dup6\n        /* \"#utility.yul\":4050:4503   */\n    tag_98:\n        /* \"#utility.yul\":4064:4070   */\n      dup3\n        /* \"#utility.yul\":4061:4062   */\n      dup2\n        /* \"#utility.yul\":4058:4071   */\n      lt\n        /* \"#utility.yul\":4050:4503   */\n      iszero\n      tag_100\n      jumpi\n        /* \"#utility.yul\":4129:4151   */\n      dup8\n      dup7\n      sub\n      not(0x5f)\n        /* \"#utility.yul\":4125:4161   */\n      add\n        /* \"#utility.yul\":4113:4162   */\n      dup5\n      mstore\n        /* \"#utility.yul\":4185:4198   */\n      dup2\n      mload\n        /* \"#utility.yul\":4227:4236   */\n      dup1\n      mload\n        /* \"#utility.yul\":4249:4273   */\n      dup1\n      dup9\n      mstore\n        /* \"#utility.yul\":4286:4347   */\n      tag_101\n        /* \"#utility.yul\":4227:4236   */\n      dup2\n        /* \"#utility.yul\":4321:4336   */\n      dup9\n      dup11\n      add\n        /* \"#utility.yul\":4308:4319   */\n      dup10\n      dup6\n      add\n        /* \"#utility.yul\":4286:4347   */\n      tag_93\n      jump\t// in\n    tag_101:\n        /* \"#utility.yul\":4413:4415   */\n      0x1f\n        /* \"#utility.yul\":4390:4407   */\n      add\n      not(0x1f)\n        /* \"#utility.yul\":4386:4417   */\n      and\n        /* \"#utility.yul\":4374:4418   */\n      swap7\n      swap1\n      swap7\n      add\n        /* \"#utility.yul\":4370:4423   */\n      dup6\n      add\n      swap6\n      pop\n        /* \"#utility.yul\":4481:4493   */\n      swap3\n      dup5\n      add\n      swap3\n        /* \"#utility.yul\":4446:4461   */\n      swap1\n      dup5\n      add\n      swap1\n        /* \"#utility.yul\":4086:4087   */\n      0x01\n        /* \"#utility.yul\":4079:4088   */\n      add\n        /* \"#utility.yul\":4050:4503   */\n      jump(tag_98)\n    tag_100:\n      pop\n        /* \"#utility.yul\":4520:4526   */\n      swap4\n      swap9\n        /* \"#utility.yul\":3655:4532   */\n      swap8\n      pop\n      pop\n      pop\n      pop\n      pop\n      pop\n      pop\n      pop\n      jump\t// out\n        /* \"#utility.yul\":4537:4779   */\n    tag_77:\n        /* \"#utility.yul\":4607:4609   */\n      0x40\n        /* \"#utility.yul\":4601:4610   */\n      mload\n        /* \"#utility.yul\":4637:4654   */\n      dup2\n      dup2\n      add\n        /* \"#utility.yul\":4684:4702   */\n      0xffffffffffffffff\n        /* \"#utility.yul\":4669:4703   */\n      dup2\n      gt\n        /* \"#utility.yul\":4705:4727   */\n      dup3\n      dup3\n      lt\n        /* \"#utility.yul\":4666:4728   */\n      or\n        /* \"#utility.yul\":4663:4665   */\n      iszero\n      tag_103\n      jumpi\n        /* \"#utility.yul\":4731:4740   */\n      invalid\n        /* \"#utility.yul\":4663:4665   */\n    tag_103:\n        /* \"#utility.yul\":4758:4760   */\n      0x40\n        /* \"#utility.yul\":4751:4773   */\n      mstore\n        /* \"#utility.yul\":4581:4779   */\n      swap2\n      swap1\n      pop\n      jump\t// out\n        /* \"#utility.yul\":4784:5042   */\n    tag_93:\n        /* \"#utility.yul\":4856:4857   */\n      0x00\n        /* \"#utility.yul\":4866:4979   */\n    tag_105:\n        /* \"#utility.yul\":4880:4886   */\n      dup4\n        /* \"#utility.yul\":4877:4878   */\n      dup2\n        /* \"#utility.yul\":4874:4887   */\n      lt\n        /* \"#utility.yul\":4866:4979   */\n      iszero\n      tag_107\n      jumpi\n        /* \"#utility.yul\":4956:4967   */\n      dup2\n      dup2\n      add\n        /* \"#utility.yul\":4950:4968   */\n      mload\n        /* \"#utility.yul\":4937:4948   */\n      dup4\n      dup3\n      add\n        /* \"#utility.yul\":4930:4969   */\n      mstore\n        /* \"#utility.yul\":4902:4904   */\n      0x20\n        /* \"#utility.yul\":4895:4905   */\n      add\n        /* \"#utility.yul\":4866:4979   */\n      jump(tag_105)\n    tag_107:\n        /* \"#utility.yul\":4997:5003   */\n      dup4\n        /* \"#utility.yul\":4994:4995   */\n      dup2\n        /* \"#utility.yul\":4991:5004   */\n      gt\n        /* \"#utility.yul\":4988:4990   */\n      iszero\n      tag_108\n      jumpi\n        /* \"#utility.yul\":5032:5033   */\n      0x00\n        /* \"#utility.yul\":5023:5029   */\n      dup5\n        /* \"#utility.yul\":5018:5021   */\n      dup5\n        /* \"#utility.yul\":5014:5030   */\n      add\n        /* \"#utility.yul\":5007:5034   */\n      mstore\n        /* \"#utility.yul\":4988:4990   */\n    tag_108:\n      pop\n        /* \"#utility.yul\":4837:5042   */\n      pop\n      pop\n      pop\n      jump\t// out\n\n    auxdata: 0xa164736f6c6343000706000a\n}\n","bytecode":{"linkReferences":{},"object":"608060405234801561001057600080fd5b50610527806100206000396000f3fe608060405234801561001057600080fd5b506004361061007d5760003560e01c806372425d9d1161005b57806372425d9d146100d457806386d516e8146100dc578063a8b0574e146100e4578063ee82ac5e146100f95761007d565b80630f28c97d14610082578063252dba42146100a05780634d2301cc146100c1575b600080fd5b61008a61010c565b604051610097919061043d565b60405180910390f35b6100b36100ae3660046102b2565b610110565b604051610097929190610446565b61008a6100cf366004610291565b61023f565b61008a61025d565b61008a610261565b6100ec610265565b604051610097919061041c565b61008a6101073660046103e8565b610269565b4290565b8051439060609067ffffffffffffffff8111801561012d57600080fd5b5060405190808252806020026020018201604052801561016157816020015b606081526020019060019003908161014c5790505b50905060005b83518110156102395760008085838151811061017f57fe5b60200260200101516000015173ffffffffffffffffffffffffffffffffffffffff168684815181106101ad57fe5b6020026020010151602001516040516101c69190610400565b6000604051808303816000865af19150503d8060008114610203576040519150601f19603f3d011682016040523d82523d6000602084013e610208565b606091505b50915091508161021757600080fd5b8084848151811061022457fe5b60209081029190910101525050600101610167565b50915091565b73ffffffffffffffffffffffffffffffffffffffff8116315b919050565b4490565b4590565b4190565b4090565b803573ffffffffffffffffffffffffffffffffffffffff8116811461025857600080fd5b6000602082840312156102a2578081fd5b6102ab8261026d565b9392505050565b600060208083850312156102c4578182fd5b67ffffffffffffffff80843511156102da578283fd5b8335840185601f8201126102ec578384fd5b8035828111156102f857fe5b61030584858302016104c6565b81815284810190838601875b848110156103d95781358601601f196040828e0382011215610331578a8bfd5b604051604081018181108b8211171561034657fe5b604052610354838c0161026d565b815260408301358a811115610367578c8dfd5b8084019350508d603f84011261037b578b8cfd5b8a8301358a81111561038957fe5b6103998c84601f840116016104c6565b92508083528e60408286010111156103af578c8dfd5b80604085018d85013782018b018c9052808b01919091528552509287019290870190600101610311565b50909998505050505050505050565b6000602082840312156103f9578081fd5b5035919050565b600082516104128184602087016104ea565b9190910192915050565b73ffffffffffffffffffffffffffffffffffffffff91909116815260200190565b90815260200190565b600060408201848352602060408185015281855180845260608601915060608382028701019350828701855b828110156104b857878603605f190184528151805180885261049981888a018985016104ea565b601f01601f191696909601850195509284019290840190600101610472565b509398975050505050505050565b60405181810167ffffffffffffffff811182821017156104e257fe5b604052919050565b60005b838110156105055781810151838201526020016104ed565b83811115610514576000848401525b5050505056fea164736f6c6343000706000a","opcodes":"PUSH1 0x80 PUSH1 0x40 MSTORE CALLVALUE DUP1 ISZERO PUSH2 0x10 JUMPI PUSH1 0x0 DUP1 REVERT JUMPDEST POP PUSH2 0x527 DUP1 PUSH2 0x20 PUSH1 0x0 CODECOPY PUSH1 0x0 RETURN INVALID PUSH1 0x80 PUSH1 0x40 MSTORE CALLVALUE DUP1 ISZERO PUSH2 0x10 JUMPI PUSH1 0x0 DUP1 REVERT JUMPDEST POP PUSH1 0x4 CALLDATASIZE LT PUSH2 0x7D JUMPI PUSH1 0x0 CALLDATALOAD PUSH1 0xE0 SHR DUP1 PUSH4 0x72425D9D GT PUSH2 0x5B JUMPI DUP1 PUSH4 0x72425D9D EQ PUSH2 0xD4 JUMPI DUP1 PUSH4 0x86D516E8 EQ PUSH2 0xDC JUMPI DUP1 PUSH4 0xA8B0574E EQ PUSH2 0xE4 JUMPI DUP1 PUSH4 0xEE82AC5E EQ PUSH2 0xF9 JUMPI PUSH2 0x7D JUMP JUMPDEST DUP1 PUSH4 0xF28C97D EQ PUSH2 0x82 JUMPI DUP1 PUSH4 0x252DBA42 EQ PUSH2 0xA0 JUMPI DUP1 PUSH4 0x4D2301CC EQ PUSH2 0xC1 JUMPI JUMPDEST PUSH1 0x0 DUP1 REVERT JUMPDEST PUSH2 0x8A PUSH2 0x10C JUMP JUMPDEST PUSH1 0x40 MLOAD PUSH2 0x97 SWAP2 SWAP1 PUSH2 0x43D JUMP JUMPDEST PUSH1 0x40 MLOAD DUP1 SWAP2 SUB SWAP1 RETURN JUMPDEST PUSH2 0xB3 PUSH2 0xAE CALLDATASIZE PUSH1 0x4 PUSH2 0x2B2 JUMP JUMPDEST PUSH2 0x110 JUMP JUMPDEST PUSH1 0x40 MLOAD PUSH2 0x97 SWAP3 SWAP2 SWAP1 PUSH2 0x446 JUMP JUMPDEST PUSH2 0x8A PUSH2 0xCF CALLDATASIZE PUSH1 0x4 PUSH2 0x291 JUMP JUMPDEST PUSH2 0x23F JUMP JUMPDEST PUSH2 0x8A PUSH2 0x25D JUMP JUMPDEST PUSH2 0x8A PUSH2 0x261 JUMP JUMPDEST PUSH2 0xEC PUSH2 0x265 JUMP JUMPDEST PUSH1 0x40 MLOAD PUSH2 0x97 SWAP2 SWAP1 PUSH2 0x41C JUMP JUMPDEST PUSH2 0x8A PUSH2 0x107 CALLDATASIZE PUSH1 0x4 PUSH2 0x3E8 JUMP JUMPDEST PUSH2 0x269 JUMP JUMPDEST TIMESTAMP SWAP1 JUMP JUMPDEST DUP1 MLOAD NUMBER SWAP1 PUSH1 0x60 SWAP1 PUSH8 0xFFFFFFFFFFFFFFFF DUP2 GT DUP1 ISZERO PUSH2 0x12D JUMPI PUSH1 0x0 DUP1 REVERT JUMPDEST POP PUSH1 0x40 MLOAD SWAP1 DUP1 DUP3 MSTORE DUP1 PUSH1 0x20 MUL PUSH1 0x20 ADD DUP3 ADD PUSH1 0x40 MSTORE DUP1 ISZERO PUSH2 0x161 JUMPI DUP2 PUSH1 0x20 ADD JUMPDEST PUSH1 0x60 DUP2 MSTORE PUSH1 0x20 ADD SWAP1 PUSH1 0x1 SWAP1 SUB SWAP1 DUP2 PUSH2 0x14C JUMPI SWAP1 POP JUMPDEST POP SWAP1 POP PUSH1 0x0 JUMPDEST DUP4 MLOAD DUP2 LT ISZERO PUSH2 0x239 JUMPI PUSH1 0x0 DUP1 DUP6 DUP4 DUP2 MLOAD DUP2 LT PUSH2 0x17F JUMPI INVALID JUMPDEST PUSH1 0x20 MUL PUSH1 0x20 ADD ADD MLOAD PUSH1 0x0 ADD MLOAD PUSH20 0xFFFFFFFFFFFFFFFFFFFFFFFFFFFFFFFFFFFFFFFF AND DUP7 DUP5 DUP2 MLOAD DUP2 LT PUSH2 0x1AD JUMPI INVALID JUMPDEST PUSH1 0x20 MUL PUSH1 0x20 ADD ADD MLOAD PUSH1 0x20 ADD MLOAD PUSH1 0x40 MLOAD PUSH2 0x1C6 SWAP2 SWAP1 PUSH2 0x400 JUMP JUMPDEST PUSH1 0x0 PUSH1 0x40 MLOAD DUP1 DUP4 SUB DUP2 PUSH1 0x0 DUP7 GAS CALL SWAP2 POP POP RETURNDATASIZE DUP1 PUSH1 0x0 DUP2 EQ PUSH2 0x203 JUMPI PUSH1 0x40 MLOAD SWAP2 POP PUSH1 0x1F NOT PUSH1 0x3F RETURNDATASIZE ADD AND DUP3 ADD PUSH1 0x40 MSTORE RETURNDATASIZE DUP3 MSTORE RETURNDATASIZE PUSH1 0x0 PUSH1 0x20 DUP5 ADD RETURNDATACOPY PUSH2 0x208 JUMP JUMPDEST PUSH1 0x60 SWAP2 POP JUMPDEST POP SWAP2 POP SWAP2 POP DUP2 PUSH2 0x217 JUMPI PUSH1 0x0 DUP1 REVERT JUMPDEST DUP1 DUP5 DUP5 DUP2 MLOAD DUP2 LT PUSH2 0x224 JUMPI INVALID JUMPDEST PUSH1 0x20 SWAP1 DUP2 MUL SWAP2 SWAP1 SWAP2 ADD ADD MSTORE POP POP PUSH1 0x1 ADD PUSH2 0x167 JUMP JUMPDEST POP SWAP2 POP SWAP2 JUMP JUMPDEST PUSH20 0xFFFFFFFFFFFFFFFFFFFFFFFFFFFFFFFFFFFFFFFF DUP2 AND BALANCE JUMPDEST SWAP2 SWAP1 POP JUMP JUMPDEST DIFFICULTY SWAP1 JUMP JUMPDEST GASLIMIT SWAP1 JUMP JUMPDEST COINBASE SWAP1 JUMP JUMPDEST BLOCKHASH SWAP1 JUMP JUMPDEST DUP1 CALLDATALOAD PUSH20 0xFFFFFFFFFFFFFFFFFFFFFFFFFFFFFFFFFFFFFFFF DUP2 AND DUP2 EQ PUSH2 0x258 JUMPI PUSH1 0x0 DUP1 REVERT JUMPDEST PUSH1 0x0 PUSH1 0x20 DUP3 DUP5 SUB SLT ISZERO PUSH2 0x2A2 JUMPI DUP1 DUP2 REVERT JUMPDEST PUSH2 0x2AB DUP3 PUSH2 0x26D JUMP JUMPDEST SWAP4 SWAP3 POP POP POP JUMP JUMPDEST PUSH1 0x0 PUSH1 0x20 DUP1 DUP4 DUP6 SUB SLT ISZERO PUSH2 0x2C4 JUMPI DUP2 DUP3 REVERT JUMPDEST PUSH8 0xFFFFFFFFFFFFFFFF DUP1 DUP5 CALLDATALOAD GT ISZERO PUSH2 0x2DA JUMPI DUP3 DUP4 REVERT JUMPDEST DUP4 CALLDATALOAD DUP5 ADD DUP6 PUSH1 0x1F DUP3 ADD SLT PUSH2 0x2EC JUMPI DUP4 DUP5 REVERT JUMPDEST DUP1 CALLDATALOAD DUP3 DUP2 GT ISZERO PUSH2 0x2F8 JUMPI INVALID JUMPDEST PUSH2 0x305 DUP5 DUP6 DUP4 MUL ADD PUSH2 0x4C6 JUMP JUMPDEST DUP2 DUP2 MSTORE DUP5 DUP2 ADD SWAP1 DUP4 DUP7 ADD DUP8 JUMPDEST DUP5 DUP2 LT ISZERO PUSH2 0x3D9 JUMPI DUP2 CALLDATALOAD DUP7 ADD PUSH1 0x1F NOT PUSH1 0x40 DUP3 DUP15 SUB DUP3 ADD SLT ISZERO PUSH2 0x331 JUMPI DUP11 DUP12 REVERT JUMPDEST PUSH1 0x40 MLOAD PUSH1 0x40 DUP2 ADD DUP2 DUP2 LT DUP12 DUP3 GT OR ISZERO PUSH2 0x346 JUMPI INVALID JUMPDEST PUSH1 0x40 MSTORE PUSH2 0x354 DUP4 DUP13 ADD PUSH2 0x26D JUMP JUMPDEST DUP2 MSTORE PUSH1 0x40 DUP4 ADD CALLDATALOAD DUP11 DUP2 GT ISZERO PUSH2 0x367 JUMPI DUP13 DUP14 REVERT JUMPDEST DUP1 DUP5 ADD SWAP4 POP POP DUP14 PUSH1 0x3F DUP5 ADD SLT PUSH2 0x37B JUMPI DUP12 DUP13 REVERT JUMPDEST DUP11 DUP4 ADD CALLDATALOAD DUP11 DUP2 GT ISZERO PUSH2 0x389 JUMPI INVALID JUMPDEST PUSH2 0x399 DUP13 DUP5 PUSH1 0x1F DUP5 ADD AND ADD PUSH2 0x4C6 JUMP JUMPDEST SWAP3 POP DUP1 DUP4 MSTORE DUP15 PUSH1 0x40 DUP3 DUP7 ADD ADD GT ISZERO PUSH2 0x3AF JUMPI DUP13 DUP14 REVERT JUMPDEST DUP1 PUSH1 0x40 DUP6 ADD DUP14 DUP6 ADD CALLDATACOPY DUP3 ADD DUP12 ADD DUP13 SWAP1 MSTORE DUP1 DUP12 ADD SWAP2 SWAP1 SWAP2 MSTORE DUP6 MSTORE POP SWAP3 DUP8 ADD SWAP3 SWAP1 DUP8 ADD SWAP1 PUSH1 0x1 ADD PUSH2 0x311 JUMP JUMPDEST POP SWAP1 SWAP10 SWAP9 POP POP POP POP POP POP POP POP POP JUMP JUMPDEST PUSH1 0x0 PUSH1 0x20 DUP3 DUP5 SUB SLT ISZERO PUSH2 0x3F9 JUMPI DUP1 DUP2 REVERT JUMPDEST POP CALLDATALOAD SWAP2 SWAP1 POP JUMP JUMPDEST PUSH1 0x0 DUP3 MLOAD PUSH2 0x412 DUP2 DUP5 PUSH1 0x20 DUP8 ADD PUSH2 0x4EA JUMP JUMPDEST SWAP2 SWAP1 SWAP2 ADD SWAP3 SWAP2 POP POP JUMP JUMPDEST PUSH20 0xFFFFFFFFFFFFFFFFFFFFFFFFFFFFFFFFFFFFFFFF SWAP2 SWAP1 SWAP2 AND DUP2 MSTORE PUSH1 0x20 ADD SWAP1 JUMP JUMPDEST SWAP1 DUP2 MSTORE PUSH1 0x20 ADD SWAP1 JUMP JUMPDEST PUSH1 0x0 PUSH1 0x40 DUP3 ADD DUP5 DUP4 MSTORE PUSH1 0x20 PUSH1 0x40 DUP2 DUP6 ADD MSTORE DUP2 DUP6 MLOAD DUP1 DUP5 MSTORE PUSH1 0x60 DUP7 ADD SWAP2 POP PUSH1 0x60 DUP4 DUP3 MUL DUP8 ADD ADD SWAP4 POP DUP3 DUP8 ADD DUP6 JUMPDEST DUP3 DUP2 LT ISZERO PUSH2 0x4B8 JUMPI DUP8 DUP7 SUB PUSH1 0x5F NOT ADD DUP5 MSTORE DUP2 MLOAD DUP1 MLOAD DUP1 DUP9 MSTORE PUSH2 0x499 DUP2 DUP9 DUP11 ADD DUP10 DUP6 ADD PUSH2 0x4EA JUMP JUMPDEST PUSH1 0x1F ADD PUSH1 0x1F NOT AND SWAP7 SWAP1 SWAP7 ADD DUP6 ADD SWAP6 POP SWAP3 DUP5 ADD SWAP3 SWAP1 DUP5 ADD SWAP1 PUSH1 0x1 ADD PUSH2 0x472 JUMP JUMPDEST POP SWAP4 SWAP9 SWAP8 POP POP POP POP POP POP POP POP JUMP JUMPDEST PUSH1 0x40 MLOAD DUP2 DUP2 ADD PUSH8 0xFFFFFFFFFFFFFFFF DUP2 GT DUP3 DUP3 LT OR ISZERO PUSH2 0x4E2 JUMPI INVALID JUMPDEST PUSH1 0x40 MSTORE SWAP2 SWAP1 POP JUMP JUMPDEST PUSH1 0x0 JUMPDEST DUP4 DUP2 LT ISZERO PUSH2 0x505 JUMPI DUP2 DUP2 ADD MLOAD DUP4 DUP3 ADD MSTORE PUSH1 0x20 ADD PUSH2 0x4ED JUMP JUMPDEST DUP4 DUP2 GT ISZERO PUSH2 0x514 JUMPI PUSH1 0x0 DUP5 DUP5 ADD MSTORE JUMPDEST POP POP POP POP JUMP INVALID LOG1 PUSH5 0x736F6C6343 STOP SMOD MOD STOP EXP "},"gasEstimates":{"creation":{"codeDepositCost":"263800","executionCost":"306","totalCost":"264106"},"external":{"aggregate((address,bytes)[])":"infinite","getBlockHash(uint256)":"388","getCurrentBlockCoinbase()":"283","getCurrentBlockDifficulty()":"227","getCurrentBlockGasLimit()":"249","getCurrentBlockTimestamp()":"228","getEthBalance(address)":"infinite"}},"methodIdentifiers":{"aggregate((address,bytes)[])":"252dba42","getBlockHash(uint256)":"ee82ac5e","getCurrentBlockCoinbase()":"a8b0574e","getCurrentBlockDifficulty()":"72425d9d","getCurrentBlockGasLimit()":"86d516e8","getCurrentBlockTimestamp()":"0f28c97d","getEthBalance(address)":"4d2301cc"}},"storageLayout":{"storage":[],"types":null},"userdoc":{"kind":"user","methods":{},"version":1}}}}