{
  "_format": "hh-sol-artifact-1",
  "contractName": "UniswapV3Factory",
  "sourceName": "contracts/uniswap/UniswapV3Factory.sol",
  "abi": [
    {
      "inputs": [],
      "stateMutability": "nonpayable",
      "type": "constructor"
    },
    {
      "anonymous": false,
      "inputs": [
        {
          "indexed": true,
          "internalType": "uint24",
          "name": "fee",
          "type": "uint24"
        },
        {
          "indexed": true,
          "internalType": "int24",
          "name": "tickSpacing",
          "type": "int24"
        }
      ],
      "name": "FeeAmountEnabled",
      "type": "event"
    },
    {
      "anonymous": false,
      "inputs": [
        {
          "indexed": true,
          "internalType": "address",
          "name": "token0",
          "type": "address"
        },
        {
          "indexed": true,
          "internalType": "address",
          "name": "token1",
          "type": "address"
        },
        {
          "indexed": true,
          "internalType": "uint24",
          "name": "fee",
          "type": "uint24"
        },
        {
          "indexed": false,
          "internalType": "int24",
          "name": "tickSpacing",
          "type": "int24"
        },
        {
          "indexed": false,
          "internalType": "address",
          "name": "pool",
          "type": "address"
        }
      ],
      "name": "PoolCreated",
      "type": "event"
    },
    {
      "inputs": [
        {
          "internalType": "address",
          "name": "tokenA",
          "type": "address"
        },
        {
          "internalType": "address",
          "name": "tokenB",
          "type": "address"
        },
        {
          "internalType": "uint24",
          "name": "fee",
          "type": "uint24"
        }
      ],
      "name": "createPool",
      "outputs": [
        {
          "internalType": "address",
          "name": "pool",
          "type": "address"
        }
      ],
      "stateMutability": "nonpayable",
      "type": "function"
    },
    {
      "inputs": [
        {
          "internalType": "uint24",
          "name": "fee",
          "type": "uint24"
        },
        {
          "internalType": "int24",
          "name": "tickSpacing",
          "type": "int24"
        }
      ],
      "name": "enableFeeAmount",
      "outputs": [],
      "stateMutability": "nonpayable",
      "type": "function"
    },
    {
      "inputs": [
        {
          "internalType": "uint24",
          "name": "",
          "type": "uint24"
        }
      ],
      "name": "feeAmountTickSpacing",
      "outputs": [
        {
          "internalType": "int24",
          "name": "",
          "type": "int24"
        }
      ],
      "stateMutability": "view",
      "type": "function"
    },
    {
      "inputs": [],
      "name": "feeTo",
      "outputs": [
        {
          "internalType": "address",
          "name": "",
          "type": "address"
        }
      ],
      "stateMutability": "view",
      "type": "function"
    },
    {
      "inputs": [
        {
          "internalType": "address",
          "name": "",
          "type": "address"
        },
        {
          "internalType": "address",
          "name": "",
          "type": "address"
        },
        {
          "internalType": "uint24",
          "name": "",
          "type": "uint24"
        }
      ],
      "name": "getPool",
      "outputs": [
        {
          "internalType": "address",
          "name": "",
          "type": "address"
        }
      ],
      "stateMutability": "view",
      "type": "function"
    },
    {
      "inputs": [],
      "name": "owner",
      "outputs": [
        {
          "internalType": "address",
          "name": "",
          "type": "address"
        }
      ],
      "stateMutability": "view",
      "type": "function"
    },
    {
      "inputs": [],
      "name": "parameters",
      "outputs": [
        {
          "internalType": "address",
          "name": "factory",
          "type": "address"
        },
        {
          "internalType": "address",
          "name": "token0",
          "type": "address"
        },
        {
          "internalType": "address",
          "name": "token1",
          "type": "address"
        },
        {
          "internalType": "uint24",
          "name": "fee",
          "type": "uint24"
        },
        {
          "internalType": "int24",
          "name": "tickSpacing",
          "type": "int24"
        }
      ],
      "stateMutability": "view",
      "type": "function"
    }
  ],
  "bytecode": "0x60e060405234801561001057600080fd5b503060601b6080527fd406056470a454513946b05980e330aa3822c0cf00000000000000000000000060a0527fc4042dfabf63f9d32849ca257b1ee1699a21a13400000000000000000000000060c0526101f4600081815260036020527f5ed261ce397475c8f8ccd7526f550ae383248415591df3d1b32ee25c9ab0af2e805462ffffff1916600a9081179091556040519092916000805160206171be83398151915291a3610bb8600081815260036020527fa81df8da5a49e0ca2395b3c1eb4d55b23a04eb0615a8bee310459ef8a1c6e29c805462ffffff1916603c9081179091556040519092916000805160206171be83398151915291a3612710600081815260036020527fbed90d45c8c5fb2e8fcae0027c6e57da3d943cdb82d794c1080bce28e166f211805462ffffff191660c89081179091556040519092916000805160206171be83398151915291a360805160601c60a05160601c60c05160601c6170256101996000398061020c5250806102fc52806103f052508061063352506170256000f3fe608060405234801561001057600080fd5b506004361061007d5760003560e01c8063890357301161005b57806389035730146101355780638a7c195f1461018c5780638da5cb5b146101b9578063a1671295146101c15761007d565b8063017e7e58146100825780631698ee82146100b357806322afcccb146100fc575b600080fd5b61008a61020a565b6040805173ffffffffffffffffffffffffffffffffffffffff9092168252519081900360200190f35b61008a600480360360608110156100c957600080fd5b50803573ffffffffffffffffffffffffffffffffffffffff908116916020810135909116906040013562ffffff1661022e565b61011e6004803603602081101561011257600080fd5b503562ffffff16610267565b6040805160029290920b8252519081900360200190f35b61013d61027c565b6040805173ffffffffffffffffffffffffffffffffffffffff96871681529486166020860152929094168383015262ffffff16606083015260029290920b608082015290519081900360a00190f35b6101b7600480360360408110156101a257600080fd5b5062ffffff813516906020013560020b6102e4565b005b61008a6103ee565b61008a600480360360608110156101d757600080fd5b50803573ffffffffffffffffffffffffffffffffffffffff908116916020810135909116906040013562ffffff16610412565b7f000000000000000000000000000000000000000000000000000000000000000081565b600460209081526000938452604080852082529284528284209052825290205473ffffffffffffffffffffffffffffffffffffffff1681565b60036020526000908152604090205460020b81565b6000546001546002805473ffffffffffffffffffffffffffffffffffffffff938416939283169281169162ffffff7401000000000000000000000000000000000000000083041691770100000000000000000000000000000000000000000000009004900b85565b3373ffffffffffffffffffffffffffffffffffffffff7f0000000000000000000000000000000000000000000000000000000000000000161461032657600080fd5b620f42408262ffffff161061033a57600080fd5b60008160020b13801561035157506140008160020b125b61035a57600080fd5b62ffffff8216600090815260036020526040902054600290810b900b1561038057600080fd5b62ffffff82811660008181526003602052604080822080547fffffffffffffffffffffffffffffffffffffffffffffffffffffffffff00000016600287900b958616179055517fc66a3fdf07232cdd185febcc6579d408c241b47ae2f9907d84be655141eeaecc9190a35050565b7f000000000000000000000000000000000000000000000000000000000000000081565b600061041c61061b565b8273ffffffffffffffffffffffffffffffffffffffff168473ffffffffffffffffffffffffffffffffffffffff16141561045557600080fd5b6000808473ffffffffffffffffffffffffffffffffffffffff168673ffffffffffffffffffffffffffffffffffffffff1610610492578486610495565b85855b909250905073ffffffffffffffffffffffffffffffffffffffff82166104ba57600080fd5b62ffffff8416600090815260036020526040902054600290810b9081900b6104e157600080fd5b73ffffffffffffffffffffffffffffffffffffffff83811660009081526004602090815260408083208685168452825280832062ffffff8a168452909152902054161561052d57600080fd5b61053a308484888561065f565b73ffffffffffffffffffffffffffffffffffffffff808516600081815260046020818152604080842089871680865290835281852062ffffff8e168087529084528286208054988a167fffffffffffffffffffffffff0000000000000000000000000000000000000000998a1681179091558287529484528286208787528452828620818752845294829020805490971684179096558051600289900b815291820192909252815195995091947f783cca1c0412dd0d695e784568c96da2e9c22ff989357a2e8b1d9b2b4e6b71189281900390910190a45050509392505050565b3073ffffffffffffffffffffffffffffffffffffffff7f0000000000000000000000000000000000000000000000000000000000000000161461065d57600080fd5b565b6040805160a08101825273ffffffffffffffffffffffffffffffffffffffff878116808352878216602080850182905292881684860181905262ffffff888116606080880182905260028a810b6080998a01819052600080547fffffffffffffffffffffffff00000000000000000000000000000000000000009081169099178155600180548a1689179055825490981686177fffffffffffffffffff000000ffffffffffffffffffffffffffffffffffffffff16740100000000000000000000000000000000000000008502177fffffffffffff000000ffffffffffffffffffffffffffffffffffffffffffffff167701000000000000000000000000000000000000000000000091830b90951602939093179092558751808701949094528388019290925282810191909152855180830390910181529301938490528251929091019190912090916107b290610839565b8190604051809103906000f59050801580156107d2573d6000803e3d6000fd5b50600080547fffffffffffffffffffffffff0000000000000000000000000000000000000000908116909155600180549091169055600280547fffffffffffff00000000000000000000000000000000000000000000000000001690559695505050505050565b6167d2806108478339019056fe6101606040523480156200001257600080fd5b503060601b60805260408051630890357360e41b81529051600091339163890357309160048082019260a092909190829003018186803b1580156200005657600080fd5b505afa1580156200006b573d6000803e3d6000fd5b505050506040513d60a08110156200008257600080fd5b508051602080830151604084015160608086015160809096015160e896871b6001600160e81b0319166101005291811b6001600160601b031990811660e05292811b831660c0529390931b1660a052600282810b900b90921b610120529150620000f79082906200010f811b6200343317901c565b60801b6001600160801b03191661014052506200017d565b60008082600281900b620d89e719816200012557fe5b05029050600083600281900b620d89e8816200013d57fe5b0502905060008460020b83830360020b816200015557fe5b0560010190508062ffffff166001600160801b038016816200017357fe5b0495945050505050565b60805160601c60a05160601c60c05160601c60e05160601c6101005160e81c6101205160e81c6101405160801c6165886200024a6000398061247a52806158c052806158f7525080610c8652806130f7528061592b528061595d525080610dad5280611cee5280611d25528061313f5250806113d05280611da8528061232b5280612a44528061311b528061491152508061092352806114d05280611d7752806122a6528061296b528061477c525080612528528061279b52806130d35250806134cf52506165886000f3fe608060405234801561001057600080fd5b50600436106101ae5760003560e01c806370cf754a116100ee578063c45a015511610097578063ddca3f4311610071578063ddca3f4314610848578063f305839914610868578063f30dba9314610870578063f637731d146108fb576101ae565b8063c45a015514610819578063d0c93a7c14610821578063d21220a714610840576101ae565b8063883bdbfd116100c8578063883bdbfd14610672578063a34123a71461077b578063a38807f2146107be576101ae565b806370cf754a146105fc5780638206a4d11461060457806385b667291461062c576101ae565b80633850c7bd1161015b578063490e6cbc11610135578063490e6cbc146104945780634f1eb3d814610520578063514ea4bf1461057a5780635339c296146105dc576101ae565b80633850c7bd146103765780633c8a7d8d146103cf578063461413191461047a576101ae565b80631ad8b03b1161018c5780631ad8b03b146102b3578063252c09d7146102fc57806332148f6714610353576101ae565b80630dfe1681146101b3578063128acb08146101d75780631a68650214610286575b600080fd5b6101bb610921565b604080516001600160a01b039092168252519081900360200190f35b61026d600480360360a08110156101ed57600080fd5b6001600160a01b0382358116926020810135151592604082013592606083013516919081019060a08101608082013564010000000081111561022e57600080fd5b82018360208201111561024057600080fd5b8035906020019184600183028401116401000000008311171561026257600080fd5b509092509050610945565b6040805192835260208301919091528051918290030190f35b61028e611699565b604080516fffffffffffffffffffffffffffffffff9092168252519081900360200190f35b6102bb6116b1565b60405180836fffffffffffffffffffffffffffffffff168152602001826fffffffffffffffffffffffffffffffff1681526020019250505060405180910390f35b6103196004803603602081101561031257600080fd5b50356116e1565b6040805163ffffffff909516855260069390930b60208501526001600160a01b039091168383015215156060830152519081900360800190f35b6103746004803603602081101561036957600080fd5b503561ffff1661174b565b005b61037e6118cd565b604080516001600160a01b03909816885260029690960b602088015261ffff9485168787015292841660608701529216608085015260ff90911660a0840152151560c0830152519081900360e00190f35b61026d600480360360a08110156103e557600080fd5b6001600160a01b03823516916020810135600290810b92604083013590910b916fffffffffffffffffffffffffffffffff6060820135169181019060a08101608082013564010000000081111561043b57600080fd5b82018360208201111561044d57600080fd5b8035906020019184600183028401116401000000008311171561046f57600080fd5b5090925090506119a5565b610482611c60565b60408051918252519081900360200190f35b610374600480360360808110156104aa57600080fd5b6001600160a01b0382351691602081013591604082013591908101906080810160608201356401000000008111156104e157600080fd5b8201836020820111156104f357600080fd5b8035906020019184600183028401116401000000008311171561051557600080fd5b509092509050611c66565b6102bb600480360360a081101561053657600080fd5b506001600160a01b03813516906020810135600290810b91604081013590910b906fffffffffffffffffffffffffffffffff6060820135811691608001351661212b565b6105976004803603602081101561059057600080fd5b5035612413565b604080516fffffffffffffffffffffffffffffffff96871681526020810195909552848101939093529084166060840152909216608082015290519081900360a00190f35b610482600480360360208110156105f257600080fd5b503560010b612466565b61028e612478565b6103746004803603604081101561061a57600080fd5b5060ff8135811691602001351661249c565b6102bb6004803603606081101561064257600080fd5b506001600160a01b03813516906fffffffffffffffffffffffffffffffff6020820135811691604001351661270c565b6106e26004803603602081101561068857600080fd5b8101906020810181356401000000008111156106a357600080fd5b8201836020820111156106b557600080fd5b803590602001918460208302840111640100000000831117156106d757600080fd5b509092509050612b1b565b604051808060200180602001838103835285818151815260200191508051906020019060200280838360005b8381101561072657818101518382015260200161070e565b50505050905001838103825284818151815260200191508051906020019060200280838360005b8381101561076557818101518382015260200161074d565b5050505090500194505050505060405180910390f35b61026d6004803603606081101561079157600080fd5b508035600290810b91602081013590910b90604001356fffffffffffffffffffffffffffffffff16612bec565b6107e8600480360360408110156107d457600080fd5b508035600290810b9160200135900b612de1565b6040805160069490940b84526001600160a01b03909216602084015263ffffffff1682820152519081900360600190f35b6101bb6130d1565b6108296130f5565b6040805160029290920b8252519081900360200190f35b6101bb613119565b61085061313d565b6040805162ffffff9092168252519081900360200190f35b610482613161565b6108906004803603602081101561088657600080fd5b503560020b613167565b604080516fffffffffffffffffffffffffffffffff9099168952600f9790970b602089015287870195909552606087019390935260069190910b60808601526001600160a01b031660a085015263ffffffff1660c0840152151560e083015251908190036101000190f35b6103746004803603602081101561091157600080fd5b50356001600160a01b031661321f565b7f000000000000000000000000000000000000000000000000000000000000000081565b6000806109506134c4565b8561095a57600080fd5b6040805160e0810182526000546001600160a01b0381168252740100000000000000000000000000000000000000008104600290810b810b900b602083015261ffff7701000000000000000000000000000000000000000000000082048116938301939093527901000000000000000000000000000000000000000000000000008104831660608301527b010000000000000000000000000000000000000000000000000000008104909216608082015260ff7d0100000000000000000000000000000000000000000000000000000000008304811660a08301527e01000000000000000000000000000000000000000000000000000000000000909204909116151560c08201819052610a6d57600080fd5b87610ab85780600001516001600160a01b0316866001600160a01b0316118015610ab3575073fffd8963efd1fc6a506488495d951d5263988d266001600160a01b038716105b610aea565b80600001516001600160a01b0316866001600160a01b0316108015610aea57506401000276a36001600160a01b038716115b610af357600080fd5b600080547fff00ffffffffffffffffffffffffffffffffffffffffffffffffffffffffffff1681556040805160c08101909152808a610b3d5760048460a0015160ff16901c610b50565b60108460a0015160ff1681610b4e57fe5b065b60ff1681526004546fffffffffffffffffffffffffffffffff166020820152604001610b7a6134fb565b63ffffffff168152602001600060060b815260200160006001600160a01b031681526020016000151581525090506000808913905060006040518060e001604052808b81526020016000815260200185600001516001600160a01b03168152602001856020015160020b81526020018c610bf657600254610bfa565b6001545b815260200160006fffffffffffffffffffffffffffffffff16815260200184602001516fffffffffffffffffffffffffffffffff1681525090505b805115801590610c5b5750886001600160a01b031681604001516001600160a01b031614155b1561108e57610c68616518565b60408201516001600160a01b031681526060820151610cab906006907f00000000000000000000000000000000000000000000000000000000000000008f6134ff565b15156040830152600290810b810b602083018190527ffffffffffffffffffffffffffffffffffffffffffffffffffffffffffff27618910b1215610d14577ffffffffffffffffffffffffffffffffffffffffffffffffffffffffffff276186020820152610d33565b6020810151620d89e860029190910b1315610d3357620d89e860208201525b610d40816020015161367d565b6001600160a01b031660608201526040820151610dd1908d610d7a578b6001600160a01b031683606001516001600160a01b031611610d94565b8b6001600160a01b031683606001516001600160a01b0316105b610da2578260600151610da4565b8b5b60c085015185517f00000000000000000000000000000000000000000000000000000000000000006139ae565b60c085015260a084015260808301526001600160a01b031660408301528215610e3357610e078160c00151826080015101613ba0565b825103825260a0810151610e2990610e1e90613ba0565b602084015190613bd2565b6020830152610e6e565b610e408160a00151613ba0565b825101825260c08101516080820151610e6891610e5d9101613ba0565b602084015190613bee565b60208301525b835160ff1615610ebd576000846000015160ff168260c0015181610e8e57fe5b60c0840180519290910491829003905260a0840180519091016fffffffffffffffffffffffffffffffff169052505b60c08201516fffffffffffffffffffffffffffffffff1615610f1b57610f0f8160c001517001000000000000000000000000000000008460c001516fffffffffffffffffffffffffffffffff16613c04565b60808301805190910190525b80606001516001600160a01b031682604001516001600160a01b0316141561104d57806040015115611024578360a00151610fa557610f83846040015160008760200151886040015188602001518a606001516008613cd2909695949392919063ffffffff16565b6001600160a01b03166080860152600690810b900b6060850152600160a08501525b6000610ff182602001518e610fbc57600154610fc2565b84608001515b8f610fd1578560800151610fd5565b6002545b608089015160608a015160408b01516005959493929190613e89565b90508c15610ffd576000035b61100b8360c0015182613fb1565b6fffffffffffffffffffffffffffffffff1660c0840152505b8b61103357806020015161103c565b60018160200151035b600290810b900b6060830152611088565b80600001516001600160a01b031682604001516001600160a01b0316146110885761107b8260400151614031565b600290810b900b60608301525b50610c35565b836020015160020b816060015160020b146111fc576000806110dc86604001518660400151886020015188602001518a606001518b608001516008614367909695949392919063ffffffff16565b60408501516060860151600080547fffffffffff0000ffffffffffffffffffffffffffffffffffffffffffffffffff1679010000000000000000000000000000000000000000000000000061ffff95861602177fffffffffffffff0000ffffffffffffffffffffffffffffffffffffffffffffff16770100000000000000000000000000000000000000000000009590941694909402929092177fffffffffffffffffff000000ffffffffffffffffffffffffffffffffffffffff167401000000000000000000000000000000000000000062ffffff60029490940b9390931692909202919091177fffffffffffffffffffffffff0000000000000000000000000000000000000000166001600160a01b03909116179055506112399050565b6040810151600080547fffffffffffffffffffffffff0000000000000000000000000000000000000000166001600160a01b039092169190911790555b8060c001516fffffffffffffffffffffffffffffffff1683602001516fffffffffffffffffffffffffffffffff16146112b25760c0810151600480547fffffffffffffffffffffffffffffffff00000000000000000000000000000000166fffffffffffffffffffffffffffffffff9092169190911790555b8a1561132c57608081015160015560a08101516fffffffffffffffffffffffffffffffff16156113275760a0810151600380547fffffffffffffffffffffffffffffffff0000000000000000000000000000000081166fffffffffffffffffffffffffffffffff918216909301169190911790555b611391565b608081015160025560a08101516fffffffffffffffffffffffffffffffff16156113915760a0810151600380546fffffffffffffffffffffffffffffffff80821670010000000000000000000000000000000092839004821690940116029190911790555b8115158b1515146113aa57602081015181518b036113b7565b80600001518a0381602001515b90965094508a156114c25760008512156113f9576113f97f00000000000000000000000000000000000000000000000000000000000000008d87600003614593565b6000611403614700565b9050336001600160a01b031663fa461e3388888c8c6040518563ffffffff1660e01b815260040180858152602001848152602001806020018281038252848482818152602001925080828437600081840152601f19601f82011690508083019250505095505050505050600060405180830381600087803b15801561148757600080fd5b505af115801561149b573d6000803e3d6000fd5b505050506114a7614700565b6114b18289614885565b11156114bc57600080fd5b506115be565b60008612156114f9576114f97f00000000000000000000000000000000000000000000000000000000000000008d88600003614593565b6000611503614895565b9050336001600160a01b031663fa461e3388888c8c6040518563ffffffff1660e01b815260040180858152602001848152602001806020018281038252848482818152602001925080828437600081840152601f19601f82011690508083019250505095505050505050600060405180830381600087803b15801561158757600080fd5b505af115801561159b573d6000803e3d6000fd5b505050506115a7614895565b6115b18288614885565b11156115bc57600080fd5b505b60408082015160c083015160608085015184518b8152602081018b90526001600160a01b03948516818701526fffffffffffffffffffffffffffffffff9093169183019190915260020b60808201529151908e169133917fc42079f94a6350d7e6235f29174924f928cc2ac818eb64fed8004e115fbcca679181900360a00190a35050600080547fff00ffffffffffffffffffffffffffffffffffffffffffffffffffffffffffff167e0100000000000000000000000000000000000000000000000000000000000017905550919890975095505050505050565b6004546fffffffffffffffffffffffffffffffff1681565b6003546fffffffffffffffffffffffffffffffff8082169170010000000000000000000000000000000090041682565b60088161ffff81106116f257600080fd5b015463ffffffff81169150640100000000810460060b906b01000000000000000000000081046001600160a01b0316907f0100000000000000000000000000000000000000000000000000000000000000900460ff1684565b6000547e01000000000000000000000000000000000000000000000000000000000000900460ff1661177c57600080fd5b600080547fff00ffffffffffffffffffffffffffffffffffffffffffffffffffffffffffff1690556117ac6134c4565b600080547b01000000000000000000000000000000000000000000000000000000900461ffff16906117e060088385614979565b6000805461ffff8084167b0100000000000000000000000000000000000000000000000000000081027fffffff0000ffffffffffffffffffffffffffffffffffffffffffffffffffffff9093169290921790925591925083161461187f576040805161ffff80851682528316602082015281517fac49e518f90a358f652e4400164f05a5d8f7e35e7747279bc3a93dbf584e125a929181900390910190a15b5050600080547fff00ffffffffffffffffffffffffffffffffffffffffffffffffffffffffffff167e0100000000000000000000000000000000000000000000000000000000000017905550565b6000546001600160a01b0381169074010000000000000000000000000000000000000000810460020b9061ffff77010000000000000000000000000000000000000000000000820481169179010000000000000000000000000000000000000000000000000081048216917b010000000000000000000000000000000000000000000000000000008204169060ff7d01000000000000000000000000000000000000000000000000000000000082048116917e0100000000000000000000000000000000000000000000000000000000000090041687565b6000805481907e01000000000000000000000000000000000000000000000000000000000000900460ff166119d957600080fd5b600080547fff00ffffffffffffffffffffffffffffffffffffffffffffffffffffffffffff1690556fffffffffffffffffffffffffffffffff8516611a1d57600080fd5b600080611a7460405180608001604052808c6001600160a01b031681526020018b60020b81526020018a60020b8152602001611a6a8a6fffffffffffffffffffffffffffffffff16614a0b565b600f0b9052614a1c565b92509250508193508092506000806000861115611a9657611a93614700565b91505b8415611aa757611aa4614895565b90505b336001600160a01b031663d348799787878b8b6040518563ffffffff1660e01b815260040180858152602001848152602001806020018281038252848482818152602001925080828437600081840152601f19601f82011690508083019250505095505050505050600060405180830381600087803b158015611b2957600080fd5b505af1158015611b3d573d6000803e3d6000fd5b505050506000861115611b6757611b52614700565b611b5c8388614885565b1115611b6757600080fd5b8415611b8a57611b75614895565b611b7f8287614885565b1115611b8a57600080fd5b8960020b8b60020b8d6001600160a01b03167f7a53080ba414158be7ec69b987b5fb7d07dee101fe85488f0853ae16239d0bde338d8b8b60405180856001600160a01b03168152602001846fffffffffffffffffffffffffffffffff16815260200183815260200182815260200194505050505060405180910390a45050600080547fff00ffffffffffffffffffffffffffffffffffffffffffffffffffffffffffff167e0100000000000000000000000000000000000000000000000000000000000017905550919890975095505050505050565b60025481565b6000547e01000000000000000000000000000000000000000000000000000000000000900460ff16611c9757600080fd5b600080547fff00ffffffffffffffffffffffffffffffffffffffffffffffffffffffffffff169055611cc76134c4565b6004546fffffffffffffffffffffffffffffffff1680611ce657600080fd5b6000611d1b867f000000000000000000000000000000000000000000000000000000000000000062ffffff16620f4240614d6c565b90506000611d52867f000000000000000000000000000000000000000000000000000000000000000062ffffff16620f4240614d6c565b90506000611d5e614700565b90506000611d6a614895565b90508815611d9d57611d9d7f00000000000000000000000000000000000000000000000000000000000000008b8b614593565b8715611dce57611dce7f00000000000000000000000000000000000000000000000000000000000000008b8a614593565b336001600160a01b031663e9cbafb085858a8a6040518563ffffffff1660e01b815260040180858152602001848152602001806020018281038252848482818152602001925080828437600081840152601f19601f82011690508083019250505095505050505050600060405180830381600087803b158015611e5057600080fd5b505af1158015611e64573d6000803e3d6000fd5b505050506000611e72614700565b90506000611e7e614895565b905081611e8b8588614885565b1115611e9657600080fd5b80611ea18487614885565b1115611eac57600080fd5b8382038382038115611f9557600080547d0100000000000000000000000000000000000000000000000000000000009004600f16908115611ef9578160ff168481611ef357fe5b04611efc565b60005b90506fffffffffffffffffffffffffffffffff811615611f5957600380546fffffffffffffffffffffffffffffffff8082168401167fffffffffffffffffffffffffffffffff000000000000000000000000000000009091161790555b611f898185037001000000000000000000000000000000008d6fffffffffffffffffffffffffffffffff16613c04565b60018054909101905550505b801561206f57600080547d010000000000000000000000000000000000000000000000000000000000900460041c600f16908115611fdf578160ff168381611fd957fe5b04611fe2565b60005b90506fffffffffffffffffffffffffffffffff81161561203357600380546fffffffffffffffffffffffffffffffff7001000000000000000000000000000000008083048216850182160291161790555b6120638184037001000000000000000000000000000000008d6fffffffffffffffffffffffffffffffff16613c04565b60028054909101905550505b8d6001600160a01b0316336001600160a01b03167fbdbdb71d7860376ba52b25a5028beea23581364a40522f6bcfb86bb1f2dca6338f8f86866040518085815260200184815260200183815260200182815260200194505050505060405180910390a35050600080547fff00ffffffffffffffffffffffffffffffffffffffffffffffffffffffffffff167e01000000000000000000000000000000000000000000000000000000000000179055505050505050505050505050565b6000805481907e01000000000000000000000000000000000000000000000000000000000000900460ff1661215f57600080fd5b600080547fff00ffffffffffffffffffffffffffffffffffffffffffffffffffffffffffff1681556121946007338989614dc4565b60038101549091506fffffffffffffffffffffffffffffffff908116908616116121be57846121d6565b60038101546fffffffffffffffffffffffffffffffff165b60038201549093506fffffffffffffffffffffffffffffffff7001000000000000000000000000000000009091048116908516116122145783612240565b600381015470010000000000000000000000000000000090046fffffffffffffffffffffffffffffffff165b91506fffffffffffffffffffffffffffffffff8316156122cf576003810180547fffffffffffffffffffffffffffffffff0000000000000000000000000000000081166fffffffffffffffffffffffffffffffff9182168690038216179091556122cf907f0000000000000000000000000000000000000000000000000000000000000000908a908616614593565b6fffffffffffffffffffffffffffffffff821615612354576003810180546fffffffffffffffffffffffffffffffff700100000000000000000000000000000000808304821686900382160291811691909117909155612354907f0000000000000000000000000000000000000000000000000000000000000000908a908516614593565b604080516001600160a01b038a1681526fffffffffffffffffffffffffffffffff80861660208301528416818301529051600288810b92908a900b9133917f70935338e69775456a85ddef226c395fb668b63fa0115f5f20610b388e6ca9c0919081900360600190a450600080547fff00ffffffffffffffffffffffffffffffffffffffffffffffffffffffffffff167e0100000000000000000000000000000000000000000000000000000000000017905590969095509350505050565b60076020526000908152604090208054600182015460028301546003909301546fffffffffffffffffffffffffffffffff9283169391928181169170010000000000000000000000000000000090041685565b60066020526000908152604090205481565b7f000000000000000000000000000000000000000000000000000000000000000081565b6000547e01000000000000000000000000000000000000000000000000000000000000900460ff166124cd57600080fd5b600080547fff00ffffffffffffffffffffffffffffffffffffffffffffffffffffffffffff169055604080517f8da5cb5b00000000000000000000000000000000000000000000000000000000815290516001600160a01b037f00000000000000000000000000000000000000000000000000000000000000001691638da5cb5b916004808301926020929190829003018186803b15801561256e57600080fd5b505afa158015612582573d6000803e3d6000fd5b505050506040513d602081101561259857600080fd5b50516001600160a01b031633146125ae57600080fd5b60ff821615806125d1575060048260ff16101580156125d15750600a8260ff1611155b80156125fb575060ff811615806125fb575060048160ff16101580156125fb5750600a8160ff1611155b61260457600080fd5b60008054610ff0600484901b16840160ff9081167d0100000000000000000000000000000000000000000000000000000000009081027fffff00ffffffffffffffffffffffffffffffffffffffffffffffffffffffffff841617909355919004167f973d8d92bb299f4af6ce49b52a8adb85ae46b9f214c4c4fc06ac77401237b1336010826040805160ff9390920683168252600f600486901c16602083015286831682820152918516606082015290519081900360800190a15050600080547fff00ffffffffffffffffffffffffffffffffffffffffffffffffffffffffffff167e0100000000000000000000000000000000000000000000000000000000000017905550565b6000805481907e01000000000000000000000000000000000000000000000000000000000000900460ff1661274057600080fd5b600080547fff00ffffffffffffffffffffffffffffffffffffffffffffffffffffffffffff169055604080517f8da5cb5b00000000000000000000000000000000000000000000000000000000815290516001600160a01b037f00000000000000000000000000000000000000000000000000000000000000001691638da5cb5b916004808301926020929190829003018186803b1580156127e157600080fd5b505afa1580156127f5573d6000803e3d6000fd5b505050506040513d602081101561280b57600080fd5b50516001600160a01b0316331461282157600080fd5b6003546fffffffffffffffffffffffffffffffff90811690851611612846578361285c565b6003546fffffffffffffffffffffffffffffffff165b6003549092506fffffffffffffffffffffffffffffffff70010000000000000000000000000000000090910481169084161161289857826128c2565b60035470010000000000000000000000000000000090046fffffffffffffffffffffffffffffffff165b90506fffffffffffffffffffffffffffffffff821615612994576003546fffffffffffffffffffffffffffffffff83811691161415612921577fffffffffffffffffffffffffffffffffffffffffffffffffffffffffffffffff909101905b600380547fffffffffffffffffffffffffffffffff0000000000000000000000000000000081166fffffffffffffffffffffffffffffffff918216859003821617909155612994907f00000000000000000000000000000000000000000000000000000000000000009087908516614593565b6fffffffffffffffffffffffffffffffff811615612a6d576003546fffffffffffffffffffffffffffffffff828116700100000000000000000000000000000000909204161415612a02577fffffffffffffffffffffffffffffffffffffffffffffffffffffffffffffffff015b600380546fffffffffffffffffffffffffffffffff700100000000000000000000000000000000808304821685900382160291811691909117909155612a6d907f00000000000000000000000000000000000000000000000000000000000000009087908416614593565b604080516fffffffffffffffffffffffffffffffff80851682528316602082015281516001600160a01b0388169233927f596b573906218d3411850b26a6b437d6c4522fdb43d2d2386263f86d50b8b151929081900390910190a3600080547fff00ffffffffffffffffffffffffffffffffffffffffffffffffffffffffffff167e010000000000000000000000000000000000000000000000000000000000001790559094909350915050565b606080612b266134c4565b612be1612b316134fb565b85858080602002602001604051908101604052809392919081815260200183836020028082843760009201829052505460045460089695945074010000000000000000000000000000000000000000820460020b935061ffff770100000000000000000000000000000000000000000000008304811693506fffffffffffffffffffffffffffffffff90911691790100000000000000000000000000000000000000000000000000900416614e3b565b915091509250929050565b6000805481907e01000000000000000000000000000000000000000000000000000000000000900460ff16612c2057600080fd5b600080547fff00ffffffffffffffffffffffffffffffffffffffffffffffffffffffffffff16815560408051608081018252338152600288810b602083015287900b9181019190915281908190612c9d9060608101612c906fffffffffffffffffffffffffffffffff8a16614a0b565b600003600f0b9052614a1c565b9250925092508160000394508060000393506000851180612cbe5750600084115b15612d2b576003830180546fffffffffffffffffffffffffffffffff808216808901821670010000000000000000000000000000000093849004831689019092169092029091177fffffffffffffffffffffffffffffffff00000000000000000000000000000000161790555b604080516fffffffffffffffffffffffffffffffff88168152602081018790528082018690529051600289810b92908b900b9133917f0c396cd989a39f4459b5fa1aed6a9a8dcdbc45908acfd67e028cd568da98982c919081900360600190a45050600080547fff00ffffffffffffffffffffffffffffffffffffffffffffffffffffffffffff167e01000000000000000000000000000000000000000000000000000000000000179055509094909350915050565b6000806000612dee6134c4565b612df88585614f69565b600285810b810b60009081526005602052604080822087840b90930b825281206003830154600681900b9367010000000000000082046001600160a01b03169284927b01000000000000000000000000000000000000000000000000000000810463ffffffff1692849290917f0100000000000000000000000000000000000000000000000000000000000000900460ff1680612e9457600080fd5b6003820154600681900b985067010000000000000081046001600160a01b031696507b01000000000000000000000000000000000000000000000000000000810463ffffffff1694507f0100000000000000000000000000000000000000000000000000000000000000900460ff1680612f0d57600080fd5b50506040805160e0810182526000546001600160a01b0381168252740100000000000000000000000000000000000000008104600290810b810b810b6020840181905261ffff7701000000000000000000000000000000000000000000000084048116958501959095527901000000000000000000000000000000000000000000000000008304851660608501527b010000000000000000000000000000000000000000000000000000008304909416608084015260ff7d0100000000000000000000000000000000000000000000000000000000008304811660a08501527e01000000000000000000000000000000000000000000000000000000000000909204909116151560c08301529093508e810b91900b1215905061303e575093909403965090039350900390506130ca565b8a60020b816020015160020b12156130bb57600061305a6134fb565b6020830151604084015160045460608601519394506000938493613099936008938893879392916fffffffffffffffffffffffffffffffff1690613cd2565b9a9003989098039b5050949096039290920396509091030392506130ca915050565b50949093039650039350900390505b9250925092565b7f000000000000000000000000000000000000000000000000000000000000000081565b7f000000000000000000000000000000000000000000000000000000000000000081565b7f000000000000000000000000000000000000000000000000000000000000000081565b7f000000000000000000000000000000000000000000000000000000000000000081565b60015481565b60056020526000908152604090208054600182015460028301546003909301546fffffffffffffffffffffffffffffffff831693700100000000000000000000000000000000909304600f0b9290600681900b9067010000000000000081046001600160a01b0316907b01000000000000000000000000000000000000000000000000000000810463ffffffff16907f0100000000000000000000000000000000000000000000000000000000000000900460ff1688565b6000546001600160a01b03161561323557600080fd5b600061324082614031565b90506000806132586132506134fb565b600890614fc4565b6040805160e0810182526001600160a01b038816808252600288810b6020808501829052600085870181905261ffff898116606088018190529089166080880181905260a08801839052600160c09098019790975281547e010000000000000000000000000000000000000000000000000000000000007fffffffffffffffffffffffff000000000000000000000000000000000000000090911687177fffffffffffffffffff000000ffffffffffffffffffffffffffffffffffffffff167401000000000000000000000000000000000000000062ffffff9787900b9790971696909602959095177fffffffffff00000000ffffffffffffffffffffffffffffffffffffffffffffff16790100000000000000000000000000000000000000000000000000909102177fffffff0000ffffffffffffffffffffffffffffffffffffffffffffffffffffff167b01000000000000000000000000000000000000000000000000000000909602959095177fff0000ffffffffffffffffffffffffffffffffffffffffffffffffffffffffff1692909217909355835191825281019190915281519395509193507f98636036cb66a9c19a37435efc1e90142190214e8abeb821bdba3f2990dd4c9592918290030190a150505050565b60008082600281900b7ffffffffffffffffffffffffffffffffffffffffffffffffffffffffffff276188161346457fe5b05029050600083600281900b620d89e88161347b57fe5b0502905060008460020b83830360020b8161349257fe5b0560010190508062ffffff166fffffffffffffffffffffffffffffffff8016816134b857fe5b0493505050505b919050565b306001600160a01b037f000000000000000000000000000000000000000000000000000000000000000016146134f957600080fd5b565b4290565b60008060008460020b8660020b8161351357fe5b05905060008660020b12801561353a57508460020b8660020b8161353357fe5b0760020b15155b15613562577fffffffffffffffffffffffffffffffffffffffffffffffffffffffffffffffff015b83156135f55760008061357483615047565b600182810b810b600090815260208d9052604090205460ff83169190911b80017fffffffffffffffffffffffffffffffffffffffffffffffffffffffffffffffff01908116801515975092945090925090856135d757888360ff168603026135ea565b886135e182615059565b840360ff168603025b965050505050613673565b60008061360483600101615047565b91509150600060018260ff166001901b031990506000818b60008660010b60010b815260200190815260200160002054169050806000141595508561365657888360ff0360ff1686600101010261366c565b888361366183615106565b0360ff168660010101025b9650505050505b5094509492505050565b60008060008360020b12613694578260020b61369c565b8260020b6000035b9050620d89e88111156136ae57600080fd5b6000600182166136cf577001000000000000000000000000000000006136e1565b6ffffcb933bd6fad37aa2d162d1a5940015b70ffffffffffffffffffffffffffffffffff1690506002821615613715576ffff97272373d413259a46990580e213a0260801c5b6004821615613734576ffff2e50f5f656932ef12357cf3c7fdcc0260801c5b6008821615613753576fffe5caca7e10e4e61c3624eaa0941cd00260801c5b6010821615613772576fffcb9843d60f6159c9db58835c9266440260801c5b6020821615613791576fff973b41fa98c081472e6896dfb254c00260801c5b60408216156137b0576fff2ea16466c96a3843ec78b326b528610260801c5b60808216156137cf576ffe5dee046a99a2a811c461f1969c30530260801c5b6101008216156137ef576ffcbe86c7900a88aedcffc83b479aa3a40260801c5b61020082161561380f576ff987a7253ac413176f2b074cf7815e540260801c5b61040082161561382f576ff3392b0822b70005940c7a398e4b70f30260801c5b61080082161561384f576fe7159475a2c29b7443b29c7fa6e889d90260801c5b61100082161561386f576fd097f3bdfd2022b8845ad8f792aa58250260801c5b61200082161561388f576fa9f746462d870fdf8a65dc1f90e061e50260801c5b6140008216156138af576f70d869a156d2a1b890bb3df62baf32f70260801c5b6180008216156138cf576f31be135f97d08fd981231505542fcfa60260801c5b620100008216156138f0576f09aa508b5b7a84e1c677de54f3e99bc90260801c5b62020000821615613910576e5d6af8dedb81196699c329225ee6040260801c5b6204000082161561392f576d2216e584f5fa1ea926041bedfe980260801c5b6208000082161561394c576b048a170391f7dc42444e8fa20260801c5b60008460020b131561398557807fffffffffffffffffffffffffffffffffffffffffffffffffffffffffffffffff8161398157fe5b0490505b64010000000081061561399957600161399c565b60005b60ff16602082901c0192505050919050565b60008080806001600160a01b03808916908a161015818712801590613a335760006139e78989620f42400362ffffff16620f4240613c04565b905082613a00576139fb8c8c8c60016152e9565b613a0d565b613a0d8b8d8c6001615388565b9550858110613a1e578a9650613a2d565b613a2a8c8b8386615445565b96505b50613a7d565b81613a4a57613a458b8b8b6000615388565b613a57565b613a578a8c8b60006152e9565b9350838860000310613a6b57899550613a7d565b613a7a8b8a8a6000038561549a565b95505b6001600160a01b038a8116908716148215613ae057808015613a9c5750815b613ab257613aad878d8c6001615388565b613ab4565b855b9550808015613ac1575081155b613ad757613ad2878d8c60006152e9565b613ad9565b845b9450613b2a565b808015613aea5750815b613b0057613afb8c888c60016152e9565b613b02565b855b9550808015613b0f575081155b613b2557613b208c888c6000615388565b613b27565b845b94505b81158015613b3a57508860000385115b15613b46578860000394505b818015613b6557508a6001600160a01b0316876001600160a01b031614155b15613b74578589039350613b91565b613b8e868962ffffff168a620f42400362ffffff16614d6c565b93505b50505095509550955095915050565b60007f80000000000000000000000000000000000000000000000000000000000000008210613bce57600080fd5b5090565b80820382811315600083121514613be857600080fd5b92915050565b81810182811215600083121514613be857600080fd5b600080807fffffffffffffffffffffffffffffffffffffffffffffffffffffffffffffffff85870986860292508281109083900303905080613c585760008411613c4d57600080fd5b508290049050613ccb565b808411613c6457600080fd5b6000848688096000868103871696879004966002600389028118808a02820302808a02820302808a02820302808a02820302808a02820302808a02909103029181900381900460010186841190950394909402919094039290920491909117919091029150505b9392505050565b60008063ffffffff8716613d9d576000898661ffff1661ffff8110613cf357fe5b60408051608081018252919092015463ffffffff8082168084526401000000008304600690810b810b900b60208501526b01000000000000000000000083046001600160a01b0316948401949094527f010000000000000000000000000000000000000000000000000000000000000090910460ff16151560608301529092508a1614613d8957613d86818a89886154ef565b90505b806020015181604001519250925050613e7d565b868803600080613db28c8c858c8c8c8c6155b1565b91509150816000015163ffffffff168363ffffffff161415613de4578160200151826040015194509450505050613e7d565b805163ffffffff84811691161415613e0c578060200151816040015194509450505050613e7d565b8151815160208085015190840151918390039286039163ffffffff80841692908516910360060b81613e3a57fe5b05028460200151018263ffffffff168263ffffffff1686604001518660400151036001600160a01b03160281613e6c57fe5b048560400151019650965050505050505b97509795505050505050565b600295860b860b60009081526020979097526040909620600181018054909503909455938301805490920390915560038201805463ffffffff7b010000000000000000000000000000000000000000000000000000006001600160a01b036701000000000000008085048216909603169094027fffffffffff0000000000000000000000000000000000000000ffffffffffffff90921691909117600681810b90960390950b66ffffffffffffff167fffffffffffffffffffffffffffffffffffffffffffffffffff00000000000000909516949094178281048516909503909316027fff00000000ffffffffffffffffffffffffffffffffffffffffffffffffffffff909316929092179055547001000000000000000000000000000000009004600f0b90565b60008082600f0b1215613ffb57826fffffffffffffffffffffffffffffffff168260000384039150816fffffffffffffffffffffffffffffffff1610613ff657600080fd5b613be8565b826fffffffffffffffffffffffffffffffff168284019150816fffffffffffffffffffffffffffffffff161015613be857600080fd5b60006401000276a36001600160a01b0383161080159061406d575073fffd8963efd1fc6a506488495d951d5263988d266001600160a01b038316105b61407657600080fd5b77ffffffffffffffffffffffffffffffffffffffff00000000602083901b166fffffffffffffffffffffffffffffffff811160071b81811c67ffffffffffffffff811160061b90811c63ffffffff811160051b90811c61ffff811160041b90811c60ff8111600390811b91821c600f811160021b90811c918211600190811b92831c9790881196179094179092171790911717176080811061412057607f810383901c915061412a565b80607f0383901b91505b908002607f81811c60ff83811c9190911c800280831c81831c1c800280841c81841c1c800280851c81851c1c800280861c81861c1c800280871c81871c1c800280881c81881c1c800280891c81891c1c8002808a1c818a1c1c8002808b1c818b1c1c8002808c1c818c1c1c8002808d1c818d1c1c8002808e1c9c81901c9c909c1c80029c8d901c9e9d7fffffffffffffffffffffffffffffffffffffffffffffffffffffffffffffff808f0160401b60c09190911c678000000000000000161760c19b909b1c674000000000000000169a909a1760c29990991c672000000000000000169890981760c39790971c671000000000000000169690961760c49590951c670800000000000000169490941760c59390931c670400000000000000169290921760c69190911c670200000000000000161760c79190911c670100000000000000161760c89190911c6680000000000000161760c99190911c6640000000000000161760ca9190911c6620000000000000161760cb9190911c6610000000000000161760cc9190911c6608000000000000161760cd9190911c66040000000000001617693627a301d71055774c8581027ffffffffffffffffffffffffffffffffffd709b7e5480fba5a50fed5e62ffc5568101608090811d906fdb2df09e81959a81455e260799a0632f8301901d600281810b9083900b1461435857886001600160a01b031661433c8261367d565b6001600160a01b031611156143515781614353565b805b61435a565b815b9998505050505050505050565b6000806000898961ffff1661ffff811061437d57fe5b60408051608081018252919092015463ffffffff8082168084526401000000008304600690810b810b900b60208501526b01000000000000000000000083046001600160a01b0316948401949094527f010000000000000000000000000000000000000000000000000000000000000090910460ff1615156060830152909250891614156144115788859250925050613e7d565b8461ffff168461ffff1611801561443257506001850361ffff168961ffff16145b1561443f57839150614443565b8491505b8161ffff168960010161ffff168161445757fe5b069250614466818989896154ef565b8a8461ffff1661ffff811061447757fe5b8251910180546020840151604085015160609095015115157f0100000000000000000000000000000000000000000000000000000000000000027effffffffffffffffffffffffffffffffffffffffffffffffffffffffffffff6001600160a01b039096166b010000000000000000000000027fff0000000000000000000000000000000000000000ffffffffffffffffffffff60069390930b66ffffffffffffff16640100000000027fffffffffffffffffffffffffffffffffffffffffff00000000000000ffffffff63ffffffff9097167fffffffffffffffffffffffffffffffffffffffffffffffffffffffff000000009095169490941795909516929092171692909217929092161790555097509795505050505050565b604080516001600160a01b038481166024830152604480830185905283518084039091018152606490920183526020820180517bffffffffffffffffffffffffffffffffffffffffffffffffffffffff167fa9059cbb000000000000000000000000000000000000000000000000000000001781529251825160009485949389169392918291908083835b6020831061465b57805182527fffffffffffffffffffffffffffffffffffffffffffffffffffffffffffffffe0909201916020918201910161461e565b6001836020036101000a0380198251168184511680821785525050505050509050019150506000604051808303816000865af19150503d80600081146146bd576040519150601f19603f3d011682016040523d82523d6000602084013e6146c2565b606091505b50915091508180156146f05750805115806146f057508080602001905160208110156146ed57600080fd5b50515b6146f957600080fd5b5050505050565b604080513060248083019190915282518083039091018152604490910182526020810180517bffffffffffffffffffffffffffffffffffffffffffffffffffffffff167f70a082310000000000000000000000000000000000000000000000000000000017815291518151600093849384936001600160a01b037f00000000000000000000000000000000000000000000000000000000000000001693919290918291908083835b602083106147e557805182527fffffffffffffffffffffffffffffffffffffffffffffffffffffffffffffffe090920191602091820191016147a8565b6001836020036101000a038019825116818451168082178552505050505050905001915050600060405180830381855afa9150503d8060008114614845576040519150601f19603f3d011682016040523d82523d6000602084013e61484a565b606091505b509150915081801561485e57506020815110155b61486757600080fd5b80806020019051602081101561487c57600080fd5b50519250505090565b80820182811015613be857600080fd5b604080513060248083019190915282518083039091018152604490910182526020810180517bffffffffffffffffffffffffffffffffffffffffffffffffffffffff167f70a082310000000000000000000000000000000000000000000000000000000017815291518151600093849384936001600160a01b037f0000000000000000000000000000000000000000000000000000000000000000169391929091829190808383602083106147e557805182527fffffffffffffffffffffffffffffffffffffffffffffffffffffffffffffffe090920191602091820191016147a8565b6000808361ffff161161498b57600080fd5b8261ffff168261ffff16116149a1575081613ccb565b825b8261ffff168161ffff161015614a02576001858261ffff1661ffff81106149c657fe5b0180547fffffffffffffffffffffffffffffffffffffffffffffffffffffffff000000001663ffffffff929092169190911790556001016149a3565b50909392505050565b80600f81900b81146134bf57600080fd5b6000806000614a296134c4565b614a3b84602001518560400151614f69565b6040805160e0810182526000546001600160a01b0381168252740100000000000000000000000000000000000000008104600290810b810b900b602080840182905261ffff770100000000000000000000000000000000000000000000008404811685870152790100000000000000000000000000000000000000000000000000840481166060808701919091527b010000000000000000000000000000000000000000000000000000008504909116608086015260ff7d0100000000000000000000000000000000000000000000000000000000008504811660a08701527e01000000000000000000000000000000000000000000000000000000000000909404909316151560c085015288519089015194890151928901519394614b6794919390929091906157ec565b93508460600151600f0b600014614d6457846020015160020b816020015160020b1215614bbc57614bb5614b9e866020015161367d565b614bab876040015161367d565b87606001516159e5565b9250614d64565b846040015160020b816020015160020b1215614d3a5760045460408201516fffffffffffffffffffffffffffffffff90911690614c1790614bfb6134fb565b6020850151606086015160808701516008949392918791614367565b600080547fffffffffff0000ffffffffffffffffffffffffffffffffffffffffffffffffff1679010000000000000000000000000000000000000000000000000061ffff93841602177fffffffffffffff0000ffffffffffffffffffffffffffffffffffffffffffffff1677010000000000000000000000000000000000000000000000939092169290920217905581516040870151614cc59190614cbb9061367d565b88606001516159e5565b9350614ce3614cd7876020015161367d565b83516060890151615a29565b9250614cf3818760600151613fb1565b600480547fffffffffffffffffffffffffffffffff00000000000000000000000000000000166fffffffffffffffffffffffffffffffff9290921691909117905550614d64565b614d61614d4a866020015161367d565b614d57876040015161367d565b8760600151615a29565b91505b509193909250565b6000614d79848484613c04565b905060008280614d8557fe5b8486091115613ccb577fffffffffffffffffffffffffffffffffffffffffffffffffffffffffffffffff8110614dba57600080fd5b6001019392505050565b6040805160609490941b7fffffffffffffffffffffffffffffffffffffffff00000000000000000000000016602080860191909152600293840b60e890811b60348701529290930b90911b60378401528051808403601a018152603a90930181528251928201929092206000908152929052902090565b60608060008361ffff1611614e4f57600080fd5b865167ffffffffffffffff81118015614e6757600080fd5b50604051908082528060200260200182016040528015614e91578160200160208202803683370190505b509150865167ffffffffffffffff81118015614eac57600080fd5b50604051908082528060200260200182016040528015614ed6578160200160208202803683370190505b50905060005b8751811015614f5c57614f078a8a8a8481518110614ef657fe5b60200260200101518a8a8a8a613cd2565b848381518110614f1357fe5b60200260200101848481518110614f2657fe5b60200260200101826001600160a01b03166001600160a01b03168152508260060b60060b81525050508080600101915050614edc565b5097509795505050505050565b8060020b8260020b12614f7b57600080fd5b7ffffffffffffffffffffffffffffffffffffffffffffffffffffffffffff27618600283900b1215614fac57600080fd5b620d89e8600282900b1315614fc057600080fd5b5050565b6040805160808101825263ffffffff928316808252600060208301819052928201929092526001606090910181905283547fffffffffffffffffffffffffffffffffffffffffffffffffffffffff00000000169091179091167f010000000000000000000000000000000000000000000000000000000000000017909155908190565b60020b600881901d9161010090910790565b600080821161506757600080fd5b700100000000000000000000000000000000821061508757608091821c91015b68010000000000000000821061509f57604091821c91015b64010000000082106150b357602091821c91015b6201000082106150c557601091821c91015b61010082106150d657600891821c91015b601082106150e657600491821c91015b600482106150f657600291821c91015b600282106134bf57600101919050565b600080821161511457600080fd5b5060ff6fffffffffffffffffffffffffffffffff821615615156577fffffffffffffffffffffffffffffffffffffffffffffffffffffffffffffff800161515e565b608082901c91505b67ffffffffffffffff821615615195577fffffffffffffffffffffffffffffffffffffffffffffffffffffffffffffffc00161519d565b604082901c91505b63ffffffff8216156151d0577fffffffffffffffffffffffffffffffffffffffffffffffffffffffffffffffe0016151d8565b602082901c91505b61ffff821615615209577ffffffffffffffffffffffffffffffffffffffffffffffffffffffffffffffff001615211565b601082901c91505b60ff821615615241577ffffffffffffffffffffffffffffffffffffffffffffffffffffffffffffffff801615249565b600882901c91505b600f821615615279577ffffffffffffffffffffffffffffffffffffffffffffffffffffffffffffffffc01615281565b600482901c91505b60038216156152b1577ffffffffffffffffffffffffffffffffffffffffffffffffffffffffffffffffe016152b9565b600282901c91505b60018216156134bf577fffffffffffffffffffffffffffffffffffffffffffffffffffffffffffffffff01919050565b6000836001600160a01b0316856001600160a01b03161115615309579293925b8161534857615343836fffffffffffffffffffffffffffffffff168686036001600160a01b03166c01000000000000000000000000613c04565b61537d565b61537d836fffffffffffffffffffffffffffffffff168686036001600160a01b03166c01000000000000000000000000614d6c565b90505b949350505050565b6000836001600160a01b0316856001600160a01b031611156153a8579293925b7bffffffffffffffffffffffffffffffff000000000000000000000000606084901b166001600160a01b0386860381169087166153e457600080fd5b8361541457866001600160a01b03166154078383896001600160a01b0316613c04565b8161540e57fe5b0461543a565b61543a61542b8383896001600160a01b0316614d6c565b886001600160a01b0316615a58565b979650505050505050565b600080856001600160a01b03161161545c57600080fd5b6000846fffffffffffffffffffffffffffffffff161161547b57600080fd5b8161548d576153438585856001615a63565b61537d8585856001615b7a565b600080856001600160a01b0316116154b157600080fd5b6000846fffffffffffffffffffffffffffffffff16116154d057600080fd5b816154e2576153438585856000615b7a565b61537d8585856000615a63565b6154f7616554565b600085600001518503905060405180608001604052808663ffffffff1681526020018263ffffffff168660020b0288602001510160060b81526020016000856fffffffffffffffffffffffffffffffff1611615554576001615556565b845b6fffffffffffffffffffffffffffffffff1673ffffffff00000000000000000000000000000000608085901b168161558a57fe5b048860400151016001600160a01b0316815260200160011515815250915050949350505050565b6155b9616554565b6155c1616554565b888561ffff1661ffff81106155d257fe5b60408051608081018252919092015463ffffffff81168083526401000000008204600690810b810b900b60208401526b01000000000000000000000082046001600160a01b0316938301939093527f0100000000000000000000000000000000000000000000000000000000000000900460ff1615156060820152925061565b90899089615c6f565b15615693578663ffffffff16826000015163ffffffff16141561567d57613e7d565b8161568a838989886154ef565b91509150613e7d565b888361ffff168660010161ffff16816156a857fe5b0661ffff1661ffff81106156b857fe5b60408051608081018252929091015463ffffffff811683526401000000008104600690810b810b900b60208401526001600160a01b036b0100000000000000000000008204169183019190915260ff7f0100000000000000000000000000000000000000000000000000000000000000909104161515606082018190529092506157b757604080516080810182528a5463ffffffff811682526401000000008104600690810b810b900b60208301526b01000000000000000000000081046001600160a01b0316928201929092527f010000000000000000000000000000000000000000000000000000000000000090910460ff161515606082015291505b6157c688836000015189615c6f565b6157cf57600080fd5b6157dc8989898887615d32565b9150915097509795505050505050565b60006157fb6007878787614dc4565b60015460025491925090600080600f87900b1561598557600061581c6134fb565b60008054600454929350909182916158aa916008918691859174010000000000000000000000000000000000000000810460020b9161ffff7701000000000000000000000000000000000000000000000083048116926fffffffffffffffffffffffffffffffff90921691790100000000000000000000000000000000000000000000000000900416613cd2565b90925090506158e460058d8b8d8b8b87898b60007f0000000000000000000000000000000000000000000000000000000000000000615f1a565b945061591b60058c8b8d8b8b87898b60017f0000000000000000000000000000000000000000000000000000000000000000615f1a565b9350841561594f5761594f60068d7f00000000000000000000000000000000000000000000000000000000000000006161b0565b83156159815761598160068c7f00000000000000000000000000000000000000000000000000000000000000006161b0565b5050505b60008061599760058c8c8b8a8a616216565b90925090506159a8878a84846162c2565b600089600f0b12156159d65783156159c5576159c560058c6164d6565b82156159d6576159d660058b6164d6565b50505050505095945050505050565b60008082600f0b12615a0b57615a06615a018585856001615388565b613ba0565b615380565b615a1e615a018585856000036000615388565b600003949350505050565b60008082600f0b12615a4557615a06615a0185858560016152e9565b615a1e615a0185858560000360006152e9565b808204910615150190565b60008115615af15760006001600160a01b03841115615aab57615aa6846c01000000000000000000000000876fffffffffffffffffffffffffffffffff16613c04565b615acc565b6fffffffffffffffffffffffffffffffff8516606085901b81615aca57fe5b045b9050615ae9615ae46001600160a01b03881683614885565b616502565b915050615380565b60006001600160a01b03841115615b3157615b2c846c01000000000000000000000000876fffffffffffffffffffffffffffffffff16614d6c565b615b51565b615b51606085901b6fffffffffffffffffffffffffffffffff8716615a58565b905080866001600160a01b031611615b6857600080fd5b6001600160a01b038616039050615380565b600082615b88575083615380565b7bffffffffffffffffffffffffffffffff000000000000000000000000606085901b168215615c28576001600160a01b03861684810290858281615bc857fe5b041415615bf957818101828110615bf757615bed83896001600160a01b031683614d6c565b9350505050615380565b505b615c1f82615c1a878a6001600160a01b03168681615c1357fe5b0490614885565b615a58565b92505050615380565b6001600160a01b03861684810290858281615c3f57fe5b04148015615c4c57508082115b615c5557600080fd5b808203615bed615ae4846001600160a01b038b1684614d6c565b60008363ffffffff168363ffffffff1611158015615c9957508363ffffffff168263ffffffff1611155b15615cb5578163ffffffff168363ffffffff1611159050613ccb565b60008463ffffffff168463ffffffff1611615cdd578363ffffffff1664010000000001615ce5565b8363ffffffff165b64ffffffffff16905060008563ffffffff168463ffffffff1611615d16578363ffffffff1664010000000001615d1e565b8363ffffffff165b64ffffffffff169091111595945050505050565b615d3a616554565b615d42616554565b60008361ffff168560010161ffff1681615d5857fe5b0661ffff169050600060018561ffff16830103905060005b506002818301048961ffff87168281615d8557fe5b0661ffff8110615d9157fe5b60408051608081018252929091015463ffffffff811683526401000000008104600690810b810b900b60208401526001600160a01b036b0100000000000000000000008204169183019190915260ff7f010000000000000000000000000000000000000000000000000000000000000090910416151560608201819052909550615e2057806001019250615d70565b898661ffff168260010181615e3157fe5b0661ffff8110615e3d57fe5b60408051608081018252929091015463ffffffff811683526401000000008104600690810b810b900b60208401526001600160a01b036b0100000000000000000000008204169183019190915260ff7f010000000000000000000000000000000000000000000000000000000000000090910416151560608201528551909450600090615ecc908b908b615c6f565b9050808015615ee55750615ee58a8a8760000151615c6f565b15615ef05750615f0d565b80615f0057600182039250615f07565b8160010193505b50615d70565b5050509550959350505050565b60028a810b900b600090815260208c90526040812080546fffffffffffffffffffffffffffffffff1682615f4e828d613fb1565b9050846fffffffffffffffffffffffffffffffff16816fffffffffffffffffffffffffffffffff161115615f8157600080fd5b6fffffffffffffffffffffffffffffffff82811615908216158114159450156160c4578c60020b8e60020b1361607857600183018b9055600283018a90556003830180547fffffffffff0000000000000000000000000000000000000000ffffffffffffff166701000000000000006001600160a01b038c1602177fffffffffffffffffffffffffffffffffffffffffffffffffff000000000000001666ffffffffffffff60068b900b16177fff00000000ffffffffffffffffffffffffffffffffffffffffffffffffffffff167b0100000000000000000000000000000000000000000000000000000063ffffffff8a16021790555b6003830180547effffffffffffffffffffffffffffffffffffffffffffffffffffffffffffff167f01000000000000000000000000000000000000000000000000000000000000001790555b82547fffffffffffffffffffffffffffffffff00000000000000000000000000000000166fffffffffffffffffffffffffffffffff82161783558561613b57825461613690616131907001000000000000000000000000000000009004600f90810b810b908f900b613bee565b614a0b565b616169565b825461616990616131907001000000000000000000000000000000009004600f90810b810b908f900b613bd2565b8354600f9190910b6fffffffffffffffffffffffffffffffff9081167001000000000000000000000000000000000291161790925550909c9b505050505050505050505050565b8060020b8260020b816161bf57fe5b0760020b156161cd57600080fd5b6000806161e88360020b8560020b816161e257fe5b05615047565b600191820b820b60009081526020979097526040909620805460ff9097169190911b90951890945550505050565b600285810b80820b60009081526020899052604080822088850b850b83529082209193849391929184918291908a900b1261625c5750506001820154600283015461626f565b8360010154880391508360020154870390505b6000808b60020b8b60020b1215616291575050600183015460028401546162a4565b84600101548a0391508460020154890390505b92909803979097039b96909503949094039850939650505050505050565b6040805160a08101825285546fffffffffffffffffffffffffffffffff90811682526001870154602083015260028701549282019290925260038601548083166060830152700100000000000000000000000000000000900490911660808201526000600f85900b6163535781516fffffffffffffffffffffffffffffffff1661634b57600080fd5b508051616362565b815161635f9086613fb1565b90505b600061639c8360200151860384600001516fffffffffffffffffffffffffffffffff16700100000000000000000000000000000000613c04565b905060006163d88460400151860385600001516fffffffffffffffffffffffffffffffff16700100000000000000000000000000000000613c04565b905086600f0b6000146164205787547fffffffffffffffffffffffffffffffff00000000000000000000000000000000166fffffffffffffffffffffffffffffffff84161788555b60018801869055600288018590556fffffffffffffffffffffffffffffffff821615158061646057506000816fffffffffffffffffffffffffffffffff16115b156164cc576003880180547fffffffffffffffffffffffffffffffff0000000000000000000000000000000081166fffffffffffffffffffffffffffffffff91821685018216178082167001000000000000000000000000000000009182900483168501909216021790555b5050505050505050565b600290810b810b6000908152602092909252604082208281556001810183905590810182905560030155565b806001600160a01b03811681146134bf57600080fd5b6040805160e081018252600080825260208201819052918101829052606081018290526080810182905260a0810182905260c081019190915290565b6040805160808101825260008082526020820181905291810182905260608101919091529056fea164736f6c6343000706000aa164736f6c6343000706000ac66a3fdf07232cdd185febcc6579d408c241b47ae2f9907d84be655141eeaecc",
  "linkReferences": {},
  "deployedLinkReferences": {}
}