{
  "_format": "hh-sol-artifact-1",
  "contractName": "UniswapV3Factory",
  "sourceName": "contracts/uniswap/UniswapV3Factory.sol",
  "abi": [
    {
      "inputs": [],
      "stateMutability": "nonpayable",
      "type": "constructor"
    },
    {
      "anonymous": false,
      "inputs": [
        {
          "indexed": true,
          "internalType": "uint24",
          "name": "fee",
          "type": "uint24"
        },
        {
          "indexed": true,
          "internalType": "int24",
          "name": "tickSpacing",
          "type": "int24"
        }
      ],
      "name": "FeeAmountEnabled",
      "type": "event"
    },
    {
      "anonymous": false,
      "inputs": [
        {
          "indexed": true,
          "internalType": "address",
          "name": "token0",
          "type": "address"
        },
        {
          "indexed": true,
          "internalType": "address",
          "name": "token1",
          "type": "address"
        },
        {
          "indexed": true,
          "internalType": "uint24",
          "name": "fee",
          "type": "uint24"
        },
        {
          "indexed": false,
          "internalType": "int24",
          "name": "tickSpacing",
          "type": "int24"
        },
        {
          "indexed": false,
          "internalType": "address",
          "name": "pool",
          "type": "address"
        }
      ],
      "name": "PoolCreated",
      "type": "event"
    },
    {
      "inputs": [
        {
          "internalType": "address",
          "name": "tokenA",
          "type": "address"
        },
        {
          "internalType": "address",
          "name": "tokenB",
          "type": "address"
        },
        {
          "internalType": "uint24",
          "name": "fee",
          "type": "uint24"
        }
      ],
      "name": "createPool",
      "outputs": [
        {
          "internalType": "address",
          "name": "pool",
          "type": "address"
        }
      ],
      "stateMutability": "nonpayable",
      "type": "function"
    },
    {
      "inputs": [
        {
          "internalType": "uint24",
          "name": "fee",
          "type": "uint24"
        },
        {
          "internalType": "int24",
          "name": "tickSpacing",
          "type": "int24"
        }
      ],
      "name": "enableFeeAmount",
      "outputs": [],
      "stateMutability": "nonpayable",
      "type": "function"
    },
    {
      "inputs": [
        {
          "internalType": "uint24",
          "name": "",
          "type": "uint24"
        }
      ],
      "name": "feeAmountTickSpacing",
      "outputs": [
        {
          "internalType": "int24",
          "name": "",
          "type": "int24"
        }
      ],
      "stateMutability": "view",
      "type": "function"
    },
    {
      "inputs": [],
      "name": "feeTo",
      "outputs": [
        {
          "internalType": "address",
          "name": "",
          "type": "address"
        }
      ],
      "stateMutability": "view",
      "type": "function"
    },
    {
      "inputs": [
        {
          "internalType": "address",
          "name": "",
          "type": "address"
        },
        {
          "internalType": "address",
          "name": "",
          "type": "address"
        },
        {
          "internalType": "uint24",
          "name": "",
          "type": "uint24"
        }
      ],
      "name": "getPool",
      "outputs": [
        {
          "internalType": "address",
          "name": "",
          "type": "address"
        }
      ],
      "stateMutability": "view",
      "type": "function"
    },
    {
      "inputs": [],
      "name": "owner",
      "outputs": [
        {
          "internalType": "address",
          "name": "",
          "type": "address"
        }
      ],
      "stateMutability": "view",
      "type": "function"
    },
    {
      "inputs": [],
      "name": "parameters",
      "outputs": [
        {
          "internalType": "address",
          "name": "factory",
          "type": "address"
        },
        {
          "internalType": "address",
          "name": "token0",
          "type": "address"
        },
        {
          "internalType": "address",
          "name": "token1",
          "type": "address"
        },
        {
          "internalType": "uint24",
          "name": "fee",
          "type": "uint24"
        },
        {
          "internalType": "int24",
          "name": "tickSpacing",
          "type": "int24"
        }
      ],
      "stateMutability": "view",
      "type": "function"
    }
  ],
  "bytecode": "0x60e060405234801561001057600080fd5b503060601b6080527fd406056470a454513946b05980e330aa3822c0cf00000000000000000000000060a0527fc4042dfabf63f9d32849ca257b1ee1699a21a13400000000000000000000000060c0526101f4600081815260036020527f5ed261ce397475c8f8ccd7526f550ae383248415591df3d1b32ee25c9ab0af2e805462ffffff1916600a908117909155604051909291600080516020615c2483398151915291a3610bb8600081815260036020527fa81df8da5a49e0ca2395b3c1eb4d55b23a04eb0615a8bee310459ef8a1c6e29c805462ffffff1916603c908117909155604051909291600080516020615c2483398151915291a3612710600081815260036020527fbed90d45c8c5fb2e8fcae0027c6e57da3d943cdb82d794c1080bce28e166f211805462ffffff191660c8908117909155604051909291600080516020615c2483398151915291a360805160601c60a05160601c60c05160601c615a8b610199600039806101d852508061027c52806103545250806105245250615a8b6000f3fe608060405234801561001057600080fd5b506004361061007d5760003560e01c8063890357301161005b578063890357301461011b5780638a7c195f146101655780638da5cb5b14610192578063a16712951461019a5761007d565b8063017e7e58146100825780631698ee82146100a657806322afcccb146100e2575b600080fd5b61008a6101d6565b604080516001600160a01b039092168252519081900360200190f35b61008a600480360360608110156100bc57600080fd5b5080356001600160a01b03908116916020810135909116906040013562ffffff166101fa565b610104600480360360208110156100f857600080fd5b503562ffffff16610226565b6040805160029290920b8252519081900360200190f35b61012361023b565b604080516001600160a01b0396871681529486166020860152929094168383015262ffffff16606083015260029290920b608082015290519081900360a00190f35b6101906004803603604081101561017b57600080fd5b5062ffffff813516906020013560020b610271565b005b61008a610352565b61008a600480360360608110156101b057600080fd5b5080356001600160a01b03908116916020810135909116906040013562ffffff16610376565b7f000000000000000000000000000000000000000000000000000000000000000081565b60046020908152600093845260408085208252928452828420905282529020546001600160a01b031681565b60036020526000908152604090205460020b81565b600054600154600280546001600160a01b03938416939283169281169162ffffff600160a01b83041691600160b81b9004900b85565b336001600160a01b037f000000000000000000000000000000000000000000000000000000000000000016146102a657600080fd5b620f42408262ffffff16106102ba57600080fd5b60008160020b1380156102d157506140008160020b125b6102da57600080fd5b62ffffff8216600090815260036020526040902054600290810b900b1561030057600080fd5b62ffffff828116600081815260036020526040808220805462ffffff1916600287900b958616179055517fc66a3fdf07232cdd185febcc6579d408c241b47ae2f9907d84be655141eeaecc9190a35050565b7f000000000000000000000000000000000000000000000000000000000000000081565b6000610380610519565b826001600160a01b0316846001600160a01b0316141561039f57600080fd5b600080846001600160a01b0316866001600160a01b0316106103c25784866103c5565b85855b90925090506001600160a01b0382166103dd57600080fd5b62ffffff8416600090815260036020526040902054600290810b9081900b61040457600080fd5b6001600160a01b0383811660009081526004602090815260408083208685168452825280832062ffffff8a168452909152902054161561044357600080fd5b6104503084848885610550565b6001600160a01b03808516600081815260046020818152604080842089871680865290835281852062ffffff8e168087529084528286208054988a1673ffffffffffffffffffffffffffffffffffffffff19998a1681179091558287529484528286208787528452828620818752845294829020805490971684179096558051600289900b815291820192909252815195995091947f783cca1c0412dd0d695e784568c96da2e9c22ff989357a2e8b1d9b2b4e6b71189281900390910190a45050509392505050565b306001600160a01b037f0000000000000000000000000000000000000000000000000000000000000000161461054e57600080fd5b565b6040805160a0810182526001600160a01b03878116808352878216602080850182905292881684860181905262ffffff888116606080880182905260028a810b6080998a018190526000805473ffffffffffffffffffffffffffffffffffffffff199081169099178155600180548a1689179055825490981686177fffffffffffffffffff000000ffffffffffffffffffffffffffffffffffffffff16600160a01b8502177fffffffffffff000000ffffffffffffffffffffffffffffffffffffffffffffff16600160b81b91830b9095160293909317909255875180870194909452838801929092528281019190915285518083039091018152930193849052825192909101919091209091610666906106e2565b8190604051809103906000f5905080158015610686573d6000803e3d6000fd5b506000805473ffffffffffffffffffffffffffffffffffffffff19908116909155600180549091169055600280547fffffffffffff00000000000000000000000000000000000000000000000000001690559695505050505050565b61538f806106f08339019056fe6101606040523480156200001257600080fd5b503060601b60805260408051630890357360e41b81529051600091339163890357309160048082019260a092909190829003018186803b1580156200005657600080fd5b505afa1580156200006b573d6000803e3d6000fd5b505050506040513d60a08110156200008257600080fd5b508051602080830151604084015160608086015160809096015160e896871b6001600160e81b0319166101005291811b6001600160601b031990811660e05292811b831660c0529390931b1660a052600282810b900b90921b610120529150620000f79082906200010f811b6200285017901c565b60801b6001600160801b03191661014052506200017d565b60008082600281900b620d89e719816200012557fe5b05029050600083600281900b620d89e8816200013d57fe5b0502905060008460020b83830360020b816200015557fe5b0560010190508062ffffff166001600160801b038016816200017357fe5b0495945050505050565b60805160601c60a05160601c60c05160601c60e05160601c6101005160e81c6101205160e81c6101405160801c6151456200024a60003980611d71528061468052806146b7525080610b7752806125f652806146eb528061471d525080610c6652806117d6528061180d528061263e52508061113e52806118905280611c77528061216b528061261a5280613a9c5250806108d2528061123e528061185f5280611c1152806120e55280613953525080611dd05280611fa452806125d25250806128c752506151456000f3fe608060405234801561001057600080fd5b50600436106101ae5760003560e01c806370cf754a116100ee578063c45a015511610097578063ddca3f4311610071578063ddca3f4314610800578063f305839914610820578063f30dba9314610828578063f637731d146108aa576101ae565b8063c45a0155146107d1578063d0c93a7c146107d9578063d21220a7146107f8576101ae565b8063883bdbfd116100c8578063883bdbfd14610633578063a34123a71461073c578063a38807f214610776576101ae565b806370cf754a146105c65780638206a4d1146105ce57806385b66729146105f6576101ae565b80633850c7bd1161015b578063490e6cbc11610135578063490e6cbc146104705780634f1eb3d8146104fc578063514ea4bf1461054d5780635339c296146105a6576101ae565b80633850c7bd1461035b5780633c8a7d8d146103b45780634614131914610456576101ae565b80631ad8b03b1161018c5780631ad8b03b146102aa578063252c09d7146102e157806332148f6714610338576101ae565b80630dfe1681146101b3578063128acb08146101d75780631a68650214610286575b600080fd5b6101bb6108d0565b604080516001600160a01b039092168252519081900360200190f35b61026d600480360360a08110156101ed57600080fd5b6001600160a01b0382358116926020810135151592604082013592606083013516919081019060a08101608082013564010000000081111561022e57600080fd5b82018360208201111561024057600080fd5b8035906020019184600183028401116401000000008311171561026257600080fd5b5090925090506108f4565b6040805192835260208301919091528051918290030190f35b61028e6113c8565b604080516001600160801b039092168252519081900360200190f35b6102b26113d7565b60405180836001600160801b03168152602001826001600160801b031681526020019250505060405180910390f35b6102fe600480360360208110156102f757600080fd5b50356113f1565b6040805163ffffffff909516855260069390930b60208501526001600160a01b039091168383015215156060830152519081900360800190f35b6103596004803603602081101561034e57600080fd5b503561ffff16611437565b005b610363611503565b604080516001600160a01b03909816885260029690960b602088015261ffff9485168787015292841660608701529216608085015260ff90911660a0840152151560c0830152519081900360e00190f35b61026d600480360360a08110156103ca57600080fd5b6001600160a01b03823516916020810135600290810b92604083013590910b916001600160801b036060820135169181019060a08101608082013564010000000081111561041757600080fd5b82018360208201111561042957600080fd5b8035906020019184600183028401116401000000008311171561044b57600080fd5b509092509050611553565b61045e611787565b60408051918252519081900360200190f35b6103596004803603608081101561048657600080fd5b6001600160a01b0382351691602081013591604082013591908101906080810160608201356401000000008111156104bd57600080fd5b8201836020820111156104cf57600080fd5b803590602001918460018302840111640100000000831117156104f157600080fd5b50909250905061178d565b6102b2600480360360a081101561051257600080fd5b506001600160a01b03813516906020810135600290810b91604081013590910b906001600160801b0360608201358116916080013516611b34565b61056a6004803603602081101561056357600080fd5b5035611d20565b604080516001600160801b0396871681526020810195909552848101939093529084166060840152909216608082015290519081900360a00190f35b61045e600480360360208110156105bc57600080fd5b503560010b611d5d565b61028e611d6f565b610359600480360360408110156105e457600080fd5b5060ff81358116916020013516611d93565b6102b26004803603606081101561060c57600080fd5b506001600160a01b03813516906001600160801b0360208201358116916040013516611f64565b6106a36004803603602081101561064957600080fd5b81019060208101813564010000000081111561066457600080fd5b82018360208201111561067657600080fd5b8035906020019184602083028401116401000000008311171561069857600080fd5b509092509050612203565b604051808060200180602001838103835285818151815260200191508051906020019060200280838360005b838110156106e75781810151838201526020016106cf565b50505050905001838103825284818151815260200191508051906020019060200280838360005b8381101561072657818101518382015260200161070e565b5050505090500194505050505060405180910390f35b61026d6004803603606081101561075257600080fd5b508035600290810b91602081013590910b90604001356001600160801b0316612290565b6107a06004803603604081101561078c57600080fd5b508035600290810b9160200135900b6123d9565b6040805160069490940b84526001600160a01b03909216602084015263ffffffff1682820152519081900360600190f35b6101bb6125d0565b6107e16125f4565b6040805160029290920b8252519081900360200190f35b6101bb612618565b61080861263c565b6040805162ffffff9092168252519081900360200190f35b61045e612660565b6108486004803603602081101561083e57600080fd5b503560020b612666565b604080516001600160801b039099168952600f9790970b602089015287870195909552606087019390935260069190910b60808601526001600160a01b031660a085015263ffffffff1660c0840152151560e083015251908190036101000190f35b610359600480360360208110156108c057600080fd5b50356001600160a01b03166126d4565b7f000000000000000000000000000000000000000000000000000000000000000081565b6000806108ff6128bc565b8561090957600080fd5b6040805160e0810182526000546001600160a01b0381168252600160a01b8104600290810b810b900b602083015261ffff600160b81b8204811693830193909352600160c81b810483166060830152600160d81b8104909216608082015260ff600160e81b8304811660a0830152600160f01b909204909116151560c0820181905261099457600080fd5b876109df5780600001516001600160a01b0316866001600160a01b03161180156109da575073fffd8963efd1fc6a506488495d951d5263988d266001600160a01b038716105b610a11565b80600001516001600160a01b0316866001600160a01b0316108015610a1157506401000276a36001600160a01b038716115b610a1a57600080fd5b6000805460ff60f01b191681556040805160c08101909152808a610a495760048460a0015160ff16901c610a5c565b60108460a0015160ff1681610a5a57fe5b065b60ff1681526004546001600160801b03166020820152604001610a7d6128f3565b63ffffffff168152602001600060060b815260200160006001600160a01b031681526020016000151581525090506000808913905060006040518060e001604052808b81526020016000815260200185600001516001600160a01b03168152602001856020015160020b81526020018c610af957600254610afd565b6001545b815260200160006001600160801b0316815260200184602001516001600160801b031681525090505b805115801590610b4c5750886001600160a01b031681604001516001600160a01b031614155b15610f1657610b596150d5565b60408201516001600160a01b031681526060820151610b9c906006907f00000000000000000000000000000000000000000000000000000000000000008f6128f7565b15156040830152600290810b810b60208301819052620d89e719910b1215610bcd57620d89e7196020820152610bec565b6020810151620d89e860029190910b1315610bec57620d89e860208201525b610bf98160200151612a39565b6001600160a01b031660608201526040820151610c8a908d610c33578b6001600160a01b031683606001516001600160a01b031611610c4d565b8b6001600160a01b031683606001516001600160a01b0316105b610c5b578260600151610c5d565b8b5b60c085015185517f0000000000000000000000000000000000000000000000000000000000000000612d3f565b60c085015260a084015260808301526001600160a01b031660408301528215610cec57610cc08160c00151826080015101612f31565b825103825260a0810151610ce290610cd790612f31565b602084015190612f63565b6020830152610d27565b610cf98160a00151612f31565b825101825260c08101516080820151610d2191610d169101612f31565b602084015190612f7f565b60208301525b835160ff1615610d6d576000846000015160ff168260c0015181610d4757fe5b60c0840180519290910491829003905260a0840180519091016001600160801b03169052505b60c08201516001600160801b031615610dac57610da08160c00151600160801b8460c001516001600160801b0316612f95565b60808301805190910190525b80606001516001600160a01b031682604001516001600160a01b03161415610ed557806040015115610eac578360a00151610e3657610e14846040015160008760200151886040015188602001518a606001516008613045909695949392919063ffffffff16565b6001600160a01b03166080860152600690810b900b6060850152600160a08501525b6000610e8282602001518e610e4d57600154610e53565b84608001515b8f610e62578560800151610e66565b6002545b608089015160608a015160408b015160059594939291906131d8565b90508c15610e8e576000035b610e9c8360c00151826132ab565b6001600160801b031660c0840152505b8b610ebb578060200151610ec4565b60018160200151035b600290810b900b6060830152610f10565b80600001516001600160a01b031682604001516001600160a01b031614610f1057610f038260400151613307565b600290810b900b60608301525b50610b26565b836020015160020b816060015160020b14610ff157600080610f6486604001518660400151886020015188602001518a606001518b608001516008613616909695949392919063ffffffff16565b604085015160608601516000805461ffff60c81b1916600160c81b61ffff958616021761ffff60b81b1916600160b81b95909416949094029290921762ffffff60a01b1916600160a01b62ffffff60029490940b93909316929092029190911773ffffffffffffffffffffffffffffffffffffffff19166001600160a01b03909116179055506110239050565b60408101516000805473ffffffffffffffffffffffffffffffffffffffff19166001600160a01b039092169190911790555b8060c001516001600160801b031683602001516001600160801b0316146110695760c0810151600480546001600160801b0319166001600160801b039092169190911790555b8a156110b957608081015160015560a08101516001600160801b0316156110b45760a0810151600380546001600160801b031981166001600160801b03918216909301169190911790555b6110ff565b608081015160025560a08101516001600160801b0316156110ff5760a0810151600380546001600160801b03808216600160801b92839004821690940116029190911790555b8115158b15151461111857602081015181518b03611125565b80600001518a0381602001515b90965094508a15611230576000851215611167576111677f00000000000000000000000000000000000000000000000000000000000000008d876000036137cb565b6000611171613905565b9050336001600160a01b031663fa461e3388888c8c6040518563ffffffff1660e01b815260040180858152602001848152602001806020018281038252848482818152602001925080828437600081840152601f19601f82011690508083019250505095505050505050600060405180830381600087803b1580156111f557600080fd5b505af1158015611209573d6000803e3d6000fd5b50505050611215613905565b61121f8289613a3e565b111561122a57600080fd5b5061132c565b6000861215611267576112677f00000000000000000000000000000000000000000000000000000000000000008d886000036137cb565b6000611271613a4e565b9050336001600160a01b031663fa461e3388888c8c6040518563ffffffff1660e01b815260040180858152602001848152602001806020018281038252848482818152602001925080828437600081840152601f19601f82011690508083019250505095505050505050600060405180830381600087803b1580156112f557600080fd5b505af1158015611309573d6000803e3d6000fd5b50505050611315613a4e565b61131f8288613a3e565b111561132a57600080fd5b505b60408082015160c083015160608085015184518b8152602081018b90526001600160a01b03948516818701526001600160801b039093169183019190915260020b60808201529151908e169133917fc42079f94a6350d7e6235f29174924f928cc2ac818eb64fed8004e115fbcca679181900360a00190a350506000805460ff60f01b1916600160f01b17905550919890975095505050505050565b6004546001600160801b031681565b6003546001600160801b0380821691600160801b90041682565b60088161ffff811061140257600080fd5b015463ffffffff81169150640100000000810460060b90600160581b81046001600160a01b031690600160f81b900460ff1684565b600054600160f01b900460ff1661144d57600080fd5b6000805460ff60f01b191690556114626128bc565b60008054600160d81b900461ffff169061147e60088385613ae6565b6000805461ffff808416600160d81b810261ffff60d81b19909316929092179092559192508316146114eb576040805161ffff80851682528316602082015281517fac49e518f90a358f652e4400164f05a5d8f7e35e7747279bc3a93dbf584e125a929181900390910190a15b50506000805460ff60f01b1916600160f01b17905550565b6000546001600160a01b03811690600160a01b810460020b9061ffff600160b81b8204811691600160c81b8104821691600160d81b8204169060ff600160e81b8204811691600160f01b90041687565b600080548190600160f01b900460ff1661156c57600080fd5b6000805460ff60f01b191690556001600160801b03851661158c57600080fd5b6000806115da60405180608001604052808c6001600160a01b031681526020018b60020b81526020018a60020b81526020016115d08a6001600160801b0316613b5d565b600f0b9052613b6e565b925092505081935080925060008060008611156115fc576115f9613905565b91505b841561160d5761160a613a4e565b90505b336001600160a01b031663d348799787878b8b6040518563ffffffff1660e01b815260040180858152602001848152602001806020018281038252848482818152602001925080828437600081840152601f19601f82011690508083019250505095505050505050600060405180830381600087803b15801561168f57600080fd5b505af11580156116a3573d6000803e3d6000fd5b5050505060008611156116cd576116b8613905565b6116c28388613a3e565b11156116cd57600080fd5b84156116f0576116db613a4e565b6116e58287613a3e565b11156116f057600080fd5b8960020b8b60020b8d6001600160a01b03167f7a53080ba414158be7ec69b987b5fb7d07dee101fe85488f0853ae16239d0bde338d8b8b60405180856001600160a01b03168152602001846001600160801b0316815260200183815260200182815260200194505050505060405180910390a450506000805460ff60f01b1916600160f01b17905550919890975095505050505050565b60025481565b600054600160f01b900460ff166117a357600080fd5b6000805460ff60f01b191690556117b86128bc565b6004546001600160801b0316806117ce57600080fd5b6000611803867f000000000000000000000000000000000000000000000000000000000000000062ffffff16620f4240613dae565b9050600061183a867f000000000000000000000000000000000000000000000000000000000000000062ffffff16620f4240613dae565b90506000611846613905565b90506000611852613a4e565b90508815611885576118857f00000000000000000000000000000000000000000000000000000000000000008b8b6137cb565b87156118b6576118b67f00000000000000000000000000000000000000000000000000000000000000008b8a6137cb565b336001600160a01b031663e9cbafb085858a8a6040518563ffffffff1660e01b815260040180858152602001848152602001806020018281038252848482818152602001925080828437600081840152601f19601f82011690508083019250505095505050505050600060405180830381600087803b15801561193857600080fd5b505af115801561194c573d6000803e3d6000fd5b50505050600061195a613905565b90506000611966613a4e565b9050816119738588613a3e565b111561197e57600080fd5b806119898487613a3e565b111561199457600080fd5b8382038382038115611a235760008054600160e81b9004600f169081156119c7578160ff1684816119c157fe5b046119ca565b60005b90506001600160801b038116156119fd57600380546001600160801b038082168401166001600160801b03199091161790555b611a17818503600160801b8d6001600160801b0316612f95565b60018054909101905550505b8015611aae5760008054600160e81b900460041c600f16908115611a53578160ff168381611a4d57fe5b04611a56565b60005b90506001600160801b03811615611a8857600380546001600160801b03600160801b8083048216850182160291161790555b611aa2818403600160801b8d6001600160801b0316612f95565b60028054909101905550505b8d6001600160a01b0316336001600160a01b03167fbdbdb71d7860376ba52b25a5028beea23581364a40522f6bcfb86bb1f2dca6338f8f86866040518085815260200184815260200183815260200182815260200194505050505060405180910390a350506000805460ff60f01b1916600160f01b179055505050505050505050505050565b600080548190600160f01b900460ff16611b4d57600080fd5b6000805460ff60f01b19168155611b676007338989613de8565b60038101549091506001600160801b0390811690861611611b885784611b97565b60038101546001600160801b03165b60038201549093506001600160801b03600160801b909104811690851611611bbf5783611bd5565b6003810154600160801b90046001600160801b03165b91506001600160801b03831615611c3a576003810180546001600160801b031981166001600160801b03918216869003821617909155611c3a907f0000000000000000000000000000000000000000000000000000000000000000908a9086166137cb565b6001600160801b03821615611ca0576003810180546001600160801b03600160801b808304821686900382160291811691909117909155611ca0907f0000000000000000000000000000000000000000000000000000000000000000908a9085166137cb565b604080516001600160a01b038a1681526001600160801b0380861660208301528416818301529051600288810b92908a900b9133917f70935338e69775456a85ddef226c395fb668b63fa0115f5f20610b388e6ca9c0919081900360600190a4506000805460ff60f01b1916600160f01b17905590969095509350505050565b60076020526000908152604090208054600182015460028301546003909301546001600160801b0392831693919281811691600160801b90041685565b60066020526000908152604090205481565b7f000000000000000000000000000000000000000000000000000000000000000081565b600054600160f01b900460ff16611da957600080fd5b6000805460ff60f01b1916905560408051638da5cb5b60e01b815290516001600160a01b037f00000000000000000000000000000000000000000000000000000000000000001691638da5cb5b916004808301926020929190829003018186803b158015611e1657600080fd5b505afa158015611e2a573d6000803e3d6000fd5b505050506040513d6020811015611e4057600080fd5b50516001600160a01b03163314611e5657600080fd5b60ff82161580611e79575060048260ff1610158015611e795750600a8260ff1611155b8015611ea3575060ff81161580611ea3575060048160ff1610158015611ea35750600a8160ff1611155b611eac57600080fd5b60008054610ff0600484901b16840160ff908116600160e81b9081027fffff00ffffffffffffffffffffffffffffffffffffffffffffffffffffffffff841617909355919004167f973d8d92bb299f4af6ce49b52a8adb85ae46b9f214c4c4fc06ac77401237b1336010826040805160ff9390920683168252600f600486901c16602083015286831682820152918516606082015290519081900360800190a150506000805460ff60f01b1916600160f01b17905550565b600080548190600160f01b900460ff16611f7d57600080fd5b6000805460ff60f01b1916905560408051638da5cb5b60e01b815290516001600160a01b037f00000000000000000000000000000000000000000000000000000000000000001691638da5cb5b916004808301926020929190829003018186803b158015611fea57600080fd5b505afa158015611ffe573d6000803e3d6000fd5b505050506040513d602081101561201457600080fd5b50516001600160a01b0316331461202a57600080fd5b6003546001600160801b03908116908516116120465783612053565b6003546001600160801b03165b6003549092506001600160801b03600160801b909104811690841611612079578261208d565b600354600160801b90046001600160801b03165b90506001600160801b0382161561210e576003546001600160801b03838116911614156120bc57600019909101905b600380546001600160801b031981166001600160801b0391821685900382161790915561210e907f000000000000000000000000000000000000000000000000000000000000000090879085166137cb565b6001600160801b03811615612194576003546001600160801b03828116600160801b90920416141561213f57600019015b600380546001600160801b03600160801b808304821685900382160291811691909117909155612194907f000000000000000000000000000000000000000000000000000000000000000090879084166137cb565b604080516001600160801b0380851682528316602082015281516001600160a01b0388169233927f596b573906218d3411850b26a6b437d6c4522fdb43d2d2386263f86d50b8b151929081900390910190a36000805460ff60f01b1916600160f01b1790559094909350915050565b60608061220e6128bc565b6122856122196128f3565b858580806020026020016040519081016040528093929190818152602001838360200280828437600092018290525054600454600896959450600160a01b820460020b935061ffff600160b81b8304811693506001600160801b0390911691600160c81b900416613e4c565b915091509250929050565b600080548190600160f01b900460ff166122a957600080fd5b6000805460ff60f01b1916815560408051608081018252338152600288810b602083015287900b918101919091528190819061230290606081016122f56001600160801b038a16613b5d565b600003600f0b9052613b6e565b92509250925081600003945080600003935060008511806123235750600084115b15612362576003830180546001600160801b038082168089018216600160801b93849004831689019092169092029091176001600160801b0319161790555b604080516001600160801b0388168152602081018790528082018690529051600289810b92908b900b9133917f0c396cd989a39f4459b5fa1aed6a9a8dcdbc45908acfd67e028cd568da98982c919081900360600190a450506000805460ff60f01b1916600160f01b179055509094909350915050565b60008060006123e66128bc565b6123f08585613f7a565b600285810b810b60009081526005602052604080822087840b90930b825281206003830154600681900b9367010000000000000082046001600160a01b0316928492600160d81b810463ffffffff169284929091600160f81b900460ff168061245857600080fd5b6003820154600681900b985067010000000000000081046001600160a01b03169650600160d81b810463ffffffff169450600160f81b900460ff168061249d57600080fd5b50506040805160e0810182526000546001600160a01b0381168252600160a01b8104600290810b810b810b6020840181905261ffff600160b81b8404811695850195909552600160c81b830485166060850152600160d81b8304909416608084015260ff600160e81b8304811660a0850152600160f01b909204909116151560c08301529093508e810b91900b12159050612546575093909403965090039350900390506125c9565b8a60020b816020015160020b12156125ba5760006125626128f3565b6020830151604084015160045460608601519394506000938493612598936008938893879392916001600160801b031690613045565b9a9003989098039b5050949096039290920396509091030392506125c9915050565b50949093039650039350900390505b9250925092565b7f000000000000000000000000000000000000000000000000000000000000000081565b7f000000000000000000000000000000000000000000000000000000000000000081565b7f000000000000000000000000000000000000000000000000000000000000000081565b7f000000000000000000000000000000000000000000000000000000000000000081565b60015481565b60056020526000908152604090208054600182015460028301546003909301546001600160801b03831693600160801b909304600f0b9290600681900b9067010000000000000081046001600160a01b031690600160d81b810463ffffffff1690600160f81b900460ff1688565b6000546001600160a01b0316156126ea57600080fd5b60006126f582613307565b905060008061270d6127056128f3565b600890613fb9565b6040805160e0810182526001600160a01b038816808252600288810b6020808501829052600085870181905261ffff898116606088018190529089166080880181905260a08801839052600160c0909801979097528154600160f01b73ffffffffffffffffffffffffffffffffffffffff19909116871762ffffff60a01b1916600160a01b62ffffff9787900b9790971696909602959095177fffffffffff00000000ffffffffffffffffffffffffffffffffffffffffffffff16600160c81b9091021761ffff60d81b1916600160d81b909602959095177fff0000ffffffffffffffffffffffffffffffffffffffffffffffffffffffffff1692909217909355835191825281019190915281519395509193507f98636036cb66a9c19a37435efc1e90142190214e8abeb821bdba3f2990dd4c9592918290030190a150505050565b60008082600281900b620d89e7198161286557fe5b05029050600083600281900b620d89e88161287c57fe5b0502905060008460020b83830360020b8161289357fe5b0560010190508062ffffff166001600160801b038016816128b057fe5b0493505050505b919050565b306001600160a01b037f000000000000000000000000000000000000000000000000000000000000000016146128f157600080fd5b565b4290565b60008060008460020b8660020b8161290b57fe5b05905060008660020b12801561293257508460020b8660020b8161292b57fe5b0760020b15155b1561293c57600019015b83156129b15760008061294e83614005565b600182810b810b600090815260208d9052604090205460ff83169190911b8001600019019081168015159750929450909250908561299357888360ff168603026129a6565b8861299d82614017565b840360ff168603025b965050505050612a2f565b6000806129c083600101614005565b91509150600060018260ff166001901b031990506000818b60008660010b60010b8152602001908152602001600020541690508060001415955085612a1257888360ff0360ff16866001010102612a28565b8883612a1d836140b7565b0360ff168660010101025b9650505050505b5094509492505050565b60008060008360020b12612a50578260020b612a58565b8260020b6000035b9050620d89e8811115612a6a57600080fd5b600060018216612a7e57600160801b612a90565b6ffffcb933bd6fad37aa2d162d1a5940015b70ffffffffffffffffffffffffffffffffff1690506002821615612ac4576ffff97272373d413259a46990580e213a0260801c5b6004821615612ae3576ffff2e50f5f656932ef12357cf3c7fdcc0260801c5b6008821615612b02576fffe5caca7e10e4e61c3624eaa0941cd00260801c5b6010821615612b21576fffcb9843d60f6159c9db58835c9266440260801c5b6020821615612b40576fff973b41fa98c081472e6896dfb254c00260801c5b6040821615612b5f576fff2ea16466c96a3843ec78b326b528610260801c5b6080821615612b7e576ffe5dee046a99a2a811c461f1969c30530260801c5b610100821615612b9e576ffcbe86c7900a88aedcffc83b479aa3a40260801c5b610200821615612bbe576ff987a7253ac413176f2b074cf7815e540260801c5b610400821615612bde576ff3392b0822b70005940c7a398e4b70f30260801c5b610800821615612bfe576fe7159475a2c29b7443b29c7fa6e889d90260801c5b611000821615612c1e576fd097f3bdfd2022b8845ad8f792aa58250260801c5b612000821615612c3e576fa9f746462d870fdf8a65dc1f90e061e50260801c5b614000821615612c5e576f70d869a156d2a1b890bb3df62baf32f70260801c5b618000821615612c7e576f31be135f97d08fd981231505542fcfa60260801c5b62010000821615612c9f576f09aa508b5b7a84e1c677de54f3e99bc90260801c5b62020000821615612cbf576e5d6af8dedb81196699c329225ee6040260801c5b62040000821615612cde576d2216e584f5fa1ea926041bedfe980260801c5b62080000821615612cfb576b048a170391f7dc42444e8fa20260801c5b60008460020b1315612d16578060001981612d1257fe5b0490505b640100000000810615612d2a576001612d2d565b60005b60ff16602082901c0192505050919050565b60008080806001600160a01b03808916908a161015818712801590612dc4576000612d788989620f42400362ffffff16620f4240612f95565b905082612d9157612d8c8c8c8c60016141a1565b612d9e565b612d9e8b8d8c600161421c565b9550858110612daf578a9650612dbe565b612dbb8c8b83866142d9565b96505b50612e0e565b81612ddb57612dd68b8b8b600061421c565b612de8565b612de88a8c8b60006141a1565b9350838860000310612dfc57899550612e0e565b612e0b8b8a8a60000385614325565b95505b6001600160a01b038a8116908716148215612e7157808015612e2d5750815b612e4357612e3e878d8c600161421c565b612e45565b855b9550808015612e52575081155b612e6857612e63878d8c60006141a1565b612e6a565b845b9450612ebb565b808015612e7b5750815b612e9157612e8c8c888c60016141a1565b612e93565b855b9550808015612ea0575081155b612eb657612eb18c888c600061421c565b612eb8565b845b94505b81158015612ecb57508860000385115b15612ed7578860000394505b818015612ef657508a6001600160a01b0316876001600160a01b031614155b15612f05578589039350612f22565b612f1f868962ffffff168a620f42400362ffffff16613dae565b93505b50505095509550955095915050565b60007f80000000000000000000000000000000000000000000000000000000000000008210612f5f57600080fd5b5090565b80820382811315600083121514612f7957600080fd5b92915050565b81810182811215600083121514612f7957600080fd5b6000808060001985870986860292508281109083900303905080612fcb5760008411612fc057600080fd5b50829004905061303e565b808411612fd757600080fd5b6000848688096000868103871696879004966002600389028118808a02820302808a02820302808a02820302808a02820302808a02820302808a02909103029181900381900460010186841190950394909402919094039290920491909117919091029150505b9392505050565b60008063ffffffff87166130ec576000898661ffff1661ffff811061306657fe5b60408051608081018252919092015463ffffffff8082168084526401000000008304600690810b810b900b6020850152600160581b83046001600160a01b031694840194909452600160f81b90910460ff16151560608301529092508a16146130d8576130d5818a8988614371565b90505b8060200151816040015192509250506131cc565b8688036000806131018c8c858c8c8c8c614421565b91509150816000015163ffffffff168363ffffffff1614156131335781602001518260400151945094505050506131cc565b805163ffffffff8481169116141561315b5780602001518160400151945094505050506131cc565b8151815160208085015190840151918390039286039163ffffffff80841692908516910360060b8161318957fe5b05028460200151018263ffffffff168263ffffffff1686604001518660400151036001600160a01b031602816131bb57fe5b048560400151019650965050505050505b97509795505050505050565b600295860b860b60009081526020979097526040909620600181018054909503909455938301805490920390915560038201805463ffffffff600160d81b6001600160a01b036701000000000000008085048216909603169094027fffffffffff0000000000000000000000000000000000000000ffffffffffffff90921691909117600681810b90960390950b66ffffffffffffff1666ffffffffffffff199095169490941782810485169095039093160263ffffffff60d81b1990931692909217905554600160801b9004600f0b90565b60008082600f0b12156132e357826001600160801b03168260000384039150816001600160801b0316106132de57600080fd5b612f79565b826001600160801b03168284019150816001600160801b03161015612f7957600080fd5b60006401000276a36001600160a01b03831610801590613343575073fffd8963efd1fc6a506488495d951d5263988d266001600160a01b038316105b61334c57600080fd5b77ffffffffffffffffffffffffffffffffffffffff00000000602083901b166001600160801b03811160071b81811c67ffffffffffffffff811160061b90811c63ffffffff811160051b90811c61ffff811160041b90811c60ff8111600390811b91821c600f811160021b90811c918211600190811b92831c979088119617909417909217179091171717608081106133ed57607f810383901c91506133f7565b80607f0383901b91505b908002607f81811c60ff83811c9190911c800280831c81831c1c800280841c81841c1c800280851c81851c1c800280861c81861c1c800280871c81871c1c800280881c81881c1c800280891c81891c1c8002808a1c818a1c1c8002808b1c818b1c1c8002808c1c818c1c1c8002808d1c818d1c1c8002808e1c9c81901c9c909c1c80029c8d901c9e9d607f198f0160401b60c09190911c678000000000000000161760c19b909b1c674000000000000000169a909a1760c29990991c672000000000000000169890981760c39790971c671000000000000000169690961760c49590951c670800000000000000169490941760c59390931c670400000000000000169290921760c69190911c670200000000000000161760c79190911c670100000000000000161760c89190911c6680000000000000161760c99190911c6640000000000000161760ca9190911c6620000000000000161760cb9190911c6610000000000000161760cc9190911c6608000000000000161760cd9190911c66040000000000001617693627a301d71055774c8581027ffffffffffffffffffffffffffffffffffd709b7e5480fba5a50fed5e62ffc5568101608090811d906fdb2df09e81959a81455e260799a0632f8301901d600281810b9083900b1461360757886001600160a01b03166135eb82612a39565b6001600160a01b031611156136005781613602565b805b613609565b815b9998505050505050505050565b6000806000898961ffff1661ffff811061362c57fe5b60408051608081018252919092015463ffffffff8082168084526401000000008304600690810b810b900b6020850152600160581b83046001600160a01b031694840194909452600160f81b90910460ff16151560608301529092508916141561369c57888592509250506131cc565b8461ffff168461ffff161180156136bd57506001850361ffff168961ffff16145b156136ca578391506136ce565b8491505b8161ffff168960010161ffff16816136e257fe5b0692506136f181898989614371565b8a8461ffff1661ffff811061370257fe5b825191018054602084015160408501516060909501511515600160f81b027effffffffffffffffffffffffffffffffffffffffffffffffffffffffffffff6001600160a01b03909616600160581b027fff0000000000000000000000000000000000000000ffffffffffffffffffffff60069390930b66ffffffffffffff16640100000000026affffffffffffff000000001963ffffffff90971663ffffffff199095169490941795909516929092171692909217929092161790555097509795505050505050565b604080516001600160a01b038481166024830152604480830185905283518084039091018152606490920183526020820180516001600160e01b03167fa9059cbb000000000000000000000000000000000000000000000000000000001781529251825160009485949389169392918291908083835b602083106138605780518252601f199092019160209182019101613841565b6001836020036101000a0380198251168184511680821785525050505050509050019150506000604051808303816000865af19150503d80600081146138c2576040519150601f19603f3d011682016040523d82523d6000602084013e6138c7565b606091505b50915091508180156138f55750805115806138f557508080602001905160208110156138f257600080fd5b50515b6138fe57600080fd5b5050505050565b604080513060248083019190915282518083039091018152604490910182526020810180516001600160e01b03166370a0823160e01b17815291518151600093849384936001600160a01b037f00000000000000000000000000000000000000000000000000000000000000001693919290918291908083835b6020831061399e5780518252601f19909201916020918201910161397f565b6001836020036101000a038019825116818451168082178552505050505050905001915050600060405180830381855afa9150503d80600081146139fe576040519150601f19603f3d011682016040523d82523d6000602084013e613a03565b606091505b5091509150818015613a1757506020815110155b613a2057600080fd5b808060200190516020811015613a3557600080fd5b50519250505090565b80820182811015612f7957600080fd5b604080513060248083019190915282518083039091018152604490910182526020810180516001600160e01b03166370a0823160e01b17815291518151600093849384936001600160a01b037f00000000000000000000000000000000000000000000000000000000000000001693919290918291908083836020831061399e5780518252601f19909201916020918201910161397f565b6000808361ffff1611613af857600080fd5b8261ffff168261ffff1611613b0e57508161303e565b825b8261ffff168161ffff161015613b54576001858261ffff1661ffff8110613b3357fe5b01805463ffffffff191663ffffffff92909216919091179055600101613b10565b50909392505050565b80600f81900b81146128b757600080fd5b6000806000613b7b6128bc565b613b8d84602001518560400151613f7a565b6040805160e0810182526000546001600160a01b0381168252600160a01b8104600290810b810b900b602080840182905261ffff600160b81b8404811685870152600160c81b84048116606080870191909152600160d81b8504909116608086015260ff600160e81b8504811660a0870152600160f01b909404909316151560c085015288519089015194890151928901519394613c3194919390929091906145f0565b93508460600151600f0b600014613da657846020015160020b816020015160020b1215613c8657613c7f613c688660200151612a39565b613c758760400151612a39565b87606001516147a5565b9250613da6565b846040015160020b816020015160020b1215613d7c5760045460408201516001600160801b0390911690613cd890613cbc6128f3565b6020850151606086015160808701516008949392918791613616565b6000805461ffff60c81b1916600160c81b61ffff938416021761ffff60b81b1916600160b81b939092169290920217905581516040870151613d289190613d1e90612a39565b88606001516147a5565b9350613d46613d3a8760200151612a39565b835160608901516147e9565b9250613d568187606001516132ab565b600480546001600160801b0319166001600160801b039290921691909117905550613da6565b613da3613d8c8660200151612a39565b613d998760400151612a39565b87606001516147e9565b91505b509193909250565b6000613dbb848484612f95565b905060008280613dc757fe5b848609111561303e576000198110613dde57600080fd5b6001019392505050565b6040805160609490941b6bffffffffffffffffffffffff1916602080860191909152600293840b60e890811b60348701529290930b90911b60378401528051808403601a018152603a90930181528251928201929092206000908152929052902090565b60608060008361ffff1611613e6057600080fd5b865167ffffffffffffffff81118015613e7857600080fd5b50604051908082528060200260200182016040528015613ea2578160200160208202803683370190505b509150865167ffffffffffffffff81118015613ebd57600080fd5b50604051908082528060200260200182016040528015613ee7578160200160208202803683370190505b50905060005b8751811015613f6d57613f188a8a8a8481518110613f0757fe5b60200260200101518a8a8a8a613045565b848381518110613f2457fe5b60200260200101848481518110613f3757fe5b60200260200101826001600160a01b03166001600160a01b03168152508260060b60060b81525050508080600101915050613eed565b5097509795505050505050565b8060020b8260020b12613f8c57600080fd5b620d89e719600283900b1215613fa157600080fd5b620d89e8600282900b1315613fb557600080fd5b5050565b6040805160808101825263ffffffff9283168082526000602083018190529282019290925260016060909101819052835463ffffffff1916909117909116600160f81b17909155908190565b60020b600881901d9161010090910790565b600080821161402557600080fd5b600160801b821061403857608091821c91015b68010000000000000000821061405057604091821c91015b640100000000821061406457602091821c91015b62010000821061407657601091821c91015b610100821061408757600891821c91015b6010821061409757600491821c91015b600482106140a757600291821c91015b600282106128b757600101919050565b60008082116140c557600080fd5b5060ff6001600160801b038216156140e057607f19016140e8565b608082901c91505b67ffffffffffffffff82161561410157603f1901614109565b604082901c91505b63ffffffff82161561411e57601f1901614126565b602082901c91505b61ffff82161561413957600f1901614141565b601082901c91505b60ff821615614153576007190161415b565b600882901c91505b600f82161561416d5760031901614175565b600482901c91505b6003821615614187576001190161418f565b600282901c91505b60018216156128b75760001901919050565b6000836001600160a01b0316856001600160a01b031611156141c1579293925b816141ee576141e9836001600160801b03168686036001600160a01b0316600160601b612f95565b614211565b614211836001600160801b03168686036001600160a01b0316600160601b613dae565b90505b949350505050565b6000836001600160a01b0316856001600160a01b0316111561423c579293925b7bffffffffffffffffffffffffffffffff000000000000000000000000606084901b166001600160a01b03868603811690871661427857600080fd5b836142a857866001600160a01b031661429b8383896001600160a01b0316612f95565b816142a257fe5b046142ce565b6142ce6142bf8383896001600160a01b0316613dae565b886001600160a01b0316614818565b979650505050505050565b600080856001600160a01b0316116142f057600080fd5b6000846001600160801b03161161430657600080fd5b81614318576141e98585856001614823565b6142118585856001614904565b600080856001600160a01b03161161433c57600080fd5b6000846001600160801b03161161435257600080fd5b81614364576141e98585856000614904565b6142118585856000614823565b614379615111565b600085600001518503905060405180608001604052808663ffffffff1681526020018263ffffffff168660020b0288602001510160060b81526020016000856001600160801b0316116143cd5760016143cf565b845b6001600160801b031673ffffffff00000000000000000000000000000000608085901b16816143fa57fe5b048860400151016001600160a01b0316815260200160011515815250915050949350505050565b614429615111565b614431615111565b888561ffff1661ffff811061444257fe5b60408051608081018252919092015463ffffffff81168083526401000000008204600690810b810b900b6020840152600160581b82046001600160a01b031693830193909352600160f81b900460ff161515606082015292506144a7908990896149f9565b156144df578663ffffffff16826000015163ffffffff1614156144c9576131cc565b816144d683898988614371565b915091506131cc565b888361ffff168660010161ffff16816144f457fe5b0661ffff1661ffff811061450457fe5b60408051608081018252929091015463ffffffff811683526401000000008104600690810b810b900b60208401526001600160a01b03600160581b8204169183019190915260ff600160f81b909104161515606082018190529092506145bb57604080516080810182528a5463ffffffff811682526401000000008104600690810b810b900b6020830152600160581b81046001600160a01b031692820192909252600160f81b90910460ff161515606082015291505b6145ca888360000151896149f9565b6145d357600080fd5b6145e08989898887614abc565b9150915097509795505050505050565b60006145ff6007878787613de8565b60015460025491925090600080600f87900b156147455760006146206128f3565b600080546004549293509091829161466a9160089186918591600160a01b810460020b9161ffff600160b81b83048116926001600160801b0390921691600160c81b900416613045565b90925090506146a460058d8b8d8b8b87898b60007f0000000000000000000000000000000000000000000000000000000000000000614c5c565b94506146db60058c8b8d8b8b87898b60017f0000000000000000000000000000000000000000000000000000000000000000614c5c565b9350841561470f5761470f60068d7f0000000000000000000000000000000000000000000000000000000000000000614e19565b83156147415761474160068c7f0000000000000000000000000000000000000000000000000000000000000000614e19565b5050505b60008061475760058c8c8b8a8a614e7f565b9092509050614768878a8484614f2b565b600089600f0b12156147965783156147855761478560058c615093565b82156147965761479660058b615093565b50505050505095945050505050565b60008082600f0b126147cb576147c66147c1858585600161421c565b612f31565b614214565b6147de6147c1858585600003600061421c565b600003949350505050565b60008082600f0b12614805576147c66147c185858560016141a1565b6147de6147c185858560000360006141a1565b808204910615150190565b600081156148965760006001600160a01b038411156148595761485484600160601b876001600160801b0316612f95565b614871565b6001600160801b038516606085901b8161486f57fe5b045b905061488e6148896001600160a01b03881683613a3e565b6150bf565b915050614214565b60006001600160a01b038411156148c4576148bf84600160601b876001600160801b0316613dae565b6148db565b6148db606085901b6001600160801b038716614818565b905080866001600160a01b0316116148f257600080fd5b6001600160a01b038616039050614214565b600082614912575083614214565b7bffffffffffffffffffffffffffffffff000000000000000000000000606085901b1682156149b2576001600160a01b0386168481029085828161495257fe5b041415614983578181018281106149815761497783896001600160a01b031683613dae565b9350505050614214565b505b6149a9826149a4878a6001600160a01b0316868161499d57fe5b0490613a3e565b614818565b92505050614214565b6001600160a01b038616848102908582816149c957fe5b041480156149d657508082115b6149df57600080fd5b808203614977614889846001600160a01b038b1684613dae565b60008363ffffffff168363ffffffff1611158015614a2357508363ffffffff168263ffffffff1611155b15614a3f578163ffffffff168363ffffffff161115905061303e565b60008463ffffffff168463ffffffff1611614a67578363ffffffff1664010000000001614a6f565b8363ffffffff165b64ffffffffff16905060008563ffffffff168463ffffffff1611614aa0578363ffffffff1664010000000001614aa8565b8363ffffffff165b64ffffffffff169091111595945050505050565b614ac4615111565b614acc615111565b60008361ffff168560010161ffff1681614ae257fe5b0661ffff169050600060018561ffff16830103905060005b506002818301048961ffff87168281614b0f57fe5b0661ffff8110614b1b57fe5b60408051608081018252929091015463ffffffff811683526401000000008104600690810b810b900b60208401526001600160a01b03600160581b8204169183019190915260ff600160f81b90910416151560608201819052909550614b8657806001019250614afa565b898661ffff168260010181614b9757fe5b0661ffff8110614ba357fe5b60408051608081018252929091015463ffffffff811683526401000000008104600690810b810b900b60208401526001600160a01b03600160581b8204169183019190915260ff600160f81b90910416151560608201528551909450600090614c0e908b908b6149f9565b9050808015614c275750614c278a8a87600001516149f9565b15614c325750614c4f565b80614c4257600182039250614c49565b8160010193505b50614afa565b5050509550959350505050565b60028a810b900b600090815260208c90526040812080546001600160801b031682614c87828d6132ab565b9050846001600160801b0316816001600160801b03161115614ca857600080fd5b6001600160801b038281161590821615811415945015614d7e578c60020b8e60020b13614d4e57600183018b9055600283018a90556003830180547fffffffffff0000000000000000000000000000000000000000ffffffffffffff166701000000000000006001600160a01b038c16021766ffffffffffffff191666ffffffffffffff60068b900b161763ffffffff60d81b1916600160d81b63ffffffff8a16021790555b6003830180547effffffffffffffffffffffffffffffffffffffffffffffffffffffffffffff16600160f81b1790555b82546001600160801b0319166001600160801b03821617835585614dc7578254614dc290614dbd90600160801b9004600f90810b810b908f900b612f7f565b613b5d565b614de8565b8254614de890614dbd90600160801b9004600f90810b810b908f900b612f63565b8354600f9190910b6001600160801b03908116600160801b0291161790925550909c9b505050505050505050505050565b8060020b8260020b81614e2857fe5b0760020b15614e3657600080fd5b600080614e518360020b8560020b81614e4b57fe5b05614005565b600191820b820b60009081526020979097526040909620805460ff9097169190911b90951890945550505050565b600285810b80820b60009081526020899052604080822088850b850b83529082209193849391929184918291908a900b12614ec557505060018201546002830154614ed8565b8360010154880391508360020154870390505b6000808b60020b8b60020b1215614efa57505060018301546002840154614f0d565b84600101548a0391508460020154890390505b92909803979097039b96909503949094039850939650505050505050565b6040805160a08101825285546001600160801b0390811682526001870154602083015260028701549282019290925260038601548083166060830152600160801b900490911660808201526000600f85900b614f9d5781516001600160801b0316614f9557600080fd5b508051614fac565b8151614fa990866132ab565b90505b6000614fd08360200151860384600001516001600160801b0316600160801b612f95565b90506000614ff68460400151860385600001516001600160801b0316600160801b612f95565b905086600f0b60001461501d5787546001600160801b0319166001600160801b0384161788555b60018801869055600288018590556001600160801b03821615158061504b57506000816001600160801b0316115b15615089576003880180546001600160801b031981166001600160801b039182168501821617808216600160801b9182900483168501909216021790555b5050505050505050565b600290810b810b6000908152602092909252604082208281556001810183905590810182905560030155565b806001600160a01b03811681146128b757600080fd5b6040805160e081018252600080825260208201819052918101829052606081018290526080810182905260a0810182905260c081019190915290565b6040805160808101825260008082526020820181905291810182905260608101919091529056fea164736f6c6343000706000aa164736f6c6343000706000ac66a3fdf07232cdd185febcc6579d408c241b47ae2f9907d84be655141eeaecc",
  "linkReferences": {},
  "deployedLinkReferences": {}
}