{
  "_format": "hh-sol-artifact-1",
  "contractName": "TokenMinter",
  "sourceName": "contracts/TokenMinter.sol",
  "abi": [
    {
      "inputs": [],
      "stateMutability": "nonpayable",
      "type": "constructor"
    },
    {
      "anonymous": false,
      "inputs": [
        {
          "indexed": false,
          "internalType": "address",
          "name": "oldRecipient",
          "type": "address"
        },
        {
          "indexed": false,
          "internalType": "address",
          "name": "newRecipient",
          "type": "address"
        }
      ],
      "name": "FeeRecipientUpdated",
      "type": "event"
    },
    {
      "anonymous": false,
      "inputs": [
        {
          "indexed": false,
          "internalType": "uint256",
          "name": "oldFee",
          "type": "uint256"
        },
        {
          "indexed": false,
          "internalType": "uint256",
          "name": "newFee",
          "type": "uint256"
        }
      ],
      "name": "MintFeeUpdated",
      "type": "event"
    },
    {
      "anonymous": false,
      "inputs": [
        {
          "indexed": true,
          "internalType": "address",
          "name": "previousOwner",
          "type": "address"
        },
        {
          "indexed": true,
          "internalType": "address",
          "name": "newOwner",
          "type": "address"
        }
      ],
      "name": "OwnershipTransferred",
      "type": "event"
    },
    {
      "anonymous": false,
      "inputs": [
        {
          "indexed": false,
          "internalType": "address",
          "name": "account",
          "type": "address"
        }
      ],
      "name": "Paused",
      "type": "event"
    },
    {
      "anonymous": false,
      "inputs": [
        {
          "indexed": true,
          "internalType": "address",
          "name": "creator",
          "type": "address"
        },
        {
          "indexed": false,
          "internalType": "address",
          "name": "tokenAddress",
          "type": "address"
        },
        {
          "indexed": false,
          "internalType": "string",
          "name": "name",
          "type": "string"
        },
        {
          "indexed": false,
          "internalType": "string",
          "name": "symbol",
          "type": "string"
        },
        {
          "indexed": false,
          "internalType": "string",
          "name": "tokenType",
          "type": "string"
        }
      ],
      "name": "TokenCreated",
      "type": "event"
    },
    {
      "anonymous": false,
      "inputs": [
        {
          "indexed": true,
          "internalType": "address",
          "name": "user",
          "type": "address"
        },
        {
          "indexed": false,
          "internalType": "address",
          "name": "tokenAddress",
          "type": "address"
        },
        {
          "indexed": false,
          "internalType": "uint256",
          "name": "amount",
          "type": "uint256"
        }
      ],
      "name": "TokenMinted",
      "type": "event"
    },
    {
      "anonymous": false,
      "inputs": [
        {
          "indexed": false,
          "internalType": "address",
          "name": "account",
          "type": "address"
        }
      ],
      "name": "Unpaused",
      "type": "event"
    },
    {
      "inputs": [],
      "name": "MIN_MOOP_BALANCE",
      "outputs": [
        {
          "internalType": "uint256",
          "name": "",
          "type": "uint256"
        }
      ],
      "stateMutability": "view",
      "type": "function"
    },
    {
      "inputs": [
        {
          "internalType": "address",
          "name": "token",
          "type": "address"
        }
      ],
      "name": "addSupportedToken",
      "outputs": [],
      "stateMutability": "nonpayable",
      "type": "function"
    },
    {
      "inputs": [
        {
          "internalType": "string",
          "name": "tokenType",
          "type": "string"
        },
        {
          "internalType": "string",
          "name": "name",
          "type": "string"
        },
        {
          "internalType": "string",
          "name": "symbol",
          "type": "string"
        },
        {
          "internalType": "uint256",
          "name": "initialSupply",
          "type": "uint256"
        },
        {
          "internalType": "bytes",
          "name": "bytecode",
          "type": "bytes"
        }
      ],
      "name": "createToken",
      "outputs": [
        {
          "internalType": "address",
          "name": "",
          "type": "address"
        }
      ],
      "stateMutability": "payable",
      "type": "function"
    },
    {
      "inputs": [],
      "name": "feeRecipient",
      "outputs": [
        {
          "internalType": "address",
          "name": "",
          "type": "address"
        }
      ],
      "stateMutability": "view",
      "type": "function"
    },
    {
      "inputs": [
        {
          "internalType": "address",
          "name": "token",
          "type": "address"
        },
        {
          "internalType": "uint256",
          "name": "amount",
          "type": "uint256"
        }
      ],
      "name": "mintExistingToken",
      "outputs": [],
      "stateMutability": "payable",
      "type": "function"
    },
    {
      "inputs": [],
      "name": "mintFee",
      "outputs": [
        {
          "internalType": "uint256",
          "name": "",
          "type": "uint256"
        }
      ],
      "stateMutability": "view",
      "type": "function"
    },
    {
      "inputs": [],
      "name": "moopToken",
      "outputs": [
        {
          "internalType": "address",
          "name": "",
          "type": "address"
        }
      ],
      "stateMutability": "view",
      "type": "function"
    },
    {
      "inputs": [],
      "name": "owner",
      "outputs": [
        {
          "internalType": "address",
          "name": "",
          "type": "address"
        }
      ],
      "stateMutability": "view",
      "type": "function"
    },
    {
      "inputs": [],
      "name": "pause",
      "outputs": [],
      "stateMutability": "nonpayable",
      "type": "function"
    },
    {
      "inputs": [],
      "name": "paused",
      "outputs": [
        {
          "internalType": "bool",
          "name": "",
          "type": "bool"
        }
      ],
      "stateMutability": "view",
      "type": "function"
    },
    {
      "inputs": [
        {
          "internalType": "address",
          "name": "token",
          "type": "address"
        }
      ],
      "name": "removeSupportedToken",
      "outputs": [],
      "stateMutability": "nonpayable",
      "type": "function"
    },
    {
      "inputs": [],
      "name": "renounceOwnership",
      "outputs": [],
      "stateMutability": "nonpayable",
      "type": "function"
    },
    {
      "inputs": [
        {
          "internalType": "address",
          "name": "_feeRecipient",
          "type": "address"
        }
      ],
      "name": "setFeeRecipient",
      "outputs": [],
      "stateMutability": "nonpayable",
      "type": "function"
    },
    {
      "inputs": [
        {
          "internalType": "uint256",
          "name": "_mintFee",
          "type": "uint256"
        }
      ],
      "name": "setMintFee",
      "outputs": [],
      "stateMutability": "nonpayable",
      "type": "function"
    },
    {
      "inputs": [
        {
          "internalType": "address",
          "name": "",
          "type": "address"
        }
      ],
      "name": "supportedTokens",
      "outputs": [
        {
          "internalType": "bool",
          "name": "",
          "type": "bool"
        }
      ],
      "stateMutability": "view",
      "type": "function"
    },
    {
      "inputs": [
        {
          "internalType": "address",
          "name": "newOwner",
          "type": "address"
        }
      ],
      "name": "transferOwnership",
      "outputs": [],
      "stateMutability": "nonpayable",
      "type": "function"
    },
    {
      "inputs": [],
      "name": "unpause",
      "outputs": [],
      "stateMutability": "nonpayable",
      "type": "function"
    },
    {
      "stateMutability": "payable",
      "type": "receive"
    }
  ],
  "bytecode": "0x608060405260028054610100600160a81b03191674c4042dfabf63f9d32849ca257b1ee1699a21a1340017905566038d7ea4c6800060035534801561004357600080fd5b50600061004e6100f7565b600080546001600160a01b0319166001600160a01b0383169081178255604051929350917f8be0079c531659141344cd1fd0a4f28419497f9722a3daafe3b4186f6b6457e0908290a35060018080556002805460ff199081169091557375965be2a4c8ba0e9003a512c1914b71e4101ef060005260046020527fbb664b89d3654d09b71056b2024e51f39ba0571fed3151209814d144ba1fe17b805490911690911790556100fb565b3390565b6112498061010a6000396000f3fe6080604052600436106101125760003560e01c8063715018a6116100a5578063c403d8a311610074578063e9301ded11610059578063e9301ded1461031a578063eddd0d9c1461055d578063f2fde38b146105875761011c565b8063c403d8a3146102d2578063e74b981b146102e75761011c565b8063715018a61461026057806376319190146102755780638456cb59146102a85780638da5cb5b146102bd5761011c565b806347d6015f116100e157806347d6015f146101bc5780635c975abb146101d157806368c4ac26146101fa5780636d69fcaf1461022d5761011c565b806313966db5146101215780633f4ba83a146101485780634606ca101461015f578063469048401461018b5761011c565b3661011c57600080fd5b600080fd5b34801561012d57600080fd5b506101366105ba565b60408051918252519081900360200190f35b34801561015457600080fd5b5061015d6105c0565b005b61015d6004803603604081101561017557600080fd5b506001600160a01b0381351690602001356105f6565b34801561019757600080fd5b506101a06108d6565b604080516001600160a01b039092168252519081900360200190f35b3480156101c857600080fd5b506101a06108ea565b3480156101dd57600080fd5b506101e6610902565b604080519115158252519081900360200190f35b34801561020657600080fd5b506101e66004803603602081101561021d57600080fd5b50356001600160a01b031661090b565b34801561023957600080fd5b5061015d6004803603602081101561025057600080fd5b50356001600160a01b0316610920565b34801561026c57600080fd5b5061015d610983565b34801561028157600080fd5b5061015d6004803603602081101561029857600080fd5b50356001600160a01b0316610a06565b3480156102b457600080fd5b5061015d610a7d565b3480156102c957600080fd5b506101a0610ab1565b3480156102de57600080fd5b50610136610ac0565b3480156102f357600080fd5b5061015d6004803603602081101561030a57600080fd5b50356001600160a01b0316610acc565b6101a0600480360360a081101561033057600080fd5b81019060208101813564010000000081111561034b57600080fd5b82018360208201111561035d57600080fd5b8035906020019184600183028401116401000000008311171561037f57600080fd5b91908080601f01602080910402602001604051908101604052809392919081815260200183838082843760009201919091525092959493602081019350359150506401000000008111156103d257600080fd5b8201836020820111156103e457600080fd5b8035906020019184600183028401116401000000008311171561040657600080fd5b91908080601f016020809104026020016040519081016040528093929190818152602001838380828437600092019190915250929594936020810193503591505064010000000081111561045957600080fd5b82018360208201111561046b57600080fd5b8035906020019184600183028401116401000000008311171561048d57600080fd5b91908080601f016020809104026020016040519081016040528093929190818152602001838380828437600092019190915250929584359590949093506040810192506020013590506401000000008111156104e857600080fd5b8201836020820111156104fa57600080fd5b8035906020019184600183028401116401000000008311171561051c57600080fd5b91908080601f016020809104026020016040519081016040528093929190818152602001838380828437600092019190915250929550610b97945050505050565b34801561056957600080fd5b5061015d6004803603602081101561058057600080fd5b503561107a565b34801561059357600080fd5b5061015d600480360360208110156105aa57600080fd5b50356001600160a01b03166110e8565b60035481565b6105c861118f565b6001600160a01b03166105d9610ab1565b6001600160a01b0316146105ec57600080fd5b6105f4611193565b565b6002600154141561060657600080fd5b6002600155610613610902565b1561061d57600080fd5b6001600160a01b03821660009081526004602052604090205460ff1661064257600080fd5b604080516370a0823160e01b81523360048201529051600091670de0b6b3a7640000917375965be2a4c8ba0e9003a512c1914b71e4101ef0916370a08231916024808301926020929190829003018186803b1580156106a057600080fd5b505afa1580156106b4573d6000803e3d6000fd5b505050506040513d60208110156106ca57600080fd5b50511015905080610762576003543410156106e457600080fd5b600354341115610720576003546040513391340380156108fc02916000818181858888f1935050505015801561071e573d6000803e3d6000fd5b505b6002546003546040516101009092046001600160a01b0316916108fc82150291906000818181858888f19350505050158015610760573d6000803e3d6000fd5b505b823b8061076e57600080fd5b60408051336024820152604480820186905282518083039091018152606490910182526020810180517bffffffffffffffffffffffffffffffffffffffffffffffffffffffff167f40c10f1900000000000000000000000000000000000000000000000000000000178152915181516000936001600160a01b0389169392918291908083835b602083106108135780518252601f1990920191602091820191016107f4565b6001836020036101000a0380198251168184511680821785525050505050509050019150506000604051808303816000865af19150503d8060008114610875576040519150601f19603f3d011682016040523d82523d6000602084013e61087a565b606091505b505090508061088857600080fd5b604080516001600160a01b038716815260208101869052815133927fdf1b2b09e9800d31c599375056be9f9e4eb37f078102643600c4e149714efaad928290030190a2505060018055505050565b60025461010090046001600160a01b031681565b7375965be2a4c8ba0e9003a512c1914b71e4101ef081565b60025460ff1690565b60046020526000908152604090205460ff1681565b61092861118f565b6001600160a01b0316610939610ab1565b6001600160a01b03161461094c57600080fd5b6001600160a01b03811661095f57600080fd5b6001600160a01b03166000908152600460205260409020805460ff19166001179055565b61098b61118f565b6001600160a01b031661099c610ab1565b6001600160a01b0316146109af57600080fd5b600080546040516001600160a01b03909116907f8be0079c531659141344cd1fd0a4f28419497f9722a3daafe3b4186f6b6457e0908390a36000805473ffffffffffffffffffffffffffffffffffffffff19169055565b610a0e61118f565b6001600160a01b0316610a1f610ab1565b6001600160a01b031614610a3257600080fd5b6001600160a01b0381167375965be2a4c8ba0e9003a512c1914b71e4101ef01415610a5c57600080fd5b6001600160a01b03166000908152600460205260409020805460ff19169055565b610a8561118f565b6001600160a01b0316610a96610ab1565b6001600160a01b031614610aa957600080fd5b6105f46111f4565b6000546001600160a01b031690565b670de0b6b3a764000081565b610ad461118f565b6001600160a01b0316610ae5610ab1565b6001600160a01b031614610af857600080fd5b6001600160a01b038116610b0b57600080fd5b600254604080516001600160a01b0361010090930483168152918316602083015280517faaebcf1bfa00580e41d966056b48521fa9f202645c86d4ddf28113e617c1b1d39281900390910190a1600280546001600160a01b03909216610100027fffffffffffffffffffffff0000000000000000000000000000000000000000ff909216919091179055565b600060026001541415610ba957600080fd5b6002600155610bb6610902565b15610bc057600080fd5b604080516370a0823160e01b81523360048201529051600091670de0b6b3a7640000917375965be2a4c8ba0e9003a512c1914b71e4101ef0916370a08231916024808301926020929190829003018186803b158015610c1e57600080fd5b505afa158015610c32573d6000803e3d6000fd5b505050506040513d6020811015610c4857600080fd5b50511015905080610ce057600354341015610c6257600080fd5b600354341115610c9e576003546040513391340380156108fc02916000818181858888f19350505050158015610c9c573d6000803e3d6000fd5b505b6002546003546040516101009092046001600160a01b0316916108fc82150291906000818181858888f19350505050158015610cde573d6000803e3d6000fd5b505b600080878787604051602001808060200180602001848152602001838103835286818151815260200191508051906020019080838360005b83811015610d30578181015183820152602001610d18565b50505050905090810190601f168015610d5d5780820380516001836020036101000a031916815260200191505b50838103825285518152855160209182019187019080838360005b83811015610d90578181015183820152602001610d78565b50505050905090810190601f168015610dbd5780820380516001836020036101000a031916815260200191505b50955050505050506040516020818303038152906040529050600085826040516020018083805190602001908083835b60208310610e0c5780518252601f199092019160209182019101610ded565b51815160209384036101000a600019018019909216911617905285519190930192850191508083835b60208310610e545780518252601f199092019160209182019101610e35565b6001836020036101000a0380198251168184511680821785525050505050509050019250505060405160208183030381529060405290508051602082016000f092506001600160a01b038316610ea957600080fd5b600160046000856001600160a01b03166001600160a01b0316815260200190815260200160002060006101000a81548160ff021916908315150217905550336001600160a01b03167ffe210c99153843bc67efa2e9a61ec1d63c505e379b9dcf05a9520e84e36e6063848b8b8e60405180856001600160a01b03168152602001806020018060200180602001848103845287818151815260200191508051906020019080838360005b83811015610f6a578181015183820152602001610f52565b50505050905090810190601f168015610f975780820380516001836020036101000a031916815260200191505b50848103835286518152865160209182019188019080838360005b83811015610fca578181015183820152602001610fb2565b50505050905090810190601f168015610ff75780820380516001836020036101000a031916815260200191505b50848103825285518152855160209182019187019080838360005b8381101561102a578181015183820152602001611012565b50505050905090810190601f1680156110575780820380516001836020036101000a031916815260200191505b5097505050505050505060405180910390a2505060018055979650505050505050565b61108261118f565b6001600160a01b0316611093610ab1565b6001600160a01b0316146110a657600080fd5b600354604080519182526020820183905280517f7864bf708cae822050e5f50960a0de31bd6fe7620a8f67a48582fb95f29c114a9281900390910190a1600355565b6110f061118f565b6001600160a01b0316611101610ab1565b6001600160a01b03161461111457600080fd5b6001600160a01b03811661112757600080fd5b600080546040516001600160a01b03808516939216917f8be0079c531659141344cd1fd0a4f28419497f9722a3daafe3b4186f6b6457e091a36000805473ffffffffffffffffffffffffffffffffffffffff19166001600160a01b0392909216919091179055565b3390565b61119b610902565b6111a457600080fd5b6002805460ff191690557f5db9ee0a495bf2e6ff9c91a7834c1ba4fdd244a5e8aa4e537bd38aeae4b073aa6111d761118f565b604080516001600160a01b039092168252519081900360200190a1565b6111fc610902565b1561120657600080fd5b6002805460ff191660011790557f62e78cea01bee320cd4e420270b5ea74000d11b0c9f74754ebdbfc544b05a2586111d761118f56fea164736f6c6343000706000a",
  "linkReferences": {},
  "deployedLinkReferences": {}
}