{
  "_format": "hh-sol-artifact-1",
  "contractName": "NonfungiblePositionManager",
  "sourceName": "contracts/uniswap/NonfungiblePositionManager.sol",
  "abi": [
    {
      "inputs": [
        {
          "internalType": "address",
          "name": "_factory",
          "type": "address"
        },
        {
          "internalType": "address",
          "name": "_WETH9",
          "type": "address"
        },
        {
          "internalType": "address",
          "name": "_tokenDescriptor_",
          "type": "address"
        }
      ],
      "stateMutability": "nonpayable",
      "type": "constructor"
    },
    {
      "anonymous": false,
      "inputs": [
        {
          "indexed": true,
          "internalType": "address",
          "name": "owner",
          "type": "address"
        },
        {
          "indexed": true,
          "internalType": "address",
          "name": "approved",
          "type": "address"
        },
        {
          "indexed": true,
          "internalType": "uint256",
          "name": "tokenId",
          "type": "uint256"
        }
      ],
      "name": "Approval",
      "type": "event"
    },
    {
      "anonymous": false,
      "inputs": [
        {
          "indexed": true,
          "internalType": "address",
          "name": "owner",
          "type": "address"
        },
        {
          "indexed": true,
          "internalType": "address",
          "name": "operator",
          "type": "address"
        },
        {
          "indexed": false,
          "internalType": "bool",
          "name": "approved",
          "type": "bool"
        }
      ],
      "name": "ApprovalForAll",
      "type": "event"
    },
    {
      "anonymous": false,
      "inputs": [
        {
          "indexed": true,
          "internalType": "uint256",
          "name": "tokenId",
          "type": "uint256"
        },
        {
          "indexed": false,
          "internalType": "address",
          "name": "recipient",
          "type": "address"
        },
        {
          "indexed": false,
          "internalType": "uint256",
          "name": "amount0",
          "type": "uint256"
        },
        {
          "indexed": false,
          "internalType": "uint256",
          "name": "amount1",
          "type": "uint256"
        }
      ],
      "name": "Collect",
      "type": "event"
    },
    {
      "anonymous": false,
      "inputs": [
        {
          "indexed": true,
          "internalType": "uint256",
          "name": "tokenId",
          "type": "uint256"
        },
        {
          "indexed": false,
          "internalType": "uint128",
          "name": "liquidity",
          "type": "uint128"
        },
        {
          "indexed": false,
          "internalType": "uint256",
          "name": "amount0",
          "type": "uint256"
        },
        {
          "indexed": false,
          "internalType": "uint256",
          "name": "amount1",
          "type": "uint256"
        }
      ],
      "name": "DecreaseLiquidity",
      "type": "event"
    },
    {
      "anonymous": false,
      "inputs": [
        {
          "indexed": true,
          "internalType": "uint256",
          "name": "tokenId",
          "type": "uint256"
        },
        {
          "indexed": false,
          "internalType": "uint128",
          "name": "liquidity",
          "type": "uint128"
        },
        {
          "indexed": false,
          "internalType": "uint256",
          "name": "amount0",
          "type": "uint256"
        },
        {
          "indexed": false,
          "internalType": "uint256",
          "name": "amount1",
          "type": "uint256"
        }
      ],
      "name": "IncreaseLiquidity",
      "type": "event"
    },
    {
      "anonymous": false,
      "inputs": [
        {
          "indexed": true,
          "internalType": "address",
          "name": "from",
          "type": "address"
        },
        {
          "indexed": true,
          "internalType": "address",
          "name": "to",
          "type": "address"
        },
        {
          "indexed": true,
          "internalType": "uint256",
          "name": "tokenId",
          "type": "uint256"
        }
      ],
      "name": "Transfer",
      "type": "event"
    },
    {
      "inputs": [],
      "name": "DOMAIN_SEPARATOR",
      "outputs": [
        {
          "internalType": "bytes32",
          "name": "",
          "type": "bytes32"
        }
      ],
      "stateMutability": "view",
      "type": "function"
    },
    {
      "inputs": [],
      "name": "PERMIT_TYPEHASH",
      "outputs": [
        {
          "internalType": "bytes32",
          "name": "",
          "type": "bytes32"
        }
      ],
      "stateMutability": "view",
      "type": "function"
    },
    {
      "inputs": [],
      "name": "WETH9",
      "outputs": [
        {
          "internalType": "address",
          "name": "",
          "type": "address"
        }
      ],
      "stateMutability": "view",
      "type": "function"
    },
    {
      "inputs": [
        {
          "internalType": "address",
          "name": "to",
          "type": "address"
        },
        {
          "internalType": "uint256",
          "name": "tokenId",
          "type": "uint256"
        }
      ],
      "name": "approve",
      "outputs": [],
      "stateMutability": "nonpayable",
      "type": "function"
    },
    {
      "inputs": [
        {
          "internalType": "address",
          "name": "owner",
          "type": "address"
        }
      ],
      "name": "balanceOf",
      "outputs": [
        {
          "internalType": "uint256",
          "name": "",
          "type": "uint256"
        }
      ],
      "stateMutability": "view",
      "type": "function"
    },
    {
      "inputs": [],
      "name": "baseURI",
      "outputs": [
        {
          "internalType": "string",
          "name": "",
          "type": "string"
        }
      ],
      "stateMutability": "pure",
      "type": "function"
    },
    {
      "inputs": [
        {
          "internalType": "uint256",
          "name": "tokenId",
          "type": "uint256"
        }
      ],
      "name": "burn",
      "outputs": [],
      "stateMutability": "payable",
      "type": "function"
    },
    {
      "inputs": [
        {
          "components": [
            {
              "internalType": "uint256",
              "name": "tokenId",
              "type": "uint256"
            },
            {
              "internalType": "address",
              "name": "recipient",
              "type": "address"
            },
            {
              "internalType": "uint128",
              "name": "amount0Max",
              "type": "uint128"
            },
            {
              "internalType": "uint128",
              "name": "amount1Max",
              "type": "uint128"
            }
          ],
          "internalType": "struct INonfungiblePositionManager.CollectParams",
          "name": "params",
          "type": "tuple"
        }
      ],
      "name": "collect",
      "outputs": [
        {
          "internalType": "uint256",
          "name": "amount0",
          "type": "uint256"
        },
        {
          "internalType": "uint256",
          "name": "amount1",
          "type": "uint256"
        }
      ],
      "stateMutability": "payable",
      "type": "function"
    },
    {
      "inputs": [
        {
          "internalType": "address",
          "name": "token0",
          "type": "address"
        },
        {
          "internalType": "address",
          "name": "token1",
          "type": "address"
        },
        {
          "internalType": "uint24",
          "name": "fee",
          "type": "uint24"
        },
        {
          "internalType": "uint160",
          "name": "sqrtPriceX96",
          "type": "uint160"
        }
      ],
      "name": "createAndInitializePoolIfNecessary",
      "outputs": [
        {
          "internalType": "address",
          "name": "pool",
          "type": "address"
        }
      ],
      "stateMutability": "payable",
      "type": "function"
    },
    {
      "inputs": [
        {
          "components": [
            {
              "internalType": "uint256",
              "name": "tokenId",
              "type": "uint256"
            },
            {
              "internalType": "uint128",
              "name": "liquidity",
              "type": "uint128"
            },
            {
              "internalType": "uint256",
              "name": "amount0Min",
              "type": "uint256"
            },
            {
              "internalType": "uint256",
              "name": "amount1Min",
              "type": "uint256"
            },
            {
              "internalType": "uint256",
              "name": "deadline",
              "type": "uint256"
            }
          ],
          "internalType": "struct INonfungiblePositionManager.DecreaseLiquidityParams",
          "name": "params",
          "type": "tuple"
        }
      ],
      "name": "decreaseLiquidity",
      "outputs": [
        {
          "internalType": "uint256",
          "name": "amount0",
          "type": "uint256"
        },
        {
          "internalType": "uint256",
          "name": "amount1",
          "type": "uint256"
        }
      ],
      "stateMutability": "payable",
      "type": "function"
    },
    {
      "inputs": [],
      "name": "factory",
      "outputs": [
        {
          "internalType": "address",
          "name": "",
          "type": "address"
        }
      ],
      "stateMutability": "view",
      "type": "function"
    },
    {
      "inputs": [
        {
          "internalType": "uint256",
          "name": "tokenId",
          "type": "uint256"
        }
      ],
      "name": "getApproved",
      "outputs": [
        {
          "internalType": "address",
          "name": "",
          "type": "address"
        }
      ],
      "stateMutability": "view",
      "type": "function"
    },
    {
      "inputs": [
        {
          "components": [
            {
              "internalType": "uint256",
              "name": "tokenId",
              "type": "uint256"
            },
            {
              "internalType": "uint256",
              "name": "amount0Desired",
              "type": "uint256"
            },
            {
              "internalType": "uint256",
              "name": "amount1Desired",
              "type": "uint256"
            },
            {
              "internalType": "uint256",
              "name": "amount0Min",
              "type": "uint256"
            },
            {
              "internalType": "uint256",
              "name": "amount1Min",
              "type": "uint256"
            },
            {
              "internalType": "uint256",
              "name": "deadline",
              "type": "uint256"
            }
          ],
          "internalType": "struct INonfungiblePositionManager.IncreaseLiquidityParams",
          "name": "params",
          "type": "tuple"
        }
      ],
      "name": "increaseLiquidity",
      "outputs": [
        {
          "internalType": "uint128",
          "name": "liquidity",
          "type": "uint128"
        },
        {
          "internalType": "uint256",
          "name": "amount0",
          "type": "uint256"
        },
        {
          "internalType": "uint256",
          "name": "amount1",
          "type": "uint256"
        }
      ],
      "stateMutability": "payable",
      "type": "function"
    },
    {
      "inputs": [
        {
          "internalType": "address",
          "name": "owner",
          "type": "address"
        },
        {
          "internalType": "address",
          "name": "operator",
          "type": "address"
        }
      ],
      "name": "isApprovedForAll",
      "outputs": [
        {
          "internalType": "bool",
          "name": "",
          "type": "bool"
        }
      ],
      "stateMutability": "view",
      "type": "function"
    },
    {
      "inputs": [
        {
          "components": [
            {
              "internalType": "address",
              "name": "token0",
              "type": "address"
            },
            {
              "internalType": "address",
              "name": "token1",
              "type": "address"
            },
            {
              "internalType": "uint24",
              "name": "fee",
              "type": "uint24"
            },
            {
              "internalType": "int24",
              "name": "tickLower",
              "type": "int24"
            },
            {
              "internalType": "int24",
              "name": "tickUpper",
              "type": "int24"
            },
            {
              "internalType": "uint256",
              "name": "amount0Desired",
              "type": "uint256"
            },
            {
              "internalType": "uint256",
              "name": "amount1Desired",
              "type": "uint256"
            },
            {
              "internalType": "uint256",
              "name": "amount0Min",
              "type": "uint256"
            },
            {
              "internalType": "uint256",
              "name": "amount1Min",
              "type": "uint256"
            },
            {
              "internalType": "address",
              "name": "recipient",
              "type": "address"
            },
            {
              "internalType": "uint256",
              "name": "deadline",
              "type": "uint256"
            }
          ],
          "internalType": "struct INonfungiblePositionManager.MintParams",
          "name": "params",
          "type": "tuple"
        }
      ],
      "name": "mint",
      "outputs": [
        {
          "internalType": "uint256",
          "name": "tokenId",
          "type": "uint256"
        },
        {
          "internalType": "uint128",
          "name": "liquidity",
          "type": "uint128"
        },
        {
          "internalType": "uint256",
          "name": "amount0",
          "type": "uint256"
        },
        {
          "internalType": "uint256",
          "name": "amount1",
          "type": "uint256"
        }
      ],
      "stateMutability": "payable",
      "type": "function"
    },
    {
      "inputs": [
        {
          "internalType": "bytes[]",
          "name": "data",
          "type": "bytes[]"
        }
      ],
      "name": "multicall",
      "outputs": [
        {
          "internalType": "bytes[]",
          "name": "results",
          "type": "bytes[]"
        }
      ],
      "stateMutability": "payable",
      "type": "function"
    },
    {
      "inputs": [],
      "name": "name",
      "outputs": [
        {
          "internalType": "string",
          "name": "",
          "type": "string"
        }
      ],
      "stateMutability": "view",
      "type": "function"
    },
    {
      "inputs": [
        {
          "internalType": "uint256",
          "name": "tokenId",
          "type": "uint256"
        }
      ],
      "name": "ownerOf",
      "outputs": [
        {
          "internalType": "address",
          "name": "",
          "type": "address"
        }
      ],
      "stateMutability": "view",
      "type": "function"
    },
    {
      "inputs": [
        {
          "internalType": "address",
          "name": "spender",
          "type": "address"
        },
        {
          "internalType": "uint256",
          "name": "tokenId",
          "type": "uint256"
        },
        {
          "internalType": "uint256",
          "name": "deadline",
          "type": "uint256"
        },
        {
          "internalType": "uint8",
          "name": "v",
          "type": "uint8"
        },
        {
          "internalType": "bytes32",
          "name": "r",
          "type": "bytes32"
        },
        {
          "internalType": "bytes32",
          "name": "s",
          "type": "bytes32"
        }
      ],
      "name": "permit",
      "outputs": [],
      "stateMutability": "payable",
      "type": "function"
    },
    {
      "inputs": [
        {
          "internalType": "uint256",
          "name": "tokenId",
          "type": "uint256"
        }
      ],
      "name": "positions",
      "outputs": [
        {
          "internalType": "uint96",
          "name": "nonce",
          "type": "uint96"
        },
        {
          "internalType": "address",
          "name": "operator",
          "type": "address"
        },
        {
          "internalType": "address",
          "name": "token0",
          "type": "address"
        },
        {
          "internalType": "address",
          "name": "token1",
          "type": "address"
        },
        {
          "internalType": "uint24",
          "name": "fee",
          "type": "uint24"
        },
        {
          "internalType": "int24",
          "name": "tickLower",
          "type": "int24"
        },
        {
          "internalType": "int24",
          "name": "tickUpper",
          "type": "int24"
        },
        {
          "internalType": "uint128",
          "name": "liquidity",
          "type": "uint128"
        },
        {
          "internalType": "uint256",
          "name": "feeGrowthInside0LastX128",
          "type": "uint256"
        },
        {
          "internalType": "uint256",
          "name": "feeGrowthInside1LastX128",
          "type": "uint256"
        },
        {
          "internalType": "uint128",
          "name": "tokensOwed0",
          "type": "uint128"
        },
        {
          "internalType": "uint128",
          "name": "tokensOwed1",
          "type": "uint128"
        }
      ],
      "stateMutability": "view",
      "type": "function"
    },
    {
      "inputs": [],
      "name": "refundETH",
      "outputs": [],
      "stateMutability": "payable",
      "type": "function"
    },
    {
      "inputs": [
        {
          "internalType": "address",
          "name": "from",
          "type": "address"
        },
        {
          "internalType": "address",
          "name": "to",
          "type": "address"
        },
        {
          "internalType": "uint256",
          "name": "tokenId",
          "type": "uint256"
        }
      ],
      "name": "safeTransferFrom",
      "outputs": [],
      "stateMutability": "nonpayable",
      "type": "function"
    },
    {
      "inputs": [
        {
          "internalType": "address",
          "name": "from",
          "type": "address"
        },
        {
          "internalType": "address",
          "name": "to",
          "type": "address"
        },
        {
          "internalType": "uint256",
          "name": "tokenId",
          "type": "uint256"
        },
        {
          "internalType": "bytes",
          "name": "_data",
          "type": "bytes"
        }
      ],
      "name": "safeTransferFrom",
      "outputs": [],
      "stateMutability": "nonpayable",
      "type": "function"
    },
    {
      "inputs": [
        {
          "internalType": "address",
          "name": "token",
          "type": "address"
        },
        {
          "internalType": "uint256",
          "name": "value",
          "type": "uint256"
        },
        {
          "internalType": "uint256",
          "name": "deadline",
          "type": "uint256"
        },
        {
          "internalType": "uint8",
          "name": "v",
          "type": "uint8"
        },
        {
          "internalType": "bytes32",
          "name": "r",
          "type": "bytes32"
        },
        {
          "internalType": "bytes32",
          "name": "s",
          "type": "bytes32"
        }
      ],
      "name": "selfPermit",
      "outputs": [],
      "stateMutability": "payable",
      "type": "function"
    },
    {
      "inputs": [
        {
          "internalType": "address",
          "name": "token",
          "type": "address"
        },
        {
          "internalType": "uint256",
          "name": "nonce",
          "type": "uint256"
        },
        {
          "internalType": "uint256",
          "name": "expiry",
          "type": "uint256"
        },
        {
          "internalType": "uint8",
          "name": "v",
          "type": "uint8"
        },
        {
          "internalType": "bytes32",
          "name": "r",
          "type": "bytes32"
        },
        {
          "internalType": "bytes32",
          "name": "s",
          "type": "bytes32"
        }
      ],
      "name": "selfPermitAllowed",
      "outputs": [],
      "stateMutability": "payable",
      "type": "function"
    },
    {
      "inputs": [
        {
          "internalType": "address",
          "name": "token",
          "type": "address"
        },
        {
          "internalType": "uint256",
          "name": "nonce",
          "type": "uint256"
        },
        {
          "internalType": "uint256",
          "name": "expiry",
          "type": "uint256"
        },
        {
          "internalType": "uint8",
          "name": "v",
          "type": "uint8"
        },
        {
          "internalType": "bytes32",
          "name": "r",
          "type": "bytes32"
        },
        {
          "internalType": "bytes32",
          "name": "s",
          "type": "bytes32"
        }
      ],
      "name": "selfPermitAllowedIfNecessary",
      "outputs": [],
      "stateMutability": "payable",
      "type": "function"
    },
    {
      "inputs": [
        {
          "internalType": "address",
          "name": "token",
          "type": "address"
        },
        {
          "internalType": "uint256",
          "name": "value",
          "type": "uint256"
        },
        {
          "internalType": "uint256",
          "name": "deadline",
          "type": "uint256"
        },
        {
          "internalType": "uint8",
          "name": "v",
          "type": "uint8"
        },
        {
          "internalType": "bytes32",
          "name": "r",
          "type": "bytes32"
        },
        {
          "internalType": "bytes32",
          "name": "s",
          "type": "bytes32"
        }
      ],
      "name": "selfPermitIfNecessary",
      "outputs": [],
      "stateMutability": "payable",
      "type": "function"
    },
    {
      "inputs": [
        {
          "internalType": "address",
          "name": "operator",
          "type": "address"
        },
        {
          "internalType": "bool",
          "name": "approved",
          "type": "bool"
        }
      ],
      "name": "setApprovalForAll",
      "outputs": [],
      "stateMutability": "nonpayable",
      "type": "function"
    },
    {
      "inputs": [
        {
          "internalType": "bytes4",
          "name": "interfaceId",
          "type": "bytes4"
        }
      ],
      "name": "supportsInterface",
      "outputs": [
        {
          "internalType": "bool",
          "name": "",
          "type": "bool"
        }
      ],
      "stateMutability": "view",
      "type": "function"
    },
    {
      "inputs": [
        {
          "internalType": "address",
          "name": "token",
          "type": "address"
        },
        {
          "internalType": "uint256",
          "name": "amountMinimum",
          "type": "uint256"
        },
        {
          "internalType": "address",
          "name": "recipient",
          "type": "address"
        }
      ],
      "name": "sweepToken",
      "outputs": [],
      "stateMutability": "payable",
      "type": "function"
    },
    {
      "inputs": [],
      "name": "symbol",
      "outputs": [
        {
          "internalType": "string",
          "name": "",
          "type": "string"
        }
      ],
      "stateMutability": "view",
      "type": "function"
    },
    {
      "inputs": [
        {
          "internalType": "uint256",
          "name": "index",
          "type": "uint256"
        }
      ],
      "name": "tokenByIndex",
      "outputs": [
        {
          "internalType": "uint256",
          "name": "",
          "type": "uint256"
        }
      ],
      "stateMutability": "view",
      "type": "function"
    },
    {
      "inputs": [
        {
          "internalType": "address",
          "name": "owner",
          "type": "address"
        },
        {
          "internalType": "uint256",
          "name": "index",
          "type": "uint256"
        }
      ],
      "name": "tokenOfOwnerByIndex",
      "outputs": [
        {
          "internalType": "uint256",
          "name": "",
          "type": "uint256"
        }
      ],
      "stateMutability": "view",
      "type": "function"
    },
    {
      "inputs": [
        {
          "internalType": "uint256",
          "name": "tokenId",
          "type": "uint256"
        }
      ],
      "name": "tokenURI",
      "outputs": [
        {
          "internalType": "string",
          "name": "",
          "type": "string"
        }
      ],
      "stateMutability": "view",
      "type": "function"
    },
    {
      "inputs": [],
      "name": "totalSupply",
      "outputs": [
        {
          "internalType": "uint256",
          "name": "",
          "type": "uint256"
        }
      ],
      "stateMutability": "view",
      "type": "function"
    },
    {
      "inputs": [
        {
          "internalType": "address",
          "name": "from",
          "type": "address"
        },
        {
          "internalType": "address",
          "name": "to",
          "type": "address"
        },
        {
          "internalType": "uint256",
          "name": "tokenId",
          "type": "uint256"
        }
      ],
      "name": "transferFrom",
      "outputs": [],
      "stateMutability": "nonpayable",
      "type": "function"
    },
    {
      "inputs": [
        {
          "internalType": "uint256",
          "name": "amount0Owed",
          "type": "uint256"
        },
        {
          "internalType": "uint256",
          "name": "amount1Owed",
          "type": "uint256"
        },
        {
          "internalType": "bytes",
          "name": "data",
          "type": "bytes"
        }
      ],
      "name": "uniswapV3MintCallback",
      "outputs": [],
      "stateMutability": "nonpayable",
      "type": "function"
    },
    {
      "inputs": [
        {
          "internalType": "uint256",
          "name": "amountMinimum",
          "type": "uint256"
        },
        {
          "internalType": "address",
          "name": "recipient",
          "type": "address"
        }
      ],
      "name": "unwrapWETH9",
      "outputs": [],
      "stateMutability": "payable",
      "type": "function"
    },
    {
      "stateMutability": "payable",
      "type": "receive"
    }
  ],
  "bytecode": "0x610120604052600d80546001600160b01b0319166001176001600160b01b0316600160b01b1790553480156200003457600080fd5b5060405162006053380380620060538339810160408190526200005791620002db565b82826040518060400160405280601b81526020017f556e697377617020563320506f736974696f6e73204e46542d563100000000008152506040518060400160405280600a815260200169554e492d56332d504f5360b01b815250604051806040016040528060018152602001603160f81b8152508282620000e66301ffc9a760e01b6200018d60201b60201c565b8151620000fb90600690602085019062000212565b5080516200011190600790602084019062000212565b50620001246380ac58cd60e01b6200018d565b62000136635b5e139f60e01b6200018d565b6200014863780e9d6360e01b6200018d565b50508251602093840120608052805192019190912060a052506001600160601b0319606092831b811660c05290821b811660e05291901b166101005250620003249050565b6001600160e01b03198082161415620001ed576040805162461bcd60e51b815260206004820152601c60248201527f4552433136353a20696e76616c696420696e7465726661636520696400000000604482015290519081900360640190fd5b6001600160e01b0319166000908152602081905260409020805460ff19166001179055565b828054600181600116156101000203166002900490600052602060002090601f0160209004810192826200024a576000855562000295565b82601f106200026557805160ff191683800117855562000295565b8280016001018555821562000295579182015b828111156200029557825182559160200191906001019062000278565b50620002a3929150620002a7565b5090565b5b80821115620002a35760008155600101620002a8565b80516001600160a01b0381168114620002d657600080fd5b919050565b600080600060608486031215620002f0578283fd5b620002fb84620002be565b92506200030b60208501620002be565b91506200031b60408501620002be565b90509250925092565b60805160a05160c05160601c60e05160601c6101005160601c615caa620003a96000398061297a52508061029952806116db52806117d152806118595280613ca85280613cee5280613d62525080610a865280610daf5280610e7652806129145280612a1a5280612d3b52806135415250806114c25250806114a15250615caa6000f3fe6080604052600436106102895760003560e01c80636352211e11610153578063ac9650d8116100cb578063d34879971161007f578063e985e9c511610064578063e985e9c5146106f5578063f3995c6714610715578063fc6f7865146107285761030d565b8063d3487997146106c2578063df2ab5bb146106e25761030d565b8063c2e3140a116100b0578063c2e3140a1461067a578063c45a01551461068d578063c87b56dd146106a25761030d565b8063ac9650d81461063a578063b88d4fde1461065a5761030d565b8063883164561161012257806399fbab881161010757806399fbab88146105cf578063a22cb46514610607578063a4a78f0c146106275761030d565b8063883164561461059757806395d89b41146105ba5761030d565b80636352211e1461052f5780636c0360eb1461054f57806370a08231146105645780637ac2ff7b146105845761030d565b806323b872dd1161020157806342966c68116101b557806349404b7c1161019a57806349404b7c146104e75780634aa4a4fc146104fa5780634f6ccce71461050f5761030d565b806342966c68146104c15780634659a494146104d45761030d565b806330adf81f116101e657806330adf81f146104775780633644e5151461048c57806342842e0e146104a15761030d565b806323b872dd146104375780632f745c59146104575761030d565b80630c49ccbe1161025857806313ead5621161023d57806313ead562146103e057806318160ddd146103f3578063219f5d17146104155761030d565b80630c49ccbe146103b757806312210e8a146103d85761030d565b806301ffc9a71461031257806306fdde0314610348578063081812fc1461036a578063095ea7b3146103975761030d565b3661030d57336001600160a01b037f0000000000000000000000000000000000000000000000000000000000000000161461030b576040805162461bcd60e51b815260206004820152600960248201527f4e6f742057455448390000000000000000000000000000000000000000000000604482015290519081900360640190fd5b005b600080fd5b34801561031e57600080fd5b5061033261032d366004615141565b61073b565b60405161033f9190615683565b60405180910390f35b34801561035457600080fd5b5061035d61075e565b60405161033f91906156d6565b34801561037657600080fd5b5061038a61038536600461543b565b6107f4565b60405161033f9190615565565b3480156103a357600080fd5b5061030b6103b236600461500b565b610847565b6103ca6103c5366004615206565b61091d565b60405161033f9291906158a7565b61030b610d7b565b61038a6103ee366004614e9e565b610d8d565b3480156103ff57600080fd5b5061040861109a565b60405161033f919061568e565b610428610423366004615217565b6110ab565b60405161033f93929190615862565b34801561044357600080fd5b5061030b610452366004614ef7565b6113d6565b34801561046357600080fd5b5061040861047236600461500b565b61142d565b34801561048357600080fd5b50610408611458565b34801561049857600080fd5b5061040861147c565b3480156104ad57600080fd5b5061030b6104bc366004614ef7565b61153a565b61030b6104cf36600461543b565b611555565b61030b6104e2366004615077565b611624565b61030b6104f5366004615453565b6116d7565b34801561050657600080fd5b5061038a611857565b34801561051b57600080fd5b5061040861052a36600461543b565b61187b565b34801561053b57600080fd5b5061038a61054a36600461543b565b611891565b34801561055b57600080fd5b5061035d6118b9565b34801561057057600080fd5b5061040861057f366004614e4a565b6118be565b61030b610592366004615077565b611926565b6105aa6105a53660046152d3565b611d66565b60405161033f9493929190615883565b3480156105c657600080fd5b5061035d6122c7565b3480156105db57600080fd5b506105ef6105ea36600461543b565b612328565b60405161033f9c9b9a999897969594939291906158b5565b34801561061357600080fd5b5061030b610622366004614fde565b612547565b61030b610635366004615077565b61264c565b61064d6106483660046150d2565b6126e5565b60405161033f9190615623565b34801561066657600080fd5b5061030b610675366004614f37565b612825565b61030b610688366004615077565b612883565b34801561069957600080fd5b5061038a612912565b3480156106ae57600080fd5b5061035d6106bd36600461543b565b612936565b3480156106ce57600080fd5b5061030b6106dd36600461549a565b612a05565b61030b6106f0366004615036565b612a83565b34801561070157600080fd5b50610332610710366004614e66565b612b66565b61030b610723366004615077565b612b94565b6103ca6107363660046151ef565b612c1f565b6001600160e01b0319811660009081526020819052604090205460ff165b919050565b60068054604080516020601f60026000196101006001881615020190951694909404938401819004810282018101909252828152606093909290918301828280156107ea5780601f106107bf576101008083540402835291602001916107ea565b820191906000526020600020905b8154815290600101906020018083116107cd57829003601f168201915b5050505050905090565b60006107ff82613128565b6108245760405162461bcd60e51b815260040161081b90615720565b60405180910390fd5b506000908152600c6020526040902054600160601b90046001600160a01b031690565b600061085282611891565b9050806001600160a01b0316836001600160a01b031614156108a55760405162461bcd60e51b8152600401808060200182810382526021815260200180615c296021913960400191505060405180910390fd5b806001600160a01b03166108b7613135565b6001600160a01b031614806108d357506108d381610710613135565b61090e5760405162461bcd60e51b8152600401808060200182810382526038815260200180615b536038913960400191505060405180910390fd5b6109188383613139565b505050565b600080823561092c33826131b4565b6109485760405162461bcd60e51b815260040161081b906156e9565b836080013580610956613250565b11156109a9576040805162461bcd60e51b815260206004820152601360248201527f5472616e73616374696f6e20746f6f206f6c6400000000000000000000000000604482015290519081900360640190fd5b60006109bb60408701602088016152e5565b6001600160801b0316116109ce57600080fd5b84356000908152600c602090815260409182902060018101549092600160801b9091046001600160801b031691610a099189019089016152e5565b6001600160801b0316816001600160801b03161015610a2757600080fd5b60018281015469ffffffffffffffffffff166000908152600b60209081526040808320815160608101835281546001600160a01b039081168252919095015490811692850192909252600160a01b90910462ffffff1690830152610aab7f000000000000000000000000000000000000000000000000000000000000000083613254565b60018501549091506001600160a01b0382169063a34123a790600160501b8104600290810b91600160681b9004900b610aea60408e0160208f016152e5565b6040518463ffffffff1660e01b8152600401610b08939291906156b0565b6040805180830381600087803b158015610b2157600080fd5b505af1158015610b35573d6000803e3d6000fd5b505050506040513d601f19601f82011682018060405250810190610b599190615477565b909850965060408901358810801590610b76575088606001358710155b610b925760405162461bcd60e51b815260040161081b9061577d565b6001840154600090610bbb903090600160501b8104600290810b91600160681b9004900b613350565b9050600080836001600160a01b031663514ea4bf846040518263ffffffff1660e01b8152600401610bec919061568e565b60a06040518083038186803b158015610c0457600080fd5b505afa158015610c18573d6000803e3d6000fd5b505050506040513d601f19601f82011682018060405250810190610c3c919061532f565b50509250925050610c6187600201548303876001600160801b0316600160801b6133aa565b6004880180546fffffffffffffffffffffffffffffffff198116928e016001600160801b039182160181169290921790556003880154610cab91908303908816600160801b6133aa565b6004880180546001600160801b03808216938e01600160801b9283900482160116029190911790556002870182905560038701819055610cf160408d0160208e016152e5565b86038760010160106101000a8154816001600160801b0302191690836001600160801b031602179055508b600001357f26f6a048ee9138f2c0ce266f322cb99228e8d619ae2bff30c67f8dcf9d2377b48d6020016020810190610d5491906152e5565b8d8d604051610d6593929190615862565b60405180910390a2505050505050505050915091565b4715610d8b57610d8b3347613459565b565b6000836001600160a01b0316856001600160a01b031610610dad57600080fd5b7f00000000000000000000000000000000000000000000000000000000000000006001600160a01b0316631698ee828686866040518463ffffffff1660e01b815260040180846001600160a01b03168152602001836001600160a01b031681526020018262ffffff168152602001935050505060206040518083038186803b158015610e3857600080fd5b505afa158015610e4c573d6000803e3d6000fd5b505050506040513d6020811015610e6257600080fd5b505190506001600160a01b038116610fb1577f00000000000000000000000000000000000000000000000000000000000000006001600160a01b031663a16712958686866040518463ffffffff1660e01b815260040180846001600160a01b03168152602001836001600160a01b031681526020018262ffffff1681526020019350505050602060405180830381600087803b158015610f0157600080fd5b505af1158015610f15573d6000803e3d6000fd5b505050506040513d6020811015610f2b57600080fd5b5051604080517ff637731d0000000000000000000000000000000000000000000000000000000081526001600160a01b03858116600483015291519293509083169163f637731d9160248082019260009290919082900301818387803b158015610f9457600080fd5b505af1158015610fa8573d6000803e3d6000fd5b50505050611092565b6000816001600160a01b0316633850c7bd6040518163ffffffff1660e01b815260040160e06040518083038186803b158015610fec57600080fd5b505afa158015611000573d6000803e3d6000fd5b505050506040513d60e081101561101657600080fd5b505190506001600160a01b03811661109057816001600160a01b031663f637731d846040518263ffffffff1660e01b815260040180826001600160a01b03168152602001915050600060405180830381600087803b15801561107757600080fd5b505af115801561108b573d6000803e3d6000fd5b505050505b505b949350505050565b60006110a660026134e9565b905090565b60008060008360a00135806110be613250565b1115611111576040805162461bcd60e51b815260206004820152601360248201527f5472616e73616374696f6e20746f6f206f6c6400000000000000000000000000604482015290519081900360640190fd5b84356000908152600c6020908152604080832060018082015469ffffffffffffffffffff81168652600b855283862084516060808201875282546001600160a01b039081168352929094015480831682890190815262ffffff600160a01b9092048216838901908152885161014081018a528451861681529151909416818a0152925116828701523082850152600160501b8304600290810b810b608080850191909152600160681b909404810b900b60a0830152958c013560c0820152938b013560e0850152908a013561010084015289013561012083015292906111f6906134f4565b6001870154939a5091985096509150600090611229903090600160501b8104600290810b91600160681b9004900b613350565b9050600080836001600160a01b031663514ea4bf846040518263ffffffff1660e01b815260040161125a919061568e565b60a06040518083038186803b15801561127257600080fd5b505afa158015611286573d6000803e3d6000fd5b505050506040513d601f19601f820116820180604052508101906112aa919061532f565b505092509250506112e6866002015483038760010160109054906101000a90046001600160801b03166001600160801b0316600160801b6133aa565b6004870180546001600160801b0380821690930183166fffffffffffffffffffffffffffffffff19909116179055600387015460018801546113369291840391600160801b9182900416906133aa565b6004870180546001600160801b03600160801b80830482169094018116840291811691909117909155600288018490556003880183905560018801805483810483168e018316909302929091169190911790556040518b35907f3067048beee31b25b2f1681f88dac838c8bba36af25bfb2b7cf7473a5847e35f906113c0908d908d908d90615862565b60405180910390a2505050505050509193909250565b6113e76113e1613135565b826131b4565b6114225760405162461bcd60e51b8152600401808060200182810382526031815260200180615c4a6031913960400191505060405180910390fd5b61091883838361372f565b6001600160a01b038216600090815260016020526040812061144f908361387b565b90505b92915050565b7f49ecf333e5b8c95c40fdafc95c1ad136e8914a8fb55e9dc8bb01eaa83a2df9ad81565b60007f8b73c3c69bb8fe3d512ecc4cf759cc79239f7b179b0ffacaa9a75d522b39400f7f00000000000000000000000000000000000000000000000000000000000000007f00000000000000000000000000000000000000000000000000000000000000006114e9613887565b3060405160200180868152602001858152602001848152602001838152602001826001600160a01b031681526020019550505050505060405160208183030381529060405280519060200120905090565b61091883838360405180602001604052806000815250612825565b8061156033826131b4565b61157c5760405162461bcd60e51b815260040161081b906156e9565b6000828152600c602052604090206001810154600160801b90046001600160801b03161580156115b7575060048101546001600160801b0316155b80156115d557506004810154600160801b90046001600160801b0316155b6115f15760405162461bcd60e51b815260040161081b906157eb565b6000838152600c60205260408120818155600181018290556002810182905560038101829055600401556109188361388b565b604080517f8fcbaf0c00000000000000000000000000000000000000000000000000000000815233600482015230602482015260448101879052606481018690526001608482015260ff851660a482015260c4810184905260e4810183905290516001600160a01b03881691638fcbaf0c9161010480830192600092919082900301818387803b1580156116b757600080fd5b505af11580156116cb573d6000803e3d6000fd5b50505050505050505050565b60007f00000000000000000000000000000000000000000000000000000000000000006001600160a01b03166370a08231306040518263ffffffff1660e01b815260040180826001600160a01b0316815260200191505060206040518083038186803b15801561174657600080fd5b505afa15801561175a573d6000803e3d6000fd5b505050506040513d602081101561177057600080fd5b50519050828110156117c9576040805162461bcd60e51b815260206004820152601260248201527f496e73756666696369656e742057455448390000000000000000000000000000604482015290519081900360640190fd5b8015610918577f00000000000000000000000000000000000000000000000000000000000000006001600160a01b0316632e1a7d4d826040518263ffffffff1660e01b815260040180828152602001915050600060405180830381600087803b15801561183557600080fd5b505af1158015611849573d6000803e3d6000fd5b505050506109188282613459565b7f000000000000000000000000000000000000000000000000000000000000000081565b600080611889600284613958565b509392505050565b600061145282604051806060016040528060298152602001615bb56029913960029190613976565b606090565b60006001600160a01b0382166119055760405162461bcd60e51b815260040180806020018281038252602a815260200180615b8b602a913960400191505060405180910390fd5b6001600160a01b0382166000908152600160205260409020611452906134e9565b8361192f613250565b1115611982576040805162461bcd60e51b815260206004820152600e60248201527f5065726d69742065787069726564000000000000000000000000000000000000604482015290519081900360640190fd5b600061198c61147c565b7f49ecf333e5b8c95c40fdafc95c1ad136e8914a8fb55e9dc8bb01eaa83a2df9ad88886119b881613983565b604080516020808201969096526001600160a01b03909416848201526060840192909252608083015260a08083018a90528151808403909101815260c0830182528051908401207f190100000000000000000000000000000000000000000000000000000000000060e084015260e283019490945261010280830194909452805180830390940184526101229091019052815191012090506000611a5b87611891565b9050806001600160a01b0316886001600160a01b03161415611aae5760405162461bcd60e51b8152600401808060200182810382526027815260200180615ab66027913960400191505060405180910390fd5b611ab7816139c2565b15611c37576040805160208082018790528183018690527fff0000000000000000000000000000000000000000000000000000000000000060f889901b1660608301528251604181840301815260618301808552630b135d3f60e11b90526065830186815260858401948552815160a585015281516001600160a01b03871695631626ba7e958995919260c59091019185019080838360005b83811015611b68578181015183820152602001611b50565b50505050905090810190601f168015611b955780820380516001836020036101000a031916815260200191505b50935050505060206040518083038186803b158015611bb357600080fd5b505afa158015611bc7573d6000803e3d6000fd5b505050506040513d6020811015611bdd57600080fd5b50516001600160e01b031916630b135d3f60e11b14611c32576040805162461bcd60e51b815260206004820152600c60248201526b155b985d5d1a1bdc9a5e995960a21b604482015290519081900360640190fd5b611d52565b600060018387878760405160008152602001604052604051808581526020018460ff1681526020018381526020018281526020019450505050506020604051602081039080840390855afa158015611c93573d6000803e3d6000fd5b5050604051601f1901519150506001600160a01b038116611cfb576040805162461bcd60e51b815260206004820152601160248201527f496e76616c6964207369676e6174757265000000000000000000000000000000604482015290519081900360640190fd5b816001600160a01b0316816001600160a01b031614611d50576040805162461bcd60e51b815260206004820152600c60248201526b155b985d5d1a1bdc9a5e995960a21b604482015290519081900360640190fd5b505b611d5c8888613139565b5050505050505050565b60008060008084610140013580611d7b613250565b1115611dce576040805162461bcd60e51b815260206004820152601360248201527f5472616e73616374696f6e20746f6f206f6c6400000000000000000000000000604482015290519081900360640190fd5b604080516101408101909152600090611e9a9080611def60208b018b614e4a565b6001600160a01b03168152602001896020016020810190611e109190614e4a565b6001600160a01b03168152602001611e2e60608b0160408c01615421565b62ffffff168152306020820152604001611e4e60808b0160608c01615169565b60020b8152602001611e6660a08b0160808c01615169565b60020b81526020018960a0013581526020018960c0013581526020018960e0013581526020018961010001358152506134f4565b92975090955093509050611f0e611eb961014089016101208a01614e4a565b600d80547fffffffffffffffffffff000000000000000000000000000000000000000000008116600175ffffffffffffffffffffffffffffffffffffffffffff928316908101909216179091559750876139c8565b6000611f3930611f2460808b0160608c01615169565b611f3460a08c0160808d01615169565b613350565b9050600080836001600160a01b031663514ea4bf846040518263ffffffff1660e01b8152600401611f6a919061568e565b60a06040518083038186803b158015611f8257600080fd5b505afa158015611f96573d6000803e3d6000fd5b505050506040513d601f19601f82011682018060405250810190611fba919061532f565b5050925092505060006120338560405180606001604052808e6000016020810190611fe59190614e4a565b6001600160a01b031681526020018e60200160208101906120069190614e4a565b6001600160a01b031681526020018e60400160208101906120279190615421565b62ffffff169052613af6565b905060405180610140016040528060006bffffffffffffffffffffffff16815260200160006001600160a01b031681526020018269ffffffffffffffffffff1681526020018c606001602081019061208b9190615169565b60020b81526020016120a360a08e0160808f01615169565b60020b81526020018a6001600160801b0316815260200184815260200183815260200160006001600160801b0316815260200160006001600160801b0316815250600c60008c815260200190815260200160002060008201518160000160006101000a8154816bffffffffffffffffffffffff02191690836bffffffffffffffffffffffff160217905550602082015181600001600c6101000a8154816001600160a01b0302191690836001600160a01b0316021790555060408201518160010160006101000a81548169ffffffffffffffffffff021916908369ffffffffffffffffffff160217905550606082015181600101600a6101000a81548162ffffff021916908360020b62ffffff160217905550608082015181600101600d6101000a81548162ffffff021916908360020b62ffffff16021790555060a08201518160010160106101000a8154816001600160801b0302191690836001600160801b0316021790555060c0820151816002015560e082015181600301556101008201518160040160006101000a8154816001600160801b0302191690836001600160801b031602179055506101208201518160040160106101000a8154816001600160801b0302191690836001600160801b03160217905550905050897f3067048beee31b25b2f1681f88dac838c8bba36af25bfb2b7cf7473a5847e35f8a8a8a6040516122b293929190615862565b60405180910390a25050505050509193509193565b60078054604080516020601f60026000196101006001881615020190951694909404938401819004810282018101909252828152606093909290918301828280156107ea5780601f106107bf576101008083540402835291602001916107ea565b6000818152600c6020908152604080832081516101408101835281546bffffffffffffffffffffffff811682526001600160a01b03600160601b9091041693810193909352600181015469ffffffffffffffffffff8116928401839052600160501b8104600290810b810b810b6060860152600160681b8204810b810b810b60808601526001600160801b03600160801b92839004811660a08701529083015460c0860152600383015460e0860152600490920154808316610100860152041661012083015282918291829182918291829182918291829182918291906124215760405162461bcd60e51b815260040161081b906157b4565b6000600b6000836040015169ffffffffffffffffffff1669ffffffffffffffffffff1681526020019081526020016000206040518060600160405290816000820160009054906101000a90046001600160a01b03166001600160a01b03166001600160a01b031681526020016001820160009054906101000a90046001600160a01b03166001600160a01b03166001600160a01b031681526020016001820160149054906101000a900462ffffff1662ffffff1662ffffff1681525050905081600001518260200151826000015183602001518460400151866060015187608001518860a001518960c001518a60e001518b61010001518c61012001519d509d509d509d509d509d509d509d509d509d509d509d50505091939597999b5091939597999b565b61254f613135565b6001600160a01b0316826001600160a01b031614156125b5576040805162461bcd60e51b815260206004820152601960248201527f4552433732313a20617070726f766520746f2063616c6c657200000000000000604482015290519081900360640190fd5b80600560006125c2613135565b6001600160a01b03908116825260208083019390935260409182016000908120918716808252919093529120805460ff191692151592909217909155612606613135565b6001600160a01b03167f17307eab39ab6107e8899845ad3d59bd9653f200f220920489ca2b5937696c318360405180821515815260200191505060405180910390a35050565b60408051636eb1769f60e11b81523360048201523060248201529051600019916001600160a01b0389169163dd62ed3e91604480820192602092909190829003018186803b15801561269d57600080fd5b505afa1580156126b1573d6000803e3d6000fd5b505050506040513d60208110156126c757600080fd5b505110156126dd576126dd868686868686611624565b505050505050565b60608167ffffffffffffffff811180156126fe57600080fd5b5060405190808252806020026020018201604052801561273257816020015b606081526020019060019003908161271d5790505b50905060005b8281101561281e576000803086868581811061275057fe5b90506020028101906127629190615954565b604051612770929190615555565b600060405180830381855af49150503d80600081146127ab576040519150601f19603f3d011682016040523d82523d6000602084013e6127b0565b606091505b5091509150816127fc576044815110156127c957600080fd5b600481019050808060200190518101906127e39190615185565b60405162461bcd60e51b815260040161081b91906156d6565b8084848151811061280957fe5b60209081029190910101525050600101612738565b5092915050565b612836612830613135565b836131b4565b6128715760405162461bcd60e51b8152600401808060200182810382526031815260200180615c4a6031913960400191505060405180910390fd5b61287d84848484613c31565b50505050565b60408051636eb1769f60e11b8152336004820152306024820152905186916001600160a01b0389169163dd62ed3e91604480820192602092909190829003018186803b1580156128d257600080fd5b505afa1580156128e6573d6000803e3d6000fd5b505050506040513d60208110156128fc57600080fd5b505110156126dd576126dd868686868686612b94565b7f000000000000000000000000000000000000000000000000000000000000000081565b606061294182613128565b61294a57600080fd5b6040517fe9dc63750000000000000000000000000000000000000000000000000000000081526001600160a01b037f0000000000000000000000000000000000000000000000000000000000000000169063e9dc6375906129b19030908690600401615697565b60006040518083038186803b1580156129c957600080fd5b505afa1580156129dd573d6000803e3d6000fd5b505050506040513d6000823e601f3d908101601f191682016040526114529190810190615185565b6000612a1382840184615228565b9050612a437f00000000000000000000000000000000000000000000000000000000000000008260000151613c83565b508415612a5e578051516020820151612a5e91903388613ca6565b8315612a7c57612a7c81600001516020015182602001513387613ca6565b5050505050565b6000836001600160a01b03166370a08231306040518263ffffffff1660e01b815260040180826001600160a01b0316815260200191505060206040518083038186803b158015612ad257600080fd5b505afa158015612ae6573d6000803e3d6000fd5b505050506040513d6020811015612afc57600080fd5b5051905082811015612b55576040805162461bcd60e51b815260206004820152601260248201527f496e73756666696369656e7420746f6b656e0000000000000000000000000000604482015290519081900360640190fd5b801561287d5761287d848383613e36565b6001600160a01b03918216600090815260056020908152604080832093909416825291909152205460ff1690565b604080517fd505accf000000000000000000000000000000000000000000000000000000008152336004820152306024820152604481018790526064810186905260ff8516608482015260a4810184905260c4810183905290516001600160a01b0388169163d505accf9160e480830192600092919082900301818387803b1580156116b757600080fd5b6000808235612c2e33826131b4565b612c4a5760405162461bcd60e51b815260040161081b906156e9565b6000612c5c60608601604087016152e5565b6001600160801b03161180612c8957506000612c7e60808601606087016152e5565b6001600160801b0316115b612c9257600080fd5b600080612ca56040870160208801614e4a565b6001600160a01b031614612cc857612cc36040860160208701614e4a565b612cca565b305b85356000908152600c6020908152604080832060018082015469ffffffffffffffffffff168552600b8452828520835160608101855281546001600160a01b039081168252919092015490811694820194909452600160a01b90930462ffffff169183019190915292935090612d607f000000000000000000000000000000000000000000000000000000000000000083613254565b600484015460018501549192506001600160801b0380821692600160801b9283900482169290041615612f6f5760018501546040517fa34123a70000000000000000000000000000000000000000000000000000000081526001600160a01b0385169163a34123a791612df091600160501b8104600290810b92600160681b909204900b906000906004016156b0565b6040805180830381600087803b158015612e0957600080fd5b505af1158015612e1d573d6000803e3d6000fd5b505050506040513d601f19601f82011682018060405250810190612e419190615477565b5050600185015460009081906001600160a01b0386169063514ea4bf90612e7f903090600160501b8104600290810b91600160681b9004900b613350565b6040518263ffffffff1660e01b8152600401612e9b919061568e565b60a06040518083038186803b158015612eb357600080fd5b505afa158015612ec7573d6000803e3d6000fd5b505050506040513d601f19601f82011682018060405250810190612eeb919061532f565b50509250925050612f27876002015483038860010160109054906101000a90046001600160801b03166001600160801b0316600160801b6133aa565b84019350612f60876003015482038860010160109054906101000a90046001600160801b03166001600160801b0316600160801b6133aa565b60028801929092556003870155015b6000806001600160801b038416612f8c60608e0160408f016152e5565b6001600160801b031611612faf57612faa60608d0160408e016152e5565b612fb1565b835b836001600160801b03168d6060016020810190612fce91906152e5565b6001600160801b031611612ff157612fec60808e0160608f016152e5565b612ff3565b835b60018901546040517f4f1eb3d80000000000000000000000000000000000000000000000000000000081529294509092506001600160a01b03871691634f1eb3d89161305f918c91600160501b8104600290810b92600160681b909204900b90889088906004016155bc565b6040805180830381600087803b15801561307857600080fd5b505af115801561308c573d6000803e3d6000fd5b505050506040513d601f19601f820116820180604052508101906130b09190615301565b6004890180546fffffffffffffffffffffffffffffffff196001600160801b03918216600160801b878a0384160217168689038216179091556040519281169d50169a508c35907f40d0efd1a53d60ecbf40971b9daf7dc90178c3aadc7aab1765632738fa8b8f0190610d65908b90869086906155f9565b6000611452600283613fb1565b3390565b6000818152600c6020526040902080546bffffffffffffffffffffffff16600160601b6001600160a01b03851690810291909117909155819061317b82611891565b6001600160a01b03167f8c5be1e5ebec7d5bd14f71427d1e84f3dd0314c0f7b2291e5b200ac8c7c3b92560405160405180910390a45050565b60006131bf82613128565b6131fa5760405162461bcd60e51b815260040180806020018281038252602c815260200180615b27602c913960400191505060405180910390fd5b600061320583611891565b9050806001600160a01b0316846001600160a01b031614806132405750836001600160a01b0316613235846107f4565b6001600160a01b0316145b8061109257506110928185612b66565b4290565b600081602001516001600160a01b031682600001516001600160a01b03161061327c57600080fd5b50805160208083015160409384015184516001600160a01b0394851681850152939091168385015262ffffff166060808401919091528351808403820181526080840185528051908301207fff0000000000000000000000000000000000000000000000000000000000000060a085015294901b6bffffffffffffffffffffffff191660a183015260b58201939093527fe34f199b19b2b4f47f68442619d555527d244f78a3297ea89325f843f87b8b5460d5808301919091528251808303909101815260f5909101909152805191012090565b604080516bffffffffffffffffffffffff19606086901b16602080830191909152600285810b60e890811b60348501529085900b901b60378301528251601a818403018152603a90920190925280519101205b9392505050565b60008080600019858709868602925082811090839003039050806133e057600084116133d557600080fd5b5082900490506133a3565b8084116133ec57600080fd5b6000848688096000868103871696879004966002600389028118808a02820302808a02820302808a02820302808a02820302808a02820302808a02909103029181900381900460010186841190950394909402919094039290920491909117919091029150509392505050565b6040516000906001600160a01b0384169083908381818185875af1925050503d80600081146134a4576040519150601f19603f3d011682016040523d82523d6000602084013e6134a9565b606091505b50509050806109185760405162461bcd60e51b8152600401808060200182810382526023815260200180615c7b6023913960400191505060405180910390fd5b600061145282613fbd565b6000806000806000604051806060016040528087600001516001600160a01b0316815260200187602001516001600160a01b03168152602001876040015162ffffff1681525090506135667f000000000000000000000000000000000000000000000000000000000000000082613254565b91506000826001600160a01b0316633850c7bd6040518163ffffffff1660e01b815260040160e06040518083038186803b1580156135a357600080fd5b505afa1580156135b7573d6000803e3d6000fd5b505050506040513d601f19601f820116820180604052508101906135db9190615390565b505050505050905060006135f28860800151613fc1565b905060006136038960a00151613fc1565b905061361a8383838c60c001518d60e0015161430f565b9750505050816001600160a01b0316633c8a7d8d876060015188608001518960a00151896040518060400160405280888152602001336001600160a01b031681525060405160200161366c9190615822565b6040516020818303038152906040526040518663ffffffff1660e01b815260040161369b959493929190615579565b6040805180830381600087803b1580156136b457600080fd5b505af11580156136c8573d6000803e3d6000fd5b505050506040513d601f19601f820116820180604052508101906136ec9190615477565b6101008801519195509350841080159061370b57508561012001518310155b6137275760405162461bcd60e51b815260040161081b9061577d565b509193509193565b826001600160a01b031661374282611891565b6001600160a01b0316146137875760405162461bcd60e51b8152600401808060200182810382526029815260200180615c006029913960400191505060405180910390fd5b6001600160a01b0382166137cc5760405162461bcd60e51b8152600401808060200182810382526024815260200180615add6024913960400191505060405180910390fd5b6137d7838383610918565b6137e2600082613139565b6001600160a01b038316600090815260016020526040902061380490826143d3565b506001600160a01b038216600090815260016020526040902061382790826143df565b50613834600282846143eb565b5080826001600160a01b0316846001600160a01b03167fddf252ad1be2c89b69c2b068fc378daa952ba7f163c4a11628f55a4df523b3ef60405160405180910390a4505050565b600061144f8383614401565b4690565b600061389682611891565b90506138a481600084610918565b6138af600083613139565b60008281526008602052604090205460026000196101006001841615020190911604156138ed5760008281526008602052604081206138ed91614dba565b6001600160a01b038116600090815260016020526040902061390f90836143d3565b5061391b600283614465565b5060405182906000906001600160a01b038416907fddf252ad1be2c89b69c2b068fc378daa952ba7f163c4a11628f55a4df523b3ef908390a45050565b60008080806139678686614471565b909450925050505b9250929050565b60006110928484846144ec565b6000908152600c6020526040902080546bffffffffffffffffffffffff19811660016bffffffffffffffffffffffff9283169081019092161790915590565b3b151590565b6001600160a01b038216613a23576040805162461bcd60e51b815260206004820181905260248201527f4552433732313a206d696e7420746f20746865207a65726f2061646472657373604482015290519081900360640190fd5b613a2c81613128565b15613a7e576040805162461bcd60e51b815260206004820152601c60248201527f4552433732313a20746f6b656e20616c7265616479206d696e74656400000000604482015290519081900360640190fd5b613a8a60008383610918565b6001600160a01b0382166000908152600160205260409020613aac90826143df565b50613ab9600282846143eb565b5060405181906001600160a01b038416906000907fddf252ad1be2c89b69c2b068fc378daa952ba7f163c4a11628f55a4df523b3ef908290a45050565b6001600160a01b0382166000908152600a602052604090205469ffffffffffffffffffff16806114525750600d8054600169ffffffffffffffffffff76010000000000000000000000000000000000000000000080840482168381019092160275ffffffffffffffffffffffffffffffffffffffffffff909316929092179092556001600160a01b038085166000908152600a60209081526040808320805469ffffffffffffffffffff191686179055848352600b825291829020865181549085167fffffffffffffffffffffffff000000000000000000000000000000000000000091821617825591870151950180549287015162ffffff16600160a01b027fffffffffffffffffff000000ffffffffffffffffffffffffffffffffffffffff969094169290911691909117939093161790915592915050565b613c3c84848461372f565b613c48848484846145b6565b61287d5760405162461bcd60e51b8152600401808060200182810382526032815260200180615a846032913960400191505060405180910390fd5b6000613c8f8383613254565b9050336001600160a01b0382161461145257600080fd5b7f00000000000000000000000000000000000000000000000000000000000000006001600160a01b0316846001600160a01b0316148015613ce75750804710155b15613e09577f00000000000000000000000000000000000000000000000000000000000000006001600160a01b031663d0e30db0826040518263ffffffff1660e01b81526004016000604051808303818588803b158015613d4757600080fd5b505af1158015613d5b573d6000803e3d6000fd5b50505050507f00000000000000000000000000000000000000000000000000000000000000006001600160a01b031663a9059cbb83836040518363ffffffff1660e01b815260040180836001600160a01b0316815260200182815260200192505050602060405180830381600087803b158015613dd757600080fd5b505af1158015613deb573d6000803e3d6000fd5b505050506040513d6020811015613e0157600080fd5b5061287d9050565b6001600160a01b038316301415613e2a57613e25848383613e36565b61287d565b61287d8484848461471e565b604080516001600160a01b038481166024830152604480830185905283518084039091018152606490920183526020820180516001600160e01b03167fa9059cbb000000000000000000000000000000000000000000000000000000001781529251825160009485949389169392918291908083835b60208310613ecb5780518252601f199092019160209182019101613eac565b6001836020036101000a0380198251168184511680821785525050505050509050019150506000604051808303816000865af19150503d8060008114613f2d576040519150601f19603f3d011682016040523d82523d6000602084013e613f32565b606091505b5091509150818015613f60575080511580613f605750808060200190516020811015613f5d57600080fd5b50515b612a7c576040805162461bcd60e51b815260206004820152600260248201527f5446000000000000000000000000000000000000000000000000000000000000604482015290519081900360640190fd5b600061144f83836148a1565b5490565b60008060008360020b12613fd8578260020b613fe0565b8260020b6000035b9050620d89e881111561403a576040805162461bcd60e51b815260206004820152600160248201527f5400000000000000000000000000000000000000000000000000000000000000604482015290519081900360640190fd5b60006001821661404e57600160801b614060565b6ffffcb933bd6fad37aa2d162d1a5940015b70ffffffffffffffffffffffffffffffffff1690506002821615614094576ffff97272373d413259a46990580e213a0260801c5b60048216156140b3576ffff2e50f5f656932ef12357cf3c7fdcc0260801c5b60088216156140d2576fffe5caca7e10e4e61c3624eaa0941cd00260801c5b60108216156140f1576fffcb9843d60f6159c9db58835c9266440260801c5b6020821615614110576fff973b41fa98c081472e6896dfb254c00260801c5b604082161561412f576fff2ea16466c96a3843ec78b326b528610260801c5b608082161561414e576ffe5dee046a99a2a811c461f1969c30530260801c5b61010082161561416e576ffcbe86c7900a88aedcffc83b479aa3a40260801c5b61020082161561418e576ff987a7253ac413176f2b074cf7815e540260801c5b6104008216156141ae576ff3392b0822b70005940c7a398e4b70f30260801c5b6108008216156141ce576fe7159475a2c29b7443b29c7fa6e889d90260801c5b6110008216156141ee576fd097f3bdfd2022b8845ad8f792aa58250260801c5b61200082161561420e576fa9f746462d870fdf8a65dc1f90e061e50260801c5b61400082161561422e576f70d869a156d2a1b890bb3df62baf32f70260801c5b61800082161561424e576f31be135f97d08fd981231505542fcfa60260801c5b6201000082161561426f576f09aa508b5b7a84e1c677de54f3e99bc90260801c5b6202000082161561428f576e5d6af8dedb81196699c329225ee6040260801c5b620400008216156142ae576d2216e584f5fa1ea926041bedfe980260801c5b620800008216156142cb576b048a170391f7dc42444e8fa20260801c5b60008460020b13156142e65780600019816142e257fe5b0490505b6401000000008106156142fa5760016142fd565b60005b60ff16602082901c0192505050919050565b6000836001600160a01b0316856001600160a01b0316111561432f579293925b846001600160a01b0316866001600160a01b03161161435a576143538585856148b9565b90506143ca565b836001600160a01b0316866001600160a01b031610156143bc5760006143818786866148b9565b9050600061439087898661491c565b9050806001600160801b0316826001600160801b0316106143b157806143b3565b815b925050506143ca565b6143c785858461491c565b90505b95945050505050565b600061144f8383614959565b600061144f8383614a1f565b600061109284846001600160a01b038516614a69565b815460009082106144435760405162461bcd60e51b8152600401808060200182810382526022815260200180615a626022913960400191505060405180910390fd5b82600001828154811061445257fe5b9060005260206000200154905092915050565b600061144f8383614b00565b8154600090819083106144b55760405162461bcd60e51b8152600401808060200182810382526022815260200180615bde6022913960400191505060405180910390fd5b60008460000184815481106144c657fe5b906000526020600020906002020190508060000154816001015492509250509250929050565b600082815260018401602052604081205482816145875760405162461bcd60e51b81526004018080602001828103825283818151815260200191508051906020019080838360005b8381101561454c578181015183820152602001614534565b50505050905090810190601f1680156145795780820380516001836020036101000a031916815260200191505b509250505060405180910390fd5b5084600001600182038154811061459a57fe5b9060005260206000209060020201600101549150509392505050565b60006145ca846001600160a01b03166139c2565b6145d657506001611092565b60006146e4630a85bd0160e11b6145eb613135565b88878760405160240180856001600160a01b03168152602001846001600160a01b0316815260200183815260200180602001828103825283818151815260200191508051906020019080838360005b8381101561465257818101518382015260200161463a565b50505050905090810190601f16801561467f5780820380516001836020036101000a031916815260200191505b5095505050505050604051602081830303815290604052906001600160e01b0319166020820180516001600160e01b038381831617835250505050604051806060016040528060328152602001615a84603291396001600160a01b0388169190614bd4565b905060008180602001905160208110156146fd57600080fd5b50516001600160e01b031916630a85bd0160e11b1492505050949350505050565b604080516001600160a01b0385811660248301528481166044830152606480830185905283518084039091018152608490920183526020820180516001600160e01b03167f23b872dd00000000000000000000000000000000000000000000000000000000178152925182516000948594938a169392918291908083835b602083106147bb5780518252601f19909201916020918201910161479c565b6001836020036101000a0380198251168184511680821785525050505050509050019150506000604051808303816000865af19150503d806000811461481d576040519150601f19603f3d011682016040523d82523d6000602084013e614822565b606091505b5091509150818015614850575080511580614850575080806020019051602081101561484d57600080fd5b50515b6126dd576040805162461bcd60e51b815260206004820152600360248201527f5446460000000000000000000000000000000000000000000000000000000000604482015290519081900360640190fd5b60009081526001919091016020526040902054151590565b6000826001600160a01b0316846001600160a01b031611156148d9579192915b60006148fc856001600160a01b0316856001600160a01b0316600160601b6133aa565b90506143ca61491784838888036001600160a01b03166133aa565b614be3565b6000826001600160a01b0316846001600160a01b0316111561493c579192915b61109261491783600160601b8787036001600160a01b03166133aa565b60008181526001830160205260408120548015614a15578354600019808301919081019060009087908390811061498c57fe5b90600052602060002001549050808760000184815481106149a957fe5b6000918252602080832090910192909255828152600189810190925260409020908401905586548790806149d957fe5b60019003818190600052602060002001600090559055866001016000878152602001908152602001600020600090556001945050505050611452565b6000915050611452565b6000614a2b83836148a1565b614a6157508154600181810184556000848152602080822090930184905584548482528286019093526040902091909155611452565b506000611452565b600082815260018401602052604081205480614ace5750506040805180820182528381526020808201848152865460018181018955600089815284812095516002909302909501918255915190820155865486845281880190925292909120556133a3565b82856000016001830381548110614ae157fe5b90600052602060002090600202016001018190555060009150506133a3565b60008181526001830160205260408120548015614a155783546000198083019190810190600090879083908110614b3357fe5b9060005260206000209060020201905080876000018481548110614b5357fe5b600091825260208083208454600290930201918255600193840154918401919091558354825289830190526040902090840190558654879080614b9257fe5b60008281526020808220600260001990940193840201828155600190810183905592909355888152898201909252604082209190915594506114529350505050565b60606110928484600085614bf9565b806001600160801b038116811461075957600080fd5b606082471015614c3a5760405162461bcd60e51b8152600401808060200182810382526026815260200180615b016026913960400191505060405180910390fd5b614c43856139c2565b614c94576040805162461bcd60e51b815260206004820152601d60248201527f416464726573733a2063616c6c20746f206e6f6e2d636f6e7472616374000000604482015290519081900360640190fd5b600080866001600160a01b031685876040518082805190602001908083835b60208310614cd25780518252601f199092019160209182019101614cb3565b6001836020036101000a03801982511681845116808217855250505050505090500191505060006040518083038185875af1925050503d8060008114614d34576040519150601f19603f3d011682016040523d82523d6000602084013e614d39565b606091505b5091509150614d49828286614d54565b979650505050505050565b60608315614d635750816133a3565b825115614d735782518084602001fd5b60405162461bcd60e51b815260206004820181815284516024840152845185939192839260440191908501908083836000831561454c578181015183820152602001614534565b50805460018160011615610100020316600290046000825580601f10614de05750614dfe565b601f016020900490600052602060002090810190614dfe9190614e01565b50565b5b80821115614e165760008155600101614e02565b5090565b803561075981615a0b565b805161ffff8116811461075957600080fd5b803562ffffff8116811461075957600080fd5b600060208284031215614e5b578081fd5b81356133a381615a0b565b60008060408385031215614e78578081fd5b8235614e8381615a0b565b91506020830135614e9381615a0b565b809150509250929050565b60008060008060808587031215614eb3578182fd5b8435614ebe81615a0b565b93506020850135614ece81615a0b565b9250614edc60408601614e37565b91506060850135614eec81615a0b565b939692955090935050565b600080600060608486031215614f0b578081fd5b8335614f1681615a0b565b92506020840135614f2681615a0b565b929592945050506040919091013590565b60008060008060808587031215614f4c578182fd5b8435614f5781615a0b565b93506020850135614f6781615a0b565b925060408501359150606085013567ffffffffffffffff811115614f89578182fd5b8501601f81018713614f99578182fd5b8035614fac614fa7826159bd565b615999565b818152886020838501011115614fc0578384fd5b81602084016020830137908101602001929092525092959194509250565b60008060408385031215614ff0578182fd5b8235614ffb81615a0b565b91506020830135614e9381615a20565b6000806040838503121561501d578182fd5b823561502881615a0b565b946020939093013593505050565b60008060006060848603121561504a578081fd5b833561505581615a0b565b925060208401359150604084013561506c81615a0b565b809150509250925092565b60008060008060008060c0878903121561508f578384fd5b863561509a81615a0b565b9550602087013594506040870135935060608701356150b881615a52565b9598949750929560808101359460a0909101359350915050565b600080602083850312156150e4578182fd5b823567ffffffffffffffff808211156150fb578384fd5b818501915085601f83011261510e578384fd5b81358181111561511c578485fd5b866020808302850101111561512f578485fd5b60209290920196919550909350505050565b600060208284031215615152578081fd5b81356001600160e01b0319811681146133a3578182fd5b60006020828403121561517a578081fd5b81356133a381615a2e565b600060208284031215615196578081fd5b815167ffffffffffffffff8111156151ac578182fd5b8201601f810184136151bc578182fd5b80516151ca614fa7826159bd565b8181528560208385010111156151de578384fd5b6143ca8260208301602086016159df565b600060808284031215615200578081fd5b50919050565b600060a08284031215615200578081fd5b600060c08284031215615200578081fd5b6000818303608081121561523a578182fd5b6040516040810167ffffffffffffffff828210818311171561525857fe5b816040526060841215615269578485fd5b60a083019350818410818511171561527d57fe5b50826040528435925061528f83615a0b565b9182526020840135916152a183615a0b565b8260608301526152b360408601614e37565b608083015281526152c660608501614e1a565b6020820152949350505050565b60006101608284031215615200578081fd5b6000602082840312156152f6578081fd5b81356133a381615a3d565b60008060408385031215615313578182fd5b825161531e81615a3d565b6020840151909250614e9381615a3d565b600080600080600060a08688031215615346578283fd5b855161535181615a3d565b809550506020860151935060408601519250606086015161537181615a3d565b608087015190925061538281615a3d565b809150509295509295909350565b600080600080600080600060e0888a0312156153aa578485fd5b87516153b581615a0b565b60208901519097506153c681615a2e565b95506153d460408901614e25565b94506153e260608901614e25565b93506153f060808901614e25565b925060a088015161540081615a52565b60c089015190925061541181615a20565b8091505092959891949750929550565b600060208284031215615432578081fd5b61144f82614e37565b60006020828403121561544c578081fd5b5035919050565b60008060408385031215615465578182fd5b823591506020830135614e9381615a0b565b60008060408385031215615489578182fd5b505080516020909101519092909150565b600080600080606085870312156154af578182fd5b8435935060208501359250604085013567ffffffffffffffff808211156154d4578384fd5b818701915087601f8301126154e7578384fd5b8135818111156154f5578485fd5b886020828501011115615506578485fd5b95989497505060200194505050565b6000815180845261552d8160208601602086016159df565b601f01601f19169290920160200192915050565b60020b9052565b6001600160801b03169052565b6000828483379101908152919050565b6001600160a01b0391909116815260200190565b60006001600160a01b03871682528560020b60208301528460020b60408301526001600160801b038416606083015260a06080830152614d4960a0830184615515565b6001600160a01b03959095168552600293840b60208601529190920b60408401526001600160801b03918216606084015216608082015260a00190565b6001600160a01b039390931683526001600160801b03918216602084015216604082015260600190565b6000602080830181845280855180835260408601915060408482028701019250838701855b8281101561567657603f19888603018452615664858351615515565b94509285019290850190600101615648565b5092979650505050505050565b901515815260200190565b90815260200190565b6001600160a01b03929092168252602082015260400190565b600293840b81529190920b60208201526001600160801b03909116604082015260600190565b60006020825261144f6020830184615515565b6020808252600c908201527f4e6f7420617070726f7665640000000000000000000000000000000000000000604082015260600190565b6020808252602c908201527f4552433732313a20617070726f76656420717565727920666f72206e6f6e657860408201527f697374656e7420746f6b656e0000000000000000000000000000000000000000606082015260800190565b60208082526014908201527f507269636520736c69707061676520636865636b000000000000000000000000604082015260600190565b60208082526010908201527f496e76616c696420746f6b656e20494400000000000000000000000000000000604082015260600190565b6020808252600b908201527f4e6f7420636c6561726564000000000000000000000000000000000000000000604082015260600190565b815180516001600160a01b03908116835260208083015182168185015260409283015162ffffff1692840192909252920151909116606082015260800190565b6001600160801b039390931683526020830191909152604082015260600190565b9384526001600160801b039290921660208401526040830152606082015260800190565b918252602082015260400190565b6bffffffffffffffffffffffff8d1681526001600160a01b038c811660208301528b811660408301528a16606082015262ffffff89166080820152600288900b60a0820152610180810161590c60c0830189615541565b61591960e0830188615548565b8561010083015284610120830152615935610140830185615548565b615943610160830184615548565b9d9c50505050505050505050505050565b6000808335601e1984360301811261596a578283fd5b83018035915067ffffffffffffffff821115615984578283fd5b60200191503681900382131561396f57600080fd5b60405181810167ffffffffffffffff811182821017156159b557fe5b604052919050565b600067ffffffffffffffff8211156159d157fe5b50601f01601f191660200190565b60005b838110156159fa5781810151838201526020016159e2565b8381111561287d5750506000910152565b6001600160a01b0381168114614dfe57600080fd5b8015158114614dfe57600080fd5b8060020b8114614dfe57600080fd5b6001600160801b0381168114614dfe57600080fd5b60ff81168114614dfe57600080fdfe456e756d657261626c655365743a20696e646578206f7574206f6620626f756e64734552433732313a207472616e7366657220746f206e6f6e20455243373231526563656976657220696d706c656d656e7465724552433732315065726d69743a20617070726f76616c20746f2063757272656e74206f776e65724552433732313a207472616e7366657220746f20746865207a65726f2061646472657373416464726573733a20696e73756666696369656e742062616c616e636520666f722063616c6c4552433732313a206f70657261746f7220717565727920666f72206e6f6e6578697374656e7420746f6b656e4552433732313a20617070726f76652063616c6c6572206973206e6f74206f776e6572206e6f7220617070726f76656420666f7220616c6c4552433732313a2062616c616e636520717565727920666f7220746865207a65726f20616464726573734552433732313a206f776e657220717565727920666f72206e6f6e6578697374656e7420746f6b656e456e756d657261626c654d61703a20696e646578206f7574206f6620626f756e64734552433732313a207472616e73666572206f6620746f6b656e2074686174206973206e6f74206f776e4552433732313a20617070726f76616c20746f2063757272656e74206f776e65724552433732313a207472616e736665722063616c6c6572206973206e6f74206f776e6572206e6f7220617070726f7665645472616e7366657248656c7065723a204554485f5452414e534645525f4641494c4544a164736f6c6343000706000a",
  "linkReferences": {},
  "deployedLinkReferences": {}
}