{
  "_format": "hh-sol-artifact-1",
  "contractName": "NonfungiblePositionManager",
  "sourceName": "contracts/uniswap/NonfungiblePositionManager.sol",
  "abi": [
    {
      "inputs": [
        {
          "internalType": "address",
          "name": "_factory",
          "type": "address"
        },
        {
          "internalType": "address",
          "name": "_WETH9",
          "type": "address"
        },
        {
          "internalType": "address",
          "name": "_tokenDescriptor_",
          "type": "address"
        }
      ],
      "stateMutability": "nonpayable",
      "type": "constructor"
    },
    {
      "anonymous": false,
      "inputs": [
        {
          "indexed": true,
          "internalType": "address",
          "name": "owner",
          "type": "address"
        },
        {
          "indexed": true,
          "internalType": "address",
          "name": "approved",
          "type": "address"
        },
        {
          "indexed": true,
          "internalType": "uint256",
          "name": "tokenId",
          "type": "uint256"
        }
      ],
      "name": "Approval",
      "type": "event"
    },
    {
      "anonymous": false,
      "inputs": [
        {
          "indexed": true,
          "internalType": "address",
          "name": "owner",
          "type": "address"
        },
        {
          "indexed": true,
          "internalType": "address",
          "name": "operator",
          "type": "address"
        },
        {
          "indexed": false,
          "internalType": "bool",
          "name": "approved",
          "type": "bool"
        }
      ],
      "name": "ApprovalForAll",
      "type": "event"
    },
    {
      "anonymous": false,
      "inputs": [
        {
          "indexed": true,
          "internalType": "uint256",
          "name": "tokenId",
          "type": "uint256"
        },
        {
          "indexed": false,
          "internalType": "address",
          "name": "recipient",
          "type": "address"
        },
        {
          "indexed": false,
          "internalType": "uint256",
          "name": "amount0",
          "type": "uint256"
        },
        {
          "indexed": false,
          "internalType": "uint256",
          "name": "amount1",
          "type": "uint256"
        }
      ],
      "name": "Collect",
      "type": "event"
    },
    {
      "anonymous": false,
      "inputs": [
        {
          "indexed": true,
          "internalType": "uint256",
          "name": "tokenId",
          "type": "uint256"
        },
        {
          "indexed": false,
          "internalType": "uint128",
          "name": "liquidity",
          "type": "uint128"
        },
        {
          "indexed": false,
          "internalType": "uint256",
          "name": "amount0",
          "type": "uint256"
        },
        {
          "indexed": false,
          "internalType": "uint256",
          "name": "amount1",
          "type": "uint256"
        }
      ],
      "name": "DecreaseLiquidity",
      "type": "event"
    },
    {
      "anonymous": false,
      "inputs": [
        {
          "indexed": true,
          "internalType": "uint256",
          "name": "tokenId",
          "type": "uint256"
        },
        {
          "indexed": false,
          "internalType": "uint128",
          "name": "liquidity",
          "type": "uint128"
        },
        {
          "indexed": false,
          "internalType": "uint256",
          "name": "amount0",
          "type": "uint256"
        },
        {
          "indexed": false,
          "internalType": "uint256",
          "name": "amount1",
          "type": "uint256"
        }
      ],
      "name": "IncreaseLiquidity",
      "type": "event"
    },
    {
      "anonymous": false,
      "inputs": [
        {
          "indexed": true,
          "internalType": "address",
          "name": "from",
          "type": "address"
        },
        {
          "indexed": true,
          "internalType": "address",
          "name": "to",
          "type": "address"
        },
        {
          "indexed": true,
          "internalType": "uint256",
          "name": "tokenId",
          "type": "uint256"
        }
      ],
      "name": "Transfer",
      "type": "event"
    },
    {
      "inputs": [],
      "name": "DOMAIN_SEPARATOR",
      "outputs": [
        {
          "internalType": "bytes32",
          "name": "",
          "type": "bytes32"
        }
      ],
      "stateMutability": "view",
      "type": "function"
    },
    {
      "inputs": [],
      "name": "PERMIT_TYPEHASH",
      "outputs": [
        {
          "internalType": "bytes32",
          "name": "",
          "type": "bytes32"
        }
      ],
      "stateMutability": "view",
      "type": "function"
    },
    {
      "inputs": [],
      "name": "WETH9",
      "outputs": [
        {
          "internalType": "address",
          "name": "",
          "type": "address"
        }
      ],
      "stateMutability": "view",
      "type": "function"
    },
    {
      "inputs": [
        {
          "internalType": "address",
          "name": "to",
          "type": "address"
        },
        {
          "internalType": "uint256",
          "name": "tokenId",
          "type": "uint256"
        }
      ],
      "name": "approve",
      "outputs": [],
      "stateMutability": "nonpayable",
      "type": "function"
    },
    {
      "inputs": [
        {
          "internalType": "address",
          "name": "owner",
          "type": "address"
        }
      ],
      "name": "balanceOf",
      "outputs": [
        {
          "internalType": "uint256",
          "name": "",
          "type": "uint256"
        }
      ],
      "stateMutability": "view",
      "type": "function"
    },
    {
      "inputs": [],
      "name": "baseURI",
      "outputs": [
        {
          "internalType": "string",
          "name": "",
          "type": "string"
        }
      ],
      "stateMutability": "pure",
      "type": "function"
    },
    {
      "inputs": [
        {
          "internalType": "uint256",
          "name": "tokenId",
          "type": "uint256"
        }
      ],
      "name": "burn",
      "outputs": [],
      "stateMutability": "payable",
      "type": "function"
    },
    {
      "inputs": [
        {
          "components": [
            {
              "internalType": "uint256",
              "name": "tokenId",
              "type": "uint256"
            },
            {
              "internalType": "address",
              "name": "recipient",
              "type": "address"
            },
            {
              "internalType": "uint128",
              "name": "amount0Max",
              "type": "uint128"
            },
            {
              "internalType": "uint128",
              "name": "amount1Max",
              "type": "uint128"
            }
          ],
          "internalType": "struct INonfungiblePositionManager.CollectParams",
          "name": "params",
          "type": "tuple"
        }
      ],
      "name": "collect",
      "outputs": [
        {
          "internalType": "uint256",
          "name": "amount0",
          "type": "uint256"
        },
        {
          "internalType": "uint256",
          "name": "amount1",
          "type": "uint256"
        }
      ],
      "stateMutability": "payable",
      "type": "function"
    },
    {
      "inputs": [
        {
          "internalType": "address",
          "name": "token0",
          "type": "address"
        },
        {
          "internalType": "address",
          "name": "token1",
          "type": "address"
        },
        {
          "internalType": "uint24",
          "name": "fee",
          "type": "uint24"
        },
        {
          "internalType": "uint160",
          "name": "sqrtPriceX96",
          "type": "uint160"
        }
      ],
      "name": "createAndInitializePoolIfNecessary",
      "outputs": [
        {
          "internalType": "address",
          "name": "pool",
          "type": "address"
        }
      ],
      "stateMutability": "payable",
      "type": "function"
    },
    {
      "inputs": [
        {
          "components": [
            {
              "internalType": "uint256",
              "name": "tokenId",
              "type": "uint256"
            },
            {
              "internalType": "uint128",
              "name": "liquidity",
              "type": "uint128"
            },
            {
              "internalType": "uint256",
              "name": "amount0Min",
              "type": "uint256"
            },
            {
              "internalType": "uint256",
              "name": "amount1Min",
              "type": "uint256"
            },
            {
              "internalType": "uint256",
              "name": "deadline",
              "type": "uint256"
            }
          ],
          "internalType": "struct INonfungiblePositionManager.DecreaseLiquidityParams",
          "name": "params",
          "type": "tuple"
        }
      ],
      "name": "decreaseLiquidity",
      "outputs": [
        {
          "internalType": "uint256",
          "name": "amount0",
          "type": "uint256"
        },
        {
          "internalType": "uint256",
          "name": "amount1",
          "type": "uint256"
        }
      ],
      "stateMutability": "payable",
      "type": "function"
    },
    {
      "inputs": [],
      "name": "factory",
      "outputs": [
        {
          "internalType": "address",
          "name": "",
          "type": "address"
        }
      ],
      "stateMutability": "view",
      "type": "function"
    },
    {
      "inputs": [
        {
          "internalType": "uint256",
          "name": "tokenId",
          "type": "uint256"
        }
      ],
      "name": "getApproved",
      "outputs": [
        {
          "internalType": "address",
          "name": "",
          "type": "address"
        }
      ],
      "stateMutability": "view",
      "type": "function"
    },
    {
      "inputs": [
        {
          "components": [
            {
              "internalType": "uint256",
              "name": "tokenId",
              "type": "uint256"
            },
            {
              "internalType": "uint256",
              "name": "amount0Desired",
              "type": "uint256"
            },
            {
              "internalType": "uint256",
              "name": "amount1Desired",
              "type": "uint256"
            },
            {
              "internalType": "uint256",
              "name": "amount0Min",
              "type": "uint256"
            },
            {
              "internalType": "uint256",
              "name": "amount1Min",
              "type": "uint256"
            },
            {
              "internalType": "uint256",
              "name": "deadline",
              "type": "uint256"
            }
          ],
          "internalType": "struct INonfungiblePositionManager.IncreaseLiquidityParams",
          "name": "params",
          "type": "tuple"
        }
      ],
      "name": "increaseLiquidity",
      "outputs": [
        {
          "internalType": "uint128",
          "name": "liquidity",
          "type": "uint128"
        },
        {
          "internalType": "uint256",
          "name": "amount0",
          "type": "uint256"
        },
        {
          "internalType": "uint256",
          "name": "amount1",
          "type": "uint256"
        }
      ],
      "stateMutability": "payable",
      "type": "function"
    },
    {
      "inputs": [
        {
          "internalType": "address",
          "name": "owner",
          "type": "address"
        },
        {
          "internalType": "address",
          "name": "operator",
          "type": "address"
        }
      ],
      "name": "isApprovedForAll",
      "outputs": [
        {
          "internalType": "bool",
          "name": "",
          "type": "bool"
        }
      ],
      "stateMutability": "view",
      "type": "function"
    },
    {
      "inputs": [
        {
          "components": [
            {
              "internalType": "address",
              "name": "token0",
              "type": "address"
            },
            {
              "internalType": "address",
              "name": "token1",
              "type": "address"
            },
            {
              "internalType": "uint24",
              "name": "fee",
              "type": "uint24"
            },
            {
              "internalType": "int24",
              "name": "tickLower",
              "type": "int24"
            },
            {
              "internalType": "int24",
              "name": "tickUpper",
              "type": "int24"
            },
            {
              "internalType": "uint256",
              "name": "amount0Desired",
              "type": "uint256"
            },
            {
              "internalType": "uint256",
              "name": "amount1Desired",
              "type": "uint256"
            },
            {
              "internalType": "uint256",
              "name": "amount0Min",
              "type": "uint256"
            },
            {
              "internalType": "uint256",
              "name": "amount1Min",
              "type": "uint256"
            },
            {
              "internalType": "address",
              "name": "recipient",
              "type": "address"
            },
            {
              "internalType": "uint256",
              "name": "deadline",
              "type": "uint256"
            }
          ],
          "internalType": "struct INonfungiblePositionManager.MintParams",
          "name": "params",
          "type": "tuple"
        }
      ],
      "name": "mint",
      "outputs": [
        {
          "internalType": "uint256",
          "name": "tokenId",
          "type": "uint256"
        },
        {
          "internalType": "uint128",
          "name": "liquidity",
          "type": "uint128"
        },
        {
          "internalType": "uint256",
          "name": "amount0",
          "type": "uint256"
        },
        {
          "internalType": "uint256",
          "name": "amount1",
          "type": "uint256"
        }
      ],
      "stateMutability": "payable",
      "type": "function"
    },
    {
      "inputs": [
        {
          "internalType": "bytes[]",
          "name": "data",
          "type": "bytes[]"
        }
      ],
      "name": "multicall",
      "outputs": [
        {
          "internalType": "bytes[]",
          "name": "results",
          "type": "bytes[]"
        }
      ],
      "stateMutability": "payable",
      "type": "function"
    },
    {
      "inputs": [],
      "name": "name",
      "outputs": [
        {
          "internalType": "string",
          "name": "",
          "type": "string"
        }
      ],
      "stateMutability": "view",
      "type": "function"
    },
    {
      "inputs": [
        {
          "internalType": "uint256",
          "name": "tokenId",
          "type": "uint256"
        }
      ],
      "name": "ownerOf",
      "outputs": [
        {
          "internalType": "address",
          "name": "",
          "type": "address"
        }
      ],
      "stateMutability": "view",
      "type": "function"
    },
    {
      "inputs": [
        {
          "internalType": "address",
          "name": "spender",
          "type": "address"
        },
        {
          "internalType": "uint256",
          "name": "tokenId",
          "type": "uint256"
        },
        {
          "internalType": "uint256",
          "name": "deadline",
          "type": "uint256"
        },
        {
          "internalType": "uint8",
          "name": "v",
          "type": "uint8"
        },
        {
          "internalType": "bytes32",
          "name": "r",
          "type": "bytes32"
        },
        {
          "internalType": "bytes32",
          "name": "s",
          "type": "bytes32"
        }
      ],
      "name": "permit",
      "outputs": [],
      "stateMutability": "payable",
      "type": "function"
    },
    {
      "inputs": [
        {
          "internalType": "uint256",
          "name": "tokenId",
          "type": "uint256"
        }
      ],
      "name": "positions",
      "outputs": [
        {
          "internalType": "uint96",
          "name": "nonce",
          "type": "uint96"
        },
        {
          "internalType": "address",
          "name": "operator",
          "type": "address"
        },
        {
          "internalType": "address",
          "name": "token0",
          "type": "address"
        },
        {
          "internalType": "address",
          "name": "token1",
          "type": "address"
        },
        {
          "internalType": "uint24",
          "name": "fee",
          "type": "uint24"
        },
        {
          "internalType": "int24",
          "name": "tickLower",
          "type": "int24"
        },
        {
          "internalType": "int24",
          "name": "tickUpper",
          "type": "int24"
        },
        {
          "internalType": "uint128",
          "name": "liquidity",
          "type": "uint128"
        },
        {
          "internalType": "uint256",
          "name": "feeGrowthInside0LastX128",
          "type": "uint256"
        },
        {
          "internalType": "uint256",
          "name": "feeGrowthInside1LastX128",
          "type": "uint256"
        },
        {
          "internalType": "uint128",
          "name": "tokensOwed0",
          "type": "uint128"
        },
        {
          "internalType": "uint128",
          "name": "tokensOwed1",
          "type": "uint128"
        }
      ],
      "stateMutability": "view",
      "type": "function"
    },
    {
      "inputs": [],
      "name": "refundETH",
      "outputs": [],
      "stateMutability": "payable",
      "type": "function"
    },
    {
      "inputs": [
        {
          "internalType": "address",
          "name": "from",
          "type": "address"
        },
        {
          "internalType": "address",
          "name": "to",
          "type": "address"
        },
        {
          "internalType": "uint256",
          "name": "tokenId",
          "type": "uint256"
        }
      ],
      "name": "safeTransferFrom",
      "outputs": [],
      "stateMutability": "nonpayable",
      "type": "function"
    },
    {
      "inputs": [
        {
          "internalType": "address",
          "name": "from",
          "type": "address"
        },
        {
          "internalType": "address",
          "name": "to",
          "type": "address"
        },
        {
          "internalType": "uint256",
          "name": "tokenId",
          "type": "uint256"
        },
        {
          "internalType": "bytes",
          "name": "_data",
          "type": "bytes"
        }
      ],
      "name": "safeTransferFrom",
      "outputs": [],
      "stateMutability": "nonpayable",
      "type": "function"
    },
    {
      "inputs": [
        {
          "internalType": "address",
          "name": "token",
          "type": "address"
        },
        {
          "internalType": "uint256",
          "name": "value",
          "type": "uint256"
        },
        {
          "internalType": "uint256",
          "name": "deadline",
          "type": "uint256"
        },
        {
          "internalType": "uint8",
          "name": "v",
          "type": "uint8"
        },
        {
          "internalType": "bytes32",
          "name": "r",
          "type": "bytes32"
        },
        {
          "internalType": "bytes32",
          "name": "s",
          "type": "bytes32"
        }
      ],
      "name": "selfPermit",
      "outputs": [],
      "stateMutability": "payable",
      "type": "function"
    },
    {
      "inputs": [
        {
          "internalType": "address",
          "name": "token",
          "type": "address"
        },
        {
          "internalType": "uint256",
          "name": "nonce",
          "type": "uint256"
        },
        {
          "internalType": "uint256",
          "name": "expiry",
          "type": "uint256"
        },
        {
          "internalType": "uint8",
          "name": "v",
          "type": "uint8"
        },
        {
          "internalType": "bytes32",
          "name": "r",
          "type": "bytes32"
        },
        {
          "internalType": "bytes32",
          "name": "s",
          "type": "bytes32"
        }
      ],
      "name": "selfPermitAllowed",
      "outputs": [],
      "stateMutability": "payable",
      "type": "function"
    },
    {
      "inputs": [
        {
          "internalType": "address",
          "name": "token",
          "type": "address"
        },
        {
          "internalType": "uint256",
          "name": "nonce",
          "type": "uint256"
        },
        {
          "internalType": "uint256",
          "name": "expiry",
          "type": "uint256"
        },
        {
          "internalType": "uint8",
          "name": "v",
          "type": "uint8"
        },
        {
          "internalType": "bytes32",
          "name": "r",
          "type": "bytes32"
        },
        {
          "internalType": "bytes32",
          "name": "s",
          "type": "bytes32"
        }
      ],
      "name": "selfPermitAllowedIfNecessary",
      "outputs": [],
      "stateMutability": "payable",
      "type": "function"
    },
    {
      "inputs": [
        {
          "internalType": "address",
          "name": "token",
          "type": "address"
        },
        {
          "internalType": "uint256",
          "name": "value",
          "type": "uint256"
        },
        {
          "internalType": "uint256",
          "name": "deadline",
          "type": "uint256"
        },
        {
          "internalType": "uint8",
          "name": "v",
          "type": "uint8"
        },
        {
          "internalType": "bytes32",
          "name": "r",
          "type": "bytes32"
        },
        {
          "internalType": "bytes32",
          "name": "s",
          "type": "bytes32"
        }
      ],
      "name": "selfPermitIfNecessary",
      "outputs": [],
      "stateMutability": "payable",
      "type": "function"
    },
    {
      "inputs": [
        {
          "internalType": "address",
          "name": "operator",
          "type": "address"
        },
        {
          "internalType": "bool",
          "name": "approved",
          "type": "bool"
        }
      ],
      "name": "setApprovalForAll",
      "outputs": [],
      "stateMutability": "nonpayable",
      "type": "function"
    },
    {
      "inputs": [
        {
          "internalType": "bytes4",
          "name": "interfaceId",
          "type": "bytes4"
        }
      ],
      "name": "supportsInterface",
      "outputs": [
        {
          "internalType": "bool",
          "name": "",
          "type": "bool"
        }
      ],
      "stateMutability": "view",
      "type": "function"
    },
    {
      "inputs": [
        {
          "internalType": "address",
          "name": "token",
          "type": "address"
        },
        {
          "internalType": "uint256",
          "name": "amountMinimum",
          "type": "uint256"
        },
        {
          "internalType": "address",
          "name": "recipient",
          "type": "address"
        }
      ],
      "name": "sweepToken",
      "outputs": [],
      "stateMutability": "payable",
      "type": "function"
    },
    {
      "inputs": [],
      "name": "symbol",
      "outputs": [
        {
          "internalType": "string",
          "name": "",
          "type": "string"
        }
      ],
      "stateMutability": "view",
      "type": "function"
    },
    {
      "inputs": [
        {
          "internalType": "uint256",
          "name": "index",
          "type": "uint256"
        }
      ],
      "name": "tokenByIndex",
      "outputs": [
        {
          "internalType": "uint256",
          "name": "",
          "type": "uint256"
        }
      ],
      "stateMutability": "view",
      "type": "function"
    },
    {
      "inputs": [
        {
          "internalType": "address",
          "name": "owner",
          "type": "address"
        },
        {
          "internalType": "uint256",
          "name": "index",
          "type": "uint256"
        }
      ],
      "name": "tokenOfOwnerByIndex",
      "outputs": [
        {
          "internalType": "uint256",
          "name": "",
          "type": "uint256"
        }
      ],
      "stateMutability": "view",
      "type": "function"
    },
    {
      "inputs": [
        {
          "internalType": "uint256",
          "name": "tokenId",
          "type": "uint256"
        }
      ],
      "name": "tokenURI",
      "outputs": [
        {
          "internalType": "string",
          "name": "",
          "type": "string"
        }
      ],
      "stateMutability": "view",
      "type": "function"
    },
    {
      "inputs": [],
      "name": "totalSupply",
      "outputs": [
        {
          "internalType": "uint256",
          "name": "",
          "type": "uint256"
        }
      ],
      "stateMutability": "view",
      "type": "function"
    },
    {
      "inputs": [
        {
          "internalType": "address",
          "name": "from",
          "type": "address"
        },
        {
          "internalType": "address",
          "name": "to",
          "type": "address"
        },
        {
          "internalType": "uint256",
          "name": "tokenId",
          "type": "uint256"
        }
      ],
      "name": "transferFrom",
      "outputs": [],
      "stateMutability": "nonpayable",
      "type": "function"
    },
    {
      "inputs": [
        {
          "internalType": "uint256",
          "name": "amount0Owed",
          "type": "uint256"
        },
        {
          "internalType": "uint256",
          "name": "amount1Owed",
          "type": "uint256"
        },
        {
          "internalType": "bytes",
          "name": "data",
          "type": "bytes"
        }
      ],
      "name": "uniswapV3MintCallback",
      "outputs": [],
      "stateMutability": "nonpayable",
      "type": "function"
    },
    {
      "inputs": [
        {
          "internalType": "uint256",
          "name": "amountMinimum",
          "type": "uint256"
        },
        {
          "internalType": "address",
          "name": "recipient",
          "type": "address"
        }
      ],
      "name": "unwrapWETH9",
      "outputs": [],
      "stateMutability": "payable",
      "type": "function"
    },
    {
      "stateMutability": "payable",
      "type": "receive"
    }
  ],
  "bytecode": "0x610120604052600d80546001600160b01b0319166001176001600160b01b0316600160b01b1790553480156200003457600080fd5b506040516200541338038062005413833981016040819052620000579162000293565b82826040518060400160405280601b81526020017f556e697377617020563320506f736974696f6e73204e46542d563100000000008152506040518060400160405280600a815260200169554e492d56332d504f5360b01b815250604051806040016040528060018152602001603160f81b8152508282620000e66301ffc9a760e01b6200018d60201b60201c565b8151620000fb906006906020850190620001ca565b50805162000111906007906020840190620001ca565b50620001246380ac58cd60e01b6200018d565b62000136635b5e139f60e01b6200018d565b6200014863780e9d6360e01b6200018d565b50508251602093840120608052805192019190912060a052506001600160601b0319606092831b811660c05290821b811660e05291901b166101005250620002dc9050565b6001600160e01b03198082161415620001a557600080fd5b6001600160e01b0319166000908152602081905260409020805460ff19166001179055565b828054600181600116156101000203166002900490600052602060002090601f0160209004810192826200020257600085556200024d565b82601f106200021d57805160ff19168380011785556200024d565b828001600101855582156200024d579182015b828111156200024d57825182559160200191906001019062000230565b506200025b9291506200025f565b5090565b5b808211156200025b576000815560010162000260565b80516001600160a01b03811681146200028e57600080fd5b919050565b600080600060608486031215620002a8578283fd5b620002b38462000276565b9250620002c36020850162000276565b9150620002d36040850162000276565b90509250925092565b60805160a05160c05160601c60e05160601c6101005160601c6150b26200036160003980612512525080610299528061150552806115b3528061163b5280613648528061368e52806137025250806109635280610c795280610d4052806124ac52806125b25280612878528061301a5250806113125250806112f152506150b26000f3fe6080604052600436106102895760003560e01c80636352211e11610153578063ac9650d8116100cb578063d34879971161007f578063e985e9c511610064578063e985e9c5146106ad578063f3995c67146106cd578063fc6f7865146106e0576102c5565b8063d34879971461067a578063df2ab5bb1461069a576102c5565b8063c2e3140a116100b0578063c2e3140a14610632578063c45a015514610645578063c87b56dd1461065a576102c5565b8063ac9650d8146105f2578063b88d4fde14610612576102c5565b8063883164561161012257806399fbab881161010757806399fbab8814610587578063a22cb465146105bf578063a4a78f0c146105df576102c5565b8063883164561461054f57806395d89b4114610572576102c5565b80636352211e146104e75780636c0360eb1461050757806370a082311461051c5780637ac2ff7b1461053c576102c5565b806323b872dd1161020157806342966c68116101b557806349404b7c1161019a57806349404b7c1461049f5780634aa4a4fc146104b25780634f6ccce7146104c7576102c5565b806342966c68146104795780634659a4941461048c576102c5565b806330adf81f116101e657806330adf81f1461042f5780633644e5151461044457806342842e0e14610459576102c5565b806323b872dd146103ef5780632f745c591461040f576102c5565b80630c49ccbe1161025857806313ead5621161023d57806313ead5621461039857806318160ddd146103ab578063219f5d17146103cd576102c5565b80630c49ccbe1461036f57806312210e8a14610390576102c5565b806301ffc9a7146102ca57806306fdde0314610300578063081812fc14610322578063095ea7b31461034f576102c5565b366102c557336001600160a01b037f000000000000000000000000000000000000000000000000000000000000000016146102c357600080fd5b005b600080fd5b3480156102d657600080fd5b506102ea6102e5366004614863565b6106f3565b6040516102f79190614da5565b60405180910390f35b34801561030c57600080fd5b50610315610716565b6040516102f79190614df8565b34801561032e57600080fd5b5061034261033d366004614b5d565b6107ac565b6040516102f79190614c87565b34801561035b57600080fd5b506102c361036a36600461472d565b6107e3565b61038261037d366004614928565b610855565b6040516102f7929190614e90565b6102c3610c45565b6103426103a63660046145c0565b610c57565b3480156103b757600080fd5b506103c0610f64565b6040516102f79190614db0565b6103e06103db366004614939565b610f75565b6040516102f793929190614e4b565b3480156103fb57600080fd5b506102c361040a366004614619565b611258565b34801561041b57600080fd5b506103c061042a36600461472d565b61127d565b34801561043b57600080fd5b506103c06112a8565b34801561045057600080fd5b506103c06112cc565b34801561046557600080fd5b506102c3610474366004614619565b61138a565b6102c3610487366004614b5d565b6113a5565b6102c361049a366004614799565b61144e565b6102c36104ad366004614b75565b611501565b3480156104be57600080fd5b50610342611639565b3480156104d357600080fd5b506103c06104e2366004614b5d565b61165d565b3480156104f357600080fd5b50610342610502366004614b5d565b611673565b34801561051357600080fd5b5061031561169b565b34801561052857600080fd5b506103c061053736600461456c565b6116a0565b6102c361054a366004614799565b6116d6565b61056261055d3660046149f5565b6119e6565b6040516102f79493929190614e6c565b34801561057e57600080fd5b50610315611eff565b34801561059357600080fd5b506105a76105a2366004614b5d565b611f60565b6040516102f79c9b9a99989796959493929190614e9e565b3480156105cb57600080fd5b506102c36105da366004614700565b61216c565b6102c36105ed366004614799565b612229565b6106056106003660046147f4565b6122c2565b6040516102f79190614d45565b34801561061e57600080fd5b506102c361062d366004614659565b6123ef565b6102c3610640366004614799565b61241b565b34801561065157600080fd5b506103426124aa565b34801561066657600080fd5b50610315610675366004614b5d565b6124ce565b34801561068657600080fd5b506102c3610695366004614bbc565b61259d565b6102c36106a8366004614758565b61261b565b3480156106b957600080fd5b506102ea6106c8366004614588565b6126b6565b6102c36106db366004614799565b6126e4565b6103826106ee366004614911565b61276f565b6001600160e01b0319811660009081526020819052604090205460ff165b919050565b60068054604080516020601f60026000196101006001881615020190951694909404938401819004810282018101909252828152606093909290918301828280156107a25780601f10610777576101008083540402835291602001916107a2565b820191906000526020600020905b81548152906001019060200180831161078557829003601f168201915b5050505050905090565b60006107b782612c65565b6107c057600080fd5b506000908152600c6020526040902054600160601b90046001600160a01b031690565b60006107ee82611673565b9050806001600160a01b0316836001600160a01b0316141561080f57600080fd5b806001600160a01b0316610821612c72565b6001600160a01b0316148061083d575061083d816106c8612c72565b61084657600080fd5b6108508383612c76565b505050565b60008082356108643382612cf1565b61086d57600080fd5b83608001358061087b612d5b565b111561088657600080fd5b60006108986040870160208801614a07565b6001600160801b0316116108ab57600080fd5b84356000908152600c602090815260409182902060018101549092600160801b9091046001600160801b0316916108e6918901908901614a07565b6001600160801b0316816001600160801b0316101561090457600080fd5b60018281015469ffffffffffffffffffff166000908152600b60209081526040808320815160608101835281546001600160a01b039081168252919095015490811692850192909252600160a01b90910462ffffff16908301526109887f000000000000000000000000000000000000000000000000000000000000000083612d5f565b60018501549091506001600160a01b0382169063a34123a790600160501b8104600290810b91600160681b9004900b6109c760408e0160208f01614a07565b6040518463ffffffff1660e01b81526004016109e593929190614dd2565b6040805180830381600087803b1580156109fe57600080fd5b505af1158015610a12573d6000803e3d6000fd5b505050506040513d601f19601f82011682018060405250810190610a369190614b99565b909850965060408901358810801590610a53575088606001358710155b610a5c57600080fd5b6001840154600090610a85903090600160501b8104600290810b91600160681b9004900b612e5b565b9050600080836001600160a01b031663514ea4bf846040518263ffffffff1660e01b8152600401610ab69190614db0565b60a06040518083038186803b158015610ace57600080fd5b505afa158015610ae2573d6000803e3d6000fd5b505050506040513d601f19601f82011682018060405250810190610b069190614a51565b50509250925050610b2b87600201548303876001600160801b0316600160801b612eb5565b6004880180546fffffffffffffffffffffffffffffffff198116928e016001600160801b039182160181169290921790556003880154610b7591908303908816600160801b612eb5565b6004880180546001600160801b03808216938e01600160801b9283900482160116029190911790556002870182905560038701819055610bbb60408d0160208e01614a07565b86038760010160106101000a8154816001600160801b0302191690836001600160801b031602179055508b600001357f26f6a048ee9138f2c0ce266f322cb99228e8d619ae2bff30c67f8dcf9d2377b48d6020016020810190610c1e9190614a07565b8d8d604051610c2f93929190614e4b565b60405180910390a2505050505050505050915091565b4715610c5557610c553347612f64565b565b6000836001600160a01b0316856001600160a01b031610610c7757600080fd5b7f00000000000000000000000000000000000000000000000000000000000000006001600160a01b0316631698ee828686866040518463ffffffff1660e01b815260040180846001600160a01b03168152602001836001600160a01b031681526020018262ffffff168152602001935050505060206040518083038186803b158015610d0257600080fd5b505afa158015610d16573d6000803e3d6000fd5b505050506040513d6020811015610d2c57600080fd5b505190506001600160a01b038116610e7b577f00000000000000000000000000000000000000000000000000000000000000006001600160a01b031663a16712958686866040518463ffffffff1660e01b815260040180846001600160a01b03168152602001836001600160a01b031681526020018262ffffff1681526020019350505050602060405180830381600087803b158015610dcb57600080fd5b505af1158015610ddf573d6000803e3d6000fd5b505050506040513d6020811015610df557600080fd5b5051604080517ff637731d0000000000000000000000000000000000000000000000000000000081526001600160a01b03858116600483015291519293509083169163f637731d9160248082019260009290919082900301818387803b158015610e5e57600080fd5b505af1158015610e72573d6000803e3d6000fd5b50505050610f5c565b6000816001600160a01b0316633850c7bd6040518163ffffffff1660e01b815260040160e06040518083038186803b158015610eb657600080fd5b505afa158015610eca573d6000803e3d6000fd5b505050506040513d60e0811015610ee057600080fd5b505190506001600160a01b038116610f5a57816001600160a01b031663f637731d846040518263ffffffff1660e01b815260040180826001600160a01b03168152602001915050600060405180830381600087803b158015610f4157600080fd5b505af1158015610f55573d6000803e3d6000fd5b505050505b505b949350505050565b6000610f706002612fc2565b905090565b60008060008360a0013580610f88612d5b565b1115610f9357600080fd5b84356000908152600c6020908152604080832060018082015469ffffffffffffffffffff81168652600b855283862084516060808201875282546001600160a01b039081168352929094015480831682890190815262ffffff600160a01b9092048216838901908152885161014081018a528451861681529151909416818a0152925116828701523082850152600160501b8304600290810b810b608080850191909152600160681b909404810b900b60a0830152958c013560c0820152938b013560e0850152908a0135610100840152890135610120830152929061107890612fcd565b6001870154939a50919850965091506000906110ab903090600160501b8104600290810b91600160681b9004900b612e5b565b9050600080836001600160a01b031663514ea4bf846040518263ffffffff1660e01b81526004016110dc9190614db0565b60a06040518083038186803b1580156110f457600080fd5b505afa158015611108573d6000803e3d6000fd5b505050506040513d601f19601f8201168201806040525081019061112c9190614a51565b50509250925050611168866002015483038760010160109054906101000a90046001600160801b03166001600160801b0316600160801b612eb5565b6004870180546001600160801b0380821690930183166fffffffffffffffffffffffffffffffff19909116179055600387015460018801546111b89291840391600160801b918290041690612eb5565b6004870180546001600160801b03600160801b80830482169094018116840291811691909117909155600288018490556003880183905560018801805483810483168e018316909302929091169190911790556040518b35907f3067048beee31b25b2f1681f88dac838c8bba36af25bfb2b7cf7473a5847e35f90611242908d908d908d90614e4b565b60405180910390a2505050505050509193909250565b611269611263612c72565b82612cf1565b61127257600080fd5b6108508383836131f5565b6001600160a01b038216600090815260016020526040812061129f90836132dd565b90505b92915050565b7f49ecf333e5b8c95c40fdafc95c1ad136e8914a8fb55e9dc8bb01eaa83a2df9ad81565b60007f8b73c3c69bb8fe3d512ecc4cf759cc79239f7b179b0ffacaa9a75d522b39400f7f00000000000000000000000000000000000000000000000000000000000000007f00000000000000000000000000000000000000000000000000000000000000006113396132e9565b3060405160200180868152602001858152602001848152602001838152602001826001600160a01b031681526020019550505050505060405160208183030381529060405280519060200120905090565b610850838383604051806020016040528060008152506123ef565b806113b03382612cf1565b6113b957600080fd5b6000828152600c602052604090206001810154600160801b90046001600160801b03161580156113f4575060048101546001600160801b0316155b801561141257506004810154600160801b90046001600160801b0316155b61141b57600080fd5b6000838152600c6020526040812081815560018101829055600281018290556003810182905560040155610850836132ed565b604080517f8fcbaf0c00000000000000000000000000000000000000000000000000000000815233600482015230602482015260448101879052606481018690526001608482015260ff851660a482015260c4810184905260e4810183905290516001600160a01b03881691638fcbaf0c9161010480830192600092919082900301818387803b1580156114e157600080fd5b505af11580156114f5573d6000803e3d6000fd5b50505050505050505050565b60007f00000000000000000000000000000000000000000000000000000000000000006001600160a01b03166370a08231306040518263ffffffff1660e01b815260040180826001600160a01b0316815260200191505060206040518083038186803b15801561157057600080fd5b505afa158015611584573d6000803e3d6000fd5b505050506040513d602081101561159a57600080fd5b50519050828110156115ab57600080fd5b8015610850577f00000000000000000000000000000000000000000000000000000000000000006001600160a01b0316632e1a7d4d826040518263ffffffff1660e01b815260040180828152602001915050600060405180830381600087803b15801561161757600080fd5b505af115801561162b573d6000803e3d6000fd5b505050506108508282612f64565b7f000000000000000000000000000000000000000000000000000000000000000081565b60008061166b6002846133ba565b509392505050565b60006112a28260405180606001604052806029815260200161507d60299139600291906133d8565b606090565b60006001600160a01b0382166116b557600080fd5b6001600160a01b03821660009081526001602052604090206112a290612fc2565b836116df612d5b565b11156116ea57600080fd5b60006116f46112cc565b7f49ecf333e5b8c95c40fdafc95c1ad136e8914a8fb55e9dc8bb01eaa83a2df9ad8888611720816133e5565b604080516020808201969096526001600160a01b03909416848201526060840192909252608083015260a08083018a90528151808403909101815260c0830182528051908401207f190100000000000000000000000000000000000000000000000000000000000060e084015260e2830194909452610102808301949094528051808303909401845261012290910190528151910120905060006117c387611673565b9050806001600160a01b0316886001600160a01b031614156117e457600080fd5b6117ed81613424565b15611936576040805160208082018790528183018690527fff0000000000000000000000000000000000000000000000000000000000000060f889901b1660608301528251604181840301815260618301808552630b135d3f60e11b90526065830186815260858401948552815160a585015281516001600160a01b03871695631626ba7e958995919260c59091019185019080838360005b8381101561189e578181015183820152602001611886565b50505050905090810190601f1680156118cb5780820380516001836020036101000a031916815260200191505b50935050505060206040518083038186803b1580156118e957600080fd5b505afa1580156118fd573d6000803e3d6000fd5b505050506040513d602081101561191357600080fd5b50516001600160e01b031916630b135d3f60e11b1461193157600080fd5b6119d2565b600060018387878760405160008152602001604052604051808581526020018460ff1681526020018381526020018281526020019450505050506020604051602081039080840390855afa158015611992573d6000803e3d6000fd5b5050604051601f1901519150506001600160a01b0381166119b257600080fd5b816001600160a01b0316816001600160a01b0316146119d057600080fd5b505b6119dc8888612c76565b5050505050505050565b600080600080846101400135806119fb612d5b565b1115611a0657600080fd5b604080516101408101909152600090611ad29080611a2760208b018b61456c565b6001600160a01b03168152602001896020016020810190611a48919061456c565b6001600160a01b03168152602001611a6660608b0160408c01614b43565b62ffffff168152306020820152604001611a8660808b0160608c0161488b565b60020b8152602001611a9e60a08b0160808c0161488b565b60020b81526020018960a0013581526020018960c0013581526020018960e001358152602001896101000135815250612fcd565b92975090955093509050611b46611af161014089016101208a0161456c565b600d80547fffffffffffffffffffff000000000000000000000000000000000000000000008116600175ffffffffffffffffffffffffffffffffffffffffffff9283169081019092161790915597508761342a565b6000611b7130611b5c60808b0160608c0161488b565b611b6c60a08c0160808d0161488b565b612e5b565b9050600080836001600160a01b031663514ea4bf846040518263ffffffff1660e01b8152600401611ba29190614db0565b60a06040518083038186803b158015611bba57600080fd5b505afa158015611bce573d6000803e3d6000fd5b505050506040513d601f19601f82011682018060405250810190611bf29190614a51565b505092509250506000611c6b8560405180606001604052808e6000016020810190611c1d919061456c565b6001600160a01b031681526020018e6020016020810190611c3e919061456c565b6001600160a01b031681526020018e6040016020810190611c5f9190614b43565b62ffffff1690526134c8565b905060405180610140016040528060006bffffffffffffffffffffffff16815260200160006001600160a01b031681526020018269ffffffffffffffffffff1681526020018c6060016020810190611cc3919061488b565b60020b8152602001611cdb60a08e0160808f0161488b565b60020b81526020018a6001600160801b0316815260200184815260200183815260200160006001600160801b0316815260200160006001600160801b0316815250600c60008c815260200190815260200160002060008201518160000160006101000a8154816bffffffffffffffffffffffff02191690836bffffffffffffffffffffffff160217905550602082015181600001600c6101000a8154816001600160a01b0302191690836001600160a01b0316021790555060408201518160010160006101000a81548169ffffffffffffffffffff021916908369ffffffffffffffffffff160217905550606082015181600101600a6101000a81548162ffffff021916908360020b62ffffff160217905550608082015181600101600d6101000a81548162ffffff021916908360020b62ffffff16021790555060a08201518160010160106101000a8154816001600160801b0302191690836001600160801b0316021790555060c0820151816002015560e082015181600301556101008201518160040160006101000a8154816001600160801b0302191690836001600160801b031602179055506101208201518160040160106101000a8154816001600160801b0302191690836001600160801b03160217905550905050897f3067048beee31b25b2f1681f88dac838c8bba36af25bfb2b7cf7473a5847e35f8a8a8a604051611eea93929190614e4b565b60405180910390a25050505050509193509193565b60078054604080516020601f60026000196101006001881615020190951694909404938401819004810282018101909252828152606093909290918301828280156107a25780601f10610777576101008083540402835291602001916107a2565b6000818152600c6020908152604080832081516101408101835281546bffffffffffffffffffffffff811682526001600160a01b03600160601b9091041693810193909352600181015469ffffffffffffffffffff8116928401839052600160501b8104600290810b810b810b6060860152600160681b8204810b810b810b60808601526001600160801b03600160801b92839004811660a08701529083015460c0860152600383015460e08601526004909201548083166101008601520416610120830152829182918291829182918291829182918291829182919061204657600080fd5b6000600b6000836040015169ffffffffffffffffffff1669ffffffffffffffffffff1681526020019081526020016000206040518060600160405290816000820160009054906101000a90046001600160a01b03166001600160a01b03166001600160a01b031681526020016001820160009054906101000a90046001600160a01b03166001600160a01b03166001600160a01b031681526020016001820160149054906101000a900462ffffff1662ffffff1662ffffff1681525050905081600001518260200151826000015183602001518460400151866060015187608001518860a001518960c001518a60e001518b61010001518c61012001519d509d509d509d509d509d509d509d509d509d509d509d50505091939597999b5091939597999b565b612174612c72565b6001600160a01b0316826001600160a01b0316141561219257600080fd5b806005600061219f612c72565b6001600160a01b03908116825260208083019390935260409182016000908120918716808252919093529120805460ff1916921515929092179091556121e3612c72565b6001600160a01b03167f17307eab39ab6107e8899845ad3d59bd9653f200f220920489ca2b5937696c318360405180821515815260200191505060405180910390a35050565b60408051636eb1769f60e11b81523360048201523060248201529051600019916001600160a01b0389169163dd62ed3e91604480820192602092909190829003018186803b15801561227a57600080fd5b505afa15801561228e573d6000803e3d6000fd5b505050506040513d60208110156122a457600080fd5b505110156122ba576122ba86868686868661144e565b505050505050565b60608167ffffffffffffffff811180156122db57600080fd5b5060405190808252806020026020018201604052801561230f57816020015b60608152602001906001900390816122fa5790505b50905060005b828110156123e8576000803086868581811061232d57fe5b905060200281019061233f9190614f3d565b60405161234d929190614c77565b600060405180830381855af49150503d8060008114612388576040519150601f19603f3d011682016040523d82523d6000602084013e61238d565b606091505b5091509150816123c6576044815110156123a657600080fd5b600481019050808060200190518101906123c091906148a7565b50600080fd5b808484815181106123d357fe5b60209081029190910101525050600101612315565b5092915050565b6124006123fa612c72565b83612cf1565b61240957600080fd5b61241584848484613603565b50505050565b60408051636eb1769f60e11b8152336004820152306024820152905186916001600160a01b0389169163dd62ed3e91604480820192602092909190829003018186803b15801561246a57600080fd5b505afa15801561247e573d6000803e3d6000fd5b505050506040513d602081101561249457600080fd5b505110156122ba576122ba8686868686866126e4565b7f000000000000000000000000000000000000000000000000000000000000000081565b60606124d982612c65565b6124e257600080fd5b6040517fe9dc63750000000000000000000000000000000000000000000000000000000081526001600160a01b037f0000000000000000000000000000000000000000000000000000000000000000169063e9dc6375906125499030908690600401614db9565b60006040518083038186803b15801561256157600080fd5b505afa158015612575573d6000803e3d6000fd5b505050506040513d6000823e601f3d908101601f191682016040526112a291908101906148a7565b60006125ab8284018461494a565b90506125db7f00000000000000000000000000000000000000000000000000000000000000008260000151613623565b5084156125f65780515160208201516125f691903388613646565b83156126145761261481600001516020015182602001513387613646565b5050505050565b6000836001600160a01b03166370a08231306040518263ffffffff1660e01b815260040180826001600160a01b0316815260200191505060206040518083038186803b15801561266a57600080fd5b505afa15801561267e573d6000803e3d6000fd5b505050506040513d602081101561269457600080fd5b50519050828110156126a557600080fd5b8015612415576124158483836137d6565b6001600160a01b03918216600090815260056020908152604080832093909416825291909152205460ff1690565b604080517fd505accf000000000000000000000000000000000000000000000000000000008152336004820152306024820152604481018790526064810186905260ff8516608482015260a4810184905260c4810183905290516001600160a01b0388169163d505accf9160e480830192600092919082900301818387803b1580156114e157600080fd5b600080823561277e3382612cf1565b61278757600080fd5b60006127996060860160408701614a07565b6001600160801b031611806127c6575060006127bb6080860160608701614a07565b6001600160801b0316115b6127cf57600080fd5b6000806127e2604087016020880161456c565b6001600160a01b03161461280557612800604086016020870161456c565b612807565b305b85356000908152600c6020908152604080832060018082015469ffffffffffffffffffff168552600b8452828520835160608101855281546001600160a01b039081168252919092015490811694820194909452600160a01b90930462ffffff16918301919091529293509061289d7f000000000000000000000000000000000000000000000000000000000000000083612d5f565b600484015460018501549192506001600160801b0380821692600160801b9283900482169290041615612aac5760018501546040517fa34123a70000000000000000000000000000000000000000000000000000000081526001600160a01b0385169163a34123a79161292d91600160501b8104600290810b92600160681b909204900b90600090600401614dd2565b6040805180830381600087803b15801561294657600080fd5b505af115801561295a573d6000803e3d6000fd5b505050506040513d601f19601f8201168201806040525081019061297e9190614b99565b5050600185015460009081906001600160a01b0386169063514ea4bf906129bc903090600160501b8104600290810b91600160681b9004900b612e5b565b6040518263ffffffff1660e01b81526004016129d89190614db0565b60a06040518083038186803b1580156129f057600080fd5b505afa158015612a04573d6000803e3d6000fd5b505050506040513d601f19601f82011682018060405250810190612a289190614a51565b50509250925050612a64876002015483038860010160109054906101000a90046001600160801b03166001600160801b0316600160801b612eb5565b84019350612a9d876003015482038860010160109054906101000a90046001600160801b03166001600160801b0316600160801b612eb5565b60028801929092556003870155015b6000806001600160801b038416612ac960608e0160408f01614a07565b6001600160801b031611612aec57612ae760608d0160408e01614a07565b612aee565b835b836001600160801b03168d6060016020810190612b0b9190614a07565b6001600160801b031611612b2e57612b2960808e0160608f01614a07565b612b30565b835b60018901546040517f4f1eb3d80000000000000000000000000000000000000000000000000000000081529294509092506001600160a01b03871691634f1eb3d891612b9c918c91600160501b8104600290810b92600160681b909204900b9088908890600401614cde565b6040805180830381600087803b158015612bb557600080fd5b505af1158015612bc9573d6000803e3d6000fd5b505050506040513d601f19601f82011682018060405250810190612bed9190614a23565b6004890180546fffffffffffffffffffffffffffffffff196001600160801b03918216600160801b878a0384160217168689038216179091556040519281169d50169a508c35907f40d0efd1a53d60ecbf40971b9daf7dc90178c3aadc7aab1765632738fa8b8f0190610c2f908b9086908690614d1b565b60006112a2600283613909565b3390565b6000818152600c6020526040902080546bffffffffffffffffffffffff16600160601b6001600160a01b038516908102919091179091558190612cb882611673565b6001600160a01b03167f8c5be1e5ebec7d5bd14f71427d1e84f3dd0314c0f7b2291e5b200ac8c7c3b92560405160405180910390a45050565b6000612cfc82612c65565b612d0557600080fd5b6000612d1083611673565b9050806001600160a01b0316846001600160a01b03161480612d4b5750836001600160a01b0316612d40846107ac565b6001600160a01b0316145b80610f5c5750610f5c81856126b6565b4290565b600081602001516001600160a01b031682600001516001600160a01b031610612d8757600080fd5b50805160208083015160409384015184516001600160a01b0394851681850152939091168385015262ffffff166060808401919091528351808403820181526080840185528051908301207fff0000000000000000000000000000000000000000000000000000000000000060a085015294901b6bffffffffffffffffffffffff191660a183015260b58201939093527fe34f199b19b2b4f47f68442619d555527d244f78a3297ea89325f843f87b8b5460d5808301919091528251808303909101815260f5909101909152805191012090565b604080516bffffffffffffffffffffffff19606086901b16602080830191909152600285810b60e890811b60348501529085900b901b60378301528251601a818403018152603a90920190925280519101205b9392505050565b6000808060001985870986860292508281109083900303905080612eeb5760008411612ee057600080fd5b508290049050612eae565b808411612ef757600080fd5b6000848688096000868103871696879004966002600389028118808a02820302808a02820302808a02820302808a02820302808a02820302808a02909103029181900381900460010186841190950394909402919094039290920491909117919091029150509392505050565b6040516000906001600160a01b0384169083908381818185875af1925050503d8060008114612faf576040519150601f19603f3d011682016040523d82523d6000602084013e612fb4565b606091505b505090508061085057600080fd5b60006112a282613915565b6000806000806000604051806060016040528087600001516001600160a01b0316815260200187602001516001600160a01b03168152602001876040015162ffffff16815250905061303f7f000000000000000000000000000000000000000000000000000000000000000082612d5f565b91506000826001600160a01b0316633850c7bd6040518163ffffffff1660e01b815260040160e06040518083038186803b15801561307c57600080fd5b505afa158015613090573d6000803e3d6000fd5b505050506040513d601f19601f820116820180604052508101906130b49190614ab2565b505050505050905060006130cb8860800151613919565b905060006130dc8960a00151613919565b90506130f38383838c60c001518d60e00151613c1f565b9750505050816001600160a01b0316633c8a7d8d876060015188608001518960a00151896040518060400160405280888152602001336001600160a01b03168152506040516020016131459190614e0b565b6040516020818303038152906040526040518663ffffffff1660e01b8152600401613174959493929190614c9b565b6040805180830381600087803b15801561318d57600080fd5b505af11580156131a1573d6000803e3d6000fd5b505050506040513d601f19601f820116820180604052508101906131c59190614b99565b610100880151919550935084108015906131e457508561012001518310155b6131ed57600080fd5b509193509193565b826001600160a01b031661320882611673565b6001600160a01b03161461321b57600080fd5b6001600160a01b03821661322e57600080fd5b613239838383610850565b613244600082612c76565b6001600160a01b03831660009081526001602052604090206132669082613ce3565b506001600160a01b03821660009081526001602052604090206132899082613cef565b5061329660028284613cfb565b5080826001600160a01b0316846001600160a01b03167fddf252ad1be2c89b69c2b068fc378daa952ba7f163c4a11628f55a4df523b3ef60405160405180910390a4505050565b600061129f8383613d11565b4690565b60006132f882611673565b905061330681600084610850565b613311600083612c76565b600082815260086020526040902054600260001961010060018416150201909116041561334f57600082815260086020526040812061334f916144dc565b6001600160a01b03811660009081526001602052604090206133719083613ce3565b5061337d600283613d43565b5060405182906000906001600160a01b038416907fddf252ad1be2c89b69c2b068fc378daa952ba7f163c4a11628f55a4df523b3ef908390a45050565b60008080806133c98686613d4f565b909450925050505b9250929050565b6000610f5c848484613d98565b6000908152600c6020526040902080546bffffffffffffffffffffffff19811660016bffffffffffffffffffffffff9283169081019092161790915590565b3b151590565b6001600160a01b03821661343d57600080fd5b61344681612c65565b1561345057600080fd5b61345c60008383610850565b6001600160a01b038216600090815260016020526040902061347e9082613cef565b5061348b60028284613cfb565b5060405181906001600160a01b038416906000907fddf252ad1be2c89b69c2b068fc378daa952ba7f163c4a11628f55a4df523b3ef908290a45050565b6001600160a01b0382166000908152600a602052604090205469ffffffffffffffffffff16806112a25750600d8054600169ffffffffffffffffffff76010000000000000000000000000000000000000000000080840482168381019092160275ffffffffffffffffffffffffffffffffffffffffffff909316929092179092556001600160a01b038085166000908152600a60209081526040808320805469ffffffffffffffffffff191686179055848352600b825291829020865181549085167fffffffffffffffffffffffff000000000000000000000000000000000000000091821617825591870151950180549287015162ffffff16600160a01b027fffffffffffffffffff000000ffffffffffffffffffffffffffffffffffffffff969094169290911691909117939093161790915592915050565b61360e8484846131f5565b61361a84848484613de1565b61241557600080fd5b600061362f8383612d5f565b9050336001600160a01b038216146112a257600080fd5b7f00000000000000000000000000000000000000000000000000000000000000006001600160a01b0316846001600160a01b03161480156136875750804710155b156137a9577f00000000000000000000000000000000000000000000000000000000000000006001600160a01b031663d0e30db0826040518263ffffffff1660e01b81526004016000604051808303818588803b1580156136e757600080fd5b505af11580156136fb573d6000803e3d6000fd5b50505050507f00000000000000000000000000000000000000000000000000000000000000006001600160a01b031663a9059cbb83836040518363ffffffff1660e01b815260040180836001600160a01b0316815260200182815260200192505050602060405180830381600087803b15801561377757600080fd5b505af115801561378b573d6000803e3d6000fd5b505050506040513d60208110156137a157600080fd5b506124159050565b6001600160a01b0383163014156137ca576137c58483836137d6565b612415565b61241584848484613f49565b604080516001600160a01b038481166024830152604480830185905283518084039091018152606490920183526020820180516001600160e01b03167fa9059cbb000000000000000000000000000000000000000000000000000000001781529251825160009485949389169392918291908083835b6020831061386b5780518252601f19909201916020918201910161384c565b6001836020036101000a0380198251168184511680821785525050505050509050019150506000604051808303816000865af19150503d80600081146138cd576040519150601f19603f3d011682016040523d82523d6000602084013e6138d2565b606091505b509150915081801561390057508051158061390057508080602001905160208110156138fd57600080fd5b50515b61261457600080fd5b600061129f8383614084565b5490565b60008060008360020b12613930578260020b613938565b8260020b6000035b9050620d89e881111561394a57600080fd5b60006001821661395e57600160801b613970565b6ffffcb933bd6fad37aa2d162d1a5940015b70ffffffffffffffffffffffffffffffffff16905060028216156139a4576ffff97272373d413259a46990580e213a0260801c5b60048216156139c3576ffff2e50f5f656932ef12357cf3c7fdcc0260801c5b60088216156139e2576fffe5caca7e10e4e61c3624eaa0941cd00260801c5b6010821615613a01576fffcb9843d60f6159c9db58835c9266440260801c5b6020821615613a20576fff973b41fa98c081472e6896dfb254c00260801c5b6040821615613a3f576fff2ea16466c96a3843ec78b326b528610260801c5b6080821615613a5e576ffe5dee046a99a2a811c461f1969c30530260801c5b610100821615613a7e576ffcbe86c7900a88aedcffc83b479aa3a40260801c5b610200821615613a9e576ff987a7253ac413176f2b074cf7815e540260801c5b610400821615613abe576ff3392b0822b70005940c7a398e4b70f30260801c5b610800821615613ade576fe7159475a2c29b7443b29c7fa6e889d90260801c5b611000821615613afe576fd097f3bdfd2022b8845ad8f792aa58250260801c5b612000821615613b1e576fa9f746462d870fdf8a65dc1f90e061e50260801c5b614000821615613b3e576f70d869a156d2a1b890bb3df62baf32f70260801c5b618000821615613b5e576f31be135f97d08fd981231505542fcfa60260801c5b62010000821615613b7f576f09aa508b5b7a84e1c677de54f3e99bc90260801c5b62020000821615613b9f576e5d6af8dedb81196699c329225ee6040260801c5b62040000821615613bbe576d2216e584f5fa1ea926041bedfe980260801c5b62080000821615613bdb576b048a170391f7dc42444e8fa20260801c5b60008460020b1315613bf6578060001981613bf257fe5b0490505b640100000000810615613c0a576001613c0d565b60005b60ff16602082901c0192505050919050565b6000836001600160a01b0316856001600160a01b03161115613c3f579293925b846001600160a01b0316866001600160a01b031611613c6a57613c6385858561409c565b9050613cda565b836001600160a01b0316866001600160a01b03161015613ccc576000613c9187868661409c565b90506000613ca08789866140ff565b9050806001600160801b0316826001600160801b031610613cc15780613cc3565b815b92505050613cda565b613cd78585846140ff565b90505b95945050505050565b600061129f838361413c565b600061129f8383614202565b6000610f5c84846001600160a01b03851661424c565b81546000908210613d2157600080fd5b826000018281548110613d3057fe5b9060005260206000200154905092915050565b600061129f83836142e3565b815460009081908310613d6157600080fd5b6000846000018481548110613d7257fe5b906000526020600020906002020190508060000154816001015492509250509250929050565b600082815260018401602052604081205480613db357600080fd5b846000016001820381548110613dc557fe5b9060005260206000209060020201600101549150509392505050565b6000613df5846001600160a01b0316613424565b613e0157506001610f5c565b6000613f0f630a85bd0160e11b613e16612c72565b88878760405160240180856001600160a01b03168152602001846001600160a01b0316815260200183815260200180602001828103825283818151815260200191508051906020019080838360005b83811015613e7d578181015183820152602001613e65565b50505050905090810190601f168015613eaa5780820380516001836020036101000a031916815260200191505b5095505050505050604051602081830303815290604052906001600160e01b0319166020820180516001600160e01b03838183161783525050505060405180606001604052806032815260200161504b603291396001600160a01b03881691906143b7565b90506000818060200190516020811015613f2857600080fd5b50516001600160e01b031916630a85bd0160e11b1492505050949350505050565b604080516001600160a01b0385811660248301528481166044830152606480830185905283518084039091018152608490920183526020820180516001600160e01b03167f23b872dd00000000000000000000000000000000000000000000000000000000178152925182516000948594938a169392918291908083835b60208310613fe65780518252601f199092019160209182019101613fc7565b6001836020036101000a0380198251168184511680821785525050505050509050019150506000604051808303816000865af19150503d8060008114614048576040519150601f19603f3d011682016040523d82523d6000602084013e61404d565b606091505b509150915081801561407b57508051158061407b575080806020019051602081101561407857600080fd5b50515b6122ba57600080fd5b60009081526001919091016020526040902054151590565b6000826001600160a01b0316846001600160a01b031611156140bc579192915b60006140df856001600160a01b0316856001600160a01b0316600160601b612eb5565b9050613cda6140fa84838888036001600160a01b0316612eb5565b6143c6565b6000826001600160a01b0316846001600160a01b0316111561411f579192915b610f5c6140fa83600160601b8787036001600160a01b0316612eb5565b600081815260018301602052604081205480156141f8578354600019808301919081019060009087908390811061416f57fe5b906000526020600020015490508087600001848154811061418c57fe5b6000918252602080832090910192909255828152600189810190925260409020908401905586548790806141bc57fe5b600190038181906000526020600020016000905590558660010160008781526020019081526020016000206000905560019450505050506112a2565b60009150506112a2565b600061420e8383614084565b614244575081546001818101845560008481526020808220909301849055845484825282860190935260409020919091556112a2565b5060006112a2565b6000828152600184016020526040812054806142b1575050604080518082018252838152602080820184815286546001818101895560008981528481209551600290930290950191825591519082015586548684528188019092529290912055612eae565b828560000160018303815481106142c457fe5b9060005260206000209060020201600101819055506000915050612eae565b600081815260018301602052604081205480156141f8578354600019808301919081019060009087908390811061431657fe5b906000526020600020906002020190508087600001848154811061433657fe5b60009182526020808320845460029093020191825560019384015491840191909155835482528983019052604090209084019055865487908061437557fe5b60008281526020808220600260001990940193840201828155600190810183905592909355888152898201909252604082209190915594506112a29350505050565b6060610f5c84846000856143dc565b806001600160801b038116811461071157600080fd5b6060824710156143eb57600080fd5b6143f485613424565b6143fd57600080fd5b600080866001600160a01b031685876040518082805190602001908083835b6020831061443b5780518252601f19909201916020918201910161441c565b6001836020036101000a03801982511681845116808217855250505050505090500191505060006040518083038185875af1925050503d806000811461449d576040519150601f19603f3d011682016040523d82523d6000602084013e6144a2565b606091505b50915091506144b28282866144bd565b979650505050505050565b606083156144cc575081612eae565b8251156102c55782518084602001fd5b50805460018160011615610100020316600290046000825580601f106145025750614520565b601f0160209004906000526020600020908101906145209190614523565b50565b5b808211156145385760008155600101614524565b5090565b803561071181614ff4565b805161ffff8116811461071157600080fd5b803562ffffff8116811461071157600080fd5b60006020828403121561457d578081fd5b8135612eae81614ff4565b6000806040838503121561459a578081fd5b82356145a581614ff4565b915060208301356145b581614ff4565b809150509250929050565b600080600080608085870312156145d5578182fd5b84356145e081614ff4565b935060208501356145f081614ff4565b92506145fe60408601614559565b9150606085013561460e81614ff4565b939692955090935050565b60008060006060848603121561462d578081fd5b833561463881614ff4565b9250602084013561464881614ff4565b929592945050506040919091013590565b6000806000806080858703121561466e578182fd5b843561467981614ff4565b9350602085013561468981614ff4565b925060408501359150606085013567ffffffffffffffff8111156146ab578182fd5b8501601f810187136146bb578182fd5b80356146ce6146c982614fa6565b614f82565b8181528860208385010111156146e2578384fd5b81602084016020830137908101602001929092525092959194509250565b60008060408385031215614712578182fd5b823561471d81614ff4565b915060208301356145b581615009565b6000806040838503121561473f578182fd5b823561474a81614ff4565b946020939093013593505050565b60008060006060848603121561476c578081fd5b833561477781614ff4565b925060208401359150604084013561478e81614ff4565b809150509250925092565b60008060008060008060c087890312156147b1578384fd5b86356147bc81614ff4565b9550602087013594506040870135935060608701356147da8161503b565b9598949750929560808101359460a0909101359350915050565b60008060208385031215614806578182fd5b823567ffffffffffffffff8082111561481d578384fd5b818501915085601f830112614830578384fd5b81358181111561483e578485fd5b8660208083028501011115614851578485fd5b60209290920196919550909350505050565b600060208284031215614874578081fd5b81356001600160e01b031981168114612eae578182fd5b60006020828403121561489c578081fd5b8135612eae81615017565b6000602082840312156148b8578081fd5b815167ffffffffffffffff8111156148ce578182fd5b8201601f810184136148de578182fd5b80516148ec6146c982614fa6565b818152856020838501011115614900578384fd5b613cda826020830160208601614fc8565b600060808284031215614922578081fd5b50919050565b600060a08284031215614922578081fd5b600060c08284031215614922578081fd5b6000818303608081121561495c578182fd5b6040516040810167ffffffffffffffff828210818311171561497a57fe5b81604052606084121561498b578485fd5b60a083019350818410818511171561499f57fe5b5082604052843592506149b183614ff4565b9182526020840135916149c383614ff4565b8260608301526149d560408601614559565b608083015281526149e86060850161453c565b6020820152949350505050565b60006101608284031215614922578081fd5b600060208284031215614a18578081fd5b8135612eae81615026565b60008060408385031215614a35578182fd5b8251614a4081615026565b60208401519092506145b581615026565b600080600080600060a08688031215614a68578283fd5b8551614a7381615026565b8095505060208601519350604086015192506060860151614a9381615026565b6080870151909250614aa481615026565b809150509295509295909350565b600080600080600080600060e0888a031215614acc578485fd5b8751614ad781614ff4565b6020890151909750614ae881615017565b9550614af660408901614547565b9450614b0460608901614547565b9350614b1260808901614547565b925060a0880151614b228161503b565b60c0890151909250614b3381615009565b8091505092959891949750929550565b600060208284031215614b54578081fd5b61129f82614559565b600060208284031215614b6e578081fd5b5035919050565b60008060408385031215614b87578182fd5b8235915060208301356145b581614ff4565b60008060408385031215614bab578182fd5b505080516020909101519092909150565b60008060008060608587031215614bd1578182fd5b8435935060208501359250604085013567ffffffffffffffff80821115614bf6578384fd5b818701915087601f830112614c09578384fd5b813581811115614c17578485fd5b886020828501011115614c28578485fd5b95989497505060200194505050565b60008151808452614c4f816020860160208601614fc8565b601f01601f19169290920160200192915050565b60020b9052565b6001600160801b03169052565b6000828483379101908152919050565b6001600160a01b0391909116815260200190565b60006001600160a01b03871682528560020b60208301528460020b60408301526001600160801b038416606083015260a060808301526144b260a0830184614c37565b6001600160a01b03959095168552600293840b60208601529190920b60408401526001600160801b03918216606084015216608082015260a00190565b6001600160a01b039390931683526001600160801b03918216602084015216604082015260600190565b6000602080830181845280855180835260408601915060408482028701019250838701855b82811015614d9857603f19888603018452614d86858351614c37565b94509285019290850190600101614d6a565b5092979650505050505050565b901515815260200190565b90815260200190565b6001600160a01b03929092168252602082015260400190565b600293840b81529190920b60208201526001600160801b03909116604082015260600190565b60006020825261129f6020830184614c37565b815180516001600160a01b03908116835260208083015182168185015260409283015162ffffff1692840192909252920151909116606082015260800190565b6001600160801b039390931683526020830191909152604082015260600190565b9384526001600160801b039290921660208401526040830152606082015260800190565b918252602082015260400190565b6bffffffffffffffffffffffff8d1681526001600160a01b038c811660208301528b811660408301528a16606082015262ffffff89166080820152600288900b60a08201526101808101614ef560c0830189614c63565b614f0260e0830188614c6a565b8561010083015284610120830152614f1e610140830185614c6a565b614f2c610160830184614c6a565b9d9c50505050505050505050505050565b6000808335601e19843603018112614f53578283fd5b83018035915067ffffffffffffffff821115614f6d578283fd5b6020019150368190038213156133d157600080fd5b60405181810167ffffffffffffffff81118282101715614f9e57fe5b604052919050565b600067ffffffffffffffff821115614fba57fe5b50601f01601f191660200190565b60005b83811015614fe3578181015183820152602001614fcb565b838111156124155750506000910152565b6001600160a01b038116811461452057600080fd5b801515811461452057600080fd5b8060020b811461452057600080fd5b6001600160801b038116811461452057600080fd5b60ff8116811461452057600080fdfe4552433732313a207472616e7366657220746f206e6f6e20455243373231526563656976657220696d706c656d656e7465724552433732313a206f776e657220717565727920666f72206e6f6e6578697374656e7420746f6b656ea164736f6c6343000706000a",
  "linkReferences": {},
  "deployedLinkReferences": {}
}