{
  "_format": "hh-sol-artifact-1",
  "contractName": "NonfungibleTokenPositionDescriptor",
  "sourceName": "contracts/uniswap/NonfungibleTokenPositionDescriptor.sol",
  "abi": [
    {
      "inputs": [
        {
          "internalType": "address",
          "name": "_WETH9",
          "type": "address"
        },
        {
          "internalType": "bytes32",
          "name": "_nativeCurrencyLabelBytes",
          "type": "bytes32"
        }
      ],
      "stateMutability": "nonpayable",
      "type": "constructor"
    },
    {
      "inputs": [],
      "name": "WETH9",
      "outputs": [
        {
          "internalType": "address",
          "name": "",
          "type": "address"
        }
      ],
      "stateMutability": "view",
      "type": "function"
    },
    {
      "inputs": [
        {
          "internalType": "address",
          "name": "token0",
          "type": "address"
        },
        {
          "internalType": "address",
          "name": "token1",
          "type": "address"
        },
        {
          "internalType": "uint256",
          "name": "chainId",
          "type": "uint256"
        }
      ],
      "name": "flipRatio",
      "outputs": [
        {
          "internalType": "bool",
          "name": "",
          "type": "bool"
        }
      ],
      "stateMutability": "view",
      "type": "function"
    },
    {
      "inputs": [],
      "name": "nativeCurrencyLabel",
      "outputs": [
        {
          "internalType": "string",
          "name": "",
          "type": "string"
        }
      ],
      "stateMutability": "view",
      "type": "function"
    },
    {
      "inputs": [],
      "name": "nativeCurrencyLabelBytes",
      "outputs": [
        {
          "internalType": "bytes32",
          "name": "",
          "type": "bytes32"
        }
      ],
      "stateMutability": "view",
      "type": "function"
    },
    {
      "inputs": [
        {
          "internalType": "address",
          "name": "token",
          "type": "address"
        },
        {
          "internalType": "uint256",
          "name": "chainId",
          "type": "uint256"
        }
      ],
      "name": "tokenRatioPriority",
      "outputs": [
        {
          "internalType": "int256",
          "name": "",
          "type": "int256"
        }
      ],
      "stateMutability": "view",
      "type": "function"
    },
    {
      "inputs": [
        {
          "internalType": "contract INonfungiblePositionManager",
          "name": "positionManager",
          "type": "address"
        },
        {
          "internalType": "uint256",
          "name": "tokenId",
          "type": "uint256"
        }
      ],
      "name": "tokenURI",
      "outputs": [
        {
          "internalType": "string",
          "name": "",
          "type": "string"
        }
      ],
      "stateMutability": "view",
      "type": "function"
    }
  ],
  "bytecode": "0x60c060405234801561001057600080fd5b5060405161128f38038061128f83398101604081905261002f9161004a565b60609190911b6001600160601b03191660805260a052610082565b6000806040838503121561005c578182fd5b82516001600160a01b0381168114610072578283fd5b6020939093015192949293505050565b60805160601c60a0516111ce6100c1600039806102325280610266528061031a525080610107528061014c52806105d5528061062952506111ce6000f3fe608060405234801561001057600080fd5b50600436106100725760003560e01c8063a18246e211610050578063a18246e2146100d5578063b7af3cdc146100dd578063e9dc6375146100f257610072565b80634aa4a4fc146100775780637e5af771146100955780639d7b0ea8146100b5575b600080fd5b61007f610105565b60405161008c9190611016565b60405180910390f35b6100a86100a3366004610d1c565b610129565b60405161008c919061102a565b6100c86100c3366004610d5c565b610148565b60405161008c9190611035565b6100c8610230565b6100e5610254565b60405161008c919061103e565b6100e5610100366004610d5c565b610392565b7f000000000000000000000000000000000000000000000000000000000000000081565b60006101358383610148565b61013f8584610148565b13949350505050565b60007f00000000000000000000000000000000000000000000000000000000000000006001600160a01b0316836001600160a01b0316141561018d575060021961022a565b8162aa36a71415610226576001600160a01b0383166101ae5750600661022a565b6001600160a01b0383166101c45750600561022a565b6001600160a01b0383166101da5750600461022a565b6001600160a01b0383166101f05750600361022a565b6001600160a01b038316610207575060031961022a565b6001600160a01b03831661021e575060041961022a565b50600061022a565b5060005b92915050565b7f000000000000000000000000000000000000000000000000000000000000000081565b606060005b6020811080156102b957507f0000000000000000000000000000000000000000000000000000000000000000816020811061029057fe5b1a60f81b7fff000000000000000000000000000000000000000000000000000000000000001615155b156102c657600101610259565b60008167ffffffffffffffff811180156102df57600080fd5b506040519080825280601f01601f19166020018201604052801561030a576020820181803683370190505b50905060005b8281101561038b577f0000000000000000000000000000000000000000000000000000000000000000816020811061034457fe5b1a60f81b82828151811061035457fe5b60200101907effffffffffffffffffffffffffffffffffffffffffffffffffffffffffffff1916908160001a905350600101610310565b5091505090565b60606000806000806000876001600160a01b03166399fbab88886040518263ffffffff1660e01b81526004016103c89190611035565b6101806040518083038186803b1580156103e157600080fd5b505afa1580156103f5573d6000803e3d6000fd5b505050506040513d601f19601f820116820180604052508101906104199190610ee1565b505050505096509650965096509650505060006104d7896001600160a01b031663c45a01556040518163ffffffff1660e01b815260040160206040518083038186803b15801561046857600080fd5b505afa15801561047c573d6000803e3d6000fd5b505050506040513d601f19601f820116820180604052508101906104a09190610cf9565b6040518060600160405280896001600160a01b03168152602001886001600160a01b031681526020018762ffffff168152506108a2565b905060006104e887876100a361099e565b9050600081156104f857876104fa565b865b90506000821561050a578761050c565b885b90506000846001600160a01b0316633850c7bd6040518163ffffffff1660e01b815260040160e06040518083038186803b15801561054957600080fd5b505afa15801561055d573d6000803e3d6000fd5b505050506040513d601f19601f820116820180604052508101906105819190610e38565b505050505091505073__$2a3b8736d1a1c8bb027729408c45042c82$__63c49917d7604051806101c001604052808f8152602001866001600160a01b03168152602001856001600160a01b031681526020017f00000000000000000000000000000000000000000000000000000000000000006001600160a01b0316876001600160a01b03161461061a57610615876109a2565b610622565b610622610254565b81526020017f00000000000000000000000000000000000000000000000000000000000000006001600160a01b0316866001600160a01b03161461066e57610669866109a2565b610676565b610676610254565b8152602001866001600160a01b031663313ce5676040518163ffffffff1660e01b815260040160206040518083038186803b1580156106b457600080fd5b505afa1580156106c8573d6000803e3d6000fd5b505050506040513d601f19601f820116820180604052508101906106ec9190610ec7565b60ff168152602001856001600160a01b031663313ce5676040518163ffffffff1660e01b815260040160206040518083038186803b15801561072d57600080fd5b505afa158015610741573d6000803e3d6000fd5b505050506040513d601f19601f820116820180604052508101906107659190610ec7565b60ff16815260200187151581526020018a60020b81526020018960020b81526020018460020b8152602001886001600160a01b031663d0c93a7c6040518163ffffffff1660e01b815260040160206040518083038186803b1580156107c957600080fd5b505afa1580156107dd573d6000803e3d6000fd5b505050506040513d601f19601f820116820180604052508101906108019190610d87565b60020b81526020018b62ffffff168152602001886001600160a01b03168152506040518263ffffffff1660e01b815260040161083d9190611051565b60006040518083038186803b15801561085557600080fd5b505af4158015610869573d6000803e3d6000fd5b505050506040513d6000823e601f3d908101601f191682016040526108919190810190610da1565b9d9c50505050505050505050505050565b600081602001516001600160a01b031682600001516001600160a01b0316106108ca57600080fd5b50805160208083015160409384015184516001600160a01b0394851681850152939091168385015262ffffff166060808401919091528351808403820181526080840185528051908301207fff0000000000000000000000000000000000000000000000000000000000000060a085015294901b6bffffffffffffffffffffffff191660a183015260b58201939093527fe34f199b19b2b4f47f68442619d555527d244f78a3297ea89325f843f87b8b5460d5808301919091528251808303909101815260f5909101909152805191012090565b4690565b60408051600481526024810182526020810180517bffffffffffffffffffffffffffffffffffffffffffffffffffffffff167f95d89b41000000000000000000000000000000000000000000000000000000001781529151815160609360009384936001600160a01b03881693919290918291908083835b60208310610a395780518252601f199092019160209182019101610a1a565b6001836020036101000a038019825116818451168082178552505050505050905001915050600060405180830381855afa9150503d8060008114610a99576040519150601f19603f3d011682016040523d82523d6000602084013e610a9e565b606091505b509150915081610ae3576040518060400160405280600781526020017f554e4b4e4f574e00000000000000000000000000000000000000000000000000815250610aec565b610aec81610af6565b925050505b919050565b6060815160001415610b175750604080516020810190915260008152610af1565b6040825110610bec57818060200190516020811015610b3557600080fd5b8101908080516040519392919084640100000000821115610b5557600080fd5b908301906020820185811115610b6a57600080fd5b8251640100000000811182820188101715610b8457600080fd5b82525081516020918201929091019080838360005b83811015610bb1578181015183820152602001610b99565b50505050905090810190601f168015610bde5780820380516001836020036101000a031916815260200191505b506040525050509050610af1565b60408051602080825281830190925260009160208201818036833701905050905060005b602081108015610c205750835181105b15610c7f57838181518110610c3157fe5b602001015160f81c60f81b828281518110610c4857fe5b60200101907effffffffffffffffffffffffffffffffffffffffffffffffffffffffffffff1916908160001a905350600101610c10565b5092915050565b8051610af1816111a9565b8051600281900b8114610af157600080fd5b80516fffffffffffffffffffffffffffffffff81168114610af157600080fd5b805161ffff81168114610af157600080fd5b805162ffffff81168114610af157600080fd5b805160ff81168114610af157600080fd5b600060208284031215610d0a578081fd5b8151610d15816111a9565b9392505050565b600080600060608486031215610d30578182fd5b8335610d3b816111a9565b92506020840135610d4b816111a9565b929592945050506040919091013590565b60008060408385031215610d6e578182fd5b8235610d79816111a9565b946020939093013593505050565b600060208284031215610d98578081fd5b610d1582610c91565b600060208284031215610db2578081fd5b815167ffffffffffffffff80821115610dc9578283fd5b818401915084601f830112610ddc578283fd5b815181811115610de857fe5b604051601f8201601f191681016020018381118282101715610e0657fe5b604052818152838201602001871015610e1d578485fd5b610e2e826020830160208701611179565b9695505050505050565b600080600080600080600060e0888a031215610e52578283fd5b8751610e5d816111a9565b9650610e6b60208901610c91565b9550610e7960408901610cc3565b9450610e8760608901610cc3565b9350610e9560808901610cc3565b9250610ea360a08901610ce8565b915060c08801518015158114610eb7578182fd5b8091505092959891949750929550565b600060208284031215610ed8578081fd5b610d1582610ce8565b6000806000806000806000806000806000806101808d8f031215610f03578485fd5b8c516bffffffffffffffffffffffff81168114610f1e578586fd5b9b50610f2c60208e01610c86565b9a50610f3a60408e01610c86565b9950610f4860608e01610c86565b9850610f5660808e01610cd5565b9750610f6460a08e01610c91565b9650610f7260c08e01610c91565b9550610f8060e08e01610ca3565b94506101008d015193506101208d01519250610f9f6101408e01610ca3565b9150610fae6101608e01610ca3565b90509295989b509295989b509295989b565b6001600160a01b03169052565b15159052565b60020b9052565b60008151808452610ff2816020860160208601611179565b601f01601f19169290920160200192915050565b62ffffff169052565b60ff169052565b6001600160a01b0391909116815260200190565b901515815260200190565b90815260200190565b600060208252610d156020830184610fda565b6000602082528251602083015260208301516110706040840182610fc0565b5060408301516110836060840182610fc0565b5060608301516101c08060808501526110a06101e0850183610fda565b91506080850151601f198584030160a08601526110bd8382610fda565b92505060a08501516110d260c086018261100f565b5060c08501516110e560e086018261100f565b5060e08501516101006110fa81870183610fcd565b860151905061012061110e86820183610fd3565b860151905061014061112286820183610fd3565b860151905061016061113686820183610fd3565b860151905061018061114a86820183610fd3565b86015190506101a061115e86820183611006565b860151905061116f85830182610fc0565b5090949350505050565b60005b8381101561119457818101518382015260200161117c565b838111156111a3576000848401525b50505050565b6001600160a01b03811681146111be57600080fd5b5056fea164736f6c6343000706000a",
  "linkReferences": {
    "contracts/uniswap/libraries/NFTDescriptor.sol": {
      "NFTDescriptor": [
        {
          "length": 20,
          "start": 1612
        }
      ]
    }
  },
  "deployedLinkReferences": {
    "contracts/uniswap/libraries/NFTDescriptor.sol": {
      "NFTDescriptor": [
        {
          "length": 20,
          "start": 1419
        }
      ]
    }
  }
}