{
  "_format": "hh-sol-artifact-1",
  "contractName": "NFTDescriptor",
  "sourceName": "contracts/uniswap/libraries/NFTDescriptor.sol",
  "abi": [
    {
      "inputs": [
        {
          "components": [
            {
              "internalType": "uint256",
              "name": "tokenId",
              "type": "uint256"
            },
            {
              "internalType": "address",
              "name": "quoteTokenAddress",
              "type": "address"
            },
            {
              "internalType": "address",
              "name": "baseTokenAddress",
              "type": "address"
            },
            {
              "internalType": "string",
              "name": "quoteTokenSymbol",
              "type": "string"
            },
            {
              "internalType": "string",
              "name": "baseTokenSymbol",
              "type": "string"
            },
            {
              "internalType": "uint8",
              "name": "quoteTokenDecimals",
              "type": "uint8"
            },
            {
              "internalType": "uint8",
              "name": "baseTokenDecimals",
              "type": "uint8"
            },
            {
              "internalType": "bool",
              "name": "flipRatio",
              "type": "bool"
            },
            {
              "internalType": "int24",
              "name": "tickLower",
              "type": "int24"
            },
            {
              "internalType": "int24",
              "name": "tickUpper",
              "type": "int24"
            },
            {
              "internalType": "int24",
              "name": "tickCurrent",
              "type": "int24"
            },
            {
              "internalType": "int24",
              "name": "tickSpacing",
              "type": "int24"
            },
            {
              "internalType": "uint24",
              "name": "fee",
              "type": "uint24"
            },
            {
              "internalType": "address",
              "name": "poolAddress",
              "type": "address"
            }
          ],
          "internalType": "struct NFTDescriptor.ConstructTokenURIParams",
          "name": "params",
          "type": "tuple"
        }
      ],
      "name": "constructTokenURI",
      "outputs": [
        {
          "internalType": "string",
          "name": "",
          "type": "string"
        }
      ],
      "stateMutability": "pure",
      "type": "function"
    }
  ],
  "bytecode": "0x61682e62000027600b82828239805160001a60731461001a57fe5b30600052607381538281f3fe73000000000000000000000000000000000000000030146080604052600436106100355760003560e01c8063c49917d71461003a575b600080fd5b61004d610048366004614730565b610063565b60405161005a9190614ee0565b60405180910390f35b6060600061007e83610079856101800151610170565b6103d1565b905060006100b2610092856060015161048c565b61009f866080015161048c565b6100ad876101a001516106ac565b6106cf565b905060006101006100c68660000151610701565b6100d3876080015161048c565b6100e088602001516106ac565b6100ed89604001516106ac565b6100fb8a6101800151610170565b610810565b9050600061011561011087610846565b610b10565b9050610145848484846040516020016101319493929190614b24565b604051602081830303815290604052610b10565b6040516020016101559190614e9b565b6040516020818303038152906040529450505050505b919050565b606062ffffff82166101b6575060408051808201909152600281527f3025000000000000000000000000000000000000000000000000000000000000602082015261016b565b816000805b62ffffff8316156102065760ff8116156101d7576001016101f0565b600a62ffffff84160662ffffff166000146101f0576001015b600190910190600a62ffffff84160492506101bb565b61020e61461d565b60006005841061030357600060046102298660ff8716610f16565b1015610236576001610239565b60005b60ff908116915061024d9085166001610f16565b610258866005610f16565b106102845761027f61026e60ff86166001610f16565b610279876005610f16565b90610f16565b610287565b60005b60ff8516608085018190529092506102a6906001906102799085610f2b565b60ff90811660a085015260808401516102cd9183916102c791166001610f16565b90610f2b565b60ff90811660408501526102f59082906102c7906102ee9088166001610f2b565b8590610f2b565b60ff16602084015250610373565b61030e600585610f16565b60026080840181905290915061032c90600190610279908490610f2b565b60ff90811660a084015261034e906103479085166002610f2b565b8290610f2b565b60ff1660208301819052610363906002610f16565b60ff166040830152600160c08301525b6103926103838560ff8616610f16565b62ffffff891690600a0a610f3d565b8252600160e0830152600484116103aa5760006103b5565b6103b5846004610f16565b60ff1660608301526103c682610f5c565b979650505050505050565b6060816103e1846060015161048c565b6103ee856080015161048c565b6104278660e00151156104065786610120015161040d565b8661010001515b8761016001518860c001518960a001518a60e0015161126c565b6104608760e001511561043f57876101000151610446565b8761012001515b8861016001518960c001518a60a001518b60e0015161126c565b604051602001610474959493929190614c4b565b60405160208183030381529060405290505b92915050565b6060816000805b82518160ff16101561050c57828160ff16815181106104ae57fe5b6020910101517fff00000000000000000000000000000000000000000000000000000000000000167f22000000000000000000000000000000000000000000000000000000000000001415610504576001909101905b600101610493565b5060ff8116156106a45760008160ff1683510167ffffffffffffffff8111801561053557600080fd5b506040519080825280601f01601f191660200182016040528015610560576020820181803683370190505b5090506000805b84518160ff16101561069757848160ff168151811061058257fe5b6020910101517fff00000000000000000000000000000000000000000000000000000000000000167f22000000000000000000000000000000000000000000000000000000000000001415610634577f5c0000000000000000000000000000000000000000000000000000000000000083838060010194508151811061060457fe5b60200101907effffffffffffffffffffffffffffffffffffffffffffffffffffffffffffff1916908160001a9053505b848160ff168151811061064357fe5b602001015160f81c60f81b83838060010194508151811061066057fe5b60200101907effffffffffffffffffffffffffffffffffffffffffffffffffffffffffffff1916908160001a905350600101610567565b508194505050505061016b565b509192915050565b606061048673ffffffffffffffffffffffffffffffffffffffff83166014611427565b6060838383866040516020016106e894939291906149a1565b60405160208183030381529060405290505b9392505050565b606081610742575060408051808201909152600181527f3000000000000000000000000000000000000000000000000000000000000000602082015261016b565b8160005b811561075a57600101600a82049150610746565b60008167ffffffffffffffff8111801561077357600080fd5b506040519080825280601f01601f19166020018201604052801561079e576020820181803683370190505b50859350905060001982015b831561080757600a840660300160f81b828280600190039350815181106107cd57fe5b60200101907effffffffffffffffffffffffffffffffffffffffffffffffffffffffffffff1916908160001a905350600a840493506107aa565b50949350505050565b6060838584848960405160200161082b959493929190614d68565b60405160208183030381529060405290505b95945050505050565b60606000604051806102a0016040528061086385602001516106ac565b815260200161087585604001516106ac565b8152602001846101a0015173ffffffffffffffffffffffffffffffffffffffff16815260200184606001518152602001846080015181526020016108bd856101800151610170565b815260200184610100015160020b815260200184610120015160020b815260200184610160015160020b81526020016109068561010001518661012001518761014001516115cb565b60000b81526020018460000151815260200161093d856020015173ffffffffffffffffffffffffffffffffffffffff166088611602565b8152602001610967856040015173ffffffffffffffffffffffffffffffffffffffff166088611602565b8152602001610991856020015173ffffffffffffffffffffffffffffffffffffffff166000611602565b81526020016109bb856040015173ffffffffffffffffffffffffffffffffffffffff166000611602565b81526020016109fb6109ed866020015173ffffffffffffffffffffffffffffffffffffffff1660108860000151611611565b600060ff6010610112611631565b8152602001610a3b610a2d866040015173ffffffffffffffffffffffffffffffffffffffff1660108860000151611611565b600060ff60646101e4611631565b8152602001610a6d6109ed866020015173ffffffffffffffffffffffffffffffffffffffff1660208860000151611611565b8152602001610a9f610a2d866040015173ffffffffffffffffffffffffffffffffffffffff1660208860000151611611565b8152602001610ad16109ed866020015173ffffffffffffffffffffffffffffffffffffffff1660308860000151611611565b8152602001610b03610a2d866040015173ffffffffffffffffffffffffffffffffffffffff1660308860000151611611565b905290506106fa81611679565b805160609080610b3057505060408051602081019091526000815261016b565b6004600360028301040260008167ffffffffffffffff81118015610b5357600080fd5b506040519080825280601f01601f191660200182016040528015610b7e576020820181803683370190505b5090506000805b84821015610dd0576000878381518110610b9b57fe5b016020015160019093019260f81c905085831015610bd0576008888481518110610bc157fe5b016020015160f81c901b60ff16175b60019092019185831015610bfb576010888481518110610bec57fe5b016020015160f81c901b60ff16175b6040805160608101825281815260019094019390615b016020830139601282901c603f1681518110610c2957fe5b602001015160f81c60f81b848381518110610c4057fe5b60200101907effffffffffffffffffffffffffffffffffffffffffffffffffffffffffffff1916908160001a905350604051806060016040528060408152602001615b0160409139600c82901c603f1681518110610c9a57fe5b602001015160f81c60f81b848360010181518110610cb457fe5b60200101907effffffffffffffffffffffffffffffffffffffffffffffffffffffffffffff1916908160001a905350604051806060016040528060408152602001615b0160409139600682901c603f1681518110610d0e57fe5b602001015160f81c60f81b848360020181518110610d2857fe5b60200101907effffffffffffffffffffffffffffffffffffffffffffffffffffffffffffff1916908160001a905350604051806060016040528060408152602001615b016040913981603f1681518110610d7e57fe5b602001015160f81c60f81b848360030181518110610d9857fe5b60200101907effffffffffffffffffffffffffffffffffffffffffffffffffffffffffffff1916908160001a90535050600401610b85565b6003850660011415610e9f577f3d00000000000000000000000000000000000000000000000000000000000000836002860381518110610e0c57fe5b60200101907effffffffffffffffffffffffffffffffffffffffffffffffffffffffffffff1916908160001a9053507f3d00000000000000000000000000000000000000000000000000000000000000836001860381518110610e6b57fe5b60200101907effffffffffffffffffffffffffffffffffffffffffffffffffffffffffffff1916908160001a905350610f0b565b6003850660021415610f0b577f3d00000000000000000000000000000000000000000000000000000000000000836001860381518110610edb57fe5b60200101907effffffffffffffffffffffffffffffffffffffffffffffffffffffffffffff1916908160001a9053505b509095945050505050565b600082821115610f2557600080fd5b50900390565b6000828201838110156106fa57600080fd5b6000808211610f4b57600080fd5b818381610f5457fe5b049392505050565b60606000826020015160ff1667ffffffffffffffff81118015610f7e57600080fd5b506040519080825280601f01601f191660200182016040528015610fa9576020820181803683370190505b5090508260e0015115611017577f250000000000000000000000000000000000000000000000000000000000000081600183510381518110610fe757fe5b60200101907effffffffffffffffffffffffffffffffffffffffffffffffffffffffffffff1916908160001a9053505b8260c00151156110dc577f30000000000000000000000000000000000000000000000000000000000000008160008151811061104f57fe5b60200101907effffffffffffffffffffffffffffffffffffffffffffffffffffffffffffff1916908160001a9053507f2e00000000000000000000000000000000000000000000000000000000000000816001815181106110ac57fe5b60200101907effffffffffffffffffffffffffffffffffffffffffffffffffffffffffffff1916908160001a9053505b608083015160ff165b60a08401516110f89060ff166001610f2b565b81101561114757603060f81b82828151811061111057fe5b60200101907effffffffffffffffffffffffffffffffffffffffffffffffffffffffffffff1916908160001a9053506001016110e5565b505b825115610486576000836060015160ff161180156111745750826060015160ff16836040015160ff16145b156111eb5760408301805160ff6000198201811690925282517f2e00000000000000000000000000000000000000000000000000000000000000928492169081106111bb57fe5b60200101907effffffffffffffffffffffffffffffffffffffffffffffffffffffffffffff1916908160001a9053505b82516111fd90603090600a9006610f2b565b60f81b818460400180518091906001900360ff1660ff1681525060ff168151811061122457fe5b60200101907effffffffffffffffffffffffffffffffffffffffffffffffffffffffffffff1916908160001a905350600a836000018181518161126357fe5b04905250611149565b606084600281900b7ffffffffffffffffffffffffffffffffffffffffffffffffffffffffffff276188161129c57fe5b050260020b8660020b141561132a5781156112ec576040518060400160405280600381526020017f4d41580000000000000000000000000000000000000000000000000000000000815250611323565b6040518060400160405280600381526020017f4d494e00000000000000000000000000000000000000000000000000000000008152505b905061083d565b84600281900b620d89e88161133b57fe5b050260020b8660020b14156113c557811561138b576040518060400160405280600381526020017f4d494e0000000000000000000000000000000000000000000000000000000000815250611323565b5060408051808201909152600381527f4d41580000000000000000000000000000000000000000000000000000000000602082015261083d565b60006113d087611926565b9050821561141457611411780100000000000000000000000000000000000000000000000073ffffffffffffffffffffffffffffffffffffffff8316610f3d565b90505b61141f818686611c39565b91505061083d565b606060008260020260020167ffffffffffffffff8111801561144857600080fd5b506040519080825280601f01601f191660200182016040528015611473576020820181803683370190505b5090507f3000000000000000000000000000000000000000000000000000000000000000816000815181106114a457fe5b60200101907effffffffffffffffffffffffffffffffffffffffffffffffffffffffffffff1916908160001a9053507f78000000000000000000000000000000000000000000000000000000000000008160018151811061150157fe5b60200101907effffffffffffffffffffffffffffffffffffffffffffffffffffffffffffff1916908160001a905350600160028402015b60018111156115bf577f303132333435363738396162636465660000000000000000000000000000000085600f166010811061157057fe5b1a60f81b82828151811061158057fe5b60200101907effffffffffffffffffffffffffffffffffffffffffffffffffffffffffffff1916908160001a90535060049490941c9360001901611538565b5083156106fa57600080fd5b60008360020b8260020b12156115e457506000196106fa565b8260020b8260020b13156115fa575060016106fa565b5060006106fa565b60606106fa83831c6003611e21565b600060ff826116208686611f00565b028161162857fe5b06949350505050565b606061166f61166a846102c7611647888a610f16565b611664611654888a610f16565b61165e8d8d610f16565b90611f07565b90610f3d565b610701565b9695505050505050565b606061168482611f2e565b6116a08360000151846020015185606001518660800151612638565b6116b7846060015185608001518660a001516129c3565b6116d58560c001518660e00151876101000151886101200151612b41565b6116f56116e6876101400151610701565b8760c001518860e00151612eca565b611708876101400151886040015161334f565b6040516020018087805190602001908083835b6020831061173a5780518252601f19909201916020918201910161171b565b51815160209384036101000a600019018019909216911617905289519190930192890191508083835b602083106117825780518252601f199092019160209182019101611763565b51815160209384036101000a600019018019909216911617905288519190930192880191508083835b602083106117ca5780518252601f1990920191602091820191016117ab565b51815160209384036101000a600019018019909216911617905287519190930192870191508083835b602083106118125780518252601f1990920191602091820191016117f3565b51815160209384036101000a600019018019909216911617905286519190930192860191508083835b6020831061185a5780518252601f19909201916020918201910161183b565b51815160209384036101000a600019018019909216911617905285519190930192850191508083835b602083106118a25780518252601f199092019160209182019101611883565b5181516020939093036101000a60001901801990911692169190911790527f3c2f7376673e0000000000000000000000000000000000000000000000000000920191825250604080518083037fffffffffffffffffffffffffffffffffffffffffffffffffffffffffffffffe6018152600690920190529998505050505050505050565b60008060008360020b1261193d578260020b611945565b8260020b6000035b9050620d89e881111561195757600080fd5b6000600182166119785770010000000000000000000000000000000061198a565b6ffffcb933bd6fad37aa2d162d1a5940015b70ffffffffffffffffffffffffffffffffff16905060028216156119be576ffff97272373d413259a46990580e213a0260801c5b60048216156119dd576ffff2e50f5f656932ef12357cf3c7fdcc0260801c5b60088216156119fc576fffe5caca7e10e4e61c3624eaa0941cd00260801c5b6010821615611a1b576fffcb9843d60f6159c9db58835c9266440260801c5b6020821615611a3a576fff973b41fa98c081472e6896dfb254c00260801c5b6040821615611a59576fff2ea16466c96a3843ec78b326b528610260801c5b6080821615611a78576ffe5dee046a99a2a811c461f1969c30530260801c5b610100821615611a98576ffcbe86c7900a88aedcffc83b479aa3a40260801c5b610200821615611ab8576ff987a7253ac413176f2b074cf7815e540260801c5b610400821615611ad8576ff3392b0822b70005940c7a398e4b70f30260801c5b610800821615611af8576fe7159475a2c29b7443b29c7fa6e889d90260801c5b611000821615611b18576fd097f3bdfd2022b8845ad8f792aa58250260801c5b612000821615611b38576fa9f746462d870fdf8a65dc1f90e061e50260801c5b614000821615611b58576f70d869a156d2a1b890bb3df62baf32f70260801c5b618000821615611b78576f31be135f97d08fd981231505542fcfa60260801c5b62010000821615611b99576f09aa508b5b7a84e1c677de54f3e99bc90260801c5b62020000821615611bb9576e5d6af8dedb81196699c329225ee6040260801c5b62040000821615611bd8576d2216e584f5fa1ea926041bedfe980260801c5b62080000821615611bf5576b048a170391f7dc42444e8fa20260801c5b60008460020b1315611c10578060001981611c0c57fe5b0490505b640100000000810615611c24576001611c27565b60005b60ff16602082901c0192505050919050565b60606000611c488585856133c7565b90506000611c6082836801000000000000000061350a565b90506c0100000000000000000000000082108015611cae57611ca78272047bf19673df52e37f2410011d10000000000070010000000000000000000000000000000061350a565b9150611cd0565b611ccd82620186a070010000000000000000000000000000000061350a565b91505b8160005b8115611ce857600101600a82049150611cd4565b60001901600080611cf986846135b9565b915091508015611d0a576001909201915b611d1261461d565b8515611d7f57611d31611d29602b60ff8716610f16565b600790610f2b565b60ff908116602083015260026080830152611d57906001906102c790602b908816610f16565b60ff90811660a08301526020820151611d7291166001610f16565b60ff166040820152611df6565b60098460ff1610611dc857611d9860ff85166004610f16565b60ff166020820181905260056080830152611db4906001610f16565b60ff1660a082015260046040820152611df6565b60066020820152600560408201819052611ded906001906102c79060ff881690610f16565b60ff1660608201525b82815285151560c0820152600060e0820152611e1181610f5c565b9c9b505050505050505050505050565b606060008260020267ffffffffffffffff81118015611e3f57600080fd5b506040519080825280601f01601f191660200182016040528015611e6a576020820181803683370190505b5080519091505b8015611ef8577f303132333435363738396162636465660000000000000000000000000000000085600f1660108110611ea657fe5b1a60f81b826001830381518110611eb957fe5b60200101907effffffffffffffffffffffffffffffffffffffffffffffffffffffffffffff1916908160001a90535060049490941c9360001901611e71565b509392505050565b1c60ff1690565b600082611f1657506000610486565b82820282848281611f2357fe5b04146106fa57600080fd5b6060611fd782610160015160405160200180806158da6081913960810182805190602001908083835b60208310611f765780518252601f199092019160209182019101611f57565b6001836020036101000a038019825116818451168082178552505050505050905001807f272f3e3c2f7376673e0000000000000000000000000000000000000000000000815250600901915050604051602081830303815290604052610b10565b61216e836101e0015184610200015185610180015160405160200180806154176063913960630184805190602001908083835b602083106120295780518252601f19909201916020918201910161200a565b51815160209384036101000a60001901801990921691161790527f272063793d270000000000000000000000000000000000000000000000000000919093019081528551600690910192860191508083835b6020831061209a5780518252601f19909201916020918201910161207b565b51815160209384036101000a60001901801990921691161790527f2720723d273132307078272066696c6c3d272300000000000000000000000000919093019081528451601390910192850191508083835b6020831061210b5780518252601f1990920191602091820191016120ec565b6001836020036101000a038019825116818451168082178552505050505050905001807f272f3e3c2f7376673e00000000000000000000000000000000000000000000008152506009019350505050604051602081830303815290604052610b10565b6121bf846102200151856102400151866101a001516040516020018080615417606391396063018480519060200190808383602083106120295780518252601f19909201916020918201910161200a565b6122f5856102600151866102800151876101c0015160405160200180806154176063913960630184805190602001908083835b602083106122115780518252601f1990920191602091820191016121f2565b51815160209384036101000a60001901801990921691161790527f272063793d270000000000000000000000000000000000000000000000000000919093019081528551600690910192860191508083835b602083106122825780518252601f199092019160209182019101612263565b51815160001960209485036101000a019081169019919091161790527f2720723d273130307078272066696c6c3d27230000000000000000000000000093909101928352845160139093019290850191508083836020831061210b5780518252601f1990920191602091820191016120ec565b6101608601516040516020018060566151928239605601602c615b4182397f3c646566733e0000000000000000000000000000000000000000000000000000602c820152603201604b61588f8239604b0186805190602001908083835b602083106123715780518252601f199092019160209182019101612352565b6001836020036101000a038019825116818451168082178552505050505050905001806163a6603e9139603e0185805190602001908083835b602083106123c95780518252601f1990920191602091820191016123aa565b6001836020036101000a0380198251168184511680821785525050505050509050018061595b603e9139603e0184805190602001908083835b602083106124215780518252601f199092019160209182019101612402565b5181516020939093036101000a60001901801990911692169190911790527f22202f3e00000000000000000000000000000000000000000000000000000000920191825250600401603b61508a8239603b0183805190602001908083835b6020831061249e5780518252601f19909201916020918201910161247f565b6001836020036101000a038019825116818451168082178552505050505050905001806154d760999139609901607f615f578239607f01608861631e823960880160416155708239604101605d6164de8239605d01607261600382396072016049614ff3823960490160be6157d1823960be0160716152a382396071016075615e9a823960750160666155b1823960660160a4615b6d823960a40160856163e482397f3c6720636c69702d706174683d2275726c2823636f726e65727329223e00000060858201527f3c726563742066696c6c3d22000000000000000000000000000000000000000060a2820152825160ae9091019060208401908083835b602083106125bc5780518252601f19909201916020918201910161259d565b6001836020036101000a0380198251168184511680821785525050505050509050018061561760319139603101604e61503c8239604e01605d61547a8239605d016041615ac082396041016052615999823960520160756164698239607501955050505050506040516020818303038152906040529050919050565b60608382858488878a8960405160200180806165c160259139602501607d6157548239607d0189805190602001908083835b602083106126895780518252601f19909201916020918201910161266a565b51815160209384036101000a60001901801990921691161790527f20e280a220000000000000000000000000000000000000000000000000000000919093019081528a516005909101928b0191508083835b602083106126fa5780518252601f1990920191602091820191016126db565b6001836020036101000a0380198251168184511680821785525050505050509050018061564860799139607901608661653b823960860187805190602001908083835b6020831061275c5780518252601f19909201916020918201910161273d565b51815160209384036101000a60001901801990921691161790527f20e280a220000000000000000000000000000000000000000000000000000000919093019081528851600590910192890191508083835b602083106127cd5780518252601f1990920191602091820191016127ae565b6001836020036101000a0380198251168184511680821785525050505050509050018061521e60859139608501607b61618c8239607b0185805190602001908083835b6020831061282f5780518252601f199092019160209182019101612810565b51815160209384036101000a60001901801990921691161790527f20e280a220000000000000000000000000000000000000000000000000000000919093019081528651600590910192870191508083835b602083106128a05780518252601f199092019160209182019101612881565b6001836020036101000a03801982511681845116808217855250505050505090500180615368605d9139605d0160a3615df7823960a30183805190602001908083835b602083106129025780518252601f1990920191602091820191016128e3565b51815160209384036101000a60001901801990921691161790527f20e280a220000000000000000000000000000000000000000000000000000000919093019081528451600590910192850191508083835b602083106129735780518252601f199092019160209182019101612954565b6001836020036101000a03801982511681845116808217855250505050505090500180614f68608b9139608b01985050505050505050506040516020818303038152906040529050949350505050565b606083838360405160200180806150c560cd913960cd0184805190602001908083835b60208310612a055780518252601f1990920191602091820191016129e6565b6001836020036101000a038019825116818451168082178552505050505050905001807f2f0000000000000000000000000000000000000000000000000000000000000081525060010183805190602001908083835b60208310612a7a5780518252601f199092019160209182019101612a5b565b6001836020036101000a038019825116818451168082178552505050505050905001806167466077913960770182805190602001908083835b60208310612ad25780518252601f199092019160209182019101612ab3565b5181516020939093036101000a60001901801990911692169190911790527f3c2f746578743e3c2f673e000000000000000000000000000000000000000000920191825250600b0160736165e68239607301935050505060405160208183030381529060405290509392505050565b606060008260000b600114612bd3578260000b60001914612b97576040518060400160405280600581526020017f236e6f6e65000000000000000000000000000000000000000000000000000000815250612bce565b6040518060400160405280600a81526020017f23666164652d646f776e000000000000000000000000000000000000000000008152505b612c0a565b6040518060400160405280600881526020017f23666164652d75700000000000000000000000000000000000000000000000008152505b90506000612c19878787613648565b905081818383612c2888613896565b60405160200180807f3c67206d61736b3d2275726c2800000000000000000000000000000000000000815250600d0186805190602001908083835b60208310612c825780518252601f199092019160209182019101612c63565b5181516020939093036101000a60001901801990911692169190911790527f29220000000000000000000000000000000000000000000000000000000000009201918252506002016077615c11823960770185805190602001908083835b60208310612cff5780518252601f199092019160209182019101612ce0565b6001836020036101000a0380198251168184511680821785525050505050509050018061531460549139605401807f3c2f673e3c67206d61736b3d2275726c2800000000000000000000000000000081525060110184805190602001908083835b60208310612d7f5780518252601f199092019160209182019101612d60565b5181516020939093036101000a60001901801990911692169190911790527f29220000000000000000000000000000000000000000000000000000000000009201918252506002016029615c8882396029016045615cdb8239604501807f3c7061746820643d22000000000000000000000000000000000000000000000081525060090183805190602001908083835b60208310612e2e5780518252601f199092019160209182019101612e0f565b6001836020036101000a03801982511681845116808217855250505050505090500180615f0f6048913960480182805190602001908083835b60208310612e865780518252601f199092019160209182019101612e67565b6001836020036101000a0380198251168184511680821785525050505050509050019550505050505060405160208183030381529060405292505050949350505050565b60606000612ed784613df1565b90506000612ee484613df1565b865183518251929350600490910191600a9182019101600080612f078a8a613f17565b91509150612f1a85600401600702610701565b8b612f2a86600401600702610701565b89612f3a87600401600702610701565b8a87876040516020018080615fd6602d9139602d01807f3c726563742077696474683d2200000000000000000000000000000000000000815250600d0189805190602001908083835b60208310612fa25780518252601f199092019160209182019101612f83565b6001836020036101000a038019825116818451168082178552505050505050905001806159eb603d9139603d01608d6166598239608d0188805190602001908083835b602083106130045780518252601f199092019160209182019101612fe5565b5181516020939093036101000a60001901801990911692169190911790527f3c2f746578743e3c2f673e000000000000000000000000000000000000000000920191825250600b01602d6167f58239602d01807f3c726563742077696474683d2200000000000000000000000000000000000000815250600d0187805190602001908083835b602083106130a95780518252601f19909201916020918201910161308a565b6001836020036101000a038019825116818451168082178552505050505050905001806159eb603d9139603d0160936156c1823960930186805190602001908083835b6020831061310b5780518252601f1990920191602091820191016130ec565b5181516020939093036101000a60001901801990911692169190911790527f3c2f746578743e3c2f673e000000000000000000000000000000000000000000920191825250600b01602d6153c58239602d01807f3c726563742077696474683d2200000000000000000000000000000000000000815250600d0185805190602001908083835b602083106131b05780518252601f199092019160209182019101613191565b6001836020036101000a038019825116818451168082178552505050505050905001806159eb603d9139603d016093616207823960930184805190602001908083835b602083106132125780518252601f1990920191602091820191016131f3565b6001836020036101000a038019825116818451168082178552505050505050905001806167bd6038913960380160606166e682396060016064615d93823960640160256153f2823960250183805190602001908083835b602083106132885780518252601f199092019160209182019101613269565b51815160209384036101000a60001901801990921691161790527f70782c2000000000000000000000000000000000000000000000000000000000919093019081528451600490910192850191508083835b602083106132f95780518252601f1990920191602091820191016132da565b6001836020036101000a038019825116818451168082178552505050505050905001806151e860369139603601985050505050505050506040516020818303038152906040529750505050505050509392505050565b606061335b83836144b0565b156133b15760405160200180608d6160ff8239608d016073615d2082396073016071615a4f8239607101608a6160758239608a01608461629a823960840190506040516020818303038152906040529050610486565b5060408051602081019091526000815292915050565b6000806133e26133dd60ff868116908616614526565b614559565b90506000811180156133f5575060128111155b156134ea578260ff168460ff16111561347957613436613416826002610f3d565b73ffffffffffffffffffffffffffffffffffffffff871690600a0a611f07565b9150600281066001141561347457613471827003298b075b4b6a5240945790619b37fd4a70010000000000000000000000000000000061350a565b91505b6134e5565b6134a7613487826002610f3d565b73ffffffffffffffffffffffffffffffffffffffff871690600a0a610f3d565b915060028106600114156134e5576134e2827001000000000000000000000000000000007003298b075b4b6a5240945790619b37fd4a61350a565b91505b611ef8565b505073ffffffffffffffffffffffffffffffffffffffff90921692915050565b6000808060001985870986860292508281109083900303905080613540576000841161353557600080fd5b5082900490506106fa565b80841161354c57600080fd5b6000848688096000868103871696879004966002600389028118808a02820302808a02820302808a02820302808a02820302808a02820302808a02909103029181900381900460010186841190950394909402919094039290920491909117919091029150509392505050565b600080600060058460ff1611156135ff576135fc8560ff7ffffffffffffffffffffffffffffffffffffffffffffffffffffffffffffffffb870116600a0a610f3d565b94505b60006004600a870611905061361586600a610f3d565b95508015613624578560010195505b85620186a0141561363a57600a86049550600191505b5084925090505b9250929050565b606060008260020b85850360020b8161365d57fe5b05905060048160020b136136a8576040518060400160405280601a81526020017f4d312031433431203431203130352031303520313435203134350000000000008152509150611ef8565b60088160020b136136f0576040518060400160405280601981526020017f4d312031433333203439203937203131332031343520313435000000000000008152509150611ef8565b60108160020b13613738576040518060400160405280601981526020017f4d312031433333203537203839203131332031343520313435000000000000008152509150611ef8565b60208160020b13613780576040518060400160405280601981526020017f4d312031433235203635203831203132312031343520313435000000000000008152509150611ef8565b60408160020b136137c8576040518060400160405280601981526020017f4d312031433137203733203733203132392031343520313435000000000000008152509150611ef8565b60808160020b13613810576040518060400160405280601881526020017f4d312031433920383120363520313337203134352031343500000000000000008152509150611ef8565b6101008160020b13613859576040518060400160405280601a81526020017f4d31203143312038392035372e352031343520313435203134350000000000008152509150611ef8565b505060408051808201909152601881527f4d3120314331203937203439203134352031343520313435000000000000000060208201529392505050565b604080518082018252600281527f37330000000000000000000000000000000000000000000000000000000000006020808301919091528251808401845260038082527f313930000000000000000000000000000000000000000000000000000000000082840152845180860186528181527f32313700000000000000000000000000000000000000000000000000000000008185015285518087019096529085527f3333340000000000000000000000000000000000000000000000000000000000928501929092526060939091906001600087900b148061397d57508560000b600019145b15613baf578560000b600019146139945781613996565b835b8660000b600019146139a857816139aa565b835b8760000b600019146139bc57836139be565b855b8860000b600019146139d057836139d2565b855b60405160200180807f3c636972636c652063783d220000000000000000000000000000000000000000815250600c0185805190602001908083835b60208310613a2c5780518252601f199092019160209182019101613a0d565b51815160209384036101000a60001901801990921691161790527f7078222063793d22000000000000000000000000000000000000000000000000919093019081528651600890910192870191508083835b60208310613a9d5780518252601f199092019160209182019101613a7e565b6001836020036101000a03801982511681845116808217855250505050505090500180615a286027913960270183805190602001908083835b60208310613af55780518252601f199092019160209182019101613ad6565b51815160209384036101000a60001901801990921691161790527f7078222063793d22000000000000000000000000000000000000000000000000919093019081528451600890910192850191508083835b60208310613b665780518252601f199092019160209182019101613b47565b6001836020036101000a03801982511681845116808217855250505050505090500180615cb1602a9139602a019450505050506040516020818303038152906040529450613de8565b8383838360405160200180807f3c636972636c652063783d220000000000000000000000000000000000000000815250600c0185805190602001908083835b60208310613c0d5780518252601f199092019160209182019101613bee565b51815160209384036101000a60001901801990921691161790527f7078222063793d22000000000000000000000000000000000000000000000000919093019081528651600890910192870191508083835b60208310613c7e5780518252601f199092019160209182019101613c5f565b51815160209384036101000a60001901801990921691161790527f70782220723d22347078222066696c6c3d22776869746522202f3e0000000000919093019081527f3c636972636c652063783d220000000000000000000000000000000000000000601b8201528551602790910192860191508083835b60208310613d155780518252601f199092019160209182019101613cf6565b51815160209384036101000a60001901801990921691161790527f7078222063793d22000000000000000000000000000000000000000000000000919093019081528451600890910192850191508083835b60208310613d865780518252601f199092019160209182019101613d67565b6001836020036101000a038019825116818451168082178552505050505050905001807f70782220723d22347078222066696c6c3d22776869746522202f3e0000000000815250601b0194505050505060405160208183030381529060405294505b50505050919050565b6060600060405180602001604052806000815250905060008360020b1215613e5357826000190292506040518060400160405280600181526020017f2d0000000000000000000000000000000000000000000000000000000000000081525090505b80613e608460020b610701565b6040516020018083805190602001908083835b60208310613e925780518252601f199092019160209182019101613e73565b51815160209384036101000a600019018019909216911617905285519190930192850191508083835b60208310613eda5780518252601f199092019160209182019101613ebb565b6001836020036101000a03801982511681845116808217855250505050505090500192505050604051602081830303815290604052915050919050565b60608060006002858501810b0590507ffffffffffffffffffffffffffffffffffffffffffffffffffffffffffffe17b88160020b1215613fc7576040518060400160405280600181526020017f38000000000000000000000000000000000000000000000000000000000000008152506040518060400160405280600181526020017f37000000000000000000000000000000000000000000000000000000000000008152509250925050613641565b7ffffffffffffffffffffffffffffffffffffffffffffffffffffffffffffedb088160020b1215614068576040518060400160405280600181526020017f38000000000000000000000000000000000000000000000000000000000000008152506040518060400160405280600481526020017f31302e35000000000000000000000000000000000000000000000000000000008152509250925050613641565b7fffffffffffffffffffffffffffffffffffffffffffffffffffffffffffff9e588160020b1215614109576040518060400160405280600181526020017f38000000000000000000000000000000000000000000000000000000000000008152506040518060400160405280600581526020017f31342e32350000000000000000000000000000000000000000000000000000008152509250925050613641565b7fffffffffffffffffffffffffffffffffffffffffffffffffffffffffffffec788160020b12156141aa576040518060400160405280600281526020017f31300000000000000000000000000000000000000000000000000000000000008152506040518060400160405280600281526020017f31380000000000000000000000000000000000000000000000000000000000008152509250925050613641565b60008160020b121561422c576040518060400160405280600281526020017f31310000000000000000000000000000000000000000000000000000000000008152506040518060400160405280600281526020017f32310000000000000000000000000000000000000000000000000000000000008152509250925050613641565b6113888160020b12156142af576040518060400160405280600281526020017f31330000000000000000000000000000000000000000000000000000000000008152506040518060400160405280600281526020017f32330000000000000000000000000000000000000000000000000000000000008152509250925050613641565b6161a88160020b1215614332576040518060400160405280600281526020017f31350000000000000000000000000000000000000000000000000000000000008152506040518060400160405280600281526020017f32350000000000000000000000000000000000000000000000000000000000008152509250925050613641565b620124f88160020b12156143b6576040518060400160405280600281526020017f31380000000000000000000000000000000000000000000000000000000000008152506040518060400160405280600281526020017f32360000000000000000000000000000000000000000000000000000000000008152509250925050613641565b6201e8488160020b121561443a576040518060400160405280600281526020017f32310000000000000000000000000000000000000000000000000000000000008152506040518060400160405280600281526020017f32370000000000000000000000000000000000000000000000000000000000008152509250925050613641565b6040518060400160405280600281526020017f32340000000000000000000000000000000000000000000000000000000000008152506040518060400160405280600281526020017f32370000000000000000000000000000000000000000000000000000000000008152509250925050613641565b6040805160208082018590527fffffffffffffffffffffffffffffffffffffffff000000000000000000000000606085901b1682840152825160348184030181526054909201909252805191012060009061450a84614570565b60020260010160ff166000198161451d57fe5b04119392505050565b600081830381831280159061453b5750838113155b80614550575060008312801561455057508381135b6106fa57600080fd5b60008082121561456c5781600003610486565b5090565b600080821161457e57600080fd5b700100000000000000000000000000000000821061459e57608091821c91015b6801000000000000000082106145b657604091821c91015b64010000000082106145ca57602091821c91015b6201000082106145dc57601091821c91015b61010082106145ed57600891821c91015b601082106145fd57600491821c91015b6004821061460d57600291821c91015b6002821061016b57600101919050565b6040805161010081018252600080825260208201819052918101829052606081018290526080810182905260a0810182905260c0810182905260e081019190915290565b803573ffffffffffffffffffffffffffffffffffffffff8116811461016b57600080fd5b8035801515811461016b57600080fd5b8035600281900b811461016b57600080fd5b600082601f8301126146b7578081fd5b813567ffffffffffffffff8111156146cb57fe5b6146de6020601f19601f84011601614f13565b8181528460208386010111156146f2578283fd5b816020850160208301379081016020019190915292915050565b803562ffffff8116811461016b57600080fd5b803560ff8116811461016b57600080fd5b600060208284031215614741578081fd5b813567ffffffffffffffff80821115614758578283fd5b81840191506101c080838703121561476e578384fd5b61477781614f13565b90508235815261478960208401614661565b602082015261479a60408401614661565b60408201526060830135828111156147b0578485fd5b6147bc878286016146a7565b6060830152506080830135828111156147d3578485fd5b6147df878286016146a7565b6080830152506147f160a0840161471f565b60a082015261480260c0840161471f565b60c082015261481360e08401614685565b60e08201526101009150614828828401614695565b82820152610120915061483c828401614695565b828201526101409150614850828401614695565b828201526101609150614864828401614695565b82820152610180915061487882840161470c565b828201526101a0915061488c828401614661565b91810191909152949350505050565b600081516148ad818560208601614f37565b9290920192915050565b7fe29aa0efb88f20444953434c41494d45523a204475652064696c6967656e636581527f20697320696d7065726174697665207768656e20617373657373696e6720746860208201527f6973204e46542e204d616b65207375726520746f6b656e20616464726573736560408201527f73206d617463682074686520657870656374656420746f6b656e732c2061732060608201527f746f6b656e2073796d626f6c73206d617920626520696d6974617465642e00006080820152609e0190565b7f5c6e5c6e00000000000000000000000000000000000000000000000000000000815260040190565b60007f54686973204e465420726570726573656e74732061206c69717569646974792082527f706f736974696f6e20696e206120556e69737761702056332000000000000000602083015285516149ff816039850160208a01614f37565b7f2d000000000000000000000000000000000000000000000000000000000000006039918401918201528551614a3c81603a840160208a01614f37565b7f20706f6f6c2e2000000000000000000000000000000000000000000000000000603a92909101918201527f546865206f776e6572206f662074686973204e46542063616e206d6f6469667960418201527f206f722072656465656d2074686520706f736974696f6e2e5c6e00000000000060618201527f5c6e506f6f6c20416464726573733a2000000000000000000000000000000000607b8201528451614aec81608b840160208901614f37565b7f5c6e000000000000000000000000000000000000000000000000000000000000608b92909101918201526103c6608d82018561489b565b60007f7b226e616d65223a22000000000000000000000000000000000000000000000082528551614b5c816009850160208a01614f37565b7f222c20226465736372697074696f6e223a2200000000000000000000000000006009918401918201528551614b9981601b840160208a01614f37565b8551910190614baf81601b840160208901614f37565b7f222c2022696d616765223a202200000000000000000000000000000000000000601b92909101918201527f646174613a696d6167652f7376672b786d6c3b6261736536342c00000000000060288201528351614c13816042840160208801614f37565b7f227d000000000000000000000000000000000000000000000000000000000000604292909101918201526044019695505050505050565b60007f556e6973776170202d200000000000000000000000000000000000000000000082528651614c8381600a850160208b01614f37565b80830190507f202d20000000000000000000000000000000000000000000000000000000000080600a8301528751614cc281600d850160208c01614f37565b7f2f00000000000000000000000000000000000000000000000000000000000000600d93909101928301528651614d0081600e850160208b01614f37565b600e9201918201528451614d1b816011840160208901614f37565b7f3c3e000000000000000000000000000000000000000000000000000000000000601192909101918201528351614d59816013840160208801614f37565b01601301979650505050505050565b60007f20416464726573733a20000000000000000000000000000000000000000000008083528751614da181600a860160208c01614f37565b7f5c6e000000000000000000000000000000000000000000000000000000000000600a918501918201528751614dde81600c840160208c01614f37565b01600c810191909152855190614dfb826016830160208a01614f37565b8181019150507f5c6e46656520546965723a20000000000000000000000000000000000000000060168201528451614e3a816022840160208901614f37565b7f5c6e546f6b656e2049443a200000000000000000000000000000000000000000602292909101918201528351614e7881602e840160208801614f37565b614e8e614e89602e83850101614978565b6148b7565b9998505050505050505050565b60007f646174613a6170706c69636174696f6e2f6a736f6e3b6261736536342c00000082528251614ed381601d850160208701614f37565b91909101601d0192915050565b6000602082528251806020840152614eff816040850160208701614f37565b601f01601f19169190910160400192915050565b60405181810167ffffffffffffffff81118282101715614f2f57fe5b604052919050565b60005b83811015614f52578181015183820152602001614f3a565b83811115614f61576000848401525b5050505056fe203c616e696d6174652061646469746976653d2273756d22206174747269627574654e616d653d2273746172744f6666736574222066726f6d3d2230252220746f3d22313030252220626567696e3d22307322206475723d223330732220726570656174436f756e743d22696e646566696e69746522202f3e3c2f74657874506174683e3c2f746578743e3c73746f70206f66667365743d222e39222073746f702d636f6c6f723d227768697465222073746f702d6f7061636974793d223022202f3e3c2f6c696e6561724772616469656e743e3c72656374207374796c653d2266696c7465723a2075726c28236631292220783d223070782220793d22307078222077696474683d22323930707822206865696768743d22353030707822202f3e3c6665496d61676520726573756c743d2270332220786c696e6b3a687265663d22646174613a696d6167652f7376672b786d6c3b6261736536342c3c67206d61736b3d2275726c2823666164652d73796d626f6c29223e3c726563742066696c6c3d226e6f6e652220783d223070782220793d22307078222077696474683d22323930707822206865696768743d22323030707822202f3e203c7465787420793d22373070782220783d2233327078222066696c6c3d2277686974652220666f6e742d66616d696c793d2227436f7572696572204e6577272c206d6f6e6f73706163652220666f6e742d7765696768743d223230302220666f6e742d73697a653d2233367078223e3c7376672077696474683d2232393022206865696768743d22353030222076696577426f783d2230203020323930203530302220786d6c6e733d22687474703a2f2f7777772e77332e6f72672f323030302f7376672270782c2030707829222063783d22307078222063793d223070782220723d22347078222066696c6c3d227768697465222f3e3c2f673e203c616e696d6174652061646469746976653d2273756d22206174747269627574654e616d653d2273746172744f6666736574222066726f6d3d2230252220746f3d22313030252220626567696e3d22307322206475723d223330732220726570656174436f756e743d22696e646566696e69746522202f3e203c2f74657874506174683e3c6d61736b2069643d22666164652d757022206d61736b436f6e74656e74556e6974733d226f626a656374426f756e64696e67426f78223e3c726563742077696474683d223122206865696768743d2231222066696c6c3d2275726c2823677261642d75702922202f3e3c2f6d61736b3e22207374726f6b653d227267626128302c302c302c302e332922207374726f6b652d77696474683d2233327078222066696c6c3d226e6f6e6522207374726f6b652d6c696e656361703d22726f756e6422202f3e203c616e696d6174652061646469746976653d2273756d22206174747269627574654e616d653d2273746172744f6666736574222066726f6d3d2230252220746f3d22313030252220626567696e3d22307322206475723d2233307322203c67207374796c653d227472616e73666f726d3a7472616e736c61746528323970782c20343434707829223e3c636972636c65207374796c653d227472616e73666f726d3a7472616e736c6174653364283c7376672077696474683d2732393027206865696768743d27353030272076696577426f783d2730203020323930203530302720786d6c6e733d27687474703a2f2f7777772e77332e6f72672f323030302f737667273e3c636972636c652063783d27203c67207374796c653d2266696c7465723a75726c2823746f702d726567696f6e2d626c7572293b207472616e73666f726d3a7363616c6528312e35293b207472616e73666f726d2d6f726967696e3a63656e74657220746f703b223e22202f3e3c6665426c656e64206d6f64653d226f7665726c61792220696e3d2270302220696e323d22703122202f3e3c6665426c656e64206d6f64653d226578636c7573696f6e2220696e323d22703222202f3e3c6665426c656e64206d6f64653d226f7665726c61792220696e323d2270332220726573756c743d22626c656e644f757422202f3e3c6665476175737369616e426c7572203c706174682069643d226d696e696d61702220643d224d3233342034343443323334203435372e393439203234322e323120343633203235332034363322202f3e3c6d61736b2069643d226e6f6e6522206d61736b436f6e74656e74556e6974733d226f626a656374426f756e64696e67426f78223e3c726563742077696474683d223122206865696768743d2231222066696c6c3d22776869746522202f3e3c2f6d61736b3e2220783d223070782220793d22307078222077696474683d22323930707822206865696768743d22353030707822202f3e203c616e696d6174652061646469746976653d2273756d22206174747269627574654e616d653d2273746172744f6666736574222066726f6d3d2230252220746f3d22313030252220626567696e3d22307322206475723d223330732220726570656174436f756e743d22696e646566696e69746522202f3e3c7465787420783d22313270782220793d22313770782220666f6e742d66616d696c793d2227436f7572696572204e6577272c206d6f6e6f73706163652220666f6e742d73697a653d2231327078222066696c6c3d227768697465223e3c747370616e2066696c6c3d2272676261283235352c3235352c3235352c302e3629223e4d696e205469636b3a203c2f747370616e3e3c74657874506174682073746172744f66667365743d222d31303025222066696c6c3d2277686974652220666f6e742d66616d696c793d2227436f7572696572204e6577272c206d6f6e6f73706163652220666f6e742d73697a653d22313070782220786c696e6b3a687265663d2223746578742d706174682d61223e3c6c696e6561724772616469656e742069643d22677261642d646f776e222078313d2230222078323d2231222079313d2230222079323d2231223e3c73746f70206f66667365743d22302e30222073746f702d636f6c6f723d227768697465222073746f702d6f7061636974793d223122202f3e3c73746f70206f66667365743d22302e39222073746f702d636f6c6f723d227768697465222073746f702d6f7061636974793d223022202f3e3c2f6c696e6561724772616469656e743e3c66696c7465722069643d226631223e3c6665496d61676520726573756c743d2270302220786c696e6b3a687265663d22646174613a696d6167652f7376672b786d6c3b6261736536342c3c7376672077696474683d2732393027206865696768743d27353030272076696577426f783d2730203020323930203530302720786d6c6e733d27687474703a2f2f7777772e77332e6f72672f323030302f737667273e3c726563742077696474683d27323930707827206865696768743d273530307078272066696c6c3d2723222f3e3c6665496d61676520726573756c743d2270322220786c696e6b3a687265663d22646174613a696d6167652f7376672b786d6c3b6261736536342c3c656c6c697073652063783d22353025222063793d22307078222072783d223138307078222072793d223132307078222066696c6c3d222330303022206f7061636974793d22302e383522202f3e3c2f673e707822206865696768743d2232367078222072783d22387078222072793d22387078222066696c6c3d227267626128302c302c302c302e362922202f3e70782220723d22347078222066696c6c3d22776869746522202f3e3c636972636c652063783d2231312e333437384c32342031324c31342e343334312031322e363532324c32322e333932332031384c31332e373831392031332e373831394c31382032322e333932334c31322e363532322031342e343334314c31322032344c31312e333437382031342e343334314c362032322e33393c726563742066696c6c3d226e6f6e652220783d223070782220793d22307078222077696474683d22323930707822206865696768743d22353030707822202f3e4142434445464748494a4b4c4d4e4f505152535455565758595a6162636465666768696a6b6c6d6e6f707172737475767778797a303132333435363738392b2f20786d6c6e733a786c696e6b3d27687474703a2f2f7777772e77332e6f72672f313939392f786c696e6b273e3c6c696e6561724772616469656e742069643d22677261642d73796d626f6c223e3c73746f70206f66667365743d22302e37222073746f702d636f6c6f723d227768697465222073746f702d6f7061636974793d223122202f3e3c73746f70206f66667365743d222e3935222073746f702d636f6c6f723d227768697465222073746f702d6f7061636974793d223022202f3e3c2f6c696e6561724772616469656e743e207374796c653d227472616e73666f726d3a7472616e736c61746528373270782c313839707829223e3c7265637420783d222d313670782220793d222d31367078222077696474683d22313830707822206865696768743d223138307078222066696c6c3d226e6f6e6522202f3e3c7061746820643d22207374796c653d227472616e73666f726d3a7472616e736c61746528373270782c313839707829223e70782220723d2232347078222066696c6c3d226e6f6e6522207374726f6b653d22776869746522202f3e3c7265637420783d222d313670782220793d222d31367078222077696474683d22313830707822206865696768743d223138307078222066696c6c3d226e6f6e6522202f3e3c673e3c70617468207374796c653d227472616e73666f726d3a7472616e736c617465283670782c367078292220643d224d313220304c31322e3635323220392e35363538374c313820312e363037374c31332e373831392031302e323138314c32322e3339323320364c31342e34333431203c70617468207374726f6b652d6c696e656361703d22726f756e642220643d224d38203943382e30303030342032322e393439342031362e32303939203238203237203238222066696c6c3d226e6f6e6522207374726f6b653d22776869746522202f3e20726570656174436f756e743d22696e646566696e69746522202f3e3c2f74657874506174683e3c74657874506174682073746172744f66667365743d222d353025222066696c6c3d2277686974652220666f6e742d66616d696c793d2227436f7572696572204e6577272c206d6f6e6f73706163652220666f6e742d73697a653d22313070782220786c696e6b3a687265663d2223746578742d706174682d61223e3c6d61736b2069643d22666164652d646f776e22206d61736b436f6e74656e74556e6974733d226f626a656374426f756e64696e67426f78223e3c726563742077696474683d223122206865696768743d2231222066696c6c3d2275726c2823677261642d646f776e2922202f3e3c2f6d61736b3e22207374726f6b653d2272676261283235352c3235352c3235352c3129222066696c6c3d226e6f6e6522207374726f6b652d6c696e656361703d22726f756e6422202f3e3c2f673e696e3d22626c656e644f75742220737464446576696174696f6e3d22343222202f3e3c2f66696c7465723e203c636c6970506174682069643d22636f726e657273223e3c726563742077696474683d2232393022206865696768743d22353030222072783d223432222072793d22343222202f3e3c2f636c6970506174683e203c67207374796c653d227472616e73666f726d3a7472616e736c61746528323970782c20333834707829223e3c6c696e6561724772616469656e742069643d22677261642d7570222078313d2231222078323d2230222079313d2231222079323d2230223e3c73746f70206f66667365743d22302e30222073746f702d636f6c6f723d227768697465222073746f702d6f7061636974793d223122202f3e32334c31302e323138312031332e373831394c312e363037372031384c392e35363538372031322e363532324c302031324c392e35363538372031312e333437384c312e3630373720364c31302e323138312031302e323138314c3620312e363037374c31312e3334373820392e35363538374c313220305a222066696c6c3d22776869746522202f3e3c67207374796c653d227472616e73666f726d3a7472616e736c6174652832323670782c20333932707829223e3c726563742077696474683d223336707822206865696768743d2233367078222072783d22387078222072793d22387078222066696c6c3d226e6f6e6522207374726f6b653d2272676261283235352c3235352c3235352c302e322922202f3e3c74657874506174682073746172744f66667365743d22353025222066696c6c3d2277686974652220666f6e742d66616d696c793d2227436f7572696572204e6577272c206d6f6e6f73706163652220666f6e742d73697a653d22313070782220786c696e6b3a687265663d2223746578742d706174682d61223e3c7465787420783d22313270782220793d22313770782220666f6e742d66616d696c793d2227436f7572696572204e6577272c206d6f6e6f73706163652220666f6e742d73697a653d2231327078222066696c6c3d227768697465223e3c747370616e2066696c6c3d2272676261283235352c3235352c3235352c302e3629223e4d6178205469636b3a203c2f747370616e3e3c616e696d6174655472616e73666f726d206174747269627574654e616d653d227472616e73666f726d2220747970653d22726f74617465222066726f6d3d22302031382031382220746f3d2233363020313820313822206475723d223130732220726570656174436f756e743d22696e646566696e697465222f3e3c2f673e3c2f673e3c706174682069643d22746578742d706174682d612220643d224d34302031322048323530204132382032382030203020312032373820343020563436302041323820323820302030203120323530203438382048343020413238203238203020302031203132203436302056343020413238203238203020302031203430203132207a22202f3e222f3e3c6665496d61676520726573756c743d2270312220786c696e6b3a687265663d22646174613a696d6167652f7376672b786d6c3b6261736536342c3c6d61736b2069643d22666164652d73796d626f6c22206d61736b436f6e74656e74556e6974733d227573657253706163654f6e557365223e3c726563742077696474683d22323930707822206865696768743d223230307078222066696c6c3d2275726c2823677261642d73796d626f6c2922202f3e3c2f6d61736b3e3c2f646566733e3c7265637420783d22302220793d2230222077696474683d2232393022206865696768743d22353030222072783d223432222072793d223432222066696c6c3d227267626128302c302c302c302922207374726f6b653d2272676261283235352c3235352c3235352c302e322922202f3e3c2f673e3c66696c7465722069643d22746f702d726567696f6e2d626c7572223e3c6665476175737369616e426c757220696e3d22536f75726365477261706869632220737464446576696174696f6e3d22323422202f3e3c2f66696c7465723e3c2f74657874506174683e203c74657874506174682073746172744f66667365743d223025222066696c6c3d2277686974652220666f6e742d66616d696c793d2227436f7572696572204e6577272c206d6f6e6f73706163652220666f6e742d73697a653d22313070782220786c696e6b3a687265663d2223746578742d706174682d61223e3c7465787420746578742d72656e646572696e673d226f7074696d697a655370656564223e3c7265637420783d2231362220793d223136222077696474683d2232353822206865696768743d22343638222072783d223236222072793d223236222066696c6c3d227267626128302c302c302c302922207374726f6b653d2272676261283235352c3235352c3235352c302e322922202f3e3c7465787420783d22313270782220793d22313770782220666f6e742d66616d696c793d2227436f7572696572204e6577272c206d6f6e6f73706163652220666f6e742d73697a653d2231327078222066696c6c3d227768697465223e3c747370616e2066696c6c3d2272676261283235352c3235352c3235352c302e3629223e49443a203c2f747370616e3e3c726563742077696474683d223336707822206865696768743d2233367078222072783d22387078222072793d22387078222066696c6c3d226e6f6e6522207374726f6b653d2272676261283235352c3235352c3235352c302e322922202f3e3c2f746578743e3c7465787420793d2231313570782220783d2233327078222066696c6c3d2277686974652220666f6e742d66616d696c793d2227436f7572696572204e6577272c206d6f6e6f73706163652220666f6e742d7765696768743d223230302220666f6e742d73697a653d2233367078223e3c2f746578743e3c2f673e3c67207374796c653d227472616e73666f726d3a7472616e736c6174652832323670782c20343333707829223e203c67207374796c653d227472616e73666f726d3a7472616e736c61746528323970782c20343134707829223ea164736f6c6343000706000a",
  "linkReferences": {},
  "deployedLinkReferences": {}
}